{
  "_format": "hh-sol-artifact-1",
  "contractName": "MoxieBondingCurveV2",
  "sourceName": "contracts/MoxieBondingCurveV2.sol",
  "abi": [
    {
      "inputs": [],
      "name": "AccessControlBadConfirmation",
      "type": "error"
    },
    {
      "inputs": [
        {
          "internalType": "address",
          "name": "account",
          "type": "address"
        },
        {
          "internalType": "bytes32",
          "name": "neededRole",
          "type": "bytes32"
        }
      ],
      "name": "AccessControlUnauthorizedAccount",
      "type": "error"
    },
    {
      "inputs": [
        {
          "internalType": "address",
          "name": "target",
          "type": "address"
        }
      ],
      "name": "AddressEmptyCode",
      "type": "error"
    },
    {
      "inputs": [
        {
          "internalType": "address",
          "name": "account",
          "type": "address"
        }
      ],
      "name": "AddressInsufficientBalance",
      "type": "error"
    },
    {
      "inputs": [],
      "name": "EnforcedPause",
      "type": "error"
    },
    {
      "inputs": [],
      "name": "ExpectedPause",
      "type": "error"
    },
    {
      "inputs": [],
      "name": "FailedInnerCall",
      "type": "error"
    },
    {
      "inputs": [],
      "name": "InvalidInitialization",
      "type": "error"
    },
    {
      "inputs": [],
      "name": "MoxieBondingCurve_InvalidAmount",
      "type": "error"
    },
    {
      "inputs": [],
      "name": "MoxieBondingCurve_InvalidBeneficiary",
      "type": "error"
    },
    {
      "inputs": [],
      "name": "MoxieBondingCurve_InvalidDepositAmount",
      "type": "error"
    },
    {
      "inputs": [],
      "name": "MoxieBondingCurve_InvalidFeePercentage",
      "type": "error"
    },
    {
      "inputs": [],
      "name": "MoxieBondingCurve_InvalidFormula",
      "type": "error"
    },
    {
      "inputs": [],
      "name": "MoxieBondingCurve_InvalidOwner",
      "type": "error"
    },
    {
      "inputs": [],
      "name": "MoxieBondingCurve_InvalidProtocolRewardAddress",
      "type": "error"
    },
    {
      "inputs": [],
      "name": "MoxieBondingCurve_InvalidReserveRation",
      "type": "error"
    },
    {
      "inputs": [],
      "name": "MoxieBondingCurve_InvalidSellAmount",
      "type": "error"
    },
    {
      "inputs": [],
      "name": "MoxieBondingCurve_InvalidSubject",
      "type": "error"
    },
    {
      "inputs": [],
      "name": "MoxieBondingCurve_InvalidSubjectFactory",
      "type": "error"
    },
    {
      "inputs": [],
      "name": "MoxieBondingCurve_InvalidSubjectSupply",
      "type": "error"
    },
    {
      "inputs": [],
      "name": "MoxieBondingCurve_InvalidSubjectToken",
      "type": "error"
    },
    {
      "inputs": [],
      "name": "MoxieBondingCurve_InvalidToken",
      "type": "error"
    },
    {
      "inputs": [],
      "name": "MoxieBondingCurve_InvalidTokenManager",
      "type": "error"
    },
    {
      "inputs": [],
      "name": "MoxieBondingCurve_InvalidVault",
      "type": "error"
    },
    {
      "inputs": [],
      "name": "MoxieBondingCurve_OnlySubjectFactory",
      "type": "error"
    },
    {
      "inputs": [],
      "name": "MoxieBondingCurve_SlippageExceedsLimit",
      "type": "error"
    },
    {
      "inputs": [],
      "name": "MoxieBondingCurve_SubjectAlreadyInitialized",
      "type": "error"
    },
    {
      "inputs": [],
      "name": "MoxieBondingCurve_SubjectNotInitialized",
      "type": "error"
    },
    {
      "inputs": [],
      "name": "MoxieBondingCurve_SubjectNotPaused",
      "type": "error"
    },
    {
      "inputs": [],
      "name": "MoxieBondingCurve_TradingPaused",
      "type": "error"
    },
    {
      "inputs": [],
      "name": "NotInitializing",
      "type": "error"
    },
    {
      "inputs": [
        {
          "internalType": "address",
          "name": "token",
          "type": "address"
        }
      ],
      "name": "SafeERC20FailedOperation",
      "type": "error"
    },
    {
      "anonymous": false,
      "inputs": [
        {
          "indexed": true,
          "internalType": "address",
          "name": "_subject",
          "type": "address"
        },
        {
          "indexed": true,
          "internalType": "address",
          "name": "_subjectToken",
          "type": "address"
        },
        {
          "indexed": false,
          "internalType": "uint256",
          "name": "_initialSupply",
          "type": "uint256"
        },
        {
          "indexed": false,
          "internalType": "uint256",
          "name": "_reserve",
          "type": "uint256"
        },
        {
          "indexed": false,
          "internalType": "uint32",
          "name": "_reserveRatio",
          "type": "uint32"
        }
      ],
      "name": "BondingCurveInitialized",
      "type": "event"
    },
    {
      "anonymous": false,
      "inputs": [
        {
          "indexed": false,
          "internalType": "uint64",
          "name": "version",
          "type": "uint64"
        }
      ],
      "name": "Initialized",
      "type": "event"
    },
    {
      "anonymous": false,
      "inputs": [
        {
          "indexed": false,
          "internalType": "address",
          "name": "account",
          "type": "address"
        }
      ],
      "name": "Paused",
      "type": "event"
    },
    {
      "anonymous": false,
      "inputs": [
        {
          "indexed": true,
          "internalType": "bytes32",
          "name": "role",
          "type": "bytes32"
        },
        {
          "indexed": true,
          "internalType": "bytes32",
          "name": "previousAdminRole",
          "type": "bytes32"
        },
        {
          "indexed": true,
          "internalType": "bytes32",
          "name": "newAdminRole",
          "type": "bytes32"
        }
      ],
      "name": "RoleAdminChanged",
      "type": "event"
    },
    {
      "anonymous": false,
      "inputs": [
        {
          "indexed": true,
          "internalType": "bytes32",
          "name": "role",
          "type": "bytes32"
        },
        {
          "indexed": true,
          "internalType": "address",
          "name": "account",
          "type": "address"
        },
        {
          "indexed": true,
          "internalType": "address",
          "name": "sender",
          "type": "address"
        }
      ],
      "name": "RoleGranted",
      "type": "event"
    },
    {
      "anonymous": false,
      "inputs": [
        {
          "indexed": true,
          "internalType": "bytes32",
          "name": "role",
          "type": "bytes32"
        },
        {
          "indexed": true,
          "internalType": "address",
          "name": "account",
          "type": "address"
        },
        {
          "indexed": true,
          "internalType": "address",
          "name": "sender",
          "type": "address"
        }
      ],
      "name": "RoleRevoked",
      "type": "event"
    },
    {
      "anonymous": false,
      "inputs": [
        {
          "indexed": false,
          "internalType": "address",
          "name": "_subject",
          "type": "address"
        },
        {
          "indexed": false,
          "internalType": "uint32",
          "name": "_oldReserveRatio",
          "type": "uint32"
        },
        {
          "indexed": false,
          "internalType": "uint32",
          "name": "_newReserveRatio",
          "type": "uint32"
        }
      ],
      "name": "SubjectReserveRatioUpdated",
      "type": "event"
    },
    {
      "anonymous": false,
      "inputs": [
        {
          "indexed": true,
          "internalType": "address",
          "name": "_subject",
          "type": "address"
        },
        {
          "indexed": true,
          "internalType": "address",
          "name": "_sellToken",
          "type": "address"
        },
        {
          "indexed": false,
          "internalType": "uint256",
          "name": "_sellAmount",
          "type": "uint256"
        },
        {
          "indexed": false,
          "internalType": "address",
          "name": "_spender",
          "type": "address"
        },
        {
          "indexed": false,
          "internalType": "address",
          "name": "_buyToken",
          "type": "address"
        },
        {
          "indexed": false,
          "internalType": "uint256",
          "name": "_buyAmount",
          "type": "uint256"
        },
        {
          "indexed": true,
          "internalType": "address",
          "name": "_beneficiary",
          "type": "address"
        }
      ],
      "name": "SubjectSharePurchased",
      "type": "event"
    },
    {
      "anonymous": false,
      "inputs": [
        {
          "indexed": true,
          "internalType": "address",
          "name": "_subject",
          "type": "address"
        },
        {
          "indexed": true,
          "internalType": "address",
          "name": "_sellToken",
          "type": "address"
        },
        {
          "indexed": false,
          "internalType": "uint256",
          "name": "_sellAmount",
          "type": "uint256"
        },
        {
          "indexed": false,
          "internalType": "address",
          "name": "_spender",
          "type": "address"
        },
        {
          "indexed": false,
          "internalType": "address",
          "name": "_buyToken",
          "type": "address"
        },
        {
          "indexed": false,
          "internalType": "uint256",
          "name": "_buyAmount",
          "type": "uint256"
        },
        {
          "indexed": true,
          "internalType": "address",
          "name": "_beneficiary",
          "type": "address"
        }
      ],
      "name": "SubjectShareSold",
      "type": "event"
    },
    {
      "anonymous": false,
      "inputs": [
        {
          "indexed": false,
          "internalType": "address",
          "name": "_subject",
          "type": "address"
        },
        {
          "indexed": false,
          "internalType": "bool",
          "name": "_isPaused",
          "type": "bool"
        }
      ],
      "name": "TradingPaused",
      "type": "event"
    },
    {
      "anonymous": false,
      "inputs": [
        {
          "indexed": false,
          "internalType": "address",
          "name": "account",
          "type": "address"
        }
      ],
      "name": "Unpaused",
      "type": "event"
    },
    {
      "anonymous": false,
      "inputs": [
        {
          "indexed": false,
          "internalType": "address",
          "name": "_beneficiary",
          "type": "address"
        }
      ],
      "name": "UpdateBeneficiary",
      "type": "event"
    },
    {
      "anonymous": false,
      "inputs": [
        {
          "indexed": false,
          "internalType": "uint256",
          "name": "_protocolBuyFeePct",
          "type": "uint256"
        },
        {
          "indexed": false,
          "internalType": "uint256",
          "name": "_protocolSellFeePct",
          "type": "uint256"
        },
        {
          "indexed": false,
          "internalType": "uint256",
          "name": "_subjectBuyFeePct",
          "type": "uint256"
        },
        {
          "indexed": false,
          "internalType": "uint256",
          "name": "_subjectSellFeePct",
          "type": "uint256"
        }
      ],
      "name": "UpdateFees",
      "type": "event"
    },
    {
      "anonymous": false,
      "inputs": [
        {
          "indexed": false,
          "internalType": "address",
          "name": "_formula",
          "type": "address"
        }
      ],
      "name": "UpdateFormula",
      "type": "event"
    },
    {
      "anonymous": false,
      "inputs": [
        {
          "indexed": false,
          "internalType": "uint256",
          "name": "_platformReferrerBuyFeePct",
          "type": "uint256"
        },
        {
          "indexed": false,
          "internalType": "uint256",
          "name": "_platformReferrerSellFeePct",
          "type": "uint256"
        },
        {
          "indexed": false,
          "internalType": "uint256",
          "name": "_orderReferrerBuyFeePct",
          "type": "uint256"
        },
        {
          "indexed": false,
          "internalType": "uint256",
          "name": "_orderReferrerSellFeePct",
          "type": "uint256"
        }
      ],
      "name": "UpdateReferralFees",
      "type": "event"
    },
    {
      "inputs": [],
      "name": "DEFAULT_ADMIN_ROLE",
      "outputs": [
        {
          "internalType": "bytes32",
          "name": "",
          "type": "bytes32"
        }
      ],
      "stateMutability": "view",
      "type": "function"
    },
    {
      "inputs": [],
      "name": "PAUSE_ROLE",
      "outputs": [
        {
          "internalType": "bytes32",
          "name": "",
          "type": "bytes32"
        }
      ],
      "stateMutability": "view",
      "type": "function"
    },
    {
      "inputs": [],
      "name": "PCT_BASE",
      "outputs": [
        {
          "internalType": "uint256",
          "name": "",
          "type": "uint256"
        }
      ],
      "stateMutability": "view",
      "type": "function"
    },
    {
      "inputs": [],
      "name": "PPM",
      "outputs": [
        {
          "internalType": "uint32",
          "name": "",
          "type": "uint32"
        }
      ],
      "stateMutability": "view",
      "type": "function"
    },
    {
      "inputs": [],
      "name": "UPDATE_BENEFICIARY_ROLE",
      "outputs": [
        {
          "internalType": "bytes32",
          "name": "",
          "type": "bytes32"
        }
      ],
      "stateMutability": "view",
      "type": "function"
    },
    {
      "inputs": [],
      "name": "UPDATE_FEES_ROLE",
      "outputs": [
        {
          "internalType": "bytes32",
          "name": "",
          "type": "bytes32"
        }
      ],
      "stateMutability": "view",
      "type": "function"
    },
    {
      "inputs": [],
      "name": "UPDATE_FORMULA_ROLE",
      "outputs": [
        {
          "internalType": "bytes32",
          "name": "",
          "type": "bytes32"
        }
      ],
      "stateMutability": "view",
      "type": "function"
    },
    {
      "inputs": [],
      "name": "UPDATE_PROTOCOL_REWARD_ROLE",
      "outputs": [
        {
          "internalType": "bytes32",
          "name": "",
          "type": "bytes32"
        }
      ],
      "stateMutability": "view",
      "type": "function"
    },
    {
      "inputs": [],
      "name": "UPDATE_RESERVE_RATIO",
      "outputs": [
        {
          "internalType": "bytes32",
          "name": "",
          "type": "bytes32"
        }
      ],
      "stateMutability": "view",
      "type": "function"
    },
    {
      "inputs": [
        {
          "internalType": "address",
          "name": "_subject",
          "type": "address"
        },
        {
          "internalType": "uint256",
          "name": "_depositAmount",
          "type": "uint256"
        },
        {
          "internalType": "uint256",
          "name": "_minReturnAmountAfterFee",
          "type": "uint256"
        }
      ],
      "name": "buyShares",
      "outputs": [
        {
          "internalType": "uint256",
          "name": "shares_",
          "type": "uint256"
        }
      ],
      "stateMutability": "nonpayable",
      "type": "function"
    },
    {
      "inputs": [
        {
          "internalType": "address",
          "name": "_subject",
          "type": "address"
        },
        {
          "internalType": "uint256",
          "name": "_depositAmount",
          "type": "uint256"
        },
        {
          "internalType": "address",
          "name": "_onBehalfOf",
          "type": "address"
        },
        {
          "internalType": "uint256",
          "name": "_minReturnAmountAfterFee",
          "type": "uint256"
        }
      ],
      "name": "buySharesFor",
      "outputs": [
        {
          "internalType": "uint256",
          "name": "shares_",
          "type": "uint256"
        }
      ],
      "stateMutability": "nonpayable",
      "type": "function"
    },
    {
      "inputs": [
        {
          "internalType": "address",
          "name": "_subject",
          "type": "address"
        },
        {
          "internalType": "uint256",
          "name": "_depositAmount",
          "type": "uint256"
        },
        {
          "internalType": "address",
          "name": "_onBehalfOf",
          "type": "address"
        },
        {
          "internalType": "uint256",
          "name": "_minReturnAmountAfterFee",
          "type": "uint256"
        },
        {
          "internalType": "address",
          "name": "_orderReferrer",
          "type": "address"
        }
      ],
      "name": "buySharesForV2",
      "outputs": [
        {
          "internalType": "uint256",
          "name": "shares_",
          "type": "uint256"
        }
      ],
      "stateMutability": "nonpayable",
      "type": "function"
    },
    {
      "inputs": [
        {
          "internalType": "address",
          "name": "_subject",
          "type": "address"
        },
        {
          "internalType": "uint256",
          "name": "_depositAmount",
          "type": "uint256"
        },
        {
          "internalType": "uint256",
          "name": "_minReturnAmountAfterFee",
          "type": "uint256"
        },
        {
          "internalType": "address",
          "name": "_orderReferrer",
          "type": "address"
        }
      ],
      "name": "buySharesV2",
      "outputs": [
        {
          "internalType": "uint256",
          "name": "shares_",
          "type": "uint256"
        }
      ],
      "stateMutability": "nonpayable",
      "type": "function"
    },
    {
      "inputs": [
        {
          "internalType": "address",
          "name": "_subject",
          "type": "address"
        },
        {
          "internalType": "uint256",
          "name": "_subjectTokenAmount",
          "type": "uint256"
        }
      ],
      "name": "calculateTokensForBuy",
      "outputs": [
        {
          "internalType": "uint256",
          "name": "moxieAmount_",
          "type": "uint256"
        },
        {
          "internalType": "uint256",
          "name": "protocolFee_",
          "type": "uint256"
        },
        {
          "internalType": "uint256",
          "name": "subjectFee_",
          "type": "uint256"
        }
      ],
      "stateMutability": "view",
      "type": "function"
    },
    {
      "inputs": [
        {
          "internalType": "address",
          "name": "_subject",
          "type": "address"
        },
        {
          "internalType": "uint256",
          "name": "_subjectTokenAmount",
          "type": "uint256"
        }
      ],
      "name": "calculateTokensForSell",
      "outputs": [
        {
          "internalType": "uint256",
          "name": "moxieAmount_",
          "type": "uint256"
        },
        {
          "internalType": "uint256",
          "name": "protocolFee_",
          "type": "uint256"
        },
        {
          "internalType": "uint256",
          "name": "subjectFee_",
          "type": "uint256"
        }
      ],
      "stateMutability": "view",
      "type": "function"
    },
    {
      "inputs": [],
      "name": "feeBeneficiary",
      "outputs": [
        {
          "internalType": "address",
          "name": "",
          "type": "address"
        }
      ],
      "stateMutability": "view",
      "type": "function"
    },
    {
      "inputs": [],
      "name": "formula",
      "outputs": [
        {
          "internalType": "contract IBancorFormula",
          "name": "",
          "type": "address"
        }
      ],
      "stateMutability": "view",
      "type": "function"
    },
    {
      "inputs": [
        {
          "internalType": "bytes32",
          "name": "role",
          "type": "bytes32"
        }
      ],
      "name": "getRoleAdmin",
      "outputs": [
        {
          "internalType": "bytes32",
          "name": "",
          "type": "bytes32"
        }
      ],
      "stateMutability": "view",
      "type": "function"
    },
    {
      "inputs": [
        {
          "internalType": "bytes32",
          "name": "role",
          "type": "bytes32"
        },
        {
          "internalType": "address",
          "name": "account",
          "type": "address"
        }
      ],
      "name": "grantRole",
      "outputs": [],
      "stateMutability": "nonpayable",
      "type": "function"
    },
    {
      "inputs": [
        {
          "internalType": "bytes32",
          "name": "role",
          "type": "bytes32"
        },
        {
          "internalType": "address",
          "name": "account",
          "type": "address"
        }
      ],
      "name": "hasRole",
      "outputs": [
        {
          "internalType": "bool",
          "name": "",
          "type": "bool"
        }
      ],
      "stateMutability": "view",
      "type": "function"
    },
    {
      "inputs": [
        {
          "internalType": "address",
          "name": "_token",
          "type": "address"
        },
        {
          "internalType": "address",
          "name": "_formula",
          "type": "address"
        },
        {
          "internalType": "address",
          "name": "_owner",
          "type": "address"
        },
        {
          "internalType": "address",
          "name": "_tokenManager",
          "type": "address"
        },
        {
          "internalType": "address",
          "name": "_vault",
          "type": "address"
        },
        {
          "components": [
            {
              "internalType": "uint256",
              "name": "protocolBuyFeePct",
              "type": "uint256"
            },
            {
              "internalType": "uint256",
              "name": "protocolSellFeePct",
              "type": "uint256"
            },
            {
              "internalType": "uint256",
              "name": "subjectBuyFeePct",
              "type": "uint256"
            },
            {
              "internalType": "uint256",
              "name": "subjectSellFeePct",
              "type": "uint256"
            }
          ],
          "internalType": "struct IMoxieBondingCurveV2.FeeInput",
          "name": "_feeInput",
          "type": "tuple"
        },
        {
          "internalType": "address",
          "name": "_feeBeneficiary",
          "type": "address"
        },
        {
          "internalType": "address",
          "name": "_subjectFactory",
          "type": "address"
        }
      ],
      "name": "initialize",
      "outputs": [],
      "stateMutability": "nonpayable",
      "type": "function"
    },
    {
      "inputs": [
        {
          "internalType": "address",
          "name": "_subject",
          "type": "address"
        },
        {
          "internalType": "uint32",
          "name": "_reserveRatio",
          "type": "uint32"
        },
        {
          "internalType": "uint256",
          "name": "_initialSupply",
          "type": "uint256"
        },
        {
          "internalType": "uint256",
          "name": "_reserveAmount",
          "type": "uint256"
        },
        {
          "internalType": "address",
          "name": "_platformReferrer",
          "type": "address"
        }
      ],
      "name": "initializeSubjectBondingCurve",
      "outputs": [
        {
          "internalType": "bool",
          "name": "",
          "type": "bool"
        }
      ],
      "stateMutability": "nonpayable",
      "type": "function"
    },
    {
      "inputs": [
        {
          "internalType": "address",
          "name": "subject",
          "type": "address"
        }
      ],
      "name": "lastPaused",
      "outputs": [
        {
          "internalType": "uint256",
          "name": "_paused",
          "type": "uint256"
        }
      ],
      "stateMutability": "view",
      "type": "function"
    },
    {
      "inputs": [],
      "name": "orderReferrerBuyFeePct",
      "outputs": [
        {
          "internalType": "uint256",
          "name": "",
          "type": "uint256"
        }
      ],
      "stateMutability": "view",
      "type": "function"
    },
    {
      "inputs": [],
      "name": "orderReferrerSellFeePct",
      "outputs": [
        {
          "internalType": "uint256",
          "name": "",
          "type": "uint256"
        }
      ],
      "stateMutability": "view",
      "type": "function"
    },
    {
      "inputs": [],
      "name": "pause",
      "outputs": [],
      "stateMutability": "nonpayable",
      "type": "function"
    },
    {
      "inputs": [
        {
          "internalType": "address",
          "name": "_subject",
          "type": "address"
        },
        {
          "internalType": "bool",
          "name": "_pause",
          "type": "bool"
        }
      ],
      "name": "pauseTrading",
      "outputs": [],
      "stateMutability": "nonpayable",
      "type": "function"
    },
    {
      "inputs": [],
      "name": "paused",
      "outputs": [
        {
          "internalType": "bool",
          "name": "",
          "type": "bool"
        }
      ],
      "stateMutability": "view",
      "type": "function"
    },
    {
      "inputs": [
        {
          "internalType": "address",
          "name": "subject",
          "type": "address"
        }
      ],
      "name": "platformReferrer",
      "outputs": [
        {
          "internalType": "address",
          "name": "_platformReferrer",
          "type": "address"
        }
      ],
      "stateMutability": "view",
      "type": "function"
    },
    {
      "inputs": [],
      "name": "platformReferrerBuyFeePct",
      "outputs": [
        {
          "internalType": "uint256",
          "name": "",
          "type": "uint256"
        }
      ],
      "stateMutability": "view",
      "type": "function"
    },
    {
      "inputs": [],
      "name": "platformReferrerSellFeePct",
      "outputs": [
        {
          "internalType": "uint256",
          "name": "",
          "type": "uint256"
        }
      ],
      "stateMutability": "view",
      "type": "function"
    },
    {
      "inputs": [],
      "name": "protocolBuyFeePct",
      "outputs": [
        {
          "internalType": "uint256",
          "name": "",
          "type": "uint256"
        }
      ],
      "stateMutability": "view",
      "type": "function"
    },
    {
      "inputs": [],
      "name": "protocolRewards",
      "outputs": [
        {
          "internalType": "contract IProtocolRewards",
          "name": "",
          "type": "address"
        }
      ],
      "stateMutability": "view",
      "type": "function"
    },
    {
      "inputs": [],
      "name": "protocolSellFeePct",
      "outputs": [
        {
          "internalType": "uint256",
          "name": "",
          "type": "uint256"
        }
      ],
      "stateMutability": "view",
      "type": "function"
    },
    {
      "inputs": [
        {
          "internalType": "bytes32",
          "name": "role",
          "type": "bytes32"
        },
        {
          "internalType": "address",
          "name": "callerConfirmation",
          "type": "address"
        }
      ],
      "name": "renounceRole",
      "outputs": [],
      "stateMutability": "nonpayable",
      "type": "function"
    },
    {
      "inputs": [
        {
          "internalType": "address",
          "name": "subject",
          "type": "address"
        }
      ],
      "name": "reserveRatio",
      "outputs": [
        {
          "internalType": "uint32",
          "name": "_reserveRatio",
          "type": "uint32"
        }
      ],
      "stateMutability": "view",
      "type": "function"
    },
    {
      "inputs": [
        {
          "internalType": "bytes32",
          "name": "role",
          "type": "bytes32"
        },
        {
          "internalType": "address",
          "name": "account",
          "type": "address"
        }
      ],
      "name": "revokeRole",
      "outputs": [],
      "stateMutability": "nonpayable",
      "type": "function"
    },
    {
      "inputs": [
        {
          "internalType": "address",
          "name": "_subject",
          "type": "address"
        },
        {
          "internalType": "uint256",
          "name": "_sellAmount",
          "type": "uint256"
        },
        {
          "internalType": "uint256",
          "name": "_minReturnAmountAfterFee",
          "type": "uint256"
        }
      ],
      "name": "sellShares",
      "outputs": [
        {
          "internalType": "uint256",
          "name": "returnAmount_",
          "type": "uint256"
        }
      ],
      "stateMutability": "nonpayable",
      "type": "function"
    },
    {
      "inputs": [
        {
          "internalType": "address",
          "name": "_subject",
          "type": "address"
        },
        {
          "internalType": "uint256",
          "name": "_sellAmount",
          "type": "uint256"
        },
        {
          "internalType": "address",
          "name": "_onBehalfOf",
          "type": "address"
        },
        {
          "internalType": "uint256",
          "name": "_minReturnAmountAfterFee",
          "type": "uint256"
        }
      ],
      "name": "sellSharesFor",
      "outputs": [
        {
          "internalType": "uint256",
          "name": "returnAmount_",
          "type": "uint256"
        }
      ],
      "stateMutability": "nonpayable",
      "type": "function"
    },
    {
      "inputs": [
        {
          "internalType": "address",
          "name": "_subject",
          "type": "address"
        },
        {
          "internalType": "uint256",
          "name": "_sellAmount",
          "type": "uint256"
        },
        {
          "internalType": "address",
          "name": "_onBehalfOf",
          "type": "address"
        },
        {
          "internalType": "uint256",
          "name": "_minReturnAmountAfterFee",
          "type": "uint256"
        },
        {
          "internalType": "address",
          "name": "_orderReferrer",
          "type": "address"
        }
      ],
      "name": "sellSharesForV2",
      "outputs": [
        {
          "internalType": "uint256",
          "name": "returnAmount_",
          "type": "uint256"
        }
      ],
      "stateMutability": "nonpayable",
      "type": "function"
    },
    {
      "inputs": [
        {
          "internalType": "address",
          "name": "_subject",
          "type": "address"
        },
        {
          "internalType": "uint256",
          "name": "_sellAmount",
          "type": "uint256"
        },
        {
          "internalType": "uint256",
          "name": "_minReturnAmountAfterFee",
          "type": "uint256"
        },
        {
          "internalType": "address",
          "name": "_orderReferrer",
          "type": "address"
        }
      ],
      "name": "sellSharesV2",
      "outputs": [
        {
          "internalType": "uint256",
          "name": "returnAmount_",
          "type": "uint256"
        }
      ],
      "stateMutability": "nonpayable",
      "type": "function"
    },
    {
      "inputs": [],
      "name": "subjectBuyFeePct",
      "outputs": [
        {
          "internalType": "uint256",
          "name": "",
          "type": "uint256"
        }
      ],
      "stateMutability": "view",
      "type": "function"
    },
    {
      "inputs": [],
      "name": "subjectFactory",
      "outputs": [
        {
          "internalType": "address",
          "name": "",
          "type": "address"
        }
      ],
      "stateMutability": "view",
      "type": "function"
    },
    {
      "inputs": [],
      "name": "subjectSellFeePct",
      "outputs": [
        {
          "internalType": "uint256",
          "name": "",
          "type": "uint256"
        }
      ],
      "stateMutability": "view",
      "type": "function"
    },
    {
      "inputs": [
        {
          "internalType": "bytes4",
          "name": "interfaceId",
          "type": "bytes4"
        }
      ],
      "name": "supportsInterface",
      "outputs": [
        {
          "internalType": "bool",
          "name": "",
          "type": "bool"
        }
      ],
      "stateMutability": "view",
      "type": "function"
    },
    {
      "inputs": [],
      "name": "token",
      "outputs": [
        {
          "internalType": "contract IERC20Extended",
          "name": "",
          "type": "address"
        }
      ],
      "stateMutability": "view",
      "type": "function"
    },
    {
      "inputs": [],
      "name": "tokenManager",
      "outputs": [
        {
          "internalType": "contract ITokenManager",
          "name": "",
          "type": "address"
        }
      ],
      "stateMutability": "view",
      "type": "function"
    },
    {
      "inputs": [],
      "name": "unpause",
      "outputs": [],
      "stateMutability": "nonpayable",
      "type": "function"
    },
    {
      "inputs": [
        {
          "internalType": "address",
          "name": "_feeBeneficiary",
          "type": "address"
        }
      ],
      "name": "updateFeeBeneficiary",
      "outputs": [],
      "stateMutability": "nonpayable",
      "type": "function"
    },
    {
      "inputs": [
        {
          "components": [
            {
              "internalType": "uint256",
              "name": "protocolBuyFeePct",
              "type": "uint256"
            },
            {
              "internalType": "uint256",
              "name": "protocolSellFeePct",
              "type": "uint256"
            },
            {
              "internalType": "uint256",
              "name": "subjectBuyFeePct",
              "type": "uint256"
            },
            {
              "internalType": "uint256",
              "name": "subjectSellFeePct",
              "type": "uint256"
            }
          ],
          "internalType": "struct IMoxieBondingCurveV2.FeeInput",
          "name": "_feeInput",
          "type": "tuple"
        }
      ],
      "name": "updateFees",
      "outputs": [],
      "stateMutability": "nonpayable",
      "type": "function"
    },
    {
      "inputs": [
        {
          "internalType": "address",
          "name": "_formula",
          "type": "address"
        }
      ],
      "name": "updateFormula",
      "outputs": [],
      "stateMutability": "nonpayable",
      "type": "function"
    },
    {
      "inputs": [
        {
          "internalType": "address",
          "name": "_protocolRewardsAddress",
          "type": "address"
        }
      ],
      "name": "updateProtocolRewardAddress",
      "outputs": [],
      "stateMutability": "nonpayable",
      "type": "function"
    },
    {
      "inputs": [
        {
          "internalType": "uint256",
          "name": "_platformReferrerBuyFeePct",
          "type": "uint256"
        },
        {
          "internalType": "uint256",
          "name": "_platformReferrerSellFeePct",
          "type": "uint256"
        },
        {
          "internalType": "uint256",
          "name": "_orderReferrerBuyFeePct",
          "type": "uint256"
        },
        {
          "internalType": "uint256",
          "name": "_orderReferrerSellFeePct",
          "type": "uint256"
        }
      ],
      "name": "updateReferralFee",
      "outputs": [],
      "stateMutability": "nonpayable",
      "type": "function"
    },
    {
      "inputs": [
        {
          "internalType": "address",
          "name": "_subject",
          "type": "address"
        },
        {
          "internalType": "uint32",
          "name": "_newReserveRatio",
          "type": "uint32"
        }
      ],
      "name": "updateReserveRatio",
      "outputs": [],
      "stateMutability": "nonpayable",
      "type": "function"
    },
    {
      "inputs": [],
      "name": "vault",
      "outputs": [
        {
          "internalType": "contract IVault",
          "name": "",
          "type": "address"
        }
      ],
      "stateMutability": "view",
      "type": "function"
    }
  ],
  "bytecode": "0x608060405234801561001057600080fd5b50615fdc80620000216000396000f3fe608060405234801561001057600080fd5b506004361061035d5760003560e01c80635c975abb116101d3578063a217fddf11610104578063dcb5a746116100a2578063fbfa77cf1161007c578063fbfa77cf14610a54578063fc0c546a14610a72578063fc157cb414610a90578063ffa8e17714610aae5761035d565b8063dcb5a746146109ea578063e7af32ba14610a06578063ec49512814610a245761035d565b8063d547741f116100de578063d547741f14610964578063d5b49a7114610980578063d8690fea1461099c578063dbf49561146109cc5761035d565b8063a217fddf146108fa578063a7c3e70414610918578063bf7530ff146109485761035d565b80637c3657671161017157806389d6d0de1161014b57806389d6d0de1461087257806391d1485414610890578063951ef92d146108c057806398a9c92b146108de5761035d565b80637c3657671461081c5780637f460fa71461084c5780638456cb59146108685761035d565b806360e14b60116101ad57806360e14b601461078057806366f80a841461079e5780636c572893146107ce578063700c4590146107ea5761035d565b80635c975abb146107265780635d8c84da14610744578063602cfc3a146107625761035d565b80632f2ff15d116102ad57806345e5e1dd1161024b578063520f1ce411610225578063520f1ce41461067657806357f6508b146106a65780635b23af0a146106d65780635b933ee6146107085761035d565b806345e5e1dd1461060a578063492fb3431461063a5780634b75f54f146106585761035d565b8063389ed26711610287578063389ed2671461059457806339952b88146105b25780633f4ba83a146105e257806341644f8c146105ec5761035d565b80632f2ff15d1461052c5780633113947a1461054857806336568abe146105785761035d565b806317f692221161031a57806328a5f940116102f457806328a5f940146104b457806329df6479146104d25780632a709b14146104f05780632af2177d1461050e5761035d565b806317f69222146104245780632423453214610454578063248a9ca3146104845761035d565b806301ffc9a7146103625780630bc4e20a146103925780630d720bbc146103ae5780630e6c7a66146103cc5780630e85d277146103e8578063162bcfc914610406575b600080fd5b61037c60048036038101906103779190614d8f565b610acc565b6040516103899190614dd7565b60405180910390f35b6103ac60048036038101906103a79190614e8c565b610b46565b005b6103b6610d6e565b6040516103c39190614edb565b60405180910390f35b6103e660048036038101906103e19190615035565b610d75565b005b6103f06110e9565b6040516103fd9190615106565b60405180910390f35b61040e61110d565b60405161041b9190615130565b60405180910390f35b61043e6004803603810190610439919061514b565b611113565b60405161044b9190615130565b60405180910390f35b61046e6004803603810190610469919061519e565b6111af565b60405161047b9190614edb565b60405180910390f35b61049e600480360381019061049991906151f7565b6111d2565b6040516104ab9190615106565b60405180910390f35b6104bc611200565b6040516104c99190615130565b60405180910390f35b6104da611206565b6040516104e79190615283565b60405180910390f35b6104f861122c565b60405161050591906152bf565b60405180910390f35b610516611252565b6040516105239190615130565b60405180910390f35b610546600480360381019061054191906152da565b611258565b005b610562600480360381019061055d919061531a565b61127a565b60405161056f9190615130565b60405180910390f35b610592600480360381019061058d91906152da565b611317565b005b61059c611392565b6040516105a99190615106565b60405180910390f35b6105cc60048036038101906105c7919061514b565b6113b6565b6040516105d99190615130565b60405180910390f35b6105ea611452565b005b6105f4611487565b6040516106019190615106565b60405180910390f35b610624600480360381019061061f919061519e565b6114ab565b60405161063191906153a4565b60405180910390f35b6106426114de565b60405161064f91906153a4565b60405180910390f35b610660611504565b60405161066d91906153e0565b60405180910390f35b610690600480360381019061068b91906153fb565b61152a565b60405161069d9190615130565b60405180910390f35b6106c060048036038101906106bb9190615462565b6115c6565b6040516106cd9190615130565b60405180910390f35b6106f060048036038101906106eb91906154c9565b611663565b6040516106ff93929190615509565b60405180910390f35b610710611757565b60405161071d9190615130565b60405180910390f35b61072e61175d565b60405161073b9190614dd7565b60405180910390f35b61074c611782565b6040516107599190615106565b60405180910390f35b61076a6117a6565b6040516107779190615106565b60405180910390f35b6107886117ca565b6040516107959190615106565b60405180910390f35b6107b860048036038101906107b3919061531a565b6117ee565b6040516107c59190615130565b60405180910390f35b6107e860048036038101906107e3919061519e565b61188b565b005b61080460048036038101906107ff91906154c9565b611902565b60405161081393929190615509565b60405180910390f35b6108366004803603810190610831919061519e565b611a26565b6040516108439190615130565b60405180910390f35b61086660048036038101906108619190615540565b611a3e565b005b610870611b38565b005b61087a611b6d565b6040516108879190615130565b60405180910390f35b6108aa60048036038101906108a591906152da565b611b73565b6040516108b79190614dd7565b60405180910390f35b6108c8611bec565b6040516108d59190615130565b60405180910390f35b6108f860048036038101906108f391906155a7565b611bf2565b005b610902611c45565b60405161090f9190615106565b60405180910390f35b610932600480360381019061092d91906155d4565b611c4c565b60405161093f9190614dd7565b60405180910390f35b610962600480360381019061095d919061519e565b61228a565b005b61097e600480360381019061097991906152da565b612339565b005b61099a6004803603810190610995919061519e565b61235b565b005b6109b660048036038101906109b19190615462565b6123d2565b6040516109c39190615130565b60405180910390f35b6109d461246f565b6040516109e19190615130565b60405180910390f35b610a0460048036038101906109ff919061567b565b612475565b005b610a0e612607565b604051610a1b91906153a4565b60405180910390f35b610a3e6004803603810190610a3991906153fb565b61262d565b604051610a4b9190615130565b60405180910390f35b610a5c6126c9565b604051610a6991906156dc565b60405180910390f35b610a7a6126ef565b604051610a879190615718565b60405180910390f35b610a98612713565b604051610aa59190615130565b60405180910390f35b610ab661271f565b604051610ac39190615130565b60405180910390f35b60007f7965db0b000000000000000000000000000000000000000000000000000000007bffffffffffffffffffffffffffffffffffffffffffffffffffffffff1916827bffffffffffffffffffffffffffffffffffffffffffffffffffffffff19161480610b3f5750610b3e82612725565b5b9050919050565b7fcb974b34996a810438699b238b7c6087f2145cdc9cb01c8f4a83cbea10e05b32610b708161278f565b6000600d60008573ffffffffffffffffffffffffffffffffffffffff1673ffffffffffffffffffffffffffffffffffffffff1681526020019081526020016000205403610be9576040517f4bf73edf00000000000000000000000000000000000000000000000000000000815260040160405180910390fd5b6000600a60008573ffffffffffffffffffffffffffffffffffffffff1673ffffffffffffffffffffffffffffffffffffffff16815260200190815260200160002060009054906101000a900463ffffffff16905060008163ffffffff1603610c7d576040517f85b1b9c700000000000000000000000000000000000000000000000000000000815260040160405180910390fd5b60008363ffffffff161480610c985750610c96836127a3565b155b15610ccf576040517f39a1d18100000000000000000000000000000000000000000000000000000000815260040160405180910390fd5b82600a60008673ffffffffffffffffffffffffffffffffffffffff1673ffffffffffffffffffffffffffffffffffffffff16815260200190815260200160002060006101000a81548163ffffffff021916908363ffffffff1602179055507f44c33f06e3e030d296a4308be575ecab89b0fd0fe80082562d2d826aa1fa810f848285604051610d6093929190615733565b60405180910390a150505050565b620f424081565b6000610d7f6127bf565b905060008160000160089054906101000a900460ff1615905060008260000160009054906101000a900467ffffffffffffffff1690506000808267ffffffffffffffff16148015610dcd5750825b9050600060018367ffffffffffffffff16148015610e02575060003073ffffffffffffffffffffffffffffffffffffffff163b145b905081158015610e10575080155b15610e47576040517ff92ee8a900000000000000000000000000000000000000000000000000000000815260040160405180910390fd5b60018560000160006101000a81548167ffffffffffffffff021916908367ffffffffffffffff1602179055508315610e975760018560000160086101000a81548160ff0219169083151502179055505b610e9f6127e7565b610ea76127f1565b610eb68d8d8d8d8d8c8c612803565b610ebf886129cc565b8c6000806101000a81548173ffffffffffffffffffffffffffffffffffffffff021916908373ffffffffffffffffffffffffffffffffffffffff1602179055508b600160006101000a81548173ffffffffffffffffffffffffffffffffffffffff021916908373ffffffffffffffffffffffffffffffffffffffff16021790555089600260006101000a81548173ffffffffffffffffffffffffffffffffffffffff021916908373ffffffffffffffffffffffffffffffffffffffff16021790555088600360006101000a81548173ffffffffffffffffffffffffffffffffffffffff021916908373ffffffffffffffffffffffffffffffffffffffff160217905550876000015160048190555087602001516005819055508760400151600681905550876060015160078190555086600860006101000a81548173ffffffffffffffffffffffffffffffffffffffff021916908373ffffffffffffffffffffffffffffffffffffffff16021790555085600960006101000a81548173ffffffffffffffffffffffffffffffffffffffff021916908373ffffffffffffffffffffffffffffffffffffffff16021790555061107d6000801b8c612a47565b5083156110da5760008560000160086101000a81548160ff0219169083151502179055507fc7f505b2f371ae2175ee4913f4499e1f2633a7b5936321eed1cdaeb6115181d260016040516110d191906157b9565b60405180910390a15b50505050505050505050505050565b7fbfb76d8d43f55efe58544ea32af187792a7bdb983850d8fed33478266eec3cbb81565b60115481565b600061111d612b48565b836000600d60008373ffffffffffffffffffffffffffffffffffffffff1673ffffffffffffffffffffffffffffffffffffffff1681526020019081526020016000205414611197576040517f76e473cc00000000000000000000000000000000000000000000000000000000815260040160405180910390fd5b6111a5858533866000612b89565b9150509392505050565b600a6020528060005260406000206000915054906101000a900463ffffffff1681565b6000806111dd612d94565b905080600001600084815260200190815260200160002060010154915050919050565b600f5481565b600b60009054906101000a900473ffffffffffffffffffffffffffffffffffffffff1681565b600260009054906101000a900473ffffffffffffffffffffffffffffffffffffffff1681565b600e5481565b611261826111d2565b61126a8161278f565b6112748383612a47565b50505050565b6000611284612b48565b856000600d60008373ffffffffffffffffffffffffffffffffffffffff1673ffffffffffffffffffffffffffffffffffffffff16815260200190815260200160002054146112fe576040517f76e473cc00000000000000000000000000000000000000000000000000000000815260040160405180910390fd5b61130b8787878787612dbc565b91505095945050505050565b61131f612fc8565b73ffffffffffffffffffffffffffffffffffffffff168173ffffffffffffffffffffffffffffffffffffffff1614611383576040517f6697b23200000000000000000000000000000000000000000000000000000000815260040160405180910390fd5b61138d8282612fd0565b505050565b7f139c2898040ef16910dc9f44dc697df79363da767d8bc92f2e310312b816e46d81565b60006113c0612b48565b836000600d60008373ffffffffffffffffffffffffffffffffffffffff1673ffffffffffffffffffffffffffffffffffffffff168152602001908152602001600020541461143a576040517f76e473cc00000000000000000000000000000000000000000000000000000000815260040160405180910390fd5b611448858533866000612dbc565b9150509392505050565b7f139c2898040ef16910dc9f44dc697df79363da767d8bc92f2e310312b816e46d61147c8161278f565b6114846130d2565b50565b7ff7ea2b80c7b6a2cab2c11d2290cb005c3748397358a25e17113658c83b73259381565b600c6020528060005260406000206000915054906101000a900473ffffffffffffffffffffffffffffffffffffffff1681565b600860009054906101000a900473ffffffffffffffffffffffffffffffffffffffff1681565b600160009054906101000a900473ffffffffffffffffffffffffffffffffffffffff1681565b6000611534612b48565b846000600d60008373ffffffffffffffffffffffffffffffffffffffff1673ffffffffffffffffffffffffffffffffffffffff16815260200190815260200160002054146115ae576040517f76e473cc00000000000000000000000000000000000000000000000000000000815260040160405180910390fd5b6115bb8686338787612dbc565b915050949350505050565b60006115d0612b48565b846000600d60008373ffffffffffffffffffffffffffffffffffffffff1673ffffffffffffffffffffffffffffffffffffffff168152602001908152602001600020541461164a576040517f76e473cc00000000000000000000000000000000000000000000000000000000815260040160405180910390fd5b611658868686866000612dbc565b915050949350505050565b6000806000806000806116768888613144565b9250925092506000600160009054906101000a900473ffffffffffffffffffffffffffffffffffffffff1673ffffffffffffffffffffffffffffffffffffffff166349f9b0f78385878c6040518563ffffffff1660e01b81526004016116df94939291906157d4565b602060405180830381865afa1580156116fc573d6000803e3d6000fd5b505050506040513d601f19601f82011682018060405250810190611720919061582e565b905061172b8161342e565b8096508197505050848682611740919061588a565b61174a919061588a565b9650505050509250925092565b60075481565b60008061176861347c565b90508060000160009054906101000a900460ff1691505090565b7f4d9eb4440acbecfd68626b3c1f2771b5f3fe62a13eefe7e37e407530fd6795a781565b7fcb974b34996a810438699b238b7c6087f2145cdc9cb01c8f4a83cbea10e05b3281565b7f5f9be2932ed3a723f295a763be1804c7ebfd1a41c1348fb8bdf5be1c5cdca82281565b60006117f8612b48565b856000600d60008373ffffffffffffffffffffffffffffffffffffffff1673ffffffffffffffffffffffffffffffffffffffff1681526020019081526020016000205414611872576040517f76e473cc00000000000000000000000000000000000000000000000000000000815260040160405180910390fd5b61187f8787878787612b89565b91505095945050505050565b7ff7ea2b80c7b6a2cab2c11d2290cb005c3748397358a25e17113658c83b7325936118b58161278f565b6118be826134a4565b156118f5576040517fadfdb05b00000000000000000000000000000000000000000000000000000000815260040160405180910390fd5b6118fe826134dc565b5050565b6000806000806000806119158888613144565b9250925092506000600160009054906101000a900473ffffffffffffffffffffffffffffffffffffffff1673ffffffffffffffffffffffffffffffffffffffff16631da6bbfb8385878c6040518563ffffffff1660e01b815260040161197e94939291906157d4565b602060405180830381865afa15801561199b573d6000803e3d6000fd5b505050506040513d601f19601f820116820180604052508101906119bf919061582e565b905060006006546004546119d391906158be565b905080670de0b6b3a76400006119e9919061588a565b670de0b6b3a7640000836119fd91906158f2565b611a079190615963565b9750611a1288613557565b809750819850505050505050509250925092565b600d6020528060005260406000206000915090505481565b7f5f9be2932ed3a723f295a763be1804c7ebfd1a41c1348fb8bdf5be1c5cdca822611a688161278f565b611a7c8386611a7791906158be565b6135a5565b1580611a995750611a978285611a9291906158be565b6135a5565b155b15611ad0576040517f470562b900000000000000000000000000000000000000000000000000000000815260040160405180910390fd5b84600e8190555083600f8190555082601081905550816011819055507f03360feb83044daf83ccf2036bf4eb7db9c359efdc62ea6cf2d9b2d7cd7992f5600e54600f54601054601154604051611b299493929190615994565b60405180910390a15050505050565b7f139c2898040ef16910dc9f44dc697df79363da767d8bc92f2e310312b816e46d611b628161278f565b611b6a6135b9565b50565b60055481565b600080611b7e612d94565b905080600001600085815260200190815260200160002060000160008473ffffffffffffffffffffffffffffffffffffffff1673ffffffffffffffffffffffffffffffffffffffff16815260200190815260200160002060009054906101000a900460ff1691505092915050565b60065481565b7f5f9be2932ed3a723f295a763be1804c7ebfd1a41c1348fb8bdf5be1c5cdca822611c1c8161278f565b611c25826129cc565b611c41826000015183602001518460400151856060015161362b565b5050565b6000801b81565b6000611c56612b48565b611c5f866134a4565b15611c96576040517fa7ef168800000000000000000000000000000000000000000000000000000000815260040160405180910390fd5b600960009054906101000a900473ffffffffffffffffffffffffffffffffffffffff1673ffffffffffffffffffffffffffffffffffffffff163373ffffffffffffffffffffffffffffffffffffffff1614611d1d576040517f6802704600000000000000000000000000000000000000000000000000000000815260040160405180910390fd5b611d26856127a3565b611d5c576040517f39a1d18100000000000000000000000000000000000000000000000000000000815260040160405180910390fd5b6000600a60008873ffffffffffffffffffffffffffffffffffffffff1673ffffffffffffffffffffffffffffffffffffffff16815260200190815260200160002060009054906101000a900463ffffffff1663ffffffff1614611deb576040517f86d5f90700000000000000000000000000000000000000000000000000000000815260040160405180910390fd5b84600a60008873ffffffffffffffffffffffffffffffffffffffff1673ffffffffffffffffffffffffffffffffffffffff16815260200190815260200160002060006101000a81548163ffffffff021916908363ffffffff16021790555081600c60008873ffffffffffffffffffffffffffffffffffffffff1673ffffffffffffffffffffffffffffffffffffffff16815260200190815260200160002060006101000a81548173ffffffffffffffffffffffffffffffffffffffff021916908373ffffffffffffffffffffffffffffffffffffffff1602179055506000600260009054906101000a900473ffffffffffffffffffffffffffffffffffffffff1673ffffffffffffffffffffffffffffffffffffffff1663e4860339886040518263ffffffff1660e01b8152600401611f2491906153a4565b602060405180830381865afa158015611f41573d6000803e3d6000fd5b505050506040513d601f19601f82011682018060405250810190611f6591906159ee565b9050611f70816134a4565b15611fa7576040517ffcde723100000000000000000000000000000000000000000000000000000000815260040160405180910390fd5b8073ffffffffffffffffffffffffffffffffffffffff168773ffffffffffffffffffffffffffffffffffffffff167f3e8bb74e6a03753bf16c1c2737daabee1be3548b0f638894f10f382560d1d07687878a60405161200893929190615a1b565b60405180910390a360008173ffffffffffffffffffffffffffffffffffffffff166318160ddd6040518163ffffffff1660e01b8152600401602060405180830381865afa15801561205d573d6000803e3d6000fd5b505050506040513d601f19601f82011682018060405250810190612081919061582e565b90508086146120bc576040517f849e9ad400000000000000000000000000000000000000000000000000000000815260040160405180910390fd5b61210933308760008054906101000a900473ffffffffffffffffffffffffffffffffffffffff1673ffffffffffffffffffffffffffffffffffffffff16613692909392919063ffffffff16565b60008054906101000a900473ffffffffffffffffffffffffffffffffffffffff1673ffffffffffffffffffffffffffffffffffffffff1663095ea7b3600360009054906101000a900473ffffffffffffffffffffffffffffffffffffffff16876040518363ffffffff1660e01b8152600401612186929190615a52565b6020604051808303816000875af11580156121a5573d6000803e3d6000fd5b505050506040513d601f19601f820116820180604052508101906121c99190615a90565b50600360009054906101000a900473ffffffffffffffffffffffffffffffffffffffff1673ffffffffffffffffffffffffffffffffffffffff16638340f5498360008054906101000a900473ffffffffffffffffffffffffffffffffffffffff16886040518463ffffffff1660e01b815260040161224993929190615abd565b600060405180830381600087803b15801561226357600080fd5b505af1158015612277573d6000803e3d6000fd5b5050505060019250505095945050505050565b7f4d9eb4440acbecfd68626b3c1f2771b5f3fe62a13eefe7e37e407530fd6795a76122b48161278f565b6122bd826134a4565b156122f4576040517f592bc52a00000000000000000000000000000000000000000000000000000000815260040160405180910390fd5b81600b60006101000a81548173ffffffffffffffffffffffffffffffffffffffff021916908373ffffffffffffffffffffffffffffffffffffffff1602179055505050565b612342826111d2565b61234b8161278f565b6123558383612fd0565b50505050565b7fbfb76d8d43f55efe58544ea32af187792a7bdb983850d8fed33478266eec3cbb6123858161278f565b61238e826134a4565b156123c5576040517fb1710af000000000000000000000000000000000000000000000000000000000815260040160405180910390fd5b6123ce82613714565b5050565b60006123dc612b48565b846000600d60008373ffffffffffffffffffffffffffffffffffffffff1673ffffffffffffffffffffffffffffffffffffffff1681526020019081526020016000205414612456576040517f76e473cc00000000000000000000000000000000000000000000000000000000815260040160405180910390fd5b612464868686866000612b89565b915050949350505050565b60045481565b7fcb974b34996a810438699b238b7c6087f2145cdc9cb01c8f4a83cbea10e05b3261249f8161278f565b6000600a60008573ffffffffffffffffffffffffffffffffffffffff1673ffffffffffffffffffffffffffffffffffffffff16815260200190815260200160002060009054906101000a900463ffffffff16905060008163ffffffff1603612533576040517f85b1b9c700000000000000000000000000000000000000000000000000000000815260040160405180910390fd5b82156125825742600d60008673ffffffffffffffffffffffffffffffffffffffff1673ffffffffffffffffffffffffffffffffffffffff168152602001908152602001600020819055506125c8565b6000600d60008673ffffffffffffffffffffffffffffffffffffffff1673ffffffffffffffffffffffffffffffffffffffff168152602001908152602001600020819055505b7fa8d26c24f99a70655584c976c26c70c85db63eba950dc3068d7a4e1d0d49811784846040516125f9929190615af4565b60405180910390a150505050565b600960009054906101000a900473ffffffffffffffffffffffffffffffffffffffff1681565b6000612637612b48565b846000600d60008373ffffffffffffffffffffffffffffffffffffffff1673ffffffffffffffffffffffffffffffffffffffff16815260200190815260200160002054146126b1576040517f76e473cc00000000000000000000000000000000000000000000000000000000815260040160405180910390fd5b6126be8686338787612b89565b915050949350505050565b600360009054906101000a900473ffffffffffffffffffffffffffffffffffffffff1681565b60008054906101000a900473ffffffffffffffffffffffffffffffffffffffff1681565b670de0b6b3a764000081565b60105481565b60007f01ffc9a7000000000000000000000000000000000000000000000000000000007bffffffffffffffffffffffffffffffffffffffffffffffffffffffff1916827bffffffffffffffffffffffffffffffffffffffffffffffffffffffff1916149050919050565b6127a08161279b612fc8565b61378f565b50565b6000620f424063ffffffff168263ffffffff1611159050919050565b60007ff0c57e16840df040f15088dc2f81fe391c3923bec73e23a9662efc9c229c6a00905090565b6127ef6137e0565b565b6127f96137e0565b612801613820565b565b61280c876134a4565b15612843576040517f1c8c425400000000000000000000000000000000000000000000000000000000815260040160405180910390fd5b61284c866134a4565b15612883576040517fb1710af000000000000000000000000000000000000000000000000000000000815260040160405180910390fd5b61288c856134a4565b156128c3576040517f3c77158e00000000000000000000000000000000000000000000000000000000815260040160405180910390fd5b6128cc846134a4565b15612903576040517f926d717700000000000000000000000000000000000000000000000000000000815260040160405180910390fd5b61290c836134a4565b15612943576040517f466e460200000000000000000000000000000000000000000000000000000000815260040160405180910390fd5b61294c816134a4565b15612983576040517fee2f6f2a00000000000000000000000000000000000000000000000000000000815260040160405180910390fd5b61298c826134a4565b156129c3576040517fadfdb05b00000000000000000000000000000000000000000000000000000000815260040160405180910390fd5b50505050505050565b6129e8816040015182600001516129e391906158be565b6135a5565b1580612a0d5750612a0b81606001518260200151612a0691906158be565b6135a5565b155b15612a44576040517f470562b900000000000000000000000000000000000000000000000000000000815260040160405180910390fd5b50565b600080612a52612d94565b9050612a5e8484611b73565b612b3c57600181600001600086815260200190815260200160002060000160008573ffffffffffffffffffffffffffffffffffffffff1673ffffffffffffffffffffffffffffffffffffffff16815260200190815260200160002060006101000a81548160ff021916908315150217905550612ad8612fc8565b73ffffffffffffffffffffffffffffffffffffffff168373ffffffffffffffffffffffffffffffffffffffff16857f2f8788117e7eff1d82e926ec794901d17c78024a50270940304540a733656f0d60405160405180910390a46001915050612b42565b60009150505b92915050565b612b5061175d565b15612b87576040517fd93c066500000000000000000000000000000000000000000000000000000000815260040160405180910390fd5b565b6000612b94866134a4565b15612bcb576040517fa7ef168800000000000000000000000000000000000000000000000000000000815260040160405180910390fd5b60008503612c04576040517e6a79a400000000000000000000000000000000000000000000000000000000815260040160405180910390fd5b6000600a60008873ffffffffffffffffffffffffffffffffffffffff1673ffffffffffffffffffffffffffffffffffffffff16815260200190815260200160002060009054906101000a900463ffffffff16905060008163ffffffff1603612c98576040517f85b1b9c700000000000000000000000000000000000000000000000000000000815260040160405180910390fd5b6000600260009054906101000a900473ffffffffffffffffffffffffffffffffffffffff1673ffffffffffffffffffffffffffffffffffffffff1663e4860339896040518263ffffffff1660e01b8152600401612cf591906153a4565b602060405180830381865afa158015612d12573d6000803e3d6000fd5b505050506040513d601f19601f82011682018060405250810190612d3691906159ee565b9050612d41816134a4565b15612d78576040517ffcde723100000000000000000000000000000000000000000000000000000000815260040160405180910390fd5b612d87818888888c878a613854565b9250505095945050505050565b60007f02dd7bc7dec4dceedda775e58dd541e08a116c6c53815c0bd028192f7b626800905090565b6000612dc7866134a4565b15612dfe576040517fa7ef168800000000000000000000000000000000000000000000000000000000815260040160405180910390fd5b60008503612e38576040517f2dc1479300000000000000000000000000000000000000000000000000000000815260040160405180910390fd5b6000600a60008873ffffffffffffffffffffffffffffffffffffffff1673ffffffffffffffffffffffffffffffffffffffff16815260200190815260200160002060009054906101000a900463ffffffff16905060008163ffffffff1603612ecc576040517f85b1b9c700000000000000000000000000000000000000000000000000000000815260040160405180910390fd5b6000600260009054906101000a900473ffffffffffffffffffffffffffffffffffffffff1673ffffffffffffffffffffffffffffffffffffffff1663e4860339896040518263ffffffff1660e01b8152600401612f2991906153a4565b602060405180830381865afa158015612f46573d6000803e3d6000fd5b505050506040513d601f19601f82011682018060405250810190612f6a91906159ee565b9050612f75816134a4565b15612fac576040517ffcde723100000000000000000000000000000000000000000000000000000000815260040160405180910390fd5b612fbb818888888c878a613dbe565b9250505095945050505050565b600033905090565b600080612fdb612d94565b9050612fe78484611b73565b156130c657600081600001600086815260200190815260200160002060000160008573ffffffffffffffffffffffffffffffffffffffff1673ffffffffffffffffffffffffffffffffffffffff16815260200190815260200160002060006101000a81548160ff021916908315150217905550613062612fc8565b73ffffffffffffffffffffffffffffffffffffffff168373ffffffffffffffffffffffffffffffffffffffff16857ff6391f5c32d9c69d2a47ea670b442974b53935d1edc7fd64eb21e047a839171b60405160405180910390a460019150506130cc565b60009150505b92915050565b6130da614222565b60006130e461347c565b905060008160000160006101000a81548160ff0219169083151502179055507f5db9ee0a495bf2e6ff9c91a7834c1ba4fdd244a5e8aa4e537bd38aeae4b073aa61312c612fc8565b60405161313991906153a4565b60405180910390a150565b6000806000613152856134a4565b15613189576040517fa7ef168800000000000000000000000000000000000000000000000000000000815260040160405180910390fd5b600084036131c3576040517fc1787ce800000000000000000000000000000000000000000000000000000000815260040160405180910390fd5b600a60008673ffffffffffffffffffffffffffffffffffffffff1673ffffffffffffffffffffffffffffffffffffffff16815260200190815260200160002060009054906101000a900463ffffffff16925060008363ffffffff1603613255576040517f85b1b9c700000000000000000000000000000000000000000000000000000000815260040160405180910390fd5b6000600260009054906101000a900473ffffffffffffffffffffffffffffffffffffffff1673ffffffffffffffffffffffffffffffffffffffff1663e4860339876040518263ffffffff1660e01b81526004016132b291906153a4565b602060405180830381865afa1580156132cf573d6000803e3d6000fd5b505050506040513d601f19601f820116820180604052508101906132f391906159ee565b9050600360009054906101000a900473ffffffffffffffffffffffffffffffffffffffff1673ffffffffffffffffffffffffffffffffffffffff1663f7888aec8260008054906101000a900473ffffffffffffffffffffffffffffffffffffffff166040518363ffffffff1660e01b8152600401613372929190615b1d565b602060405180830381865afa15801561338f573d6000803e3d6000fd5b505050506040513d601f19601f820116820180604052508101906133b3919061582e565b92508073ffffffffffffffffffffffffffffffffffffffff166318160ddd6040518163ffffffff1660e01b8152600401602060405180830381865afa158015613400573d6000803e3d6000fd5b505050506040513d601f19601f82011682018060405250810190613424919061582e565b9150509250925092565b600080670de0b6b3a76400006005548461344891906158f2565b6134529190615963565b9150670de0b6b3a76400006007548461346b91906158f2565b6134759190615963565b9050915091565b60007fcd5ed15c6e187e77e9aee88184c21f4f2182ab5827cb3b7e07fbedcd63f03300905090565b60008073ffffffffffffffffffffffffffffffffffffffff168273ffffffffffffffffffffffffffffffffffffffff16149050919050565b80600860006101000a81548173ffffffffffffffffffffffffffffffffffffffff021916908373ffffffffffffffffffffffffffffffffffffffff1602179055507fe6131a64e93e9aa4ff38892c34d563c06dcc1e03b3d6897cc65f0903e2ad68488160405161354c91906153a4565b60405180910390a150565b600080670de0b6b3a76400006004548461357191906158f2565b61357b9190615963565b9150670de0b6b3a76400006006548461359491906158f2565b61359e9190615963565b9050915091565b6000670de0b6b3a764000082109050919050565b6135c1612b48565b60006135cb61347c565b905060018160000160006101000a81548160ff0219169083151502179055507f62e78cea01bee320cd4e420270b5ea74000d11b0c9f74754ebdbfc544b05a258613613612fc8565b60405161362091906153a4565b60405180910390a150565b836004819055508260058190555081600681905550806007819055507f5c3aee3d65f7eb02cded951435d06b06ef307bc7f57b98975c4a41dc116e711c6004546005546006546007546040516136849493929190615994565b60405180910390a150505050565b61370e848573ffffffffffffffffffffffffffffffffffffffff166323b872dd8686866040516024016136c793929190615abd565b604051602081830303815290604052915060e01b6020820180517bffffffffffffffffffffffffffffffffffffffffffffffffffffffff8381831617835250505050614262565b50505050565b80600160006101000a81548173ffffffffffffffffffffffffffffffffffffffff021916908373ffffffffffffffffffffffffffffffffffffffff1602179055507f050a79a49cc1dc3aeeccd8636685ad0469db41a9bd51254a34fc1cf616693d418160405161378491906153a4565b60405180910390a150565b6137998282611b73565b6137dc5780826040517fe2517d3f0000000000000000000000000000000000000000000000000000000081526004016137d3929190615b46565b60405180910390fd5b5050565b6137e86142f9565b61381e576040517fd7e6bcf800000000000000000000000000000000000000000000000000000000815260040160405180910390fd5b565b6138286137e0565b600061383261347c565b905060008160000160006101000a81548160ff02191690831515021790555050565b60006138a333308960008054906101000a900473ffffffffffffffffffffffffffffffffffffffff1673ffffffffffffffffffffffffffffffffffffffff16613692909392919063ffffffff16565b6000806138af89613557565b915091506138c1868284876001614319565b600082828b6138d0919061588a565b6138da919061588a565b905060008054906101000a900473ffffffffffffffffffffffffffffffffffffffff1673ffffffffffffffffffffffffffffffffffffffff1663095ea7b3600360009054906101000a900473ffffffffffffffffffffffffffffffffffffffff16836040518363ffffffff1660e01b8152600401613959929190615a52565b6020604051808303816000875af1158015613978573d6000803e3d6000fd5b505050506040513d601f19601f8201168201806040525081019061399c9190615a90565b506000600360009054906101000a900473ffffffffffffffffffffffffffffffffffffffff1673ffffffffffffffffffffffffffffffffffffffff1663f7888aec8d60008054906101000a900473ffffffffffffffffffffffffffffffffffffffff166040518363ffffffff1660e01b8152600401613a1c929190615b1d565b602060405180830381865afa158015613a39573d6000803e3d6000fd5b505050506040513d601f19601f82011682018060405250810190613a5d919061582e565b9050600360009054906101000a900473ffffffffffffffffffffffffffffffffffffffff1673ffffffffffffffffffffffffffffffffffffffff16638340f5498d60008054906101000a900473ffffffffffffffffffffffffffffffffffffffff16856040518463ffffffff1660e01b8152600401613ade93929190615abd565b600060405180830381600087803b158015613af857600080fd5b505af1158015613b0c573d6000803e3d6000fd5b50505050600160009054906101000a900473ffffffffffffffffffffffffffffffffffffffff1673ffffffffffffffffffffffffffffffffffffffff166329a00e7c8d73ffffffffffffffffffffffffffffffffffffffff166318160ddd6040518163ffffffff1660e01b8152600401602060405180830381865afa158015613b99573d6000803e3d6000fd5b505050506040513d601f19601f82011682018060405250810190613bbd919061582e565b838a866040518563ffffffff1660e01b8152600401613bdf94939291906157d4565b602060405180830381865afa158015613bfc573d6000803e3d6000fd5b505050506040513d601f19601f82011682018060405250810190613c20919061582e565b94505050505084811015613c60576040517f13115b2900000000000000000000000000000000000000000000000000000000815260040160405180910390fd5b613c69866134a4565b613d1157600260009054906101000a900473ffffffffffffffffffffffffffffffffffffffff1673ffffffffffffffffffffffffffffffffffffffff1663c6c3bbe68588846040518463ffffffff1660e01b8152600401613ccc93929190615abd565b6020604051808303816000875af1158015613ceb573d6000803e3d6000fd5b505050506040513d601f19601f82011682018060405250810190613d0f9190615a90565b505b8573ffffffffffffffffffffffffffffffffffffffff1660008054906101000a900473ffffffffffffffffffffffffffffffffffffffff1673ffffffffffffffffffffffffffffffffffffffff168573ffffffffffffffffffffffffffffffffffffffff167f96c1b5a0ee3c1932c831b8c6a559c93b48a3109915784a05ff44a07cc09c39318a338d87604051613dab9493929190615b6f565b60405180910390a4979650505050505050565b600080600360009054906101000a900473ffffffffffffffffffffffffffffffffffffffff1673ffffffffffffffffffffffffffffffffffffffff1663f7888aec8a60008054906101000a900473ffffffffffffffffffffffffffffffffffffffff166040518363ffffffff1660e01b8152600401613e3e929190615b1d565b602060405180830381865afa158015613e5b573d6000803e3d6000fd5b505050506040513d601f19601f82011682018060405250810190613e7f919061582e565b90506000600160009054906101000a900473ffffffffffffffffffffffffffffffffffffffff1673ffffffffffffffffffffffffffffffffffffffff166349f9b0f78b73ffffffffffffffffffffffffffffffffffffffff166318160ddd6040518163ffffffff1660e01b8152600401602060405180830381865afa158015613f0c573d6000803e3d6000fd5b505050506040513d601f19601f82011682018060405250810190613f30919061582e565b84888d6040518563ffffffff1660e01b8152600401613f5294939291906157d4565b602060405180830381865afa158015613f6f573d6000803e3d6000fd5b505050506040513d601f19601f82011682018060405250810190613f93919061582e565b9050600080613fa18361342e565b91509150818184613fb2919061588a565b613fbc919061588a565b945088851015613ff8576040517f13115b2900000000000000000000000000000000000000000000000000000000815260040160405180910390fd5b8973ffffffffffffffffffffffffffffffffffffffff168c73ffffffffffffffffffffffffffffffffffffffff168973ffffffffffffffffffffffffffffffffffffffff167f44ebb8a56b0413525e33cc89179d9758b2b1ab944b0bbeeb6d119adb2a6e3fe28e3360008054906101000a900473ffffffffffffffffffffffffffffffffffffffff168b6040516140929493929190615b6f565b60405180910390a48b73ffffffffffffffffffffffffffffffffffffffff166379cc6790338d6040518363ffffffff1660e01b81526004016140d5929190615a52565b600060405180830381600087803b1580156140ef57600080fd5b505af1158015614103573d6000803e3d6000fd5b50505050600360009054906101000a900473ffffffffffffffffffffffffffffffffffffffff1673ffffffffffffffffffffffffffffffffffffffff1663f18d03cc8d60008054906101000a900473ffffffffffffffffffffffffffffffffffffffff1630876040518563ffffffff1660e01b81526004016141889493929190615bb4565b600060405180830381600087803b1580156141a257600080fd5b505af11580156141b6573d6000803e3d6000fd5b505050506141c8888284896000614319565b6142138a8660008054906101000a900473ffffffffffffffffffffffffffffffffffffffff1673ffffffffffffffffffffffffffffffffffffffff16614ac99092919063ffffffff16565b50505050979650505050505050565b61422a61175d565b614260576040517f8dfc202b00000000000000000000000000000000000000000000000000000000815260040160405180910390fd5b565b600061428d828473ffffffffffffffffffffffffffffffffffffffff16614b4890919063ffffffff16565b905060008151141580156142b25750808060200190518101906142b09190615a90565b155b156142f457826040517f5274afe70000000000000000000000000000000000000000000000000000000081526004016142eb91906153a4565b60405180910390fd5b505050565b60006143036127bf565b60000160089054906101000a900460ff16905090565b6000600c60008773ffffffffffffffffffffffffffffffffffffffff1673ffffffffffffffffffffffffffffffffffffffff16815260200190815260200160002060009054906101000a900473ffffffffffffffffffffffffffffffffffffffff169050600073ffffffffffffffffffffffffffffffffffffffff168173ffffffffffffffffffffffffffffffffffffffff16036143d757600860009054906101000a900473ffffffffffffffffffffffffffffffffffffffff1690505b600073ffffffffffffffffffffffffffffffffffffffff168373ffffffffffffffffffffffffffffffffffffffff160361443157600860009054906101000a900473ffffffffffffffffffffffffffffffffffffffff1692505b6000600467ffffffffffffffff81111561444e5761444d614f0c565b5b60405190808252806020026020018201604052801561447c5781602001602082028036833780820191505090505b5090506000600467ffffffffffffffff81111561449c5761449b614f0c565b5b6040519080825280602002602001820160405280156144ca5781602001602082028036833780820191505090505b5090506000600467ffffffffffffffff8111156144ea576144e9614f0c565b5b6040519080825280602002602001820160405280156145185781602001602082028036833780820191505090505b5090506000878961452991906158be565b905060008054906101000a900473ffffffffffffffffffffffffffffffffffffffff1673ffffffffffffffffffffffffffffffffffffffff1663095ea7b3600b60009054906101000a900473ffffffffffffffffffffffffffffffffffffffff16836040518363ffffffff1660e01b81526004016145a8929190615a52565b6020604051808303816000875af11580156145c7573d6000803e3d6000fd5b505050506040513d601f19601f820116820180604052508101906145eb9190615a90565b50898460008151811061460157614600615bf9565b5b602002602001019073ffffffffffffffffffffffffffffffffffffffff16908173ffffffffffffffffffffffffffffffffffffffff168152505088836000815181106146505761464f615bf9565b5b6020026020010181815250507f7c5f60887d67765088ca62cbabbd5361535419e4f3725adc4dc0c13f5b59f7388260008151811061469157614690615bf9565b5b60200260200101907bffffffffffffffffffffffffffffffffffffffffffffffffffffffff191690817bffffffffffffffffffffffffffffffffffffffffffffffffffffffff19168152505060006146f989886146f0576011546146f4565b6010545b614b5e565b905060006147178a8961470e57600f54614712565b600e545b614b5e565b9050888660018151811061472e5761472d615bf9565b5b602002602001019073ffffffffffffffffffffffffffffffffffffffff16908173ffffffffffffffffffffffffffffffffffffffff1681525050818560018151811061477d5761477c615bf9565b5b6020026020010181815250507ff42119e1e766c9d418cfe9f883239daf3699921c8bb04cef48277423d328e884846001815181106147be576147bd615bf9565b5b60200260200101907bffffffffffffffffffffffffffffffffffffffffffffffffffffffff191690817bffffffffffffffffffffffffffffffffffffffffffffffffffffffff191681525050868660028151811061481f5761481e615bf9565b5b602002602001019073ffffffffffffffffffffffffffffffffffffffff16908173ffffffffffffffffffffffffffffffffffffffff1681525050808560028151811061486e5761486d615bf9565b5b6020026020010181815250507f9b340ab2ddac28fe08c4749305b3981e9d662637abd29942b71f29d6f6e2e7b7846002815181106148af576148ae615bf9565b5b60200260200101907bffffffffffffffffffffffffffffffffffffffffffffffffffffffff191690817bffffffffffffffffffffffffffffffffffffffffffffffffffffffff191681525050600081838c61490a919061588a565b614914919061588a565b9050600860009054906101000a900473ffffffffffffffffffffffffffffffffffffffff168760038151811061494d5761494c615bf9565b5b602002602001019073ffffffffffffffffffffffffffffffffffffffff16908173ffffffffffffffffffffffffffffffffffffffff1681525050808660038151811061499c5761499b615bf9565b5b6020026020010181815250507faa072a75f148988e1647e65b0d00c2928a6ed1bc51c4671e0ac15252c77dc495856003815181106149dd576149dc615bf9565b5b60200260200101907bffffffffffffffffffffffffffffffffffffffffffffffffffffffff191690817bffffffffffffffffffffffffffffffffffffffffffffffffffffffff191681525050600b60009054906101000a900473ffffffffffffffffffffffffffffffffffffffff1673ffffffffffffffffffffffffffffffffffffffff1663300def958888886040518463ffffffff1660e01b8152600401614a8893929190615ebf565b600060405180830381600087803b158015614aa257600080fd5b505af1158015614ab6573d6000803e3d6000fd5b5050505050505050505050505050505050565b614b43838473ffffffffffffffffffffffffffffffffffffffff1663a9059cbb8585604051602401614afc929190615a52565b604051602081830303815290604052915060e01b6020820180517bffffffffffffffffffffffffffffffffffffffffffffffffffffffff8381831617835250505050614262565b505050565b6060614b5683836000614b87565b905092915050565b6000670de0b6b3a76400008284614b7591906158f2565b614b7f9190615963565b905092915050565b606081471015614bce57306040517fcd786059000000000000000000000000000000000000000000000000000000008152600401614bc591906153a4565b60405180910390fd5b6000808573ffffffffffffffffffffffffffffffffffffffff168486604051614bf79190615f8f565b60006040518083038185875af1925050503d8060008114614c34576040519150601f19603f3d011682016040523d82523d6000602084013e614c39565b606091505b5091509150614c49868383614c54565b925050509392505050565b606082614c6957614c6482614ce3565b614cdb565b60008251148015614c91575060008473ffffffffffffffffffffffffffffffffffffffff163b145b15614cd357836040517f9996b315000000000000000000000000000000000000000000000000000000008152600401614cca91906153a4565b60405180910390fd5b819050614cdc565b5b9392505050565b600081511115614cf65780518082602001fd5b6040517f1425ea4200000000000000000000000000000000000000000000000000000000815260040160405180910390fd5b6000604051905090565b600080fd5b60007fffffffff0000000000000000000000000000000000000000000000000000000082169050919050565b614d6c81614d37565b8114614d7757600080fd5b50565b600081359050614d8981614d63565b92915050565b600060208284031215614da557614da4614d32565b5b6000614db384828501614d7a565b91505092915050565b60008115159050919050565b614dd181614dbc565b82525050565b6000602082019050614dec6000830184614dc8565b92915050565b600073ffffffffffffffffffffffffffffffffffffffff82169050919050565b6000614e1d82614df2565b9050919050565b614e2d81614e12565b8114614e3857600080fd5b50565b600081359050614e4a81614e24565b92915050565b600063ffffffff82169050919050565b614e6981614e50565b8114614e7457600080fd5b50565b600081359050614e8681614e60565b92915050565b60008060408385031215614ea357614ea2614d32565b5b6000614eb185828601614e3b565b9250506020614ec285828601614e77565b9150509250929050565b614ed581614e50565b82525050565b6000602082019050614ef06000830184614ecc565b92915050565b600080fd5b6000601f19601f8301169050919050565b7f4e487b7100000000000000000000000000000000000000000000000000000000600052604160045260246000fd5b614f4482614efb565b810181811067ffffffffffffffff82111715614f6357614f62614f0c565b5b80604052505050565b6000614f76614d28565b9050614f828282614f3b565b919050565b6000819050919050565b614f9a81614f87565b8114614fa557600080fd5b50565b600081359050614fb781614f91565b92915050565b600060808284031215614fd357614fd2614ef6565b5b614fdd6080614f6c565b90506000614fed84828501614fa8565b600083015250602061500184828501614fa8565b602083015250604061501584828501614fa8565b604083015250606061502984828501614fa8565b60608301525092915050565b600080600080600080600080610160898b03121561505657615055614d32565b5b60006150648b828c01614e3b565b98505060206150758b828c01614e3b565b97505060406150868b828c01614e3b565b96505060606150978b828c01614e3b565b95505060806150a88b828c01614e3b565b94505060a06150b98b828c01614fbd565b9350506101206150cb8b828c01614e3b565b9250506101406150dd8b828c01614e3b565b9150509295985092959890939650565b6000819050919050565b615100816150ed565b82525050565b600060208201905061511b60008301846150f7565b92915050565b61512a81614f87565b82525050565b60006020820190506151456000830184615121565b92915050565b60008060006060848603121561516457615163614d32565b5b600061517286828701614e3b565b935050602061518386828701614fa8565b925050604061519486828701614fa8565b9150509250925092565b6000602082840312156151b4576151b3614d32565b5b60006151c284828501614e3b565b91505092915050565b6151d4816150ed565b81146151df57600080fd5b50565b6000813590506151f1816151cb565b92915050565b60006020828403121561520d5761520c614d32565b5b600061521b848285016151e2565b91505092915050565b6000819050919050565b600061524961524461523f84614df2565b615224565b614df2565b9050919050565b600061525b8261522e565b9050919050565b600061526d82615250565b9050919050565b61527d81615262565b82525050565b60006020820190506152986000830184615274565b92915050565b60006152a982615250565b9050919050565b6152b98161529e565b82525050565b60006020820190506152d460008301846152b0565b92915050565b600080604083850312156152f1576152f0614d32565b5b60006152ff858286016151e2565b925050602061531085828601614e3b565b9150509250929050565b600080600080600060a0868803121561533657615335614d32565b5b600061534488828901614e3b565b955050602061535588828901614fa8565b945050604061536688828901614e3b565b935050606061537788828901614fa8565b925050608061538888828901614e3b565b9150509295509295909350565b61539e81614e12565b82525050565b60006020820190506153b96000830184615395565b92915050565b60006153ca82615250565b9050919050565b6153da816153bf565b82525050565b60006020820190506153f560008301846153d1565b92915050565b6000806000806080858703121561541557615414614d32565b5b600061542387828801614e3b565b945050602061543487828801614fa8565b935050604061544587828801614fa8565b925050606061545687828801614e3b565b91505092959194509250565b6000806000806080858703121561547c5761547b614d32565b5b600061548a87828801614e3b565b945050602061549b87828801614fa8565b93505060406154ac87828801614e3b565b92505060606154bd87828801614fa8565b91505092959194509250565b600080604083850312156154e0576154df614d32565b5b60006154ee85828601614e3b565b92505060206154ff85828601614fa8565b9150509250929050565b600060608201905061551e6000830186615121565b61552b6020830185615121565b6155386040830184615121565b949350505050565b6000806000806080858703121561555a57615559614d32565b5b600061556887828801614fa8565b945050602061557987828801614fa8565b935050604061558a87828801614fa8565b925050606061559b87828801614fa8565b91505092959194509250565b6000608082840312156155bd576155bc614d32565b5b60006155cb84828501614fbd565b91505092915050565b600080600080600060a086880312156155f0576155ef614d32565b5b60006155fe88828901614e3b565b955050602061560f88828901614e77565b945050604061562088828901614fa8565b935050606061563188828901614fa8565b925050608061564288828901614e3b565b9150509295509295909350565b61565881614dbc565b811461566357600080fd5b50565b6000813590506156758161564f565b92915050565b6000806040838503121561569257615691614d32565b5b60006156a085828601614e3b565b92505060206156b185828601615666565b9150509250929050565b60006156c682615250565b9050919050565b6156d6816156bb565b82525050565b60006020820190506156f160008301846156cd565b92915050565b600061570282615250565b9050919050565b615712816156f7565b82525050565b600060208201905061572d6000830184615709565b92915050565b60006060820190506157486000830186615395565b6157556020830185614ecc565b6157626040830184614ecc565b949350505050565b6000819050919050565b600067ffffffffffffffff82169050919050565b60006157a361579e6157998461576a565b615224565b615774565b9050919050565b6157b381615788565b82525050565b60006020820190506157ce60008301846157aa565b92915050565b60006080820190506157e96000830187615121565b6157f66020830186615121565b6158036040830185614ecc565b6158106060830184615121565b95945050505050565b60008151905061582881614f91565b92915050565b60006020828403121561584457615843614d32565b5b600061585284828501615819565b91505092915050565b7f4e487b7100000000000000000000000000000000000000000000000000000000600052601160045260246000fd5b600061589582614f87565b91506158a083614f87565b92508282039050818111156158b8576158b761585b565b5b92915050565b60006158c982614f87565b91506158d483614f87565b92508282019050808211156158ec576158eb61585b565b5b92915050565b60006158fd82614f87565b915061590883614f87565b925082820261591681614f87565b9150828204841483151761592d5761592c61585b565b5b5092915050565b7f4e487b7100000000000000000000000000000000000000000000000000000000600052601260045260246000fd5b600061596e82614f87565b915061597983614f87565b92508261598957615988615934565b5b828204905092915050565b60006080820190506159a96000830187615121565b6159b66020830186615121565b6159c36040830185615121565b6159d06060830184615121565b95945050505050565b6000815190506159e881614e24565b92915050565b600060208284031215615a0457615a03614d32565b5b6000615a12848285016159d9565b91505092915050565b6000606082019050615a306000830186615121565b615a3d6020830185615121565b615a4a6040830184614ecc565b949350505050565b6000604082019050615a676000830185615395565b615a746020830184615121565b9392505050565b600081519050615a8a8161564f565b92915050565b600060208284031215615aa657615aa5614d32565b5b6000615ab484828501615a7b565b91505092915050565b6000606082019050615ad26000830186615395565b615adf6020830185615395565b615aec6040830184615121565b949350505050565b6000604082019050615b096000830185615395565b615b166020830184614dc8565b9392505050565b6000604082019050615b326000830185615395565b615b3f6020830184615395565b9392505050565b6000604082019050615b5b6000830185615395565b615b6860208301846150f7565b9392505050565b6000608082019050615b846000830187615121565b615b916020830186615395565b615b9e6040830185615395565b615bab6060830184615121565b95945050505050565b6000608082019050615bc96000830187615395565b615bd66020830186615395565b615be36040830185615395565b615bf06060830184615121565b95945050505050565b7f4e487b7100000000000000000000000000000000000000000000000000000000600052603260045260246000fd5b600081519050919050565b600082825260208201905092915050565b6000819050602082019050919050565b615c5d81614e12565b82525050565b6000615c6f8383615c54565b60208301905092915050565b6000602082019050919050565b6000615c9382615c28565b615c9d8185615c33565b9350615ca883615c44565b8060005b83811015615cd9578151615cc08882615c63565b9750615ccb83615c7b565b925050600181019050615cac565b5085935050505092915050565b600081519050919050565b600082825260208201905092915050565b6000819050602082019050919050565b615d1b81614f87565b82525050565b6000615d2d8383615d12565b60208301905092915050565b6000602082019050919050565b6000615d5182615ce6565b615d5b8185615cf1565b9350615d6683615d02565b8060005b83811015615d97578151615d7e8882615d21565b9750615d8983615d39565b925050600181019050615d6a565b5085935050505092915050565b600081519050919050565b600082825260208201905092915050565b6000819050602082019050919050565b615dd981614d37565b82525050565b6000615deb8383615dd0565b60208301905092915050565b6000602082019050919050565b6000615e0f82615da4565b615e198185615daf565b9350615e2483615dc0565b8060005b83811015615e55578151615e3c8882615ddf565b9750615e4783615df7565b925050600181019050615e28565b5085935050505092915050565b600082825260208201905092915050565b7f5452414e53414354494f4e5f4645450000000000000000000000000000000000600082015250565b6000615ea9600f83615e62565b9150615eb482615e73565b602082019050919050565b60006080820190508181036000830152615ed98186615c88565b90508181036020830152615eed8185615d46565b90508181036040830152615f018184615e04565b90508181036060830152615f1481615e9c565b9050949350505050565b600081519050919050565b600081905092915050565b60005b83811015615f52578082015181840152602081019050615f37565b60008484015250505050565b6000615f6982615f1e565b615f738185615f29565b9350615f83818560208601615f34565b80840191505092915050565b6000615f9b8284615f5e565b91508190509291505056fea2646970667358221220b7bfe9266cb4bc877a117a1cbd85ad508903f5569b4d85781a7230734a53500664736f6c63430008180033",
  "linkReferences": {},
  "deployedLinkReferences": {}
}