{
  "_format": "hh-sol-artifact-1",
  "contractName": "SubjectFactoryV2",
  "sourceName": "contracts/SubjectFactoryV2.sol",
  "abi": [
    {
      "inputs": [],
      "name": "AccessControlBadConfirmation",
      "type": "error"
    },
    {
      "inputs": [
        {
          "internalType": "address",
          "name": "account",
          "type": "address"
        },
        {
          "internalType": "bytes32",
          "name": "neededRole",
          "type": "bytes32"
        }
      ],
      "name": "AccessControlUnauthorizedAccount",
      "type": "error"
    },
    {
      "inputs": [
        {
          "internalType": "address",
          "name": "target",
          "type": "address"
        }
      ],
      "name": "AddressEmptyCode",
      "type": "error"
    },
    {
      "inputs": [
        {
          "internalType": "address",
          "name": "account",
          "type": "address"
        }
      ],
      "name": "AddressInsufficientBalance",
      "type": "error"
    },
    {
      "inputs": [],
      "name": "EnforcedPause",
      "type": "error"
    },
    {
      "inputs": [],
      "name": "ExpectedPause",
      "type": "error"
    },
    {
      "inputs": [],
      "name": "FailedInnerCall",
      "type": "error"
    },
    {
      "inputs": [],
      "name": "InvalidInitialization",
      "type": "error"
    },
    {
      "inputs": [],
      "name": "NotInitializing",
      "type": "error"
    },
    {
      "inputs": [
        {
          "internalType": "address",
          "name": "token",
          "type": "address"
        }
      ],
      "name": "SafeERC20FailedOperation",
      "type": "error"
    },
    {
      "inputs": [],
      "name": "SubjectFactory_AuctionAlreadyCreated",
      "type": "error"
    },
    {
      "inputs": [],
      "name": "SubjectFactory_AuctionNotCreated",
      "type": "error"
    },
    {
      "inputs": [],
      "name": "SubjectFactory_AuctionNotDoneYet",
      "type": "error"
    },
    {
      "inputs": [],
      "name": "SubjectFactory_BuyAmountTooLess",
      "type": "error"
    },
    {
      "inputs": [],
      "name": "SubjectFactory_InvalidAuctionContract",
      "type": "error"
    },
    {
      "inputs": [],
      "name": "SubjectFactory_InvalidAuctionDuration",
      "type": "error"
    },
    {
      "inputs": [],
      "name": "SubjectFactory_InvalidAuctionOrderCancellationDuration",
      "type": "error"
    },
    {
      "inputs": [],
      "name": "SubjectFactory_InvalidBeneficiary",
      "type": "error"
    },
    {
      "inputs": [],
      "name": "SubjectFactory_InvalidFeePercentage",
      "type": "error"
    },
    {
      "inputs": [],
      "name": "SubjectFactory_InvalidMoxieBondingCurve",
      "type": "error"
    },
    {
      "inputs": [],
      "name": "SubjectFactory_InvalidOwner",
      "type": "error"
    },
    {
      "inputs": [],
      "name": "SubjectFactory_InvalidProtocolRewardAddress",
      "type": "error"
    },
    {
      "inputs": [],
      "name": "SubjectFactory_InvalidReserveRatio",
      "type": "error"
    },
    {
      "inputs": [],
      "name": "SubjectFactory_InvalidSubject",
      "type": "error"
    },
    {
      "inputs": [],
      "name": "SubjectFactory_InvalidToken",
      "type": "error"
    },
    {
      "inputs": [],
      "name": "SubjectFactory_InvalidTokenManager",
      "type": "error"
    },
    {
      "anonymous": false,
      "inputs": [
        {
          "indexed": false,
          "internalType": "uint64",
          "name": "version",
          "type": "uint64"
        }
      ],
      "name": "Initialized",
      "type": "event"
    },
    {
      "anonymous": false,
      "inputs": [
        {
          "indexed": false,
          "internalType": "address",
          "name": "account",
          "type": "address"
        }
      ],
      "name": "Paused",
      "type": "event"
    },
    {
      "anonymous": false,
      "inputs": [
        {
          "indexed": true,
          "internalType": "bytes32",
          "name": "role",
          "type": "bytes32"
        },
        {
          "indexed": true,
          "internalType": "bytes32",
          "name": "previousAdminRole",
          "type": "bytes32"
        },
        {
          "indexed": true,
          "internalType": "bytes32",
          "name": "newAdminRole",
          "type": "bytes32"
        }
      ],
      "name": "RoleAdminChanged",
      "type": "event"
    },
    {
      "anonymous": false,
      "inputs": [
        {
          "indexed": true,
          "internalType": "bytes32",
          "name": "role",
          "type": "bytes32"
        },
        {
          "indexed": true,
          "internalType": "address",
          "name": "account",
          "type": "address"
        },
        {
          "indexed": true,
          "internalType": "address",
          "name": "sender",
          "type": "address"
        }
      ],
      "name": "RoleGranted",
      "type": "event"
    },
    {
      "anonymous": false,
      "inputs": [
        {
          "indexed": true,
          "internalType": "bytes32",
          "name": "role",
          "type": "bytes32"
        },
        {
          "indexed": true,
          "internalType": "address",
          "name": "account",
          "type": "address"
        },
        {
          "indexed": true,
          "internalType": "address",
          "name": "sender",
          "type": "address"
        }
      ],
      "name": "RoleRevoked",
      "type": "event"
    },
    {
      "anonymous": false,
      "inputs": [
        {
          "indexed": true,
          "internalType": "address",
          "name": "_subject",
          "type": "address"
        },
        {
          "indexed": true,
          "internalType": "address",
          "name": "_subjectToken",
          "type": "address"
        },
        {
          "indexed": false,
          "internalType": "uint256",
          "name": "_auctionId",
          "type": "uint256"
        },
        {
          "indexed": false,
          "internalType": "uint256",
          "name": "_bondingSupply",
          "type": "uint256"
        },
        {
          "indexed": false,
          "internalType": "uint256",
          "name": "_bondingAmount",
          "type": "uint256"
        },
        {
          "indexed": false,
          "internalType": "uint256",
          "name": "_protocolFee",
          "type": "uint256"
        },
        {
          "indexed": false,
          "internalType": "uint256",
          "name": "_subjectFee",
          "type": "uint256"
        },
        {
          "indexed": false,
          "internalType": "uint256",
          "name": "_subjectFeeInSubjectToken",
          "type": "uint256"
        }
      ],
      "name": "SubjectOnboardingFinished",
      "type": "event"
    },
    {
      "anonymous": false,
      "inputs": [
        {
          "indexed": true,
          "internalType": "address",
          "name": "_subject",
          "type": "address"
        },
        {
          "indexed": true,
          "internalType": "address",
          "name": "_subjectToken",
          "type": "address"
        },
        {
          "indexed": false,
          "internalType": "uint256",
          "name": "_auctionAmount",
          "type": "uint256"
        },
        {
          "indexed": false,
          "internalType": "address",
          "name": "_biddingToken",
          "type": "address"
        },
        {
          "indexed": false,
          "internalType": "uint256",
          "name": "auctionEndDate",
          "type": "uint256"
        },
        {
          "indexed": false,
          "internalType": "uint256",
          "name": "_auctionId",
          "type": "uint256"
        }
      ],
      "name": "SubjectOnboardingInitiated",
      "type": "event"
    },
    {
      "anonymous": false,
      "inputs": [
        {
          "indexed": false,
          "internalType": "address",
          "name": "account",
          "type": "address"
        }
      ],
      "name": "Unpaused",
      "type": "event"
    },
    {
      "anonymous": false,
      "inputs": [
        {
          "indexed": false,
          "internalType": "uint256",
          "name": "_auctionDuration",
          "type": "uint256"
        },
        {
          "indexed": false,
          "internalType": "uint256",
          "name": "_auctionOrderCancellationDuration",
          "type": "uint256"
        }
      ],
      "name": "UpdateAuctionParam",
      "type": "event"
    },
    {
      "anonymous": false,
      "inputs": [
        {
          "indexed": false,
          "internalType": "address",
          "name": "_beneficiary",
          "type": "address"
        }
      ],
      "name": "UpdateBeneficiary",
      "type": "event"
    },
    {
      "anonymous": false,
      "inputs": [
        {
          "indexed": false,
          "internalType": "uint256",
          "name": "_protocolFeePct",
          "type": "uint256"
        },
        {
          "indexed": false,
          "internalType": "uint256",
          "name": "_subjectFeePct",
          "type": "uint256"
        }
      ],
      "name": "UpdateFees",
      "type": "event"
    },
    {
      "inputs": [],
      "name": "DEFAULT_ADMIN_ROLE",
      "outputs": [
        {
          "internalType": "bytes32",
          "name": "",
          "type": "bytes32"
        }
      ],
      "stateMutability": "view",
      "type": "function"
    },
    {
      "inputs": [],
      "name": "ONBOARDING_ROLE",
      "outputs": [
        {
          "internalType": "bytes32",
          "name": "",
          "type": "bytes32"
        }
      ],
      "stateMutability": "view",
      "type": "function"
    },
    {
      "inputs": [],
      "name": "PAUSE_ROLE",
      "outputs": [
        {
          "internalType": "bytes32",
          "name": "",
          "type": "bytes32"
        }
      ],
      "stateMutability": "view",
      "type": "function"
    },
    {
      "inputs": [],
      "name": "PCT_BASE",
      "outputs": [
        {
          "internalType": "uint256",
          "name": "",
          "type": "uint256"
        }
      ],
      "stateMutability": "view",
      "type": "function"
    },
    {
      "inputs": [],
      "name": "UPDATE_AUCTION_ROLE",
      "outputs": [
        {
          "internalType": "bytes32",
          "name": "",
          "type": "bytes32"
        }
      ],
      "stateMutability": "view",
      "type": "function"
    },
    {
      "inputs": [],
      "name": "UPDATE_BENEFICIARY_ROLE",
      "outputs": [
        {
          "internalType": "bytes32",
          "name": "",
          "type": "bytes32"
        }
      ],
      "stateMutability": "view",
      "type": "function"
    },
    {
      "inputs": [],
      "name": "UPDATE_FEES_ROLE",
      "outputs": [
        {
          "internalType": "bytes32",
          "name": "",
          "type": "bytes32"
        }
      ],
      "stateMutability": "view",
      "type": "function"
    },
    {
      "inputs": [],
      "name": "UPDATE_PROTOCOL_REWARD_ROLE",
      "outputs": [
        {
          "internalType": "bytes32",
          "name": "",
          "type": "bytes32"
        }
      ],
      "stateMutability": "view",
      "type": "function"
    },
    {
      "inputs": [],
      "name": "auctionDuration",
      "outputs": [
        {
          "internalType": "uint256",
          "name": "",
          "type": "uint256"
        }
      ],
      "stateMutability": "view",
      "type": "function"
    },
    {
      "inputs": [],
      "name": "auctionOrderCancellationDuration",
      "outputs": [
        {
          "internalType": "uint256",
          "name": "",
          "type": "uint256"
        }
      ],
      "stateMutability": "view",
      "type": "function"
    },
    {
      "inputs": [
        {
          "internalType": "address",
          "name": "subject",
          "type": "address"
        }
      ],
      "name": "auctions",
      "outputs": [
        {
          "internalType": "uint256",
          "name": "auctionId",
          "type": "uint256"
        },
        {
          "internalType": "uint256",
          "name": "auctionEndDate",
          "type": "uint256"
        },
        {
          "internalType": "uint256",
          "name": "initialSupply",
          "type": "uint256"
        },
        {
          "internalType": "address",
          "name": "platformReferrer",
          "type": "address"
        }
      ],
      "stateMutability": "view",
      "type": "function"
    },
    {
      "inputs": [],
      "name": "easyAuction",
      "outputs": [
        {
          "internalType": "contract IEasyAuction",
          "name": "",
          "type": "address"
        }
      ],
      "stateMutability": "view",
      "type": "function"
    },
    {
      "inputs": [],
      "name": "feeBeneficiary",
      "outputs": [
        {
          "internalType": "address",
          "name": "",
          "type": "address"
        }
      ],
      "stateMutability": "view",
      "type": "function"
    },
    {
      "inputs": [
        {
          "internalType": "address",
          "name": "_subject",
          "type": "address"
        },
        {
          "internalType": "uint256",
          "name": "_buyAmount",
          "type": "uint256"
        },
        {
          "internalType": "uint32",
          "name": "_reserveRatio",
          "type": "uint32"
        }
      ],
      "name": "finalizeSubjectOnboarding",
      "outputs": [],
      "stateMutability": "nonpayable",
      "type": "function"
    },
    {
      "inputs": [
        {
          "internalType": "bytes32",
          "name": "role",
          "type": "bytes32"
        }
      ],
      "name": "getRoleAdmin",
      "outputs": [
        {
          "internalType": "bytes32",
          "name": "",
          "type": "bytes32"
        }
      ],
      "stateMutability": "view",
      "type": "function"
    },
    {
      "inputs": [
        {
          "internalType": "bytes32",
          "name": "role",
          "type": "bytes32"
        },
        {
          "internalType": "address",
          "name": "account",
          "type": "address"
        }
      ],
      "name": "grantRole",
      "outputs": [],
      "stateMutability": "nonpayable",
      "type": "function"
    },
    {
      "inputs": [
        {
          "internalType": "bytes32",
          "name": "role",
          "type": "bytes32"
        },
        {
          "internalType": "address",
          "name": "account",
          "type": "address"
        }
      ],
      "name": "hasRole",
      "outputs": [
        {
          "internalType": "bool",
          "name": "",
          "type": "bool"
        }
      ],
      "stateMutability": "view",
      "type": "function"
    },
    {
      "inputs": [
        {
          "internalType": "address",
          "name": "_owner",
          "type": "address"
        },
        {
          "internalType": "address",
          "name": "_tokenManager",
          "type": "address"
        },
        {
          "internalType": "address",
          "name": "_moxieBondingCurve",
          "type": "address"
        },
        {
          "internalType": "address",
          "name": "_token",
          "type": "address"
        },
        {
          "internalType": "address",
          "name": "_easyAuction",
          "type": "address"
        },
        {
          "components": [
            {
              "internalType": "uint256",
              "name": "protocolFeePct",
              "type": "uint256"
            },
            {
              "internalType": "uint256",
              "name": "subjectFeePct",
              "type": "uint256"
            }
          ],
          "internalType": "struct ISubjectFactoryV2.FeeInput",
          "name": "_feeInput",
          "type": "tuple"
        },
        {
          "internalType": "address",
          "name": "_feeBeneficiary",
          "type": "address"
        },
        {
          "internalType": "uint256",
          "name": "_auctionDuration",
          "type": "uint256"
        },
        {
          "internalType": "uint256",
          "name": "_auctionOrderCancellationDuration",
          "type": "uint256"
        }
      ],
      "name": "initialize",
      "outputs": [],
      "stateMutability": "nonpayable",
      "type": "function"
    },
    {
      "inputs": [
        {
          "internalType": "address",
          "name": "_subject",
          "type": "address"
        },
        {
          "components": [
            {
              "internalType": "string",
              "name": "name",
              "type": "string"
            },
            {
              "internalType": "string",
              "name": "symbol",
              "type": "string"
            },
            {
              "internalType": "uint96",
              "name": "initialSupply",
              "type": "uint96"
            },
            {
              "internalType": "uint96",
              "name": "minBuyAmount",
              "type": "uint96"
            },
            {
              "internalType": "uint256",
              "name": "minBiddingAmount",
              "type": "uint256"
            },
            {
              "internalType": "uint256",
              "name": "minFundingThreshold",
              "type": "uint256"
            },
            {
              "internalType": "bool",
              "name": "isAtomicClosureAllowed",
              "type": "bool"
            },
            {
              "internalType": "address",
              "name": "accessManagerContract",
              "type": "address"
            },
            {
              "internalType": "bytes",
              "name": "accessManagerContractData",
              "type": "bytes"
            }
          ],
          "internalType": "struct ISubjectFactoryV2.SubjectAuctionInput",
          "name": "_auctionInput",
          "type": "tuple"
        },
        {
          "internalType": "address",
          "name": "_platformReferrer",
          "type": "address"
        }
      ],
      "name": "initiateSubjectOnboarding",
      "outputs": [
        {
          "internalType": "uint256",
          "name": "",
          "type": "uint256"
        }
      ],
      "stateMutability": "nonpayable",
      "type": "function"
    },
    {
      "inputs": [],
      "name": "moxieBondingCurve",
      "outputs": [
        {
          "internalType": "contract IMoxieBondingCurveV2",
          "name": "",
          "type": "address"
        }
      ],
      "stateMutability": "view",
      "type": "function"
    },
    {
      "inputs": [],
      "name": "pause",
      "outputs": [],
      "stateMutability": "nonpayable",
      "type": "function"
    },
    {
      "inputs": [],
      "name": "paused",
      "outputs": [
        {
          "internalType": "bool",
          "name": "",
          "type": "bool"
        }
      ],
      "stateMutability": "view",
      "type": "function"
    },
    {
      "inputs": [],
      "name": "platformReferrerFeePct",
      "outputs": [
        {
          "internalType": "uint256",
          "name": "",
          "type": "uint256"
        }
      ],
      "stateMutability": "view",
      "type": "function"
    },
    {
      "inputs": [],
      "name": "protocolFeePct",
      "outputs": [
        {
          "internalType": "uint256",
          "name": "",
          "type": "uint256"
        }
      ],
      "stateMutability": "view",
      "type": "function"
    },
    {
      "inputs": [],
      "name": "protocolRewards",
      "outputs": [
        {
          "internalType": "contract IProtocolRewards",
          "name": "",
          "type": "address"
        }
      ],
      "stateMutability": "view",
      "type": "function"
    },
    {
      "inputs": [
        {
          "internalType": "bytes32",
          "name": "role",
          "type": "bytes32"
        },
        {
          "internalType": "address",
          "name": "callerConfirmation",
          "type": "address"
        }
      ],
      "name": "renounceRole",
      "outputs": [],
      "stateMutability": "nonpayable",
      "type": "function"
    },
    {
      "inputs": [
        {
          "internalType": "bytes32",
          "name": "role",
          "type": "bytes32"
        },
        {
          "internalType": "address",
          "name": "account",
          "type": "address"
        }
      ],
      "name": "revokeRole",
      "outputs": [],
      "stateMutability": "nonpayable",
      "type": "function"
    },
    {
      "inputs": [],
      "name": "subjectFeePct",
      "outputs": [
        {
          "internalType": "uint256",
          "name": "",
          "type": "uint256"
        }
      ],
      "stateMutability": "view",
      "type": "function"
    },
    {
      "inputs": [
        {
          "internalType": "bytes4",
          "name": "interfaceId",
          "type": "bytes4"
        }
      ],
      "name": "supportsInterface",
      "outputs": [
        {
          "internalType": "bool",
          "name": "",
          "type": "bool"
        }
      ],
      "stateMutability": "view",
      "type": "function"
    },
    {
      "inputs": [],
      "name": "token",
      "outputs": [
        {
          "internalType": "contract IERC20Extended",
          "name": "",
          "type": "address"
        }
      ],
      "stateMutability": "view",
      "type": "function"
    },
    {
      "inputs": [],
      "name": "tokenManager",
      "outputs": [
        {
          "internalType": "contract ITokenManager",
          "name": "",
          "type": "address"
        }
      ],
      "stateMutability": "view",
      "type": "function"
    },
    {
      "inputs": [],
      "name": "unpause",
      "outputs": [],
      "stateMutability": "nonpayable",
      "type": "function"
    },
    {
      "inputs": [
        {
          "internalType": "uint256",
          "name": "_auctionDuration",
          "type": "uint256"
        },
        {
          "internalType": "uint256",
          "name": "_auctionOrderCancellationDuration",
          "type": "uint256"
        }
      ],
      "name": "updateAuctionTime",
      "outputs": [],
      "stateMutability": "nonpayable",
      "type": "function"
    },
    {
      "inputs": [
        {
          "internalType": "address",
          "name": "_feeBeneficiary",
          "type": "address"
        }
      ],
      "name": "updateFeeBeneficiary",
      "outputs": [],
      "stateMutability": "nonpayable",
      "type": "function"
    },
    {
      "inputs": [
        {
          "components": [
            {
              "internalType": "uint256",
              "name": "protocolFeePct",
              "type": "uint256"
            },
            {
              "internalType": "uint256",
              "name": "subjectFeePct",
              "type": "uint256"
            }
          ],
          "internalType": "struct ISubjectFactoryV2.FeeInput",
          "name": "_feeInput",
          "type": "tuple"
        }
      ],
      "name": "updateFees",
      "outputs": [],
      "stateMutability": "nonpayable",
      "type": "function"
    },
    {
      "inputs": [
        {
          "internalType": "uint256",
          "name": "_platformReferrerFeePct",
          "type": "uint256"
        }
      ],
      "name": "updatePlatformReferrerFee",
      "outputs": [],
      "stateMutability": "nonpayable",
      "type": "function"
    },
    {
      "inputs": [
        {
          "internalType": "address",
          "name": "_protocolRewardsAddress",
          "type": "address"
        }
      ],
      "name": "updateProtocolRewardAddress",
      "outputs": [],
      "stateMutability": "nonpayable",
      "type": "function"
    }
  ],
  "bytecode": "0x608060405234801561001057600080fd5b50614ac9806100206000396000f3fe608060405234801561001057600080fd5b50600436106102275760003560e01c8063537a338111610130578063bf7530ff116100b8578063d8e4cdd41161007c578063d8e4cdd41461060d578063ed0908551461062b578063f7b01a4914610649578063fc0c546a14610667578063fc157cb41461068557610227565b8063bf7530ff1461057f578063c74c43eb1461059b578063cdeaaf9b146105b7578063d33bd29d146105d5578063d547741f146105f157610227565b80636c572893116100ff5780636c572893146104db5780638456cb59146104f757806391d14854146105015780639d8264b814610531578063a217fddf1461056157610227565b8063537a3381146104635780635c975abb146104815780635d8c84da1461049f57806360e14b60146104bd57610227565b80633126ede1116101b35780633f4ba83a116101825780633f4ba83a146103e35780634012f3e5146103ed57806341644f8c146104095780634356089114610427578063492fb3431461044557610227565b80633126ede11461036f57806336568abe1461038d578063389ed267146103a95780633a6226bb146103c757610227565b80631d59410a116101fa5780631d59410a146102b4578063248a9ca3146102e757806329df6479146103175780632a709b14146103355780632f2ff15d1461035357610227565b806301ffc9a71461022c5780630cbf54c81461025c578063129f8dca1461027a578063179738d014610296575b600080fd5b610246600480360381019061024191906135bb565b6106a3565b6040516102539190613603565b60405180910390f35b61026461071d565b6040516102719190613637565b60405180910390f35b610294600480360381019061028f919061367e565b610723565b005b61029e61080d565b6040516102ab91906136d7565b60405180910390f35b6102ce60048036038101906102c99190613750565b610831565b6040516102de949392919061378c565b60405180910390f35b61030160048036038101906102fc91906137fd565b610881565b60405161030e91906136d7565b60405180910390f35b61031f6108af565b60405161032c9190613889565b60405180910390f35b61033d6108d5565b60405161034a91906138c5565b60405180910390f35b61036d600480360381019061036891906138e0565b6108f9565b005b61037761091b565b6040516103849190613637565b60405180910390f35b6103a760048036038101906103a291906138e0565b610921565b005b6103b161099c565b6040516103be91906136d7565b60405180910390f35b6103e160048036038101906103dc9190613a06565b6109c0565b005b6103eb610fc7565b005b61040760048036038101906104029190613ad1565b610ffc565b005b610411611070565b60405161041e91906136d7565b60405180910390f35b61042f611094565b60405161043c91906136d7565b60405180910390f35b61044d6110b8565b60405161045a9190613afe565b60405180910390f35b61046b6110de565b6040516104789190613b3a565b60405180910390f35b610489611104565b6040516104969190613603565b60405180910390f35b6104a7611129565b6040516104b491906136d7565b60405180910390f35b6104c561114d565b6040516104d291906136d7565b60405180910390f35b6104f560048036038101906104f09190613750565b611171565b005b6104ff6111e7565b005b61051b600480360381019061051691906138e0565b61121c565b6040516105289190613603565b60405180910390f35b61054b60048036038101906105469190613e54565b611295565b6040516105589190613637565b60405180910390f35b610569611520565b60405161057691906136d7565b60405180910390f35b61059960048036038101906105949190613750565b611527565b005b6105b560048036038101906105b09190613ec3565b6115fc565b005b6105bf61168e565b6040516105cc9190613637565b60405180910390f35b6105ef60048036038101906105ea9190613f2c565b611694565b005b61060b600480360381019061060691906138e0565b6119b8565b005b6106156119da565b6040516106229190613637565b60405180910390f35b6106336119e0565b6040516106409190613637565b60405180910390f35b6106516119e6565b60405161065e9190613fa0565b60405180910390f35b61066f611a0c565b60405161067c9190613fdc565b60405180910390f35b61068d611a32565b60405161069a9190613637565b60405180910390f35b60007f7965db0b000000000000000000000000000000000000000000000000000000007bffffffffffffffffffffffffffffffffffffffffffffffffffffffff1916827bffffffffffffffffffffffffffffffffffffffffffffffffffffffff19161480610716575061071582611a3e565b5b9050919050565b60065481565b7f45f7b643fd10623d0b12c447334501abf01def0d0be34bc6ba70ebe4fab8dd2461074d81611aa8565b60008203610787576040517fa1486c1500000000000000000000000000000000000000000000000000000000815260040160405180910390fd5b818310156107c1576040517f936914f800000000000000000000000000000000000000000000000000000000815260040160405180910390fd5b82600681905550816007819055507f6a40a5dc1fd517e0fe16eca9e81dd0e0d2b9b1f06f7799095c470000c8c488d08383604051610800929190613ff7565b60405180910390a1505050565b7f41ab08329fb0a2935fa2b8b127e3380ff152b38c9f016ae14226bf4decc8746681565b60096020528060005260406000206000915090508060000154908060010154908060020154908060030160009054906101000a900473ffffffffffffffffffffffffffffffffffffffff16905084565b60008061088c611abc565b905080600001600084815260200190815260200160002060010154915050919050565b600b60009054906101000a900473ffffffffffffffffffffffffffffffffffffffff1681565b60008054906101000a900473ffffffffffffffffffffffffffffffffffffffff1681565b61090282610881565b61090b81611aa8565b6109158383611ae4565b50505050565b60075481565b610929611be5565b73ffffffffffffffffffffffffffffffffffffffff168173ffffffffffffffffffffffffffffffffffffffff161461098d576040517f6697b23200000000000000000000000000000000000000000000000000000000815260040160405180910390fd5b6109978282611bed565b505050565b7f139c2898040ef16910dc9f44dc697df79363da767d8bc92f2e310312b816e46d81565b60006109ca611cef565b905060008160000160089054906101000a900460ff1615905060008260000160009054906101000a900467ffffffffffffffff1690506000808267ffffffffffffffff16148015610a185750825b9050600060018367ffffffffffffffff16148015610a4d575060003073ffffffffffffffffffffffffffffffffffffffff163b145b905081158015610a5b575080155b15610a92576040517ff92ee8a900000000000000000000000000000000000000000000000000000000815260040160405180910390fd5b60018560000160006101000a81548167ffffffffffffffff021916908367ffffffffffffffff1602179055508315610ae25760018560000160086101000a81548160ff0219169083151502179055505b600073ffffffffffffffffffffffffffffffffffffffff168e73ffffffffffffffffffffffffffffffffffffffff1603610b48576040517f3ea5e1ca00000000000000000000000000000000000000000000000000000000815260040160405180910390fd5b600073ffffffffffffffffffffffffffffffffffffffff168d73ffffffffffffffffffffffffffffffffffffffff1603610bae576040517fdf26fddd00000000000000000000000000000000000000000000000000000000815260040160405180910390fd5b600073ffffffffffffffffffffffffffffffffffffffff168c73ffffffffffffffffffffffffffffffffffffffff1603610c14576040517ffa06deda00000000000000000000000000000000000000000000000000000000815260040160405180910390fd5b600073ffffffffffffffffffffffffffffffffffffffff168b73ffffffffffffffffffffffffffffffffffffffff1603610c7a576040517f1aa291de00000000000000000000000000000000000000000000000000000000815260040160405180910390fd5b600073ffffffffffffffffffffffffffffffffffffffff168a73ffffffffffffffffffffffffffffffffffffffff1603610ce0576040517fe2562cd800000000000000000000000000000000000000000000000000000000815260040160405180910390fd5b610cfc89602001518a60000151610cf7919061404f565b611d17565b610d32576040517f540685df00000000000000000000000000000000000000000000000000000000815260040160405180910390fd5b610d3b88611d2b565b610d71576040517f7539c7ce00000000000000000000000000000000000000000000000000000000815260040160405180910390fd5b60008603610dab576040517fa1486c1500000000000000000000000000000000000000000000000000000000815260040160405180910390fd5b85871015610de5576040517f936914f800000000000000000000000000000000000000000000000000000000815260040160405180910390fd5b8860000151600281905550886020015160038190555087600460006101000a81548173ffffffffffffffffffffffffffffffffffffffff021916908373ffffffffffffffffffffffffffffffffffffffff1602179055508a600860006101000a81548173ffffffffffffffffffffffffffffffffffffffff021916908373ffffffffffffffffffffffffffffffffffffffff160217905550866006819055508560078190555089600560006101000a81548173ffffffffffffffffffffffffffffffffffffffff021916908373ffffffffffffffffffffffffffffffffffffffff1602179055508c6000806101000a81548173ffffffffffffffffffffffffffffffffffffffff021916908373ffffffffffffffffffffffffffffffffffffffff1602179055508b600160006101000a81548173ffffffffffffffffffffffffffffffffffffffff021916908373ffffffffffffffffffffffffffffffffffffffff160217905550610f5a6000801b8f611ae4565b508315610fb75760008560000160086101000a81548160ff0219169083151502179055507fc7f505b2f371ae2175ee4913f4499e1f2633a7b5936321eed1cdaeb6115181d26001604051610fae91906140d2565b60405180910390a15b5050505050505050505050505050565b7f139c2898040ef16910dc9f44dc697df79363da767d8bc92f2e310312b816e46d610ff181611aa8565b610ff9611d64565b50565b7f5f9be2932ed3a723f295a763be1804c7ebfd1a41c1348fb8bdf5be1c5cdca82261102681611aa8565b61102f82611d17565b611065576040517f540685df00000000000000000000000000000000000000000000000000000000815260040160405180910390fd5b81600a819055505050565b7ff7ea2b80c7b6a2cab2c11d2290cb005c3748397358a25e17113658c83b73259381565b7f45f7b643fd10623d0b12c447334501abf01def0d0be34bc6ba70ebe4fab8dd2481565b600460009054906101000a900473ffffffffffffffffffffffffffffffffffffffff1681565b600560009054906101000a900473ffffffffffffffffffffffffffffffffffffffff1681565b60008061110f611dd6565b90508060000160009054906101000a900460ff1691505090565b7f4d9eb4440acbecfd68626b3c1f2771b5f3fe62a13eefe7e37e407530fd6795a781565b7f5f9be2932ed3a723f295a763be1804c7ebfd1a41c1348fb8bdf5be1c5cdca82281565b7ff7ea2b80c7b6a2cab2c11d2290cb005c3748397358a25e17113658c83b73259361119b81611aa8565b6111a482611d2b565b6111da576040517f7539c7ce00000000000000000000000000000000000000000000000000000000815260040160405180910390fd5b6111e382611dfe565b5050565b7f139c2898040ef16910dc9f44dc697df79363da767d8bc92f2e310312b816e46d61121181611aa8565b611219611e79565b50565b600080611227611abc565b905080600001600085815260200190815260200160002060000160008473ffffffffffffffffffffffffffffffffffffffff1673ffffffffffffffffffffffffffffffffffffffff16815260200190815260200160002060009054906101000a900460ff1691505092915050565b600061129f611eeb565b7f41ab08329fb0a2935fa2b8b127e3380ff152b38c9f016ae14226bf4decc874666112c981611aa8565b600073ffffffffffffffffffffffffffffffffffffffff168573ffffffffffffffffffffffffffffffffffffffff160361132f576040517f2d44adc700000000000000000000000000000000000000000000000000000000815260040160405180910390fd5b6000600960008773ffffffffffffffffffffffffffffffffffffffff1673ffffffffffffffffffffffffffffffffffffffff16815260200190815260200160002060000154146113ab576040517fb347d57900000000000000000000000000000000000000000000000000000000815260040160405180910390fd5b60008060009054906101000a900473ffffffffffffffffffffffffffffffffffffffff1673ffffffffffffffffffffffffffffffffffffffff166316bc0cf0878760000151886020015189604001518a60e001516040518663ffffffff1660e01b815260040161141f95949392919061419d565b6020604051808303816000875af115801561143e573d6000803e3d6000fd5b505050506040513d601f19601f820116820180604052508101906114629190614213565b90508073ffffffffffffffffffffffffffffffffffffffff1663095ea7b3600560009054906101000a900473ffffffffffffffffffffffffffffffffffffffff1687604001516040518363ffffffff1660e01b81526004016114c5929190614240565b6020604051808303816000875af11580156114e4573d6000803e3d6000fd5b505050506040513d601f19601f82011682018060405250810190611508919061427e565b5061151586828787611f2c565b925050509392505050565b6000801b81565b7f4d9eb4440acbecfd68626b3c1f2771b5f3fe62a13eefe7e37e407530fd6795a761155181611aa8565b600073ffffffffffffffffffffffffffffffffffffffff168273ffffffffffffffffffffffffffffffffffffffff16036115b7576040517f3c348d3e00000000000000000000000000000000000000000000000000000000815260040160405180910390fd5b81600b60006101000a81548173ffffffffffffffffffffffffffffffffffffffff021916908373ffffffffffffffffffffffffffffffffffffffff1602179055505050565b7f5f9be2932ed3a723f295a763be1804c7ebfd1a41c1348fb8bdf5be1c5cdca82261162681611aa8565b6116428260200151836000015161163d919061404f565b611d17565b611678576040517f540685df00000000000000000000000000000000000000000000000000000000815260040160405180910390fd5b61168a82600001518360200151611fdf565b5050565b60025481565b61169c611eeb565b7f41ab08329fb0a2935fa2b8b127e3380ff152b38c9f016ae14226bf4decc874666116c681611aa8565b600073ffffffffffffffffffffffffffffffffffffffff168473ffffffffffffffffffffffffffffffffffffffff160361172c576040517f2d44adc700000000000000000000000000000000000000000000000000000000815260040160405180910390fd5b60008263ffffffff160361176c576040517ffa427b3200000000000000000000000000000000000000000000000000000000815260040160405180910390fd5b6000600960008673ffffffffffffffffffffffffffffffffffffffff1673ffffffffffffffffffffffffffffffffffffffff1681526020019081526020016000206040518060800160405290816000820154815260200160018201548152602001600282015481526020016003820160009054906101000a900473ffffffffffffffffffffffffffffffffffffffff1673ffffffffffffffffffffffffffffffffffffffff1673ffffffffffffffffffffffffffffffffffffffff16815250509050600960008673ffffffffffffffffffffffffffffffffffffffff1673ffffffffffffffffffffffffffffffffffffffff168152602001908152602001600020600080820160009055600182016000905560028201600090556003820160006101000a81549073ffffffffffffffffffffffffffffffffffffffff02191690555050600081600001519050600081036118f2576040517fc1b57a9100000000000000000000000000000000000000000000000000000000815260040160405180910390fd5b8160200151421015611930576040517f6a1941ba00000000000000000000000000000000000000000000000000000000815260040160405180910390fd5b6000806000611944848a876040015161202e565b92509250925061199933308a600860009054906101000a900473ffffffffffffffffffffffffffffffffffffffff1673ffffffffffffffffffffffffffffffffffffffff16612467909392919063ffffffff16565b6119ad848a84868b868e8c606001516124e9565b505050505050505050565b6119c182610881565b6119ca81611aa8565b6119d48383611bed565b50505050565b60035481565b600a5481565b600160009054906101000a900473ffffffffffffffffffffffffffffffffffffffff1681565b600860009054906101000a900473ffffffffffffffffffffffffffffffffffffffff1681565b670de0b6b3a764000081565b60007f01ffc9a7000000000000000000000000000000000000000000000000000000007bffffffffffffffffffffffffffffffffffffffffffffffffffffffff1916827bffffffffffffffffffffffffffffffffffffffffffffffffffffffff1916149050919050565b611ab981611ab4611be5565b612620565b50565b60007f02dd7bc7dec4dceedda775e58dd541e08a116c6c53815c0bd028192f7b626800905090565b600080611aef611abc565b9050611afb848461121c565b611bd957600181600001600086815260200190815260200160002060000160008573ffffffffffffffffffffffffffffffffffffffff1673ffffffffffffffffffffffffffffffffffffffff16815260200190815260200160002060006101000a81548160ff021916908315150217905550611b75611be5565b73ffffffffffffffffffffffffffffffffffffffff168373ffffffffffffffffffffffffffffffffffffffff16857f2f8788117e7eff1d82e926ec794901d17c78024a50270940304540a733656f0d60405160405180910390a46001915050611bdf565b60009150505b92915050565b600033905090565b600080611bf8611abc565b9050611c04848461121c565b15611ce357600081600001600086815260200190815260200160002060000160008573ffffffffffffffffffffffffffffffffffffffff1673ffffffffffffffffffffffffffffffffffffffff16815260200190815260200160002060006101000a81548160ff021916908315150217905550611c7f611be5565b73ffffffffffffffffffffffffffffffffffffffff168373ffffffffffffffffffffffffffffffffffffffff16857ff6391f5c32d9c69d2a47ea670b442974b53935d1edc7fd64eb21e047a839171b60405160405180910390a46001915050611ce9565b60009150505b92915050565b60007ff0c57e16840df040f15088dc2f81fe391c3923bec73e23a9662efc9c229c6a00905090565b6000670de0b6b3a764000082109050919050565b60008073ffffffffffffffffffffffffffffffffffffffff168273ffffffffffffffffffffffffffffffffffffffff1614159050919050565b611d6c612671565b6000611d76611dd6565b905060008160000160006101000a81548160ff0219169083151502179055507f5db9ee0a495bf2e6ff9c91a7834c1ba4fdd244a5e8aa4e537bd38aeae4b073aa611dbe611be5565b604051611dcb9190613afe565b60405180910390a150565b60007fcd5ed15c6e187e77e9aee88184c21f4f2182ab5827cb3b7e07fbedcd63f03300905090565b80600460006101000a81548173ffffffffffffffffffffffffffffffffffffffff021916908373ffffffffffffffffffffffffffffffffffffffff1602179055507fe6131a64e93e9aa4ff38892c34d563c06dcc1e03b3d6897cc65f0903e2ad684881604051611e6e9190613afe565b60405180910390a150565b611e81611eeb565b6000611e8b611dd6565b905060018160000160006101000a81548160ff0219169083151502179055507f62e78cea01bee320cd4e420270b5ea74000d11b0c9f74754ebdbfc544b05a258611ed3611be5565b604051611ee09190613afe565b60405180910390a150565b611ef3611104565b15611f2a576040517fd93c066500000000000000000000000000000000000000000000000000000000815260040160405180910390fd5b565b6000806000611f3d878787876126b1565b915091508573ffffffffffffffffffffffffffffffffffffffff168773ffffffffffffffffffffffffffffffffffffffff167f6fe3c8bc2a001eda7bcb9594360771389b00cd33722aa178cc817bd906120eaf8760400151600860009054906101000a900473ffffffffffffffffffffffffffffffffffffffff168587604051611fca94939291906142ab565b60405180910390a38192505050949350505050565b81600281905550806003819055507f53482196ef67ac615caab1c3eca2c270acbfdcd75e57c5f24c1b98b10c8e6e04600254600354604051612022929190613ff7565b60405180910390a15050565b60008060008060008054906101000a900473ffffffffffffffffffffffffffffffffffffffff1673ffffffffffffffffffffffffffffffffffffffff1663e4860339876040518263ffffffff1660e01b815260040161208d9190613afe565b602060405180830381865afa1580156120aa573d6000803e3d6000fd5b505050506040513d601f19601f820116820180604052508101906120ce9190614213565b905060008173ffffffffffffffffffffffffffffffffffffffff166370a08231306040518263ffffffff1660e01b815260040161210b9190613afe565b602060405180830381865afa158015612128573d6000803e3d6000fd5b505050506040513d601f19601f8201168201806040525081019061214c9190614305565b90506000600860009054906101000a900473ffffffffffffffffffffffffffffffffffffffff1673ffffffffffffffffffffffffffffffffffffffff166370a08231306040518263ffffffff1660e01b81526004016121ab9190613afe565b602060405180830381865afa1580156121c8573d6000803e3d6000fd5b505050506040513d601f19601f820116820180604052508101906121ec9190614305565b9050600560009054906101000a900473ffffffffffffffffffffffffffffffffffffffff1673ffffffffffffffffffffffffffffffffffffffff16632e9936118a6040518263ffffffff1660e01b81526004016122499190613637565b6020604051808303816000875af1158015612268573d6000803e3d6000fd5b505050506040513d601f19601f8201168201806040525081019061228c9190614347565b935060008373ffffffffffffffffffffffffffffffffffffffff166370a08231306040518263ffffffff1660e01b81526004016122c99190613afe565b602060405180830381865afa1580156122e6573d6000803e3d6000fd5b505050506040513d601f19601f8201168201806040525081019061230a9190614305565b90506000600860009054906101000a900473ffffffffffffffffffffffffffffffffffffffff1673ffffffffffffffffffffffffffffffffffffffff166370a08231306040518263ffffffff1660e01b81526004016123699190613afe565b602060405180830381865afa158015612386573d6000803e3d6000fd5b505050506040513d601f19601f820116820180604052508101906123aa9190614305565b905083826123b89190614374565b896123c39190614374565b975082816123d19190614374565b96506000888a6123e19190614374565b90506000811115612458578573ffffffffffffffffffffffffffffffffffffffff166342966c68826040518263ffffffff1660e01b81526004016124259190613637565b600060405180830381600087803b15801561243f57600080fd5b505af1158015612453573d6000803e3d6000fd5b505050505b50505050505093509350939050565b6124e3848573ffffffffffffffffffffffffffffffffffffffff166323b872dd86868660405160240161249c939291906143a8565b604051602081830303815290604052915060e01b6020820180517bffffffffffffffffffffffffffffffffffffffffffffffffffffffff8381831617835250505050612935565b50505050565b60006124f584846129cc565b905060008103612531576040517fe2d3672300000000000000000000000000000000000000000000000000000000815260040160405180910390fd5b60008054906101000a900473ffffffffffffffffffffffffffffffffffffffff1673ffffffffffffffffffffffffffffffffffffffff1663c6c3bbe68930846040518463ffffffff1660e01b815260040161258e939291906143a8565b6020604051808303816000875af11580156125ad573d6000803e3d6000fd5b505050506040513d601f19601f820116820180604052508101906125d1919061427e565b506000806125e9858a6125e4919061404f565b612a1c565b915091506126098a8c8b88878d612600919061404f565b87878e8c612a6a565b6126138285612e84565b5050505050505050505050565b61262a828261121c565b61266d5780826040517fe2517d3f0000000000000000000000000000000000000000000000000000000081526004016126649291906143df565b60405180910390fd5b5050565b612679611104565b6126af576040517f8dfc202b00000000000000000000000000000000000000000000000000000000815260040160405180910390fd5b565b600080600654426126c2919061404f565b905080600960008873ffffffffffffffffffffffffffffffffffffffff1673ffffffffffffffffffffffffffffffffffffffff1681526020019081526020016000206001018190555083604001516bffffffffffffffffffffffff16600960008873ffffffffffffffffffffffffffffffffffffffff1673ffffffffffffffffffffffffffffffffffffffff16815260200190815260200160002060020181905550600560009054906101000a900473ffffffffffffffffffffffffffffffffffffffff1673ffffffffffffffffffffffffffffffffffffffff16630a4cd6c986600860009054906101000a900473ffffffffffffffffffffffffffffffffffffffff16600754426127d4919061404f565b8589604001518a606001518b608001518c60a001518d60c001518e60e001518f61010001516040518c63ffffffff1660e01b815260040161281f9b9a9998979695949392919061446c565b6020604051808303816000875af115801561283e573d6000803e3d6000fd5b505050506040513d601f19601f820116820180604052508101906128629190614305565b915081600960008873ffffffffffffffffffffffffffffffffffffffff1673ffffffffffffffffffffffffffffffffffffffff1681526020019081526020016000206000018190555082600960008873ffffffffffffffffffffffffffffffffffffffff1673ffffffffffffffffffffffffffffffffffffffff16815260200190815260200160002060030160006101000a81548173ffffffffffffffffffffffffffffffffffffffff021916908373ffffffffffffffffffffffffffffffffffffffff16021790555094509492505050565b6000612960828473ffffffffffffffffffffffffffffffffffffffff1661334990919063ffffffff16565b90506000815114158015612985575080806020019051810190612983919061427e565b155b156129c757826040517f5274afe70000000000000000000000000000000000000000000000000000000081526004016129be9190613afe565b60405180910390fd5b505050565b60008060006129da8561335f565b9250925050806bffffffffffffffffffffffff1684836bffffffffffffffffffffffff16612a08919061451e565b612a12919061458f565b9250505092915050565b600080670de0b6b3a764000060025484612a36919061451e565b612a40919061458f565b9150670de0b6b3a764000060035484612a59919061451e565b612a63919061458f565b9050915091565b60008385888a612a7a919061404f565b612a849190614374565b612a8e9190614374565b9050600860009054906101000a900473ffffffffffffffffffffffffffffffffffffffff1673ffffffffffffffffffffffffffffffffffffffff1663095ea7b3600160009054906101000a900473ffffffffffffffffffffffffffffffffffffffff16836040518363ffffffff1660e01b8152600401612b0f9291906145c0565b6020604051808303816000875af1158015612b2e573d6000803e3d6000fd5b505050506040513d601f19601f82011682018060405250810190612b52919061427e565b50600160009054906101000a900473ffffffffffffffffffffffffffffffffffffffff1673ffffffffffffffffffffffffffffffffffffffff1663a7c3e7048b858985876040518663ffffffff1660e01b8152600401612bb69594939291906145f8565b6020604051808303816000875af1158015612bd5573d6000803e3d6000fd5b505050506040513d601f19601f82011682018060405250810190612bf9919061427e565b50600080851115612d6f57600860009054906101000a900473ffffffffffffffffffffffffffffffffffffffff1673ffffffffffffffffffffffffffffffffffffffff1663095ea7b3600160009054906101000a900473ffffffffffffffffffffffffffffffffffffffff16876040518363ffffffff1660e01b8152600401612c839291906145c0565b6020604051808303816000875af1158015612ca2573d6000803e3d6000fd5b505050506040513d601f19601f82011682018060405250810190612cc6919061427e565b50600160009054906101000a900473ffffffffffffffffffffffffffffffffffffffff1673ffffffffffffffffffffffffffffffffffffffff1663d8690fea8c878e60006040518563ffffffff1660e01b8152600401612d299493929190614686565b6020604051808303816000875af1158015612d48573d6000803e3d6000fd5b505050506040513d601f19601f82011682018060405250810190612d6c9190614305565b90505b60008054906101000a900473ffffffffffffffffffffffffffffffffffffffff1673ffffffffffffffffffffffffffffffffffffffff1663e48603398c6040518263ffffffff1660e01b8152600401612dc89190613afe565b602060405180830381865afa158015612de5573d6000803e3d6000fd5b505050506040513d601f19601f82011682018060405250810190612e099190614213565b73ffffffffffffffffffffffffffffffffffffffff168b73ffffffffffffffffffffffffffffffffffffffff167fd3344051e36dc809876d519c477a698329ccf4e9d7449f5114f6d7c8a577db338c8a868b8b88604051612e6f969594939291906146cb565b60405180910390a35050505050505050505050565b600073ffffffffffffffffffffffffffffffffffffffff168173ffffffffffffffffffffffffffffffffffffffff1603612ede57600460009054906101000a900473ffffffffffffffffffffffffffffffffffffffff1690505b600860009054906101000a900473ffffffffffffffffffffffffffffffffffffffff1673ffffffffffffffffffffffffffffffffffffffff1663095ea7b3600b60009054906101000a900473ffffffffffffffffffffffffffffffffffffffff16846040518363ffffffff1660e01b8152600401612f5d9291906145c0565b6020604051808303816000875af1158015612f7c573d6000803e3d6000fd5b505050506040513d601f19601f82011682018060405250810190612fa0919061427e565b506000600267ffffffffffffffff811115612fbe57612fbd613936565b5b604051908082528060200260200182016040528015612fec5781602001602082028036833780820191505090505b5090506000600267ffffffffffffffff81111561300c5761300b613936565b5b60405190808252806020026020018201604052801561303a5781602001602082028036833780820191505090505b5090506000600267ffffffffffffffff81111561305a57613059613936565b5b6040519080825280602002602001820160405280156130885781602001602082028036833780820191505090505b509050600061309986600a54613385565b9050600081876130a99190614374565b9050600460009054906101000a900473ffffffffffffffffffffffffffffffffffffffff16856000815181106130e2576130e161472c565b5b602002602001019073ffffffffffffffffffffffffffffffffffffffff16908173ffffffffffffffffffffffffffffffffffffffff168152505080846000815181106131315761313061472c565b5b6020026020010181815250507f7c5f60887d67765088ca62cbabbd5361535419e4f3725adc4dc0c13f5b59f738836000815181106131725761317161472c565b5b60200260200101907bffffffffffffffffffffffffffffffffffffffffffffffffffffffff191690817bffffffffffffffffffffffffffffffffffffffffffffffffffffffff19168152505085856001815181106131d3576131d261472c565b5b602002602001019073ffffffffffffffffffffffffffffffffffffffff16908173ffffffffffffffffffffffffffffffffffffffff168152505081846001815181106132225761322161472c565b5b6020026020010181815250507f9b340ab2ddac28fe08c4749305b3981e9d662637abd29942b71f29d6f6e2e7b7836001815181106132635761326261472c565b5b60200260200101907bffffffffffffffffffffffffffffffffffffffffffffffffffffffff191690817bffffffffffffffffffffffffffffffffffffffffffffffffffffffff191681525050600b60009054906101000a900473ffffffffffffffffffffffffffffffffffffffff1673ffffffffffffffffffffffffffffffffffffffff1663300def958686866040518463ffffffff1660e01b815260040161330e939291906149e1565b600060405180830381600087803b15801561332857600080fd5b505af115801561333c573d6000803e3d6000fd5b5050505050505050505050565b6060613357838360006133ae565b905092915050565b600080600060c08460001c901c925060608460001c901c91508360001c90509193909250565b6000670de0b6b3a7640000828461339c919061451e565b6133a6919061458f565b905092915050565b6060814710156133f557306040517fcd7860590000000000000000000000000000000000000000000000000000000081526004016133ec9190613afe565b60405180910390fd5b6000808573ffffffffffffffffffffffffffffffffffffffff16848660405161341e9190614a7c565b60006040518083038185875af1925050503d806000811461345b576040519150601f19603f3d011682016040523d82523d6000602084013e613460565b606091505b509150915061347086838361347b565b925050509392505050565b6060826134905761348b8261350a565b613502565b600082511480156134b8575060008473ffffffffffffffffffffffffffffffffffffffff163b145b156134fa57836040517f9996b3150000000000000000000000000000000000000000000000000000000081526004016134f19190613afe565b60405180910390fd5b819050613503565b5b9392505050565b60008151111561351d5780518082602001fd5b6040517f1425ea4200000000000000000000000000000000000000000000000000000000815260040160405180910390fd5b6000604051905090565b600080fd5b600080fd5b60007fffffffff0000000000000000000000000000000000000000000000000000000082169050919050565b61359881613563565b81146135a357600080fd5b50565b6000813590506135b58161358f565b92915050565b6000602082840312156135d1576135d0613559565b5b60006135df848285016135a6565b91505092915050565b60008115159050919050565b6135fd816135e8565b82525050565b600060208201905061361860008301846135f4565b92915050565b6000819050919050565b6136318161361e565b82525050565b600060208201905061364c6000830184613628565b92915050565b61365b8161361e565b811461366657600080fd5b50565b60008135905061367881613652565b92915050565b6000806040838503121561369557613694613559565b5b60006136a385828601613669565b92505060206136b485828601613669565b9150509250929050565b6000819050919050565b6136d1816136be565b82525050565b60006020820190506136ec60008301846136c8565b92915050565b600073ffffffffffffffffffffffffffffffffffffffff82169050919050565b600061371d826136f2565b9050919050565b61372d81613712565b811461373857600080fd5b50565b60008135905061374a81613724565b92915050565b60006020828403121561376657613765613559565b5b60006137748482850161373b565b91505092915050565b61378681613712565b82525050565b60006080820190506137a16000830187613628565b6137ae6020830186613628565b6137bb6040830185613628565b6137c8606083018461377d565b95945050505050565b6137da816136be565b81146137e557600080fd5b50565b6000813590506137f7816137d1565b92915050565b60006020828403121561381357613812613559565b5b6000613821848285016137e8565b91505092915050565b6000819050919050565b600061384f61384a613845846136f2565b61382a565b6136f2565b9050919050565b600061386182613834565b9050919050565b600061387382613856565b9050919050565b61388381613868565b82525050565b600060208201905061389e600083018461387a565b92915050565b60006138af82613856565b9050919050565b6138bf816138a4565b82525050565b60006020820190506138da60008301846138b6565b92915050565b600080604083850312156138f7576138f6613559565b5b6000613905858286016137e8565b92505060206139168582860161373b565b9150509250929050565b600080fd5b6000601f19601f8301169050919050565b7f4e487b7100000000000000000000000000000000000000000000000000000000600052604160045260246000fd5b61396e82613925565b810181811067ffffffffffffffff8211171561398d5761398c613936565b5b80604052505050565b60006139a061354f565b90506139ac8282613965565b919050565b600080fd5b6000604082840312156139cc576139cb613920565b5b6139d66040613996565b905060006139e684828501613669565b60008301525060206139fa84828501613669565b60208301525092915050565b60008060008060008060008060006101408a8c031215613a2957613a28613559565b5b6000613a378c828d0161373b565b9950506020613a488c828d0161373b565b9850506040613a598c828d0161373b565b9750506060613a6a8c828d0161373b565b9650506080613a7b8c828d0161373b565b95505060a0613a8c8c828d016139b6565b94505060e0613a9d8c828d0161373b565b935050610100613aaf8c828d01613669565b925050610120613ac18c828d01613669565b9150509295985092959850929598565b600060208284031215613ae757613ae6613559565b5b6000613af584828501613669565b91505092915050565b6000602082019050613b13600083018461377d565b92915050565b6000613b2482613856565b9050919050565b613b3481613b19565b82525050565b6000602082019050613b4f6000830184613b2b565b92915050565b600080fd5b600080fd5b600067ffffffffffffffff821115613b7a57613b79613936565b5b613b8382613925565b9050602081019050919050565b82818337600083830152505050565b6000613bb2613bad84613b5f565b613996565b905082815260208101848484011115613bce57613bcd613b5a565b5b613bd9848285613b90565b509392505050565b600082601f830112613bf657613bf5613b55565b5b8135613c06848260208601613b9f565b91505092915050565b60006bffffffffffffffffffffffff82169050919050565b613c3081613c0f565b8114613c3b57600080fd5b50565b600081359050613c4d81613c27565b92915050565b613c5c816135e8565b8114613c6757600080fd5b50565b600081359050613c7981613c53565b92915050565b600067ffffffffffffffff821115613c9a57613c99613936565b5b613ca382613925565b9050602081019050919050565b6000613cc3613cbe84613c7f565b613996565b905082815260208101848484011115613cdf57613cde613b5a565b5b613cea848285613b90565b509392505050565b600082601f830112613d0757613d06613b55565b5b8135613d17848260208601613cb0565b91505092915050565b60006101208284031215613d3757613d36613920565b5b613d42610120613996565b9050600082013567ffffffffffffffff811115613d6257613d616139b1565b5b613d6e84828501613be1565b600083015250602082013567ffffffffffffffff811115613d9257613d916139b1565b5b613d9e84828501613be1565b6020830152506040613db284828501613c3e565b6040830152506060613dc684828501613c3e565b6060830152506080613dda84828501613669565b60808301525060a0613dee84828501613669565b60a08301525060c0613e0284828501613c6a565b60c08301525060e0613e168482850161373b565b60e08301525061010082013567ffffffffffffffff811115613e3b57613e3a6139b1565b5b613e4784828501613cf2565b6101008301525092915050565b600080600060608486031215613e6d57613e6c613559565b5b6000613e7b8682870161373b565b935050602084013567ffffffffffffffff811115613e9c57613e9b61355e565b5b613ea886828701613d20565b9250506040613eb98682870161373b565b9150509250925092565b600060408284031215613ed957613ed8613559565b5b6000613ee7848285016139b6565b91505092915050565b600063ffffffff82169050919050565b613f0981613ef0565b8114613f1457600080fd5b50565b600081359050613f2681613f00565b92915050565b600080600060608486031215613f4557613f44613559565b5b6000613f538682870161373b565b9350506020613f6486828701613669565b9250506040613f7586828701613f17565b9150509250925092565b6000613f8a82613856565b9050919050565b613f9a81613f7f565b82525050565b6000602082019050613fb56000830184613f91565b92915050565b6000613fc682613856565b9050919050565b613fd681613fbb565b82525050565b6000602082019050613ff16000830184613fcd565b92915050565b600060408201905061400c6000830185613628565b6140196020830184613628565b9392505050565b7f4e487b7100000000000000000000000000000000000000000000000000000000600052601160045260246000fd5b600061405a8261361e565b91506140658361361e565b925082820190508082111561407d5761407c614020565b5b92915050565b6000819050919050565b600067ffffffffffffffff82169050919050565b60006140bc6140b76140b284614083565b61382a565b61408d565b9050919050565b6140cc816140a1565b82525050565b60006020820190506140e760008301846140c3565b92915050565b600081519050919050565b600082825260208201905092915050565b60005b8381101561412757808201518184015260208101905061410c565b60008484015250505050565b600061413e826140ed565b61414881856140f8565b9350614158818560208601614109565b61416181613925565b840191505092915050565b600061418761418261417d84613c0f565b61382a565b61361e565b9050919050565b6141978161416c565b82525050565b600060a0820190506141b2600083018861377d565b81810360208301526141c48187614133565b905081810360408301526141d88186614133565b90506141e7606083018561418e565b6141f4608083018461377d565b9695505050505050565b60008151905061420d81613724565b92915050565b60006020828403121561422957614228613559565b5b6000614237848285016141fe565b91505092915050565b6000604082019050614255600083018561377d565b614262602083018461418e565b9392505050565b60008151905061427881613c53565b92915050565b60006020828403121561429457614293613559565b5b60006142a284828501614269565b91505092915050565b60006080820190506142c0600083018761418e565b6142cd602083018661377d565b6142da6040830185613628565b6142e76060830184613628565b95945050505050565b6000815190506142ff81613652565b92915050565b60006020828403121561431b5761431a613559565b5b6000614329848285016142f0565b91505092915050565b600081519050614341816137d1565b92915050565b60006020828403121561435d5761435c613559565b5b600061436b84828501614332565b91505092915050565b600061437f8261361e565b915061438a8361361e565b92508282039050818111156143a2576143a1614020565b5b92915050565b60006060820190506143bd600083018661377d565b6143ca602083018561377d565b6143d76040830184613628565b949350505050565b60006040820190506143f4600083018561377d565b61440160208301846136c8565b9392505050565b61441181613c0f565b82525050565b600081519050919050565b600082825260208201905092915050565b600061443e82614417565b6144488185614422565b9350614458818560208601614109565b61446181613925565b840191505092915050565b600061016082019050614482600083018e61377d565b61448f602083018d61377d565b61449c604083018c613628565b6144a9606083018b613628565b6144b6608083018a614408565b6144c360a0830189614408565b6144d060c0830188613628565b6144dd60e0830187613628565b6144eb6101008301866135f4565b6144f961012083018561377d565b81810361014083015261450c8184614433565b90509c9b505050505050505050505050565b60006145298261361e565b91506145348361361e565b92508282026145428161361e565b9150828204841483151761455957614558614020565b5b5092915050565b7f4e487b7100000000000000000000000000000000000000000000000000000000600052601260045260246000fd5b600061459a8261361e565b91506145a58361361e565b9250826145b5576145b4614560565b5b828204905092915050565b60006040820190506145d5600083018561377d565b6145e26020830184613628565b9392505050565b6145f281613ef0565b82525050565b600060a08201905061460d600083018861377d565b61461a60208301876145e9565b6146276040830186613628565b6146346060830185613628565b614641608083018461377d565b9695505050505050565b6000819050919050565b600061467061466b6146668461464b565b61382a565b61361e565b9050919050565b61468081614655565b82525050565b600060808201905061469b600083018761377d565b6146a86020830186613628565b6146b5604083018561377d565b6146c26060830184614677565b95945050505050565b600060c0820190506146e06000830189613628565b6146ed6020830188613628565b6146fa6040830187613628565b6147076060830186613628565b6147146080830185613628565b61472160a0830184613628565b979650505050505050565b7f4e487b7100000000000000000000000000000000000000000000000000000000600052603260045260246000fd5b600081519050919050565b600082825260208201905092915050565b6000819050602082019050919050565b61479081613712565b82525050565b60006147a28383614787565b60208301905092915050565b6000602082019050919050565b60006147c68261475b565b6147d08185614766565b93506147db83614777565b8060005b8381101561480c5781516147f38882614796565b97506147fe836147ae565b9250506001810190506147df565b5085935050505092915050565b600081519050919050565b600082825260208201905092915050565b6000819050602082019050919050565b61484e8161361e565b82525050565b60006148608383614845565b60208301905092915050565b6000602082019050919050565b600061488482614819565b61488e8185614824565b935061489983614835565b8060005b838110156148ca5781516148b18882614854565b97506148bc8361486c565b92505060018101905061489d565b5085935050505092915050565b600081519050919050565b600082825260208201905092915050565b6000819050602082019050919050565b61490c81613563565b82525050565b600061491e8383614903565b60208301905092915050565b6000602082019050919050565b6000614942826148d7565b61494c81856148e2565b9350614957836148f3565b8060005b8381101561498857815161496f8882614912565b975061497a8361492a565b92505060018101905061495b565b5085935050505092915050565b7f5452414e53414354494f4e5f4645450000000000000000000000000000000000600082015250565b60006149cb600f836140f8565b91506149d682614995565b602082019050919050565b600060808201905081810360008301526149fb81866147bb565b90508181036020830152614a0f8185614879565b90508181036040830152614a238184614937565b90508181036060830152614a36816149be565b9050949350505050565b600081905092915050565b6000614a5682614417565b614a608185614a40565b9350614a70818560208601614109565b80840191505092915050565b6000614a888284614a4b565b91508190509291505056fea264697066735822122090b4ec48ad8a364a1c7b29e15be8bd8271dbf7a362112d39c84aef74360d66b764736f6c63430008180033",
  "linkReferences": {},
  "deployedLinkReferences": {}
}