{
  "contracts/Staking.sol": {
    "Staking": {
      "abi": [
        {
          "inputs": [],
          "name": "AccessControlBadConfirmation",
          "type": "error"
        },
        {
          "inputs": [
            {
              "internalType": "address",
              "name": "account",
              "type": "address"
            },
            {
              "internalType": "bytes32",
              "name": "neededRole",
              "type": "bytes32"
            }
          ],
          "name": "AccessControlUnauthorizedAccount",
          "type": "error"
        },
        {
          "inputs": [
            {
              "internalType": "address",
              "name": "target",
              "type": "address"
            }
          ],
          "name": "AddressEmptyCode",
          "type": "error"
        },
        {
          "inputs": [
            {
              "internalType": "address",
              "name": "account",
              "type": "address"
            }
          ],
          "name": "AddressInsufficientBalance",
          "type": "error"
        },
        {
          "inputs": [],
          "name": "EnforcedPause",
          "type": "error"
        },
        {
          "inputs": [],
          "name": "ExpectedPause",
          "type": "error"
        },
        {
          "inputs": [],
          "name": "FailedInnerCall",
          "type": "error"
        },
        {
          "inputs": [],
          "name": "InvalidInitialization",
          "type": "error"
        },
        {
          "inputs": [],
          "name": "NotInitializing",
          "type": "error"
        },
        {
          "inputs": [
            {
              "internalType": "address",
              "name": "token",
              "type": "address"
            }
          ],
          "name": "SafeERC20FailedOperation",
          "type": "error"
        },
        {
          "inputs": [],
          "name": "Staking_AmountShouldBeGreaterThanZero",
          "type": "error"
        },
        {
          "inputs": [],
          "name": "Staking_EmptyIndexes",
          "type": "error"
        },
        {
          "inputs": [],
          "name": "Staking_InvalidBeneficiary",
          "type": "error"
        },
        {
          "inputs": [],
          "name": "Staking_InvalidDefaultAdmin",
          "type": "error"
        },
        {
          "inputs": [],
          "name": "Staking_InvalidInputLength",
          "type": "error"
        },
        {
          "inputs": [],
          "name": "Staking_InvalidLockPeriod",
          "type": "error"
        },
        {
          "inputs": [],
          "name": "Staking_InvalidMoxieBondingCurve",
          "type": "error"
        },
        {
          "inputs": [],
          "name": "Staking_InvalidMoxieToken",
          "type": "error"
        },
        {
          "inputs": [],
          "name": "Staking_InvalidSubject",
          "type": "error"
        },
        {
          "inputs": [],
          "name": "Staking_InvalidSubjectToken",
          "type": "error"
        },
        {
          "inputs": [],
          "name": "Staking_InvalidTokenManager",
          "type": "error"
        },
        {
          "inputs": [
            {
              "internalType": "uint256",
              "name": "index",
              "type": "uint256"
            },
            {
              "internalType": "uint256",
              "name": "currentTime",
              "type": "uint256"
            },
            {
              "internalType": "uint256",
              "name": "unlockTime",
              "type": "uint256"
            }
          ],
          "name": "Staking_LockNotExpired",
          "type": "error"
        },
        {
          "inputs": [],
          "name": "Staking_LockPeriodAlreadySet",
          "type": "error"
        },
        {
          "inputs": [
            {
              "internalType": "uint256",
              "name": "index",
              "type": "uint256"
            }
          ],
          "name": "Staking_NotOwner",
          "type": "error"
        },
        {
          "inputs": [
            {
              "internalType": "uint256",
              "name": "index",
              "type": "uint256"
            }
          ],
          "name": "Staking_NotSameUser",
          "type": "error"
        },
        {
          "inputs": [
            {
              "internalType": "uint256",
              "name": "index",
              "type": "uint256"
            }
          ],
          "name": "Staking_SubjectsDoesNotMatch",
          "type": "error"
        },
        {
          "anonymous": false,
          "inputs": [
            {
              "indexed": false,
              "internalType": "uint64",
              "name": "version",
              "type": "uint64"
            }
          ],
          "name": "Initialized",
          "type": "event"
        },
        {
          "anonymous": false,
          "inputs": [
            {
              "indexed": true,
              "internalType": "address",
              "name": "_user",
              "type": "address"
            },
            {
              "indexed": true,
              "internalType": "address",
              "name": "_subject",
              "type": "address"
            },
            {
              "indexed": true,
              "internalType": "address",
              "name": "_subjectToken",
              "type": "address"
            },
            {
              "indexed": false,
              "internalType": "uint256",
              "name": "_index",
              "type": "uint256"
            },
            {
              "indexed": false,
              "internalType": "uint256",
              "name": "_amount",
              "type": "uint256"
            },
            {
              "indexed": false,
              "internalType": "uint256",
              "name": "_unlockTimeInSec",
              "type": "uint256"
            },
            {
              "indexed": false,
              "internalType": "uint256",
              "name": "_lockPeriodInSec",
              "type": "uint256"
            },
            {
              "indexed": false,
              "internalType": "address",
              "name": "_buyer",
              "type": "address"
            },
            {
              "indexed": false,
              "internalType": "uint256",
              "name": "_moxieDepositAmount",
              "type": "uint256"
            }
          ],
          "name": "Lock",
          "type": "event"
        },
        {
          "anonymous": false,
          "inputs": [
            {
              "indexed": true,
              "internalType": "address",
              "name": "_user",
              "type": "address"
            },
            {
              "indexed": true,
              "internalType": "address",
              "name": "_subject",
              "type": "address"
            },
            {
              "indexed": true,
              "internalType": "address",
              "name": "_subjectToken",
              "type": "address"
            },
            {
              "indexed": false,
              "internalType": "uint256[]",
              "name": "_indexes",
              "type": "uint256[]"
            },
            {
              "indexed": false,
              "internalType": "uint256",
              "name": "_amount",
              "type": "uint256"
            }
          ],
          "name": "LockExtended",
          "type": "event"
        },
        {
          "anonymous": false,
          "inputs": [
            {
              "indexed": true,
              "internalType": "uint256",
              "name": "_lockPeriodInSec",
              "type": "uint256"
            },
            {
              "indexed": true,
              "internalType": "bool",
              "name": "_allowed",
              "type": "bool"
            }
          ],
          "name": "LockPeriodUpdated",
          "type": "event"
        },
        {
          "anonymous": false,
          "inputs": [
            {
              "indexed": false,
              "internalType": "address",
              "name": "account",
              "type": "address"
            }
          ],
          "name": "Paused",
          "type": "event"
        },
        {
          "anonymous": false,
          "inputs": [
            {
              "indexed": true,
              "internalType": "bytes32",
              "name": "role",
              "type": "bytes32"
            },
            {
              "indexed": true,
              "internalType": "bytes32",
              "name": "previousAdminRole",
              "type": "bytes32"
            },
            {
              "indexed": true,
              "internalType": "bytes32",
              "name": "newAdminRole",
              "type": "bytes32"
            }
          ],
          "name": "RoleAdminChanged",
          "type": "event"
        },
        {
          "anonymous": false,
          "inputs": [
            {
              "indexed": true,
              "internalType": "bytes32",
              "name": "role",
              "type": "bytes32"
            },
            {
              "indexed": true,
              "internalType": "address",
              "name": "account",
              "type": "address"
            },
            {
              "indexed": true,
              "internalType": "address",
              "name": "sender",
              "type": "address"
            }
          ],
          "name": "RoleGranted",
          "type": "event"
        },
        {
          "anonymous": false,
          "inputs": [
            {
              "indexed": true,
              "internalType": "bytes32",
              "name": "role",
              "type": "bytes32"
            },
            {
              "indexed": true,
              "internalType": "address",
              "name": "account",
              "type": "address"
            },
            {
              "indexed": true,
              "internalType": "address",
              "name": "sender",
              "type": "address"
            }
          ],
          "name": "RoleRevoked",
          "type": "event"
        },
        {
          "anonymous": false,
          "inputs": [
            {
              "indexed": false,
              "internalType": "address",
              "name": "account",
              "type": "address"
            }
          ],
          "name": "Unpaused",
          "type": "event"
        },
        {
          "anonymous": false,
          "inputs": [
            {
              "indexed": true,
              "internalType": "address",
              "name": "_user",
              "type": "address"
            },
            {
              "indexed": true,
              "internalType": "address",
              "name": "_subject",
              "type": "address"
            },
            {
              "indexed": true,
              "internalType": "address",
              "name": "_subjectToken",
              "type": "address"
            },
            {
              "indexed": false,
              "internalType": "uint256[]",
              "name": "_indexes",
              "type": "uint256[]"
            },
            {
              "indexed": false,
              "internalType": "uint256",
              "name": "_amount",
              "type": "uint256"
            }
          ],
          "name": "Withdraw",
          "type": "event"
        },
        {
          "inputs": [],
          "name": "CHANGE_LOCK_DURATION",
          "outputs": [
            {
              "internalType": "bytes32",
              "name": "",
              "type": "bytes32"
            }
          ],
          "stateMutability": "view",
          "type": "function"
        },
        {
          "inputs": [],
          "name": "DEFAULT_ADMIN_ROLE",
          "outputs": [
            {
              "internalType": "bytes32",
              "name": "",
              "type": "bytes32"
            }
          ],
          "stateMutability": "view",
          "type": "function"
        },
        {
          "inputs": [],
          "name": "PAUSE_ROLE",
          "outputs": [
            {
              "internalType": "bytes32",
              "name": "",
              "type": "bytes32"
            }
          ],
          "stateMutability": "view",
          "type": "function"
        },
        {
          "inputs": [
            {
              "internalType": "address",
              "name": "_subject",
              "type": "address"
            },
            {
              "internalType": "uint256",
              "name": "_depositAmount",
              "type": "uint256"
            },
            {
              "internalType": "uint256",
              "name": "_minReturnAmountAfterFee",
              "type": "uint256"
            },
            {
              "internalType": "uint256",
              "name": "_lockPeriodInSec",
              "type": "uint256"
            }
          ],
          "name": "buyAndLock",
          "outputs": [
            {
              "internalType": "uint256",
              "name": "amount_",
              "type": "uint256"
            },
            {
              "internalType": "uint256",
              "name": "unlockTimeInSec_",
              "type": "uint256"
            }
          ],
          "stateMutability": "nonpayable",
          "type": "function"
        },
        {
          "inputs": [
            {
              "internalType": "address",
              "name": "_subject",
              "type": "address"
            },
            {
              "internalType": "uint256",
              "name": "_depositAmount",
              "type": "uint256"
            },
            {
              "internalType": "uint256",
              "name": "_minReturnAmountAfterFee",
              "type": "uint256"
            },
            {
              "internalType": "uint256",
              "name": "_lockPeriodInSec",
              "type": "uint256"
            },
            {
              "internalType": "address",
              "name": "_beneficiary",
              "type": "address"
            }
          ],
          "name": "buyAndLockFor",
          "outputs": [
            {
              "internalType": "uint256",
              "name": "amount_",
              "type": "uint256"
            },
            {
              "internalType": "uint256",
              "name": "unlockTimeInSec_",
              "type": "uint256"
            }
          ],
          "stateMutability": "nonpayable",
          "type": "function"
        },
        {
          "inputs": [
            {
              "internalType": "address[]",
              "name": "_subjects",
              "type": "address[]"
            },
            {
              "internalType": "uint256[]",
              "name": "_depositAmounts",
              "type": "uint256[]"
            },
            {
              "internalType": "uint256[]",
              "name": "_minReturnAmountsAfterFee",
              "type": "uint256[]"
            },
            {
              "internalType": "uint256",
              "name": "_lockPeriodInSec",
              "type": "uint256"
            }
          ],
          "name": "buyAndLockMultiple",
          "outputs": [
            {
              "internalType": "uint256[]",
              "name": "amounts_",
              "type": "uint256[]"
            },
            {
              "internalType": "uint256",
              "name": "unlockTimeInSec_",
              "type": "uint256"
            }
          ],
          "stateMutability": "nonpayable",
          "type": "function"
        },
        {
          "inputs": [
            {
              "internalType": "address[]",
              "name": "_subjects",
              "type": "address[]"
            },
            {
              "internalType": "uint256[]",
              "name": "_depositAmounts",
              "type": "uint256[]"
            },
            {
              "internalType": "uint256[]",
              "name": "_minReturnAmountsAfterFee",
              "type": "uint256[]"
            },
            {
              "internalType": "uint256",
              "name": "_lockPeriodInSec",
              "type": "uint256"
            },
            {
              "internalType": "address",
              "name": "_beneficiary",
              "type": "address"
            }
          ],
          "name": "buyAndLockMultipleFor",
          "outputs": [
            {
              "internalType": "uint256[]",
              "name": "amounts_",
              "type": "uint256[]"
            },
            {
              "internalType": "uint256",
              "name": "unlockTimeInSec_",
              "type": "uint256"
            }
          ],
          "stateMutability": "nonpayable",
          "type": "function"
        },
        {
          "inputs": [
            {
              "internalType": "address",
              "name": "_subject",
              "type": "address"
            },
            {
              "internalType": "uint256",
              "name": "_amount",
              "type": "uint256"
            },
            {
              "internalType": "uint256",
              "name": "_lockPeriodInSec",
              "type": "uint256"
            }
          ],
          "name": "depositAndLock",
          "outputs": [
            {
              "internalType": "uint256",
              "name": "unlockTimeInSec_",
              "type": "uint256"
            }
          ],
          "stateMutability": "nonpayable",
          "type": "function"
        },
        {
          "inputs": [
            {
              "internalType": "address",
              "name": "_subject",
              "type": "address"
            },
            {
              "internalType": "uint256",
              "name": "_amount",
              "type": "uint256"
            },
            {
              "internalType": "uint256",
              "name": "_lockPeriodInSec",
              "type": "uint256"
            },
            {
              "internalType": "address",
              "name": "_beneficiary",
              "type": "address"
            }
          ],
          "name": "depositAndLockFor",
          "outputs": [
            {
              "internalType": "uint256",
              "name": "unlockTimeInSec_",
              "type": "uint256"
            }
          ],
          "stateMutability": "nonpayable",
          "type": "function"
        },
        {
          "inputs": [
            {
              "internalType": "address[]",
              "name": "_subjects",
              "type": "address[]"
            },
            {
              "internalType": "uint256[]",
              "name": "_amounts",
              "type": "uint256[]"
            },
            {
              "internalType": "uint256",
              "name": "_lockPeriodInSec",
              "type": "uint256"
            }
          ],
          "name": "depositAndLockMultiple",
          "outputs": [
            {
              "internalType": "uint256",
              "name": "unlockTimeInSec_",
              "type": "uint256"
            }
          ],
          "stateMutability": "nonpayable",
          "type": "function"
        },
        {
          "inputs": [
            {
              "internalType": "address[]",
              "name": "_subjects",
              "type": "address[]"
            },
            {
              "internalType": "uint256[]",
              "name": "_amounts",
              "type": "uint256[]"
            },
            {
              "internalType": "uint256",
              "name": "_lockPeriodInSec",
              "type": "uint256"
            },
            {
              "internalType": "address",
              "name": "_beneficiary",
              "type": "address"
            }
          ],
          "name": "depositAndLockMultipleFor",
          "outputs": [
            {
              "internalType": "uint256",
              "name": "unlockTimeInSec_",
              "type": "uint256"
            }
          ],
          "stateMutability": "nonpayable",
          "type": "function"
        },
        {
          "inputs": [
            {
              "internalType": "address",
              "name": "_subject",
              "type": "address"
            },
            {
              "internalType": "uint256[]",
              "name": "_indexes",
              "type": "uint256[]"
            },
            {
              "internalType": "uint256",
              "name": "_lockPeriodInSec",
              "type": "uint256"
            }
          ],
          "name": "extendLock",
          "outputs": [
            {
              "internalType": "uint256",
              "name": "totalAmount_",
              "type": "uint256"
            },
            {
              "internalType": "uint256",
              "name": "unlockTimeInSec_",
              "type": "uint256"
            }
          ],
          "stateMutability": "nonpayable",
          "type": "function"
        },
        {
          "inputs": [
            {
              "internalType": "address",
              "name": "_subject",
              "type": "address"
            },
            {
              "internalType": "uint256[]",
              "name": "_indexes",
              "type": "uint256[]"
            },
            {
              "internalType": "uint256",
              "name": "_lockPeriodInSec",
              "type": "uint256"
            },
            {
              "internalType": "address",
              "name": "_beneficiary",
              "type": "address"
            }
          ],
          "name": "extendLockFor",
          "outputs": [
            {
              "internalType": "uint256",
              "name": "totalAmount_",
              "type": "uint256"
            },
            {
              "internalType": "uint256",
              "name": "unlockTimeInSec_",
              "type": "uint256"
            }
          ],
          "stateMutability": "nonpayable",
          "type": "function"
        },
        {
          "inputs": [
            {
              "internalType": "bytes32",
              "name": "role",
              "type": "bytes32"
            }
          ],
          "name": "getRoleAdmin",
          "outputs": [
            {
              "internalType": "bytes32",
              "name": "",
              "type": "bytes32"
            }
          ],
          "stateMutability": "view",
          "type": "function"
        },
        {
          "inputs": [
            {
              "internalType": "address",
              "name": "_user",
              "type": "address"
            },
            {
              "internalType": "address",
              "name": "_subject",
              "type": "address"
            },
            {
              "internalType": "uint256[]",
              "name": "_indexes",
              "type": "uint256[]"
            }
          ],
          "name": "getTotalStakedAmount",
          "outputs": [
            {
              "internalType": "uint256",
              "name": "totalAmount_",
              "type": "uint256"
            }
          ],
          "stateMutability": "view",
          "type": "function"
        },
        {
          "inputs": [
            {
              "internalType": "bytes32",
              "name": "role",
              "type": "bytes32"
            },
            {
              "internalType": "address",
              "name": "account",
              "type": "address"
            }
          ],
          "name": "grantRole",
          "outputs": [],
          "stateMutability": "nonpayable",
          "type": "function"
        },
        {
          "inputs": [
            {
              "internalType": "bytes32",
              "name": "role",
              "type": "bytes32"
            },
            {
              "internalType": "address",
              "name": "account",
              "type": "address"
            }
          ],
          "name": "hasRole",
          "outputs": [
            {
              "internalType": "bool",
              "name": "",
              "type": "bool"
            }
          ],
          "stateMutability": "view",
          "type": "function"
        },
        {
          "inputs": [
            {
              "internalType": "address",
              "name": "_tokenManager",
              "type": "address"
            },
            {
              "internalType": "address",
              "name": "_moxieBondingCurve",
              "type": "address"
            },
            {
              "internalType": "address",
              "name": "_moxieToken",
              "type": "address"
            },
            {
              "internalType": "address",
              "name": "_defaultAdmin",
              "type": "address"
            }
          ],
          "name": "initialize",
          "outputs": [],
          "stateMutability": "nonpayable",
          "type": "function"
        },
        {
          "inputs": [],
          "name": "lockCount",
          "outputs": [
            {
              "internalType": "uint256",
              "name": "",
              "type": "uint256"
            }
          ],
          "stateMutability": "view",
          "type": "function"
        },
        {
          "inputs": [
            {
              "internalType": "uint256",
              "name": "lockPeriodInSec",
              "type": "uint256"
            }
          ],
          "name": "lockPeriodsInSec",
          "outputs": [
            {
              "internalType": "bool",
              "name": "allowed",
              "type": "bool"
            }
          ],
          "stateMutability": "view",
          "type": "function"
        },
        {
          "inputs": [
            {
              "internalType": "uint256",
              "name": "lockId",
              "type": "uint256"
            }
          ],
          "name": "locks",
          "outputs": [
            {
              "internalType": "address",
              "name": "user",
              "type": "address"
            },
            {
              "internalType": "address",
              "name": "subject",
              "type": "address"
            },
            {
              "internalType": "address",
              "name": "subjectToken",
              "type": "address"
            },
            {
              "internalType": "uint256",
              "name": "unlockTimeInSec",
              "type": "uint256"
            },
            {
              "internalType": "uint256",
              "name": "amount",
              "type": "uint256"
            },
            {
              "internalType": "uint256",
              "name": "lockPeriodInSec",
              "type": "uint256"
            }
          ],
          "stateMutability": "view",
          "type": "function"
        },
        {
          "inputs": [],
          "name": "moxieBondingCurve",
          "outputs": [
            {
              "internalType": "contract IMoxieBondingCurve",
              "name": "",
              "type": "address"
            }
          ],
          "stateMutability": "view",
          "type": "function"
        },
        {
          "inputs": [],
          "name": "moxieToken",
          "outputs": [
            {
              "internalType": "contract IERC20Extended",
              "name": "",
              "type": "address"
            }
          ],
          "stateMutability": "view",
          "type": "function"
        },
        {
          "inputs": [],
          "name": "pause",
          "outputs": [],
          "stateMutability": "nonpayable",
          "type": "function"
        },
        {
          "inputs": [],
          "name": "paused",
          "outputs": [
            {
              "internalType": "bool",
              "name": "",
              "type": "bool"
            }
          ],
          "stateMutability": "view",
          "type": "function"
        },
        {
          "inputs": [
            {
              "internalType": "bytes32",
              "name": "role",
              "type": "bytes32"
            },
            {
              "internalType": "address",
              "name": "callerConfirmation",
              "type": "address"
            }
          ],
          "name": "renounceRole",
          "outputs": [],
          "stateMutability": "nonpayable",
          "type": "function"
        },
        {
          "inputs": [
            {
              "internalType": "bytes32",
              "name": "role",
              "type": "bytes32"
            },
            {
              "internalType": "address",
              "name": "account",
              "type": "address"
            }
          ],
          "name": "revokeRole",
          "outputs": [],
          "stateMutability": "nonpayable",
          "type": "function"
        },
        {
          "inputs": [
            {
              "internalType": "uint256",
              "name": "_lockPeriodInSec",
              "type": "uint256"
            },
            {
              "internalType": "bool",
              "name": "_allowed",
              "type": "bool"
            }
          ],
          "name": "setLockPeriod",
          "outputs": [],
          "stateMutability": "nonpayable",
          "type": "function"
        },
        {
          "inputs": [
            {
              "internalType": "bytes4",
              "name": "interfaceId",
              "type": "bytes4"
            }
          ],
          "name": "supportsInterface",
          "outputs": [
            {
              "internalType": "bool",
              "name": "",
              "type": "bool"
            }
          ],
          "stateMutability": "view",
          "type": "function"
        },
        {
          "inputs": [],
          "name": "tokenManager",
          "outputs": [
            {
              "internalType": "contract ITokenManager",
              "name": "",
              "type": "address"
            }
          ],
          "stateMutability": "view",
          "type": "function"
        },
        {
          "inputs": [],
          "name": "unpause",
          "outputs": [],
          "stateMutability": "nonpayable",
          "type": "function"
        },
        {
          "inputs": [
            {
              "internalType": "address",
              "name": "_subject",
              "type": "address"
            },
            {
              "internalType": "uint256[]",
              "name": "_indexes",
              "type": "uint256[]"
            }
          ],
          "name": "withdraw",
          "outputs": [
            {
              "internalType": "uint256",
              "name": "totalAmount_",
              "type": "uint256"
            }
          ],
          "stateMutability": "nonpayable",
          "type": "function"
        }
      ],
      "evm": {
        "bytecode": {
          "linkReferences": {},
          "object": "608060405234801561001057600080fd5b50614926806100206000396000f3fe608060405234801561001057600080fd5b50600436106101f05760003560e01c806380aa59d71161010f578063cc98a1bc116100a2578063ee67f0ab11610071578063ee67f0ab14610621578063f4dadc6114610651578063f7b01a4914610686578063f8c8765e146106a4576101f0565b8063cc98a1bc14610588578063d475f26e146105b8578063d547741f146105e9578063dbfc77c414610605576101f0565b806391d14854116100de57806391d14854146104ec5780639b10b6f51461051c578063a217fddf1461053a578063a6da1e7d14610558576101f0565b806380aa59d7146104515780638293744b146104815780638456cb59146104b15780638e7e260e146104bb576101f0565b806337cfb944116101875780635c142f8f116101565780635c142f8f146103b45780635c975abb146103e45780636d9322a8146104025780636fe6e1f214610433576101f0565b806337cfb9441461032b578063389ed2671461035c5780633f4ba83a1461037a57806349cc79f114610384576101f0565b80632a709b14116101c35780632a709b14146102a45780632d922002146102c25780632f2ff15d146102f357806336568abe1461030f576101f0565b806301ffc9a7146101f5578063096532d314610225578063158a21e214610243578063248a9ca314610274575b600080fd5b61020f600480360381019061020a91906136fb565b6106c0565b60405161021c9190613743565b60405180910390f35b61022d61073a565b60405161023a9190613777565b60405180910390f35b61025d60048036038101906102589190613826565b61075e565b60405161026b9291906138b0565b60405180910390f35b61028e60048036038101906102899190613905565b61099c565b60405161029b9190613777565b60405180910390f35b6102ac6109ca565b6040516102b99190613991565b60405180910390f35b6102dc60048036038101906102d791906139ac565b6109ee565b6040516102ea9291906138b0565b60405180910390f35b61030d60048036038101906103089190613a13565b610c2b565b005b61032960048036038101906103249190613a13565b610c4d565b005b61034560048036038101906103409190613bac565b610cc8565b6040516103539291906138b0565b60405180910390f35b610364610de2565b6040516103719190613777565b60405180910390f35b610382610e06565b005b61039e60048036038101906103999190613cde565b610e3b565b6040516103ab9190613d7d565b60405180910390f35b6103ce60048036038101906103c99190613d98565b610f47565b6040516103db9190613d7d565b60405180910390f35b6103ec611052565b6040516103f99190613743565b60405180910390f35b61041c60048036038101906104179190613e23565b611077565b60405161042a929190613fb0565b60405180910390f35b61043b611463565b6040516104489190614001565b60405180910390f35b61046b60048036038101906104669190614077565b611489565b6040516104789190613d7d565b60405180910390f35b61049b600480360381019061049691906140eb565b61170e565b6040516104a89190613d7d565b60405180910390f35b6104b96117e2565b005b6104d560048036038101906104d09190614147565b611817565b6040516104e3929190613fb0565b60405180910390f35b61050660048036038101906105019190613a13565b611bee565b6040516105139190613743565b60405180910390f35b610524611c67565b6040516105319190613d7d565b60405180910390f35b610542611c6d565b60405161054f9190613777565b60405180910390f35b610572600480360381019061056d9190614202565b611c74565b60405161057f9190613d7d565b60405180910390f35b6105a2600480360381019061059d9190614255565b611cf6565b6040516105af9190613743565b60405180910390f35b6105d260048036038101906105cd9190614282565b611d16565b6040516105e09291906138b0565b60405180910390f35b61060360048036038101906105fe9190613a13565b611e31565b005b61061f600480360381019061061a9190614331565b611e53565b005b61063b60048036038101906106369190614371565b611f3a565b6040516106489190613d7d565b60405180910390f35b61066b60048036038101906106669190614255565b611fbd565b60405161067d969594939291906143e7565b60405180910390f35b61068e612059565b60405161069b9190614469565b60405180910390f35b6106be60048036038101906106b99190614484565b61207f565b005b60007f7965db0b000000000000000000000000000000000000000000000000000000007bffffffffffffffffffffffffffffffffffffffffffffffffffffffff1916827bffffffffffffffffffffffffffffffffffffffffffffffffffffffff191614806107335750610732826122f4565b5b9050919050565b7f7ca588b5e450d40c42764eba69cbb46460b25758bda615268602d355e47bc5f281565b60008061076961235e565b836005600082815260200190815260200160002060009054906101000a900460ff166107c1576040517fd1514d2300000000000000000000000000000000000000000000000000000000815260040160405180910390fd5b610810333089600260009054906101000a900473ffffffffffffffffffffffffffffffffffffffff1673ffffffffffffffffffffffffffffffffffffffff1661239f909392919063ffffffff16565b600260009054906101000a900473ffffffffffffffffffffffffffffffffffffffff1673ffffffffffffffffffffffffffffffffffffffff1663095ea7b3600160009054906101000a900473ffffffffffffffffffffffffffffffffffffffff16896040518363ffffffff1660e01b815260040161088f9291906144eb565b6020604051808303816000875af11580156108ae573d6000803e3d6000fd5b505050506040513d601f19601f820116820180604052508101906108d29190614529565b50600160009054906101000a900473ffffffffffffffffffffffffffffffffffffffff1673ffffffffffffffffffffffffffffffffffffffff166317f692228989896040518463ffffffff1660e01b815260040161093293929190614556565b6020604051808303816000875af1158015610951573d6000803e3d6000fd5b505050506040513d601f19601f8201168201806040525081019061097591906145a2565b925061098085612421565b915061099088848785888c612436565b50509550959350505050565b6000806109a761282e565b905080600001600084815260200190815260200160002060010154915050919050565b60008054906101000a900473ffffffffffffffffffffffffffffffffffffffff1681565b6000806109f961235e565b826005600082815260200190815260200160002060009054906101000a900460ff16610a51576040517fd1514d2300000000000000000000000000000000000000000000000000000000815260040160405180910390fd5b610aa0333088600260009054906101000a900473ffffffffffffffffffffffffffffffffffffffff1673ffffffffffffffffffffffffffffffffffffffff1661239f909392919063ffffffff16565b600260009054906101000a900473ffffffffffffffffffffffffffffffffffffffff1673ffffffffffffffffffffffffffffffffffffffff1663095ea7b3600160009054906101000a900473ffffffffffffffffffffffffffffffffffffffff16886040518363ffffffff1660e01b8152600401610b1f9291906144eb565b6020604051808303816000875af1158015610b3e573d6000803e3d6000fd5b505050506040513d601f19601f82011682018060405250810190610b629190614529565b50600160009054906101000a900473ffffffffffffffffffffffffffffffffffffffff1673ffffffffffffffffffffffffffffffffffffffff166317f692228888886040518463ffffffff1660e01b8152600401610bc293929190614556565b6020604051808303816000875af1158015610be1573d6000803e3d6000fd5b505050506040513d601f19601f82011682018060405250810190610c0591906145a2565b9250610c1084612421565b9150610c2087848685338b612436565b505094509492505050565b610c348261099c565b610c3d81612856565b610c47838361286a565b50505050565b610c5561296b565b73ffffffffffffffffffffffffffffffffffffffff168173ffffffffffffffffffffffffffffffffffffffff1614610cb9576040517f6697b23200000000000000000000000000000000000000000000000000000000815260040160405180910390fd5b610cc38282612973565b505050565b600080610cd361235e565b826005600082815260200190815260200160002060009054906101000a900460ff16610d2b576040517fd1514d2300000000000000000000000000000000000000000000000000000000815260040160405180910390fd5b6000610d378787612a75565b80955081925050508073ffffffffffffffffffffffffffffffffffffffff168773ffffffffffffffffffffffffffffffffffffffff163373ffffffffffffffffffffffffffffffffffffffff167f91abcbedcaad3eda62ec73be1f3b200f1beeeb47768774d2aebb0a196238e92d8988604051610db5929190613fb0565b60405180910390a4610dc685612421565b9250610dd787858786336000612436565b505050935093915050565b7f139c2898040ef16910dc9f44dc697df79363da767d8bc92f2e310312b816e46d81565b7f139c2898040ef16910dc9f44dc697df79363da767d8bc92f2e310312b816e46d610e3081612856565b610e38612fc7565b50565b6000610e4561235e565b826005600082815260200190815260200160002060009054906101000a900460ff16610e9d576040517fd1514d2300000000000000000000000000000000000000000000000000000000815260040160405180910390fd5b8451865114610ed8576040517ff189683a00000000000000000000000000000000000000000000000000000000815260040160405180910390fd5b610ee184612421565b915060005b8651811015610f3d57610f30878281518110610f0557610f046145cf565b5b6020026020010151878381518110610f2057610f1f6145cf565b5b6020026020010151878688613039565b8080600101915050610ee6565b5050949350505050565b6000610f5161235e565b816005600082815260200190815260200160002060009054906101000a900460ff16610fa9576040517fd1514d2300000000000000000000000000000000000000000000000000000000815260040160405180910390fd5b8351855114610fe4576040517ff189683a00000000000000000000000000000000000000000000000000000000815260040160405180910390fd5b610fed83612421565b915060005b85518110156110495761103c868281518110611011576110106145cf565b5b602002602001015186838151811061102c5761102b6145cf565b5b6020026020010151868633613039565b8080600101915050610ff2565b50509392505050565b60008061105d613081565b90508060000160009054906101000a900460ff1691505090565b6060600061108361235e565b836005600082815260200190815260200160002060009054906101000a900460ff166110db576040517fd1514d2300000000000000000000000000000000000000000000000000000000815260040160405180910390fd5b865188511415806110ee57508551885114155b15611125576040517ff189683a00000000000000000000000000000000000000000000000000000000815260040160405180910390fd5b6000805b895181101561116757888181518110611145576111446145cf565b5b602002602001015182611158919061462d565b91508080600101915050611129565b506111b7333083600260009054906101000a900473ffffffffffffffffffffffffffffffffffffffff1673ffffffffffffffffffffffffffffffffffffffff1661239f909392919063ffffffff16565b600260009054906101000a900473ffffffffffffffffffffffffffffffffffffffff1673ffffffffffffffffffffffffffffffffffffffff1663095ea7b3600160009054906101000a900473ffffffffffffffffffffffffffffffffffffffff16836040518363ffffffff1660e01b81526004016112369291906144eb565b6020604051808303816000875af1158015611255573d6000803e3d6000fd5b505050506040513d601f19601f820116820180604052508101906112799190614529565b50885167ffffffffffffffff81111561129557611294613a69565b5b6040519080825280602002602001820160405280156112c35781602001602082028036833780820191505090505b5093506112cf86612421565b925060005b895181101561145657600160009054906101000a900473ffffffffffffffffffffffffffffffffffffffff1673ffffffffffffffffffffffffffffffffffffffff166317f692228b838151811061132e5761132d6145cf565b5b60200260200101518b8481518110611349576113486145cf565b5b60200260200101518b8581518110611364576113636145cf565b5b60200260200101516040518463ffffffff1660e01b815260040161138a93929190614556565b6020604051808303816000875af11580156113a9573d6000803e3d6000fd5b505050506040513d601f19601f820116820180604052508101906113cd91906145a2565b8582815181106113e0576113df6145cf565b5b6020026020010181815250506114488a8281518110611402576114016145cf565b5b602002602001015186838151811061141d5761141c6145cf565b5b602002602001015189878a8e878151811061143b5761143a6145cf565b5b6020026020010151612436565b5080806001019150506112d4565b5050509550959350505050565b600260009054906101000a900473ffffffffffffffffffffffffffffffffffffffff1681565b600080600090505b838390508110156117055760008484838181106114b1576114b06145cf565b5b9050602002013590506000600460008381526020019081526020016000206040518060c00160405290816000820160009054906101000a900473ffffffffffffffffffffffffffffffffffffffff1673ffffffffffffffffffffffffffffffffffffffff1673ffffffffffffffffffffffffffffffffffffffff1681526020016001820160009054906101000a900473ffffffffffffffffffffffffffffffffffffffff1673ffffffffffffffffffffffffffffffffffffffff1673ffffffffffffffffffffffffffffffffffffffff1681526020016002820160009054906101000a900473ffffffffffffffffffffffffffffffffffffffff1673ffffffffffffffffffffffffffffffffffffffff1673ffffffffffffffffffffffffffffffffffffffff168152602001600382015481526020016004820154815260200160058201548152505090508773ffffffffffffffffffffffffffffffffffffffff16816000015173ffffffffffffffffffffffffffffffffffffffff161461167057816040517ff6953e930000000000000000000000000000000000000000000000000000000081526004016116679190613d7d565b60405180910390fd5b8673ffffffffffffffffffffffffffffffffffffffff16816020015173ffffffffffffffffffffffffffffffffffffffff16146116e457816040517fb5e6545c0000000000000000000000000000000000000000000000000000000081526004016116db9190613d7d565b60405180910390fd5b8060800151846116f4919061462d565b935050508080600101915050611491565b50949350505050565b600061171861235e565b60006117248484612a75565b8093508192505050600081905061175c33848373ffffffffffffffffffffffffffffffffffffffff166130a99092919063ffffffff16565b8173ffffffffffffffffffffffffffffffffffffffff168573ffffffffffffffffffffffffffffffffffffffff163373ffffffffffffffffffffffffffffffffffffffff167f9a854cd73e1d94f13ab58c2976ab2e4ca74d625e791ea082e840e556ce1c7a5087876040516117d2929190613fb0565b60405180910390a4505092915050565b7f139c2898040ef16910dc9f44dc697df79363da767d8bc92f2e310312b816e46d61180c81612856565b611814613128565b50565b6060600061182361235e565b826005600082815260200190815260200160002060009054906101000a900460ff1661187b576040517fd1514d2300000000000000000000000000000000000000000000000000000000815260040160405180910390fd5b8551875114158061188e57508451875114155b156118c5576040517ff189683a00000000000000000000000000000000000000000000000000000000815260040160405180910390fd5b865167ffffffffffffffff8111156118e0576118df613a69565b5b60405190808252806020026020018201604052801561190e5781602001602082028036833780820191505090505b5092506000805b885181101561195357878181518110611931576119306145cf565b5b602002602001015182611944919061462d565b91508080600101915050611915565b506119a3333083600260009054906101000a900473ffffffffffffffffffffffffffffffffffffffff1673ffffffffffffffffffffffffffffffffffffffff1661239f909392919063ffffffff16565b600260009054906101000a900473ffffffffffffffffffffffffffffffffffffffff1673ffffffffffffffffffffffffffffffffffffffff1663095ea7b3600160009054906101000a900473ffffffffffffffffffffffffffffffffffffffff16836040518363ffffffff1660e01b8152600401611a229291906144eb565b6020604051808303816000875af1158015611a41573d6000803e3d6000fd5b505050506040513d601f19601f82011682018060405250810190611a659190614529565b50611a6f85612421565b925060005b8851811015611be2576000600160009054906101000a900473ffffffffffffffffffffffffffffffffffffffff1673ffffffffffffffffffffffffffffffffffffffff166317f692228b8481518110611ad057611acf6145cf565b5b60200260200101518b8581518110611aeb57611aea6145cf565b5b60200260200101518b8681518110611b0657611b056145cf565b5b60200260200101516040518463ffffffff1660e01b8152600401611b2c93929190614556565b6020604051808303816000875af1158015611b4b573d6000803e3d6000fd5b505050506040513d601f19601f82011682018060405250810190611b6f91906145a2565b9050611bb38a8381518110611b8757611b866145cf565b5b6020026020010151828988338e8881518110611ba657611ba56145cf565b5b6020026020010151612436565b5080868381518110611bc857611bc76145cf565b5b602002602001018181525050508080600101915050611a74565b50505094509492505050565b600080611bf961282e565b905080600001600085815260200190815260200160002060000160008473ffffffffffffffffffffffffffffffffffffffff1673ffffffffffffffffffffffffffffffffffffffff16815260200190815260200160002060009054906101000a900460ff1691505092915050565b60035481565b6000801b81565b6000611c7e61235e565b816005600082815260200190815260200160002060009054906101000a900460ff16611cd6576040517fd1514d2300000000000000000000000000000000000000000000000000000000815260040160405180910390fd5b611cdf83612421565b9150611cee8585858533613039565b509392505050565b60056020528060005260406000206000915054906101000a900460ff1681565b600080611d2161235e565b836005600082815260200190815260200160002060009054906101000a900460ff16611d79576040517fd1514d2300000000000000000000000000000000000000000000000000000000815260040160405180910390fd5b6000611d858888612a75565b80955081925050508073ffffffffffffffffffffffffffffffffffffffff168873ffffffffffffffffffffffffffffffffffffffff163373ffffffffffffffffffffffffffffffffffffffff167f91abcbedcaad3eda62ec73be1f3b200f1beeeb47768774d2aebb0a196238e92d8a88604051611e03929190613fb0565b60405180910390a4611e1486612421565b9250611e2588858886896000612436565b50505094509492505050565b611e3a8261099c565b611e4381612856565b611e4d8383612973565b50505050565b7f7ca588b5e450d40c42764eba69cbb46460b25758bda615268602d355e47bc5f2611e7d81612856565b8115156005600085815260200190815260200160002060009054906101000a900460ff16151503611eda576040517fb1b7455c00000000000000000000000000000000000000000000000000000000815260040160405180910390fd5b816005600085815260200190815260200160002060006101000a81548160ff021916908315150217905550811515837f40c5bfb9d833b107d80745dd8b8cf040c9a1019f963291743fa1bc595d43964660405160405180910390a3505050565b6000611f4461235e565b826005600082815260200190815260200160002060009054906101000a900460ff16611f9c576040517fd1514d2300000000000000000000000000000000000000000000000000000000815260040160405180910390fd5b611fa584612421565b9150611fb48686868587613039565b50949350505050565b60046020528060005260406000206000915090508060000160009054906101000a900473ffffffffffffffffffffffffffffffffffffffff16908060010160009054906101000a900473ffffffffffffffffffffffffffffffffffffffff16908060020160009054906101000a900473ffffffffffffffffffffffffffffffffffffffff16908060030154908060040154908060050154905086565b600160009054906101000a900473ffffffffffffffffffffffffffffffffffffffff1681565b600061208961319a565b905060008160000160089054906101000a900460ff1615905060008260000160009054906101000a900467ffffffffffffffff1690506000808267ffffffffffffffff161480156120d75750825b9050600060018367ffffffffffffffff1614801561210c575060003073ffffffffffffffffffffffffffffffffffffffff163b145b90508115801561211a575080155b15612151576040517ff92ee8a900000000000000000000000000000000000000000000000000000000815260040160405180910390fd5b60018560000160006101000a81548167ffffffffffffffff021916908367ffffffffffffffff16021790555083156121a15760018560000160086101000a81548160ff0219169083151502179055505b6121a96131c2565b6121b16131cc565b6121bd898989896131de565b886000806101000a81548173ffffffffffffffffffffffffffffffffffffffff021916908373ffffffffffffffffffffffffffffffffffffffff16021790555087600160006101000a81548173ffffffffffffffffffffffffffffffffffffffff021916908373ffffffffffffffffffffffffffffffffffffffff16021790555086600260006101000a81548173ffffffffffffffffffffffffffffffffffffffff021916908373ffffffffffffffffffffffffffffffffffffffff16021790555061228c6000801b8761286a565b5083156122e95760008560000160086101000a81548160ff0219169083151502179055507fc7f505b2f371ae2175ee4913f4499e1f2633a7b5936321eed1cdaeb6115181d260016040516122e091906146b0565b60405180910390a15b505050505050505050565b60007f01ffc9a7000000000000000000000000000000000000000000000000000000007bffffffffffffffffffffffffffffffffffffffffffffffffffffffff1916827bffffffffffffffffffffffffffffffffffffffffffffffffffffffff1916149050919050565b612366611052565b1561239d576040517fd93c066500000000000000000000000000000000000000000000000000000000815260040160405180910390fd5b565b61241b848573ffffffffffffffffffffffffffffffffffffffff166323b872dd8686866040516024016123d4939291906146cb565b604051602081830303815290604052915060e01b6020820180517bffffffffffffffffffffffffffffffffffffffffffffffffffffffff83818316178352505050506132e4565b50505050565b6000814261242f919061462d565b9050919050565b60006124418761337b565b15612478576040517f9fe3c35800000000000000000000000000000000000000000000000000000000815260040160405180910390fd5b600086036124b2576040517f202e8e6100000000000000000000000000000000000000000000000000000000815260040160405180910390fd5b6124bb8361337b565b156124f2576040517f5006d25a00000000000000000000000000000000000000000000000000000000815260040160405180910390fd5b60008054906101000a900473ffffffffffffffffffffffffffffffffffffffff1673ffffffffffffffffffffffffffffffffffffffff1663e4860339886040518263ffffffff1660e01b815260040161254b9190614702565b602060405180830381865afa158015612568573d6000803e3d6000fd5b505050506040513d601f19601f8201168201806040525081019061258c9190614732565b9050600073ffffffffffffffffffffffffffffffffffffffff168173ffffffffffffffffffffffffffffffffffffffff16036125f4576040517f94c08c6000000000000000000000000000000000000000000000000000000000815260040160405180910390fd5b6000600360008154809291906126099061475f565b91905055905060006040518060c001604052808673ffffffffffffffffffffffffffffffffffffffff1681526020018a73ffffffffffffffffffffffffffffffffffffffff1681526020018473ffffffffffffffffffffffffffffffffffffffff168152602001878152602001898152602001888152509050806004600084815260200190815260200160002060008201518160000160006101000a81548173ffffffffffffffffffffffffffffffffffffffff021916908373ffffffffffffffffffffffffffffffffffffffff16021790555060208201518160010160006101000a81548173ffffffffffffffffffffffffffffffffffffffff021916908373ffffffffffffffffffffffffffffffffffffffff16021790555060408201518160020160006101000a81548173ffffffffffffffffffffffffffffffffffffffff021916908373ffffffffffffffffffffffffffffffffffffffff160217905550606082015181600301556080820151816004015560a082015181600501559050508273ffffffffffffffffffffffffffffffffffffffff168973ffffffffffffffffffffffffffffffffffffffff168673ffffffffffffffffffffffffffffffffffffffff167f3a199fad2706ca50fe2d207d8f1c2e37b04c6b8c3e9f88ec9917dfc18e4a4b34858c8b8d60008c146128045733612807565b60005b8c60405161281a969594939291906147a7565b60405180910390a450509695505050505050565b60007f02dd7bc7dec4dceedda775e58dd541e08a116c6c53815c0bd028192f7b626800905090565b6128678161286261296b565b6133b3565b50565b60008061287561282e565b90506128818484611bee565b61295f57600181600001600086815260200190815260200160002060000160008573ffffffffffffffffffffffffffffffffffffffff1673ffffffffffffffffffffffffffffffffffffffff16815260200190815260200160002060006101000a81548160ff0219169083151502179055506128fb61296b565b73ffffffffffffffffffffffffffffffffffffffff168373ffffffffffffffffffffffffffffffffffffffff16857f2f8788117e7eff1d82e926ec794901d17c78024a50270940304540a733656f0d60405160405180910390a46001915050612965565b60009150505b92915050565b600033905090565b60008061297e61282e565b905061298a8484611bee565b15612a6957600081600001600086815260200190815260200160002060000160008573ffffffffffffffffffffffffffffffffffffffff1673ffffffffffffffffffffffffffffffffffffffff16815260200190815260200160002060006101000a81548160ff021916908315150217905550612a0561296b565b73ffffffffffffffffffffffffffffffffffffffff168373ffffffffffffffffffffffffffffffffffffffff16857ff6391f5c32d9c69d2a47ea670b442974b53935d1edc7fd64eb21e047a839171b60405160405180910390a46001915050612a6f565b60009150505b92915050565b600080612a818461337b565b15612ab8576040517f9fe3c35800000000000000000000000000000000000000000000000000000000815260040160405180910390fd5b6000835103612af3576040517fb2140a3a00000000000000000000000000000000000000000000000000000000815260040160405180910390fd5b60006004600085600081518110612b0d57612b0c6145cf565b5b602002602001015181526020019081526020016000206040518060c00160405290816000820160009054906101000a900473ffffffffffffffffffffffffffffffffffffffff1673ffffffffffffffffffffffffffffffffffffffff1673ffffffffffffffffffffffffffffffffffffffff1681526020016001820160009054906101000a900473ffffffffffffffffffffffffffffffffffffffff1673ffffffffffffffffffffffffffffffffffffffff1673ffffffffffffffffffffffffffffffffffffffff1681526020016002820160009054906101000a900473ffffffffffffffffffffffffffffffffffffffff1673ffffffffffffffffffffffffffffffffffffffff1673ffffffffffffffffffffffffffffffffffffffff168152602001600382015481526020016004820154815260200160058201548152505090508060400151925060005b8451811015612fbe576000858281518110612c7857612c776145cf565b5b60200260200101519050600460008281526020019081526020016000206040518060c00160405290816000820160009054906101000a900473ffffffffffffffffffffffffffffffffffffffff1673ffffffffffffffffffffffffffffffffffffffff1673ffffffffffffffffffffffffffffffffffffffff1681526020016001820160009054906101000a900473ffffffffffffffffffffffffffffffffffffffff1673ffffffffffffffffffffffffffffffffffffffff1673ffffffffffffffffffffffffffffffffffffffff1681526020016002820160009054906101000a900473ffffffffffffffffffffffffffffffffffffffff1673ffffffffffffffffffffffffffffffffffffffff1673ffffffffffffffffffffffffffffffffffffffff168152602001600382015481526020016004820154815260200160058201548152505092508673ffffffffffffffffffffffffffffffffffffffff16836020015173ffffffffffffffffffffffffffffffffffffffff1614612e3657806040517fb5e6545c000000000000000000000000000000000000000000000000000000008152600401612e2d9190613d7d565b60405180910390fd5b4283606001511115612e8757804284606001516040517ffe6a6fa2000000000000000000000000000000000000000000000000000000008152600401612e7e93929190614808565b60405180910390fd5b3373ffffffffffffffffffffffffffffffffffffffff16836000015173ffffffffffffffffffffffffffffffffffffffff1614612efb57806040517fc87a586a000000000000000000000000000000000000000000000000000000008152600401612ef29190613d7d565b60405180910390fd5b826080015184612f0b919061462d565b935060046000828152602001908152602001600020600080820160006101000a81549073ffffffffffffffffffffffffffffffffffffffff02191690556001820160006101000a81549073ffffffffffffffffffffffffffffffffffffffff02191690556002820160006101000a81549073ffffffffffffffffffffffffffffffffffffffff02191690556003820160009055600482016000905560058201600090555050508080600101915050612c5a565b50509250929050565b612fcf613404565b6000612fd9613081565b905060008160000160006101000a81548160ff0219169083151502179055507f5db9ee0a495bf2e6ff9c91a7834c1ba4fdd244a5e8aa4e537bd38aeae4b073aa61302161296b565b60405161302e9190614702565b60405180910390a150565b600061304a86868686866000612436565b90506130793330878473ffffffffffffffffffffffffffffffffffffffff1661239f909392919063ffffffff16565b505050505050565b60007fcd5ed15c6e187e77e9aee88184c21f4f2182ab5827cb3b7e07fbedcd63f03300905090565b613123838473ffffffffffffffffffffffffffffffffffffffff1663a9059cbb85856040516024016130dc9291906144eb565b604051602081830303815290604052915060e01b6020820180517bffffffffffffffffffffffffffffffffffffffffffffffffffffffff83818316178352505050506132e4565b505050565b61313061235e565b600061313a613081565b905060018160000160006101000a81548160ff0219169083151502179055507f62e78cea01bee320cd4e420270b5ea74000d11b0c9f74754ebdbfc544b05a25861318261296b565b60405161318f9190614702565b60405180910390a150565b60007ff0c57e16840df040f15088dc2f81fe391c3923bec73e23a9662efc9c229c6a00905090565b6131ca613444565b565b6131d4613444565b6131dc613484565b565b6131e78461337b565b1561321e576040517f0f1fd26d00000000000000000000000000000000000000000000000000000000815260040160405180910390fd5b6132278361337b565b1561325e576040517f788a8b9300000000000000000000000000000000000000000000000000000000815260040160405180910390fd5b6132678261337b565b1561329e576040517fd9cc4a2e00000000000000000000000000000000000000000000000000000000815260040160405180910390fd5b6132a78161337b565b156132de576040517fb237eabd00000000000000000000000000000000000000000000000000000000815260040160405180910390fd5b50505050565b600061330f828473ffffffffffffffffffffffffffffffffffffffff166134b890919063ffffffff16565b905060008151141580156133345750808060200190518101906133329190614529565b155b1561337657826040517f5274afe700000000000000000000000000000000000000000000000000000000815260040161336d9190614702565b60405180910390fd5b505050565b60008073ffffffffffffffffffffffffffffffffffffffff168273ffffffffffffffffffffffffffffffffffffffff16149050919050565b6133bd8282611bee565b6134005780826040517fe2517d3f0000000000000000000000000000000000000000000000000000000081526004016133f792919061483f565b60405180910390fd5b5050565b61340c611052565b613442576040517f8dfc202b00000000000000000000000000000000000000000000000000000000815260040160405180910390fd5b565b61344c6134ce565b613482576040517fd7e6bcf800000000000000000000000000000000000000000000000000000000815260040160405180910390fd5b565b61348c613444565b6000613496613081565b905060008160000160006101000a81548160ff02191690831515021790555050565b60606134c6838360006134ee565b905092915050565b60006134d861319a565b60000160089054906101000a900460ff16905090565b60608147101561353557306040517fcd78605900000000000000000000000000000000000000000000000000000000815260040161352c9190614702565b60405180910390fd5b6000808573ffffffffffffffffffffffffffffffffffffffff16848660405161355e91906148d9565b60006040518083038185875af1925050503d806000811461359b576040519150601f19603f3d011682016040523d82523d6000602084013e6135a0565b606091505b50915091506135b08683836135bb565b925050509392505050565b6060826135d0576135cb8261364a565b613642565b600082511480156135f8575060008473ffffffffffffffffffffffffffffffffffffffff163b145b1561363a57836040517f9996b3150000000000000000000000000000000000000000000000000000000081526004016136319190614702565b60405180910390fd5b819050613643565b5b9392505050565b60008151111561365d5780518082602001fd5b6040517f1425ea4200000000000000000000000000000000000000000000000000000000815260040160405180910390fd5b6000604051905090565b600080fd5b600080fd5b60007fffffffff0000000000000000000000000000000000000000000000000000000082169050919050565b6136d8816136a3565b81146136e357600080fd5b50565b6000813590506136f5816136cf565b92915050565b60006020828403121561371157613710613699565b5b600061371f848285016136e6565b91505092915050565b60008115159050919050565b61373d81613728565b82525050565b60006020820190506137586000830184613734565b92915050565b6000819050919050565b6137718161375e565b82525050565b600060208201905061378c6000830184613768565b92915050565b600073ffffffffffffffffffffffffffffffffffffffff82169050919050565b60006137bd82613792565b9050919050565b6137cd816137b2565b81146137d857600080fd5b50565b6000813590506137ea816137c4565b92915050565b6000819050919050565b613803816137f0565b811461380e57600080fd5b50565b600081359050613820816137fa565b92915050565b600080600080600060a0868803121561384257613841613699565b5b6000613850888289016137db565b955050602061386188828901613811565b945050604061387288828901613811565b935050606061388388828901613811565b9250506080613894888289016137db565b9150509295509295909350565b6138aa816137f0565b82525050565b60006040820190506138c560008301856138a1565b6138d260208301846138a1565b9392505050565b6138e28161375e565b81146138ed57600080fd5b50565b6000813590506138ff816138d9565b92915050565b60006020828403121561391b5761391a613699565b5b6000613929848285016138f0565b91505092915050565b6000819050919050565b600061395761395261394d84613792565b613932565b613792565b9050919050565b60006139698261393c565b9050919050565b600061397b8261395e565b9050919050565b61398b81613970565b82525050565b60006020820190506139a66000830184613982565b92915050565b600080600080608085870312156139c6576139c5613699565b5b60006139d4878288016137db565b94505060206139e587828801613811565b93505060406139f687828801613811565b9250506060613a0787828801613811565b91505092959194509250565b60008060408385031215613a2a57613a29613699565b5b6000613a38858286016138f0565b9250506020613a49858286016137db565b9150509250929050565b600080fd5b6000601f19601f8301169050919050565b7f4e487b7100000000000000000000000000000000000000000000000000000000600052604160045260246000fd5b613aa182613a58565b810181811067ffffffffffffffff82111715613ac057613abf613a69565b5b80604052505050565b6000613ad361368f565b9050613adf8282613a98565b919050565b600067ffffffffffffffff821115613aff57613afe613a69565b5b602082029050602081019050919050565b600080fd5b6000613b28613b2384613ae4565b613ac9565b90508083825260208201905060208402830185811115613b4b57613b4a613b10565b5b835b81811015613b745780613b608882613811565b845260208401935050602081019050613b4d565b5050509392505050565b600082601f830112613b9357613b92613a53565b5b8135613ba3848260208601613b15565b91505092915050565b600080600060608486031215613bc557613bc4613699565b5b6000613bd3868287016137db565b935050602084013567ffffffffffffffff811115613bf457613bf361369e565b5b613c0086828701613b7e565b9250506040613c1186828701613811565b9150509250925092565b600067ffffffffffffffff821115613c3657613c35613a69565b5b602082029050602081019050919050565b6000613c5a613c5584613c1b565b613ac9565b90508083825260208201905060208402830185811115613c7d57613c7c613b10565b5b835b81811015613ca65780613c9288826137db565b845260208401935050602081019050613c7f565b5050509392505050565b600082601f830112613cc557613cc4613a53565b5b8135613cd5848260208601613c47565b91505092915050565b60008060008060808587031215613cf857613cf7613699565b5b600085013567ffffffffffffffff811115613d1657613d1561369e565b5b613d2287828801613cb0565b945050602085013567ffffffffffffffff811115613d4357613d4261369e565b5b613d4f87828801613b7e565b9350506040613d6087828801613811565b9250506060613d71878288016137db565b91505092959194509250565b6000602082019050613d9260008301846138a1565b92915050565b600080600060608486031215613db157613db0613699565b5b600084013567ffffffffffffffff811115613dcf57613dce61369e565b5b613ddb86828701613cb0565b935050602084013567ffffffffffffffff811115613dfc57613dfb61369e565b5b613e0886828701613b7e565b9250506040613e1986828701613811565b9150509250925092565b600080600080600060a08688031215613e3f57613e3e613699565b5b600086013567ffffffffffffffff811115613e5d57613e5c61369e565b5b613e6988828901613cb0565b955050602086013567ffffffffffffffff811115613e8a57613e8961369e565b5b613e9688828901613b7e565b945050604086013567ffffffffffffffff811115613eb757613eb661369e565b5b613ec388828901613b7e565b9350506060613ed488828901613811565b9250506080613ee5888289016137db565b9150509295509295909350565b600081519050919050565b600082825260208201905092915050565b6000819050602082019050919050565b613f27816137f0565b82525050565b6000613f398383613f1e565b60208301905092915050565b6000602082019050919050565b6000613f5d82613ef2565b613f678185613efd565b9350613f7283613f0e565b8060005b83811015613fa3578151613f8a8882613f2d565b9750613f9583613f45565b925050600181019050613f76565b5085935050505092915050565b60006040820190508181036000830152613fca8185613f52565b9050613fd960208301846138a1565b9392505050565b6000613feb8261395e565b9050919050565b613ffb81613fe0565b82525050565b60006020820190506140166000830184613ff2565b92915050565b600080fd5b60008083601f84011261403757614036613a53565b5b8235905067ffffffffffffffff8111156140545761405361401c565b5b6020830191508360208202830111156140705761406f613b10565b5b9250929050565b6000806000806060858703121561409157614090613699565b5b600061409f878288016137db565b94505060206140b0878288016137db565b935050604085013567ffffffffffffffff8111156140d1576140d061369e565b5b6140dd87828801614021565b925092505092959194509250565b6000806040838503121561410257614101613699565b5b6000614110858286016137db565b925050602083013567ffffffffffffffff8111156141315761413061369e565b5b61413d85828601613b7e565b9150509250929050565b6000806000806080858703121561416157614160613699565b5b600085013567ffffffffffffffff81111561417f5761417e61369e565b5b61418b87828801613cb0565b945050602085013567ffffffffffffffff8111156141ac576141ab61369e565b5b6141b887828801613b7e565b935050604085013567ffffffffffffffff8111156141d9576141d861369e565b5b6141e587828801613b7e565b92505060606141f687828801613811565b91505092959194509250565b60008060006060848603121561421b5761421a613699565b5b6000614229868287016137db565b935050602061423a86828701613811565b925050604061424b86828701613811565b9150509250925092565b60006020828403121561426b5761426a613699565b5b600061427984828501613811565b91505092915050565b6000806000806080858703121561429c5761429b613699565b5b60006142aa878288016137db565b945050602085013567ffffffffffffffff8111156142cb576142ca61369e565b5b6142d787828801613b7e565b93505060406142e887828801613811565b92505060606142f9878288016137db565b91505092959194509250565b61430e81613728565b811461431957600080fd5b50565b60008135905061432b81614305565b92915050565b6000806040838503121561434857614347613699565b5b600061435685828601613811565b92505060206143678582860161431c565b9150509250929050565b6000806000806080858703121561438b5761438a613699565b5b6000614399878288016137db565b94505060206143aa87828801613811565b93505060406143bb87828801613811565b92505060606143cc878288016137db565b91505092959194509250565b6143e1816137b2565b82525050565b600060c0820190506143fc60008301896143d8565b61440960208301886143d8565b61441660408301876143d8565b61442360608301866138a1565b61443060808301856138a1565b61443d60a08301846138a1565b979650505050505050565b60006144538261395e565b9050919050565b61446381614448565b82525050565b600060208201905061447e600083018461445a565b92915050565b6000806000806080858703121561449e5761449d613699565b5b60006144ac878288016137db565b94505060206144bd878288016137db565b93505060406144ce878288016137db565b92505060606144df878288016137db565b91505092959194509250565b600060408201905061450060008301856143d8565b61450d60208301846138a1565b9392505050565b60008151905061452381614305565b92915050565b60006020828403121561453f5761453e613699565b5b600061454d84828501614514565b91505092915050565b600060608201905061456b60008301866143d8565b61457860208301856138a1565b61458560408301846138a1565b949350505050565b60008151905061459c816137fa565b92915050565b6000602082840312156145b8576145b7613699565b5b60006145c68482850161458d565b91505092915050565b7f4e487b7100000000000000000000000000000000000000000000000000000000600052603260045260246000fd5b7f4e487b7100000000000000000000000000000000000000000000000000000000600052601160045260246000fd5b6000614638826137f0565b9150614643836137f0565b925082820190508082111561465b5761465a6145fe565b5b92915050565b6000819050919050565b600067ffffffffffffffff82169050919050565b600061469a61469561469084614661565b613932565b61466b565b9050919050565b6146aa8161467f565b82525050565b60006020820190506146c560008301846146a1565b92915050565b60006060820190506146e060008301866143d8565b6146ed60208301856143d8565b6146fa60408301846138a1565b949350505050565b600060208201905061471760008301846143d8565b92915050565b60008151905061472c816137c4565b92915050565b60006020828403121561474857614747613699565b5b60006147568482850161471d565b91505092915050565b600061476a826137f0565b91507fffffffffffffffffffffffffffffffffffffffffffffffffffffffffffffffff820361479c5761479b6145fe565b5b600182019050919050565b600060c0820190506147bc60008301896138a1565b6147c960208301886138a1565b6147d660408301876138a1565b6147e360608301866138a1565b6147f060808301856143d8565b6147fd60a08301846138a1565b979650505050505050565b600060608201905061481d60008301866138a1565b61482a60208301856138a1565b61483760408301846138a1565b949350505050565b600060408201905061485460008301856143d8565b6148616020830184613768565b9392505050565b600081519050919050565b600081905092915050565b60005b8381101561489c578082015181840152602081019050614881565b60008484015250505050565b60006148b382614868565b6148bd8185614873565b93506148cd81856020860161487e565b80840191505092915050565b60006148e582846148a8565b91508190509291505056fea2646970667358221220960cee93f84837f034068b9eba6e0127767ab2677101cb194e2c0c0d3ea047f364736f6c63430008180033",
          "opcodes": "PUSH1 0x80 PUSH1 0x40 MSTORE CALLVALUE DUP1 ISZERO PUSH2 0x10 JUMPI PUSH1 0x0 DUP1 REVERT JUMPDEST POP PUSH2 0x4926 DUP1 PUSH2 0x20 PUSH1 0x0 CODECOPY PUSH1 0x0 RETURN INVALID PUSH1 0x80 PUSH1 0x40 MSTORE CALLVALUE DUP1 ISZERO PUSH2 0x10 JUMPI PUSH1 0x0 DUP1 REVERT JUMPDEST POP PUSH1 0x4 CALLDATASIZE LT PUSH2 0x1F0 JUMPI PUSH1 0x0 CALLDATALOAD PUSH1 0xE0 SHR DUP1 PUSH4 0x80AA59D7 GT PUSH2 0x10F JUMPI DUP1 PUSH4 0xCC98A1BC GT PUSH2 0xA2 JUMPI DUP1 PUSH4 0xEE67F0AB GT PUSH2 0x71 JUMPI DUP1 PUSH4 0xEE67F0AB EQ PUSH2 0x621 JUMPI DUP1 PUSH4 0xF4DADC61 EQ PUSH2 0x651 JUMPI DUP1 PUSH4 0xF7B01A49 EQ PUSH2 0x686 JUMPI DUP1 PUSH4 0xF8C8765E EQ PUSH2 0x6A4 JUMPI PUSH2 0x1F0 JUMP JUMPDEST DUP1 PUSH4 0xCC98A1BC EQ PUSH2 0x588 JUMPI DUP1 PUSH4 0xD475F26E EQ PUSH2 0x5B8 JUMPI DUP1 PUSH4 0xD547741F EQ PUSH2 0x5E9 JUMPI DUP1 PUSH4 0xDBFC77C4 EQ PUSH2 0x605 JUMPI PUSH2 0x1F0 JUMP JUMPDEST DUP1 PUSH4 0x91D14854 GT PUSH2 0xDE JUMPI DUP1 PUSH4 0x91D14854 EQ PUSH2 0x4EC JUMPI DUP1 PUSH4 0x9B10B6F5 EQ PUSH2 0x51C JUMPI DUP1 PUSH4 0xA217FDDF EQ PUSH2 0x53A JUMPI DUP1 PUSH4 0xA6DA1E7D EQ PUSH2 0x558 JUMPI PUSH2 0x1F0 JUMP JUMPDEST DUP1 PUSH4 0x80AA59D7 EQ PUSH2 0x451 JUMPI DUP1 PUSH4 0x8293744B EQ PUSH2 0x481 JUMPI DUP1 PUSH4 0x8456CB59 EQ PUSH2 0x4B1 JUMPI DUP1 PUSH4 0x8E7E260E EQ PUSH2 0x4BB JUMPI PUSH2 0x1F0 JUMP JUMPDEST DUP1 PUSH4 0x37CFB944 GT PUSH2 0x187 JUMPI DUP1 PUSH4 0x5C142F8F GT PUSH2 0x156 JUMPI DUP1 PUSH4 0x5C142F8F EQ PUSH2 0x3B4 JUMPI DUP1 PUSH4 0x5C975ABB EQ PUSH2 0x3E4 JUMPI DUP1 PUSH4 0x6D9322A8 EQ PUSH2 0x402 JUMPI DUP1 PUSH4 0x6FE6E1F2 EQ PUSH2 0x433 JUMPI PUSH2 0x1F0 JUMP JUMPDEST DUP1 PUSH4 0x37CFB944 EQ PUSH2 0x32B JUMPI DUP1 PUSH4 0x389ED267 EQ PUSH2 0x35C JUMPI DUP1 PUSH4 0x3F4BA83A EQ PUSH2 0x37A JUMPI DUP1 PUSH4 0x49CC79F1 EQ PUSH2 0x384 JUMPI PUSH2 0x1F0 JUMP JUMPDEST DUP1 PUSH4 0x2A709B14 GT PUSH2 0x1C3 JUMPI DUP1 PUSH4 0x2A709B14 EQ PUSH2 0x2A4 JUMPI DUP1 PUSH4 0x2D922002 EQ PUSH2 0x2C2 JUMPI DUP1 PUSH4 0x2F2FF15D EQ PUSH2 0x2F3 JUMPI DUP1 PUSH4 0x36568ABE EQ PUSH2 0x30F JUMPI PUSH2 0x1F0 JUMP JUMPDEST DUP1 PUSH4 0x1FFC9A7 EQ PUSH2 0x1F5 JUMPI DUP1 PUSH4 0x96532D3 EQ PUSH2 0x225 JUMPI DUP1 PUSH4 0x158A21E2 EQ PUSH2 0x243 JUMPI DUP1 PUSH4 0x248A9CA3 EQ PUSH2 0x274 JUMPI JUMPDEST PUSH1 0x0 DUP1 REVERT JUMPDEST PUSH2 0x20F PUSH1 0x4 DUP1 CALLDATASIZE SUB DUP2 ADD SWAP1 PUSH2 0x20A SWAP2 SWAP1 PUSH2 0x36FB JUMP JUMPDEST PUSH2 0x6C0 JUMP JUMPDEST PUSH1 0x40 MLOAD PUSH2 0x21C SWAP2 SWAP1 PUSH2 0x3743 JUMP JUMPDEST PUSH1 0x40 MLOAD DUP1 SWAP2 SUB SWAP1 RETURN JUMPDEST PUSH2 0x22D PUSH2 0x73A JUMP JUMPDEST PUSH1 0x40 MLOAD PUSH2 0x23A SWAP2 SWAP1 PUSH2 0x3777 JUMP JUMPDEST PUSH1 0x40 MLOAD DUP1 SWAP2 SUB SWAP1 RETURN JUMPDEST PUSH2 0x25D PUSH1 0x4 DUP1 CALLDATASIZE SUB DUP2 ADD SWAP1 PUSH2 0x258 SWAP2 SWAP1 PUSH2 0x3826 JUMP JUMPDEST PUSH2 0x75E JUMP JUMPDEST PUSH1 0x40 MLOAD PUSH2 0x26B SWAP3 SWAP2 SWAP1 PUSH2 0x38B0 JUMP JUMPDEST PUSH1 0x40 MLOAD DUP1 SWAP2 SUB SWAP1 RETURN JUMPDEST PUSH2 0x28E PUSH1 0x4 DUP1 CALLDATASIZE SUB DUP2 ADD SWAP1 PUSH2 0x289 SWAP2 SWAP1 PUSH2 0x3905 JUMP JUMPDEST PUSH2 0x99C JUMP JUMPDEST PUSH1 0x40 MLOAD PUSH2 0x29B SWAP2 SWAP1 PUSH2 0x3777 JUMP JUMPDEST PUSH1 0x40 MLOAD DUP1 SWAP2 SUB SWAP1 RETURN JUMPDEST PUSH2 0x2AC PUSH2 0x9CA JUMP JUMPDEST PUSH1 0x40 MLOAD PUSH2 0x2B9 SWAP2 SWAP1 PUSH2 0x3991 JUMP JUMPDEST PUSH1 0x40 MLOAD DUP1 SWAP2 SUB SWAP1 RETURN JUMPDEST PUSH2 0x2DC PUSH1 0x4 DUP1 CALLDATASIZE SUB DUP2 ADD SWAP1 PUSH2 0x2D7 SWAP2 SWAP1 PUSH2 0x39AC JUMP JUMPDEST PUSH2 0x9EE JUMP JUMPDEST PUSH1 0x40 MLOAD PUSH2 0x2EA SWAP3 SWAP2 SWAP1 PUSH2 0x38B0 JUMP JUMPDEST PUSH1 0x40 MLOAD DUP1 SWAP2 SUB SWAP1 RETURN JUMPDEST PUSH2 0x30D PUSH1 0x4 DUP1 CALLDATASIZE SUB DUP2 ADD SWAP1 PUSH2 0x308 SWAP2 SWAP1 PUSH2 0x3A13 JUMP JUMPDEST PUSH2 0xC2B JUMP JUMPDEST STOP JUMPDEST PUSH2 0x329 PUSH1 0x4 DUP1 CALLDATASIZE SUB DUP2 ADD SWAP1 PUSH2 0x324 SWAP2 SWAP1 PUSH2 0x3A13 JUMP JUMPDEST PUSH2 0xC4D JUMP JUMPDEST STOP JUMPDEST PUSH2 0x345 PUSH1 0x4 DUP1 CALLDATASIZE SUB DUP2 ADD SWAP1 PUSH2 0x340 SWAP2 SWAP1 PUSH2 0x3BAC JUMP JUMPDEST PUSH2 0xCC8 JUMP JUMPDEST PUSH1 0x40 MLOAD PUSH2 0x353 SWAP3 SWAP2 SWAP1 PUSH2 0x38B0 JUMP JUMPDEST PUSH1 0x40 MLOAD DUP1 SWAP2 SUB SWAP1 RETURN JUMPDEST PUSH2 0x364 PUSH2 0xDE2 JUMP JUMPDEST PUSH1 0x40 MLOAD PUSH2 0x371 SWAP2 SWAP1 PUSH2 0x3777 JUMP JUMPDEST PUSH1 0x40 MLOAD DUP1 SWAP2 SUB SWAP1 RETURN JUMPDEST PUSH2 0x382 PUSH2 0xE06 JUMP JUMPDEST STOP JUMPDEST PUSH2 0x39E PUSH1 0x4 DUP1 CALLDATASIZE SUB DUP2 ADD SWAP1 PUSH2 0x399 SWAP2 SWAP1 PUSH2 0x3CDE JUMP JUMPDEST PUSH2 0xE3B JUMP JUMPDEST PUSH1 0x40 MLOAD PUSH2 0x3AB SWAP2 SWAP1 PUSH2 0x3D7D JUMP JUMPDEST PUSH1 0x40 MLOAD DUP1 SWAP2 SUB SWAP1 RETURN JUMPDEST PUSH2 0x3CE PUSH1 0x4 DUP1 CALLDATASIZE SUB DUP2 ADD SWAP1 PUSH2 0x3C9 SWAP2 SWAP1 PUSH2 0x3D98 JUMP JUMPDEST PUSH2 0xF47 JUMP JUMPDEST PUSH1 0x40 MLOAD PUSH2 0x3DB SWAP2 SWAP1 PUSH2 0x3D7D JUMP JUMPDEST PUSH1 0x40 MLOAD DUP1 SWAP2 SUB SWAP1 RETURN JUMPDEST PUSH2 0x3EC PUSH2 0x1052 JUMP JUMPDEST PUSH1 0x40 MLOAD PUSH2 0x3F9 SWAP2 SWAP1 PUSH2 0x3743 JUMP JUMPDEST PUSH1 0x40 MLOAD DUP1 SWAP2 SUB SWAP1 RETURN JUMPDEST PUSH2 0x41C PUSH1 0x4 DUP1 CALLDATASIZE SUB DUP2 ADD SWAP1 PUSH2 0x417 SWAP2 SWAP1 PUSH2 0x3E23 JUMP JUMPDEST PUSH2 0x1077 JUMP JUMPDEST PUSH1 0x40 MLOAD PUSH2 0x42A SWAP3 SWAP2 SWAP1 PUSH2 0x3FB0 JUMP JUMPDEST PUSH1 0x40 MLOAD DUP1 SWAP2 SUB SWAP1 RETURN JUMPDEST PUSH2 0x43B PUSH2 0x1463 JUMP JUMPDEST PUSH1 0x40 MLOAD PUSH2 0x448 SWAP2 SWAP1 PUSH2 0x4001 JUMP JUMPDEST PUSH1 0x40 MLOAD DUP1 SWAP2 SUB SWAP1 RETURN JUMPDEST PUSH2 0x46B PUSH1 0x4 DUP1 CALLDATASIZE SUB DUP2 ADD SWAP1 PUSH2 0x466 SWAP2 SWAP1 PUSH2 0x4077 JUMP JUMPDEST PUSH2 0x1489 JUMP JUMPDEST PUSH1 0x40 MLOAD PUSH2 0x478 SWAP2 SWAP1 PUSH2 0x3D7D JUMP JUMPDEST PUSH1 0x40 MLOAD DUP1 SWAP2 SUB SWAP1 RETURN JUMPDEST PUSH2 0x49B PUSH1 0x4 DUP1 CALLDATASIZE SUB DUP2 ADD SWAP1 PUSH2 0x496 SWAP2 SWAP1 PUSH2 0x40EB JUMP JUMPDEST PUSH2 0x170E JUMP JUMPDEST PUSH1 0x40 MLOAD PUSH2 0x4A8 SWAP2 SWAP1 PUSH2 0x3D7D JUMP JUMPDEST PUSH1 0x40 MLOAD DUP1 SWAP2 SUB SWAP1 RETURN JUMPDEST PUSH2 0x4B9 PUSH2 0x17E2 JUMP JUMPDEST STOP JUMPDEST PUSH2 0x4D5 PUSH1 0x4 DUP1 CALLDATASIZE SUB DUP2 ADD SWAP1 PUSH2 0x4D0 SWAP2 SWAP1 PUSH2 0x4147 JUMP JUMPDEST PUSH2 0x1817 JUMP JUMPDEST PUSH1 0x40 MLOAD PUSH2 0x4E3 SWAP3 SWAP2 SWAP1 PUSH2 0x3FB0 JUMP JUMPDEST PUSH1 0x40 MLOAD DUP1 SWAP2 SUB SWAP1 RETURN JUMPDEST PUSH2 0x506 PUSH1 0x4 DUP1 CALLDATASIZE SUB DUP2 ADD SWAP1 PUSH2 0x501 SWAP2 SWAP1 PUSH2 0x3A13 JUMP JUMPDEST PUSH2 0x1BEE JUMP JUMPDEST PUSH1 0x40 MLOAD PUSH2 0x513 SWAP2 SWAP1 PUSH2 0x3743 JUMP JUMPDEST PUSH1 0x40 MLOAD DUP1 SWAP2 SUB SWAP1 RETURN JUMPDEST PUSH2 0x524 PUSH2 0x1C67 JUMP JUMPDEST PUSH1 0x40 MLOAD PUSH2 0x531 SWAP2 SWAP1 PUSH2 0x3D7D JUMP JUMPDEST PUSH1 0x40 MLOAD DUP1 SWAP2 SUB SWAP1 RETURN JUMPDEST PUSH2 0x542 PUSH2 0x1C6D JUMP JUMPDEST PUSH1 0x40 MLOAD PUSH2 0x54F SWAP2 SWAP1 PUSH2 0x3777 JUMP JUMPDEST PUSH1 0x40 MLOAD DUP1 SWAP2 SUB SWAP1 RETURN JUMPDEST PUSH2 0x572 PUSH1 0x4 DUP1 CALLDATASIZE SUB DUP2 ADD SWAP1 PUSH2 0x56D SWAP2 SWAP1 PUSH2 0x4202 JUMP JUMPDEST PUSH2 0x1C74 JUMP JUMPDEST PUSH1 0x40 MLOAD PUSH2 0x57F SWAP2 SWAP1 PUSH2 0x3D7D JUMP JUMPDEST PUSH1 0x40 MLOAD DUP1 SWAP2 SUB SWAP1 RETURN JUMPDEST PUSH2 0x5A2 PUSH1 0x4 DUP1 CALLDATASIZE SUB DUP2 ADD SWAP1 PUSH2 0x59D SWAP2 SWAP1 PUSH2 0x4255 JUMP JUMPDEST PUSH2 0x1CF6 JUMP JUMPDEST PUSH1 0x40 MLOAD PUSH2 0x5AF SWAP2 SWAP1 PUSH2 0x3743 JUMP JUMPDEST PUSH1 0x40 MLOAD DUP1 SWAP2 SUB SWAP1 RETURN JUMPDEST PUSH2 0x5D2 PUSH1 0x4 DUP1 CALLDATASIZE SUB DUP2 ADD SWAP1 PUSH2 0x5CD SWAP2 SWAP1 PUSH2 0x4282 JUMP JUMPDEST PUSH2 0x1D16 JUMP JUMPDEST PUSH1 0x40 MLOAD PUSH2 0x5E0 SWAP3 SWAP2 SWAP1 PUSH2 0x38B0 JUMP JUMPDEST PUSH1 0x40 MLOAD DUP1 SWAP2 SUB SWAP1 RETURN JUMPDEST PUSH2 0x603 PUSH1 0x4 DUP1 CALLDATASIZE SUB DUP2 ADD SWAP1 PUSH2 0x5FE SWAP2 SWAP1 PUSH2 0x3A13 JUMP JUMPDEST PUSH2 0x1E31 JUMP JUMPDEST STOP JUMPDEST PUSH2 0x61F PUSH1 0x4 DUP1 CALLDATASIZE SUB DUP2 ADD SWAP1 PUSH2 0x61A SWAP2 SWAP1 PUSH2 0x4331 JUMP JUMPDEST PUSH2 0x1E53 JUMP JUMPDEST STOP JUMPDEST PUSH2 0x63B PUSH1 0x4 DUP1 CALLDATASIZE SUB DUP2 ADD SWAP1 PUSH2 0x636 SWAP2 SWAP1 PUSH2 0x4371 JUMP JUMPDEST PUSH2 0x1F3A JUMP JUMPDEST PUSH1 0x40 MLOAD PUSH2 0x648 SWAP2 SWAP1 PUSH2 0x3D7D JUMP JUMPDEST PUSH1 0x40 MLOAD DUP1 SWAP2 SUB SWAP1 RETURN JUMPDEST PUSH2 0x66B PUSH1 0x4 DUP1 CALLDATASIZE SUB DUP2 ADD SWAP1 PUSH2 0x666 SWAP2 SWAP1 PUSH2 0x4255 JUMP JUMPDEST PUSH2 0x1FBD JUMP JUMPDEST PUSH1 0x40 MLOAD PUSH2 0x67D SWAP7 SWAP6 SWAP5 SWAP4 SWAP3 SWAP2 SWAP1 PUSH2 0x43E7 JUMP JUMPDEST PUSH1 0x40 MLOAD DUP1 SWAP2 SUB SWAP1 RETURN JUMPDEST PUSH2 0x68E PUSH2 0x2059 JUMP JUMPDEST PUSH1 0x40 MLOAD PUSH2 0x69B SWAP2 SWAP1 PUSH2 0x4469 JUMP JUMPDEST PUSH1 0x40 MLOAD DUP1 SWAP2 SUB SWAP1 RETURN JUMPDEST PUSH2 0x6BE PUSH1 0x4 DUP1 CALLDATASIZE SUB DUP2 ADD SWAP1 PUSH2 0x6B9 SWAP2 SWAP1 PUSH2 0x4484 JUMP JUMPDEST PUSH2 0x207F JUMP JUMPDEST STOP JUMPDEST PUSH1 0x0 PUSH32 0x7965DB0B00000000000000000000000000000000000000000000000000000000 PUSH28 0xFFFFFFFFFFFFFFFFFFFFFFFFFFFFFFFFFFFFFFFFFFFFFFFFFFFFFFFF NOT AND DUP3 PUSH28 0xFFFFFFFFFFFFFFFFFFFFFFFFFFFFFFFFFFFFFFFFFFFFFFFFFFFFFFFF NOT AND EQ DUP1 PUSH2 0x733 JUMPI POP PUSH2 0x732 DUP3 PUSH2 0x22F4 JUMP JUMPDEST JUMPDEST SWAP1 POP SWAP2 SWAP1 POP JUMP JUMPDEST PUSH32 0x7CA588B5E450D40C42764EBA69CBB46460B25758BDA615268602D355E47BC5F2 DUP2 JUMP JUMPDEST PUSH1 0x0 DUP1 PUSH2 0x769 PUSH2 0x235E JUMP JUMPDEST DUP4 PUSH1 0x5 PUSH1 0x0 DUP3 DUP2 MSTORE PUSH1 0x20 ADD SWAP1 DUP2 MSTORE PUSH1 0x20 ADD PUSH1 0x0 KECCAK256 PUSH1 0x0 SWAP1 SLOAD SWAP1 PUSH2 0x100 EXP SWAP1 DIV PUSH1 0xFF AND PUSH2 0x7C1 JUMPI PUSH1 0x40 MLOAD PUSH32 0xD1514D2300000000000000000000000000000000000000000000000000000000 DUP2 MSTORE PUSH1 0x4 ADD PUSH1 0x40 MLOAD DUP1 SWAP2 SUB SWAP1 REVERT JUMPDEST PUSH2 0x810 CALLER ADDRESS DUP10 PUSH1 0x2 PUSH1 0x0 SWAP1 SLOAD SWAP1 PUSH2 0x100 EXP SWAP1 DIV PUSH20 0xFFFFFFFFFFFFFFFFFFFFFFFFFFFFFFFFFFFFFFFF AND PUSH20 0xFFFFFFFFFFFFFFFFFFFFFFFFFFFFFFFFFFFFFFFF AND PUSH2 0x239F SWAP1 SWAP4 SWAP3 SWAP2 SWAP1 PUSH4 0xFFFFFFFF AND JUMP JUMPDEST PUSH1 0x2 PUSH1 0x0 SWAP1 SLOAD SWAP1 PUSH2 0x100 EXP SWAP1 DIV PUSH20 0xFFFFFFFFFFFFFFFFFFFFFFFFFFFFFFFFFFFFFFFF AND PUSH20 0xFFFFFFFFFFFFFFFFFFFFFFFFFFFFFFFFFFFFFFFF AND PUSH4 0x95EA7B3 PUSH1 0x1 PUSH1 0x0 SWAP1 SLOAD SWAP1 PUSH2 0x100 EXP SWAP1 DIV PUSH20 0xFFFFFFFFFFFFFFFFFFFFFFFFFFFFFFFFFFFFFFFF AND DUP10 PUSH1 0x40 MLOAD DUP4 PUSH4 0xFFFFFFFF AND PUSH1 0xE0 SHL DUP2 MSTORE PUSH1 0x4 ADD PUSH2 0x88F SWAP3 SWAP2 SWAP1 PUSH2 0x44EB JUMP JUMPDEST PUSH1 0x20 PUSH1 0x40 MLOAD DUP1 DUP4 SUB DUP2 PUSH1 0x0 DUP8 GAS CALL ISZERO DUP1 ISZERO PUSH2 0x8AE JUMPI RETURNDATASIZE PUSH1 0x0 DUP1 RETURNDATACOPY RETURNDATASIZE PUSH1 0x0 REVERT JUMPDEST POP POP POP POP PUSH1 0x40 MLOAD RETURNDATASIZE PUSH1 0x1F NOT PUSH1 0x1F DUP3 ADD AND DUP3 ADD DUP1 PUSH1 0x40 MSTORE POP DUP2 ADD SWAP1 PUSH2 0x8D2 SWAP2 SWAP1 PUSH2 0x4529 JUMP JUMPDEST POP PUSH1 0x1 PUSH1 0x0 SWAP1 SLOAD SWAP1 PUSH2 0x100 EXP SWAP1 DIV PUSH20 0xFFFFFFFFFFFFFFFFFFFFFFFFFFFFFFFFFFFFFFFF AND PUSH20 0xFFFFFFFFFFFFFFFFFFFFFFFFFFFFFFFFFFFFFFFF AND PUSH4 0x17F69222 DUP10 DUP10 DUP10 PUSH1 0x40 MLOAD DUP5 PUSH4 0xFFFFFFFF AND PUSH1 0xE0 SHL DUP2 MSTORE PUSH1 0x4 ADD PUSH2 0x932 SWAP4 SWAP3 SWAP2 SWAP1 PUSH2 0x4556 JUMP JUMPDEST PUSH1 0x20 PUSH1 0x40 MLOAD DUP1 DUP4 SUB DUP2 PUSH1 0x0 DUP8 GAS CALL ISZERO DUP1 ISZERO PUSH2 0x951 JUMPI RETURNDATASIZE PUSH1 0x0 DUP1 RETURNDATACOPY RETURNDATASIZE PUSH1 0x0 REVERT JUMPDEST POP POP POP POP PUSH1 0x40 MLOAD RETURNDATASIZE PUSH1 0x1F NOT PUSH1 0x1F DUP3 ADD AND DUP3 ADD DUP1 PUSH1 0x40 MSTORE POP DUP2 ADD SWAP1 PUSH2 0x975 SWAP2 SWAP1 PUSH2 0x45A2 JUMP JUMPDEST SWAP3 POP PUSH2 0x980 DUP6 PUSH2 0x2421 JUMP JUMPDEST SWAP2 POP PUSH2 0x990 DUP9 DUP5 DUP8 DUP6 DUP9 DUP13 PUSH2 0x2436 JUMP JUMPDEST POP POP SWAP6 POP SWAP6 SWAP4 POP POP POP POP JUMP JUMPDEST PUSH1 0x0 DUP1 PUSH2 0x9A7 PUSH2 0x282E JUMP JUMPDEST SWAP1 POP DUP1 PUSH1 0x0 ADD PUSH1 0x0 DUP5 DUP2 MSTORE PUSH1 0x20 ADD SWAP1 DUP2 MSTORE PUSH1 0x20 ADD PUSH1 0x0 KECCAK256 PUSH1 0x1 ADD SLOAD SWAP2 POP POP SWAP2 SWAP1 POP JUMP JUMPDEST PUSH1 0x0 DUP1 SLOAD SWAP1 PUSH2 0x100 EXP SWAP1 DIV PUSH20 0xFFFFFFFFFFFFFFFFFFFFFFFFFFFFFFFFFFFFFFFF AND DUP2 JUMP JUMPDEST PUSH1 0x0 DUP1 PUSH2 0x9F9 PUSH2 0x235E JUMP JUMPDEST DUP3 PUSH1 0x5 PUSH1 0x0 DUP3 DUP2 MSTORE PUSH1 0x20 ADD SWAP1 DUP2 MSTORE PUSH1 0x20 ADD PUSH1 0x0 KECCAK256 PUSH1 0x0 SWAP1 SLOAD SWAP1 PUSH2 0x100 EXP SWAP1 DIV PUSH1 0xFF AND PUSH2 0xA51 JUMPI PUSH1 0x40 MLOAD PUSH32 0xD1514D2300000000000000000000000000000000000000000000000000000000 DUP2 MSTORE PUSH1 0x4 ADD PUSH1 0x40 MLOAD DUP1 SWAP2 SUB SWAP1 REVERT JUMPDEST PUSH2 0xAA0 CALLER ADDRESS DUP9 PUSH1 0x2 PUSH1 0x0 SWAP1 SLOAD SWAP1 PUSH2 0x100 EXP SWAP1 DIV PUSH20 0xFFFFFFFFFFFFFFFFFFFFFFFFFFFFFFFFFFFFFFFF AND PUSH20 0xFFFFFFFFFFFFFFFFFFFFFFFFFFFFFFFFFFFFFFFF AND PUSH2 0x239F SWAP1 SWAP4 SWAP3 SWAP2 SWAP1 PUSH4 0xFFFFFFFF AND JUMP JUMPDEST PUSH1 0x2 PUSH1 0x0 SWAP1 SLOAD SWAP1 PUSH2 0x100 EXP SWAP1 DIV PUSH20 0xFFFFFFFFFFFFFFFFFFFFFFFFFFFFFFFFFFFFFFFF AND PUSH20 0xFFFFFFFFFFFFFFFFFFFFFFFFFFFFFFFFFFFFFFFF AND PUSH4 0x95EA7B3 PUSH1 0x1 PUSH1 0x0 SWAP1 SLOAD SWAP1 PUSH2 0x100 EXP SWAP1 DIV PUSH20 0xFFFFFFFFFFFFFFFFFFFFFFFFFFFFFFFFFFFFFFFF AND DUP9 PUSH1 0x40 MLOAD DUP4 PUSH4 0xFFFFFFFF AND PUSH1 0xE0 SHL DUP2 MSTORE PUSH1 0x4 ADD PUSH2 0xB1F SWAP3 SWAP2 SWAP1 PUSH2 0x44EB JUMP JUMPDEST PUSH1 0x20 PUSH1 0x40 MLOAD DUP1 DUP4 SUB DUP2 PUSH1 0x0 DUP8 GAS CALL ISZERO DUP1 ISZERO PUSH2 0xB3E JUMPI RETURNDATASIZE PUSH1 0x0 DUP1 RETURNDATACOPY RETURNDATASIZE PUSH1 0x0 REVERT JUMPDEST POP POP POP POP PUSH1 0x40 MLOAD RETURNDATASIZE PUSH1 0x1F NOT PUSH1 0x1F DUP3 ADD AND DUP3 ADD DUP1 PUSH1 0x40 MSTORE POP DUP2 ADD SWAP1 PUSH2 0xB62 SWAP2 SWAP1 PUSH2 0x4529 JUMP JUMPDEST POP PUSH1 0x1 PUSH1 0x0 SWAP1 SLOAD SWAP1 PUSH2 0x100 EXP SWAP1 DIV PUSH20 0xFFFFFFFFFFFFFFFFFFFFFFFFFFFFFFFFFFFFFFFF AND PUSH20 0xFFFFFFFFFFFFFFFFFFFFFFFFFFFFFFFFFFFFFFFF AND PUSH4 0x17F69222 DUP9 DUP9 DUP9 PUSH1 0x40 MLOAD DUP5 PUSH4 0xFFFFFFFF AND PUSH1 0xE0 SHL DUP2 MSTORE PUSH1 0x4 ADD PUSH2 0xBC2 SWAP4 SWAP3 SWAP2 SWAP1 PUSH2 0x4556 JUMP JUMPDEST PUSH1 0x20 PUSH1 0x40 MLOAD DUP1 DUP4 SUB DUP2 PUSH1 0x0 DUP8 GAS CALL ISZERO DUP1 ISZERO PUSH2 0xBE1 JUMPI RETURNDATASIZE PUSH1 0x0 DUP1 RETURNDATACOPY RETURNDATASIZE PUSH1 0x0 REVERT JUMPDEST POP POP POP POP PUSH1 0x40 MLOAD RETURNDATASIZE PUSH1 0x1F NOT PUSH1 0x1F DUP3 ADD AND DUP3 ADD DUP1 PUSH1 0x40 MSTORE POP DUP2 ADD SWAP1 PUSH2 0xC05 SWAP2 SWAP1 PUSH2 0x45A2 JUMP JUMPDEST SWAP3 POP PUSH2 0xC10 DUP5 PUSH2 0x2421 JUMP JUMPDEST SWAP2 POP PUSH2 0xC20 DUP8 DUP5 DUP7 DUP6 CALLER DUP12 PUSH2 0x2436 JUMP JUMPDEST POP POP SWAP5 POP SWAP5 SWAP3 POP POP POP JUMP JUMPDEST PUSH2 0xC34 DUP3 PUSH2 0x99C JUMP JUMPDEST PUSH2 0xC3D DUP2 PUSH2 0x2856 JUMP JUMPDEST PUSH2 0xC47 DUP4 DUP4 PUSH2 0x286A JUMP JUMPDEST POP POP POP POP JUMP JUMPDEST PUSH2 0xC55 PUSH2 0x296B JUMP JUMPDEST PUSH20 0xFFFFFFFFFFFFFFFFFFFFFFFFFFFFFFFFFFFFFFFF AND DUP2 PUSH20 0xFFFFFFFFFFFFFFFFFFFFFFFFFFFFFFFFFFFFFFFF AND EQ PUSH2 0xCB9 JUMPI PUSH1 0x40 MLOAD PUSH32 0x6697B23200000000000000000000000000000000000000000000000000000000 DUP2 MSTORE PUSH1 0x4 ADD PUSH1 0x40 MLOAD DUP1 SWAP2 SUB SWAP1 REVERT JUMPDEST PUSH2 0xCC3 DUP3 DUP3 PUSH2 0x2973 JUMP JUMPDEST POP POP POP JUMP JUMPDEST PUSH1 0x0 DUP1 PUSH2 0xCD3 PUSH2 0x235E JUMP JUMPDEST DUP3 PUSH1 0x5 PUSH1 0x0 DUP3 DUP2 MSTORE PUSH1 0x20 ADD SWAP1 DUP2 MSTORE PUSH1 0x20 ADD PUSH1 0x0 KECCAK256 PUSH1 0x0 SWAP1 SLOAD SWAP1 PUSH2 0x100 EXP SWAP1 DIV PUSH1 0xFF AND PUSH2 0xD2B JUMPI PUSH1 0x40 MLOAD PUSH32 0xD1514D2300000000000000000000000000000000000000000000000000000000 DUP2 MSTORE PUSH1 0x4 ADD PUSH1 0x40 MLOAD DUP1 SWAP2 SUB SWAP1 REVERT JUMPDEST PUSH1 0x0 PUSH2 0xD37 DUP8 DUP8 PUSH2 0x2A75 JUMP JUMPDEST DUP1 SWAP6 POP DUP2 SWAP3 POP POP POP DUP1 PUSH20 0xFFFFFFFFFFFFFFFFFFFFFFFFFFFFFFFFFFFFFFFF AND DUP8 PUSH20 0xFFFFFFFFFFFFFFFFFFFFFFFFFFFFFFFFFFFFFFFF AND CALLER PUSH20 0xFFFFFFFFFFFFFFFFFFFFFFFFFFFFFFFFFFFFFFFF AND PUSH32 0x91ABCBEDCAAD3EDA62EC73BE1F3B200F1BEEEB47768774D2AEBB0A196238E92D DUP10 DUP9 PUSH1 0x40 MLOAD PUSH2 0xDB5 SWAP3 SWAP2 SWAP1 PUSH2 0x3FB0 JUMP JUMPDEST PUSH1 0x40 MLOAD DUP1 SWAP2 SUB SWAP1 LOG4 PUSH2 0xDC6 DUP6 PUSH2 0x2421 JUMP JUMPDEST SWAP3 POP PUSH2 0xDD7 DUP8 DUP6 DUP8 DUP7 CALLER PUSH1 0x0 PUSH2 0x2436 JUMP JUMPDEST POP POP POP SWAP4 POP SWAP4 SWAP2 POP POP JUMP JUMPDEST PUSH32 0x139C2898040EF16910DC9F44DC697DF79363DA767D8BC92F2E310312B816E46D DUP2 JUMP JUMPDEST PUSH32 0x139C2898040EF16910DC9F44DC697DF79363DA767D8BC92F2E310312B816E46D PUSH2 0xE30 DUP2 PUSH2 0x2856 JUMP JUMPDEST PUSH2 0xE38 PUSH2 0x2FC7 JUMP JUMPDEST POP JUMP JUMPDEST PUSH1 0x0 PUSH2 0xE45 PUSH2 0x235E JUMP JUMPDEST DUP3 PUSH1 0x5 PUSH1 0x0 DUP3 DUP2 MSTORE PUSH1 0x20 ADD SWAP1 DUP2 MSTORE PUSH1 0x20 ADD PUSH1 0x0 KECCAK256 PUSH1 0x0 SWAP1 SLOAD SWAP1 PUSH2 0x100 EXP SWAP1 DIV PUSH1 0xFF AND PUSH2 0xE9D JUMPI PUSH1 0x40 MLOAD PUSH32 0xD1514D2300000000000000000000000000000000000000000000000000000000 DUP2 MSTORE PUSH1 0x4 ADD PUSH1 0x40 MLOAD DUP1 SWAP2 SUB SWAP1 REVERT JUMPDEST DUP5 MLOAD DUP7 MLOAD EQ PUSH2 0xED8 JUMPI PUSH1 0x40 MLOAD PUSH32 0xF189683A00000000000000000000000000000000000000000000000000000000 DUP2 MSTORE PUSH1 0x4 ADD PUSH1 0x40 MLOAD DUP1 SWAP2 SUB SWAP1 REVERT JUMPDEST PUSH2 0xEE1 DUP5 PUSH2 0x2421 JUMP JUMPDEST SWAP2 POP PUSH1 0x0 JUMPDEST DUP7 MLOAD DUP2 LT ISZERO PUSH2 0xF3D JUMPI PUSH2 0xF30 DUP8 DUP3 DUP2 MLOAD DUP2 LT PUSH2 0xF05 JUMPI PUSH2 0xF04 PUSH2 0x45CF JUMP JUMPDEST JUMPDEST PUSH1 0x20 MUL PUSH1 0x20 ADD ADD MLOAD DUP8 DUP4 DUP2 MLOAD DUP2 LT PUSH2 0xF20 JUMPI PUSH2 0xF1F PUSH2 0x45CF JUMP JUMPDEST JUMPDEST PUSH1 0x20 MUL PUSH1 0x20 ADD ADD MLOAD DUP8 DUP7 DUP9 PUSH2 0x3039 JUMP JUMPDEST DUP1 DUP1 PUSH1 0x1 ADD SWAP2 POP POP PUSH2 0xEE6 JUMP JUMPDEST POP POP SWAP5 SWAP4 POP POP POP POP JUMP JUMPDEST PUSH1 0x0 PUSH2 0xF51 PUSH2 0x235E JUMP JUMPDEST DUP2 PUSH1 0x5 PUSH1 0x0 DUP3 DUP2 MSTORE PUSH1 0x20 ADD SWAP1 DUP2 MSTORE PUSH1 0x20 ADD PUSH1 0x0 KECCAK256 PUSH1 0x0 SWAP1 SLOAD SWAP1 PUSH2 0x100 EXP SWAP1 DIV PUSH1 0xFF AND PUSH2 0xFA9 JUMPI PUSH1 0x40 MLOAD PUSH32 0xD1514D2300000000000000000000000000000000000000000000000000000000 DUP2 MSTORE PUSH1 0x4 ADD PUSH1 0x40 MLOAD DUP1 SWAP2 SUB SWAP1 REVERT JUMPDEST DUP4 MLOAD DUP6 MLOAD EQ PUSH2 0xFE4 JUMPI PUSH1 0x40 MLOAD PUSH32 0xF189683A00000000000000000000000000000000000000000000000000000000 DUP2 MSTORE PUSH1 0x4 ADD PUSH1 0x40 MLOAD DUP1 SWAP2 SUB SWAP1 REVERT JUMPDEST PUSH2 0xFED DUP4 PUSH2 0x2421 JUMP JUMPDEST SWAP2 POP PUSH1 0x0 JUMPDEST DUP6 MLOAD DUP2 LT ISZERO PUSH2 0x1049 JUMPI PUSH2 0x103C DUP7 DUP3 DUP2 MLOAD DUP2 LT PUSH2 0x1011 JUMPI PUSH2 0x1010 PUSH2 0x45CF JUMP JUMPDEST JUMPDEST PUSH1 0x20 MUL PUSH1 0x20 ADD ADD MLOAD DUP7 DUP4 DUP2 MLOAD DUP2 LT PUSH2 0x102C JUMPI PUSH2 0x102B PUSH2 0x45CF JUMP JUMPDEST JUMPDEST PUSH1 0x20 MUL PUSH1 0x20 ADD ADD MLOAD DUP7 DUP7 CALLER PUSH2 0x3039 JUMP JUMPDEST DUP1 DUP1 PUSH1 0x1 ADD SWAP2 POP POP PUSH2 0xFF2 JUMP JUMPDEST POP POP SWAP4 SWAP3 POP POP POP JUMP JUMPDEST PUSH1 0x0 DUP1 PUSH2 0x105D PUSH2 0x3081 JUMP JUMPDEST SWAP1 POP DUP1 PUSH1 0x0 ADD PUSH1 0x0 SWAP1 SLOAD SWAP1 PUSH2 0x100 EXP SWAP1 DIV PUSH1 0xFF AND SWAP2 POP POP SWAP1 JUMP JUMPDEST PUSH1 0x60 PUSH1 0x0 PUSH2 0x1083 PUSH2 0x235E JUMP JUMPDEST DUP4 PUSH1 0x5 PUSH1 0x0 DUP3 DUP2 MSTORE PUSH1 0x20 ADD SWAP1 DUP2 MSTORE PUSH1 0x20 ADD PUSH1 0x0 KECCAK256 PUSH1 0x0 SWAP1 SLOAD SWAP1 PUSH2 0x100 EXP SWAP1 DIV PUSH1 0xFF AND PUSH2 0x10DB JUMPI PUSH1 0x40 MLOAD PUSH32 0xD1514D2300000000000000000000000000000000000000000000000000000000 DUP2 MSTORE PUSH1 0x4 ADD PUSH1 0x40 MLOAD DUP1 SWAP2 SUB SWAP1 REVERT JUMPDEST DUP7 MLOAD DUP9 MLOAD EQ ISZERO DUP1 PUSH2 0x10EE JUMPI POP DUP6 MLOAD DUP9 MLOAD EQ ISZERO JUMPDEST ISZERO PUSH2 0x1125 JUMPI PUSH1 0x40 MLOAD PUSH32 0xF189683A00000000000000000000000000000000000000000000000000000000 DUP2 MSTORE PUSH1 0x4 ADD PUSH1 0x40 MLOAD DUP1 SWAP2 SUB SWAP1 REVERT JUMPDEST PUSH1 0x0 DUP1 JUMPDEST DUP10 MLOAD DUP2 LT ISZERO PUSH2 0x1167 JUMPI DUP9 DUP2 DUP2 MLOAD DUP2 LT PUSH2 0x1145 JUMPI PUSH2 0x1144 PUSH2 0x45CF JUMP JUMPDEST JUMPDEST PUSH1 0x20 MUL PUSH1 0x20 ADD ADD MLOAD DUP3 PUSH2 0x1158 SWAP2 SWAP1 PUSH2 0x462D JUMP JUMPDEST SWAP2 POP DUP1 DUP1 PUSH1 0x1 ADD SWAP2 POP POP PUSH2 0x1129 JUMP JUMPDEST POP PUSH2 0x11B7 CALLER ADDRESS DUP4 PUSH1 0x2 PUSH1 0x0 SWAP1 SLOAD SWAP1 PUSH2 0x100 EXP SWAP1 DIV PUSH20 0xFFFFFFFFFFFFFFFFFFFFFFFFFFFFFFFFFFFFFFFF AND PUSH20 0xFFFFFFFFFFFFFFFFFFFFFFFFFFFFFFFFFFFFFFFF AND PUSH2 0x239F SWAP1 SWAP4 SWAP3 SWAP2 SWAP1 PUSH4 0xFFFFFFFF AND JUMP JUMPDEST PUSH1 0x2 PUSH1 0x0 SWAP1 SLOAD SWAP1 PUSH2 0x100 EXP SWAP1 DIV PUSH20 0xFFFFFFFFFFFFFFFFFFFFFFFFFFFFFFFFFFFFFFFF AND PUSH20 0xFFFFFFFFFFFFFFFFFFFFFFFFFFFFFFFFFFFFFFFF AND PUSH4 0x95EA7B3 PUSH1 0x1 PUSH1 0x0 SWAP1 SLOAD SWAP1 PUSH2 0x100 EXP SWAP1 DIV PUSH20 0xFFFFFFFFFFFFFFFFFFFFFFFFFFFFFFFFFFFFFFFF AND DUP4 PUSH1 0x40 MLOAD DUP4 PUSH4 0xFFFFFFFF AND PUSH1 0xE0 SHL DUP2 MSTORE PUSH1 0x4 ADD PUSH2 0x1236 SWAP3 SWAP2 SWAP1 PUSH2 0x44EB JUMP JUMPDEST PUSH1 0x20 PUSH1 0x40 MLOAD DUP1 DUP4 SUB DUP2 PUSH1 0x0 DUP8 GAS CALL ISZERO DUP1 ISZERO PUSH2 0x1255 JUMPI RETURNDATASIZE PUSH1 0x0 DUP1 RETURNDATACOPY RETURNDATASIZE PUSH1 0x0 REVERT JUMPDEST POP POP POP POP PUSH1 0x40 MLOAD RETURNDATASIZE PUSH1 0x1F NOT PUSH1 0x1F DUP3 ADD AND DUP3 ADD DUP1 PUSH1 0x40 MSTORE POP DUP2 ADD SWAP1 PUSH2 0x1279 SWAP2 SWAP1 PUSH2 0x4529 JUMP JUMPDEST POP DUP9 MLOAD PUSH8 0xFFFFFFFFFFFFFFFF DUP2 GT ISZERO PUSH2 0x1295 JUMPI PUSH2 0x1294 PUSH2 0x3A69 JUMP JUMPDEST JUMPDEST PUSH1 0x40 MLOAD SWAP1 DUP1 DUP3 MSTORE DUP1 PUSH1 0x20 MUL PUSH1 0x20 ADD DUP3 ADD PUSH1 0x40 MSTORE DUP1 ISZERO PUSH2 0x12C3 JUMPI DUP2 PUSH1 0x20 ADD PUSH1 0x20 DUP3 MUL DUP1 CALLDATASIZE DUP4 CALLDATACOPY DUP1 DUP3 ADD SWAP2 POP POP SWAP1 POP JUMPDEST POP SWAP4 POP PUSH2 0x12CF DUP7 PUSH2 0x2421 JUMP JUMPDEST SWAP3 POP PUSH1 0x0 JUMPDEST DUP10 MLOAD DUP2 LT ISZERO PUSH2 0x1456 JUMPI PUSH1 0x1 PUSH1 0x0 SWAP1 SLOAD SWAP1 PUSH2 0x100 EXP SWAP1 DIV PUSH20 0xFFFFFFFFFFFFFFFFFFFFFFFFFFFFFFFFFFFFFFFF AND PUSH20 0xFFFFFFFFFFFFFFFFFFFFFFFFFFFFFFFFFFFFFFFF AND PUSH4 0x17F69222 DUP12 DUP4 DUP2 MLOAD DUP2 LT PUSH2 0x132E JUMPI PUSH2 0x132D PUSH2 0x45CF JUMP JUMPDEST JUMPDEST PUSH1 0x20 MUL PUSH1 0x20 ADD ADD MLOAD DUP12 DUP5 DUP2 MLOAD DUP2 LT PUSH2 0x1349 JUMPI PUSH2 0x1348 PUSH2 0x45CF JUMP JUMPDEST JUMPDEST PUSH1 0x20 MUL PUSH1 0x20 ADD ADD MLOAD DUP12 DUP6 DUP2 MLOAD DUP2 LT PUSH2 0x1364 JUMPI PUSH2 0x1363 PUSH2 0x45CF JUMP JUMPDEST JUMPDEST PUSH1 0x20 MUL PUSH1 0x20 ADD ADD MLOAD PUSH1 0x40 MLOAD DUP5 PUSH4 0xFFFFFFFF AND PUSH1 0xE0 SHL DUP2 MSTORE PUSH1 0x4 ADD PUSH2 0x138A SWAP4 SWAP3 SWAP2 SWAP1 PUSH2 0x4556 JUMP JUMPDEST PUSH1 0x20 PUSH1 0x40 MLOAD DUP1 DUP4 SUB DUP2 PUSH1 0x0 DUP8 GAS CALL ISZERO DUP1 ISZERO PUSH2 0x13A9 JUMPI RETURNDATASIZE PUSH1 0x0 DUP1 RETURNDATACOPY RETURNDATASIZE PUSH1 0x0 REVERT JUMPDEST POP POP POP POP PUSH1 0x40 MLOAD RETURNDATASIZE PUSH1 0x1F NOT PUSH1 0x1F DUP3 ADD AND DUP3 ADD DUP1 PUSH1 0x40 MSTORE POP DUP2 ADD SWAP1 PUSH2 0x13CD SWAP2 SWAP1 PUSH2 0x45A2 JUMP JUMPDEST DUP6 DUP3 DUP2 MLOAD DUP2 LT PUSH2 0x13E0 JUMPI PUSH2 0x13DF PUSH2 0x45CF JUMP JUMPDEST JUMPDEST PUSH1 0x20 MUL PUSH1 0x20 ADD ADD DUP2 DUP2 MSTORE POP POP PUSH2 0x1448 DUP11 DUP3 DUP2 MLOAD DUP2 LT PUSH2 0x1402 JUMPI PUSH2 0x1401 PUSH2 0x45CF JUMP JUMPDEST JUMPDEST PUSH1 0x20 MUL PUSH1 0x20 ADD ADD MLOAD DUP7 DUP4 DUP2 MLOAD DUP2 LT PUSH2 0x141D JUMPI PUSH2 0x141C PUSH2 0x45CF JUMP JUMPDEST JUMPDEST PUSH1 0x20 MUL PUSH1 0x20 ADD ADD MLOAD DUP10 DUP8 DUP11 DUP15 DUP8 DUP2 MLOAD DUP2 LT PUSH2 0x143B JUMPI PUSH2 0x143A PUSH2 0x45CF JUMP JUMPDEST JUMPDEST PUSH1 0x20 MUL PUSH1 0x20 ADD ADD MLOAD PUSH2 0x2436 JUMP JUMPDEST POP DUP1 DUP1 PUSH1 0x1 ADD SWAP2 POP POP PUSH2 0x12D4 JUMP JUMPDEST POP POP POP SWAP6 POP SWAP6 SWAP4 POP POP POP POP JUMP JUMPDEST PUSH1 0x2 PUSH1 0x0 SWAP1 SLOAD SWAP1 PUSH2 0x100 EXP SWAP1 DIV PUSH20 0xFFFFFFFFFFFFFFFFFFFFFFFFFFFFFFFFFFFFFFFF AND DUP2 JUMP JUMPDEST PUSH1 0x0 DUP1 PUSH1 0x0 SWAP1 POP JUMPDEST DUP4 DUP4 SWAP1 POP DUP2 LT ISZERO PUSH2 0x1705 JUMPI PUSH1 0x0 DUP5 DUP5 DUP4 DUP2 DUP2 LT PUSH2 0x14B1 JUMPI PUSH2 0x14B0 PUSH2 0x45CF JUMP JUMPDEST JUMPDEST SWAP1 POP PUSH1 0x20 MUL ADD CALLDATALOAD SWAP1 POP PUSH1 0x0 PUSH1 0x4 PUSH1 0x0 DUP4 DUP2 MSTORE PUSH1 0x20 ADD SWAP1 DUP2 MSTORE PUSH1 0x20 ADD PUSH1 0x0 KECCAK256 PUSH1 0x40 MLOAD DUP1 PUSH1 0xC0 ADD PUSH1 0x40 MSTORE SWAP1 DUP2 PUSH1 0x0 DUP3 ADD PUSH1 0x0 SWAP1 SLOAD SWAP1 PUSH2 0x100 EXP SWAP1 DIV PUSH20 0xFFFFFFFFFFFFFFFFFFFFFFFFFFFFFFFFFFFFFFFF AND PUSH20 0xFFFFFFFFFFFFFFFFFFFFFFFFFFFFFFFFFFFFFFFF AND PUSH20 0xFFFFFFFFFFFFFFFFFFFFFFFFFFFFFFFFFFFFFFFF AND DUP2 MSTORE PUSH1 0x20 ADD PUSH1 0x1 DUP3 ADD PUSH1 0x0 SWAP1 SLOAD SWAP1 PUSH2 0x100 EXP SWAP1 DIV PUSH20 0xFFFFFFFFFFFFFFFFFFFFFFFFFFFFFFFFFFFFFFFF AND PUSH20 0xFFFFFFFFFFFFFFFFFFFFFFFFFFFFFFFFFFFFFFFF AND PUSH20 0xFFFFFFFFFFFFFFFFFFFFFFFFFFFFFFFFFFFFFFFF AND DUP2 MSTORE PUSH1 0x20 ADD PUSH1 0x2 DUP3 ADD PUSH1 0x0 SWAP1 SLOAD SWAP1 PUSH2 0x100 EXP SWAP1 DIV PUSH20 0xFFFFFFFFFFFFFFFFFFFFFFFFFFFFFFFFFFFFFFFF AND PUSH20 0xFFFFFFFFFFFFFFFFFFFFFFFFFFFFFFFFFFFFFFFF AND PUSH20 0xFFFFFFFFFFFFFFFFFFFFFFFFFFFFFFFFFFFFFFFF AND DUP2 MSTORE PUSH1 0x20 ADD PUSH1 0x3 DUP3 ADD SLOAD DUP2 MSTORE PUSH1 0x20 ADD PUSH1 0x4 DUP3 ADD SLOAD DUP2 MSTORE PUSH1 0x20 ADD PUSH1 0x5 DUP3 ADD SLOAD DUP2 MSTORE POP POP SWAP1 POP DUP8 PUSH20 0xFFFFFFFFFFFFFFFFFFFFFFFFFFFFFFFFFFFFFFFF AND DUP2 PUSH1 0x0 ADD MLOAD PUSH20 0xFFFFFFFFFFFFFFFFFFFFFFFFFFFFFFFFFFFFFFFF AND EQ PUSH2 0x1670 JUMPI DUP2 PUSH1 0x40 MLOAD PUSH32 0xF6953E9300000000000000000000000000000000000000000000000000000000 DUP2 MSTORE PUSH1 0x4 ADD PUSH2 0x1667 SWAP2 SWAP1 PUSH2 0x3D7D JUMP JUMPDEST PUSH1 0x40 MLOAD DUP1 SWAP2 SUB SWAP1 REVERT JUMPDEST DUP7 PUSH20 0xFFFFFFFFFFFFFFFFFFFFFFFFFFFFFFFFFFFFFFFF AND DUP2 PUSH1 0x20 ADD MLOAD PUSH20 0xFFFFFFFFFFFFFFFFFFFFFFFFFFFFFFFFFFFFFFFF AND EQ PUSH2 0x16E4 JUMPI DUP2 PUSH1 0x40 MLOAD PUSH32 0xB5E6545C00000000000000000000000000000000000000000000000000000000 DUP2 MSTORE PUSH1 0x4 ADD PUSH2 0x16DB SWAP2 SWAP1 PUSH2 0x3D7D JUMP JUMPDEST PUSH1 0x40 MLOAD DUP1 SWAP2 SUB SWAP1 REVERT JUMPDEST DUP1 PUSH1 0x80 ADD MLOAD DUP5 PUSH2 0x16F4 SWAP2 SWAP1 PUSH2 0x462D JUMP JUMPDEST SWAP4 POP POP POP DUP1 DUP1 PUSH1 0x1 ADD SWAP2 POP POP PUSH2 0x1491 JUMP JUMPDEST POP SWAP5 SWAP4 POP POP POP POP JUMP JUMPDEST PUSH1 0x0 PUSH2 0x1718 PUSH2 0x235E JUMP JUMPDEST PUSH1 0x0 PUSH2 0x1724 DUP5 DUP5 PUSH2 0x2A75 JUMP JUMPDEST DUP1 SWAP4 POP DUP2 SWAP3 POP POP POP PUSH1 0x0 DUP2 SWAP1 POP PUSH2 0x175C CALLER DUP5 DUP4 PUSH20 0xFFFFFFFFFFFFFFFFFFFFFFFFFFFFFFFFFFFFFFFF AND PUSH2 0x30A9 SWAP1 SWAP3 SWAP2 SWAP1 PUSH4 0xFFFFFFFF AND JUMP JUMPDEST DUP2 PUSH20 0xFFFFFFFFFFFFFFFFFFFFFFFFFFFFFFFFFFFFFFFF AND DUP6 PUSH20 0xFFFFFFFFFFFFFFFFFFFFFFFFFFFFFFFFFFFFFFFF AND CALLER PUSH20 0xFFFFFFFFFFFFFFFFFFFFFFFFFFFFFFFFFFFFFFFF AND PUSH32 0x9A854CD73E1D94F13AB58C2976AB2E4CA74D625E791EA082E840E556CE1C7A50 DUP8 DUP8 PUSH1 0x40 MLOAD PUSH2 0x17D2 SWAP3 SWAP2 SWAP1 PUSH2 0x3FB0 JUMP JUMPDEST PUSH1 0x40 MLOAD DUP1 SWAP2 SUB SWAP1 LOG4 POP POP SWAP3 SWAP2 POP POP JUMP JUMPDEST PUSH32 0x139C2898040EF16910DC9F44DC697DF79363DA767D8BC92F2E310312B816E46D PUSH2 0x180C DUP2 PUSH2 0x2856 JUMP JUMPDEST PUSH2 0x1814 PUSH2 0x3128 JUMP JUMPDEST POP JUMP JUMPDEST PUSH1 0x60 PUSH1 0x0 PUSH2 0x1823 PUSH2 0x235E JUMP JUMPDEST DUP3 PUSH1 0x5 PUSH1 0x0 DUP3 DUP2 MSTORE PUSH1 0x20 ADD SWAP1 DUP2 MSTORE PUSH1 0x20 ADD PUSH1 0x0 KECCAK256 PUSH1 0x0 SWAP1 SLOAD SWAP1 PUSH2 0x100 EXP SWAP1 DIV PUSH1 0xFF AND PUSH2 0x187B JUMPI PUSH1 0x40 MLOAD PUSH32 0xD1514D2300000000000000000000000000000000000000000000000000000000 DUP2 MSTORE PUSH1 0x4 ADD PUSH1 0x40 MLOAD DUP1 SWAP2 SUB SWAP1 REVERT JUMPDEST DUP6 MLOAD DUP8 MLOAD EQ ISZERO DUP1 PUSH2 0x188E JUMPI POP DUP5 MLOAD DUP8 MLOAD EQ ISZERO JUMPDEST ISZERO PUSH2 0x18C5 JUMPI PUSH1 0x40 MLOAD PUSH32 0xF189683A00000000000000000000000000000000000000000000000000000000 DUP2 MSTORE PUSH1 0x4 ADD PUSH1 0x40 MLOAD DUP1 SWAP2 SUB SWAP1 REVERT JUMPDEST DUP7 MLOAD PUSH8 0xFFFFFFFFFFFFFFFF DUP2 GT ISZERO PUSH2 0x18E0 JUMPI PUSH2 0x18DF PUSH2 0x3A69 JUMP JUMPDEST JUMPDEST PUSH1 0x40 MLOAD SWAP1 DUP1 DUP3 MSTORE DUP1 PUSH1 0x20 MUL PUSH1 0x20 ADD DUP3 ADD PUSH1 0x40 MSTORE DUP1 ISZERO PUSH2 0x190E JUMPI DUP2 PUSH1 0x20 ADD PUSH1 0x20 DUP3 MUL DUP1 CALLDATASIZE DUP4 CALLDATACOPY DUP1 DUP3 ADD SWAP2 POP POP SWAP1 POP JUMPDEST POP SWAP3 POP PUSH1 0x0 DUP1 JUMPDEST DUP9 MLOAD DUP2 LT ISZERO PUSH2 0x1953 JUMPI DUP8 DUP2 DUP2 MLOAD DUP2 LT PUSH2 0x1931 JUMPI PUSH2 0x1930 PUSH2 0x45CF JUMP JUMPDEST JUMPDEST PUSH1 0x20 MUL PUSH1 0x20 ADD ADD MLOAD DUP3 PUSH2 0x1944 SWAP2 SWAP1 PUSH2 0x462D JUMP JUMPDEST SWAP2 POP DUP1 DUP1 PUSH1 0x1 ADD SWAP2 POP POP PUSH2 0x1915 JUMP JUMPDEST POP PUSH2 0x19A3 CALLER ADDRESS DUP4 PUSH1 0x2 PUSH1 0x0 SWAP1 SLOAD SWAP1 PUSH2 0x100 EXP SWAP1 DIV PUSH20 0xFFFFFFFFFFFFFFFFFFFFFFFFFFFFFFFFFFFFFFFF AND PUSH20 0xFFFFFFFFFFFFFFFFFFFFFFFFFFFFFFFFFFFFFFFF AND PUSH2 0x239F SWAP1 SWAP4 SWAP3 SWAP2 SWAP1 PUSH4 0xFFFFFFFF AND JUMP JUMPDEST PUSH1 0x2 PUSH1 0x0 SWAP1 SLOAD SWAP1 PUSH2 0x100 EXP SWAP1 DIV PUSH20 0xFFFFFFFFFFFFFFFFFFFFFFFFFFFFFFFFFFFFFFFF AND PUSH20 0xFFFFFFFFFFFFFFFFFFFFFFFFFFFFFFFFFFFFFFFF AND PUSH4 0x95EA7B3 PUSH1 0x1 PUSH1 0x0 SWAP1 SLOAD SWAP1 PUSH2 0x100 EXP SWAP1 DIV PUSH20 0xFFFFFFFFFFFFFFFFFFFFFFFFFFFFFFFFFFFFFFFF AND DUP4 PUSH1 0x40 MLOAD DUP4 PUSH4 0xFFFFFFFF AND PUSH1 0xE0 SHL DUP2 MSTORE PUSH1 0x4 ADD PUSH2 0x1A22 SWAP3 SWAP2 SWAP1 PUSH2 0x44EB JUMP JUMPDEST PUSH1 0x20 PUSH1 0x40 MLOAD DUP1 DUP4 SUB DUP2 PUSH1 0x0 DUP8 GAS CALL ISZERO DUP1 ISZERO PUSH2 0x1A41 JUMPI RETURNDATASIZE PUSH1 0x0 DUP1 RETURNDATACOPY RETURNDATASIZE PUSH1 0x0 REVERT JUMPDEST POP POP POP POP PUSH1 0x40 MLOAD RETURNDATASIZE PUSH1 0x1F NOT PUSH1 0x1F DUP3 ADD AND DUP3 ADD DUP1 PUSH1 0x40 MSTORE POP DUP2 ADD SWAP1 PUSH2 0x1A65 SWAP2 SWAP1 PUSH2 0x4529 JUMP JUMPDEST POP PUSH2 0x1A6F DUP6 PUSH2 0x2421 JUMP JUMPDEST SWAP3 POP PUSH1 0x0 JUMPDEST DUP9 MLOAD DUP2 LT ISZERO PUSH2 0x1BE2 JUMPI PUSH1 0x0 PUSH1 0x1 PUSH1 0x0 SWAP1 SLOAD SWAP1 PUSH2 0x100 EXP SWAP1 DIV PUSH20 0xFFFFFFFFFFFFFFFFFFFFFFFFFFFFFFFFFFFFFFFF AND PUSH20 0xFFFFFFFFFFFFFFFFFFFFFFFFFFFFFFFFFFFFFFFF AND PUSH4 0x17F69222 DUP12 DUP5 DUP2 MLOAD DUP2 LT PUSH2 0x1AD0 JUMPI PUSH2 0x1ACF PUSH2 0x45CF JUMP JUMPDEST JUMPDEST PUSH1 0x20 MUL PUSH1 0x20 ADD ADD MLOAD DUP12 DUP6 DUP2 MLOAD DUP2 LT PUSH2 0x1AEB JUMPI PUSH2 0x1AEA PUSH2 0x45CF JUMP JUMPDEST JUMPDEST PUSH1 0x20 MUL PUSH1 0x20 ADD ADD MLOAD DUP12 DUP7 DUP2 MLOAD DUP2 LT PUSH2 0x1B06 JUMPI PUSH2 0x1B05 PUSH2 0x45CF JUMP JUMPDEST JUMPDEST PUSH1 0x20 MUL PUSH1 0x20 ADD ADD MLOAD PUSH1 0x40 MLOAD DUP5 PUSH4 0xFFFFFFFF AND PUSH1 0xE0 SHL DUP2 MSTORE PUSH1 0x4 ADD PUSH2 0x1B2C SWAP4 SWAP3 SWAP2 SWAP1 PUSH2 0x4556 JUMP JUMPDEST PUSH1 0x20 PUSH1 0x40 MLOAD DUP1 DUP4 SUB DUP2 PUSH1 0x0 DUP8 GAS CALL ISZERO DUP1 ISZERO PUSH2 0x1B4B JUMPI RETURNDATASIZE PUSH1 0x0 DUP1 RETURNDATACOPY RETURNDATASIZE PUSH1 0x0 REVERT JUMPDEST POP POP POP POP PUSH1 0x40 MLOAD RETURNDATASIZE PUSH1 0x1F NOT PUSH1 0x1F DUP3 ADD AND DUP3 ADD DUP1 PUSH1 0x40 MSTORE POP DUP2 ADD SWAP1 PUSH2 0x1B6F SWAP2 SWAP1 PUSH2 0x45A2 JUMP JUMPDEST SWAP1 POP PUSH2 0x1BB3 DUP11 DUP4 DUP2 MLOAD DUP2 LT PUSH2 0x1B87 JUMPI PUSH2 0x1B86 PUSH2 0x45CF JUMP JUMPDEST JUMPDEST PUSH1 0x20 MUL PUSH1 0x20 ADD ADD MLOAD DUP3 DUP10 DUP9 CALLER DUP15 DUP9 DUP2 MLOAD DUP2 LT PUSH2 0x1BA6 JUMPI PUSH2 0x1BA5 PUSH2 0x45CF JUMP JUMPDEST JUMPDEST PUSH1 0x20 MUL PUSH1 0x20 ADD ADD MLOAD PUSH2 0x2436 JUMP JUMPDEST POP DUP1 DUP7 DUP4 DUP2 MLOAD DUP2 LT PUSH2 0x1BC8 JUMPI PUSH2 0x1BC7 PUSH2 0x45CF JUMP JUMPDEST JUMPDEST PUSH1 0x20 MUL PUSH1 0x20 ADD ADD DUP2 DUP2 MSTORE POP POP POP DUP1 DUP1 PUSH1 0x1 ADD SWAP2 POP POP PUSH2 0x1A74 JUMP JUMPDEST POP POP POP SWAP5 POP SWAP5 SWAP3 POP POP POP JUMP JUMPDEST PUSH1 0x0 DUP1 PUSH2 0x1BF9 PUSH2 0x282E JUMP JUMPDEST SWAP1 POP DUP1 PUSH1 0x0 ADD PUSH1 0x0 DUP6 DUP2 MSTORE PUSH1 0x20 ADD SWAP1 DUP2 MSTORE PUSH1 0x20 ADD PUSH1 0x0 KECCAK256 PUSH1 0x0 ADD PUSH1 0x0 DUP5 PUSH20 0xFFFFFFFFFFFFFFFFFFFFFFFFFFFFFFFFFFFFFFFF AND PUSH20 0xFFFFFFFFFFFFFFFFFFFFFFFFFFFFFFFFFFFFFFFF AND DUP2 MSTORE PUSH1 0x20 ADD SWAP1 DUP2 MSTORE PUSH1 0x20 ADD PUSH1 0x0 KECCAK256 PUSH1 0x0 SWAP1 SLOAD SWAP1 PUSH2 0x100 EXP SWAP1 DIV PUSH1 0xFF AND SWAP2 POP POP SWAP3 SWAP2 POP POP JUMP JUMPDEST PUSH1 0x3 SLOAD DUP2 JUMP JUMPDEST PUSH1 0x0 DUP1 SHL DUP2 JUMP JUMPDEST PUSH1 0x0 PUSH2 0x1C7E PUSH2 0x235E JUMP JUMPDEST DUP2 PUSH1 0x5 PUSH1 0x0 DUP3 DUP2 MSTORE PUSH1 0x20 ADD SWAP1 DUP2 MSTORE PUSH1 0x20 ADD PUSH1 0x0 KECCAK256 PUSH1 0x0 SWAP1 SLOAD SWAP1 PUSH2 0x100 EXP SWAP1 DIV PUSH1 0xFF AND PUSH2 0x1CD6 JUMPI PUSH1 0x40 MLOAD PUSH32 0xD1514D2300000000000000000000000000000000000000000000000000000000 DUP2 MSTORE PUSH1 0x4 ADD PUSH1 0x40 MLOAD DUP1 SWAP2 SUB SWAP1 REVERT JUMPDEST PUSH2 0x1CDF DUP4 PUSH2 0x2421 JUMP JUMPDEST SWAP2 POP PUSH2 0x1CEE DUP6 DUP6 DUP6 DUP6 CALLER PUSH2 0x3039 JUMP JUMPDEST POP SWAP4 SWAP3 POP POP POP JUMP JUMPDEST PUSH1 0x5 PUSH1 0x20 MSTORE DUP1 PUSH1 0x0 MSTORE PUSH1 0x40 PUSH1 0x0 KECCAK256 PUSH1 0x0 SWAP2 POP SLOAD SWAP1 PUSH2 0x100 EXP SWAP1 DIV PUSH1 0xFF AND DUP2 JUMP JUMPDEST PUSH1 0x0 DUP1 PUSH2 0x1D21 PUSH2 0x235E JUMP JUMPDEST DUP4 PUSH1 0x5 PUSH1 0x0 DUP3 DUP2 MSTORE PUSH1 0x20 ADD SWAP1 DUP2 MSTORE PUSH1 0x20 ADD PUSH1 0x0 KECCAK256 PUSH1 0x0 SWAP1 SLOAD SWAP1 PUSH2 0x100 EXP SWAP1 DIV PUSH1 0xFF AND PUSH2 0x1D79 JUMPI PUSH1 0x40 MLOAD PUSH32 0xD1514D2300000000000000000000000000000000000000000000000000000000 DUP2 MSTORE PUSH1 0x4 ADD PUSH1 0x40 MLOAD DUP1 SWAP2 SUB SWAP1 REVERT JUMPDEST PUSH1 0x0 PUSH2 0x1D85 DUP9 DUP9 PUSH2 0x2A75 JUMP JUMPDEST DUP1 SWAP6 POP DUP2 SWAP3 POP POP POP DUP1 PUSH20 0xFFFFFFFFFFFFFFFFFFFFFFFFFFFFFFFFFFFFFFFF AND DUP9 PUSH20 0xFFFFFFFFFFFFFFFFFFFFFFFFFFFFFFFFFFFFFFFF AND CALLER PUSH20 0xFFFFFFFFFFFFFFFFFFFFFFFFFFFFFFFFFFFFFFFF AND PUSH32 0x91ABCBEDCAAD3EDA62EC73BE1F3B200F1BEEEB47768774D2AEBB0A196238E92D DUP11 DUP9 PUSH1 0x40 MLOAD PUSH2 0x1E03 SWAP3 SWAP2 SWAP1 PUSH2 0x3FB0 JUMP JUMPDEST PUSH1 0x40 MLOAD DUP1 SWAP2 SUB SWAP1 LOG4 PUSH2 0x1E14 DUP7 PUSH2 0x2421 JUMP JUMPDEST SWAP3 POP PUSH2 0x1E25 DUP9 DUP6 DUP9 DUP7 DUP10 PUSH1 0x0 PUSH2 0x2436 JUMP JUMPDEST POP POP POP SWAP5 POP SWAP5 SWAP3 POP POP POP JUMP JUMPDEST PUSH2 0x1E3A DUP3 PUSH2 0x99C JUMP JUMPDEST PUSH2 0x1E43 DUP2 PUSH2 0x2856 JUMP JUMPDEST PUSH2 0x1E4D DUP4 DUP4 PUSH2 0x2973 JUMP JUMPDEST POP POP POP POP JUMP JUMPDEST PUSH32 0x7CA588B5E450D40C42764EBA69CBB46460B25758BDA615268602D355E47BC5F2 PUSH2 0x1E7D DUP2 PUSH2 0x2856 JUMP JUMPDEST DUP2 ISZERO ISZERO PUSH1 0x5 PUSH1 0x0 DUP6 DUP2 MSTORE PUSH1 0x20 ADD SWAP1 DUP2 MSTORE PUSH1 0x20 ADD PUSH1 0x0 KECCAK256 PUSH1 0x0 SWAP1 SLOAD SWAP1 PUSH2 0x100 EXP SWAP1 DIV PUSH1 0xFF AND ISZERO ISZERO SUB PUSH2 0x1EDA JUMPI PUSH1 0x40 MLOAD PUSH32 0xB1B7455C00000000000000000000000000000000000000000000000000000000 DUP2 MSTORE PUSH1 0x4 ADD PUSH1 0x40 MLOAD DUP1 SWAP2 SUB SWAP1 REVERT JUMPDEST DUP2 PUSH1 0x5 PUSH1 0x0 DUP6 DUP2 MSTORE PUSH1 0x20 ADD SWAP1 DUP2 MSTORE PUSH1 0x20 ADD PUSH1 0x0 KECCAK256 PUSH1 0x0 PUSH2 0x100 EXP DUP2 SLOAD DUP2 PUSH1 0xFF MUL NOT AND SWAP1 DUP4 ISZERO ISZERO MUL OR SWAP1 SSTORE POP DUP2 ISZERO ISZERO DUP4 PUSH32 0x40C5BFB9D833B107D80745DD8B8CF040C9A1019F963291743FA1BC595D439646 PUSH1 0x40 MLOAD PUSH1 0x40 MLOAD DUP1 SWAP2 SUB SWAP1 LOG3 POP POP POP JUMP JUMPDEST PUSH1 0x0 PUSH2 0x1F44 PUSH2 0x235E JUMP JUMPDEST DUP3 PUSH1 0x5 PUSH1 0x0 DUP3 DUP2 MSTORE PUSH1 0x20 ADD SWAP1 DUP2 MSTORE PUSH1 0x20 ADD PUSH1 0x0 KECCAK256 PUSH1 0x0 SWAP1 SLOAD SWAP1 PUSH2 0x100 EXP SWAP1 DIV PUSH1 0xFF AND PUSH2 0x1F9C JUMPI PUSH1 0x40 MLOAD PUSH32 0xD1514D2300000000000000000000000000000000000000000000000000000000 DUP2 MSTORE PUSH1 0x4 ADD PUSH1 0x40 MLOAD DUP1 SWAP2 SUB SWAP1 REVERT JUMPDEST PUSH2 0x1FA5 DUP5 PUSH2 0x2421 JUMP JUMPDEST SWAP2 POP PUSH2 0x1FB4 DUP7 DUP7 DUP7 DUP6 DUP8 PUSH2 0x3039 JUMP JUMPDEST POP SWAP5 SWAP4 POP POP POP POP JUMP JUMPDEST PUSH1 0x4 PUSH1 0x20 MSTORE DUP1 PUSH1 0x0 MSTORE PUSH1 0x40 PUSH1 0x0 KECCAK256 PUSH1 0x0 SWAP2 POP SWAP1 POP DUP1 PUSH1 0x0 ADD PUSH1 0x0 SWAP1 SLOAD SWAP1 PUSH2 0x100 EXP SWAP1 DIV PUSH20 0xFFFFFFFFFFFFFFFFFFFFFFFFFFFFFFFFFFFFFFFF AND SWAP1 DUP1 PUSH1 0x1 ADD PUSH1 0x0 SWAP1 SLOAD SWAP1 PUSH2 0x100 EXP SWAP1 DIV PUSH20 0xFFFFFFFFFFFFFFFFFFFFFFFFFFFFFFFFFFFFFFFF AND SWAP1 DUP1 PUSH1 0x2 ADD PUSH1 0x0 SWAP1 SLOAD SWAP1 PUSH2 0x100 EXP SWAP1 DIV PUSH20 0xFFFFFFFFFFFFFFFFFFFFFFFFFFFFFFFFFFFFFFFF AND SWAP1 DUP1 PUSH1 0x3 ADD SLOAD SWAP1 DUP1 PUSH1 0x4 ADD SLOAD SWAP1 DUP1 PUSH1 0x5 ADD SLOAD SWAP1 POP DUP7 JUMP JUMPDEST PUSH1 0x1 PUSH1 0x0 SWAP1 SLOAD SWAP1 PUSH2 0x100 EXP SWAP1 DIV PUSH20 0xFFFFFFFFFFFFFFFFFFFFFFFFFFFFFFFFFFFFFFFF AND DUP2 JUMP JUMPDEST PUSH1 0x0 PUSH2 0x2089 PUSH2 0x319A JUMP JUMPDEST SWAP1 POP PUSH1 0x0 DUP2 PUSH1 0x0 ADD PUSH1 0x8 SWAP1 SLOAD SWAP1 PUSH2 0x100 EXP SWAP1 DIV PUSH1 0xFF AND ISZERO SWAP1 POP PUSH1 0x0 DUP3 PUSH1 0x0 ADD PUSH1 0x0 SWAP1 SLOAD SWAP1 PUSH2 0x100 EXP SWAP1 DIV PUSH8 0xFFFFFFFFFFFFFFFF AND SWAP1 POP PUSH1 0x0 DUP1 DUP3 PUSH8 0xFFFFFFFFFFFFFFFF AND EQ DUP1 ISZERO PUSH2 0x20D7 JUMPI POP DUP3 JUMPDEST SWAP1 POP PUSH1 0x0 PUSH1 0x1 DUP4 PUSH8 0xFFFFFFFFFFFFFFFF AND EQ DUP1 ISZERO PUSH2 0x210C JUMPI POP PUSH1 0x0 ADDRESS PUSH20 0xFFFFFFFFFFFFFFFFFFFFFFFFFFFFFFFFFFFFFFFF AND EXTCODESIZE EQ JUMPDEST SWAP1 POP DUP2 ISZERO DUP1 ISZERO PUSH2 0x211A JUMPI POP DUP1 ISZERO JUMPDEST ISZERO PUSH2 0x2151 JUMPI PUSH1 0x40 MLOAD PUSH32 0xF92EE8A900000000000000000000000000000000000000000000000000000000 DUP2 MSTORE PUSH1 0x4 ADD PUSH1 0x40 MLOAD DUP1 SWAP2 SUB SWAP1 REVERT JUMPDEST PUSH1 0x1 DUP6 PUSH1 0x0 ADD PUSH1 0x0 PUSH2 0x100 EXP DUP2 SLOAD DUP2 PUSH8 0xFFFFFFFFFFFFFFFF MUL NOT AND SWAP1 DUP4 PUSH8 0xFFFFFFFFFFFFFFFF AND MUL OR SWAP1 SSTORE POP DUP4 ISZERO PUSH2 0x21A1 JUMPI PUSH1 0x1 DUP6 PUSH1 0x0 ADD PUSH1 0x8 PUSH2 0x100 EXP DUP2 SLOAD DUP2 PUSH1 0xFF MUL NOT AND SWAP1 DUP4 ISZERO ISZERO MUL OR SWAP1 SSTORE POP JUMPDEST PUSH2 0x21A9 PUSH2 0x31C2 JUMP JUMPDEST PUSH2 0x21B1 PUSH2 0x31CC JUMP JUMPDEST PUSH2 0x21BD DUP10 DUP10 DUP10 DUP10 PUSH2 0x31DE JUMP JUMPDEST DUP9 PUSH1 0x0 DUP1 PUSH2 0x100 EXP DUP2 SLOAD DUP2 PUSH20 0xFFFFFFFFFFFFFFFFFFFFFFFFFFFFFFFFFFFFFFFF MUL NOT AND SWAP1 DUP4 PUSH20 0xFFFFFFFFFFFFFFFFFFFFFFFFFFFFFFFFFFFFFFFF AND MUL OR SWAP1 SSTORE POP DUP8 PUSH1 0x1 PUSH1 0x0 PUSH2 0x100 EXP DUP2 SLOAD DUP2 PUSH20 0xFFFFFFFFFFFFFFFFFFFFFFFFFFFFFFFFFFFFFFFF MUL NOT AND SWAP1 DUP4 PUSH20 0xFFFFFFFFFFFFFFFFFFFFFFFFFFFFFFFFFFFFFFFF AND MUL OR SWAP1 SSTORE POP DUP7 PUSH1 0x2 PUSH1 0x0 PUSH2 0x100 EXP DUP2 SLOAD DUP2 PUSH20 0xFFFFFFFFFFFFFFFFFFFFFFFFFFFFFFFFFFFFFFFF MUL NOT AND SWAP1 DUP4 PUSH20 0xFFFFFFFFFFFFFFFFFFFFFFFFFFFFFFFFFFFFFFFF AND MUL OR SWAP1 SSTORE POP PUSH2 0x228C PUSH1 0x0 DUP1 SHL DUP8 PUSH2 0x286A JUMP JUMPDEST POP DUP4 ISZERO PUSH2 0x22E9 JUMPI PUSH1 0x0 DUP6 PUSH1 0x0 ADD PUSH1 0x8 PUSH2 0x100 EXP DUP2 SLOAD DUP2 PUSH1 0xFF MUL NOT AND SWAP1 DUP4 ISZERO ISZERO MUL OR SWAP1 SSTORE POP PUSH32 0xC7F505B2F371AE2175EE4913F4499E1F2633A7B5936321EED1CDAEB6115181D2 PUSH1 0x1 PUSH1 0x40 MLOAD PUSH2 0x22E0 SWAP2 SWAP1 PUSH2 0x46B0 JUMP JUMPDEST PUSH1 0x40 MLOAD DUP1 SWAP2 SUB SWAP1 LOG1 JUMPDEST POP POP POP POP POP POP POP POP POP JUMP JUMPDEST PUSH1 0x0 PUSH32 0x1FFC9A700000000000000000000000000000000000000000000000000000000 PUSH28 0xFFFFFFFFFFFFFFFFFFFFFFFFFFFFFFFFFFFFFFFFFFFFFFFFFFFFFFFF NOT AND DUP3 PUSH28 0xFFFFFFFFFFFFFFFFFFFFFFFFFFFFFFFFFFFFFFFFFFFFFFFFFFFFFFFF NOT AND EQ SWAP1 POP SWAP2 SWAP1 POP JUMP JUMPDEST PUSH2 0x2366 PUSH2 0x1052 JUMP JUMPDEST ISZERO PUSH2 0x239D JUMPI PUSH1 0x40 MLOAD PUSH32 0xD93C066500000000000000000000000000000000000000000000000000000000 DUP2 MSTORE PUSH1 0x4 ADD PUSH1 0x40 MLOAD DUP1 SWAP2 SUB SWAP1 REVERT JUMPDEST JUMP JUMPDEST PUSH2 0x241B DUP5 DUP6 PUSH20 0xFFFFFFFFFFFFFFFFFFFFFFFFFFFFFFFFFFFFFFFF AND PUSH4 0x23B872DD DUP7 DUP7 DUP7 PUSH1 0x40 MLOAD PUSH1 0x24 ADD PUSH2 0x23D4 SWAP4 SWAP3 SWAP2 SWAP1 PUSH2 0x46CB JUMP JUMPDEST PUSH1 0x40 MLOAD PUSH1 0x20 DUP2 DUP4 SUB SUB DUP2 MSTORE SWAP1 PUSH1 0x40 MSTORE SWAP2 POP PUSH1 0xE0 SHL PUSH1 0x20 DUP3 ADD DUP1 MLOAD PUSH28 0xFFFFFFFFFFFFFFFFFFFFFFFFFFFFFFFFFFFFFFFFFFFFFFFFFFFFFFFF DUP4 DUP2 DUP4 AND OR DUP4 MSTORE POP POP POP POP PUSH2 0x32E4 JUMP JUMPDEST POP POP POP POP JUMP JUMPDEST PUSH1 0x0 DUP2 TIMESTAMP PUSH2 0x242F SWAP2 SWAP1 PUSH2 0x462D JUMP JUMPDEST SWAP1 POP SWAP2 SWAP1 POP JUMP JUMPDEST PUSH1 0x0 PUSH2 0x2441 DUP8 PUSH2 0x337B JUMP JUMPDEST ISZERO PUSH2 0x2478 JUMPI PUSH1 0x40 MLOAD PUSH32 0x9FE3C35800000000000000000000000000000000000000000000000000000000 DUP2 MSTORE PUSH1 0x4 ADD PUSH1 0x40 MLOAD DUP1 SWAP2 SUB SWAP1 REVERT JUMPDEST PUSH1 0x0 DUP7 SUB PUSH2 0x24B2 JUMPI PUSH1 0x40 MLOAD PUSH32 0x202E8E6100000000000000000000000000000000000000000000000000000000 DUP2 MSTORE PUSH1 0x4 ADD PUSH1 0x40 MLOAD DUP1 SWAP2 SUB SWAP1 REVERT JUMPDEST PUSH2 0x24BB DUP4 PUSH2 0x337B JUMP JUMPDEST ISZERO PUSH2 0x24F2 JUMPI PUSH1 0x40 MLOAD PUSH32 0x5006D25A00000000000000000000000000000000000000000000000000000000 DUP2 MSTORE PUSH1 0x4 ADD PUSH1 0x40 MLOAD DUP1 SWAP2 SUB SWAP1 REVERT JUMPDEST PUSH1 0x0 DUP1 SLOAD SWAP1 PUSH2 0x100 EXP SWAP1 DIV PUSH20 0xFFFFFFFFFFFFFFFFFFFFFFFFFFFFFFFFFFFFFFFF AND PUSH20 0xFFFFFFFFFFFFFFFFFFFFFFFFFFFFFFFFFFFFFFFF AND PUSH4 0xE4860339 DUP9 PUSH1 0x40 MLOAD DUP3 PUSH4 0xFFFFFFFF AND PUSH1 0xE0 SHL DUP2 MSTORE PUSH1 0x4 ADD PUSH2 0x254B SWAP2 SWAP1 PUSH2 0x4702 JUMP JUMPDEST PUSH1 0x20 PUSH1 0x40 MLOAD DUP1 DUP4 SUB DUP2 DUP7 GAS STATICCALL ISZERO DUP1 ISZERO PUSH2 0x2568 JUMPI RETURNDATASIZE PUSH1 0x0 DUP1 RETURNDATACOPY RETURNDATASIZE PUSH1 0x0 REVERT JUMPDEST POP POP POP POP PUSH1 0x40 MLOAD RETURNDATASIZE PUSH1 0x1F NOT PUSH1 0x1F DUP3 ADD AND DUP3 ADD DUP1 PUSH1 0x40 MSTORE POP DUP2 ADD SWAP1 PUSH2 0x258C SWAP2 SWAP1 PUSH2 0x4732 JUMP JUMPDEST SWAP1 POP PUSH1 0x0 PUSH20 0xFFFFFFFFFFFFFFFFFFFFFFFFFFFFFFFFFFFFFFFF AND DUP2 PUSH20 0xFFFFFFFFFFFFFFFFFFFFFFFFFFFFFFFFFFFFFFFF AND SUB PUSH2 0x25F4 JUMPI PUSH1 0x40 MLOAD PUSH32 0x94C08C6000000000000000000000000000000000000000000000000000000000 DUP2 MSTORE PUSH1 0x4 ADD PUSH1 0x40 MLOAD DUP1 SWAP2 SUB SWAP1 REVERT JUMPDEST PUSH1 0x0 PUSH1 0x3 PUSH1 0x0 DUP2 SLOAD DUP1 SWAP3 SWAP2 SWAP1 PUSH2 0x2609 SWAP1 PUSH2 0x475F JUMP JUMPDEST SWAP2 SWAP1 POP SSTORE SWAP1 POP PUSH1 0x0 PUSH1 0x40 MLOAD DUP1 PUSH1 0xC0 ADD PUSH1 0x40 MSTORE DUP1 DUP7 PUSH20 0xFFFFFFFFFFFFFFFFFFFFFFFFFFFFFFFFFFFFFFFF AND DUP2 MSTORE PUSH1 0x20 ADD DUP11 PUSH20 0xFFFFFFFFFFFFFFFFFFFFFFFFFFFFFFFFFFFFFFFF AND DUP2 MSTORE PUSH1 0x20 ADD DUP5 PUSH20 0xFFFFFFFFFFFFFFFFFFFFFFFFFFFFFFFFFFFFFFFF AND DUP2 MSTORE PUSH1 0x20 ADD DUP8 DUP2 MSTORE PUSH1 0x20 ADD DUP10 DUP2 MSTORE PUSH1 0x20 ADD DUP9 DUP2 MSTORE POP SWAP1 POP DUP1 PUSH1 0x4 PUSH1 0x0 DUP5 DUP2 MSTORE PUSH1 0x20 ADD SWAP1 DUP2 MSTORE PUSH1 0x20 ADD PUSH1 0x0 KECCAK256 PUSH1 0x0 DUP3 ADD MLOAD DUP2 PUSH1 0x0 ADD PUSH1 0x0 PUSH2 0x100 EXP DUP2 SLOAD DUP2 PUSH20 0xFFFFFFFFFFFFFFFFFFFFFFFFFFFFFFFFFFFFFFFF MUL NOT AND SWAP1 DUP4 PUSH20 0xFFFFFFFFFFFFFFFFFFFFFFFFFFFFFFFFFFFFFFFF AND MUL OR SWAP1 SSTORE POP PUSH1 0x20 DUP3 ADD MLOAD DUP2 PUSH1 0x1 ADD PUSH1 0x0 PUSH2 0x100 EXP DUP2 SLOAD DUP2 PUSH20 0xFFFFFFFFFFFFFFFFFFFFFFFFFFFFFFFFFFFFFFFF MUL NOT AND SWAP1 DUP4 PUSH20 0xFFFFFFFFFFFFFFFFFFFFFFFFFFFFFFFFFFFFFFFF AND MUL OR SWAP1 SSTORE POP PUSH1 0x40 DUP3 ADD MLOAD DUP2 PUSH1 0x2 ADD PUSH1 0x0 PUSH2 0x100 EXP DUP2 SLOAD DUP2 PUSH20 0xFFFFFFFFFFFFFFFFFFFFFFFFFFFFFFFFFFFFFFFF MUL NOT AND SWAP1 DUP4 PUSH20 0xFFFFFFFFFFFFFFFFFFFFFFFFFFFFFFFFFFFFFFFF AND MUL OR SWAP1 SSTORE POP PUSH1 0x60 DUP3 ADD MLOAD DUP2 PUSH1 0x3 ADD SSTORE PUSH1 0x80 DUP3 ADD MLOAD DUP2 PUSH1 0x4 ADD SSTORE PUSH1 0xA0 DUP3 ADD MLOAD DUP2 PUSH1 0x5 ADD SSTORE SWAP1 POP POP DUP3 PUSH20 0xFFFFFFFFFFFFFFFFFFFFFFFFFFFFFFFFFFFFFFFF AND DUP10 PUSH20 0xFFFFFFFFFFFFFFFFFFFFFFFFFFFFFFFFFFFFFFFF AND DUP7 PUSH20 0xFFFFFFFFFFFFFFFFFFFFFFFFFFFFFFFFFFFFFFFF AND PUSH32 0x3A199FAD2706CA50FE2D207D8F1C2E37B04C6B8C3E9F88EC9917DFC18E4A4B34 DUP6 DUP13 DUP12 DUP14 PUSH1 0x0 DUP13 EQ PUSH2 0x2804 JUMPI CALLER PUSH2 0x2807 JUMP JUMPDEST PUSH1 0x0 JUMPDEST DUP13 PUSH1 0x40 MLOAD PUSH2 0x281A SWAP7 SWAP6 SWAP5 SWAP4 SWAP3 SWAP2 SWAP1 PUSH2 0x47A7 JUMP JUMPDEST PUSH1 0x40 MLOAD DUP1 SWAP2 SUB SWAP1 LOG4 POP POP SWAP7 SWAP6 POP POP POP POP POP POP JUMP JUMPDEST PUSH1 0x0 PUSH32 0x2DD7BC7DEC4DCEEDDA775E58DD541E08A116C6C53815C0BD028192F7B626800 SWAP1 POP SWAP1 JUMP JUMPDEST PUSH2 0x2867 DUP2 PUSH2 0x2862 PUSH2 0x296B JUMP JUMPDEST PUSH2 0x33B3 JUMP JUMPDEST POP JUMP JUMPDEST PUSH1 0x0 DUP1 PUSH2 0x2875 PUSH2 0x282E JUMP JUMPDEST SWAP1 POP PUSH2 0x2881 DUP5 DUP5 PUSH2 0x1BEE JUMP JUMPDEST PUSH2 0x295F JUMPI PUSH1 0x1 DUP2 PUSH1 0x0 ADD PUSH1 0x0 DUP7 DUP2 MSTORE PUSH1 0x20 ADD SWAP1 DUP2 MSTORE PUSH1 0x20 ADD PUSH1 0x0 KECCAK256 PUSH1 0x0 ADD PUSH1 0x0 DUP6 PUSH20 0xFFFFFFFFFFFFFFFFFFFFFFFFFFFFFFFFFFFFFFFF AND PUSH20 0xFFFFFFFFFFFFFFFFFFFFFFFFFFFFFFFFFFFFFFFF AND DUP2 MSTORE PUSH1 0x20 ADD SWAP1 DUP2 MSTORE PUSH1 0x20 ADD PUSH1 0x0 KECCAK256 PUSH1 0x0 PUSH2 0x100 EXP DUP2 SLOAD DUP2 PUSH1 0xFF MUL NOT AND SWAP1 DUP4 ISZERO ISZERO MUL OR SWAP1 SSTORE POP PUSH2 0x28FB PUSH2 0x296B JUMP JUMPDEST PUSH20 0xFFFFFFFFFFFFFFFFFFFFFFFFFFFFFFFFFFFFFFFF AND DUP4 PUSH20 0xFFFFFFFFFFFFFFFFFFFFFFFFFFFFFFFFFFFFFFFF AND DUP6 PUSH32 0x2F8788117E7EFF1D82E926EC794901D17C78024A50270940304540A733656F0D PUSH1 0x40 MLOAD PUSH1 0x40 MLOAD DUP1 SWAP2 SUB SWAP1 LOG4 PUSH1 0x1 SWAP2 POP POP PUSH2 0x2965 JUMP JUMPDEST PUSH1 0x0 SWAP2 POP POP JUMPDEST SWAP3 SWAP2 POP POP JUMP JUMPDEST PUSH1 0x0 CALLER SWAP1 POP SWAP1 JUMP JUMPDEST PUSH1 0x0 DUP1 PUSH2 0x297E PUSH2 0x282E JUMP JUMPDEST SWAP1 POP PUSH2 0x298A DUP5 DUP5 PUSH2 0x1BEE JUMP JUMPDEST ISZERO PUSH2 0x2A69 JUMPI PUSH1 0x0 DUP2 PUSH1 0x0 ADD PUSH1 0x0 DUP7 DUP2 MSTORE PUSH1 0x20 ADD SWAP1 DUP2 MSTORE PUSH1 0x20 ADD PUSH1 0x0 KECCAK256 PUSH1 0x0 ADD PUSH1 0x0 DUP6 PUSH20 0xFFFFFFFFFFFFFFFFFFFFFFFFFFFFFFFFFFFFFFFF AND PUSH20 0xFFFFFFFFFFFFFFFFFFFFFFFFFFFFFFFFFFFFFFFF AND DUP2 MSTORE PUSH1 0x20 ADD SWAP1 DUP2 MSTORE PUSH1 0x20 ADD PUSH1 0x0 KECCAK256 PUSH1 0x0 PUSH2 0x100 EXP DUP2 SLOAD DUP2 PUSH1 0xFF MUL NOT AND SWAP1 DUP4 ISZERO ISZERO MUL OR SWAP1 SSTORE POP PUSH2 0x2A05 PUSH2 0x296B JUMP JUMPDEST PUSH20 0xFFFFFFFFFFFFFFFFFFFFFFFFFFFFFFFFFFFFFFFF AND DUP4 PUSH20 0xFFFFFFFFFFFFFFFFFFFFFFFFFFFFFFFFFFFFFFFF AND DUP6 PUSH32 0xF6391F5C32D9C69D2A47EA670B442974B53935D1EDC7FD64EB21E047A839171B PUSH1 0x40 MLOAD PUSH1 0x40 MLOAD DUP1 SWAP2 SUB SWAP1 LOG4 PUSH1 0x1 SWAP2 POP POP PUSH2 0x2A6F JUMP JUMPDEST PUSH1 0x0 SWAP2 POP POP JUMPDEST SWAP3 SWAP2 POP POP JUMP JUMPDEST PUSH1 0x0 DUP1 PUSH2 0x2A81 DUP5 PUSH2 0x337B JUMP JUMPDEST ISZERO PUSH2 0x2AB8 JUMPI PUSH1 0x40 MLOAD PUSH32 0x9FE3C35800000000000000000000000000000000000000000000000000000000 DUP2 MSTORE PUSH1 0x4 ADD PUSH1 0x40 MLOAD DUP1 SWAP2 SUB SWAP1 REVERT JUMPDEST PUSH1 0x0 DUP4 MLOAD SUB PUSH2 0x2AF3 JUMPI PUSH1 0x40 MLOAD PUSH32 0xB2140A3A00000000000000000000000000000000000000000000000000000000 DUP2 MSTORE PUSH1 0x4 ADD PUSH1 0x40 MLOAD DUP1 SWAP2 SUB SWAP1 REVERT JUMPDEST PUSH1 0x0 PUSH1 0x4 PUSH1 0x0 DUP6 PUSH1 0x0 DUP2 MLOAD DUP2 LT PUSH2 0x2B0D JUMPI PUSH2 0x2B0C PUSH2 0x45CF JUMP JUMPDEST JUMPDEST PUSH1 0x20 MUL PUSH1 0x20 ADD ADD MLOAD DUP2 MSTORE PUSH1 0x20 ADD SWAP1 DUP2 MSTORE PUSH1 0x20 ADD PUSH1 0x0 KECCAK256 PUSH1 0x40 MLOAD DUP1 PUSH1 0xC0 ADD PUSH1 0x40 MSTORE SWAP1 DUP2 PUSH1 0x0 DUP3 ADD PUSH1 0x0 SWAP1 SLOAD SWAP1 PUSH2 0x100 EXP SWAP1 DIV PUSH20 0xFFFFFFFFFFFFFFFFFFFFFFFFFFFFFFFFFFFFFFFF AND PUSH20 0xFFFFFFFFFFFFFFFFFFFFFFFFFFFFFFFFFFFFFFFF AND PUSH20 0xFFFFFFFFFFFFFFFFFFFFFFFFFFFFFFFFFFFFFFFF AND DUP2 MSTORE PUSH1 0x20 ADD PUSH1 0x1 DUP3 ADD PUSH1 0x0 SWAP1 SLOAD SWAP1 PUSH2 0x100 EXP SWAP1 DIV PUSH20 0xFFFFFFFFFFFFFFFFFFFFFFFFFFFFFFFFFFFFFFFF AND PUSH20 0xFFFFFFFFFFFFFFFFFFFFFFFFFFFFFFFFFFFFFFFF AND PUSH20 0xFFFFFFFFFFFFFFFFFFFFFFFFFFFFFFFFFFFFFFFF AND DUP2 MSTORE PUSH1 0x20 ADD PUSH1 0x2 DUP3 ADD PUSH1 0x0 SWAP1 SLOAD SWAP1 PUSH2 0x100 EXP SWAP1 DIV PUSH20 0xFFFFFFFFFFFFFFFFFFFFFFFFFFFFFFFFFFFFFFFF AND PUSH20 0xFFFFFFFFFFFFFFFFFFFFFFFFFFFFFFFFFFFFFFFF AND PUSH20 0xFFFFFFFFFFFFFFFFFFFFFFFFFFFFFFFFFFFFFFFF AND DUP2 MSTORE PUSH1 0x20 ADD PUSH1 0x3 DUP3 ADD SLOAD DUP2 MSTORE PUSH1 0x20 ADD PUSH1 0x4 DUP3 ADD SLOAD DUP2 MSTORE PUSH1 0x20 ADD PUSH1 0x5 DUP3 ADD SLOAD DUP2 MSTORE POP POP SWAP1 POP DUP1 PUSH1 0x40 ADD MLOAD SWAP3 POP PUSH1 0x0 JUMPDEST DUP5 MLOAD DUP2 LT ISZERO PUSH2 0x2FBE JUMPI PUSH1 0x0 DUP6 DUP3 DUP2 MLOAD DUP2 LT PUSH2 0x2C78 JUMPI PUSH2 0x2C77 PUSH2 0x45CF JUMP JUMPDEST JUMPDEST PUSH1 0x20 MUL PUSH1 0x20 ADD ADD MLOAD SWAP1 POP PUSH1 0x4 PUSH1 0x0 DUP3 DUP2 MSTORE PUSH1 0x20 ADD SWAP1 DUP2 MSTORE PUSH1 0x20 ADD PUSH1 0x0 KECCAK256 PUSH1 0x40 MLOAD DUP1 PUSH1 0xC0 ADD PUSH1 0x40 MSTORE SWAP1 DUP2 PUSH1 0x0 DUP3 ADD PUSH1 0x0 SWAP1 SLOAD SWAP1 PUSH2 0x100 EXP SWAP1 DIV PUSH20 0xFFFFFFFFFFFFFFFFFFFFFFFFFFFFFFFFFFFFFFFF AND PUSH20 0xFFFFFFFFFFFFFFFFFFFFFFFFFFFFFFFFFFFFFFFF AND PUSH20 0xFFFFFFFFFFFFFFFFFFFFFFFFFFFFFFFFFFFFFFFF AND DUP2 MSTORE PUSH1 0x20 ADD PUSH1 0x1 DUP3 ADD PUSH1 0x0 SWAP1 SLOAD SWAP1 PUSH2 0x100 EXP SWAP1 DIV PUSH20 0xFFFFFFFFFFFFFFFFFFFFFFFFFFFFFFFFFFFFFFFF AND PUSH20 0xFFFFFFFFFFFFFFFFFFFFFFFFFFFFFFFFFFFFFFFF AND PUSH20 0xFFFFFFFFFFFFFFFFFFFFFFFFFFFFFFFFFFFFFFFF AND DUP2 MSTORE PUSH1 0x20 ADD PUSH1 0x2 DUP3 ADD PUSH1 0x0 SWAP1 SLOAD SWAP1 PUSH2 0x100 EXP SWAP1 DIV PUSH20 0xFFFFFFFFFFFFFFFFFFFFFFFFFFFFFFFFFFFFFFFF AND PUSH20 0xFFFFFFFFFFFFFFFFFFFFFFFFFFFFFFFFFFFFFFFF AND PUSH20 0xFFFFFFFFFFFFFFFFFFFFFFFFFFFFFFFFFFFFFFFF AND DUP2 MSTORE PUSH1 0x20 ADD PUSH1 0x3 DUP3 ADD SLOAD DUP2 MSTORE PUSH1 0x20 ADD PUSH1 0x4 DUP3 ADD SLOAD DUP2 MSTORE PUSH1 0x20 ADD PUSH1 0x5 DUP3 ADD SLOAD DUP2 MSTORE POP POP SWAP3 POP DUP7 PUSH20 0xFFFFFFFFFFFFFFFFFFFFFFFFFFFFFFFFFFFFFFFF AND DUP4 PUSH1 0x20 ADD MLOAD PUSH20 0xFFFFFFFFFFFFFFFFFFFFFFFFFFFFFFFFFFFFFFFF AND EQ PUSH2 0x2E36 JUMPI DUP1 PUSH1 0x40 MLOAD PUSH32 0xB5E6545C00000000000000000000000000000000000000000000000000000000 DUP2 MSTORE PUSH1 0x4 ADD PUSH2 0x2E2D SWAP2 SWAP1 PUSH2 0x3D7D JUMP JUMPDEST PUSH1 0x40 MLOAD DUP1 SWAP2 SUB SWAP1 REVERT JUMPDEST TIMESTAMP DUP4 PUSH1 0x60 ADD MLOAD GT ISZERO PUSH2 0x2E87 JUMPI DUP1 TIMESTAMP DUP5 PUSH1 0x60 ADD MLOAD PUSH1 0x40 MLOAD PUSH32 0xFE6A6FA200000000000000000000000000000000000000000000000000000000 DUP2 MSTORE PUSH1 0x4 ADD PUSH2 0x2E7E SWAP4 SWAP3 SWAP2 SWAP1 PUSH2 0x4808 JUMP JUMPDEST PUSH1 0x40 MLOAD DUP1 SWAP2 SUB SWAP1 REVERT JUMPDEST CALLER PUSH20 0xFFFFFFFFFFFFFFFFFFFFFFFFFFFFFFFFFFFFFFFF AND DUP4 PUSH1 0x0 ADD MLOAD PUSH20 0xFFFFFFFFFFFFFFFFFFFFFFFFFFFFFFFFFFFFFFFF AND EQ PUSH2 0x2EFB JUMPI DUP1 PUSH1 0x40 MLOAD PUSH32 0xC87A586A00000000000000000000000000000000000000000000000000000000 DUP2 MSTORE PUSH1 0x4 ADD PUSH2 0x2EF2 SWAP2 SWAP1 PUSH2 0x3D7D JUMP JUMPDEST PUSH1 0x40 MLOAD DUP1 SWAP2 SUB SWAP1 REVERT JUMPDEST DUP3 PUSH1 0x80 ADD MLOAD DUP5 PUSH2 0x2F0B SWAP2 SWAP1 PUSH2 0x462D JUMP JUMPDEST SWAP4 POP PUSH1 0x4 PUSH1 0x0 DUP3 DUP2 MSTORE PUSH1 0x20 ADD SWAP1 DUP2 MSTORE PUSH1 0x20 ADD PUSH1 0x0 KECCAK256 PUSH1 0x0 DUP1 DUP3 ADD PUSH1 0x0 PUSH2 0x100 EXP DUP2 SLOAD SWAP1 PUSH20 0xFFFFFFFFFFFFFFFFFFFFFFFFFFFFFFFFFFFFFFFF MUL NOT AND SWAP1 SSTORE PUSH1 0x1 DUP3 ADD PUSH1 0x0 PUSH2 0x100 EXP DUP2 SLOAD SWAP1 PUSH20 0xFFFFFFFFFFFFFFFFFFFFFFFFFFFFFFFFFFFFFFFF MUL NOT AND SWAP1 SSTORE PUSH1 0x2 DUP3 ADD PUSH1 0x0 PUSH2 0x100 EXP DUP2 SLOAD SWAP1 PUSH20 0xFFFFFFFFFFFFFFFFFFFFFFFFFFFFFFFFFFFFFFFF MUL NOT AND SWAP1 SSTORE PUSH1 0x3 DUP3 ADD PUSH1 0x0 SWAP1 SSTORE PUSH1 0x4 DUP3 ADD PUSH1 0x0 SWAP1 SSTORE PUSH1 0x5 DUP3 ADD PUSH1 0x0 SWAP1 SSTORE POP POP POP DUP1 DUP1 PUSH1 0x1 ADD SWAP2 POP POP PUSH2 0x2C5A JUMP JUMPDEST POP POP SWAP3 POP SWAP3 SWAP1 POP JUMP JUMPDEST PUSH2 0x2FCF PUSH2 0x3404 JUMP JUMPDEST PUSH1 0x0 PUSH2 0x2FD9 PUSH2 0x3081 JUMP JUMPDEST SWAP1 POP PUSH1 0x0 DUP2 PUSH1 0x0 ADD PUSH1 0x0 PUSH2 0x100 EXP DUP2 SLOAD DUP2 PUSH1 0xFF MUL NOT AND SWAP1 DUP4 ISZERO ISZERO MUL OR SWAP1 SSTORE POP PUSH32 0x5DB9EE0A495BF2E6FF9C91A7834C1BA4FDD244A5E8AA4E537BD38AEAE4B073AA PUSH2 0x3021 PUSH2 0x296B JUMP JUMPDEST PUSH1 0x40 MLOAD PUSH2 0x302E SWAP2 SWAP1 PUSH2 0x4702 JUMP JUMPDEST PUSH1 0x40 MLOAD DUP1 SWAP2 SUB SWAP1 LOG1 POP JUMP JUMPDEST PUSH1 0x0 PUSH2 0x304A DUP7 DUP7 DUP7 DUP7 DUP7 PUSH1 0x0 PUSH2 0x2436 JUMP JUMPDEST SWAP1 POP PUSH2 0x3079 CALLER ADDRESS DUP8 DUP5 PUSH20 0xFFFFFFFFFFFFFFFFFFFFFFFFFFFFFFFFFFFFFFFF AND PUSH2 0x239F SWAP1 SWAP4 SWAP3 SWAP2 SWAP1 PUSH4 0xFFFFFFFF AND JUMP JUMPDEST POP POP POP POP POP POP JUMP JUMPDEST PUSH1 0x0 PUSH32 0xCD5ED15C6E187E77E9AEE88184C21F4F2182AB5827CB3B7E07FBEDCD63F03300 SWAP1 POP SWAP1 JUMP JUMPDEST PUSH2 0x3123 DUP4 DUP5 PUSH20 0xFFFFFFFFFFFFFFFFFFFFFFFFFFFFFFFFFFFFFFFF AND PUSH4 0xA9059CBB DUP6 DUP6 PUSH1 0x40 MLOAD PUSH1 0x24 ADD PUSH2 0x30DC SWAP3 SWAP2 SWAP1 PUSH2 0x44EB JUMP JUMPDEST PUSH1 0x40 MLOAD PUSH1 0x20 DUP2 DUP4 SUB SUB DUP2 MSTORE SWAP1 PUSH1 0x40 MSTORE SWAP2 POP PUSH1 0xE0 SHL PUSH1 0x20 DUP3 ADD DUP1 MLOAD PUSH28 0xFFFFFFFFFFFFFFFFFFFFFFFFFFFFFFFFFFFFFFFFFFFFFFFFFFFFFFFF DUP4 DUP2 DUP4 AND OR DUP4 MSTORE POP POP POP POP PUSH2 0x32E4 JUMP JUMPDEST POP POP POP JUMP JUMPDEST PUSH2 0x3130 PUSH2 0x235E JUMP JUMPDEST PUSH1 0x0 PUSH2 0x313A PUSH2 0x3081 JUMP JUMPDEST SWAP1 POP PUSH1 0x1 DUP2 PUSH1 0x0 ADD PUSH1 0x0 PUSH2 0x100 EXP DUP2 SLOAD DUP2 PUSH1 0xFF MUL NOT AND SWAP1 DUP4 ISZERO ISZERO MUL OR SWAP1 SSTORE POP PUSH32 0x62E78CEA01BEE320CD4E420270B5EA74000D11B0C9F74754EBDBFC544B05A258 PUSH2 0x3182 PUSH2 0x296B JUMP JUMPDEST PUSH1 0x40 MLOAD PUSH2 0x318F SWAP2 SWAP1 PUSH2 0x4702 JUMP JUMPDEST PUSH1 0x40 MLOAD DUP1 SWAP2 SUB SWAP1 LOG1 POP JUMP JUMPDEST PUSH1 0x0 PUSH32 0xF0C57E16840DF040F15088DC2F81FE391C3923BEC73E23A9662EFC9C229C6A00 SWAP1 POP SWAP1 JUMP JUMPDEST PUSH2 0x31CA PUSH2 0x3444 JUMP JUMPDEST JUMP JUMPDEST PUSH2 0x31D4 PUSH2 0x3444 JUMP JUMPDEST PUSH2 0x31DC PUSH2 0x3484 JUMP JUMPDEST JUMP JUMPDEST PUSH2 0x31E7 DUP5 PUSH2 0x337B JUMP JUMPDEST ISZERO PUSH2 0x321E JUMPI PUSH1 0x40 MLOAD PUSH32 0xF1FD26D00000000000000000000000000000000000000000000000000000000 DUP2 MSTORE PUSH1 0x4 ADD PUSH1 0x40 MLOAD DUP1 SWAP2 SUB SWAP1 REVERT JUMPDEST PUSH2 0x3227 DUP4 PUSH2 0x337B JUMP JUMPDEST ISZERO PUSH2 0x325E JUMPI PUSH1 0x40 MLOAD PUSH32 0x788A8B9300000000000000000000000000000000000000000000000000000000 DUP2 MSTORE PUSH1 0x4 ADD PUSH1 0x40 MLOAD DUP1 SWAP2 SUB SWAP1 REVERT JUMPDEST PUSH2 0x3267 DUP3 PUSH2 0x337B JUMP JUMPDEST ISZERO PUSH2 0x329E JUMPI PUSH1 0x40 MLOAD PUSH32 0xD9CC4A2E00000000000000000000000000000000000000000000000000000000 DUP2 MSTORE PUSH1 0x4 ADD PUSH1 0x40 MLOAD DUP1 SWAP2 SUB SWAP1 REVERT JUMPDEST PUSH2 0x32A7 DUP2 PUSH2 0x337B JUMP JUMPDEST ISZERO PUSH2 0x32DE JUMPI PUSH1 0x40 MLOAD PUSH32 0xB237EABD00000000000000000000000000000000000000000000000000000000 DUP2 MSTORE PUSH1 0x4 ADD PUSH1 0x40 MLOAD DUP1 SWAP2 SUB SWAP1 REVERT JUMPDEST POP POP POP POP JUMP JUMPDEST PUSH1 0x0 PUSH2 0x330F DUP3 DUP5 PUSH20 0xFFFFFFFFFFFFFFFFFFFFFFFFFFFFFFFFFFFFFFFF AND PUSH2 0x34B8 SWAP1 SWAP2 SWAP1 PUSH4 0xFFFFFFFF AND JUMP JUMPDEST SWAP1 POP PUSH1 0x0 DUP2 MLOAD EQ ISZERO DUP1 ISZERO PUSH2 0x3334 JUMPI POP DUP1 DUP1 PUSH1 0x20 ADD SWAP1 MLOAD DUP2 ADD SWAP1 PUSH2 0x3332 SWAP2 SWAP1 PUSH2 0x4529 JUMP JUMPDEST ISZERO JUMPDEST ISZERO PUSH2 0x3376 JUMPI DUP3 PUSH1 0x40 MLOAD PUSH32 0x5274AFE700000000000000000000000000000000000000000000000000000000 DUP2 MSTORE PUSH1 0x4 ADD PUSH2 0x336D SWAP2 SWAP1 PUSH2 0x4702 JUMP JUMPDEST PUSH1 0x40 MLOAD DUP1 SWAP2 SUB SWAP1 REVERT JUMPDEST POP POP POP JUMP JUMPDEST PUSH1 0x0 DUP1 PUSH20 0xFFFFFFFFFFFFFFFFFFFFFFFFFFFFFFFFFFFFFFFF AND DUP3 PUSH20 0xFFFFFFFFFFFFFFFFFFFFFFFFFFFFFFFFFFFFFFFF AND EQ SWAP1 POP SWAP2 SWAP1 POP JUMP JUMPDEST PUSH2 0x33BD DUP3 DUP3 PUSH2 0x1BEE JUMP JUMPDEST PUSH2 0x3400 JUMPI DUP1 DUP3 PUSH1 0x40 MLOAD PUSH32 0xE2517D3F00000000000000000000000000000000000000000000000000000000 DUP2 MSTORE PUSH1 0x4 ADD PUSH2 0x33F7 SWAP3 SWAP2 SWAP1 PUSH2 0x483F JUMP JUMPDEST PUSH1 0x40 MLOAD DUP1 SWAP2 SUB SWAP1 REVERT JUMPDEST POP POP JUMP JUMPDEST PUSH2 0x340C PUSH2 0x1052 JUMP JUMPDEST PUSH2 0x3442 JUMPI PUSH1 0x40 MLOAD PUSH32 0x8DFC202B00000000000000000000000000000000000000000000000000000000 DUP2 MSTORE PUSH1 0x4 ADD PUSH1 0x40 MLOAD DUP1 SWAP2 SUB SWAP1 REVERT JUMPDEST JUMP JUMPDEST PUSH2 0x344C PUSH2 0x34CE JUMP JUMPDEST PUSH2 0x3482 JUMPI PUSH1 0x40 MLOAD PUSH32 0xD7E6BCF800000000000000000000000000000000000000000000000000000000 DUP2 MSTORE PUSH1 0x4 ADD PUSH1 0x40 MLOAD DUP1 SWAP2 SUB SWAP1 REVERT JUMPDEST JUMP JUMPDEST PUSH2 0x348C PUSH2 0x3444 JUMP JUMPDEST PUSH1 0x0 PUSH2 0x3496 PUSH2 0x3081 JUMP JUMPDEST SWAP1 POP PUSH1 0x0 DUP2 PUSH1 0x0 ADD PUSH1 0x0 PUSH2 0x100 EXP DUP2 SLOAD DUP2 PUSH1 0xFF MUL NOT AND SWAP1 DUP4 ISZERO ISZERO MUL OR SWAP1 SSTORE POP POP JUMP JUMPDEST PUSH1 0x60 PUSH2 0x34C6 DUP4 DUP4 PUSH1 0x0 PUSH2 0x34EE JUMP JUMPDEST SWAP1 POP SWAP3 SWAP2 POP POP JUMP JUMPDEST PUSH1 0x0 PUSH2 0x34D8 PUSH2 0x319A JUMP JUMPDEST PUSH1 0x0 ADD PUSH1 0x8 SWAP1 SLOAD SWAP1 PUSH2 0x100 EXP SWAP1 DIV PUSH1 0xFF AND SWAP1 POP SWAP1 JUMP JUMPDEST PUSH1 0x60 DUP2 SELFBALANCE LT ISZERO PUSH2 0x3535 JUMPI ADDRESS PUSH1 0x40 MLOAD PUSH32 0xCD78605900000000000000000000000000000000000000000000000000000000 DUP2 MSTORE PUSH1 0x4 ADD PUSH2 0x352C SWAP2 SWAP1 PUSH2 0x4702 JUMP JUMPDEST PUSH1 0x40 MLOAD DUP1 SWAP2 SUB SWAP1 REVERT JUMPDEST PUSH1 0x0 DUP1 DUP6 PUSH20 0xFFFFFFFFFFFFFFFFFFFFFFFFFFFFFFFFFFFFFFFF AND DUP5 DUP7 PUSH1 0x40 MLOAD PUSH2 0x355E SWAP2 SWAP1 PUSH2 0x48D9 JUMP JUMPDEST PUSH1 0x0 PUSH1 0x40 MLOAD DUP1 DUP4 SUB DUP2 DUP6 DUP8 GAS CALL SWAP3 POP POP POP RETURNDATASIZE DUP1 PUSH1 0x0 DUP2 EQ PUSH2 0x359B JUMPI PUSH1 0x40 MLOAD SWAP2 POP PUSH1 0x1F NOT PUSH1 0x3F RETURNDATASIZE ADD AND DUP3 ADD PUSH1 0x40 MSTORE RETURNDATASIZE DUP3 MSTORE RETURNDATASIZE PUSH1 0x0 PUSH1 0x20 DUP5 ADD RETURNDATACOPY PUSH2 0x35A0 JUMP JUMPDEST PUSH1 0x60 SWAP2 POP JUMPDEST POP SWAP2 POP SWAP2 POP PUSH2 0x35B0 DUP7 DUP4 DUP4 PUSH2 0x35BB JUMP JUMPDEST SWAP3 POP POP POP SWAP4 SWAP3 POP POP POP JUMP JUMPDEST PUSH1 0x60 DUP3 PUSH2 0x35D0 JUMPI PUSH2 0x35CB DUP3 PUSH2 0x364A JUMP JUMPDEST PUSH2 0x3642 JUMP JUMPDEST PUSH1 0x0 DUP3 MLOAD EQ DUP1 ISZERO PUSH2 0x35F8 JUMPI POP PUSH1 0x0 DUP5 PUSH20 0xFFFFFFFFFFFFFFFFFFFFFFFFFFFFFFFFFFFFFFFF AND EXTCODESIZE EQ JUMPDEST ISZERO PUSH2 0x363A JUMPI DUP4 PUSH1 0x40 MLOAD PUSH32 0x9996B31500000000000000000000000000000000000000000000000000000000 DUP2 MSTORE PUSH1 0x4 ADD PUSH2 0x3631 SWAP2 SWAP1 PUSH2 0x4702 JUMP JUMPDEST PUSH1 0x40 MLOAD DUP1 SWAP2 SUB SWAP1 REVERT JUMPDEST DUP2 SWAP1 POP PUSH2 0x3643 JUMP JUMPDEST JUMPDEST SWAP4 SWAP3 POP POP POP JUMP JUMPDEST PUSH1 0x0 DUP2 MLOAD GT ISZERO PUSH2 0x365D JUMPI DUP1 MLOAD DUP1 DUP3 PUSH1 0x20 ADD REVERT JUMPDEST PUSH1 0x40 MLOAD PUSH32 0x1425EA4200000000000000000000000000000000000000000000000000000000 DUP2 MSTORE PUSH1 0x4 ADD PUSH1 0x40 MLOAD DUP1 SWAP2 SUB SWAP1 REVERT JUMPDEST PUSH1 0x0 PUSH1 0x40 MLOAD SWAP1 POP SWAP1 JUMP JUMPDEST PUSH1 0x0 DUP1 REVERT JUMPDEST PUSH1 0x0 DUP1 REVERT JUMPDEST PUSH1 0x0 PUSH32 0xFFFFFFFF00000000000000000000000000000000000000000000000000000000 DUP3 AND SWAP1 POP SWAP2 SWAP1 POP JUMP JUMPDEST PUSH2 0x36D8 DUP2 PUSH2 0x36A3 JUMP JUMPDEST DUP2 EQ PUSH2 0x36E3 JUMPI PUSH1 0x0 DUP1 REVERT JUMPDEST POP JUMP JUMPDEST PUSH1 0x0 DUP2 CALLDATALOAD SWAP1 POP PUSH2 0x36F5 DUP2 PUSH2 0x36CF JUMP JUMPDEST SWAP3 SWAP2 POP POP JUMP JUMPDEST PUSH1 0x0 PUSH1 0x20 DUP3 DUP5 SUB SLT ISZERO PUSH2 0x3711 JUMPI PUSH2 0x3710 PUSH2 0x3699 JUMP JUMPDEST JUMPDEST PUSH1 0x0 PUSH2 0x371F DUP5 DUP3 DUP6 ADD PUSH2 0x36E6 JUMP JUMPDEST SWAP2 POP POP SWAP3 SWAP2 POP POP JUMP JUMPDEST PUSH1 0x0 DUP2 ISZERO ISZERO SWAP1 POP SWAP2 SWAP1 POP JUMP JUMPDEST PUSH2 0x373D DUP2 PUSH2 0x3728 JUMP JUMPDEST DUP3 MSTORE POP POP JUMP JUMPDEST PUSH1 0x0 PUSH1 0x20 DUP3 ADD SWAP1 POP PUSH2 0x3758 PUSH1 0x0 DUP4 ADD DUP5 PUSH2 0x3734 JUMP JUMPDEST SWAP3 SWAP2 POP POP JUMP JUMPDEST PUSH1 0x0 DUP2 SWAP1 POP SWAP2 SWAP1 POP JUMP JUMPDEST PUSH2 0x3771 DUP2 PUSH2 0x375E JUMP JUMPDEST DUP3 MSTORE POP POP JUMP JUMPDEST PUSH1 0x0 PUSH1 0x20 DUP3 ADD SWAP1 POP PUSH2 0x378C PUSH1 0x0 DUP4 ADD DUP5 PUSH2 0x3768 JUMP JUMPDEST SWAP3 SWAP2 POP POP JUMP JUMPDEST PUSH1 0x0 PUSH20 0xFFFFFFFFFFFFFFFFFFFFFFFFFFFFFFFFFFFFFFFF DUP3 AND SWAP1 POP SWAP2 SWAP1 POP JUMP JUMPDEST PUSH1 0x0 PUSH2 0x37BD DUP3 PUSH2 0x3792 JUMP JUMPDEST SWAP1 POP SWAP2 SWAP1 POP JUMP JUMPDEST PUSH2 0x37CD DUP2 PUSH2 0x37B2 JUMP JUMPDEST DUP2 EQ PUSH2 0x37D8 JUMPI PUSH1 0x0 DUP1 REVERT JUMPDEST POP JUMP JUMPDEST PUSH1 0x0 DUP2 CALLDATALOAD SWAP1 POP PUSH2 0x37EA DUP2 PUSH2 0x37C4 JUMP JUMPDEST SWAP3 SWAP2 POP POP JUMP JUMPDEST PUSH1 0x0 DUP2 SWAP1 POP SWAP2 SWAP1 POP JUMP JUMPDEST PUSH2 0x3803 DUP2 PUSH2 0x37F0 JUMP JUMPDEST DUP2 EQ PUSH2 0x380E JUMPI PUSH1 0x0 DUP1 REVERT JUMPDEST POP JUMP JUMPDEST PUSH1 0x0 DUP2 CALLDATALOAD SWAP1 POP PUSH2 0x3820 DUP2 PUSH2 0x37FA JUMP JUMPDEST SWAP3 SWAP2 POP POP JUMP JUMPDEST PUSH1 0x0 DUP1 PUSH1 0x0 DUP1 PUSH1 0x0 PUSH1 0xA0 DUP7 DUP9 SUB SLT ISZERO PUSH2 0x3842 JUMPI PUSH2 0x3841 PUSH2 0x3699 JUMP JUMPDEST JUMPDEST PUSH1 0x0 PUSH2 0x3850 DUP9 DUP3 DUP10 ADD PUSH2 0x37DB JUMP JUMPDEST SWAP6 POP POP PUSH1 0x20 PUSH2 0x3861 DUP9 DUP3 DUP10 ADD PUSH2 0x3811 JUMP JUMPDEST SWAP5 POP POP PUSH1 0x40 PUSH2 0x3872 DUP9 DUP3 DUP10 ADD PUSH2 0x3811 JUMP JUMPDEST SWAP4 POP POP PUSH1 0x60 PUSH2 0x3883 DUP9 DUP3 DUP10 ADD PUSH2 0x3811 JUMP JUMPDEST SWAP3 POP POP PUSH1 0x80 PUSH2 0x3894 DUP9 DUP3 DUP10 ADD PUSH2 0x37DB JUMP JUMPDEST SWAP2 POP POP SWAP3 SWAP6 POP SWAP3 SWAP6 SWAP1 SWAP4 POP JUMP JUMPDEST PUSH2 0x38AA DUP2 PUSH2 0x37F0 JUMP JUMPDEST DUP3 MSTORE POP POP JUMP JUMPDEST PUSH1 0x0 PUSH1 0x40 DUP3 ADD SWAP1 POP PUSH2 0x38C5 PUSH1 0x0 DUP4 ADD DUP6 PUSH2 0x38A1 JUMP JUMPDEST PUSH2 0x38D2 PUSH1 0x20 DUP4 ADD DUP5 PUSH2 0x38A1 JUMP JUMPDEST SWAP4 SWAP3 POP POP POP JUMP JUMPDEST PUSH2 0x38E2 DUP2 PUSH2 0x375E JUMP JUMPDEST DUP2 EQ PUSH2 0x38ED JUMPI PUSH1 0x0 DUP1 REVERT JUMPDEST POP JUMP JUMPDEST PUSH1 0x0 DUP2 CALLDATALOAD SWAP1 POP PUSH2 0x38FF DUP2 PUSH2 0x38D9 JUMP JUMPDEST SWAP3 SWAP2 POP POP JUMP JUMPDEST PUSH1 0x0 PUSH1 0x20 DUP3 DUP5 SUB SLT ISZERO PUSH2 0x391B JUMPI PUSH2 0x391A PUSH2 0x3699 JUMP JUMPDEST JUMPDEST PUSH1 0x0 PUSH2 0x3929 DUP5 DUP3 DUP6 ADD PUSH2 0x38F0 JUMP JUMPDEST SWAP2 POP POP SWAP3 SWAP2 POP POP JUMP JUMPDEST PUSH1 0x0 DUP2 SWAP1 POP SWAP2 SWAP1 POP JUMP JUMPDEST PUSH1 0x0 PUSH2 0x3957 PUSH2 0x3952 PUSH2 0x394D DUP5 PUSH2 0x3792 JUMP JUMPDEST PUSH2 0x3932 JUMP JUMPDEST PUSH2 0x3792 JUMP JUMPDEST SWAP1 POP SWAP2 SWAP1 POP JUMP JUMPDEST PUSH1 0x0 PUSH2 0x3969 DUP3 PUSH2 0x393C JUMP JUMPDEST SWAP1 POP SWAP2 SWAP1 POP JUMP JUMPDEST PUSH1 0x0 PUSH2 0x397B DUP3 PUSH2 0x395E JUMP JUMPDEST SWAP1 POP SWAP2 SWAP1 POP JUMP JUMPDEST PUSH2 0x398B DUP2 PUSH2 0x3970 JUMP JUMPDEST DUP3 MSTORE POP POP JUMP JUMPDEST PUSH1 0x0 PUSH1 0x20 DUP3 ADD SWAP1 POP PUSH2 0x39A6 PUSH1 0x0 DUP4 ADD DUP5 PUSH2 0x3982 JUMP JUMPDEST SWAP3 SWAP2 POP POP JUMP JUMPDEST PUSH1 0x0 DUP1 PUSH1 0x0 DUP1 PUSH1 0x80 DUP6 DUP8 SUB SLT ISZERO PUSH2 0x39C6 JUMPI PUSH2 0x39C5 PUSH2 0x3699 JUMP JUMPDEST JUMPDEST PUSH1 0x0 PUSH2 0x39D4 DUP8 DUP3 DUP9 ADD PUSH2 0x37DB JUMP JUMPDEST SWAP5 POP POP PUSH1 0x20 PUSH2 0x39E5 DUP8 DUP3 DUP9 ADD PUSH2 0x3811 JUMP JUMPDEST SWAP4 POP POP PUSH1 0x40 PUSH2 0x39F6 DUP8 DUP3 DUP9 ADD PUSH2 0x3811 JUMP JUMPDEST SWAP3 POP POP PUSH1 0x60 PUSH2 0x3A07 DUP8 DUP3 DUP9 ADD PUSH2 0x3811 JUMP JUMPDEST SWAP2 POP POP SWAP3 SWAP6 SWAP2 SWAP5 POP SWAP3 POP JUMP JUMPDEST PUSH1 0x0 DUP1 PUSH1 0x40 DUP4 DUP6 SUB SLT ISZERO PUSH2 0x3A2A JUMPI PUSH2 0x3A29 PUSH2 0x3699 JUMP JUMPDEST JUMPDEST PUSH1 0x0 PUSH2 0x3A38 DUP6 DUP3 DUP7 ADD PUSH2 0x38F0 JUMP JUMPDEST SWAP3 POP POP PUSH1 0x20 PUSH2 0x3A49 DUP6 DUP3 DUP7 ADD PUSH2 0x37DB JUMP JUMPDEST SWAP2 POP POP SWAP3 POP SWAP3 SWAP1 POP JUMP JUMPDEST PUSH1 0x0 DUP1 REVERT JUMPDEST PUSH1 0x0 PUSH1 0x1F NOT PUSH1 0x1F DUP4 ADD AND SWAP1 POP SWAP2 SWAP1 POP JUMP JUMPDEST PUSH32 0x4E487B7100000000000000000000000000000000000000000000000000000000 PUSH1 0x0 MSTORE PUSH1 0x41 PUSH1 0x4 MSTORE PUSH1 0x24 PUSH1 0x0 REVERT JUMPDEST PUSH2 0x3AA1 DUP3 PUSH2 0x3A58 JUMP JUMPDEST DUP2 ADD DUP2 DUP2 LT PUSH8 0xFFFFFFFFFFFFFFFF DUP3 GT OR ISZERO PUSH2 0x3AC0 JUMPI PUSH2 0x3ABF PUSH2 0x3A69 JUMP JUMPDEST JUMPDEST DUP1 PUSH1 0x40 MSTORE POP POP POP JUMP JUMPDEST PUSH1 0x0 PUSH2 0x3AD3 PUSH2 0x368F JUMP JUMPDEST SWAP1 POP PUSH2 0x3ADF DUP3 DUP3 PUSH2 0x3A98 JUMP JUMPDEST SWAP2 SWAP1 POP JUMP JUMPDEST PUSH1 0x0 PUSH8 0xFFFFFFFFFFFFFFFF DUP3 GT ISZERO PUSH2 0x3AFF JUMPI PUSH2 0x3AFE PUSH2 0x3A69 JUMP JUMPDEST JUMPDEST PUSH1 0x20 DUP3 MUL SWAP1 POP PUSH1 0x20 DUP2 ADD SWAP1 POP SWAP2 SWAP1 POP JUMP JUMPDEST PUSH1 0x0 DUP1 REVERT JUMPDEST PUSH1 0x0 PUSH2 0x3B28 PUSH2 0x3B23 DUP5 PUSH2 0x3AE4 JUMP JUMPDEST PUSH2 0x3AC9 JUMP JUMPDEST SWAP1 POP DUP1 DUP4 DUP3 MSTORE PUSH1 0x20 DUP3 ADD SWAP1 POP PUSH1 0x20 DUP5 MUL DUP4 ADD DUP6 DUP2 GT ISZERO PUSH2 0x3B4B JUMPI PUSH2 0x3B4A PUSH2 0x3B10 JUMP JUMPDEST JUMPDEST DUP4 JUMPDEST DUP2 DUP2 LT ISZERO PUSH2 0x3B74 JUMPI DUP1 PUSH2 0x3B60 DUP9 DUP3 PUSH2 0x3811 JUMP JUMPDEST DUP5 MSTORE PUSH1 0x20 DUP5 ADD SWAP4 POP POP PUSH1 0x20 DUP2 ADD SWAP1 POP PUSH2 0x3B4D JUMP JUMPDEST POP POP POP SWAP4 SWAP3 POP POP POP JUMP JUMPDEST PUSH1 0x0 DUP3 PUSH1 0x1F DUP4 ADD SLT PUSH2 0x3B93 JUMPI PUSH2 0x3B92 PUSH2 0x3A53 JUMP JUMPDEST JUMPDEST DUP2 CALLDATALOAD PUSH2 0x3BA3 DUP5 DUP3 PUSH1 0x20 DUP7 ADD PUSH2 0x3B15 JUMP JUMPDEST SWAP2 POP POP SWAP3 SWAP2 POP POP JUMP JUMPDEST PUSH1 0x0 DUP1 PUSH1 0x0 PUSH1 0x60 DUP5 DUP7 SUB SLT ISZERO PUSH2 0x3BC5 JUMPI PUSH2 0x3BC4 PUSH2 0x3699 JUMP JUMPDEST JUMPDEST PUSH1 0x0 PUSH2 0x3BD3 DUP7 DUP3 DUP8 ADD PUSH2 0x37DB JUMP JUMPDEST SWAP4 POP POP PUSH1 0x20 DUP5 ADD CALLDATALOAD PUSH8 0xFFFFFFFFFFFFFFFF DUP2 GT ISZERO PUSH2 0x3BF4 JUMPI PUSH2 0x3BF3 PUSH2 0x369E JUMP JUMPDEST JUMPDEST PUSH2 0x3C00 DUP7 DUP3 DUP8 ADD PUSH2 0x3B7E JUMP JUMPDEST SWAP3 POP POP PUSH1 0x40 PUSH2 0x3C11 DUP7 DUP3 DUP8 ADD PUSH2 0x3811 JUMP JUMPDEST SWAP2 POP POP SWAP3 POP SWAP3 POP SWAP3 JUMP JUMPDEST PUSH1 0x0 PUSH8 0xFFFFFFFFFFFFFFFF DUP3 GT ISZERO PUSH2 0x3C36 JUMPI PUSH2 0x3C35 PUSH2 0x3A69 JUMP JUMPDEST JUMPDEST PUSH1 0x20 DUP3 MUL SWAP1 POP PUSH1 0x20 DUP2 ADD SWAP1 POP SWAP2 SWAP1 POP JUMP JUMPDEST PUSH1 0x0 PUSH2 0x3C5A PUSH2 0x3C55 DUP5 PUSH2 0x3C1B JUMP JUMPDEST PUSH2 0x3AC9 JUMP JUMPDEST SWAP1 POP DUP1 DUP4 DUP3 MSTORE PUSH1 0x20 DUP3 ADD SWAP1 POP PUSH1 0x20 DUP5 MUL DUP4 ADD DUP6 DUP2 GT ISZERO PUSH2 0x3C7D JUMPI PUSH2 0x3C7C PUSH2 0x3B10 JUMP JUMPDEST JUMPDEST DUP4 JUMPDEST DUP2 DUP2 LT ISZERO PUSH2 0x3CA6 JUMPI DUP1 PUSH2 0x3C92 DUP9 DUP3 PUSH2 0x37DB JUMP JUMPDEST DUP5 MSTORE PUSH1 0x20 DUP5 ADD SWAP4 POP POP PUSH1 0x20 DUP2 ADD SWAP1 POP PUSH2 0x3C7F JUMP JUMPDEST POP POP POP SWAP4 SWAP3 POP POP POP JUMP JUMPDEST PUSH1 0x0 DUP3 PUSH1 0x1F DUP4 ADD SLT PUSH2 0x3CC5 JUMPI PUSH2 0x3CC4 PUSH2 0x3A53 JUMP JUMPDEST JUMPDEST DUP2 CALLDATALOAD PUSH2 0x3CD5 DUP5 DUP3 PUSH1 0x20 DUP7 ADD PUSH2 0x3C47 JUMP JUMPDEST SWAP2 POP POP SWAP3 SWAP2 POP POP JUMP JUMPDEST PUSH1 0x0 DUP1 PUSH1 0x0 DUP1 PUSH1 0x80 DUP6 DUP8 SUB SLT ISZERO PUSH2 0x3CF8 JUMPI PUSH2 0x3CF7 PUSH2 0x3699 JUMP JUMPDEST JUMPDEST PUSH1 0x0 DUP6 ADD CALLDATALOAD PUSH8 0xFFFFFFFFFFFFFFFF DUP2 GT ISZERO PUSH2 0x3D16 JUMPI PUSH2 0x3D15 PUSH2 0x369E JUMP JUMPDEST JUMPDEST PUSH2 0x3D22 DUP8 DUP3 DUP9 ADD PUSH2 0x3CB0 JUMP JUMPDEST SWAP5 POP POP PUSH1 0x20 DUP6 ADD CALLDATALOAD PUSH8 0xFFFFFFFFFFFFFFFF DUP2 GT ISZERO PUSH2 0x3D43 JUMPI PUSH2 0x3D42 PUSH2 0x369E JUMP JUMPDEST JUMPDEST PUSH2 0x3D4F DUP8 DUP3 DUP9 ADD PUSH2 0x3B7E JUMP JUMPDEST SWAP4 POP POP PUSH1 0x40 PUSH2 0x3D60 DUP8 DUP3 DUP9 ADD PUSH2 0x3811 JUMP JUMPDEST SWAP3 POP POP PUSH1 0x60 PUSH2 0x3D71 DUP8 DUP3 DUP9 ADD PUSH2 0x37DB JUMP JUMPDEST SWAP2 POP POP SWAP3 SWAP6 SWAP2 SWAP5 POP SWAP3 POP JUMP JUMPDEST PUSH1 0x0 PUSH1 0x20 DUP3 ADD SWAP1 POP PUSH2 0x3D92 PUSH1 0x0 DUP4 ADD DUP5 PUSH2 0x38A1 JUMP JUMPDEST SWAP3 SWAP2 POP POP JUMP JUMPDEST PUSH1 0x0 DUP1 PUSH1 0x0 PUSH1 0x60 DUP5 DUP7 SUB SLT ISZERO PUSH2 0x3DB1 JUMPI PUSH2 0x3DB0 PUSH2 0x3699 JUMP JUMPDEST JUMPDEST PUSH1 0x0 DUP5 ADD CALLDATALOAD PUSH8 0xFFFFFFFFFFFFFFFF DUP2 GT ISZERO PUSH2 0x3DCF JUMPI PUSH2 0x3DCE PUSH2 0x369E JUMP JUMPDEST JUMPDEST PUSH2 0x3DDB DUP7 DUP3 DUP8 ADD PUSH2 0x3CB0 JUMP JUMPDEST SWAP4 POP POP PUSH1 0x20 DUP5 ADD CALLDATALOAD PUSH8 0xFFFFFFFFFFFFFFFF DUP2 GT ISZERO PUSH2 0x3DFC JUMPI PUSH2 0x3DFB PUSH2 0x369E JUMP JUMPDEST JUMPDEST PUSH2 0x3E08 DUP7 DUP3 DUP8 ADD PUSH2 0x3B7E JUMP JUMPDEST SWAP3 POP POP PUSH1 0x40 PUSH2 0x3E19 DUP7 DUP3 DUP8 ADD PUSH2 0x3811 JUMP JUMPDEST SWAP2 POP POP SWAP3 POP SWAP3 POP SWAP3 JUMP JUMPDEST PUSH1 0x0 DUP1 PUSH1 0x0 DUP1 PUSH1 0x0 PUSH1 0xA0 DUP7 DUP9 SUB SLT ISZERO PUSH2 0x3E3F JUMPI PUSH2 0x3E3E PUSH2 0x3699 JUMP JUMPDEST JUMPDEST PUSH1 0x0 DUP7 ADD CALLDATALOAD PUSH8 0xFFFFFFFFFFFFFFFF DUP2 GT ISZERO PUSH2 0x3E5D JUMPI PUSH2 0x3E5C PUSH2 0x369E JUMP JUMPDEST JUMPDEST PUSH2 0x3E69 DUP9 DUP3 DUP10 ADD PUSH2 0x3CB0 JUMP JUMPDEST SWAP6 POP POP PUSH1 0x20 DUP7 ADD CALLDATALOAD PUSH8 0xFFFFFFFFFFFFFFFF DUP2 GT ISZERO PUSH2 0x3E8A JUMPI PUSH2 0x3E89 PUSH2 0x369E JUMP JUMPDEST JUMPDEST PUSH2 0x3E96 DUP9 DUP3 DUP10 ADD PUSH2 0x3B7E JUMP JUMPDEST SWAP5 POP POP PUSH1 0x40 DUP7 ADD CALLDATALOAD PUSH8 0xFFFFFFFFFFFFFFFF DUP2 GT ISZERO PUSH2 0x3EB7 JUMPI PUSH2 0x3EB6 PUSH2 0x369E JUMP JUMPDEST JUMPDEST PUSH2 0x3EC3 DUP9 DUP3 DUP10 ADD PUSH2 0x3B7E JUMP JUMPDEST SWAP4 POP POP PUSH1 0x60 PUSH2 0x3ED4 DUP9 DUP3 DUP10 ADD PUSH2 0x3811 JUMP JUMPDEST SWAP3 POP POP PUSH1 0x80 PUSH2 0x3EE5 DUP9 DUP3 DUP10 ADD PUSH2 0x37DB JUMP JUMPDEST SWAP2 POP POP SWAP3 SWAP6 POP SWAP3 SWAP6 SWAP1 SWAP4 POP JUMP JUMPDEST PUSH1 0x0 DUP2 MLOAD SWAP1 POP SWAP2 SWAP1 POP JUMP JUMPDEST PUSH1 0x0 DUP3 DUP3 MSTORE PUSH1 0x20 DUP3 ADD SWAP1 POP SWAP3 SWAP2 POP POP JUMP JUMPDEST PUSH1 0x0 DUP2 SWAP1 POP PUSH1 0x20 DUP3 ADD SWAP1 POP SWAP2 SWAP1 POP JUMP JUMPDEST PUSH2 0x3F27 DUP2 PUSH2 0x37F0 JUMP JUMPDEST DUP3 MSTORE POP POP JUMP JUMPDEST PUSH1 0x0 PUSH2 0x3F39 DUP4 DUP4 PUSH2 0x3F1E JUMP JUMPDEST PUSH1 0x20 DUP4 ADD SWAP1 POP SWAP3 SWAP2 POP POP JUMP JUMPDEST PUSH1 0x0 PUSH1 0x20 DUP3 ADD SWAP1 POP SWAP2 SWAP1 POP JUMP JUMPDEST PUSH1 0x0 PUSH2 0x3F5D DUP3 PUSH2 0x3EF2 JUMP JUMPDEST PUSH2 0x3F67 DUP2 DUP6 PUSH2 0x3EFD JUMP JUMPDEST SWAP4 POP PUSH2 0x3F72 DUP4 PUSH2 0x3F0E JUMP JUMPDEST DUP1 PUSH1 0x0 JUMPDEST DUP4 DUP2 LT ISZERO PUSH2 0x3FA3 JUMPI DUP2 MLOAD PUSH2 0x3F8A DUP9 DUP3 PUSH2 0x3F2D JUMP JUMPDEST SWAP8 POP PUSH2 0x3F95 DUP4 PUSH2 0x3F45 JUMP JUMPDEST SWAP3 POP POP PUSH1 0x1 DUP2 ADD SWAP1 POP PUSH2 0x3F76 JUMP JUMPDEST POP DUP6 SWAP4 POP POP POP POP SWAP3 SWAP2 POP POP JUMP JUMPDEST PUSH1 0x0 PUSH1 0x40 DUP3 ADD SWAP1 POP DUP2 DUP2 SUB PUSH1 0x0 DUP4 ADD MSTORE PUSH2 0x3FCA DUP2 DUP6 PUSH2 0x3F52 JUMP JUMPDEST SWAP1 POP PUSH2 0x3FD9 PUSH1 0x20 DUP4 ADD DUP5 PUSH2 0x38A1 JUMP JUMPDEST SWAP4 SWAP3 POP POP POP JUMP JUMPDEST PUSH1 0x0 PUSH2 0x3FEB DUP3 PUSH2 0x395E JUMP JUMPDEST SWAP1 POP SWAP2 SWAP1 POP JUMP JUMPDEST PUSH2 0x3FFB DUP2 PUSH2 0x3FE0 JUMP JUMPDEST DUP3 MSTORE POP POP JUMP JUMPDEST PUSH1 0x0 PUSH1 0x20 DUP3 ADD SWAP1 POP PUSH2 0x4016 PUSH1 0x0 DUP4 ADD DUP5 PUSH2 0x3FF2 JUMP JUMPDEST SWAP3 SWAP2 POP POP JUMP JUMPDEST PUSH1 0x0 DUP1 REVERT JUMPDEST PUSH1 0x0 DUP1 DUP4 PUSH1 0x1F DUP5 ADD SLT PUSH2 0x4037 JUMPI PUSH2 0x4036 PUSH2 0x3A53 JUMP JUMPDEST JUMPDEST DUP3 CALLDATALOAD SWAP1 POP PUSH8 0xFFFFFFFFFFFFFFFF DUP2 GT ISZERO PUSH2 0x4054 JUMPI PUSH2 0x4053 PUSH2 0x401C JUMP JUMPDEST JUMPDEST PUSH1 0x20 DUP4 ADD SWAP2 POP DUP4 PUSH1 0x20 DUP3 MUL DUP4 ADD GT ISZERO PUSH2 0x4070 JUMPI PUSH2 0x406F PUSH2 0x3B10 JUMP JUMPDEST JUMPDEST SWAP3 POP SWAP3 SWAP1 POP JUMP JUMPDEST PUSH1 0x0 DUP1 PUSH1 0x0 DUP1 PUSH1 0x60 DUP6 DUP8 SUB SLT ISZERO PUSH2 0x4091 JUMPI PUSH2 0x4090 PUSH2 0x3699 JUMP JUMPDEST JUMPDEST PUSH1 0x0 PUSH2 0x409F DUP8 DUP3 DUP9 ADD PUSH2 0x37DB JUMP JUMPDEST SWAP5 POP POP PUSH1 0x20 PUSH2 0x40B0 DUP8 DUP3 DUP9 ADD PUSH2 0x37DB JUMP JUMPDEST SWAP4 POP POP PUSH1 0x40 DUP6 ADD CALLDATALOAD PUSH8 0xFFFFFFFFFFFFFFFF DUP2 GT ISZERO PUSH2 0x40D1 JUMPI PUSH2 0x40D0 PUSH2 0x369E JUMP JUMPDEST JUMPDEST PUSH2 0x40DD DUP8 DUP3 DUP9 ADD PUSH2 0x4021 JUMP JUMPDEST SWAP3 POP SWAP3 POP POP SWAP3 SWAP6 SWAP2 SWAP5 POP SWAP3 POP JUMP JUMPDEST PUSH1 0x0 DUP1 PUSH1 0x40 DUP4 DUP6 SUB SLT ISZERO PUSH2 0x4102 JUMPI PUSH2 0x4101 PUSH2 0x3699 JUMP JUMPDEST JUMPDEST PUSH1 0x0 PUSH2 0x4110 DUP6 DUP3 DUP7 ADD PUSH2 0x37DB JUMP JUMPDEST SWAP3 POP POP PUSH1 0x20 DUP4 ADD CALLDATALOAD PUSH8 0xFFFFFFFFFFFFFFFF DUP2 GT ISZERO PUSH2 0x4131 JUMPI PUSH2 0x4130 PUSH2 0x369E JUMP JUMPDEST JUMPDEST PUSH2 0x413D DUP6 DUP3 DUP7 ADD PUSH2 0x3B7E JUMP JUMPDEST SWAP2 POP POP SWAP3 POP SWAP3 SWAP1 POP JUMP JUMPDEST PUSH1 0x0 DUP1 PUSH1 0x0 DUP1 PUSH1 0x80 DUP6 DUP8 SUB SLT ISZERO PUSH2 0x4161 JUMPI PUSH2 0x4160 PUSH2 0x3699 JUMP JUMPDEST JUMPDEST PUSH1 0x0 DUP6 ADD CALLDATALOAD PUSH8 0xFFFFFFFFFFFFFFFF DUP2 GT ISZERO PUSH2 0x417F JUMPI PUSH2 0x417E PUSH2 0x369E JUMP JUMPDEST JUMPDEST PUSH2 0x418B DUP8 DUP3 DUP9 ADD PUSH2 0x3CB0 JUMP JUMPDEST SWAP5 POP POP PUSH1 0x20 DUP6 ADD CALLDATALOAD PUSH8 0xFFFFFFFFFFFFFFFF DUP2 GT ISZERO PUSH2 0x41AC JUMPI PUSH2 0x41AB PUSH2 0x369E JUMP JUMPDEST JUMPDEST PUSH2 0x41B8 DUP8 DUP3 DUP9 ADD PUSH2 0x3B7E JUMP JUMPDEST SWAP4 POP POP PUSH1 0x40 DUP6 ADD CALLDATALOAD PUSH8 0xFFFFFFFFFFFFFFFF DUP2 GT ISZERO PUSH2 0x41D9 JUMPI PUSH2 0x41D8 PUSH2 0x369E JUMP JUMPDEST JUMPDEST PUSH2 0x41E5 DUP8 DUP3 DUP9 ADD PUSH2 0x3B7E JUMP JUMPDEST SWAP3 POP POP PUSH1 0x60 PUSH2 0x41F6 DUP8 DUP3 DUP9 ADD PUSH2 0x3811 JUMP JUMPDEST SWAP2 POP POP SWAP3 SWAP6 SWAP2 SWAP5 POP SWAP3 POP JUMP JUMPDEST PUSH1 0x0 DUP1 PUSH1 0x0 PUSH1 0x60 DUP5 DUP7 SUB SLT ISZERO PUSH2 0x421B JUMPI PUSH2 0x421A PUSH2 0x3699 JUMP JUMPDEST JUMPDEST PUSH1 0x0 PUSH2 0x4229 DUP7 DUP3 DUP8 ADD PUSH2 0x37DB JUMP JUMPDEST SWAP4 POP POP PUSH1 0x20 PUSH2 0x423A DUP7 DUP3 DUP8 ADD PUSH2 0x3811 JUMP JUMPDEST SWAP3 POP POP PUSH1 0x40 PUSH2 0x424B DUP7 DUP3 DUP8 ADD PUSH2 0x3811 JUMP JUMPDEST SWAP2 POP POP SWAP3 POP SWAP3 POP SWAP3 JUMP JUMPDEST PUSH1 0x0 PUSH1 0x20 DUP3 DUP5 SUB SLT ISZERO PUSH2 0x426B JUMPI PUSH2 0x426A PUSH2 0x3699 JUMP JUMPDEST JUMPDEST PUSH1 0x0 PUSH2 0x4279 DUP5 DUP3 DUP6 ADD PUSH2 0x3811 JUMP JUMPDEST SWAP2 POP POP SWAP3 SWAP2 POP POP JUMP JUMPDEST PUSH1 0x0 DUP1 PUSH1 0x0 DUP1 PUSH1 0x80 DUP6 DUP8 SUB SLT ISZERO PUSH2 0x429C JUMPI PUSH2 0x429B PUSH2 0x3699 JUMP JUMPDEST JUMPDEST PUSH1 0x0 PUSH2 0x42AA DUP8 DUP3 DUP9 ADD PUSH2 0x37DB JUMP JUMPDEST SWAP5 POP POP PUSH1 0x20 DUP6 ADD CALLDATALOAD PUSH8 0xFFFFFFFFFFFFFFFF DUP2 GT ISZERO PUSH2 0x42CB JUMPI PUSH2 0x42CA PUSH2 0x369E JUMP JUMPDEST JUMPDEST PUSH2 0x42D7 DUP8 DUP3 DUP9 ADD PUSH2 0x3B7E JUMP JUMPDEST SWAP4 POP POP PUSH1 0x40 PUSH2 0x42E8 DUP8 DUP3 DUP9 ADD PUSH2 0x3811 JUMP JUMPDEST SWAP3 POP POP PUSH1 0x60 PUSH2 0x42F9 DUP8 DUP3 DUP9 ADD PUSH2 0x37DB JUMP JUMPDEST SWAP2 POP POP SWAP3 SWAP6 SWAP2 SWAP5 POP SWAP3 POP JUMP JUMPDEST PUSH2 0x430E DUP2 PUSH2 0x3728 JUMP JUMPDEST DUP2 EQ PUSH2 0x4319 JUMPI PUSH1 0x0 DUP1 REVERT JUMPDEST POP JUMP JUMPDEST PUSH1 0x0 DUP2 CALLDATALOAD SWAP1 POP PUSH2 0x432B DUP2 PUSH2 0x4305 JUMP JUMPDEST SWAP3 SWAP2 POP POP JUMP JUMPDEST PUSH1 0x0 DUP1 PUSH1 0x40 DUP4 DUP6 SUB SLT ISZERO PUSH2 0x4348 JUMPI PUSH2 0x4347 PUSH2 0x3699 JUMP JUMPDEST JUMPDEST PUSH1 0x0 PUSH2 0x4356 DUP6 DUP3 DUP7 ADD PUSH2 0x3811 JUMP JUMPDEST SWAP3 POP POP PUSH1 0x20 PUSH2 0x4367 DUP6 DUP3 DUP7 ADD PUSH2 0x431C JUMP JUMPDEST SWAP2 POP POP SWAP3 POP SWAP3 SWAP1 POP JUMP JUMPDEST PUSH1 0x0 DUP1 PUSH1 0x0 DUP1 PUSH1 0x80 DUP6 DUP8 SUB SLT ISZERO PUSH2 0x438B JUMPI PUSH2 0x438A PUSH2 0x3699 JUMP JUMPDEST JUMPDEST PUSH1 0x0 PUSH2 0x4399 DUP8 DUP3 DUP9 ADD PUSH2 0x37DB JUMP JUMPDEST SWAP5 POP POP PUSH1 0x20 PUSH2 0x43AA DUP8 DUP3 DUP9 ADD PUSH2 0x3811 JUMP JUMPDEST SWAP4 POP POP PUSH1 0x40 PUSH2 0x43BB DUP8 DUP3 DUP9 ADD PUSH2 0x3811 JUMP JUMPDEST SWAP3 POP POP PUSH1 0x60 PUSH2 0x43CC DUP8 DUP3 DUP9 ADD PUSH2 0x37DB JUMP JUMPDEST SWAP2 POP POP SWAP3 SWAP6 SWAP2 SWAP5 POP SWAP3 POP JUMP JUMPDEST PUSH2 0x43E1 DUP2 PUSH2 0x37B2 JUMP JUMPDEST DUP3 MSTORE POP POP JUMP JUMPDEST PUSH1 0x0 PUSH1 0xC0 DUP3 ADD SWAP1 POP PUSH2 0x43FC PUSH1 0x0 DUP4 ADD DUP10 PUSH2 0x43D8 JUMP JUMPDEST PUSH2 0x4409 PUSH1 0x20 DUP4 ADD DUP9 PUSH2 0x43D8 JUMP JUMPDEST PUSH2 0x4416 PUSH1 0x40 DUP4 ADD DUP8 PUSH2 0x43D8 JUMP JUMPDEST PUSH2 0x4423 PUSH1 0x60 DUP4 ADD DUP7 PUSH2 0x38A1 JUMP JUMPDEST PUSH2 0x4430 PUSH1 0x80 DUP4 ADD DUP6 PUSH2 0x38A1 JUMP JUMPDEST PUSH2 0x443D PUSH1 0xA0 DUP4 ADD DUP5 PUSH2 0x38A1 JUMP JUMPDEST SWAP8 SWAP7 POP POP POP POP POP POP POP JUMP JUMPDEST PUSH1 0x0 PUSH2 0x4453 DUP3 PUSH2 0x395E JUMP JUMPDEST SWAP1 POP SWAP2 SWAP1 POP JUMP JUMPDEST PUSH2 0x4463 DUP2 PUSH2 0x4448 JUMP JUMPDEST DUP3 MSTORE POP POP JUMP JUMPDEST PUSH1 0x0 PUSH1 0x20 DUP3 ADD SWAP1 POP PUSH2 0x447E PUSH1 0x0 DUP4 ADD DUP5 PUSH2 0x445A JUMP JUMPDEST SWAP3 SWAP2 POP POP JUMP JUMPDEST PUSH1 0x0 DUP1 PUSH1 0x0 DUP1 PUSH1 0x80 DUP6 DUP8 SUB SLT ISZERO PUSH2 0x449E JUMPI PUSH2 0x449D PUSH2 0x3699 JUMP JUMPDEST JUMPDEST PUSH1 0x0 PUSH2 0x44AC DUP8 DUP3 DUP9 ADD PUSH2 0x37DB JUMP JUMPDEST SWAP5 POP POP PUSH1 0x20 PUSH2 0x44BD DUP8 DUP3 DUP9 ADD PUSH2 0x37DB JUMP JUMPDEST SWAP4 POP POP PUSH1 0x40 PUSH2 0x44CE DUP8 DUP3 DUP9 ADD PUSH2 0x37DB JUMP JUMPDEST SWAP3 POP POP PUSH1 0x60 PUSH2 0x44DF DUP8 DUP3 DUP9 ADD PUSH2 0x37DB JUMP JUMPDEST SWAP2 POP POP SWAP3 SWAP6 SWAP2 SWAP5 POP SWAP3 POP JUMP JUMPDEST PUSH1 0x0 PUSH1 0x40 DUP3 ADD SWAP1 POP PUSH2 0x4500 PUSH1 0x0 DUP4 ADD DUP6 PUSH2 0x43D8 JUMP JUMPDEST PUSH2 0x450D PUSH1 0x20 DUP4 ADD DUP5 PUSH2 0x38A1 JUMP JUMPDEST SWAP4 SWAP3 POP POP POP JUMP JUMPDEST PUSH1 0x0 DUP2 MLOAD SWAP1 POP PUSH2 0x4523 DUP2 PUSH2 0x4305 JUMP JUMPDEST SWAP3 SWAP2 POP POP JUMP JUMPDEST PUSH1 0x0 PUSH1 0x20 DUP3 DUP5 SUB SLT ISZERO PUSH2 0x453F JUMPI PUSH2 0x453E PUSH2 0x3699 JUMP JUMPDEST JUMPDEST PUSH1 0x0 PUSH2 0x454D DUP5 DUP3 DUP6 ADD PUSH2 0x4514 JUMP JUMPDEST SWAP2 POP POP SWAP3 SWAP2 POP POP JUMP JUMPDEST PUSH1 0x0 PUSH1 0x60 DUP3 ADD SWAP1 POP PUSH2 0x456B PUSH1 0x0 DUP4 ADD DUP7 PUSH2 0x43D8 JUMP JUMPDEST PUSH2 0x4578 PUSH1 0x20 DUP4 ADD DUP6 PUSH2 0x38A1 JUMP JUMPDEST PUSH2 0x4585 PUSH1 0x40 DUP4 ADD DUP5 PUSH2 0x38A1 JUMP JUMPDEST SWAP5 SWAP4 POP POP POP POP JUMP JUMPDEST PUSH1 0x0 DUP2 MLOAD SWAP1 POP PUSH2 0x459C DUP2 PUSH2 0x37FA JUMP JUMPDEST SWAP3 SWAP2 POP POP JUMP JUMPDEST PUSH1 0x0 PUSH1 0x20 DUP3 DUP5 SUB SLT ISZERO PUSH2 0x45B8 JUMPI PUSH2 0x45B7 PUSH2 0x3699 JUMP JUMPDEST JUMPDEST PUSH1 0x0 PUSH2 0x45C6 DUP5 DUP3 DUP6 ADD PUSH2 0x458D JUMP JUMPDEST SWAP2 POP POP SWAP3 SWAP2 POP POP JUMP JUMPDEST PUSH32 0x4E487B7100000000000000000000000000000000000000000000000000000000 PUSH1 0x0 MSTORE PUSH1 0x32 PUSH1 0x4 MSTORE PUSH1 0x24 PUSH1 0x0 REVERT JUMPDEST PUSH32 0x4E487B7100000000000000000000000000000000000000000000000000000000 PUSH1 0x0 MSTORE PUSH1 0x11 PUSH1 0x4 MSTORE PUSH1 0x24 PUSH1 0x0 REVERT JUMPDEST PUSH1 0x0 PUSH2 0x4638 DUP3 PUSH2 0x37F0 JUMP JUMPDEST SWAP2 POP PUSH2 0x4643 DUP4 PUSH2 0x37F0 JUMP JUMPDEST SWAP3 POP DUP3 DUP3 ADD SWAP1 POP DUP1 DUP3 GT ISZERO PUSH2 0x465B JUMPI PUSH2 0x465A PUSH2 0x45FE JUMP JUMPDEST JUMPDEST SWAP3 SWAP2 POP POP JUMP JUMPDEST PUSH1 0x0 DUP2 SWAP1 POP SWAP2 SWAP1 POP JUMP JUMPDEST PUSH1 0x0 PUSH8 0xFFFFFFFFFFFFFFFF DUP3 AND SWAP1 POP SWAP2 SWAP1 POP JUMP JUMPDEST PUSH1 0x0 PUSH2 0x469A PUSH2 0x4695 PUSH2 0x4690 DUP5 PUSH2 0x4661 JUMP JUMPDEST PUSH2 0x3932 JUMP JUMPDEST PUSH2 0x466B JUMP JUMPDEST SWAP1 POP SWAP2 SWAP1 POP JUMP JUMPDEST PUSH2 0x46AA DUP2 PUSH2 0x467F JUMP JUMPDEST DUP3 MSTORE POP POP JUMP JUMPDEST PUSH1 0x0 PUSH1 0x20 DUP3 ADD SWAP1 POP PUSH2 0x46C5 PUSH1 0x0 DUP4 ADD DUP5 PUSH2 0x46A1 JUMP JUMPDEST SWAP3 SWAP2 POP POP JUMP JUMPDEST PUSH1 0x0 PUSH1 0x60 DUP3 ADD SWAP1 POP PUSH2 0x46E0 PUSH1 0x0 DUP4 ADD DUP7 PUSH2 0x43D8 JUMP JUMPDEST PUSH2 0x46ED PUSH1 0x20 DUP4 ADD DUP6 PUSH2 0x43D8 JUMP JUMPDEST PUSH2 0x46FA PUSH1 0x40 DUP4 ADD DUP5 PUSH2 0x38A1 JUMP JUMPDEST SWAP5 SWAP4 POP POP POP POP JUMP JUMPDEST PUSH1 0x0 PUSH1 0x20 DUP3 ADD SWAP1 POP PUSH2 0x4717 PUSH1 0x0 DUP4 ADD DUP5 PUSH2 0x43D8 JUMP JUMPDEST SWAP3 SWAP2 POP POP JUMP JUMPDEST PUSH1 0x0 DUP2 MLOAD SWAP1 POP PUSH2 0x472C DUP2 PUSH2 0x37C4 JUMP JUMPDEST SWAP3 SWAP2 POP POP JUMP JUMPDEST PUSH1 0x0 PUSH1 0x20 DUP3 DUP5 SUB SLT ISZERO PUSH2 0x4748 JUMPI PUSH2 0x4747 PUSH2 0x3699 JUMP JUMPDEST JUMPDEST PUSH1 0x0 PUSH2 0x4756 DUP5 DUP3 DUP6 ADD PUSH2 0x471D JUMP JUMPDEST SWAP2 POP POP SWAP3 SWAP2 POP POP JUMP JUMPDEST PUSH1 0x0 PUSH2 0x476A DUP3 PUSH2 0x37F0 JUMP JUMPDEST SWAP2 POP PUSH32 0xFFFFFFFFFFFFFFFFFFFFFFFFFFFFFFFFFFFFFFFFFFFFFFFFFFFFFFFFFFFFFFFF DUP3 SUB PUSH2 0x479C JUMPI PUSH2 0x479B PUSH2 0x45FE JUMP JUMPDEST JUMPDEST PUSH1 0x1 DUP3 ADD SWAP1 POP SWAP2 SWAP1 POP JUMP JUMPDEST PUSH1 0x0 PUSH1 0xC0 DUP3 ADD SWAP1 POP PUSH2 0x47BC PUSH1 0x0 DUP4 ADD DUP10 PUSH2 0x38A1 JUMP JUMPDEST PUSH2 0x47C9 PUSH1 0x20 DUP4 ADD DUP9 PUSH2 0x38A1 JUMP JUMPDEST PUSH2 0x47D6 PUSH1 0x40 DUP4 ADD DUP8 PUSH2 0x38A1 JUMP JUMPDEST PUSH2 0x47E3 PUSH1 0x60 DUP4 ADD DUP7 PUSH2 0x38A1 JUMP JUMPDEST PUSH2 0x47F0 PUSH1 0x80 DUP4 ADD DUP6 PUSH2 0x43D8 JUMP JUMPDEST PUSH2 0x47FD PUSH1 0xA0 DUP4 ADD DUP5 PUSH2 0x38A1 JUMP JUMPDEST SWAP8 SWAP7 POP POP POP POP POP POP POP JUMP JUMPDEST PUSH1 0x0 PUSH1 0x60 DUP3 ADD SWAP1 POP PUSH2 0x481D PUSH1 0x0 DUP4 ADD DUP7 PUSH2 0x38A1 JUMP JUMPDEST PUSH2 0x482A PUSH1 0x20 DUP4 ADD DUP6 PUSH2 0x38A1 JUMP JUMPDEST PUSH2 0x4837 PUSH1 0x40 DUP4 ADD DUP5 PUSH2 0x38A1 JUMP JUMPDEST SWAP5 SWAP4 POP POP POP POP JUMP JUMPDEST PUSH1 0x0 PUSH1 0x40 DUP3 ADD SWAP1 POP PUSH2 0x4854 PUSH1 0x0 DUP4 ADD DUP6 PUSH2 0x43D8 JUMP JUMPDEST PUSH2 0x4861 PUSH1 0x20 DUP4 ADD DUP5 PUSH2 0x3768 JUMP JUMPDEST SWAP4 SWAP3 POP POP POP JUMP JUMPDEST PUSH1 0x0 DUP2 MLOAD SWAP1 POP SWAP2 SWAP1 POP JUMP JUMPDEST PUSH1 0x0 DUP2 SWAP1 POP SWAP3 SWAP2 POP POP JUMP JUMPDEST PUSH1 0x0 JUMPDEST DUP4 DUP2 LT ISZERO PUSH2 0x489C JUMPI DUP1 DUP3 ADD MLOAD DUP2 DUP5 ADD MSTORE PUSH1 0x20 DUP2 ADD SWAP1 POP PUSH2 0x4881 JUMP JUMPDEST PUSH1 0x0 DUP5 DUP5 ADD MSTORE POP POP POP POP JUMP JUMPDEST PUSH1 0x0 PUSH2 0x48B3 DUP3 PUSH2 0x4868 JUMP JUMPDEST PUSH2 0x48BD DUP2 DUP6 PUSH2 0x4873 JUMP JUMPDEST SWAP4 POP PUSH2 0x48CD DUP2 DUP6 PUSH1 0x20 DUP7 ADD PUSH2 0x487E JUMP JUMPDEST DUP1 DUP5 ADD SWAP2 POP POP SWAP3 SWAP2 POP POP JUMP JUMPDEST PUSH1 0x0 PUSH2 0x48E5 DUP3 DUP5 PUSH2 0x48A8 JUMP JUMPDEST SWAP2 POP DUP2 SWAP1 POP SWAP3 SWAP2 POP POP JUMP INVALID LOG2 PUSH5 0x6970667358 0x22 SLT KECCAK256 SWAP7 0xC 0xEE SWAP4 0xF8 BASEFEE CALLDATACOPY CREATE CALLVALUE MOD DUP12 SWAP15 0xBA PUSH15 0x127767AB2677101CB194E2C0C0D3E LOG0 SELFBALANCE RETURN PUSH5 0x736F6C6343 STOP ADDMOD XOR STOP CALLER "
        },
        "methodIdentifiers": {
          "CHANGE_LOCK_DURATION()": "096532d3",
          "DEFAULT_ADMIN_ROLE()": "a217fddf",
          "PAUSE_ROLE()": "389ed267",
          "buyAndLock(address,uint256,uint256,uint256)": "2d922002",
          "buyAndLockFor(address,uint256,uint256,uint256,address)": "158a21e2",
          "buyAndLockMultiple(address[],uint256[],uint256[],uint256)": "8e7e260e",
          "buyAndLockMultipleFor(address[],uint256[],uint256[],uint256,address)": "6d9322a8",
          "depositAndLock(address,uint256,uint256)": "a6da1e7d",
          "depositAndLockFor(address,uint256,uint256,address)": "ee67f0ab",
          "depositAndLockMultiple(address[],uint256[],uint256)": "5c142f8f",
          "depositAndLockMultipleFor(address[],uint256[],uint256,address)": "49cc79f1",
          "extendLock(address,uint256[],uint256)": "37cfb944",
          "extendLockFor(address,uint256[],uint256,address)": "d475f26e",
          "getRoleAdmin(bytes32)": "248a9ca3",
          "getTotalStakedAmount(address,address,uint256[])": "80aa59d7",
          "grantRole(bytes32,address)": "2f2ff15d",
          "hasRole(bytes32,address)": "91d14854",
          "initialize(address,address,address,address)": "f8c8765e",
          "lockCount()": "9b10b6f5",
          "lockPeriodsInSec(uint256)": "cc98a1bc",
          "locks(uint256)": "f4dadc61",
          "moxieBondingCurve()": "f7b01a49",
          "moxieToken()": "6fe6e1f2",
          "pause()": "8456cb59",
          "paused()": "5c975abb",
          "renounceRole(bytes32,address)": "36568abe",
          "revokeRole(bytes32,address)": "d547741f",
          "setLockPeriod(uint256,bool)": "dbfc77c4",
          "supportsInterface(bytes4)": "01ffc9a7",
          "tokenManager()": "2a709b14",
          "unpause()": "3f4ba83a",
          "withdraw(address,uint256[])": "8293744b"
        }
      }
    }
  }
}