{
  "_format": "hh-sol-artifact-1",
  "contractName": "IterableOrderedOrderSetWrapper",
  "sourceName": "contracts/test/IterableOrderedOrderSetWrapper.sol",
  "abi": [
    {
      "inputs": [
        {
          "internalType": "bytes32",
          "name": "value",
          "type": "bytes32"
        }
      ],
      "name": "contains",
      "outputs": [
        {
          "internalType": "bool",
          "name": "",
          "type": "bool"
        }
      ],
      "stateMutability": "view",
      "type": "function"
    },
    {
      "inputs": [
        {
          "internalType": "bytes32",
          "name": "value",
          "type": "bytes32"
        }
      ],
      "name": "decodeOrder",
      "outputs": [
        {
          "internalType": "uint64",
          "name": "",
          "type": "uint64"
        },
        {
          "internalType": "uint96",
          "name": "",
          "type": "uint96"
        },
        {
          "internalType": "uint96",
          "name": "",
          "type": "uint96"
        }
      ],
      "stateMutability": "pure",
      "type": "function"
    },
    {
      "inputs": [
        {
          "internalType": "uint64",
          "name": "userId",
          "type": "uint64"
        },
        {
          "internalType": "uint96",
          "name": "sellAmount",
          "type": "uint96"
        },
        {
          "internalType": "uint96",
          "name": "buyAmount",
          "type": "uint96"
        }
      ],
      "name": "encodeOrder",
      "outputs": [
        {
          "internalType": "bytes32",
          "name": "",
          "type": "bytes32"
        }
      ],
      "stateMutability": "pure",
      "type": "function"
    },
    {
      "inputs": [],
      "name": "first",
      "outputs": [
        {
          "internalType": "bytes32",
          "name": "",
          "type": "bytes32"
        }
      ],
      "stateMutability": "view",
      "type": "function"
    },
    {
      "inputs": [],
      "name": "initializeEmptyList",
      "outputs": [],
      "stateMutability": "nonpayable",
      "type": "function"
    },
    {
      "inputs": [
        {
          "internalType": "bytes32",
          "name": "value",
          "type": "bytes32"
        }
      ],
      "name": "insert",
      "outputs": [
        {
          "internalType": "bool",
          "name": "",
          "type": "bool"
        }
      ],
      "stateMutability": "nonpayable",
      "type": "function"
    },
    {
      "inputs": [
        {
          "internalType": "bytes32",
          "name": "value",
          "type": "bytes32"
        },
        {
          "internalType": "bytes32",
          "name": "at",
          "type": "bytes32"
        }
      ],
      "name": "insertAt",
      "outputs": [
        {
          "internalType": "bool",
          "name": "",
          "type": "bool"
        }
      ],
      "stateMutability": "nonpayable",
      "type": "function"
    },
    {
      "inputs": [],
      "name": "isEmpty",
      "outputs": [
        {
          "internalType": "bool",
          "name": "",
          "type": "bool"
        }
      ],
      "stateMutability": "view",
      "type": "function"
    },
    {
      "inputs": [
        {
          "internalType": "bytes32",
          "name": "value",
          "type": "bytes32"
        }
      ],
      "name": "next",
      "outputs": [
        {
          "internalType": "bytes32",
          "name": "",
          "type": "bytes32"
        }
      ],
      "stateMutability": "view",
      "type": "function"
    },
    {
      "inputs": [
        {
          "internalType": "bytes32",
          "name": "value",
          "type": "bytes32"
        }
      ],
      "name": "nextMap",
      "outputs": [
        {
          "internalType": "bytes32",
          "name": "",
          "type": "bytes32"
        }
      ],
      "stateMutability": "view",
      "type": "function"
    },
    {
      "inputs": [
        {
          "internalType": "bytes32",
          "name": "value",
          "type": "bytes32"
        }
      ],
      "name": "prevMap",
      "outputs": [
        {
          "internalType": "bytes32",
          "name": "",
          "type": "bytes32"
        }
      ],
      "stateMutability": "view",
      "type": "function"
    },
    {
      "inputs": [
        {
          "internalType": "bytes32",
          "name": "value",
          "type": "bytes32"
        }
      ],
      "name": "remove",
      "outputs": [
        {
          "internalType": "bool",
          "name": "",
          "type": "bool"
        }
      ],
      "stateMutability": "nonpayable",
      "type": "function"
    },
    {
      "inputs": [
        {
          "internalType": "bytes32",
          "name": "value",
          "type": "bytes32"
        }
      ],
      "name": "removeKeepHistory",
      "outputs": [
        {
          "internalType": "bool",
          "name": "",
          "type": "bool"
        }
      ],
      "stateMutability": "nonpayable",
      "type": "function"
    },
    {
      "inputs": [
        {
          "internalType": "bytes32",
          "name": "orderLeft",
          "type": "bytes32"
        },
        {
          "internalType": "bytes32",
          "name": "orderRight",
          "type": "bytes32"
        }
      ],
      "name": "smallerThan",
      "outputs": [
        {
          "internalType": "bool",
          "name": "",
          "type": "bool"
        }
      ],
      "stateMutability": "pure",
      "type": "function"
    }
  ],
  "bytecode": "0x608060405234801561001057600080fd5b5061101f806100206000396000f3fe608060405234801561001057600080fd5b50600436106100ea5760003560e01c8063681fe70c1161008c578063b077006611610066578063b077006614610395578063cfbbb9db146103d9578063de853c40146103e3578063e9f498dc14610459576100ea565b8063681fe70c146102b55780636d5349ea146102d557806395bc267314610351576100ea565b80631d1a696d116100c85780631d1a696d146101cd5780632d287e43146102115780632dd39d71146102555780633df4ddf414610297576100ea565b80630263eca8146100ef57806302d3af5b1461013d5780631787a5bf1461017f575b600080fd5b6101256004803603604081101561010557600080fd5b81019080803590602001909291908035906020019092919050505061049b565b60405180821515815260200191505060405180910390f35b6101696004803603602081101561015357600080fd5b81019080803590602001909291905050506104af565b6040518082815260200191505060405180910390f35b6101b56004803603604081101561019557600080fd5b8101908080359060200190929190803590602001909291905050506104cc565b60405180821515815260200191505060405180910390f35b6101f9600480360360208110156101e357600080fd5b81019080803590602001909291905050506104ec565b60405180821515815260200191505060405180910390f35b61023d6004803603602081101561022757600080fd5b8101908080359060200190929190505050610509565b60405180821515815260200191505060405180910390f35b6102816004803603602081101561026b57600080fd5b810190808035906020019092919050505061052c565b6040518082815260200191505060405180910390f35b61029f61054b565b6040518082815260200191505060405180910390f35b6102bd61055c565b60405180821515815260200191505060405180910390f35b61033b600480360360608110156102eb57600080fd5b81019080803567ffffffffffffffff16906020019092919080356bffffffffffffffffffffffff16906020019092919080356bffffffffffffffffffffffff16906020019092919050505061056d565b6040518082815260200191505060405180910390f35b61037d6004803603602081101561036757600080fd5b8101908080359060200190929190505050610583565b60405180821515815260200191505060405180910390f35b6103c1600480360360208110156103ab57600080fd5b81019080803590602001909291905050506105a0565b60405180821515815260200191505060405180910390f35b6103e16105bd565b005b61040f600480360360208110156103f957600080fd5b81019080803590602001909291905050506105c9565b604051808467ffffffffffffffff168152602001836bffffffffffffffffffffffff168152602001826bffffffffffffffffffffffff168152602001935050505060405180910390f35b6104856004803603602081101561046f57600080fd5b81019080803590602001909291905050506105e4565b6040518082815260200191505060405180910390f35b60006104a78383610603565b905092915050565b60006104c582600061082190919063ffffffff16565b9050919050565b60006104e48383600061091f9092919063ffffffff16565b905092915050565b6000610502826000610bcd90919063ffffffff16565b9050919050565b600061052582600160001b600061091f9092919063ffffffff16565b9050919050565b6000806000016000838152602001908152602001600020549050919050565b60006105576000610c09565b905090565b60006105686000610c8b565b905090565b600061057a848484610cd3565b90509392505050565b6000610599826000610d1490919063ffffffff16565b9050919050565b60006105b6826000610d5190919063ffffffff16565b9050919050565b6105c76000610dfc565b565b60008060006105d784610e81565b9250925092509193909250565b6000806001016000838152602001908152602001600020549050919050565b60008060008061061286610e81565b925092509250600080600061062688610e81565b92509250925061065b846bffffffffffffffffffffffff16836bffffffffffffffffffffffff16610ea790919063ffffffff16565b61068a826bffffffffffffffffffffffff16876bffffffffffffffffffffffff16610ea790919063ffffffff16565b101561069f576001965050505050505061081b565b6106ce846bffffffffffffffffffffffff16836bffffffffffffffffffffffff16610ea790919063ffffffff16565b6106fd826bffffffffffffffffffffffff16876bffffffffffffffffffffffff16610ea790919063ffffffff16565b1115610712576000965050505050505061081b565b816bffffffffffffffffffffffff16856bffffffffffffffffffffffff161015610745576001965050505050505061081b565b816bffffffffffffffffffffffff16856bffffffffffffffffffffffff161115610778576000965050505050505061081b565b8267ffffffffffffffff168667ffffffffffffffff1614156107e5576040517f08c379a000000000000000000000000000000000000000000000000000000000815260040180806020018281038252602d815260200180610fbd602d913960400191505060405180910390fd5b8267ffffffffffffffff168667ffffffffffffffff161015610810576001965050505050505061081b565b600096505050505050505b92915050565b60007fffffffffffffffffffffffffffffffffffffffff00000000000000000000000160001b82141561089f576040517f08c379a0000000000000000000000000000000000000000000000000000000008152600401808060200182810382526022815260200180610f506022913960400191505060405180910390fd5b60008360000160008481526020019081526020016000205490506000801b811415610915576040517f08c379a000000000000000000000000000000000000000000000000000000000815260040180806020018281038252602a815260200180610f72602a913960400191505060405180910390fd5b8091505092915050565b60008061092b84610e81565b9250505060006bffffffffffffffffffffffff16816bffffffffffffffffffffffff1614156109c2576040517f08c379a000000000000000000000000000000000000000000000000000000000815260040180806020018281038252601f8152602001807f496e73657274696e67207a65726f206973206e6f7420737570706f727465640081525060200191505060405180910390fd5b600160001b84141580156109f957507fffffffffffffffffffffffffffffffffffffffff00000000000000000000000160001b8414155b610a6b576040517f08c379a000000000000000000000000000000000000000000000000000000000815260040180806020018281038252601e8152602001807f496e73657274696e6720656c656d656e74206973206e6f742076616c6964000081525060200191505060405180910390fd5b610a758585610bcd565b15610a84576000915050610bc6565b600160001b8314158015610aaf57506000801b85600101600085815260200190815260200160002054145b15610abe576000915050610bc6565b610ad1848461060390919063ffffffff16565b610adf576000915050610bc6565b5b6000801b856000016000858152602001908152602001600020541415610b1d57846001016000848152602001908152602001600020549250610ae0565b6000808490505b809150866000016000828152602001908152602001600020549050610b52868261060390919063ffffffff16565b610b24578587600001600084815260200190815260200160002081905550858760010160008381526020019081526020016000208190555081876001016000888152602001908152602001600020819055508087600001600088815260200190815260200160002081905550600193505050505b9392505050565b6000600160001b821415610be45760009050610c03565b6000801b83600001600084815260200190815260200160002054141590505b92915050565b6000610c1482610c8b565b15610c6a576040517f08c379a0000000000000000000000000000000000000000000000000000000008152600401808060200182810382526022815260200180610f2e6022913960400191505060405180910390fd5b816000016000600160001b8152602001908152602001600020549050919050565b60007fffffffffffffffffffffffffffffffffffffffff00000000000000000000000160001b826000016000600160001b815260200190815260200160002054149050919050565b6000816bffffffffffffffffffffffff166060846bffffffffffffffffffffffff16901b60c08667ffffffffffffffff16901b010160001b90509392505050565b600080610d218484610d51565b90508015610d47576000801b846001016000858152602001908152602001600020819055505b8091505092915050565b6000610d5d8383610bcd565b610d6a5760009050610df6565b60008360010160008481526020019081526020016000205490506000846000016000858152602001908152602001600020549050808560000160008481526020019081526020016000208190555081856001016000838152602001908152602001600020819055506000801b856000016000868152602001908152602001600020819055506001925050505b92915050565b7fffffffffffffffffffffffffffffffffffffffff00000000000000000000000160001b816000016000600160001b815260200190815260200160002081905550600160001b8160010160007fffffffffffffffffffffffffffffffffffffffff00000000000000000000000160001b81526020019081526020016000208190555050565b600080600060c08460001c901c925060608460001c901c91508360001c90509193909250565b600080831415610eba5760009050610f27565b6000828402905082848281610ecb57fe5b0414610f22576040517f08c379a0000000000000000000000000000000000000000000000000000000008152600401808060200182810382526021815260200180610f9c6021913960400191505060405180910390fd5b809150505b9291505056fe547279696e6720746f206765742066697273742066726f6d20656d70747920736574547279696e6720746f20676574206e657874206f66206c61737420656c656d656e74547279696e6720746f20676574206e657874206f66206e6f6e2d6578697374656e7420656c656d656e74536166654d6174683a206d756c7469706c69636174696f6e206f766572666c6f7775736572206973206e6f7420616c6c6f77656420746f20706c6163652073616d65206f72646572207477696365a26469706673582212208d1bed4f78724b1bfdc918a074be1cbc7c1b77f6abe98bd7de38d71dc57c7f8a64736f6c634300060c0033",
  "linkReferences": {},
  "deployedLinkReferences": {}
}