{
  "_format": "hh-sol-artifact-1",
  "contractName": "SubjectFactory",
  "sourceName": "contracts/SubjectFactory.sol",
  "abi": [
    {
      "inputs": [],
      "name": "AccessControlBadConfirmation",
      "type": "error"
    },
    {
      "inputs": [
        {
          "internalType": "address",
          "name": "account",
          "type": "address"
        },
        {
          "internalType": "bytes32",
          "name": "neededRole",
          "type": "bytes32"
        }
      ],
      "name": "AccessControlUnauthorizedAccount",
      "type": "error"
    },
    {
      "inputs": [
        {
          "internalType": "address",
          "name": "target",
          "type": "address"
        }
      ],
      "name": "AddressEmptyCode",
      "type": "error"
    },
    {
      "inputs": [
        {
          "internalType": "address",
          "name": "account",
          "type": "address"
        }
      ],
      "name": "AddressInsufficientBalance",
      "type": "error"
    },
    {
      "inputs": [],
      "name": "EnforcedPause",
      "type": "error"
    },
    {
      "inputs": [],
      "name": "ExpectedPause",
      "type": "error"
    },
    {
      "inputs": [],
      "name": "FailedInnerCall",
      "type": "error"
    },
    {
      "inputs": [],
      "name": "InvalidInitialization",
      "type": "error"
    },
    {
      "inputs": [],
      "name": "NotInitializing",
      "type": "error"
    },
    {
      "inputs": [
        {
          "internalType": "address",
          "name": "token",
          "type": "address"
        }
      ],
      "name": "SafeERC20FailedOperation",
      "type": "error"
    },
    {
      "inputs": [],
      "name": "SubjectFactory_AuctionAlreadyCreated",
      "type": "error"
    },
    {
      "inputs": [],
      "name": "SubjectFactory_AuctionNotCreated",
      "type": "error"
    },
    {
      "inputs": [],
      "name": "SubjectFactory_AuctionNotDoneYet",
      "type": "error"
    },
    {
      "inputs": [],
      "name": "SubjectFactory_BuyAmountTooLess",
      "type": "error"
    },
    {
      "inputs": [],
      "name": "SubjectFactory_InvalidAuctionContract",
      "type": "error"
    },
    {
      "inputs": [],
      "name": "SubjectFactory_InvalidAuctionDuration",
      "type": "error"
    },
    {
      "inputs": [],
      "name": "SubjectFactory_InvalidAuctionOrderCancellationDuration",
      "type": "error"
    },
    {
      "inputs": [],
      "name": "SubjectFactory_InvalidBeneficiary",
      "type": "error"
    },
    {
      "inputs": [],
      "name": "SubjectFactory_InvalidFeePercentage",
      "type": "error"
    },
    {
      "inputs": [],
      "name": "SubjectFactory_InvalidMoxieBondingCurve",
      "type": "error"
    },
    {
      "inputs": [],
      "name": "SubjectFactory_InvalidOwner",
      "type": "error"
    },
    {
      "inputs": [],
      "name": "SubjectFactory_InvalidReserveRatio",
      "type": "error"
    },
    {
      "inputs": [],
      "name": "SubjectFactory_InvalidSubject",
      "type": "error"
    },
    {
      "inputs": [],
      "name": "SubjectFactory_InvalidToken",
      "type": "error"
    },
    {
      "inputs": [],
      "name": "SubjectFactory_InvalidTokenManager",
      "type": "error"
    },
    {
      "anonymous": false,
      "inputs": [
        {
          "indexed": false,
          "internalType": "uint64",
          "name": "version",
          "type": "uint64"
        }
      ],
      "name": "Initialized",
      "type": "event"
    },
    {
      "anonymous": false,
      "inputs": [
        {
          "indexed": false,
          "internalType": "address",
          "name": "account",
          "type": "address"
        }
      ],
      "name": "Paused",
      "type": "event"
    },
    {
      "anonymous": false,
      "inputs": [
        {
          "indexed": true,
          "internalType": "bytes32",
          "name": "role",
          "type": "bytes32"
        },
        {
          "indexed": true,
          "internalType": "bytes32",
          "name": "previousAdminRole",
          "type": "bytes32"
        },
        {
          "indexed": true,
          "internalType": "bytes32",
          "name": "newAdminRole",
          "type": "bytes32"
        }
      ],
      "name": "RoleAdminChanged",
      "type": "event"
    },
    {
      "anonymous": false,
      "inputs": [
        {
          "indexed": true,
          "internalType": "bytes32",
          "name": "role",
          "type": "bytes32"
        },
        {
          "indexed": true,
          "internalType": "address",
          "name": "account",
          "type": "address"
        },
        {
          "indexed": true,
          "internalType": "address",
          "name": "sender",
          "type": "address"
        }
      ],
      "name": "RoleGranted",
      "type": "event"
    },
    {
      "anonymous": false,
      "inputs": [
        {
          "indexed": true,
          "internalType": "bytes32",
          "name": "role",
          "type": "bytes32"
        },
        {
          "indexed": true,
          "internalType": "address",
          "name": "account",
          "type": "address"
        },
        {
          "indexed": true,
          "internalType": "address",
          "name": "sender",
          "type": "address"
        }
      ],
      "name": "RoleRevoked",
      "type": "event"
    },
    {
      "anonymous": false,
      "inputs": [
        {
          "indexed": false,
          "internalType": "address",
          "name": "_subject",
          "type": "address"
        },
        {
          "indexed": false,
          "internalType": "address",
          "name": "_subjectToken",
          "type": "address"
        },
        {
          "indexed": false,
          "internalType": "uint256",
          "name": "_auctionId",
          "type": "uint256"
        },
        {
          "indexed": false,
          "internalType": "uint256",
          "name": "_bondingSupply",
          "type": "uint256"
        },
        {
          "indexed": false,
          "internalType": "uint256",
          "name": "_bondingAmount",
          "type": "uint256"
        },
        {
          "indexed": false,
          "internalType": "uint256",
          "name": "_protocolFee",
          "type": "uint256"
        },
        {
          "indexed": false,
          "internalType": "uint256",
          "name": "_subjectFee",
          "type": "uint256"
        }
      ],
      "name": "SubjectOnboardingFinished",
      "type": "event"
    },
    {
      "anonymous": false,
      "inputs": [
        {
          "indexed": false,
          "internalType": "address",
          "name": "_subject",
          "type": "address"
        },
        {
          "indexed": false,
          "internalType": "address",
          "name": "_subjectToken",
          "type": "address"
        },
        {
          "indexed": false,
          "internalType": "uint256",
          "name": "_auctionAmount",
          "type": "uint256"
        },
        {
          "indexed": false,
          "internalType": "address",
          "name": "_biddingToken",
          "type": "address"
        },
        {
          "indexed": false,
          "internalType": "uint256",
          "name": "auctionEndDate",
          "type": "uint256"
        },
        {
          "indexed": false,
          "internalType": "uint256",
          "name": "_auctionId",
          "type": "uint256"
        }
      ],
      "name": "SubjectOnboardingInitiated",
      "type": "event"
    },
    {
      "anonymous": false,
      "inputs": [
        {
          "indexed": false,
          "internalType": "address",
          "name": "account",
          "type": "address"
        }
      ],
      "name": "Unpaused",
      "type": "event"
    },
    {
      "anonymous": false,
      "inputs": [
        {
          "indexed": false,
          "internalType": "uint256",
          "name": "_auctionDuration",
          "type": "uint256"
        },
        {
          "indexed": false,
          "internalType": "uint256",
          "name": "_auctionOrderCancellationDuration",
          "type": "uint256"
        }
      ],
      "name": "UpdateAuctionParam",
      "type": "event"
    },
    {
      "anonymous": false,
      "inputs": [
        {
          "indexed": false,
          "internalType": "address",
          "name": "_beneficiary",
          "type": "address"
        }
      ],
      "name": "UpdateBeneficiary",
      "type": "event"
    },
    {
      "anonymous": false,
      "inputs": [
        {
          "indexed": false,
          "internalType": "uint256",
          "name": "_protocolFeePct",
          "type": "uint256"
        },
        {
          "indexed": false,
          "internalType": "uint256",
          "name": "_subjectFeePct",
          "type": "uint256"
        }
      ],
      "name": "UpdateFees",
      "type": "event"
    },
    {
      "inputs": [],
      "name": "DEFAULT_ADMIN_ROLE",
      "outputs": [
        {
          "internalType": "bytes32",
          "name": "",
          "type": "bytes32"
        }
      ],
      "stateMutability": "view",
      "type": "function"
    },
    {
      "inputs": [],
      "name": "ONBOARDING_ROLE",
      "outputs": [
        {
          "internalType": "bytes32",
          "name": "",
          "type": "bytes32"
        }
      ],
      "stateMutability": "view",
      "type": "function"
    },
    {
      "inputs": [],
      "name": "PAUSE_ROLE",
      "outputs": [
        {
          "internalType": "bytes32",
          "name": "",
          "type": "bytes32"
        }
      ],
      "stateMutability": "view",
      "type": "function"
    },
    {
      "inputs": [],
      "name": "PCT_BASE",
      "outputs": [
        {
          "internalType": "uint256",
          "name": "",
          "type": "uint256"
        }
      ],
      "stateMutability": "view",
      "type": "function"
    },
    {
      "inputs": [],
      "name": "UPDATE_AUCTION_ROLE",
      "outputs": [
        {
          "internalType": "bytes32",
          "name": "",
          "type": "bytes32"
        }
      ],
      "stateMutability": "view",
      "type": "function"
    },
    {
      "inputs": [],
      "name": "UPDATE_BENEFICIARY_ROLE",
      "outputs": [
        {
          "internalType": "bytes32",
          "name": "",
          "type": "bytes32"
        }
      ],
      "stateMutability": "view",
      "type": "function"
    },
    {
      "inputs": [],
      "name": "UPDATE_FEES_ROLE",
      "outputs": [
        {
          "internalType": "bytes32",
          "name": "",
          "type": "bytes32"
        }
      ],
      "stateMutability": "view",
      "type": "function"
    },
    {
      "inputs": [],
      "name": "auctionDuration",
      "outputs": [
        {
          "internalType": "uint256",
          "name": "",
          "type": "uint256"
        }
      ],
      "stateMutability": "view",
      "type": "function"
    },
    {
      "inputs": [],
      "name": "auctionOrderCancellationDuration",
      "outputs": [
        {
          "internalType": "uint256",
          "name": "",
          "type": "uint256"
        }
      ],
      "stateMutability": "view",
      "type": "function"
    },
    {
      "inputs": [
        {
          "internalType": "address",
          "name": "subject",
          "type": "address"
        }
      ],
      "name": "auctions",
      "outputs": [
        {
          "internalType": "uint256",
          "name": "auctionId",
          "type": "uint256"
        },
        {
          "internalType": "uint256",
          "name": "auctionEndDate",
          "type": "uint256"
        },
        {
          "internalType": "uint256",
          "name": "initialSupply",
          "type": "uint256"
        }
      ],
      "stateMutability": "view",
      "type": "function"
    },
    {
      "inputs": [],
      "name": "easyAuction",
      "outputs": [
        {
          "internalType": "contract IEasyAuction",
          "name": "",
          "type": "address"
        }
      ],
      "stateMutability": "view",
      "type": "function"
    },
    {
      "inputs": [],
      "name": "feeBeneficiary",
      "outputs": [
        {
          "internalType": "address",
          "name": "",
          "type": "address"
        }
      ],
      "stateMutability": "view",
      "type": "function"
    },
    {
      "inputs": [
        {
          "internalType": "address",
          "name": "_subject",
          "type": "address"
        },
        {
          "internalType": "uint256",
          "name": "_buyAmount",
          "type": "uint256"
        },
        {
          "internalType": "uint32",
          "name": "_reserveRatio",
          "type": "uint32"
        }
      ],
      "name": "finalizeSubjectOnboarding",
      "outputs": [],
      "stateMutability": "nonpayable",
      "type": "function"
    },
    {
      "inputs": [
        {
          "internalType": "bytes32",
          "name": "role",
          "type": "bytes32"
        }
      ],
      "name": "getRoleAdmin",
      "outputs": [
        {
          "internalType": "bytes32",
          "name": "",
          "type": "bytes32"
        }
      ],
      "stateMutability": "view",
      "type": "function"
    },
    {
      "inputs": [
        {
          "internalType": "bytes32",
          "name": "role",
          "type": "bytes32"
        },
        {
          "internalType": "address",
          "name": "account",
          "type": "address"
        }
      ],
      "name": "grantRole",
      "outputs": [],
      "stateMutability": "nonpayable",
      "type": "function"
    },
    {
      "inputs": [
        {
          "internalType": "bytes32",
          "name": "role",
          "type": "bytes32"
        },
        {
          "internalType": "address",
          "name": "account",
          "type": "address"
        }
      ],
      "name": "hasRole",
      "outputs": [
        {
          "internalType": "bool",
          "name": "",
          "type": "bool"
        }
      ],
      "stateMutability": "view",
      "type": "function"
    },
    {
      "inputs": [
        {
          "internalType": "address",
          "name": "_owner",
          "type": "address"
        },
        {
          "internalType": "address",
          "name": "_tokenManager",
          "type": "address"
        },
        {
          "internalType": "address",
          "name": "_moxieBondingCurve",
          "type": "address"
        },
        {
          "internalType": "address",
          "name": "_token",
          "type": "address"
        },
        {
          "internalType": "address",
          "name": "_easyAuction",
          "type": "address"
        },
        {
          "components": [
            {
              "internalType": "uint256",
              "name": "protocolFeePct",
              "type": "uint256"
            },
            {
              "internalType": "uint256",
              "name": "subjectFeePct",
              "type": "uint256"
            }
          ],
          "internalType": "struct ISubjectFactory.FeeInput",
          "name": "_feeInput",
          "type": "tuple"
        },
        {
          "internalType": "address",
          "name": "_feeBeneficiary",
          "type": "address"
        },
        {
          "internalType": "uint256",
          "name": "_auctionDuration",
          "type": "uint256"
        },
        {
          "internalType": "uint256",
          "name": "_auctionOrderCancellationDuration",
          "type": "uint256"
        }
      ],
      "name": "initialize",
      "outputs": [],
      "stateMutability": "nonpayable",
      "type": "function"
    },
    {
      "inputs": [
        {
          "internalType": "address",
          "name": "_subject",
          "type": "address"
        },
        {
          "components": [
            {
              "internalType": "string",
              "name": "name",
              "type": "string"
            },
            {
              "internalType": "string",
              "name": "symbol",
              "type": "string"
            },
            {
              "internalType": "uint96",
              "name": "initialSupply",
              "type": "uint96"
            },
            {
              "internalType": "uint96",
              "name": "minBuyAmount",
              "type": "uint96"
            },
            {
              "internalType": "uint256",
              "name": "minBiddingAmount",
              "type": "uint256"
            },
            {
              "internalType": "uint256",
              "name": "minFundingThreshold",
              "type": "uint256"
            },
            {
              "internalType": "bool",
              "name": "isAtomicClosureAllowed",
              "type": "bool"
            },
            {
              "internalType": "address",
              "name": "accessManagerContract",
              "type": "address"
            },
            {
              "internalType": "bytes",
              "name": "accessManagerContractData",
              "type": "bytes"
            }
          ],
          "internalType": "struct ISubjectFactory.SubjectAuctionInput",
          "name": "_auctionInput",
          "type": "tuple"
        }
      ],
      "name": "initiateSubjectOnboarding",
      "outputs": [
        {
          "internalType": "uint256",
          "name": "",
          "type": "uint256"
        }
      ],
      "stateMutability": "nonpayable",
      "type": "function"
    },
    {
      "inputs": [],
      "name": "moxieBondingCurve",
      "outputs": [
        {
          "internalType": "contract IMoxieBondingCurve",
          "name": "",
          "type": "address"
        }
      ],
      "stateMutability": "view",
      "type": "function"
    },
    {
      "inputs": [],
      "name": "pause",
      "outputs": [],
      "stateMutability": "nonpayable",
      "type": "function"
    },
    {
      "inputs": [],
      "name": "paused",
      "outputs": [
        {
          "internalType": "bool",
          "name": "",
          "type": "bool"
        }
      ],
      "stateMutability": "view",
      "type": "function"
    },
    {
      "inputs": [],
      "name": "protocolFeePct",
      "outputs": [
        {
          "internalType": "uint256",
          "name": "",
          "type": "uint256"
        }
      ],
      "stateMutability": "view",
      "type": "function"
    },
    {
      "inputs": [
        {
          "internalType": "bytes32",
          "name": "role",
          "type": "bytes32"
        },
        {
          "internalType": "address",
          "name": "callerConfirmation",
          "type": "address"
        }
      ],
      "name": "renounceRole",
      "outputs": [],
      "stateMutability": "nonpayable",
      "type": "function"
    },
    {
      "inputs": [
        {
          "internalType": "bytes32",
          "name": "role",
          "type": "bytes32"
        },
        {
          "internalType": "address",
          "name": "account",
          "type": "address"
        }
      ],
      "name": "revokeRole",
      "outputs": [],
      "stateMutability": "nonpayable",
      "type": "function"
    },
    {
      "inputs": [],
      "name": "subjectFeePct",
      "outputs": [
        {
          "internalType": "uint256",
          "name": "",
          "type": "uint256"
        }
      ],
      "stateMutability": "view",
      "type": "function"
    },
    {
      "inputs": [
        {
          "internalType": "bytes4",
          "name": "interfaceId",
          "type": "bytes4"
        }
      ],
      "name": "supportsInterface",
      "outputs": [
        {
          "internalType": "bool",
          "name": "",
          "type": "bool"
        }
      ],
      "stateMutability": "view",
      "type": "function"
    },
    {
      "inputs": [],
      "name": "token",
      "outputs": [
        {
          "internalType": "contract IERC20Extended",
          "name": "",
          "type": "address"
        }
      ],
      "stateMutability": "view",
      "type": "function"
    },
    {
      "inputs": [],
      "name": "tokenManager",
      "outputs": [
        {
          "internalType": "contract ITokenManager",
          "name": "",
          "type": "address"
        }
      ],
      "stateMutability": "view",
      "type": "function"
    },
    {
      "inputs": [],
      "name": "unpause",
      "outputs": [],
      "stateMutability": "nonpayable",
      "type": "function"
    },
    {
      "inputs": [
        {
          "internalType": "uint256",
          "name": "_auctionDuration",
          "type": "uint256"
        },
        {
          "internalType": "uint256",
          "name": "_auctionOrderCancellationDuration",
          "type": "uint256"
        }
      ],
      "name": "updateAuctionTime",
      "outputs": [],
      "stateMutability": "nonpayable",
      "type": "function"
    },
    {
      "inputs": [
        {
          "internalType": "address",
          "name": "_feeBeneficiary",
          "type": "address"
        }
      ],
      "name": "updateFeeBeneficiary",
      "outputs": [],
      "stateMutability": "nonpayable",
      "type": "function"
    },
    {
      "inputs": [
        {
          "components": [
            {
              "internalType": "uint256",
              "name": "protocolFeePct",
              "type": "uint256"
            },
            {
              "internalType": "uint256",
              "name": "subjectFeePct",
              "type": "uint256"
            }
          ],
          "internalType": "struct ISubjectFactory.FeeInput",
          "name": "_feeInput",
          "type": "tuple"
        }
      ],
      "name": "updateFees",
      "outputs": [],
      "stateMutability": "nonpayable",
      "type": "function"
    }
  ],
  "bytecode": "0x608060405234801561001057600080fd5b50613f18806100206000396000f3fe608060405234801561001057600080fd5b50600436106101f05760003560e01c8063492fb3431161010f578063c74c43eb116100a2578063d8e4cdd411610071578063d8e4cdd414610561578063f7b01a491461057f578063fc0c546a1461059d578063fc157cb4146105bb576101f0565b8063c74c43eb146104ef578063cdeaaf9b1461050b578063d33bd29d14610529578063d547741f14610545576101f0565b80636c572893116100de5780636c5728931461047b5780638456cb591461049757806391d14854146104a1578063a217fddf146104d1576101f0565b8063492fb34314610403578063537a3381146104215780635c975abb1461043f57806360e14b601461045d576101f0565b80633126ede1116101875780633a6226bb116101565780633a6226bb146103a15780633f4ba83a146103bd57806341644f8c146103c757806343560891146103e5576101f0565b80633126ede11461031957806336568abe1461033757806337ef3fbe14610353578063389ed26714610383576101f0565b80631d59410a116101c35780631d59410a1461027d578063248a9ca3146102af5780632a709b14146102df5780632f2ff15d146102fd576101f0565b806301ffc9a7146101f55780630cbf54c814610225578063129f8dca14610243578063179738d01461025f575b600080fd5b61020f600480360381019061020a9190612d9a565b6105d9565b60405161021c9190612de2565b60405180910390f35b61022d610653565b60405161023a9190612e16565b60405180910390f35b61025d60048036038101906102589190612e5d565b610659565b005b610267610743565b6040516102749190612eb6565b60405180910390f35b61029760048036038101906102929190612f2f565b610767565b6040516102a693929190612f5c565b60405180910390f35b6102c960048036038101906102c49190612fbf565b610791565b6040516102d69190612eb6565b60405180910390f35b6102e76107bf565b6040516102f4919061304b565b60405180910390f35b61031760048036038101906103129190613066565b6107e3565b005b610321610805565b60405161032e9190612e16565b60405180910390f35b610351600480360381019061034c9190613066565b61080b565b005b61036d6004803603810190610368919061343b565b610886565b60405161037a9190612e16565b60405180910390f35b61038b610b80565b6040516103989190612eb6565b60405180910390f35b6103bb60048036038101906103b691906134e7565b610ba4565b005b6103c56111ab565b005b6103cf6111e0565b6040516103dc9190612eb6565b60405180910390f35b6103ed611204565b6040516103fa9190612eb6565b60405180910390f35b61040b611228565b60405161041891906135c1565b60405180910390f35b61042961124e565b60405161043691906135fd565b60405180910390f35b610447611274565b6040516104549190612de2565b60405180910390f35b610465611299565b6040516104729190612eb6565b60405180910390f35b61049560048036038101906104909190612f2f565b6112bd565b005b61049f611333565b005b6104bb60048036038101906104b69190613066565b611368565b6040516104c89190612de2565b60405180910390f35b6104d96113e1565b6040516104e69190612eb6565b60405180910390f35b61050960048036038101906105049190613618565b6113e8565b005b61051361147a565b6040516105209190612e16565b60405180910390f35b610543600480360381019061053e9190613681565b611480565b005b61055f600480360381019061055a9190613066565b611722565b005b610569611744565b6040516105769190612e16565b60405180910390f35b61058761174a565b60405161059491906136f5565b60405180910390f35b6105a5611770565b6040516105b29190613731565b60405180910390f35b6105c3611796565b6040516105d09190612e16565b60405180910390f35b60007f7965db0b000000000000000000000000000000000000000000000000000000007bffffffffffffffffffffffffffffffffffffffffffffffffffffffff1916827bffffffffffffffffffffffffffffffffffffffffffffffffffffffff1916148061064c575061064b826117a2565b5b9050919050565b60065481565b7f45f7b643fd10623d0b12c447334501abf01def0d0be34bc6ba70ebe4fab8dd246106838161180c565b600082036106bd576040517fa1486c1500000000000000000000000000000000000000000000000000000000815260040160405180910390fd5b818310156106f7576040517f936914f800000000000000000000000000000000000000000000000000000000815260040160405180910390fd5b82600681905550816007819055507f6a40a5dc1fd517e0fe16eca9e81dd0e0d2b9b1f06f7799095c470000c8c488d0838360405161073692919061374c565b60405180910390a1505050565b7f41ab08329fb0a2935fa2b8b127e3380ff152b38c9f016ae14226bf4decc8746681565b60096020528060005260406000206000915090508060000154908060010154908060020154905083565b60008061079c611820565b905080600001600084815260200190815260200160002060010154915050919050565b60008054906101000a900473ffffffffffffffffffffffffffffffffffffffff1681565b6107ec82610791565b6107f58161180c565b6107ff8383611848565b50505050565b60075481565b610813611949565b73ffffffffffffffffffffffffffffffffffffffff168173ffffffffffffffffffffffffffffffffffffffff1614610877576040517f6697b23200000000000000000000000000000000000000000000000000000000815260040160405180910390fd5b6108818282611951565b505050565b6000610890611a53565b7f41ab08329fb0a2935fa2b8b127e3380ff152b38c9f016ae14226bf4decc874666108ba8161180c565b600073ffffffffffffffffffffffffffffffffffffffff168473ffffffffffffffffffffffffffffffffffffffff1603610920576040517f2d44adc700000000000000000000000000000000000000000000000000000000815260040160405180910390fd5b6000600960008673ffffffffffffffffffffffffffffffffffffffff1673ffffffffffffffffffffffffffffffffffffffff168152602001908152602001600020600001541461099c576040517fb347d57900000000000000000000000000000000000000000000000000000000815260040160405180910390fd5b60008060009054906101000a900473ffffffffffffffffffffffffffffffffffffffff1673ffffffffffffffffffffffffffffffffffffffff166316bc0cf0868660000151876020015188604001518960e001516040518663ffffffff1660e01b8152600401610a10959493929190613825565b6020604051808303816000875af1158015610a2f573d6000803e3d6000fd5b505050506040513d601f19601f82011682018060405250810190610a53919061389b565b90508073ffffffffffffffffffffffffffffffffffffffff1663095ea7b3600560009054906101000a900473ffffffffffffffffffffffffffffffffffffffff1686604001516040518363ffffffff1660e01b8152600401610ab69291906138c8565b6020604051808303816000875af1158015610ad5573d6000803e3d6000fd5b505050506040513d601f19601f82011682018060405250810190610af99190613906565b50600080610b08878488611a94565b915091507f6fe3c8bc2a001eda7bcb9594360771389b00cd33722aa178cc817bd906120eaf87848860400151600860009054906101000a900473ffffffffffffffffffffffffffffffffffffffff168587604051610b6b96959493929190613933565b60405180910390a18194505050505092915050565b7f139c2898040ef16910dc9f44dc697df79363da767d8bc92f2e310312b816e46d81565b6000610bae611c96565b905060008160000160089054906101000a900460ff1615905060008260000160009054906101000a900467ffffffffffffffff1690506000808267ffffffffffffffff16148015610bfc5750825b9050600060018367ffffffffffffffff16148015610c31575060003073ffffffffffffffffffffffffffffffffffffffff163b145b905081158015610c3f575080155b15610c76576040517ff92ee8a900000000000000000000000000000000000000000000000000000000815260040160405180910390fd5b60018560000160006101000a81548167ffffffffffffffff021916908367ffffffffffffffff1602179055508315610cc65760018560000160086101000a81548160ff0219169083151502179055505b600073ffffffffffffffffffffffffffffffffffffffff168e73ffffffffffffffffffffffffffffffffffffffff1603610d2c576040517f3ea5e1ca00000000000000000000000000000000000000000000000000000000815260040160405180910390fd5b600073ffffffffffffffffffffffffffffffffffffffff168d73ffffffffffffffffffffffffffffffffffffffff1603610d92576040517fdf26fddd00000000000000000000000000000000000000000000000000000000815260040160405180910390fd5b600073ffffffffffffffffffffffffffffffffffffffff168c73ffffffffffffffffffffffffffffffffffffffff1603610df8576040517ffa06deda00000000000000000000000000000000000000000000000000000000815260040160405180910390fd5b600073ffffffffffffffffffffffffffffffffffffffff168b73ffffffffffffffffffffffffffffffffffffffff1603610e5e576040517f1aa291de00000000000000000000000000000000000000000000000000000000815260040160405180910390fd5b600073ffffffffffffffffffffffffffffffffffffffff168a73ffffffffffffffffffffffffffffffffffffffff1603610ec4576040517fe2562cd800000000000000000000000000000000000000000000000000000000815260040160405180910390fd5b610ee089602001518a60000151610edb91906139c3565b611cbe565b610f16576040517f540685df00000000000000000000000000000000000000000000000000000000815260040160405180910390fd5b610f1f88611cd2565b610f55576040517f7539c7ce00000000000000000000000000000000000000000000000000000000815260040160405180910390fd5b60008603610f8f576040517fa1486c1500000000000000000000000000000000000000000000000000000000815260040160405180910390fd5b85871015610fc9576040517f936914f800000000000000000000000000000000000000000000000000000000815260040160405180910390fd5b8860000151600281905550886020015160038190555087600460006101000a81548173ffffffffffffffffffffffffffffffffffffffff021916908373ffffffffffffffffffffffffffffffffffffffff1602179055508a600860006101000a81548173ffffffffffffffffffffffffffffffffffffffff021916908373ffffffffffffffffffffffffffffffffffffffff160217905550866006819055508560078190555089600560006101000a81548173ffffffffffffffffffffffffffffffffffffffff021916908373ffffffffffffffffffffffffffffffffffffffff1602179055508c6000806101000a81548173ffffffffffffffffffffffffffffffffffffffff021916908373ffffffffffffffffffffffffffffffffffffffff1602179055508b600160006101000a81548173ffffffffffffffffffffffffffffffffffffffff021916908373ffffffffffffffffffffffffffffffffffffffff16021790555061113e6000801b8f611848565b50831561119b5760008560000160086101000a81548160ff0219169083151502179055507fc7f505b2f371ae2175ee4913f4499e1f2633a7b5936321eed1cdaeb6115181d260016040516111929190613a46565b60405180910390a15b5050505050505050505050505050565b7f139c2898040ef16910dc9f44dc697df79363da767d8bc92f2e310312b816e46d6111d58161180c565b6111dd611d0b565b50565b7ff7ea2b80c7b6a2cab2c11d2290cb005c3748397358a25e17113658c83b73259381565b7f45f7b643fd10623d0b12c447334501abf01def0d0be34bc6ba70ebe4fab8dd2481565b600460009054906101000a900473ffffffffffffffffffffffffffffffffffffffff1681565b600560009054906101000a900473ffffffffffffffffffffffffffffffffffffffff1681565b60008061127f611d7d565b90508060000160009054906101000a900460ff1691505090565b7f5f9be2932ed3a723f295a763be1804c7ebfd1a41c1348fb8bdf5be1c5cdca82281565b7ff7ea2b80c7b6a2cab2c11d2290cb005c3748397358a25e17113658c83b7325936112e78161180c565b6112f082611cd2565b611326576040517f7539c7ce00000000000000000000000000000000000000000000000000000000815260040160405180910390fd5b61132f82611da5565b5050565b7f139c2898040ef16910dc9f44dc697df79363da767d8bc92f2e310312b816e46d61135d8161180c565b611365611e20565b50565b600080611373611820565b905080600001600085815260200190815260200160002060000160008473ffffffffffffffffffffffffffffffffffffffff1673ffffffffffffffffffffffffffffffffffffffff16815260200190815260200160002060009054906101000a900460ff1691505092915050565b6000801b81565b7f5f9be2932ed3a723f295a763be1804c7ebfd1a41c1348fb8bdf5be1c5cdca8226114128161180c565b61142e8260200151836000015161142991906139c3565b611cbe565b611464576040517f540685df00000000000000000000000000000000000000000000000000000000815260040160405180910390fd5b61147682600001518360200151611e92565b5050565b60025481565b611488611a53565b7f41ab08329fb0a2935fa2b8b127e3380ff152b38c9f016ae14226bf4decc874666114b28161180c565b600073ffffffffffffffffffffffffffffffffffffffff168473ffffffffffffffffffffffffffffffffffffffff1603611518576040517f2d44adc700000000000000000000000000000000000000000000000000000000815260040160405180910390fd5b60008263ffffffff1603611558576040517ffa427b3200000000000000000000000000000000000000000000000000000000815260040160405180910390fd5b6000600960008673ffffffffffffffffffffffffffffffffffffffff1673ffffffffffffffffffffffffffffffffffffffff16815260200190815260200160002060405180606001604052908160008201548152602001600182015481526020016002820154815250509050600960008673ffffffffffffffffffffffffffffffffffffffff1673ffffffffffffffffffffffffffffffffffffffff16815260200190815260200160002060008082016000905560018201600090556002820160009055505060008160000151905060008103611661576040517fc1b57a9100000000000000000000000000000000000000000000000000000000815260040160405180910390fd5b816020015142101561169f576040517f6a1941ba00000000000000000000000000000000000000000000000000000000815260040160405180910390fd5b60008060006116b3848a8760400151611ee1565b92509250925061170833308a600860009054906101000a900473ffffffffffffffffffffffffffffffffffffffff1673ffffffffffffffffffffffffffffffffffffffff1661231c909392919063ffffffff16565b611717848a84868b868e61239e565b505050505050505050565b61172b82610791565b6117348161180c565b61173e8383611951565b50505050565b60035481565b600160009054906101000a900473ffffffffffffffffffffffffffffffffffffffff1681565b600860009054906101000a900473ffffffffffffffffffffffffffffffffffffffff1681565b670de0b6b3a764000081565b60007f01ffc9a7000000000000000000000000000000000000000000000000000000007bffffffffffffffffffffffffffffffffffffffffffffffffffffffff1916827bffffffffffffffffffffffffffffffffffffffffffffffffffffffff1916149050919050565b61181d81611818611949565b61290c565b50565b60007f02dd7bc7dec4dceedda775e58dd541e08a116c6c53815c0bd028192f7b626800905090565b600080611853611820565b905061185f8484611368565b61193d57600181600001600086815260200190815260200160002060000160008573ffffffffffffffffffffffffffffffffffffffff1673ffffffffffffffffffffffffffffffffffffffff16815260200190815260200160002060006101000a81548160ff0219169083151502179055506118d9611949565b73ffffffffffffffffffffffffffffffffffffffff168373ffffffffffffffffffffffffffffffffffffffff16857f2f8788117e7eff1d82e926ec794901d17c78024a50270940304540a733656f0d60405160405180910390a46001915050611943565b60009150505b92915050565b600033905090565b60008061195c611820565b90506119688484611368565b15611a4757600081600001600086815260200190815260200160002060000160008573ffffffffffffffffffffffffffffffffffffffff1673ffffffffffffffffffffffffffffffffffffffff16815260200190815260200160002060006101000a81548160ff0219169083151502179055506119e3611949565b73ffffffffffffffffffffffffffffffffffffffff168373ffffffffffffffffffffffffffffffffffffffff16857ff6391f5c32d9c69d2a47ea670b442974b53935d1edc7fd64eb21e047a839171b60405160405180910390a46001915050611a4d565b60009150505b92915050565b611a5b611274565b15611a92576040517fd93c066500000000000000000000000000000000000000000000000000000000815260040160405180910390fd5b565b60008060065442611aa591906139c3565b905080600960008773ffffffffffffffffffffffffffffffffffffffff1673ffffffffffffffffffffffffffffffffffffffff1681526020019081526020016000206001018190555082604001516bffffffffffffffffffffffff16600960008773ffffffffffffffffffffffffffffffffffffffff1673ffffffffffffffffffffffffffffffffffffffff16815260200190815260200160002060020181905550600560009054906101000a900473ffffffffffffffffffffffffffffffffffffffff1673ffffffffffffffffffffffffffffffffffffffff16630a4cd6c985600860009054906101000a900473ffffffffffffffffffffffffffffffffffffffff1660075442611bb791906139c3565b85886040015189606001518a608001518b60a001518c60c001518d60e001518e61010001516040518c63ffffffff1660e01b8152600401611c029b9a99989796959493929190613ac5565b6020604051808303816000875af1158015611c21573d6000803e3d6000fd5b505050506040513d601f19601f82011682018060405250810190611c459190613b8c565b915081600960008773ffffffffffffffffffffffffffffffffffffffff1673ffffffffffffffffffffffffffffffffffffffff16815260200190815260200160002060000181905550935093915050565b60007ff0c57e16840df040f15088dc2f81fe391c3923bec73e23a9662efc9c229c6a00905090565b6000670de0b6b3a764000082109050919050565b60008073ffffffffffffffffffffffffffffffffffffffff168273ffffffffffffffffffffffffffffffffffffffff1614159050919050565b611d1361295d565b6000611d1d611d7d565b905060008160000160006101000a81548160ff0219169083151502179055507f5db9ee0a495bf2e6ff9c91a7834c1ba4fdd244a5e8aa4e537bd38aeae4b073aa611d65611949565b604051611d7291906135c1565b60405180910390a150565b60007fcd5ed15c6e187e77e9aee88184c21f4f2182ab5827cb3b7e07fbedcd63f03300905090565b80600460006101000a81548173ffffffffffffffffffffffffffffffffffffffff021916908373ffffffffffffffffffffffffffffffffffffffff1602179055507fe6131a64e93e9aa4ff38892c34d563c06dcc1e03b3d6897cc65f0903e2ad684881604051611e1591906135c1565b60405180910390a150565b611e28611a53565b6000611e32611d7d565b905060018160000160006101000a81548160ff0219169083151502179055507f62e78cea01bee320cd4e420270b5ea74000d11b0c9f74754ebdbfc544b05a258611e7a611949565b604051611e8791906135c1565b60405180910390a150565b81600281905550806003819055507f53482196ef67ac615caab1c3eca2c270acbfdcd75e57c5f24c1b98b10c8e6e04600254600354604051611ed592919061374c565b60405180910390a15050565b60008060008060008054906101000a900473ffffffffffffffffffffffffffffffffffffffff1673ffffffffffffffffffffffffffffffffffffffff1663e4860339876040518263ffffffff1660e01b8152600401611f4091906135c1565b6020604051808303816000875af1158015611f5f573d6000803e3d6000fd5b505050506040513d601f19601f82011682018060405250810190611f83919061389b565b905060008173ffffffffffffffffffffffffffffffffffffffff166370a08231306040518263ffffffff1660e01b8152600401611fc091906135c1565b602060405180830381865afa158015611fdd573d6000803e3d6000fd5b505050506040513d601f19601f820116820180604052508101906120019190613b8c565b90506000600860009054906101000a900473ffffffffffffffffffffffffffffffffffffffff1673ffffffffffffffffffffffffffffffffffffffff166370a08231306040518263ffffffff1660e01b815260040161206091906135c1565b602060405180830381865afa15801561207d573d6000803e3d6000fd5b505050506040513d601f19601f820116820180604052508101906120a19190613b8c565b9050600560009054906101000a900473ffffffffffffffffffffffffffffffffffffffff1673ffffffffffffffffffffffffffffffffffffffff16632e9936118a6040518263ffffffff1660e01b81526004016120fe9190612e16565b6020604051808303816000875af115801561211d573d6000803e3d6000fd5b505050506040513d601f19601f820116820180604052508101906121419190613bce565b935060008373ffffffffffffffffffffffffffffffffffffffff166370a08231306040518263ffffffff1660e01b815260040161217e91906135c1565b602060405180830381865afa15801561219b573d6000803e3d6000fd5b505050506040513d601f19601f820116820180604052508101906121bf9190613b8c565b90506000600860009054906101000a900473ffffffffffffffffffffffffffffffffffffffff1673ffffffffffffffffffffffffffffffffffffffff166370a08231306040518263ffffffff1660e01b815260040161221e91906135c1565b602060405180830381865afa15801561223b573d6000803e3d6000fd5b505050506040513d601f19601f8201168201806040525081019061225f9190613b8c565b9050838261226d9190613bfb565b896122789190613bfb565b975082816122869190613bfb565b96506000888a6122969190613bfb565b9050600081111561230d578573ffffffffffffffffffffffffffffffffffffffff166342966c68826040518263ffffffff1660e01b81526004016122da9190612e16565b600060405180830381600087803b1580156122f457600080fd5b505af1158015612308573d6000803e3d6000fd5b505050505b50505050505093509350939050565b612398848573ffffffffffffffffffffffffffffffffffffffff166323b872dd86868660405160240161235193929190613c2f565b604051602081830303815290604052915060e01b6020820180517bffffffffffffffffffffffffffffffffffffffffffffffffffffffff838183161783525050505061299d565b50505050565b60006123aa8383612a34565b9050600081036123e6576040517fe2d3672300000000000000000000000000000000000000000000000000000000815260040160405180910390fd5b60008054906101000a900473ffffffffffffffffffffffffffffffffffffffff1673ffffffffffffffffffffffffffffffffffffffff1663c6c3bbe68830846040518463ffffffff1660e01b815260040161244393929190613c2f565b6020604051808303816000875af1158015612462573d6000803e3d6000fd5b505050506040513d601f19601f820116820180604052508101906124869190613906565b5060008061249e848961249991906139c3565b612a84565b9150915060008183868b6124b291906139c3565b6124bc9190613bfb565b6124c69190613bfb565b9050600860009054906101000a900473ffffffffffffffffffffffffffffffffffffffff1673ffffffffffffffffffffffffffffffffffffffff1663095ea7b3600160009054906101000a900473ffffffffffffffffffffffffffffffffffffffff16836040518363ffffffff1660e01b8152600401612547929190613c66565b6020604051808303816000875af1158015612566573d6000803e3d6000fd5b505050506040513d601f19601f8201168201806040525081019061258a9190613906565b506000848961259991906139c3565b9050600160009054906101000a900473ffffffffffffffffffffffffffffffffffffffff1673ffffffffffffffffffffffffffffffffffffffff1663ba6da0018c8a84866040518563ffffffff1660e01b81526004016125fc9493929190613c9e565b6020604051808303816000875af115801561261b573d6000803e3d6000fd5b505050506040513d601f19601f8201168201806040525081019061263f9190613906565b506126af600460009054906101000a900473ffffffffffffffffffffffffffffffffffffffff1685600860009054906101000a900473ffffffffffffffffffffffffffffffffffffffff1673ffffffffffffffffffffffffffffffffffffffff16612ad29092919063ffffffff16565b600860009054906101000a900473ffffffffffffffffffffffffffffffffffffffff1673ffffffffffffffffffffffffffffffffffffffff1663095ea7b3600160009054906101000a900473ffffffffffffffffffffffffffffffffffffffff16856040518363ffffffff1660e01b815260040161272e929190613c66565b6020604051808303816000875af115801561274d573d6000803e3d6000fd5b505050506040513d601f19601f820116820180604052508101906127719190613906565b50600083111561282057600160009054906101000a900473ffffffffffffffffffffffffffffffffffffffff1673ffffffffffffffffffffffffffffffffffffffff166317f692228c8560006040518463ffffffff1660e01b81526004016127db93929190613d1e565b6020604051808303816000875af11580156127fa573d6000803e3d6000fd5b505050506040513d601f19601f8201168201806040525081019061281e9190613b8c565b505b7f8a5439e754019b388689fac2719ea5351c2d8a330326fffaa5ae8e20df3df0368b60008054906101000a900473ffffffffffffffffffffffffffffffffffffffff1673ffffffffffffffffffffffffffffffffffffffff1663e48603398e6040518263ffffffff1660e01b815260040161289b91906135c1565b6020604051808303816000875af11580156128ba573d6000803e3d6000fd5b505050506040513d601f19601f820116820180604052508101906128de919061389b565b8e848689896040516128f69796959493929190613d55565b60405180910390a1505050505050505050505050565b6129168282611368565b6129595780826040517fe2517d3f000000000000000000000000000000000000000000000000000000008152600401612950929190613dc4565b60405180910390fd5b5050565b612965611274565b61299b576040517f8dfc202b00000000000000000000000000000000000000000000000000000000815260040160405180910390fd5b565b60006129c8828473ffffffffffffffffffffffffffffffffffffffff16612b5190919063ffffffff16565b905060008151141580156129ed5750808060200190518101906129eb9190613906565b155b15612a2f57826040517f5274afe7000000000000000000000000000000000000000000000000000000008152600401612a2691906135c1565b60405180910390fd5b505050565b6000806000612a4285612b67565b9250925050806bffffffffffffffffffffffff1684836bffffffffffffffffffffffff16612a709190613ded565b612a7a9190613e5e565b9250505092915050565b600080670de0b6b3a764000060025484612a9e9190613ded565b612aa89190613e5e565b9150670de0b6b3a764000060035484612ac19190613ded565b612acb9190613e5e565b9050915091565b612b4c838473ffffffffffffffffffffffffffffffffffffffff1663a9059cbb8585604051602401612b05929190613c66565b604051602081830303815290604052915060e01b6020820180517bffffffffffffffffffffffffffffffffffffffffffffffffffffffff838183161783525050505061299d565b505050565b6060612b5f83836000612b8d565b905092915050565b600080600060c08460001c901c925060608460001c901c91508360001c90509193909250565b606081471015612bd457306040517fcd786059000000000000000000000000000000000000000000000000000000008152600401612bcb91906135c1565b60405180910390fd5b6000808573ffffffffffffffffffffffffffffffffffffffff168486604051612bfd9190613ecb565b60006040518083038185875af1925050503d8060008114612c3a576040519150601f19603f3d011682016040523d82523d6000602084013e612c3f565b606091505b5091509150612c4f868383612c5a565b925050509392505050565b606082612c6f57612c6a82612ce9565b612ce1565b60008251148015612c97575060008473ffffffffffffffffffffffffffffffffffffffff163b145b15612cd957836040517f9996b315000000000000000000000000000000000000000000000000000000008152600401612cd091906135c1565b60405180910390fd5b819050612ce2565b5b9392505050565b600081511115612cfc5780518082602001fd5b6040517f1425ea4200000000000000000000000000000000000000000000000000000000815260040160405180910390fd5b6000604051905090565b600080fd5b600080fd5b60007fffffffff0000000000000000000000000000000000000000000000000000000082169050919050565b612d7781612d42565b8114612d8257600080fd5b50565b600081359050612d9481612d6e565b92915050565b600060208284031215612db057612daf612d38565b5b6000612dbe84828501612d85565b91505092915050565b60008115159050919050565b612ddc81612dc7565b82525050565b6000602082019050612df76000830184612dd3565b92915050565b6000819050919050565b612e1081612dfd565b82525050565b6000602082019050612e2b6000830184612e07565b92915050565b612e3a81612dfd565b8114612e4557600080fd5b50565b600081359050612e5781612e31565b92915050565b60008060408385031215612e7457612e73612d38565b5b6000612e8285828601612e48565b9250506020612e9385828601612e48565b9150509250929050565b6000819050919050565b612eb081612e9d565b82525050565b6000602082019050612ecb6000830184612ea7565b92915050565b600073ffffffffffffffffffffffffffffffffffffffff82169050919050565b6000612efc82612ed1565b9050919050565b612f0c81612ef1565b8114612f1757600080fd5b50565b600081359050612f2981612f03565b92915050565b600060208284031215612f4557612f44612d38565b5b6000612f5384828501612f1a565b91505092915050565b6000606082019050612f716000830186612e07565b612f7e6020830185612e07565b612f8b6040830184612e07565b949350505050565b612f9c81612e9d565b8114612fa757600080fd5b50565b600081359050612fb981612f93565b92915050565b600060208284031215612fd557612fd4612d38565b5b6000612fe384828501612faa565b91505092915050565b6000819050919050565b600061301161300c61300784612ed1565b612fec565b612ed1565b9050919050565b600061302382612ff6565b9050919050565b600061303582613018565b9050919050565b6130458161302a565b82525050565b6000602082019050613060600083018461303c565b92915050565b6000806040838503121561307d5761307c612d38565b5b600061308b85828601612faa565b925050602061309c85828601612f1a565b9150509250929050565b600080fd5b6000601f19601f8301169050919050565b7f4e487b7100000000000000000000000000000000000000000000000000000000600052604160045260246000fd5b6130f4826130ab565b810181811067ffffffffffffffff82111715613113576131126130bc565b5b80604052505050565b6000613126612d2e565b905061313282826130eb565b919050565b600080fd5b600080fd5b600080fd5b600067ffffffffffffffff821115613161576131606130bc565b5b61316a826130ab565b9050602081019050919050565b82818337600083830152505050565b600061319961319484613146565b61311c565b9050828152602081018484840111156131b5576131b4613141565b5b6131c0848285613177565b509392505050565b600082601f8301126131dd576131dc61313c565b5b81356131ed848260208601613186565b91505092915050565b60006bffffffffffffffffffffffff82169050919050565b613217816131f6565b811461322257600080fd5b50565b6000813590506132348161320e565b92915050565b61324381612dc7565b811461324e57600080fd5b50565b6000813590506132608161323a565b92915050565b600067ffffffffffffffff821115613281576132806130bc565b5b61328a826130ab565b9050602081019050919050565b60006132aa6132a584613266565b61311c565b9050828152602081018484840111156132c6576132c5613141565b5b6132d1848285613177565b509392505050565b600082601f8301126132ee576132ed61313c565b5b81356132fe848260208601613297565b91505092915050565b6000610120828403121561331e5761331d6130a6565b5b61332961012061311c565b9050600082013567ffffffffffffffff81111561334957613348613137565b5b613355848285016131c8565b600083015250602082013567ffffffffffffffff81111561337957613378613137565b5b613385848285016131c8565b602083015250604061339984828501613225565b60408301525060606133ad84828501613225565b60608301525060806133c184828501612e48565b60808301525060a06133d584828501612e48565b60a08301525060c06133e984828501613251565b60c08301525060e06133fd84828501612f1a565b60e08301525061010082013567ffffffffffffffff81111561342257613421613137565b5b61342e848285016132d9565b6101008301525092915050565b6000806040838503121561345257613451612d38565b5b600061346085828601612f1a565b925050602083013567ffffffffffffffff81111561348157613480612d3d565b5b61348d85828601613307565b9150509250929050565b6000604082840312156134ad576134ac6130a6565b5b6134b7604061311c565b905060006134c784828501612e48565b60008301525060206134db84828501612e48565b60208301525092915050565b60008060008060008060008060006101408a8c03121561350a57613509612d38565b5b60006135188c828d01612f1a565b99505060206135298c828d01612f1a565b985050604061353a8c828d01612f1a565b975050606061354b8c828d01612f1a565b965050608061355c8c828d01612f1a565b95505060a061356d8c828d01613497565b94505060e061357e8c828d01612f1a565b9350506101006135908c828d01612e48565b9250506101206135a28c828d01612e48565b9150509295985092959850929598565b6135bb81612ef1565b82525050565b60006020820190506135d660008301846135b2565b92915050565b60006135e782613018565b9050919050565b6135f7816135dc565b82525050565b600060208201905061361260008301846135ee565b92915050565b60006040828403121561362e5761362d612d38565b5b600061363c84828501613497565b91505092915050565b600063ffffffff82169050919050565b61365e81613645565b811461366957600080fd5b50565b60008135905061367b81613655565b92915050565b60008060006060848603121561369a57613699612d38565b5b60006136a886828701612f1a565b93505060206136b986828701612e48565b92505060406136ca8682870161366c565b9150509250925092565b60006136df82613018565b9050919050565b6136ef816136d4565b82525050565b600060208201905061370a60008301846136e6565b92915050565b600061371b82613018565b9050919050565b61372b81613710565b82525050565b60006020820190506137466000830184613722565b92915050565b60006040820190506137616000830185612e07565b61376e6020830184612e07565b9392505050565b600081519050919050565b600082825260208201905092915050565b60005b838110156137af578082015181840152602081019050613794565b60008484015250505050565b60006137c682613775565b6137d08185613780565b93506137e0818560208601613791565b6137e9816130ab565b840191505092915050565b600061380f61380a613805846131f6565b612fec565b612dfd565b9050919050565b61381f816137f4565b82525050565b600060a08201905061383a60008301886135b2565b818103602083015261384c81876137bb565b9050818103604083015261386081866137bb565b905061386f6060830185613816565b61387c60808301846135b2565b9695505050505050565b60008151905061389581612f03565b92915050565b6000602082840312156138b1576138b0612d38565b5b60006138bf84828501613886565b91505092915050565b60006040820190506138dd60008301856135b2565b6138ea6020830184613816565b9392505050565b6000815190506139008161323a565b92915050565b60006020828403121561391c5761391b612d38565b5b600061392a848285016138f1565b91505092915050565b600060c08201905061394860008301896135b2565b61395560208301886135b2565b6139626040830187613816565b61396f60608301866135b2565b61397c6080830185612e07565b61398960a0830184612e07565b979650505050505050565b7f4e487b7100000000000000000000000000000000000000000000000000000000600052601160045260246000fd5b60006139ce82612dfd565b91506139d983612dfd565b92508282019050808211156139f1576139f0613994565b5b92915050565b6000819050919050565b600067ffffffffffffffff82169050919050565b6000613a30613a2b613a26846139f7565b612fec565b613a01565b9050919050565b613a4081613a15565b82525050565b6000602082019050613a5b6000830184613a37565b92915050565b613a6a816131f6565b82525050565b600081519050919050565b600082825260208201905092915050565b6000613a9782613a70565b613aa18185613a7b565b9350613ab1818560208601613791565b613aba816130ab565b840191505092915050565b600061016082019050613adb600083018e6135b2565b613ae8602083018d6135b2565b613af5604083018c612e07565b613b02606083018b612e07565b613b0f608083018a613a61565b613b1c60a0830189613a61565b613b2960c0830188612e07565b613b3660e0830187612e07565b613b44610100830186612dd3565b613b526101208301856135b2565b818103610140830152613b658184613a8c565b90509c9b505050505050505050505050565b600081519050613b8681612e31565b92915050565b600060208284031215613ba257613ba1612d38565b5b6000613bb084828501613b77565b91505092915050565b600081519050613bc881612f93565b92915050565b600060208284031215613be457613be3612d38565b5b6000613bf284828501613bb9565b91505092915050565b6000613c0682612dfd565b9150613c1183612dfd565b9250828203905081811115613c2957613c28613994565b5b92915050565b6000606082019050613c4460008301866135b2565b613c5160208301856135b2565b613c5e6040830184612e07565b949350505050565b6000604082019050613c7b60008301856135b2565b613c886020830184612e07565b9392505050565b613c9881613645565b82525050565b6000608082019050613cb360008301876135b2565b613cc06020830186613c8f565b613ccd6040830185612e07565b613cda6060830184612e07565b95945050505050565b6000819050919050565b6000613d08613d03613cfe84613ce3565b612fec565b612dfd565b9050919050565b613d1881613ced565b82525050565b6000606082019050613d3360008301866135b2565b613d406020830185612e07565b613d4d6040830184613d0f565b949350505050565b600060e082019050613d6a600083018a6135b2565b613d7760208301896135b2565b613d846040830188612e07565b613d916060830187612e07565b613d9e6080830186612e07565b613dab60a0830185612e07565b613db860c0830184612e07565b98975050505050505050565b6000604082019050613dd960008301856135b2565b613de66020830184612ea7565b9392505050565b6000613df882612dfd565b9150613e0383612dfd565b9250828202613e1181612dfd565b91508282048414831517613e2857613e27613994565b5b5092915050565b7f4e487b7100000000000000000000000000000000000000000000000000000000600052601260045260246000fd5b6000613e6982612dfd565b9150613e7483612dfd565b925082613e8457613e83613e2f565b5b828204905092915050565b600081905092915050565b6000613ea582613a70565b613eaf8185613e8f565b9350613ebf818560208601613791565b80840191505092915050565b6000613ed78284613e9a565b91508190509291505056fea2646970667358221220654e13fec069c42ac237c8121f3d098f000893a995e922473ed71b6fa34301f664736f6c63430008180033",
  "linkReferences": {},
  "deployedLinkReferences": {}
}