{
  "_format": "hh-sol-artifact-1",
  "contractName": "SubjectFactory",
  "sourceName": "contracts/SubjectFactory.sol",
  "abi": [
    {
      "inputs": [],
      "name": "AccessControlBadConfirmation",
      "type": "error"
    },
    {
      "inputs": [
        {
          "internalType": "address",
          "name": "account",
          "type": "address"
        },
        {
          "internalType": "bytes32",
          "name": "neededRole",
          "type": "bytes32"
        }
      ],
      "name": "AccessControlUnauthorizedAccount",
      "type": "error"
    },
    {
      "inputs": [
        {
          "internalType": "address",
          "name": "target",
          "type": "address"
        }
      ],
      "name": "AddressEmptyCode",
      "type": "error"
    },
    {
      "inputs": [
        {
          "internalType": "address",
          "name": "account",
          "type": "address"
        }
      ],
      "name": "AddressInsufficientBalance",
      "type": "error"
    },
    {
      "inputs": [],
      "name": "EnforcedPause",
      "type": "error"
    },
    {
      "inputs": [],
      "name": "ExpectedPause",
      "type": "error"
    },
    {
      "inputs": [],
      "name": "FailedInnerCall",
      "type": "error"
    },
    {
      "inputs": [],
      "name": "InvalidInitialization",
      "type": "error"
    },
    {
      "inputs": [],
      "name": "NotInitializing",
      "type": "error"
    },
    {
      "inputs": [
        {
          "internalType": "address",
          "name": "token",
          "type": "address"
        }
      ],
      "name": "SafeERC20FailedOperation",
      "type": "error"
    },
    {
      "inputs": [],
      "name": "SubjectFactory_AuctionAlreadyCreated",
      "type": "error"
    },
    {
      "inputs": [],
      "name": "SubjectFactory_AuctionNotCreated",
      "type": "error"
    },
    {
      "inputs": [],
      "name": "SubjectFactory_AuctionNotDoneYet",
      "type": "error"
    },
    {
      "inputs": [],
      "name": "SubjectFactory_BuyAmountTooLess",
      "type": "error"
    },
    {
      "inputs": [],
      "name": "SubjectFactory_InvalidAuctionContract",
      "type": "error"
    },
    {
      "inputs": [],
      "name": "SubjectFactory_InvalidAuctionDuration",
      "type": "error"
    },
    {
      "inputs": [],
      "name": "SubjectFactory_InvalidAuctionOrderCancellationDuration",
      "type": "error"
    },
    {
      "inputs": [],
      "name": "SubjectFactory_InvalidBeneficiary",
      "type": "error"
    },
    {
      "inputs": [],
      "name": "SubjectFactory_InvalidFeePercentage",
      "type": "error"
    },
    {
      "inputs": [],
      "name": "SubjectFactory_InvalidMoxieBondingCurve",
      "type": "error"
    },
    {
      "inputs": [],
      "name": "SubjectFactory_InvalidOwner",
      "type": "error"
    },
    {
      "inputs": [],
      "name": "SubjectFactory_InvalidReserveRatio",
      "type": "error"
    },
    {
      "inputs": [],
      "name": "SubjectFactory_InvalidSubject",
      "type": "error"
    },
    {
      "inputs": [],
      "name": "SubjectFactory_InvalidToken",
      "type": "error"
    },
    {
      "inputs": [],
      "name": "SubjectFactory_InvalidTokenManager",
      "type": "error"
    },
    {
      "anonymous": false,
      "inputs": [
        {
          "indexed": false,
          "internalType": "uint64",
          "name": "version",
          "type": "uint64"
        }
      ],
      "name": "Initialized",
      "type": "event"
    },
    {
      "anonymous": false,
      "inputs": [
        {
          "indexed": false,
          "internalType": "address",
          "name": "account",
          "type": "address"
        }
      ],
      "name": "Paused",
      "type": "event"
    },
    {
      "anonymous": false,
      "inputs": [
        {
          "indexed": true,
          "internalType": "bytes32",
          "name": "role",
          "type": "bytes32"
        },
        {
          "indexed": true,
          "internalType": "bytes32",
          "name": "previousAdminRole",
          "type": "bytes32"
        },
        {
          "indexed": true,
          "internalType": "bytes32",
          "name": "newAdminRole",
          "type": "bytes32"
        }
      ],
      "name": "RoleAdminChanged",
      "type": "event"
    },
    {
      "anonymous": false,
      "inputs": [
        {
          "indexed": true,
          "internalType": "bytes32",
          "name": "role",
          "type": "bytes32"
        },
        {
          "indexed": true,
          "internalType": "address",
          "name": "account",
          "type": "address"
        },
        {
          "indexed": true,
          "internalType": "address",
          "name": "sender",
          "type": "address"
        }
      ],
      "name": "RoleGranted",
      "type": "event"
    },
    {
      "anonymous": false,
      "inputs": [
        {
          "indexed": true,
          "internalType": "bytes32",
          "name": "role",
          "type": "bytes32"
        },
        {
          "indexed": true,
          "internalType": "address",
          "name": "account",
          "type": "address"
        },
        {
          "indexed": true,
          "internalType": "address",
          "name": "sender",
          "type": "address"
        }
      ],
      "name": "RoleRevoked",
      "type": "event"
    },
    {
      "anonymous": false,
      "inputs": [
        {
          "indexed": false,
          "internalType": "address",
          "name": "_subject",
          "type": "address"
        },
        {
          "indexed": false,
          "internalType": "address",
          "name": "_subjectToken",
          "type": "address"
        },
        {
          "indexed": false,
          "internalType": "uint256",
          "name": "_auctionId",
          "type": "uint256"
        },
        {
          "indexed": false,
          "internalType": "uint256",
          "name": "_bondingSupply",
          "type": "uint256"
        },
        {
          "indexed": false,
          "internalType": "uint256",
          "name": "_bondingAmount",
          "type": "uint256"
        },
        {
          "indexed": false,
          "internalType": "uint256",
          "name": "_protocolFee",
          "type": "uint256"
        },
        {
          "indexed": false,
          "internalType": "uint256",
          "name": "_subjectFee",
          "type": "uint256"
        }
      ],
      "name": "SubjectOnboardingFinished",
      "type": "event"
    },
    {
      "anonymous": false,
      "inputs": [
        {
          "indexed": false,
          "internalType": "address",
          "name": "_subject",
          "type": "address"
        },
        {
          "indexed": false,
          "internalType": "address",
          "name": "_subjectToken",
          "type": "address"
        },
        {
          "indexed": false,
          "internalType": "uint256",
          "name": "_auctionAmount",
          "type": "uint256"
        },
        {
          "indexed": false,
          "internalType": "address",
          "name": "_biddingToken",
          "type": "address"
        },
        {
          "indexed": false,
          "internalType": "uint256",
          "name": "auctionEndDate",
          "type": "uint256"
        },
        {
          "indexed": false,
          "internalType": "uint256",
          "name": "_auctionId",
          "type": "uint256"
        }
      ],
      "name": "SubjectOnboardingInitiated",
      "type": "event"
    },
    {
      "anonymous": false,
      "inputs": [
        {
          "indexed": false,
          "internalType": "address",
          "name": "account",
          "type": "address"
        }
      ],
      "name": "Unpaused",
      "type": "event"
    },
    {
      "anonymous": false,
      "inputs": [
        {
          "indexed": false,
          "internalType": "uint256",
          "name": "_auctionDuration",
          "type": "uint256"
        },
        {
          "indexed": false,
          "internalType": "uint256",
          "name": "_auctionOrderCancellationDuration",
          "type": "uint256"
        }
      ],
      "name": "UpdateAuctionParam",
      "type": "event"
    },
    {
      "anonymous": false,
      "inputs": [
        {
          "indexed": false,
          "internalType": "address",
          "name": "_beneficiary",
          "type": "address"
        }
      ],
      "name": "UpdateBeneficiary",
      "type": "event"
    },
    {
      "anonymous": false,
      "inputs": [
        {
          "indexed": false,
          "internalType": "uint256",
          "name": "_protocolFeePct",
          "type": "uint256"
        },
        {
          "indexed": false,
          "internalType": "uint256",
          "name": "_subjectFeePct",
          "type": "uint256"
        }
      ],
      "name": "UpdateFees",
      "type": "event"
    },
    {
      "inputs": [],
      "name": "DEFAULT_ADMIN_ROLE",
      "outputs": [
        {
          "internalType": "bytes32",
          "name": "",
          "type": "bytes32"
        }
      ],
      "stateMutability": "view",
      "type": "function"
    },
    {
      "inputs": [],
      "name": "ONBOARDING_ROLE",
      "outputs": [
        {
          "internalType": "bytes32",
          "name": "",
          "type": "bytes32"
        }
      ],
      "stateMutability": "view",
      "type": "function"
    },
    {
      "inputs": [],
      "name": "PAUSE_ROLE",
      "outputs": [
        {
          "internalType": "bytes32",
          "name": "",
          "type": "bytes32"
        }
      ],
      "stateMutability": "view",
      "type": "function"
    },
    {
      "inputs": [],
      "name": "PCT_BASE",
      "outputs": [
        {
          "internalType": "uint256",
          "name": "",
          "type": "uint256"
        }
      ],
      "stateMutability": "view",
      "type": "function"
    },
    {
      "inputs": [],
      "name": "UPDATE_AUCTION_ROLE",
      "outputs": [
        {
          "internalType": "bytes32",
          "name": "",
          "type": "bytes32"
        }
      ],
      "stateMutability": "view",
      "type": "function"
    },
    {
      "inputs": [],
      "name": "UPDATE_BENEFICIARY_ROLE",
      "outputs": [
        {
          "internalType": "bytes32",
          "name": "",
          "type": "bytes32"
        }
      ],
      "stateMutability": "view",
      "type": "function"
    },
    {
      "inputs": [],
      "name": "UPDATE_FEES_ROLE",
      "outputs": [
        {
          "internalType": "bytes32",
          "name": "",
          "type": "bytes32"
        }
      ],
      "stateMutability": "view",
      "type": "function"
    },
    {
      "inputs": [],
      "name": "auctionDuration",
      "outputs": [
        {
          "internalType": "uint256",
          "name": "",
          "type": "uint256"
        }
      ],
      "stateMutability": "view",
      "type": "function"
    },
    {
      "inputs": [],
      "name": "auctionOrderCancellationDuration",
      "outputs": [
        {
          "internalType": "uint256",
          "name": "",
          "type": "uint256"
        }
      ],
      "stateMutability": "view",
      "type": "function"
    },
    {
      "inputs": [
        {
          "internalType": "address",
          "name": "subject",
          "type": "address"
        }
      ],
      "name": "auctions",
      "outputs": [
        {
          "internalType": "uint256",
          "name": "auctionId",
          "type": "uint256"
        },
        {
          "internalType": "uint256",
          "name": "auctionEndDate",
          "type": "uint256"
        },
        {
          "internalType": "uint256",
          "name": "initialSupply",
          "type": "uint256"
        }
      ],
      "stateMutability": "view",
      "type": "function"
    },
    {
      "inputs": [],
      "name": "easyAuction",
      "outputs": [
        {
          "internalType": "contract IEasyAuction",
          "name": "",
          "type": "address"
        }
      ],
      "stateMutability": "view",
      "type": "function"
    },
    {
      "inputs": [],
      "name": "feeBeneficiary",
      "outputs": [
        {
          "internalType": "address",
          "name": "",
          "type": "address"
        }
      ],
      "stateMutability": "view",
      "type": "function"
    },
    {
      "inputs": [
        {
          "internalType": "address",
          "name": "_subject",
          "type": "address"
        },
        {
          "internalType": "uint256",
          "name": "_buyAmount",
          "type": "uint256"
        },
        {
          "internalType": "uint32",
          "name": "_reserveRatio",
          "type": "uint32"
        }
      ],
      "name": "finalizeSubjectOnboarding",
      "outputs": [],
      "stateMutability": "nonpayable",
      "type": "function"
    },
    {
      "inputs": [
        {
          "internalType": "bytes32",
          "name": "role",
          "type": "bytes32"
        }
      ],
      "name": "getRoleAdmin",
      "outputs": [
        {
          "internalType": "bytes32",
          "name": "",
          "type": "bytes32"
        }
      ],
      "stateMutability": "view",
      "type": "function"
    },
    {
      "inputs": [
        {
          "internalType": "bytes32",
          "name": "role",
          "type": "bytes32"
        },
        {
          "internalType": "address",
          "name": "account",
          "type": "address"
        }
      ],
      "name": "grantRole",
      "outputs": [],
      "stateMutability": "nonpayable",
      "type": "function"
    },
    {
      "inputs": [
        {
          "internalType": "bytes32",
          "name": "role",
          "type": "bytes32"
        },
        {
          "internalType": "address",
          "name": "account",
          "type": "address"
        }
      ],
      "name": "hasRole",
      "outputs": [
        {
          "internalType": "bool",
          "name": "",
          "type": "bool"
        }
      ],
      "stateMutability": "view",
      "type": "function"
    },
    {
      "inputs": [
        {
          "internalType": "address",
          "name": "_owner",
          "type": "address"
        },
        {
          "internalType": "address",
          "name": "_tokenManager",
          "type": "address"
        },
        {
          "internalType": "address",
          "name": "_moxieBondingCurve",
          "type": "address"
        },
        {
          "internalType": "address",
          "name": "_token",
          "type": "address"
        },
        {
          "internalType": "address",
          "name": "_easyAuction",
          "type": "address"
        },
        {
          "components": [
            {
              "internalType": "uint256",
              "name": "protocolFeePct",
              "type": "uint256"
            },
            {
              "internalType": "uint256",
              "name": "subjectFeePct",
              "type": "uint256"
            }
          ],
          "internalType": "struct ISubjectFactory.FeeInput",
          "name": "_feeInput",
          "type": "tuple"
        },
        {
          "internalType": "address",
          "name": "_feeBeneficiary",
          "type": "address"
        },
        {
          "internalType": "uint256",
          "name": "_auctionDuration",
          "type": "uint256"
        },
        {
          "internalType": "uint256",
          "name": "_auctionOrderCancellationDuration",
          "type": "uint256"
        }
      ],
      "name": "initialize",
      "outputs": [],
      "stateMutability": "nonpayable",
      "type": "function"
    },
    {
      "inputs": [
        {
          "internalType": "address",
          "name": "_subject",
          "type": "address"
        },
        {
          "components": [
            {
              "internalType": "string",
              "name": "name",
              "type": "string"
            },
            {
              "internalType": "string",
              "name": "symbol",
              "type": "string"
            },
            {
              "internalType": "uint96",
              "name": "initialSupply",
              "type": "uint96"
            },
            {
              "internalType": "uint96",
              "name": "minBuyAmount",
              "type": "uint96"
            },
            {
              "internalType": "uint256",
              "name": "minBiddingAmount",
              "type": "uint256"
            },
            {
              "internalType": "uint256",
              "name": "minFundingThreshold",
              "type": "uint256"
            },
            {
              "internalType": "bool",
              "name": "isAtomicClosureAllowed",
              "type": "bool"
            },
            {
              "internalType": "address",
              "name": "accessManagerContract",
              "type": "address"
            },
            {
              "internalType": "bytes",
              "name": "accessManagerContractData",
              "type": "bytes"
            }
          ],
          "internalType": "struct ISubjectFactory.SubjectAuctionInput",
          "name": "_auctionInput",
          "type": "tuple"
        }
      ],
      "name": "initiateSubjectOnboarding",
      "outputs": [
        {
          "internalType": "uint256",
          "name": "",
          "type": "uint256"
        }
      ],
      "stateMutability": "nonpayable",
      "type": "function"
    },
    {
      "inputs": [],
      "name": "moxieBondingCurve",
      "outputs": [
        {
          "internalType": "contract IMoxieBondingCurve",
          "name": "",
          "type": "address"
        }
      ],
      "stateMutability": "view",
      "type": "function"
    },
    {
      "inputs": [],
      "name": "pause",
      "outputs": [],
      "stateMutability": "nonpayable",
      "type": "function"
    },
    {
      "inputs": [],
      "name": "paused",
      "outputs": [
        {
          "internalType": "bool",
          "name": "",
          "type": "bool"
        }
      ],
      "stateMutability": "view",
      "type": "function"
    },
    {
      "inputs": [],
      "name": "protocolFeePct",
      "outputs": [
        {
          "internalType": "uint256",
          "name": "",
          "type": "uint256"
        }
      ],
      "stateMutability": "view",
      "type": "function"
    },
    {
      "inputs": [
        {
          "internalType": "bytes32",
          "name": "role",
          "type": "bytes32"
        },
        {
          "internalType": "address",
          "name": "callerConfirmation",
          "type": "address"
        }
      ],
      "name": "renounceRole",
      "outputs": [],
      "stateMutability": "nonpayable",
      "type": "function"
    },
    {
      "inputs": [
        {
          "internalType": "bytes32",
          "name": "role",
          "type": "bytes32"
        },
        {
          "internalType": "address",
          "name": "account",
          "type": "address"
        }
      ],
      "name": "revokeRole",
      "outputs": [],
      "stateMutability": "nonpayable",
      "type": "function"
    },
    {
      "inputs": [],
      "name": "subjectFeePct",
      "outputs": [
        {
          "internalType": "uint256",
          "name": "",
          "type": "uint256"
        }
      ],
      "stateMutability": "view",
      "type": "function"
    },
    {
      "inputs": [
        {
          "internalType": "bytes4",
          "name": "interfaceId",
          "type": "bytes4"
        }
      ],
      "name": "supportsInterface",
      "outputs": [
        {
          "internalType": "bool",
          "name": "",
          "type": "bool"
        }
      ],
      "stateMutability": "view",
      "type": "function"
    },
    {
      "inputs": [],
      "name": "token",
      "outputs": [
        {
          "internalType": "contract IERC20Extended",
          "name": "",
          "type": "address"
        }
      ],
      "stateMutability": "view",
      "type": "function"
    },
    {
      "inputs": [],
      "name": "tokenManager",
      "outputs": [
        {
          "internalType": "contract ITokenManager",
          "name": "",
          "type": "address"
        }
      ],
      "stateMutability": "view",
      "type": "function"
    },
    {
      "inputs": [],
      "name": "unpause",
      "outputs": [],
      "stateMutability": "nonpayable",
      "type": "function"
    },
    {
      "inputs": [
        {
          "internalType": "uint256",
          "name": "_auctionDuration",
          "type": "uint256"
        },
        {
          "internalType": "uint256",
          "name": "_auctionOrderCancellationDuration",
          "type": "uint256"
        }
      ],
      "name": "updateAuctionTime",
      "outputs": [],
      "stateMutability": "nonpayable",
      "type": "function"
    },
    {
      "inputs": [
        {
          "internalType": "address",
          "name": "_feeBeneficiary",
          "type": "address"
        }
      ],
      "name": "updateFeeBeneficiary",
      "outputs": [],
      "stateMutability": "nonpayable",
      "type": "function"
    },
    {
      "inputs": [
        {
          "components": [
            {
              "internalType": "uint256",
              "name": "protocolFeePct",
              "type": "uint256"
            },
            {
              "internalType": "uint256",
              "name": "subjectFeePct",
              "type": "uint256"
            }
          ],
          "internalType": "struct ISubjectFactory.FeeInput",
          "name": "_feeInput",
          "type": "tuple"
        }
      ],
      "name": "updateFees",
      "outputs": [],
      "stateMutability": "nonpayable",
      "type": "function"
    }
  ],
  "bytecode": "0x608060405234801561001057600080fd5b50613f28806100206000396000f3fe608060405234801561001057600080fd5b50600436106101f05760003560e01c8063492fb3431161010f578063c74c43eb116100a2578063d8e4cdd411610071578063d8e4cdd414610561578063f7b01a491461057f578063fc0c546a1461059d578063fc157cb4146105bb576101f0565b8063c74c43eb146104ef578063cdeaaf9b1461050b578063d33bd29d14610529578063d547741f14610545576101f0565b80636c572893116100de5780636c5728931461047b5780638456cb591461049757806391d14854146104a1578063a217fddf146104d1576101f0565b8063492fb34314610403578063537a3381146104215780635c975abb1461043f57806360e14b601461045d576101f0565b80633126ede1116101875780633a6226bb116101565780633a6226bb146103a15780633f4ba83a146103bd57806341644f8c146103c757806343560891146103e5576101f0565b80633126ede11461031957806336568abe1461033757806337ef3fbe14610353578063389ed26714610383576101f0565b80631d59410a116101c35780631d59410a1461027d578063248a9ca3146102af5780632a709b14146102df5780632f2ff15d146102fd576101f0565b806301ffc9a7146101f55780630cbf54c814610225578063129f8dca14610243578063179738d01461025f575b600080fd5b61020f600480360381019061020a9190612d9c565b6105d9565b60405161021c9190612de4565b60405180910390f35b61022d610653565b60405161023a9190612e18565b60405180910390f35b61025d60048036038101906102589190612e5f565b610659565b005b610267610743565b6040516102749190612eb8565b60405180910390f35b61029760048036038101906102929190612f31565b610767565b6040516102a693929190612f5e565b60405180910390f35b6102c960048036038101906102c49190612fc1565b610791565b6040516102d69190612eb8565b60405180910390f35b6102e76107bf565b6040516102f4919061304d565b60405180910390f35b61031760048036038101906103129190613068565b6107e3565b005b610321610805565b60405161032e9190612e18565b60405180910390f35b610351600480360381019061034c9190613068565b61080b565b005b61036d6004803603810190610368919061343d565b610886565b60405161037a9190612e18565b60405180910390f35b61038b610b80565b6040516103989190612eb8565b60405180910390f35b6103bb60048036038101906103b691906134e9565b610ba4565b005b6103c56111ab565b005b6103cf6111e0565b6040516103dc9190612eb8565b60405180910390f35b6103ed611204565b6040516103fa9190612eb8565b60405180910390f35b61040b611228565b60405161041891906135c3565b60405180910390f35b61042961124e565b60405161043691906135ff565b60405180910390f35b610447611274565b6040516104549190612de4565b60405180910390f35b610465611299565b6040516104729190612eb8565b60405180910390f35b61049560048036038101906104909190612f31565b6112bd565b005b61049f611333565b005b6104bb60048036038101906104b69190613068565b611368565b6040516104c89190612de4565b60405180910390f35b6104d96113e1565b6040516104e69190612eb8565b60405180910390f35b6105096004803603810190610504919061361a565b6113e8565b005b61051361147a565b6040516105209190612e18565b60405180910390f35b610543600480360381019061053e9190613683565b611480565b005b61055f600480360381019061055a9190613068565b611722565b005b610569611744565b6040516105769190612e18565b60405180910390f35b61058761174a565b60405161059491906136f7565b60405180910390f35b6105a5611770565b6040516105b29190613733565b60405180910390f35b6105c3611796565b6040516105d09190612e18565b60405180910390f35b60007f7965db0b000000000000000000000000000000000000000000000000000000007bffffffffffffffffffffffffffffffffffffffffffffffffffffffff1916827bffffffffffffffffffffffffffffffffffffffffffffffffffffffff1916148061064c575061064b826117a2565b5b9050919050565b60065481565b7f45f7b643fd10623d0b12c447334501abf01def0d0be34bc6ba70ebe4fab8dd246106838161180c565b600082036106bd576040517fa1486c1500000000000000000000000000000000000000000000000000000000815260040160405180910390fd5b818310156106f7576040517f936914f800000000000000000000000000000000000000000000000000000000815260040160405180910390fd5b82600681905550816007819055507f6a40a5dc1fd517e0fe16eca9e81dd0e0d2b9b1f06f7799095c470000c8c488d0838360405161073692919061374e565b60405180910390a1505050565b7f41ab08329fb0a2935fa2b8b127e3380ff152b38c9f016ae14226bf4decc8746681565b60096020528060005260406000206000915090508060000154908060010154908060020154905083565b60008061079c611820565b905080600001600084815260200190815260200160002060010154915050919050565b60008054906101000a900473ffffffffffffffffffffffffffffffffffffffff1681565b6107ec82610791565b6107f58161180c565b6107ff8383611848565b50505050565b60075481565b610813611949565b73ffffffffffffffffffffffffffffffffffffffff168173ffffffffffffffffffffffffffffffffffffffff1614610877576040517f6697b23200000000000000000000000000000000000000000000000000000000815260040160405180910390fd5b6108818282611951565b505050565b6000610890611a53565b7f41ab08329fb0a2935fa2b8b127e3380ff152b38c9f016ae14226bf4decc874666108ba8161180c565b600073ffffffffffffffffffffffffffffffffffffffff168473ffffffffffffffffffffffffffffffffffffffff1603610920576040517f2d44adc700000000000000000000000000000000000000000000000000000000815260040160405180910390fd5b6000600960008673ffffffffffffffffffffffffffffffffffffffff1673ffffffffffffffffffffffffffffffffffffffff168152602001908152602001600020600001541461099c576040517fb347d57900000000000000000000000000000000000000000000000000000000815260040160405180910390fd5b60008060009054906101000a900473ffffffffffffffffffffffffffffffffffffffff1673ffffffffffffffffffffffffffffffffffffffff166316bc0cf0868660000151876020015188604001518960e001516040518663ffffffff1660e01b8152600401610a10959493929190613827565b6020604051808303816000875af1158015610a2f573d6000803e3d6000fd5b505050506040513d601f19601f82011682018060405250810190610a53919061389d565b90508073ffffffffffffffffffffffffffffffffffffffff1663095ea7b3600560009054906101000a900473ffffffffffffffffffffffffffffffffffffffff1686604001516040518363ffffffff1660e01b8152600401610ab69291906138ca565b6020604051808303816000875af1158015610ad5573d6000803e3d6000fd5b505050506040513d601f19601f82011682018060405250810190610af99190613908565b50600080610b08878488611a94565b915091507f6fe3c8bc2a001eda7bcb9594360771389b00cd33722aa178cc817bd906120eaf87848860400151600860009054906101000a900473ffffffffffffffffffffffffffffffffffffffff168587604051610b6b96959493929190613935565b60405180910390a18194505050505092915050565b7f139c2898040ef16910dc9f44dc697df79363da767d8bc92f2e310312b816e46d81565b6000610bae611c96565b905060008160000160089054906101000a900460ff1615905060008260000160009054906101000a900467ffffffffffffffff1690506000808267ffffffffffffffff16148015610bfc5750825b9050600060018367ffffffffffffffff16148015610c31575060003073ffffffffffffffffffffffffffffffffffffffff163b145b905081158015610c3f575080155b15610c76576040517ff92ee8a900000000000000000000000000000000000000000000000000000000815260040160405180910390fd5b60018560000160006101000a81548167ffffffffffffffff021916908367ffffffffffffffff1602179055508315610cc65760018560000160086101000a81548160ff0219169083151502179055505b600073ffffffffffffffffffffffffffffffffffffffff168e73ffffffffffffffffffffffffffffffffffffffff1603610d2c576040517f3ea5e1ca00000000000000000000000000000000000000000000000000000000815260040160405180910390fd5b600073ffffffffffffffffffffffffffffffffffffffff168d73ffffffffffffffffffffffffffffffffffffffff1603610d92576040517fdf26fddd00000000000000000000000000000000000000000000000000000000815260040160405180910390fd5b600073ffffffffffffffffffffffffffffffffffffffff168c73ffffffffffffffffffffffffffffffffffffffff1603610df8576040517ffa06deda00000000000000000000000000000000000000000000000000000000815260040160405180910390fd5b600073ffffffffffffffffffffffffffffffffffffffff168b73ffffffffffffffffffffffffffffffffffffffff1603610e5e576040517f1aa291de00000000000000000000000000000000000000000000000000000000815260040160405180910390fd5b600073ffffffffffffffffffffffffffffffffffffffff168a73ffffffffffffffffffffffffffffffffffffffff1603610ec4576040517fe2562cd800000000000000000000000000000000000000000000000000000000815260040160405180910390fd5b610ee089602001518a60000151610edb91906139c5565b611cbe565b610f16576040517f540685df00000000000000000000000000000000000000000000000000000000815260040160405180910390fd5b610f1f88611cd2565b610f55576040517f7539c7ce00000000000000000000000000000000000000000000000000000000815260040160405180910390fd5b60008603610f8f576040517fa1486c1500000000000000000000000000000000000000000000000000000000815260040160405180910390fd5b85871015610fc9576040517f936914f800000000000000000000000000000000000000000000000000000000815260040160405180910390fd5b8860000151600281905550886020015160038190555087600460006101000a81548173ffffffffffffffffffffffffffffffffffffffff021916908373ffffffffffffffffffffffffffffffffffffffff1602179055508a600860006101000a81548173ffffffffffffffffffffffffffffffffffffffff021916908373ffffffffffffffffffffffffffffffffffffffff160217905550866006819055508560078190555089600560006101000a81548173ffffffffffffffffffffffffffffffffffffffff021916908373ffffffffffffffffffffffffffffffffffffffff1602179055508c6000806101000a81548173ffffffffffffffffffffffffffffffffffffffff021916908373ffffffffffffffffffffffffffffffffffffffff1602179055508b600160006101000a81548173ffffffffffffffffffffffffffffffffffffffff021916908373ffffffffffffffffffffffffffffffffffffffff16021790555061113e6000801b8f611848565b50831561119b5760008560000160086101000a81548160ff0219169083151502179055507fc7f505b2f371ae2175ee4913f4499e1f2633a7b5936321eed1cdaeb6115181d260016040516111929190613a48565b60405180910390a15b5050505050505050505050505050565b7f139c2898040ef16910dc9f44dc697df79363da767d8bc92f2e310312b816e46d6111d58161180c565b6111dd611d0b565b50565b7ff7ea2b80c7b6a2cab2c11d2290cb005c3748397358a25e17113658c83b73259381565b7f45f7b643fd10623d0b12c447334501abf01def0d0be34bc6ba70ebe4fab8dd2481565b600460009054906101000a900473ffffffffffffffffffffffffffffffffffffffff1681565b600560009054906101000a900473ffffffffffffffffffffffffffffffffffffffff1681565b60008061127f611d7d565b90508060000160009054906101000a900460ff1691505090565b7f5f9be2932ed3a723f295a763be1804c7ebfd1a41c1348fb8bdf5be1c5cdca82281565b7ff7ea2b80c7b6a2cab2c11d2290cb005c3748397358a25e17113658c83b7325936112e78161180c565b6112f082611cd2565b611326576040517f7539c7ce00000000000000000000000000000000000000000000000000000000815260040160405180910390fd5b61132f82611da5565b5050565b7f139c2898040ef16910dc9f44dc697df79363da767d8bc92f2e310312b816e46d61135d8161180c565b611365611e20565b50565b600080611373611820565b905080600001600085815260200190815260200160002060000160008473ffffffffffffffffffffffffffffffffffffffff1673ffffffffffffffffffffffffffffffffffffffff16815260200190815260200160002060009054906101000a900460ff1691505092915050565b6000801b81565b7f5f9be2932ed3a723f295a763be1804c7ebfd1a41c1348fb8bdf5be1c5cdca8226114128161180c565b61142e8260200151836000015161142991906139c5565b611cbe565b611464576040517f540685df00000000000000000000000000000000000000000000000000000000815260040160405180910390fd5b61147682600001518360200151611e92565b5050565b60025481565b611488611a53565b7f41ab08329fb0a2935fa2b8b127e3380ff152b38c9f016ae14226bf4decc874666114b28161180c565b600073ffffffffffffffffffffffffffffffffffffffff168473ffffffffffffffffffffffffffffffffffffffff1603611518576040517f2d44adc700000000000000000000000000000000000000000000000000000000815260040160405180910390fd5b60008263ffffffff1603611558576040517ffa427b3200000000000000000000000000000000000000000000000000000000815260040160405180910390fd5b6000600960008673ffffffffffffffffffffffffffffffffffffffff1673ffffffffffffffffffffffffffffffffffffffff16815260200190815260200160002060405180606001604052908160008201548152602001600182015481526020016002820154815250509050600960008673ffffffffffffffffffffffffffffffffffffffff1673ffffffffffffffffffffffffffffffffffffffff16815260200190815260200160002060008082016000905560018201600090556002820160009055505060008160000151905060008103611661576040517fc1b57a9100000000000000000000000000000000000000000000000000000000815260040160405180910390fd5b816020015142101561169f576040517f6a1941ba00000000000000000000000000000000000000000000000000000000815260040160405180910390fd5b60008060006116b3848a8760400151611ee1565b92509250925061170833308a600860009054906101000a900473ffffffffffffffffffffffffffffffffffffffff1673ffffffffffffffffffffffffffffffffffffffff1661231c909392919063ffffffff16565b611717848a84868b868e61239e565b505050505050505050565b61172b82610791565b6117348161180c565b61173e8383611951565b50505050565b60035481565b600160009054906101000a900473ffffffffffffffffffffffffffffffffffffffff1681565b600860009054906101000a900473ffffffffffffffffffffffffffffffffffffffff1681565b670de0b6b3a764000081565b60007f01ffc9a7000000000000000000000000000000000000000000000000000000007bffffffffffffffffffffffffffffffffffffffffffffffffffffffff1916827bffffffffffffffffffffffffffffffffffffffffffffffffffffffff1916149050919050565b61181d81611818611949565b61290e565b50565b60007f02dd7bc7dec4dceedda775e58dd541e08a116c6c53815c0bd028192f7b626800905090565b600080611853611820565b905061185f8484611368565b61193d57600181600001600086815260200190815260200160002060000160008573ffffffffffffffffffffffffffffffffffffffff1673ffffffffffffffffffffffffffffffffffffffff16815260200190815260200160002060006101000a81548160ff0219169083151502179055506118d9611949565b73ffffffffffffffffffffffffffffffffffffffff168373ffffffffffffffffffffffffffffffffffffffff16857f2f8788117e7eff1d82e926ec794901d17c78024a50270940304540a733656f0d60405160405180910390a46001915050611943565b60009150505b92915050565b600033905090565b60008061195c611820565b90506119688484611368565b15611a4757600081600001600086815260200190815260200160002060000160008573ffffffffffffffffffffffffffffffffffffffff1673ffffffffffffffffffffffffffffffffffffffff16815260200190815260200160002060006101000a81548160ff0219169083151502179055506119e3611949565b73ffffffffffffffffffffffffffffffffffffffff168373ffffffffffffffffffffffffffffffffffffffff16857ff6391f5c32d9c69d2a47ea670b442974b53935d1edc7fd64eb21e047a839171b60405160405180910390a46001915050611a4d565b60009150505b92915050565b611a5b611274565b15611a92576040517fd93c066500000000000000000000000000000000000000000000000000000000815260040160405180910390fd5b565b60008060065442611aa591906139c5565b905080600960008773ffffffffffffffffffffffffffffffffffffffff1673ffffffffffffffffffffffffffffffffffffffff1681526020019081526020016000206001018190555082604001516bffffffffffffffffffffffff16600960008773ffffffffffffffffffffffffffffffffffffffff1673ffffffffffffffffffffffffffffffffffffffff16815260200190815260200160002060020181905550600560009054906101000a900473ffffffffffffffffffffffffffffffffffffffff1673ffffffffffffffffffffffffffffffffffffffff16630a4cd6c985600860009054906101000a900473ffffffffffffffffffffffffffffffffffffffff1660075442611bb791906139c5565b85886040015189606001518a608001518b60a001518c60c001518d60e001518e61010001516040518c63ffffffff1660e01b8152600401611c029b9a99989796959493929190613ac7565b6020604051808303816000875af1158015611c21573d6000803e3d6000fd5b505050506040513d601f19601f82011682018060405250810190611c459190613b8e565b915081600960008773ffffffffffffffffffffffffffffffffffffffff1673ffffffffffffffffffffffffffffffffffffffff16815260200190815260200160002060000181905550935093915050565b60007ff0c57e16840df040f15088dc2f81fe391c3923bec73e23a9662efc9c229c6a00905090565b6000670de0b6b3a764000082109050919050565b60008073ffffffffffffffffffffffffffffffffffffffff168273ffffffffffffffffffffffffffffffffffffffff1614159050919050565b611d1361295f565b6000611d1d611d7d565b905060008160000160006101000a81548160ff0219169083151502179055507f5db9ee0a495bf2e6ff9c91a7834c1ba4fdd244a5e8aa4e537bd38aeae4b073aa611d65611949565b604051611d7291906135c3565b60405180910390a150565b60007fcd5ed15c6e187e77e9aee88184c21f4f2182ab5827cb3b7e07fbedcd63f03300905090565b80600460006101000a81548173ffffffffffffffffffffffffffffffffffffffff021916908373ffffffffffffffffffffffffffffffffffffffff1602179055507fe6131a64e93e9aa4ff38892c34d563c06dcc1e03b3d6897cc65f0903e2ad684881604051611e1591906135c3565b60405180910390a150565b611e28611a53565b6000611e32611d7d565b905060018160000160006101000a81548160ff0219169083151502179055507f62e78cea01bee320cd4e420270b5ea74000d11b0c9f74754ebdbfc544b05a258611e7a611949565b604051611e8791906135c3565b60405180910390a150565b81600281905550806003819055507f53482196ef67ac615caab1c3eca2c270acbfdcd75e57c5f24c1b98b10c8e6e04600254600354604051611ed592919061374e565b60405180910390a15050565b60008060008060008054906101000a900473ffffffffffffffffffffffffffffffffffffffff1673ffffffffffffffffffffffffffffffffffffffff1663e4860339876040518263ffffffff1660e01b8152600401611f4091906135c3565b6020604051808303816000875af1158015611f5f573d6000803e3d6000fd5b505050506040513d601f19601f82011682018060405250810190611f83919061389d565b905060008173ffffffffffffffffffffffffffffffffffffffff166370a08231306040518263ffffffff1660e01b8152600401611fc091906135c3565b602060405180830381865afa158015611fdd573d6000803e3d6000fd5b505050506040513d601f19601f820116820180604052508101906120019190613b8e565b90506000600860009054906101000a900473ffffffffffffffffffffffffffffffffffffffff1673ffffffffffffffffffffffffffffffffffffffff166370a08231306040518263ffffffff1660e01b815260040161206091906135c3565b602060405180830381865afa15801561207d573d6000803e3d6000fd5b505050506040513d601f19601f820116820180604052508101906120a19190613b8e565b9050600560009054906101000a900473ffffffffffffffffffffffffffffffffffffffff1673ffffffffffffffffffffffffffffffffffffffff16632e9936118a6040518263ffffffff1660e01b81526004016120fe9190612e18565b6020604051808303816000875af115801561211d573d6000803e3d6000fd5b505050506040513d601f19601f820116820180604052508101906121419190613bd0565b935060008373ffffffffffffffffffffffffffffffffffffffff166370a08231306040518263ffffffff1660e01b815260040161217e91906135c3565b602060405180830381865afa15801561219b573d6000803e3d6000fd5b505050506040513d601f19601f820116820180604052508101906121bf9190613b8e565b90506000600860009054906101000a900473ffffffffffffffffffffffffffffffffffffffff1673ffffffffffffffffffffffffffffffffffffffff166370a08231306040518263ffffffff1660e01b815260040161221e91906135c3565b602060405180830381865afa15801561223b573d6000803e3d6000fd5b505050506040513d601f19601f8201168201806040525081019061225f9190613b8e565b9050838261226d9190613bfd565b896122789190613bfd565b975082816122869190613bfd565b96506000888a6122969190613bfd565b9050600081111561230d578573ffffffffffffffffffffffffffffffffffffffff166342966c68826040518263ffffffff1660e01b81526004016122da9190612e18565b600060405180830381600087803b1580156122f457600080fd5b505af1158015612308573d6000803e3d6000fd5b505050505b50505050505093509350939050565b612398848573ffffffffffffffffffffffffffffffffffffffff166323b872dd86868660405160240161235193929190613c31565b604051602081830303815290604052915060e01b6020820180517bffffffffffffffffffffffffffffffffffffffffffffffffffffffff838183161783525050505061299f565b50505050565b60006123aa8383612a36565b9050600081036123e6576040517fe2d3672300000000000000000000000000000000000000000000000000000000815260040160405180910390fd5b60008054906101000a900473ffffffffffffffffffffffffffffffffffffffff1673ffffffffffffffffffffffffffffffffffffffff1663c6c3bbe68830846040518463ffffffff1660e01b815260040161244393929190613c31565b6020604051808303816000875af1158015612462573d6000803e3d6000fd5b505050506040513d601f19601f820116820180604052508101906124869190613908565b5060008061249e848961249991906139c5565b612a86565b9150915060008183868b6124b291906139c5565b6124bc9190613bfd565b6124c69190613bfd565b9050600860009054906101000a900473ffffffffffffffffffffffffffffffffffffffff1673ffffffffffffffffffffffffffffffffffffffff1663095ea7b3600160009054906101000a900473ffffffffffffffffffffffffffffffffffffffff16836040518363ffffffff1660e01b8152600401612547929190613c68565b6020604051808303816000875af1158015612566573d6000803e3d6000fd5b505050506040513d601f19601f8201168201806040525081019061258a9190613908565b506000848961259991906139c5565b9050600160009054906101000a900473ffffffffffffffffffffffffffffffffffffffff1673ffffffffffffffffffffffffffffffffffffffff1663ba6da0018c8a84866040518563ffffffff1660e01b81526004016125fc9493929190613ca0565b6020604051808303816000875af115801561261b573d6000803e3d6000fd5b505050506040513d601f19601f8201168201806040525081019061263f9190613908565b506126af600460009054906101000a900473ffffffffffffffffffffffffffffffffffffffff1685600860009054906101000a900473ffffffffffffffffffffffffffffffffffffffff1673ffffffffffffffffffffffffffffffffffffffff16612ad49092919063ffffffff16565b600860009054906101000a900473ffffffffffffffffffffffffffffffffffffffff1673ffffffffffffffffffffffffffffffffffffffff1663095ea7b3600160009054906101000a900473ffffffffffffffffffffffffffffffffffffffff16856040518363ffffffff1660e01b815260040161272e929190613c68565b6020604051808303816000875af115801561274d573d6000803e3d6000fd5b505050506040513d601f19601f820116820180604052508101906127719190613908565b50600083111561282257600160009054906101000a900473ffffffffffffffffffffffffffffffffffffffff1673ffffffffffffffffffffffffffffffffffffffff1663d8690fea8c858e60006040518563ffffffff1660e01b81526004016127dd9493929190613d20565b6020604051808303816000875af11580156127fc573d6000803e3d6000fd5b505050506040513d601f19601f820116820180604052508101906128209190613b8e565b505b7f8a5439e754019b388689fac2719ea5351c2d8a330326fffaa5ae8e20df3df0368b60008054906101000a900473ffffffffffffffffffffffffffffffffffffffff1673ffffffffffffffffffffffffffffffffffffffff1663e48603398e6040518263ffffffff1660e01b815260040161289d91906135c3565b6020604051808303816000875af11580156128bc573d6000803e3d6000fd5b505050506040513d601f19601f820116820180604052508101906128e0919061389d565b8e848689896040516128f89796959493929190613d65565b60405180910390a1505050505050505050505050565b6129188282611368565b61295b5780826040517fe2517d3f000000000000000000000000000000000000000000000000000000008152600401612952929190613dd4565b60405180910390fd5b5050565b612967611274565b61299d576040517f8dfc202b00000000000000000000000000000000000000000000000000000000815260040160405180910390fd5b565b60006129ca828473ffffffffffffffffffffffffffffffffffffffff16612b5390919063ffffffff16565b905060008151141580156129ef5750808060200190518101906129ed9190613908565b155b15612a3157826040517f5274afe7000000000000000000000000000000000000000000000000000000008152600401612a2891906135c3565b60405180910390fd5b505050565b6000806000612a4485612b69565b9250925050806bffffffffffffffffffffffff1684836bffffffffffffffffffffffff16612a729190613dfd565b612a7c9190613e6e565b9250505092915050565b600080670de0b6b3a764000060025484612aa09190613dfd565b612aaa9190613e6e565b9150670de0b6b3a764000060035484612ac39190613dfd565b612acd9190613e6e565b9050915091565b612b4e838473ffffffffffffffffffffffffffffffffffffffff1663a9059cbb8585604051602401612b07929190613c68565b604051602081830303815290604052915060e01b6020820180517bffffffffffffffffffffffffffffffffffffffffffffffffffffffff838183161783525050505061299f565b505050565b6060612b6183836000612b8f565b905092915050565b600080600060c08460001c901c925060608460001c901c91508360001c90509193909250565b606081471015612bd657306040517fcd786059000000000000000000000000000000000000000000000000000000008152600401612bcd91906135c3565b60405180910390fd5b6000808573ffffffffffffffffffffffffffffffffffffffff168486604051612bff9190613edb565b60006040518083038185875af1925050503d8060008114612c3c576040519150601f19603f3d011682016040523d82523d6000602084013e612c41565b606091505b5091509150612c51868383612c5c565b925050509392505050565b606082612c7157612c6c82612ceb565b612ce3565b60008251148015612c99575060008473ffffffffffffffffffffffffffffffffffffffff163b145b15612cdb57836040517f9996b315000000000000000000000000000000000000000000000000000000008152600401612cd291906135c3565b60405180910390fd5b819050612ce4565b5b9392505050565b600081511115612cfe5780518082602001fd5b6040517f1425ea4200000000000000000000000000000000000000000000000000000000815260040160405180910390fd5b6000604051905090565b600080fd5b600080fd5b60007fffffffff0000000000000000000000000000000000000000000000000000000082169050919050565b612d7981612d44565b8114612d8457600080fd5b50565b600081359050612d9681612d70565b92915050565b600060208284031215612db257612db1612d3a565b5b6000612dc084828501612d87565b91505092915050565b60008115159050919050565b612dde81612dc9565b82525050565b6000602082019050612df96000830184612dd5565b92915050565b6000819050919050565b612e1281612dff565b82525050565b6000602082019050612e2d6000830184612e09565b92915050565b612e3c81612dff565b8114612e4757600080fd5b50565b600081359050612e5981612e33565b92915050565b60008060408385031215612e7657612e75612d3a565b5b6000612e8485828601612e4a565b9250506020612e9585828601612e4a565b9150509250929050565b6000819050919050565b612eb281612e9f565b82525050565b6000602082019050612ecd6000830184612ea9565b92915050565b600073ffffffffffffffffffffffffffffffffffffffff82169050919050565b6000612efe82612ed3565b9050919050565b612f0e81612ef3565b8114612f1957600080fd5b50565b600081359050612f2b81612f05565b92915050565b600060208284031215612f4757612f46612d3a565b5b6000612f5584828501612f1c565b91505092915050565b6000606082019050612f736000830186612e09565b612f806020830185612e09565b612f8d6040830184612e09565b949350505050565b612f9e81612e9f565b8114612fa957600080fd5b50565b600081359050612fbb81612f95565b92915050565b600060208284031215612fd757612fd6612d3a565b5b6000612fe584828501612fac565b91505092915050565b6000819050919050565b600061301361300e61300984612ed3565b612fee565b612ed3565b9050919050565b600061302582612ff8565b9050919050565b60006130378261301a565b9050919050565b6130478161302c565b82525050565b6000602082019050613062600083018461303e565b92915050565b6000806040838503121561307f5761307e612d3a565b5b600061308d85828601612fac565b925050602061309e85828601612f1c565b9150509250929050565b600080fd5b6000601f19601f8301169050919050565b7f4e487b7100000000000000000000000000000000000000000000000000000000600052604160045260246000fd5b6130f6826130ad565b810181811067ffffffffffffffff82111715613115576131146130be565b5b80604052505050565b6000613128612d30565b905061313482826130ed565b919050565b600080fd5b600080fd5b600080fd5b600067ffffffffffffffff821115613163576131626130be565b5b61316c826130ad565b9050602081019050919050565b82818337600083830152505050565b600061319b61319684613148565b61311e565b9050828152602081018484840111156131b7576131b6613143565b5b6131c2848285613179565b509392505050565b600082601f8301126131df576131de61313e565b5b81356131ef848260208601613188565b91505092915050565b60006bffffffffffffffffffffffff82169050919050565b613219816131f8565b811461322457600080fd5b50565b60008135905061323681613210565b92915050565b61324581612dc9565b811461325057600080fd5b50565b6000813590506132628161323c565b92915050565b600067ffffffffffffffff821115613283576132826130be565b5b61328c826130ad565b9050602081019050919050565b60006132ac6132a784613268565b61311e565b9050828152602081018484840111156132c8576132c7613143565b5b6132d3848285613179565b509392505050565b600082601f8301126132f0576132ef61313e565b5b8135613300848260208601613299565b91505092915050565b600061012082840312156133205761331f6130a8565b5b61332b61012061311e565b9050600082013567ffffffffffffffff81111561334b5761334a613139565b5b613357848285016131ca565b600083015250602082013567ffffffffffffffff81111561337b5761337a613139565b5b613387848285016131ca565b602083015250604061339b84828501613227565b60408301525060606133af84828501613227565b60608301525060806133c384828501612e4a565b60808301525060a06133d784828501612e4a565b60a08301525060c06133eb84828501613253565b60c08301525060e06133ff84828501612f1c565b60e08301525061010082013567ffffffffffffffff81111561342457613423613139565b5b613430848285016132db565b6101008301525092915050565b6000806040838503121561345457613453612d3a565b5b600061346285828601612f1c565b925050602083013567ffffffffffffffff81111561348357613482612d3f565b5b61348f85828601613309565b9150509250929050565b6000604082840312156134af576134ae6130a8565b5b6134b9604061311e565b905060006134c984828501612e4a565b60008301525060206134dd84828501612e4a565b60208301525092915050565b60008060008060008060008060006101408a8c03121561350c5761350b612d3a565b5b600061351a8c828d01612f1c565b995050602061352b8c828d01612f1c565b985050604061353c8c828d01612f1c565b975050606061354d8c828d01612f1c565b965050608061355e8c828d01612f1c565b95505060a061356f8c828d01613499565b94505060e06135808c828d01612f1c565b9350506101006135928c828d01612e4a565b9250506101206135a48c828d01612e4a565b9150509295985092959850929598565b6135bd81612ef3565b82525050565b60006020820190506135d860008301846135b4565b92915050565b60006135e98261301a565b9050919050565b6135f9816135de565b82525050565b600060208201905061361460008301846135f0565b92915050565b6000604082840312156136305761362f612d3a565b5b600061363e84828501613499565b91505092915050565b600063ffffffff82169050919050565b61366081613647565b811461366b57600080fd5b50565b60008135905061367d81613657565b92915050565b60008060006060848603121561369c5761369b612d3a565b5b60006136aa86828701612f1c565b93505060206136bb86828701612e4a565b92505060406136cc8682870161366e565b9150509250925092565b60006136e18261301a565b9050919050565b6136f1816136d6565b82525050565b600060208201905061370c60008301846136e8565b92915050565b600061371d8261301a565b9050919050565b61372d81613712565b82525050565b60006020820190506137486000830184613724565b92915050565b60006040820190506137636000830185612e09565b6137706020830184612e09565b9392505050565b600081519050919050565b600082825260208201905092915050565b60005b838110156137b1578082015181840152602081019050613796565b60008484015250505050565b60006137c882613777565b6137d28185613782565b93506137e2818560208601613793565b6137eb816130ad565b840191505092915050565b600061381161380c613807846131f8565b612fee565b612dff565b9050919050565b613821816137f6565b82525050565b600060a08201905061383c60008301886135b4565b818103602083015261384e81876137bd565b9050818103604083015261386281866137bd565b90506138716060830185613818565b61387e60808301846135b4565b9695505050505050565b60008151905061389781612f05565b92915050565b6000602082840312156138b3576138b2612d3a565b5b60006138c184828501613888565b91505092915050565b60006040820190506138df60008301856135b4565b6138ec6020830184613818565b9392505050565b6000815190506139028161323c565b92915050565b60006020828403121561391e5761391d612d3a565b5b600061392c848285016138f3565b91505092915050565b600060c08201905061394a60008301896135b4565b61395760208301886135b4565b6139646040830187613818565b61397160608301866135b4565b61397e6080830185612e09565b61398b60a0830184612e09565b979650505050505050565b7f4e487b7100000000000000000000000000000000000000000000000000000000600052601160045260246000fd5b60006139d082612dff565b91506139db83612dff565b92508282019050808211156139f3576139f2613996565b5b92915050565b6000819050919050565b600067ffffffffffffffff82169050919050565b6000613a32613a2d613a28846139f9565b612fee565b613a03565b9050919050565b613a4281613a17565b82525050565b6000602082019050613a5d6000830184613a39565b92915050565b613a6c816131f8565b82525050565b600081519050919050565b600082825260208201905092915050565b6000613a9982613a72565b613aa38185613a7d565b9350613ab3818560208601613793565b613abc816130ad565b840191505092915050565b600061016082019050613add600083018e6135b4565b613aea602083018d6135b4565b613af7604083018c612e09565b613b04606083018b612e09565b613b11608083018a613a63565b613b1e60a0830189613a63565b613b2b60c0830188612e09565b613b3860e0830187612e09565b613b46610100830186612dd5565b613b546101208301856135b4565b818103610140830152613b678184613a8e565b90509c9b505050505050505050505050565b600081519050613b8881612e33565b92915050565b600060208284031215613ba457613ba3612d3a565b5b6000613bb284828501613b79565b91505092915050565b600081519050613bca81612f95565b92915050565b600060208284031215613be657613be5612d3a565b5b6000613bf484828501613bbb565b91505092915050565b6000613c0882612dff565b9150613c1383612dff565b9250828203905081811115613c2b57613c2a613996565b5b92915050565b6000606082019050613c4660008301866135b4565b613c5360208301856135b4565b613c606040830184612e09565b949350505050565b6000604082019050613c7d60008301856135b4565b613c8a6020830184612e09565b9392505050565b613c9a81613647565b82525050565b6000608082019050613cb560008301876135b4565b613cc26020830186613c91565b613ccf6040830185612e09565b613cdc6060830184612e09565b95945050505050565b6000819050919050565b6000613d0a613d05613d0084613ce5565b612fee565b612dff565b9050919050565b613d1a81613cef565b82525050565b6000608082019050613d3560008301876135b4565b613d426020830186612e09565b613d4f60408301856135b4565b613d5c6060830184613d11565b95945050505050565b600060e082019050613d7a600083018a6135b4565b613d8760208301896135b4565b613d946040830188612e09565b613da16060830187612e09565b613dae6080830186612e09565b613dbb60a0830185612e09565b613dc860c0830184612e09565b98975050505050505050565b6000604082019050613de960008301856135b4565b613df66020830184612ea9565b9392505050565b6000613e0882612dff565b9150613e1383612dff565b9250828202613e2181612dff565b91508282048414831517613e3857613e37613996565b5b5092915050565b7f4e487b7100000000000000000000000000000000000000000000000000000000600052601260045260246000fd5b6000613e7982612dff565b9150613e8483612dff565b925082613e9457613e93613e3f565b5b828204905092915050565b600081905092915050565b6000613eb582613a72565b613ebf8185613e9f565b9350613ecf818560208601613793565b80840191505092915050565b6000613ee78284613eaa565b91508190509291505056fea26469706673582212201a785e6654883e31ac31724a007043be34786645c2df2158ce578549cb0e166d64736f6c63430008180033",
  "linkReferences": {},
  "deployedLinkReferences": {}
}