{
  "_format": "hh-sol-artifact-1",
  "contractName": "MoxieBondingCurve",
  "sourceName": "contracts/MoxieBondingCurve.sol",
  "abi": [
    {
      "inputs": [],
      "name": "AccessControlBadConfirmation",
      "type": "error"
    },
    {
      "inputs": [
        {
          "internalType": "address",
          "name": "account",
          "type": "address"
        },
        {
          "internalType": "bytes32",
          "name": "neededRole",
          "type": "bytes32"
        }
      ],
      "name": "AccessControlUnauthorizedAccount",
      "type": "error"
    },
    {
      "inputs": [
        {
          "internalType": "address",
          "name": "target",
          "type": "address"
        }
      ],
      "name": "AddressEmptyCode",
      "type": "error"
    },
    {
      "inputs": [
        {
          "internalType": "address",
          "name": "account",
          "type": "address"
        }
      ],
      "name": "AddressInsufficientBalance",
      "type": "error"
    },
    {
      "inputs": [],
      "name": "EnforcedPause",
      "type": "error"
    },
    {
      "inputs": [],
      "name": "ExpectedPause",
      "type": "error"
    },
    {
      "inputs": [],
      "name": "FailedInnerCall",
      "type": "error"
    },
    {
      "inputs": [],
      "name": "InvalidInitialization",
      "type": "error"
    },
    {
      "inputs": [],
      "name": "MoxieBondingCurve_InvalidBeneficiary",
      "type": "error"
    },
    {
      "inputs": [],
      "name": "MoxieBondingCurve_InvalidDepositAmount",
      "type": "error"
    },
    {
      "inputs": [],
      "name": "MoxieBondingCurve_InvalidFeePercentage",
      "type": "error"
    },
    {
      "inputs": [],
      "name": "MoxieBondingCurve_InvalidFormula",
      "type": "error"
    },
    {
      "inputs": [],
      "name": "MoxieBondingCurve_InvalidOwner",
      "type": "error"
    },
    {
      "inputs": [],
      "name": "MoxieBondingCurve_InvalidReserveRation",
      "type": "error"
    },
    {
      "inputs": [],
      "name": "MoxieBondingCurve_InvalidSellAmount",
      "type": "error"
    },
    {
      "inputs": [],
      "name": "MoxieBondingCurve_InvalidSubject",
      "type": "error"
    },
    {
      "inputs": [],
      "name": "MoxieBondingCurve_InvalidSubjectFactory",
      "type": "error"
    },
    {
      "inputs": [],
      "name": "MoxieBondingCurve_InvalidSubjectSupply",
      "type": "error"
    },
    {
      "inputs": [],
      "name": "MoxieBondingCurve_InvalidSubjectToken",
      "type": "error"
    },
    {
      "inputs": [],
      "name": "MoxieBondingCurve_InvalidToken",
      "type": "error"
    },
    {
      "inputs": [],
      "name": "MoxieBondingCurve_InvalidTokenManager",
      "type": "error"
    },
    {
      "inputs": [],
      "name": "MoxieBondingCurve_InvalidVault",
      "type": "error"
    },
    {
      "inputs": [],
      "name": "MoxieBondingCurve_OnlySubjectFactory",
      "type": "error"
    },
    {
      "inputs": [],
      "name": "MoxieBondingCurve_SlippageExceedsLimit",
      "type": "error"
    },
    {
      "inputs": [],
      "name": "MoxieBondingCurve_SubjectAlreadyInitialized",
      "type": "error"
    },
    {
      "inputs": [],
      "name": "MoxieBondingCurve_SubjectNotInitialized",
      "type": "error"
    },
    {
      "inputs": [],
      "name": "NotInitializing",
      "type": "error"
    },
    {
      "inputs": [
        {
          "internalType": "address",
          "name": "token",
          "type": "address"
        }
      ],
      "name": "SafeERC20FailedOperation",
      "type": "error"
    },
    {
      "anonymous": false,
      "inputs": [
        {
          "indexed": false,
          "internalType": "address",
          "name": "_subject",
          "type": "address"
        },
        {
          "indexed": false,
          "internalType": "address",
          "name": "_subjectToken",
          "type": "address"
        },
        {
          "indexed": false,
          "internalType": "uint256",
          "name": "_initialSupply",
          "type": "uint256"
        },
        {
          "indexed": false,
          "internalType": "uint256",
          "name": "_reserve",
          "type": "uint256"
        },
        {
          "indexed": false,
          "internalType": "uint32",
          "name": "_reserveRatio",
          "type": "uint32"
        }
      ],
      "name": "BondingCurveInitialized",
      "type": "event"
    },
    {
      "anonymous": false,
      "inputs": [
        {
          "indexed": false,
          "internalType": "uint64",
          "name": "version",
          "type": "uint64"
        }
      ],
      "name": "Initialized",
      "type": "event"
    },
    {
      "anonymous": false,
      "inputs": [
        {
          "indexed": false,
          "internalType": "address",
          "name": "account",
          "type": "address"
        }
      ],
      "name": "Paused",
      "type": "event"
    },
    {
      "anonymous": false,
      "inputs": [
        {
          "indexed": true,
          "internalType": "bytes32",
          "name": "role",
          "type": "bytes32"
        },
        {
          "indexed": true,
          "internalType": "bytes32",
          "name": "previousAdminRole",
          "type": "bytes32"
        },
        {
          "indexed": true,
          "internalType": "bytes32",
          "name": "newAdminRole",
          "type": "bytes32"
        }
      ],
      "name": "RoleAdminChanged",
      "type": "event"
    },
    {
      "anonymous": false,
      "inputs": [
        {
          "indexed": true,
          "internalType": "bytes32",
          "name": "role",
          "type": "bytes32"
        },
        {
          "indexed": true,
          "internalType": "address",
          "name": "account",
          "type": "address"
        },
        {
          "indexed": true,
          "internalType": "address",
          "name": "sender",
          "type": "address"
        }
      ],
      "name": "RoleGranted",
      "type": "event"
    },
    {
      "anonymous": false,
      "inputs": [
        {
          "indexed": true,
          "internalType": "bytes32",
          "name": "role",
          "type": "bytes32"
        },
        {
          "indexed": true,
          "internalType": "address",
          "name": "account",
          "type": "address"
        },
        {
          "indexed": true,
          "internalType": "address",
          "name": "sender",
          "type": "address"
        }
      ],
      "name": "RoleRevoked",
      "type": "event"
    },
    {
      "anonymous": false,
      "inputs": [
        {
          "indexed": false,
          "internalType": "address",
          "name": "_subject",
          "type": "address"
        },
        {
          "indexed": false,
          "internalType": "address",
          "name": "_sellToken",
          "type": "address"
        },
        {
          "indexed": false,
          "internalType": "uint256",
          "name": "_sellAmount",
          "type": "uint256"
        },
        {
          "indexed": false,
          "internalType": "address",
          "name": "_buyToken",
          "type": "address"
        },
        {
          "indexed": false,
          "internalType": "uint256",
          "name": "_buyAmount",
          "type": "uint256"
        },
        {
          "indexed": false,
          "internalType": "address",
          "name": "_beneficiary",
          "type": "address"
        }
      ],
      "name": "SubjectSharePurchased",
      "type": "event"
    },
    {
      "anonymous": false,
      "inputs": [
        {
          "indexed": false,
          "internalType": "address",
          "name": "_subject",
          "type": "address"
        },
        {
          "indexed": false,
          "internalType": "address",
          "name": "_sellToken",
          "type": "address"
        },
        {
          "indexed": false,
          "internalType": "uint256",
          "name": "_sellAmount",
          "type": "uint256"
        },
        {
          "indexed": false,
          "internalType": "address",
          "name": "_buyToken",
          "type": "address"
        },
        {
          "indexed": false,
          "internalType": "uint256",
          "name": "_buyAmount",
          "type": "uint256"
        },
        {
          "indexed": false,
          "internalType": "address",
          "name": "_beneficiary",
          "type": "address"
        }
      ],
      "name": "SubjectShareSold",
      "type": "event"
    },
    {
      "anonymous": false,
      "inputs": [
        {
          "indexed": false,
          "internalType": "address",
          "name": "account",
          "type": "address"
        }
      ],
      "name": "Unpaused",
      "type": "event"
    },
    {
      "anonymous": false,
      "inputs": [
        {
          "indexed": false,
          "internalType": "address",
          "name": "_beneficiary",
          "type": "address"
        }
      ],
      "name": "UpdateBeneficiary",
      "type": "event"
    },
    {
      "anonymous": false,
      "inputs": [
        {
          "indexed": false,
          "internalType": "uint256",
          "name": "_protocolBuyFeePct",
          "type": "uint256"
        },
        {
          "indexed": false,
          "internalType": "uint256",
          "name": "_protocolSellFeePct",
          "type": "uint256"
        },
        {
          "indexed": false,
          "internalType": "uint256",
          "name": "_subjectBuyFeePct",
          "type": "uint256"
        },
        {
          "indexed": false,
          "internalType": "uint256",
          "name": "_subjectSellFeePct",
          "type": "uint256"
        }
      ],
      "name": "UpdateFees",
      "type": "event"
    },
    {
      "anonymous": false,
      "inputs": [
        {
          "indexed": false,
          "internalType": "address",
          "name": "_formula",
          "type": "address"
        }
      ],
      "name": "UpdateFormula",
      "type": "event"
    },
    {
      "inputs": [],
      "name": "DEFAULT_ADMIN_ROLE",
      "outputs": [
        {
          "internalType": "bytes32",
          "name": "",
          "type": "bytes32"
        }
      ],
      "stateMutability": "view",
      "type": "function"
    },
    {
      "inputs": [],
      "name": "PAUSE_ROLE",
      "outputs": [
        {
          "internalType": "bytes32",
          "name": "",
          "type": "bytes32"
        }
      ],
      "stateMutability": "view",
      "type": "function"
    },
    {
      "inputs": [],
      "name": "PCT_BASE",
      "outputs": [
        {
          "internalType": "uint256",
          "name": "",
          "type": "uint256"
        }
      ],
      "stateMutability": "view",
      "type": "function"
    },
    {
      "inputs": [],
      "name": "PPM",
      "outputs": [
        {
          "internalType": "uint32",
          "name": "",
          "type": "uint32"
        }
      ],
      "stateMutability": "view",
      "type": "function"
    },
    {
      "inputs": [],
      "name": "UPDATE_BENEFICIARY_ROLE",
      "outputs": [
        {
          "internalType": "bytes32",
          "name": "",
          "type": "bytes32"
        }
      ],
      "stateMutability": "view",
      "type": "function"
    },
    {
      "inputs": [],
      "name": "UPDATE_FEES_ROLE",
      "outputs": [
        {
          "internalType": "bytes32",
          "name": "",
          "type": "bytes32"
        }
      ],
      "stateMutability": "view",
      "type": "function"
    },
    {
      "inputs": [],
      "name": "UPDATE_FORMULA_ROLE",
      "outputs": [
        {
          "internalType": "bytes32",
          "name": "",
          "type": "bytes32"
        }
      ],
      "stateMutability": "view",
      "type": "function"
    },
    {
      "inputs": [
        {
          "internalType": "address",
          "name": "_subject",
          "type": "address"
        },
        {
          "internalType": "uint256",
          "name": "_depositAmount",
          "type": "uint256"
        },
        {
          "internalType": "uint256",
          "name": "_minReturnAmountAfterFee",
          "type": "uint256"
        }
      ],
      "name": "buyShares",
      "outputs": [
        {
          "internalType": "uint256",
          "name": "shares_",
          "type": "uint256"
        }
      ],
      "stateMutability": "nonpayable",
      "type": "function"
    },
    {
      "inputs": [
        {
          "internalType": "address",
          "name": "_subject",
          "type": "address"
        },
        {
          "internalType": "uint256",
          "name": "_depositAmount",
          "type": "uint256"
        },
        {
          "internalType": "address",
          "name": "_onBehalfOf",
          "type": "address"
        },
        {
          "internalType": "uint256",
          "name": "_minReturnAmountAfterFee",
          "type": "uint256"
        }
      ],
      "name": "buySharesFor",
      "outputs": [
        {
          "internalType": "uint256",
          "name": "shares_",
          "type": "uint256"
        }
      ],
      "stateMutability": "nonpayable",
      "type": "function"
    },
    {
      "inputs": [],
      "name": "feeBeneficiary",
      "outputs": [
        {
          "internalType": "address",
          "name": "",
          "type": "address"
        }
      ],
      "stateMutability": "view",
      "type": "function"
    },
    {
      "inputs": [],
      "name": "formula",
      "outputs": [
        {
          "internalType": "contract IBancorFormula",
          "name": "",
          "type": "address"
        }
      ],
      "stateMutability": "view",
      "type": "function"
    },
    {
      "inputs": [
        {
          "internalType": "bytes32",
          "name": "role",
          "type": "bytes32"
        }
      ],
      "name": "getRoleAdmin",
      "outputs": [
        {
          "internalType": "bytes32",
          "name": "",
          "type": "bytes32"
        }
      ],
      "stateMutability": "view",
      "type": "function"
    },
    {
      "inputs": [
        {
          "internalType": "bytes32",
          "name": "role",
          "type": "bytes32"
        },
        {
          "internalType": "address",
          "name": "account",
          "type": "address"
        }
      ],
      "name": "grantRole",
      "outputs": [],
      "stateMutability": "nonpayable",
      "type": "function"
    },
    {
      "inputs": [
        {
          "internalType": "bytes32",
          "name": "role",
          "type": "bytes32"
        },
        {
          "internalType": "address",
          "name": "account",
          "type": "address"
        }
      ],
      "name": "hasRole",
      "outputs": [
        {
          "internalType": "bool",
          "name": "",
          "type": "bool"
        }
      ],
      "stateMutability": "view",
      "type": "function"
    },
    {
      "inputs": [
        {
          "internalType": "address",
          "name": "_token",
          "type": "address"
        },
        {
          "internalType": "address",
          "name": "_formula",
          "type": "address"
        },
        {
          "internalType": "address",
          "name": "_owner",
          "type": "address"
        },
        {
          "internalType": "address",
          "name": "_tokenManager",
          "type": "address"
        },
        {
          "internalType": "address",
          "name": "_vault",
          "type": "address"
        },
        {
          "components": [
            {
              "internalType": "uint256",
              "name": "protocolBuyFeePct",
              "type": "uint256"
            },
            {
              "internalType": "uint256",
              "name": "protocolSellFeePct",
              "type": "uint256"
            },
            {
              "internalType": "uint256",
              "name": "subjectBuyFeePct",
              "type": "uint256"
            },
            {
              "internalType": "uint256",
              "name": "subjectSellFeePct",
              "type": "uint256"
            }
          ],
          "internalType": "struct IMoxieBondingCurve.FeeInput",
          "name": "_feeInput",
          "type": "tuple"
        },
        {
          "internalType": "address",
          "name": "_feeBeneficiary",
          "type": "address"
        },
        {
          "internalType": "address",
          "name": "_subjectFactory",
          "type": "address"
        }
      ],
      "name": "initialize",
      "outputs": [],
      "stateMutability": "nonpayable",
      "type": "function"
    },
    {
      "inputs": [
        {
          "internalType": "address",
          "name": "_subject",
          "type": "address"
        },
        {
          "internalType": "uint32",
          "name": "_reserveRatio",
          "type": "uint32"
        },
        {
          "internalType": "uint256",
          "name": "_initialSupply",
          "type": "uint256"
        },
        {
          "internalType": "uint256",
          "name": "_reserveAmount",
          "type": "uint256"
        }
      ],
      "name": "initializeSubjectBondingCurve",
      "outputs": [
        {
          "internalType": "bool",
          "name": "",
          "type": "bool"
        }
      ],
      "stateMutability": "nonpayable",
      "type": "function"
    },
    {
      "inputs": [],
      "name": "pause",
      "outputs": [],
      "stateMutability": "nonpayable",
      "type": "function"
    },
    {
      "inputs": [],
      "name": "paused",
      "outputs": [
        {
          "internalType": "bool",
          "name": "",
          "type": "bool"
        }
      ],
      "stateMutability": "view",
      "type": "function"
    },
    {
      "inputs": [],
      "name": "protocolBuyFeePct",
      "outputs": [
        {
          "internalType": "uint256",
          "name": "",
          "type": "uint256"
        }
      ],
      "stateMutability": "view",
      "type": "function"
    },
    {
      "inputs": [],
      "name": "protocolSellFeePct",
      "outputs": [
        {
          "internalType": "uint256",
          "name": "",
          "type": "uint256"
        }
      ],
      "stateMutability": "view",
      "type": "function"
    },
    {
      "inputs": [
        {
          "internalType": "bytes32",
          "name": "role",
          "type": "bytes32"
        },
        {
          "internalType": "address",
          "name": "callerConfirmation",
          "type": "address"
        }
      ],
      "name": "renounceRole",
      "outputs": [],
      "stateMutability": "nonpayable",
      "type": "function"
    },
    {
      "inputs": [
        {
          "internalType": "address",
          "name": "subject",
          "type": "address"
        }
      ],
      "name": "reserveRatio",
      "outputs": [
        {
          "internalType": "uint32",
          "name": "_reserveRatio",
          "type": "uint32"
        }
      ],
      "stateMutability": "view",
      "type": "function"
    },
    {
      "inputs": [
        {
          "internalType": "bytes32",
          "name": "role",
          "type": "bytes32"
        },
        {
          "internalType": "address",
          "name": "account",
          "type": "address"
        }
      ],
      "name": "revokeRole",
      "outputs": [],
      "stateMutability": "nonpayable",
      "type": "function"
    },
    {
      "inputs": [
        {
          "internalType": "address",
          "name": "_subject",
          "type": "address"
        },
        {
          "internalType": "uint256",
          "name": "_sellAmount",
          "type": "uint256"
        },
        {
          "internalType": "uint256",
          "name": "_minReturnAmountAfterFee",
          "type": "uint256"
        }
      ],
      "name": "sellShares",
      "outputs": [
        {
          "internalType": "uint256",
          "name": "returnAmount_",
          "type": "uint256"
        }
      ],
      "stateMutability": "nonpayable",
      "type": "function"
    },
    {
      "inputs": [
        {
          "internalType": "address",
          "name": "_subject",
          "type": "address"
        },
        {
          "internalType": "uint256",
          "name": "_sellAmount",
          "type": "uint256"
        },
        {
          "internalType": "address",
          "name": "_onBehalfOf",
          "type": "address"
        },
        {
          "internalType": "uint256",
          "name": "_minReturnAmountAfterFee",
          "type": "uint256"
        }
      ],
      "name": "sellSharesFor",
      "outputs": [
        {
          "internalType": "uint256",
          "name": "returnAmount_",
          "type": "uint256"
        }
      ],
      "stateMutability": "nonpayable",
      "type": "function"
    },
    {
      "inputs": [],
      "name": "subjectBuyFeePct",
      "outputs": [
        {
          "internalType": "uint256",
          "name": "",
          "type": "uint256"
        }
      ],
      "stateMutability": "view",
      "type": "function"
    },
    {
      "inputs": [],
      "name": "subjectFactory",
      "outputs": [
        {
          "internalType": "address",
          "name": "",
          "type": "address"
        }
      ],
      "stateMutability": "view",
      "type": "function"
    },
    {
      "inputs": [],
      "name": "subjectSellFeePct",
      "outputs": [
        {
          "internalType": "uint256",
          "name": "",
          "type": "uint256"
        }
      ],
      "stateMutability": "view",
      "type": "function"
    },
    {
      "inputs": [
        {
          "internalType": "bytes4",
          "name": "interfaceId",
          "type": "bytes4"
        }
      ],
      "name": "supportsInterface",
      "outputs": [
        {
          "internalType": "bool",
          "name": "",
          "type": "bool"
        }
      ],
      "stateMutability": "view",
      "type": "function"
    },
    {
      "inputs": [],
      "name": "token",
      "outputs": [
        {
          "internalType": "contract IERC20Extended",
          "name": "",
          "type": "address"
        }
      ],
      "stateMutability": "view",
      "type": "function"
    },
    {
      "inputs": [],
      "name": "tokenManager",
      "outputs": [
        {
          "internalType": "contract ITokenManager",
          "name": "",
          "type": "address"
        }
      ],
      "stateMutability": "view",
      "type": "function"
    },
    {
      "inputs": [],
      "name": "unpause",
      "outputs": [],
      "stateMutability": "nonpayable",
      "type": "function"
    },
    {
      "inputs": [
        {
          "internalType": "address",
          "name": "_feeBeneficiary",
          "type": "address"
        }
      ],
      "name": "updateFeeBeneficiary",
      "outputs": [],
      "stateMutability": "nonpayable",
      "type": "function"
    },
    {
      "inputs": [
        {
          "components": [
            {
              "internalType": "uint256",
              "name": "protocolBuyFeePct",
              "type": "uint256"
            },
            {
              "internalType": "uint256",
              "name": "protocolSellFeePct",
              "type": "uint256"
            },
            {
              "internalType": "uint256",
              "name": "subjectBuyFeePct",
              "type": "uint256"
            },
            {
              "internalType": "uint256",
              "name": "subjectSellFeePct",
              "type": "uint256"
            }
          ],
          "internalType": "struct IMoxieBondingCurve.FeeInput",
          "name": "_feeInput",
          "type": "tuple"
        }
      ],
      "name": "updateFees",
      "outputs": [],
      "stateMutability": "nonpayable",
      "type": "function"
    },
    {
      "inputs": [
        {
          "internalType": "address",
          "name": "_formula",
          "type": "address"
        }
      ],
      "name": "updateFormula",
      "outputs": [],
      "stateMutability": "nonpayable",
      "type": "function"
    },
    {
      "inputs": [],
      "name": "vault",
      "outputs": [
        {
          "internalType": "contract IVault",
          "name": "",
          "type": "address"
        }
      ],
      "stateMutability": "view",
      "type": "function"
    }
  ],
  "bytecode": "0x608060405234801561001057600080fd5b50613e77806100206000396000f3fe608060405234801561001057600080fd5b506004361061021c5760003560e01c80635c975abb11610125578063ba6da001116100ad578063dbf495611161007c578063dbf495611461062f578063e7af32ba1461064d578063fbfa77cf1461066b578063fc0c546a14610689578063fc157cb4146106a75761021c565b8063ba6da00114610597578063d547741f146105c7578063d5b49a71146105e3578063d8690fea146105ff5761021c565b806389d6d0de116100f457806389d6d0de146104f157806391d148541461050f578063951ef92d1461053f57806398a9c92b1461055d578063a217fddf146105795761021c565b80635c975abb1461048f57806360e14b60146104ad5780636c572893146104cb5780638456cb59146104e75761021c565b806336568abe116101a857806341644f8c1161017757806341644f8c146103e7578063492fb343146104055780634b75f54f1461042357806357f6508b146104415780635b933ee6146104715761021c565b806336568abe14610373578063389ed2671461038f57806339952b88146103ad5780633f4ba83a146103dd5761021c565b806317f69222116101ef57806317f69222146102a957806324234532146102d9578063248a9ca3146103095780632a709b14146103395780632f2ff15d146103575761021c565b806301ffc9a7146102215780630d720bbc146102515780630e6c7a661461026f5780630e85d2771461028b575b600080fd5b61023b6004803603810190610236919061321c565b6106c5565b6040516102489190613264565b60405180910390f35b61025961073f565b604051610266919061329e565b60405180910390f35b61028960048036038101906102849190613456565b610746565b005b610293610aba565b6040516102a09190613527565b60405180910390f35b6102c360048036038101906102be9190613542565b610ade565b6040516102d091906135a4565b60405180910390f35b6102f360048036038101906102ee91906135bf565b610afd565b604051610300919061329e565b60405180910390f35b610323600480360381019061031e9190613618565b610b20565b6040516103309190613527565b60405180910390f35b610341610b4e565b60405161034e91906136a4565b60405180910390f35b610371600480360381019061036c91906136bf565b610b74565b005b61038d600480360381019061038891906136bf565b610b96565b005b610397610c11565b6040516103a49190613527565b60405180910390f35b6103c760048036038101906103c29190613542565b610c35565b6040516103d491906135a4565b60405180910390f35b6103e5610c54565b005b6103ef610c89565b6040516103fc9190613527565b60405180910390f35b61040d610cad565b60405161041a919061370e565b60405180910390f35b61042b610cd3565b604051610438919061374a565b60405180910390f35b61045b60048036038101906104569190613765565b610cf9565b60405161046891906135a4565b60405180910390f35b610479610f0d565b60405161048691906135a4565b60405180910390f35b610497610f13565b6040516104a49190613264565b60405180910390f35b6104b5610f38565b6040516104c29190613527565b60405180910390f35b6104e560048036038101906104e091906135bf565b610f5c565b005b6104ef610fd3565b005b6104f9611008565b60405161050691906135a4565b60405180910390f35b610529600480360381019061052491906136bf565b61100e565b6040516105369190613264565b60405180910390f35b610547611087565b60405161055491906135a4565b60405180910390f35b610577600480360381019061057291906137cc565b61108d565b005b6105816110e0565b60405161058e9190613527565b60405180910390f35b6105b160048036038101906105ac9190613825565b6110e7565b6040516105be9190613264565b60405180910390f35b6105e160048036038101906105dc91906136bf565b61167e565b005b6105fd60048036038101906105f891906135bf565b6116a0565b005b61061960048036038101906106149190613765565b611717565b60405161062691906135a4565b60405180910390f35b61063761192a565b60405161064491906135a4565b60405180910390f35b610655611930565b604051610662919061370e565b60405180910390f35b610673611956565b60405161068091906138ad565b60405180910390f35b61069161197c565b60405161069e91906138e9565b60405180910390f35b6106af6119a0565b6040516106bc91906135a4565b60405180910390f35b60007f7965db0b000000000000000000000000000000000000000000000000000000007bffffffffffffffffffffffffffffffffffffffffffffffffffffffff1916827bffffffffffffffffffffffffffffffffffffffffffffffffffffffff191614806107385750610737826119ac565b5b9050919050565b620f424081565b6000610750611a16565b905060008160000160089054906101000a900460ff1615905060008260000160009054906101000a900467ffffffffffffffff1690506000808267ffffffffffffffff1614801561079e5750825b9050600060018367ffffffffffffffff161480156107d3575060003073ffffffffffffffffffffffffffffffffffffffff163b145b9050811580156107e1575080155b15610818576040517ff92ee8a900000000000000000000000000000000000000000000000000000000815260040160405180910390fd5b60018560000160006101000a81548167ffffffffffffffff021916908367ffffffffffffffff16021790555083156108685760018560000160086101000a81548160ff0219169083151502179055505b610870611a3e565b610878611a48565b6108878d8d8d8d8d8c8c611a5a565b61089088611c23565b8c6000806101000a81548173ffffffffffffffffffffffffffffffffffffffff021916908373ffffffffffffffffffffffffffffffffffffffff1602179055508b600160006101000a81548173ffffffffffffffffffffffffffffffffffffffff021916908373ffffffffffffffffffffffffffffffffffffffff16021790555089600260006101000a81548173ffffffffffffffffffffffffffffffffffffffff021916908373ffffffffffffffffffffffffffffffffffffffff16021790555088600360006101000a81548173ffffffffffffffffffffffffffffffffffffffff021916908373ffffffffffffffffffffffffffffffffffffffff160217905550876000015160048190555087602001516005819055508760400151600681905550876060015160078190555086600860006101000a81548173ffffffffffffffffffffffffffffffffffffffff021916908373ffffffffffffffffffffffffffffffffffffffff16021790555085600960006101000a81548173ffffffffffffffffffffffffffffffffffffffff021916908373ffffffffffffffffffffffffffffffffffffffff160217905550610a4e6000801b8c611c9e565b508315610aab5760008560000160086101000a81548160ff0219169083151502179055507fc7f505b2f371ae2175ee4913f4499e1f2633a7b5936321eed1cdaeb6115181d26001604051610aa29190613953565b60405180910390a15b50505050505050505050505050565b7fbfb76d8d43f55efe58544ea32af187792a7bdb983850d8fed33478266eec3cbb81565b6000610ae8611d9f565b610af484843385611717565b90509392505050565b600a6020528060005260406000206000915054906101000a900463ffffffff1681565b600080610b2b611de0565b905080600001600084815260200190815260200160002060010154915050919050565b600260009054906101000a900473ffffffffffffffffffffffffffffffffffffffff1681565b610b7d82610b20565b610b8681611e08565b610b908383611c9e565b50505050565b610b9e611e1c565b73ffffffffffffffffffffffffffffffffffffffff168173ffffffffffffffffffffffffffffffffffffffff1614610c02576040517f6697b23200000000000000000000000000000000000000000000000000000000815260040160405180910390fd5b610c0c8282611e24565b505050565b7f139c2898040ef16910dc9f44dc697df79363da767d8bc92f2e310312b816e46d81565b6000610c3f611d9f565b610c4b84843385610cf9565b90509392505050565b7f139c2898040ef16910dc9f44dc697df79363da767d8bc92f2e310312b816e46d610c7e81611e08565b610c86611f26565b50565b7ff7ea2b80c7b6a2cab2c11d2290cb005c3748397358a25e17113658c83b73259381565b600860009054906101000a900473ffffffffffffffffffffffffffffffffffffffff1681565b600160009054906101000a900473ffffffffffffffffffffffffffffffffffffffff1681565b6000610d03611d9f565b610d0c85611f98565b15610d43576040517fa7ef168800000000000000000000000000000000000000000000000000000000815260040160405180910390fd5b60008403610d7d576040517f2dc1479300000000000000000000000000000000000000000000000000000000815260040160405180910390fd5b6000600a60008773ffffffffffffffffffffffffffffffffffffffff1673ffffffffffffffffffffffffffffffffffffffff16815260200190815260200160002060009054906101000a900463ffffffff16905060008163ffffffff1603610e11576040517f85b1b9c700000000000000000000000000000000000000000000000000000000815260040160405180910390fd5b6000600260009054906101000a900473ffffffffffffffffffffffffffffffffffffffff1673ffffffffffffffffffffffffffffffffffffffff1663e4860339886040518263ffffffff1660e01b8152600401610e6e919061370e565b6020604051808303816000875af1158015610e8d573d6000803e3d6000fd5b505050506040513d601f19601f82011682018060405250810190610eb19190613983565b9050610ebc81611f98565b15610ef3576040517ffcde723100000000000000000000000000000000000000000000000000000000815260040160405180910390fd5b610f01818787878b87611fd0565b92505050949350505050565b60075481565b600080610f1e6124a4565b90508060000160009054906101000a900460ff1691505090565b7f5f9be2932ed3a723f295a763be1804c7ebfd1a41c1348fb8bdf5be1c5cdca82281565b7ff7ea2b80c7b6a2cab2c11d2290cb005c3748397358a25e17113658c83b732593610f8681611e08565b610f8f82611f98565b15610fc6576040517fadfdb05b00000000000000000000000000000000000000000000000000000000815260040160405180910390fd5b610fcf826124cc565b5050565b7f139c2898040ef16910dc9f44dc697df79363da767d8bc92f2e310312b816e46d610ffd81611e08565b611005612547565b50565b60055481565b600080611019611de0565b905080600001600085815260200190815260200160002060000160008473ffffffffffffffffffffffffffffffffffffffff1673ffffffffffffffffffffffffffffffffffffffff16815260200190815260200160002060009054906101000a900460ff1691505092915050565b60065481565b7f5f9be2932ed3a723f295a763be1804c7ebfd1a41c1348fb8bdf5be1c5cdca8226110b781611e08565b6110c082611c23565b6110dc82600001518360200151846040015185606001516125b9565b5050565b6000801b81565b60006110f1611d9f565b6110fa85611f98565b15611131576040517fa7ef168800000000000000000000000000000000000000000000000000000000815260040160405180910390fd5b600960009054906101000a900473ffffffffffffffffffffffffffffffffffffffff1673ffffffffffffffffffffffffffffffffffffffff163373ffffffffffffffffffffffffffffffffffffffff16146111b8576040517f6802704600000000000000000000000000000000000000000000000000000000815260040160405180910390fd5b6111c184612620565b6111f7576040517f39a1d18100000000000000000000000000000000000000000000000000000000815260040160405180910390fd5b6000600a60008773ffffffffffffffffffffffffffffffffffffffff1673ffffffffffffffffffffffffffffffffffffffff16815260200190815260200160002060009054906101000a900463ffffffff1663ffffffff1614611286576040517f86d5f90700000000000000000000000000000000000000000000000000000000815260040160405180910390fd5b83600a60008773ffffffffffffffffffffffffffffffffffffffff1673ffffffffffffffffffffffffffffffffffffffff16815260200190815260200160002060006101000a81548163ffffffff021916908363ffffffff1602179055506000600260009054906101000a900473ffffffffffffffffffffffffffffffffffffffff1673ffffffffffffffffffffffffffffffffffffffff1663e4860339876040518263ffffffff1660e01b8152600401611341919061370e565b6020604051808303816000875af1158015611360573d6000803e3d6000fd5b505050506040513d601f19601f820116820180604052508101906113849190613983565b905061138f81611f98565b156113c6576040517ffcde723100000000000000000000000000000000000000000000000000000000815260040160405180910390fd5b7f3e8bb74e6a03753bf16c1c2737daabee1be3548b0f638894f10f382560d1d07686828686896040516113fd9594939291906139b0565b60405180910390a160008173ffffffffffffffffffffffffffffffffffffffff166318160ddd6040518163ffffffff1660e01b8152600401602060405180830381865afa158015611452573d6000803e3d6000fd5b505050506040513d601f19601f820116820180604052508101906114769190613a18565b90508085146114b1576040517f849e9ad400000000000000000000000000000000000000000000000000000000815260040160405180910390fd5b6114fe33308660008054906101000a900473ffffffffffffffffffffffffffffffffffffffff1673ffffffffffffffffffffffffffffffffffffffff1661263c909392919063ffffffff16565b60008054906101000a900473ffffffffffffffffffffffffffffffffffffffff1673ffffffffffffffffffffffffffffffffffffffff1663095ea7b3600360009054906101000a900473ffffffffffffffffffffffffffffffffffffffff16866040518363ffffffff1660e01b815260040161157b929190613a45565b6020604051808303816000875af115801561159a573d6000803e3d6000fd5b505050506040513d601f19601f820116820180604052508101906115be9190613a9a565b50600360009054906101000a900473ffffffffffffffffffffffffffffffffffffffff1673ffffffffffffffffffffffffffffffffffffffff16638340f5498360008054906101000a900473ffffffffffffffffffffffffffffffffffffffff16876040518463ffffffff1660e01b815260040161163e93929190613ac7565b600060405180830381600087803b15801561165857600080fd5b505af115801561166c573d6000803e3d6000fd5b50505050600192505050949350505050565b61168782610b20565b61169081611e08565b61169a8383611e24565b50505050565b7fbfb76d8d43f55efe58544ea32af187792a7bdb983850d8fed33478266eec3cbb6116ca81611e08565b6116d382611f98565b1561170a576040517fb1710af000000000000000000000000000000000000000000000000000000000815260040160405180910390fd5b611713826126be565b5050565b6000611721611d9f565b61172a85611f98565b15611761576040517fa7ef168800000000000000000000000000000000000000000000000000000000815260040160405180910390fd5b6000840361179a576040517e6a79a400000000000000000000000000000000000000000000000000000000815260040160405180910390fd5b6000600a60008773ffffffffffffffffffffffffffffffffffffffff1673ffffffffffffffffffffffffffffffffffffffff16815260200190815260200160002060009054906101000a900463ffffffff16905060008163ffffffff160361182e576040517f85b1b9c700000000000000000000000000000000000000000000000000000000815260040160405180910390fd5b6000600260009054906101000a900473ffffffffffffffffffffffffffffffffffffffff1673ffffffffffffffffffffffffffffffffffffffff1663e4860339886040518263ffffffff1660e01b815260040161188b919061370e565b6020604051808303816000875af11580156118aa573d6000803e3d6000fd5b505050506040513d601f19601f820116820180604052508101906118ce9190613983565b90506118d981611f98565b15611910576040517ffcde723100000000000000000000000000000000000000000000000000000000815260040160405180910390fd5b61191e818787878b87612739565b92505050949350505050565b60045481565b600960009054906101000a900473ffffffffffffffffffffffffffffffffffffffff1681565b600360009054906101000a900473ffffffffffffffffffffffffffffffffffffffff1681565b60008054906101000a900473ffffffffffffffffffffffffffffffffffffffff1681565b670de0b6b3a764000081565b60007f01ffc9a7000000000000000000000000000000000000000000000000000000007bffffffffffffffffffffffffffffffffffffffffffffffffffffffff1916827bffffffffffffffffffffffffffffffffffffffffffffffffffffffff1916149050919050565b60007ff0c57e16840df040f15088dc2f81fe391c3923bec73e23a9662efc9c229c6a00905090565b611a46612d13565b565b611a50612d13565b611a58612d53565b565b611a6387611f98565b15611a9a576040517f1c8c425400000000000000000000000000000000000000000000000000000000815260040160405180910390fd5b611aa386611f98565b15611ada576040517fb1710af000000000000000000000000000000000000000000000000000000000815260040160405180910390fd5b611ae385611f98565b15611b1a576040517f3c77158e00000000000000000000000000000000000000000000000000000000815260040160405180910390fd5b611b2384611f98565b15611b5a576040517f926d717700000000000000000000000000000000000000000000000000000000815260040160405180910390fd5b611b6383611f98565b15611b9a576040517f466e460200000000000000000000000000000000000000000000000000000000815260040160405180910390fd5b611ba381611f98565b15611bda576040517fee2f6f2a00000000000000000000000000000000000000000000000000000000815260040160405180910390fd5b611be382611f98565b15611c1a576040517fadfdb05b00000000000000000000000000000000000000000000000000000000815260040160405180910390fd5b50505050505050565b611c3f81604001518260000151611c3a9190613b2d565b612d87565b1580611c645750611c6281606001518260200151611c5d9190613b2d565b612d87565b155b15611c9b576040517f470562b900000000000000000000000000000000000000000000000000000000815260040160405180910390fd5b50565b600080611ca9611de0565b9050611cb5848461100e565b611d9357600181600001600086815260200190815260200160002060000160008573ffffffffffffffffffffffffffffffffffffffff1673ffffffffffffffffffffffffffffffffffffffff16815260200190815260200160002060006101000a81548160ff021916908315150217905550611d2f611e1c565b73ffffffffffffffffffffffffffffffffffffffff168373ffffffffffffffffffffffffffffffffffffffff16857f2f8788117e7eff1d82e926ec794901d17c78024a50270940304540a733656f0d60405160405180910390a46001915050611d99565b60009150505b92915050565b611da7610f13565b15611dde576040517fd93c066500000000000000000000000000000000000000000000000000000000815260040160405180910390fd5b565b60007f02dd7bc7dec4dceedda775e58dd541e08a116c6c53815c0bd028192f7b626800905090565b611e1981611e14611e1c565b612d9b565b50565b600033905090565b600080611e2f611de0565b9050611e3b848461100e565b15611f1a57600081600001600086815260200190815260200160002060000160008573ffffffffffffffffffffffffffffffffffffffff1673ffffffffffffffffffffffffffffffffffffffff16815260200190815260200160002060006101000a81548160ff021916908315150217905550611eb6611e1c565b73ffffffffffffffffffffffffffffffffffffffff168373ffffffffffffffffffffffffffffffffffffffff16857ff6391f5c32d9c69d2a47ea670b442974b53935d1edc7fd64eb21e047a839171b60405160405180910390a46001915050611f20565b60009150505b92915050565b611f2e612dec565b6000611f386124a4565b905060008160000160006101000a81548160ff0219169083151502179055507f5db9ee0a495bf2e6ff9c91a7834c1ba4fdd244a5e8aa4e537bd38aeae4b073aa611f80611e1c565b604051611f8d919061370e565b60405180910390a150565b60008073ffffffffffffffffffffffffffffffffffffffff168273ffffffffffffffffffffffffffffffffffffffff16149050919050565b6000808773ffffffffffffffffffffffffffffffffffffffff166318160ddd6040518163ffffffff1660e01b8152600401602060405180830381865afa15801561201e573d6000803e3d6000fd5b505050506040513d601f19601f820116820180604052508101906120429190613a18565b90506000600360009054906101000a900473ffffffffffffffffffffffffffffffffffffffff1673ffffffffffffffffffffffffffffffffffffffff1663f7888aec8a60008054906101000a900473ffffffffffffffffffffffffffffffffffffffff166040518363ffffffff1660e01b81526004016120c3929190613b61565b6020604051808303816000875af11580156120e2573d6000803e3d6000fd5b505050506040513d601f19601f820116820180604052508101906121069190613a18565b90506000600160009054906101000a900473ffffffffffffffffffffffffffffffffffffffff1673ffffffffffffffffffffffffffffffffffffffff166349f9b0f78484888d6040518563ffffffff1660e01b815260040161216b9493929190613b8a565b602060405180830381865afa158015612188573d6000803e3d6000fd5b505050506040513d601f19601f820116820180604052508101906121ac9190613a18565b90506000806121ba83612e2c565b915091508181846121cb9190613bcf565b6121d59190613bcf565b955088861015612211576040517f13115b2900000000000000000000000000000000000000000000000000000000815260040160405180910390fd5b7f9e20e9cbfd51cdd34a2163a0435df07c7fde8cabc7ab4ca38448bd01d317b697888d8d60008054906101000a900473ffffffffffffffffffffffffffffffffffffffff168a8f60405161226a96959493929190613c03565b60405180910390a18b73ffffffffffffffffffffffffffffffffffffffff166379cc6790338d6040518363ffffffff1660e01b81526004016122ad929190613a45565b600060405180830381600087803b1580156122c757600080fd5b505af11580156122db573d6000803e3d6000fd5b50505050600360009054906101000a900473ffffffffffffffffffffffffffffffffffffffff1673ffffffffffffffffffffffffffffffffffffffff1663f18d03cc8d60008054906101000a900473ffffffffffffffffffffffffffffffffffffffff1630876040518563ffffffff1660e01b81526004016123609493929190613c64565b600060405180830381600087803b15801561237a57600080fd5b505af115801561238e573d6000803e3d6000fd5b505050506123dd888260008054906101000a900473ffffffffffffffffffffffffffffffffffffffff1673ffffffffffffffffffffffffffffffffffffffff16612e7a9092919063ffffffff16565b61244a600860009054906101000a900473ffffffffffffffffffffffffffffffffffffffff168360008054906101000a900473ffffffffffffffffffffffffffffffffffffffff1673ffffffffffffffffffffffffffffffffffffffff16612e7a9092919063ffffffff16565b6124958a8760008054906101000a900473ffffffffffffffffffffffffffffffffffffffff1673ffffffffffffffffffffffffffffffffffffffff16612e7a9092919063ffffffff16565b50505050509695505050505050565b60007fcd5ed15c6e187e77e9aee88184c21f4f2182ab5827cb3b7e07fbedcd63f03300905090565b80600860006101000a81548173ffffffffffffffffffffffffffffffffffffffff021916908373ffffffffffffffffffffffffffffffffffffffff1602179055507fe6131a64e93e9aa4ff38892c34d563c06dcc1e03b3d6897cc65f0903e2ad68488160405161253c919061370e565b60405180910390a150565b61254f611d9f565b60006125596124a4565b905060018160000160006101000a81548160ff0219169083151502179055507f62e78cea01bee320cd4e420270b5ea74000d11b0c9f74754ebdbfc544b05a2586125a1611e1c565b6040516125ae919061370e565b60405180910390a150565b836004819055508260058190555081600681905550806007819055507f5c3aee3d65f7eb02cded951435d06b06ef307bc7f57b98975c4a41dc116e711c6004546005546006546007546040516126129493929190613ca9565b60405180910390a150505050565b6000620f424063ffffffff168263ffffffff1611159050919050565b6126b8848573ffffffffffffffffffffffffffffffffffffffff166323b872dd86868660405160240161267193929190613ac7565b604051602081830303815290604052915060e01b6020820180517bffffffffffffffffffffffffffffffffffffffffffffffffffffffff8381831617835250505050612ef9565b50505050565b80600160006101000a81548173ffffffffffffffffffffffffffffffffffffffff021916908373ffffffffffffffffffffffffffffffffffffffff1602179055507f050a79a49cc1dc3aeeccd8636685ad0469db41a9bd51254a34fc1cf616693d418160405161272e919061370e565b60405180910390a150565b600061278833308860008054906101000a900473ffffffffffffffffffffffffffffffffffffffff1673ffffffffffffffffffffffffffffffffffffffff1661263c909392919063ffffffff16565b60008061279488612f90565b915091506127e3858260008054906101000a900473ffffffffffffffffffffffffffffffffffffffff1673ffffffffffffffffffffffffffffffffffffffff16612e7a9092919063ffffffff16565b612850600860009054906101000a900473ffffffffffffffffffffffffffffffffffffffff168360008054906101000a900473ffffffffffffffffffffffffffffffffffffffff1673ffffffffffffffffffffffffffffffffffffffff16612e7a9092919063ffffffff16565b600082828a61285f9190613bcf565b6128699190613bcf565b905060008054906101000a900473ffffffffffffffffffffffffffffffffffffffff1673ffffffffffffffffffffffffffffffffffffffff1663095ea7b3600360009054906101000a900473ffffffffffffffffffffffffffffffffffffffff16836040518363ffffffff1660e01b81526004016128e8929190613a45565b6020604051808303816000875af1158015612907573d6000803e3d6000fd5b505050506040513d601f19601f8201168201806040525081019061292b9190613a9a565b506000600360009054906101000a900473ffffffffffffffffffffffffffffffffffffffff1673ffffffffffffffffffffffffffffffffffffffff1663f7888aec8c60008054906101000a900473ffffffffffffffffffffffffffffffffffffffff166040518363ffffffff1660e01b81526004016129ab929190613b61565b6020604051808303816000875af11580156129ca573d6000803e3d6000fd5b505050506040513d601f19601f820116820180604052508101906129ee9190613a18565b905060008b73ffffffffffffffffffffffffffffffffffffffff166318160ddd6040518163ffffffff1660e01b8152600401602060405180830381865afa158015612a3d573d6000803e3d6000fd5b505050506040513d601f19601f82011682018060405250810190612a619190613a18565b9050600360009054906101000a900473ffffffffffffffffffffffffffffffffffffffff1673ffffffffffffffffffffffffffffffffffffffff16638340f5498d60008054906101000a900473ffffffffffffffffffffffffffffffffffffffff16866040518463ffffffff1660e01b8152600401612ae293929190613ac7565b600060405180830381600087803b158015612afc57600080fd5b505af1158015612b10573d6000803e3d6000fd5b50505050600160009054906101000a900473ffffffffffffffffffffffffffffffffffffffff1673ffffffffffffffffffffffffffffffffffffffff166329a00e7c82848a876040518563ffffffff1660e01b8152600401612b759493929190613b8a565b602060405180830381865afa158015612b92573d6000803e3d6000fd5b505050506040513d601f19601f82011682018060405250810190612bb69190613a18565b955088861015612bf2576040517f13115b2900000000000000000000000000000000000000000000000000000000815260040160405180910390fd5b612bfb8a611f98565b612ca357600260009054906101000a900473ffffffffffffffffffffffffffffffffffffffff1673ffffffffffffffffffffffffffffffffffffffff1663c6c3bbe6898c896040518463ffffffff1660e01b8152600401612c5e93929190613ac7565b6020604051808303816000875af1158015612c7d573d6000803e3d6000fd5b505050506040513d601f19601f82011682018060405250810190612ca19190613a9a565b505b7fab7844fa0fe8907c50c8c2011a6471669afa144bcbbfcf0a1f9d08f77065f0858860008054906101000a900473ffffffffffffffffffffffffffffffffffffffff168d8f8a8f604051612cfc96959493929190613c03565b60405180910390a150505050509695505050505050565b612d1b612fde565b612d51576040517fd7e6bcf800000000000000000000000000000000000000000000000000000000815260040160405180910390fd5b565b612d5b612d13565b6000612d656124a4565b905060008160000160006101000a81548160ff02191690831515021790555050565b6000670de0b6b3a764000082109050919050565b612da5828261100e565b612de85780826040517fe2517d3f000000000000000000000000000000000000000000000000000000008152600401612ddf929190613cee565b60405180910390fd5b5050565b612df4610f13565b612e2a576040517f8dfc202b00000000000000000000000000000000000000000000000000000000815260040160405180910390fd5b565b600080670de0b6b3a764000060055484612e469190613d17565b612e509190613d88565b9150670de0b6b3a764000060075484612e699190613d17565b612e739190613d88565b9050915091565b612ef4838473ffffffffffffffffffffffffffffffffffffffff1663a9059cbb8585604051602401612ead929190613a45565b604051602081830303815290604052915060e01b6020820180517bffffffffffffffffffffffffffffffffffffffffffffffffffffffff8381831617835250505050612ef9565b505050565b6000612f24828473ffffffffffffffffffffffffffffffffffffffff16612ffe90919063ffffffff16565b90506000815114158015612f49575080806020019051810190612f479190613a9a565b155b15612f8b57826040517f5274afe7000000000000000000000000000000000000000000000000000000008152600401612f82919061370e565b60405180910390fd5b505050565b600080670de0b6b3a764000060045484612faa9190613d17565b612fb49190613d88565b9150670de0b6b3a764000060065484612fcd9190613d17565b612fd79190613d88565b9050915091565b6000612fe8611a16565b60000160089054906101000a900460ff16905090565b606061300c83836000613014565b905092915050565b60608147101561305b57306040517fcd786059000000000000000000000000000000000000000000000000000000008152600401613052919061370e565b60405180910390fd5b6000808573ffffffffffffffffffffffffffffffffffffffff1684866040516130849190613e2a565b60006040518083038185875af1925050503d80600081146130c1576040519150601f19603f3d011682016040523d82523d6000602084013e6130c6565b606091505b50915091506130d68683836130e1565b925050509392505050565b6060826130f6576130f182613170565b613168565b6000825114801561311e575060008473ffffffffffffffffffffffffffffffffffffffff163b145b1561316057836040517f9996b315000000000000000000000000000000000000000000000000000000008152600401613157919061370e565b60405180910390fd5b819050613169565b5b9392505050565b6000815111156131835780518082602001fd5b6040517f1425ea4200000000000000000000000000000000000000000000000000000000815260040160405180910390fd5b6000604051905090565b600080fd5b60007fffffffff0000000000000000000000000000000000000000000000000000000082169050919050565b6131f9816131c4565b811461320457600080fd5b50565b600081359050613216816131f0565b92915050565b600060208284031215613232576132316131bf565b5b600061324084828501613207565b91505092915050565b60008115159050919050565b61325e81613249565b82525050565b60006020820190506132796000830184613255565b92915050565b600063ffffffff82169050919050565b6132988161327f565b82525050565b60006020820190506132b3600083018461328f565b92915050565b600073ffffffffffffffffffffffffffffffffffffffff82169050919050565b60006132e4826132b9565b9050919050565b6132f4816132d9565b81146132ff57600080fd5b50565b600081359050613311816132eb565b92915050565b600080fd5b6000601f19601f8301169050919050565b7f4e487b7100000000000000000000000000000000000000000000000000000000600052604160045260246000fd5b6133658261331c565b810181811067ffffffffffffffff821117156133845761338361332d565b5b80604052505050565b60006133976131b5565b90506133a3828261335c565b919050565b6000819050919050565b6133bb816133a8565b81146133c657600080fd5b50565b6000813590506133d8816133b2565b92915050565b6000608082840312156133f4576133f3613317565b5b6133fe608061338d565b9050600061340e848285016133c9565b6000830152506020613422848285016133c9565b6020830152506040613436848285016133c9565b604083015250606061344a848285016133c9565b60608301525092915050565b600080600080600080600080610160898b031215613477576134766131bf565b5b60006134858b828c01613302565b98505060206134968b828c01613302565b97505060406134a78b828c01613302565b96505060606134b88b828c01613302565b95505060806134c98b828c01613302565b94505060a06134da8b828c016133de565b9350506101206134ec8b828c01613302565b9250506101406134fe8b828c01613302565b9150509295985092959890939650565b6000819050919050565b6135218161350e565b82525050565b600060208201905061353c6000830184613518565b92915050565b60008060006060848603121561355b5761355a6131bf565b5b600061356986828701613302565b935050602061357a868287016133c9565b925050604061358b868287016133c9565b9150509250925092565b61359e816133a8565b82525050565b60006020820190506135b96000830184613595565b92915050565b6000602082840312156135d5576135d46131bf565b5b60006135e384828501613302565b91505092915050565b6135f58161350e565b811461360057600080fd5b50565b600081359050613612816135ec565b92915050565b60006020828403121561362e5761362d6131bf565b5b600061363c84828501613603565b91505092915050565b6000819050919050565b600061366a613665613660846132b9565b613645565b6132b9565b9050919050565b600061367c8261364f565b9050919050565b600061368e82613671565b9050919050565b61369e81613683565b82525050565b60006020820190506136b96000830184613695565b92915050565b600080604083850312156136d6576136d56131bf565b5b60006136e485828601613603565b92505060206136f585828601613302565b9150509250929050565b613708816132d9565b82525050565b600060208201905061372360008301846136ff565b92915050565b600061373482613671565b9050919050565b61374481613729565b82525050565b600060208201905061375f600083018461373b565b92915050565b6000806000806080858703121561377f5761377e6131bf565b5b600061378d87828801613302565b945050602061379e878288016133c9565b93505060406137af87828801613302565b92505060606137c0878288016133c9565b91505092959194509250565b6000608082840312156137e2576137e16131bf565b5b60006137f0848285016133de565b91505092915050565b6138028161327f565b811461380d57600080fd5b50565b60008135905061381f816137f9565b92915050565b6000806000806080858703121561383f5761383e6131bf565b5b600061384d87828801613302565b945050602061385e87828801613810565b935050604061386f878288016133c9565b9250506060613880878288016133c9565b91505092959194509250565b600061389782613671565b9050919050565b6138a78161388c565b82525050565b60006020820190506138c2600083018461389e565b92915050565b60006138d382613671565b9050919050565b6138e3816138c8565b82525050565b60006020820190506138fe60008301846138da565b92915050565b6000819050919050565b600067ffffffffffffffff82169050919050565b600061393d61393861393384613904565b613645565b61390e565b9050919050565b61394d81613922565b82525050565b60006020820190506139686000830184613944565b92915050565b60008151905061397d816132eb565b92915050565b600060208284031215613999576139986131bf565b5b60006139a78482850161396e565b91505092915050565b600060a0820190506139c560008301886136ff565b6139d260208301876136ff565b6139df6040830186613595565b6139ec6060830185613595565b6139f9608083018461328f565b9695505050505050565b600081519050613a12816133b2565b92915050565b600060208284031215613a2e57613a2d6131bf565b5b6000613a3c84828501613a03565b91505092915050565b6000604082019050613a5a60008301856136ff565b613a676020830184613595565b9392505050565b613a7781613249565b8114613a8257600080fd5b50565b600081519050613a9481613a6e565b92915050565b600060208284031215613ab057613aaf6131bf565b5b6000613abe84828501613a85565b91505092915050565b6000606082019050613adc60008301866136ff565b613ae960208301856136ff565b613af66040830184613595565b949350505050565b7f4e487b7100000000000000000000000000000000000000000000000000000000600052601160045260246000fd5b6000613b38826133a8565b9150613b43836133a8565b9250828201905080821115613b5b57613b5a613afe565b5b92915050565b6000604082019050613b7660008301856136ff565b613b8360208301846136ff565b9392505050565b6000608082019050613b9f6000830187613595565b613bac6020830186613595565b613bb9604083018561328f565b613bc66060830184613595565b95945050505050565b6000613bda826133a8565b9150613be5836133a8565b9250828203905081811115613bfd57613bfc613afe565b5b92915050565b600060c082019050613c1860008301896136ff565b613c2560208301886136ff565b613c326040830187613595565b613c3f60608301866136ff565b613c4c6080830185613595565b613c5960a08301846136ff565b979650505050505050565b6000608082019050613c7960008301876136ff565b613c8660208301866136ff565b613c9360408301856136ff565b613ca06060830184613595565b95945050505050565b6000608082019050613cbe6000830187613595565b613ccb6020830186613595565b613cd86040830185613595565b613ce56060830184613595565b95945050505050565b6000604082019050613d0360008301856136ff565b613d106020830184613518565b9392505050565b6000613d22826133a8565b9150613d2d836133a8565b9250828202613d3b816133a8565b91508282048414831517613d5257613d51613afe565b5b5092915050565b7f4e487b7100000000000000000000000000000000000000000000000000000000600052601260045260246000fd5b6000613d93826133a8565b9150613d9e836133a8565b925082613dae57613dad613d59565b5b828204905092915050565b600081519050919050565b600081905092915050565b60005b83811015613ded578082015181840152602081019050613dd2565b60008484015250505050565b6000613e0482613db9565b613e0e8185613dc4565b9350613e1e818560208601613dcf565b80840191505092915050565b6000613e368284613df9565b91508190509291505056fea264697066735822122036fea040bf8a5ff60f7320fd8244313a3d5b985be627b9c87f6c6adc6f086f0c64736f6c63430008180033",
  "linkReferences": {},
  "deployedLinkReferences": {}
}