{
  "_format": "hh-sol-artifact-1",
  "contractName": "MoxieBondingCurveV2",
  "sourceName": "contracts/MoxieBondingCurveV2.sol",
  "abi": [
    {
      "inputs": [],
      "name": "AccessControlBadConfirmation",
      "type": "error"
    },
    {
      "inputs": [
        {
          "internalType": "address",
          "name": "account",
          "type": "address"
        },
        {
          "internalType": "bytes32",
          "name": "neededRole",
          "type": "bytes32"
        }
      ],
      "name": "AccessControlUnauthorizedAccount",
      "type": "error"
    },
    {
      "inputs": [
        {
          "internalType": "address",
          "name": "target",
          "type": "address"
        }
      ],
      "name": "AddressEmptyCode",
      "type": "error"
    },
    {
      "inputs": [
        {
          "internalType": "address",
          "name": "account",
          "type": "address"
        }
      ],
      "name": "AddressInsufficientBalance",
      "type": "error"
    },
    {
      "inputs": [],
      "name": "EnforcedPause",
      "type": "error"
    },
    {
      "inputs": [],
      "name": "ExpectedPause",
      "type": "error"
    },
    {
      "inputs": [],
      "name": "FailedInnerCall",
      "type": "error"
    },
    {
      "inputs": [],
      "name": "InvalidInitialization",
      "type": "error"
    },
    {
      "inputs": [],
      "name": "MoxieBondingCurve_InvalidBeneficiary",
      "type": "error"
    },
    {
      "inputs": [],
      "name": "MoxieBondingCurve_InvalidDepositAmount",
      "type": "error"
    },
    {
      "inputs": [],
      "name": "MoxieBondingCurve_InvalidFeePercentage",
      "type": "error"
    },
    {
      "inputs": [],
      "name": "MoxieBondingCurve_InvalidFormula",
      "type": "error"
    },
    {
      "inputs": [],
      "name": "MoxieBondingCurve_InvalidOwner",
      "type": "error"
    },
    {
      "inputs": [],
      "name": "MoxieBondingCurve_InvalidReserveRation",
      "type": "error"
    },
    {
      "inputs": [],
      "name": "MoxieBondingCurve_InvalidSellAmount",
      "type": "error"
    },
    {
      "inputs": [],
      "name": "MoxieBondingCurve_InvalidSubject",
      "type": "error"
    },
    {
      "inputs": [],
      "name": "MoxieBondingCurve_InvalidSubjectFactory",
      "type": "error"
    },
    {
      "inputs": [],
      "name": "MoxieBondingCurve_InvalidSubjectSupply",
      "type": "error"
    },
    {
      "inputs": [],
      "name": "MoxieBondingCurve_InvalidSubjectToken",
      "type": "error"
    },
    {
      "inputs": [],
      "name": "MoxieBondingCurve_InvalidToken",
      "type": "error"
    },
    {
      "inputs": [],
      "name": "MoxieBondingCurve_InvalidTokenManager",
      "type": "error"
    },
    {
      "inputs": [],
      "name": "MoxieBondingCurve_InvalidVault",
      "type": "error"
    },
    {
      "inputs": [],
      "name": "MoxieBondingCurve_OnlySubjectFactory",
      "type": "error"
    },
    {
      "inputs": [],
      "name": "MoxieBondingCurve_SlippageExceedsLimit",
      "type": "error"
    },
    {
      "inputs": [],
      "name": "MoxieBondingCurve_SubjectAlreadyInitialized",
      "type": "error"
    },
    {
      "inputs": [],
      "name": "MoxieBondingCurve_SubjectNotInitialized",
      "type": "error"
    },
    {
      "inputs": [],
      "name": "NotInitializing",
      "type": "error"
    },
    {
      "inputs": [
        {
          "internalType": "address",
          "name": "token",
          "type": "address"
        }
      ],
      "name": "SafeERC20FailedOperation",
      "type": "error"
    },
    {
      "anonymous": false,
      "inputs": [
        {
          "indexed": false,
          "internalType": "address",
          "name": "_subject",
          "type": "address"
        },
        {
          "indexed": false,
          "internalType": "address",
          "name": "_subjectToken",
          "type": "address"
        },
        {
          "indexed": false,
          "internalType": "uint256",
          "name": "_initialSupply",
          "type": "uint256"
        },
        {
          "indexed": false,
          "internalType": "uint256",
          "name": "_reserve",
          "type": "uint256"
        },
        {
          "indexed": false,
          "internalType": "uint32",
          "name": "_reserveRatio",
          "type": "uint32"
        }
      ],
      "name": "BondingCurveInitialized",
      "type": "event"
    },
    {
      "anonymous": false,
      "inputs": [
        {
          "indexed": false,
          "internalType": "uint64",
          "name": "version",
          "type": "uint64"
        }
      ],
      "name": "Initialized",
      "type": "event"
    },
    {
      "anonymous": false,
      "inputs": [
        {
          "indexed": false,
          "internalType": "address",
          "name": "account",
          "type": "address"
        }
      ],
      "name": "Paused",
      "type": "event"
    },
    {
      "anonymous": false,
      "inputs": [
        {
          "indexed": true,
          "internalType": "bytes32",
          "name": "role",
          "type": "bytes32"
        },
        {
          "indexed": true,
          "internalType": "bytes32",
          "name": "previousAdminRole",
          "type": "bytes32"
        },
        {
          "indexed": true,
          "internalType": "bytes32",
          "name": "newAdminRole",
          "type": "bytes32"
        }
      ],
      "name": "RoleAdminChanged",
      "type": "event"
    },
    {
      "anonymous": false,
      "inputs": [
        {
          "indexed": true,
          "internalType": "bytes32",
          "name": "role",
          "type": "bytes32"
        },
        {
          "indexed": true,
          "internalType": "address",
          "name": "account",
          "type": "address"
        },
        {
          "indexed": true,
          "internalType": "address",
          "name": "sender",
          "type": "address"
        }
      ],
      "name": "RoleGranted",
      "type": "event"
    },
    {
      "anonymous": false,
      "inputs": [
        {
          "indexed": true,
          "internalType": "bytes32",
          "name": "role",
          "type": "bytes32"
        },
        {
          "indexed": true,
          "internalType": "address",
          "name": "account",
          "type": "address"
        },
        {
          "indexed": true,
          "internalType": "address",
          "name": "sender",
          "type": "address"
        }
      ],
      "name": "RoleRevoked",
      "type": "event"
    },
    {
      "anonymous": false,
      "inputs": [
        {
          "indexed": false,
          "internalType": "address",
          "name": "_subject",
          "type": "address"
        },
        {
          "indexed": false,
          "internalType": "address",
          "name": "_sellToken",
          "type": "address"
        },
        {
          "indexed": false,
          "internalType": "uint256",
          "name": "_sellAmount",
          "type": "uint256"
        },
        {
          "indexed": false,
          "internalType": "address",
          "name": "_buyToken",
          "type": "address"
        },
        {
          "indexed": false,
          "internalType": "uint256",
          "name": "_buyAmount",
          "type": "uint256"
        },
        {
          "indexed": false,
          "internalType": "address",
          "name": "_beneficiary",
          "type": "address"
        }
      ],
      "name": "SubjectSharePurchased",
      "type": "event"
    },
    {
      "anonymous": false,
      "inputs": [
        {
          "indexed": false,
          "internalType": "address",
          "name": "_subject",
          "type": "address"
        },
        {
          "indexed": false,
          "internalType": "address",
          "name": "_sellToken",
          "type": "address"
        },
        {
          "indexed": false,
          "internalType": "uint256",
          "name": "_sellAmount",
          "type": "uint256"
        },
        {
          "indexed": false,
          "internalType": "address",
          "name": "_buyToken",
          "type": "address"
        },
        {
          "indexed": false,
          "internalType": "uint256",
          "name": "_buyAmount",
          "type": "uint256"
        },
        {
          "indexed": false,
          "internalType": "address",
          "name": "_beneficiary",
          "type": "address"
        }
      ],
      "name": "SubjectShareSold",
      "type": "event"
    },
    {
      "anonymous": false,
      "inputs": [
        {
          "indexed": false,
          "internalType": "address",
          "name": "account",
          "type": "address"
        }
      ],
      "name": "Unpaused",
      "type": "event"
    },
    {
      "anonymous": false,
      "inputs": [
        {
          "indexed": false,
          "internalType": "address",
          "name": "_beneficiary",
          "type": "address"
        }
      ],
      "name": "UpdateBeneficiary",
      "type": "event"
    },
    {
      "anonymous": false,
      "inputs": [
        {
          "indexed": false,
          "internalType": "uint256",
          "name": "_protocolBuyFeePct",
          "type": "uint256"
        },
        {
          "indexed": false,
          "internalType": "uint256",
          "name": "_protocolSellFeePct",
          "type": "uint256"
        },
        {
          "indexed": false,
          "internalType": "uint256",
          "name": "_subjectBuyFeePct",
          "type": "uint256"
        },
        {
          "indexed": false,
          "internalType": "uint256",
          "name": "_subjectSellFeePct",
          "type": "uint256"
        }
      ],
      "name": "UpdateFees",
      "type": "event"
    },
    {
      "anonymous": false,
      "inputs": [
        {
          "indexed": false,
          "internalType": "address",
          "name": "_formula",
          "type": "address"
        }
      ],
      "name": "UpdateFormula",
      "type": "event"
    },
    {
      "inputs": [],
      "name": "DEFAULT_ADMIN_ROLE",
      "outputs": [
        {
          "internalType": "bytes32",
          "name": "",
          "type": "bytes32"
        }
      ],
      "stateMutability": "view",
      "type": "function"
    },
    {
      "inputs": [],
      "name": "PAUSE_ROLE",
      "outputs": [
        {
          "internalType": "bytes32",
          "name": "",
          "type": "bytes32"
        }
      ],
      "stateMutability": "view",
      "type": "function"
    },
    {
      "inputs": [],
      "name": "PCT_BASE",
      "outputs": [
        {
          "internalType": "uint256",
          "name": "",
          "type": "uint256"
        }
      ],
      "stateMutability": "view",
      "type": "function"
    },
    {
      "inputs": [],
      "name": "PPM",
      "outputs": [
        {
          "internalType": "uint32",
          "name": "",
          "type": "uint32"
        }
      ],
      "stateMutability": "view",
      "type": "function"
    },
    {
      "inputs": [],
      "name": "UPDATE_BENEFICIARY_ROLE",
      "outputs": [
        {
          "internalType": "bytes32",
          "name": "",
          "type": "bytes32"
        }
      ],
      "stateMutability": "view",
      "type": "function"
    },
    {
      "inputs": [],
      "name": "UPDATE_FEES_ROLE",
      "outputs": [
        {
          "internalType": "bytes32",
          "name": "",
          "type": "bytes32"
        }
      ],
      "stateMutability": "view",
      "type": "function"
    },
    {
      "inputs": [],
      "name": "UPDATE_FORMULA_ROLE",
      "outputs": [
        {
          "internalType": "bytes32",
          "name": "",
          "type": "bytes32"
        }
      ],
      "stateMutability": "view",
      "type": "function"
    },
    {
      "inputs": [
        {
          "internalType": "address",
          "name": "_subject",
          "type": "address"
        },
        {
          "internalType": "uint256",
          "name": "_depositAmount",
          "type": "uint256"
        },
        {
          "internalType": "uint256",
          "name": "_minReturnAmountAfterFee",
          "type": "uint256"
        }
      ],
      "name": "buyShares",
      "outputs": [
        {
          "internalType": "uint256",
          "name": "shares_",
          "type": "uint256"
        }
      ],
      "stateMutability": "nonpayable",
      "type": "function"
    },
    {
      "inputs": [
        {
          "internalType": "address",
          "name": "_subject",
          "type": "address"
        },
        {
          "internalType": "uint256",
          "name": "_depositAmount",
          "type": "uint256"
        },
        {
          "internalType": "address",
          "name": "_onBehalfOf",
          "type": "address"
        },
        {
          "internalType": "uint256",
          "name": "_minReturnAmountAfterFee",
          "type": "uint256"
        }
      ],
      "name": "buySharesFor",
      "outputs": [
        {
          "internalType": "uint256",
          "name": "shares_",
          "type": "uint256"
        }
      ],
      "stateMutability": "nonpayable",
      "type": "function"
    },
    {
      "inputs": [],
      "name": "feeBeneficiary",
      "outputs": [
        {
          "internalType": "address",
          "name": "",
          "type": "address"
        }
      ],
      "stateMutability": "view",
      "type": "function"
    },
    {
      "inputs": [],
      "name": "formula",
      "outputs": [
        {
          "internalType": "contract IBancorFormula",
          "name": "",
          "type": "address"
        }
      ],
      "stateMutability": "view",
      "type": "function"
    },
    {
      "inputs": [
        {
          "internalType": "bytes32",
          "name": "role",
          "type": "bytes32"
        }
      ],
      "name": "getRoleAdmin",
      "outputs": [
        {
          "internalType": "bytes32",
          "name": "",
          "type": "bytes32"
        }
      ],
      "stateMutability": "view",
      "type": "function"
    },
    {
      "inputs": [
        {
          "internalType": "bytes32",
          "name": "role",
          "type": "bytes32"
        },
        {
          "internalType": "address",
          "name": "account",
          "type": "address"
        }
      ],
      "name": "grantRole",
      "outputs": [],
      "stateMutability": "nonpayable",
      "type": "function"
    },
    {
      "inputs": [
        {
          "internalType": "bytes32",
          "name": "role",
          "type": "bytes32"
        },
        {
          "internalType": "address",
          "name": "account",
          "type": "address"
        }
      ],
      "name": "hasRole",
      "outputs": [
        {
          "internalType": "bool",
          "name": "",
          "type": "bool"
        }
      ],
      "stateMutability": "view",
      "type": "function"
    },
    {
      "inputs": [
        {
          "internalType": "address",
          "name": "_token",
          "type": "address"
        },
        {
          "internalType": "address",
          "name": "_formula",
          "type": "address"
        },
        {
          "internalType": "address",
          "name": "_owner",
          "type": "address"
        },
        {
          "internalType": "address",
          "name": "_tokenManager",
          "type": "address"
        },
        {
          "internalType": "address",
          "name": "_vault",
          "type": "address"
        },
        {
          "components": [
            {
              "internalType": "uint256",
              "name": "protocolBuyFeePct",
              "type": "uint256"
            },
            {
              "internalType": "uint256",
              "name": "protocolSellFeePct",
              "type": "uint256"
            },
            {
              "internalType": "uint256",
              "name": "subjectBuyFeePct",
              "type": "uint256"
            },
            {
              "internalType": "uint256",
              "name": "subjectSellFeePct",
              "type": "uint256"
            }
          ],
          "internalType": "struct IMoxieBondingCurve.FeeInput",
          "name": "_feeInput",
          "type": "tuple"
        },
        {
          "internalType": "address",
          "name": "_feeBeneficiary",
          "type": "address"
        },
        {
          "internalType": "address",
          "name": "_subjectFactory",
          "type": "address"
        }
      ],
      "name": "initialize",
      "outputs": [],
      "stateMutability": "nonpayable",
      "type": "function"
    },
    {
      "inputs": [
        {
          "internalType": "address",
          "name": "_subject",
          "type": "address"
        },
        {
          "internalType": "uint32",
          "name": "_reserveRatio",
          "type": "uint32"
        },
        {
          "internalType": "uint256",
          "name": "_initialSupply",
          "type": "uint256"
        },
        {
          "internalType": "uint256",
          "name": "_reserveAmount",
          "type": "uint256"
        }
      ],
      "name": "initializeSubjectBondingCurve",
      "outputs": [
        {
          "internalType": "bool",
          "name": "",
          "type": "bool"
        }
      ],
      "stateMutability": "nonpayable",
      "type": "function"
    },
    {
      "inputs": [],
      "name": "pause",
      "outputs": [],
      "stateMutability": "nonpayable",
      "type": "function"
    },
    {
      "inputs": [],
      "name": "paused",
      "outputs": [
        {
          "internalType": "bool",
          "name": "",
          "type": "bool"
        }
      ],
      "stateMutability": "view",
      "type": "function"
    },
    {
      "inputs": [],
      "name": "protocolBuyFeePct",
      "outputs": [
        {
          "internalType": "uint256",
          "name": "",
          "type": "uint256"
        }
      ],
      "stateMutability": "view",
      "type": "function"
    },
    {
      "inputs": [],
      "name": "protocolSellFeePct",
      "outputs": [
        {
          "internalType": "uint256",
          "name": "",
          "type": "uint256"
        }
      ],
      "stateMutability": "view",
      "type": "function"
    },
    {
      "inputs": [
        {
          "internalType": "bytes32",
          "name": "role",
          "type": "bytes32"
        },
        {
          "internalType": "address",
          "name": "callerConfirmation",
          "type": "address"
        }
      ],
      "name": "renounceRole",
      "outputs": [],
      "stateMutability": "nonpayable",
      "type": "function"
    },
    {
      "inputs": [
        {
          "internalType": "address",
          "name": "subject",
          "type": "address"
        }
      ],
      "name": "reserveRatio",
      "outputs": [
        {
          "internalType": "uint32",
          "name": "_reserveRatio",
          "type": "uint32"
        }
      ],
      "stateMutability": "view",
      "type": "function"
    },
    {
      "inputs": [
        {
          "internalType": "bytes32",
          "name": "role",
          "type": "bytes32"
        },
        {
          "internalType": "address",
          "name": "account",
          "type": "address"
        }
      ],
      "name": "revokeRole",
      "outputs": [],
      "stateMutability": "nonpayable",
      "type": "function"
    },
    {
      "inputs": [
        {
          "internalType": "address",
          "name": "_subject",
          "type": "address"
        },
        {
          "internalType": "uint256",
          "name": "_sellAmount",
          "type": "uint256"
        },
        {
          "internalType": "uint256",
          "name": "_minReturnAmountAfterFee",
          "type": "uint256"
        }
      ],
      "name": "sellShares",
      "outputs": [
        {
          "internalType": "uint256",
          "name": "returnAmount_",
          "type": "uint256"
        }
      ],
      "stateMutability": "nonpayable",
      "type": "function"
    },
    {
      "inputs": [
        {
          "internalType": "address",
          "name": "_subject",
          "type": "address"
        },
        {
          "internalType": "uint256",
          "name": "_sellAmount",
          "type": "uint256"
        },
        {
          "internalType": "address",
          "name": "_onBehalfOf",
          "type": "address"
        },
        {
          "internalType": "uint256",
          "name": "_minReturnAmountAfterFee",
          "type": "uint256"
        }
      ],
      "name": "sellSharesFor",
      "outputs": [
        {
          "internalType": "uint256",
          "name": "returnAmount_",
          "type": "uint256"
        }
      ],
      "stateMutability": "nonpayable",
      "type": "function"
    },
    {
      "inputs": [],
      "name": "subjectBuyFeePct",
      "outputs": [
        {
          "internalType": "uint256",
          "name": "",
          "type": "uint256"
        }
      ],
      "stateMutability": "view",
      "type": "function"
    },
    {
      "inputs": [],
      "name": "subjectFactory",
      "outputs": [
        {
          "internalType": "address",
          "name": "",
          "type": "address"
        }
      ],
      "stateMutability": "view",
      "type": "function"
    },
    {
      "inputs": [],
      "name": "subjectSellFeePct",
      "outputs": [
        {
          "internalType": "uint256",
          "name": "",
          "type": "uint256"
        }
      ],
      "stateMutability": "view",
      "type": "function"
    },
    {
      "inputs": [
        {
          "internalType": "bytes4",
          "name": "interfaceId",
          "type": "bytes4"
        }
      ],
      "name": "supportsInterface",
      "outputs": [
        {
          "internalType": "bool",
          "name": "",
          "type": "bool"
        }
      ],
      "stateMutability": "view",
      "type": "function"
    },
    {
      "inputs": [],
      "name": "token",
      "outputs": [
        {
          "internalType": "contract IERC20Extended",
          "name": "",
          "type": "address"
        }
      ],
      "stateMutability": "view",
      "type": "function"
    },
    {
      "inputs": [],
      "name": "tokenManager",
      "outputs": [
        {
          "internalType": "contract ITokenManager",
          "name": "",
          "type": "address"
        }
      ],
      "stateMutability": "view",
      "type": "function"
    },
    {
      "inputs": [],
      "name": "unpause",
      "outputs": [],
      "stateMutability": "nonpayable",
      "type": "function"
    },
    {
      "inputs": [
        {
          "internalType": "address",
          "name": "_feeBeneficiary",
          "type": "address"
        }
      ],
      "name": "updateFeeBeneficiary",
      "outputs": [],
      "stateMutability": "nonpayable",
      "type": "function"
    },
    {
      "inputs": [
        {
          "components": [
            {
              "internalType": "uint256",
              "name": "protocolBuyFeePct",
              "type": "uint256"
            },
            {
              "internalType": "uint256",
              "name": "protocolSellFeePct",
              "type": "uint256"
            },
            {
              "internalType": "uint256",
              "name": "subjectBuyFeePct",
              "type": "uint256"
            },
            {
              "internalType": "uint256",
              "name": "subjectSellFeePct",
              "type": "uint256"
            }
          ],
          "internalType": "struct IMoxieBondingCurve.FeeInput",
          "name": "_feeInput",
          "type": "tuple"
        }
      ],
      "name": "updateFees",
      "outputs": [],
      "stateMutability": "nonpayable",
      "type": "function"
    },
    {
      "inputs": [
        {
          "internalType": "address",
          "name": "_formula",
          "type": "address"
        }
      ],
      "name": "updateFormula",
      "outputs": [],
      "stateMutability": "nonpayable",
      "type": "function"
    },
    {
      "inputs": [],
      "name": "vault",
      "outputs": [
        {
          "internalType": "contract IVault",
          "name": "",
          "type": "address"
        }
      ],
      "stateMutability": "view",
      "type": "function"
    },
    {
      "inputs": [],
      "name": "version",
      "outputs": [
        {
          "internalType": "uint256",
          "name": "",
          "type": "uint256"
        }
      ],
      "stateMutability": "view",
      "type": "function"
    }
  ],
  "bytecode": "0x608060405234801561001057600080fd5b50613edd806100206000396000f3fe608060405234801561001057600080fd5b50600436106102275760003560e01c80635b933ee611610130578063a217fddf116100b8578063dbf495611161007c578063dbf4956114610658578063e7af32ba14610676578063fbfa77cf14610694578063fc0c546a146106b2578063fc157cb4146106d057610227565b8063a217fddf146105a2578063ba6da001146105c0578063d547741f146105f0578063d5b49a711461060c578063d8690fea1461062857610227565b80638456cb59116100ff5780638456cb591461051057806389d6d0de1461051a57806391d1485414610538578063951ef92d1461056857806398a9c92b1461058657610227565b80635b933ee61461049a5780635c975abb146104b857806360e14b60146104d65780636c572893146104f457610227565b806336568abe116101b357806341644f8c1161018257806341644f8c146103f2578063492fb343146104105780634b75f54f1461042e57806354fd4d501461044c57806357f6508b1461046a57610227565b806336568abe1461037e578063389ed2671461039a57806339952b88146103b85780633f4ba83a146103e857610227565b806317f69222116101fa57806317f69222146102b457806324234532146102e4578063248a9ca3146103145780632a709b14146103445780632f2ff15d1461036257610227565b806301ffc9a71461022c5780630d720bbc1461025c5780630e6c7a661461027a5780630e85d27714610296575b600080fd5b61024660048036038101906102419190613282565b6106ee565b60405161025391906132ca565b60405180910390f35b610264610768565b6040516102719190613304565b60405180910390f35b610294600480360381019061028f91906134bc565b61076f565b005b61029e610ae3565b6040516102ab919061358d565b60405180910390f35b6102ce60048036038101906102c991906135a8565b610b07565b6040516102db919061360a565b60405180910390f35b6102fe60048036038101906102f99190613625565b610b26565b60405161030b9190613304565b60405180910390f35b61032e6004803603810190610329919061367e565b610b49565b60405161033b919061358d565b60405180910390f35b61034c610b77565b604051610359919061370a565b60405180910390f35b61037c60048036038101906103779190613725565b610b9d565b005b61039860048036038101906103939190613725565b610bbf565b005b6103a2610c3a565b6040516103af919061358d565b60405180910390f35b6103d260048036038101906103cd91906135a8565b610c5e565b6040516103df919061360a565b60405180910390f35b6103f0610c7d565b005b6103fa610cb2565b604051610407919061358d565b60405180910390f35b610418610cd6565b6040516104259190613774565b60405180910390f35b610436610cfc565b60405161044391906137b0565b60405180910390f35b610454610d22565b604051610461919061360a565b60405180910390f35b610484600480360381019061047f91906137cb565b610d27565b604051610491919061360a565b60405180910390f35b6104a2610d47565b6040516104af919061360a565b60405180910390f35b6104c0610d4d565b6040516104cd91906132ca565b60405180910390f35b6104de610d72565b6040516104eb919061358d565b60405180910390f35b61050e60048036038101906105099190613625565b610d96565b005b610518610e0d565b005b610522610e42565b60405161052f919061360a565b60405180910390f35b610552600480360381019061054d9190613725565b610e48565b60405161055f91906132ca565b60405180910390f35b610570610ec1565b60405161057d919061360a565b60405180910390f35b6105a0600480360381019061059b9190613832565b610ec7565b005b6105aa610f1a565b6040516105b7919061358d565b60405180910390f35b6105da60048036038101906105d5919061388b565b610f21565b6040516105e791906132ca565b60405180910390f35b61060a60048036038101906106059190613725565b6114b8565b005b61062660048036038101906106219190613625565b6114da565b005b610642600480360381019061063d91906137cb565b611551565b60405161064f919061360a565b60405180910390f35b610660611571565b60405161066d919061360a565b60405180910390f35b61067e611577565b60405161068b9190613774565b60405180910390f35b61069c61159d565b6040516106a99190613913565b60405180910390f35b6106ba6115c3565b6040516106c7919061394f565b60405180910390f35b6106d86115e7565b6040516106e5919061360a565b60405180910390f35b60007f7965db0b000000000000000000000000000000000000000000000000000000007bffffffffffffffffffffffffffffffffffffffffffffffffffffffff1916827bffffffffffffffffffffffffffffffffffffffffffffffffffffffff191614806107615750610760826115f3565b5b9050919050565b620f424081565b600061077961165d565b905060008160000160089054906101000a900460ff1615905060008260000160009054906101000a900467ffffffffffffffff1690506000808267ffffffffffffffff161480156107c75750825b9050600060018367ffffffffffffffff161480156107fc575060003073ffffffffffffffffffffffffffffffffffffffff163b145b90508115801561080a575080155b15610841576040517ff92ee8a900000000000000000000000000000000000000000000000000000000815260040160405180910390fd5b60018560000160006101000a81548167ffffffffffffffff021916908367ffffffffffffffff16021790555083156108915760018560000160086101000a81548160ff0219169083151502179055505b610899611685565b6108a161168f565b6108b08d8d8d8d8d8c8c6116a1565b6108b98861186a565b8c6000806101000a81548173ffffffffffffffffffffffffffffffffffffffff021916908373ffffffffffffffffffffffffffffffffffffffff1602179055508b600160006101000a81548173ffffffffffffffffffffffffffffffffffffffff021916908373ffffffffffffffffffffffffffffffffffffffff16021790555089600260006101000a81548173ffffffffffffffffffffffffffffffffffffffff021916908373ffffffffffffffffffffffffffffffffffffffff16021790555088600360006101000a81548173ffffffffffffffffffffffffffffffffffffffff021916908373ffffffffffffffffffffffffffffffffffffffff160217905550876000015160048190555087602001516005819055508760400151600681905550876060015160078190555086600860006101000a81548173ffffffffffffffffffffffffffffffffffffffff021916908373ffffffffffffffffffffffffffffffffffffffff16021790555085600960006101000a81548173ffffffffffffffffffffffffffffffffffffffff021916908373ffffffffffffffffffffffffffffffffffffffff160217905550610a776000801b8c6118e5565b508315610ad45760008560000160086101000a81548160ff0219169083151502179055507fc7f505b2f371ae2175ee4913f4499e1f2633a7b5936321eed1cdaeb6115181d26001604051610acb91906139b9565b60405180910390a15b50505050505050505050505050565b7fbfb76d8d43f55efe58544ea32af187792a7bdb983850d8fed33478266eec3cbb81565b6000610b116119e6565b610b1d84843385611a27565b90509392505050565b600a6020528060005260406000206000915054906101000a900463ffffffff1681565b600080610b54611c32565b905080600001600084815260200190815260200160002060010154915050919050565b600260009054906101000a900473ffffffffffffffffffffffffffffffffffffffff1681565b610ba682610b49565b610baf81611c5a565b610bb983836118e5565b50505050565b610bc7611c6e565b73ffffffffffffffffffffffffffffffffffffffff168173ffffffffffffffffffffffffffffffffffffffff1614610c2b576040517f6697b23200000000000000000000000000000000000000000000000000000000815260040160405180910390fd5b610c358282611c76565b505050565b7f139c2898040ef16910dc9f44dc697df79363da767d8bc92f2e310312b816e46d81565b6000610c686119e6565b610c7484843385611d78565b90509392505050565b7f139c2898040ef16910dc9f44dc697df79363da767d8bc92f2e310312b816e46d610ca781611c5a565b610caf611f8c565b50565b7ff7ea2b80c7b6a2cab2c11d2290cb005c3748397358a25e17113658c83b73259381565b600860009054906101000a900473ffffffffffffffffffffffffffffffffffffffff1681565b600160009054906101000a900473ffffffffffffffffffffffffffffffffffffffff1681565b600281565b6000610d316119e6565b610d3d85858585611d78565b9050949350505050565b60075481565b600080610d58611ffe565b90508060000160009054906101000a900460ff1691505090565b7f5f9be2932ed3a723f295a763be1804c7ebfd1a41c1348fb8bdf5be1c5cdca82281565b7ff7ea2b80c7b6a2cab2c11d2290cb005c3748397358a25e17113658c83b732593610dc081611c5a565b610dc982612026565b15610e00576040517fadfdb05b00000000000000000000000000000000000000000000000000000000815260040160405180910390fd5b610e098261205e565b5050565b7f139c2898040ef16910dc9f44dc697df79363da767d8bc92f2e310312b816e46d610e3781611c5a565b610e3f6120d9565b50565b60055481565b600080610e53611c32565b905080600001600085815260200190815260200160002060000160008473ffffffffffffffffffffffffffffffffffffffff1673ffffffffffffffffffffffffffffffffffffffff16815260200190815260200160002060009054906101000a900460ff1691505092915050565b60065481565b7f5f9be2932ed3a723f295a763be1804c7ebfd1a41c1348fb8bdf5be1c5cdca822610ef181611c5a565b610efa8261186a565b610f16826000015183602001518460400151856060015161214b565b5050565b6000801b81565b6000610f2b6119e6565b610f3485612026565b15610f6b576040517fa7ef168800000000000000000000000000000000000000000000000000000000815260040160405180910390fd5b600960009054906101000a900473ffffffffffffffffffffffffffffffffffffffff1673ffffffffffffffffffffffffffffffffffffffff163373ffffffffffffffffffffffffffffffffffffffff1614610ff2576040517f6802704600000000000000000000000000000000000000000000000000000000815260040160405180910390fd5b610ffb846121b2565b611031576040517f39a1d18100000000000000000000000000000000000000000000000000000000815260040160405180910390fd5b6000600a60008773ffffffffffffffffffffffffffffffffffffffff1673ffffffffffffffffffffffffffffffffffffffff16815260200190815260200160002060009054906101000a900463ffffffff1663ffffffff16146110c0576040517f86d5f90700000000000000000000000000000000000000000000000000000000815260040160405180910390fd5b83600a60008773ffffffffffffffffffffffffffffffffffffffff1673ffffffffffffffffffffffffffffffffffffffff16815260200190815260200160002060006101000a81548163ffffffff021916908363ffffffff1602179055506000600260009054906101000a900473ffffffffffffffffffffffffffffffffffffffff1673ffffffffffffffffffffffffffffffffffffffff1663e4860339876040518263ffffffff1660e01b815260040161117b9190613774565b6020604051808303816000875af115801561119a573d6000803e3d6000fd5b505050506040513d601f19601f820116820180604052508101906111be91906139e9565b90506111c981612026565b15611200576040517ffcde723100000000000000000000000000000000000000000000000000000000815260040160405180910390fd5b7f3e8bb74e6a03753bf16c1c2737daabee1be3548b0f638894f10f382560d1d0768682868689604051611237959493929190613a16565b60405180910390a160008173ffffffffffffffffffffffffffffffffffffffff166318160ddd6040518163ffffffff1660e01b8152600401602060405180830381865afa15801561128c573d6000803e3d6000fd5b505050506040513d601f19601f820116820180604052508101906112b09190613a7e565b90508085146112eb576040517f849e9ad400000000000000000000000000000000000000000000000000000000815260040160405180910390fd5b61133833308660008054906101000a900473ffffffffffffffffffffffffffffffffffffffff1673ffffffffffffffffffffffffffffffffffffffff166121ce909392919063ffffffff16565b60008054906101000a900473ffffffffffffffffffffffffffffffffffffffff1673ffffffffffffffffffffffffffffffffffffffff1663095ea7b3600360009054906101000a900473ffffffffffffffffffffffffffffffffffffffff16866040518363ffffffff1660e01b81526004016113b5929190613aab565b6020604051808303816000875af11580156113d4573d6000803e3d6000fd5b505050506040513d601f19601f820116820180604052508101906113f89190613b00565b50600360009054906101000a900473ffffffffffffffffffffffffffffffffffffffff1673ffffffffffffffffffffffffffffffffffffffff16638340f5498360008054906101000a900473ffffffffffffffffffffffffffffffffffffffff16876040518463ffffffff1660e01b815260040161147893929190613b2d565b600060405180830381600087803b15801561149257600080fd5b505af11580156114a6573d6000803e3d6000fd5b50505050600192505050949350505050565b6114c182610b49565b6114ca81611c5a565b6114d48383611c76565b50505050565b7fbfb76d8d43f55efe58544ea32af187792a7bdb983850d8fed33478266eec3cbb61150481611c5a565b61150d82612026565b15611544576040517fb1710af000000000000000000000000000000000000000000000000000000000815260040160405180910390fd5b61154d82612250565b5050565b600061155b6119e6565b61156785858585611a27565b9050949350505050565b60045481565b600960009054906101000a900473ffffffffffffffffffffffffffffffffffffffff1681565b600360009054906101000a900473ffffffffffffffffffffffffffffffffffffffff1681565b60008054906101000a900473ffffffffffffffffffffffffffffffffffffffff1681565b670de0b6b3a764000081565b60007f01ffc9a7000000000000000000000000000000000000000000000000000000007bffffffffffffffffffffffffffffffffffffffffffffffffffffffff1916827bffffffffffffffffffffffffffffffffffffffffffffffffffffffff1916149050919050565b60007ff0c57e16840df040f15088dc2f81fe391c3923bec73e23a9662efc9c229c6a00905090565b61168d6122cb565b565b6116976122cb565b61169f61230b565b565b6116aa87612026565b156116e1576040517f1c8c425400000000000000000000000000000000000000000000000000000000815260040160405180910390fd5b6116ea86612026565b15611721576040517fb1710af000000000000000000000000000000000000000000000000000000000815260040160405180910390fd5b61172a85612026565b15611761576040517f3c77158e00000000000000000000000000000000000000000000000000000000815260040160405180910390fd5b61176a84612026565b156117a1576040517f926d717700000000000000000000000000000000000000000000000000000000815260040160405180910390fd5b6117aa83612026565b156117e1576040517f466e460200000000000000000000000000000000000000000000000000000000815260040160405180910390fd5b6117ea81612026565b15611821576040517fee2f6f2a00000000000000000000000000000000000000000000000000000000815260040160405180910390fd5b61182a82612026565b15611861576040517fadfdb05b00000000000000000000000000000000000000000000000000000000815260040160405180910390fd5b50505050505050565b611886816040015182600001516118819190613b93565b61233f565b15806118ab57506118a9816060015182602001516118a49190613b93565b61233f565b155b156118e2576040517f470562b900000000000000000000000000000000000000000000000000000000815260040160405180910390fd5b50565b6000806118f0611c32565b90506118fc8484610e48565b6119da57600181600001600086815260200190815260200160002060000160008573ffffffffffffffffffffffffffffffffffffffff1673ffffffffffffffffffffffffffffffffffffffff16815260200190815260200160002060006101000a81548160ff021916908315150217905550611976611c6e565b73ffffffffffffffffffffffffffffffffffffffff168373ffffffffffffffffffffffffffffffffffffffff16857f2f8788117e7eff1d82e926ec794901d17c78024a50270940304540a733656f0d60405160405180910390a460019150506119e0565b60009150505b92915050565b6119ee610d4d565b15611a25576040517fd93c066500000000000000000000000000000000000000000000000000000000815260040160405180910390fd5b565b6000611a3285612026565b15611a69576040517fa7ef168800000000000000000000000000000000000000000000000000000000815260040160405180910390fd5b60008403611aa2576040517e6a79a400000000000000000000000000000000000000000000000000000000815260040160405180910390fd5b6000600a60008773ffffffffffffffffffffffffffffffffffffffff1673ffffffffffffffffffffffffffffffffffffffff16815260200190815260200160002060009054906101000a900463ffffffff16905060008163ffffffff1603611b36576040517f85b1b9c700000000000000000000000000000000000000000000000000000000815260040160405180910390fd5b6000600260009054906101000a900473ffffffffffffffffffffffffffffffffffffffff1673ffffffffffffffffffffffffffffffffffffffff1663e4860339886040518263ffffffff1660e01b8152600401611b939190613774565b6020604051808303816000875af1158015611bb2573d6000803e3d6000fd5b505050506040513d601f19601f82011682018060405250810190611bd691906139e9565b9050611be181612026565b15611c18576040517ffcde723100000000000000000000000000000000000000000000000000000000815260040160405180910390fd5b611c26818787878b87612353565b92505050949350505050565b60007f02dd7bc7dec4dceedda775e58dd541e08a116c6c53815c0bd028192f7b626800905090565b611c6b81611c66611c6e565b61292d565b50565b600033905090565b600080611c81611c32565b9050611c8d8484610e48565b15611d6c57600081600001600086815260200190815260200160002060000160008573ffffffffffffffffffffffffffffffffffffffff1673ffffffffffffffffffffffffffffffffffffffff16815260200190815260200160002060006101000a81548160ff021916908315150217905550611d08611c6e565b73ffffffffffffffffffffffffffffffffffffffff168373ffffffffffffffffffffffffffffffffffffffff16857ff6391f5c32d9c69d2a47ea670b442974b53935d1edc7fd64eb21e047a839171b60405160405180910390a46001915050611d72565b60009150505b92915050565b6000611d826119e6565b611d8b85612026565b15611dc2576040517fa7ef168800000000000000000000000000000000000000000000000000000000815260040160405180910390fd5b60008403611dfc576040517f2dc1479300000000000000000000000000000000000000000000000000000000815260040160405180910390fd5b6000600a60008773ffffffffffffffffffffffffffffffffffffffff1673ffffffffffffffffffffffffffffffffffffffff16815260200190815260200160002060009054906101000a900463ffffffff16905060008163ffffffff1603611e90576040517f85b1b9c700000000000000000000000000000000000000000000000000000000815260040160405180910390fd5b6000600260009054906101000a900473ffffffffffffffffffffffffffffffffffffffff1673ffffffffffffffffffffffffffffffffffffffff1663e4860339886040518263ffffffff1660e01b8152600401611eed9190613774565b6020604051808303816000875af1158015611f0c573d6000803e3d6000fd5b505050506040513d601f19601f82011682018060405250810190611f3091906139e9565b9050611f3b81612026565b15611f72576040517ffcde723100000000000000000000000000000000000000000000000000000000815260040160405180910390fd5b611f80818787878b8761297e565b92505050949350505050565b611f94612e52565b6000611f9e611ffe565b905060008160000160006101000a81548160ff0219169083151502179055507f5db9ee0a495bf2e6ff9c91a7834c1ba4fdd244a5e8aa4e537bd38aeae4b073aa611fe6611c6e565b604051611ff39190613774565b60405180910390a150565b60007fcd5ed15c6e187e77e9aee88184c21f4f2182ab5827cb3b7e07fbedcd63f03300905090565b60008073ffffffffffffffffffffffffffffffffffffffff168273ffffffffffffffffffffffffffffffffffffffff16149050919050565b80600860006101000a81548173ffffffffffffffffffffffffffffffffffffffff021916908373ffffffffffffffffffffffffffffffffffffffff1602179055507fe6131a64e93e9aa4ff38892c34d563c06dcc1e03b3d6897cc65f0903e2ad6848816040516120ce9190613774565b60405180910390a150565b6120e16119e6565b60006120eb611ffe565b905060018160000160006101000a81548160ff0219169083151502179055507f62e78cea01bee320cd4e420270b5ea74000d11b0c9f74754ebdbfc544b05a258612133611c6e565b6040516121409190613774565b60405180910390a150565b836004819055508260058190555081600681905550806007819055507f5c3aee3d65f7eb02cded951435d06b06ef307bc7f57b98975c4a41dc116e711c6004546005546006546007546040516121a49493929190613bc7565b60405180910390a150505050565b6000620f424063ffffffff168263ffffffff1611159050919050565b61224a848573ffffffffffffffffffffffffffffffffffffffff166323b872dd86868660405160240161220393929190613b2d565b604051602081830303815290604052915060e01b6020820180517bffffffffffffffffffffffffffffffffffffffffffffffffffffffff8381831617835250505050612e92565b50505050565b80600160006101000a81548173ffffffffffffffffffffffffffffffffffffffff021916908373ffffffffffffffffffffffffffffffffffffffff1602179055507f050a79a49cc1dc3aeeccd8636685ad0469db41a9bd51254a34fc1cf616693d41816040516122c09190613774565b60405180910390a150565b6122d3612f29565b612309576040517fd7e6bcf800000000000000000000000000000000000000000000000000000000815260040160405180910390fd5b565b6123136122cb565b600061231d611ffe565b905060008160000160006101000a81548160ff02191690831515021790555050565b6000670de0b6b3a764000082109050919050565b60006123a233308860008054906101000a900473ffffffffffffffffffffffffffffffffffffffff1673ffffffffffffffffffffffffffffffffffffffff166121ce909392919063ffffffff16565b6000806123ae88612f49565b915091506123fd858260008054906101000a900473ffffffffffffffffffffffffffffffffffffffff1673ffffffffffffffffffffffffffffffffffffffff16612f979092919063ffffffff16565b61246a600860009054906101000a900473ffffffffffffffffffffffffffffffffffffffff168360008054906101000a900473ffffffffffffffffffffffffffffffffffffffff1673ffffffffffffffffffffffffffffffffffffffff16612f979092919063ffffffff16565b600082828a6124799190613c0c565b6124839190613c0c565b905060008054906101000a900473ffffffffffffffffffffffffffffffffffffffff1673ffffffffffffffffffffffffffffffffffffffff1663095ea7b3600360009054906101000a900473ffffffffffffffffffffffffffffffffffffffff16836040518363ffffffff1660e01b8152600401612502929190613aab565b6020604051808303816000875af1158015612521573d6000803e3d6000fd5b505050506040513d601f19601f820116820180604052508101906125459190613b00565b506000600360009054906101000a900473ffffffffffffffffffffffffffffffffffffffff1673ffffffffffffffffffffffffffffffffffffffff1663f7888aec8c60008054906101000a900473ffffffffffffffffffffffffffffffffffffffff166040518363ffffffff1660e01b81526004016125c5929190613c40565b6020604051808303816000875af11580156125e4573d6000803e3d6000fd5b505050506040513d601f19601f820116820180604052508101906126089190613a7e565b905060008b73ffffffffffffffffffffffffffffffffffffffff166318160ddd6040518163ffffffff1660e01b8152600401602060405180830381865afa158015612657573d6000803e3d6000fd5b505050506040513d601f19601f8201168201806040525081019061267b9190613a7e565b9050600360009054906101000a900473ffffffffffffffffffffffffffffffffffffffff1673ffffffffffffffffffffffffffffffffffffffff16638340f5498d60008054906101000a900473ffffffffffffffffffffffffffffffffffffffff16866040518463ffffffff1660e01b81526004016126fc93929190613b2d565b600060405180830381600087803b15801561271657600080fd5b505af115801561272a573d6000803e3d6000fd5b50505050600160009054906101000a900473ffffffffffffffffffffffffffffffffffffffff1673ffffffffffffffffffffffffffffffffffffffff166329a00e7c82848a876040518563ffffffff1660e01b815260040161278f9493929190613c69565b602060405180830381865afa1580156127ac573d6000803e3d6000fd5b505050506040513d601f19601f820116820180604052508101906127d09190613a7e565b95508886101561280c576040517f13115b2900000000000000000000000000000000000000000000000000000000815260040160405180910390fd5b6128158a612026565b6128bd57600260009054906101000a900473ffffffffffffffffffffffffffffffffffffffff1673ffffffffffffffffffffffffffffffffffffffff1663c6c3bbe6898c896040518463ffffffff1660e01b815260040161287893929190613b2d565b6020604051808303816000875af1158015612897573d6000803e3d6000fd5b505050506040513d601f19601f820116820180604052508101906128bb9190613b00565b505b7fab7844fa0fe8907c50c8c2011a6471669afa144bcbbfcf0a1f9d08f77065f0858860008054906101000a900473ffffffffffffffffffffffffffffffffffffffff168d8f8a8f60405161291696959493929190613cae565b60405180910390a150505050509695505050505050565b6129378282610e48565b61297a5780826040517fe2517d3f000000000000000000000000000000000000000000000000000000008152600401612971929190613d0f565b60405180910390fd5b5050565b6000808773ffffffffffffffffffffffffffffffffffffffff166318160ddd6040518163ffffffff1660e01b8152600401602060405180830381865afa1580156129cc573d6000803e3d6000fd5b505050506040513d601f19601f820116820180604052508101906129f09190613a7e565b90506000600360009054906101000a900473ffffffffffffffffffffffffffffffffffffffff1673ffffffffffffffffffffffffffffffffffffffff1663f7888aec8a60008054906101000a900473ffffffffffffffffffffffffffffffffffffffff166040518363ffffffff1660e01b8152600401612a71929190613c40565b6020604051808303816000875af1158015612a90573d6000803e3d6000fd5b505050506040513d601f19601f82011682018060405250810190612ab49190613a7e565b90506000600160009054906101000a900473ffffffffffffffffffffffffffffffffffffffff1673ffffffffffffffffffffffffffffffffffffffff166349f9b0f78484888d6040518563ffffffff1660e01b8152600401612b199493929190613c69565b602060405180830381865afa158015612b36573d6000803e3d6000fd5b505050506040513d601f19601f82011682018060405250810190612b5a9190613a7e565b9050600080612b6883613016565b91509150818184612b799190613c0c565b612b839190613c0c565b955088861015612bbf576040517f13115b2900000000000000000000000000000000000000000000000000000000815260040160405180910390fd5b7f9e20e9cbfd51cdd34a2163a0435df07c7fde8cabc7ab4ca38448bd01d317b697888d8d60008054906101000a900473ffffffffffffffffffffffffffffffffffffffff168a8f604051612c1896959493929190613cae565b60405180910390a18b73ffffffffffffffffffffffffffffffffffffffff166379cc6790338d6040518363ffffffff1660e01b8152600401612c5b929190613aab565b600060405180830381600087803b158015612c7557600080fd5b505af1158015612c89573d6000803e3d6000fd5b50505050600360009054906101000a900473ffffffffffffffffffffffffffffffffffffffff1673ffffffffffffffffffffffffffffffffffffffff1663f18d03cc8d60008054906101000a900473ffffffffffffffffffffffffffffffffffffffff1630876040518563ffffffff1660e01b8152600401612d0e9493929190613d38565b600060405180830381600087803b158015612d2857600080fd5b505af1158015612d3c573d6000803e3d6000fd5b50505050612d8b888260008054906101000a900473ffffffffffffffffffffffffffffffffffffffff1673ffffffffffffffffffffffffffffffffffffffff16612f979092919063ffffffff16565b612df8600860009054906101000a900473ffffffffffffffffffffffffffffffffffffffff168360008054906101000a900473ffffffffffffffffffffffffffffffffffffffff1673ffffffffffffffffffffffffffffffffffffffff16612f979092919063ffffffff16565b612e438a8760008054906101000a900473ffffffffffffffffffffffffffffffffffffffff1673ffffffffffffffffffffffffffffffffffffffff16612f979092919063ffffffff16565b50505050509695505050505050565b612e5a610d4d565b612e90576040517f8dfc202b00000000000000000000000000000000000000000000000000000000815260040160405180910390fd5b565b6000612ebd828473ffffffffffffffffffffffffffffffffffffffff1661306490919063ffffffff16565b90506000815114158015612ee2575080806020019051810190612ee09190613b00565b155b15612f2457826040517f5274afe7000000000000000000000000000000000000000000000000000000008152600401612f1b9190613774565b60405180910390fd5b505050565b6000612f3361165d565b60000160089054906101000a900460ff16905090565b600080670de0b6b3a764000060045484612f639190613d7d565b612f6d9190613dee565b9150670de0b6b3a764000060065484612f869190613d7d565b612f909190613dee565b9050915091565b613011838473ffffffffffffffffffffffffffffffffffffffff1663a9059cbb8585604051602401612fca929190613aab565b604051602081830303815290604052915060e01b6020820180517bffffffffffffffffffffffffffffffffffffffffffffffffffffffff8381831617835250505050612e92565b505050565b600080670de0b6b3a7640000600554846130309190613d7d565b61303a9190613dee565b9150670de0b6b3a7640000600754846130539190613d7d565b61305d9190613dee565b9050915091565b60606130728383600061307a565b905092915050565b6060814710156130c157306040517fcd7860590000000000000000000000000000000000000000000000000000000081526004016130b89190613774565b60405180910390fd5b6000808573ffffffffffffffffffffffffffffffffffffffff1684866040516130ea9190613e90565b60006040518083038185875af1925050503d8060008114613127576040519150601f19603f3d011682016040523d82523d6000602084013e61312c565b606091505b509150915061313c868383613147565b925050509392505050565b60608261315c57613157826131d6565b6131ce565b60008251148015613184575060008473ffffffffffffffffffffffffffffffffffffffff163b145b156131c657836040517f9996b3150000000000000000000000000000000000000000000000000000000081526004016131bd9190613774565b60405180910390fd5b8190506131cf565b5b9392505050565b6000815111156131e95780518082602001fd5b6040517f1425ea4200000000000000000000000000000000000000000000000000000000815260040160405180910390fd5b6000604051905090565b600080fd5b60007fffffffff0000000000000000000000000000000000000000000000000000000082169050919050565b61325f8161322a565b811461326a57600080fd5b50565b60008135905061327c81613256565b92915050565b60006020828403121561329857613297613225565b5b60006132a68482850161326d565b91505092915050565b60008115159050919050565b6132c4816132af565b82525050565b60006020820190506132df60008301846132bb565b92915050565b600063ffffffff82169050919050565b6132fe816132e5565b82525050565b600060208201905061331960008301846132f5565b92915050565b600073ffffffffffffffffffffffffffffffffffffffff82169050919050565b600061334a8261331f565b9050919050565b61335a8161333f565b811461336557600080fd5b50565b60008135905061337781613351565b92915050565b600080fd5b6000601f19601f8301169050919050565b7f4e487b7100000000000000000000000000000000000000000000000000000000600052604160045260246000fd5b6133cb82613382565b810181811067ffffffffffffffff821117156133ea576133e9613393565b5b80604052505050565b60006133fd61321b565b905061340982826133c2565b919050565b6000819050919050565b6134218161340e565b811461342c57600080fd5b50565b60008135905061343e81613418565b92915050565b60006080828403121561345a5761345961337d565b5b61346460806133f3565b905060006134748482850161342f565b60008301525060206134888482850161342f565b602083015250604061349c8482850161342f565b60408301525060606134b08482850161342f565b60608301525092915050565b600080600080600080600080610160898b0312156134dd576134dc613225565b5b60006134eb8b828c01613368565b98505060206134fc8b828c01613368565b975050604061350d8b828c01613368565b965050606061351e8b828c01613368565b955050608061352f8b828c01613368565b94505060a06135408b828c01613444565b9350506101206135528b828c01613368565b9250506101406135648b828c01613368565b9150509295985092959890939650565b6000819050919050565b61358781613574565b82525050565b60006020820190506135a2600083018461357e565b92915050565b6000806000606084860312156135c1576135c0613225565b5b60006135cf86828701613368565b93505060206135e08682870161342f565b92505060406135f18682870161342f565b9150509250925092565b6136048161340e565b82525050565b600060208201905061361f60008301846135fb565b92915050565b60006020828403121561363b5761363a613225565b5b600061364984828501613368565b91505092915050565b61365b81613574565b811461366657600080fd5b50565b60008135905061367881613652565b92915050565b60006020828403121561369457613693613225565b5b60006136a284828501613669565b91505092915050565b6000819050919050565b60006136d06136cb6136c68461331f565b6136ab565b61331f565b9050919050565b60006136e2826136b5565b9050919050565b60006136f4826136d7565b9050919050565b613704816136e9565b82525050565b600060208201905061371f60008301846136fb565b92915050565b6000806040838503121561373c5761373b613225565b5b600061374a85828601613669565b925050602061375b85828601613368565b9150509250929050565b61376e8161333f565b82525050565b60006020820190506137896000830184613765565b92915050565b600061379a826136d7565b9050919050565b6137aa8161378f565b82525050565b60006020820190506137c560008301846137a1565b92915050565b600080600080608085870312156137e5576137e4613225565b5b60006137f387828801613368565b94505060206138048782880161342f565b935050604061381587828801613368565b92505060606138268782880161342f565b91505092959194509250565b60006080828403121561384857613847613225565b5b600061385684828501613444565b91505092915050565b613868816132e5565b811461387357600080fd5b50565b6000813590506138858161385f565b92915050565b600080600080608085870312156138a5576138a4613225565b5b60006138b387828801613368565b94505060206138c487828801613876565b93505060406138d58782880161342f565b92505060606138e68782880161342f565b91505092959194509250565b60006138fd826136d7565b9050919050565b61390d816138f2565b82525050565b60006020820190506139286000830184613904565b92915050565b6000613939826136d7565b9050919050565b6139498161392e565b82525050565b60006020820190506139646000830184613940565b92915050565b6000819050919050565b600067ffffffffffffffff82169050919050565b60006139a361399e6139998461396a565b6136ab565b613974565b9050919050565b6139b381613988565b82525050565b60006020820190506139ce60008301846139aa565b92915050565b6000815190506139e381613351565b92915050565b6000602082840312156139ff576139fe613225565b5b6000613a0d848285016139d4565b91505092915050565b600060a082019050613a2b6000830188613765565b613a386020830187613765565b613a4560408301866135fb565b613a5260608301856135fb565b613a5f60808301846132f5565b9695505050505050565b600081519050613a7881613418565b92915050565b600060208284031215613a9457613a93613225565b5b6000613aa284828501613a69565b91505092915050565b6000604082019050613ac06000830185613765565b613acd60208301846135fb565b9392505050565b613add816132af565b8114613ae857600080fd5b50565b600081519050613afa81613ad4565b92915050565b600060208284031215613b1657613b15613225565b5b6000613b2484828501613aeb565b91505092915050565b6000606082019050613b426000830186613765565b613b4f6020830185613765565b613b5c60408301846135fb565b949350505050565b7f4e487b7100000000000000000000000000000000000000000000000000000000600052601160045260246000fd5b6000613b9e8261340e565b9150613ba98361340e565b9250828201905080821115613bc157613bc0613b64565b5b92915050565b6000608082019050613bdc60008301876135fb565b613be960208301866135fb565b613bf660408301856135fb565b613c0360608301846135fb565b95945050505050565b6000613c178261340e565b9150613c228361340e565b9250828203905081811115613c3a57613c39613b64565b5b92915050565b6000604082019050613c556000830185613765565b613c626020830184613765565b9392505050565b6000608082019050613c7e60008301876135fb565b613c8b60208301866135fb565b613c9860408301856132f5565b613ca560608301846135fb565b95945050505050565b600060c082019050613cc36000830189613765565b613cd06020830188613765565b613cdd60408301876135fb565b613cea6060830186613765565b613cf760808301856135fb565b613d0460a0830184613765565b979650505050505050565b6000604082019050613d246000830185613765565b613d31602083018461357e565b9392505050565b6000608082019050613d4d6000830187613765565b613d5a6020830186613765565b613d676040830185613765565b613d7460608301846135fb565b95945050505050565b6000613d888261340e565b9150613d938361340e565b9250828202613da18161340e565b91508282048414831517613db857613db7613b64565b5b5092915050565b7f4e487b7100000000000000000000000000000000000000000000000000000000600052601260045260246000fd5b6000613df98261340e565b9150613e048361340e565b925082613e1457613e13613dbf565b5b828204905092915050565b600081519050919050565b600081905092915050565b60005b83811015613e53578082015181840152602081019050613e38565b60008484015250505050565b6000613e6a82613e1f565b613e748185613e2a565b9350613e84818560208601613e35565b80840191505092915050565b6000613e9c8284613e5f565b91508190509291505056fea26469706673582212209575877b41d0c414f4cfe56d44bfe507a598a8dc6549ed36beddb7f5c61eef5c64736f6c63430008180033",
  "linkReferences": {},
  "deployedLinkReferences": {}
}