{
  "address": "0xE9f2C4272aEF9ede96631213859B687De2CA9FA4",
  "abi": [
    {
      "anonymous": false,
      "inputs": [
        {
          "indexed": false,
          "internalType": "address",
          "name": "newBeneficiary",
          "type": "address"
        }
      ],
      "name": "BeneficiaryChanged",
      "type": "event"
    },
    {
      "anonymous": false,
      "inputs": [],
      "name": "LockAccepted",
      "type": "event"
    },
    {
      "anonymous": false,
      "inputs": [],
      "name": "LockCanceled",
      "type": "event"
    },
    {
      "anonymous": false,
      "inputs": [
        {
          "indexed": true,
          "internalType": "address",
          "name": "_oldManager",
          "type": "address"
        },
        {
          "indexed": true,
          "internalType": "address",
          "name": "_newManager",
          "type": "address"
        }
      ],
      "name": "ManagerUpdated",
      "type": "event"
    },
    {
      "anonymous": false,
      "inputs": [
        {
          "indexed": true,
          "internalType": "address",
          "name": "previousOwner",
          "type": "address"
        },
        {
          "indexed": true,
          "internalType": "address",
          "name": "newOwner",
          "type": "address"
        }
      ],
      "name": "OwnershipTransferred",
      "type": "event"
    },
    {
      "anonymous": false,
      "inputs": [
        {
          "indexed": true,
          "internalType": "address",
          "name": "_subjectToken",
          "type": "address"
        },
        {
          "indexed": true,
          "internalType": "address",
          "name": "_destination",
          "type": "address"
        }
      ],
      "name": "SubjectTokenDestinationsApproved",
      "type": "event"
    },
    {
      "anonymous": false,
      "inputs": [
        {
          "indexed": true,
          "internalType": "address",
          "name": "_subjectToken",
          "type": "address"
        },
        {
          "indexed": true,
          "internalType": "address",
          "name": "_destination",
          "type": "address"
        }
      ],
      "name": "SubjectTokenDestinationsRevoked",
      "type": "event"
    },
    {
      "anonymous": false,
      "inputs": [],
      "name": "TokenDestinationsApproved",
      "type": "event"
    },
    {
      "anonymous": false,
      "inputs": [],
      "name": "TokenDestinationsRevoked",
      "type": "event"
    },
    {
      "anonymous": false,
      "inputs": [
        {
          "indexed": true,
          "internalType": "address",
          "name": "beneficiary",
          "type": "address"
        },
        {
          "indexed": false,
          "internalType": "uint256",
          "name": "amount",
          "type": "uint256"
        }
      ],
      "name": "TokensReleased",
      "type": "event"
    },
    {
      "anonymous": false,
      "inputs": [
        {
          "indexed": true,
          "internalType": "address",
          "name": "beneficiary",
          "type": "address"
        },
        {
          "indexed": false,
          "internalType": "uint256",
          "name": "amount",
          "type": "uint256"
        }
      ],
      "name": "TokensRevoked",
      "type": "event"
    },
    {
      "anonymous": false,
      "inputs": [
        {
          "indexed": true,
          "internalType": "address",
          "name": "beneficiary",
          "type": "address"
        },
        {
          "indexed": false,
          "internalType": "uint256",
          "name": "amount",
          "type": "uint256"
        }
      ],
      "name": "TokensWithdrawn",
      "type": "event"
    },
    {
      "stateMutability": "payable",
      "type": "fallback"
    },
    {
      "inputs": [],
      "name": "acceptLock",
      "outputs": [],
      "stateMutability": "nonpayable",
      "type": "function"
    },
    {
      "inputs": [],
      "name": "amountPerPeriod",
      "outputs": [
        {
          "internalType": "uint256",
          "name": "",
          "type": "uint256"
        }
      ],
      "stateMutability": "view",
      "type": "function"
    },
    {
      "inputs": [],
      "name": "approveProtocol",
      "outputs": [],
      "stateMutability": "nonpayable",
      "type": "function"
    },
    {
      "inputs": [
        {
          "internalType": "address",
          "name": "_subjectToken",
          "type": "address"
        }
      ],
      "name": "approveSubjectToken",
      "outputs": [],
      "stateMutability": "nonpayable",
      "type": "function"
    },
    {
      "inputs": [],
      "name": "availableAmount",
      "outputs": [
        {
          "internalType": "uint256",
          "name": "",
          "type": "uint256"
        }
      ],
      "stateMutability": "view",
      "type": "function"
    },
    {
      "inputs": [],
      "name": "beneficiary",
      "outputs": [
        {
          "internalType": "address",
          "name": "",
          "type": "address"
        }
      ],
      "stateMutability": "view",
      "type": "function"
    },
    {
      "inputs": [],
      "name": "cancelLock",
      "outputs": [],
      "stateMutability": "nonpayable",
      "type": "function"
    },
    {
      "inputs": [
        {
          "internalType": "address",
          "name": "_newBeneficiary",
          "type": "address"
        }
      ],
      "name": "changeBeneficiary",
      "outputs": [],
      "stateMutability": "nonpayable",
      "type": "function"
    },
    {
      "inputs": [],
      "name": "currentBalance",
      "outputs": [
        {
          "internalType": "uint256",
          "name": "",
          "type": "uint256"
        }
      ],
      "stateMutability": "view",
      "type": "function"
    },
    {
      "inputs": [],
      "name": "currentPeriod",
      "outputs": [
        {
          "internalType": "uint256",
          "name": "",
          "type": "uint256"
        }
      ],
      "stateMutability": "view",
      "type": "function"
    },
    {
      "inputs": [],
      "name": "currentTime",
      "outputs": [
        {
          "internalType": "uint256",
          "name": "",
          "type": "uint256"
        }
      ],
      "stateMutability": "view",
      "type": "function"
    },
    {
      "inputs": [],
      "name": "duration",
      "outputs": [
        {
          "internalType": "uint256",
          "name": "",
          "type": "uint256"
        }
      ],
      "stateMutability": "view",
      "type": "function"
    },
    {
      "inputs": [],
      "name": "endTime",
      "outputs": [
        {
          "internalType": "uint256",
          "name": "",
          "type": "uint256"
        }
      ],
      "stateMutability": "view",
      "type": "function"
    },
    {
      "inputs": [
        {
          "internalType": "address",
          "name": "_manager",
          "type": "address"
        },
        {
          "internalType": "address",
          "name": "_owner",
          "type": "address"
        },
        {
          "internalType": "address",
          "name": "_beneficiary",
          "type": "address"
        },
        {
          "internalType": "address",
          "name": "_token",
          "type": "address"
        },
        {
          "internalType": "uint256",
          "name": "_managedAmount",
          "type": "uint256"
        },
        {
          "internalType": "uint256",
          "name": "_startTime",
          "type": "uint256"
        },
        {
          "internalType": "uint256",
          "name": "_endTime",
          "type": "uint256"
        },
        {
          "internalType": "uint256",
          "name": "_periods",
          "type": "uint256"
        },
        {
          "internalType": "uint256",
          "name": "_releaseStartTime",
          "type": "uint256"
        },
        {
          "internalType": "uint256",
          "name": "_vestingCliffTime",
          "type": "uint256"
        },
        {
          "internalType": "enum IMoxieTokenLock.Revocability",
          "name": "_revocable",
          "type": "uint8"
        }
      ],
      "name": "initialize",
      "outputs": [],
      "stateMutability": "nonpayable",
      "type": "function"
    },
    {
      "inputs": [],
      "name": "isAccepted",
      "outputs": [
        {
          "internalType": "bool",
          "name": "",
          "type": "bool"
        }
      ],
      "stateMutability": "view",
      "type": "function"
    },
    {
      "inputs": [],
      "name": "isInitialized",
      "outputs": [
        {
          "internalType": "bool",
          "name": "",
          "type": "bool"
        }
      ],
      "stateMutability": "view",
      "type": "function"
    },
    {
      "inputs": [],
      "name": "isRevoked",
      "outputs": [
        {
          "internalType": "bool",
          "name": "",
          "type": "bool"
        }
      ],
      "stateMutability": "view",
      "type": "function"
    },
    {
      "inputs": [],
      "name": "managedAmount",
      "outputs": [
        {
          "internalType": "uint256",
          "name": "",
          "type": "uint256"
        }
      ],
      "stateMutability": "view",
      "type": "function"
    },
    {
      "inputs": [],
      "name": "manager",
      "outputs": [
        {
          "internalType": "contract IMoxieTokenLockManager",
          "name": "",
          "type": "address"
        }
      ],
      "stateMutability": "view",
      "type": "function"
    },
    {
      "inputs": [],
      "name": "owner",
      "outputs": [
        {
          "internalType": "address",
          "name": "",
          "type": "address"
        }
      ],
      "stateMutability": "view",
      "type": "function"
    },
    {
      "inputs": [],
      "name": "passedPeriods",
      "outputs": [
        {
          "internalType": "uint256",
          "name": "",
          "type": "uint256"
        }
      ],
      "stateMutability": "view",
      "type": "function"
    },
    {
      "inputs": [],
      "name": "periodDuration",
      "outputs": [
        {
          "internalType": "uint256",
          "name": "",
          "type": "uint256"
        }
      ],
      "stateMutability": "view",
      "type": "function"
    },
    {
      "inputs": [],
      "name": "periods",
      "outputs": [
        {
          "internalType": "uint256",
          "name": "",
          "type": "uint256"
        }
      ],
      "stateMutability": "view",
      "type": "function"
    },
    {
      "inputs": [],
      "name": "releasableAmount",
      "outputs": [
        {
          "internalType": "uint256",
          "name": "",
          "type": "uint256"
        }
      ],
      "stateMutability": "view",
      "type": "function"
    },
    {
      "inputs": [],
      "name": "release",
      "outputs": [],
      "stateMutability": "nonpayable",
      "type": "function"
    },
    {
      "inputs": [],
      "name": "releaseStartTime",
      "outputs": [
        {
          "internalType": "uint256",
          "name": "",
          "type": "uint256"
        }
      ],
      "stateMutability": "view",
      "type": "function"
    },
    {
      "inputs": [],
      "name": "releasedAmount",
      "outputs": [
        {
          "internalType": "uint256",
          "name": "",
          "type": "uint256"
        }
      ],
      "stateMutability": "view",
      "type": "function"
    },
    {
      "inputs": [],
      "name": "renounceOwnership",
      "outputs": [],
      "stateMutability": "nonpayable",
      "type": "function"
    },
    {
      "inputs": [],
      "name": "revocable",
      "outputs": [
        {
          "internalType": "enum IMoxieTokenLock.Revocability",
          "name": "",
          "type": "uint8"
        }
      ],
      "stateMutability": "view",
      "type": "function"
    },
    {
      "inputs": [],
      "name": "revoke",
      "outputs": [],
      "stateMutability": "nonpayable",
      "type": "function"
    },
    {
      "inputs": [],
      "name": "revokeProtocol",
      "outputs": [],
      "stateMutability": "nonpayable",
      "type": "function"
    },
    {
      "inputs": [
        {
          "internalType": "address",
          "name": "_subjectToken",
          "type": "address"
        }
      ],
      "name": "revokeSubjectTokens",
      "outputs": [],
      "stateMutability": "nonpayable",
      "type": "function"
    },
    {
      "inputs": [],
      "name": "revokedAmount",
      "outputs": [
        {
          "internalType": "uint256",
          "name": "",
          "type": "uint256"
        }
      ],
      "stateMutability": "view",
      "type": "function"
    },
    {
      "inputs": [
        {
          "internalType": "address",
          "name": "_newManager",
          "type": "address"
        }
      ],
      "name": "setManager",
      "outputs": [],
      "stateMutability": "nonpayable",
      "type": "function"
    },
    {
      "inputs": [],
      "name": "sinceStartTime",
      "outputs": [
        {
          "internalType": "uint256",
          "name": "",
          "type": "uint256"
        }
      ],
      "stateMutability": "view",
      "type": "function"
    },
    {
      "inputs": [],
      "name": "startTime",
      "outputs": [
        {
          "internalType": "uint256",
          "name": "",
          "type": "uint256"
        }
      ],
      "stateMutability": "view",
      "type": "function"
    },
    {
      "inputs": [],
      "name": "surplusAmount",
      "outputs": [
        {
          "internalType": "uint256",
          "name": "",
          "type": "uint256"
        }
      ],
      "stateMutability": "view",
      "type": "function"
    },
    {
      "inputs": [],
      "name": "token",
      "outputs": [
        {
          "internalType": "contract IERC20",
          "name": "",
          "type": "address"
        }
      ],
      "stateMutability": "view",
      "type": "function"
    },
    {
      "inputs": [],
      "name": "totalOutstandingAmount",
      "outputs": [
        {
          "internalType": "uint256",
          "name": "",
          "type": "uint256"
        }
      ],
      "stateMutability": "view",
      "type": "function"
    },
    {
      "inputs": [
        {
          "internalType": "address",
          "name": "newOwner",
          "type": "address"
        }
      ],
      "name": "transferOwnership",
      "outputs": [],
      "stateMutability": "nonpayable",
      "type": "function"
    },
    {
      "inputs": [],
      "name": "usedAmount",
      "outputs": [
        {
          "internalType": "uint256",
          "name": "",
          "type": "uint256"
        }
      ],
      "stateMutability": "view",
      "type": "function"
    },
    {
      "inputs": [],
      "name": "vestedAmount",
      "outputs": [
        {
          "internalType": "uint256",
          "name": "",
          "type": "uint256"
        }
      ],
      "stateMutability": "view",
      "type": "function"
    },
    {
      "inputs": [],
      "name": "vestingCliffTime",
      "outputs": [
        {
          "internalType": "uint256",
          "name": "",
          "type": "uint256"
        }
      ],
      "stateMutability": "view",
      "type": "function"
    },
    {
      "inputs": [
        {
          "internalType": "uint256",
          "name": "_amount",
          "type": "uint256"
        }
      ],
      "name": "withdrawSurplus",
      "outputs": [],
      "stateMutability": "nonpayable",
      "type": "function"
    },
    {
      "stateMutability": "payable",
      "type": "receive"
    }
  ],
  "transactionHash": "0x211c60983e0265aa9ab2eee93b1aa1fa93290ce25e17f2b3f0ec2fea50893cb8",
  "args": [],
  "solcInputHash": "a0c583fab1bfe698bc0d3b4bd04cbc99",
  "bytecode": "0x608060405234801561001057600080fd5b50614d74806100206000396000f3fe60806040526004361061026b5760003560e01c80637bdf05af11610144578063bc0163c1116100b6578063dc0706571161007a578063dc07065714610bfb578063e8dda6f514610c24578063e97d87d514610c4f578063ebbab99214610c7a578063f2fde38b14610ca5578063fc0c546a14610cce576102ab565b8063bc0163c114610b28578063bd896dcb14610b53578063ce845d1d14610b7c578063d0ebdbe714610ba7578063d18e81b314610bd0576102ab565b80638da5cb5b116101085780638da5cb5b14610a3c57806391f7cfb914610a67578063a4caeb4214610a92578063b0d1818c14610abd578063b470aade14610ae6578063b6549f7514610b11576102ab565b80637bdf05af1461098d57806386d00e02146109b857806386d1a69f146109e3578063872a7810146109fa5780638a5bdf5c14610a25576102ab565b8063392e53cd116101dd5780634efdd99c116101a15780634efdd99c146108b55780635051a5ec146108de5780635b9400811461090957806360e7994414610934578063715018a61461094b57806378e9792514610962576102ab565b8063392e53cd146107de578063398057a31461080957806344b1231f1461083457806345d30a171461085f578063481c6a751461088a576102ab565b80630fb5a6b41161022f5780630fb5a6b4146106f05780632a6278141461071b5780632bc9ed02146107325780633197cbb61461075d57806337aeb0861461078857806338af3eed146107b3576102ab565b8063029c6c9f1461062f57806304bd929e1461065a57806306040618146106835780630b80f777146106ae5780630dff24d5146106c5576102ab565b366102ab576040517f08c379a00000000000000000000000000000000000000000000000000000000081526004016102a290614652565b60405180910390fd5b603460009054906101000a900473ffffffffffffffffffffffffffffffffffffffff1673ffffffffffffffffffffffffffffffffffffffff163373ffffffffffffffffffffffffffffffffffffffff161461033b576040517f08c379a000000000000000000000000000000000000000000000000000000000815260040161033290614852565b60405180910390fd5b6000341461037e576040517f08c379a000000000000000000000000000000000000000000000000000000000815260040161037590614692565b60405180910390fd5b6000603e60009054906101000a900473ffffffffffffffffffffffffffffffffffffffff1673ffffffffffffffffffffffffffffffffffffffff1663f1d24c456000357fffffffff00000000000000000000000000000000000000000000000000000000166040518263ffffffff1660e01b81526004016103ff91906145c4565b60206040518083038186803b15801561041757600080fd5b505afa15801561042b573d6000803e3d6000fd5b505050506040513d601f19601f8201168201806040525081019061044f91906137d8565b9050600073ffffffffffffffffffffffffffffffffffffffff168173ffffffffffffffffffffffffffffffffffffffff1614156104c1576040517f08c379a00000000000000000000000000000000000000000000000000000000081526004016104b890614952565b60405180910390fd5b60006104cb610cf9565b905061051c826000368080601f016020809104026020016040519081016040528093929190818152602001838380828437600081840152601f19601f82011690508083019250505050505050610dab565b506001600281111561052a57fe5b603b60009054906101000a900460ff16600281111561054557fe5b141561062b576000610555610cf9565b9050818110156105975760006105748284610df590919063ffffffff16565b905061058b81603f54610e4590919063ffffffff16565b603f81905550506105dd565b60006105ac8383610df590919063ffffffff16565b9050603f548110156105d2576105cd81603f54610df590919063ffffffff16565b6105d5565b60005b603f81905550505b6105e5610e9a565b603f541115610629576040517f08c379a0000000000000000000000000000000000000000000000000000000008152600401610620906148b2565b60405180910390fd5b505b5050005b34801561063b57600080fd5b50610644610f09565b6040516106519190614af2565b60405180910390f35b34801561066657600080fd5b50610681600480360381019061067c91906137af565b610f27565b005b34801561068f57600080fd5b5061069861121c565b6040516106a59190614af2565b60405180910390f35b3480156106ba57600080fd5b506106c3611257565b005b3480156106d157600080fd5b506106da6113c4565b6040516106e79190614af2565b60405180910390f35b3480156106fc57600080fd5b5061070561140b565b6040516107129190614af2565b60405180910390f35b34801561072757600080fd5b50610730611429565b005b34801561073e57600080fd5b5061074761168e565b60405161075491906145a9565b60405180910390f35b34801561076957600080fd5b506107726116a1565b60405161077f9190614af2565b60405180910390f35b34801561079457600080fd5b5061079d6116a7565b6040516107aa9190614af2565b60405180910390f35b3480156107bf57600080fd5b506107c86116ad565b6040516107d5919061453c565b60405180910390f35b3480156107ea57600080fd5b506107f36116d3565b60405161080091906145a9565b60405180910390f35b34801561081557600080fd5b5061081e6116e6565b60405161082b9190614af2565b60405180910390f35b34801561084057600080fd5b50610849610e9a565b6040516108569190614af2565b60405180910390f35b34801561086b57600080fd5b506108746116ec565b6040516108819190614af2565b60405180910390f35b34801561089657600080fd5b5061089f6116f2565b6040516108ac91906145fa565b60405180910390f35b3480156108c157600080fd5b506108dc60048036038101906108d791906137af565b611718565b005b3480156108ea57600080fd5b506108f36119ee565b60405161090091906145a9565b60405180910390f35b34801561091557600080fd5b5061091e611a01565b60405161092b9190614af2565b60405180910390f35b34801561094057600080fd5b50610949611b0c565b005b34801561095757600080fd5b50610960611d52565b005b34801561096e57600080fd5b50610977611e9e565b6040516109849190614af2565b60405180910390f35b34801561099957600080fd5b506109a2611ea4565b6040516109af9190614af2565b60405180910390f35b3480156109c457600080fd5b506109cd611ee0565b6040516109da9190614af2565b60405180910390f35b3480156109ef57600080fd5b506109f8611ee6565b005b348015610a0657600080fd5b50610a0f6120c2565b604051610a1c9190614615565b60405180910390f35b348015610a3157600080fd5b50610a3a6120d5565b005b348015610a4857600080fd5b50610a516121ae565b604051610a5e919061453c565b60405180910390f35b348015610a7357600080fd5b50610a7c6121d7565b604051610a899190614af2565b60405180910390f35b348015610a9e57600080fd5b50610aa7612235565b604051610ab49190614af2565b60405180910390f35b348015610ac957600080fd5b50610ae46004803603810190610adf919061395b565b61223b565b005b348015610af257600080fd5b50610afb61243a565b604051610b089190614af2565b60405180910390f35b348015610b1d57600080fd5b50610b2661245d565b005b348015610b3457600080fd5b50610b3d6126f5565b604051610b4a9190614af2565b60405180910390f35b348015610b5f57600080fd5b50610b7a6004803603810190610b759190613801565b612727565b005b348015610b8857600080fd5b50610b91610cf9565b604051610b9e9190614af2565b60405180910390f35b348015610bb357600080fd5b50610bce6004803603810190610bc991906137af565b61274f565b005b348015610bdc57600080fd5b50610be56127e9565b604051610bf29190614af2565b60405180910390f35b348015610c0757600080fd5b50610c226004803603810190610c1d91906137af565b6127f1565b005b348015610c3057600080fd5b50610c3961296c565b604051610c469190614af2565b60405180910390f35b348015610c5b57600080fd5b50610c64612972565b604051610c719190614af2565b60405180910390f35b348015610c8657600080fd5b50610c8f612978565b604051610c9c9190614af2565b60405180910390f35b348015610cb157600080fd5b50610ccc6004803603810190610cc791906137af565b61299a565b005b348015610cda57600080fd5b50610ce3612b55565b604051610cf091906145df565b60405180910390f35b6000603360009054906101000a900473ffffffffffffffffffffffffffffffffffffffff1673ffffffffffffffffffffffffffffffffffffffff166370a08231306040518263ffffffff1660e01b8152600401610d56919061453c565b60206040518083038186803b158015610d6e57600080fd5b505afa158015610d82573d6000803e3d6000fd5b505050506040513d601f19601f82011682018060405250810190610da69190613984565b905090565b6060610ded83836040518060400160405280601e81526020017f416464726573733a206c6f772d6c6576656c2063616c6c206661696c65640000815250612b7b565b905092915050565b600082821115610e3a576040517f08c379a0000000000000000000000000000000000000000000000000000000008152600401610e31906147b2565b60405180910390fd5b818303905092915050565b600080828401905083811015610e90576040517f08c379a0000000000000000000000000000000000000000000000000000000008152600401610e8790614732565b60405180910390fd5b8091505092915050565b6000600280811115610ea857fe5b603b60009054906101000a900460ff166002811115610ec357fe5b1415610ed3576035549050610f06565b6000603a54118015610eed5750603a54610eeb6127e9565b105b15610efb5760009050610f06565b610f036121d7565b90505b90565b6000610f22603854603554612b9390919063ffffffff16565b905090565b603460009054906101000a900473ffffffffffffffffffffffffffffffffffffffff1673ffffffffffffffffffffffffffffffffffffffff163373ffffffffffffffffffffffffffffffffffffffff1614610fb7576040517f08c379a0000000000000000000000000000000000000000000000000000000008152600401610fae90614a12565b60405180910390fd5b600073ffffffffffffffffffffffffffffffffffffffff168173ffffffffffffffffffffffffffffffffffffffff161415611027576040517f08c379a000000000000000000000000000000000000000000000000000000000815260040161101e90614672565b60405180910390fd5b6060603e60009054906101000a900473ffffffffffffffffffffffffffffffffffffffff1673ffffffffffffffffffffffffffffffffffffffff1663d3a84e876040518163ffffffff1660e01b815260040160006040518083038186803b15801561109157600080fd5b505afa1580156110a5573d6000803e3d6000fd5b505050506040513d6000823e3d601f19601f820116820180604052508101906110ce91906138f1565b905060005b8151811015611217578273ffffffffffffffffffffffffffffffffffffffff1663095ea7b383838151811061110457fe5b60200260200101517fffffffffffffffffffffffffffffffffffffffffffffffffffffffffffffffff6040518363ffffffff1660e01b815260040161114a929190614580565b602060405180830381600087803b15801561116457600080fd5b505af1158015611178573d6000803e3d6000fd5b505050506040513d601f19601f8201168201806040525081019061119c9190613932565b508181815181106111a957fe5b602002602001015173ffffffffffffffffffffffffffffffffffffffff168373ffffffffffffffffffffffffffffffffffffffff167f9cba83682d81b2ffd08a954f5ba5a6c04e02996f7388b8d6b17cca67addf31a660405160405180910390a380806001019150506110d3565b505050565b6000611252600161124461122e61243a565b611236611ea4565b612b9390919063ffffffff16565b610e4590919063ffffffff16565b905090565b3373ffffffffffffffffffffffffffffffffffffffff1660008054906101000a900473ffffffffffffffffffffffffffffffffffffffff1673ffffffffffffffffffffffffffffffffffffffff16146112e5576040517f08c379a00000000000000000000000000000000000000000000000000000000081526004016112dc90614912565b60405180910390fd5b60001515603b60039054906101000a900460ff1615151461133b576040517f08c379a000000000000000000000000000000000000000000000000000000000815260040161133290614792565b60405180910390fd5b6113966113466121ae565b61134e610cf9565b603360009054906101000a900473ffffffffffffffffffffffffffffffffffffffff1673ffffffffffffffffffffffffffffffffffffffff16612be99092919063ffffffff16565b7f171f0bcbda3370351cea17f3b164bee87d77c2503b94abdf2720a814ebe7e9df60405160405180910390a1565b6000806113cf610cf9565b905060006113db6126f5565b905080821115611401576113f88183610df590919063ffffffff16565b92505050611408565b6000925050505b90565b6000611424603654603754610df590919063ffffffff16565b905090565b603460009054906101000a900473ffffffffffffffffffffffffffffffffffffffff1673ffffffffffffffffffffffffffffffffffffffff163373ffffffffffffffffffffffffffffffffffffffff16146114b9576040517f08c379a00000000000000000000000000000000000000000000000000000000081526004016114b090614a12565b60405180910390fd5b6060603e60009054906101000a900473ffffffffffffffffffffffffffffffffffffffff1673ffffffffffffffffffffffffffffffffffffffff1663a34574666040518163ffffffff1660e01b815260040160006040518083038186803b15801561152357600080fd5b505afa158015611537573d6000803e3d6000fd5b505050506040513d6000823e3d601f19601f8201168201806040525081019061156091906138f1565b905060005b815181101561165e57603360009054906101000a900473ffffffffffffffffffffffffffffffffffffffff1673ffffffffffffffffffffffffffffffffffffffff1663095ea7b38383815181106115b857fe5b60200260200101517fffffffffffffffffffffffffffffffffffffffffffffffffffffffffffffffff6040518363ffffffff1660e01b81526004016115fe929190614580565b602060405180830381600087803b15801561161857600080fd5b505af115801561162c573d6000803e3d6000fd5b505050506040513d601f19601f820116820180604052508101906116509190613932565b508080600101915050611565565b507fb837fd51506ba3cc623a37c78ed22fd521f2f6e9f69a34d5c2a4a9474f27579360405160405180910390a150565b603b60019054906101000a900460ff1681565b60375481565b603d5481565b603460009054906101000a900473ffffffffffffffffffffffffffffffffffffffff1681565b603b60029054906101000a900460ff1681565b60355481565b603c5481565b603e60009054906101000a900473ffffffffffffffffffffffffffffffffffffffff1681565b603460009054906101000a900473ffffffffffffffffffffffffffffffffffffffff1673ffffffffffffffffffffffffffffffffffffffff163373ffffffffffffffffffffffffffffffffffffffff16146117a8576040517f08c379a000000000000000000000000000000000000000000000000000000000815260040161179f90614a12565b60405180910390fd5b600073ffffffffffffffffffffffffffffffffffffffff168173ffffffffffffffffffffffffffffffffffffffff161415611818576040517f08c379a000000000000000000000000000000000000000000000000000000000815260040161180f90614672565b60405180910390fd5b6060603e60009054906101000a900473ffffffffffffffffffffffffffffffffffffffff1673ffffffffffffffffffffffffffffffffffffffff1663d3a84e876040518163ffffffff1660e01b815260040160006040518083038186803b15801561188257600080fd5b505afa158015611896573d6000803e3d6000fd5b505050506040513d6000823e3d601f19601f820116820180604052508101906118bf91906138f1565b905060005b81518110156119e9578273ffffffffffffffffffffffffffffffffffffffff1663095ea7b38383815181106118f557fe5b602002602001015160006040518363ffffffff1660e01b815260040161191c929190614557565b602060405180830381600087803b15801561193657600080fd5b505af115801561194a573d6000803e3d6000fd5b505050506040513d601f19601f8201168201806040525081019061196e9190613932565b5081818151811061197b57fe5b602002602001015173ffffffffffffffffffffffffffffffffffffffff168373ffffffffffffffffffffffffffffffffffffffff167f0e359f6f9496d506fe27e424b6fe493fc7ea01429da58baa27cfb433dbe65be660405160405180910390a380806001019150506118c4565b505050565b603b60039054906101000a900460ff1681565b6000600280811115611a0f57fe5b603b60009054906101000a900460ff166002811115611a2a57fe5b1415611a3f57611a38612c6f565b9050611b09565b6000603954118015611a595750603954611a576127e9565b105b15611a675760009050611b09565b60016002811115611a7457fe5b603b60009054906101000a900460ff166002811115611a8f57fe5b148015611a9e57506000603a54115b8015611ab25750603a54611ab06127e9565b105b15611ac05760009050611b09565b6000611af2603f54611ae4603c54611ad66121d7565b610df590919063ffffffff16565b610df590919063ffffffff16565b9050611b05611aff610cf9565b82612d29565b9150505b90565b603460009054906101000a900473ffffffffffffffffffffffffffffffffffffffff1673ffffffffffffffffffffffffffffffffffffffff163373ffffffffffffffffffffffffffffffffffffffff1614611b9c576040517f08c379a0000000000000000000000000000000000000000000000000000000008152600401611b9390614a12565b60405180910390fd5b6060603e60009054906101000a900473ffffffffffffffffffffffffffffffffffffffff1673ffffffffffffffffffffffffffffffffffffffff1663a34574666040518163ffffffff1660e01b815260040160006040518083038186803b158015611c0657600080fd5b505afa158015611c1a573d6000803e3d6000fd5b505050506040513d6000823e3d601f19601f82011682018060405250810190611c4391906138f1565b905060005b8151811015611d2257603360009054906101000a900473ffffffffffffffffffffffffffffffffffffffff1673ffffffffffffffffffffffffffffffffffffffff1663095ea7b3838381518110611c9b57fe5b602002602001015160006040518363ffffffff1660e01b8152600401611cc2929190614557565b602060405180830381600087803b158015611cdc57600080fd5b505af1158015611cf0573d6000803e3d6000fd5b505050506040513d601f19601f82011682018060405250810190611d149190613932565b508080600101915050611c48565b507f6d317a20ba9d790014284bef285283cd61fde92e0f2711050f563a9d2cf4171160405160405180910390a150565b3373ffffffffffffffffffffffffffffffffffffffff1660008054906101000a900473ffffffffffffffffffffffffffffffffffffffff1673ffffffffffffffffffffffffffffffffffffffff1614611de0576040517f08c379a0000000000000000000000000000000000000000000000000000000008152600401611dd790614912565b60405180910390fd5b600073ffffffffffffffffffffffffffffffffffffffff1660008054906101000a900473ffffffffffffffffffffffffffffffffffffffff1673ffffffffffffffffffffffffffffffffffffffff167f8be0079c531659141344cd1fd0a4f28419497f9722a3daafe3b4186f6b6457e060405160405180910390a360008060006101000a81548173ffffffffffffffffffffffffffffffffffffffff021916908373ffffffffffffffffffffffffffffffffffffffff160217905550565b60365481565b600080611eaf6127e9565b90506036548111611ec4576000915050611edd565b611ed960365482610df590919063ffffffff16565b9150505b90565b603a5481565b603460009054906101000a900473ffffffffffffffffffffffffffffffffffffffff1673ffffffffffffffffffffffffffffffffffffffff163373ffffffffffffffffffffffffffffffffffffffff1614611f76576040517f08c379a0000000000000000000000000000000000000000000000000000000008152600401611f6d90614a12565b60405180910390fd5b6000611f80611a01565b905060008111611fc5576040517f08c379a0000000000000000000000000000000000000000000000000000000008152600401611fbc90614a72565b60405180910390fd5b611fda81603c54610e4590919063ffffffff16565b603c8190555061204f603460009054906101000a900473ffffffffffffffffffffffffffffffffffffffff1682603360009054906101000a900473ffffffffffffffffffffffffffffffffffffffff1673ffffffffffffffffffffffffffffffffffffffff16612be99092919063ffffffff16565b603460009054906101000a900473ffffffffffffffffffffffffffffffffffffffff1673ffffffffffffffffffffffffffffffffffffffff167fc7798891864187665ac6dd119286e44ec13f014527aeeb2b8eb3fd413df93179826040516120b79190614af2565b60405180910390a250565b603b60009054906101000a900460ff1681565b603460009054906101000a900473ffffffffffffffffffffffffffffffffffffffff1673ffffffffffffffffffffffffffffffffffffffff163373ffffffffffffffffffffffffffffffffffffffff1614612165576040517f08c379a000000000000000000000000000000000000000000000000000000000815260040161215c90614a12565b60405180910390fd5b6001603b60036101000a81548160ff0219169083151502179055507fbeb3313724453131feb0a765a03e6715bb720e0f973a31fcbafa2d2f048c188b60405160405180910390a1565b60008060009054906101000a900473ffffffffffffffffffffffffffffffffffffffff16905090565b6000806121e26127e9565b90506036548110156121f8576000915050612232565b60375481111561220d57603554915050612232565b61222e612218610f09565b612220612978565b612d4290919063ffffffff16565b9150505b90565b60385481565b603460009054906101000a900473ffffffffffffffffffffffffffffffffffffffff1673ffffffffffffffffffffffffffffffffffffffff163373ffffffffffffffffffffffffffffffffffffffff16146122cb576040517f08c379a00000000000000000000000000000000000000000000000000000000081526004016122c290614a12565b60405180910390fd5b6000811161230e576040517f08c379a000000000000000000000000000000000000000000000000000000000815260040161230590614892565b60405180910390fd5b806123176113c4565b1015612358576040517f08c379a000000000000000000000000000000000000000000000000000000000815260040161234f90614992565b60405180910390fd5b6123c7603460009054906101000a900473ffffffffffffffffffffffffffffffffffffffff1682603360009054906101000a900473ffffffffffffffffffffffffffffffffffffffff1673ffffffffffffffffffffffffffffffffffffffff16612be99092919063ffffffff16565b603460009054906101000a900473ffffffffffffffffffffffffffffffffffffffff1673ffffffffffffffffffffffffffffffffffffffff167f6352c5382c4a4578e712449ca65e83cdb392d045dfcf1cad9615189db2da244b8260405161242f9190614af2565b60405180910390a250565b600061245860385461244a61140b565b612b9390919063ffffffff16565b905090565b3373ffffffffffffffffffffffffffffffffffffffff1660008054906101000a900473ffffffffffffffffffffffffffffffffffffffff1673ffffffffffffffffffffffffffffffffffffffff16146124eb576040517f08c379a00000000000000000000000000000000000000000000000000000000081526004016124e290614912565b60405180910390fd5b600160028111156124f857fe5b603b60009054906101000a900460ff16600281111561251357fe5b14612553576040517f08c379a000000000000000000000000000000000000000000000000000000000815260040161254a906149d2565b60405180910390fd5b60001515603b60019054906101000a900460ff161515146125a9576040517f08c379a00000000000000000000000000000000000000000000000000000000081526004016125a090614ad2565b60405180910390fd5b60006125c76125b6610e9a565b603554610df590919063ffffffff16565b90506000811161260c576040517f08c379a000000000000000000000000000000000000000000000000000000000815260040161260390614752565b60405180910390fd5b80603d819055506001603b60016101000a81548160ff0219169083151502179055506126826126396121ae565b82603360009054906101000a900473ffffffffffffffffffffffffffffffffffffffff1673ffffffffffffffffffffffffffffffffffffffff16612be99092919063ffffffff16565b603460009054906101000a900473ffffffffffffffffffffffffffffffffffffffff1673ffffffffffffffffffffffffffffffffffffffff167fb73c49a3a37a7aca291ba0ceaa41657012def406106a7fc386888f0f66e941cf826040516126ea9190614af2565b60405180910390a250565b6000612722603d54612714603c54603554610df590919063ffffffff16565b610df590919063ffffffff16565b905090565b6127398a8a8a8a8a8a8a8a8a8a612db2565b6127428b61323c565b5050505050505050505050565b3373ffffffffffffffffffffffffffffffffffffffff1660008054906101000a900473ffffffffffffffffffffffffffffffffffffffff1673ffffffffffffffffffffffffffffffffffffffff16146127dd576040517f08c379a00000000000000000000000000000000000000000000000000000000081526004016127d490614912565b60405180910390fd5b6127e68161323c565b50565b600042905090565b603460009054906101000a900473ffffffffffffffffffffffffffffffffffffffff1673ffffffffffffffffffffffffffffffffffffffff163373ffffffffffffffffffffffffffffffffffffffff1614612881576040517f08c379a000000000000000000000000000000000000000000000000000000000815260040161287890614a12565b60405180910390fd5b600073ffffffffffffffffffffffffffffffffffffffff168173ffffffffffffffffffffffffffffffffffffffff1614156128f1576040517f08c379a00000000000000000000000000000000000000000000000000000000081526004016128e890614832565b60405180910390fd5b80603460006101000a81548173ffffffffffffffffffffffffffffffffffffffff021916908373ffffffffffffffffffffffffffffffffffffffff1602179055507f373c72efabe4ef3e552ff77838be729f3bc3d8c586df0012902d1baa2377fa1d81604051612961919061453c565b60405180910390a150565b603f5481565b60395481565b6000612995600161298761121c565b610df590919063ffffffff16565b905090565b3373ffffffffffffffffffffffffffffffffffffffff1660008054906101000a900473ffffffffffffffffffffffffffffffffffffffff1673ffffffffffffffffffffffffffffffffffffffff1614612a28576040517f08c379a0000000000000000000000000000000000000000000000000000000008152600401612a1f90614912565b60405180910390fd5b600073ffffffffffffffffffffffffffffffffffffffff168173ffffffffffffffffffffffffffffffffffffffff161415612a98576040517f08c379a0000000000000000000000000000000000000000000000000000000008152600401612a8f90614712565b60405180910390fd5b8073ffffffffffffffffffffffffffffffffffffffff1660008054906101000a900473ffffffffffffffffffffffffffffffffffffffff1673ffffffffffffffffffffffffffffffffffffffff167f8be0079c531659141344cd1fd0a4f28419497f9722a3daafe3b4186f6b6457e060405160405180910390a3806000806101000a81548173ffffffffffffffffffffffffffffffffffffffff021916908373ffffffffffffffffffffffffffffffffffffffff16021790555050565b603360009054906101000a900473ffffffffffffffffffffffffffffffffffffffff1681565b6060612b8a84846000856133ba565b90509392505050565b6000808211612bd7576040517f08c379a0000000000000000000000000000000000000000000000000000000008152600401612bce90614812565b60405180910390fd5b818381612be057fe5b04905092915050565b612c6a8363a9059cbb60e01b8484604051602401612c08929190614580565b604051602081830303815290604052907bffffffffffffffffffffffffffffffffffffffffffffffffffffffff19166020820180517bffffffffffffffffffffffffffffffffffffffffffffffffffffffff83818316178352505050506134cf565b505050565b600080603954118015612c8a5750603954612c886127e9565b105b15612c985760009050612d26565b60016002811115612ca557fe5b603b60009054906101000a900460ff166002811115612cc057fe5b148015612ccf57506000603a54115b8015612ce35750603a54612ce16127e9565b105b15612cf15760009050612d26565b6000612d0f603c54612d016121d7565b610df590919063ffffffff16565b9050612d22612d1c610cf9565b82612d29565b9150505b90565b6000818310612d385781612d3a565b825b905092915050565b600080831415612d555760009050612dac565b6000828402905082848281612d6657fe5b0414612da7576040517f08c379a0000000000000000000000000000000000000000000000000000000008152600401612d9e906148f2565b60405180910390fd5b809150505b92915050565b603b60029054906101000a900460ff1615612e02576040517f08c379a0000000000000000000000000000000000000000000000000000000008152600401612df9906149b2565b60405180910390fd5b600073ffffffffffffffffffffffffffffffffffffffff168a73ffffffffffffffffffffffffffffffffffffffff161415612e72576040517f08c379a0000000000000000000000000000000000000000000000000000000008152600401612e6990614772565b60405180910390fd5b600073ffffffffffffffffffffffffffffffffffffffff168973ffffffffffffffffffffffffffffffffffffffff161415612ee2576040517f08c379a0000000000000000000000000000000000000000000000000000000008152600401612ed990614ab2565b60405180910390fd5b600073ffffffffffffffffffffffffffffffffffffffff168873ffffffffffffffffffffffffffffffffffffffff161415612f52576040517f08c379a0000000000000000000000000000000000000000000000000000000008152600401612f4990614a92565b60405180910390fd5b60008711612f95576040517f08c379a0000000000000000000000000000000000000000000000000000000008152600401612f8c906147f2565b60405180910390fd5b6000861415612fd9576040517f08c379a0000000000000000000000000000000000000000000000000000000008152600401612fd090614932565b60405180910390fd5b84861061301b576040517f08c379a0000000000000000000000000000000000000000000000000000000008152600401613012906146d2565b60405180910390fd5b600184101561305f576040517f08c379a0000000000000000000000000000000000000000000000000000000008152600401613056906148d2565b60405180910390fd5b6000600281111561306c57fe5b81600281111561307857fe5b14156130b9576040517f08c379a00000000000000000000000000000000000000000000000000000000081526004016130b0906146f2565b60405180910390fd5b8483106130fb576040517f08c379a00000000000000000000000000000000000000000000000000000000081526004016130f290614a32565b60405180910390fd5b84821061313d576040517f08c379a0000000000000000000000000000000000000000000000000000000008152600401613134906146b2565b60405180910390fd5b6001603b60026101000a81548160ff0219169083151502179055506131618a613596565b88603460006101000a81548173ffffffffffffffffffffffffffffffffffffffff021916908373ffffffffffffffffffffffffffffffffffffffff16021790555087603360006101000a81548173ffffffffffffffffffffffffffffffffffffffff021916908373ffffffffffffffffffffffffffffffffffffffff160217905550866035819055508560368190555084603781905550836038819055508260398190555081603a8190555080603b60006101000a81548160ff0219169083600281111561322b57fe5b021790555050505050505050505050565b600073ffffffffffffffffffffffffffffffffffffffff168173ffffffffffffffffffffffffffffffffffffffff1614156132ac576040517f08c379a00000000000000000000000000000000000000000000000000000000081526004016132a3906149f2565b60405180910390fd5b6132b581613634565b6132f4576040517f08c379a00000000000000000000000000000000000000000000000000000000081526004016132eb90614872565b60405180910390fd5b6000603e60009054906101000a900473ffffffffffffffffffffffffffffffffffffffff16905081603e60006101000a81548173ffffffffffffffffffffffffffffffffffffffff021916908373ffffffffffffffffffffffffffffffffffffffff1602179055508173ffffffffffffffffffffffffffffffffffffffff168173ffffffffffffffffffffffffffffffffffffffff167fdac3632743b879638fd2d51c4d3c1dd796615b4758a55b50b0c19b971ba9fbc760405160405180910390a35050565b6060824710156133ff576040517f08c379a00000000000000000000000000000000000000000000000000000000081526004016133f6906147d2565b60405180910390fd5b61340885613634565b613447576040517f08c379a000000000000000000000000000000000000000000000000000000000815260040161343e90614972565b60405180910390fd5b600060608673ffffffffffffffffffffffffffffffffffffffff1685876040516134719190614525565b60006040518083038185875af1925050503d80600081146134ae576040519150601f19603f3d011682016040523d82523d6000602084013e6134b3565b606091505b50915091506134c3828286613647565b92505050949350505050565b6060613531826040518060400160405280602081526020017f5361666545524332303a206c6f772d6c6576656c2063616c6c206661696c65648152508573ffffffffffffffffffffffffffffffffffffffff16612b7b9092919063ffffffff16565b905060008151111561359157808060200190518101906135519190613932565b613590576040517f08c379a000000000000000000000000000000000000000000000000000000000815260040161358790614a52565b60405180910390fd5b5b505050565b806000806101000a81548173ffffffffffffffffffffffffffffffffffffffff021916908373ffffffffffffffffffffffffffffffffffffffff1602179055508073ffffffffffffffffffffffffffffffffffffffff16600073ffffffffffffffffffffffffffffffffffffffff167f8be0079c531659141344cd1fd0a4f28419497f9722a3daafe3b4186f6b6457e060405160405180910390a350565b600080823b905060008111915050919050565b60608315613657578290506136a7565b60008351111561366a5782518084602001fd5b816040517f08c379a000000000000000000000000000000000000000000000000000000000815260040161369e9190614630565b60405180910390fd5b9392505050565b6000813590506136bd81614ce9565b92915050565b6000815190506136d281614ce9565b92915050565b600082601f8301126136e957600080fd5b81516136fc6136f782614b3e565b614b0d565b9150818183526020840193506020810190508385602084028201111561372157600080fd5b60005b83811015613751578161373788826136c3565b845260208401935060208301925050600181019050613724565b5050505092915050565b60008151905061376a81614d00565b92915050565b60008135905061377f81614d17565b92915050565b60008135905061379481614d27565b92915050565b6000815190506137a981614d27565b92915050565b6000602082840312156137c157600080fd5b60006137cf848285016136ae565b91505092915050565b6000602082840312156137ea57600080fd5b60006137f8848285016136c3565b91505092915050565b60008060008060008060008060008060006101608c8e03121561382357600080fd5b60006138318e828f016136ae565b9b505060206138428e828f016136ae565b9a505060406138538e828f016136ae565b99505060606138648e828f016136ae565b98505060806138758e828f01613785565b97505060a06138868e828f01613785565b96505060c06138978e828f01613785565b95505060e06138a88e828f01613785565b9450506101006138ba8e828f01613785565b9350506101206138cc8e828f01613785565b9250506101406138de8e828f01613770565b9150509295989b509295989b9093969950565b60006020828403121561390357600080fd5b600082015167ffffffffffffffff81111561391d57600080fd5b613929848285016136d8565b91505092915050565b60006020828403121561394457600080fd5b60006139528482850161375b565b91505092915050565b60006020828403121561396d57600080fd5b600061397b84828501613785565b91505092915050565b60006020828403121561399657600080fd5b60006139a48482850161379a565b91505092915050565b6139b681614b9c565b82525050565b6139c581614bae565b82525050565b6139d481614bba565b82525050565b60006139e582614b6a565b6139ef8185614b80565b93506139ff818560208601614c8f565b80840191505092915050565b613a1481614c23565b82525050565b613a2381614c47565b82525050565b613a3281614c6b565b82525050565b613a4181614c7d565b82525050565b6000613a5282614b75565b613a5c8185614b8b565b9350613a6c818560208601614c8f565b613a7581614cc4565b840191505092915050565b6000613a8d600883614b8b565b91507f4261642063616c6c0000000000000000000000000000000000000000000000006000830152602082019050919050565b6000613acd602483614b8b565b91507f5375626a65637420546f6b656e20616464726573732063616e6e6f742062652060008301527f7a65726f000000000000000000000000000000000000000000000000000000006020830152604082019050919050565b6000613b33601b83614b8b565b91507f455448207472616e7366657273206e6f7420737570706f7274656400000000006000830152602082019050919050565b6000613b73602283614b8b565b91507f436c6966662074696d65206d757374206265206265666f726520656e6420746960008301527f6d650000000000000000000000000000000000000000000000000000000000006020830152604082019050919050565b6000613bd9601583614b8b565b91507f53746172742074696d65203e20656e642074696d6500000000000000000000006000830152602082019050919050565b6000613c19601e83614b8b565b91507f4d757374207365742061207265766f636162696c697479206f7074696f6e00006000830152602082019050919050565b6000613c59602683614b8b565b91507f4f776e61626c653a206e6577206f776e657220697320746865207a65726f206160008301527f64647265737300000000000000000000000000000000000000000000000000006020830152604082019050919050565b6000613cbf601b83614b8b565b91507f536166654d6174683a206164646974696f6e206f766572666c6f7700000000006000830152602082019050919050565b6000613cff601c83614b8b565b91507f4e6f20617661696c61626c6520756e76657374656420616d6f756e74000000006000830152602082019050919050565b6000613d3f601483614b8b565b91507f4f776e65722063616e6e6f74206265207a65726f0000000000000000000000006000830152602082019050919050565b6000613d7f601f83614b8b565b91507f43616e6e6f742063616e63656c20616363657074656420636f6e7472616374006000830152602082019050919050565b6000613dbf601e83614b8b565b91507f536166654d6174683a207375627472616374696f6e206f766572666c6f7700006000830152602082019050919050565b6000613dff602683614b8b565b91507f416464726573733a20696e73756666696369656e742062616c616e636520666f60008301527f722063616c6c00000000000000000000000000000000000000000000000000006020830152604082019050919050565b6000613e65601d83614b8b565b91507f4d616e6167656420746f6b656e732063616e6e6f74206265207a65726f0000006000830152602082019050919050565b6000613ea5601a83614b8b565b91507f536166654d6174683a206469766973696f6e206279207a65726f0000000000006000830152602082019050919050565b6000613ee5601183614b8b565b91507f456d7074792062656e65666963696172790000000000000000000000000000006000830152602082019050919050565b6000613f25601383614b8b565b91507f556e617574686f72697a65642063616c6c6572000000000000000000000000006000830152602082019050919050565b6000613f65601a83614b8b565b91507f4d616e61676572206d757374206265206120636f6e74726163740000000000006000830152602082019050919050565b6000613fa5601583614b8b565b91507f416d6f756e742063616e6e6f74206265207a65726f00000000000000000000006000830152602082019050919050565b6000613fe5602983614b8b565b91507f43616e6e6f7420757365206d6f726520746f6b656e73207468616e207665737460008301527f656420616d6f756e7400000000000000000000000000000000000000000000006020830152604082019050919050565b600061404b601f83614b8b565b91507f506572696f64732063616e6e6f742062652062656c6f77206d696e696d756d006000830152602082019050919050565b600061408b602183614b8b565b91507f536166654d6174683a206d756c7469706c69636174696f6e206f766572666c6f60008301527f77000000000000000000000000000000000000000000000000000000000000006020830152604082019050919050565b60006140f1602083614b8b565b91507f4f776e61626c653a2063616c6c6572206973206e6f7420746865206f776e65726000830152602082019050919050565b6000614131601683614b8b565b91507f53746172742074696d65206d75737420626520736574000000000000000000006000830152602082019050919050565b6000614171601583614b8b565b91507f556e617574686f72697a65642066756e6374696f6e00000000000000000000006000830152602082019050919050565b60006141b1601d83614b8b565b91507f416464726573733a2063616c6c20746f206e6f6e2d636f6e74726163740000006000830152602082019050919050565b60006141f1602483614b8b565b91507f416d6f756e7420726571756573746564203e20737572706c757320617661696c60008301527f61626c65000000000000000000000000000000000000000000000000000000006020830152604082019050919050565b6000614257601383614b8b565b91507f416c726561647920696e697469616c697a6564000000000000000000000000006000830152602082019050919050565b6000614297601983614b8b565b91507f436f6e7472616374206973206e6f6e2d7265766f6361626c65000000000000006000830152602082019050919050565b60006142d7601783614b8b565b91507f4d616e616765722063616e6e6f7420626520656d7074790000000000000000006000830152602082019050919050565b6000614317600583614b8b565b91507f21617574680000000000000000000000000000000000000000000000000000006000830152602082019050919050565b6000614357602a83614b8b565b91507f52656c656173652073746172742074696d65206d757374206265206265666f7260008301527f6520656e642074696d65000000000000000000000000000000000000000000006020830152604082019050919050565b60006143bd602a83614b8b565b91507f5361666545524332303a204552433230206f7065726174696f6e20646964206e60008301527f6f742073756363656564000000000000000000000000000000000000000000006020830152604082019050919050565b6000614423601e83614b8b565b91507f4e6f20617661696c61626c652072656c65617361626c6520616d6f756e7400006000830152602082019050919050565b6000614463601483614b8b565b91507f546f6b656e2063616e6e6f74206265207a65726f0000000000000000000000006000830152602082019050919050565b60006144a3601a83614b8b565b91507f42656e65666963696172792063616e6e6f74206265207a65726f0000000000006000830152602082019050919050565b60006144e3600f83614b8b565b91507f416c7265616479207265766f6b656400000000000000000000000000000000006000830152602082019050919050565b61451f81614c19565b82525050565b600061453182846139da565b915081905092915050565b600060208201905061455160008301846139ad565b92915050565b600060408201905061456c60008301856139ad565b6145796020830184613a38565b9392505050565b600060408201905061459560008301856139ad565b6145a26020830184614516565b9392505050565b60006020820190506145be60008301846139bc565b92915050565b60006020820190506145d960008301846139cb565b92915050565b60006020820190506145f46000830184613a0b565b92915050565b600060208201905061460f6000830184613a1a565b92915050565b600060208201905061462a6000830184613a29565b92915050565b6000602082019050818103600083015261464a8184613a47565b905092915050565b6000602082019050818103600083015261466b81613a80565b9050919050565b6000602082019050818103600083015261468b81613ac0565b9050919050565b600060208201905081810360008301526146ab81613b26565b9050919050565b600060208201905081810360008301526146cb81613b66565b9050919050565b600060208201905081810360008301526146eb81613bcc565b9050919050565b6000602082019050818103600083015261470b81613c0c565b9050919050565b6000602082019050818103600083015261472b81613c4c565b9050919050565b6000602082019050818103600083015261474b81613cb2565b9050919050565b6000602082019050818103600083015261476b81613cf2565b9050919050565b6000602082019050818103600083015261478b81613d32565b9050919050565b600060208201905081810360008301526147ab81613d72565b9050919050565b600060208201905081810360008301526147cb81613db2565b9050919050565b600060208201905081810360008301526147eb81613df2565b9050919050565b6000602082019050818103600083015261480b81613e58565b9050919050565b6000602082019050818103600083015261482b81613e98565b9050919050565b6000602082019050818103600083015261484b81613ed8565b9050919050565b6000602082019050818103600083015261486b81613f18565b9050919050565b6000602082019050818103600083015261488b81613f58565b9050919050565b600060208201905081810360008301526148ab81613f98565b9050919050565b600060208201905081810360008301526148cb81613fd8565b9050919050565b600060208201905081810360008301526148eb8161403e565b9050919050565b6000602082019050818103600083015261490b8161407e565b9050919050565b6000602082019050818103600083015261492b816140e4565b9050919050565b6000602082019050818103600083015261494b81614124565b9050919050565b6000602082019050818103600083015261496b81614164565b9050919050565b6000602082019050818103600083015261498b816141a4565b9050919050565b600060208201905081810360008301526149ab816141e4565b9050919050565b600060208201905081810360008301526149cb8161424a565b9050919050565b600060208201905081810360008301526149eb8161428a565b9050919050565b60006020820190508181036000830152614a0b816142ca565b9050919050565b60006020820190508181036000830152614a2b8161430a565b9050919050565b60006020820190508181036000830152614a4b8161434a565b9050919050565b60006020820190508181036000830152614a6b816143b0565b9050919050565b60006020820190508181036000830152614a8b81614416565b9050919050565b60006020820190508181036000830152614aab81614456565b9050919050565b60006020820190508181036000830152614acb81614496565b9050919050565b60006020820190508181036000830152614aeb816144d6565b9050919050565b6000602082019050614b076000830184614516565b92915050565b6000604051905081810181811067ffffffffffffffff82111715614b3457614b33614cc2565b5b8060405250919050565b600067ffffffffffffffff821115614b5957614b58614cc2565b5b602082029050602081019050919050565b600081519050919050565b600081519050919050565b600081905092915050565b600082825260208201905092915050565b6000614ba782614bf9565b9050919050565b60008115159050919050565b60007fffffffff0000000000000000000000000000000000000000000000000000000082169050919050565b6000819050614bf482614cd5565b919050565b600073ffffffffffffffffffffffffffffffffffffffff82169050919050565b6000819050919050565b6000614c2e82614c35565b9050919050565b6000614c4082614bf9565b9050919050565b6000614c5282614c59565b9050919050565b6000614c6482614bf9565b9050919050565b6000614c7682614be6565b9050919050565b6000614c8882614c19565b9050919050565b60005b83811015614cad578082015181840152602081019050614c92565b83811115614cbc576000848401525b50505050565bfe5b6000601f19601f8301169050919050565b60038110614ce657614ce5614cc2565b5b50565b614cf281614b9c565b8114614cfd57600080fd5b50565b614d0981614bae565b8114614d1457600080fd5b50565b60038110614d2457600080fd5b50565b614d3081614c19565b8114614d3b57600080fd5b5056fea26469706673582212208de2b8a0ab571a07d47db3704012687ff8075fc692b4f01002319316a39f42dc64736f6c63430007030033",
  "devdoc": {
    "kind": "dev",
    "methods": {
      "acceptLock()": {
        "details": "Can only be called by the beneficiary"
      },
      "amountPerPeriod()": {
        "returns": {
          "_0": "Amount of tokens available after each period"
        }
      },
      "approveProtocol()": {
        "details": "Approves all token destinations registered in the manager to pull tokens"
      },
      "approveSubjectToken(address)": {
        "details": "Approves all subject token destinations registered in the manager to pull tokens"
      },
      "availableAmount()": {
        "details": "Implements the step-by-step schedule based on periods for available tokens",
        "returns": {
          "_0": "Amount of tokens available according to the schedule"
        }
      },
      "cancelLock()": {
        "details": "Can only be called by the owner"
      },
      "changeBeneficiary(address)": {
        "details": "Can only be called by the beneficiary",
        "params": {
          "_newBeneficiary": "Address of the new beneficiary address"
        }
      },
      "currentBalance()": {
        "returns": {
          "_0": "Tokens held in the contract"
        }
      },
      "currentPeriod()": {
        "returns": {
          "_0": "A number that represents the current period"
        }
      },
      "currentTime()": {
        "returns": {
          "_0": "Current block timestamp"
        }
      },
      "duration()": {
        "returns": {
          "_0": "Amount of seconds from contract startTime to endTime"
        }
      },
      "owner()": {
        "details": "Returns the address of the current owner."
      },
      "passedPeriods()": {
        "returns": {
          "_0": "A number of periods that passed since the schedule started"
        }
      },
      "periodDuration()": {
        "returns": {
          "_0": "Duration of each period in seconds"
        }
      },
      "releasableAmount()": {
        "details": "Considers the schedule, takes into account already released tokens and used amount",
        "returns": {
          "_0": "Amount of tokens ready to be released"
        }
      },
      "release()": {
        "details": "All available releasable tokens are transferred to beneficiary"
      },
      "renounceOwnership()": {
        "details": "Leaves the contract without owner. It will not be possible to call `onlyOwner` functions anymore. Can only be called by the current owner. NOTE: Renouncing ownership will leave the contract without an owner, thereby removing any functionality that is only available to the owner."
      },
      "revoke()": {
        "details": "Vesting schedule is always calculated based on managed tokens"
      },
      "revokeProtocol()": {
        "details": "Revokes approval to all token destinations in the manager to pull tokens"
      },
      "revokeSubjectTokens(address)": {
        "details": "Revokes approval to all subject token destinations in the manager to pull tokens"
      },
      "setManager(address)": {
        "params": {
          "_newManager": "Address of the new manager"
        }
      },
      "sinceStartTime()": {
        "details": "Returns zero if called before conctract starTime",
        "returns": {
          "_0": "Seconds elapsed from contract startTime"
        }
      },
      "surplusAmount()": {
        "details": "All funds over outstanding amount is considered surplus that can be withdrawn by beneficiary. Note this might not be the correct value for wallets transferred to L2 (i.e. an L2MoxieTokenLockWallet), as the released amount will be skewed, so the beneficiary might have to bridge back to L1 to release the surplus.",
        "returns": {
          "_0": "Amount of tokens considered as surplus"
        }
      },
      "totalOutstandingAmount()": {
        "details": "Does not consider schedule but just global amounts tracked",
        "returns": {
          "_0": "Amount of outstanding tokens for the lifetime of the contract"
        }
      },
      "transferOwnership(address)": {
        "details": "Transfers ownership of the contract to a new account (`newOwner`). Can only be called by the current owner."
      },
      "vestedAmount()": {
        "details": "Similar to available amount, but is fully vested when contract is non-revocable",
        "returns": {
          "_0": "Amount of tokens already vested"
        }
      },
      "withdrawSurplus(uint256)": {
        "details": "Tokens in the contract over outstanding amount are considered as surplus",
        "params": {
          "_amount": "Amount of tokens to withdraw"
        }
      }
    },
    "title": "MoxieTokenLockWallet",
    "version": 1
  },
  "userdoc": {
    "kind": "user",
    "methods": {
      "acceptLock()": {
        "notice": "Beneficiary accepts the lock, the owner cannot retrieve back the tokens"
      },
      "amountPerPeriod()": {
        "notice": "Returns amount available to be released after each period according to schedule"
      },
      "approveProtocol()": {
        "notice": "Approves protocol access of the tokens managed by this contract"
      },
      "approveSubjectToken(address)": {
        "notice": "Approves protocol access of the subjecttoken"
      },
      "availableAmount()": {
        "notice": "Gets the currently available token according to the schedule"
      },
      "cancelLock()": {
        "notice": "Owner cancel the lock and return the balance in the contract"
      },
      "changeBeneficiary(address)": {
        "notice": "Change the beneficiary of funds managed by the contract"
      },
      "currentBalance()": {
        "notice": "Returns the amount of tokens currently held by the contract"
      },
      "currentPeriod()": {
        "notice": "Gets the current period based on the schedule"
      },
      "currentTime()": {
        "notice": "Returns the current block timestamp"
      },
      "duration()": {
        "notice": "Gets duration of contract from start to end in seconds"
      },
      "passedPeriods()": {
        "notice": "Gets the number of periods that passed since the first period"
      },
      "periodDuration()": {
        "notice": "Returns the duration of each period in seconds"
      },
      "releasableAmount()": {
        "notice": "Gets tokens currently available for release"
      },
      "release()": {
        "notice": "Releases tokens based on the configured schedule"
      },
      "revoke()": {
        "notice": "Revokes a vesting schedule and return the unvested tokens to the owner"
      },
      "revokeProtocol()": {
        "notice": "Revokes protocol access of the tokens managed by this contract"
      },
      "revokeSubjectTokens(address)": {
        "notice": "Revokes protocol access from the subjecttokens"
      },
      "setManager(address)": {
        "notice": "Sets a new manager for this contract"
      },
      "sinceStartTime()": {
        "notice": "Gets time elapsed since the start of the contract"
      },
      "surplusAmount()": {
        "notice": "Gets surplus amount in the contract based on outstanding amount to release"
      },
      "totalOutstandingAmount()": {
        "notice": "Gets the outstanding amount yet to be released based on the whole contract lifetime"
      },
      "vestedAmount()": {
        "notice": "Gets the amount of currently vested tokens"
      },
      "withdrawSurplus(uint256)": {
        "notice": "Withdraws surplus, unmanaged tokens from the contract"
      }
    },
    "notice": "This contract is built on top of the base MoxieTokenLock functionality. It allows wallet beneficiaries to use the deposited funds to perform specific function calls on specific contracts. The idea is that supporters with locked tokens can participate in the protocol but disallow any release before the vesting/lock schedule. The beneficiary can issue authorized function calls to this contract that will get forwarded to a target contract. A target contract is any of our protocol contracts. The function calls allowed are queried to the MoxieTokenLockManager, this way the same configuration can be shared for all the created lock wallet contracts. NOTE: Contracts used as target must have its function signatures checked to avoid collisions with any of this contract functions. Beneficiaries need to approve the use of the tokens to the protocol contracts. For convenience the maximum amount of tokens is authorized. Function calls do not forward ETH value so DO NOT SEND ETH TO THIS CONTRACT.",
    "version": 1
  },
  "storageLayout": {
    "storage": [
      {
        "astId": 4318,
        "contract": "contracts/MoxieTokenLockWallet.sol:MoxieTokenLockWallet",
        "label": "_owner",
        "offset": 0,
        "slot": "0",
        "type": "t_address"
      },
      {
        "astId": 4323,
        "contract": "contracts/MoxieTokenLockWallet.sol:MoxieTokenLockWallet",
        "label": "__gap",
        "offset": 0,
        "slot": "1",
        "type": "t_array(t_uint256)50_storage"
      },
      {
        "astId": 2227,
        "contract": "contracts/MoxieTokenLockWallet.sol:MoxieTokenLockWallet",
        "label": "token",
        "offset": 0,
        "slot": "51",
        "type": "t_contract(IERC20)554"
      },
      {
        "astId": 2229,
        "contract": "contracts/MoxieTokenLockWallet.sol:MoxieTokenLockWallet",
        "label": "beneficiary",
        "offset": 0,
        "slot": "52",
        "type": "t_address"
      },
      {
        "astId": 2231,
        "contract": "contracts/MoxieTokenLockWallet.sol:MoxieTokenLockWallet",
        "label": "managedAmount",
        "offset": 0,
        "slot": "53",
        "type": "t_uint256"
      },
      {
        "astId": 2233,
        "contract": "contracts/MoxieTokenLockWallet.sol:MoxieTokenLockWallet",
        "label": "startTime",
        "offset": 0,
        "slot": "54",
        "type": "t_uint256"
      },
      {
        "astId": 2235,
        "contract": "contracts/MoxieTokenLockWallet.sol:MoxieTokenLockWallet",
        "label": "endTime",
        "offset": 0,
        "slot": "55",
        "type": "t_uint256"
      },
      {
        "astId": 2237,
        "contract": "contracts/MoxieTokenLockWallet.sol:MoxieTokenLockWallet",
        "label": "periods",
        "offset": 0,
        "slot": "56",
        "type": "t_uint256"
      },
      {
        "astId": 2239,
        "contract": "contracts/MoxieTokenLockWallet.sol:MoxieTokenLockWallet",
        "label": "releaseStartTime",
        "offset": 0,
        "slot": "57",
        "type": "t_uint256"
      },
      {
        "astId": 2241,
        "contract": "contracts/MoxieTokenLockWallet.sol:MoxieTokenLockWallet",
        "label": "vestingCliffTime",
        "offset": 0,
        "slot": "58",
        "type": "t_uint256"
      },
      {
        "astId": 2243,
        "contract": "contracts/MoxieTokenLockWallet.sol:MoxieTokenLockWallet",
        "label": "revocable",
        "offset": 0,
        "slot": "59",
        "type": "t_enum(Revocability)1841"
      },
      {
        "astId": 2245,
        "contract": "contracts/MoxieTokenLockWallet.sol:MoxieTokenLockWallet",
        "label": "isRevoked",
        "offset": 1,
        "slot": "59",
        "type": "t_bool"
      },
      {
        "astId": 2247,
        "contract": "contracts/MoxieTokenLockWallet.sol:MoxieTokenLockWallet",
        "label": "isInitialized",
        "offset": 2,
        "slot": "59",
        "type": "t_bool"
      },
      {
        "astId": 2249,
        "contract": "contracts/MoxieTokenLockWallet.sol:MoxieTokenLockWallet",
        "label": "isAccepted",
        "offset": 3,
        "slot": "59",
        "type": "t_bool"
      },
      {
        "astId": 2251,
        "contract": "contracts/MoxieTokenLockWallet.sol:MoxieTokenLockWallet",
        "label": "releasedAmount",
        "offset": 0,
        "slot": "60",
        "type": "t_uint256"
      },
      {
        "astId": 2253,
        "contract": "contracts/MoxieTokenLockWallet.sol:MoxieTokenLockWallet",
        "label": "revokedAmount",
        "offset": 0,
        "slot": "61",
        "type": "t_uint256"
      },
      {
        "astId": 3797,
        "contract": "contracts/MoxieTokenLockWallet.sol:MoxieTokenLockWallet",
        "label": "manager",
        "offset": 0,
        "slot": "62",
        "type": "t_contract(IMoxieTokenLockManager)2046"
      },
      {
        "astId": 3799,
        "contract": "contracts/MoxieTokenLockWallet.sol:MoxieTokenLockWallet",
        "label": "usedAmount",
        "offset": 0,
        "slot": "63",
        "type": "t_uint256"
      }
    ],
    "types": {
      "t_address": {
        "encoding": "inplace",
        "label": "address",
        "numberOfBytes": "20"
      },
      "t_array(t_uint256)50_storage": {
        "base": "t_uint256",
        "encoding": "inplace",
        "label": "uint256[50]",
        "numberOfBytes": "1600"
      },
      "t_bool": {
        "encoding": "inplace",
        "label": "bool",
        "numberOfBytes": "1"
      },
      "t_contract(IERC20)554": {
        "encoding": "inplace",
        "label": "contract IERC20",
        "numberOfBytes": "20"
      },
      "t_contract(IMoxieTokenLockManager)2046": {
        "encoding": "inplace",
        "label": "contract IMoxieTokenLockManager",
        "numberOfBytes": "20"
      },
      "t_enum(Revocability)1841": {
        "encoding": "inplace",
        "label": "enum IMoxieTokenLock.Revocability",
        "numberOfBytes": "1"
      },
      "t_uint256": {
        "encoding": "inplace",
        "label": "uint256",
        "numberOfBytes": "32"
      }
    }
  }
}