{
  "address": "0x2522f61FeC068b05dE64Dd91C8b1E8Cd2b6515c1",
  "abi": [
    {
      "inputs": [
        {
          "internalType": "contract IERC20",
          "name": "_MoxieToken",
          "type": "address"
        },
        {
          "internalType": "address",
          "name": "_masterCopy",
          "type": "address"
        }
      ],
      "stateMutability": "nonpayable",
      "type": "constructor"
    },
    {
      "anonymous": false,
      "inputs": [
        {
          "indexed": true,
          "internalType": "address",
          "name": "caller",
          "type": "address"
        },
        {
          "indexed": true,
          "internalType": "bytes4",
          "name": "sigHash",
          "type": "bytes4"
        },
        {
          "indexed": true,
          "internalType": "address",
          "name": "target",
          "type": "address"
        },
        {
          "indexed": false,
          "internalType": "string",
          "name": "signature",
          "type": "string"
        }
      ],
      "name": "FunctionCallAuth",
      "type": "event"
    },
    {
      "anonymous": false,
      "inputs": [
        {
          "indexed": true,
          "internalType": "address",
          "name": "masterCopy",
          "type": "address"
        }
      ],
      "name": "MasterCopyUpdated",
      "type": "event"
    },
    {
      "anonymous": false,
      "inputs": [
        {
          "indexed": true,
          "internalType": "address",
          "name": "moxiePassToken",
          "type": "address"
        }
      ],
      "name": "MoxiePassTokenUpdated",
      "type": "event"
    },
    {
      "anonymous": false,
      "inputs": [
        {
          "indexed": true,
          "internalType": "address",
          "name": "previousOwner",
          "type": "address"
        },
        {
          "indexed": true,
          "internalType": "address",
          "name": "newOwner",
          "type": "address"
        }
      ],
      "name": "OwnershipTransferred",
      "type": "event"
    },
    {
      "anonymous": false,
      "inputs": [
        {
          "indexed": true,
          "internalType": "address",
          "name": "proxy",
          "type": "address"
        }
      ],
      "name": "ProxyCreated",
      "type": "event"
    },
    {
      "anonymous": false,
      "inputs": [
        {
          "indexed": true,
          "internalType": "address",
          "name": "dst",
          "type": "address"
        },
        {
          "indexed": false,
          "internalType": "bool",
          "name": "allowed",
          "type": "bool"
        }
      ],
      "name": "TokenDestinationAllowed",
      "type": "event"
    },
    {
      "anonymous": false,
      "inputs": [
        {
          "indexed": true,
          "internalType": "address",
          "name": "contractAddress",
          "type": "address"
        },
        {
          "indexed": true,
          "internalType": "bytes32",
          "name": "initHash",
          "type": "bytes32"
        },
        {
          "indexed": true,
          "internalType": "address",
          "name": "beneficiary",
          "type": "address"
        },
        {
          "indexed": false,
          "internalType": "address",
          "name": "token",
          "type": "address"
        },
        {
          "indexed": false,
          "internalType": "uint256",
          "name": "managedAmount",
          "type": "uint256"
        },
        {
          "indexed": false,
          "internalType": "uint256",
          "name": "startTime",
          "type": "uint256"
        },
        {
          "indexed": false,
          "internalType": "uint256",
          "name": "endTime",
          "type": "uint256"
        },
        {
          "indexed": false,
          "internalType": "uint256",
          "name": "periods",
          "type": "uint256"
        },
        {
          "indexed": false,
          "internalType": "uint256",
          "name": "releaseStartTime",
          "type": "uint256"
        },
        {
          "indexed": false,
          "internalType": "uint256",
          "name": "vestingCliffTime",
          "type": "uint256"
        },
        {
          "indexed": false,
          "internalType": "enum IMoxieTokenLock.Revocability",
          "name": "revocable",
          "type": "uint8"
        }
      ],
      "name": "TokenLockCreated",
      "type": "event"
    },
    {
      "anonymous": false,
      "inputs": [
        {
          "indexed": true,
          "internalType": "address",
          "name": "sender",
          "type": "address"
        },
        {
          "indexed": false,
          "internalType": "uint256",
          "name": "amount",
          "type": "uint256"
        }
      ],
      "name": "TokensDeposited",
      "type": "event"
    },
    {
      "anonymous": false,
      "inputs": [
        {
          "indexed": true,
          "internalType": "address",
          "name": "sender",
          "type": "address"
        },
        {
          "indexed": false,
          "internalType": "uint256",
          "name": "amount",
          "type": "uint256"
        }
      ],
      "name": "TokensWithdrawn",
      "type": "event"
    },
    {
      "inputs": [
        {
          "internalType": "address",
          "name": "_dst",
          "type": "address"
        }
      ],
      "name": "addTokenDestination",
      "outputs": [],
      "stateMutability": "nonpayable",
      "type": "function"
    },
    {
      "inputs": [
        {
          "internalType": "bytes4",
          "name": "",
          "type": "bytes4"
        }
      ],
      "name": "authFnCalls",
      "outputs": [
        {
          "internalType": "address",
          "name": "",
          "type": "address"
        }
      ],
      "stateMutability": "view",
      "type": "function"
    },
    {
      "inputs": [
        {
          "internalType": "address",
          "name": "_owner",
          "type": "address"
        },
        {
          "internalType": "address",
          "name": "_beneficiary",
          "type": "address"
        },
        {
          "internalType": "uint256",
          "name": "_managedAmount",
          "type": "uint256"
        },
        {
          "internalType": "uint256",
          "name": "_startTime",
          "type": "uint256"
        },
        {
          "internalType": "uint256",
          "name": "_endTime",
          "type": "uint256"
        },
        {
          "internalType": "uint256",
          "name": "_periods",
          "type": "uint256"
        },
        {
          "internalType": "uint256",
          "name": "_releaseStartTime",
          "type": "uint256"
        },
        {
          "internalType": "uint256",
          "name": "_vestingCliffTime",
          "type": "uint256"
        },
        {
          "internalType": "enum IMoxieTokenLock.Revocability",
          "name": "_revocable",
          "type": "uint8"
        }
      ],
      "name": "createTokenLockWallet",
      "outputs": [],
      "stateMutability": "nonpayable",
      "type": "function"
    },
    {
      "inputs": [
        {
          "internalType": "uint256",
          "name": "_amount",
          "type": "uint256"
        }
      ],
      "name": "deposit",
      "outputs": [],
      "stateMutability": "nonpayable",
      "type": "function"
    },
    {
      "inputs": [
        {
          "internalType": "bytes4",
          "name": "_sigHash",
          "type": "bytes4"
        }
      ],
      "name": "getAuthFunctionCallTarget",
      "outputs": [
        {
          "internalType": "address",
          "name": "",
          "type": "address"
        }
      ],
      "stateMutability": "view",
      "type": "function"
    },
    {
      "inputs": [
        {
          "internalType": "bytes32",
          "name": "_salt",
          "type": "bytes32"
        },
        {
          "internalType": "address",
          "name": "_implementation",
          "type": "address"
        },
        {
          "internalType": "address",
          "name": "_deployer",
          "type": "address"
        }
      ],
      "name": "getDeploymentAddress",
      "outputs": [
        {
          "internalType": "address",
          "name": "",
          "type": "address"
        }
      ],
      "stateMutability": "pure",
      "type": "function"
    },
    {
      "inputs": [
        {
          "internalType": "bytes32",
          "name": "_salt",
          "type": "bytes32"
        },
        {
          "internalType": "address",
          "name": "_implementation",
          "type": "address"
        }
      ],
      "name": "getDeploymentAddress",
      "outputs": [
        {
          "internalType": "address",
          "name": "",
          "type": "address"
        }
      ],
      "stateMutability": "view",
      "type": "function"
    },
    {
      "inputs": [],
      "name": "getTokenDestinations",
      "outputs": [
        {
          "internalType": "address[]",
          "name": "",
          "type": "address[]"
        }
      ],
      "stateMutability": "view",
      "type": "function"
    },
    {
      "inputs": [
        {
          "internalType": "bytes4",
          "name": "_sigHash",
          "type": "bytes4"
        }
      ],
      "name": "isAuthFunctionCall",
      "outputs": [
        {
          "internalType": "bool",
          "name": "",
          "type": "bool"
        }
      ],
      "stateMutability": "view",
      "type": "function"
    },
    {
      "inputs": [
        {
          "internalType": "address",
          "name": "_dst",
          "type": "address"
        }
      ],
      "name": "isTokenDestination",
      "outputs": [
        {
          "internalType": "bool",
          "name": "",
          "type": "bool"
        }
      ],
      "stateMutability": "view",
      "type": "function"
    },
    {
      "inputs": [],
      "name": "masterCopy",
      "outputs": [
        {
          "internalType": "address",
          "name": "",
          "type": "address"
        }
      ],
      "stateMutability": "view",
      "type": "function"
    },
    {
      "inputs": [],
      "name": "moxiePassToken",
      "outputs": [
        {
          "internalType": "contract IMoxiePass",
          "name": "",
          "type": "address"
        }
      ],
      "stateMutability": "view",
      "type": "function"
    },
    {
      "inputs": [],
      "name": "moxiePassTokenUri",
      "outputs": [
        {
          "internalType": "string",
          "name": "",
          "type": "string"
        }
      ],
      "stateMutability": "view",
      "type": "function"
    },
    {
      "inputs": [],
      "name": "owner",
      "outputs": [
        {
          "internalType": "address",
          "name": "",
          "type": "address"
        }
      ],
      "stateMutability": "view",
      "type": "function"
    },
    {
      "inputs": [
        {
          "internalType": "address",
          "name": "_dst",
          "type": "address"
        }
      ],
      "name": "removeTokenDestination",
      "outputs": [],
      "stateMutability": "nonpayable",
      "type": "function"
    },
    {
      "inputs": [],
      "name": "renounceOwnership",
      "outputs": [],
      "stateMutability": "nonpayable",
      "type": "function"
    },
    {
      "inputs": [
        {
          "internalType": "string",
          "name": "_signature",
          "type": "string"
        },
        {
          "internalType": "address",
          "name": "_target",
          "type": "address"
        }
      ],
      "name": "setAuthFunctionCall",
      "outputs": [],
      "stateMutability": "nonpayable",
      "type": "function"
    },
    {
      "inputs": [
        {
          "internalType": "string[]",
          "name": "_signatures",
          "type": "string[]"
        },
        {
          "internalType": "address[]",
          "name": "_targets",
          "type": "address[]"
        }
      ],
      "name": "setAuthFunctionCallMany",
      "outputs": [],
      "stateMutability": "nonpayable",
      "type": "function"
    },
    {
      "inputs": [
        {
          "internalType": "address",
          "name": "_masterCopy",
          "type": "address"
        }
      ],
      "name": "setMasterCopy",
      "outputs": [],
      "stateMutability": "nonpayable",
      "type": "function"
    },
    {
      "inputs": [
        {
          "internalType": "address",
          "name": "_moxiePassToken",
          "type": "address"
        },
        {
          "internalType": "string",
          "name": "_moxiePassTokenUri",
          "type": "string"
        }
      ],
      "name": "setMoxiePassTokenAndUri",
      "outputs": [],
      "stateMutability": "nonpayable",
      "type": "function"
    },
    {
      "inputs": [],
      "name": "token",
      "outputs": [
        {
          "internalType": "contract IERC20",
          "name": "",
          "type": "address"
        }
      ],
      "stateMutability": "view",
      "type": "function"
    },
    {
      "inputs": [
        {
          "internalType": "address",
          "name": "newOwner",
          "type": "address"
        }
      ],
      "name": "transferOwnership",
      "outputs": [],
      "stateMutability": "nonpayable",
      "type": "function"
    },
    {
      "inputs": [
        {
          "internalType": "string",
          "name": "_signature",
          "type": "string"
        }
      ],
      "name": "unsetAuthFunctionCall",
      "outputs": [],
      "stateMutability": "nonpayable",
      "type": "function"
    },
    {
      "inputs": [
        {
          "internalType": "uint256",
          "name": "_amount",
          "type": "uint256"
        }
      ],
      "name": "withdraw",
      "outputs": [],
      "stateMutability": "nonpayable",
      "type": "function"
    }
  ],
  "transactionHash": "0xc51e185f12a878554af374f3a7845c5be2d0042b00a23f1d18fcf0e7eb527b8f",
  "args": [
    "0xE2b904272D0A1A6c3aFfc0348b2D20349bf04Cbf",
    "0x24945BF3907A21507643F7dC5fab99DED4fd6d7E"
  ],
  "solcInputHash": "c070b6f9e692a7f1ae75e666d68ac6a5",
  "bytecode": "0x60806040523480156200001157600080fd5b506040516200439b3803806200439b83398181016040528101906200003791906200039c565b600062000049620001b460201b60201c565b9050806000806101000a81548173ffffffffffffffffffffffffffffffffffffffff021916908373ffffffffffffffffffffffffffffffffffffffff1602179055508073ffffffffffffffffffffffffffffffffffffffff16600073ffffffffffffffffffffffffffffffffffffffff167f8be0079c531659141344cd1fd0a4f28419497f9722a3daafe3b4186f6b6457e060405160405180910390a350600073ffffffffffffffffffffffffffffffffffffffff168273ffffffffffffffffffffffffffffffffffffffff1614156200015a576040517f08c379a00000000000000000000000000000000000000000000000000000000081526004016200015190620004e7565b60405180910390fd5b81600560006101000a81548173ffffffffffffffffffffffffffffffffffffffff021916908373ffffffffffffffffffffffffffffffffffffffff160217905550620001ac81620001bc60201b60201c565b505062000596565b600033905090565b620001cc620001b460201b60201c565b73ffffffffffffffffffffffffffffffffffffffff16620001f26200034560201b60201c565b73ffffffffffffffffffffffffffffffffffffffff16146200024b576040517f08c379a00000000000000000000000000000000000000000000000000000000081526004016200024290620004c5565b60405180910390fd5b600073ffffffffffffffffffffffffffffffffffffffff168173ffffffffffffffffffffffffffffffffffffffff161415620002be576040517f08c379a0000000000000000000000000000000000000000000000000000000008152600401620002b590620004a3565b60405180910390fd5b80600460006101000a81548173ffffffffffffffffffffffffffffffffffffffff021916908373ffffffffffffffffffffffffffffffffffffffff1602179055508073ffffffffffffffffffffffffffffffffffffffff167f30909084afc859121ffc3a5aef7fe37c540a9a1ef60bd4d8dcdb76376fadf9de60405160405180910390a250565b60008060009054906101000a900473ffffffffffffffffffffffffffffffffffffffff16905090565b6000815190506200037f8162000562565b92915050565b60008151905062000396816200057c565b92915050565b60008060408385031215620003b057600080fd5b6000620003c08582860162000385565b9250506020620003d3858286016200036e565b9150509250929050565b6000620003ec60198362000509565b91507f4d6173746572436f70792063616e6e6f74206265207a65726f000000000000006000830152602082019050919050565b60006200042e60208362000509565b91507f4f776e61626c653a2063616c6c6572206973206e6f7420746865206f776e65726000830152602082019050919050565b60006200047060148362000509565b91507f546f6b656e2063616e6e6f74206265207a65726f0000000000000000000000006000830152602082019050919050565b60006020820190508181036000830152620004be81620003dd565b9050919050565b60006020820190508181036000830152620004e0816200041f565b9050919050565b60006020820190508181036000830152620005028162000461565b9050919050565b600082825260208201905092915050565b6000620005278262000542565b9050919050565b60006200053b826200051a565b9050919050565b600073ffffffffffffffffffffffffffffffffffffffff82169050919050565b6200056d816200051a565b81146200057957600080fd5b50565b62000587816200052e565b81146200059357600080fd5b50565b613df580620005a66000396000f3fe608060405234801561001057600080fd5b50600436106101585760003560e01c80638da5cb5b116100c3578063bdb62fbe1161007c578063bdb62fbe1461039d578063c1ab13db146103cd578063cf497e6c146103e9578063f1d24c4514610405578063f2fde38b14610435578063fc0c546a1461045157610158565b80638da5cb5b146102ed5780639c05fc601461030b578063a345746614610327578063a619486e14610345578063a95c914014610363578063b6b55f251461038157610158565b80635427131211610115578063542713121461022f5780635975e00c1461024b57806368d30c2e146102675780636e03b8dc14610283578063715018a6146102b357806379ee1bdf146102bd57610158565b806303990a6c1461015d5780630602ba2b146101795780631e0c416a146101a95780632e1a7d4d146101c757806343fb93d9146101e3578063463013a214610213575b600080fd5b61017760048036038101906101729190612a63565b61046f565b005b610193600480360381019061018e9190612a3a565b610617565b6040516101a09190613660565b60405180910390f35b6101b1610658565b6040516101be9190613696565b60405180910390f35b6101e160048036038101906101dc9190612b00565b61067e565b005b6101fd60048036038101906101f891906129eb565b6107db565b60405161020a919061346a565b60405180910390f35b61022d60048036038101906102289190612aa8565b610800565b005b610249600480360381019061024491906128bd565b61088c565b005b610265600480360381019061026091906127ce565b610a17565b005b610281600480360381019061027c91906127f7565b610ba8565b005b61029d60048036038101906102989190612a3a565b610f80565b6040516102aa919061346a565b60405180910390f35b6102bb610fb3565b005b6102d760048036038101906102d291906127ce565b6110ed565b6040516102e49190613660565b60405180910390f35b6102f561110a565b604051610302919061346a565b60405180910390f35b61032560048036038101906103209190612911565b611133565b005b61032f611260565b60405161033c919061363e565b60405180910390f35b61034d611338565b60405161035a919061346a565b60405180910390f35b61036b61135e565b60405161037891906136d5565b60405180910390f35b61039b60048036038101906103969190612b00565b6113fc565b005b6103b760048036038101906103b291906129af565b6114df565b6040516103c4919061346a565b60405180910390f35b6103e760048036038101906103e291906127ce565b6114f4565b005b61040360048036038101906103fe91906127ce565b611615565b005b61041f600480360381019061041a9190612a3a565b611788565b60405161042c919061346a565b60405180910390f35b61044f600480360381019061044a91906127ce565b611803565b005b6104596119ac565b604051610466919061367b565b60405180910390f35b6104776119d6565b73ffffffffffffffffffffffffffffffffffffffff1661049561110a565b73ffffffffffffffffffffffffffffffffffffffff16146104eb576040517f08c379a00000000000000000000000000000000000000000000000000000000081526004016104e290613897565b60405180910390fd5b60006104f783836119de565b9050600060016000837bffffffffffffffffffffffffffffffffffffffffffffffffffffffff19167bffffffffffffffffffffffffffffffffffffffffffffffffffffffff1916815260200190815260200160002060006101000a81548173ffffffffffffffffffffffffffffffffffffffff021916908373ffffffffffffffffffffffffffffffffffffffff160217905550600073ffffffffffffffffffffffffffffffffffffffff16817bffffffffffffffffffffffffffffffffffffffffffffffffffffffff19163373ffffffffffffffffffffffffffffffffffffffff167f450397a2db0e89eccfe664cc6cdfd274a88bc00d29aaec4d991754a42f19f8c9868660405161060a9291906136b1565b60405180910390a4505050565b60008073ffffffffffffffffffffffffffffffffffffffff1661063983611788565b73ffffffffffffffffffffffffffffffffffffffff1614159050919050565b600660009054906101000a900473ffffffffffffffffffffffffffffffffffffffff1681565b6106866119d6565b73ffffffffffffffffffffffffffffffffffffffff166106a461110a565b73ffffffffffffffffffffffffffffffffffffffff16146106fa576040517f08c379a00000000000000000000000000000000000000000000000000000000081526004016106f190613897565b60405180910390fd5b6000811161073d576040517f08c379a000000000000000000000000000000000000000000000000000000000815260040161073490613877565b60405180910390fd5b61078a3382600560009054906101000a900473ffffffffffffffffffffffffffffffffffffffff1673ffffffffffffffffffffffffffffffffffffffff16611a6c9092919063ffffffff16565b3373ffffffffffffffffffffffffffffffffffffffff167f6352c5382c4a4578e712449ca65e83cdb392d045dfcf1cad9615189db2da244b826040516107d09190613977565b60405180910390a250565b60006107f7846107ea85611af2565b8051906020012084611b68565b90509392505050565b6108086119d6565b73ffffffffffffffffffffffffffffffffffffffff1661082661110a565b73ffffffffffffffffffffffffffffffffffffffff161461087c576040517f08c379a000000000000000000000000000000000000000000000000000000000815260040161087390613897565b60405180910390fd5b610887838383611bac565b505050565b6108946119d6565b73ffffffffffffffffffffffffffffffffffffffff166108b261110a565b73ffffffffffffffffffffffffffffffffffffffff1614610908576040517f08c379a00000000000000000000000000000000000000000000000000000000081526004016108ff90613897565b60405180910390fd5b600073ffffffffffffffffffffffffffffffffffffffff168273ffffffffffffffffffffffffffffffffffffffff161415610978576040517f08c379a000000000000000000000000000000000000000000000000000000000815260040161096f90613837565b60405180910390fd5b81600660006101000a81548173ffffffffffffffffffffffffffffffffffffffff021916908373ffffffffffffffffffffffffffffffffffffffff16021790555080600790805190602001906109cf92919061256c565b508173ffffffffffffffffffffffffffffffffffffffff167f4e61a6ffbc3747e39d64fc1a8889499533aea16d78797682fd357db98677c93a60405160405180910390a25050565b610a1f6119d6565b73ffffffffffffffffffffffffffffffffffffffff16610a3d61110a565b73ffffffffffffffffffffffffffffffffffffffff1614610a93576040517f08c379a0000000000000000000000000000000000000000000000000000000008152600401610a8a90613897565b60405180910390fd5b600073ffffffffffffffffffffffffffffffffffffffff168173ffffffffffffffffffffffffffffffffffffffff161415610b03576040517f08c379a0000000000000000000000000000000000000000000000000000000008152600401610afa90613757565b60405180910390fd5b610b17816002611d8e90919063ffffffff16565b610b56576040517f08c379a0000000000000000000000000000000000000000000000000000000008152600401610b4d906138d7565b60405180910390fd5b8073ffffffffffffffffffffffffffffffffffffffff167f33442b8c13e72dd75a027f08f9bff4eed2dfd26e43cdea857365f5163b359a796001604051610b9d9190613660565b60405180910390a250565b610bb06119d6565b73ffffffffffffffffffffffffffffffffffffffff16610bce61110a565b73ffffffffffffffffffffffffffffffffffffffff1614610c24576040517f08c379a0000000000000000000000000000000000000000000000000000000008152600401610c1b90613897565b60405180910390fd5b86600560009054906101000a900473ffffffffffffffffffffffffffffffffffffffff1673ffffffffffffffffffffffffffffffffffffffff166370a08231306040518263ffffffff1660e01b8152600401610c80919061346a565b60206040518083038186803b158015610c9857600080fd5b505afa158015610cac573d6000803e3d6000fd5b505050506040513d601f19601f82011682018060405250810190610cd09190612b29565b1015610d11576040517f08c379a0000000000000000000000000000000000000000000000000000000008152600401610d0890613797565b60405180910390fd5b606063bd896dcb60e01b308b8b600560009054906101000a900473ffffffffffffffffffffffffffffffffffffffff168c8c8c8c8c8c8c604051602401610d629b9a99989796959493929190613485565b604051602081830303815290604052907bffffffffffffffffffffffffffffffffffffffffffffffffffffffff19166020820180517bffffffffffffffffffffffffffffffffffffffffffffffffffffffff838183161783525050505090506000610df78280519060200120600460009054906101000a900473ffffffffffffffffffffffffffffffffffffffff1684611dbe565b9050610e46818a600560009054906101000a900473ffffffffffffffffffffffffffffffffffffffff1673ffffffffffffffffffffffffffffffffffffffff16611a6c9092919063ffffffff16565b600660009054906101000a900473ffffffffffffffffffffffffffffffffffffffff1673ffffffffffffffffffffffffffffffffffffffff1663d0def5218260076040518363ffffffff1660e01b8152600401610ea4929190613567565b600060405180830381600087803b158015610ebe57600080fd5b505af1158015610ed2573d6000803e3d6000fd5b505050508973ffffffffffffffffffffffffffffffffffffffff1682805190602001208273ffffffffffffffffffffffffffffffffffffffff167f3c7ff6acee351ed98200c285a04745858a107e16da2f13c3a81a43073c17d644600560009054906101000a900473ffffffffffffffffffffffffffffffffffffffff168d8d8d8d8d8d8d604051610f6b9897969594939291906135c0565b60405180910390a45050505050505050505050565b60016020528060005260406000206000915054906101000a900473ffffffffffffffffffffffffffffffffffffffff1681565b610fbb6119d6565b73ffffffffffffffffffffffffffffffffffffffff16610fd961110a565b73ffffffffffffffffffffffffffffffffffffffff161461102f576040517f08c379a000000000000000000000000000000000000000000000000000000000815260040161102690613897565b60405180910390fd5b600073ffffffffffffffffffffffffffffffffffffffff1660008054906101000a900473ffffffffffffffffffffffffffffffffffffffff1673ffffffffffffffffffffffffffffffffffffffff167f8be0079c531659141344cd1fd0a4f28419497f9722a3daafe3b4186f6b6457e060405160405180910390a360008060006101000a81548173ffffffffffffffffffffffffffffffffffffffff021916908373ffffffffffffffffffffffffffffffffffffffff160217905550565b6000611103826002611e3a90919063ffffffff16565b9050919050565b60008060009054906101000a900473ffffffffffffffffffffffffffffffffffffffff16905090565b61113b6119d6565b73ffffffffffffffffffffffffffffffffffffffff1661115961110a565b73ffffffffffffffffffffffffffffffffffffffff16146111af576040517f08c379a00000000000000000000000000000000000000000000000000000000081526004016111a690613897565b60405180910390fd5b8181905084849050146111f7576040517f08c379a00000000000000000000000000000000000000000000000000000000081526004016111ee90613737565b60405180910390fd5b60005b848490508110156112595761124c85858381811061121457fe5b90506020028101906112269190613992565b85858581811061123257fe5b905060200201602081019061124791906127ce565b611bac565b80806001019150506111fa565b5050505050565b60608061126d6002611e6a565b67ffffffffffffffff8111801561128357600080fd5b506040519080825280602002602001820160405280156112b25781602001602082028036833780820191505090505b50905060005b6112c26002611e6a565b811015611330576112dd816002611e7f90919063ffffffff16565b8282815181106112e957fe5b602002602001019073ffffffffffffffffffffffffffffffffffffffff16908173ffffffffffffffffffffffffffffffffffffffff168152505080806001019150506112b8565b508091505090565b600460009054906101000a900473ffffffffffffffffffffffffffffffffffffffff1681565b60078054600181600116156101000203166002900480601f0160208091040260200160405190810160405280929190818152602001828054600181600116156101000203166002900480156113f45780601f106113c9576101008083540402835291602001916113f4565b820191906000526020600020905b8154815290600101906020018083116113d757829003601f168201915b505050505081565b6000811161143f576040517f08c379a000000000000000000000000000000000000000000000000000000000815260040161143690613877565b60405180910390fd5b61148e333083600560009054906101000a900473ffffffffffffffffffffffffffffffffffffffff1673ffffffffffffffffffffffffffffffffffffffff16611e99909392919063ffffffff16565b3373ffffffffffffffffffffffffffffffffffffffff167f59062170a285eb80e8c6b8ced60428442a51910635005233fc4ce084a475845e826040516114d49190613977565b60405180910390a250565b60006114ec8383306107db565b905092915050565b6114fc6119d6565b73ffffffffffffffffffffffffffffffffffffffff1661151a61110a565b73ffffffffffffffffffffffffffffffffffffffff1614611570576040517f08c379a000000000000000000000000000000000000000000000000000000000815260040161156790613897565b60405180910390fd5b611584816002611f2290919063ffffffff16565b6115c3576040517f08c379a00000000000000000000000000000000000000000000000000000000081526004016115ba906137d7565b60405180910390fd5b8073ffffffffffffffffffffffffffffffffffffffff167f33442b8c13e72dd75a027f08f9bff4eed2dfd26e43cdea857365f5163b359a79600060405161160a9190613660565b60405180910390a250565b61161d6119d6565b73ffffffffffffffffffffffffffffffffffffffff1661163b61110a565b73ffffffffffffffffffffffffffffffffffffffff1614611691576040517f08c379a000000000000000000000000000000000000000000000000000000000815260040161168890613897565b60405180910390fd5b600073ffffffffffffffffffffffffffffffffffffffff168173ffffffffffffffffffffffffffffffffffffffff161415611701576040517f08c379a00000000000000000000000000000000000000000000000000000000081526004016116f8906137f7565b60405180910390fd5b80600460006101000a81548173ffffffffffffffffffffffffffffffffffffffff021916908373ffffffffffffffffffffffffffffffffffffffff1602179055508073ffffffffffffffffffffffffffffffffffffffff167f30909084afc859121ffc3a5aef7fe37c540a9a1ef60bd4d8dcdb76376fadf9de60405160405180910390a250565b600060016000837bffffffffffffffffffffffffffffffffffffffffffffffffffffffff19167bffffffffffffffffffffffffffffffffffffffffffffffffffffffff1916815260200190815260200160002060009054906101000a900473ffffffffffffffffffffffffffffffffffffffff169050919050565b61180b6119d6565b73ffffffffffffffffffffffffffffffffffffffff1661182961110a565b73ffffffffffffffffffffffffffffffffffffffff161461187f576040517f08c379a000000000000000000000000000000000000000000000000000000000815260040161187690613897565b60405180910390fd5b600073ffffffffffffffffffffffffffffffffffffffff168173ffffffffffffffffffffffffffffffffffffffff1614156118ef576040517f08c379a00000000000000000000000000000000000000000000000000000000081526004016118e690613777565b60405180910390fd5b8073ffffffffffffffffffffffffffffffffffffffff1660008054906101000a900473ffffffffffffffffffffffffffffffffffffffff1673ffffffffffffffffffffffffffffffffffffffff167f8be0079c531659141344cd1fd0a4f28419497f9722a3daafe3b4186f6b6457e060405160405180910390a3806000806101000a81548173ffffffffffffffffffffffffffffffffffffffff021916908373ffffffffffffffffffffffffffffffffffffffff16021790555050565b6000600560009054906101000a900473ffffffffffffffffffffffffffffffffffffffff16905090565b600033905090565b6000611a6483836040516024016040516020818303038152906040529190604051611a0a929190613451565b60405180910390207bffffffffffffffffffffffffffffffffffffffffffffffffffffffff19166020820180517bffffffffffffffffffffffffffffffffffffffffffffffffffffffff8381831617835250505050611f52565b905092915050565b611aed8363a9059cbb60e01b8484604051602401611a8b929190613597565b604051602081830303815290604052907bffffffffffffffffffffffffffffffffffffffffffffffffffffffff19166020820180517bffffffffffffffffffffffffffffffffffffffffffffffffffffffff8381831617835250505050611faa565b505050565b60606000693d602d80600a3d3981f360b01b9050600069363d3d373d3d3d363d7360b01b905060008460601b905060006e5af43d82803e903d91602b57fd5bf360881b905083838383604051602001611b4e949392919061339e565b604051602081830303815290604052945050505050919050565b60008060ff60f81b838686604051602001611b8694939291906133ec565b6040516020818303038152906040528051906020012090508060001c9150509392505050565b3073ffffffffffffffffffffffffffffffffffffffff168173ffffffffffffffffffffffffffffffffffffffff161415611c1b576040517f08c379a0000000000000000000000000000000000000000000000000000000008152600401611c1290613817565b60405180910390fd5b611c2481612071565b611c63576040517f08c379a0000000000000000000000000000000000000000000000000000000008152600401611c5a90613957565b60405180910390fd5b6000611c6f84846119de565b90508160016000837bffffffffffffffffffffffffffffffffffffffffffffffffffffffff19167bffffffffffffffffffffffffffffffffffffffffffffffffffffffff1916815260200190815260200160002060006101000a81548173ffffffffffffffffffffffffffffffffffffffff021916908373ffffffffffffffffffffffffffffffffffffffff1602179055508173ffffffffffffffffffffffffffffffffffffffff16817bffffffffffffffffffffffffffffffffffffffffffffffffffffffff19163373ffffffffffffffffffffffffffffffffffffffff167f450397a2db0e89eccfe664cc6cdfd274a88bc00d29aaec4d991754a42f19f8c98787604051611d809291906136b1565b60405180910390a450505050565b6000611db6836000018373ffffffffffffffffffffffffffffffffffffffff1660001b612084565b905092915050565b600080611dd5600086611dd087611af2565b6120f4565b90508073ffffffffffffffffffffffffffffffffffffffff167efffc2da0b561cae30d9826d37709e9421c4725faebc226cbbb7ef5fc5e734960405160405180910390a2600083511115611e2f57611e2d8184612205565b505b809150509392505050565b6000611e62836000018373ffffffffffffffffffffffffffffffffffffffff1660001b61224f565b905092915050565b6000611e7882600001612272565b9050919050565b6000611e8e8360000183612283565b60001c905092915050565b611f1c846323b872dd60e01b858585604051602401611eba93929190613530565b604051602081830303815290604052907bffffffffffffffffffffffffffffffffffffffffffffffffffffffff19166020820180517bffffffffffffffffffffffffffffffffffffffffffffffffffffffff8381831617835250505050611faa565b50505050565b6000611f4a836000018373ffffffffffffffffffffffffffffffffffffffff1660001b6122f0565b905092915050565b60006004825114611f98576040517f08c379a0000000000000000000000000000000000000000000000000000000008152600401611f8f906138b7565b60405180910390fd5b60006020830151905080915050919050565b606061200c826040518060400160405280602081526020017f5361666545524332303a206c6f772d6c6576656c2063616c6c206661696c65648152508573ffffffffffffffffffffffffffffffffffffffff166123d89092919063ffffffff16565b905060008151111561206c578080602001905181019061202c9190612986565b61206b576040517f08c379a000000000000000000000000000000000000000000000000000000000815260040161206290613917565b60405180910390fd5b5b505050565b600080823b905060008111915050919050565b6000612090838361224f565b6120e95782600001829080600181540180825580915050600190039060005260206000200160009091909190915055826000018054905083600101600084815260200190815260200160002081905550600190506120ee565b600090505b92915050565b6000808447101561213a576040517f08c379a000000000000000000000000000000000000000000000000000000000815260040161213190613937565b60405180910390fd5b60008351141561217f576040517f08c379a000000000000000000000000000000000000000000000000000000000815260040161217690613717565b60405180910390fd5b8383516020850187f59050600073ffffffffffffffffffffffffffffffffffffffff168173ffffffffffffffffffffffffffffffffffffffff1614156121fa576040517f08c379a00000000000000000000000000000000000000000000000000000000081526004016121f190613857565b60405180910390fd5b809150509392505050565b606061224783836040518060400160405280601e81526020017f416464726573733a206c6f772d6c6576656c2063616c6c206661696c656400008152506123d8565b905092915050565b600080836001016000848152602001908152602001600020541415905092915050565b600081600001805490509050919050565b6000818360000180549050116122ce576040517f08c379a00000000000000000000000000000000000000000000000000000000081526004016122c5906136f7565b60405180910390fd5b8260000182815481106122dd57fe5b9060005260206000200154905092915050565b600080836001016000848152602001908152602001600020549050600081146123cc576000600182039050600060018660000180549050039050600086600001828154811061233b57fe5b906000526020600020015490508087600001848154811061235857fe5b906000526020600020018190555060018301876001016000838152602001908152602001600020819055508660000180548061239057fe5b600190038181906000526020600020016000905590558660010160008781526020019081526020016000206000905560019450505050506123d2565b60009150505b92915050565b60606123e784846000856123f0565b90509392505050565b606082471015612435576040517f08c379a000000000000000000000000000000000000000000000000000000000815260040161242c906137b7565b60405180910390fd5b61243e85612071565b61247d576040517f08c379a0000000000000000000000000000000000000000000000000000000008152600401612474906138f7565b60405180910390fd5b600060608673ffffffffffffffffffffffffffffffffffffffff1685876040516124a7919061343a565b60006040518083038185875af1925050503d80600081146124e4576040519150601f19603f3d011682016040523d82523d6000602084013e6124e9565b606091505b50915091506124f9828286612505565b92505050949350505050565b6060831561251557829050612565565b6000835111156125285782518084602001fd5b816040517f08c379a000000000000000000000000000000000000000000000000000000000815260040161255c91906136d5565b60405180910390fd5b9392505050565b828054600181600116156101000203166002900490600052602060002090601f016020900481019282601f106125ad57805160ff19168380011785556125db565b828001600101855582156125db579182015b828111156125da5782518255916020019190600101906125bf565b5b5090506125e891906125ec565b5090565b5b808211156126055760008160009055506001016125ed565b5090565b60008135905061261881613d3c565b92915050565b60008083601f84011261263057600080fd5b8235905067ffffffffffffffff81111561264957600080fd5b60208301915083602082028301111561266157600080fd5b9250929050565b60008083601f84011261267a57600080fd5b8235905067ffffffffffffffff81111561269357600080fd5b6020830191508360208202830111156126ab57600080fd5b9250929050565b6000815190506126c181613d53565b92915050565b6000813590506126d681613d6a565b92915050565b6000813590506126eb81613d81565b92915050565b60008135905061270081613d98565b92915050565b60008083601f84011261271857600080fd5b8235905067ffffffffffffffff81111561273157600080fd5b60208301915083600182028301111561274957600080fd5b9250929050565b600082601f83011261276157600080fd5b813561277461276f82613a1a565b6139e9565b9150808252602083016020830185838301111561279057600080fd5b61279b838284613c70565b50505092915050565b6000813590506127b381613da8565b92915050565b6000815190506127c881613da8565b92915050565b6000602082840312156127e057600080fd5b60006127ee84828501612609565b91505092915050565b60008060008060008060008060006101208a8c03121561281657600080fd5b60006128248c828d01612609565b99505060206128358c828d01612609565b98505060406128468c828d016127a4565b97505060606128578c828d016127a4565b96505060806128688c828d016127a4565b95505060a06128798c828d016127a4565b94505060c061288a8c828d016127a4565b93505060e061289b8c828d016127a4565b9250506101006128ad8c828d016126f1565b9150509295985092959850929598565b600080604083850312156128d057600080fd5b60006128de85828601612609565b925050602083013567ffffffffffffffff8111156128fb57600080fd5b61290785828601612750565b9150509250929050565b6000806000806040858703121561292757600080fd5b600085013567ffffffffffffffff81111561294157600080fd5b61294d87828801612668565b9450945050602085013567ffffffffffffffff81111561296c57600080fd5b6129788782880161261e565b925092505092959194509250565b60006020828403121561299857600080fd5b60006129a6848285016126b2565b91505092915050565b600080604083850312156129c257600080fd5b60006129d0858286016126c7565b92505060206129e185828601612609565b9150509250929050565b600080600060608486031215612a0057600080fd5b6000612a0e868287016126c7565b9350506020612a1f86828701612609565b9250506040612a3086828701612609565b9150509250925092565b600060208284031215612a4c57600080fd5b6000612a5a848285016126dc565b91505092915050565b60008060208385031215612a7657600080fd5b600083013567ffffffffffffffff811115612a9057600080fd5b612a9c85828601612706565b92509250509250929050565b600080600060408486031215612abd57600080fd5b600084013567ffffffffffffffff811115612ad757600080fd5b612ae386828701612706565b93509350506020612af686828701612609565b9150509250925092565b600060208284031215612b1257600080fd5b6000612b20848285016127a4565b91505092915050565b600060208284031215612b3b57600080fd5b6000612b49848285016127b9565b91505092915050565b6000612b5e8383612b6a565b60208301905092915050565b612b7381613ad5565b82525050565b612b8281613ad5565b82525050565b612b99612b9482613ad5565b613cb2565b82525050565b6000612baa82613a6f565b612bb48185613a9d565b9350612bbf83613a4a565b8060005b83811015612bf0578151612bd78882612b52565b9750612be283613a90565b925050600181019050612bc3565b5085935050505092915050565b612c0681613ae7565b82525050565b612c1d612c1882613b1f565b613cce565b82525050565b612c34612c2f82613b4b565b613cd8565b82525050565b612c4b612c4682613af3565b613cc4565b82525050565b612c62612c5d82613b77565b613ce2565b82525050565b612c79612c7482613ba3565b613cec565b82525050565b6000612c8a82613a7a565b612c948185613aae565b9350612ca4818560208601613c7f565b80840191505092915050565b612cb981613c16565b82525050565b612cc881613c3a565b82525050565b612cd781613c5e565b82525050565b6000612ce98385613ab9565b9350612cf6838584613c70565b612cff83613d0a565b840190509392505050565b6000612d168385613aca565b9350612d23838584613c70565b82840190509392505050565b6000612d3a82613a85565b612d448185613ab9565b9350612d54818560208601613c7f565b612d5d81613d0a565b840191505092915050565b600081546001811660008114612d855760018114612dab57612def565b607f6002830416612d968187613ab9565b955060ff198316865260208601935050612def565b60028204612db98187613ab9565b9550612dc485613a5a565b60005b82811015612de657815481890152600182019150602081019050612dc7565b80880195505050505b505092915050565b6000612e04602283613ab9565b91507f456e756d657261626c655365743a20696e646578206f7574206f6620626f756e60008301527f64730000000000000000000000000000000000000000000000000000000000006020830152604082019050919050565b6000612e6a602083613ab9565b91507f437265617465323a2062797465636f6465206c656e677468206973207a65726f6000830152602082019050919050565b6000612eaa601583613ab9565b91507f4172726179206c656e677468206d69736d6174636800000000000000000000006000830152602082019050919050565b6000612eea601a83613ab9565b91507f44657374696e6174696f6e2063616e6e6f74206265207a65726f0000000000006000830152602082019050919050565b6000612f2a602683613ab9565b91507f4f776e61626c653a206e6577206f776e657220697320746865207a65726f206160008301527f64647265737300000000000000000000000000000000000000000000000000006020830152604082019050919050565b6000612f90602083613ab9565b91507f4e6f7420656e6f75676820746f6b656e7320746f20637265617465206c6f636b6000830152602082019050919050565b6000612fd0602683613ab9565b91507f416464726573733a20696e73756666696369656e742062616c616e636520666f60008301527f722063616c6c00000000000000000000000000000000000000000000000000006020830152604082019050919050565b6000613036601b83613ab9565b91507f44657374696e6174696f6e20616c72656164792072656d6f76656400000000006000830152602082019050919050565b6000613076601983613ab9565b91507f4d6173746572436f70792063616e6e6f74206265207a65726f000000000000006000830152602082019050919050565b60006130b6601d83613ab9565b91507f546172676574206d757374206265206f7468657220636f6e74726163740000006000830152602082019050919050565b60006130f6601d83613ab9565b91507f4d6f78696550617373546f6b656e2063616e6e6f74206265207a65726f0000006000830152602082019050919050565b6000613136601983613ab9565b91507f437265617465323a204661696c6564206f6e206465706c6f79000000000000006000830152602082019050919050565b6000613176601583613ab9565b91507f416d6f756e742063616e6e6f74206265207a65726f00000000000000000000006000830152602082019050919050565b60006131b6602083613ab9565b91507f4f776e61626c653a2063616c6c6572206973206e6f7420746865206f776e65726000830152602082019050919050565b60006131f6601883613ab9565b91507f496e76616c6964206d6574686f64207369676e617475726500000000000000006000830152602082019050919050565b6000613236601983613ab9565b91507f44657374696e6174696f6e20616c7265616479206164646564000000000000006000830152602082019050919050565b6000613276601d83613ab9565b91507f416464726573733a2063616c6c20746f206e6f6e2d636f6e74726163740000006000830152602082019050919050565b60006132b6602a83613ab9565b91507f5361666545524332303a204552433230206f7065726174696f6e20646964206e60008301527f6f742073756363656564000000000000000000000000000000000000000000006020830152604082019050919050565b600061331c601d83613ab9565b91507f437265617465323a20696e73756666696369656e742062616c616e63650000006000830152602082019050919050565b600061335c601983613ab9565b91507f546172676574206d757374206265206120636f6e7472616374000000000000006000830152602082019050919050565b61339881613c0c565b82525050565b60006133aa8287612c0c565b600a820191506133ba8286612c0c565b600a820191506133ca8285612c51565b6014820191506133da8284612c23565b600f8201915081905095945050505050565b60006133f88287612c3a565b6001820191506134088286612b88565b6014820191506134188285612c68565b6020820191506134288284612c68565b60208201915081905095945050505050565b60006134468284612c7f565b915081905092915050565b600061345e828486612d0a565b91508190509392505050565b600060208201905061347f6000830184612b79565b92915050565b60006101608201905061349b600083018e612b79565b6134a8602083018d612b79565b6134b5604083018c612b79565b6134c2606083018b612b79565b6134cf608083018a61338f565b6134dc60a083018961338f565b6134e960c083018861338f565b6134f660e083018761338f565b61350461010083018661338f565b61351261012083018561338f565b613520610140830184612cce565b9c9b505050505050505050505050565b60006060820190506135456000830186612b79565b6135526020830185612b79565b61355f604083018461338f565b949350505050565b600060408201905061357c6000830185612b79565b818103602083015261358e8184612d68565b90509392505050565b60006040820190506135ac6000830185612b79565b6135b9602083018461338f565b9392505050565b6000610100820190506135d6600083018b612b79565b6135e3602083018a61338f565b6135f0604083018961338f565b6135fd606083018861338f565b61360a608083018761338f565b61361760a083018661338f565b61362460c083018561338f565b61363160e0830184612cce565b9998505050505050505050565b600060208201905081810360008301526136588184612b9f565b905092915050565b60006020820190506136756000830184612bfd565b92915050565b60006020820190506136906000830184612cb0565b92915050565b60006020820190506136ab6000830184612cbf565b92915050565b600060208201905081810360008301526136cc818486612cdd565b90509392505050565b600060208201905081810360008301526136ef8184612d2f565b905092915050565b6000602082019050818103600083015261371081612df7565b9050919050565b6000602082019050818103600083015261373081612e5d565b9050919050565b6000602082019050818103600083015261375081612e9d565b9050919050565b6000602082019050818103600083015261377081612edd565b9050919050565b6000602082019050818103600083015261379081612f1d565b9050919050565b600060208201905081810360008301526137b081612f83565b9050919050565b600060208201905081810360008301526137d081612fc3565b9050919050565b600060208201905081810360008301526137f081613029565b9050919050565b6000602082019050818103600083015261381081613069565b9050919050565b60006020820190508181036000830152613830816130a9565b9050919050565b60006020820190508181036000830152613850816130e9565b9050919050565b6000602082019050818103600083015261387081613129565b9050919050565b6000602082019050818103600083015261389081613169565b9050919050565b600060208201905081810360008301526138b0816131a9565b9050919050565b600060208201905081810360008301526138d0816131e9565b9050919050565b600060208201905081810360008301526138f081613229565b9050919050565b6000602082019050818103600083015261391081613269565b9050919050565b60006020820190508181036000830152613930816132a9565b9050919050565b600060208201905081810360008301526139508161330f565b9050919050565b600060208201905081810360008301526139708161334f565b9050919050565b600060208201905061398c600083018461338f565b92915050565b600080833560016020038436030381126139ab57600080fd5b80840192508235915067ffffffffffffffff8211156139c957600080fd5b6020830192506001820236038313156139e157600080fd5b509250929050565b6000604051905081810181811067ffffffffffffffff82111715613a1057613a0f613d08565b5b8060405250919050565b600067ffffffffffffffff821115613a3557613a34613d08565b5b601f19601f8301169050602081019050919050565b6000819050602082019050919050565b60008190508160005260206000209050919050565b600081519050919050565b600081519050919050565b600081519050919050565b6000602082019050919050565b600082825260208201905092915050565b600081905092915050565b600082825260208201905092915050565b600081905092915050565b6000613ae082613bec565b9050919050565b60008115159050919050565b60007fff0000000000000000000000000000000000000000000000000000000000000082169050919050565b60007fffffffffffffffffffff0000000000000000000000000000000000000000000082169050919050565b60007fffffffffffffffffffffffffffffff000000000000000000000000000000000082169050919050565b60007fffffffffffffffffffffffffffffffffffffffff00000000000000000000000082169050919050565b6000819050919050565b60007fffffffff0000000000000000000000000000000000000000000000000000000082169050919050565b6000819050613be782613d28565b919050565b600073ffffffffffffffffffffffffffffffffffffffff82169050919050565b6000819050919050565b6000613c2182613c28565b9050919050565b6000613c3382613bec565b9050919050565b6000613c4582613c4c565b9050919050565b6000613c5782613bec565b9050919050565b6000613c6982613bd9565b9050919050565b82818337600083830152505050565b60005b83811015613c9d578082015181840152602081019050613c82565b83811115613cac576000848401525b50505050565b6000613cbd82613cf6565b9050919050565b6000819050919050565b6000819050919050565b6000819050919050565b6000819050919050565b6000819050919050565b6000613d0182613d1b565b9050919050565bfe5b6000601f19601f8301169050919050565b60008160601b9050919050565b60038110613d3957613d38613d08565b5b50565b613d4581613ad5565b8114613d5057600080fd5b50565b613d5c81613ae7565b8114613d6757600080fd5b50565b613d7381613ba3565b8114613d7e57600080fd5b50565b613d8a81613bad565b8114613d9557600080fd5b50565b60038110613da557600080fd5b50565b613db181613c0c565b8114613dbc57600080fd5b5056fea26469706673582212209f91408b1e463b8b5bc440badf13545f40bea6f1d4d91bc51a673b29de17c4d164736f6c63430007030033",
  "devdoc": {
    "kind": "dev",
    "methods": {
      "addTokenDestination(address)": {
        "params": {
          "_dst": "Destination address"
        }
      },
      "constructor": {
        "params": {
          "_MoxieToken": "Token to use for deposits and withdrawals",
          "_masterCopy": "Address of the master copy to use to clone proxies"
        }
      },
      "createTokenLockWallet(address,address,uint256,uint256,uint256,uint256,uint256,uint256,uint8)": {
        "params": {
          "_beneficiary": "Address of the beneficiary of locked tokens",
          "_endTime": "End time of the release schedule",
          "_managedAmount": "Amount of tokens to be managed by the lock contract",
          "_owner": "Address of the contract owner",
          "_periods": "Number of periods between start time and end time",
          "_releaseStartTime": "Override time for when the releases start",
          "_revocable": "Whether the contract is revocable",
          "_startTime": "Start time of the release schedule"
        }
      },
      "deposit(uint256)": {
        "details": "Even if the ERC20 token can be transferred directly to the contract this function provide a safe interface to do the transfer and avoid mistakes",
        "params": {
          "_amount": "Amount to deposit"
        }
      },
      "getAuthFunctionCallTarget(bytes4)": {
        "params": {
          "_sigHash": "Function signature hash"
        },
        "returns": {
          "_0": "Address of the target contract where to send the call"
        }
      },
      "getDeploymentAddress(bytes32,address)": {
        "details": "Uses address(this) as deployer to compute the address. Only for backwards compatibility.",
        "params": {
          "_implementation": "Address of the proxy target implementation",
          "_salt": "Bytes32 salt to use for CREATE2"
        },
        "returns": {
          "_0": "Address of the counterfactual MinimalProxy"
        }
      },
      "getDeploymentAddress(bytes32,address,address)": {
        "params": {
          "_deployer": "Address of the deployer that creates the contract",
          "_implementation": "Address of the proxy target implementation",
          "_salt": "Bytes32 salt to use for CREATE2"
        },
        "returns": {
          "_0": "Address of the counterfactual MinimalProxy"
        }
      },
      "getTokenDestinations()": {
        "returns": {
          "_0": "Array of addresses authorized to pull funds from a token lock"
        }
      },
      "isAuthFunctionCall(bytes4)": {
        "params": {
          "_sigHash": "Function signature hash"
        },
        "returns": {
          "_0": "True if authorized"
        }
      },
      "isTokenDestination(address)": {
        "params": {
          "_dst": "Destination address"
        },
        "returns": {
          "_0": "True if authorized"
        }
      },
      "owner()": {
        "details": "Returns the address of the current owner."
      },
      "removeTokenDestination(address)": {
        "params": {
          "_dst": "Destination address"
        }
      },
      "renounceOwnership()": {
        "details": "Leaves the contract without owner. It will not be possible to call `onlyOwner` functions anymore. Can only be called by the current owner. NOTE: Renouncing ownership will leave the contract without an owner, thereby removing any functionality that is only available to the owner."
      },
      "setAuthFunctionCall(string,address)": {
        "details": "Input expected is the function signature as 'transfer(address,uint256)'",
        "params": {
          "_signature": "Function signature",
          "_target": "Address of the destination contract to call"
        }
      },
      "setAuthFunctionCallMany(string[],address[])": {
        "details": "Input expected is the function signature as 'transfer(address,uint256)'",
        "params": {
          "_signatures": "Function signatures",
          "_targets": "Address of the destination contract to call"
        }
      },
      "setMasterCopy(address)": {
        "params": {
          "_masterCopy": "Address of contract bytecode to factory clone"
        }
      },
      "setMoxiePassTokenAndUri(address,string)": {
        "params": {
          "_moxiePassTokenUri": "Address of the MoxiePassToken contract"
        }
      },
      "token()": {
        "returns": {
          "_0": "Token used for transfers and approvals"
        }
      },
      "transferOwnership(address)": {
        "details": "Transfers ownership of the contract to a new account (`newOwner`). Can only be called by the current owner."
      },
      "unsetAuthFunctionCall(string)": {
        "details": "Input expected is the function signature as 'transfer(address,uint256)'",
        "params": {
          "_signature": "Function signature"
        }
      },
      "withdraw(uint256)": {
        "details": "Escape hatch in case of mistakes or to recover remaining funds",
        "params": {
          "_amount": "Amount of tokens to withdraw"
        }
      }
    },
    "title": "MoxieTokenLockManager",
    "version": 1
  },
  "userdoc": {
    "kind": "user",
    "methods": {
      "addTokenDestination(address)": {
        "notice": "Adds an address that can be allowed by a token lock to pull funds"
      },
      "constructor": {
        "notice": "Constructor."
      },
      "createTokenLockWallet(address,address,uint256,uint256,uint256,uint256,uint256,uint256,uint8)": {
        "notice": "Creates and fund a new token lock wallet using a minimum proxy"
      },
      "deposit(uint256)": {
        "notice": "Deposits tokens into the contract"
      },
      "getAuthFunctionCallTarget(bytes4)": {
        "notice": "Gets the target contract to call for a particular function signature"
      },
      "getDeploymentAddress(bytes32,address)": {
        "notice": "Gets the deterministic CREATE2 address for MinimalProxy with a particular implementation"
      },
      "getDeploymentAddress(bytes32,address,address)": {
        "notice": "Gets the deterministic CREATE2 address for MinimalProxy with a particular implementation"
      },
      "getTokenDestinations()": {
        "notice": "Returns an array of authorized destination addresses"
      },
      "isAuthFunctionCall(bytes4)": {
        "notice": "Returns true if the function call is authorized"
      },
      "isTokenDestination(address)": {
        "notice": "Returns True if the address is authorized to be a destination of tokens"
      },
      "removeTokenDestination(address)": {
        "notice": "Removes an address that can be allowed by a token lock to pull funds"
      },
      "setAuthFunctionCall(string,address)": {
        "notice": "Sets an authorized function call to target"
      },
      "setAuthFunctionCallMany(string[],address[])": {
        "notice": "Sets an authorized function call to target in bulk"
      },
      "setMasterCopy(address)": {
        "notice": "Sets the masterCopy bytecode to use to create clones of TokenLock contracts"
      },
      "setMoxiePassTokenAndUri(address,string)": {
        "notice": "Sets the MoxiePassToken contract address to mint on every token lock creation"
      },
      "token()": {
        "notice": "Gets the MOXIE token address"
      },
      "unsetAuthFunctionCall(string)": {
        "notice": "Unsets an authorized function call to target"
      },
      "withdraw(uint256)": {
        "notice": "Withdraws tokens from the contract"
      }
    },
    "notice": "This contract manages a list of authorized function calls and targets that can be called by any TokenLockWallet contract and it is a factory of TokenLockWallet contracts. This contract receives funds to make the process of creating TokenLockWallet contracts easier by distributing them the initial tokens to be managed. The owner can setup a list of token destinations that will be used by TokenLock contracts to approve the pulling of funds, this way in can be guaranteed that only protocol contracts will manipulate users funds.",
    "version": 1
  },
  "storageLayout": {
    "storage": [
      {
        "astId": 7,
        "contract": "contracts/MoxieTokenLockManager.sol:MoxieTokenLockManager",
        "label": "_owner",
        "offset": 0,
        "slot": "0",
        "type": "t_address"
      },
      {
        "astId": 2932,
        "contract": "contracts/MoxieTokenLockManager.sol:MoxieTokenLockManager",
        "label": "authFnCalls",
        "offset": 0,
        "slot": "1",
        "type": "t_mapping(t_bytes4,t_address)"
      },
      {
        "astId": 2934,
        "contract": "contracts/MoxieTokenLockManager.sol:MoxieTokenLockManager",
        "label": "_tokenDestinations",
        "offset": 0,
        "slot": "2",
        "type": "t_struct(AddressSet)1589_storage"
      },
      {
        "astId": 2936,
        "contract": "contracts/MoxieTokenLockManager.sol:MoxieTokenLockManager",
        "label": "masterCopy",
        "offset": 0,
        "slot": "4",
        "type": "t_address"
      },
      {
        "astId": 2938,
        "contract": "contracts/MoxieTokenLockManager.sol:MoxieTokenLockManager",
        "label": "_token",
        "offset": 0,
        "slot": "5",
        "type": "t_contract(IERC20)554"
      },
      {
        "astId": 2940,
        "contract": "contracts/MoxieTokenLockManager.sol:MoxieTokenLockManager",
        "label": "moxiePassToken",
        "offset": 0,
        "slot": "6",
        "type": "t_contract(IMoxiePass)1815"
      },
      {
        "astId": 2942,
        "contract": "contracts/MoxieTokenLockManager.sol:MoxieTokenLockManager",
        "label": "moxiePassTokenUri",
        "offset": 0,
        "slot": "7",
        "type": "t_string_storage"
      }
    ],
    "types": {
      "t_address": {
        "encoding": "inplace",
        "label": "address",
        "numberOfBytes": "20"
      },
      "t_array(t_bytes32)dyn_storage": {
        "base": "t_bytes32",
        "encoding": "dynamic_array",
        "label": "bytes32[]",
        "numberOfBytes": "32"
      },
      "t_bytes32": {
        "encoding": "inplace",
        "label": "bytes32",
        "numberOfBytes": "32"
      },
      "t_bytes4": {
        "encoding": "inplace",
        "label": "bytes4",
        "numberOfBytes": "4"
      },
      "t_contract(IERC20)554": {
        "encoding": "inplace",
        "label": "contract IERC20",
        "numberOfBytes": "20"
      },
      "t_contract(IMoxiePass)1815": {
        "encoding": "inplace",
        "label": "contract IMoxiePass",
        "numberOfBytes": "20"
      },
      "t_mapping(t_bytes32,t_uint256)": {
        "encoding": "mapping",
        "key": "t_bytes32",
        "label": "mapping(bytes32 => uint256)",
        "numberOfBytes": "32",
        "value": "t_uint256"
      },
      "t_mapping(t_bytes4,t_address)": {
        "encoding": "mapping",
        "key": "t_bytes4",
        "label": "mapping(bytes4 => address)",
        "numberOfBytes": "32",
        "value": "t_address"
      },
      "t_string_storage": {
        "encoding": "bytes",
        "label": "string",
        "numberOfBytes": "32"
      },
      "t_struct(AddressSet)1589_storage": {
        "encoding": "inplace",
        "label": "struct EnumerableSet.AddressSet",
        "members": [
          {
            "astId": 1588,
            "contract": "contracts/MoxieTokenLockManager.sol:MoxieTokenLockManager",
            "label": "_inner",
            "offset": 0,
            "slot": "0",
            "type": "t_struct(Set)1324_storage"
          }
        ],
        "numberOfBytes": "64"
      },
      "t_struct(Set)1324_storage": {
        "encoding": "inplace",
        "label": "struct EnumerableSet.Set",
        "members": [
          {
            "astId": 1319,
            "contract": "contracts/MoxieTokenLockManager.sol:MoxieTokenLockManager",
            "label": "_values",
            "offset": 0,
            "slot": "0",
            "type": "t_array(t_bytes32)dyn_storage"
          },
          {
            "astId": 1323,
            "contract": "contracts/MoxieTokenLockManager.sol:MoxieTokenLockManager",
            "label": "_indexes",
            "offset": 0,
            "slot": "1",
            "type": "t_mapping(t_bytes32,t_uint256)"
          }
        ],
        "numberOfBytes": "64"
      },
      "t_uint256": {
        "encoding": "inplace",
        "label": "uint256",
        "numberOfBytes": "32"
      }
    }
  }
}