{
  "address": "0xE8B58DB33fcE7d7D729462bd4908327D067bdDfa",
  "abi": [
    {
      "inputs": [
        {
          "internalType": "contract IERC20",
          "name": "_MoxieToken",
          "type": "address"
        },
        {
          "internalType": "address",
          "name": "_masterCopy",
          "type": "address"
        }
      ],
      "stateMutability": "nonpayable",
      "type": "constructor"
    },
    {
      "anonymous": false,
      "inputs": [
        {
          "indexed": true,
          "internalType": "address",
          "name": "caller",
          "type": "address"
        },
        {
          "indexed": true,
          "internalType": "bytes4",
          "name": "sigHash",
          "type": "bytes4"
        },
        {
          "indexed": true,
          "internalType": "address",
          "name": "target",
          "type": "address"
        },
        {
          "indexed": false,
          "internalType": "string",
          "name": "signature",
          "type": "string"
        }
      ],
      "name": "FunctionCallAuth",
      "type": "event"
    },
    {
      "anonymous": false,
      "inputs": [
        {
          "indexed": true,
          "internalType": "address",
          "name": "masterCopy",
          "type": "address"
        }
      ],
      "name": "MasterCopyUpdated",
      "type": "event"
    },
    {
      "anonymous": false,
      "inputs": [
        {
          "indexed": true,
          "internalType": "address",
          "name": "moxiePassToken",
          "type": "address"
        }
      ],
      "name": "MoxiePassTokenUpdated",
      "type": "event"
    },
    {
      "anonymous": false,
      "inputs": [
        {
          "indexed": true,
          "internalType": "address",
          "name": "previousOwner",
          "type": "address"
        },
        {
          "indexed": true,
          "internalType": "address",
          "name": "newOwner",
          "type": "address"
        }
      ],
      "name": "OwnershipTransferred",
      "type": "event"
    },
    {
      "anonymous": false,
      "inputs": [
        {
          "indexed": true,
          "internalType": "address",
          "name": "proxy",
          "type": "address"
        }
      ],
      "name": "ProxyCreated",
      "type": "event"
    },
    {
      "anonymous": false,
      "inputs": [
        {
          "indexed": true,
          "internalType": "address",
          "name": "dst",
          "type": "address"
        },
        {
          "indexed": false,
          "internalType": "bool",
          "name": "allowed",
          "type": "bool"
        }
      ],
      "name": "SubjectTokenDestinationAllowed",
      "type": "event"
    },
    {
      "anonymous": false,
      "inputs": [
        {
          "indexed": true,
          "internalType": "address",
          "name": "dst",
          "type": "address"
        },
        {
          "indexed": false,
          "internalType": "bool",
          "name": "allowed",
          "type": "bool"
        }
      ],
      "name": "TokenDestinationAllowed",
      "type": "event"
    },
    {
      "anonymous": false,
      "inputs": [
        {
          "indexed": true,
          "internalType": "address",
          "name": "contractAddress",
          "type": "address"
        },
        {
          "indexed": true,
          "internalType": "bytes32",
          "name": "initHash",
          "type": "bytes32"
        },
        {
          "indexed": true,
          "internalType": "address",
          "name": "beneficiary",
          "type": "address"
        },
        {
          "indexed": false,
          "internalType": "address",
          "name": "token",
          "type": "address"
        },
        {
          "indexed": false,
          "internalType": "uint256",
          "name": "managedAmount",
          "type": "uint256"
        },
        {
          "indexed": false,
          "internalType": "uint256",
          "name": "startTime",
          "type": "uint256"
        },
        {
          "indexed": false,
          "internalType": "uint256",
          "name": "endTime",
          "type": "uint256"
        },
        {
          "indexed": false,
          "internalType": "uint256",
          "name": "periods",
          "type": "uint256"
        },
        {
          "indexed": false,
          "internalType": "uint256",
          "name": "releaseStartTime",
          "type": "uint256"
        },
        {
          "indexed": false,
          "internalType": "uint256",
          "name": "vestingCliffTime",
          "type": "uint256"
        },
        {
          "indexed": false,
          "internalType": "enum IMoxieTokenLock.Revocability",
          "name": "revocable",
          "type": "uint8"
        }
      ],
      "name": "TokenLockCreated",
      "type": "event"
    },
    {
      "anonymous": false,
      "inputs": [
        {
          "indexed": true,
          "internalType": "address",
          "name": "sender",
          "type": "address"
        },
        {
          "indexed": false,
          "internalType": "uint256",
          "name": "amount",
          "type": "uint256"
        }
      ],
      "name": "TokensDeposited",
      "type": "event"
    },
    {
      "anonymous": false,
      "inputs": [
        {
          "indexed": true,
          "internalType": "address",
          "name": "sender",
          "type": "address"
        },
        {
          "indexed": false,
          "internalType": "uint256",
          "name": "amount",
          "type": "uint256"
        }
      ],
      "name": "TokensWithdrawn",
      "type": "event"
    },
    {
      "inputs": [
        {
          "internalType": "address",
          "name": "_dst",
          "type": "address"
        }
      ],
      "name": "addSubjectTokenDestination",
      "outputs": [],
      "stateMutability": "nonpayable",
      "type": "function"
    },
    {
      "inputs": [
        {
          "internalType": "address",
          "name": "_dst",
          "type": "address"
        }
      ],
      "name": "addTokenDestination",
      "outputs": [],
      "stateMutability": "nonpayable",
      "type": "function"
    },
    {
      "inputs": [
        {
          "internalType": "bytes4",
          "name": "",
          "type": "bytes4"
        }
      ],
      "name": "authFnCalls",
      "outputs": [
        {
          "internalType": "address",
          "name": "",
          "type": "address"
        }
      ],
      "stateMutability": "view",
      "type": "function"
    },
    {
      "inputs": [
        {
          "internalType": "address",
          "name": "_owner",
          "type": "address"
        },
        {
          "internalType": "address",
          "name": "_beneficiary",
          "type": "address"
        },
        {
          "internalType": "uint256",
          "name": "_managedAmount",
          "type": "uint256"
        },
        {
          "internalType": "uint256",
          "name": "_startTime",
          "type": "uint256"
        },
        {
          "internalType": "uint256",
          "name": "_endTime",
          "type": "uint256"
        },
        {
          "internalType": "uint256",
          "name": "_periods",
          "type": "uint256"
        },
        {
          "internalType": "uint256",
          "name": "_releaseStartTime",
          "type": "uint256"
        },
        {
          "internalType": "uint256",
          "name": "_vestingCliffTime",
          "type": "uint256"
        },
        {
          "internalType": "enum IMoxieTokenLock.Revocability",
          "name": "_revocable",
          "type": "uint8"
        }
      ],
      "name": "createTokenLockWallet",
      "outputs": [],
      "stateMutability": "nonpayable",
      "type": "function"
    },
    {
      "inputs": [
        {
          "internalType": "uint256",
          "name": "_amount",
          "type": "uint256"
        }
      ],
      "name": "deposit",
      "outputs": [],
      "stateMutability": "nonpayable",
      "type": "function"
    },
    {
      "inputs": [
        {
          "internalType": "bytes4",
          "name": "_sigHash",
          "type": "bytes4"
        }
      ],
      "name": "getAuthFunctionCallTarget",
      "outputs": [
        {
          "internalType": "address",
          "name": "",
          "type": "address"
        }
      ],
      "stateMutability": "view",
      "type": "function"
    },
    {
      "inputs": [
        {
          "internalType": "bytes32",
          "name": "_salt",
          "type": "bytes32"
        },
        {
          "internalType": "address",
          "name": "_implementation",
          "type": "address"
        },
        {
          "internalType": "address",
          "name": "_deployer",
          "type": "address"
        }
      ],
      "name": "getDeploymentAddress",
      "outputs": [
        {
          "internalType": "address",
          "name": "",
          "type": "address"
        }
      ],
      "stateMutability": "pure",
      "type": "function"
    },
    {
      "inputs": [
        {
          "internalType": "bytes32",
          "name": "_salt",
          "type": "bytes32"
        },
        {
          "internalType": "address",
          "name": "_implementation",
          "type": "address"
        }
      ],
      "name": "getDeploymentAddress",
      "outputs": [
        {
          "internalType": "address",
          "name": "",
          "type": "address"
        }
      ],
      "stateMutability": "view",
      "type": "function"
    },
    {
      "inputs": [],
      "name": "getSubjectTokenDestinations",
      "outputs": [
        {
          "internalType": "address[]",
          "name": "",
          "type": "address[]"
        }
      ],
      "stateMutability": "view",
      "type": "function"
    },
    {
      "inputs": [],
      "name": "getTokenDestinations",
      "outputs": [
        {
          "internalType": "address[]",
          "name": "",
          "type": "address[]"
        }
      ],
      "stateMutability": "view",
      "type": "function"
    },
    {
      "inputs": [
        {
          "internalType": "bytes4",
          "name": "_sigHash",
          "type": "bytes4"
        }
      ],
      "name": "isAuthFunctionCall",
      "outputs": [
        {
          "internalType": "bool",
          "name": "",
          "type": "bool"
        }
      ],
      "stateMutability": "view",
      "type": "function"
    },
    {
      "inputs": [
        {
          "internalType": "address",
          "name": "_dst",
          "type": "address"
        }
      ],
      "name": "isSubjectTokenDestination",
      "outputs": [
        {
          "internalType": "bool",
          "name": "",
          "type": "bool"
        }
      ],
      "stateMutability": "view",
      "type": "function"
    },
    {
      "inputs": [
        {
          "internalType": "address",
          "name": "_dst",
          "type": "address"
        }
      ],
      "name": "isTokenDestination",
      "outputs": [
        {
          "internalType": "bool",
          "name": "",
          "type": "bool"
        }
      ],
      "stateMutability": "view",
      "type": "function"
    },
    {
      "inputs": [],
      "name": "masterCopy",
      "outputs": [
        {
          "internalType": "address",
          "name": "",
          "type": "address"
        }
      ],
      "stateMutability": "view",
      "type": "function"
    },
    {
      "inputs": [],
      "name": "moxiePassToken",
      "outputs": [
        {
          "internalType": "contract IMoxiePass",
          "name": "",
          "type": "address"
        }
      ],
      "stateMutability": "view",
      "type": "function"
    },
    {
      "inputs": [],
      "name": "moxiePassTokenUri",
      "outputs": [
        {
          "internalType": "string",
          "name": "",
          "type": "string"
        }
      ],
      "stateMutability": "view",
      "type": "function"
    },
    {
      "inputs": [],
      "name": "owner",
      "outputs": [
        {
          "internalType": "address",
          "name": "",
          "type": "address"
        }
      ],
      "stateMutability": "view",
      "type": "function"
    },
    {
      "inputs": [
        {
          "internalType": "address",
          "name": "_dst",
          "type": "address"
        }
      ],
      "name": "removeSubjectTokenDestination",
      "outputs": [],
      "stateMutability": "nonpayable",
      "type": "function"
    },
    {
      "inputs": [
        {
          "internalType": "address",
          "name": "_dst",
          "type": "address"
        }
      ],
      "name": "removeTokenDestination",
      "outputs": [],
      "stateMutability": "nonpayable",
      "type": "function"
    },
    {
      "inputs": [],
      "name": "renounceOwnership",
      "outputs": [],
      "stateMutability": "nonpayable",
      "type": "function"
    },
    {
      "inputs": [
        {
          "internalType": "string",
          "name": "_signature",
          "type": "string"
        },
        {
          "internalType": "address",
          "name": "_target",
          "type": "address"
        }
      ],
      "name": "setAuthFunctionCall",
      "outputs": [],
      "stateMutability": "nonpayable",
      "type": "function"
    },
    {
      "inputs": [
        {
          "internalType": "string[]",
          "name": "_signatures",
          "type": "string[]"
        },
        {
          "internalType": "address[]",
          "name": "_targets",
          "type": "address[]"
        }
      ],
      "name": "setAuthFunctionCallMany",
      "outputs": [],
      "stateMutability": "nonpayable",
      "type": "function"
    },
    {
      "inputs": [
        {
          "internalType": "address",
          "name": "_masterCopy",
          "type": "address"
        }
      ],
      "name": "setMasterCopy",
      "outputs": [],
      "stateMutability": "nonpayable",
      "type": "function"
    },
    {
      "inputs": [
        {
          "internalType": "address",
          "name": "_moxiePassToken",
          "type": "address"
        },
        {
          "internalType": "string",
          "name": "_moxiePassTokenUri",
          "type": "string"
        }
      ],
      "name": "setMoxiePassTokenAndUri",
      "outputs": [],
      "stateMutability": "nonpayable",
      "type": "function"
    },
    {
      "inputs": [],
      "name": "token",
      "outputs": [
        {
          "internalType": "contract IERC20",
          "name": "",
          "type": "address"
        }
      ],
      "stateMutability": "view",
      "type": "function"
    },
    {
      "inputs": [
        {
          "internalType": "address",
          "name": "newOwner",
          "type": "address"
        }
      ],
      "name": "transferOwnership",
      "outputs": [],
      "stateMutability": "nonpayable",
      "type": "function"
    },
    {
      "inputs": [
        {
          "internalType": "string",
          "name": "_signature",
          "type": "string"
        }
      ],
      "name": "unsetAuthFunctionCall",
      "outputs": [],
      "stateMutability": "nonpayable",
      "type": "function"
    },
    {
      "inputs": [
        {
          "internalType": "uint256",
          "name": "_amount",
          "type": "uint256"
        }
      ],
      "name": "withdraw",
      "outputs": [],
      "stateMutability": "nonpayable",
      "type": "function"
    }
  ],
  "transactionHash": "0x46e41860b905da5fd39f8086c7d8d9d9de64fc57dbeb8de04f55539e206e57d3",
  "args": [
    "0x0788F73D9d912DcF358d2D815680b61864623419",
    "0xE9f2C4272aEF9ede96631213859B687De2CA9FA4"
  ],
  "solcInputHash": "a0c583fab1bfe698bc0d3b4bd04cbc99",
  "bytecode": "0x60806040523480156200001157600080fd5b50604051620049c6380380620049c683398181016040528101906200003791906200039c565b600062000049620001b460201b60201c565b9050806000806101000a81548173ffffffffffffffffffffffffffffffffffffffff021916908373ffffffffffffffffffffffffffffffffffffffff1602179055508073ffffffffffffffffffffffffffffffffffffffff16600073ffffffffffffffffffffffffffffffffffffffff167f8be0079c531659141344cd1fd0a4f28419497f9722a3daafe3b4186f6b6457e060405160405180910390a350600073ffffffffffffffffffffffffffffffffffffffff168273ffffffffffffffffffffffffffffffffffffffff1614156200015a576040517f08c379a00000000000000000000000000000000000000000000000000000000081526004016200015190620004e7565b60405180910390fd5b81600760006101000a81548173ffffffffffffffffffffffffffffffffffffffff021916908373ffffffffffffffffffffffffffffffffffffffff160217905550620001ac81620001bc60201b60201c565b505062000596565b600033905090565b620001cc620001b460201b60201c565b73ffffffffffffffffffffffffffffffffffffffff16620001f26200034560201b60201c565b73ffffffffffffffffffffffffffffffffffffffff16146200024b576040517f08c379a00000000000000000000000000000000000000000000000000000000081526004016200024290620004c5565b60405180910390fd5b600073ffffffffffffffffffffffffffffffffffffffff168173ffffffffffffffffffffffffffffffffffffffff161415620002be576040517f08c379a0000000000000000000000000000000000000000000000000000000008152600401620002b590620004a3565b60405180910390fd5b80600660006101000a81548173ffffffffffffffffffffffffffffffffffffffff021916908373ffffffffffffffffffffffffffffffffffffffff1602179055508073ffffffffffffffffffffffffffffffffffffffff167f30909084afc859121ffc3a5aef7fe37c540a9a1ef60bd4d8dcdb76376fadf9de60405160405180910390a250565b60008060009054906101000a900473ffffffffffffffffffffffffffffffffffffffff16905090565b6000815190506200037f8162000562565b92915050565b60008151905062000396816200057c565b92915050565b60008060408385031215620003b057600080fd5b6000620003c08582860162000385565b9250506020620003d3858286016200036e565b9150509250929050565b6000620003ec60198362000509565b91507f4d6173746572436f70792063616e6e6f74206265207a65726f000000000000006000830152602082019050919050565b60006200042e60208362000509565b91507f4f776e61626c653a2063616c6c6572206973206e6f7420746865206f776e65726000830152602082019050919050565b60006200047060148362000509565b91507f546f6b656e2063616e6e6f74206265207a65726f0000000000000000000000006000830152602082019050919050565b60006020820190508181036000830152620004be81620003dd565b9050919050565b60006020820190508181036000830152620004e0816200041f565b9050919050565b60006020820190508181036000830152620005028162000461565b9050919050565b600082825260208201905092915050565b6000620005278262000542565b9050919050565b60006200053b826200051a565b9050919050565b600073ffffffffffffffffffffffffffffffffffffffff82169050919050565b6200056d816200051a565b81146200057957600080fd5b50565b62000587816200052e565b81146200059357600080fd5b50565b61442080620005a66000396000f3fe608060405234801561001057600080fd5b50600436106101c45760003560e01c80639c05fc60116100f9578063cef8290311610097578063e708ecd711610071578063e708ecd7146104c7578063f1d24c45146104f7578063f2fde38b14610527578063fc0c546a14610543576101c4565b8063cef8290314610471578063cf497e6c1461048d578063d3a84e87146104a9576101c4565b8063a95c9140116100d3578063a95c9140146103eb578063b6b55f2514610409578063bdb62fbe14610425578063c1ab13db14610455576101c4565b80639c05fc6014610393578063a3457466146103af578063a619486e146103cd576101c4565b80635620c1c8116101665780636e03b8dc116101405780636e03b8dc1461030b578063715018a61461033b57806379ee1bdf146103455780638da5cb5b14610375576101c4565b80635620c1c8146102b75780635975e00c146102d357806368d30c2e146102ef576101c4565b80632e1a7d4d116101a25780632e1a7d4d1461023357806343fb93d91461024f578063463013a21461027f578063542713121461029b576101c4565b806303990a6c146101c95780630602ba2b146101e55780631e0c416a14610215575b600080fd5b6101e360048036038101906101de9190612efc565b610561565b005b6101ff60048036038101906101fa9190612ed3565b610709565b60405161020c9190613c2b565b60405180910390f35b61021d61074a565b60405161022a9190613c61565b60405180910390f35b61024d60048036038101906102489190612f99565b610770565b005b61026960048036038101906102649190612e84565b6108cd565b6040516102769190613a35565b60405180910390f35b61029960048036038101906102949190612f41565b6108f2565b005b6102b560048036038101906102b09190612d56565b61097e565b005b6102d160048036038101906102cc9190612c67565b610b09565b005b6102ed60048036038101906102e89190612c67565b610c9a565b005b61030960048036038101906103049190612c90565b610e2b565b005b61032560048036038101906103209190612ed3565b611203565b6040516103329190613a35565b60405180910390f35b610343611236565b005b61035f600480360381019061035a9190612c67565b611370565b60405161036c9190613c2b565b60405180910390f35b61037d61138d565b60405161038a9190613a35565b60405180910390f35b6103ad60048036038101906103a89190612daa565b6113b6565b005b6103b76114e3565b6040516103c49190613c09565b60405180910390f35b6103d56115bb565b6040516103e29190613a35565b60405180910390f35b6103f36115e1565b6040516104009190613ca0565b60405180910390f35b610423600480360381019061041e9190612f99565b61167f565b005b61043f600480360381019061043a9190612e48565b611762565b60405161044c9190613a35565b60405180910390f35b61046f600480360381019061046a9190612c67565b611777565b005b61048b60048036038101906104869190612c67565b611898565b005b6104a760048036038101906104a29190612c67565b6119b9565b005b6104b1611b2c565b6040516104be9190613c09565b60405180910390f35b6104e160048036038101906104dc9190612c67565b611c04565b6040516104ee9190613c2b565b60405180910390f35b610511600480360381019061050c9190612ed3565b611c21565b60405161051e9190613a35565b60405180910390f35b610541600480360381019061053c9190612c67565b611c9c565b005b61054b611e45565b6040516105589190613c46565b60405180910390f35b610569611e6f565b73ffffffffffffffffffffffffffffffffffffffff1661058761138d565b73ffffffffffffffffffffffffffffffffffffffff16146105dd576040517f08c379a00000000000000000000000000000000000000000000000000000000081526004016105d490613e82565b60405180910390fd5b60006105e98383611e77565b9050600060016000837bffffffffffffffffffffffffffffffffffffffffffffffffffffffff19167bffffffffffffffffffffffffffffffffffffffffffffffffffffffff1916815260200190815260200160002060006101000a81548173ffffffffffffffffffffffffffffffffffffffff021916908373ffffffffffffffffffffffffffffffffffffffff160217905550600073ffffffffffffffffffffffffffffffffffffffff16817bffffffffffffffffffffffffffffffffffffffffffffffffffffffff19163373ffffffffffffffffffffffffffffffffffffffff167f450397a2db0e89eccfe664cc6cdfd274a88bc00d29aaec4d991754a42f19f8c986866040516106fc929190613c7c565b60405180910390a4505050565b60008073ffffffffffffffffffffffffffffffffffffffff1661072b83611c21565b73ffffffffffffffffffffffffffffffffffffffff1614159050919050565b600860009054906101000a900473ffffffffffffffffffffffffffffffffffffffff1681565b610778611e6f565b73ffffffffffffffffffffffffffffffffffffffff1661079661138d565b73ffffffffffffffffffffffffffffffffffffffff16146107ec576040517f08c379a00000000000000000000000000000000000000000000000000000000081526004016107e390613e82565b60405180910390fd5b6000811161082f576040517f08c379a000000000000000000000000000000000000000000000000000000000815260040161082690613e62565b60405180910390fd5b61087c3382600760009054906101000a900473ffffffffffffffffffffffffffffffffffffffff1673ffffffffffffffffffffffffffffffffffffffff16611f059092919063ffffffff16565b3373ffffffffffffffffffffffffffffffffffffffff167f6352c5382c4a4578e712449ca65e83cdb392d045dfcf1cad9615189db2da244b826040516108c29190613fa2565b60405180910390a250565b60006108e9846108dc85611f8b565b8051906020012084612001565b90509392505050565b6108fa611e6f565b73ffffffffffffffffffffffffffffffffffffffff1661091861138d565b73ffffffffffffffffffffffffffffffffffffffff161461096e576040517f08c379a000000000000000000000000000000000000000000000000000000000815260040161096590613e82565b60405180910390fd5b610979838383612045565b505050565b610986611e6f565b73ffffffffffffffffffffffffffffffffffffffff166109a461138d565b73ffffffffffffffffffffffffffffffffffffffff16146109fa576040517f08c379a00000000000000000000000000000000000000000000000000000000081526004016109f190613e82565b60405180910390fd5b600073ffffffffffffffffffffffffffffffffffffffff168273ffffffffffffffffffffffffffffffffffffffff161415610a6a576040517f08c379a0000000000000000000000000000000000000000000000000000000008152600401610a6190613e22565b60405180910390fd5b81600860006101000a81548173ffffffffffffffffffffffffffffffffffffffff021916908373ffffffffffffffffffffffffffffffffffffffff1602179055508060099080519060200190610ac1929190612a05565b508173ffffffffffffffffffffffffffffffffffffffff167f4e61a6ffbc3747e39d64fc1a8889499533aea16d78797682fd357db98677c93a60405160405180910390a25050565b610b11611e6f565b73ffffffffffffffffffffffffffffffffffffffff16610b2f61138d565b73ffffffffffffffffffffffffffffffffffffffff1614610b85576040517f08c379a0000000000000000000000000000000000000000000000000000000008152600401610b7c90613e82565b60405180910390fd5b600073ffffffffffffffffffffffffffffffffffffffff168173ffffffffffffffffffffffffffffffffffffffff161415610bf5576040517f08c379a0000000000000000000000000000000000000000000000000000000008152600401610bec90613f02565b60405180910390fd5b610c0981600461222790919063ffffffff16565b610c48576040517f08c379a0000000000000000000000000000000000000000000000000000000008152600401610c3f90613f42565b60405180910390fd5b8073ffffffffffffffffffffffffffffffffffffffff167f4ba8335904353f5d9fb118ddee85a961adb91902a9b15aae73e2b191cc5580196001604051610c8f9190613c2b565b60405180910390a250565b610ca2611e6f565b73ffffffffffffffffffffffffffffffffffffffff16610cc061138d565b73ffffffffffffffffffffffffffffffffffffffff1614610d16576040517f08c379a0000000000000000000000000000000000000000000000000000000008152600401610d0d90613e82565b60405180910390fd5b600073ffffffffffffffffffffffffffffffffffffffff168173ffffffffffffffffffffffffffffffffffffffff161415610d86576040517f08c379a0000000000000000000000000000000000000000000000000000000008152600401610d7d90613d22565b60405180910390fd5b610d9a81600261222790919063ffffffff16565b610dd9576040517f08c379a0000000000000000000000000000000000000000000000000000000008152600401610dd090613ec2565b60405180910390fd5b8073ffffffffffffffffffffffffffffffffffffffff167f33442b8c13e72dd75a027f08f9bff4eed2dfd26e43cdea857365f5163b359a796001604051610e209190613c2b565b60405180910390a250565b610e33611e6f565b73ffffffffffffffffffffffffffffffffffffffff16610e5161138d565b73ffffffffffffffffffffffffffffffffffffffff1614610ea7576040517f08c379a0000000000000000000000000000000000000000000000000000000008152600401610e9e90613e82565b60405180910390fd5b86600760009054906101000a900473ffffffffffffffffffffffffffffffffffffffff1673ffffffffffffffffffffffffffffffffffffffff166370a08231306040518263ffffffff1660e01b8152600401610f039190613a35565b60206040518083038186803b158015610f1b57600080fd5b505afa158015610f2f573d6000803e3d6000fd5b505050506040513d601f19601f82011682018060405250810190610f539190612fc2565b1015610f94576040517f08c379a0000000000000000000000000000000000000000000000000000000008152600401610f8b90613d82565b60405180910390fd5b606063bd896dcb60e01b308b8b600760009054906101000a900473ffffffffffffffffffffffffffffffffffffffff168c8c8c8c8c8c8c604051602401610fe59b9a99989796959493929190613a50565b604051602081830303815290604052907bffffffffffffffffffffffffffffffffffffffffffffffffffffffff19166020820180517bffffffffffffffffffffffffffffffffffffffffffffffffffffffff83818316178352505050509050600061107a8280519060200120600660009054906101000a900473ffffffffffffffffffffffffffffffffffffffff1684612257565b90506110c9818a600760009054906101000a900473ffffffffffffffffffffffffffffffffffffffff1673ffffffffffffffffffffffffffffffffffffffff16611f059092919063ffffffff16565b600860009054906101000a900473ffffffffffffffffffffffffffffffffffffffff1673ffffffffffffffffffffffffffffffffffffffff1663d0def5218260096040518363ffffffff1660e01b8152600401611127929190613b32565b600060405180830381600087803b15801561114157600080fd5b505af1158015611155573d6000803e3d6000fd5b505050508973ffffffffffffffffffffffffffffffffffffffff1682805190602001208273ffffffffffffffffffffffffffffffffffffffff167f3c7ff6acee351ed98200c285a04745858a107e16da2f13c3a81a43073c17d644600760009054906101000a900473ffffffffffffffffffffffffffffffffffffffff168d8d8d8d8d8d8d6040516111ee989796959493929190613b8b565b60405180910390a45050505050505050505050565b60016020528060005260406000206000915054906101000a900473ffffffffffffffffffffffffffffffffffffffff1681565b61123e611e6f565b73ffffffffffffffffffffffffffffffffffffffff1661125c61138d565b73ffffffffffffffffffffffffffffffffffffffff16146112b2576040517f08c379a00000000000000000000000000000000000000000000000000000000081526004016112a990613e82565b60405180910390fd5b600073ffffffffffffffffffffffffffffffffffffffff1660008054906101000a900473ffffffffffffffffffffffffffffffffffffffff1673ffffffffffffffffffffffffffffffffffffffff167f8be0079c531659141344cd1fd0a4f28419497f9722a3daafe3b4186f6b6457e060405160405180910390a360008060006101000a81548173ffffffffffffffffffffffffffffffffffffffff021916908373ffffffffffffffffffffffffffffffffffffffff160217905550565b60006113868260026122d390919063ffffffff16565b9050919050565b60008060009054906101000a900473ffffffffffffffffffffffffffffffffffffffff16905090565b6113be611e6f565b73ffffffffffffffffffffffffffffffffffffffff166113dc61138d565b73ffffffffffffffffffffffffffffffffffffffff1614611432576040517f08c379a000000000000000000000000000000000000000000000000000000000815260040161142990613e82565b60405180910390fd5b81819050848490501461147a576040517f08c379a000000000000000000000000000000000000000000000000000000000815260040161147190613d02565b60405180910390fd5b60005b848490508110156114dc576114cf85858381811061149757fe5b90506020028101906114a99190613fbd565b8585858181106114b557fe5b90506020020160208101906114ca9190612c67565b612045565b808060010191505061147d565b5050505050565b6060806114f06002612303565b67ffffffffffffffff8111801561150657600080fd5b506040519080825280602002602001820160405280156115355781602001602082028036833780820191505090505b50905060005b6115456002612303565b8110156115b35761156081600261231890919063ffffffff16565b82828151811061156c57fe5b602002602001019073ffffffffffffffffffffffffffffffffffffffff16908173ffffffffffffffffffffffffffffffffffffffff1681525050808060010191505061153b565b508091505090565b600660009054906101000a900473ffffffffffffffffffffffffffffffffffffffff1681565b60098054600181600116156101000203166002900480601f0160208091040260200160405190810160405280929190818152602001828054600181600116156101000203166002900480156116775780601f1061164c57610100808354040283529160200191611677565b820191906000526020600020905b81548152906001019060200180831161165a57829003601f168201915b505050505081565b600081116116c2576040517f08c379a00000000000000000000000000000000000000000000000000000000081526004016116b990613e62565b60405180910390fd5b611711333083600760009054906101000a900473ffffffffffffffffffffffffffffffffffffffff1673ffffffffffffffffffffffffffffffffffffffff16612332909392919063ffffffff16565b3373ffffffffffffffffffffffffffffffffffffffff167f59062170a285eb80e8c6b8ced60428442a51910635005233fc4ce084a475845e826040516117579190613fa2565b60405180910390a250565b600061176f8383306108cd565b905092915050565b61177f611e6f565b73ffffffffffffffffffffffffffffffffffffffff1661179d61138d565b73ffffffffffffffffffffffffffffffffffffffff16146117f3576040517f08c379a00000000000000000000000000000000000000000000000000000000081526004016117ea90613e82565b60405180910390fd5b6118078160026123bb90919063ffffffff16565b611846576040517f08c379a000000000000000000000000000000000000000000000000000000000815260040161183d90613dc2565b60405180910390fd5b8073ffffffffffffffffffffffffffffffffffffffff167f33442b8c13e72dd75a027f08f9bff4eed2dfd26e43cdea857365f5163b359a79600060405161188d9190613c2b565b60405180910390a250565b6118a0611e6f565b73ffffffffffffffffffffffffffffffffffffffff166118be61138d565b73ffffffffffffffffffffffffffffffffffffffff1614611914576040517f08c379a000000000000000000000000000000000000000000000000000000000815260040161190b90613e82565b60405180910390fd5b6119288160046123bb90919063ffffffff16565b611967576040517f08c379a000000000000000000000000000000000000000000000000000000000815260040161195e90613d62565b60405180910390fd5b8073ffffffffffffffffffffffffffffffffffffffff167f4ba8335904353f5d9fb118ddee85a961adb91902a9b15aae73e2b191cc55801960006040516119ae9190613c2b565b60405180910390a250565b6119c1611e6f565b73ffffffffffffffffffffffffffffffffffffffff166119df61138d565b73ffffffffffffffffffffffffffffffffffffffff1614611a35576040517f08c379a0000000000000000000000000000000000000000000000000000000008152600401611a2c90613e82565b60405180910390fd5b600073ffffffffffffffffffffffffffffffffffffffff168173ffffffffffffffffffffffffffffffffffffffff161415611aa5576040517f08c379a0000000000000000000000000000000000000000000000000000000008152600401611a9c90613de2565b60405180910390fd5b80600660006101000a81548173ffffffffffffffffffffffffffffffffffffffff021916908373ffffffffffffffffffffffffffffffffffffffff1602179055508073ffffffffffffffffffffffffffffffffffffffff167f30909084afc859121ffc3a5aef7fe37c540a9a1ef60bd4d8dcdb76376fadf9de60405160405180910390a250565b606080611b396004612303565b67ffffffffffffffff81118015611b4f57600080fd5b50604051908082528060200260200182016040528015611b7e5781602001602082028036833780820191505090505b50905060005b611b8e6004612303565b811015611bfc57611ba981600461231890919063ffffffff16565b828281518110611bb557fe5b602002602001019073ffffffffffffffffffffffffffffffffffffffff16908173ffffffffffffffffffffffffffffffffffffffff16815250508080600101915050611b84565b508091505090565b6000611c1a8260046122d390919063ffffffff16565b9050919050565b600060016000837bffffffffffffffffffffffffffffffffffffffffffffffffffffffff19167bffffffffffffffffffffffffffffffffffffffffffffffffffffffff1916815260200190815260200160002060009054906101000a900473ffffffffffffffffffffffffffffffffffffffff169050919050565b611ca4611e6f565b73ffffffffffffffffffffffffffffffffffffffff16611cc261138d565b73ffffffffffffffffffffffffffffffffffffffff1614611d18576040517f08c379a0000000000000000000000000000000000000000000000000000000008152600401611d0f90613e82565b60405180910390fd5b600073ffffffffffffffffffffffffffffffffffffffff168173ffffffffffffffffffffffffffffffffffffffff161415611d88576040517f08c379a0000000000000000000000000000000000000000000000000000000008152600401611d7f90613d42565b60405180910390fd5b8073ffffffffffffffffffffffffffffffffffffffff1660008054906101000a900473ffffffffffffffffffffffffffffffffffffffff1673ffffffffffffffffffffffffffffffffffffffff167f8be0079c531659141344cd1fd0a4f28419497f9722a3daafe3b4186f6b6457e060405160405180910390a3806000806101000a81548173ffffffffffffffffffffffffffffffffffffffff021916908373ffffffffffffffffffffffffffffffffffffffff16021790555050565b6000600760009054906101000a900473ffffffffffffffffffffffffffffffffffffffff16905090565b600033905090565b6000611efd83836040516024016040516020818303038152906040529190604051611ea3929190613a1c565b60405180910390207bffffffffffffffffffffffffffffffffffffffffffffffffffffffff19166020820180517bffffffffffffffffffffffffffffffffffffffffffffffffffffffff83818316178352505050506123eb565b905092915050565b611f868363a9059cbb60e01b8484604051602401611f24929190613b62565b604051602081830303815290604052907bffffffffffffffffffffffffffffffffffffffffffffffffffffffff19166020820180517bffffffffffffffffffffffffffffffffffffffffffffffffffffffff8381831617835250505050612443565b505050565b60606000693d602d80600a3d3981f360b01b9050600069363d3d373d3d3d363d7360b01b905060008460601b905060006e5af43d82803e903d91602b57fd5bf360881b905083838383604051602001611fe79493929190613969565b604051602081830303815290604052945050505050919050565b60008060ff60f81b83868660405160200161201f94939291906139b7565b6040516020818303038152906040528051906020012090508060001c9150509392505050565b3073ffffffffffffffffffffffffffffffffffffffff168173ffffffffffffffffffffffffffffffffffffffff1614156120b4576040517f08c379a00000000000000000000000000000000000000000000000000000000081526004016120ab90613e02565b60405180910390fd5b6120bd8161250a565b6120fc576040517f08c379a00000000000000000000000000000000000000000000000000000000081526004016120f390613f82565b60405180910390fd5b60006121088484611e77565b90508160016000837bffffffffffffffffffffffffffffffffffffffffffffffffffffffff19167bffffffffffffffffffffffffffffffffffffffffffffffffffffffff1916815260200190815260200160002060006101000a81548173ffffffffffffffffffffffffffffffffffffffff021916908373ffffffffffffffffffffffffffffffffffffffff1602179055508173ffffffffffffffffffffffffffffffffffffffff16817bffffffffffffffffffffffffffffffffffffffffffffffffffffffff19163373ffffffffffffffffffffffffffffffffffffffff167f450397a2db0e89eccfe664cc6cdfd274a88bc00d29aaec4d991754a42f19f8c98787604051612219929190613c7c565b60405180910390a450505050565b600061224f836000018373ffffffffffffffffffffffffffffffffffffffff1660001b61251d565b905092915050565b60008061226e60008661226987611f8b565b61258d565b90508073ffffffffffffffffffffffffffffffffffffffff167efffc2da0b561cae30d9826d37709e9421c4725faebc226cbbb7ef5fc5e734960405160405180910390a26000835111156122c8576122c6818461269e565b505b809150509392505050565b60006122fb836000018373ffffffffffffffffffffffffffffffffffffffff1660001b6126e8565b905092915050565b60006123118260000161270b565b9050919050565b6000612327836000018361271c565b60001c905092915050565b6123b5846323b872dd60e01b85858560405160240161235393929190613afb565b604051602081830303815290604052907bffffffffffffffffffffffffffffffffffffffffffffffffffffffff19166020820180517bffffffffffffffffffffffffffffffffffffffffffffffffffffffff8381831617835250505050612443565b50505050565b60006123e3836000018373ffffffffffffffffffffffffffffffffffffffff1660001b612789565b905092915050565b60006004825114612431576040517f08c379a000000000000000000000000000000000000000000000000000000000815260040161242890613ea2565b60405180910390fd5b60006020830151905080915050919050565b60606124a5826040518060400160405280602081526020017f5361666545524332303a206c6f772d6c6576656c2063616c6c206661696c65648152508573ffffffffffffffffffffffffffffffffffffffff166128719092919063ffffffff16565b905060008151111561250557808060200190518101906124c59190612e1f565b612504576040517f08c379a00000000000000000000000000000000000000000000000000000000081526004016124fb90613f22565b60405180910390fd5b5b505050565b600080823b905060008111915050919050565b600061252983836126e8565b612582578260000182908060018154018082558091505060019003906000526020600020016000909190919091505582600001805490508360010160008481526020019081526020016000208190555060019050612587565b600090505b92915050565b600080844710156125d3576040517f08c379a00000000000000000000000000000000000000000000000000000000081526004016125ca90613f62565b60405180910390fd5b600083511415612618576040517f08c379a000000000000000000000000000000000000000000000000000000000815260040161260f90613ce2565b60405180910390fd5b8383516020850187f59050600073ffffffffffffffffffffffffffffffffffffffff168173ffffffffffffffffffffffffffffffffffffffff161415612693576040517f08c379a000000000000000000000000000000000000000000000000000000000815260040161268a90613e42565b60405180910390fd5b809150509392505050565b60606126e083836040518060400160405280601e81526020017f416464726573733a206c6f772d6c6576656c2063616c6c206661696c65640000815250612871565b905092915050565b600080836001016000848152602001908152602001600020541415905092915050565b600081600001805490509050919050565b600081836000018054905011612767576040517f08c379a000000000000000000000000000000000000000000000000000000000815260040161275e90613cc2565b60405180910390fd5b82600001828154811061277657fe5b9060005260206000200154905092915050565b6000808360010160008481526020019081526020016000205490506000811461286557600060018203905060006001866000018054905003905060008660000182815481106127d457fe5b90600052602060002001549050808760000184815481106127f157fe5b906000526020600020018190555060018301876001016000838152602001908152602001600020819055508660000180548061282957fe5b6001900381819060005260206000200160009055905586600101600087815260200190815260200160002060009055600194505050505061286b565b60009150505b92915050565b60606128808484600085612889565b90509392505050565b6060824710156128ce576040517f08c379a00000000000000000000000000000000000000000000000000000000081526004016128c590613da2565b60405180910390fd5b6128d78561250a565b612916576040517f08c379a000000000000000000000000000000000000000000000000000000000815260040161290d90613ee2565b60405180910390fd5b600060608673ffffffffffffffffffffffffffffffffffffffff1685876040516129409190613a05565b60006040518083038185875af1925050503d806000811461297d576040519150601f19603f3d011682016040523d82523d6000602084013e612982565b606091505b509150915061299282828661299e565b92505050949350505050565b606083156129ae578290506129fe565b6000835111156129c15782518084602001fd5b816040517f08c379a00000000000000000000000000000000000000000000000000000000081526004016129f59190613ca0565b60405180910390fd5b9392505050565b828054600181600116156101000203166002900490600052602060002090601f016020900481019282601f10612a4657805160ff1916838001178555612a74565b82800160010185558215612a74579182015b82811115612a73578251825591602001919060010190612a58565b5b509050612a819190612a85565b5090565b5b80821115612a9e576000816000905550600101612a86565b5090565b600081359050612ab181614367565b92915050565b60008083601f840112612ac957600080fd5b8235905067ffffffffffffffff811115612ae257600080fd5b602083019150836020820283011115612afa57600080fd5b9250929050565b60008083601f840112612b1357600080fd5b8235905067ffffffffffffffff811115612b2c57600080fd5b602083019150836020820283011115612b4457600080fd5b9250929050565b600081519050612b5a8161437e565b92915050565b600081359050612b6f81614395565b92915050565b600081359050612b84816143ac565b92915050565b600081359050612b99816143c3565b92915050565b60008083601f840112612bb157600080fd5b8235905067ffffffffffffffff811115612bca57600080fd5b602083019150836001820283011115612be257600080fd5b9250929050565b600082601f830112612bfa57600080fd5b8135612c0d612c0882614045565b614014565b91508082526020830160208301858383011115612c2957600080fd5b612c3483828461429b565b50505092915050565b600081359050612c4c816143d3565b92915050565b600081519050612c61816143d3565b92915050565b600060208284031215612c7957600080fd5b6000612c8784828501612aa2565b91505092915050565b60008060008060008060008060006101208a8c031215612caf57600080fd5b6000612cbd8c828d01612aa2565b9950506020612cce8c828d01612aa2565b9850506040612cdf8c828d01612c3d565b9750506060612cf08c828d01612c3d565b9650506080612d018c828d01612c3d565b95505060a0612d128c828d01612c3d565b94505060c0612d238c828d01612c3d565b93505060e0612d348c828d01612c3d565b925050610100612d468c828d01612b8a565b9150509295985092959850929598565b60008060408385031215612d6957600080fd5b6000612d7785828601612aa2565b925050602083013567ffffffffffffffff811115612d9457600080fd5b612da085828601612be9565b9150509250929050565b60008060008060408587031215612dc057600080fd5b600085013567ffffffffffffffff811115612dda57600080fd5b612de687828801612b01565b9450945050602085013567ffffffffffffffff811115612e0557600080fd5b612e1187828801612ab7565b925092505092959194509250565b600060208284031215612e3157600080fd5b6000612e3f84828501612b4b565b91505092915050565b60008060408385031215612e5b57600080fd5b6000612e6985828601612b60565b9250506020612e7a85828601612aa2565b9150509250929050565b600080600060608486031215612e9957600080fd5b6000612ea786828701612b60565b9350506020612eb886828701612aa2565b9250506040612ec986828701612aa2565b9150509250925092565b600060208284031215612ee557600080fd5b6000612ef384828501612b75565b91505092915050565b60008060208385031215612f0f57600080fd5b600083013567ffffffffffffffff811115612f2957600080fd5b612f3585828601612b9f565b92509250509250929050565b600080600060408486031215612f5657600080fd5b600084013567ffffffffffffffff811115612f7057600080fd5b612f7c86828701612b9f565b93509350506020612f8f86828701612aa2565b9150509250925092565b600060208284031215612fab57600080fd5b6000612fb984828501612c3d565b91505092915050565b600060208284031215612fd457600080fd5b6000612fe284828501612c52565b91505092915050565b6000612ff78383613003565b60208301905092915050565b61300c81614100565b82525050565b61301b81614100565b82525050565b61303261302d82614100565b6142dd565b82525050565b60006130438261409a565b61304d81856140c8565b935061305883614075565b8060005b838110156130895781516130708882612feb565b975061307b836140bb565b92505060018101905061305c565b5085935050505092915050565b61309f81614112565b82525050565b6130b66130b18261414a565b6142f9565b82525050565b6130cd6130c882614176565b614303565b82525050565b6130e46130df8261411e565b6142ef565b82525050565b6130fb6130f6826141a2565b61430d565b82525050565b61311261310d826141ce565b614317565b82525050565b6000613123826140a5565b61312d81856140d9565b935061313d8185602086016142aa565b80840191505092915050565b61315281614241565b82525050565b61316181614265565b82525050565b61317081614289565b82525050565b600061318283856140e4565b935061318f83858461429b565b61319883614335565b840190509392505050565b60006131af83856140f5565b93506131bc83858461429b565b82840190509392505050565b60006131d3826140b0565b6131dd81856140e4565b93506131ed8185602086016142aa565b6131f681614335565b840191505092915050565b60008154600181166000811461321e576001811461324457613288565b607f600283041661322f81876140e4565b955060ff198316865260208601935050613288565b6002820461325281876140e4565b955061325d85614085565b60005b8281101561327f57815481890152600182019150602081019050613260565b80880195505050505b505092915050565b600061329d6022836140e4565b91507f456e756d657261626c655365743a20696e646578206f7574206f6620626f756e60008301527f64730000000000000000000000000000000000000000000000000000000000006020830152604082019050919050565b60006133036020836140e4565b91507f437265617465323a2062797465636f6465206c656e677468206973207a65726f6000830152602082019050919050565b60006133436015836140e4565b91507f4172726179206c656e677468206d69736d6174636800000000000000000000006000830152602082019050919050565b6000613383601a836140e4565b91507f44657374696e6174696f6e2063616e6e6f74206265207a65726f0000000000006000830152602082019050919050565b60006133c36026836140e4565b91507f4f776e61626c653a206e6577206f776e657220697320746865207a65726f206160008301527f64647265737300000000000000000000000000000000000000000000000000006020830152604082019050919050565b6000613429602c836140e4565b91507f5375626a65637420546f6b656e2044657374696e6174696f6e20697320616c7260008301527f656164792072656d6f76656400000000000000000000000000000000000000006020830152604082019050919050565b600061348f6020836140e4565b91507f4e6f7420656e6f75676820746f6b656e7320746f20637265617465206c6f636b6000830152602082019050919050565b60006134cf6026836140e4565b91507f416464726573733a20696e73756666696369656e742062616c616e636520666f60008301527f722063616c6c00000000000000000000000000000000000000000000000000006020830152604082019050919050565b6000613535601b836140e4565b91507f44657374696e6174696f6e20616c72656164792072656d6f76656400000000006000830152602082019050919050565b60006135756019836140e4565b91507f4d6173746572436f70792063616e6e6f74206265207a65726f000000000000006000830152602082019050919050565b60006135b5601d836140e4565b91507f546172676574206d757374206265206f7468657220636f6e74726163740000006000830152602082019050919050565b60006135f5601d836140e4565b91507f4d6f78696550617373546f6b656e2063616e6e6f74206265207a65726f0000006000830152602082019050919050565b60006136356019836140e4565b91507f437265617465323a204661696c6564206f6e206465706c6f79000000000000006000830152602082019050919050565b60006136756015836140e4565b91507f416d6f756e742063616e6e6f74206265207a65726f00000000000000000000006000830152602082019050919050565b60006136b56020836140e4565b91507f4f776e61626c653a2063616c6c6572206973206e6f7420746865206f776e65726000830152602082019050919050565b60006136f56018836140e4565b91507f496e76616c6964206d6574686f64207369676e617475726500000000000000006000830152602082019050919050565b60006137356019836140e4565b91507f44657374696e6174696f6e20616c7265616479206164646564000000000000006000830152602082019050919050565b6000613775601d836140e4565b91507f416464726573733a2063616c6c20746f206e6f6e2d636f6e74726163740000006000830152602082019050919050565b60006137b56028836140e4565b91507f5375626a65637420546f6b656e2044657374696e6174696f6e2063616e6e6f7460008301527f206265207a65726f0000000000000000000000000000000000000000000000006020830152604082019050919050565b600061381b602a836140e4565b91507f5361666545524332303a204552433230206f7065726174696f6e20646964206e60008301527f6f742073756363656564000000000000000000000000000000000000000000006020830152604082019050919050565b6000613881602a836140e4565b91507f5375626a65637420546f6b656e2044657374696e6174696f6e20697320616c7260008301527f65616479206164646564000000000000000000000000000000000000000000006020830152604082019050919050565b60006138e7601d836140e4565b91507f437265617465323a20696e73756666696369656e742062616c616e63650000006000830152602082019050919050565b60006139276019836140e4565b91507f546172676574206d757374206265206120636f6e7472616374000000000000006000830152602082019050919050565b61396381614237565b82525050565b600061397582876130a5565b600a8201915061398582866130a5565b600a8201915061399582856130ea565b6014820191506139a582846130bc565b600f8201915081905095945050505050565b60006139c382876130d3565b6001820191506139d38286613021565b6014820191506139e38285613101565b6020820191506139f38284613101565b60208201915081905095945050505050565b6000613a118284613118565b915081905092915050565b6000613a298284866131a3565b91508190509392505050565b6000602082019050613a4a6000830184613012565b92915050565b600061016082019050613a66600083018e613012565b613a73602083018d613012565b613a80604083018c613012565b613a8d606083018b613012565b613a9a608083018a61395a565b613aa760a083018961395a565b613ab460c083018861395a565b613ac160e083018761395a565b613acf61010083018661395a565b613add61012083018561395a565b613aeb610140830184613167565b9c9b505050505050505050505050565b6000606082019050613b106000830186613012565b613b1d6020830185613012565b613b2a604083018461395a565b949350505050565b6000604082019050613b476000830185613012565b8181036020830152613b598184613201565b90509392505050565b6000604082019050613b776000830185613012565b613b84602083018461395a565b9392505050565b600061010082019050613ba1600083018b613012565b613bae602083018a61395a565b613bbb604083018961395a565b613bc8606083018861395a565b613bd5608083018761395a565b613be260a083018661395a565b613bef60c083018561395a565b613bfc60e0830184613167565b9998505050505050505050565b60006020820190508181036000830152613c238184613038565b905092915050565b6000602082019050613c406000830184613096565b92915050565b6000602082019050613c5b6000830184613149565b92915050565b6000602082019050613c766000830184613158565b92915050565b60006020820190508181036000830152613c97818486613176565b90509392505050565b60006020820190508181036000830152613cba81846131c8565b905092915050565b60006020820190508181036000830152613cdb81613290565b9050919050565b60006020820190508181036000830152613cfb816132f6565b9050919050565b60006020820190508181036000830152613d1b81613336565b9050919050565b60006020820190508181036000830152613d3b81613376565b9050919050565b60006020820190508181036000830152613d5b816133b6565b9050919050565b60006020820190508181036000830152613d7b8161341c565b9050919050565b60006020820190508181036000830152613d9b81613482565b9050919050565b60006020820190508181036000830152613dbb816134c2565b9050919050565b60006020820190508181036000830152613ddb81613528565b9050919050565b60006020820190508181036000830152613dfb81613568565b9050919050565b60006020820190508181036000830152613e1b816135a8565b9050919050565b60006020820190508181036000830152613e3b816135e8565b9050919050565b60006020820190508181036000830152613e5b81613628565b9050919050565b60006020820190508181036000830152613e7b81613668565b9050919050565b60006020820190508181036000830152613e9b816136a8565b9050919050565b60006020820190508181036000830152613ebb816136e8565b9050919050565b60006020820190508181036000830152613edb81613728565b9050919050565b60006020820190508181036000830152613efb81613768565b9050919050565b60006020820190508181036000830152613f1b816137a8565b9050919050565b60006020820190508181036000830152613f3b8161380e565b9050919050565b60006020820190508181036000830152613f5b81613874565b9050919050565b60006020820190508181036000830152613f7b816138da565b9050919050565b60006020820190508181036000830152613f9b8161391a565b9050919050565b6000602082019050613fb7600083018461395a565b92915050565b60008083356001602003843603038112613fd657600080fd5b80840192508235915067ffffffffffffffff821115613ff457600080fd5b60208301925060018202360383131561400c57600080fd5b509250929050565b6000604051905081810181811067ffffffffffffffff8211171561403b5761403a614333565b5b8060405250919050565b600067ffffffffffffffff8211156140605761405f614333565b5b601f19601f8301169050602081019050919050565b6000819050602082019050919050565b60008190508160005260206000209050919050565b600081519050919050565b600081519050919050565b600081519050919050565b6000602082019050919050565b600082825260208201905092915050565b600081905092915050565b600082825260208201905092915050565b600081905092915050565b600061410b82614217565b9050919050565b60008115159050919050565b60007fff0000000000000000000000000000000000000000000000000000000000000082169050919050565b60007fffffffffffffffffffff0000000000000000000000000000000000000000000082169050919050565b60007fffffffffffffffffffffffffffffff000000000000000000000000000000000082169050919050565b60007fffffffffffffffffffffffffffffffffffffffff00000000000000000000000082169050919050565b6000819050919050565b60007fffffffff0000000000000000000000000000000000000000000000000000000082169050919050565b600081905061421282614353565b919050565b600073ffffffffffffffffffffffffffffffffffffffff82169050919050565b6000819050919050565b600061424c82614253565b9050919050565b600061425e82614217565b9050919050565b600061427082614277565b9050919050565b600061428282614217565b9050919050565b600061429482614204565b9050919050565b82818337600083830152505050565b60005b838110156142c85780820151818401526020810190506142ad565b838111156142d7576000848401525b50505050565b60006142e882614321565b9050919050565b6000819050919050565b6000819050919050565b6000819050919050565b6000819050919050565b6000819050919050565b600061432c82614346565b9050919050565bfe5b6000601f19601f8301169050919050565b60008160601b9050919050565b6003811061436457614363614333565b5b50565b61437081614100565b811461437b57600080fd5b50565b61438781614112565b811461439257600080fd5b50565b61439e816141ce565b81146143a957600080fd5b50565b6143b5816141d8565b81146143c057600080fd5b50565b600381106143d057600080fd5b50565b6143dc81614237565b81146143e757600080fd5b5056fea264697066735822122044a48e95b5030fb8015338c1b3f1367f85ce0e2fd4f2bbca57dda187e432e05b64736f6c63430007030033",
  "devdoc": {
    "kind": "dev",
    "methods": {
      "addSubjectTokenDestination(address)": {
        "params": {
          "_dst": "Subject Token Destination address"
        }
      },
      "addTokenDestination(address)": {
        "params": {
          "_dst": "Destination address"
        }
      },
      "constructor": {
        "params": {
          "_MoxieToken": "Token to use for deposits and withdrawals",
          "_masterCopy": "Address of the master copy to use to clone proxies"
        }
      },
      "createTokenLockWallet(address,address,uint256,uint256,uint256,uint256,uint256,uint256,uint8)": {
        "params": {
          "_beneficiary": "Address of the beneficiary of locked tokens",
          "_endTime": "End time of the release schedule",
          "_managedAmount": "Amount of tokens to be managed by the lock contract",
          "_owner": "Address of the contract owner",
          "_periods": "Number of periods between start time and end time",
          "_releaseStartTime": "Override time for when the releases start",
          "_revocable": "Whether the contract is revocable",
          "_startTime": "Start time of the release schedule"
        }
      },
      "deposit(uint256)": {
        "details": "Even if the ERC20 token can be transferred directly to the contract this function provide a safe interface to do the transfer and avoid mistakes",
        "params": {
          "_amount": "Amount to deposit"
        }
      },
      "getAuthFunctionCallTarget(bytes4)": {
        "params": {
          "_sigHash": "Function signature hash"
        },
        "returns": {
          "_0": "Address of the target contract where to send the call"
        }
      },
      "getDeploymentAddress(bytes32,address)": {
        "details": "Uses address(this) as deployer to compute the address. Only for backwards compatibility.",
        "params": {
          "_implementation": "Address of the proxy target implementation",
          "_salt": "Bytes32 salt to use for CREATE2"
        },
        "returns": {
          "_0": "Address of the counterfactual MinimalProxy"
        }
      },
      "getDeploymentAddress(bytes32,address,address)": {
        "params": {
          "_deployer": "Address of the deployer that creates the contract",
          "_implementation": "Address of the proxy target implementation",
          "_salt": "Bytes32 salt to use for CREATE2"
        },
        "returns": {
          "_0": "Address of the counterfactual MinimalProxy"
        }
      },
      "getSubjectTokenDestinations()": {
        "returns": {
          "_0": "Array of addresses authorized to pull funds from subject token by protocol contracts"
        }
      },
      "getTokenDestinations()": {
        "returns": {
          "_0": "Array of addresses authorized to pull funds from a token lock"
        }
      },
      "isAuthFunctionCall(bytes4)": {
        "params": {
          "_sigHash": "Function signature hash"
        },
        "returns": {
          "_0": "True if authorized"
        }
      },
      "isSubjectTokenDestination(address)": {
        "params": {
          "_dst": "Subject Token Destination address"
        },
        "returns": {
          "_0": "True if authorized"
        }
      },
      "isTokenDestination(address)": {
        "params": {
          "_dst": "Destination address"
        },
        "returns": {
          "_0": "True if authorized"
        }
      },
      "owner()": {
        "details": "Returns the address of the current owner."
      },
      "removeSubjectTokenDestination(address)": {
        "params": {
          "_dst": "Subject Token Destination address"
        }
      },
      "removeTokenDestination(address)": {
        "params": {
          "_dst": "Destination address"
        }
      },
      "renounceOwnership()": {
        "details": "Leaves the contract without owner. It will not be possible to call `onlyOwner` functions anymore. Can only be called by the current owner. NOTE: Renouncing ownership will leave the contract without an owner, thereby removing any functionality that is only available to the owner."
      },
      "setAuthFunctionCall(string,address)": {
        "details": "Input expected is the function signature as 'transfer(address,uint256)'",
        "params": {
          "_signature": "Function signature",
          "_target": "Address of the destination contract to call"
        }
      },
      "setAuthFunctionCallMany(string[],address[])": {
        "details": "Input expected is the function signature as 'transfer(address,uint256)'",
        "params": {
          "_signatures": "Function signatures",
          "_targets": "Address of the destination contract to call"
        }
      },
      "setMasterCopy(address)": {
        "params": {
          "_masterCopy": "Address of contract bytecode to factory clone"
        }
      },
      "setMoxiePassTokenAndUri(address,string)": {
        "params": {
          "_moxiePassTokenUri": "Address of the MoxiePassToken contract"
        }
      },
      "token()": {
        "returns": {
          "_0": "Token used for transfers and approvals"
        }
      },
      "transferOwnership(address)": {
        "details": "Transfers ownership of the contract to a new account (`newOwner`). Can only be called by the current owner."
      },
      "unsetAuthFunctionCall(string)": {
        "details": "Input expected is the function signature as 'transfer(address,uint256)'",
        "params": {
          "_signature": "Function signature"
        }
      },
      "withdraw(uint256)": {
        "details": "Escape hatch in case of mistakes or to recover remaining funds",
        "params": {
          "_amount": "Amount of tokens to withdraw"
        }
      }
    },
    "title": "MoxieTokenLockManager",
    "version": 1
  },
  "userdoc": {
    "kind": "user",
    "methods": {
      "addSubjectTokenDestination(address)": {
        "notice": "Adds an address that can be allowed by a protocol contracts to pull funds"
      },
      "addTokenDestination(address)": {
        "notice": "Adds an address that can be allowed by a token lock to pull funds"
      },
      "constructor": {
        "notice": "Constructor."
      },
      "createTokenLockWallet(address,address,uint256,uint256,uint256,uint256,uint256,uint256,uint8)": {
        "notice": "Creates and fund a new token lock wallet using a minimum proxy"
      },
      "deposit(uint256)": {
        "notice": "Deposits tokens into the contract"
      },
      "getAuthFunctionCallTarget(bytes4)": {
        "notice": "Gets the target contract to call for a particular function signature"
      },
      "getDeploymentAddress(bytes32,address)": {
        "notice": "Gets the deterministic CREATE2 address for MinimalProxy with a particular implementation"
      },
      "getDeploymentAddress(bytes32,address,address)": {
        "notice": "Gets the deterministic CREATE2 address for MinimalProxy with a particular implementation"
      },
      "getSubjectTokenDestinations()": {
        "notice": "Returns an array of authorized subject token destination addresses"
      },
      "getTokenDestinations()": {
        "notice": "Returns an array of authorized destination addresses"
      },
      "isAuthFunctionCall(bytes4)": {
        "notice": "Returns true if the function call is authorized"
      },
      "isSubjectTokenDestination(address)": {
        "notice": "Returns True if the address is authorized to be a destination of subject tokens"
      },
      "isTokenDestination(address)": {
        "notice": "Returns True if the address is authorized to be a destination of tokens"
      },
      "removeSubjectTokenDestination(address)": {
        "notice": "Removes an address that was allowed by protocol contracts to pull funds"
      },
      "removeTokenDestination(address)": {
        "notice": "Removes an address that can be allowed by a token lock to pull funds"
      },
      "setAuthFunctionCall(string,address)": {
        "notice": "Sets an authorized function call to target"
      },
      "setAuthFunctionCallMany(string[],address[])": {
        "notice": "Sets an authorized function call to target in bulk"
      },
      "setMasterCopy(address)": {
        "notice": "Sets the masterCopy bytecode to use to create clones of TokenLock contracts"
      },
      "setMoxiePassTokenAndUri(address,string)": {
        "notice": "Sets the MoxiePassToken contract address to mint on every token lock creation"
      },
      "token()": {
        "notice": "Gets the MOXIE token address"
      },
      "unsetAuthFunctionCall(string)": {
        "notice": "Unsets an authorized function call to target"
      },
      "withdraw(uint256)": {
        "notice": "Withdraws tokens from the contract"
      }
    },
    "notice": "This contract manages a list of authorized function calls and targets that can be called by any TokenLockWallet contract and it is a factory of TokenLockWallet contracts. This contract receives funds to make the process of creating TokenLockWallet contracts easier by distributing them the initial tokens to be managed. The owner can setup a list of token destinations that will be used by TokenLock contracts to approve the pulling of funds, this way in can be guaranteed that only protocol contracts will manipulate users funds.",
    "version": 1
  },
  "storageLayout": {
    "storage": [
      {
        "astId": 7,
        "contract": "contracts/MoxieTokenLockManager.sol:MoxieTokenLockManager",
        "label": "_owner",
        "offset": 0,
        "slot": "0",
        "type": "t_address"
      },
      {
        "astId": 2973,
        "contract": "contracts/MoxieTokenLockManager.sol:MoxieTokenLockManager",
        "label": "authFnCalls",
        "offset": 0,
        "slot": "1",
        "type": "t_mapping(t_bytes4,t_address)"
      },
      {
        "astId": 2975,
        "contract": "contracts/MoxieTokenLockManager.sol:MoxieTokenLockManager",
        "label": "_tokenDestinations",
        "offset": 0,
        "slot": "2",
        "type": "t_struct(AddressSet)1589_storage"
      },
      {
        "astId": 2977,
        "contract": "contracts/MoxieTokenLockManager.sol:MoxieTokenLockManager",
        "label": "_subjectTokenDestinations",
        "offset": 0,
        "slot": "4",
        "type": "t_struct(AddressSet)1589_storage"
      },
      {
        "astId": 2979,
        "contract": "contracts/MoxieTokenLockManager.sol:MoxieTokenLockManager",
        "label": "masterCopy",
        "offset": 0,
        "slot": "6",
        "type": "t_address"
      },
      {
        "astId": 2981,
        "contract": "contracts/MoxieTokenLockManager.sol:MoxieTokenLockManager",
        "label": "_token",
        "offset": 0,
        "slot": "7",
        "type": "t_contract(IERC20)554"
      },
      {
        "astId": 2983,
        "contract": "contracts/MoxieTokenLockManager.sol:MoxieTokenLockManager",
        "label": "moxiePassToken",
        "offset": 0,
        "slot": "8",
        "type": "t_contract(IMoxiePass)1833"
      },
      {
        "astId": 2985,
        "contract": "contracts/MoxieTokenLockManager.sol:MoxieTokenLockManager",
        "label": "moxiePassTokenUri",
        "offset": 0,
        "slot": "9",
        "type": "t_string_storage"
      }
    ],
    "types": {
      "t_address": {
        "encoding": "inplace",
        "label": "address",
        "numberOfBytes": "20"
      },
      "t_array(t_bytes32)dyn_storage": {
        "base": "t_bytes32",
        "encoding": "dynamic_array",
        "label": "bytes32[]",
        "numberOfBytes": "32"
      },
      "t_bytes32": {
        "encoding": "inplace",
        "label": "bytes32",
        "numberOfBytes": "32"
      },
      "t_bytes4": {
        "encoding": "inplace",
        "label": "bytes4",
        "numberOfBytes": "4"
      },
      "t_contract(IERC20)554": {
        "encoding": "inplace",
        "label": "contract IERC20",
        "numberOfBytes": "20"
      },
      "t_contract(IMoxiePass)1833": {
        "encoding": "inplace",
        "label": "contract IMoxiePass",
        "numberOfBytes": "20"
      },
      "t_mapping(t_bytes32,t_uint256)": {
        "encoding": "mapping",
        "key": "t_bytes32",
        "label": "mapping(bytes32 => uint256)",
        "numberOfBytes": "32",
        "value": "t_uint256"
      },
      "t_mapping(t_bytes4,t_address)": {
        "encoding": "mapping",
        "key": "t_bytes4",
        "label": "mapping(bytes4 => address)",
        "numberOfBytes": "32",
        "value": "t_address"
      },
      "t_string_storage": {
        "encoding": "bytes",
        "label": "string",
        "numberOfBytes": "32"
      },
      "t_struct(AddressSet)1589_storage": {
        "encoding": "inplace",
        "label": "struct EnumerableSet.AddressSet",
        "members": [
          {
            "astId": 1588,
            "contract": "contracts/MoxieTokenLockManager.sol:MoxieTokenLockManager",
            "label": "_inner",
            "offset": 0,
            "slot": "0",
            "type": "t_struct(Set)1324_storage"
          }
        ],
        "numberOfBytes": "64"
      },
      "t_struct(Set)1324_storage": {
        "encoding": "inplace",
        "label": "struct EnumerableSet.Set",
        "members": [
          {
            "astId": 1319,
            "contract": "contracts/MoxieTokenLockManager.sol:MoxieTokenLockManager",
            "label": "_values",
            "offset": 0,
            "slot": "0",
            "type": "t_array(t_bytes32)dyn_storage"
          },
          {
            "astId": 1323,
            "contract": "contracts/MoxieTokenLockManager.sol:MoxieTokenLockManager",
            "label": "_indexes",
            "offset": 0,
            "slot": "1",
            "type": "t_mapping(t_bytes32,t_uint256)"
          }
        ],
        "numberOfBytes": "64"
      },
      "t_uint256": {
        "encoding": "inplace",
        "label": "uint256",
        "numberOfBytes": "32"
      }
    }
  }
}