{
  "address": "0x77f94297967F091Df7242d3A6e276a69fdC8b55A",
  "abi": [
    {
      "inputs": [
        {
          "internalType": "contract IERC20",
          "name": "_MoxieToken",
          "type": "address"
        },
        {
          "internalType": "address",
          "name": "_masterCopy",
          "type": "address"
        }
      ],
      "stateMutability": "nonpayable",
      "type": "constructor"
    },
    {
      "anonymous": false,
      "inputs": [
        {
          "indexed": true,
          "internalType": "address",
          "name": "caller",
          "type": "address"
        },
        {
          "indexed": true,
          "internalType": "bytes4",
          "name": "sigHash",
          "type": "bytes4"
        },
        {
          "indexed": true,
          "internalType": "address",
          "name": "target",
          "type": "address"
        },
        {
          "indexed": false,
          "internalType": "string",
          "name": "signature",
          "type": "string"
        }
      ],
      "name": "FunctionCallAuth",
      "type": "event"
    },
    {
      "anonymous": false,
      "inputs": [
        {
          "indexed": true,
          "internalType": "address",
          "name": "masterCopy",
          "type": "address"
        }
      ],
      "name": "MasterCopyUpdated",
      "type": "event"
    },
    {
      "anonymous": false,
      "inputs": [
        {
          "indexed": true,
          "internalType": "address",
          "name": "moxiePassToken",
          "type": "address"
        }
      ],
      "name": "MoxiePassTokenUpdated",
      "type": "event"
    },
    {
      "anonymous": false,
      "inputs": [
        {
          "indexed": true,
          "internalType": "address",
          "name": "previousOwner",
          "type": "address"
        },
        {
          "indexed": true,
          "internalType": "address",
          "name": "newOwner",
          "type": "address"
        }
      ],
      "name": "OwnershipTransferred",
      "type": "event"
    },
    {
      "anonymous": false,
      "inputs": [
        {
          "indexed": true,
          "internalType": "address",
          "name": "proxy",
          "type": "address"
        }
      ],
      "name": "ProxyCreated",
      "type": "event"
    },
    {
      "anonymous": false,
      "inputs": [
        {
          "indexed": true,
          "internalType": "address",
          "name": "dst",
          "type": "address"
        },
        {
          "indexed": false,
          "internalType": "bool",
          "name": "allowed",
          "type": "bool"
        }
      ],
      "name": "TokenDestinationAllowed",
      "type": "event"
    },
    {
      "anonymous": false,
      "inputs": [
        {
          "indexed": true,
          "internalType": "address",
          "name": "contractAddress",
          "type": "address"
        },
        {
          "indexed": true,
          "internalType": "bytes32",
          "name": "initHash",
          "type": "bytes32"
        },
        {
          "indexed": true,
          "internalType": "address",
          "name": "beneficiary",
          "type": "address"
        },
        {
          "indexed": false,
          "internalType": "address",
          "name": "token",
          "type": "address"
        },
        {
          "indexed": false,
          "internalType": "uint256",
          "name": "managedAmount",
          "type": "uint256"
        },
        {
          "indexed": false,
          "internalType": "uint256",
          "name": "startTime",
          "type": "uint256"
        },
        {
          "indexed": false,
          "internalType": "uint256",
          "name": "endTime",
          "type": "uint256"
        },
        {
          "indexed": false,
          "internalType": "uint256",
          "name": "periods",
          "type": "uint256"
        },
        {
          "indexed": false,
          "internalType": "uint256",
          "name": "releaseStartTime",
          "type": "uint256"
        },
        {
          "indexed": false,
          "internalType": "uint256",
          "name": "vestingCliffTime",
          "type": "uint256"
        },
        {
          "indexed": false,
          "internalType": "enum IMoxieTokenLock.Revocability",
          "name": "revocable",
          "type": "uint8"
        }
      ],
      "name": "TokenLockCreated",
      "type": "event"
    },
    {
      "anonymous": false,
      "inputs": [
        {
          "indexed": true,
          "internalType": "address",
          "name": "sender",
          "type": "address"
        },
        {
          "indexed": false,
          "internalType": "uint256",
          "name": "amount",
          "type": "uint256"
        }
      ],
      "name": "TokensDeposited",
      "type": "event"
    },
    {
      "anonymous": false,
      "inputs": [
        {
          "indexed": true,
          "internalType": "address",
          "name": "sender",
          "type": "address"
        },
        {
          "indexed": false,
          "internalType": "uint256",
          "name": "amount",
          "type": "uint256"
        }
      ],
      "name": "TokensWithdrawn",
      "type": "event"
    },
    {
      "inputs": [
        {
          "internalType": "address",
          "name": "_dst",
          "type": "address"
        }
      ],
      "name": "addTokenDestination",
      "outputs": [],
      "stateMutability": "nonpayable",
      "type": "function"
    },
    {
      "inputs": [
        {
          "internalType": "bytes4",
          "name": "",
          "type": "bytes4"
        }
      ],
      "name": "authFnCalls",
      "outputs": [
        {
          "internalType": "address",
          "name": "",
          "type": "address"
        }
      ],
      "stateMutability": "view",
      "type": "function"
    },
    {
      "inputs": [
        {
          "internalType": "address",
          "name": "_owner",
          "type": "address"
        },
        {
          "internalType": "address",
          "name": "_beneficiary",
          "type": "address"
        },
        {
          "internalType": "uint256",
          "name": "_managedAmount",
          "type": "uint256"
        },
        {
          "internalType": "uint256",
          "name": "_startTime",
          "type": "uint256"
        },
        {
          "internalType": "uint256",
          "name": "_endTime",
          "type": "uint256"
        },
        {
          "internalType": "uint256",
          "name": "_periods",
          "type": "uint256"
        },
        {
          "internalType": "uint256",
          "name": "_releaseStartTime",
          "type": "uint256"
        },
        {
          "internalType": "uint256",
          "name": "_vestingCliffTime",
          "type": "uint256"
        },
        {
          "internalType": "enum IMoxieTokenLock.Revocability",
          "name": "_revocable",
          "type": "uint8"
        }
      ],
      "name": "createTokenLockWallet",
      "outputs": [],
      "stateMutability": "nonpayable",
      "type": "function"
    },
    {
      "inputs": [
        {
          "internalType": "uint256",
          "name": "_amount",
          "type": "uint256"
        }
      ],
      "name": "deposit",
      "outputs": [],
      "stateMutability": "nonpayable",
      "type": "function"
    },
    {
      "inputs": [
        {
          "internalType": "bytes4",
          "name": "_sigHash",
          "type": "bytes4"
        }
      ],
      "name": "getAuthFunctionCallTarget",
      "outputs": [
        {
          "internalType": "address",
          "name": "",
          "type": "address"
        }
      ],
      "stateMutability": "view",
      "type": "function"
    },
    {
      "inputs": [
        {
          "internalType": "bytes32",
          "name": "_salt",
          "type": "bytes32"
        },
        {
          "internalType": "address",
          "name": "_implementation",
          "type": "address"
        },
        {
          "internalType": "address",
          "name": "_deployer",
          "type": "address"
        }
      ],
      "name": "getDeploymentAddress",
      "outputs": [
        {
          "internalType": "address",
          "name": "",
          "type": "address"
        }
      ],
      "stateMutability": "pure",
      "type": "function"
    },
    {
      "inputs": [
        {
          "internalType": "bytes32",
          "name": "_salt",
          "type": "bytes32"
        },
        {
          "internalType": "address",
          "name": "_implementation",
          "type": "address"
        }
      ],
      "name": "getDeploymentAddress",
      "outputs": [
        {
          "internalType": "address",
          "name": "",
          "type": "address"
        }
      ],
      "stateMutability": "view",
      "type": "function"
    },
    {
      "inputs": [],
      "name": "getTokenDestinations",
      "outputs": [
        {
          "internalType": "address[]",
          "name": "",
          "type": "address[]"
        }
      ],
      "stateMutability": "view",
      "type": "function"
    },
    {
      "inputs": [
        {
          "internalType": "bytes4",
          "name": "_sigHash",
          "type": "bytes4"
        }
      ],
      "name": "isAuthFunctionCall",
      "outputs": [
        {
          "internalType": "bool",
          "name": "",
          "type": "bool"
        }
      ],
      "stateMutability": "view",
      "type": "function"
    },
    {
      "inputs": [
        {
          "internalType": "address",
          "name": "_dst",
          "type": "address"
        }
      ],
      "name": "isTokenDestination",
      "outputs": [
        {
          "internalType": "bool",
          "name": "",
          "type": "bool"
        }
      ],
      "stateMutability": "view",
      "type": "function"
    },
    {
      "inputs": [],
      "name": "masterCopy",
      "outputs": [
        {
          "internalType": "address",
          "name": "",
          "type": "address"
        }
      ],
      "stateMutability": "view",
      "type": "function"
    },
    {
      "inputs": [],
      "name": "owner",
      "outputs": [
        {
          "internalType": "address",
          "name": "",
          "type": "address"
        }
      ],
      "stateMutability": "view",
      "type": "function"
    },
    {
      "inputs": [
        {
          "internalType": "address",
          "name": "_dst",
          "type": "address"
        }
      ],
      "name": "removeTokenDestination",
      "outputs": [],
      "stateMutability": "nonpayable",
      "type": "function"
    },
    {
      "inputs": [],
      "name": "renounceOwnership",
      "outputs": [],
      "stateMutability": "nonpayable",
      "type": "function"
    },
    {
      "inputs": [
        {
          "internalType": "string",
          "name": "_signature",
          "type": "string"
        },
        {
          "internalType": "address",
          "name": "_target",
          "type": "address"
        }
      ],
      "name": "setAuthFunctionCall",
      "outputs": [],
      "stateMutability": "nonpayable",
      "type": "function"
    },
    {
      "inputs": [
        {
          "internalType": "string[]",
          "name": "_signatures",
          "type": "string[]"
        },
        {
          "internalType": "address[]",
          "name": "_targets",
          "type": "address[]"
        }
      ],
      "name": "setAuthFunctionCallMany",
      "outputs": [],
      "stateMutability": "nonpayable",
      "type": "function"
    },
    {
      "inputs": [
        {
          "internalType": "address",
          "name": "_masterCopy",
          "type": "address"
        }
      ],
      "name": "setMasterCopy",
      "outputs": [],
      "stateMutability": "nonpayable",
      "type": "function"
    },
    {
      "inputs": [
        {
          "internalType": "address",
          "name": "moxiePassToken_",
          "type": "address"
        }
      ],
      "name": "setMoxiePassToken",
      "outputs": [],
      "stateMutability": "nonpayable",
      "type": "function"
    },
    {
      "inputs": [],
      "name": "token",
      "outputs": [
        {
          "internalType": "contract IERC20",
          "name": "",
          "type": "address"
        }
      ],
      "stateMutability": "view",
      "type": "function"
    },
    {
      "inputs": [
        {
          "internalType": "address",
          "name": "newOwner",
          "type": "address"
        }
      ],
      "name": "transferOwnership",
      "outputs": [],
      "stateMutability": "nonpayable",
      "type": "function"
    },
    {
      "inputs": [
        {
          "internalType": "string",
          "name": "_signature",
          "type": "string"
        }
      ],
      "name": "unsetAuthFunctionCall",
      "outputs": [],
      "stateMutability": "nonpayable",
      "type": "function"
    },
    {
      "inputs": [
        {
          "internalType": "uint256",
          "name": "_amount",
          "type": "uint256"
        }
      ],
      "name": "withdraw",
      "outputs": [],
      "stateMutability": "nonpayable",
      "type": "function"
    }
  ],
  "transactionHash": "0x6789c0e39e74681a8cee56cea855b98fad448e171f243c0224f50b081eee1de1",
  "args": [
    "0xF2DdE6E0AdCBEa7A5c523a52bbE48B378fd88B77",
    "0x22a9290F51865f7B19BcF76f0f2A6ee0aC807254"
  ],
  "solcInputHash": "989f5d08a8acbe22ae7e506cddc0ca77",
  "bytecode": "0x60806040523480156200001157600080fd5b5060405162003fa238038062003fa283398181016040528101906200003791906200039c565b600062000049620001b460201b60201c565b9050806000806101000a81548173ffffffffffffffffffffffffffffffffffffffff021916908373ffffffffffffffffffffffffffffffffffffffff1602179055508073ffffffffffffffffffffffffffffffffffffffff16600073ffffffffffffffffffffffffffffffffffffffff167f8be0079c531659141344cd1fd0a4f28419497f9722a3daafe3b4186f6b6457e060405160405180910390a350600073ffffffffffffffffffffffffffffffffffffffff168273ffffffffffffffffffffffffffffffffffffffff1614156200015a576040517f08c379a00000000000000000000000000000000000000000000000000000000081526004016200015190620004e7565b60405180910390fd5b81600560006101000a81548173ffffffffffffffffffffffffffffffffffffffff021916908373ffffffffffffffffffffffffffffffffffffffff160217905550620001ac81620001bc60201b60201c565b505062000596565b600033905090565b620001cc620001b460201b60201c565b73ffffffffffffffffffffffffffffffffffffffff16620001f26200034560201b60201c565b73ffffffffffffffffffffffffffffffffffffffff16146200024b576040517f08c379a00000000000000000000000000000000000000000000000000000000081526004016200024290620004c5565b60405180910390fd5b600073ffffffffffffffffffffffffffffffffffffffff168173ffffffffffffffffffffffffffffffffffffffff161415620002be576040517f08c379a0000000000000000000000000000000000000000000000000000000008152600401620002b590620004a3565b60405180910390fd5b80600460006101000a81548173ffffffffffffffffffffffffffffffffffffffff021916908373ffffffffffffffffffffffffffffffffffffffff1602179055508073ffffffffffffffffffffffffffffffffffffffff167f30909084afc859121ffc3a5aef7fe37c540a9a1ef60bd4d8dcdb76376fadf9de60405160405180910390a250565b60008060009054906101000a900473ffffffffffffffffffffffffffffffffffffffff16905090565b6000815190506200037f8162000562565b92915050565b60008151905062000396816200057c565b92915050565b60008060408385031215620003b057600080fd5b6000620003c08582860162000385565b9250506020620003d3858286016200036e565b9150509250929050565b6000620003ec60198362000509565b91507f4d6173746572436f70792063616e6e6f74206265207a65726f000000000000006000830152602082019050919050565b60006200042e60208362000509565b91507f4f776e61626c653a2063616c6c6572206973206e6f7420746865206f776e65726000830152602082019050919050565b60006200047060148362000509565b91507f546f6b656e2063616e6e6f74206265207a65726f0000000000000000000000006000830152602082019050919050565b60006020820190508181036000830152620004be81620003dd565b9050919050565b60006020820190508181036000830152620004e0816200041f565b9050919050565b60006020820190508181036000830152620005028162000461565b9050919050565b600082825260208201905092915050565b6000620005278262000542565b9050919050565b60006200053b826200051a565b9050919050565b600073ffffffffffffffffffffffffffffffffffffffff82169050919050565b6200056d816200051a565b81146200057957600080fd5b50565b62000587816200052e565b81146200059357600080fd5b50565b6139fc80620005a66000396000f3fe608060405234801561001057600080fd5b50600436106101425760003560e01c80638da5cb5b116100b8578063bdb62fbe1161007c578063bdb62fbe1461034b578063c1ab13db1461037b578063cf497e6c14610397578063f1d24c45146103b3578063f2fde38b146103e3578063fc0c546a146103ff57610142565b80638da5cb5b146102b95780639c05fc60146102d7578063a3457466146102f3578063a619486e14610311578063b6b55f251461032f57610142565b80635975e00c1161010a5780635975e00c146101fb578063623672111461021757806368d30c2e146102335780636e03b8dc1461024f578063715018a61461027f57806379ee1bdf1461028957610142565b806303990a6c146101475780630602ba2b146101635780632e1a7d4d1461019357806343fb93d9146101af578063463013a2146101df575b600080fd5b610161600480360381019061015c91906127ed565b61041d565b005b61017d600480360381019061017891906127c4565b6105c5565b60405161018a919061331c565b60405180910390f35b6101ad60048036038101906101a8919061288a565b610606565b005b6101c960048036038101906101c49190612775565b610763565b6040516101d69190613156565b60405180910390f35b6101f960048036038101906101f49190612832565b610788565b005b610215600480360381019061021091906125ac565b610814565b005b610231600480360381019061022c91906125ac565b6109a5565b005b61024d600480360381019061024891906125d5565b610b18565b005b610269600480360381019061026491906127c4565b610eed565b6040516102769190613156565b60405180910390f35b610287610f20565b005b6102a3600480360381019061029e91906125ac565b61105a565b6040516102b0919061331c565b60405180910390f35b6102c1611077565b6040516102ce9190613156565b60405180910390f35b6102f160048036038101906102ec919061269b565b6110a0565b005b6102fb6111cd565b60405161030891906132fa565b60405180910390f35b6103196112a5565b6040516103269190613156565b60405180910390f35b6103496004803603810190610344919061288a565b6112cb565b005b61036560048036038101906103609190612739565b6113ae565b6040516103729190613156565b60405180910390f35b610395600480360381019061039091906125ac565b6113c3565b005b6103b160048036038101906103ac91906125ac565b6114e4565b005b6103cd60048036038101906103c891906127c4565b611657565b6040516103da9190613156565b60405180910390f35b6103fd60048036038101906103f891906125ac565b6116d2565b005b61040761187b565b6040516104149190613337565b60405180910390f35b6104256118a5565b73ffffffffffffffffffffffffffffffffffffffff16610443611077565b73ffffffffffffffffffffffffffffffffffffffff1614610499576040517f08c379a000000000000000000000000000000000000000000000000000000000815260040161049090613538565b60405180910390fd5b60006104a583836118ad565b9050600060016000837bffffffffffffffffffffffffffffffffffffffffffffffffffffffff19167bffffffffffffffffffffffffffffffffffffffffffffffffffffffff1916815260200190815260200160002060006101000a81548173ffffffffffffffffffffffffffffffffffffffff021916908373ffffffffffffffffffffffffffffffffffffffff160217905550600073ffffffffffffffffffffffffffffffffffffffff16817bffffffffffffffffffffffffffffffffffffffffffffffffffffffff19163373ffffffffffffffffffffffffffffffffffffffff167f450397a2db0e89eccfe664cc6cdfd274a88bc00d29aaec4d991754a42f19f8c986866040516105b8929190613352565b60405180910390a4505050565b60008073ffffffffffffffffffffffffffffffffffffffff166105e783611657565b73ffffffffffffffffffffffffffffffffffffffff1614159050919050565b61060e6118a5565b73ffffffffffffffffffffffffffffffffffffffff1661062c611077565b73ffffffffffffffffffffffffffffffffffffffff1614610682576040517f08c379a000000000000000000000000000000000000000000000000000000000815260040161067990613538565b60405180910390fd5b600081116106c5576040517f08c379a00000000000000000000000000000000000000000000000000000000081526004016106bc90613518565b60405180910390fd5b6107123382600560009054906101000a900473ffffffffffffffffffffffffffffffffffffffff1673ffffffffffffffffffffffffffffffffffffffff1661193b9092919063ffffffff16565b3373ffffffffffffffffffffffffffffffffffffffff167f6352c5382c4a4578e712449ca65e83cdb392d045dfcf1cad9615189db2da244b826040516107589190613618565b60405180910390a250565b600061077f84610772856119c1565b8051906020012084611a37565b90509392505050565b6107906118a5565b73ffffffffffffffffffffffffffffffffffffffff166107ae611077565b73ffffffffffffffffffffffffffffffffffffffff1614610804576040517f08c379a00000000000000000000000000000000000000000000000000000000081526004016107fb90613538565b60405180910390fd5b61080f838383611a7b565b505050565b61081c6118a5565b73ffffffffffffffffffffffffffffffffffffffff1661083a611077565b73ffffffffffffffffffffffffffffffffffffffff1614610890576040517f08c379a000000000000000000000000000000000000000000000000000000000815260040161088790613538565b60405180910390fd5b600073ffffffffffffffffffffffffffffffffffffffff168173ffffffffffffffffffffffffffffffffffffffff161415610900576040517f08c379a00000000000000000000000000000000000000000000000000000000081526004016108f7906133f8565b60405180910390fd5b610914816002611c5d90919063ffffffff16565b610953576040517f08c379a000000000000000000000000000000000000000000000000000000000815260040161094a90613578565b60405180910390fd5b8073ffffffffffffffffffffffffffffffffffffffff167f33442b8c13e72dd75a027f08f9bff4eed2dfd26e43cdea857365f5163b359a79600160405161099a919061331c565b60405180910390a250565b6109ad6118a5565b73ffffffffffffffffffffffffffffffffffffffff166109cb611077565b73ffffffffffffffffffffffffffffffffffffffff1614610a21576040517f08c379a0000000000000000000000000000000000000000000000000000000008152600401610a1890613538565b60405180910390fd5b600073ffffffffffffffffffffffffffffffffffffffff168173ffffffffffffffffffffffffffffffffffffffff161415610a91576040517f08c379a0000000000000000000000000000000000000000000000000000000008152600401610a88906134d8565b60405180910390fd5b80600660006101000a81548173ffffffffffffffffffffffffffffffffffffffff021916908373ffffffffffffffffffffffffffffffffffffffff1602179055508073ffffffffffffffffffffffffffffffffffffffff167f4e61a6ffbc3747e39d64fc1a8889499533aea16d78797682fd357db98677c93a60405160405180910390a250565b610b206118a5565b73ffffffffffffffffffffffffffffffffffffffff16610b3e611077565b73ffffffffffffffffffffffffffffffffffffffff1614610b94576040517f08c379a0000000000000000000000000000000000000000000000000000000008152600401610b8b90613538565b60405180910390fd5b86600560009054906101000a900473ffffffffffffffffffffffffffffffffffffffff1673ffffffffffffffffffffffffffffffffffffffff166370a08231306040518263ffffffff1660e01b8152600401610bf09190613156565b60206040518083038186803b158015610c0857600080fd5b505afa158015610c1c573d6000803e3d6000fd5b505050506040513d601f19601f82011682018060405250810190610c4091906128b3565b1015610c81576040517f08c379a0000000000000000000000000000000000000000000000000000000008152600401610c7890613438565b60405180910390fd5b606063bd896dcb60e01b308b8b600560009054906101000a900473ffffffffffffffffffffffffffffffffffffffff168c8c8c8c8c8c8c604051602401610cd29b9a99989796959493929190613171565b604051602081830303815290604052907bffffffffffffffffffffffffffffffffffffffffffffffffffffffff19166020820180517bffffffffffffffffffffffffffffffffffffffffffffffffffffffff838183161783525050505090506000610d678280519060200120600460009054906101000a900473ffffffffffffffffffffffffffffffffffffffff1684611c8d565b9050610db6818a600560009054906101000a900473ffffffffffffffffffffffffffffffffffffffff1673ffffffffffffffffffffffffffffffffffffffff1661193b9092919063ffffffff16565b600660009054906101000a900473ffffffffffffffffffffffffffffffffffffffff1673ffffffffffffffffffffffffffffffffffffffff16636a627842826040518263ffffffff1660e01b8152600401610e119190613156565b600060405180830381600087803b158015610e2b57600080fd5b505af1158015610e3f573d6000803e3d6000fd5b505050508973ffffffffffffffffffffffffffffffffffffffff1682805190602001208273ffffffffffffffffffffffffffffffffffffffff167f3c7ff6acee351ed98200c285a04745858a107e16da2f13c3a81a43073c17d644600560009054906101000a900473ffffffffffffffffffffffffffffffffffffffff168d8d8d8d8d8d8d604051610ed898979695949392919061327c565b60405180910390a45050505050505050505050565b60016020528060005260406000206000915054906101000a900473ffffffffffffffffffffffffffffffffffffffff1681565b610f286118a5565b73ffffffffffffffffffffffffffffffffffffffff16610f46611077565b73ffffffffffffffffffffffffffffffffffffffff1614610f9c576040517f08c379a0000000000000000000000000000000000000000000000000000000008152600401610f9390613538565b60405180910390fd5b600073ffffffffffffffffffffffffffffffffffffffff1660008054906101000a900473ffffffffffffffffffffffffffffffffffffffff1673ffffffffffffffffffffffffffffffffffffffff167f8be0079c531659141344cd1fd0a4f28419497f9722a3daafe3b4186f6b6457e060405160405180910390a360008060006101000a81548173ffffffffffffffffffffffffffffffffffffffff021916908373ffffffffffffffffffffffffffffffffffffffff160217905550565b6000611070826002611d0990919063ffffffff16565b9050919050565b60008060009054906101000a900473ffffffffffffffffffffffffffffffffffffffff16905090565b6110a86118a5565b73ffffffffffffffffffffffffffffffffffffffff166110c6611077565b73ffffffffffffffffffffffffffffffffffffffff161461111c576040517f08c379a000000000000000000000000000000000000000000000000000000000815260040161111390613538565b60405180910390fd5b818190508484905014611164576040517f08c379a000000000000000000000000000000000000000000000000000000000815260040161115b906133d8565b60405180910390fd5b60005b848490508110156111c6576111b985858381811061118157fe5b90506020028101906111939190613633565b85858581811061119f57fe5b90506020020160208101906111b491906125ac565b611a7b565b8080600101915050611167565b5050505050565b6060806111da6002611d39565b67ffffffffffffffff811180156111f057600080fd5b5060405190808252806020026020018201604052801561121f5781602001602082028036833780820191505090505b50905060005b61122f6002611d39565b81101561129d5761124a816002611d4e90919063ffffffff16565b82828151811061125657fe5b602002602001019073ffffffffffffffffffffffffffffffffffffffff16908173ffffffffffffffffffffffffffffffffffffffff16815250508080600101915050611225565b508091505090565b600460009054906101000a900473ffffffffffffffffffffffffffffffffffffffff1681565b6000811161130e576040517f08c379a000000000000000000000000000000000000000000000000000000000815260040161130590613518565b60405180910390fd5b61135d333083600560009054906101000a900473ffffffffffffffffffffffffffffffffffffffff1673ffffffffffffffffffffffffffffffffffffffff16611d68909392919063ffffffff16565b3373ffffffffffffffffffffffffffffffffffffffff167f59062170a285eb80e8c6b8ced60428442a51910635005233fc4ce084a475845e826040516113a39190613618565b60405180910390a250565b60006113bb838330610763565b905092915050565b6113cb6118a5565b73ffffffffffffffffffffffffffffffffffffffff166113e9611077565b73ffffffffffffffffffffffffffffffffffffffff161461143f576040517f08c379a000000000000000000000000000000000000000000000000000000000815260040161143690613538565b60405180910390fd5b611453816002611df190919063ffffffff16565b611492576040517f08c379a000000000000000000000000000000000000000000000000000000000815260040161148990613478565b60405180910390fd5b8073ffffffffffffffffffffffffffffffffffffffff167f33442b8c13e72dd75a027f08f9bff4eed2dfd26e43cdea857365f5163b359a7960006040516114d9919061331c565b60405180910390a250565b6114ec6118a5565b73ffffffffffffffffffffffffffffffffffffffff1661150a611077565b73ffffffffffffffffffffffffffffffffffffffff1614611560576040517f08c379a000000000000000000000000000000000000000000000000000000000815260040161155790613538565b60405180910390fd5b600073ffffffffffffffffffffffffffffffffffffffff168173ffffffffffffffffffffffffffffffffffffffff1614156115d0576040517f08c379a00000000000000000000000000000000000000000000000000000000081526004016115c790613498565b60405180910390fd5b80600460006101000a81548173ffffffffffffffffffffffffffffffffffffffff021916908373ffffffffffffffffffffffffffffffffffffffff1602179055508073ffffffffffffffffffffffffffffffffffffffff167f30909084afc859121ffc3a5aef7fe37c540a9a1ef60bd4d8dcdb76376fadf9de60405160405180910390a250565b600060016000837bffffffffffffffffffffffffffffffffffffffffffffffffffffffff19167bffffffffffffffffffffffffffffffffffffffffffffffffffffffff1916815260200190815260200160002060009054906101000a900473ffffffffffffffffffffffffffffffffffffffff169050919050565b6116da6118a5565b73ffffffffffffffffffffffffffffffffffffffff166116f8611077565b73ffffffffffffffffffffffffffffffffffffffff161461174e576040517f08c379a000000000000000000000000000000000000000000000000000000000815260040161174590613538565b60405180910390fd5b600073ffffffffffffffffffffffffffffffffffffffff168173ffffffffffffffffffffffffffffffffffffffff1614156117be576040517f08c379a00000000000000000000000000000000000000000000000000000000081526004016117b590613418565b60405180910390fd5b8073ffffffffffffffffffffffffffffffffffffffff1660008054906101000a900473ffffffffffffffffffffffffffffffffffffffff1673ffffffffffffffffffffffffffffffffffffffff167f8be0079c531659141344cd1fd0a4f28419497f9722a3daafe3b4186f6b6457e060405160405180910390a3806000806101000a81548173ffffffffffffffffffffffffffffffffffffffff021916908373ffffffffffffffffffffffffffffffffffffffff16021790555050565b6000600560009054906101000a900473ffffffffffffffffffffffffffffffffffffffff16905090565b600033905090565b6000611933838360405160240160405160208183030381529060405291906040516118d992919061313d565b60405180910390207bffffffffffffffffffffffffffffffffffffffffffffffffffffffff19166020820180517bffffffffffffffffffffffffffffffffffffffffffffffffffffffff8381831617835250505050611e21565b905092915050565b6119bc8363a9059cbb60e01b848460405160240161195a929190613253565b604051602081830303815290604052907bffffffffffffffffffffffffffffffffffffffffffffffffffffffff19166020820180517bffffffffffffffffffffffffffffffffffffffffffffffffffffffff8381831617835250505050611e79565b505050565b60606000693d602d80600a3d3981f360b01b9050600069363d3d373d3d3d363d7360b01b905060008460601b905060006e5af43d82803e903d91602b57fd5bf360881b905083838383604051602001611a1d949392919061308a565b604051602081830303815290604052945050505050919050565b60008060ff60f81b838686604051602001611a5594939291906130d8565b6040516020818303038152906040528051906020012090508060001c9150509392505050565b3073ffffffffffffffffffffffffffffffffffffffff168173ffffffffffffffffffffffffffffffffffffffff161415611aea576040517f08c379a0000000000000000000000000000000000000000000000000000000008152600401611ae1906134b8565b60405180910390fd5b611af381611f40565b611b32576040517f08c379a0000000000000000000000000000000000000000000000000000000008152600401611b29906135f8565b60405180910390fd5b6000611b3e84846118ad565b90508160016000837bffffffffffffffffffffffffffffffffffffffffffffffffffffffff19167bffffffffffffffffffffffffffffffffffffffffffffffffffffffff1916815260200190815260200160002060006101000a81548173ffffffffffffffffffffffffffffffffffffffff021916908373ffffffffffffffffffffffffffffffffffffffff1602179055508173ffffffffffffffffffffffffffffffffffffffff16817bffffffffffffffffffffffffffffffffffffffffffffffffffffffff19163373ffffffffffffffffffffffffffffffffffffffff167f450397a2db0e89eccfe664cc6cdfd274a88bc00d29aaec4d991754a42f19f8c98787604051611c4f929190613352565b60405180910390a450505050565b6000611c85836000018373ffffffffffffffffffffffffffffffffffffffff1660001b611f53565b905092915050565b600080611ca4600086611c9f876119c1565b611fc3565b90508073ffffffffffffffffffffffffffffffffffffffff167efffc2da0b561cae30d9826d37709e9421c4725faebc226cbbb7ef5fc5e734960405160405180910390a2600083511115611cfe57611cfc81846120d4565b505b809150509392505050565b6000611d31836000018373ffffffffffffffffffffffffffffffffffffffff1660001b61211e565b905092915050565b6000611d4782600001612141565b9050919050565b6000611d5d8360000183612152565b60001c905092915050565b611deb846323b872dd60e01b858585604051602401611d899392919061321c565b604051602081830303815290604052907bffffffffffffffffffffffffffffffffffffffffffffffffffffffff19166020820180517bffffffffffffffffffffffffffffffffffffffffffffffffffffffff8381831617835250505050611e79565b50505050565b6000611e19836000018373ffffffffffffffffffffffffffffffffffffffff1660001b6121bf565b905092915050565b60006004825114611e67576040517f08c379a0000000000000000000000000000000000000000000000000000000008152600401611e5e90613558565b60405180910390fd5b60006020830151905080915050919050565b6060611edb826040518060400160405280602081526020017f5361666545524332303a206c6f772d6c6576656c2063616c6c206661696c65648152508573ffffffffffffffffffffffffffffffffffffffff166122a79092919063ffffffff16565b9050600081511115611f3b5780806020019051810190611efb9190612710565b611f3a576040517f08c379a0000000000000000000000000000000000000000000000000000000008152600401611f31906135b8565b60405180910390fd5b5b505050565b600080823b905060008111915050919050565b6000611f5f838361211e565b611fb8578260000182908060018154018082558091505060019003906000526020600020016000909190919091505582600001805490508360010160008481526020019081526020016000208190555060019050611fbd565b600090505b92915050565b60008084471015612009576040517f08c379a0000000000000000000000000000000000000000000000000000000008152600401612000906135d8565b60405180910390fd5b60008351141561204e576040517f08c379a0000000000000000000000000000000000000000000000000000000008152600401612045906133b8565b60405180910390fd5b8383516020850187f59050600073ffffffffffffffffffffffffffffffffffffffff168173ffffffffffffffffffffffffffffffffffffffff1614156120c9576040517f08c379a00000000000000000000000000000000000000000000000000000000081526004016120c0906134f8565b60405180910390fd5b809150509392505050565b606061211683836040518060400160405280601e81526020017f416464726573733a206c6f772d6c6576656c2063616c6c206661696c656400008152506122a7565b905092915050565b600080836001016000848152602001908152602001600020541415905092915050565b600081600001805490509050919050565b60008183600001805490501161219d576040517f08c379a000000000000000000000000000000000000000000000000000000000815260040161219490613398565b60405180910390fd5b8260000182815481106121ac57fe5b9060005260206000200154905092915050565b6000808360010160008481526020019081526020016000205490506000811461229b576000600182039050600060018660000180549050039050600086600001828154811061220a57fe5b906000526020600020015490508087600001848154811061222757fe5b906000526020600020018190555060018301876001016000838152602001908152602001600020819055508660000180548061225f57fe5b600190038181906000526020600020016000905590558660010160008781526020019081526020016000206000905560019450505050506122a1565b60009150505b92915050565b60606122b684846000856122bf565b90509392505050565b606082471015612304576040517f08c379a00000000000000000000000000000000000000000000000000000000081526004016122fb90613458565b60405180910390fd5b61230d85611f40565b61234c576040517f08c379a000000000000000000000000000000000000000000000000000000000815260040161234390613598565b60405180910390fd5b600060608673ffffffffffffffffffffffffffffffffffffffff1685876040516123769190613126565b60006040518083038185875af1925050503d80600081146123b3576040519150601f19603f3d011682016040523d82523d6000602084013e6123b8565b606091505b50915091506123c88282866123d4565b92505050949350505050565b606083156123e457829050612434565b6000835111156123f75782518084602001fd5b816040517f08c379a000000000000000000000000000000000000000000000000000000000815260040161242b9190613376565b60405180910390fd5b9392505050565b60008135905061244a81613943565b92915050565b60008083601f84011261246257600080fd5b8235905067ffffffffffffffff81111561247b57600080fd5b60208301915083602082028301111561249357600080fd5b9250929050565b60008083601f8401126124ac57600080fd5b8235905067ffffffffffffffff8111156124c557600080fd5b6020830191508360208202830111156124dd57600080fd5b9250929050565b6000815190506124f38161395a565b92915050565b60008135905061250881613971565b92915050565b60008135905061251d81613988565b92915050565b6000813590506125328161399f565b92915050565b60008083601f84011261254a57600080fd5b8235905067ffffffffffffffff81111561256357600080fd5b60208301915083600182028301111561257b57600080fd5b9250929050565b600081359050612591816139af565b92915050565b6000815190506125a6816139af565b92915050565b6000602082840312156125be57600080fd5b60006125cc8482850161243b565b91505092915050565b60008060008060008060008060006101208a8c0312156125f457600080fd5b60006126028c828d0161243b565b99505060206126138c828d0161243b565b98505060406126248c828d01612582565b97505060606126358c828d01612582565b96505060806126468c828d01612582565b95505060a06126578c828d01612582565b94505060c06126688c828d01612582565b93505060e06126798c828d01612582565b92505061010061268b8c828d01612523565b9150509295985092959850929598565b600080600080604085870312156126b157600080fd5b600085013567ffffffffffffffff8111156126cb57600080fd5b6126d78782880161249a565b9450945050602085013567ffffffffffffffff8111156126f657600080fd5b61270287828801612450565b925092505092959194509250565b60006020828403121561272257600080fd5b6000612730848285016124e4565b91505092915050565b6000806040838503121561274c57600080fd5b600061275a858286016124f9565b925050602061276b8582860161243b565b9150509250929050565b60008060006060848603121561278a57600080fd5b6000612798868287016124f9565b93505060206127a98682870161243b565b92505060406127ba8682870161243b565b9150509250925092565b6000602082840312156127d657600080fd5b60006127e48482850161250e565b91505092915050565b6000806020838503121561280057600080fd5b600083013567ffffffffffffffff81111561281a57600080fd5b61282685828601612538565b92509250509250929050565b60008060006040848603121561284757600080fd5b600084013567ffffffffffffffff81111561286157600080fd5b61286d86828701612538565b935093505060206128808682870161243b565b9150509250925092565b60006020828403121561289c57600080fd5b60006128aa84828501612582565b91505092915050565b6000602082840312156128c557600080fd5b60006128d384828501612597565b91505092915050565b60006128e883836128f4565b60208301905092915050565b6128fd81613700565b82525050565b61290c81613700565b82525050565b61292361291e82613700565b6138b9565b82525050565b60006129348261369a565b61293e81856136c8565b93506129498361368a565b8060005b8381101561297a57815161296188826128dc565b975061296c836136bb565b92505060018101905061294d565b5085935050505092915050565b61299081613712565b82525050565b6129a76129a28261374a565b6138d5565b82525050565b6129be6129b982613776565b6138df565b82525050565b6129d56129d08261371e565b6138cb565b82525050565b6129ec6129e7826137a2565b6138e9565b82525050565b612a036129fe826137ce565b6138f3565b82525050565b6000612a14826136a5565b612a1e81856136d9565b9350612a2e818560208601613886565b80840191505092915050565b612a4381613841565b82525050565b612a5281613865565b82525050565b6000612a6483856136e4565b9350612a71838584613877565b612a7a83613911565b840190509392505050565b6000612a9183856136f5565b9350612a9e838584613877565b82840190509392505050565b6000612ab5826136b0565b612abf81856136e4565b9350612acf818560208601613886565b612ad881613911565b840191505092915050565b6000612af06022836136e4565b91507f456e756d657261626c655365743a20696e646578206f7574206f6620626f756e60008301527f64730000000000000000000000000000000000000000000000000000000000006020830152604082019050919050565b6000612b566020836136e4565b91507f437265617465323a2062797465636f6465206c656e677468206973207a65726f6000830152602082019050919050565b6000612b966015836136e4565b91507f4172726179206c656e677468206d69736d6174636800000000000000000000006000830152602082019050919050565b6000612bd6601a836136e4565b91507f44657374696e6174696f6e2063616e6e6f74206265207a65726f0000000000006000830152602082019050919050565b6000612c166026836136e4565b91507f4f776e61626c653a206e6577206f776e657220697320746865207a65726f206160008301527f64647265737300000000000000000000000000000000000000000000000000006020830152604082019050919050565b6000612c7c6020836136e4565b91507f4e6f7420656e6f75676820746f6b656e7320746f20637265617465206c6f636b6000830152602082019050919050565b6000612cbc6026836136e4565b91507f416464726573733a20696e73756666696369656e742062616c616e636520666f60008301527f722063616c6c00000000000000000000000000000000000000000000000000006020830152604082019050919050565b6000612d22601b836136e4565b91507f44657374696e6174696f6e20616c72656164792072656d6f76656400000000006000830152602082019050919050565b6000612d626019836136e4565b91507f4d6173746572436f70792063616e6e6f74206265207a65726f000000000000006000830152602082019050919050565b6000612da2601d836136e4565b91507f546172676574206d757374206265206f7468657220636f6e74726163740000006000830152602082019050919050565b6000612de2601d836136e4565b91507f4d6f78696550617373546f6b656e2063616e6e6f74206265207a65726f0000006000830152602082019050919050565b6000612e226019836136e4565b91507f437265617465323a204661696c6564206f6e206465706c6f79000000000000006000830152602082019050919050565b6000612e626015836136e4565b91507f416d6f756e742063616e6e6f74206265207a65726f00000000000000000000006000830152602082019050919050565b6000612ea26020836136e4565b91507f4f776e61626c653a2063616c6c6572206973206e6f7420746865206f776e65726000830152602082019050919050565b6000612ee26018836136e4565b91507f496e76616c6964206d6574686f64207369676e617475726500000000000000006000830152602082019050919050565b6000612f226019836136e4565b91507f44657374696e6174696f6e20616c7265616479206164646564000000000000006000830152602082019050919050565b6000612f62601d836136e4565b91507f416464726573733a2063616c6c20746f206e6f6e2d636f6e74726163740000006000830152602082019050919050565b6000612fa2602a836136e4565b91507f5361666545524332303a204552433230206f7065726174696f6e20646964206e60008301527f6f742073756363656564000000000000000000000000000000000000000000006020830152604082019050919050565b6000613008601d836136e4565b91507f437265617465323a20696e73756666696369656e742062616c616e63650000006000830152602082019050919050565b60006130486019836136e4565b91507f546172676574206d757374206265206120636f6e7472616374000000000000006000830152602082019050919050565b61308481613837565b82525050565b60006130968287612996565b600a820191506130a68286612996565b600a820191506130b682856129db565b6014820191506130c682846129ad565b600f8201915081905095945050505050565b60006130e482876129c4565b6001820191506130f48286612912565b60148201915061310482856129f2565b60208201915061311482846129f2565b60208201915081905095945050505050565b60006131328284612a09565b915081905092915050565b600061314a828486612a85565b91508190509392505050565b600060208201905061316b6000830184612903565b92915050565b600061016082019050613187600083018e612903565b613194602083018d612903565b6131a1604083018c612903565b6131ae606083018b612903565b6131bb608083018a61307b565b6131c860a083018961307b565b6131d560c083018861307b565b6131e260e083018761307b565b6131f061010083018661307b565b6131fe61012083018561307b565b61320c610140830184612a49565b9c9b505050505050505050505050565b60006060820190506132316000830186612903565b61323e6020830185612903565b61324b604083018461307b565b949350505050565b60006040820190506132686000830185612903565b613275602083018461307b565b9392505050565b600061010082019050613292600083018b612903565b61329f602083018a61307b565b6132ac604083018961307b565b6132b9606083018861307b565b6132c6608083018761307b565b6132d360a083018661307b565b6132e060c083018561307b565b6132ed60e0830184612a49565b9998505050505050505050565b600060208201905081810360008301526133148184612929565b905092915050565b60006020820190506133316000830184612987565b92915050565b600060208201905061334c6000830184612a3a565b92915050565b6000602082019050818103600083015261336d818486612a58565b90509392505050565b600060208201905081810360008301526133908184612aaa565b905092915050565b600060208201905081810360008301526133b181612ae3565b9050919050565b600060208201905081810360008301526133d181612b49565b9050919050565b600060208201905081810360008301526133f181612b89565b9050919050565b6000602082019050818103600083015261341181612bc9565b9050919050565b6000602082019050818103600083015261343181612c09565b9050919050565b6000602082019050818103600083015261345181612c6f565b9050919050565b6000602082019050818103600083015261347181612caf565b9050919050565b6000602082019050818103600083015261349181612d15565b9050919050565b600060208201905081810360008301526134b181612d55565b9050919050565b600060208201905081810360008301526134d181612d95565b9050919050565b600060208201905081810360008301526134f181612dd5565b9050919050565b6000602082019050818103600083015261351181612e15565b9050919050565b6000602082019050818103600083015261353181612e55565b9050919050565b6000602082019050818103600083015261355181612e95565b9050919050565b6000602082019050818103600083015261357181612ed5565b9050919050565b6000602082019050818103600083015261359181612f15565b9050919050565b600060208201905081810360008301526135b181612f55565b9050919050565b600060208201905081810360008301526135d181612f95565b9050919050565b600060208201905081810360008301526135f181612ffb565b9050919050565b600060208201905081810360008301526136118161303b565b9050919050565b600060208201905061362d600083018461307b565b92915050565b6000808335600160200384360303811261364c57600080fd5b80840192508235915067ffffffffffffffff82111561366a57600080fd5b60208301925060018202360383131561368257600080fd5b509250929050565b6000819050602082019050919050565b600081519050919050565b600081519050919050565b600081519050919050565b6000602082019050919050565b600082825260208201905092915050565b600081905092915050565b600082825260208201905092915050565b600081905092915050565b600061370b82613817565b9050919050565b60008115159050919050565b60007fff0000000000000000000000000000000000000000000000000000000000000082169050919050565b60007fffffffffffffffffffff0000000000000000000000000000000000000000000082169050919050565b60007fffffffffffffffffffffffffffffff000000000000000000000000000000000082169050919050565b60007fffffffffffffffffffffffffffffffffffffffff00000000000000000000000082169050919050565b6000819050919050565b60007fffffffff0000000000000000000000000000000000000000000000000000000082169050919050565b60008190506138128261392f565b919050565b600073ffffffffffffffffffffffffffffffffffffffff82169050919050565b6000819050919050565b600061384c82613853565b9050919050565b600061385e82613817565b9050919050565b600061387082613804565b9050919050565b82818337600083830152505050565b60005b838110156138a4578082015181840152602081019050613889565b838111156138b3576000848401525b50505050565b60006138c4826138fd565b9050919050565b6000819050919050565b6000819050919050565b6000819050919050565b6000819050919050565b6000819050919050565b600061390882613922565b9050919050565bfe5b6000601f19601f8301169050919050565b60008160601b9050919050565b600381106139405761393f61390f565b5b50565b61394c81613700565b811461395757600080fd5b50565b61396381613712565b811461396e57600080fd5b50565b61397a816137ce565b811461398557600080fd5b50565b613991816137d8565b811461399c57600080fd5b50565b600381106139ac57600080fd5b50565b6139b881613837565b81146139c357600080fd5b5056fea2646970667358221220f63a34968a5b5274dabd67c8d18360c9c107d4ef5b6df52bb864ed8dc3d75a8f64736f6c63430007030033",
  "devdoc": {
    "kind": "dev",
    "methods": {
      "addTokenDestination(address)": {
        "params": {
          "_dst": "Destination address"
        }
      },
      "constructor": {
        "params": {
          "_MoxieToken": "Token to use for deposits and withdrawals",
          "_masterCopy": "Address of the master copy to use to clone proxies"
        }
      },
      "createTokenLockWallet(address,address,uint256,uint256,uint256,uint256,uint256,uint256,uint8)": {
        "params": {
          "_beneficiary": "Address of the beneficiary of locked tokens",
          "_endTime": "End time of the release schedule",
          "_managedAmount": "Amount of tokens to be managed by the lock contract",
          "_owner": "Address of the contract owner",
          "_periods": "Number of periods between start time and end time",
          "_releaseStartTime": "Override time for when the releases start",
          "_revocable": "Whether the contract is revocable",
          "_startTime": "Start time of the release schedule"
        }
      },
      "deposit(uint256)": {
        "details": "Even if the ERC20 token can be transferred directly to the contract this function provide a safe interface to do the transfer and avoid mistakes",
        "params": {
          "_amount": "Amount to deposit"
        }
      },
      "getAuthFunctionCallTarget(bytes4)": {
        "params": {
          "_sigHash": "Function signature hash"
        },
        "returns": {
          "_0": "Address of the target contract where to send the call"
        }
      },
      "getDeploymentAddress(bytes32,address)": {
        "details": "Uses address(this) as deployer to compute the address. Only for backwards compatibility.",
        "params": {
          "_implementation": "Address of the proxy target implementation",
          "_salt": "Bytes32 salt to use for CREATE2"
        },
        "returns": {
          "_0": "Address of the counterfactual MinimalProxy"
        }
      },
      "getDeploymentAddress(bytes32,address,address)": {
        "params": {
          "_deployer": "Address of the deployer that creates the contract",
          "_implementation": "Address of the proxy target implementation",
          "_salt": "Bytes32 salt to use for CREATE2"
        },
        "returns": {
          "_0": "Address of the counterfactual MinimalProxy"
        }
      },
      "getTokenDestinations()": {
        "returns": {
          "_0": "Array of addresses authorized to pull funds from a token lock"
        }
      },
      "isAuthFunctionCall(bytes4)": {
        "params": {
          "_sigHash": "Function signature hash"
        },
        "returns": {
          "_0": "True if authorized"
        }
      },
      "isTokenDestination(address)": {
        "params": {
          "_dst": "Destination address"
        },
        "returns": {
          "_0": "True if authorized"
        }
      },
      "owner()": {
        "details": "Returns the address of the current owner."
      },
      "removeTokenDestination(address)": {
        "params": {
          "_dst": "Destination address"
        }
      },
      "renounceOwnership()": {
        "details": "Leaves the contract without owner. It will not be possible to call `onlyOwner` functions anymore. Can only be called by the current owner. NOTE: Renouncing ownership will leave the contract without an owner, thereby removing any functionality that is only available to the owner."
      },
      "setAuthFunctionCall(string,address)": {
        "details": "Input expected is the function signature as 'transfer(address,uint256)'",
        "params": {
          "_signature": "Function signature",
          "_target": "Address of the destination contract to call"
        }
      },
      "setAuthFunctionCallMany(string[],address[])": {
        "details": "Input expected is the function signature as 'transfer(address,uint256)'",
        "params": {
          "_signatures": "Function signatures",
          "_targets": "Address of the destination contract to call"
        }
      },
      "setMasterCopy(address)": {
        "params": {
          "_masterCopy": "Address of contract bytecode to factory clone"
        }
      },
      "setMoxiePassToken(address)": {
        "params": {
          "moxiePassToken_": "Address of the MoxiePassToken contract"
        }
      },
      "token()": {
        "returns": {
          "_0": "Token used for transfers and approvals"
        }
      },
      "transferOwnership(address)": {
        "details": "Transfers ownership of the contract to a new account (`newOwner`). Can only be called by the current owner."
      },
      "unsetAuthFunctionCall(string)": {
        "details": "Input expected is the function signature as 'transfer(address,uint256)'",
        "params": {
          "_signature": "Function signature"
        }
      },
      "withdraw(uint256)": {
        "details": "Escape hatch in case of mistakes or to recover remaining funds",
        "params": {
          "_amount": "Amount of tokens to withdraw"
        }
      }
    },
    "title": "MoxieTokenLockManager",
    "version": 1
  },
  "userdoc": {
    "kind": "user",
    "methods": {
      "addTokenDestination(address)": {
        "notice": "Adds an address that can be allowed by a token lock to pull funds"
      },
      "constructor": {
        "notice": "Constructor."
      },
      "createTokenLockWallet(address,address,uint256,uint256,uint256,uint256,uint256,uint256,uint8)": {
        "notice": "Creates and fund a new token lock wallet using a minimum proxy"
      },
      "deposit(uint256)": {
        "notice": "Deposits tokens into the contract"
      },
      "getAuthFunctionCallTarget(bytes4)": {
        "notice": "Gets the target contract to call for a particular function signature"
      },
      "getDeploymentAddress(bytes32,address)": {
        "notice": "Gets the deterministic CREATE2 address for MinimalProxy with a particular implementation"
      },
      "getDeploymentAddress(bytes32,address,address)": {
        "notice": "Gets the deterministic CREATE2 address for MinimalProxy with a particular implementation"
      },
      "getTokenDestinations()": {
        "notice": "Returns an array of authorized destination addresses"
      },
      "isAuthFunctionCall(bytes4)": {
        "notice": "Returns true if the function call is authorized"
      },
      "isTokenDestination(address)": {
        "notice": "Returns True if the address is authorized to be a destination of tokens"
      },
      "removeTokenDestination(address)": {
        "notice": "Removes an address that can be allowed by a token lock to pull funds"
      },
      "setAuthFunctionCall(string,address)": {
        "notice": "Sets an authorized function call to target"
      },
      "setAuthFunctionCallMany(string[],address[])": {
        "notice": "Sets an authorized function call to target in bulk"
      },
      "setMasterCopy(address)": {
        "notice": "Sets the masterCopy bytecode to use to create clones of TokenLock contracts"
      },
      "setMoxiePassToken(address)": {
        "notice": "Sets the MoxiePassToken contract address to mint on every token lock creation"
      },
      "token()": {
        "notice": "Gets the MOXIE token address"
      },
      "unsetAuthFunctionCall(string)": {
        "notice": "Unsets an authorized function call to target"
      },
      "withdraw(uint256)": {
        "notice": "Withdraws tokens from the contract"
      }
    },
    "notice": "This contract manages a list of authorized function calls and targets that can be called by any TokenLockWallet contract and it is a factory of TokenLockWallet contracts. This contract receives funds to make the process of creating TokenLockWallet contracts easier by distributing them the initial tokens to be managed. The owner can setup a list of token destinations that will be used by TokenLock contracts to approve the pulling of funds, this way in can be guaranteed that only protocol contracts will manipulate users funds.",
    "version": 1
  },
  "storageLayout": {
    "storage": [
      {
        "astId": 7,
        "contract": "contracts/MoxieTokenLockManager.sol:MoxieTokenLockManager",
        "label": "_owner",
        "offset": 0,
        "slot": "0",
        "type": "t_address"
      },
      {
        "astId": 2933,
        "contract": "contracts/MoxieTokenLockManager.sol:MoxieTokenLockManager",
        "label": "authFnCalls",
        "offset": 0,
        "slot": "1",
        "type": "t_mapping(t_bytes4,t_address)"
      },
      {
        "astId": 2935,
        "contract": "contracts/MoxieTokenLockManager.sol:MoxieTokenLockManager",
        "label": "_tokenDestinations",
        "offset": 0,
        "slot": "2",
        "type": "t_struct(AddressSet)1589_storage"
      },
      {
        "astId": 2937,
        "contract": "contracts/MoxieTokenLockManager.sol:MoxieTokenLockManager",
        "label": "masterCopy",
        "offset": 0,
        "slot": "4",
        "type": "t_address"
      },
      {
        "astId": 2939,
        "contract": "contracts/MoxieTokenLockManager.sol:MoxieTokenLockManager",
        "label": "_token",
        "offset": 0,
        "slot": "5",
        "type": "t_contract(IERC20)554"
      },
      {
        "astId": 2941,
        "contract": "contracts/MoxieTokenLockManager.sol:MoxieTokenLockManager",
        "label": "_moxiePassToken",
        "offset": 0,
        "slot": "6",
        "type": "t_contract(IERC721Mintable)1816"
      }
    ],
    "types": {
      "t_address": {
        "encoding": "inplace",
        "label": "address",
        "numberOfBytes": "20"
      },
      "t_array(t_bytes32)dyn_storage": {
        "base": "t_bytes32",
        "encoding": "dynamic_array",
        "label": "bytes32[]",
        "numberOfBytes": "32"
      },
      "t_bytes32": {
        "encoding": "inplace",
        "label": "bytes32",
        "numberOfBytes": "32"
      },
      "t_bytes4": {
        "encoding": "inplace",
        "label": "bytes4",
        "numberOfBytes": "4"
      },
      "t_contract(IERC20)554": {
        "encoding": "inplace",
        "label": "contract IERC20",
        "numberOfBytes": "20"
      },
      "t_contract(IERC721Mintable)1816": {
        "encoding": "inplace",
        "label": "contract IERC721Mintable",
        "numberOfBytes": "20"
      },
      "t_mapping(t_bytes32,t_uint256)": {
        "encoding": "mapping",
        "key": "t_bytes32",
        "label": "mapping(bytes32 => uint256)",
        "numberOfBytes": "32",
        "value": "t_uint256"
      },
      "t_mapping(t_bytes4,t_address)": {
        "encoding": "mapping",
        "key": "t_bytes4",
        "label": "mapping(bytes4 => address)",
        "numberOfBytes": "32",
        "value": "t_address"
      },
      "t_struct(AddressSet)1589_storage": {
        "encoding": "inplace",
        "label": "struct EnumerableSet.AddressSet",
        "members": [
          {
            "astId": 1588,
            "contract": "contracts/MoxieTokenLockManager.sol:MoxieTokenLockManager",
            "label": "_inner",
            "offset": 0,
            "slot": "0",
            "type": "t_struct(Set)1324_storage"
          }
        ],
        "numberOfBytes": "64"
      },
      "t_struct(Set)1324_storage": {
        "encoding": "inplace",
        "label": "struct EnumerableSet.Set",
        "members": [
          {
            "astId": 1319,
            "contract": "contracts/MoxieTokenLockManager.sol:MoxieTokenLockManager",
            "label": "_values",
            "offset": 0,
            "slot": "0",
            "type": "t_array(t_bytes32)dyn_storage"
          },
          {
            "astId": 1323,
            "contract": "contracts/MoxieTokenLockManager.sol:MoxieTokenLockManager",
            "label": "_indexes",
            "offset": 0,
            "slot": "1",
            "type": "t_mapping(t_bytes32,t_uint256)"
          }
        ],
        "numberOfBytes": "64"
      },
      "t_uint256": {
        "encoding": "inplace",
        "label": "uint256",
        "numberOfBytes": "32"
      }
    }
  }
}