{
  "_format": "hh-sol-artifact-1",
  "contractName": "MoxieTokenLockManager",
  "sourceName": "contracts/MoxieTokenLockManager.sol",
  "abi": [
    {
      "inputs": [
        {
          "internalType": "contract IERC20",
          "name": "_MoxieToken",
          "type": "address"
        },
        {
          "internalType": "address",
          "name": "_masterCopy",
          "type": "address"
        }
      ],
      "stateMutability": "nonpayable",
      "type": "constructor"
    },
    {
      "anonymous": false,
      "inputs": [
        {
          "indexed": true,
          "internalType": "address",
          "name": "caller",
          "type": "address"
        },
        {
          "indexed": true,
          "internalType": "bytes4",
          "name": "sigHash",
          "type": "bytes4"
        },
        {
          "indexed": true,
          "internalType": "address",
          "name": "target",
          "type": "address"
        },
        {
          "indexed": false,
          "internalType": "string",
          "name": "signature",
          "type": "string"
        }
      ],
      "name": "FunctionCallAuth",
      "type": "event"
    },
    {
      "anonymous": false,
      "inputs": [
        {
          "indexed": true,
          "internalType": "address",
          "name": "masterCopy",
          "type": "address"
        }
      ],
      "name": "MasterCopyUpdated",
      "type": "event"
    },
    {
      "anonymous": false,
      "inputs": [
        {
          "indexed": true,
          "internalType": "address",
          "name": "moxiePassToken",
          "type": "address"
        }
      ],
      "name": "MoxiePassTokenUpdated",
      "type": "event"
    },
    {
      "anonymous": false,
      "inputs": [
        {
          "indexed": true,
          "internalType": "address",
          "name": "previousOwner",
          "type": "address"
        },
        {
          "indexed": true,
          "internalType": "address",
          "name": "newOwner",
          "type": "address"
        }
      ],
      "name": "OwnershipTransferred",
      "type": "event"
    },
    {
      "anonymous": false,
      "inputs": [
        {
          "indexed": true,
          "internalType": "address",
          "name": "proxy",
          "type": "address"
        }
      ],
      "name": "ProxyCreated",
      "type": "event"
    },
    {
      "anonymous": false,
      "inputs": [
        {
          "indexed": true,
          "internalType": "address",
          "name": "dst",
          "type": "address"
        },
        {
          "indexed": false,
          "internalType": "bool",
          "name": "allowed",
          "type": "bool"
        }
      ],
      "name": "SubjectTokenDestinationAllowed",
      "type": "event"
    },
    {
      "anonymous": false,
      "inputs": [
        {
          "indexed": true,
          "internalType": "address",
          "name": "dst",
          "type": "address"
        },
        {
          "indexed": false,
          "internalType": "bool",
          "name": "allowed",
          "type": "bool"
        }
      ],
      "name": "TokenDestinationAllowed",
      "type": "event"
    },
    {
      "anonymous": false,
      "inputs": [
        {
          "indexed": true,
          "internalType": "address",
          "name": "contractAddress",
          "type": "address"
        },
        {
          "indexed": true,
          "internalType": "bytes32",
          "name": "initHash",
          "type": "bytes32"
        },
        {
          "indexed": true,
          "internalType": "address",
          "name": "beneficiary",
          "type": "address"
        },
        {
          "indexed": false,
          "internalType": "address",
          "name": "token",
          "type": "address"
        },
        {
          "indexed": false,
          "internalType": "uint256",
          "name": "managedAmount",
          "type": "uint256"
        },
        {
          "indexed": false,
          "internalType": "uint256",
          "name": "startTime",
          "type": "uint256"
        },
        {
          "indexed": false,
          "internalType": "uint256",
          "name": "endTime",
          "type": "uint256"
        },
        {
          "indexed": false,
          "internalType": "uint256",
          "name": "periods",
          "type": "uint256"
        },
        {
          "indexed": false,
          "internalType": "uint256",
          "name": "releaseStartTime",
          "type": "uint256"
        },
        {
          "indexed": false,
          "internalType": "uint256",
          "name": "vestingCliffTime",
          "type": "uint256"
        },
        {
          "indexed": false,
          "internalType": "enum IMoxieTokenLock.Revocability",
          "name": "revocable",
          "type": "uint8"
        }
      ],
      "name": "TokenLockCreated",
      "type": "event"
    },
    {
      "anonymous": false,
      "inputs": [
        {
          "indexed": true,
          "internalType": "address",
          "name": "tokenManager",
          "type": "address"
        }
      ],
      "name": "TokenManagerUpdated",
      "type": "event"
    },
    {
      "anonymous": false,
      "inputs": [
        {
          "indexed": true,
          "internalType": "address",
          "name": "sender",
          "type": "address"
        },
        {
          "indexed": false,
          "internalType": "uint256",
          "name": "amount",
          "type": "uint256"
        }
      ],
      "name": "TokensDeposited",
      "type": "event"
    },
    {
      "anonymous": false,
      "inputs": [
        {
          "indexed": true,
          "internalType": "address",
          "name": "sender",
          "type": "address"
        },
        {
          "indexed": false,
          "internalType": "uint256",
          "name": "amount",
          "type": "uint256"
        }
      ],
      "name": "TokensWithdrawn",
      "type": "event"
    },
    {
      "inputs": [
        {
          "internalType": "address",
          "name": "_dst",
          "type": "address"
        }
      ],
      "name": "addSubjectTokenDestination",
      "outputs": [],
      "stateMutability": "nonpayable",
      "type": "function"
    },
    {
      "inputs": [
        {
          "internalType": "address",
          "name": "_dst",
          "type": "address"
        }
      ],
      "name": "addTokenDestination",
      "outputs": [],
      "stateMutability": "nonpayable",
      "type": "function"
    },
    {
      "inputs": [
        {
          "internalType": "bytes4",
          "name": "",
          "type": "bytes4"
        }
      ],
      "name": "authFnCalls",
      "outputs": [
        {
          "internalType": "address",
          "name": "",
          "type": "address"
        }
      ],
      "stateMutability": "view",
      "type": "function"
    },
    {
      "inputs": [
        {
          "internalType": "address",
          "name": "_owner",
          "type": "address"
        },
        {
          "internalType": "address",
          "name": "_beneficiary",
          "type": "address"
        },
        {
          "internalType": "uint256",
          "name": "_managedAmount",
          "type": "uint256"
        },
        {
          "internalType": "uint256",
          "name": "_startTime",
          "type": "uint256"
        },
        {
          "internalType": "uint256",
          "name": "_endTime",
          "type": "uint256"
        },
        {
          "internalType": "uint256",
          "name": "_periods",
          "type": "uint256"
        },
        {
          "internalType": "uint256",
          "name": "_releaseStartTime",
          "type": "uint256"
        },
        {
          "internalType": "uint256",
          "name": "_vestingCliffTime",
          "type": "uint256"
        },
        {
          "internalType": "enum IMoxieTokenLock.Revocability",
          "name": "_revocable",
          "type": "uint8"
        }
      ],
      "name": "createTokenLockWallet",
      "outputs": [],
      "stateMutability": "nonpayable",
      "type": "function"
    },
    {
      "inputs": [
        {
          "internalType": "uint256",
          "name": "_amount",
          "type": "uint256"
        }
      ],
      "name": "deposit",
      "outputs": [],
      "stateMutability": "nonpayable",
      "type": "function"
    },
    {
      "inputs": [
        {
          "internalType": "bytes4",
          "name": "_sigHash",
          "type": "bytes4"
        }
      ],
      "name": "getAuthFunctionCallTarget",
      "outputs": [
        {
          "internalType": "address",
          "name": "",
          "type": "address"
        }
      ],
      "stateMutability": "view",
      "type": "function"
    },
    {
      "inputs": [
        {
          "internalType": "bytes32",
          "name": "_salt",
          "type": "bytes32"
        },
        {
          "internalType": "address",
          "name": "_implementation",
          "type": "address"
        },
        {
          "internalType": "address",
          "name": "_deployer",
          "type": "address"
        }
      ],
      "name": "getDeploymentAddress",
      "outputs": [
        {
          "internalType": "address",
          "name": "",
          "type": "address"
        }
      ],
      "stateMutability": "pure",
      "type": "function"
    },
    {
      "inputs": [
        {
          "internalType": "bytes32",
          "name": "_salt",
          "type": "bytes32"
        },
        {
          "internalType": "address",
          "name": "_implementation",
          "type": "address"
        }
      ],
      "name": "getDeploymentAddress",
      "outputs": [
        {
          "internalType": "address",
          "name": "",
          "type": "address"
        }
      ],
      "stateMutability": "view",
      "type": "function"
    },
    {
      "inputs": [
        {
          "internalType": "address",
          "name": "_subject",
          "type": "address"
        }
      ],
      "name": "getSubjectTokenAddress",
      "outputs": [
        {
          "internalType": "address",
          "name": "",
          "type": "address"
        }
      ],
      "stateMutability": "nonpayable",
      "type": "function"
    },
    {
      "inputs": [],
      "name": "getSubjectTokenDestinations",
      "outputs": [
        {
          "internalType": "address[]",
          "name": "",
          "type": "address[]"
        }
      ],
      "stateMutability": "view",
      "type": "function"
    },
    {
      "inputs": [],
      "name": "getTokenDestinations",
      "outputs": [
        {
          "internalType": "address[]",
          "name": "",
          "type": "address[]"
        }
      ],
      "stateMutability": "view",
      "type": "function"
    },
    {
      "inputs": [
        {
          "internalType": "bytes4",
          "name": "_sigHash",
          "type": "bytes4"
        }
      ],
      "name": "isAuthFunctionCall",
      "outputs": [
        {
          "internalType": "bool",
          "name": "",
          "type": "bool"
        }
      ],
      "stateMutability": "view",
      "type": "function"
    },
    {
      "inputs": [
        {
          "internalType": "address",
          "name": "_dst",
          "type": "address"
        }
      ],
      "name": "isSubjectTokenDestination",
      "outputs": [
        {
          "internalType": "bool",
          "name": "",
          "type": "bool"
        }
      ],
      "stateMutability": "view",
      "type": "function"
    },
    {
      "inputs": [
        {
          "internalType": "address",
          "name": "_dst",
          "type": "address"
        }
      ],
      "name": "isTokenDestination",
      "outputs": [
        {
          "internalType": "bool",
          "name": "",
          "type": "bool"
        }
      ],
      "stateMutability": "view",
      "type": "function"
    },
    {
      "inputs": [],
      "name": "masterCopy",
      "outputs": [
        {
          "internalType": "address",
          "name": "",
          "type": "address"
        }
      ],
      "stateMutability": "view",
      "type": "function"
    },
    {
      "inputs": [],
      "name": "moxiePassToken",
      "outputs": [
        {
          "internalType": "contract IMoxiePass",
          "name": "",
          "type": "address"
        }
      ],
      "stateMutability": "view",
      "type": "function"
    },
    {
      "inputs": [],
      "name": "moxiePassTokenUri",
      "outputs": [
        {
          "internalType": "string",
          "name": "",
          "type": "string"
        }
      ],
      "stateMutability": "view",
      "type": "function"
    },
    {
      "inputs": [],
      "name": "owner",
      "outputs": [
        {
          "internalType": "address",
          "name": "",
          "type": "address"
        }
      ],
      "stateMutability": "view",
      "type": "function"
    },
    {
      "inputs": [
        {
          "internalType": "address",
          "name": "_dst",
          "type": "address"
        }
      ],
      "name": "removeSubjectTokenDestination",
      "outputs": [],
      "stateMutability": "nonpayable",
      "type": "function"
    },
    {
      "inputs": [
        {
          "internalType": "address",
          "name": "_dst",
          "type": "address"
        }
      ],
      "name": "removeTokenDestination",
      "outputs": [],
      "stateMutability": "nonpayable",
      "type": "function"
    },
    {
      "inputs": [],
      "name": "renounceOwnership",
      "outputs": [],
      "stateMutability": "nonpayable",
      "type": "function"
    },
    {
      "inputs": [
        {
          "internalType": "string",
          "name": "_signature",
          "type": "string"
        },
        {
          "internalType": "address",
          "name": "_target",
          "type": "address"
        }
      ],
      "name": "setAuthFunctionCall",
      "outputs": [],
      "stateMutability": "nonpayable",
      "type": "function"
    },
    {
      "inputs": [
        {
          "internalType": "string[]",
          "name": "_signatures",
          "type": "string[]"
        },
        {
          "internalType": "address[]",
          "name": "_targets",
          "type": "address[]"
        }
      ],
      "name": "setAuthFunctionCallMany",
      "outputs": [],
      "stateMutability": "nonpayable",
      "type": "function"
    },
    {
      "inputs": [
        {
          "internalType": "address",
          "name": "_masterCopy",
          "type": "address"
        }
      ],
      "name": "setMasterCopy",
      "outputs": [],
      "stateMutability": "nonpayable",
      "type": "function"
    },
    {
      "inputs": [
        {
          "internalType": "address",
          "name": "_moxiePassToken",
          "type": "address"
        },
        {
          "internalType": "string",
          "name": "_moxiePassTokenUri",
          "type": "string"
        }
      ],
      "name": "setMoxiePassTokenAndUri",
      "outputs": [],
      "stateMutability": "nonpayable",
      "type": "function"
    },
    {
      "inputs": [
        {
          "internalType": "address",
          "name": "_tokenManager",
          "type": "address"
        }
      ],
      "name": "setTokenManager",
      "outputs": [],
      "stateMutability": "nonpayable",
      "type": "function"
    },
    {
      "inputs": [],
      "name": "token",
      "outputs": [
        {
          "internalType": "contract IERC20",
          "name": "",
          "type": "address"
        }
      ],
      "stateMutability": "view",
      "type": "function"
    },
    {
      "inputs": [],
      "name": "tokenManager",
      "outputs": [
        {
          "internalType": "contract ITokenManager",
          "name": "",
          "type": "address"
        }
      ],
      "stateMutability": "view",
      "type": "function"
    },
    {
      "inputs": [
        {
          "internalType": "address",
          "name": "newOwner",
          "type": "address"
        }
      ],
      "name": "transferOwnership",
      "outputs": [],
      "stateMutability": "nonpayable",
      "type": "function"
    },
    {
      "inputs": [
        {
          "internalType": "string",
          "name": "_signature",
          "type": "string"
        }
      ],
      "name": "unsetAuthFunctionCall",
      "outputs": [],
      "stateMutability": "nonpayable",
      "type": "function"
    },
    {
      "inputs": [
        {
          "internalType": "uint256",
          "name": "_amount",
          "type": "uint256"
        }
      ],
      "name": "withdraw",
      "outputs": [],
      "stateMutability": "nonpayable",
      "type": "function"
    }
  ],
  "bytecode": "0x60806040523480156200001157600080fd5b5060405162004e6138038062004e6183398181016040528101906200003791906200039c565b600062000049620001b460201b60201c565b9050806000806101000a81548173ffffffffffffffffffffffffffffffffffffffff021916908373ffffffffffffffffffffffffffffffffffffffff1602179055508073ffffffffffffffffffffffffffffffffffffffff16600073ffffffffffffffffffffffffffffffffffffffff167f8be0079c531659141344cd1fd0a4f28419497f9722a3daafe3b4186f6b6457e060405160405180910390a350600073ffffffffffffffffffffffffffffffffffffffff168273ffffffffffffffffffffffffffffffffffffffff1614156200015a576040517f08c379a00000000000000000000000000000000000000000000000000000000081526004016200015190620004e7565b60405180910390fd5b81600760006101000a81548173ffffffffffffffffffffffffffffffffffffffff021916908373ffffffffffffffffffffffffffffffffffffffff160217905550620001ac81620001bc60201b60201c565b505062000596565b600033905090565b620001cc620001b460201b60201c565b73ffffffffffffffffffffffffffffffffffffffff16620001f26200034560201b60201c565b73ffffffffffffffffffffffffffffffffffffffff16146200024b576040517f08c379a00000000000000000000000000000000000000000000000000000000081526004016200024290620004c5565b60405180910390fd5b600073ffffffffffffffffffffffffffffffffffffffff168173ffffffffffffffffffffffffffffffffffffffff161415620002be576040517f08c379a0000000000000000000000000000000000000000000000000000000008152600401620002b590620004a3565b60405180910390fd5b80600660006101000a81548173ffffffffffffffffffffffffffffffffffffffff021916908373ffffffffffffffffffffffffffffffffffffffff1602179055508073ffffffffffffffffffffffffffffffffffffffff167f30909084afc859121ffc3a5aef7fe37c540a9a1ef60bd4d8dcdb76376fadf9de60405160405180910390a250565b60008060009054906101000a900473ffffffffffffffffffffffffffffffffffffffff16905090565b6000815190506200037f8162000562565b92915050565b60008151905062000396816200057c565b92915050565b60008060408385031215620003b057600080fd5b6000620003c08582860162000385565b9250506020620003d3858286016200036e565b9150509250929050565b6000620003ec60198362000509565b91507f4d6173746572436f70792063616e6e6f74206265207a65726f000000000000006000830152602082019050919050565b60006200042e60208362000509565b91507f4f776e61626c653a2063616c6c6572206973206e6f7420746865206f776e65726000830152602082019050919050565b60006200047060148362000509565b91507f546f6b656e2063616e6e6f74206265207a65726f0000000000000000000000006000830152602082019050919050565b60006020820190508181036000830152620004be81620003dd565b9050919050565b60006020820190508181036000830152620004e0816200041f565b9050919050565b60006020820190508181036000830152620005028162000461565b9050919050565b600082825260208201905092915050565b6000620005278262000542565b9050919050565b60006200053b826200051a565b9050919050565b600073ffffffffffffffffffffffffffffffffffffffff82169050919050565b6200056d816200051a565b81146200057957600080fd5b50565b62000587816200052e565b81146200059357600080fd5b50565b6148bb80620005a66000396000f3fe608060405234801561001057600080fd5b50600436106101e55760003560e01c80638da5cb5b1161010f578063c1ab13db116100a2578063e708ecd711610071578063e708ecd714610552578063f1d24c4514610582578063f2fde38b146105b2578063fc0c546a146105ce576101e5565b8063c1ab13db146104e0578063cef82903146104fc578063cf497e6c14610518578063d3a84e8714610534576101e5565b8063a95c9140116100de578063a95c914014610446578063b4ddfb5914610464578063b6b55f2514610494578063bdb62fbe146104b0576101e5565b80638da5cb5b146103d05780639c05fc60146103ee578063a34574661461040a578063a619486e14610428576101e5565b806354271312116101875780636e03b8dc116101565780636e03b8dc1461034a578063715018a61461037a57806379ee1bdf146103845780637cb2b79c146103b4576101e5565b806354271312146102da5780635620c1c8146102f65780635975e00c1461031257806368d30c2e1461032e576101e5565b80632a709b14116101c35780632a709b14146102545780632e1a7d4d1461027257806343fb93d91461028e578063463013a2146102be576101e5565b806303990a6c146101ea5780630602ba2b146102065780631e0c416a14610236575b600080fd5b61020460048036038101906101ff9190613289565b6105ec565b005b610220600480360381019061021b9190613260565b610794565b60405161022d9190614047565b60405180910390f35b61023e6107d5565b60405161024b919061407d565b60405180910390f35b61025c6107fb565b6040516102699190614098565b60405180910390f35b61028c60048036038101906102879190613326565b610821565b005b6102a860048036038101906102a39190613211565b61097e565b6040516102b59190613e51565b60405180910390f35b6102d860048036038101906102d391906132ce565b6109a3565b005b6102f460048036038101906102ef91906130e3565b610a2f565b005b610310600480360381019061030b9190612fcb565b610bba565b005b61032c60048036038101906103279190612fcb565b610d4b565b005b6103486004803603810190610343919061301d565b610edc565b005b610364600480360381019061035f9190613260565b6112b4565b6040516103719190613e51565b60405180910390f35b6103826112e7565b005b61039e60048036038101906103999190612fcb565b611421565b6040516103ab9190614047565b60405180910390f35b6103ce60048036038101906103c99190612fcb565b61143e565b005b6103d86115b1565b6040516103e59190613e51565b60405180910390f35b61040860048036038101906104039190613137565b6115da565b005b610412611707565b60405161041f9190614025565b60405180910390f35b6104306117df565b60405161043d9190613e51565b60405180910390f35b61044e611805565b60405161045b91906140d7565b60405180910390f35b61047e60048036038101906104799190612fcb565b6118a3565b60405161048b9190613e51565b60405180910390f35b6104ae60048036038101906104a99190613326565b6119ce565b005b6104ca60048036038101906104c591906131d5565b611ab1565b6040516104d79190613e51565b60405180910390f35b6104fa60048036038101906104f59190612fcb565b611ac6565b005b61051660048036038101906105119190612fcb565b611be7565b005b610532600480360381019061052d9190612fcb565b611d08565b005b61053c611e7b565b6040516105499190614025565b60405180910390f35b61056c60048036038101906105679190612fcb565b611f53565b6040516105799190614047565b60405180910390f35b61059c60048036038101906105979190613260565b611f70565b6040516105a99190613e51565b60405180910390f35b6105cc60048036038101906105c79190612fcb565b611feb565b005b6105d6612194565b6040516105e39190614062565b60405180910390f35b6105f46121be565b73ffffffffffffffffffffffffffffffffffffffff166106126115b1565b73ffffffffffffffffffffffffffffffffffffffff1614610668576040517f08c379a000000000000000000000000000000000000000000000000000000000815260040161065f906142d9565b60405180910390fd5b600061067483836121c6565b9050600060016000837bffffffffffffffffffffffffffffffffffffffffffffffffffffffff19167bffffffffffffffffffffffffffffffffffffffffffffffffffffffff1916815260200190815260200160002060006101000a81548173ffffffffffffffffffffffffffffffffffffffff021916908373ffffffffffffffffffffffffffffffffffffffff160217905550600073ffffffffffffffffffffffffffffffffffffffff16817bffffffffffffffffffffffffffffffffffffffffffffffffffffffff19163373ffffffffffffffffffffffffffffffffffffffff167f450397a2db0e89eccfe664cc6cdfd274a88bc00d29aaec4d991754a42f19f8c986866040516107879291906140b3565b60405180910390a4505050565b60008073ffffffffffffffffffffffffffffffffffffffff166107b683611f70565b73ffffffffffffffffffffffffffffffffffffffff1614159050919050565b600860009054906101000a900473ffffffffffffffffffffffffffffffffffffffff1681565b600a60009054906101000a900473ffffffffffffffffffffffffffffffffffffffff1681565b6108296121be565b73ffffffffffffffffffffffffffffffffffffffff166108476115b1565b73ffffffffffffffffffffffffffffffffffffffff161461089d576040517f08c379a0000000000000000000000000000000000000000000000000000000008152600401610894906142d9565b60405180910390fd5b600081116108e0576040517f08c379a00000000000000000000000000000000000000000000000000000000081526004016108d7906142b9565b60405180910390fd5b61092d3382600760009054906101000a900473ffffffffffffffffffffffffffffffffffffffff1673ffffffffffffffffffffffffffffffffffffffff166122549092919063ffffffff16565b3373ffffffffffffffffffffffffffffffffffffffff167f6352c5382c4a4578e712449ca65e83cdb392d045dfcf1cad9615189db2da244b826040516109739190614419565b60405180910390a250565b600061099a8461098d856122da565b8051906020012084612350565b90509392505050565b6109ab6121be565b73ffffffffffffffffffffffffffffffffffffffff166109c96115b1565b73ffffffffffffffffffffffffffffffffffffffff1614610a1f576040517f08c379a0000000000000000000000000000000000000000000000000000000008152600401610a16906142d9565b60405180910390fd5b610a2a838383612394565b505050565b610a376121be565b73ffffffffffffffffffffffffffffffffffffffff16610a556115b1565b73ffffffffffffffffffffffffffffffffffffffff1614610aab576040517f08c379a0000000000000000000000000000000000000000000000000000000008152600401610aa2906142d9565b60405180910390fd5b600073ffffffffffffffffffffffffffffffffffffffff168273ffffffffffffffffffffffffffffffffffffffff161415610b1b576040517f08c379a0000000000000000000000000000000000000000000000000000000008152600401610b1290614279565b60405180910390fd5b81600860006101000a81548173ffffffffffffffffffffffffffffffffffffffff021916908373ffffffffffffffffffffffffffffffffffffffff1602179055508060099080519060200190610b72929190612d54565b508173ffffffffffffffffffffffffffffffffffffffff167f4e61a6ffbc3747e39d64fc1a8889499533aea16d78797682fd357db98677c93a60405160405180910390a25050565b610bc26121be565b73ffffffffffffffffffffffffffffffffffffffff16610be06115b1565b73ffffffffffffffffffffffffffffffffffffffff1614610c36576040517f08c379a0000000000000000000000000000000000000000000000000000000008152600401610c2d906142d9565b60405180910390fd5b600073ffffffffffffffffffffffffffffffffffffffff168173ffffffffffffffffffffffffffffffffffffffff161415610ca6576040517f08c379a0000000000000000000000000000000000000000000000000000000008152600401610c9d90614379565b60405180910390fd5b610cba81600461257690919063ffffffff16565b610cf9576040517f08c379a0000000000000000000000000000000000000000000000000000000008152600401610cf0906143b9565b60405180910390fd5b8073ffffffffffffffffffffffffffffffffffffffff167f4ba8335904353f5d9fb118ddee85a961adb91902a9b15aae73e2b191cc5580196001604051610d409190614047565b60405180910390a250565b610d536121be565b73ffffffffffffffffffffffffffffffffffffffff16610d716115b1565b73ffffffffffffffffffffffffffffffffffffffff1614610dc7576040517f08c379a0000000000000000000000000000000000000000000000000000000008152600401610dbe906142d9565b60405180910390fd5b600073ffffffffffffffffffffffffffffffffffffffff168173ffffffffffffffffffffffffffffffffffffffff161415610e37576040517f08c379a0000000000000000000000000000000000000000000000000000000008152600401610e2e90614159565b60405180910390fd5b610e4b81600261257690919063ffffffff16565b610e8a576040517f08c379a0000000000000000000000000000000000000000000000000000000008152600401610e8190614339565b60405180910390fd5b8073ffffffffffffffffffffffffffffffffffffffff167f33442b8c13e72dd75a027f08f9bff4eed2dfd26e43cdea857365f5163b359a796001604051610ed19190614047565b60405180910390a250565b610ee46121be565b73ffffffffffffffffffffffffffffffffffffffff16610f026115b1565b73ffffffffffffffffffffffffffffffffffffffff1614610f58576040517f08c379a0000000000000000000000000000000000000000000000000000000008152600401610f4f906142d9565b60405180910390fd5b86600760009054906101000a900473ffffffffffffffffffffffffffffffffffffffff1673ffffffffffffffffffffffffffffffffffffffff166370a08231306040518263ffffffff1660e01b8152600401610fb49190613e51565b60206040518083038186803b158015610fcc57600080fd5b505afa158015610fe0573d6000803e3d6000fd5b505050506040513d601f19601f82011682018060405250810190611004919061334f565b1015611045576040517f08c379a000000000000000000000000000000000000000000000000000000000815260040161103c906141b9565b60405180910390fd5b606063bd896dcb60e01b308b8b600760009054906101000a900473ffffffffffffffffffffffffffffffffffffffff168c8c8c8c8c8c8c6040516024016110969b9a99989796959493929190613e6c565b604051602081830303815290604052907bffffffffffffffffffffffffffffffffffffffffffffffffffffffff19166020820180517bffffffffffffffffffffffffffffffffffffffffffffffffffffffff83818316178352505050509050600061112b8280519060200120600660009054906101000a900473ffffffffffffffffffffffffffffffffffffffff16846125a6565b905061117a818a600760009054906101000a900473ffffffffffffffffffffffffffffffffffffffff1673ffffffffffffffffffffffffffffffffffffffff166122549092919063ffffffff16565b600860009054906101000a900473ffffffffffffffffffffffffffffffffffffffff1673ffffffffffffffffffffffffffffffffffffffff1663d0def5218260096040518363ffffffff1660e01b81526004016111d8929190613f4e565b600060405180830381600087803b1580156111f257600080fd5b505af1158015611206573d6000803e3d6000fd5b505050508973ffffffffffffffffffffffffffffffffffffffff1682805190602001208273ffffffffffffffffffffffffffffffffffffffff167f3c7ff6acee351ed98200c285a04745858a107e16da2f13c3a81a43073c17d644600760009054906101000a900473ffffffffffffffffffffffffffffffffffffffff168d8d8d8d8d8d8d60405161129f989796959493929190613fa7565b60405180910390a45050505050505050505050565b60016020528060005260406000206000915054906101000a900473ffffffffffffffffffffffffffffffffffffffff1681565b6112ef6121be565b73ffffffffffffffffffffffffffffffffffffffff1661130d6115b1565b73ffffffffffffffffffffffffffffffffffffffff1614611363576040517f08c379a000000000000000000000000000000000000000000000000000000000815260040161135a906142d9565b60405180910390fd5b600073ffffffffffffffffffffffffffffffffffffffff1660008054906101000a900473ffffffffffffffffffffffffffffffffffffffff1673ffffffffffffffffffffffffffffffffffffffff167f8be0079c531659141344cd1fd0a4f28419497f9722a3daafe3b4186f6b6457e060405160405180910390a360008060006101000a81548173ffffffffffffffffffffffffffffffffffffffff021916908373ffffffffffffffffffffffffffffffffffffffff160217905550565b600061143782600261262290919063ffffffff16565b9050919050565b6114466121be565b73ffffffffffffffffffffffffffffffffffffffff166114646115b1565b73ffffffffffffffffffffffffffffffffffffffff16146114ba576040517f08c379a00000000000000000000000000000000000000000000000000000000081526004016114b1906142d9565b60405180910390fd5b600073ffffffffffffffffffffffffffffffffffffffff168173ffffffffffffffffffffffffffffffffffffffff16141561152a576040517f08c379a000000000000000000000000000000000000000000000000000000000815260040161152190614259565b60405180910390fd5b80600a60006101000a81548173ffffffffffffffffffffffffffffffffffffffff021916908373ffffffffffffffffffffffffffffffffffffffff1602179055508073ffffffffffffffffffffffffffffffffffffffff167f160ba3f04f73a1d23914cbe64026f708d7bea7296d144a3a2f759b97349a63fd60405160405180910390a250565b60008060009054906101000a900473ffffffffffffffffffffffffffffffffffffffff16905090565b6115e26121be565b73ffffffffffffffffffffffffffffffffffffffff166116006115b1565b73ffffffffffffffffffffffffffffffffffffffff1614611656576040517f08c379a000000000000000000000000000000000000000000000000000000000815260040161164d906142d9565b60405180910390fd5b81819050848490501461169e576040517f08c379a000000000000000000000000000000000000000000000000000000000815260040161169590614139565b60405180910390fd5b60005b84849050811015611700576116f38585838181106116bb57fe5b90506020028101906116cd9190614434565b8585858181106116d957fe5b90506020020160208101906116ee9190612fcb565b612394565b80806001019150506116a1565b5050505050565b6060806117146002612652565b67ffffffffffffffff8111801561172a57600080fd5b506040519080825280602002602001820160405280156117595781602001602082028036833780820191505090505b50905060005b6117696002612652565b8110156117d75761178481600261266790919063ffffffff16565b82828151811061179057fe5b602002602001019073ffffffffffffffffffffffffffffffffffffffff16908173ffffffffffffffffffffffffffffffffffffffff1681525050808060010191505061175f565b508091505090565b600660009054906101000a900473ffffffffffffffffffffffffffffffffffffffff1681565b60098054600181600116156101000203166002900480601f01602080910402602001604051908101604052809291908181526020018280546001816001161561010002031660029004801561189b5780601f106118705761010080835404028352916020019161189b565b820191906000526020600020905b81548152906001019060200180831161187e57829003601f168201915b505050505081565b600080600a60009054906101000a900473ffffffffffffffffffffffffffffffffffffffff1673ffffffffffffffffffffffffffffffffffffffff1663e4860339846040518263ffffffff1660e01b81526004016119019190613e51565b602060405180830381600087803b15801561191b57600080fd5b505af115801561192f573d6000803e3d6000fd5b505050506040513d601f19601f820116820180604052508101906119539190612ff4565b9050600073ffffffffffffffffffffffffffffffffffffffff168173ffffffffffffffffffffffffffffffffffffffff1614156119c5576040517f08c379a00000000000000000000000000000000000000000000000000000000081526004016119bc906142f9565b60405180910390fd5b80915050919050565b60008111611a11576040517f08c379a0000000000000000000000000000000000000000000000000000000008152600401611a08906142b9565b60405180910390fd5b611a60333083600760009054906101000a900473ffffffffffffffffffffffffffffffffffffffff1673ffffffffffffffffffffffffffffffffffffffff16612681909392919063ffffffff16565b3373ffffffffffffffffffffffffffffffffffffffff167f59062170a285eb80e8c6b8ced60428442a51910635005233fc4ce084a475845e82604051611aa69190614419565b60405180910390a250565b6000611abe83833061097e565b905092915050565b611ace6121be565b73ffffffffffffffffffffffffffffffffffffffff16611aec6115b1565b73ffffffffffffffffffffffffffffffffffffffff1614611b42576040517f08c379a0000000000000000000000000000000000000000000000000000000008152600401611b39906142d9565b60405180910390fd5b611b5681600261270a90919063ffffffff16565b611b95576040517f08c379a0000000000000000000000000000000000000000000000000000000008152600401611b8c906141f9565b60405180910390fd5b8073ffffffffffffffffffffffffffffffffffffffff167f33442b8c13e72dd75a027f08f9bff4eed2dfd26e43cdea857365f5163b359a796000604051611bdc9190614047565b60405180910390a250565b611bef6121be565b73ffffffffffffffffffffffffffffffffffffffff16611c0d6115b1565b73ffffffffffffffffffffffffffffffffffffffff1614611c63576040517f08c379a0000000000000000000000000000000000000000000000000000000008152600401611c5a906142d9565b60405180910390fd5b611c7781600461270a90919063ffffffff16565b611cb6576040517f08c379a0000000000000000000000000000000000000000000000000000000008152600401611cad90614199565b60405180910390fd5b8073ffffffffffffffffffffffffffffffffffffffff167f4ba8335904353f5d9fb118ddee85a961adb91902a9b15aae73e2b191cc5580196000604051611cfd9190614047565b60405180910390a250565b611d106121be565b73ffffffffffffffffffffffffffffffffffffffff16611d2e6115b1565b73ffffffffffffffffffffffffffffffffffffffff1614611d84576040517f08c379a0000000000000000000000000000000000000000000000000000000008152600401611d7b906142d9565b60405180910390fd5b600073ffffffffffffffffffffffffffffffffffffffff168173ffffffffffffffffffffffffffffffffffffffff161415611df4576040517f08c379a0000000000000000000000000000000000000000000000000000000008152600401611deb90614219565b60405180910390fd5b80600660006101000a81548173ffffffffffffffffffffffffffffffffffffffff021916908373ffffffffffffffffffffffffffffffffffffffff1602179055508073ffffffffffffffffffffffffffffffffffffffff167f30909084afc859121ffc3a5aef7fe37c540a9a1ef60bd4d8dcdb76376fadf9de60405160405180910390a250565b606080611e886004612652565b67ffffffffffffffff81118015611e9e57600080fd5b50604051908082528060200260200182016040528015611ecd5781602001602082028036833780820191505090505b50905060005b611edd6004612652565b811015611f4b57611ef881600461266790919063ffffffff16565b828281518110611f0457fe5b602002602001019073ffffffffffffffffffffffffffffffffffffffff16908173ffffffffffffffffffffffffffffffffffffffff16815250508080600101915050611ed3565b508091505090565b6000611f6982600461262290919063ffffffff16565b9050919050565b600060016000837bffffffffffffffffffffffffffffffffffffffffffffffffffffffff19167bffffffffffffffffffffffffffffffffffffffffffffffffffffffff1916815260200190815260200160002060009054906101000a900473ffffffffffffffffffffffffffffffffffffffff169050919050565b611ff36121be565b73ffffffffffffffffffffffffffffffffffffffff166120116115b1565b73ffffffffffffffffffffffffffffffffffffffff1614612067576040517f08c379a000000000000000000000000000000000000000000000000000000000815260040161205e906142d9565b60405180910390fd5b600073ffffffffffffffffffffffffffffffffffffffff168173ffffffffffffffffffffffffffffffffffffffff1614156120d7576040517f08c379a00000000000000000000000000000000000000000000000000000000081526004016120ce90614179565b60405180910390fd5b8073ffffffffffffffffffffffffffffffffffffffff1660008054906101000a900473ffffffffffffffffffffffffffffffffffffffff1673ffffffffffffffffffffffffffffffffffffffff167f8be0079c531659141344cd1fd0a4f28419497f9722a3daafe3b4186f6b6457e060405160405180910390a3806000806101000a81548173ffffffffffffffffffffffffffffffffffffffff021916908373ffffffffffffffffffffffffffffffffffffffff16021790555050565b6000600760009054906101000a900473ffffffffffffffffffffffffffffffffffffffff16905090565b600033905090565b600061224c838360405160240160405160208183030381529060405291906040516121f2929190613e38565b60405180910390207bffffffffffffffffffffffffffffffffffffffffffffffffffffffff19166020820180517bffffffffffffffffffffffffffffffffffffffffffffffffffffffff838183161783525050505061273a565b905092915050565b6122d58363a9059cbb60e01b8484604051602401612273929190613f7e565b604051602081830303815290604052907bffffffffffffffffffffffffffffffffffffffffffffffffffffffff19166020820180517bffffffffffffffffffffffffffffffffffffffffffffffffffffffff8381831617835250505050612792565b505050565b60606000693d602d80600a3d3981f360b01b9050600069363d3d373d3d3d363d7360b01b905060008460601b905060006e5af43d82803e903d91602b57fd5bf360881b9050838383836040516020016123369493929190613d85565b604051602081830303815290604052945050505050919050565b60008060ff60f81b83868660405160200161236e9493929190613dd3565b6040516020818303038152906040528051906020012090508060001c9150509392505050565b3073ffffffffffffffffffffffffffffffffffffffff168173ffffffffffffffffffffffffffffffffffffffff161415612403576040517f08c379a00000000000000000000000000000000000000000000000000000000081526004016123fa90614239565b60405180910390fd5b61240c81612859565b61244b576040517f08c379a0000000000000000000000000000000000000000000000000000000008152600401612442906143f9565b60405180910390fd5b600061245784846121c6565b90508160016000837bffffffffffffffffffffffffffffffffffffffffffffffffffffffff19167bffffffffffffffffffffffffffffffffffffffffffffffffffffffff1916815260200190815260200160002060006101000a81548173ffffffffffffffffffffffffffffffffffffffff021916908373ffffffffffffffffffffffffffffffffffffffff1602179055508173ffffffffffffffffffffffffffffffffffffffff16817bffffffffffffffffffffffffffffffffffffffffffffffffffffffff19163373ffffffffffffffffffffffffffffffffffffffff167f450397a2db0e89eccfe664cc6cdfd274a88bc00d29aaec4d991754a42f19f8c987876040516125689291906140b3565b60405180910390a450505050565b600061259e836000018373ffffffffffffffffffffffffffffffffffffffff1660001b61286c565b905092915050565b6000806125bd6000866125b8876122da565b6128dc565b90508073ffffffffffffffffffffffffffffffffffffffff167efffc2da0b561cae30d9826d37709e9421c4725faebc226cbbb7ef5fc5e734960405160405180910390a26000835111156126175761261581846129ed565b505b809150509392505050565b600061264a836000018373ffffffffffffffffffffffffffffffffffffffff1660001b612a37565b905092915050565b600061266082600001612a5a565b9050919050565b60006126768360000183612a6b565b60001c905092915050565b612704846323b872dd60e01b8585856040516024016126a293929190613f17565b604051602081830303815290604052907bffffffffffffffffffffffffffffffffffffffffffffffffffffffff19166020820180517bffffffffffffffffffffffffffffffffffffffffffffffffffffffff8381831617835250505050612792565b50505050565b6000612732836000018373ffffffffffffffffffffffffffffffffffffffff1660001b612ad8565b905092915050565b60006004825114612780576040517f08c379a000000000000000000000000000000000000000000000000000000000815260040161277790614319565b60405180910390fd5b60006020830151905080915050919050565b60606127f4826040518060400160405280602081526020017f5361666545524332303a206c6f772d6c6576656c2063616c6c206661696c65648152508573ffffffffffffffffffffffffffffffffffffffff16612bc09092919063ffffffff16565b9050600081511115612854578080602001905181019061281491906131ac565b612853576040517f08c379a000000000000000000000000000000000000000000000000000000000815260040161284a90614399565b60405180910390fd5b5b505050565b600080823b905060008111915050919050565b60006128788383612a37565b6128d15782600001829080600181540180825580915050600190039060005260206000200160009091909190915055826000018054905083600101600084815260200190815260200160002081905550600190506128d6565b600090505b92915050565b60008084471015612922576040517f08c379a0000000000000000000000000000000000000000000000000000000008152600401612919906143d9565b60405180910390fd5b600083511415612967576040517f08c379a000000000000000000000000000000000000000000000000000000000815260040161295e90614119565b60405180910390fd5b8383516020850187f59050600073ffffffffffffffffffffffffffffffffffffffff168173ffffffffffffffffffffffffffffffffffffffff1614156129e2576040517f08c379a00000000000000000000000000000000000000000000000000000000081526004016129d990614299565b60405180910390fd5b809150509392505050565b6060612a2f83836040518060400160405280601e81526020017f416464726573733a206c6f772d6c6576656c2063616c6c206661696c65640000815250612bc0565b905092915050565b600080836001016000848152602001908152602001600020541415905092915050565b600081600001805490509050919050565b600081836000018054905011612ab6576040517f08c379a0000000000000000000000000000000000000000000000000000000008152600401612aad906140f9565b60405180910390fd5b826000018281548110612ac557fe5b9060005260206000200154905092915050565b60008083600101600084815260200190815260200160002054905060008114612bb45760006001820390506000600186600001805490500390506000866000018281548110612b2357fe5b9060005260206000200154905080876000018481548110612b4057fe5b9060005260206000200181905550600183018760010160008381526020019081526020016000208190555086600001805480612b7857fe5b60019003818190600052602060002001600090559055866001016000878152602001908152602001600020600090556001945050505050612bba565b60009150505b92915050565b6060612bcf8484600085612bd8565b90509392505050565b606082471015612c1d576040517f08c379a0000000000000000000000000000000000000000000000000000000008152600401612c14906141d9565b60405180910390fd5b612c2685612859565b612c65576040517f08c379a0000000000000000000000000000000000000000000000000000000008152600401612c5c90614359565b60405180910390fd5b600060608673ffffffffffffffffffffffffffffffffffffffff168587604051612c8f9190613e21565b60006040518083038185875af1925050503d8060008114612ccc576040519150601f19603f3d011682016040523d82523d6000602084013e612cd1565b606091505b5091509150612ce1828286612ced565b92505050949350505050565b60608315612cfd57829050612d4d565b600083511115612d105782518084602001fd5b816040517f08c379a0000000000000000000000000000000000000000000000000000000008152600401612d4491906140d7565b60405180910390fd5b9392505050565b828054600181600116156101000203166002900490600052602060002090601f016020900481019282601f10612d9557805160ff1916838001178555612dc3565b82800160010185558215612dc3579182015b82811115612dc2578251825591602001919060010190612da7565b5b509050612dd09190612dd4565b5090565b5b80821115612ded576000816000905550600101612dd5565b5090565b600081359050612e0081614802565b92915050565b600081519050612e1581614802565b92915050565b60008083601f840112612e2d57600080fd5b8235905067ffffffffffffffff811115612e4657600080fd5b602083019150836020820283011115612e5e57600080fd5b9250929050565b60008083601f840112612e7757600080fd5b8235905067ffffffffffffffff811115612e9057600080fd5b602083019150836020820283011115612ea857600080fd5b9250929050565b600081519050612ebe81614819565b92915050565b600081359050612ed381614830565b92915050565b600081359050612ee881614847565b92915050565b600081359050612efd8161485e565b92915050565b60008083601f840112612f1557600080fd5b8235905067ffffffffffffffff811115612f2e57600080fd5b602083019150836001820283011115612f4657600080fd5b9250929050565b600082601f830112612f5e57600080fd5b8135612f71612f6c826144bc565b61448b565b91508082526020830160208301858383011115612f8d57600080fd5b612f98838284614736565b50505092915050565b600081359050612fb08161486e565b92915050565b600081519050612fc58161486e565b92915050565b600060208284031215612fdd57600080fd5b6000612feb84828501612df1565b91505092915050565b60006020828403121561300657600080fd5b600061301484828501612e06565b91505092915050565b60008060008060008060008060006101208a8c03121561303c57600080fd5b600061304a8c828d01612df1565b995050602061305b8c828d01612df1565b985050604061306c8c828d01612fa1565b975050606061307d8c828d01612fa1565b965050608061308e8c828d01612fa1565b95505060a061309f8c828d01612fa1565b94505060c06130b08c828d01612fa1565b93505060e06130c18c828d01612fa1565b9250506101006130d38c828d01612eee565b9150509295985092959850929598565b600080604083850312156130f657600080fd5b600061310485828601612df1565b925050602083013567ffffffffffffffff81111561312157600080fd5b61312d85828601612f4d565b9150509250929050565b6000806000806040858703121561314d57600080fd5b600085013567ffffffffffffffff81111561316757600080fd5b61317387828801612e65565b9450945050602085013567ffffffffffffffff81111561319257600080fd5b61319e87828801612e1b565b925092505092959194509250565b6000602082840312156131be57600080fd5b60006131cc84828501612eaf565b91505092915050565b600080604083850312156131e857600080fd5b60006131f685828601612ec4565b925050602061320785828601612df1565b9150509250929050565b60008060006060848603121561322657600080fd5b600061323486828701612ec4565b935050602061324586828701612df1565b925050604061325686828701612df1565b9150509250925092565b60006020828403121561327257600080fd5b600061328084828501612ed9565b91505092915050565b6000806020838503121561329c57600080fd5b600083013567ffffffffffffffff8111156132b657600080fd5b6132c285828601612f03565b92509250509250929050565b6000806000604084860312156132e357600080fd5b600084013567ffffffffffffffff8111156132fd57600080fd5b61330986828701612f03565b9350935050602061331c86828701612df1565b9150509250925092565b60006020828403121561333857600080fd5b600061334684828501612fa1565b91505092915050565b60006020828403121561336157600080fd5b600061336f84828501612fb6565b91505092915050565b60006133848383613390565b60208301905092915050565b61339981614577565b82525050565b6133a881614577565b82525050565b6133bf6133ba82614577565b614778565b82525050565b60006133d082614511565b6133da818561453f565b93506133e5836144ec565b8060005b838110156134165781516133fd8882613378565b975061340883614532565b9250506001810190506133e9565b5085935050505092915050565b61342c81614589565b82525050565b61344361343e826145c1565b614794565b82525050565b61345a613455826145ed565b61479e565b82525050565b61347161346c82614595565b61478a565b82525050565b61348861348382614619565b6147a8565b82525050565b61349f61349a82614645565b6147b2565b82525050565b60006134b08261451c565b6134ba8185614550565b93506134ca818560208601614745565b80840191505092915050565b6134df816146b8565b82525050565b6134ee816146dc565b82525050565b6134fd81614700565b82525050565b61350c81614724565b82525050565b600061351e838561455b565b935061352b838584614736565b613534836147d0565b840190509392505050565b600061354b838561456c565b9350613558838584614736565b82840190509392505050565b600061356f82614527565b613579818561455b565b9350613589818560208601614745565b613592816147d0565b840191505092915050565b6000815460018116600081146135ba57600181146135e057613624565b607f60028304166135cb818761455b565b955060ff198316865260208601935050613624565b600282046135ee818761455b565b95506135f9856144fc565b60005b8281101561361b578154818901526001820191506020810190506135fc565b80880195505050505b505092915050565b600061363960228361455b565b91507f456e756d657261626c655365743a20696e646578206f7574206f6620626f756e60008301527f64730000000000000000000000000000000000000000000000000000000000006020830152604082019050919050565b600061369f60208361455b565b91507f437265617465323a2062797465636f6465206c656e677468206973207a65726f6000830152602082019050919050565b60006136df60158361455b565b91507f4172726179206c656e677468206d69736d6174636800000000000000000000006000830152602082019050919050565b600061371f601a8361455b565b91507f44657374696e6174696f6e2063616e6e6f74206265207a65726f0000000000006000830152602082019050919050565b600061375f60268361455b565b91507f4f776e61626c653a206e6577206f776e657220697320746865207a65726f206160008301527f64647265737300000000000000000000000000000000000000000000000000006020830152604082019050919050565b60006137c5602c8361455b565b91507f5375626a65637420546f6b656e2044657374696e6174696f6e20697320616c7260008301527f656164792072656d6f76656400000000000000000000000000000000000000006020830152604082019050919050565b600061382b60208361455b565b91507f4e6f7420656e6f75676820746f6b656e7320746f20637265617465206c6f636b6000830152602082019050919050565b600061386b60268361455b565b91507f416464726573733a20696e73756666696369656e742062616c616e636520666f60008301527f722063616c6c00000000000000000000000000000000000000000000000000006020830152604082019050919050565b60006138d1601b8361455b565b91507f44657374696e6174696f6e20616c72656164792072656d6f76656400000000006000830152602082019050919050565b600061391160198361455b565b91507f4d6173746572436f70792063616e6e6f74206265207a65726f000000000000006000830152602082019050919050565b6000613951601d8361455b565b91507f546172676574206d757374206265206f7468657220636f6e74726163740000006000830152602082019050919050565b6000613991601c8361455b565b91507f546f6b656e204d616e616765722063616e6e6f74206265207a65726f000000006000830152602082019050919050565b60006139d1601d8361455b565b91507f4d6f78696550617373546f6b656e2063616e6e6f74206265207a65726f0000006000830152602082019050919050565b6000613a1160198361455b565b91507f437265617465323a204661696c6564206f6e206465706c6f79000000000000006000830152602082019050919050565b6000613a5160158361455b565b91507f416d6f756e742063616e6e6f74206265207a65726f00000000000000000000006000830152602082019050919050565b6000613a9160208361455b565b91507f4f776e61626c653a2063616c6c6572206973206e6f7420746865206f776e65726000830152602082019050919050565b6000613ad160178361455b565b91507f5375626a65637420746f6b656e206e6f7420666f756e640000000000000000006000830152602082019050919050565b6000613b1160188361455b565b91507f496e76616c6964206d6574686f64207369676e617475726500000000000000006000830152602082019050919050565b6000613b5160198361455b565b91507f44657374696e6174696f6e20616c7265616479206164646564000000000000006000830152602082019050919050565b6000613b91601d8361455b565b91507f416464726573733a2063616c6c20746f206e6f6e2d636f6e74726163740000006000830152602082019050919050565b6000613bd160288361455b565b91507f5375626a65637420546f6b656e2044657374696e6174696f6e2063616e6e6f7460008301527f206265207a65726f0000000000000000000000000000000000000000000000006020830152604082019050919050565b6000613c37602a8361455b565b91507f5361666545524332303a204552433230206f7065726174696f6e20646964206e60008301527f6f742073756363656564000000000000000000000000000000000000000000006020830152604082019050919050565b6000613c9d602a8361455b565b91507f5375626a65637420546f6b656e2044657374696e6174696f6e20697320616c7260008301527f65616479206164646564000000000000000000000000000000000000000000006020830152604082019050919050565b6000613d03601d8361455b565b91507f437265617465323a20696e73756666696369656e742062616c616e63650000006000830152602082019050919050565b6000613d4360198361455b565b91507f546172676574206d757374206265206120636f6e7472616374000000000000006000830152602082019050919050565b613d7f816146ae565b82525050565b6000613d918287613432565b600a82019150613da18286613432565b600a82019150613db18285613477565b601482019150613dc18284613449565b600f8201915081905095945050505050565b6000613ddf8287613460565b600182019150613def82866133ae565b601482019150613dff828561348e565b602082019150613e0f828461348e565b60208201915081905095945050505050565b6000613e2d82846134a5565b915081905092915050565b6000613e4582848661353f565b91508190509392505050565b6000602082019050613e66600083018461339f565b92915050565b600061016082019050613e82600083018e61339f565b613e8f602083018d61339f565b613e9c604083018c61339f565b613ea9606083018b61339f565b613eb6608083018a613d76565b613ec360a0830189613d76565b613ed060c0830188613d76565b613edd60e0830187613d76565b613eeb610100830186613d76565b613ef9610120830185613d76565b613f07610140830184613503565b9c9b505050505050505050505050565b6000606082019050613f2c600083018661339f565b613f39602083018561339f565b613f466040830184613d76565b949350505050565b6000604082019050613f63600083018561339f565b8181036020830152613f75818461359d565b90509392505050565b6000604082019050613f93600083018561339f565b613fa06020830184613d76565b9392505050565b600061010082019050613fbd600083018b61339f565b613fca602083018a613d76565b613fd76040830189613d76565b613fe46060830188613d76565b613ff16080830187613d76565b613ffe60a0830186613d76565b61400b60c0830185613d76565b61401860e0830184613503565b9998505050505050505050565b6000602082019050818103600083015261403f81846133c5565b905092915050565b600060208201905061405c6000830184613423565b92915050565b600060208201905061407760008301846134d6565b92915050565b600060208201905061409260008301846134e5565b92915050565b60006020820190506140ad60008301846134f4565b92915050565b600060208201905081810360008301526140ce818486613512565b90509392505050565b600060208201905081810360008301526140f18184613564565b905092915050565b600060208201905081810360008301526141128161362c565b9050919050565b6000602082019050818103600083015261413281613692565b9050919050565b60006020820190508181036000830152614152816136d2565b9050919050565b6000602082019050818103600083015261417281613712565b9050919050565b6000602082019050818103600083015261419281613752565b9050919050565b600060208201905081810360008301526141b2816137b8565b9050919050565b600060208201905081810360008301526141d28161381e565b9050919050565b600060208201905081810360008301526141f28161385e565b9050919050565b60006020820190508181036000830152614212816138c4565b9050919050565b6000602082019050818103600083015261423281613904565b9050919050565b6000602082019050818103600083015261425281613944565b9050919050565b6000602082019050818103600083015261427281613984565b9050919050565b60006020820190508181036000830152614292816139c4565b9050919050565b600060208201905081810360008301526142b281613a04565b9050919050565b600060208201905081810360008301526142d281613a44565b9050919050565b600060208201905081810360008301526142f281613a84565b9050919050565b6000602082019050818103600083015261431281613ac4565b9050919050565b6000602082019050818103600083015261433281613b04565b9050919050565b6000602082019050818103600083015261435281613b44565b9050919050565b6000602082019050818103600083015261437281613b84565b9050919050565b6000602082019050818103600083015261439281613bc4565b9050919050565b600060208201905081810360008301526143b281613c2a565b9050919050565b600060208201905081810360008301526143d281613c90565b9050919050565b600060208201905081810360008301526143f281613cf6565b9050919050565b6000602082019050818103600083015261441281613d36565b9050919050565b600060208201905061442e6000830184613d76565b92915050565b6000808335600160200384360303811261444d57600080fd5b80840192508235915067ffffffffffffffff82111561446b57600080fd5b60208301925060018202360383131561448357600080fd5b509250929050565b6000604051905081810181811067ffffffffffffffff821117156144b2576144b16147ce565b5b8060405250919050565b600067ffffffffffffffff8211156144d7576144d66147ce565b5b601f19601f8301169050602081019050919050565b6000819050602082019050919050565b60008190508160005260206000209050919050565b600081519050919050565b600081519050919050565b600081519050919050565b6000602082019050919050565b600082825260208201905092915050565b600081905092915050565b600082825260208201905092915050565b600081905092915050565b60006145828261468e565b9050919050565b60008115159050919050565b60007fff0000000000000000000000000000000000000000000000000000000000000082169050919050565b60007fffffffffffffffffffff0000000000000000000000000000000000000000000082169050919050565b60007fffffffffffffffffffffffffffffff000000000000000000000000000000000082169050919050565b60007fffffffffffffffffffffffffffffffffffffffff00000000000000000000000082169050919050565b6000819050919050565b60007fffffffff0000000000000000000000000000000000000000000000000000000082169050919050565b6000819050614689826147ee565b919050565b600073ffffffffffffffffffffffffffffffffffffffff82169050919050565b6000819050919050565b60006146c3826146ca565b9050919050565b60006146d58261468e565b9050919050565b60006146e7826146ee565b9050919050565b60006146f98261468e565b9050919050565b600061470b82614712565b9050919050565b600061471d8261468e565b9050919050565b600061472f8261467b565b9050919050565b82818337600083830152505050565b60005b83811015614763578082015181840152602081019050614748565b83811115614772576000848401525b50505050565b6000614783826147bc565b9050919050565b6000819050919050565b6000819050919050565b6000819050919050565b6000819050919050565b6000819050919050565b60006147c7826147e1565b9050919050565bfe5b6000601f19601f8301169050919050565b60008160601b9050919050565b600381106147ff576147fe6147ce565b5b50565b61480b81614577565b811461481657600080fd5b50565b61482281614589565b811461482d57600080fd5b50565b61483981614645565b811461484457600080fd5b50565b6148508161464f565b811461485b57600080fd5b50565b6003811061486b57600080fd5b50565b614877816146ae565b811461488257600080fd5b5056fea2646970667358221220db80c068f153505945023cef16c32268d090c36ad5009aecd58f35d3a126aada64736f6c63430007030033",
  "linkReferences": {},
  "deployedLinkReferences": {}
}