{
  "_format": "hh-sol-artifact-1",
  "contractName": "StateChangingAllowListVerifier",
  "sourceName": "contracts/test/StateChangingAllowListVerifier.sol",
  "abi": [
    {
      "inputs": [
        {
          "internalType": "address",
          "name": "user",
          "type": "address"
        },
        {
          "internalType": "uint256",
          "name": "auctionId",
          "type": "uint256"
        },
        {
          "internalType": "bytes",
          "name": "callData",
          "type": "bytes"
        }
      ],
      "name": "isAllowed",
      "outputs": [
        {
          "internalType": "bytes4",
          "name": "",
          "type": "bytes4"
        }
      ],
      "stateMutability": "nonpayable",
      "type": "function"
    },
    {
      "inputs": [],
      "name": "test",
      "outputs": [
        {
          "internalType": "bytes32",
          "name": "",
          "type": "bytes32"
        }
      ],
      "stateMutability": "view",
      "type": "function"
    }
  ],
  "bytecode": "0x60806040526000801b60005534801561001757600080fd5b506101fe806100276000396000f3fe608060405234801561001057600080fd5b50600436106100365760003560e01c806319a05a7e1461003b578063f8a8fd6d14610111575b600080fd5b6100dc6004803603606081101561005157600080fd5b81019080803573ffffffffffffffffffffffffffffffffffffffff169060200190929190803590602001909291908035906020019064010000000081111561009857600080fd5b8201836020820111156100aa57600080fd5b803590602001918460018302840111640100000000831117156100cc57600080fd5b909192939192939050505061012f565b60405180827bffffffffffffffffffffffffffffffffffffffffffffffffffffffff1916815260200191505060405180910390f35b6101196101c2565b6040518082815260200191505060405180910390f35b600084848484604051602001808573ffffffffffffffffffffffffffffffffffffffff168152602001848152602001806020018281038252848482818152602001925080828437600081840152601f19601f82011690508083019250505095505050505050604051602081830303815290604052805190602001206000819055506319a05a7e60e01b9050949350505050565b6000548156fea26469706673582212209c0612a7317d573608b023f05fb42c6d3c16224c5b20894f6cf93f65d436a91a64736f6c634300060c0033",
  "linkReferences": {},
  "deployedLinkReferences": {}
}