{
  "address": "0x454834D526bA7110b42a8fA141F3C3F66af689Ec",
  "abi": [
    {
      "anonymous": false,
      "inputs": [
        {
          "indexed": false,
          "internalType": "address",
          "name": "newBeneficiary",
          "type": "address"
        }
      ],
      "name": "BeneficiaryChanged",
      "type": "event"
    },
    {
      "anonymous": false,
      "inputs": [],
      "name": "LockAccepted",
      "type": "event"
    },
    {
      "anonymous": false,
      "inputs": [],
      "name": "LockCanceled",
      "type": "event"
    },
    {
      "anonymous": false,
      "inputs": [
        {
          "indexed": true,
          "internalType": "address",
          "name": "_oldManager",
          "type": "address"
        },
        {
          "indexed": true,
          "internalType": "address",
          "name": "_newManager",
          "type": "address"
        }
      ],
      "name": "ManagerUpdated",
      "type": "event"
    },
    {
      "anonymous": false,
      "inputs": [
        {
          "indexed": true,
          "internalType": "address",
          "name": "previousOwner",
          "type": "address"
        },
        {
          "indexed": true,
          "internalType": "address",
          "name": "newOwner",
          "type": "address"
        }
      ],
      "name": "OwnershipTransferred",
      "type": "event"
    },
    {
      "anonymous": false,
      "inputs": [
        {
          "indexed": true,
          "internalType": "address",
          "name": "_subjectToken",
          "type": "address"
        },
        {
          "indexed": true,
          "internalType": "address",
          "name": "_destination",
          "type": "address"
        }
      ],
      "name": "SubjectTokenDestinationsApproved",
      "type": "event"
    },
    {
      "anonymous": false,
      "inputs": [
        {
          "indexed": true,
          "internalType": "address",
          "name": "_subjectToken",
          "type": "address"
        },
        {
          "indexed": true,
          "internalType": "address",
          "name": "_destination",
          "type": "address"
        }
      ],
      "name": "SubjectTokenDestinationsRevoked",
      "type": "event"
    },
    {
      "anonymous": false,
      "inputs": [],
      "name": "TokenDestinationsApproved",
      "type": "event"
    },
    {
      "anonymous": false,
      "inputs": [],
      "name": "TokenDestinationsRevoked",
      "type": "event"
    },
    {
      "anonymous": false,
      "inputs": [
        {
          "indexed": true,
          "internalType": "address",
          "name": "beneficiary",
          "type": "address"
        },
        {
          "indexed": false,
          "internalType": "uint256",
          "name": "amount",
          "type": "uint256"
        }
      ],
      "name": "TokensReleased",
      "type": "event"
    },
    {
      "anonymous": false,
      "inputs": [
        {
          "indexed": true,
          "internalType": "address",
          "name": "beneficiary",
          "type": "address"
        },
        {
          "indexed": false,
          "internalType": "uint256",
          "name": "amount",
          "type": "uint256"
        }
      ],
      "name": "TokensRevoked",
      "type": "event"
    },
    {
      "anonymous": false,
      "inputs": [
        {
          "indexed": true,
          "internalType": "address",
          "name": "beneficiary",
          "type": "address"
        },
        {
          "indexed": false,
          "internalType": "uint256",
          "name": "amount",
          "type": "uint256"
        }
      ],
      "name": "TokensWithdrawn",
      "type": "event"
    },
    {
      "stateMutability": "payable",
      "type": "fallback"
    },
    {
      "inputs": [],
      "name": "acceptLock",
      "outputs": [],
      "stateMutability": "nonpayable",
      "type": "function"
    },
    {
      "inputs": [],
      "name": "amountPerPeriod",
      "outputs": [
        {
          "internalType": "uint256",
          "name": "",
          "type": "uint256"
        }
      ],
      "stateMutability": "view",
      "type": "function"
    },
    {
      "inputs": [],
      "name": "approveProtocol",
      "outputs": [],
      "stateMutability": "nonpayable",
      "type": "function"
    },
    {
      "inputs": [
        {
          "internalType": "address",
          "name": "_subject",
          "type": "address"
        }
      ],
      "name": "approveSubjectToken",
      "outputs": [],
      "stateMutability": "nonpayable",
      "type": "function"
    },
    {
      "inputs": [],
      "name": "availableAmount",
      "outputs": [
        {
          "internalType": "uint256",
          "name": "",
          "type": "uint256"
        }
      ],
      "stateMutability": "view",
      "type": "function"
    },
    {
      "inputs": [],
      "name": "beneficiary",
      "outputs": [
        {
          "internalType": "address",
          "name": "",
          "type": "address"
        }
      ],
      "stateMutability": "view",
      "type": "function"
    },
    {
      "inputs": [],
      "name": "cancelLock",
      "outputs": [],
      "stateMutability": "nonpayable",
      "type": "function"
    },
    {
      "inputs": [
        {
          "internalType": "address",
          "name": "_newBeneficiary",
          "type": "address"
        }
      ],
      "name": "changeBeneficiary",
      "outputs": [],
      "stateMutability": "nonpayable",
      "type": "function"
    },
    {
      "inputs": [],
      "name": "currentBalance",
      "outputs": [
        {
          "internalType": "uint256",
          "name": "",
          "type": "uint256"
        }
      ],
      "stateMutability": "view",
      "type": "function"
    },
    {
      "inputs": [],
      "name": "currentPeriod",
      "outputs": [
        {
          "internalType": "uint256",
          "name": "",
          "type": "uint256"
        }
      ],
      "stateMutability": "view",
      "type": "function"
    },
    {
      "inputs": [],
      "name": "currentTime",
      "outputs": [
        {
          "internalType": "uint256",
          "name": "",
          "type": "uint256"
        }
      ],
      "stateMutability": "view",
      "type": "function"
    },
    {
      "inputs": [],
      "name": "duration",
      "outputs": [
        {
          "internalType": "uint256",
          "name": "",
          "type": "uint256"
        }
      ],
      "stateMutability": "view",
      "type": "function"
    },
    {
      "inputs": [],
      "name": "endTime",
      "outputs": [
        {
          "internalType": "uint256",
          "name": "",
          "type": "uint256"
        }
      ],
      "stateMutability": "view",
      "type": "function"
    },
    {
      "inputs": [
        {
          "internalType": "address",
          "name": "_manager",
          "type": "address"
        },
        {
          "internalType": "address",
          "name": "_owner",
          "type": "address"
        },
        {
          "internalType": "address",
          "name": "_beneficiary",
          "type": "address"
        },
        {
          "internalType": "address",
          "name": "_token",
          "type": "address"
        },
        {
          "internalType": "uint256",
          "name": "_managedAmount",
          "type": "uint256"
        },
        {
          "internalType": "uint256",
          "name": "_startTime",
          "type": "uint256"
        },
        {
          "internalType": "uint256",
          "name": "_endTime",
          "type": "uint256"
        },
        {
          "internalType": "uint256",
          "name": "_periods",
          "type": "uint256"
        },
        {
          "internalType": "uint256",
          "name": "_releaseStartTime",
          "type": "uint256"
        },
        {
          "internalType": "uint256",
          "name": "_vestingCliffTime",
          "type": "uint256"
        },
        {
          "internalType": "enum IMoxieTokenLock.Revocability",
          "name": "_revocable",
          "type": "uint8"
        }
      ],
      "name": "initialize",
      "outputs": [],
      "stateMutability": "nonpayable",
      "type": "function"
    },
    {
      "inputs": [],
      "name": "isAccepted",
      "outputs": [
        {
          "internalType": "bool",
          "name": "",
          "type": "bool"
        }
      ],
      "stateMutability": "view",
      "type": "function"
    },
    {
      "inputs": [],
      "name": "isInitialized",
      "outputs": [
        {
          "internalType": "bool",
          "name": "",
          "type": "bool"
        }
      ],
      "stateMutability": "view",
      "type": "function"
    },
    {
      "inputs": [],
      "name": "isRevoked",
      "outputs": [
        {
          "internalType": "bool",
          "name": "",
          "type": "bool"
        }
      ],
      "stateMutability": "view",
      "type": "function"
    },
    {
      "inputs": [],
      "name": "managedAmount",
      "outputs": [
        {
          "internalType": "uint256",
          "name": "",
          "type": "uint256"
        }
      ],
      "stateMutability": "view",
      "type": "function"
    },
    {
      "inputs": [],
      "name": "manager",
      "outputs": [
        {
          "internalType": "contract IMoxieTokenLockManager",
          "name": "",
          "type": "address"
        }
      ],
      "stateMutability": "view",
      "type": "function"
    },
    {
      "inputs": [],
      "name": "owner",
      "outputs": [
        {
          "internalType": "address",
          "name": "",
          "type": "address"
        }
      ],
      "stateMutability": "view",
      "type": "function"
    },
    {
      "inputs": [],
      "name": "passedPeriods",
      "outputs": [
        {
          "internalType": "uint256",
          "name": "",
          "type": "uint256"
        }
      ],
      "stateMutability": "view",
      "type": "function"
    },
    {
      "inputs": [],
      "name": "periodDuration",
      "outputs": [
        {
          "internalType": "uint256",
          "name": "",
          "type": "uint256"
        }
      ],
      "stateMutability": "view",
      "type": "function"
    },
    {
      "inputs": [],
      "name": "periods",
      "outputs": [
        {
          "internalType": "uint256",
          "name": "",
          "type": "uint256"
        }
      ],
      "stateMutability": "view",
      "type": "function"
    },
    {
      "inputs": [],
      "name": "releasableAmount",
      "outputs": [
        {
          "internalType": "uint256",
          "name": "",
          "type": "uint256"
        }
      ],
      "stateMutability": "view",
      "type": "function"
    },
    {
      "inputs": [],
      "name": "release",
      "outputs": [],
      "stateMutability": "nonpayable",
      "type": "function"
    },
    {
      "inputs": [],
      "name": "releaseStartTime",
      "outputs": [
        {
          "internalType": "uint256",
          "name": "",
          "type": "uint256"
        }
      ],
      "stateMutability": "view",
      "type": "function"
    },
    {
      "inputs": [],
      "name": "releasedAmount",
      "outputs": [
        {
          "internalType": "uint256",
          "name": "",
          "type": "uint256"
        }
      ],
      "stateMutability": "view",
      "type": "function"
    },
    {
      "inputs": [],
      "name": "renounceOwnership",
      "outputs": [],
      "stateMutability": "nonpayable",
      "type": "function"
    },
    {
      "inputs": [],
      "name": "revocable",
      "outputs": [
        {
          "internalType": "enum IMoxieTokenLock.Revocability",
          "name": "",
          "type": "uint8"
        }
      ],
      "stateMutability": "view",
      "type": "function"
    },
    {
      "inputs": [],
      "name": "revoke",
      "outputs": [],
      "stateMutability": "nonpayable",
      "type": "function"
    },
    {
      "inputs": [],
      "name": "revokeProtocol",
      "outputs": [],
      "stateMutability": "nonpayable",
      "type": "function"
    },
    {
      "inputs": [
        {
          "internalType": "address",
          "name": "_subject",
          "type": "address"
        }
      ],
      "name": "revokeSubjectToken",
      "outputs": [],
      "stateMutability": "nonpayable",
      "type": "function"
    },
    {
      "inputs": [],
      "name": "revokedAmount",
      "outputs": [
        {
          "internalType": "uint256",
          "name": "",
          "type": "uint256"
        }
      ],
      "stateMutability": "view",
      "type": "function"
    },
    {
      "inputs": [
        {
          "internalType": "address",
          "name": "_newManager",
          "type": "address"
        }
      ],
      "name": "setManager",
      "outputs": [],
      "stateMutability": "nonpayable",
      "type": "function"
    },
    {
      "inputs": [],
      "name": "sinceStartTime",
      "outputs": [
        {
          "internalType": "uint256",
          "name": "",
          "type": "uint256"
        }
      ],
      "stateMutability": "view",
      "type": "function"
    },
    {
      "inputs": [],
      "name": "startTime",
      "outputs": [
        {
          "internalType": "uint256",
          "name": "",
          "type": "uint256"
        }
      ],
      "stateMutability": "view",
      "type": "function"
    },
    {
      "inputs": [],
      "name": "surplusAmount",
      "outputs": [
        {
          "internalType": "uint256",
          "name": "",
          "type": "uint256"
        }
      ],
      "stateMutability": "view",
      "type": "function"
    },
    {
      "inputs": [],
      "name": "token",
      "outputs": [
        {
          "internalType": "contract IERC20",
          "name": "",
          "type": "address"
        }
      ],
      "stateMutability": "view",
      "type": "function"
    },
    {
      "inputs": [],
      "name": "totalOutstandingAmount",
      "outputs": [
        {
          "internalType": "uint256",
          "name": "",
          "type": "uint256"
        }
      ],
      "stateMutability": "view",
      "type": "function"
    },
    {
      "inputs": [
        {
          "internalType": "address",
          "name": "newOwner",
          "type": "address"
        }
      ],
      "name": "transferOwnership",
      "outputs": [],
      "stateMutability": "nonpayable",
      "type": "function"
    },
    {
      "inputs": [],
      "name": "usedAmount",
      "outputs": [
        {
          "internalType": "uint256",
          "name": "",
          "type": "uint256"
        }
      ],
      "stateMutability": "view",
      "type": "function"
    },
    {
      "inputs": [],
      "name": "vestedAmount",
      "outputs": [
        {
          "internalType": "uint256",
          "name": "",
          "type": "uint256"
        }
      ],
      "stateMutability": "view",
      "type": "function"
    },
    {
      "inputs": [],
      "name": "vestingCliffTime",
      "outputs": [
        {
          "internalType": "uint256",
          "name": "",
          "type": "uint256"
        }
      ],
      "stateMutability": "view",
      "type": "function"
    },
    {
      "inputs": [
        {
          "internalType": "uint256",
          "name": "_amount",
          "type": "uint256"
        }
      ],
      "name": "withdrawSurplus",
      "outputs": [],
      "stateMutability": "nonpayable",
      "type": "function"
    },
    {
      "stateMutability": "payable",
      "type": "receive"
    }
  ],
  "transactionHash": "0xe828411554f295cc244c3b650fd2aefb00d94dbf30b1378cc435b3db3908ffde",
  "args": [],
  "solcInputHash": "9b56d0cbd5f88430b053d69ae566fba6",
  "bytecode": "0x608060405234801561001057600080fd5b50614ff6806100206000396000f3fe60806040526004361061026b5760003560e01c806386d00e0211610144578063bd896dcb116100b6578063e8dda6f51161007a578063e8dda6f514610bff578063e97d87d514610c2a578063ebbab99214610c55578063f2fde38b14610c80578063f58503fd14610ca9578063fc0c546a14610cd2576102ab565b8063bd896dcb14610b2e578063ce845d1d14610b57578063d0ebdbe714610b82578063d18e81b314610bab578063dc07065714610bd6576102ab565b806391f7cfb91161010857806391f7cfb914610a42578063a4caeb4214610a6d578063b0d1818c14610a98578063b470aade14610ac1578063b6549f7514610aec578063bc0163c114610b03576102ab565b806386d00e021461099357806386d1a69f146109be578063872a7810146109d55780638a5bdf5c14610a005780638da5cb5b14610a17576102ab565b8063392e53cd116101dd5780635051a5ec116101a15780635051a5ec146108b95780635b940081146108e457806360e799441461090f578063715018a61461092657806378e979251461093d5780637bdf05af14610968576102ab565b8063392e53cd146107e2578063398057a31461080d57806344b1231f1461083857806345d30a1714610863578063481c6a751461088e576102ab565b80630fb5a6b41161022f5780630fb5a6b4146106f45780632a6278141461071f5780632bc9ed02146107365780633197cbb61461076157806337aeb0861461078c57806338af3eed146107b7576102ab565b8063029c6c9f1461063357806304bd929e1461065e57806306040618146106875780630b80f777146106b25780630dff24d5146106c9576102ab565b366102ab576040517f08c379a00000000000000000000000000000000000000000000000000000000081526004016102a2906148d4565b60405180910390fd5b603460009054906101000a900473ffffffffffffffffffffffffffffffffffffffff1673ffffffffffffffffffffffffffffffffffffffff163373ffffffffffffffffffffffffffffffffffffffff161461033b576040517f08c379a000000000000000000000000000000000000000000000000000000000815260040161033290614ad4565b60405180910390fd5b6000341461037e576040517f08c379a0000000000000000000000000000000000000000000000000000000008152600401610375906148f4565b60405180910390fd5b6000603e60009054906101000a900473ffffffffffffffffffffffffffffffffffffffff1673ffffffffffffffffffffffffffffffffffffffff1663f1d24c456000357fffffffff00000000000000000000000000000000000000000000000000000000166040518263ffffffff1660e01b81526004016103ff9190614826565b60206040518083038186803b15801561041757600080fd5b505afa15801561042b573d6000803e3d6000fd5b505050506040513d601f19601f8201168201806040525081019061044f9190613a20565b9050600073ffffffffffffffffffffffffffffffffffffffff168173ffffffffffffffffffffffffffffffffffffffff1614156104c1576040517f08c379a00000000000000000000000000000000000000000000000000000000081526004016104b890614bb4565b60405180910390fd5b60006104cb610cfd565b905061051c826000368080601f016020809104026020016040519081016040528093929190818152602001838380828437600081840152601f19601f82011690508083019250505050505050610daf565b506001600281111561052a57fe5b603b60009054906101000a900460ff16600281111561054557fe5b141561062f576000610555610cfd565b9050818110156105975760006105748284610df990919063ffffffff16565b905061058b81603f54610e4990919063ffffffff16565b603f81905550506105dd565b60006105ac8383610df990919063ffffffff16565b9050603f548110156105d2576105cd81603f54610df990919063ffffffff16565b6105d5565b60005b603f81905550505b603c546105e8610e9e565b03603f54111561062d576040517f08c379a000000000000000000000000000000000000000000000000000000000815260040161062490614cf4565b60405180910390fd5b505b5050005b34801561063f57600080fd5b50610648610efc565b6040516106559190614d74565b60405180910390f35b34801561066a57600080fd5b50610685600480360381019061068091906139f7565b610f1a565b005b34801561069357600080fd5b5061069c611331565b6040516106a99190614d74565b60405180910390f35b3480156106be57600080fd5b506106c761136c565b005b3480156106d557600080fd5b506106de6114d9565b6040516106eb9190614d74565b60405180910390f35b34801561070057600080fd5b50610709611520565b6040516107169190614d74565b60405180910390f35b34801561072b57600080fd5b5061073461153e565b005b34801561074257600080fd5b5061074b6117a3565b604051610758919061480b565b60405180910390f35b34801561076d57600080fd5b506107766117b6565b6040516107839190614d74565b60405180910390f35b34801561079857600080fd5b506107a16117bc565b6040516107ae9190614d74565b60405180910390f35b3480156107c357600080fd5b506107cc6117c2565b6040516107d9919061479e565b60405180910390f35b3480156107ee57600080fd5b506107f76117e8565b604051610804919061480b565b60405180910390f35b34801561081957600080fd5b506108226117fb565b60405161082f9190614d74565b60405180910390f35b34801561084457600080fd5b5061084d611801565b60405161085a9190614d74565b60405180910390f35b34801561086f57600080fd5b50610878611870565b6040516108859190614d74565b60405180910390f35b34801561089a57600080fd5b506108a3611876565b6040516108b0919061485c565b60405180910390f35b3480156108c557600080fd5b506108ce61189c565b6040516108db919061480b565b60405180910390f35b3480156108f057600080fd5b506108f96118af565b6040516109069190614d74565b60405180910390f35b34801561091b57600080fd5b506109246119ba565b005b34801561093257600080fd5b5061093b611c00565b005b34801561094957600080fd5b50610952611d4c565b60405161095f9190614d74565b60405180910390f35b34801561097457600080fd5b5061097d611d52565b60405161098a9190614d74565b60405180910390f35b34801561099f57600080fd5b506109a8611d8e565b6040516109b59190614d74565b60405180910390f35b3480156109ca57600080fd5b506109d3611d94565b005b3480156109e157600080fd5b506109ea611f70565b6040516109f79190614877565b60405180910390f35b348015610a0c57600080fd5b50610a15611f83565b005b348015610a2357600080fd5b50610a2c61205c565b604051610a39919061479e565b60405180910390f35b348015610a4e57600080fd5b50610a57610e9e565b604051610a649190614d74565b60405180910390f35b348015610a7957600080fd5b50610a82612085565b604051610a8f9190614d74565b60405180910390f35b348015610aa457600080fd5b50610abf6004803603810190610aba9190613ba3565b61208b565b005b348015610acd57600080fd5b50610ad661228a565b604051610ae39190614d74565b60405180910390f35b348015610af857600080fd5b50610b016122ad565b005b348015610b0f57600080fd5b50610b18612545565b604051610b259190614d74565b60405180910390f35b348015610b3a57600080fd5b50610b556004803603810190610b509190613a49565b612577565b005b348015610b6357600080fd5b50610b6c610cfd565b604051610b799190614d74565b60405180910390f35b348015610b8e57600080fd5b50610ba96004803603810190610ba491906139f7565b61259f565b005b348015610bb757600080fd5b50610bc0612639565b604051610bcd9190614d74565b60405180910390f35b348015610be257600080fd5b50610bfd6004803603810190610bf891906139f7565b612641565b005b348015610c0b57600080fd5b50610c146127bc565b604051610c219190614d74565b60405180910390f35b348015610c3657600080fd5b50610c3f6127c2565b604051610c4c9190614d74565b60405180910390f35b348015610c6157600080fd5b50610c6a6127c8565b604051610c779190614d74565b60405180910390f35b348015610c8c57600080fd5b50610ca76004803603810190610ca291906139f7565b6127ea565b005b348015610cb557600080fd5b50610cd06004803603810190610ccb91906139f7565b6129a5565b005b348015610cde57600080fd5b50610ce7612d9d565b604051610cf49190614841565b60405180910390f35b6000603360009054906101000a900473ffffffffffffffffffffffffffffffffffffffff1673ffffffffffffffffffffffffffffffffffffffff166370a08231306040518263ffffffff1660e01b8152600401610d5a919061479e565b60206040518083038186803b158015610d7257600080fd5b505afa158015610d86573d6000803e3d6000fd5b505050506040513d601f19601f82011682018060405250810190610daa9190613bcc565b905090565b6060610df183836040518060400160405280601e81526020017f416464726573733a206c6f772d6c6576656c2063616c6c206661696c65640000815250612dc3565b905092915050565b600082821115610e3e576040517f08c379a0000000000000000000000000000000000000000000000000000000008152600401610e3590614a14565b60405180910390fd5b818303905092915050565b600080828401905083811015610e94576040517f08c379a0000000000000000000000000000000000000000000000000000000008152600401610e8b90614994565b60405180910390fd5b8091505092915050565b600080610ea9612639565b9050603654811015610ebf576000915050610ef9565b603754811115610ed457603554915050610ef9565b610ef5610edf610efc565b610ee76127c8565b612ddb90919063ffffffff16565b9150505b90565b6000610f15603854603554612e4b90919063ffffffff16565b905090565b603460009054906101000a900473ffffffffffffffffffffffffffffffffffffffff1673ffffffffffffffffffffffffffffffffffffffff163373ffffffffffffffffffffffffffffffffffffffff1614610faa576040517f08c379a0000000000000000000000000000000000000000000000000000000008152600401610fa190614c74565b60405180910390fd5b600073ffffffffffffffffffffffffffffffffffffffff168173ffffffffffffffffffffffffffffffffffffffff16141561101a576040517f08c379a000000000000000000000000000000000000000000000000000000000815260040161101190614a34565b60405180910390fd5b6000603e60009054906101000a900473ffffffffffffffffffffffffffffffffffffffff1673ffffffffffffffffffffffffffffffffffffffff1663b4ddfb59836040518263ffffffff1660e01b8152600401611077919061479e565b602060405180830381600087803b15801561109157600080fd5b505af11580156110a5573d6000803e3d6000fd5b505050506040513d601f19601f820116820180604052508101906110c99190613a20565b9050600073ffffffffffffffffffffffffffffffffffffffff168173ffffffffffffffffffffffffffffffffffffffff16141561113b576040517f08c379a0000000000000000000000000000000000000000000000000000000008152600401611132906148b4565b60405180910390fd5b6060603e60009054906101000a900473ffffffffffffffffffffffffffffffffffffffff1673ffffffffffffffffffffffffffffffffffffffff1663d3a84e876040518163ffffffff1660e01b815260040160006040518083038186803b1580156111a557600080fd5b505afa1580156111b9573d6000803e3d6000fd5b505050506040513d6000823e3d601f19601f820116820180604052508101906111e29190613b39565b905060005b815181101561132b578273ffffffffffffffffffffffffffffffffffffffff1663095ea7b383838151811061121857fe5b60200260200101517fffffffffffffffffffffffffffffffffffffffffffffffffffffffffffffffff6040518363ffffffff1660e01b815260040161125e9291906147e2565b602060405180830381600087803b15801561127857600080fd5b505af115801561128c573d6000803e3d6000fd5b505050506040513d601f19601f820116820180604052508101906112b09190613b7a565b508181815181106112bd57fe5b602002602001015173ffffffffffffffffffffffffffffffffffffffff168373ffffffffffffffffffffffffffffffffffffffff167f9cba83682d81b2ffd08a954f5ba5a6c04e02996f7388b8d6b17cca67addf31a660405160405180910390a380806001019150506111e7565b50505050565b6000611367600161135961134361228a565b61134b611d52565b612e4b90919063ffffffff16565b610e4990919063ffffffff16565b905090565b3373ffffffffffffffffffffffffffffffffffffffff1660008054906101000a900473ffffffffffffffffffffffffffffffffffffffff1673ffffffffffffffffffffffffffffffffffffffff16146113fa576040517f08c379a00000000000000000000000000000000000000000000000000000000081526004016113f190614b74565b60405180910390fd5b60001515603b60039054906101000a900460ff16151514611450576040517f08c379a0000000000000000000000000000000000000000000000000000000008152600401611447906149f4565b60405180910390fd5b6114ab61145b61205c565b611463610cfd565b603360009054906101000a900473ffffffffffffffffffffffffffffffffffffffff1673ffffffffffffffffffffffffffffffffffffffff16612ea19092919063ffffffff16565b7f171f0bcbda3370351cea17f3b164bee87d77c2503b94abdf2720a814ebe7e9df60405160405180910390a1565b6000806114e4610cfd565b905060006114f0612545565b9050808211156115165761150d8183610df990919063ffffffff16565b9250505061151d565b6000925050505b90565b6000611539603654603754610df990919063ffffffff16565b905090565b603460009054906101000a900473ffffffffffffffffffffffffffffffffffffffff1673ffffffffffffffffffffffffffffffffffffffff163373ffffffffffffffffffffffffffffffffffffffff16146115ce576040517f08c379a00000000000000000000000000000000000000000000000000000000081526004016115c590614c74565b60405180910390fd5b6060603e60009054906101000a900473ffffffffffffffffffffffffffffffffffffffff1673ffffffffffffffffffffffffffffffffffffffff1663a34574666040518163ffffffff1660e01b815260040160006040518083038186803b15801561163857600080fd5b505afa15801561164c573d6000803e3d6000fd5b505050506040513d6000823e3d601f19601f820116820180604052508101906116759190613b39565b905060005b815181101561177357603360009054906101000a900473ffffffffffffffffffffffffffffffffffffffff1673ffffffffffffffffffffffffffffffffffffffff1663095ea7b38383815181106116cd57fe5b60200260200101517fffffffffffffffffffffffffffffffffffffffffffffffffffffffffffffffff6040518363ffffffff1660e01b81526004016117139291906147e2565b602060405180830381600087803b15801561172d57600080fd5b505af1158015611741573d6000803e3d6000fd5b505050506040513d601f19601f820116820180604052508101906117659190613b7a565b50808060010191505061167a565b507fb837fd51506ba3cc623a37c78ed22fd521f2f6e9f69a34d5c2a4a9474f27579360405160405180910390a150565b603b60019054906101000a900460ff1681565b60375481565b603d5481565b603460009054906101000a900473ffffffffffffffffffffffffffffffffffffffff1681565b603b60029054906101000a900460ff1681565b60355481565b600060028081111561180f57fe5b603b60009054906101000a900460ff16600281111561182a57fe5b141561183a57603554905061186d565b6000603a541180156118545750603a54611852612639565b105b15611862576000905061186d565b61186a610e9e565b90505b90565b603c5481565b603e60009054906101000a900473ffffffffffffffffffffffffffffffffffffffff1681565b603b60039054906101000a900460ff1681565b60006002808111156118bd57fe5b603b60009054906101000a900460ff1660028111156118d857fe5b14156118ed576118e6612f27565b90506119b7565b60006039541180156119075750603954611905612639565b105b1561191557600090506119b7565b6001600281111561192257fe5b603b60009054906101000a900460ff16600281111561193d57fe5b14801561194c57506000603a54115b80156119605750603a5461195e612639565b105b1561196e57600090506119b7565b60006119a0603f54611992603c54611984610e9e565b610df990919063ffffffff16565b610df990919063ffffffff16565b90506119b36119ad610cfd565b82612fe1565b9150505b90565b603460009054906101000a900473ffffffffffffffffffffffffffffffffffffffff1673ffffffffffffffffffffffffffffffffffffffff163373ffffffffffffffffffffffffffffffffffffffff1614611a4a576040517f08c379a0000000000000000000000000000000000000000000000000000000008152600401611a4190614c74565b60405180910390fd5b6060603e60009054906101000a900473ffffffffffffffffffffffffffffffffffffffff1673ffffffffffffffffffffffffffffffffffffffff1663a34574666040518163ffffffff1660e01b815260040160006040518083038186803b158015611ab457600080fd5b505afa158015611ac8573d6000803e3d6000fd5b505050506040513d6000823e3d601f19601f82011682018060405250810190611af19190613b39565b905060005b8151811015611bd057603360009054906101000a900473ffffffffffffffffffffffffffffffffffffffff1673ffffffffffffffffffffffffffffffffffffffff1663095ea7b3838381518110611b4957fe5b602002602001015160006040518363ffffffff1660e01b8152600401611b709291906147b9565b602060405180830381600087803b158015611b8a57600080fd5b505af1158015611b9e573d6000803e3d6000fd5b505050506040513d601f19601f82011682018060405250810190611bc29190613b7a565b508080600101915050611af6565b507f6d317a20ba9d790014284bef285283cd61fde92e0f2711050f563a9d2cf4171160405160405180910390a150565b3373ffffffffffffffffffffffffffffffffffffffff1660008054906101000a900473ffffffffffffffffffffffffffffffffffffffff1673ffffffffffffffffffffffffffffffffffffffff1614611c8e576040517f08c379a0000000000000000000000000000000000000000000000000000000008152600401611c8590614b74565b60405180910390fd5b600073ffffffffffffffffffffffffffffffffffffffff1660008054906101000a900473ffffffffffffffffffffffffffffffffffffffff1673ffffffffffffffffffffffffffffffffffffffff167f8be0079c531659141344cd1fd0a4f28419497f9722a3daafe3b4186f6b6457e060405160405180910390a360008060006101000a81548173ffffffffffffffffffffffffffffffffffffffff021916908373ffffffffffffffffffffffffffffffffffffffff160217905550565b60365481565b600080611d5d612639565b90506036548111611d72576000915050611d8b565b611d8760365482610df990919063ffffffff16565b9150505b90565b603a5481565b603460009054906101000a900473ffffffffffffffffffffffffffffffffffffffff1673ffffffffffffffffffffffffffffffffffffffff163373ffffffffffffffffffffffffffffffffffffffff1614611e24576040517f08c379a0000000000000000000000000000000000000000000000000000000008152600401611e1b90614c74565b60405180910390fd5b6000611e2e6118af565b905060008111611e73576040517f08c379a0000000000000000000000000000000000000000000000000000000008152600401611e6a90614cd4565b60405180910390fd5b611e8881603c54610e4990919063ffffffff16565b603c81905550611efd603460009054906101000a900473ffffffffffffffffffffffffffffffffffffffff1682603360009054906101000a900473ffffffffffffffffffffffffffffffffffffffff1673ffffffffffffffffffffffffffffffffffffffff16612ea19092919063ffffffff16565b603460009054906101000a900473ffffffffffffffffffffffffffffffffffffffff1673ffffffffffffffffffffffffffffffffffffffff167fc7798891864187665ac6dd119286e44ec13f014527aeeb2b8eb3fd413df9317982604051611f659190614d74565b60405180910390a250565b603b60009054906101000a900460ff1681565b603460009054906101000a900473ffffffffffffffffffffffffffffffffffffffff1673ffffffffffffffffffffffffffffffffffffffff163373ffffffffffffffffffffffffffffffffffffffff1614612013576040517f08c379a000000000000000000000000000000000000000000000000000000000815260040161200a90614c74565b60405180910390fd5b6001603b60036101000a81548160ff0219169083151502179055507fbeb3313724453131feb0a765a03e6715bb720e0f973a31fcbafa2d2f048c188b60405160405180910390a1565b60008060009054906101000a900473ffffffffffffffffffffffffffffffffffffffff16905090565b60385481565b603460009054906101000a900473ffffffffffffffffffffffffffffffffffffffff1673ffffffffffffffffffffffffffffffffffffffff163373ffffffffffffffffffffffffffffffffffffffff161461211b576040517f08c379a000000000000000000000000000000000000000000000000000000000815260040161211290614c74565b60405180910390fd5b6000811161215e576040517f08c379a000000000000000000000000000000000000000000000000000000000815260040161215590614b14565b60405180910390fd5b806121676114d9565b10156121a8576040517f08c379a000000000000000000000000000000000000000000000000000000000815260040161219f90614bf4565b60405180910390fd5b612217603460009054906101000a900473ffffffffffffffffffffffffffffffffffffffff1682603360009054906101000a900473ffffffffffffffffffffffffffffffffffffffff1673ffffffffffffffffffffffffffffffffffffffff16612ea19092919063ffffffff16565b603460009054906101000a900473ffffffffffffffffffffffffffffffffffffffff1673ffffffffffffffffffffffffffffffffffffffff167f6352c5382c4a4578e712449ca65e83cdb392d045dfcf1cad9615189db2da244b8260405161227f9190614d74565b60405180910390a250565b60006122a860385461229a611520565b612e4b90919063ffffffff16565b905090565b3373ffffffffffffffffffffffffffffffffffffffff1660008054906101000a900473ffffffffffffffffffffffffffffffffffffffff1673ffffffffffffffffffffffffffffffffffffffff161461233b576040517f08c379a000000000000000000000000000000000000000000000000000000000815260040161233290614b74565b60405180910390fd5b6001600281111561234857fe5b603b60009054906101000a900460ff16600281111561236357fe5b146123a3576040517f08c379a000000000000000000000000000000000000000000000000000000000815260040161239a90614c34565b60405180910390fd5b60001515603b60019054906101000a900460ff161515146123f9576040517f08c379a00000000000000000000000000000000000000000000000000000000081526004016123f090614d54565b60405180910390fd5b6000612417612406611801565b603554610df990919063ffffffff16565b90506000811161245c576040517f08c379a0000000000000000000000000000000000000000000000000000000008152600401612453906149b4565b60405180910390fd5b80603d819055506001603b60016101000a81548160ff0219169083151502179055506124d261248961205c565b82603360009054906101000a900473ffffffffffffffffffffffffffffffffffffffff1673ffffffffffffffffffffffffffffffffffffffff16612ea19092919063ffffffff16565b603460009054906101000a900473ffffffffffffffffffffffffffffffffffffffff1673ffffffffffffffffffffffffffffffffffffffff167fb73c49a3a37a7aca291ba0ceaa41657012def406106a7fc386888f0f66e941cf8260405161253a9190614d74565b60405180910390a250565b6000612572603d54612564603c54603554610df990919063ffffffff16565b610df990919063ffffffff16565b905090565b6125898a8a8a8a8a8a8a8a8a8a612ffa565b6125928b613484565b5050505050505050505050565b3373ffffffffffffffffffffffffffffffffffffffff1660008054906101000a900473ffffffffffffffffffffffffffffffffffffffff1673ffffffffffffffffffffffffffffffffffffffff161461262d576040517f08c379a000000000000000000000000000000000000000000000000000000000815260040161262490614b74565b60405180910390fd5b61263681613484565b50565b600042905090565b603460009054906101000a900473ffffffffffffffffffffffffffffffffffffffff1673ffffffffffffffffffffffffffffffffffffffff163373ffffffffffffffffffffffffffffffffffffffff16146126d1576040517f08c379a00000000000000000000000000000000000000000000000000000000081526004016126c890614c74565b60405180910390fd5b600073ffffffffffffffffffffffffffffffffffffffff168173ffffffffffffffffffffffffffffffffffffffff161415612741576040517f08c379a000000000000000000000000000000000000000000000000000000000815260040161273890614ab4565b60405180910390fd5b80603460006101000a81548173ffffffffffffffffffffffffffffffffffffffff021916908373ffffffffffffffffffffffffffffffffffffffff1602179055507f373c72efabe4ef3e552ff77838be729f3bc3d8c586df0012902d1baa2377fa1d816040516127b1919061479e565b60405180910390a150565b603f5481565b60395481565b60006127e560016127d7611331565b610df990919063ffffffff16565b905090565b3373ffffffffffffffffffffffffffffffffffffffff1660008054906101000a900473ffffffffffffffffffffffffffffffffffffffff1673ffffffffffffffffffffffffffffffffffffffff1614612878576040517f08c379a000000000000000000000000000000000000000000000000000000000815260040161286f90614b74565b60405180910390fd5b600073ffffffffffffffffffffffffffffffffffffffff168173ffffffffffffffffffffffffffffffffffffffff1614156128e8576040517f08c379a00000000000000000000000000000000000000000000000000000000081526004016128df90614974565b60405180910390fd5b8073ffffffffffffffffffffffffffffffffffffffff1660008054906101000a900473ffffffffffffffffffffffffffffffffffffffff1673ffffffffffffffffffffffffffffffffffffffff167f8be0079c531659141344cd1fd0a4f28419497f9722a3daafe3b4186f6b6457e060405160405180910390a3806000806101000a81548173ffffffffffffffffffffffffffffffffffffffff021916908373ffffffffffffffffffffffffffffffffffffffff16021790555050565b603460009054906101000a900473ffffffffffffffffffffffffffffffffffffffff1673ffffffffffffffffffffffffffffffffffffffff163373ffffffffffffffffffffffffffffffffffffffff1614612a35576040517f08c379a0000000000000000000000000000000000000000000000000000000008152600401612a2c90614c74565b60405180910390fd5b600073ffffffffffffffffffffffffffffffffffffffff168173ffffffffffffffffffffffffffffffffffffffff161415612aa5576040517f08c379a0000000000000000000000000000000000000000000000000000000008152600401612a9c90614a34565b60405180910390fd5b6000603e60009054906101000a900473ffffffffffffffffffffffffffffffffffffffff1673ffffffffffffffffffffffffffffffffffffffff1663b4ddfb59836040518263ffffffff1660e01b8152600401612b02919061479e565b602060405180830381600087803b158015612b1c57600080fd5b505af1158015612b30573d6000803e3d6000fd5b505050506040513d601f19601f82011682018060405250810190612b549190613a20565b9050600073ffffffffffffffffffffffffffffffffffffffff168173ffffffffffffffffffffffffffffffffffffffff161415612bc6576040517f08c379a0000000000000000000000000000000000000000000000000000000008152600401612bbd906148b4565b60405180910390fd5b6060603e60009054906101000a900473ffffffffffffffffffffffffffffffffffffffff1673ffffffffffffffffffffffffffffffffffffffff1663d3a84e876040518163ffffffff1660e01b815260040160006040518083038186803b158015612c3057600080fd5b505afa158015612c44573d6000803e3d6000fd5b505050506040513d6000823e3d601f19601f82011682018060405250810190612c6d9190613b39565b905060005b8151811015612d97578273ffffffffffffffffffffffffffffffffffffffff1663095ea7b3838381518110612ca357fe5b602002602001015160006040518363ffffffff1660e01b8152600401612cca9291906147b9565b602060405180830381600087803b158015612ce457600080fd5b505af1158015612cf8573d6000803e3d6000fd5b505050506040513d601f19601f82011682018060405250810190612d1c9190613b7a565b50818181518110612d2957fe5b602002602001015173ffffffffffffffffffffffffffffffffffffffff168373ffffffffffffffffffffffffffffffffffffffff167f0e359f6f9496d506fe27e424b6fe493fc7ea01429da58baa27cfb433dbe65be660405160405180910390a38080600101915050612c72565b50505050565b603360009054906101000a900473ffffffffffffffffffffffffffffffffffffffff1681565b6060612dd28484600085613602565b90509392505050565b600080831415612dee5760009050612e45565b6000828402905082848281612dff57fe5b0414612e40576040517f08c379a0000000000000000000000000000000000000000000000000000000008152600401612e3790614b54565b60405180910390fd5b809150505b92915050565b6000808211612e8f576040517f08c379a0000000000000000000000000000000000000000000000000000000008152600401612e8690614a94565b60405180910390fd5b818381612e9857fe5b04905092915050565b612f228363a9059cbb60e01b8484604051602401612ec09291906147e2565b604051602081830303815290604052907bffffffffffffffffffffffffffffffffffffffffffffffffffffffff19166020820180517bffffffffffffffffffffffffffffffffffffffffffffffffffffffff8381831617835250505050613717565b505050565b600080603954118015612f425750603954612f40612639565b105b15612f505760009050612fde565b60016002811115612f5d57fe5b603b60009054906101000a900460ff166002811115612f7857fe5b148015612f8757506000603a54115b8015612f9b5750603a54612f99612639565b105b15612fa95760009050612fde565b6000612fc7603c54612fb9610e9e565b610df990919063ffffffff16565b9050612fda612fd4610cfd565b82612fe1565b9150505b90565b6000818310612ff05781612ff2565b825b905092915050565b603b60029054906101000a900460ff161561304a576040517f08c379a000000000000000000000000000000000000000000000000000000000815260040161304190614c14565b60405180910390fd5b600073ffffffffffffffffffffffffffffffffffffffff168a73ffffffffffffffffffffffffffffffffffffffff1614156130ba576040517f08c379a00000000000000000000000000000000000000000000000000000000081526004016130b1906149d4565b60405180910390fd5b600073ffffffffffffffffffffffffffffffffffffffff168973ffffffffffffffffffffffffffffffffffffffff16141561312a576040517f08c379a000000000000000000000000000000000000000000000000000000000815260040161312190614d34565b60405180910390fd5b600073ffffffffffffffffffffffffffffffffffffffff168873ffffffffffffffffffffffffffffffffffffffff16141561319a576040517f08c379a000000000000000000000000000000000000000000000000000000000815260040161319190614d14565b60405180910390fd5b600087116131dd576040517f08c379a00000000000000000000000000000000000000000000000000000000081526004016131d490614a74565b60405180910390fd5b6000861415613221576040517f08c379a000000000000000000000000000000000000000000000000000000000815260040161321890614b94565b60405180910390fd5b848610613263576040517f08c379a000000000000000000000000000000000000000000000000000000000815260040161325a90614934565b60405180910390fd5b60018410156132a7576040517f08c379a000000000000000000000000000000000000000000000000000000000815260040161329e90614b34565b60405180910390fd5b600060028111156132b457fe5b8160028111156132c057fe5b1415613301576040517f08c379a00000000000000000000000000000000000000000000000000000000081526004016132f890614954565b60405180910390fd5b848310613343576040517f08c379a000000000000000000000000000000000000000000000000000000000815260040161333a90614c94565b60405180910390fd5b848210613385576040517f08c379a000000000000000000000000000000000000000000000000000000000815260040161337c90614914565b60405180910390fd5b6001603b60026101000a81548160ff0219169083151502179055506133a98a6137de565b88603460006101000a81548173ffffffffffffffffffffffffffffffffffffffff021916908373ffffffffffffffffffffffffffffffffffffffff16021790555087603360006101000a81548173ffffffffffffffffffffffffffffffffffffffff021916908373ffffffffffffffffffffffffffffffffffffffff160217905550866035819055508560368190555084603781905550836038819055508260398190555081603a8190555080603b60006101000a81548160ff0219169083600281111561347357fe5b021790555050505050505050505050565b600073ffffffffffffffffffffffffffffffffffffffff168173ffffffffffffffffffffffffffffffffffffffff1614156134f4576040517f08c379a00000000000000000000000000000000000000000000000000000000081526004016134eb90614c54565b60405180910390fd5b6134fd8161387c565b61353c576040517f08c379a000000000000000000000000000000000000000000000000000000000815260040161353390614af4565b60405180910390fd5b6000603e60009054906101000a900473ffffffffffffffffffffffffffffffffffffffff16905081603e60006101000a81548173ffffffffffffffffffffffffffffffffffffffff021916908373ffffffffffffffffffffffffffffffffffffffff1602179055508173ffffffffffffffffffffffffffffffffffffffff168173ffffffffffffffffffffffffffffffffffffffff167fdac3632743b879638fd2d51c4d3c1dd796615b4758a55b50b0c19b971ba9fbc760405160405180910390a35050565b606082471015613647576040517f08c379a000000000000000000000000000000000000000000000000000000000815260040161363e90614a54565b60405180910390fd5b6136508561387c565b61368f576040517f08c379a000000000000000000000000000000000000000000000000000000000815260040161368690614bd4565b60405180910390fd5b600060608673ffffffffffffffffffffffffffffffffffffffff1685876040516136b99190614787565b60006040518083038185875af1925050503d80600081146136f6576040519150601f19603f3d011682016040523d82523d6000602084013e6136fb565b606091505b509150915061370b82828661388f565b92505050949350505050565b6060613779826040518060400160405280602081526020017f5361666545524332303a206c6f772d6c6576656c2063616c6c206661696c65648152508573ffffffffffffffffffffffffffffffffffffffff16612dc39092919063ffffffff16565b90506000815111156137d957808060200190518101906137999190613b7a565b6137d8576040517f08c379a00000000000000000000000000000000000000000000000000000000081526004016137cf90614cb4565b60405180910390fd5b5b505050565b806000806101000a81548173ffffffffffffffffffffffffffffffffffffffff021916908373ffffffffffffffffffffffffffffffffffffffff1602179055508073ffffffffffffffffffffffffffffffffffffffff16600073ffffffffffffffffffffffffffffffffffffffff167f8be0079c531659141344cd1fd0a4f28419497f9722a3daafe3b4186f6b6457e060405160405180910390a350565b600080823b905060008111915050919050565b6060831561389f578290506138ef565b6000835111156138b25782518084602001fd5b816040517f08c379a00000000000000000000000000000000000000000000000000000000081526004016138e69190614892565b60405180910390fd5b9392505050565b60008135905061390581614f6b565b92915050565b60008151905061391a81614f6b565b92915050565b600082601f83011261393157600080fd5b815161394461393f82614dc0565b614d8f565b9150818183526020840193506020810190508385602084028201111561396957600080fd5b60005b83811015613999578161397f888261390b565b84526020840193506020830192505060018101905061396c565b5050505092915050565b6000815190506139b281614f82565b92915050565b6000813590506139c781614f99565b92915050565b6000813590506139dc81614fa9565b92915050565b6000815190506139f181614fa9565b92915050565b600060208284031215613a0957600080fd5b6000613a17848285016138f6565b91505092915050565b600060208284031215613a3257600080fd5b6000613a408482850161390b565b91505092915050565b60008060008060008060008060008060006101608c8e031215613a6b57600080fd5b6000613a798e828f016138f6565b9b50506020613a8a8e828f016138f6565b9a50506040613a9b8e828f016138f6565b9950506060613aac8e828f016138f6565b9850506080613abd8e828f016139cd565b97505060a0613ace8e828f016139cd565b96505060c0613adf8e828f016139cd565b95505060e0613af08e828f016139cd565b945050610100613b028e828f016139cd565b935050610120613b148e828f016139cd565b925050610140613b268e828f016139b8565b9150509295989b509295989b9093969950565b600060208284031215613b4b57600080fd5b600082015167ffffffffffffffff811115613b6557600080fd5b613b7184828501613920565b91505092915050565b600060208284031215613b8c57600080fd5b6000613b9a848285016139a3565b91505092915050565b600060208284031215613bb557600080fd5b6000613bc3848285016139cd565b91505092915050565b600060208284031215613bde57600080fd5b6000613bec848285016139e2565b91505092915050565b613bfe81614e1e565b82525050565b613c0d81614e30565b82525050565b613c1c81614e3c565b82525050565b6000613c2d82614dec565b613c378185614e02565b9350613c47818560208601614f11565b80840191505092915050565b613c5c81614ea5565b82525050565b613c6b81614ec9565b82525050565b613c7a81614eed565b82525050565b613c8981614eff565b82525050565b6000613c9a82614df7565b613ca48185614e0d565b9350613cb4818560208601614f11565b613cbd81614f46565b840191505092915050565b6000613cd5601b83614e0d565b91507f7375626a656374546f6b656e2063616e6e6f74206265207a65726f00000000006000830152602082019050919050565b6000613d15600883614e0d565b91507f4261642063616c6c0000000000000000000000000000000000000000000000006000830152602082019050919050565b6000613d55601b83614e0d565b91507f455448207472616e7366657273206e6f7420737570706f7274656400000000006000830152602082019050919050565b6000613d95602283614e0d565b91507f436c6966662074696d65206d757374206265206265666f726520656e6420746960008301527f6d650000000000000000000000000000000000000000000000000000000000006020830152604082019050919050565b6000613dfb601583614e0d565b91507f53746172742074696d65203e20656e642074696d6500000000000000000000006000830152602082019050919050565b6000613e3b601e83614e0d565b91507f4d757374207365742061207265766f636162696c697479206f7074696f6e00006000830152602082019050919050565b6000613e7b602683614e0d565b91507f4f776e61626c653a206e6577206f776e657220697320746865207a65726f206160008301527f64647265737300000000000000000000000000000000000000000000000000006020830152604082019050919050565b6000613ee1601b83614e0d565b91507f536166654d6174683a206164646974696f6e206f766572666c6f7700000000006000830152602082019050919050565b6000613f21601c83614e0d565b91507f4e6f20617661696c61626c6520756e76657374656420616d6f756e74000000006000830152602082019050919050565b6000613f61601483614e0d565b91507f4f776e65722063616e6e6f74206265207a65726f0000000000000000000000006000830152602082019050919050565b6000613fa1601f83614e0d565b91507f43616e6e6f742063616e63656c20616363657074656420636f6e7472616374006000830152602082019050919050565b6000613fe1601e83614e0d565b91507f536166654d6174683a207375627472616374696f6e206f766572666c6f7700006000830152602082019050919050565b6000614021601783614e0d565b91507f5f7375626a6563742063616e6e6f74206265207a65726f0000000000000000006000830152602082019050919050565b6000614061602683614e0d565b91507f416464726573733a20696e73756666696369656e742062616c616e636520666f60008301527f722063616c6c00000000000000000000000000000000000000000000000000006020830152604082019050919050565b60006140c7601d83614e0d565b91507f4d616e6167656420746f6b656e732063616e6e6f74206265207a65726f0000006000830152602082019050919050565b6000614107601a83614e0d565b91507f536166654d6174683a206469766973696f6e206279207a65726f0000000000006000830152602082019050919050565b6000614147601183614e0d565b91507f456d7074792062656e65666963696172790000000000000000000000000000006000830152602082019050919050565b6000614187601383614e0d565b91507f556e617574686f72697a65642063616c6c6572000000000000000000000000006000830152602082019050919050565b60006141c7601a83614e0d565b91507f4d616e61676572206d757374206265206120636f6e74726163740000000000006000830152602082019050919050565b6000614207601583614e0d565b91507f416d6f756e742063616e6e6f74206265207a65726f00000000000000000000006000830152602082019050919050565b6000614247601f83614e0d565b91507f506572696f64732063616e6e6f742062652062656c6f77206d696e696d756d006000830152602082019050919050565b6000614287602183614e0d565b91507f536166654d6174683a206d756c7469706c69636174696f6e206f766572666c6f60008301527f77000000000000000000000000000000000000000000000000000000000000006020830152604082019050919050565b60006142ed602083614e0d565b91507f4f776e61626c653a2063616c6c6572206973206e6f7420746865206f776e65726000830152602082019050919050565b600061432d601683614e0d565b91507f53746172742074696d65206d75737420626520736574000000000000000000006000830152602082019050919050565b600061436d601583614e0d565b91507f556e617574686f72697a65642066756e6374696f6e00000000000000000000006000830152602082019050919050565b60006143ad601d83614e0d565b91507f416464726573733a2063616c6c20746f206e6f6e2d636f6e74726163740000006000830152602082019050919050565b60006143ed602483614e0d565b91507f416d6f756e7420726571756573746564203e20737572706c757320617661696c60008301527f61626c65000000000000000000000000000000000000000000000000000000006020830152604082019050919050565b6000614453601383614e0d565b91507f416c726561647920696e697469616c697a6564000000000000000000000000006000830152602082019050919050565b6000614493601983614e0d565b91507f436f6e7472616374206973206e6f6e2d7265766f6361626c65000000000000006000830152602082019050919050565b60006144d3601783614e0d565b91507f4d616e616765722063616e6e6f7420626520656d7074790000000000000000006000830152602082019050919050565b6000614513600583614e0d565b91507f21617574680000000000000000000000000000000000000000000000000000006000830152602082019050919050565b6000614553602a83614e0d565b91507f52656c656173652073746172742074696d65206d757374206265206265666f7260008301527f6520656e642074696d65000000000000000000000000000000000000000000006020830152604082019050919050565b60006145b9602a83614e0d565b91507f5361666545524332303a204552433230206f7065726174696f6e20646964206e60008301527f6f742073756363656564000000000000000000000000000000000000000000006020830152604082019050919050565b600061461f601e83614e0d565b91507f4e6f20617661696c61626c652072656c65617361626c6520616d6f756e7400006000830152602082019050919050565b600061465f602d83614e0d565b91507f43616e6e6f7420757365206d6f726520746f6b656e73207468616e2072656c6560008301527f617361626c6520616d6f756e74000000000000000000000000000000000000006020830152604082019050919050565b60006146c5601483614e0d565b91507f546f6b656e2063616e6e6f74206265207a65726f0000000000000000000000006000830152602082019050919050565b6000614705601a83614e0d565b91507f42656e65666963696172792063616e6e6f74206265207a65726f0000000000006000830152602082019050919050565b6000614745600f83614e0d565b91507f416c7265616479207265766f6b656400000000000000000000000000000000006000830152602082019050919050565b61478181614e9b565b82525050565b60006147938284613c22565b915081905092915050565b60006020820190506147b36000830184613bf5565b92915050565b60006040820190506147ce6000830185613bf5565b6147db6020830184613c80565b9392505050565b60006040820190506147f76000830185613bf5565b6148046020830184614778565b9392505050565b60006020820190506148206000830184613c04565b92915050565b600060208201905061483b6000830184613c13565b92915050565b60006020820190506148566000830184613c53565b92915050565b60006020820190506148716000830184613c62565b92915050565b600060208201905061488c6000830184613c71565b92915050565b600060208201905081810360008301526148ac8184613c8f565b905092915050565b600060208201905081810360008301526148cd81613cc8565b9050919050565b600060208201905081810360008301526148ed81613d08565b9050919050565b6000602082019050818103600083015261490d81613d48565b9050919050565b6000602082019050818103600083015261492d81613d88565b9050919050565b6000602082019050818103600083015261494d81613dee565b9050919050565b6000602082019050818103600083015261496d81613e2e565b9050919050565b6000602082019050818103600083015261498d81613e6e565b9050919050565b600060208201905081810360008301526149ad81613ed4565b9050919050565b600060208201905081810360008301526149cd81613f14565b9050919050565b600060208201905081810360008301526149ed81613f54565b9050919050565b60006020820190508181036000830152614a0d81613f94565b9050919050565b60006020820190508181036000830152614a2d81613fd4565b9050919050565b60006020820190508181036000830152614a4d81614014565b9050919050565b60006020820190508181036000830152614a6d81614054565b9050919050565b60006020820190508181036000830152614a8d816140ba565b9050919050565b60006020820190508181036000830152614aad816140fa565b9050919050565b60006020820190508181036000830152614acd8161413a565b9050919050565b60006020820190508181036000830152614aed8161417a565b9050919050565b60006020820190508181036000830152614b0d816141ba565b9050919050565b60006020820190508181036000830152614b2d816141fa565b9050919050565b60006020820190508181036000830152614b4d8161423a565b9050919050565b60006020820190508181036000830152614b6d8161427a565b9050919050565b60006020820190508181036000830152614b8d816142e0565b9050919050565b60006020820190508181036000830152614bad81614320565b9050919050565b60006020820190508181036000830152614bcd81614360565b9050919050565b60006020820190508181036000830152614bed816143a0565b9050919050565b60006020820190508181036000830152614c0d816143e0565b9050919050565b60006020820190508181036000830152614c2d81614446565b9050919050565b60006020820190508181036000830152614c4d81614486565b9050919050565b60006020820190508181036000830152614c6d816144c6565b9050919050565b60006020820190508181036000830152614c8d81614506565b9050919050565b60006020820190508181036000830152614cad81614546565b9050919050565b60006020820190508181036000830152614ccd816145ac565b9050919050565b60006020820190508181036000830152614ced81614612565b9050919050565b60006020820190508181036000830152614d0d81614652565b9050919050565b60006020820190508181036000830152614d2d816146b8565b9050919050565b60006020820190508181036000830152614d4d816146f8565b9050919050565b60006020820190508181036000830152614d6d81614738565b9050919050565b6000602082019050614d896000830184614778565b92915050565b6000604051905081810181811067ffffffffffffffff82111715614db657614db5614f44565b5b8060405250919050565b600067ffffffffffffffff821115614ddb57614dda614f44565b5b602082029050602081019050919050565b600081519050919050565b600081519050919050565b600081905092915050565b600082825260208201905092915050565b6000614e2982614e7b565b9050919050565b60008115159050919050565b60007fffffffff0000000000000000000000000000000000000000000000000000000082169050919050565b6000819050614e7682614f57565b919050565b600073ffffffffffffffffffffffffffffffffffffffff82169050919050565b6000819050919050565b6000614eb082614eb7565b9050919050565b6000614ec282614e7b565b9050919050565b6000614ed482614edb565b9050919050565b6000614ee682614e7b565b9050919050565b6000614ef882614e68565b9050919050565b6000614f0a82614e9b565b9050919050565b60005b83811015614f2f578082015181840152602081019050614f14565b83811115614f3e576000848401525b50505050565bfe5b6000601f19601f8301169050919050565b60038110614f6857614f67614f44565b5b50565b614f7481614e1e565b8114614f7f57600080fd5b50565b614f8b81614e30565b8114614f9657600080fd5b50565b60038110614fa657600080fd5b50565b614fb281614e9b565b8114614fbd57600080fd5b5056fea2646970667358221220462380999995b15dc8f9311b84817da2a03bd0455f8b8aa05d35f929437bd7c164736f6c63430007030033",
  "devdoc": {
    "kind": "dev",
    "methods": {
      "acceptLock()": {
        "details": "Can only be called by the beneficiary"
      },
      "amountPerPeriod()": {
        "returns": {
          "_0": "Amount of tokens available after each period"
        }
      },
      "approveProtocol()": {
        "details": "Approves all token destinations registered in the manager to pull tokens"
      },
      "approveSubjectToken(address)": {
        "details": "Approves all subject token destinations registered in the manager to pull tokens"
      },
      "availableAmount()": {
        "details": "Implements the step-by-step schedule based on periods for available tokens",
        "returns": {
          "_0": "Amount of tokens available according to the schedule"
        }
      },
      "cancelLock()": {
        "details": "Can only be called by the owner"
      },
      "changeBeneficiary(address)": {
        "details": "Can only be called by the beneficiary",
        "params": {
          "_newBeneficiary": "Address of the new beneficiary address"
        }
      },
      "currentBalance()": {
        "returns": {
          "_0": "Tokens held in the contract"
        }
      },
      "currentPeriod()": {
        "returns": {
          "_0": "A number that represents the current period"
        }
      },
      "currentTime()": {
        "returns": {
          "_0": "Current block timestamp"
        }
      },
      "duration()": {
        "returns": {
          "_0": "Amount of seconds from contract startTime to endTime"
        }
      },
      "owner()": {
        "details": "Returns the address of the current owner."
      },
      "passedPeriods()": {
        "returns": {
          "_0": "A number of periods that passed since the schedule started"
        }
      },
      "periodDuration()": {
        "returns": {
          "_0": "Duration of each period in seconds"
        }
      },
      "releasableAmount()": {
        "details": "Considers the schedule, takes into account already released tokens and used amount",
        "returns": {
          "_0": "Amount of tokens ready to be released"
        }
      },
      "release()": {
        "details": "All available releasable tokens are transferred to beneficiary"
      },
      "renounceOwnership()": {
        "details": "Leaves the contract without owner. It will not be possible to call `onlyOwner` functions anymore. Can only be called by the current owner. NOTE: Renouncing ownership will leave the contract without an owner, thereby removing any functionality that is only available to the owner."
      },
      "revoke()": {
        "details": "Vesting schedule is always calculated based on managed tokens"
      },
      "revokeProtocol()": {
        "details": "Revokes approval to all token destinations in the manager to pull tokens"
      },
      "revokeSubjectToken(address)": {
        "details": "Revokes approval to all subject token destinations in the manager to pull tokens"
      },
      "setManager(address)": {
        "params": {
          "_newManager": "Address of the new manager"
        }
      },
      "sinceStartTime()": {
        "details": "Returns zero if called before conctract starTime",
        "returns": {
          "_0": "Seconds elapsed from contract startTime"
        }
      },
      "surplusAmount()": {
        "details": "All funds over outstanding amount is considered surplus that can be withdrawn by beneficiary. Note this might not be the correct value for wallets transferred to L2 (i.e. an L2MoxieTokenLockWallet), as the released amount will be skewed, so the beneficiary might have to bridge back to L1 to release the surplus.",
        "returns": {
          "_0": "Amount of tokens considered as surplus"
        }
      },
      "totalOutstandingAmount()": {
        "details": "Does not consider schedule but just global amounts tracked",
        "returns": {
          "_0": "Amount of outstanding tokens for the lifetime of the contract"
        }
      },
      "transferOwnership(address)": {
        "details": "Transfers ownership of the contract to a new account (`newOwner`). Can only be called by the current owner."
      },
      "vestedAmount()": {
        "details": "Similar to available amount, but is fully vested when contract is non-revocable",
        "returns": {
          "_0": "Amount of tokens already vested"
        }
      },
      "withdrawSurplus(uint256)": {
        "details": "Tokens in the contract over outstanding amount are considered as surplus",
        "params": {
          "_amount": "Amount of tokens to withdraw"
        }
      }
    },
    "title": "MoxieTokenLockWallet",
    "version": 1
  },
  "userdoc": {
    "kind": "user",
    "methods": {
      "acceptLock()": {
        "notice": "Beneficiary accepts the lock, the owner cannot retrieve back the tokens"
      },
      "amountPerPeriod()": {
        "notice": "Returns amount available to be released after each period according to schedule"
      },
      "approveProtocol()": {
        "notice": "Approves protocol access of the tokens managed by this contract"
      },
      "approveSubjectToken(address)": {
        "notice": "Approves protocol access of the subjecttoken"
      },
      "availableAmount()": {
        "notice": "Gets the currently available token according to the schedule"
      },
      "cancelLock()": {
        "notice": "Owner cancel the lock and return the balance in the contract"
      },
      "changeBeneficiary(address)": {
        "notice": "Change the beneficiary of funds managed by the contract"
      },
      "currentBalance()": {
        "notice": "Returns the amount of tokens currently held by the contract"
      },
      "currentPeriod()": {
        "notice": "Gets the current period based on the schedule"
      },
      "currentTime()": {
        "notice": "Returns the current block timestamp"
      },
      "duration()": {
        "notice": "Gets duration of contract from start to end in seconds"
      },
      "passedPeriods()": {
        "notice": "Gets the number of periods that passed since the first period"
      },
      "periodDuration()": {
        "notice": "Returns the duration of each period in seconds"
      },
      "releasableAmount()": {
        "notice": "Gets tokens currently available for release"
      },
      "release()": {
        "notice": "Releases tokens based on the configured schedule"
      },
      "revoke()": {
        "notice": "Revokes a vesting schedule and return the unvested tokens to the owner"
      },
      "revokeProtocol()": {
        "notice": "Revokes protocol access of the tokens managed by this contract"
      },
      "revokeSubjectToken(address)": {
        "notice": "Revokes protocol access from the subjecttokens"
      },
      "setManager(address)": {
        "notice": "Sets a new manager for this contract"
      },
      "sinceStartTime()": {
        "notice": "Gets time elapsed since the start of the contract"
      },
      "surplusAmount()": {
        "notice": "Gets surplus amount in the contract based on outstanding amount to release"
      },
      "totalOutstandingAmount()": {
        "notice": "Gets the outstanding amount yet to be released based on the whole contract lifetime"
      },
      "vestedAmount()": {
        "notice": "Gets the amount of currently vested tokens"
      },
      "withdrawSurplus(uint256)": {
        "notice": "Withdraws surplus, unmanaged tokens from the contract"
      }
    },
    "notice": "This contract is built on top of the base MoxieTokenLock functionality. It allows wallet beneficiaries to use the deposited funds to perform specific function calls on specific contracts. The idea is that supporters with locked tokens can participate in the protocol but disallow any release before the vesting/lock schedule. The beneficiary can issue authorized function calls to this contract that will get forwarded to a target contract. A target contract is any of our protocol contracts. The function calls allowed are queried to the MoxieTokenLockManager, this way the same configuration can be shared for all the created lock wallet contracts. NOTE: Contracts used as target must have its function signatures checked to avoid collisions with any of this contract functions. Beneficiaries need to approve the use of the tokens to the protocol contracts. For convenience the maximum amount of tokens is authorized. Function calls do not forward ETH value so DO NOT SEND ETH TO THIS CONTRACT.",
    "version": 1
  },
  "storageLayout": {
    "storage": [
      {
        "astId": 4488,
        "contract": "contracts/MoxieTokenLockWallet.sol:MoxieTokenLockWallet",
        "label": "_owner",
        "offset": 0,
        "slot": "0",
        "type": "t_address"
      },
      {
        "astId": 4493,
        "contract": "contracts/MoxieTokenLockWallet.sol:MoxieTokenLockWallet",
        "label": "__gap",
        "offset": 0,
        "slot": "1",
        "type": "t_array(t_uint256)50_storage"
      },
      {
        "astId": 2286,
        "contract": "contracts/MoxieTokenLockWallet.sol:MoxieTokenLockWallet",
        "label": "token",
        "offset": 0,
        "slot": "51",
        "type": "t_contract(IERC20)554"
      },
      {
        "astId": 2288,
        "contract": "contracts/MoxieTokenLockWallet.sol:MoxieTokenLockWallet",
        "label": "beneficiary",
        "offset": 0,
        "slot": "52",
        "type": "t_address"
      },
      {
        "astId": 2290,
        "contract": "contracts/MoxieTokenLockWallet.sol:MoxieTokenLockWallet",
        "label": "managedAmount",
        "offset": 0,
        "slot": "53",
        "type": "t_uint256"
      },
      {
        "astId": 2292,
        "contract": "contracts/MoxieTokenLockWallet.sol:MoxieTokenLockWallet",
        "label": "startTime",
        "offset": 0,
        "slot": "54",
        "type": "t_uint256"
      },
      {
        "astId": 2294,
        "contract": "contracts/MoxieTokenLockWallet.sol:MoxieTokenLockWallet",
        "label": "endTime",
        "offset": 0,
        "slot": "55",
        "type": "t_uint256"
      },
      {
        "astId": 2296,
        "contract": "contracts/MoxieTokenLockWallet.sol:MoxieTokenLockWallet",
        "label": "periods",
        "offset": 0,
        "slot": "56",
        "type": "t_uint256"
      },
      {
        "astId": 2298,
        "contract": "contracts/MoxieTokenLockWallet.sol:MoxieTokenLockWallet",
        "label": "releaseStartTime",
        "offset": 0,
        "slot": "57",
        "type": "t_uint256"
      },
      {
        "astId": 2300,
        "contract": "contracts/MoxieTokenLockWallet.sol:MoxieTokenLockWallet",
        "label": "vestingCliffTime",
        "offset": 0,
        "slot": "58",
        "type": "t_uint256"
      },
      {
        "astId": 2302,
        "contract": "contracts/MoxieTokenLockWallet.sol:MoxieTokenLockWallet",
        "label": "revocable",
        "offset": 0,
        "slot": "59",
        "type": "t_enum(Revocability)1841"
      },
      {
        "astId": 2304,
        "contract": "contracts/MoxieTokenLockWallet.sol:MoxieTokenLockWallet",
        "label": "isRevoked",
        "offset": 1,
        "slot": "59",
        "type": "t_bool"
      },
      {
        "astId": 2306,
        "contract": "contracts/MoxieTokenLockWallet.sol:MoxieTokenLockWallet",
        "label": "isInitialized",
        "offset": 2,
        "slot": "59",
        "type": "t_bool"
      },
      {
        "astId": 2308,
        "contract": "contracts/MoxieTokenLockWallet.sol:MoxieTokenLockWallet",
        "label": "isAccepted",
        "offset": 3,
        "slot": "59",
        "type": "t_bool"
      },
      {
        "astId": 2310,
        "contract": "contracts/MoxieTokenLockWallet.sol:MoxieTokenLockWallet",
        "label": "releasedAmount",
        "offset": 0,
        "slot": "60",
        "type": "t_uint256"
      },
      {
        "astId": 2312,
        "contract": "contracts/MoxieTokenLockWallet.sol:MoxieTokenLockWallet",
        "label": "revokedAmount",
        "offset": 0,
        "slot": "61",
        "type": "t_uint256"
      },
      {
        "astId": 3931,
        "contract": "contracts/MoxieTokenLockWallet.sol:MoxieTokenLockWallet",
        "label": "manager",
        "offset": 0,
        "slot": "62",
        "type": "t_contract(IMoxieTokenLockManager)2053"
      },
      {
        "astId": 3933,
        "contract": "contracts/MoxieTokenLockWallet.sol:MoxieTokenLockWallet",
        "label": "usedAmount",
        "offset": 0,
        "slot": "63",
        "type": "t_uint256"
      }
    ],
    "types": {
      "t_address": {
        "encoding": "inplace",
        "label": "address",
        "numberOfBytes": "20"
      },
      "t_array(t_uint256)50_storage": {
        "base": "t_uint256",
        "encoding": "inplace",
        "label": "uint256[50]",
        "numberOfBytes": "1600"
      },
      "t_bool": {
        "encoding": "inplace",
        "label": "bool",
        "numberOfBytes": "1"
      },
      "t_contract(IERC20)554": {
        "encoding": "inplace",
        "label": "contract IERC20",
        "numberOfBytes": "20"
      },
      "t_contract(IMoxieTokenLockManager)2053": {
        "encoding": "inplace",
        "label": "contract IMoxieTokenLockManager",
        "numberOfBytes": "20"
      },
      "t_enum(Revocability)1841": {
        "encoding": "inplace",
        "label": "enum IMoxieTokenLock.Revocability",
        "numberOfBytes": "1"
      },
      "t_uint256": {
        "encoding": "inplace",
        "label": "uint256",
        "numberOfBytes": "32"
      }
    }
  }
}