{
  "_format": "hh-sol-artifact-1",
  "contractName": "TokenManager",
  "sourceName": "contracts/TokenManager.sol",
  "abi": [
    {
      "inputs": [],
      "name": "AccessControlBadConfirmation",
      "type": "error"
    },
    {
      "inputs": [
        {
          "internalType": "address",
          "name": "account",
          "type": "address"
        },
        {
          "internalType": "bytes32",
          "name": "neededRole",
          "type": "bytes32"
        }
      ],
      "name": "AccessControlUnauthorizedAccount",
      "type": "error"
    },
    {
      "inputs": [
        {
          "internalType": "address",
          "name": "target",
          "type": "address"
        }
      ],
      "name": "AddressEmptyCode",
      "type": "error"
    },
    {
      "inputs": [
        {
          "internalType": "address",
          "name": "account",
          "type": "address"
        }
      ],
      "name": "AddressInsufficientBalance",
      "type": "error"
    },
    {
      "inputs": [],
      "name": "ERC1167FailedCreateClone",
      "type": "error"
    },
    {
      "inputs": [],
      "name": "EnforcedPause",
      "type": "error"
    },
    {
      "inputs": [],
      "name": "ExpectedPause",
      "type": "error"
    },
    {
      "inputs": [],
      "name": "FailedInnerCall",
      "type": "error"
    },
    {
      "inputs": [],
      "name": "InvalidInitialization",
      "type": "error"
    },
    {
      "inputs": [],
      "name": "NotInitializing",
      "type": "error"
    },
    {
      "inputs": [
        {
          "internalType": "address",
          "name": "token",
          "type": "address"
        }
      ],
      "name": "SafeERC20FailedOperation",
      "type": "error"
    },
    {
      "inputs": [],
      "name": "TokenManager_InvalidAmount",
      "type": "error"
    },
    {
      "inputs": [],
      "name": "TokenManager_InvalidOwner",
      "type": "error"
    },
    {
      "inputs": [],
      "name": "TokenManager_InvalidSubject",
      "type": "error"
    },
    {
      "inputs": [],
      "name": "TokenManager_InvalidSubjectImplementation",
      "type": "error"
    },
    {
      "inputs": [],
      "name": "TokenManager_SubjectExists",
      "type": "error"
    },
    {
      "inputs": [],
      "name": "TokenManager_TokenNotFound",
      "type": "error"
    },
    {
      "anonymous": false,
      "inputs": [
        {
          "indexed": false,
          "internalType": "uint64",
          "name": "version",
          "type": "uint64"
        }
      ],
      "name": "Initialized",
      "type": "event"
    },
    {
      "anonymous": false,
      "inputs": [
        {
          "indexed": false,
          "internalType": "address",
          "name": "account",
          "type": "address"
        }
      ],
      "name": "Paused",
      "type": "event"
    },
    {
      "anonymous": false,
      "inputs": [
        {
          "indexed": true,
          "internalType": "bytes32",
          "name": "role",
          "type": "bytes32"
        },
        {
          "indexed": true,
          "internalType": "bytes32",
          "name": "previousAdminRole",
          "type": "bytes32"
        },
        {
          "indexed": true,
          "internalType": "bytes32",
          "name": "newAdminRole",
          "type": "bytes32"
        }
      ],
      "name": "RoleAdminChanged",
      "type": "event"
    },
    {
      "anonymous": false,
      "inputs": [
        {
          "indexed": true,
          "internalType": "bytes32",
          "name": "role",
          "type": "bytes32"
        },
        {
          "indexed": true,
          "internalType": "address",
          "name": "account",
          "type": "address"
        },
        {
          "indexed": true,
          "internalType": "address",
          "name": "sender",
          "type": "address"
        }
      ],
      "name": "RoleGranted",
      "type": "event"
    },
    {
      "anonymous": false,
      "inputs": [
        {
          "indexed": true,
          "internalType": "bytes32",
          "name": "role",
          "type": "bytes32"
        },
        {
          "indexed": true,
          "internalType": "address",
          "name": "account",
          "type": "address"
        },
        {
          "indexed": true,
          "internalType": "address",
          "name": "sender",
          "type": "address"
        }
      ],
      "name": "RoleRevoked",
      "type": "event"
    },
    {
      "anonymous": false,
      "inputs": [
        {
          "indexed": false,
          "internalType": "address",
          "name": "_beneficiary",
          "type": "address"
        },
        {
          "indexed": false,
          "internalType": "address",
          "name": "_token",
          "type": "address"
        },
        {
          "indexed": false,
          "internalType": "uint256",
          "name": "_initialSupply",
          "type": "uint256"
        }
      ],
      "name": "TokenDeployed",
      "type": "event"
    },
    {
      "anonymous": false,
      "inputs": [
        {
          "indexed": false,
          "internalType": "address",
          "name": "_subject",
          "type": "address"
        },
        {
          "indexed": false,
          "internalType": "address",
          "name": "_token",
          "type": "address"
        },
        {
          "indexed": false,
          "internalType": "uint256",
          "name": "_amount",
          "type": "uint256"
        }
      ],
      "name": "TokenMinted",
      "type": "event"
    },
    {
      "anonymous": false,
      "inputs": [
        {
          "indexed": false,
          "internalType": "address",
          "name": "account",
          "type": "address"
        }
      ],
      "name": "Unpaused",
      "type": "event"
    },
    {
      "inputs": [],
      "name": "CREATE_ROLE",
      "outputs": [
        {
          "internalType": "bytes32",
          "name": "",
          "type": "bytes32"
        }
      ],
      "stateMutability": "view",
      "type": "function"
    },
    {
      "inputs": [],
      "name": "DEFAULT_ADMIN_ROLE",
      "outputs": [
        {
          "internalType": "bytes32",
          "name": "",
          "type": "bytes32"
        }
      ],
      "stateMutability": "view",
      "type": "function"
    },
    {
      "inputs": [],
      "name": "MINT_ROLE",
      "outputs": [
        {
          "internalType": "bytes32",
          "name": "",
          "type": "bytes32"
        }
      ],
      "stateMutability": "view",
      "type": "function"
    },
    {
      "inputs": [],
      "name": "PAUSE_ROLE",
      "outputs": [
        {
          "internalType": "bytes32",
          "name": "",
          "type": "bytes32"
        }
      ],
      "stateMutability": "view",
      "type": "function"
    },
    {
      "inputs": [
        {
          "internalType": "address",
          "name": "_subject",
          "type": "address"
        },
        {
          "internalType": "string",
          "name": "_name",
          "type": "string"
        },
        {
          "internalType": "string",
          "name": "_symbol",
          "type": "string"
        },
        {
          "internalType": "uint256",
          "name": "_initialSupply",
          "type": "uint256"
        },
        {
          "internalType": "address",
          "name": "_moxiePassVerifier",
          "type": "address"
        }
      ],
      "name": "create",
      "outputs": [
        {
          "internalType": "address",
          "name": "token_",
          "type": "address"
        }
      ],
      "stateMutability": "nonpayable",
      "type": "function"
    },
    {
      "inputs": [
        {
          "internalType": "bytes32",
          "name": "role",
          "type": "bytes32"
        }
      ],
      "name": "getRoleAdmin",
      "outputs": [
        {
          "internalType": "bytes32",
          "name": "",
          "type": "bytes32"
        }
      ],
      "stateMutability": "view",
      "type": "function"
    },
    {
      "inputs": [
        {
          "internalType": "bytes32",
          "name": "role",
          "type": "bytes32"
        },
        {
          "internalType": "address",
          "name": "account",
          "type": "address"
        }
      ],
      "name": "grantRole",
      "outputs": [],
      "stateMutability": "nonpayable",
      "type": "function"
    },
    {
      "inputs": [
        {
          "internalType": "bytes32",
          "name": "role",
          "type": "bytes32"
        },
        {
          "internalType": "address",
          "name": "account",
          "type": "address"
        }
      ],
      "name": "hasRole",
      "outputs": [
        {
          "internalType": "bool",
          "name": "",
          "type": "bool"
        }
      ],
      "stateMutability": "view",
      "type": "function"
    },
    {
      "inputs": [
        {
          "internalType": "address",
          "name": "_admin",
          "type": "address"
        },
        {
          "internalType": "address",
          "name": "_subjectImplementation",
          "type": "address"
        }
      ],
      "name": "initialize",
      "outputs": [],
      "stateMutability": "nonpayable",
      "type": "function"
    },
    {
      "inputs": [
        {
          "internalType": "address",
          "name": "_subject",
          "type": "address"
        },
        {
          "internalType": "address",
          "name": "_beneficiary",
          "type": "address"
        },
        {
          "internalType": "uint256",
          "name": "_amount",
          "type": "uint256"
        }
      ],
      "name": "mint",
      "outputs": [
        {
          "internalType": "bool",
          "name": "",
          "type": "bool"
        }
      ],
      "stateMutability": "nonpayable",
      "type": "function"
    },
    {
      "inputs": [],
      "name": "pause",
      "outputs": [],
      "stateMutability": "nonpayable",
      "type": "function"
    },
    {
      "inputs": [],
      "name": "paused",
      "outputs": [
        {
          "internalType": "bool",
          "name": "",
          "type": "bool"
        }
      ],
      "stateMutability": "view",
      "type": "function"
    },
    {
      "inputs": [
        {
          "internalType": "bytes32",
          "name": "role",
          "type": "bytes32"
        },
        {
          "internalType": "address",
          "name": "callerConfirmation",
          "type": "address"
        }
      ],
      "name": "renounceRole",
      "outputs": [],
      "stateMutability": "nonpayable",
      "type": "function"
    },
    {
      "inputs": [
        {
          "internalType": "bytes32",
          "name": "role",
          "type": "bytes32"
        },
        {
          "internalType": "address",
          "name": "account",
          "type": "address"
        }
      ],
      "name": "revokeRole",
      "outputs": [],
      "stateMutability": "nonpayable",
      "type": "function"
    },
    {
      "inputs": [],
      "name": "subjectImplementation",
      "outputs": [
        {
          "internalType": "address",
          "name": "",
          "type": "address"
        }
      ],
      "stateMutability": "view",
      "type": "function"
    },
    {
      "inputs": [
        {
          "internalType": "bytes4",
          "name": "interfaceId",
          "type": "bytes4"
        }
      ],
      "name": "supportsInterface",
      "outputs": [
        {
          "internalType": "bool",
          "name": "",
          "type": "bool"
        }
      ],
      "stateMutability": "view",
      "type": "function"
    },
    {
      "inputs": [
        {
          "internalType": "address",
          "name": "",
          "type": "address"
        }
      ],
      "name": "tokens",
      "outputs": [
        {
          "internalType": "address",
          "name": "",
          "type": "address"
        }
      ],
      "stateMutability": "view",
      "type": "function"
    },
    {
      "inputs": [],
      "name": "unpause",
      "outputs": [],
      "stateMutability": "nonpayable",
      "type": "function"
    }
  ],
  "bytecode": "0x608060405234801561001057600080fd5b50611f56806100206000396000f3fe608060405234801561001057600080fd5b50600436106101155760003560e01c8063485cc955116100a2578063a217fddf11610071578063a217fddf146102ba578063c6c3bbe6146102d8578063d547741f14610308578063e486033914610324578063e9a9c8501461035457610115565b8063485cc955146102465780635c975abb146102625780638456cb591461028057806391d148541461028a57610115565b8063248a9ca3116100e9578063248a9ca3146101b65780632f2ff15d146101e657806336568abe14610202578063389ed2671461021e5780633f4ba83a1461023c57610115565b80626f53c91461011a57806301ffc9a71461013857806302ee500e1461016857806316bc0cf014610186575b600080fd5b610122610372565b60405161012f9190611720565b60405180910390f35b610152600480360381019061014d91906117a7565b610396565b60405161015f91906117ef565b60405180910390f35b610170610410565b60405161017d919061184b565b60405180910390f35b6101a0600480360381019061019b9190611a0e565b610434565b6040516101ad919061184b565b60405180910390f35b6101d060048036038101906101cb9190611aed565b610746565b6040516101dd9190611720565b60405180910390f35b61020060048036038101906101fb9190611b1a565b610774565b005b61021c60048036038101906102179190611b1a565b610796565b005b610226610811565b6040516102339190611720565b60405180910390f35b610244610835565b005b610260600480360381019061025b9190611b5a565b61086a565b005b61026a610b1b565b60405161027791906117ef565b60405180910390f35b610288610b40565b005b6102a4600480360381019061029f9190611b1a565b610b75565b6040516102b191906117ef565b60405180910390f35b6102c2610bee565b6040516102cf9190611720565b60405180910390f35b6102f260048036038101906102ed9190611b9a565b610bf5565b6040516102ff91906117ef565b60405180910390f35b610322600480360381019061031d9190611b1a565b610da7565b005b61033e60048036038101906103399190611bed565b610dc9565b60405161034b919061184b565b60405180910390f35b61035c610dfc565b6040516103699190611720565b60405180910390f35b7f2ad5dda4abad2eba9015076cc6a1db468a91b444067d58b590c8c73985521a0481565b60007f7965db0b000000000000000000000000000000000000000000000000000000007bffffffffffffffffffffffffffffffffffffffffffffffffffffffff1916827bffffffffffffffffffffffffffffffffffffffffffffffffffffffff19161480610409575061040882610e20565b5b9050919050565b60008054906101000a900473ffffffffffffffffffffffffffffffffffffffff1681565b600061043e610e8a565b7f2ad5dda4abad2eba9015076cc6a1db468a91b444067d58b590c8c73985521a0461046881610ecb565b600073ffffffffffffffffffffffffffffffffffffffff168773ffffffffffffffffffffffffffffffffffffffff16036104ce576040517f44ab44b300000000000000000000000000000000000000000000000000000000815260040160405180910390fd5b600073ffffffffffffffffffffffffffffffffffffffff16600160008973ffffffffffffffffffffffffffffffffffffffff1673ffffffffffffffffffffffffffffffffffffffff16815260200190815260200160002060009054906101000a900473ffffffffffffffffffffffffffffffffffffffff1673ffffffffffffffffffffffffffffffffffffffff1614610593576040517fe5bcd15e00000000000000000000000000000000000000000000000000000000815260040160405180910390fd5b6105e360008054906101000a900473ffffffffffffffffffffffffffffffffffffffff16886040516020016105c89190611c62565b60405160208183030381529060405280519060200120610edf565b91508173ffffffffffffffffffffffffffffffffffffffff1663747b8a1c30888888886040518663ffffffff1660e01b8152600401610626959493929190611d0b565b600060405180830381600087803b15801561064057600080fd5b505af1158015610654573d6000803e3d6000fd5b5050505081600160008973ffffffffffffffffffffffffffffffffffffffff1673ffffffffffffffffffffffffffffffffffffffff16815260200190815260200160002060006101000a81548173ffffffffffffffffffffffffffffffffffffffff021916908373ffffffffffffffffffffffffffffffffffffffff16021790555061070133858473ffffffffffffffffffffffffffffffffffffffff16610f929092919063ffffffff16565b7ff1d58912d8d6d39cd9fee0f074ee57836907d09dddb0ce7706b7c7a0ddc15d5087838660405161073493929190611d6c565b60405180910390a15095945050505050565b600080610751611011565b905080600001600084815260200190815260200160002060010154915050919050565b61077d82610746565b61078681610ecb565b6107908383611039565b50505050565b61079e61113a565b73ffffffffffffffffffffffffffffffffffffffff168173ffffffffffffffffffffffffffffffffffffffff1614610802576040517f6697b23200000000000000000000000000000000000000000000000000000000815260040160405180910390fd5b61080c8282611142565b505050565b7f139c2898040ef16910dc9f44dc697df79363da767d8bc92f2e310312b816e46d81565b7f139c2898040ef16910dc9f44dc697df79363da767d8bc92f2e310312b816e46d61085f81610ecb565b610867611244565b50565b60006108746112b6565b905060008160000160089054906101000a900460ff1615905060008260000160009054906101000a900467ffffffffffffffff1690506000808267ffffffffffffffff161480156108c25750825b9050600060018367ffffffffffffffff161480156108f7575060003073ffffffffffffffffffffffffffffffffffffffff163b145b905081158015610905575080155b1561093c576040517ff92ee8a900000000000000000000000000000000000000000000000000000000815260040160405180910390fd5b60018560000160006101000a81548167ffffffffffffffff021916908367ffffffffffffffff160217905550831561098c5760018560000160086101000a81548160ff0219169083151502179055505b600073ffffffffffffffffffffffffffffffffffffffff168673ffffffffffffffffffffffffffffffffffffffff16036109f2576040517f7aee648800000000000000000000000000000000000000000000000000000000815260040160405180910390fd5b600073ffffffffffffffffffffffffffffffffffffffff168773ffffffffffffffffffffffffffffffffffffffff1603610a58576040517f6a1b1c8300000000000000000000000000000000000000000000000000000000815260040160405180910390fd5b610a606112de565b610a686112e8565b610a756000801b88611039565b50856000806101000a81548173ffffffffffffffffffffffffffffffffffffffff021916908373ffffffffffffffffffffffffffffffffffffffff1602179055508315610b125760008560000160086101000a81548160ff0219169083151502179055507fc7f505b2f371ae2175ee4913f4499e1f2633a7b5936321eed1cdaeb6115181d26001604051610b099190611dfc565b60405180910390a15b50505050505050565b600080610b266112fa565b90508060000160009054906101000a900460ff1691505090565b7f139c2898040ef16910dc9f44dc697df79363da767d8bc92f2e310312b816e46d610b6a81610ecb565b610b72611322565b50565b600080610b80611011565b905080600001600085815260200190815260200160002060000160008473ffffffffffffffffffffffffffffffffffffffff1673ffffffffffffffffffffffffffffffffffffffff16815260200190815260200160002060009054906101000a900460ff1691505092915050565b6000801b81565b6000610bff610e8a565b7f154c00819833dac601ee5ddded6fda79d9d8b506b911b3dbd54cdb95fe6c3686610c2981610ecb565b6000600160008773ffffffffffffffffffffffffffffffffffffffff1673ffffffffffffffffffffffffffffffffffffffff16815260200190815260200160002060009054906101000a900473ffffffffffffffffffffffffffffffffffffffff169050600073ffffffffffffffffffffffffffffffffffffffff168173ffffffffffffffffffffffffffffffffffffffff1603610cf3576040517f64f7617200000000000000000000000000000000000000000000000000000000815260040160405180910390fd5b60008403610d2d576040517fe117728f00000000000000000000000000000000000000000000000000000000815260040160405180910390fd5b8073ffffffffffffffffffffffffffffffffffffffff166340c10f1986866040518363ffffffff1660e01b8152600401610d68929190611e17565b600060405180830381600087803b158015610d8257600080fd5b505af1158015610d96573d6000803e3d6000fd5b505050506001925050509392505050565b610db082610746565b610db981610ecb565b610dc38383611142565b50505050565b60016020528060005260406000206000915054906101000a900473ffffffffffffffffffffffffffffffffffffffff1681565b7f154c00819833dac601ee5ddded6fda79d9d8b506b911b3dbd54cdb95fe6c368681565b60007f01ffc9a7000000000000000000000000000000000000000000000000000000007bffffffffffffffffffffffffffffffffffffffffffffffffffffffff1916827bffffffffffffffffffffffffffffffffffffffffffffffffffffffff1916149050919050565b610e92610b1b565b15610ec9576040517fd93c066500000000000000000000000000000000000000000000000000000000815260040160405180910390fd5b565b610edc81610ed761113a565b611394565b50565b6000763d602d80600a3d3981f3363d3d373d3d3d363d730000008360601b60e81c176000526e5af43d82803e903d91602b57fd5bf38360781b1760205281603760096000f59050600073ffffffffffffffffffffffffffffffffffffffff168173ffffffffffffffffffffffffffffffffffffffff1603610f8c576040517fc2f868f400000000000000000000000000000000000000000000000000000000815260040160405180910390fd5b92915050565b61100c838473ffffffffffffffffffffffffffffffffffffffff1663a9059cbb8585604051602401610fc5929190611e17565b604051602081830303815290604052915060e01b6020820180517bffffffffffffffffffffffffffffffffffffffffffffffffffffffff83818316178352505050506113e5565b505050565b60007f02dd7bc7dec4dceedda775e58dd541e08a116c6c53815c0bd028192f7b626800905090565b600080611044611011565b90506110508484610b75565b61112e57600181600001600086815260200190815260200160002060000160008573ffffffffffffffffffffffffffffffffffffffff1673ffffffffffffffffffffffffffffffffffffffff16815260200190815260200160002060006101000a81548160ff0219169083151502179055506110ca61113a565b73ffffffffffffffffffffffffffffffffffffffff168373ffffffffffffffffffffffffffffffffffffffff16857f2f8788117e7eff1d82e926ec794901d17c78024a50270940304540a733656f0d60405160405180910390a46001915050611134565b60009150505b92915050565b600033905090565b60008061114d611011565b90506111598484610b75565b1561123857600081600001600086815260200190815260200160002060000160008573ffffffffffffffffffffffffffffffffffffffff1673ffffffffffffffffffffffffffffffffffffffff16815260200190815260200160002060006101000a81548160ff0219169083151502179055506111d461113a565b73ffffffffffffffffffffffffffffffffffffffff168373ffffffffffffffffffffffffffffffffffffffff16857ff6391f5c32d9c69d2a47ea670b442974b53935d1edc7fd64eb21e047a839171b60405160405180910390a4600191505061123e565b60009150505b92915050565b61124c61147c565b60006112566112fa565b905060008160000160006101000a81548160ff0219169083151502179055507f5db9ee0a495bf2e6ff9c91a7834c1ba4fdd244a5e8aa4e537bd38aeae4b073aa61129e61113a565b6040516112ab919061184b565b60405180910390a150565b60007ff0c57e16840df040f15088dc2f81fe391c3923bec73e23a9662efc9c229c6a00905090565b6112e66114bc565b565b6112f06114bc565b6112f86114fc565b565b60007fcd5ed15c6e187e77e9aee88184c21f4f2182ab5827cb3b7e07fbedcd63f03300905090565b61132a610e8a565b60006113346112fa565b905060018160000160006101000a81548160ff0219169083151502179055507f62e78cea01bee320cd4e420270b5ea74000d11b0c9f74754ebdbfc544b05a25861137c61113a565b604051611389919061184b565b60405180910390a150565b61139e8282610b75565b6113e15780826040517fe2517d3f0000000000000000000000000000000000000000000000000000000081526004016113d8929190611e40565b60405180910390fd5b5050565b6000611410828473ffffffffffffffffffffffffffffffffffffffff1661153090919063ffffffff16565b905060008151141580156114355750808060200190518101906114339190611e95565b155b1561147757826040517f5274afe700000000000000000000000000000000000000000000000000000000815260040161146e919061184b565b60405180910390fd5b505050565b611484610b1b565b6114ba576040517f8dfc202b00000000000000000000000000000000000000000000000000000000815260040160405180910390fd5b565b6114c4611546565b6114fa576040517fd7e6bcf800000000000000000000000000000000000000000000000000000000815260040160405180910390fd5b565b6115046114bc565b600061150e6112fa565b905060008160000160006101000a81548160ff02191690831515021790555050565b606061153e83836000611566565b905092915050565b60006115506112b6565b60000160089054906101000a900460ff16905090565b6060814710156115ad57306040517fcd7860590000000000000000000000000000000000000000000000000000000081526004016115a4919061184b565b60405180910390fd5b6000808573ffffffffffffffffffffffffffffffffffffffff1684866040516115d69190611f09565b60006040518083038185875af1925050503d8060008114611613576040519150601f19603f3d011682016040523d82523d6000602084013e611618565b606091505b5091509150611628868383611633565b925050509392505050565b60608261164857611643826116c2565b6116ba565b60008251148015611670575060008473ffffffffffffffffffffffffffffffffffffffff163b145b156116b257836040517f9996b3150000000000000000000000000000000000000000000000000000000081526004016116a9919061184b565b60405180910390fd5b8190506116bb565b5b9392505050565b6000815111156116d55780518082602001fd5b6040517f1425ea4200000000000000000000000000000000000000000000000000000000815260040160405180910390fd5b6000819050919050565b61171a81611707565b82525050565b60006020820190506117356000830184611711565b92915050565b6000604051905090565b600080fd5b600080fd5b60007fffffffff0000000000000000000000000000000000000000000000000000000082169050919050565b6117848161174f565b811461178f57600080fd5b50565b6000813590506117a18161177b565b92915050565b6000602082840312156117bd576117bc611745565b5b60006117cb84828501611792565b91505092915050565b60008115159050919050565b6117e9816117d4565b82525050565b600060208201905061180460008301846117e0565b92915050565b600073ffffffffffffffffffffffffffffffffffffffff82169050919050565b60006118358261180a565b9050919050565b6118458161182a565b82525050565b6000602082019050611860600083018461183c565b92915050565b61186f8161182a565b811461187a57600080fd5b50565b60008135905061188c81611866565b92915050565b600080fd5b600080fd5b6000601f19601f8301169050919050565b7f4e487b7100000000000000000000000000000000000000000000000000000000600052604160045260246000fd5b6118e58261189c565b810181811067ffffffffffffffff82111715611904576119036118ad565b5b80604052505050565b600061191761173b565b905061192382826118dc565b919050565b600067ffffffffffffffff821115611943576119426118ad565b5b61194c8261189c565b9050602081019050919050565b82818337600083830152505050565b600061197b61197684611928565b61190d565b90508281526020810184848401111561199757611996611897565b5b6119a2848285611959565b509392505050565b600082601f8301126119bf576119be611892565b5b81356119cf848260208601611968565b91505092915050565b6000819050919050565b6119eb816119d8565b81146119f657600080fd5b50565b600081359050611a08816119e2565b92915050565b600080600080600060a08688031215611a2a57611a29611745565b5b6000611a388882890161187d565b955050602086013567ffffffffffffffff811115611a5957611a5861174a565b5b611a65888289016119aa565b945050604086013567ffffffffffffffff811115611a8657611a8561174a565b5b611a92888289016119aa565b9350506060611aa3888289016119f9565b9250506080611ab48882890161187d565b9150509295509295909350565b611aca81611707565b8114611ad557600080fd5b50565b600081359050611ae781611ac1565b92915050565b600060208284031215611b0357611b02611745565b5b6000611b1184828501611ad8565b91505092915050565b60008060408385031215611b3157611b30611745565b5b6000611b3f85828601611ad8565b9250506020611b508582860161187d565b9150509250929050565b60008060408385031215611b7157611b70611745565b5b6000611b7f8582860161187d565b9250506020611b908582860161187d565b9150509250929050565b600080600060608486031215611bb357611bb2611745565b5b6000611bc18682870161187d565b9350506020611bd28682870161187d565b9250506040611be3868287016119f9565b9150509250925092565b600060208284031215611c0357611c02611745565b5b6000611c118482850161187d565b91505092915050565b60008160601b9050919050565b6000611c3282611c1a565b9050919050565b6000611c4482611c27565b9050919050565b611c5c611c578261182a565b611c39565b82525050565b6000611c6e8284611c4b565b60148201915081905092915050565b600081519050919050565b600082825260208201905092915050565b60005b83811015611cb7578082015181840152602081019050611c9c565b60008484015250505050565b6000611cce82611c7d565b611cd88185611c88565b9350611ce8818560208601611c99565b611cf18161189c565b840191505092915050565b611d05816119d8565b82525050565b600060a082019050611d20600083018861183c565b8181036020830152611d328187611cc3565b90508181036040830152611d468186611cc3565b9050611d556060830185611cfc565b611d62608083018461183c565b9695505050505050565b6000606082019050611d81600083018661183c565b611d8e602083018561183c565b611d9b6040830184611cfc565b949350505050565b6000819050919050565b600067ffffffffffffffff82169050919050565b6000819050919050565b6000611de6611de1611ddc84611da3565b611dc1565b611dad565b9050919050565b611df681611dcb565b82525050565b6000602082019050611e116000830184611ded565b92915050565b6000604082019050611e2c600083018561183c565b611e396020830184611cfc565b9392505050565b6000604082019050611e55600083018561183c565b611e626020830184611711565b9392505050565b611e72816117d4565b8114611e7d57600080fd5b50565b600081519050611e8f81611e69565b92915050565b600060208284031215611eab57611eaa611745565b5b6000611eb984828501611e80565b91505092915050565b600081519050919050565b600081905092915050565b6000611ee382611ec2565b611eed8185611ecd565b9350611efd818560208601611c99565b80840191505092915050565b6000611f158284611ed8565b91508190509291505056fea2646970667358221220d92d2a4f9ed7f73477f91f574fcd39a2889bfe09f23ce3180efc56c2a52c381764736f6c63430008180033",
  "linkReferences": {},
  "deployedLinkReferences": {}
}