{
  "_format": "hh-sol-artifact-1",
  "contractName": "Vault",
  "sourceName": "contracts/Vault.sol",
  "abi": [
    {
      "inputs": [],
      "name": "AccessControlBadConfirmation",
      "type": "error"
    },
    {
      "inputs": [
        {
          "internalType": "address",
          "name": "account",
          "type": "address"
        },
        {
          "internalType": "bytes32",
          "name": "neededRole",
          "type": "bytes32"
        }
      ],
      "name": "AccessControlUnauthorizedAccount",
      "type": "error"
    },
    {
      "inputs": [
        {
          "internalType": "address",
          "name": "target",
          "type": "address"
        }
      ],
      "name": "AddressEmptyCode",
      "type": "error"
    },
    {
      "inputs": [
        {
          "internalType": "address",
          "name": "account",
          "type": "address"
        }
      ],
      "name": "AddressInsufficientBalance",
      "type": "error"
    },
    {
      "inputs": [],
      "name": "EnforcedPause",
      "type": "error"
    },
    {
      "inputs": [],
      "name": "ExpectedPause",
      "type": "error"
    },
    {
      "inputs": [],
      "name": "FailedInnerCall",
      "type": "error"
    },
    {
      "inputs": [],
      "name": "InvalidAmount",
      "type": "error"
    },
    {
      "inputs": [],
      "name": "InvalidInitialization",
      "type": "error"
    },
    {
      "inputs": [],
      "name": "InvalidOwner",
      "type": "error"
    },
    {
      "inputs": [],
      "name": "InvalidReserveBalance",
      "type": "error"
    },
    {
      "inputs": [],
      "name": "InvalidSubjectToken",
      "type": "error"
    },
    {
      "inputs": [],
      "name": "InvalidToAddress",
      "type": "error"
    },
    {
      "inputs": [],
      "name": "InvalidToken",
      "type": "error"
    },
    {
      "inputs": [],
      "name": "NotInitializing",
      "type": "error"
    },
    {
      "inputs": [
        {
          "internalType": "address",
          "name": "token",
          "type": "address"
        }
      ],
      "name": "SafeERC20FailedOperation",
      "type": "error"
    },
    {
      "anonymous": false,
      "inputs": [
        {
          "indexed": false,
          "internalType": "uint64",
          "name": "version",
          "type": "uint64"
        }
      ],
      "name": "Initialized",
      "type": "event"
    },
    {
      "anonymous": false,
      "inputs": [
        {
          "indexed": false,
          "internalType": "address",
          "name": "account",
          "type": "address"
        }
      ],
      "name": "Paused",
      "type": "event"
    },
    {
      "anonymous": false,
      "inputs": [
        {
          "indexed": true,
          "internalType": "bytes32",
          "name": "role",
          "type": "bytes32"
        },
        {
          "indexed": true,
          "internalType": "bytes32",
          "name": "previousAdminRole",
          "type": "bytes32"
        },
        {
          "indexed": true,
          "internalType": "bytes32",
          "name": "newAdminRole",
          "type": "bytes32"
        }
      ],
      "name": "RoleAdminChanged",
      "type": "event"
    },
    {
      "anonymous": false,
      "inputs": [
        {
          "indexed": true,
          "internalType": "bytes32",
          "name": "role",
          "type": "bytes32"
        },
        {
          "indexed": true,
          "internalType": "address",
          "name": "account",
          "type": "address"
        },
        {
          "indexed": true,
          "internalType": "address",
          "name": "sender",
          "type": "address"
        }
      ],
      "name": "RoleGranted",
      "type": "event"
    },
    {
      "anonymous": false,
      "inputs": [
        {
          "indexed": true,
          "internalType": "bytes32",
          "name": "role",
          "type": "bytes32"
        },
        {
          "indexed": true,
          "internalType": "address",
          "name": "account",
          "type": "address"
        },
        {
          "indexed": true,
          "internalType": "address",
          "name": "sender",
          "type": "address"
        }
      ],
      "name": "RoleRevoked",
      "type": "event"
    },
    {
      "anonymous": false,
      "inputs": [
        {
          "indexed": false,
          "internalType": "address",
          "name": "account",
          "type": "address"
        }
      ],
      "name": "Unpaused",
      "type": "event"
    },
    {
      "anonymous": false,
      "inputs": [
        {
          "indexed": true,
          "internalType": "address",
          "name": "subject",
          "type": "address"
        },
        {
          "indexed": true,
          "internalType": "address",
          "name": "token",
          "type": "address"
        },
        {
          "indexed": true,
          "internalType": "address",
          "name": "sender",
          "type": "address"
        },
        {
          "indexed": false,
          "internalType": "uint256",
          "name": "amount",
          "type": "uint256"
        },
        {
          "indexed": false,
          "internalType": "uint256",
          "name": "totalReserve",
          "type": "uint256"
        }
      ],
      "name": "VaultDeposit",
      "type": "event"
    },
    {
      "anonymous": false,
      "inputs": [
        {
          "indexed": true,
          "internalType": "address",
          "name": "subject",
          "type": "address"
        },
        {
          "indexed": true,
          "internalType": "address",
          "name": "token",
          "type": "address"
        },
        {
          "indexed": true,
          "internalType": "address",
          "name": "to",
          "type": "address"
        },
        {
          "indexed": false,
          "internalType": "uint256",
          "name": "amount",
          "type": "uint256"
        },
        {
          "indexed": false,
          "internalType": "uint256",
          "name": "totalReserve",
          "type": "uint256"
        }
      ],
      "name": "VaultTransfer",
      "type": "event"
    },
    {
      "inputs": [],
      "name": "DEFAULT_ADMIN_ROLE",
      "outputs": [
        {
          "internalType": "bytes32",
          "name": "",
          "type": "bytes32"
        }
      ],
      "stateMutability": "view",
      "type": "function"
    },
    {
      "inputs": [],
      "name": "PAUSE_ROLE",
      "outputs": [
        {
          "internalType": "bytes32",
          "name": "",
          "type": "bytes32"
        }
      ],
      "stateMutability": "view",
      "type": "function"
    },
    {
      "inputs": [],
      "name": "TRANSFER_ROLE",
      "outputs": [
        {
          "internalType": "bytes32",
          "name": "",
          "type": "bytes32"
        }
      ],
      "stateMutability": "view",
      "type": "function"
    },
    {
      "inputs": [
        {
          "internalType": "address",
          "name": "_subjectToken",
          "type": "address"
        },
        {
          "internalType": "address",
          "name": "_token",
          "type": "address"
        }
      ],
      "name": "balanceOf",
      "outputs": [
        {
          "internalType": "uint256",
          "name": "balance_",
          "type": "uint256"
        }
      ],
      "stateMutability": "view",
      "type": "function"
    },
    {
      "inputs": [
        {
          "internalType": "address",
          "name": "_subjectToken",
          "type": "address"
        },
        {
          "internalType": "address",
          "name": "_token",
          "type": "address"
        },
        {
          "internalType": "uint256",
          "name": "_value",
          "type": "uint256"
        }
      ],
      "name": "deposit",
      "outputs": [],
      "stateMutability": "nonpayable",
      "type": "function"
    },
    {
      "inputs": [
        {
          "internalType": "bytes32",
          "name": "role",
          "type": "bytes32"
        }
      ],
      "name": "getRoleAdmin",
      "outputs": [
        {
          "internalType": "bytes32",
          "name": "",
          "type": "bytes32"
        }
      ],
      "stateMutability": "view",
      "type": "function"
    },
    {
      "inputs": [
        {
          "internalType": "bytes32",
          "name": "role",
          "type": "bytes32"
        },
        {
          "internalType": "address",
          "name": "account",
          "type": "address"
        }
      ],
      "name": "grantRole",
      "outputs": [],
      "stateMutability": "nonpayable",
      "type": "function"
    },
    {
      "inputs": [
        {
          "internalType": "bytes32",
          "name": "role",
          "type": "bytes32"
        },
        {
          "internalType": "address",
          "name": "account",
          "type": "address"
        }
      ],
      "name": "hasRole",
      "outputs": [
        {
          "internalType": "bool",
          "name": "",
          "type": "bool"
        }
      ],
      "stateMutability": "view",
      "type": "function"
    },
    {
      "inputs": [
        {
          "internalType": "address",
          "name": "_owner",
          "type": "address"
        }
      ],
      "name": "initialize",
      "outputs": [],
      "stateMutability": "nonpayable",
      "type": "function"
    },
    {
      "inputs": [],
      "name": "pause",
      "outputs": [],
      "stateMutability": "nonpayable",
      "type": "function"
    },
    {
      "inputs": [],
      "name": "paused",
      "outputs": [
        {
          "internalType": "bool",
          "name": "",
          "type": "bool"
        }
      ],
      "stateMutability": "view",
      "type": "function"
    },
    {
      "inputs": [
        {
          "internalType": "bytes32",
          "name": "role",
          "type": "bytes32"
        },
        {
          "internalType": "address",
          "name": "callerConfirmation",
          "type": "address"
        }
      ],
      "name": "renounceRole",
      "outputs": [],
      "stateMutability": "nonpayable",
      "type": "function"
    },
    {
      "inputs": [
        {
          "internalType": "address",
          "name": "",
          "type": "address"
        },
        {
          "internalType": "address",
          "name": "",
          "type": "address"
        }
      ],
      "name": "reserves",
      "outputs": [
        {
          "internalType": "uint256",
          "name": "",
          "type": "uint256"
        }
      ],
      "stateMutability": "view",
      "type": "function"
    },
    {
      "inputs": [
        {
          "internalType": "bytes32",
          "name": "role",
          "type": "bytes32"
        },
        {
          "internalType": "address",
          "name": "account",
          "type": "address"
        }
      ],
      "name": "revokeRole",
      "outputs": [],
      "stateMutability": "nonpayable",
      "type": "function"
    },
    {
      "inputs": [
        {
          "internalType": "bytes4",
          "name": "interfaceId",
          "type": "bytes4"
        }
      ],
      "name": "supportsInterface",
      "outputs": [
        {
          "internalType": "bool",
          "name": "",
          "type": "bool"
        }
      ],
      "stateMutability": "view",
      "type": "function"
    },
    {
      "inputs": [
        {
          "internalType": "address",
          "name": "_subjectToken",
          "type": "address"
        },
        {
          "internalType": "address",
          "name": "_token",
          "type": "address"
        },
        {
          "internalType": "address",
          "name": "_to",
          "type": "address"
        },
        {
          "internalType": "uint256",
          "name": "_value",
          "type": "uint256"
        }
      ],
      "name": "transfer",
      "outputs": [],
      "stateMutability": "nonpayable",
      "type": "function"
    },
    {
      "inputs": [],
      "name": "unpause",
      "outputs": [],
      "stateMutability": "nonpayable",
      "type": "function"
    }
  ],
  "bytecode": "0x608060405234801561001057600080fd5b50611ea6806100206000396000f3fe608060405234801561001057600080fd5b506004361061010b5760003560e01c80638340f549116100a2578063c4d66de811610071578063c4d66de814610280578063d547741f1461029c578063ea4afc54146102b8578063f18d03cc146102e8578063f7888aec146103045761010b565b80638340f5491461020c5780638456cb591461022857806391d1485414610232578063a217fddf146102625761010b565b806336568abe116100de57806336568abe146101aa578063389ed267146101c65780633f4ba83a146101e45780635c975abb146101ee5761010b565b806301ffc9a714610110578063206b60f914610140578063248a9ca31461015e5780632f2ff15d1461018e575b600080fd5b61012a60048036038101906101259190611893565b610334565b60405161013791906118db565b60405180910390f35b6101486103ae565b604051610155919061190f565b60405180910390f35b61017860048036038101906101739190611956565b6103d2565b604051610185919061190f565b60405180910390f35b6101a860048036038101906101a391906119e1565b610400565b005b6101c460048036038101906101bf91906119e1565b610422565b005b6101ce61049d565b6040516101db919061190f565b60405180910390f35b6101ec6104c1565b005b6101f66104f6565b60405161020391906118db565b60405180910390f35b61022660048036038101906102219190611a57565b61051b565b005b6102306107de565b005b61024c600480360381019061024791906119e1565b610813565b60405161025991906118db565b60405180910390f35b61026a61088c565b604051610277919061190f565b60405180910390f35b61029a60048036038101906102959190611aaa565b610893565b005b6102b660048036038101906102b191906119e1565b610a9d565b005b6102d260048036038101906102cd9190611ad7565b610abf565b6040516102df9190611b26565b60405180910390f35b61030260048036038101906102fd9190611b41565b610ae4565b005b61031e60048036038101906103199190611ad7565b610efa565b60405161032b9190611b26565b60405180910390f35b60007f7965db0b000000000000000000000000000000000000000000000000000000007bffffffffffffffffffffffffffffffffffffffffffffffffffffffff1916827bffffffffffffffffffffffffffffffffffffffffffffffffffffffff191614806103a757506103a682610f80565b5b9050919050565b7f8502233096d909befbda0999bb8ea2f3a6be3c138b9fbf003752a4c8bce86f6c81565b6000806103dd610fea565b905080600001600084815260200190815260200160002060010154915050919050565b610409826103d2565b61041281611012565b61041c8383611026565b50505050565b61042a611127565b73ffffffffffffffffffffffffffffffffffffffff168173ffffffffffffffffffffffffffffffffffffffff161461048e576040517f6697b23200000000000000000000000000000000000000000000000000000000815260040160405180910390fd5b610498828261112f565b505050565b7f139c2898040ef16910dc9f44dc697df79363da767d8bc92f2e310312b816e46d81565b7f139c2898040ef16910dc9f44dc697df79363da767d8bc92f2e310312b816e46d6104eb81611012565b6104f3611231565b50565b6000806105016112a3565b90508060000160009054906101000a900460ff1691505090565b600073ffffffffffffffffffffffffffffffffffffffff168373ffffffffffffffffffffffffffffffffffffffff1603610581576040517f712652a600000000000000000000000000000000000000000000000000000000815260040160405180910390fd5b600073ffffffffffffffffffffffffffffffffffffffff168273ffffffffffffffffffffffffffffffffffffffff16036105e7576040517fc1ab6dc100000000000000000000000000000000000000000000000000000000815260040160405180910390fd5b60008103610621576040517f2c5211c600000000000000000000000000000000000000000000000000000000815260040160405180910390fd5b61064e3330838573ffffffffffffffffffffffffffffffffffffffff166112cb909392919063ffffffff16565b806000808573ffffffffffffffffffffffffffffffffffffffff1673ffffffffffffffffffffffffffffffffffffffff16815260200190815260200160002060008473ffffffffffffffffffffffffffffffffffffffff1673ffffffffffffffffffffffffffffffffffffffff16815260200190815260200160002060008282546106d99190611bd7565b925050819055503373ffffffffffffffffffffffffffffffffffffffff168273ffffffffffffffffffffffffffffffffffffffff168473ffffffffffffffffffffffffffffffffffffffff167fe58b78b38756de00cad0e373f115ef214756cd38bf4f01618ac3d3807c1c4d94846000808973ffffffffffffffffffffffffffffffffffffffff1673ffffffffffffffffffffffffffffffffffffffff16815260200190815260200160002060008873ffffffffffffffffffffffffffffffffffffffff1673ffffffffffffffffffffffffffffffffffffffff168152602001908152602001600020546040516107d1929190611c0b565b60405180910390a4505050565b7f139c2898040ef16910dc9f44dc697df79363da767d8bc92f2e310312b816e46d61080881611012565b61081061134d565b50565b60008061081e610fea565b905080600001600085815260200190815260200160002060000160008473ffffffffffffffffffffffffffffffffffffffff1673ffffffffffffffffffffffffffffffffffffffff16815260200190815260200160002060009054906101000a900460ff1691505092915050565b6000801b81565b600061089d6113bf565b905060008160000160089054906101000a900460ff1615905060008260000160009054906101000a900467ffffffffffffffff1690506000808267ffffffffffffffff161480156108eb5750825b9050600060018367ffffffffffffffff16148015610920575060003073ffffffffffffffffffffffffffffffffffffffff163b145b90508115801561092e575080155b15610965576040517ff92ee8a900000000000000000000000000000000000000000000000000000000815260040160405180910390fd5b60018560000160006101000a81548167ffffffffffffffff021916908367ffffffffffffffff16021790555083156109b55760018560000160086101000a81548160ff0219169083151502179055505b600073ffffffffffffffffffffffffffffffffffffffff168673ffffffffffffffffffffffffffffffffffffffff1603610a1b576040517f49e27cff00000000000000000000000000000000000000000000000000000000815260040160405180910390fd5b610a236113e7565b610a2b6113f1565b610a386000801b87611026565b508315610a955760008560000160086101000a81548160ff0219169083151502179055507fc7f505b2f371ae2175ee4913f4499e1f2633a7b5936321eed1cdaeb6115181d26001604051610a8c9190611c8d565b60405180910390a15b505050505050565b610aa6826103d2565b610aaf81611012565b610ab9838361112f565b50505050565b6000602052816000526040600020602052806000526040600020600091509150505481565b610aec611403565b7f8502233096d909befbda0999bb8ea2f3a6be3c138b9fbf003752a4c8bce86f6c610b1681611012565b600073ffffffffffffffffffffffffffffffffffffffff168573ffffffffffffffffffffffffffffffffffffffff1603610b7c576040517f712652a600000000000000000000000000000000000000000000000000000000815260040160405180910390fd5b600073ffffffffffffffffffffffffffffffffffffffff168473ffffffffffffffffffffffffffffffffffffffff1603610be2576040517fc1ab6dc100000000000000000000000000000000000000000000000000000000815260040160405180910390fd5b600073ffffffffffffffffffffffffffffffffffffffff168373ffffffffffffffffffffffffffffffffffffffff1603610c48576040517f8aa3a72f00000000000000000000000000000000000000000000000000000000815260040160405180910390fd5b60008203610c82576040517f2c5211c600000000000000000000000000000000000000000000000000000000815260040160405180910390fd5b60008060008773ffffffffffffffffffffffffffffffffffffffff1673ffffffffffffffffffffffffffffffffffffffff16815260200190815260200160002060008673ffffffffffffffffffffffffffffffffffffffff1673ffffffffffffffffffffffffffffffffffffffff16815260200190815260200160002054905082811015610d3c576040517f7258c5fb00000000000000000000000000000000000000000000000000000000815260040160405180910390fd5b826000808873ffffffffffffffffffffffffffffffffffffffff1673ffffffffffffffffffffffffffffffffffffffff16815260200190815260200160002060008773ffffffffffffffffffffffffffffffffffffffff1673ffffffffffffffffffffffffffffffffffffffff1681526020019081526020016000206000828254610dc79190611ca8565b92505081905550610df984848773ffffffffffffffffffffffffffffffffffffffff166114449092919063ffffffff16565b8373ffffffffffffffffffffffffffffffffffffffff168573ffffffffffffffffffffffffffffffffffffffff168773ffffffffffffffffffffffffffffffffffffffff167f223f0e9106c8df9bd7cbedd1371ee522ef5860ac148a7437e917166b0dd75a3e866000808c73ffffffffffffffffffffffffffffffffffffffff1673ffffffffffffffffffffffffffffffffffffffff16815260200190815260200160002060008b73ffffffffffffffffffffffffffffffffffffffff1673ffffffffffffffffffffffffffffffffffffffff16815260200190815260200160002054604051610eea929190611c0b565b60405180910390a4505050505050565b60008060008473ffffffffffffffffffffffffffffffffffffffff1673ffffffffffffffffffffffffffffffffffffffff16815260200190815260200160002060008373ffffffffffffffffffffffffffffffffffffffff1673ffffffffffffffffffffffffffffffffffffffff16815260200190815260200160002054905092915050565b60007f01ffc9a7000000000000000000000000000000000000000000000000000000007bffffffffffffffffffffffffffffffffffffffffffffffffffffffff1916827bffffffffffffffffffffffffffffffffffffffffffffffffffffffff1916149050919050565b60007f02dd7bc7dec4dceedda775e58dd541e08a116c6c53815c0bd028192f7b626800905090565b6110238161101e611127565b6114c3565b50565b600080611031610fea565b905061103d8484610813565b61111b57600181600001600086815260200190815260200160002060000160008573ffffffffffffffffffffffffffffffffffffffff1673ffffffffffffffffffffffffffffffffffffffff16815260200190815260200160002060006101000a81548160ff0219169083151502179055506110b7611127565b73ffffffffffffffffffffffffffffffffffffffff168373ffffffffffffffffffffffffffffffffffffffff16857f2f8788117e7eff1d82e926ec794901d17c78024a50270940304540a733656f0d60405160405180910390a46001915050611121565b60009150505b92915050565b600033905090565b60008061113a610fea565b90506111468484610813565b1561122557600081600001600086815260200190815260200160002060000160008573ffffffffffffffffffffffffffffffffffffffff1673ffffffffffffffffffffffffffffffffffffffff16815260200190815260200160002060006101000a81548160ff0219169083151502179055506111c1611127565b73ffffffffffffffffffffffffffffffffffffffff168373ffffffffffffffffffffffffffffffffffffffff16857ff6391f5c32d9c69d2a47ea670b442974b53935d1edc7fd64eb21e047a839171b60405160405180910390a4600191505061122b565b60009150505b92915050565b611239611514565b60006112436112a3565b905060008160000160006101000a81548160ff0219169083151502179055507f5db9ee0a495bf2e6ff9c91a7834c1ba4fdd244a5e8aa4e537bd38aeae4b073aa61128b611127565b6040516112989190611ceb565b60405180910390a150565b60007fcd5ed15c6e187e77e9aee88184c21f4f2182ab5827cb3b7e07fbedcd63f03300905090565b611347848573ffffffffffffffffffffffffffffffffffffffff166323b872dd86868660405160240161130093929190611d06565b604051602081830303815290604052915060e01b6020820180517bffffffffffffffffffffffffffffffffffffffffffffffffffffffff8381831617835250505050611554565b50505050565b611355611403565b600061135f6112a3565b905060018160000160006101000a81548160ff0219169083151502179055507f62e78cea01bee320cd4e420270b5ea74000d11b0c9f74754ebdbfc544b05a2586113a7611127565b6040516113b49190611ceb565b60405180910390a150565b60007ff0c57e16840df040f15088dc2f81fe391c3923bec73e23a9662efc9c229c6a00905090565b6113ef6115eb565b565b6113f96115eb565b61140161162b565b565b61140b6104f6565b15611442576040517fd93c066500000000000000000000000000000000000000000000000000000000815260040160405180910390fd5b565b6114be838473ffffffffffffffffffffffffffffffffffffffff1663a9059cbb8585604051602401611477929190611d3d565b604051602081830303815290604052915060e01b6020820180517bffffffffffffffffffffffffffffffffffffffffffffffffffffffff8381831617835250505050611554565b505050565b6114cd8282610813565b6115105780826040517fe2517d3f000000000000000000000000000000000000000000000000000000008152600401611507929190611d66565b60405180910390fd5b5050565b61151c6104f6565b611552576040517f8dfc202b00000000000000000000000000000000000000000000000000000000815260040160405180910390fd5b565b600061157f828473ffffffffffffffffffffffffffffffffffffffff1661165f90919063ffffffff16565b905060008151141580156115a45750808060200190518101906115a29190611dbb565b155b156115e657826040517f5274afe70000000000000000000000000000000000000000000000000000000081526004016115dd9190611ceb565b60405180910390fd5b505050565b6115f3611675565b611629576040517fd7e6bcf800000000000000000000000000000000000000000000000000000000815260040160405180910390fd5b565b6116336115eb565b600061163d6112a3565b905060008160000160006101000a81548160ff02191690831515021790555050565b606061166d83836000611695565b905092915050565b600061167f6113bf565b60000160089054906101000a900460ff16905090565b6060814710156116dc57306040517fcd7860590000000000000000000000000000000000000000000000000000000081526004016116d39190611ceb565b60405180910390fd5b6000808573ffffffffffffffffffffffffffffffffffffffff1684866040516117059190611e59565b60006040518083038185875af1925050503d8060008114611742576040519150601f19603f3d011682016040523d82523d6000602084013e611747565b606091505b5091509150611757868383611762565b925050509392505050565b60608261177757611772826117f1565b6117e9565b6000825114801561179f575060008473ffffffffffffffffffffffffffffffffffffffff163b145b156117e157836040517f9996b3150000000000000000000000000000000000000000000000000000000081526004016117d89190611ceb565b60405180910390fd5b8190506117ea565b5b9392505050565b6000815111156118045780518082602001fd5b6040517f1425ea4200000000000000000000000000000000000000000000000000000000815260040160405180910390fd5b600080fd5b60007fffffffff0000000000000000000000000000000000000000000000000000000082169050919050565b6118708161183b565b811461187b57600080fd5b50565b60008135905061188d81611867565b92915050565b6000602082840312156118a9576118a8611836565b5b60006118b78482850161187e565b91505092915050565b60008115159050919050565b6118d5816118c0565b82525050565b60006020820190506118f060008301846118cc565b92915050565b6000819050919050565b611909816118f6565b82525050565b60006020820190506119246000830184611900565b92915050565b611933816118f6565b811461193e57600080fd5b50565b6000813590506119508161192a565b92915050565b60006020828403121561196c5761196b611836565b5b600061197a84828501611941565b91505092915050565b600073ffffffffffffffffffffffffffffffffffffffff82169050919050565b60006119ae82611983565b9050919050565b6119be816119a3565b81146119c957600080fd5b50565b6000813590506119db816119b5565b92915050565b600080604083850312156119f8576119f7611836565b5b6000611a0685828601611941565b9250506020611a17858286016119cc565b9150509250929050565b6000819050919050565b611a3481611a21565b8114611a3f57600080fd5b50565b600081359050611a5181611a2b565b92915050565b600080600060608486031215611a7057611a6f611836565b5b6000611a7e868287016119cc565b9350506020611a8f868287016119cc565b9250506040611aa086828701611a42565b9150509250925092565b600060208284031215611ac057611abf611836565b5b6000611ace848285016119cc565b91505092915050565b60008060408385031215611aee57611aed611836565b5b6000611afc858286016119cc565b9250506020611b0d858286016119cc565b9150509250929050565b611b2081611a21565b82525050565b6000602082019050611b3b6000830184611b17565b92915050565b60008060008060808587031215611b5b57611b5a611836565b5b6000611b69878288016119cc565b9450506020611b7a878288016119cc565b9350506040611b8b878288016119cc565b9250506060611b9c87828801611a42565b91505092959194509250565b7f4e487b7100000000000000000000000000000000000000000000000000000000600052601160045260246000fd5b6000611be282611a21565b9150611bed83611a21565b9250828201905080821115611c0557611c04611ba8565b5b92915050565b6000604082019050611c206000830185611b17565b611c2d6020830184611b17565b9392505050565b6000819050919050565b600067ffffffffffffffff82169050919050565b6000819050919050565b6000611c77611c72611c6d84611c34565b611c52565b611c3e565b9050919050565b611c8781611c5c565b82525050565b6000602082019050611ca26000830184611c7e565b92915050565b6000611cb382611a21565b9150611cbe83611a21565b9250828203905081811115611cd657611cd5611ba8565b5b92915050565b611ce5816119a3565b82525050565b6000602082019050611d006000830184611cdc565b92915050565b6000606082019050611d1b6000830186611cdc565b611d286020830185611cdc565b611d356040830184611b17565b949350505050565b6000604082019050611d526000830185611cdc565b611d5f6020830184611b17565b9392505050565b6000604082019050611d7b6000830185611cdc565b611d886020830184611900565b9392505050565b611d98816118c0565b8114611da357600080fd5b50565b600081519050611db581611d8f565b92915050565b600060208284031215611dd157611dd0611836565b5b6000611ddf84828501611da6565b91505092915050565b600081519050919050565b600081905092915050565b60005b83811015611e1c578082015181840152602081019050611e01565b60008484015250505050565b6000611e3382611de8565b611e3d8185611df3565b9350611e4d818560208601611dfe565b80840191505092915050565b6000611e658284611e28565b91508190509291505056fea2646970667358221220440df116ec9fdcfd8d1d712a17eb1af374f7d5aba07d835a3a33b1adda98f0ee64736f6c63430008180033",
  "linkReferences": {},
  "deployedLinkReferences": {}
}