{
  "_format": "hh-sol-artifact-1",
  "contractName": "MoxieBondingCurve",
  "sourceName": "contracts/MoxieBondingCurve.sol",
  "abi": [
    {
      "inputs": [],
      "name": "AccessControlBadConfirmation",
      "type": "error"
    },
    {
      "inputs": [
        {
          "internalType": "address",
          "name": "account",
          "type": "address"
        },
        {
          "internalType": "bytes32",
          "name": "neededRole",
          "type": "bytes32"
        }
      ],
      "name": "AccessControlUnauthorizedAccount",
      "type": "error"
    },
    {
      "inputs": [
        {
          "internalType": "address",
          "name": "target",
          "type": "address"
        }
      ],
      "name": "AddressEmptyCode",
      "type": "error"
    },
    {
      "inputs": [
        {
          "internalType": "address",
          "name": "account",
          "type": "address"
        }
      ],
      "name": "AddressInsufficientBalance",
      "type": "error"
    },
    {
      "inputs": [],
      "name": "EnforcedPause",
      "type": "error"
    },
    {
      "inputs": [],
      "name": "ExpectedPause",
      "type": "error"
    },
    {
      "inputs": [],
      "name": "FailedInnerCall",
      "type": "error"
    },
    {
      "inputs": [],
      "name": "InvalidInitialization",
      "type": "error"
    },
    {
      "inputs": [],
      "name": "MoxieBondingCurve_InvalidBeneficiary",
      "type": "error"
    },
    {
      "inputs": [],
      "name": "MoxieBondingCurve_InvalidDepositAmount",
      "type": "error"
    },
    {
      "inputs": [],
      "name": "MoxieBondingCurve_InvalidFeePercentage",
      "type": "error"
    },
    {
      "inputs": [],
      "name": "MoxieBondingCurve_InvalidFormula",
      "type": "error"
    },
    {
      "inputs": [],
      "name": "MoxieBondingCurve_InvalidOwner",
      "type": "error"
    },
    {
      "inputs": [],
      "name": "MoxieBondingCurve_InvalidReserveFactory",
      "type": "error"
    },
    {
      "inputs": [],
      "name": "MoxieBondingCurve_InvalidReserveRation",
      "type": "error"
    },
    {
      "inputs": [],
      "name": "MoxieBondingCurve_InvalidSellAmount",
      "type": "error"
    },
    {
      "inputs": [],
      "name": "MoxieBondingCurve_InvalidSubject",
      "type": "error"
    },
    {
      "inputs": [],
      "name": "MoxieBondingCurve_InvalidSubjectFactory",
      "type": "error"
    },
    {
      "inputs": [],
      "name": "MoxieBondingCurve_InvalidSubjectSupply",
      "type": "error"
    },
    {
      "inputs": [],
      "name": "MoxieBondingCurve_InvalidSubjectToken",
      "type": "error"
    },
    {
      "inputs": [],
      "name": "MoxieBondingCurve_InvalidToken",
      "type": "error"
    },
    {
      "inputs": [],
      "name": "MoxieBondingCurve_InvalidTokenManager",
      "type": "error"
    },
    {
      "inputs": [],
      "name": "MoxieBondingCurve_InvalidVault",
      "type": "error"
    },
    {
      "inputs": [],
      "name": "MoxieBondingCurve_OnlySubjectFactory",
      "type": "error"
    },
    {
      "inputs": [],
      "name": "MoxieBondingCurve_SlippageExceedsLimit",
      "type": "error"
    },
    {
      "inputs": [],
      "name": "MoxieBondingCurve_SubjectAlreadyInitialized",
      "type": "error"
    },
    {
      "inputs": [],
      "name": "MoxieBondingCurve_SubjectNotInitialized",
      "type": "error"
    },
    {
      "inputs": [],
      "name": "MoxieBondingCurve_TransferFailed",
      "type": "error"
    },
    {
      "inputs": [],
      "name": "NotInitializing",
      "type": "error"
    },
    {
      "inputs": [
        {
          "internalType": "address",
          "name": "token",
          "type": "address"
        }
      ],
      "name": "SafeERC20FailedOperation",
      "type": "error"
    },
    {
      "anonymous": false,
      "inputs": [
        {
          "indexed": false,
          "internalType": "address",
          "name": "_subject",
          "type": "address"
        },
        {
          "indexed": false,
          "internalType": "address",
          "name": "_subjectToken",
          "type": "address"
        },
        {
          "indexed": false,
          "internalType": "uint256",
          "name": "_initialSupply",
          "type": "uint256"
        },
        {
          "indexed": false,
          "internalType": "uint256",
          "name": "_reserve",
          "type": "uint256"
        },
        {
          "indexed": false,
          "internalType": "uint32",
          "name": "_reserveRatio",
          "type": "uint32"
        }
      ],
      "name": "BondingCurveInitialized",
      "type": "event"
    },
    {
      "anonymous": false,
      "inputs": [
        {
          "indexed": false,
          "internalType": "uint64",
          "name": "version",
          "type": "uint64"
        }
      ],
      "name": "Initialized",
      "type": "event"
    },
    {
      "anonymous": false,
      "inputs": [
        {
          "indexed": false,
          "internalType": "address",
          "name": "account",
          "type": "address"
        }
      ],
      "name": "Paused",
      "type": "event"
    },
    {
      "anonymous": false,
      "inputs": [
        {
          "indexed": true,
          "internalType": "bytes32",
          "name": "role",
          "type": "bytes32"
        },
        {
          "indexed": true,
          "internalType": "bytes32",
          "name": "previousAdminRole",
          "type": "bytes32"
        },
        {
          "indexed": true,
          "internalType": "bytes32",
          "name": "newAdminRole",
          "type": "bytes32"
        }
      ],
      "name": "RoleAdminChanged",
      "type": "event"
    },
    {
      "anonymous": false,
      "inputs": [
        {
          "indexed": true,
          "internalType": "bytes32",
          "name": "role",
          "type": "bytes32"
        },
        {
          "indexed": true,
          "internalType": "address",
          "name": "account",
          "type": "address"
        },
        {
          "indexed": true,
          "internalType": "address",
          "name": "sender",
          "type": "address"
        }
      ],
      "name": "RoleGranted",
      "type": "event"
    },
    {
      "anonymous": false,
      "inputs": [
        {
          "indexed": true,
          "internalType": "bytes32",
          "name": "role",
          "type": "bytes32"
        },
        {
          "indexed": true,
          "internalType": "address",
          "name": "account",
          "type": "address"
        },
        {
          "indexed": true,
          "internalType": "address",
          "name": "sender",
          "type": "address"
        }
      ],
      "name": "RoleRevoked",
      "type": "event"
    },
    {
      "anonymous": false,
      "inputs": [
        {
          "indexed": false,
          "internalType": "address",
          "name": "_subject",
          "type": "address"
        },
        {
          "indexed": false,
          "internalType": "address",
          "name": "_sellToken",
          "type": "address"
        },
        {
          "indexed": false,
          "internalType": "uint256",
          "name": "_sellAmount",
          "type": "uint256"
        },
        {
          "indexed": false,
          "internalType": "address",
          "name": "_buyToken",
          "type": "address"
        },
        {
          "indexed": false,
          "internalType": "uint256",
          "name": "_buyAmount",
          "type": "uint256"
        },
        {
          "indexed": false,
          "internalType": "address",
          "name": "_beneficiary",
          "type": "address"
        }
      ],
      "name": "SubjectSharePurchased",
      "type": "event"
    },
    {
      "anonymous": false,
      "inputs": [
        {
          "indexed": false,
          "internalType": "address",
          "name": "_subject",
          "type": "address"
        },
        {
          "indexed": false,
          "internalType": "address",
          "name": "_sellToken",
          "type": "address"
        },
        {
          "indexed": false,
          "internalType": "uint256",
          "name": "_sellAmount",
          "type": "uint256"
        },
        {
          "indexed": false,
          "internalType": "address",
          "name": "_buyToken",
          "type": "address"
        },
        {
          "indexed": false,
          "internalType": "uint256",
          "name": "_buyAmount",
          "type": "uint256"
        },
        {
          "indexed": false,
          "internalType": "address",
          "name": "_beneficiary",
          "type": "address"
        }
      ],
      "name": "SubjectShareSold",
      "type": "event"
    },
    {
      "anonymous": false,
      "inputs": [
        {
          "indexed": false,
          "internalType": "address",
          "name": "account",
          "type": "address"
        }
      ],
      "name": "Unpaused",
      "type": "event"
    },
    {
      "anonymous": false,
      "inputs": [
        {
          "indexed": false,
          "internalType": "address",
          "name": "_beneficiary",
          "type": "address"
        }
      ],
      "name": "UpdateBeneficiary",
      "type": "event"
    },
    {
      "anonymous": false,
      "inputs": [
        {
          "indexed": false,
          "internalType": "uint256",
          "name": "_protocolBuyFeePct",
          "type": "uint256"
        },
        {
          "indexed": false,
          "internalType": "uint256",
          "name": "_protocolSellFeePct",
          "type": "uint256"
        },
        {
          "indexed": false,
          "internalType": "uint256",
          "name": "_subjectBuyFeePct",
          "type": "uint256"
        },
        {
          "indexed": false,
          "internalType": "uint256",
          "name": "_subjectSellFeePct",
          "type": "uint256"
        }
      ],
      "name": "UpdateFees",
      "type": "event"
    },
    {
      "anonymous": false,
      "inputs": [
        {
          "indexed": false,
          "internalType": "address",
          "name": "_formula",
          "type": "address"
        }
      ],
      "name": "UpdateFormula",
      "type": "event"
    },
    {
      "inputs": [],
      "name": "DEFAULT_ADMIN_ROLE",
      "outputs": [
        {
          "internalType": "bytes32",
          "name": "",
          "type": "bytes32"
        }
      ],
      "stateMutability": "view",
      "type": "function"
    },
    {
      "inputs": [],
      "name": "PAUSE_ROLE",
      "outputs": [
        {
          "internalType": "bytes32",
          "name": "",
          "type": "bytes32"
        }
      ],
      "stateMutability": "view",
      "type": "function"
    },
    {
      "inputs": [],
      "name": "PCT_BASE",
      "outputs": [
        {
          "internalType": "uint256",
          "name": "",
          "type": "uint256"
        }
      ],
      "stateMutability": "view",
      "type": "function"
    },
    {
      "inputs": [],
      "name": "PPM",
      "outputs": [
        {
          "internalType": "uint32",
          "name": "",
          "type": "uint32"
        }
      ],
      "stateMutability": "view",
      "type": "function"
    },
    {
      "inputs": [],
      "name": "UPDATE_BENEFICIARY_ROLE",
      "outputs": [
        {
          "internalType": "bytes32",
          "name": "",
          "type": "bytes32"
        }
      ],
      "stateMutability": "view",
      "type": "function"
    },
    {
      "inputs": [],
      "name": "UPDATE_FEES_ROLE",
      "outputs": [
        {
          "internalType": "bytes32",
          "name": "",
          "type": "bytes32"
        }
      ],
      "stateMutability": "view",
      "type": "function"
    },
    {
      "inputs": [],
      "name": "UPDATE_FORMULA_ROLE",
      "outputs": [
        {
          "internalType": "bytes32",
          "name": "",
          "type": "bytes32"
        }
      ],
      "stateMutability": "view",
      "type": "function"
    },
    {
      "inputs": [
        {
          "internalType": "address",
          "name": "_subject",
          "type": "address"
        },
        {
          "internalType": "uint256",
          "name": "_depositAmount",
          "type": "uint256"
        },
        {
          "internalType": "address",
          "name": "_onBehalfOf",
          "type": "address"
        },
        {
          "internalType": "uint256",
          "name": "_minReturnAmountAfterFee",
          "type": "uint256"
        }
      ],
      "name": "buyShares",
      "outputs": [
        {
          "internalType": "uint256",
          "name": "shares_",
          "type": "uint256"
        }
      ],
      "stateMutability": "nonpayable",
      "type": "function"
    },
    {
      "inputs": [],
      "name": "feeBeneficiary",
      "outputs": [
        {
          "internalType": "address",
          "name": "",
          "type": "address"
        }
      ],
      "stateMutability": "view",
      "type": "function"
    },
    {
      "inputs": [],
      "name": "formula",
      "outputs": [
        {
          "internalType": "contract IBancorFormula",
          "name": "",
          "type": "address"
        }
      ],
      "stateMutability": "view",
      "type": "function"
    },
    {
      "inputs": [
        {
          "internalType": "bytes32",
          "name": "role",
          "type": "bytes32"
        }
      ],
      "name": "getRoleAdmin",
      "outputs": [
        {
          "internalType": "bytes32",
          "name": "",
          "type": "bytes32"
        }
      ],
      "stateMutability": "view",
      "type": "function"
    },
    {
      "inputs": [
        {
          "internalType": "bytes32",
          "name": "role",
          "type": "bytes32"
        },
        {
          "internalType": "address",
          "name": "account",
          "type": "address"
        }
      ],
      "name": "grantRole",
      "outputs": [],
      "stateMutability": "nonpayable",
      "type": "function"
    },
    {
      "inputs": [
        {
          "internalType": "bytes32",
          "name": "role",
          "type": "bytes32"
        },
        {
          "internalType": "address",
          "name": "account",
          "type": "address"
        }
      ],
      "name": "hasRole",
      "outputs": [
        {
          "internalType": "bool",
          "name": "",
          "type": "bool"
        }
      ],
      "stateMutability": "view",
      "type": "function"
    },
    {
      "inputs": [
        {
          "internalType": "address",
          "name": "_token",
          "type": "address"
        },
        {
          "internalType": "address",
          "name": "_formula",
          "type": "address"
        },
        {
          "internalType": "address",
          "name": "_owner",
          "type": "address"
        },
        {
          "internalType": "address",
          "name": "_tokenManager",
          "type": "address"
        },
        {
          "internalType": "address",
          "name": "_vault",
          "type": "address"
        },
        {
          "components": [
            {
              "internalType": "uint256",
              "name": "protocolBuyFeePct",
              "type": "uint256"
            },
            {
              "internalType": "uint256",
              "name": "protocolSellFeePct",
              "type": "uint256"
            },
            {
              "internalType": "uint256",
              "name": "subjectBuyFeePct",
              "type": "uint256"
            },
            {
              "internalType": "uint256",
              "name": "subjectSellFeePct",
              "type": "uint256"
            }
          ],
          "internalType": "struct IMoxieBondingCurve.FeeInput",
          "name": "_feeInput",
          "type": "tuple"
        },
        {
          "internalType": "address",
          "name": "_feeBeneficiary",
          "type": "address"
        },
        {
          "internalType": "address",
          "name": "_subjectFactory",
          "type": "address"
        }
      ],
      "name": "initialize",
      "outputs": [],
      "stateMutability": "nonpayable",
      "type": "function"
    },
    {
      "inputs": [
        {
          "internalType": "address",
          "name": "_subject",
          "type": "address"
        },
        {
          "internalType": "uint32",
          "name": "_reserveRatio",
          "type": "uint32"
        },
        {
          "internalType": "uint256",
          "name": "_initialSupply",
          "type": "uint256"
        },
        {
          "internalType": "uint256",
          "name": "_reserveAmount",
          "type": "uint256"
        }
      ],
      "name": "initializeSubjectBondingCurve",
      "outputs": [
        {
          "internalType": "bool",
          "name": "",
          "type": "bool"
        }
      ],
      "stateMutability": "nonpayable",
      "type": "function"
    },
    {
      "inputs": [],
      "name": "pause",
      "outputs": [],
      "stateMutability": "nonpayable",
      "type": "function"
    },
    {
      "inputs": [],
      "name": "paused",
      "outputs": [
        {
          "internalType": "bool",
          "name": "",
          "type": "bool"
        }
      ],
      "stateMutability": "view",
      "type": "function"
    },
    {
      "inputs": [],
      "name": "protocolBuyFeePct",
      "outputs": [
        {
          "internalType": "uint256",
          "name": "",
          "type": "uint256"
        }
      ],
      "stateMutability": "view",
      "type": "function"
    },
    {
      "inputs": [],
      "name": "protocolSellFeePct",
      "outputs": [
        {
          "internalType": "uint256",
          "name": "",
          "type": "uint256"
        }
      ],
      "stateMutability": "view",
      "type": "function"
    },
    {
      "inputs": [
        {
          "internalType": "bytes32",
          "name": "role",
          "type": "bytes32"
        },
        {
          "internalType": "address",
          "name": "callerConfirmation",
          "type": "address"
        }
      ],
      "name": "renounceRole",
      "outputs": [],
      "stateMutability": "nonpayable",
      "type": "function"
    },
    {
      "inputs": [
        {
          "internalType": "address",
          "name": "",
          "type": "address"
        }
      ],
      "name": "reserveRatio",
      "outputs": [
        {
          "internalType": "uint32",
          "name": "",
          "type": "uint32"
        }
      ],
      "stateMutability": "view",
      "type": "function"
    },
    {
      "inputs": [
        {
          "internalType": "bytes32",
          "name": "role",
          "type": "bytes32"
        },
        {
          "internalType": "address",
          "name": "account",
          "type": "address"
        }
      ],
      "name": "revokeRole",
      "outputs": [],
      "stateMutability": "nonpayable",
      "type": "function"
    },
    {
      "inputs": [
        {
          "internalType": "address",
          "name": "_subject",
          "type": "address"
        },
        {
          "internalType": "uint256",
          "name": "_sellAmount",
          "type": "uint256"
        },
        {
          "internalType": "address",
          "name": "_onBehalfOf",
          "type": "address"
        },
        {
          "internalType": "uint256",
          "name": "_minReturnAmountAfterFee",
          "type": "uint256"
        }
      ],
      "name": "sellShares",
      "outputs": [
        {
          "internalType": "uint256",
          "name": "returnAmount_",
          "type": "uint256"
        }
      ],
      "stateMutability": "nonpayable",
      "type": "function"
    },
    {
      "inputs": [],
      "name": "subjectBuyFeePct",
      "outputs": [
        {
          "internalType": "uint256",
          "name": "",
          "type": "uint256"
        }
      ],
      "stateMutability": "view",
      "type": "function"
    },
    {
      "inputs": [],
      "name": "subjectFactory",
      "outputs": [
        {
          "internalType": "address",
          "name": "",
          "type": "address"
        }
      ],
      "stateMutability": "view",
      "type": "function"
    },
    {
      "inputs": [],
      "name": "subjectSellFeePct",
      "outputs": [
        {
          "internalType": "uint256",
          "name": "",
          "type": "uint256"
        }
      ],
      "stateMutability": "view",
      "type": "function"
    },
    {
      "inputs": [
        {
          "internalType": "bytes4",
          "name": "interfaceId",
          "type": "bytes4"
        }
      ],
      "name": "supportsInterface",
      "outputs": [
        {
          "internalType": "bool",
          "name": "",
          "type": "bool"
        }
      ],
      "stateMutability": "view",
      "type": "function"
    },
    {
      "inputs": [],
      "name": "token",
      "outputs": [
        {
          "internalType": "contract IERC20Extended",
          "name": "",
          "type": "address"
        }
      ],
      "stateMutability": "view",
      "type": "function"
    },
    {
      "inputs": [],
      "name": "tokenManager",
      "outputs": [
        {
          "internalType": "contract ITokenManager",
          "name": "",
          "type": "address"
        }
      ],
      "stateMutability": "view",
      "type": "function"
    },
    {
      "inputs": [],
      "name": "unpause",
      "outputs": [],
      "stateMutability": "nonpayable",
      "type": "function"
    },
    {
      "inputs": [
        {
          "internalType": "address",
          "name": "_feeBeneficiary",
          "type": "address"
        }
      ],
      "name": "updateFeeBeneficiary",
      "outputs": [],
      "stateMutability": "nonpayable",
      "type": "function"
    },
    {
      "inputs": [
        {
          "components": [
            {
              "internalType": "uint256",
              "name": "protocolBuyFeePct",
              "type": "uint256"
            },
            {
              "internalType": "uint256",
              "name": "protocolSellFeePct",
              "type": "uint256"
            },
            {
              "internalType": "uint256",
              "name": "subjectBuyFeePct",
              "type": "uint256"
            },
            {
              "internalType": "uint256",
              "name": "subjectSellFeePct",
              "type": "uint256"
            }
          ],
          "internalType": "struct IMoxieBondingCurve.FeeInput",
          "name": "_feeInput",
          "type": "tuple"
        }
      ],
      "name": "updateFees",
      "outputs": [],
      "stateMutability": "nonpayable",
      "type": "function"
    },
    {
      "inputs": [
        {
          "internalType": "address",
          "name": "_formula",
          "type": "address"
        }
      ],
      "name": "updateFormula",
      "outputs": [],
      "stateMutability": "nonpayable",
      "type": "function"
    },
    {
      "inputs": [],
      "name": "vault",
      "outputs": [
        {
          "internalType": "contract IVault",
          "name": "",
          "type": "address"
        }
      ],
      "stateMutability": "view",
      "type": "function"
    }
  ],
  "bytecode": "0x608060405234801561001057600080fd5b50613dc7806100206000396000f3fe608060405234801561001057600080fd5b50600436106102065760003560e01c806360e14b601161011a578063a217fddf116100ad578063dbf495611161007c578063dbf49561146105b9578063e7af32ba146105d7578063fbfa77cf146105f5578063fc0c546a14610613578063fc157cb41461063157610206565b8063a217fddf14610533578063ba6da00114610551578063d547741f14610581578063d5b49a711461059d57610206565b806389d6d0de116100e957806389d6d0de146104ab57806391d14854146104c9578063951ef92d146104f957806398a9c92b1461051757610206565b806360e14b60146104375780636c57289314610455578063770d633a146104715780638456cb59146104a157610206565b806336568abe1161019d578063492fb3431161016c578063492fb3431461038f5780634b75f54f146103ad57806352fd87e5146103cb5780635b933ee6146103fb5780635c975abb1461041957610206565b806336568abe1461032d578063389ed267146103495780633f4ba83a1461036757806341644f8c1461037157610206565b806324234532116101d95780632423453214610293578063248a9ca3146102c35780632a709b14146102f35780632f2ff15d1461031157610206565b806301ffc9a71461020b5780630d720bbc1461023b5780630e6c7a66146102595780630e85d27714610275575b600080fd5b610225600480360381019061022091906131f3565b61064f565b604051610232919061323b565b60405180910390f35b6102436106c9565b6040516102509190613275565b60405180910390f35b610273600480360381019061026e919061342d565b6106d0565b005b61027d610a44565b60405161028a91906134fe565b60405180910390f35b6102ad60048036038101906102a89190613519565b610a68565b6040516102ba9190613275565b60405180910390f35b6102dd60048036038101906102d89190613572565b610a8b565b6040516102ea91906134fe565b60405180910390f35b6102fb610ab9565b60405161030891906135fe565b60405180910390f35b61032b60048036038101906103269190613619565b610adf565b005b61034760048036038101906103429190613619565b610b01565b005b610351610b7c565b60405161035e91906134fe565b60405180910390f35b61036f610ba0565b005b610379610bd5565b60405161038691906134fe565b60405180910390f35b610397610bf9565b6040516103a49190613668565b60405180910390f35b6103b5610c1f565b6040516103c291906136a4565b60405180910390f35b6103e560048036038101906103e091906136bf565b610c45565b6040516103f29190613735565b60405180910390f35b610403610e58565b6040516104109190613735565b60405180910390f35b610421610e5e565b60405161042e919061323b565b60405180910390f35b61043f610e83565b60405161044c91906134fe565b60405180910390f35b61046f600480360381019061046a9190613519565b610ea7565b005b61048b600480360381019061048691906136bf565b610f1e565b6040516104989190613735565b60405180910390f35b6104a9611132565b005b6104b3611167565b6040516104c09190613735565b60405180910390f35b6104e360048036038101906104de9190613619565b61116d565b6040516104f0919061323b565b60405180910390f35b6105016111e6565b60405161050e9190613735565b60405180910390f35b610531600480360381019061052c9190613750565b6111ec565b005b61053b61123f565b60405161054891906134fe565b60405180910390f35b61056b600480360381019061056691906137a9565b611246565b604051610578919061323b565b60405180910390f35b61059b60048036038101906105969190613619565b6117dd565b005b6105b760048036038101906105b29190613519565b6117ff565b005b6105c1611876565b6040516105ce9190613735565b60405180910390f35b6105df61187c565b6040516105ec9190613668565b60405180910390f35b6105fd6118a2565b60405161060a9190613831565b60405180910390f35b61061b6118c8565b604051610628919061386d565b60405180910390f35b6106396118ec565b6040516106469190613735565b60405180910390f35b60007f7965db0b000000000000000000000000000000000000000000000000000000007bffffffffffffffffffffffffffffffffffffffffffffffffffffffff1916827bffffffffffffffffffffffffffffffffffffffffffffffffffffffff191614806106c257506106c1826118f8565b5b9050919050565b620f424081565b60006106da611962565b905060008160000160089054906101000a900460ff1615905060008260000160009054906101000a900467ffffffffffffffff1690506000808267ffffffffffffffff161480156107285750825b9050600060018367ffffffffffffffff1614801561075d575060003073ffffffffffffffffffffffffffffffffffffffff163b145b90508115801561076b575080155b156107a2576040517ff92ee8a900000000000000000000000000000000000000000000000000000000815260040160405180910390fd5b60018560000160006101000a81548167ffffffffffffffff021916908367ffffffffffffffff16021790555083156107f25760018560000160086101000a81548160ff0219169083151502179055505b6107fa61198a565b610802611994565b6108118d8d8d8d8d8c8c6119a6565b61081a88611b6f565b8c6000806101000a81548173ffffffffffffffffffffffffffffffffffffffff021916908373ffffffffffffffffffffffffffffffffffffffff1602179055508b600160006101000a81548173ffffffffffffffffffffffffffffffffffffffff021916908373ffffffffffffffffffffffffffffffffffffffff16021790555089600260006101000a81548173ffffffffffffffffffffffffffffffffffffffff021916908373ffffffffffffffffffffffffffffffffffffffff16021790555088600360006101000a81548173ffffffffffffffffffffffffffffffffffffffff021916908373ffffffffffffffffffffffffffffffffffffffff160217905550876000015160048190555087602001516005819055508760400151600681905550876060015160078190555086600860006101000a81548173ffffffffffffffffffffffffffffffffffffffff021916908373ffffffffffffffffffffffffffffffffffffffff16021790555085600960006101000a81548173ffffffffffffffffffffffffffffffffffffffff021916908373ffffffffffffffffffffffffffffffffffffffff1602179055506109d86000801b8c611bf6565b508315610a355760008560000160086101000a81548160ff0219169083151502179055507fc7f505b2f371ae2175ee4913f4499e1f2633a7b5936321eed1cdaeb6115181d26001604051610a2c91906138d7565b60405180910390a15b50505050505050505050505050565b7fbfb76d8d43f55efe58544ea32af187792a7bdb983850d8fed33478266eec3cbb81565b600a6020528060005260406000206000915054906101000a900463ffffffff1681565b600080610a96611cf7565b905080600001600084815260200190815260200160002060010154915050919050565b600260009054906101000a900473ffffffffffffffffffffffffffffffffffffffff1681565b610ae882610a8b565b610af181611d1f565b610afb8383611bf6565b50505050565b610b09611d33565b73ffffffffffffffffffffffffffffffffffffffff168173ffffffffffffffffffffffffffffffffffffffff1614610b6d576040517f6697b23200000000000000000000000000000000000000000000000000000000815260040160405180910390fd5b610b778282611d3b565b505050565b7f139c2898040ef16910dc9f44dc697df79363da767d8bc92f2e310312b816e46d81565b7f139c2898040ef16910dc9f44dc697df79363da767d8bc92f2e310312b816e46d610bca81611d1f565b610bd2611e3d565b50565b7ff7ea2b80c7b6a2cab2c11d2290cb005c3748397358a25e17113658c83b73259381565b600860009054906101000a900473ffffffffffffffffffffffffffffffffffffffff1681565b600160009054906101000a900473ffffffffffffffffffffffffffffffffffffffff1681565b6000610c4f611eaf565b610c5885611ef0565b15610c8f576040517fa7ef168800000000000000000000000000000000000000000000000000000000815260040160405180910390fd5b60008403610cc8576040517e6a79a400000000000000000000000000000000000000000000000000000000815260040160405180910390fd5b6000600a60008773ffffffffffffffffffffffffffffffffffffffff1673ffffffffffffffffffffffffffffffffffffffff16815260200190815260200160002060009054906101000a900463ffffffff16905060008163ffffffff1603610d5c576040517f85b1b9c700000000000000000000000000000000000000000000000000000000815260040160405180910390fd5b6000600260009054906101000a900473ffffffffffffffffffffffffffffffffffffffff1673ffffffffffffffffffffffffffffffffffffffff1663e4860339886040518263ffffffff1660e01b8152600401610db99190613668565b6020604051808303816000875af1158015610dd8573d6000803e3d6000fd5b505050506040513d601f19601f82011682018060405250810190610dfc9190613907565b9050610e0781611ef0565b15610e3e576040517ffcde723100000000000000000000000000000000000000000000000000000000815260040160405180910390fd5b610e4c818787878b87611f28565b92505050949350505050565b60075481565b600080610e69612502565b90508060000160009054906101000a900460ff1691505090565b7f5f9be2932ed3a723f295a763be1804c7ebfd1a41c1348fb8bdf5be1c5cdca82281565b7ff7ea2b80c7b6a2cab2c11d2290cb005c3748397358a25e17113658c83b732593610ed181611d1f565b610eda82611ef0565b15610f11576040517fadfdb05b00000000000000000000000000000000000000000000000000000000815260040160405180910390fd5b610f1a8261252a565b5050565b6000610f28611eaf565b610f3185611ef0565b15610f68576040517fa7ef168800000000000000000000000000000000000000000000000000000000815260040160405180910390fd5b60008403610fa2576040517f2dc1479300000000000000000000000000000000000000000000000000000000815260040160405180910390fd5b6000600a60008773ffffffffffffffffffffffffffffffffffffffff1673ffffffffffffffffffffffffffffffffffffffff16815260200190815260200160002060009054906101000a900463ffffffff16905060008163ffffffff1603611036576040517f85b1b9c700000000000000000000000000000000000000000000000000000000815260040160405180910390fd5b6000600260009054906101000a900473ffffffffffffffffffffffffffffffffffffffff1673ffffffffffffffffffffffffffffffffffffffff1663e4860339886040518263ffffffff1660e01b81526004016110939190613668565b6020604051808303816000875af11580156110b2573d6000803e3d6000fd5b505050506040513d601f19601f820116820180604052508101906110d69190613907565b90506110e181611ef0565b15611118576040517ffcde723100000000000000000000000000000000000000000000000000000000815260040160405180910390fd5b611126818787878b876125a5565b92505050949350505050565b7f139c2898040ef16910dc9f44dc697df79363da767d8bc92f2e310312b816e46d61115c81611d1f565b611164612af8565b50565b60055481565b600080611178611cf7565b905080600001600085815260200190815260200160002060000160008473ffffffffffffffffffffffffffffffffffffffff1673ffffffffffffffffffffffffffffffffffffffff16815260200190815260200160002060009054906101000a900460ff1691505092915050565b60065481565b7f5f9be2932ed3a723f295a763be1804c7ebfd1a41c1348fb8bdf5be1c5cdca82261121681611d1f565b61121f82611b6f565b61123b8260000151836020015184604001518560600151612b6a565b5050565b6000801b81565b6000611250611eaf565b61125985611ef0565b15611290576040517fa7ef168800000000000000000000000000000000000000000000000000000000815260040160405180910390fd5b600960009054906101000a900473ffffffffffffffffffffffffffffffffffffffff1673ffffffffffffffffffffffffffffffffffffffff163373ffffffffffffffffffffffffffffffffffffffff1614611317576040517f6802704600000000000000000000000000000000000000000000000000000000815260040160405180910390fd5b61132084612bd1565b611356576040517f39a1d18100000000000000000000000000000000000000000000000000000000815260040160405180910390fd5b6000600a60008773ffffffffffffffffffffffffffffffffffffffff1673ffffffffffffffffffffffffffffffffffffffff16815260200190815260200160002060009054906101000a900463ffffffff1663ffffffff16146113e5576040517f86d5f90700000000000000000000000000000000000000000000000000000000815260040160405180910390fd5b6000600260009054906101000a900473ffffffffffffffffffffffffffffffffffffffff1673ffffffffffffffffffffffffffffffffffffffff1663e4860339876040518263ffffffff1660e01b81526004016114429190613668565b6020604051808303816000875af1158015611461573d6000803e3d6000fd5b505050506040513d601f19601f820116820180604052508101906114859190613907565b905061149081611ef0565b156114c7576040517ffcde723100000000000000000000000000000000000000000000000000000000815260040160405180910390fd5b60008173ffffffffffffffffffffffffffffffffffffffff166318160ddd6040518163ffffffff1660e01b8152600401602060405180830381865afa158015611514573d6000803e3d6000fd5b505050506040513d601f19601f820116820180604052508101906115389190613949565b9050808514611573576040517f849e9ad400000000000000000000000000000000000000000000000000000000815260040160405180910390fd5b85600a60008973ffffffffffffffffffffffffffffffffffffffff1673ffffffffffffffffffffffffffffffffffffffff16815260200190815260200160002060006101000a81548163ffffffff021916908363ffffffff16021790555061161e33308660008054906101000a900473ffffffffffffffffffffffffffffffffffffffff1673ffffffffffffffffffffffffffffffffffffffff16612bed909392919063ffffffff16565b60008054906101000a900473ffffffffffffffffffffffffffffffffffffffff1673ffffffffffffffffffffffffffffffffffffffff1663095ea7b3600360009054906101000a900473ffffffffffffffffffffffffffffffffffffffff16866040518363ffffffff1660e01b815260040161169b929190613976565b6020604051808303816000875af11580156116ba573d6000803e3d6000fd5b505050506040513d601f19601f820116820180604052508101906116de91906139cb565b50600360009054906101000a900473ffffffffffffffffffffffffffffffffffffffff1673ffffffffffffffffffffffffffffffffffffffff16638340f5498360008054906101000a900473ffffffffffffffffffffffffffffffffffffffff16876040518463ffffffff1660e01b815260040161175e939291906139f8565b600060405180830381600087803b15801561177857600080fd5b505af115801561178c573d6000803e3d6000fd5b505050507f3e8bb74e6a03753bf16c1c2737daabee1be3548b0f638894f10f382560d1d076878387878a6040516117c7959493929190613a2f565b60405180910390a1600192505050949350505050565b6117e682610a8b565b6117ef81611d1f565b6117f98383611d3b565b50505050565b7fbfb76d8d43f55efe58544ea32af187792a7bdb983850d8fed33478266eec3cbb61182981611d1f565b61183282611ef0565b15611869576040517fb1710af000000000000000000000000000000000000000000000000000000000815260040160405180910390fd5b61187282612c6f565b5050565b60045481565b600960009054906101000a900473ffffffffffffffffffffffffffffffffffffffff1681565b600360009054906101000a900473ffffffffffffffffffffffffffffffffffffffff1681565b60008054906101000a900473ffffffffffffffffffffffffffffffffffffffff1681565b670de0b6b3a764000081565b60007f01ffc9a7000000000000000000000000000000000000000000000000000000007bffffffffffffffffffffffffffffffffffffffffffffffffffffffff1916827bffffffffffffffffffffffffffffffffffffffffffffffffffffffff1916149050919050565b60007ff0c57e16840df040f15088dc2f81fe391c3923bec73e23a9662efc9c229c6a00905090565b611992612cea565b565b61199c612cea565b6119a4612d2a565b565b6119af87611ef0565b156119e6576040517f1c8c425400000000000000000000000000000000000000000000000000000000815260040160405180910390fd5b6119ef86611ef0565b15611a26576040517fb1710af000000000000000000000000000000000000000000000000000000000815260040160405180910390fd5b611a2f85611ef0565b15611a66576040517f3c77158e00000000000000000000000000000000000000000000000000000000815260040160405180910390fd5b611a6f84611ef0565b15611aa6576040517f926d717700000000000000000000000000000000000000000000000000000000815260040160405180910390fd5b611aaf83611ef0565b15611ae6576040517f466e460200000000000000000000000000000000000000000000000000000000815260040160405180910390fd5b611aef81611ef0565b15611b26576040517fee2f6f2a00000000000000000000000000000000000000000000000000000000815260040160405180910390fd5b611b2f82611ef0565b15611b66576040517fadfdb05b00000000000000000000000000000000000000000000000000000000815260040160405180910390fd5b50505050505050565b611b7c8160000151612d5e565b1580611b925750611b908160200151612d5e565b155b80611ba75750611ba58160400151612d5e565b155b80611bbc5750611bba8160600151612d5e565b155b15611bf3576040517f470562b900000000000000000000000000000000000000000000000000000000815260040160405180910390fd5b50565b600080611c01611cf7565b9050611c0d848461116d565b611ceb57600181600001600086815260200190815260200160002060000160008573ffffffffffffffffffffffffffffffffffffffff1673ffffffffffffffffffffffffffffffffffffffff16815260200190815260200160002060006101000a81548160ff021916908315150217905550611c87611d33565b73ffffffffffffffffffffffffffffffffffffffff168373ffffffffffffffffffffffffffffffffffffffff16857f2f8788117e7eff1d82e926ec794901d17c78024a50270940304540a733656f0d60405160405180910390a46001915050611cf1565b60009150505b92915050565b60007f02dd7bc7dec4dceedda775e58dd541e08a116c6c53815c0bd028192f7b626800905090565b611d3081611d2b611d33565b612d72565b50565b600033905090565b600080611d46611cf7565b9050611d52848461116d565b15611e3157600081600001600086815260200190815260200160002060000160008573ffffffffffffffffffffffffffffffffffffffff1673ffffffffffffffffffffffffffffffffffffffff16815260200190815260200160002060006101000a81548160ff021916908315150217905550611dcd611d33565b73ffffffffffffffffffffffffffffffffffffffff168373ffffffffffffffffffffffffffffffffffffffff16857ff6391f5c32d9c69d2a47ea670b442974b53935d1edc7fd64eb21e047a839171b60405160405180910390a46001915050611e37565b60009150505b92915050565b611e45612dc3565b6000611e4f612502565b905060008160000160006101000a81548160ff0219169083151502179055507f5db9ee0a495bf2e6ff9c91a7834c1ba4fdd244a5e8aa4e537bd38aeae4b073aa611e97611d33565b604051611ea49190613668565b60405180910390a150565b611eb7610e5e565b15611eee576040517fd93c066500000000000000000000000000000000000000000000000000000000815260040160405180910390fd5b565b60008073ffffffffffffffffffffffffffffffffffffffff168273ffffffffffffffffffffffffffffffffffffffff16149050919050565b6000611f7733308860008054906101000a900473ffffffffffffffffffffffffffffffffffffffff1673ffffffffffffffffffffffffffffffffffffffff16612bed909392919063ffffffff16565b600080611f8388612e03565b91509150611fd2858260008054906101000a900473ffffffffffffffffffffffffffffffffffffffff1673ffffffffffffffffffffffffffffffffffffffff16612e519092919063ffffffff16565b61203f600860009054906101000a900473ffffffffffffffffffffffffffffffffffffffff168360008054906101000a900473ffffffffffffffffffffffffffffffffffffffff1673ffffffffffffffffffffffffffffffffffffffff16612e519092919063ffffffff16565b600082828a61204e9190613ab1565b6120589190613ab1565b905060008054906101000a900473ffffffffffffffffffffffffffffffffffffffff1673ffffffffffffffffffffffffffffffffffffffff1663095ea7b3600360009054906101000a900473ffffffffffffffffffffffffffffffffffffffff16836040518363ffffffff1660e01b81526004016120d7929190613976565b6020604051808303816000875af11580156120f6573d6000803e3d6000fd5b505050506040513d601f19601f8201168201806040525081019061211a91906139cb565b506000600360009054906101000a900473ffffffffffffffffffffffffffffffffffffffff1673ffffffffffffffffffffffffffffffffffffffff1663f7888aec8c60008054906101000a900473ffffffffffffffffffffffffffffffffffffffff166040518363ffffffff1660e01b815260040161219a929190613ae5565b6020604051808303816000875af11580156121b9573d6000803e3d6000fd5b505050506040513d601f19601f820116820180604052508101906121dd9190613949565b905060008b73ffffffffffffffffffffffffffffffffffffffff166318160ddd6040518163ffffffff1660e01b8152600401602060405180830381865afa15801561222c573d6000803e3d6000fd5b505050506040513d601f19601f820116820180604052508101906122509190613949565b9050600360009054906101000a900473ffffffffffffffffffffffffffffffffffffffff1673ffffffffffffffffffffffffffffffffffffffff16638340f5498d60008054906101000a900473ffffffffffffffffffffffffffffffffffffffff16866040518463ffffffff1660e01b81526004016122d1939291906139f8565b600060405180830381600087803b1580156122eb57600080fd5b505af11580156122ff573d6000803e3d6000fd5b50505050600160009054906101000a900473ffffffffffffffffffffffffffffffffffffffff1673ffffffffffffffffffffffffffffffffffffffff166329a00e7c82848a876040518563ffffffff1660e01b81526004016123649493929190613b0e565b602060405180830381865afa158015612381573d6000803e3d6000fd5b505050506040513d601f19601f820116820180604052508101906123a59190613949565b9550888610156123e1576040517f13115b2900000000000000000000000000000000000000000000000000000000815260040160405180910390fd5b6123ea8a611ef0565b61249257600260009054906101000a900473ffffffffffffffffffffffffffffffffffffffff1673ffffffffffffffffffffffffffffffffffffffff1663c6c3bbe6898c896040518463ffffffff1660e01b815260040161244d939291906139f8565b6020604051808303816000875af115801561246c573d6000803e3d6000fd5b505050506040513d601f19601f8201168201806040525081019061249091906139cb565b505b7fab7844fa0fe8907c50c8c2011a6471669afa144bcbbfcf0a1f9d08f77065f0858860008054906101000a900473ffffffffffffffffffffffffffffffffffffffff168d8f8a8f6040516124eb96959493929190613b53565b60405180910390a150505050509695505050505050565b60007fcd5ed15c6e187e77e9aee88184c21f4f2182ab5827cb3b7e07fbedcd63f03300905090565b80600860006101000a81548173ffffffffffffffffffffffffffffffffffffffff021916908373ffffffffffffffffffffffffffffffffffffffff1602179055507fe6131a64e93e9aa4ff38892c34d563c06dcc1e03b3d6897cc65f0903e2ad68488160405161259a9190613668565b60405180910390a150565b6000808773ffffffffffffffffffffffffffffffffffffffff166318160ddd6040518163ffffffff1660e01b8152600401602060405180830381865afa1580156125f3573d6000803e3d6000fd5b505050506040513d601f19601f820116820180604052508101906126179190613949565b90506000600360009054906101000a900473ffffffffffffffffffffffffffffffffffffffff1673ffffffffffffffffffffffffffffffffffffffff1663f7888aec8a60008054906101000a900473ffffffffffffffffffffffffffffffffffffffff166040518363ffffffff1660e01b8152600401612698929190613ae5565b6020604051808303816000875af11580156126b7573d6000803e3d6000fd5b505050506040513d601f19601f820116820180604052508101906126db9190613949565b90506000600160009054906101000a900473ffffffffffffffffffffffffffffffffffffffff1673ffffffffffffffffffffffffffffffffffffffff166349f9b0f78484888d6040518563ffffffff1660e01b81526004016127409493929190613b0e565b602060405180830381865afa15801561275d573d6000803e3d6000fd5b505050506040513d601f19601f820116820180604052508101906127819190613949565b90506127b033308b8d73ffffffffffffffffffffffffffffffffffffffff16612bed909392919063ffffffff16565b8973ffffffffffffffffffffffffffffffffffffffff166342966c688a6040518263ffffffff1660e01b81526004016127e99190613735565b600060405180830381600087803b15801561280357600080fd5b505af1158015612817573d6000803e3d6000fd5b50505050600360009054906101000a900473ffffffffffffffffffffffffffffffffffffffff1673ffffffffffffffffffffffffffffffffffffffff1663f18d03cc8b60008054906101000a900473ffffffffffffffffffffffffffffffffffffffff1630856040518563ffffffff1660e01b815260040161289c9493929190613bb4565b600060405180830381600087803b1580156128b657600080fd5b505af11580156128ca573d6000803e3d6000fd5b505050506000806128da83612ed0565b91509150612929888260008054906101000a900473ffffffffffffffffffffffffffffffffffffffff1673ffffffffffffffffffffffffffffffffffffffff16612e519092919063ffffffff16565b612996600860009054906101000a900473ffffffffffffffffffffffffffffffffffffffff168360008054906101000a900473ffffffffffffffffffffffffffffffffffffffff1673ffffffffffffffffffffffffffffffffffffffff16612e519092919063ffffffff16565b8181846129a39190613ab1565b6129ad9190613ab1565b9550888610156129e9576040517f13115b2900000000000000000000000000000000000000000000000000000000815260040160405180910390fd5b60008054906101000a900473ffffffffffffffffffffffffffffffffffffffff1673ffffffffffffffffffffffffffffffffffffffff1663a9059cbb8b886040518363ffffffff1660e01b8152600401612a44929190613976565b6020604051808303816000875af1158015612a63573d6000803e3d6000fd5b505050506040513d601f19601f82011682018060405250810190612a8791906139cb565b507f9e20e9cbfd51cdd34a2163a0435df07c7fde8cabc7ab4ca38448bd01d317b697888d8d60008054906101000a900473ffffffffffffffffffffffffffffffffffffffff168a8f604051612ae196959493929190613b53565b60405180910390a150505050509695505050505050565b612b00611eaf565b6000612b0a612502565b905060018160000160006101000a81548160ff0219169083151502179055507f62e78cea01bee320cd4e420270b5ea74000d11b0c9f74754ebdbfc544b05a258612b52611d33565b604051612b5f9190613668565b60405180910390a150565b836004819055508260058190555081600681905550806007819055507f5c3aee3d65f7eb02cded951435d06b06ef307bc7f57b98975c4a41dc116e711c600454600554600654600754604051612bc39493929190613bf9565b60405180910390a150505050565b6000620f424063ffffffff168263ffffffff1611159050919050565b612c69848573ffffffffffffffffffffffffffffffffffffffff166323b872dd868686604051602401612c22939291906139f8565b604051602081830303815290604052915060e01b6020820180517bffffffffffffffffffffffffffffffffffffffffffffffffffffffff8381831617835250505050612f1e565b50505050565b80600160006101000a81548173ffffffffffffffffffffffffffffffffffffffff021916908373ffffffffffffffffffffffffffffffffffffffff1602179055507f050a79a49cc1dc3aeeccd8636685ad0469db41a9bd51254a34fc1cf616693d4181604051612cdf9190613668565b60405180910390a150565b612cf2612fb5565b612d28576040517fd7e6bcf800000000000000000000000000000000000000000000000000000000815260040160405180910390fd5b565b612d32612cea565b6000612d3c612502565b905060008160000160006101000a81548160ff02191690831515021790555050565b6000670de0b6b3a764000082109050919050565b612d7c828261116d565b612dbf5780826040517fe2517d3f000000000000000000000000000000000000000000000000000000008152600401612db6929190613c3e565b60405180910390fd5b5050565b612dcb610e5e565b612e01576040517f8dfc202b00000000000000000000000000000000000000000000000000000000815260040160405180910390fd5b565b600080670de0b6b3a764000060045484612e1d9190613c67565b612e279190613cd8565b9150670de0b6b3a764000060065484612e409190613c67565b612e4a9190613cd8565b9050915091565b612ecb838473ffffffffffffffffffffffffffffffffffffffff1663a9059cbb8585604051602401612e84929190613976565b604051602081830303815290604052915060e01b6020820180517bffffffffffffffffffffffffffffffffffffffffffffffffffffffff8381831617835250505050612f1e565b505050565b600080670de0b6b3a764000060055484612eea9190613c67565b612ef49190613cd8565b9150670de0b6b3a764000060075484612f0d9190613c67565b612f179190613cd8565b9050915091565b6000612f49828473ffffffffffffffffffffffffffffffffffffffff16612fd590919063ffffffff16565b90506000815114158015612f6e575080806020019051810190612f6c91906139cb565b155b15612fb057826040517f5274afe7000000000000000000000000000000000000000000000000000000008152600401612fa79190613668565b60405180910390fd5b505050565b6000612fbf611962565b60000160089054906101000a900460ff16905090565b6060612fe383836000612feb565b905092915050565b60608147101561303257306040517fcd7860590000000000000000000000000000000000000000000000000000000081526004016130299190613668565b60405180910390fd5b6000808573ffffffffffffffffffffffffffffffffffffffff16848660405161305b9190613d7a565b60006040518083038185875af1925050503d8060008114613098576040519150601f19603f3d011682016040523d82523d6000602084013e61309d565b606091505b50915091506130ad8683836130b8565b925050509392505050565b6060826130cd576130c882613147565b61313f565b600082511480156130f5575060008473ffffffffffffffffffffffffffffffffffffffff163b145b1561313757836040517f9996b31500000000000000000000000000000000000000000000000000000000815260040161312e9190613668565b60405180910390fd5b819050613140565b5b9392505050565b60008151111561315a5780518082602001fd5b6040517f1425ea4200000000000000000000000000000000000000000000000000000000815260040160405180910390fd5b6000604051905090565b600080fd5b60007fffffffff0000000000000000000000000000000000000000000000000000000082169050919050565b6131d08161319b565b81146131db57600080fd5b50565b6000813590506131ed816131c7565b92915050565b60006020828403121561320957613208613196565b5b6000613217848285016131de565b91505092915050565b60008115159050919050565b61323581613220565b82525050565b6000602082019050613250600083018461322c565b92915050565b600063ffffffff82169050919050565b61326f81613256565b82525050565b600060208201905061328a6000830184613266565b92915050565b600073ffffffffffffffffffffffffffffffffffffffff82169050919050565b60006132bb82613290565b9050919050565b6132cb816132b0565b81146132d657600080fd5b50565b6000813590506132e8816132c2565b92915050565b600080fd5b6000601f19601f8301169050919050565b7f4e487b7100000000000000000000000000000000000000000000000000000000600052604160045260246000fd5b61333c826132f3565b810181811067ffffffffffffffff8211171561335b5761335a613304565b5b80604052505050565b600061336e61318c565b905061337a8282613333565b919050565b6000819050919050565b6133928161337f565b811461339d57600080fd5b50565b6000813590506133af81613389565b92915050565b6000608082840312156133cb576133ca6132ee565b5b6133d56080613364565b905060006133e5848285016133a0565b60008301525060206133f9848285016133a0565b602083015250604061340d848285016133a0565b6040830152506060613421848285016133a0565b60608301525092915050565b600080600080600080600080610160898b03121561344e5761344d613196565b5b600061345c8b828c016132d9565b985050602061346d8b828c016132d9565b975050604061347e8b828c016132d9565b965050606061348f8b828c016132d9565b95505060806134a08b828c016132d9565b94505060a06134b18b828c016133b5565b9350506101206134c38b828c016132d9565b9250506101406134d58b828c016132d9565b9150509295985092959890939650565b6000819050919050565b6134f8816134e5565b82525050565b600060208201905061351360008301846134ef565b92915050565b60006020828403121561352f5761352e613196565b5b600061353d848285016132d9565b91505092915050565b61354f816134e5565b811461355a57600080fd5b50565b60008135905061356c81613546565b92915050565b60006020828403121561358857613587613196565b5b60006135968482850161355d565b91505092915050565b6000819050919050565b60006135c46135bf6135ba84613290565b61359f565b613290565b9050919050565b60006135d6826135a9565b9050919050565b60006135e8826135cb565b9050919050565b6135f8816135dd565b82525050565b600060208201905061361360008301846135ef565b92915050565b600080604083850312156136305761362f613196565b5b600061363e8582860161355d565b925050602061364f858286016132d9565b9150509250929050565b613662816132b0565b82525050565b600060208201905061367d6000830184613659565b92915050565b600061368e826135cb565b9050919050565b61369e81613683565b82525050565b60006020820190506136b96000830184613695565b92915050565b600080600080608085870312156136d9576136d8613196565b5b60006136e7878288016132d9565b94505060206136f8878288016133a0565b9350506040613709878288016132d9565b925050606061371a878288016133a0565b91505092959194509250565b61372f8161337f565b82525050565b600060208201905061374a6000830184613726565b92915050565b60006080828403121561376657613765613196565b5b6000613774848285016133b5565b91505092915050565b61378681613256565b811461379157600080fd5b50565b6000813590506137a38161377d565b92915050565b600080600080608085870312156137c3576137c2613196565b5b60006137d1878288016132d9565b94505060206137e287828801613794565b93505060406137f3878288016133a0565b9250506060613804878288016133a0565b91505092959194509250565b600061381b826135cb565b9050919050565b61382b81613810565b82525050565b60006020820190506138466000830184613822565b92915050565b6000613857826135cb565b9050919050565b6138678161384c565b82525050565b6000602082019050613882600083018461385e565b92915050565b6000819050919050565b600067ffffffffffffffff82169050919050565b60006138c16138bc6138b784613888565b61359f565b613892565b9050919050565b6138d1816138a6565b82525050565b60006020820190506138ec60008301846138c8565b92915050565b600081519050613901816132c2565b92915050565b60006020828403121561391d5761391c613196565b5b600061392b848285016138f2565b91505092915050565b60008151905061394381613389565b92915050565b60006020828403121561395f5761395e613196565b5b600061396d84828501613934565b91505092915050565b600060408201905061398b6000830185613659565b6139986020830184613726565b9392505050565b6139a881613220565b81146139b357600080fd5b50565b6000815190506139c58161399f565b92915050565b6000602082840312156139e1576139e0613196565b5b60006139ef848285016139b6565b91505092915050565b6000606082019050613a0d6000830186613659565b613a1a6020830185613659565b613a276040830184613726565b949350505050565b600060a082019050613a446000830188613659565b613a516020830187613659565b613a5e6040830186613726565b613a6b6060830185613726565b613a786080830184613266565b9695505050505050565b7f4e487b7100000000000000000000000000000000000000000000000000000000600052601160045260246000fd5b6000613abc8261337f565b9150613ac78361337f565b9250828203905081811115613adf57613ade613a82565b5b92915050565b6000604082019050613afa6000830185613659565b613b076020830184613659565b9392505050565b6000608082019050613b236000830187613726565b613b306020830186613726565b613b3d6040830185613266565b613b4a6060830184613726565b95945050505050565b600060c082019050613b686000830189613659565b613b756020830188613659565b613b826040830187613726565b613b8f6060830186613659565b613b9c6080830185613726565b613ba960a0830184613659565b979650505050505050565b6000608082019050613bc96000830187613659565b613bd66020830186613659565b613be36040830185613659565b613bf06060830184613726565b95945050505050565b6000608082019050613c0e6000830187613726565b613c1b6020830186613726565b613c286040830185613726565b613c356060830184613726565b95945050505050565b6000604082019050613c536000830185613659565b613c6060208301846134ef565b9392505050565b6000613c728261337f565b9150613c7d8361337f565b9250828202613c8b8161337f565b91508282048414831517613ca257613ca1613a82565b5b5092915050565b7f4e487b7100000000000000000000000000000000000000000000000000000000600052601260045260246000fd5b6000613ce38261337f565b9150613cee8361337f565b925082613cfe57613cfd613ca9565b5b828204905092915050565b600081519050919050565b600081905092915050565b60005b83811015613d3d578082015181840152602081019050613d22565b60008484015250505050565b6000613d5482613d09565b613d5e8185613d14565b9350613d6e818560208601613d1f565b80840191505092915050565b6000613d868284613d49565b91508190509291505056fea2646970667358221220875568decc01de9837eca7c1c32dcff12abf4bb3ee45f8c29766fcc685e7bb6d64736f6c63430008180033",
  "linkReferences": {},
  "deployedLinkReferences": {}
}