{
  "_format": "hh-sol-artifact-1",
  "contractName": "SubjectFactory",
  "sourceName": "contracts/SubjectFactory.sol",
  "abi": [
    {
      "inputs": [],
      "name": "AccessControlBadConfirmation",
      "type": "error"
    },
    {
      "inputs": [
        {
          "internalType": "address",
          "name": "account",
          "type": "address"
        },
        {
          "internalType": "bytes32",
          "name": "neededRole",
          "type": "bytes32"
        }
      ],
      "name": "AccessControlUnauthorizedAccount",
      "type": "error"
    },
    {
      "inputs": [
        {
          "internalType": "address",
          "name": "target",
          "type": "address"
        }
      ],
      "name": "AddressEmptyCode",
      "type": "error"
    },
    {
      "inputs": [
        {
          "internalType": "address",
          "name": "account",
          "type": "address"
        }
      ],
      "name": "AddressInsufficientBalance",
      "type": "error"
    },
    {
      "inputs": [],
      "name": "EnforcedPause",
      "type": "error"
    },
    {
      "inputs": [],
      "name": "ExpectedPause",
      "type": "error"
    },
    {
      "inputs": [],
      "name": "FailedInnerCall",
      "type": "error"
    },
    {
      "inputs": [],
      "name": "InvalidInitialization",
      "type": "error"
    },
    {
      "inputs": [],
      "name": "NotInitializing",
      "type": "error"
    },
    {
      "inputs": [
        {
          "internalType": "address",
          "name": "token",
          "type": "address"
        }
      ],
      "name": "SafeERC20FailedOperation",
      "type": "error"
    },
    {
      "inputs": [],
      "name": "SubjectFactory_AuctionAlreadyCreated",
      "type": "error"
    },
    {
      "inputs": [],
      "name": "SubjectFactory_AuctionNotCreated",
      "type": "error"
    },
    {
      "inputs": [],
      "name": "SubjectFactory_AuctionNotDoneYet",
      "type": "error"
    },
    {
      "inputs": [],
      "name": "SubjectFactory_BuyAmountTooLess",
      "type": "error"
    },
    {
      "inputs": [],
      "name": "SubjectFactory_InvalidAuctionContract",
      "type": "error"
    },
    {
      "inputs": [],
      "name": "SubjectFactory_InvalidAuctionDuration",
      "type": "error"
    },
    {
      "inputs": [],
      "name": "SubjectFactory_InvalidAuctionOrderCancellationDuration",
      "type": "error"
    },
    {
      "inputs": [],
      "name": "SubjectFactory_InvalidBeneficiary",
      "type": "error"
    },
    {
      "inputs": [],
      "name": "SubjectFactory_InvalidFeePercentage",
      "type": "error"
    },
    {
      "inputs": [],
      "name": "SubjectFactory_InvalidMoxieBondingCurve",
      "type": "error"
    },
    {
      "inputs": [],
      "name": "SubjectFactory_InvalidOwner",
      "type": "error"
    },
    {
      "inputs": [],
      "name": "SubjectFactory_InvalidReserveRatio",
      "type": "error"
    },
    {
      "inputs": [],
      "name": "SubjectFactory_InvalidSubject",
      "type": "error"
    },
    {
      "inputs": [],
      "name": "SubjectFactory_InvalidToken",
      "type": "error"
    },
    {
      "inputs": [],
      "name": "SubjectFactory_InvalidTokenManager",
      "type": "error"
    },
    {
      "anonymous": false,
      "inputs": [
        {
          "indexed": false,
          "internalType": "uint64",
          "name": "version",
          "type": "uint64"
        }
      ],
      "name": "Initialized",
      "type": "event"
    },
    {
      "anonymous": false,
      "inputs": [
        {
          "indexed": false,
          "internalType": "address",
          "name": "account",
          "type": "address"
        }
      ],
      "name": "Paused",
      "type": "event"
    },
    {
      "anonymous": false,
      "inputs": [
        {
          "indexed": true,
          "internalType": "bytes32",
          "name": "role",
          "type": "bytes32"
        },
        {
          "indexed": true,
          "internalType": "bytes32",
          "name": "previousAdminRole",
          "type": "bytes32"
        },
        {
          "indexed": true,
          "internalType": "bytes32",
          "name": "newAdminRole",
          "type": "bytes32"
        }
      ],
      "name": "RoleAdminChanged",
      "type": "event"
    },
    {
      "anonymous": false,
      "inputs": [
        {
          "indexed": true,
          "internalType": "bytes32",
          "name": "role",
          "type": "bytes32"
        },
        {
          "indexed": true,
          "internalType": "address",
          "name": "account",
          "type": "address"
        },
        {
          "indexed": true,
          "internalType": "address",
          "name": "sender",
          "type": "address"
        }
      ],
      "name": "RoleGranted",
      "type": "event"
    },
    {
      "anonymous": false,
      "inputs": [
        {
          "indexed": true,
          "internalType": "bytes32",
          "name": "role",
          "type": "bytes32"
        },
        {
          "indexed": true,
          "internalType": "address",
          "name": "account",
          "type": "address"
        },
        {
          "indexed": true,
          "internalType": "address",
          "name": "sender",
          "type": "address"
        }
      ],
      "name": "RoleRevoked",
      "type": "event"
    },
    {
      "anonymous": false,
      "inputs": [
        {
          "indexed": false,
          "internalType": "address",
          "name": "_subject",
          "type": "address"
        },
        {
          "indexed": false,
          "internalType": "address",
          "name": "_subjectToken",
          "type": "address"
        },
        {
          "indexed": false,
          "internalType": "uint256",
          "name": "_auctionId",
          "type": "uint256"
        },
        {
          "indexed": false,
          "internalType": "uint256",
          "name": "_bondingSupply",
          "type": "uint256"
        },
        {
          "indexed": false,
          "internalType": "uint256",
          "name": "_bondingAmount",
          "type": "uint256"
        },
        {
          "indexed": false,
          "internalType": "uint256",
          "name": "_protocolFee",
          "type": "uint256"
        },
        {
          "indexed": false,
          "internalType": "uint256",
          "name": "_subjectFee",
          "type": "uint256"
        }
      ],
      "name": "SubjectOnboardingFinished",
      "type": "event"
    },
    {
      "anonymous": false,
      "inputs": [
        {
          "indexed": false,
          "internalType": "address",
          "name": "_subject",
          "type": "address"
        },
        {
          "indexed": false,
          "internalType": "address",
          "name": "_subjectToken",
          "type": "address"
        },
        {
          "indexed": false,
          "internalType": "uint256",
          "name": "_auctionAmount",
          "type": "uint256"
        },
        {
          "indexed": false,
          "internalType": "address",
          "name": "_biddingToken",
          "type": "address"
        },
        {
          "indexed": false,
          "internalType": "uint256",
          "name": "auctionEndDate",
          "type": "uint256"
        },
        {
          "indexed": false,
          "internalType": "uint256",
          "name": "_auctionId",
          "type": "uint256"
        }
      ],
      "name": "SubjectOnboardingInitiated",
      "type": "event"
    },
    {
      "anonymous": false,
      "inputs": [
        {
          "indexed": false,
          "internalType": "address",
          "name": "account",
          "type": "address"
        }
      ],
      "name": "Unpaused",
      "type": "event"
    },
    {
      "anonymous": false,
      "inputs": [
        {
          "indexed": false,
          "internalType": "uint256",
          "name": "_auctionDuration",
          "type": "uint256"
        },
        {
          "indexed": false,
          "internalType": "uint256",
          "name": "_auctionOrderCancellationDuration",
          "type": "uint256"
        }
      ],
      "name": "UpdateAuctionParam",
      "type": "event"
    },
    {
      "anonymous": false,
      "inputs": [
        {
          "indexed": false,
          "internalType": "address",
          "name": "_beneficiary",
          "type": "address"
        }
      ],
      "name": "UpdateBeneficiary",
      "type": "event"
    },
    {
      "anonymous": false,
      "inputs": [
        {
          "indexed": false,
          "internalType": "uint256",
          "name": "_protocolFeePct",
          "type": "uint256"
        },
        {
          "indexed": false,
          "internalType": "uint256",
          "name": "_subjectFeePct",
          "type": "uint256"
        }
      ],
      "name": "UpdateFees",
      "type": "event"
    },
    {
      "inputs": [],
      "name": "AUCTION_ROLE",
      "outputs": [
        {
          "internalType": "bytes32",
          "name": "",
          "type": "bytes32"
        }
      ],
      "stateMutability": "view",
      "type": "function"
    },
    {
      "inputs": [],
      "name": "DEFAULT_ADMIN_ROLE",
      "outputs": [
        {
          "internalType": "bytes32",
          "name": "",
          "type": "bytes32"
        }
      ],
      "stateMutability": "view",
      "type": "function"
    },
    {
      "inputs": [],
      "name": "ONBOARDING_ROLE",
      "outputs": [
        {
          "internalType": "bytes32",
          "name": "",
          "type": "bytes32"
        }
      ],
      "stateMutability": "view",
      "type": "function"
    },
    {
      "inputs": [],
      "name": "PAUSE_ROLE",
      "outputs": [
        {
          "internalType": "bytes32",
          "name": "",
          "type": "bytes32"
        }
      ],
      "stateMutability": "view",
      "type": "function"
    },
    {
      "inputs": [],
      "name": "PCT_BASE",
      "outputs": [
        {
          "internalType": "uint256",
          "name": "",
          "type": "uint256"
        }
      ],
      "stateMutability": "view",
      "type": "function"
    },
    {
      "inputs": [],
      "name": "UPDATE_BENEFICIARY_ROLE",
      "outputs": [
        {
          "internalType": "bytes32",
          "name": "",
          "type": "bytes32"
        }
      ],
      "stateMutability": "view",
      "type": "function"
    },
    {
      "inputs": [],
      "name": "UPDATE_FEES_ROLE",
      "outputs": [
        {
          "internalType": "bytes32",
          "name": "",
          "type": "bytes32"
        }
      ],
      "stateMutability": "view",
      "type": "function"
    },
    {
      "inputs": [],
      "name": "auctionDuration",
      "outputs": [
        {
          "internalType": "uint256",
          "name": "",
          "type": "uint256"
        }
      ],
      "stateMutability": "view",
      "type": "function"
    },
    {
      "inputs": [],
      "name": "auctionOrderCancellationDuration",
      "outputs": [
        {
          "internalType": "uint256",
          "name": "",
          "type": "uint256"
        }
      ],
      "stateMutability": "view",
      "type": "function"
    },
    {
      "inputs": [
        {
          "internalType": "address",
          "name": "",
          "type": "address"
        }
      ],
      "name": "auctions",
      "outputs": [
        {
          "internalType": "uint256",
          "name": "auctionId",
          "type": "uint256"
        },
        {
          "internalType": "uint256",
          "name": "auctionEndDate",
          "type": "uint256"
        },
        {
          "internalType": "uint256",
          "name": "initialSupply",
          "type": "uint256"
        }
      ],
      "stateMutability": "view",
      "type": "function"
    },
    {
      "inputs": [],
      "name": "easyAuction",
      "outputs": [
        {
          "internalType": "contract IEasyAuction",
          "name": "",
          "type": "address"
        }
      ],
      "stateMutability": "view",
      "type": "function"
    },
    {
      "inputs": [],
      "name": "feeBeneficiary",
      "outputs": [
        {
          "internalType": "address",
          "name": "",
          "type": "address"
        }
      ],
      "stateMutability": "view",
      "type": "function"
    },
    {
      "inputs": [
        {
          "internalType": "address",
          "name": "_subject",
          "type": "address"
        },
        {
          "internalType": "uint256",
          "name": "_buyAmount",
          "type": "uint256"
        },
        {
          "internalType": "uint32",
          "name": "_reserveRatio",
          "type": "uint32"
        }
      ],
      "name": "finalizeSubjectOnboarding",
      "outputs": [],
      "stateMutability": "nonpayable",
      "type": "function"
    },
    {
      "inputs": [
        {
          "internalType": "bytes32",
          "name": "role",
          "type": "bytes32"
        }
      ],
      "name": "getRoleAdmin",
      "outputs": [
        {
          "internalType": "bytes32",
          "name": "",
          "type": "bytes32"
        }
      ],
      "stateMutability": "view",
      "type": "function"
    },
    {
      "inputs": [
        {
          "internalType": "bytes32",
          "name": "role",
          "type": "bytes32"
        },
        {
          "internalType": "address",
          "name": "account",
          "type": "address"
        }
      ],
      "name": "grantRole",
      "outputs": [],
      "stateMutability": "nonpayable",
      "type": "function"
    },
    {
      "inputs": [
        {
          "internalType": "bytes32",
          "name": "role",
          "type": "bytes32"
        },
        {
          "internalType": "address",
          "name": "account",
          "type": "address"
        }
      ],
      "name": "hasRole",
      "outputs": [
        {
          "internalType": "bool",
          "name": "",
          "type": "bool"
        }
      ],
      "stateMutability": "view",
      "type": "function"
    },
    {
      "inputs": [
        {
          "internalType": "address",
          "name": "_owner",
          "type": "address"
        },
        {
          "internalType": "address",
          "name": "_tokenManager",
          "type": "address"
        },
        {
          "internalType": "address",
          "name": "_moxieBondingCurve",
          "type": "address"
        },
        {
          "internalType": "address",
          "name": "_token",
          "type": "address"
        },
        {
          "internalType": "address",
          "name": "_easyAuction",
          "type": "address"
        },
        {
          "components": [
            {
              "internalType": "uint256",
              "name": "protocolFeePct",
              "type": "uint256"
            },
            {
              "internalType": "uint256",
              "name": "subjectFeePct",
              "type": "uint256"
            }
          ],
          "internalType": "struct ISubjectFactory.FeeInput",
          "name": "_feeInput",
          "type": "tuple"
        },
        {
          "internalType": "address",
          "name": "_feeBeneficiary",
          "type": "address"
        },
        {
          "internalType": "uint256",
          "name": "_auctionDuration",
          "type": "uint256"
        },
        {
          "internalType": "uint256",
          "name": "_auctionOrderCancellationDuration",
          "type": "uint256"
        }
      ],
      "name": "initialize",
      "outputs": [],
      "stateMutability": "nonpayable",
      "type": "function"
    },
    {
      "inputs": [
        {
          "internalType": "address",
          "name": "_subject",
          "type": "address"
        },
        {
          "components": [
            {
              "internalType": "string",
              "name": "name",
              "type": "string"
            },
            {
              "internalType": "string",
              "name": "symbol",
              "type": "string"
            },
            {
              "internalType": "uint96",
              "name": "initialSupply",
              "type": "uint96"
            },
            {
              "internalType": "uint96",
              "name": "minBuyAmount",
              "type": "uint96"
            },
            {
              "internalType": "uint256",
              "name": "minBiddingAmount",
              "type": "uint256"
            },
            {
              "internalType": "uint256",
              "name": "minFundingThreshold",
              "type": "uint256"
            },
            {
              "internalType": "bool",
              "name": "isAtomicClosureAllowed",
              "type": "bool"
            },
            {
              "internalType": "address",
              "name": "accessManagerContract",
              "type": "address"
            },
            {
              "internalType": "bytes",
              "name": "accessManagerContractData",
              "type": "bytes"
            }
          ],
          "internalType": "struct ISubjectFactory.SubjectAuctionInput",
          "name": "_auctionInput",
          "type": "tuple"
        }
      ],
      "name": "initiateSubjectOnboarding",
      "outputs": [
        {
          "internalType": "uint256",
          "name": "auctionId_",
          "type": "uint256"
        }
      ],
      "stateMutability": "nonpayable",
      "type": "function"
    },
    {
      "inputs": [],
      "name": "moxieBondingCurve",
      "outputs": [
        {
          "internalType": "contract IMoxieBondingCurve",
          "name": "",
          "type": "address"
        }
      ],
      "stateMutability": "view",
      "type": "function"
    },
    {
      "inputs": [],
      "name": "pause",
      "outputs": [],
      "stateMutability": "nonpayable",
      "type": "function"
    },
    {
      "inputs": [],
      "name": "paused",
      "outputs": [
        {
          "internalType": "bool",
          "name": "",
          "type": "bool"
        }
      ],
      "stateMutability": "view",
      "type": "function"
    },
    {
      "inputs": [],
      "name": "protocolFeePct",
      "outputs": [
        {
          "internalType": "uint256",
          "name": "",
          "type": "uint256"
        }
      ],
      "stateMutability": "view",
      "type": "function"
    },
    {
      "inputs": [
        {
          "internalType": "bytes32",
          "name": "role",
          "type": "bytes32"
        },
        {
          "internalType": "address",
          "name": "callerConfirmation",
          "type": "address"
        }
      ],
      "name": "renounceRole",
      "outputs": [],
      "stateMutability": "nonpayable",
      "type": "function"
    },
    {
      "inputs": [
        {
          "internalType": "bytes32",
          "name": "role",
          "type": "bytes32"
        },
        {
          "internalType": "address",
          "name": "account",
          "type": "address"
        }
      ],
      "name": "revokeRole",
      "outputs": [],
      "stateMutability": "nonpayable",
      "type": "function"
    },
    {
      "inputs": [],
      "name": "subjectFactory",
      "outputs": [
        {
          "internalType": "address",
          "name": "",
          "type": "address"
        }
      ],
      "stateMutability": "view",
      "type": "function"
    },
    {
      "inputs": [],
      "name": "subjectFeePct",
      "outputs": [
        {
          "internalType": "uint256",
          "name": "",
          "type": "uint256"
        }
      ],
      "stateMutability": "view",
      "type": "function"
    },
    {
      "inputs": [
        {
          "internalType": "bytes4",
          "name": "interfaceId",
          "type": "bytes4"
        }
      ],
      "name": "supportsInterface",
      "outputs": [
        {
          "internalType": "bool",
          "name": "",
          "type": "bool"
        }
      ],
      "stateMutability": "view",
      "type": "function"
    },
    {
      "inputs": [],
      "name": "token",
      "outputs": [
        {
          "internalType": "contract IERC20Extended",
          "name": "",
          "type": "address"
        }
      ],
      "stateMutability": "view",
      "type": "function"
    },
    {
      "inputs": [],
      "name": "tokenManager",
      "outputs": [
        {
          "internalType": "contract ITokenManager",
          "name": "",
          "type": "address"
        }
      ],
      "stateMutability": "view",
      "type": "function"
    },
    {
      "inputs": [],
      "name": "unpause",
      "outputs": [],
      "stateMutability": "nonpayable",
      "type": "function"
    },
    {
      "inputs": [
        {
          "internalType": "uint256",
          "name": "_auctionDuration",
          "type": "uint256"
        },
        {
          "internalType": "uint256",
          "name": "_auctionOrderCancellationDuration",
          "type": "uint256"
        }
      ],
      "name": "updateAuctionTime",
      "outputs": [],
      "stateMutability": "nonpayable",
      "type": "function"
    },
    {
      "inputs": [
        {
          "internalType": "address",
          "name": "_feeBeneficiary",
          "type": "address"
        }
      ],
      "name": "updateFeeBeneficiary",
      "outputs": [],
      "stateMutability": "nonpayable",
      "type": "function"
    },
    {
      "inputs": [
        {
          "components": [
            {
              "internalType": "uint256",
              "name": "protocolFeePct",
              "type": "uint256"
            },
            {
              "internalType": "uint256",
              "name": "subjectFeePct",
              "type": "uint256"
            }
          ],
          "internalType": "struct ISubjectFactory.FeeInput",
          "name": "_feeInput",
          "type": "tuple"
        }
      ],
      "name": "updateFees",
      "outputs": [],
      "stateMutability": "nonpayable",
      "type": "function"
    }
  ],
  "bytecode": "0x608060405234801561001057600080fd5b50613f7d806100206000396000f3fe608060405234801561001057600080fd5b50600436106101fb5760003560e01c8063492fb3431161011a578063c74c43eb116100ad578063d8e4cdd41161007c578063d8e4cdd41461056c578063e7af32ba1461058a578063f7b01a49146105a8578063fc0c546a146105c6578063fc157cb4146105e4576101fb565b8063c74c43eb146104fa578063cdeaaf9b14610516578063d33bd29d14610534578063d547741f14610550576101fb565b80636c572893116100e95780636c572893146104865780638456cb59146104a257806391d14854146104ac578063a217fddf146104dc576101fb565b8063492fb3431461040e578063537a33811461042c5780635c975abb1461044a57806360e14b6014610468576101fb565b80633126ede1116101925780633a6226bb116101615780633a6226bb146103ac5780633f4ba83a146103c857806341644f8c146103d2578063430730a3146103f0576101fb565b80633126ede11461032457806336568abe1461034257806337ef3fbe1461035e578063389ed2671461038e576101fb565b80631d59410a116101ce5780631d59410a14610288578063248a9ca3146102ba5780632a709b14146102ea5780632f2ff15d14610308576101fb565b806301ffc9a7146102005780630cbf54c814610230578063129f8dca1461024e578063179738d01461026a575b600080fd5b61021a60048036038101906102159190612df1565b610602565b6040516102279190612e39565b60405180910390f35b61023861067c565b6040516102459190612e6d565b60405180910390f35b61026860048036038101906102639190612eb4565b610682565b005b61027261076c565b60405161027f9190612f0d565b60405180910390f35b6102a2600480360381019061029d9190612f86565b610790565b6040516102b193929190612fb3565b60405180910390f35b6102d460048036038101906102cf9190613016565b6107ba565b6040516102e19190612f0d565b60405180910390f35b6102f26107e8565b6040516102ff91906130a2565b60405180910390f35b610322600480360381019061031d91906130bd565b61080c565b005b61032c61082e565b6040516103399190612e6d565b60405180910390f35b61035c600480360381019061035791906130bd565b610834565b005b61037860048036038101906103739190613492565b6108af565b6040516103859190612e6d565b60405180910390f35b610396610ba9565b6040516103a39190612f0d565b60405180910390f35b6103c660048036038101906103c1919061353e565b610bcd565b005b6103d06111dc565b005b6103da611211565b6040516103e79190612f0d565b60405180910390f35b6103f8611235565b6040516104059190612f0d565b60405180910390f35b610416611259565b6040516104239190613618565b60405180910390f35b61043461127f565b6040516104419190613654565b60405180910390f35b6104526112a5565b60405161045f9190612e39565b60405180910390f35b6104706112ca565b60405161047d9190612f0d565b60405180910390f35b6104a0600480360381019061049b9190612f86565b6112ee565b005b6104aa611364565b005b6104c660048036038101906104c191906130bd565b611399565b6040516104d39190612e39565b60405180910390f35b6104e4611412565b6040516104f19190612f0d565b60405180910390f35b610514600480360381019061050f919061366f565b611419565b005b61051e6114b3565b60405161052b9190612e6d565b60405180910390f35b61054e600480360381019061054991906136d8565b6114b9565b005b61056a600480360381019061056591906130bd565b61175b565b005b61057461177d565b6040516105819190612e6d565b60405180910390f35b610592611783565b60405161059f9190613618565b60405180910390f35b6105b06117a9565b6040516105bd919061374c565b60405180910390f35b6105ce6117cf565b6040516105db9190613788565b60405180910390f35b6105ec6117f5565b6040516105f99190612e6d565b60405180910390f35b60007f7965db0b000000000000000000000000000000000000000000000000000000007bffffffffffffffffffffffffffffffffffffffffffffffffffffffff1916827bffffffffffffffffffffffffffffffffffffffffffffffffffffffff19161480610675575061067482611801565b5b9050919050565b60075481565b7fc5e2d1653feba496cf5ce3a744b90ea18acf0df3d036aba9b2f85992a14679066106ac8161186b565b600083036106e6576040517f936914f800000000000000000000000000000000000000000000000000000000815260040160405180910390fd5b60008203610720576040517fa1486c1500000000000000000000000000000000000000000000000000000000815260040160405180910390fd5b82600781905550816008819055507f6a40a5dc1fd517e0fe16eca9e81dd0e0d2b9b1f06f7799095c470000c8c488d0838360405161075f9291906137a3565b60405180910390a1505050565b7f41ab08329fb0a2935fa2b8b127e3380ff152b38c9f016ae14226bf4decc8746681565b600a6020528060005260406000206000915090508060000154908060010154908060020154905083565b6000806107c561187f565b905080600001600084815260200190815260200160002060010154915050919050565b60008054906101000a900473ffffffffffffffffffffffffffffffffffffffff1681565b610815826107ba565b61081e8161186b565b61082883836118a7565b50505050565b60085481565b61083c6119a8565b73ffffffffffffffffffffffffffffffffffffffff168173ffffffffffffffffffffffffffffffffffffffff16146108a0576040517f6697b23200000000000000000000000000000000000000000000000000000000815260040160405180910390fd5b6108aa82826119b0565b505050565b60006108b9611ab2565b7f41ab08329fb0a2935fa2b8b127e3380ff152b38c9f016ae14226bf4decc874666108e38161186b565b600073ffffffffffffffffffffffffffffffffffffffff168473ffffffffffffffffffffffffffffffffffffffff1603610949576040517f2d44adc700000000000000000000000000000000000000000000000000000000815260040160405180910390fd5b6000600a60008673ffffffffffffffffffffffffffffffffffffffff1673ffffffffffffffffffffffffffffffffffffffff16815260200190815260200160002060000154146109c5576040517fb347d57900000000000000000000000000000000000000000000000000000000815260040160405180910390fd5b60008060009054906101000a900473ffffffffffffffffffffffffffffffffffffffff1673ffffffffffffffffffffffffffffffffffffffff166316bc0cf0868660000151876020015188604001518960e001516040518663ffffffff1660e01b8152600401610a3995949392919061387c565b6020604051808303816000875af1158015610a58573d6000803e3d6000fd5b505050506040513d601f19601f82011682018060405250810190610a7c91906138f2565b90508073ffffffffffffffffffffffffffffffffffffffff1663095ea7b3600660009054906101000a900473ffffffffffffffffffffffffffffffffffffffff1686604001516040518363ffffffff1660e01b8152600401610adf92919061391f565b6020604051808303816000875af1158015610afe573d6000803e3d6000fd5b505050506040513d601f19601f82011682018060405250810190610b22919061395d565b50600080610b31878488611af3565b915091508194507f6fe3c8bc2a001eda7bcb9594360771389b00cd33722aa178cc817bd906120eaf87848860400151600960009054906101000a900473ffffffffffffffffffffffffffffffffffffffff16858a604051610b979695949392919061398a565b60405180910390a15050505092915050565b7f139c2898040ef16910dc9f44dc697df79363da767d8bc92f2e310312b816e46d81565b6000610bd7611cf5565b905060008160000160089054906101000a900460ff1615905060008260000160009054906101000a900467ffffffffffffffff1690506000808267ffffffffffffffff16148015610c255750825b9050600060018367ffffffffffffffff16148015610c5a575060003073ffffffffffffffffffffffffffffffffffffffff163b145b905081158015610c68575080155b15610c9f576040517ff92ee8a900000000000000000000000000000000000000000000000000000000815260040160405180910390fd5b60018560000160006101000a81548167ffffffffffffffff021916908367ffffffffffffffff1602179055508315610cef5760018560000160086101000a81548160ff0219169083151502179055505b600073ffffffffffffffffffffffffffffffffffffffff168e73ffffffffffffffffffffffffffffffffffffffff1603610d55576040517f3ea5e1ca00000000000000000000000000000000000000000000000000000000815260040160405180910390fd5b600073ffffffffffffffffffffffffffffffffffffffff168d73ffffffffffffffffffffffffffffffffffffffff1603610dbb576040517fdf26fddd00000000000000000000000000000000000000000000000000000000815260040160405180910390fd5b600073ffffffffffffffffffffffffffffffffffffffff168c73ffffffffffffffffffffffffffffffffffffffff1603610e21576040517ffa06deda00000000000000000000000000000000000000000000000000000000815260040160405180910390fd5b600073ffffffffffffffffffffffffffffffffffffffff168b73ffffffffffffffffffffffffffffffffffffffff1603610e87576040517f1aa291de00000000000000000000000000000000000000000000000000000000815260040160405180910390fd5b600073ffffffffffffffffffffffffffffffffffffffff168a73ffffffffffffffffffffffffffffffffffffffff1603610eed576040517fe2562cd800000000000000000000000000000000000000000000000000000000815260040160405180910390fd5b610efa8960000151611d1d565b1580610f105750610f0e8960200151611d1d565b155b15610f47576040517f540685df00000000000000000000000000000000000000000000000000000000815260040160405180910390fd5b610f5088611d31565b610f86576040517f7539c7ce00000000000000000000000000000000000000000000000000000000815260040160405180910390fd5b60008703610fc0576040517f936914f800000000000000000000000000000000000000000000000000000000815260040160405180910390fd5b60008603610ffa576040517fa1486c1500000000000000000000000000000000000000000000000000000000815260040160405180910390fd5b8860000151600281905550886020015160038190555087600460006101000a81548173ffffffffffffffffffffffffffffffffffffffff021916908373ffffffffffffffffffffffffffffffffffffffff1602179055508a600960006101000a81548173ffffffffffffffffffffffffffffffffffffffff021916908373ffffffffffffffffffffffffffffffffffffffff160217905550866007819055508560088190555089600660006101000a81548173ffffffffffffffffffffffffffffffffffffffff021916908373ffffffffffffffffffffffffffffffffffffffff1602179055508c6000806101000a81548173ffffffffffffffffffffffffffffffffffffffff021916908373ffffffffffffffffffffffffffffffffffffffff1602179055508b600160006101000a81548173ffffffffffffffffffffffffffffffffffffffff021916908373ffffffffffffffffffffffffffffffffffffffff16021790555061116f6000801b8f6118a7565b5083156111cc5760008560000160086101000a81548160ff0219169083151502179055507fc7f505b2f371ae2175ee4913f4499e1f2633a7b5936321eed1cdaeb6115181d260016040516111c39190613a3a565b60405180910390a15b5050505050505050505050505050565b7f139c2898040ef16910dc9f44dc697df79363da767d8bc92f2e310312b816e46d6112068161186b565b61120e611d6a565b50565b7ff7ea2b80c7b6a2cab2c11d2290cb005c3748397358a25e17113658c83b73259381565b7fc5e2d1653feba496cf5ce3a744b90ea18acf0df3d036aba9b2f85992a146790681565b600460009054906101000a900473ffffffffffffffffffffffffffffffffffffffff1681565b600660009054906101000a900473ffffffffffffffffffffffffffffffffffffffff1681565b6000806112b0611ddc565b90508060000160009054906101000a900460ff1691505090565b7f5f9be2932ed3a723f295a763be1804c7ebfd1a41c1348fb8bdf5be1c5cdca82281565b7ff7ea2b80c7b6a2cab2c11d2290cb005c3748397358a25e17113658c83b7325936113188161186b565b61132182611d31565b611357576040517f7539c7ce00000000000000000000000000000000000000000000000000000000815260040160405180910390fd5b61136082611e04565b5050565b7f139c2898040ef16910dc9f44dc697df79363da767d8bc92f2e310312b816e46d61138e8161186b565b611396611e7f565b50565b6000806113a461187f565b905080600001600085815260200190815260200160002060000160008473ffffffffffffffffffffffffffffffffffffffff1673ffffffffffffffffffffffffffffffffffffffff16815260200190815260200160002060009054906101000a900460ff1691505092915050565b6000801b81565b7f5f9be2932ed3a723f295a763be1804c7ebfd1a41c1348fb8bdf5be1c5cdca8226114438161186b565b6114508260000151611d1d565b158061146657506114648260200151611d1d565b155b1561149d576040517f540685df00000000000000000000000000000000000000000000000000000000815260040160405180910390fd5b6114af82600001518360200151611ef1565b5050565b60025481565b6114c1611ab2565b7f41ab08329fb0a2935fa2b8b127e3380ff152b38c9f016ae14226bf4decc874666114eb8161186b565b600073ffffffffffffffffffffffffffffffffffffffff168473ffffffffffffffffffffffffffffffffffffffff1603611551576040517f2d44adc700000000000000000000000000000000000000000000000000000000815260040160405180910390fd5b60008263ffffffff1603611591576040517ffa427b3200000000000000000000000000000000000000000000000000000000815260040160405180910390fd5b6000600a60008673ffffffffffffffffffffffffffffffffffffffff1673ffffffffffffffffffffffffffffffffffffffff1681526020019081526020016000206040518060600160405290816000820154815260200160018201548152602001600282015481525050905060008160000151905060008103611640576040517fc1b57a9100000000000000000000000000000000000000000000000000000000815260040160405180910390fd5b816020015142101561167e576040517f6a1941ba00000000000000000000000000000000000000000000000000000000815260040160405180910390fd5b6116cd333087600960009054906101000a900473ffffffffffffffffffffffffffffffffffffffff1673ffffffffffffffffffffffffffffffffffffffff16611f40909392919063ffffffff16565b600a60008773ffffffffffffffffffffffffffffffffffffffff1673ffffffffffffffffffffffffffffffffffffffff168152602001908152602001600020600080820160009055600182016000905560028201600090555050600080600061173b848a8760400151611fc2565b925092509250611750848a84868b868e6123fd565b505050505050505050565b611764826107ba565b61176d8161186b565b61177783836119b0565b50505050565b60035481565b600560009054906101000a900473ffffffffffffffffffffffffffffffffffffffff1681565b600160009054906101000a900473ffffffffffffffffffffffffffffffffffffffff1681565b600960009054906101000a900473ffffffffffffffffffffffffffffffffffffffff1681565b670de0b6b3a764000081565b60007f01ffc9a7000000000000000000000000000000000000000000000000000000007bffffffffffffffffffffffffffffffffffffffffffffffffffffffff1916827bffffffffffffffffffffffffffffffffffffffffffffffffffffffff1916149050919050565b61187c816118776119a8565b612963565b50565b60007f02dd7bc7dec4dceedda775e58dd541e08a116c6c53815c0bd028192f7b626800905090565b6000806118b261187f565b90506118be8484611399565b61199c57600181600001600086815260200190815260200160002060000160008573ffffffffffffffffffffffffffffffffffffffff1673ffffffffffffffffffffffffffffffffffffffff16815260200190815260200160002060006101000a81548160ff0219169083151502179055506119386119a8565b73ffffffffffffffffffffffffffffffffffffffff168373ffffffffffffffffffffffffffffffffffffffff16857f2f8788117e7eff1d82e926ec794901d17c78024a50270940304540a733656f0d60405160405180910390a460019150506119a2565b60009150505b92915050565b600033905090565b6000806119bb61187f565b90506119c78484611399565b15611aa657600081600001600086815260200190815260200160002060000160008573ffffffffffffffffffffffffffffffffffffffff1673ffffffffffffffffffffffffffffffffffffffff16815260200190815260200160002060006101000a81548160ff021916908315150217905550611a426119a8565b73ffffffffffffffffffffffffffffffffffffffff168373ffffffffffffffffffffffffffffffffffffffff16857ff6391f5c32d9c69d2a47ea670b442974b53935d1edc7fd64eb21e047a839171b60405160405180910390a46001915050611aac565b60009150505b92915050565b611aba6112a5565b15611af1576040517fd93c066500000000000000000000000000000000000000000000000000000000815260040160405180910390fd5b565b60008060075442611b049190613a84565b9050600660009054906101000a900473ffffffffffffffffffffffffffffffffffffffff1673ffffffffffffffffffffffffffffffffffffffff16630a4cd6c985600960009054906101000a900473ffffffffffffffffffffffffffffffffffffffff1660085442611b769190613a84565b85886040015189606001518a608001518b60a001518c60c001518d60e001518e61010001516040518c63ffffffff1660e01b8152600401611bc19b9a99989796959493929190613b1c565b6020604051808303816000875af1158015611be0573d6000803e3d6000fd5b505050506040513d601f19601f82011682018060405250810190611c049190613be3565b915081600a60008773ffffffffffffffffffffffffffffffffffffffff1673ffffffffffffffffffffffffffffffffffffffff1681526020019081526020016000206000018190555080600a60008773ffffffffffffffffffffffffffffffffffffffff1673ffffffffffffffffffffffffffffffffffffffff1681526020019081526020016000206001018190555082604001516bffffffffffffffffffffffff16600a60008773ffffffffffffffffffffffffffffffffffffffff1673ffffffffffffffffffffffffffffffffffffffff16815260200190815260200160002060020181905550935093915050565b60007ff0c57e16840df040f15088dc2f81fe391c3923bec73e23a9662efc9c229c6a00905090565b6000670de0b6b3a764000082109050919050565b60008073ffffffffffffffffffffffffffffffffffffffff168273ffffffffffffffffffffffffffffffffffffffff1614159050919050565b611d726129b4565b6000611d7c611ddc565b905060008160000160006101000a81548160ff0219169083151502179055507f5db9ee0a495bf2e6ff9c91a7834c1ba4fdd244a5e8aa4e537bd38aeae4b073aa611dc46119a8565b604051611dd19190613618565b60405180910390a150565b60007fcd5ed15c6e187e77e9aee88184c21f4f2182ab5827cb3b7e07fbedcd63f03300905090565b80600460006101000a81548173ffffffffffffffffffffffffffffffffffffffff021916908373ffffffffffffffffffffffffffffffffffffffff1602179055507fe6131a64e93e9aa4ff38892c34d563c06dcc1e03b3d6897cc65f0903e2ad684881604051611e749190613618565b60405180910390a150565b611e87611ab2565b6000611e91611ddc565b905060018160000160006101000a81548160ff0219169083151502179055507f62e78cea01bee320cd4e420270b5ea74000d11b0c9f74754ebdbfc544b05a258611ed96119a8565b604051611ee69190613618565b60405180910390a150565b81600281905550806003819055507f53482196ef67ac615caab1c3eca2c270acbfdcd75e57c5f24c1b98b10c8e6e04600254600354604051611f349291906137a3565b60405180910390a15050565b611fbc848573ffffffffffffffffffffffffffffffffffffffff166323b872dd868686604051602401611f7593929190613c10565b604051602081830303815290604052915060e01b6020820180517bffffffffffffffffffffffffffffffffffffffffffffffffffffffff83818316178352505050506129f4565b50505050565b60008060008060008054906101000a900473ffffffffffffffffffffffffffffffffffffffff1673ffffffffffffffffffffffffffffffffffffffff1663e4860339876040518263ffffffff1660e01b81526004016120219190613618565b6020604051808303816000875af1158015612040573d6000803e3d6000fd5b505050506040513d601f19601f8201168201806040525081019061206491906138f2565b905060008173ffffffffffffffffffffffffffffffffffffffff166370a08231306040518263ffffffff1660e01b81526004016120a19190613618565b602060405180830381865afa1580156120be573d6000803e3d6000fd5b505050506040513d601f19601f820116820180604052508101906120e29190613be3565b90506000600960009054906101000a900473ffffffffffffffffffffffffffffffffffffffff1673ffffffffffffffffffffffffffffffffffffffff166370a08231306040518263ffffffff1660e01b81526004016121419190613618565b602060405180830381865afa15801561215e573d6000803e3d6000fd5b505050506040513d601f19601f820116820180604052508101906121829190613be3565b9050600660009054906101000a900473ffffffffffffffffffffffffffffffffffffffff1673ffffffffffffffffffffffffffffffffffffffff16632e9936118a6040518263ffffffff1660e01b81526004016121df9190612e6d565b6020604051808303816000875af11580156121fe573d6000803e3d6000fd5b505050506040513d601f19601f820116820180604052508101906122229190613c5c565b935060008373ffffffffffffffffffffffffffffffffffffffff166370a08231306040518263ffffffff1660e01b815260040161225f9190613618565b602060405180830381865afa15801561227c573d6000803e3d6000fd5b505050506040513d601f19601f820116820180604052508101906122a09190613be3565b90506000600960009054906101000a900473ffffffffffffffffffffffffffffffffffffffff1673ffffffffffffffffffffffffffffffffffffffff166370a08231306040518263ffffffff1660e01b81526004016122ff9190613618565b602060405180830381865afa15801561231c573d6000803e3d6000fd5b505050506040513d601f19601f820116820180604052508101906123409190613be3565b9050838261234e9190613c89565b896123599190613c89565b975082816123679190613c89565b96506000888a6123779190613c89565b905060008111156123ee578573ffffffffffffffffffffffffffffffffffffffff166342966c68826040518263ffffffff1660e01b81526004016123bb9190612e6d565b600060405180830381600087803b1580156123d557600080fd5b505af11580156123e9573d6000803e3d6000fd5b505050505b50505050505093509350939050565b60006124098383612a8b565b905060008103612445576040517fe2d3672300000000000000000000000000000000000000000000000000000000815260040160405180910390fd5b60008054906101000a900473ffffffffffffffffffffffffffffffffffffffff1673ffffffffffffffffffffffffffffffffffffffff1663c6c3bbe68830846040518463ffffffff1660e01b81526004016124a293929190613c10565b6020604051808303816000875af11580156124c1573d6000803e3d6000fd5b505050506040513d601f19601f820116820180604052508101906124e5919061395d565b506000806124fd84896124f89190613a84565b612adb565b9150915060008183868b6125119190613a84565b61251b9190613c89565b6125259190613c89565b9050600960009054906101000a900473ffffffffffffffffffffffffffffffffffffffff1673ffffffffffffffffffffffffffffffffffffffff1663095ea7b3600160009054906101000a900473ffffffffffffffffffffffffffffffffffffffff16836040518363ffffffff1660e01b81526004016125a6929190613cbd565b6020604051808303816000875af11580156125c5573d6000803e3d6000fd5b505050506040513d601f19601f820116820180604052508101906125e9919061395d565b50600084896125f89190613a84565b9050600160009054906101000a900473ffffffffffffffffffffffffffffffffffffffff1673ffffffffffffffffffffffffffffffffffffffff1663ba6da0018c8a84866040518563ffffffff1660e01b815260040161265b9493929190613cf5565b6020604051808303816000875af115801561267a573d6000803e3d6000fd5b505050506040513d601f19601f8201168201806040525081019061269e919061395d565b5061270e600460009054906101000a900473ffffffffffffffffffffffffffffffffffffffff1685600960009054906101000a900473ffffffffffffffffffffffffffffffffffffffff1673ffffffffffffffffffffffffffffffffffffffff16612b299092919063ffffffff16565b600960009054906101000a900473ffffffffffffffffffffffffffffffffffffffff1673ffffffffffffffffffffffffffffffffffffffff1663095ea7b3600160009054906101000a900473ffffffffffffffffffffffffffffffffffffffff16856040518363ffffffff1660e01b815260040161278d929190613cbd565b6020604051808303816000875af11580156127ac573d6000803e3d6000fd5b505050506040513d601f19601f820116820180604052508101906127d0919061395d565b50600160009054906101000a900473ffffffffffffffffffffffffffffffffffffffff1673ffffffffffffffffffffffffffffffffffffffff166352fd87e58c858e60006040518563ffffffff1660e01b81526004016128339493929190613d75565b6020604051808303816000875af1158015612852573d6000803e3d6000fd5b505050506040513d601f19601f820116820180604052508101906128769190613be3565b507f8a5439e754019b388689fac2719ea5351c2d8a330326fffaa5ae8e20df3df0368b60008054906101000a900473ffffffffffffffffffffffffffffffffffffffff1673ffffffffffffffffffffffffffffffffffffffff1663e48603398e6040518263ffffffff1660e01b81526004016128f29190613618565b6020604051808303816000875af1158015612911573d6000803e3d6000fd5b505050506040513d601f19601f8201168201806040525081019061293591906138f2565b8e8486898960405161294d9796959493929190613dba565b60405180910390a1505050505050505050505050565b61296d8282611399565b6129b05780826040517fe2517d3f0000000000000000000000000000000000000000000000000000000081526004016129a7929190613e29565b60405180910390fd5b5050565b6129bc6112a5565b6129f2576040517f8dfc202b00000000000000000000000000000000000000000000000000000000815260040160405180910390fd5b565b6000612a1f828473ffffffffffffffffffffffffffffffffffffffff16612ba890919063ffffffff16565b90506000815114158015612a44575080806020019051810190612a42919061395d565b155b15612a8657826040517f5274afe7000000000000000000000000000000000000000000000000000000008152600401612a7d9190613618565b60405180910390fd5b505050565b6000806000612a9985612bbe565b9250925050806bffffffffffffffffffffffff1684836bffffffffffffffffffffffff16612ac79190613e52565b612ad19190613ec3565b9250505092915050565b600080670de0b6b3a764000060025484612af59190613e52565b612aff9190613ec3565b9150670de0b6b3a764000060035484612b189190613e52565b612b229190613ec3565b9050915091565b612ba3838473ffffffffffffffffffffffffffffffffffffffff1663a9059cbb8585604051602401612b5c929190613cbd565b604051602081830303815290604052915060e01b6020820180517bffffffffffffffffffffffffffffffffffffffffffffffffffffffff83818316178352505050506129f4565b505050565b6060612bb683836000612be4565b905092915050565b600080600060c08460001c901c925060608460001c901c91508360001c90509193909250565b606081471015612c2b57306040517fcd786059000000000000000000000000000000000000000000000000000000008152600401612c229190613618565b60405180910390fd5b6000808573ffffffffffffffffffffffffffffffffffffffff168486604051612c549190613f30565b60006040518083038185875af1925050503d8060008114612c91576040519150601f19603f3d011682016040523d82523d6000602084013e612c96565b606091505b5091509150612ca6868383612cb1565b925050509392505050565b606082612cc657612cc182612d40565b612d38565b60008251148015612cee575060008473ffffffffffffffffffffffffffffffffffffffff163b145b15612d3057836040517f9996b315000000000000000000000000000000000000000000000000000000008152600401612d279190613618565b60405180910390fd5b819050612d39565b5b9392505050565b600081511115612d535780518082602001fd5b6040517f1425ea4200000000000000000000000000000000000000000000000000000000815260040160405180910390fd5b6000604051905090565b600080fd5b600080fd5b60007fffffffff0000000000000000000000000000000000000000000000000000000082169050919050565b612dce81612d99565b8114612dd957600080fd5b50565b600081359050612deb81612dc5565b92915050565b600060208284031215612e0757612e06612d8f565b5b6000612e1584828501612ddc565b91505092915050565b60008115159050919050565b612e3381612e1e565b82525050565b6000602082019050612e4e6000830184612e2a565b92915050565b6000819050919050565b612e6781612e54565b82525050565b6000602082019050612e826000830184612e5e565b92915050565b612e9181612e54565b8114612e9c57600080fd5b50565b600081359050612eae81612e88565b92915050565b60008060408385031215612ecb57612eca612d8f565b5b6000612ed985828601612e9f565b9250506020612eea85828601612e9f565b9150509250929050565b6000819050919050565b612f0781612ef4565b82525050565b6000602082019050612f226000830184612efe565b92915050565b600073ffffffffffffffffffffffffffffffffffffffff82169050919050565b6000612f5382612f28565b9050919050565b612f6381612f48565b8114612f6e57600080fd5b50565b600081359050612f8081612f5a565b92915050565b600060208284031215612f9c57612f9b612d8f565b5b6000612faa84828501612f71565b91505092915050565b6000606082019050612fc86000830186612e5e565b612fd56020830185612e5e565b612fe26040830184612e5e565b949350505050565b612ff381612ef4565b8114612ffe57600080fd5b50565b60008135905061301081612fea565b92915050565b60006020828403121561302c5761302b612d8f565b5b600061303a84828501613001565b91505092915050565b6000819050919050565b600061306861306361305e84612f28565b613043565b612f28565b9050919050565b600061307a8261304d565b9050919050565b600061308c8261306f565b9050919050565b61309c81613081565b82525050565b60006020820190506130b76000830184613093565b92915050565b600080604083850312156130d4576130d3612d8f565b5b60006130e285828601613001565b92505060206130f385828601612f71565b9150509250929050565b600080fd5b6000601f19601f8301169050919050565b7f4e487b7100000000000000000000000000000000000000000000000000000000600052604160045260246000fd5b61314b82613102565b810181811067ffffffffffffffff8211171561316a57613169613113565b5b80604052505050565b600061317d612d85565b90506131898282613142565b919050565b600080fd5b600080fd5b600080fd5b600067ffffffffffffffff8211156131b8576131b7613113565b5b6131c182613102565b9050602081019050919050565b82818337600083830152505050565b60006131f06131eb8461319d565b613173565b90508281526020810184848401111561320c5761320b613198565b5b6132178482856131ce565b509392505050565b600082601f83011261323457613233613193565b5b81356132448482602086016131dd565b91505092915050565b60006bffffffffffffffffffffffff82169050919050565b61326e8161324d565b811461327957600080fd5b50565b60008135905061328b81613265565b92915050565b61329a81612e1e565b81146132a557600080fd5b50565b6000813590506132b781613291565b92915050565b600067ffffffffffffffff8211156132d8576132d7613113565b5b6132e182613102565b9050602081019050919050565b60006133016132fc846132bd565b613173565b90508281526020810184848401111561331d5761331c613198565b5b6133288482856131ce565b509392505050565b600082601f83011261334557613344613193565b5b81356133558482602086016132ee565b91505092915050565b60006101208284031215613375576133746130fd565b5b613380610120613173565b9050600082013567ffffffffffffffff8111156133a05761339f61318e565b5b6133ac8482850161321f565b600083015250602082013567ffffffffffffffff8111156133d0576133cf61318e565b5b6133dc8482850161321f565b60208301525060406133f08482850161327c565b60408301525060606134048482850161327c565b606083015250608061341884828501612e9f565b60808301525060a061342c84828501612e9f565b60a08301525060c0613440848285016132a8565b60c08301525060e061345484828501612f71565b60e08301525061010082013567ffffffffffffffff8111156134795761347861318e565b5b61348584828501613330565b6101008301525092915050565b600080604083850312156134a9576134a8612d8f565b5b60006134b785828601612f71565b925050602083013567ffffffffffffffff8111156134d8576134d7612d94565b5b6134e48582860161335e565b9150509250929050565b600060408284031215613504576135036130fd565b5b61350e6040613173565b9050600061351e84828501612e9f565b600083015250602061353284828501612e9f565b60208301525092915050565b60008060008060008060008060006101408a8c03121561356157613560612d8f565b5b600061356f8c828d01612f71565b99505060206135808c828d01612f71565b98505060406135918c828d01612f71565b97505060606135a28c828d01612f71565b96505060806135b38c828d01612f71565b95505060a06135c48c828d016134ee565b94505060e06135d58c828d01612f71565b9350506101006135e78c828d01612e9f565b9250506101206135f98c828d01612e9f565b9150509295985092959850929598565b61361281612f48565b82525050565b600060208201905061362d6000830184613609565b92915050565b600061363e8261306f565b9050919050565b61364e81613633565b82525050565b60006020820190506136696000830184613645565b92915050565b60006040828403121561368557613684612d8f565b5b6000613693848285016134ee565b91505092915050565b600063ffffffff82169050919050565b6136b58161369c565b81146136c057600080fd5b50565b6000813590506136d2816136ac565b92915050565b6000806000606084860312156136f1576136f0612d8f565b5b60006136ff86828701612f71565b935050602061371086828701612e9f565b9250506040613721868287016136c3565b9150509250925092565b60006137368261306f565b9050919050565b6137468161372b565b82525050565b6000602082019050613761600083018461373d565b92915050565b60006137728261306f565b9050919050565b61378281613767565b82525050565b600060208201905061379d6000830184613779565b92915050565b60006040820190506137b86000830185612e5e565b6137c56020830184612e5e565b9392505050565b600081519050919050565b600082825260208201905092915050565b60005b838110156138065780820151818401526020810190506137eb565b60008484015250505050565b600061381d826137cc565b61382781856137d7565b93506138378185602086016137e8565b61384081613102565b840191505092915050565b600061386661386161385c8461324d565b613043565b612e54565b9050919050565b6138768161384b565b82525050565b600060a0820190506138916000830188613609565b81810360208301526138a38187613812565b905081810360408301526138b78186613812565b90506138c6606083018561386d565b6138d36080830184613609565b9695505050505050565b6000815190506138ec81612f5a565b92915050565b60006020828403121561390857613907612d8f565b5b6000613916848285016138dd565b91505092915050565b60006040820190506139346000830185613609565b613941602083018461386d565b9392505050565b60008151905061395781613291565b92915050565b60006020828403121561397357613972612d8f565b5b600061398184828501613948565b91505092915050565b600060c08201905061399f6000830189613609565b6139ac6020830188613609565b6139b9604083018761386d565b6139c66060830186613609565b6139d36080830185612e5e565b6139e060a0830184612e5e565b979650505050505050565b6000819050919050565b600067ffffffffffffffff82169050919050565b6000613a24613a1f613a1a846139eb565b613043565b6139f5565b9050919050565b613a3481613a09565b82525050565b6000602082019050613a4f6000830184613a2b565b92915050565b7f4e487b7100000000000000000000000000000000000000000000000000000000600052601160045260246000fd5b6000613a8f82612e54565b9150613a9a83612e54565b9250828201905080821115613ab257613ab1613a55565b5b92915050565b613ac18161324d565b82525050565b600081519050919050565b600082825260208201905092915050565b6000613aee82613ac7565b613af88185613ad2565b9350613b088185602086016137e8565b613b1181613102565b840191505092915050565b600061016082019050613b32600083018e613609565b613b3f602083018d613609565b613b4c604083018c612e5e565b613b59606083018b612e5e565b613b66608083018a613ab8565b613b7360a0830189613ab8565b613b8060c0830188612e5e565b613b8d60e0830187612e5e565b613b9b610100830186612e2a565b613ba9610120830185613609565b818103610140830152613bbc8184613ae3565b90509c9b505050505050505050505050565b600081519050613bdd81612e88565b92915050565b600060208284031215613bf957613bf8612d8f565b5b6000613c0784828501613bce565b91505092915050565b6000606082019050613c256000830186613609565b613c326020830185613609565b613c3f6040830184612e5e565b949350505050565b600081519050613c5681612fea565b92915050565b600060208284031215613c7257613c71612d8f565b5b6000613c8084828501613c47565b91505092915050565b6000613c9482612e54565b9150613c9f83612e54565b9250828203905081811115613cb757613cb6613a55565b5b92915050565b6000604082019050613cd26000830185613609565b613cdf6020830184612e5e565b9392505050565b613cef8161369c565b82525050565b6000608082019050613d0a6000830187613609565b613d176020830186613ce6565b613d246040830185612e5e565b613d316060830184612e5e565b95945050505050565b6000819050919050565b6000613d5f613d5a613d5584613d3a565b613043565b612e54565b9050919050565b613d6f81613d44565b82525050565b6000608082019050613d8a6000830187613609565b613d976020830186612e5e565b613da46040830185613609565b613db16060830184613d66565b95945050505050565b600060e082019050613dcf600083018a613609565b613ddc6020830189613609565b613de96040830188612e5e565b613df66060830187612e5e565b613e036080830186612e5e565b613e1060a0830185612e5e565b613e1d60c0830184612e5e565b98975050505050505050565b6000604082019050613e3e6000830185613609565b613e4b6020830184612efe565b9392505050565b6000613e5d82612e54565b9150613e6883612e54565b9250828202613e7681612e54565b91508282048414831517613e8d57613e8c613a55565b5b5092915050565b7f4e487b7100000000000000000000000000000000000000000000000000000000600052601260045260246000fd5b6000613ece82612e54565b9150613ed983612e54565b925082613ee957613ee8613e94565b5b828204905092915050565b600081905092915050565b6000613f0a82613ac7565b613f148185613ef4565b9350613f248185602086016137e8565b80840191505092915050565b6000613f3c8284613eff565b91508190509291505056fea2646970667358221220093a1ccaca00d165f1213a75c5298a9cabd3b05303fcf2bc5a5276a0693f276f64736f6c63430008180033",
  "linkReferences": {},
  "deployedLinkReferences": {}
}