{
  "contracts/MoxieBondingCurve.sol": {
    "MoxieBondingCurve": {
      "abi": [
        {
          "inputs": [],
          "name": "AccessControlBadConfirmation",
          "type": "error"
        },
        {
          "inputs": [
            {
              "internalType": "address",
              "name": "account",
              "type": "address"
            },
            {
              "internalType": "bytes32",
              "name": "neededRole",
              "type": "bytes32"
            }
          ],
          "name": "AccessControlUnauthorizedAccount",
          "type": "error"
        },
        {
          "inputs": [
            {
              "internalType": "address",
              "name": "target",
              "type": "address"
            }
          ],
          "name": "AddressEmptyCode",
          "type": "error"
        },
        {
          "inputs": [
            {
              "internalType": "address",
              "name": "account",
              "type": "address"
            }
          ],
          "name": "AddressInsufficientBalance",
          "type": "error"
        },
        {
          "inputs": [],
          "name": "EnforcedPause",
          "type": "error"
        },
        {
          "inputs": [],
          "name": "ExpectedPause",
          "type": "error"
        },
        {
          "inputs": [],
          "name": "FailedInnerCall",
          "type": "error"
        },
        {
          "inputs": [],
          "name": "InvalidInitialization",
          "type": "error"
        },
        {
          "inputs": [],
          "name": "MoxieBondingCurve_InvalidAmount",
          "type": "error"
        },
        {
          "inputs": [],
          "name": "MoxieBondingCurve_InvalidBeneficiary",
          "type": "error"
        },
        {
          "inputs": [],
          "name": "MoxieBondingCurve_InvalidDepositAmount",
          "type": "error"
        },
        {
          "inputs": [],
          "name": "MoxieBondingCurve_InvalidFeePercentage",
          "type": "error"
        },
        {
          "inputs": [],
          "name": "MoxieBondingCurve_InvalidFormula",
          "type": "error"
        },
        {
          "inputs": [],
          "name": "MoxieBondingCurve_InvalidOwner",
          "type": "error"
        },
        {
          "inputs": [],
          "name": "MoxieBondingCurve_InvalidReserveRation",
          "type": "error"
        },
        {
          "inputs": [],
          "name": "MoxieBondingCurve_InvalidSellAmount",
          "type": "error"
        },
        {
          "inputs": [],
          "name": "MoxieBondingCurve_InvalidSubject",
          "type": "error"
        },
        {
          "inputs": [],
          "name": "MoxieBondingCurve_InvalidSubjectFactory",
          "type": "error"
        },
        {
          "inputs": [],
          "name": "MoxieBondingCurve_InvalidSubjectSupply",
          "type": "error"
        },
        {
          "inputs": [],
          "name": "MoxieBondingCurve_InvalidSubjectToken",
          "type": "error"
        },
        {
          "inputs": [],
          "name": "MoxieBondingCurve_InvalidToken",
          "type": "error"
        },
        {
          "inputs": [],
          "name": "MoxieBondingCurve_InvalidTokenManager",
          "type": "error"
        },
        {
          "inputs": [],
          "name": "MoxieBondingCurve_InvalidVault",
          "type": "error"
        },
        {
          "inputs": [],
          "name": "MoxieBondingCurve_OnlySubjectFactory",
          "type": "error"
        },
        {
          "inputs": [],
          "name": "MoxieBondingCurve_SlippageExceedsLimit",
          "type": "error"
        },
        {
          "inputs": [],
          "name": "MoxieBondingCurve_SubjectAlreadyInitialized",
          "type": "error"
        },
        {
          "inputs": [],
          "name": "MoxieBondingCurve_SubjectNotInitialized",
          "type": "error"
        },
        {
          "inputs": [],
          "name": "NotInitializing",
          "type": "error"
        },
        {
          "inputs": [
            {
              "internalType": "address",
              "name": "token",
              "type": "address"
            }
          ],
          "name": "SafeERC20FailedOperation",
          "type": "error"
        },
        {
          "anonymous": false,
          "inputs": [
            {
              "indexed": false,
              "internalType": "address",
              "name": "_subject",
              "type": "address"
            },
            {
              "indexed": false,
              "internalType": "address",
              "name": "_subjectToken",
              "type": "address"
            },
            {
              "indexed": false,
              "internalType": "uint256",
              "name": "_initialSupply",
              "type": "uint256"
            },
            {
              "indexed": false,
              "internalType": "uint256",
              "name": "_reserve",
              "type": "uint256"
            },
            {
              "indexed": false,
              "internalType": "uint32",
              "name": "_reserveRatio",
              "type": "uint32"
            }
          ],
          "name": "BondingCurveInitialized",
          "type": "event"
        },
        {
          "anonymous": false,
          "inputs": [
            {
              "indexed": false,
              "internalType": "uint64",
              "name": "version",
              "type": "uint64"
            }
          ],
          "name": "Initialized",
          "type": "event"
        },
        {
          "anonymous": false,
          "inputs": [
            {
              "indexed": false,
              "internalType": "address",
              "name": "account",
              "type": "address"
            }
          ],
          "name": "Paused",
          "type": "event"
        },
        {
          "anonymous": false,
          "inputs": [
            {
              "indexed": true,
              "internalType": "bytes32",
              "name": "role",
              "type": "bytes32"
            },
            {
              "indexed": true,
              "internalType": "bytes32",
              "name": "previousAdminRole",
              "type": "bytes32"
            },
            {
              "indexed": true,
              "internalType": "bytes32",
              "name": "newAdminRole",
              "type": "bytes32"
            }
          ],
          "name": "RoleAdminChanged",
          "type": "event"
        },
        {
          "anonymous": false,
          "inputs": [
            {
              "indexed": true,
              "internalType": "bytes32",
              "name": "role",
              "type": "bytes32"
            },
            {
              "indexed": true,
              "internalType": "address",
              "name": "account",
              "type": "address"
            },
            {
              "indexed": true,
              "internalType": "address",
              "name": "sender",
              "type": "address"
            }
          ],
          "name": "RoleGranted",
          "type": "event"
        },
        {
          "anonymous": false,
          "inputs": [
            {
              "indexed": true,
              "internalType": "bytes32",
              "name": "role",
              "type": "bytes32"
            },
            {
              "indexed": true,
              "internalType": "address",
              "name": "account",
              "type": "address"
            },
            {
              "indexed": true,
              "internalType": "address",
              "name": "sender",
              "type": "address"
            }
          ],
          "name": "RoleRevoked",
          "type": "event"
        },
        {
          "anonymous": false,
          "inputs": [
            {
              "indexed": false,
              "internalType": "address",
              "name": "_subject",
              "type": "address"
            },
            {
              "indexed": false,
              "internalType": "address",
              "name": "_sellToken",
              "type": "address"
            },
            {
              "indexed": false,
              "internalType": "uint256",
              "name": "_sellAmount",
              "type": "uint256"
            },
            {
              "indexed": false,
              "internalType": "address",
              "name": "_buyToken",
              "type": "address"
            },
            {
              "indexed": false,
              "internalType": "uint256",
              "name": "_buyAmount",
              "type": "uint256"
            },
            {
              "indexed": false,
              "internalType": "address",
              "name": "_beneficiary",
              "type": "address"
            }
          ],
          "name": "SubjectSharePurchased",
          "type": "event"
        },
        {
          "anonymous": false,
          "inputs": [
            {
              "indexed": false,
              "internalType": "address",
              "name": "_subject",
              "type": "address"
            },
            {
              "indexed": false,
              "internalType": "address",
              "name": "_sellToken",
              "type": "address"
            },
            {
              "indexed": false,
              "internalType": "uint256",
              "name": "_sellAmount",
              "type": "uint256"
            },
            {
              "indexed": false,
              "internalType": "address",
              "name": "_buyToken",
              "type": "address"
            },
            {
              "indexed": false,
              "internalType": "uint256",
              "name": "_buyAmount",
              "type": "uint256"
            },
            {
              "indexed": false,
              "internalType": "address",
              "name": "_beneficiary",
              "type": "address"
            }
          ],
          "name": "SubjectShareSold",
          "type": "event"
        },
        {
          "anonymous": false,
          "inputs": [
            {
              "indexed": false,
              "internalType": "address",
              "name": "account",
              "type": "address"
            }
          ],
          "name": "Unpaused",
          "type": "event"
        },
        {
          "anonymous": false,
          "inputs": [
            {
              "indexed": false,
              "internalType": "address",
              "name": "_beneficiary",
              "type": "address"
            }
          ],
          "name": "UpdateBeneficiary",
          "type": "event"
        },
        {
          "anonymous": false,
          "inputs": [
            {
              "indexed": false,
              "internalType": "uint256",
              "name": "_protocolBuyFeePct",
              "type": "uint256"
            },
            {
              "indexed": false,
              "internalType": "uint256",
              "name": "_protocolSellFeePct",
              "type": "uint256"
            },
            {
              "indexed": false,
              "internalType": "uint256",
              "name": "_subjectBuyFeePct",
              "type": "uint256"
            },
            {
              "indexed": false,
              "internalType": "uint256",
              "name": "_subjectSellFeePct",
              "type": "uint256"
            }
          ],
          "name": "UpdateFees",
          "type": "event"
        },
        {
          "anonymous": false,
          "inputs": [
            {
              "indexed": false,
              "internalType": "address",
              "name": "_formula",
              "type": "address"
            }
          ],
          "name": "UpdateFormula",
          "type": "event"
        },
        {
          "inputs": [],
          "name": "DEFAULT_ADMIN_ROLE",
          "outputs": [
            {
              "internalType": "bytes32",
              "name": "",
              "type": "bytes32"
            }
          ],
          "stateMutability": "view",
          "type": "function"
        },
        {
          "inputs": [],
          "name": "PAUSE_ROLE",
          "outputs": [
            {
              "internalType": "bytes32",
              "name": "",
              "type": "bytes32"
            }
          ],
          "stateMutability": "view",
          "type": "function"
        },
        {
          "inputs": [],
          "name": "PCT_BASE",
          "outputs": [
            {
              "internalType": "uint256",
              "name": "",
              "type": "uint256"
            }
          ],
          "stateMutability": "view",
          "type": "function"
        },
        {
          "inputs": [],
          "name": "PPM",
          "outputs": [
            {
              "internalType": "uint32",
              "name": "",
              "type": "uint32"
            }
          ],
          "stateMutability": "view",
          "type": "function"
        },
        {
          "inputs": [],
          "name": "UPDATE_BENEFICIARY_ROLE",
          "outputs": [
            {
              "internalType": "bytes32",
              "name": "",
              "type": "bytes32"
            }
          ],
          "stateMutability": "view",
          "type": "function"
        },
        {
          "inputs": [],
          "name": "UPDATE_FEES_ROLE",
          "outputs": [
            {
              "internalType": "bytes32",
              "name": "",
              "type": "bytes32"
            }
          ],
          "stateMutability": "view",
          "type": "function"
        },
        {
          "inputs": [],
          "name": "UPDATE_FORMULA_ROLE",
          "outputs": [
            {
              "internalType": "bytes32",
              "name": "",
              "type": "bytes32"
            }
          ],
          "stateMutability": "view",
          "type": "function"
        },
        {
          "inputs": [
            {
              "internalType": "address",
              "name": "_subject",
              "type": "address"
            },
            {
              "internalType": "uint256",
              "name": "_depositAmount",
              "type": "uint256"
            },
            {
              "internalType": "uint256",
              "name": "_minReturnAmountAfterFee",
              "type": "uint256"
            }
          ],
          "name": "buyShares",
          "outputs": [
            {
              "internalType": "uint256",
              "name": "shares_",
              "type": "uint256"
            }
          ],
          "stateMutability": "nonpayable",
          "type": "function"
        },
        {
          "inputs": [
            {
              "internalType": "address",
              "name": "_subject",
              "type": "address"
            },
            {
              "internalType": "uint256",
              "name": "_depositAmount",
              "type": "uint256"
            },
            {
              "internalType": "address",
              "name": "_onBehalfOf",
              "type": "address"
            },
            {
              "internalType": "uint256",
              "name": "_minReturnAmountAfterFee",
              "type": "uint256"
            }
          ],
          "name": "buySharesFor",
          "outputs": [
            {
              "internalType": "uint256",
              "name": "shares_",
              "type": "uint256"
            }
          ],
          "stateMutability": "nonpayable",
          "type": "function"
        },
        {
          "inputs": [
            {
              "internalType": "address",
              "name": "_subject",
              "type": "address"
            },
            {
              "internalType": "uint256",
              "name": "_subjectTokenAmount",
              "type": "uint256"
            }
          ],
          "name": "calculateTokensForBuy",
          "outputs": [
            {
              "internalType": "uint256",
              "name": "moxieAmount_",
              "type": "uint256"
            },
            {
              "internalType": "uint256",
              "name": "protocolFee_",
              "type": "uint256"
            },
            {
              "internalType": "uint256",
              "name": "subjectFee_",
              "type": "uint256"
            }
          ],
          "stateMutability": "view",
          "type": "function"
        },
        {
          "inputs": [
            {
              "internalType": "address",
              "name": "_subject",
              "type": "address"
            },
            {
              "internalType": "uint256",
              "name": "_subjectTokenAmount",
              "type": "uint256"
            }
          ],
          "name": "calculateTokensForSell",
          "outputs": [
            {
              "internalType": "uint256",
              "name": "moxieAmount_",
              "type": "uint256"
            },
            {
              "internalType": "uint256",
              "name": "protocolFee_",
              "type": "uint256"
            },
            {
              "internalType": "uint256",
              "name": "subjectFee_",
              "type": "uint256"
            }
          ],
          "stateMutability": "view",
          "type": "function"
        },
        {
          "inputs": [],
          "name": "feeBeneficiary",
          "outputs": [
            {
              "internalType": "address",
              "name": "",
              "type": "address"
            }
          ],
          "stateMutability": "view",
          "type": "function"
        },
        {
          "inputs": [],
          "name": "formula",
          "outputs": [
            {
              "internalType": "contract IBancorFormula",
              "name": "",
              "type": "address"
            }
          ],
          "stateMutability": "view",
          "type": "function"
        },
        {
          "inputs": [
            {
              "internalType": "bytes32",
              "name": "role",
              "type": "bytes32"
            }
          ],
          "name": "getRoleAdmin",
          "outputs": [
            {
              "internalType": "bytes32",
              "name": "",
              "type": "bytes32"
            }
          ],
          "stateMutability": "view",
          "type": "function"
        },
        {
          "inputs": [
            {
              "internalType": "bytes32",
              "name": "role",
              "type": "bytes32"
            },
            {
              "internalType": "address",
              "name": "account",
              "type": "address"
            }
          ],
          "name": "grantRole",
          "outputs": [],
          "stateMutability": "nonpayable",
          "type": "function"
        },
        {
          "inputs": [
            {
              "internalType": "bytes32",
              "name": "role",
              "type": "bytes32"
            },
            {
              "internalType": "address",
              "name": "account",
              "type": "address"
            }
          ],
          "name": "hasRole",
          "outputs": [
            {
              "internalType": "bool",
              "name": "",
              "type": "bool"
            }
          ],
          "stateMutability": "view",
          "type": "function"
        },
        {
          "inputs": [
            {
              "internalType": "address",
              "name": "_token",
              "type": "address"
            },
            {
              "internalType": "address",
              "name": "_formula",
              "type": "address"
            },
            {
              "internalType": "address",
              "name": "_owner",
              "type": "address"
            },
            {
              "internalType": "address",
              "name": "_tokenManager",
              "type": "address"
            },
            {
              "internalType": "address",
              "name": "_vault",
              "type": "address"
            },
            {
              "components": [
                {
                  "internalType": "uint256",
                  "name": "protocolBuyFeePct",
                  "type": "uint256"
                },
                {
                  "internalType": "uint256",
                  "name": "protocolSellFeePct",
                  "type": "uint256"
                },
                {
                  "internalType": "uint256",
                  "name": "subjectBuyFeePct",
                  "type": "uint256"
                },
                {
                  "internalType": "uint256",
                  "name": "subjectSellFeePct",
                  "type": "uint256"
                }
              ],
              "internalType": "struct IMoxieBondingCurve.FeeInput",
              "name": "_feeInput",
              "type": "tuple"
            },
            {
              "internalType": "address",
              "name": "_feeBeneficiary",
              "type": "address"
            },
            {
              "internalType": "address",
              "name": "_subjectFactory",
              "type": "address"
            }
          ],
          "name": "initialize",
          "outputs": [],
          "stateMutability": "nonpayable",
          "type": "function"
        },
        {
          "inputs": [
            {
              "internalType": "address",
              "name": "_subject",
              "type": "address"
            },
            {
              "internalType": "uint32",
              "name": "_reserveRatio",
              "type": "uint32"
            },
            {
              "internalType": "uint256",
              "name": "_initialSupply",
              "type": "uint256"
            },
            {
              "internalType": "uint256",
              "name": "_reserveAmount",
              "type": "uint256"
            }
          ],
          "name": "initializeSubjectBondingCurve",
          "outputs": [
            {
              "internalType": "bool",
              "name": "",
              "type": "bool"
            }
          ],
          "stateMutability": "nonpayable",
          "type": "function"
        },
        {
          "inputs": [],
          "name": "pause",
          "outputs": [],
          "stateMutability": "nonpayable",
          "type": "function"
        },
        {
          "inputs": [],
          "name": "paused",
          "outputs": [
            {
              "internalType": "bool",
              "name": "",
              "type": "bool"
            }
          ],
          "stateMutability": "view",
          "type": "function"
        },
        {
          "inputs": [],
          "name": "protocolBuyFeePct",
          "outputs": [
            {
              "internalType": "uint256",
              "name": "",
              "type": "uint256"
            }
          ],
          "stateMutability": "view",
          "type": "function"
        },
        {
          "inputs": [],
          "name": "protocolSellFeePct",
          "outputs": [
            {
              "internalType": "uint256",
              "name": "",
              "type": "uint256"
            }
          ],
          "stateMutability": "view",
          "type": "function"
        },
        {
          "inputs": [
            {
              "internalType": "bytes32",
              "name": "role",
              "type": "bytes32"
            },
            {
              "internalType": "address",
              "name": "callerConfirmation",
              "type": "address"
            }
          ],
          "name": "renounceRole",
          "outputs": [],
          "stateMutability": "nonpayable",
          "type": "function"
        },
        {
          "inputs": [
            {
              "internalType": "address",
              "name": "subject",
              "type": "address"
            }
          ],
          "name": "reserveRatio",
          "outputs": [
            {
              "internalType": "uint32",
              "name": "_reserveRatio",
              "type": "uint32"
            }
          ],
          "stateMutability": "view",
          "type": "function"
        },
        {
          "inputs": [
            {
              "internalType": "bytes32",
              "name": "role",
              "type": "bytes32"
            },
            {
              "internalType": "address",
              "name": "account",
              "type": "address"
            }
          ],
          "name": "revokeRole",
          "outputs": [],
          "stateMutability": "nonpayable",
          "type": "function"
        },
        {
          "inputs": [
            {
              "internalType": "address",
              "name": "_subject",
              "type": "address"
            },
            {
              "internalType": "uint256",
              "name": "_sellAmount",
              "type": "uint256"
            },
            {
              "internalType": "uint256",
              "name": "_minReturnAmountAfterFee",
              "type": "uint256"
            }
          ],
          "name": "sellShares",
          "outputs": [
            {
              "internalType": "uint256",
              "name": "returnAmount_",
              "type": "uint256"
            }
          ],
          "stateMutability": "nonpayable",
          "type": "function"
        },
        {
          "inputs": [
            {
              "internalType": "address",
              "name": "_subject",
              "type": "address"
            },
            {
              "internalType": "uint256",
              "name": "_sellAmount",
              "type": "uint256"
            },
            {
              "internalType": "address",
              "name": "_onBehalfOf",
              "type": "address"
            },
            {
              "internalType": "uint256",
              "name": "_minReturnAmountAfterFee",
              "type": "uint256"
            }
          ],
          "name": "sellSharesFor",
          "outputs": [
            {
              "internalType": "uint256",
              "name": "returnAmount_",
              "type": "uint256"
            }
          ],
          "stateMutability": "nonpayable",
          "type": "function"
        },
        {
          "inputs": [],
          "name": "subjectBuyFeePct",
          "outputs": [
            {
              "internalType": "uint256",
              "name": "",
              "type": "uint256"
            }
          ],
          "stateMutability": "view",
          "type": "function"
        },
        {
          "inputs": [],
          "name": "subjectFactory",
          "outputs": [
            {
              "internalType": "address",
              "name": "",
              "type": "address"
            }
          ],
          "stateMutability": "view",
          "type": "function"
        },
        {
          "inputs": [],
          "name": "subjectSellFeePct",
          "outputs": [
            {
              "internalType": "uint256",
              "name": "",
              "type": "uint256"
            }
          ],
          "stateMutability": "view",
          "type": "function"
        },
        {
          "inputs": [
            {
              "internalType": "bytes4",
              "name": "interfaceId",
              "type": "bytes4"
            }
          ],
          "name": "supportsInterface",
          "outputs": [
            {
              "internalType": "bool",
              "name": "",
              "type": "bool"
            }
          ],
          "stateMutability": "view",
          "type": "function"
        },
        {
          "inputs": [],
          "name": "token",
          "outputs": [
            {
              "internalType": "contract IERC20Extended",
              "name": "",
              "type": "address"
            }
          ],
          "stateMutability": "view",
          "type": "function"
        },
        {
          "inputs": [],
          "name": "tokenManager",
          "outputs": [
            {
              "internalType": "contract ITokenManager",
              "name": "",
              "type": "address"
            }
          ],
          "stateMutability": "view",
          "type": "function"
        },
        {
          "inputs": [],
          "name": "unpause",
          "outputs": [],
          "stateMutability": "nonpayable",
          "type": "function"
        },
        {
          "inputs": [
            {
              "internalType": "address",
              "name": "_feeBeneficiary",
              "type": "address"
            }
          ],
          "name": "updateFeeBeneficiary",
          "outputs": [],
          "stateMutability": "nonpayable",
          "type": "function"
        },
        {
          "inputs": [
            {
              "components": [
                {
                  "internalType": "uint256",
                  "name": "protocolBuyFeePct",
                  "type": "uint256"
                },
                {
                  "internalType": "uint256",
                  "name": "protocolSellFeePct",
                  "type": "uint256"
                },
                {
                  "internalType": "uint256",
                  "name": "subjectBuyFeePct",
                  "type": "uint256"
                },
                {
                  "internalType": "uint256",
                  "name": "subjectSellFeePct",
                  "type": "uint256"
                }
              ],
              "internalType": "struct IMoxieBondingCurve.FeeInput",
              "name": "_feeInput",
              "type": "tuple"
            }
          ],
          "name": "updateFees",
          "outputs": [],
          "stateMutability": "nonpayable",
          "type": "function"
        },
        {
          "inputs": [
            {
              "internalType": "address",
              "name": "_formula",
              "type": "address"
            }
          ],
          "name": "updateFormula",
          "outputs": [],
          "stateMutability": "nonpayable",
          "type": "function"
        },
        {
          "inputs": [],
          "name": "vault",
          "outputs": [
            {
              "internalType": "contract IVault",
              "name": "",
              "type": "address"
            }
          ],
          "stateMutability": "view",
          "type": "function"
        }
      ],
      "evm": {
        "bytecode": {
          "linkReferences": {},
          "object": "608060405234801561001057600080fd5b50614498806100206000396000f3fe608060405234801561001057600080fd5b50600436106102325760003560e01c80635c975abb11610130578063a217fddf116100b8578063dbf495611161007c578063dbf49561146106a9578063e7af32ba146106c7578063fbfa77cf146106e5578063fc0c546a14610703578063fc157cb41461072157610232565b8063a217fddf146105f3578063ba6da00114610611578063d547741f14610641578063d5b49a711461065d578063d8690fea1461067957610232565b80638456cb59116100ff5780638456cb591461056157806389d6d0de1461056b57806391d1485414610589578063951ef92d146105b957806398a9c92b146105d757610232565b80635c975abb146104d757806360e14b60146104f55780636c57289314610513578063700c45901461052f57610232565b806336568abe116101be578063492fb34311610182578063492fb3431461041b5780634b75f54f1461043957806357f6508b146104575780635b23af0a146104875780635b933ee6146104b957610232565b806336568abe14610389578063389ed267146103a557806339952b88146103c35780633f4ba83a146103f357806341644f8c146103fd57610232565b806317f692221161020557806317f69222146102bf57806324234532146102ef578063248a9ca31461031f5780632a709b141461034f5780632f2ff15d1461036d57610232565b806301ffc9a7146102375780630d720bbc146102675780630e6c7a66146102855780630e85d277146102a1575b600080fd5b610251600480360381019061024c91906137c6565b61073f565b60405161025e919061380e565b60405180910390f35b61026f6107b9565b60405161027c9190613848565b60405180910390f35b61029f600480360381019061029a9190613a00565b6107c0565b005b6102a9610b34565b6040516102b69190613ad1565b60405180910390f35b6102d960048036038101906102d49190613aec565b610b58565b6040516102e69190613b4e565b60405180910390f35b61030960048036038101906103049190613b69565b610b77565b6040516103169190613848565b60405180910390f35b61033960048036038101906103349190613bc2565b610b9a565b6040516103469190613ad1565b60405180910390f35b610357610bc8565b6040516103649190613c4e565b60405180910390f35b61038760048036038101906103829190613c69565b610bee565b005b6103a3600480360381019061039e9190613c69565b610c10565b005b6103ad610c8b565b6040516103ba9190613ad1565b60405180910390f35b6103dd60048036038101906103d89190613aec565b610caf565b6040516103ea9190613b4e565b60405180910390f35b6103fb610cce565b005b610405610d03565b6040516104129190613ad1565b60405180910390f35b610423610d27565b6040516104309190613cb8565b60405180910390f35b610441610d4d565b60405161044e9190613cf4565b60405180910390f35b610471600480360381019061046c9190613d0f565b610d73565b60405161047e9190613b4e565b60405180910390f35b6104a1600480360381019061049c9190613d76565b610d93565b6040516104b093929190613db6565b60405180910390f35b6104c1610e87565b6040516104ce9190613b4e565b60405180910390f35b6104df610e8d565b6040516104ec919061380e565b60405180910390f35b6104fd610eb2565b60405161050a9190613ad1565b60405180910390f35b61052d60048036038101906105289190613b69565b610ed6565b005b61054960048036038101906105449190613d76565b610f4d565b60405161055893929190613db6565b60405180910390f35b610569611071565b005b6105736110a6565b6040516105809190613b4e565b60405180910390f35b6105a3600480360381019061059e9190613c69565b6110ac565b6040516105b0919061380e565b60405180910390f35b6105c1611125565b6040516105ce9190613b4e565b60405180910390f35b6105f160048036038101906105ec9190613ded565b61112b565b005b6105fb61117e565b6040516106089190613ad1565b60405180910390f35b61062b60048036038101906106269190613e46565b611185565b604051610638919061380e565b60405180910390f35b61065b60048036038101906106569190613c69565b61171a565b005b61067760048036038101906106729190613b69565b61173c565b005b610693600480360381019061068e9190613d0f565b6117b3565b6040516106a09190613b4e565b60405180910390f35b6106b16117d3565b6040516106be9190613b4e565b60405180910390f35b6106cf6117d9565b6040516106dc9190613cb8565b60405180910390f35b6106ed6117ff565b6040516106fa9190613ece565b60405180910390f35b61070b611825565b6040516107189190613f0a565b60405180910390f35b610729611849565b6040516107369190613b4e565b60405180910390f35b60007f7965db0b000000000000000000000000000000000000000000000000000000007bffffffffffffffffffffffffffffffffffffffffffffffffffffffff1916827bffffffffffffffffffffffffffffffffffffffffffffffffffffffff191614806107b257506107b182611855565b5b9050919050565b620f424081565b60006107ca6118bf565b905060008160000160089054906101000a900460ff1615905060008260000160009054906101000a900467ffffffffffffffff1690506000808267ffffffffffffffff161480156108185750825b9050600060018367ffffffffffffffff1614801561084d575060003073ffffffffffffffffffffffffffffffffffffffff163b145b90508115801561085b575080155b15610892576040517ff92ee8a900000000000000000000000000000000000000000000000000000000815260040160405180910390fd5b60018560000160006101000a81548167ffffffffffffffff021916908367ffffffffffffffff16021790555083156108e25760018560000160086101000a81548160ff0219169083151502179055505b6108ea6118e7565b6108f26118f1565b6109018d8d8d8d8d8c8c611903565b61090a88611acc565b8c6000806101000a81548173ffffffffffffffffffffffffffffffffffffffff021916908373ffffffffffffffffffffffffffffffffffffffff1602179055508b600160006101000a81548173ffffffffffffffffffffffffffffffffffffffff021916908373ffffffffffffffffffffffffffffffffffffffff16021790555089600260006101000a81548173ffffffffffffffffffffffffffffffffffffffff021916908373ffffffffffffffffffffffffffffffffffffffff16021790555088600360006101000a81548173ffffffffffffffffffffffffffffffffffffffff021916908373ffffffffffffffffffffffffffffffffffffffff160217905550876000015160048190555087602001516005819055508760400151600681905550876060015160078190555086600860006101000a81548173ffffffffffffffffffffffffffffffffffffffff021916908373ffffffffffffffffffffffffffffffffffffffff16021790555085600960006101000a81548173ffffffffffffffffffffffffffffffffffffffff021916908373ffffffffffffffffffffffffffffffffffffffff160217905550610ac86000801b8c611b47565b508315610b255760008560000160086101000a81548160ff0219169083151502179055507fc7f505b2f371ae2175ee4913f4499e1f2633a7b5936321eed1cdaeb6115181d26001604051610b1c9190613f74565b60405180910390a15b50505050505050505050505050565b7fbfb76d8d43f55efe58544ea32af187792a7bdb983850d8fed33478266eec3cbb81565b6000610b62611c48565b610b6e84843385611c89565b90509392505050565b600a6020528060005260406000206000915054906101000a900463ffffffff1681565b600080610ba5611e92565b905080600001600084815260200190815260200160002060010154915050919050565b600260009054906101000a900473ffffffffffffffffffffffffffffffffffffffff1681565b610bf782610b9a565b610c0081611eba565b610c0a8383611b47565b50505050565b610c18611ece565b73ffffffffffffffffffffffffffffffffffffffff168173ffffffffffffffffffffffffffffffffffffffff1614610c7c576040517f6697b23200000000000000000000000000000000000000000000000000000000815260040160405180910390fd5b610c868282611ed6565b505050565b7f139c2898040ef16910dc9f44dc697df79363da767d8bc92f2e310312b816e46d81565b6000610cb9611c48565b610cc584843385611fd8565b90509392505050565b7f139c2898040ef16910dc9f44dc697df79363da767d8bc92f2e310312b816e46d610cf881611eba565b610d006121ea565b50565b7ff7ea2b80c7b6a2cab2c11d2290cb005c3748397358a25e17113658c83b73259381565b600860009054906101000a900473ffffffffffffffffffffffffffffffffffffffff1681565b600160009054906101000a900473ffffffffffffffffffffffffffffffffffffffff1681565b6000610d7d611c48565b610d8985858585611fd8565b9050949350505050565b600080600080600080610da6888861225c565b9250925092506000600160009054906101000a900473ffffffffffffffffffffffffffffffffffffffff1673ffffffffffffffffffffffffffffffffffffffff166349f9b0f78385878c6040518563ffffffff1660e01b8152600401610e0f9493929190613f8f565b602060405180830381865afa158015610e2c573d6000803e3d6000fd5b505050506040513d601f19601f82011682018060405250810190610e509190613fe9565b9050610e5b81612546565b8096508197505050848682610e709190614045565b610e7a9190614045565b9650505050509250925092565b60075481565b600080610e98612594565b90508060000160009054906101000a900460ff1691505090565b7f5f9be2932ed3a723f295a763be1804c7ebfd1a41c1348fb8bdf5be1c5cdca82281565b7ff7ea2b80c7b6a2cab2c11d2290cb005c3748397358a25e17113658c83b732593610f0081611eba565b610f09826125bc565b15610f40576040517fadfdb05b00000000000000000000000000000000000000000000000000000000815260040160405180910390fd5b610f49826125f4565b5050565b600080600080600080610f60888861225c565b9250925092506000600160009054906101000a900473ffffffffffffffffffffffffffffffffffffffff1673ffffffffffffffffffffffffffffffffffffffff16631da6bbfb8385878c6040518563ffffffff1660e01b8152600401610fc99493929190613f8f565b602060405180830381865afa158015610fe6573d6000803e3d6000fd5b505050506040513d601f19601f8201168201806040525081019061100a9190613fe9565b9050600060065460045461101e9190614079565b905080670de0b6b3a76400006110349190614045565b670de0b6b3a76400008361104891906140ad565b611052919061411e565b975061105d8861266f565b809750819850505050505050509250925092565b7f139c2898040ef16910dc9f44dc697df79363da767d8bc92f2e310312b816e46d61109b81611eba565b6110a36126bd565b50565b60055481565b6000806110b7611e92565b905080600001600085815260200190815260200160002060000160008473ffffffffffffffffffffffffffffffffffffffff1673ffffffffffffffffffffffffffffffffffffffff16815260200190815260200160002060009054906101000a900460ff1691505092915050565b60065481565b7f5f9be2932ed3a723f295a763be1804c7ebfd1a41c1348fb8bdf5be1c5cdca82261115581611eba565b61115e82611acc565b61117a826000015183602001518460400151856060015161272f565b5050565b6000801b81565b600061118f611c48565b611198856125bc565b156111cf576040517fa7ef168800000000000000000000000000000000000000000000000000000000815260040160405180910390fd5b600960009054906101000a900473ffffffffffffffffffffffffffffffffffffffff1673ffffffffffffffffffffffffffffffffffffffff163373ffffffffffffffffffffffffffffffffffffffff1614611256576040517f6802704600000000000000000000000000000000000000000000000000000000815260040160405180910390fd5b61125f84612796565b611295576040517f39a1d18100000000000000000000000000000000000000000000000000000000815260040160405180910390fd5b6000600a60008773ffffffffffffffffffffffffffffffffffffffff1673ffffffffffffffffffffffffffffffffffffffff16815260200190815260200160002060009054906101000a900463ffffffff1663ffffffff1614611324576040517f86d5f90700000000000000000000000000000000000000000000000000000000815260040160405180910390fd5b83600a60008773ffffffffffffffffffffffffffffffffffffffff1673ffffffffffffffffffffffffffffffffffffffff16815260200190815260200160002060006101000a81548163ffffffff021916908363ffffffff1602179055506000600260009054906101000a900473ffffffffffffffffffffffffffffffffffffffff1673ffffffffffffffffffffffffffffffffffffffff1663e4860339876040518263ffffffff1660e01b81526004016113df9190613cb8565b602060405180830381865afa1580156113fc573d6000803e3d6000fd5b505050506040513d601f19601f820116820180604052508101906114209190614164565b905061142b816125bc565b15611462576040517ffcde723100000000000000000000000000000000000000000000000000000000815260040160405180910390fd5b7f3e8bb74e6a03753bf16c1c2737daabee1be3548b0f638894f10f382560d1d0768682868689604051611499959493929190614191565b60405180910390a160008173ffffffffffffffffffffffffffffffffffffffff166318160ddd6040518163ffffffff1660e01b8152600401602060405180830381865afa1580156114ee573d6000803e3d6000fd5b505050506040513d601f19601f820116820180604052508101906115129190613fe9565b905080851461154d576040517f849e9ad400000000000000000000000000000000000000000000000000000000815260040160405180910390fd5b61159a33308660008054906101000a900473ffffffffffffffffffffffffffffffffffffffff1673ffffffffffffffffffffffffffffffffffffffff166127b2909392919063ffffffff16565b60008054906101000a900473ffffffffffffffffffffffffffffffffffffffff1673ffffffffffffffffffffffffffffffffffffffff1663095ea7b3600360009054906101000a900473ffffffffffffffffffffffffffffffffffffffff16866040518363ffffffff1660e01b81526004016116179291906141e4565b6020604051808303816000875af1158015611636573d6000803e3d6000fd5b505050506040513d601f19601f8201168201806040525081019061165a9190614239565b50600360009054906101000a900473ffffffffffffffffffffffffffffffffffffffff1673ffffffffffffffffffffffffffffffffffffffff16638340f5498360008054906101000a900473ffffffffffffffffffffffffffffffffffffffff16876040518463ffffffff1660e01b81526004016116da93929190614266565b600060405180830381600087803b1580156116f457600080fd5b505af1158015611708573d6000803e3d6000fd5b50505050600192505050949350505050565b61172382610b9a565b61172c81611eba565b6117368383611ed6565b50505050565b7fbfb76d8d43f55efe58544ea32af187792a7bdb983850d8fed33478266eec3cbb61176681611eba565b61176f826125bc565b156117a6576040517fb1710af000000000000000000000000000000000000000000000000000000000815260040160405180910390fd5b6117af82612834565b5050565b60006117bd611c48565b6117c985858585611c89565b9050949350505050565b60045481565b600960009054906101000a900473ffffffffffffffffffffffffffffffffffffffff1681565b600360009054906101000a900473ffffffffffffffffffffffffffffffffffffffff1681565b60008054906101000a900473ffffffffffffffffffffffffffffffffffffffff1681565b670de0b6b3a764000081565b60007f01ffc9a7000000000000000000000000000000000000000000000000000000007bffffffffffffffffffffffffffffffffffffffffffffffffffffffff1916827bffffffffffffffffffffffffffffffffffffffffffffffffffffffff1916149050919050565b60007ff0c57e16840df040f15088dc2f81fe391c3923bec73e23a9662efc9c229c6a00905090565b6118ef6128af565b565b6118f96128af565b6119016128ef565b565b61190c876125bc565b15611943576040517f1c8c425400000000000000000000000000000000000000000000000000000000815260040160405180910390fd5b61194c866125bc565b15611983576040517fb1710af000000000000000000000000000000000000000000000000000000000815260040160405180910390fd5b61198c856125bc565b156119c3576040517f3c77158e00000000000000000000000000000000000000000000000000000000815260040160405180910390fd5b6119cc846125bc565b15611a03576040517f926d717700000000000000000000000000000000000000000000000000000000815260040160405180910390fd5b611a0c836125bc565b15611a43576040517f466e460200000000000000000000000000000000000000000000000000000000815260040160405180910390fd5b611a4c816125bc565b15611a83576040517fee2f6f2a00000000000000000000000000000000000000000000000000000000815260040160405180910390fd5b611a8c826125bc565b15611ac3576040517fadfdb05b00000000000000000000000000000000000000000000000000000000815260040160405180910390fd5b50505050505050565b611ae881604001518260000151611ae39190614079565b612923565b1580611b0d5750611b0b81606001518260200151611b069190614079565b612923565b155b15611b44576040517f470562b900000000000000000000000000000000000000000000000000000000815260040160405180910390fd5b50565b600080611b52611e92565b9050611b5e84846110ac565b611c3c57600181600001600086815260200190815260200160002060000160008573ffffffffffffffffffffffffffffffffffffffff1673ffffffffffffffffffffffffffffffffffffffff16815260200190815260200160002060006101000a81548160ff021916908315150217905550611bd8611ece565b73ffffffffffffffffffffffffffffffffffffffff168373ffffffffffffffffffffffffffffffffffffffff16857f2f8788117e7eff1d82e926ec794901d17c78024a50270940304540a733656f0d60405160405180910390a46001915050611c42565b60009150505b92915050565b611c50610e8d565b15611c87576040517fd93c066500000000000000000000000000000000000000000000000000000000815260040160405180910390fd5b565b6000611c94856125bc565b15611ccb576040517fa7ef168800000000000000000000000000000000000000000000000000000000815260040160405180910390fd5b60008403611d04576040517e6a79a400000000000000000000000000000000000000000000000000000000815260040160405180910390fd5b6000600a60008773ffffffffffffffffffffffffffffffffffffffff1673ffffffffffffffffffffffffffffffffffffffff16815260200190815260200160002060009054906101000a900463ffffffff16905060008163ffffffff1603611d98576040517f85b1b9c700000000000000000000000000000000000000000000000000000000815260040160405180910390fd5b6000600260009054906101000a900473ffffffffffffffffffffffffffffffffffffffff1673ffffffffffffffffffffffffffffffffffffffff1663e4860339886040518263ffffffff1660e01b8152600401611df59190613cb8565b602060405180830381865afa158015611e12573d6000803e3d6000fd5b505050506040513d601f19601f82011682018060405250810190611e369190614164565b9050611e41816125bc565b15611e78576040517ffcde723100000000000000000000000000000000000000000000000000000000815260040160405180910390fd5b611e86818787878b87612937565b92505050949350505050565b60007f02dd7bc7dec4dceedda775e58dd541e08a116c6c53815c0bd028192f7b626800905090565b611ecb81611ec6611ece565b612f0f565b50565b600033905090565b600080611ee1611e92565b9050611eed84846110ac565b15611fcc57600081600001600086815260200190815260200160002060000160008573ffffffffffffffffffffffffffffffffffffffff1673ffffffffffffffffffffffffffffffffffffffff16815260200190815260200160002060006101000a81548160ff021916908315150217905550611f68611ece565b73ffffffffffffffffffffffffffffffffffffffff168373ffffffffffffffffffffffffffffffffffffffff16857ff6391f5c32d9c69d2a47ea670b442974b53935d1edc7fd64eb21e047a839171b60405160405180910390a46001915050611fd2565b60009150505b92915050565b6000611fe2611c48565b611feb856125bc565b15612022576040517fa7ef168800000000000000000000000000000000000000000000000000000000815260040160405180910390fd5b6000840361205c576040517f2dc1479300000000000000000000000000000000000000000000000000000000815260040160405180910390fd5b6000600a60008773ffffffffffffffffffffffffffffffffffffffff1673ffffffffffffffffffffffffffffffffffffffff16815260200190815260200160002060009054906101000a900463ffffffff16905060008163ffffffff16036120f0576040517f85b1b9c700000000000000000000000000000000000000000000000000000000815260040160405180910390fd5b6000600260009054906101000a900473ffffffffffffffffffffffffffffffffffffffff1673ffffffffffffffffffffffffffffffffffffffff1663e4860339886040518263ffffffff1660e01b815260040161214d9190613cb8565b602060405180830381865afa15801561216a573d6000803e3d6000fd5b505050506040513d601f19601f8201168201806040525081019061218e9190614164565b9050612199816125bc565b156121d0576040517ffcde723100000000000000000000000000000000000000000000000000000000815260040160405180910390fd5b6121de818787878b87612f60565b92505050949350505050565b6121f2613432565b60006121fc612594565b905060008160000160006101000a81548160ff0219169083151502179055507f5db9ee0a495bf2e6ff9c91a7834c1ba4fdd244a5e8aa4e537bd38aeae4b073aa612244611ece565b6040516122519190613cb8565b60405180910390a150565b600080600061226a856125bc565b156122a1576040517fa7ef168800000000000000000000000000000000000000000000000000000000815260040160405180910390fd5b600084036122db576040517fc1787ce800000000000000000000000000000000000000000000000000000000815260040160405180910390fd5b600a60008673ffffffffffffffffffffffffffffffffffffffff1673ffffffffffffffffffffffffffffffffffffffff16815260200190815260200160002060009054906101000a900463ffffffff16925060008363ffffffff160361236d576040517f85b1b9c700000000000000000000000000000000000000000000000000000000815260040160405180910390fd5b6000600260009054906101000a900473ffffffffffffffffffffffffffffffffffffffff1673ffffffffffffffffffffffffffffffffffffffff1663e4860339876040518263ffffffff1660e01b81526004016123ca9190613cb8565b602060405180830381865afa1580156123e7573d6000803e3d6000fd5b505050506040513d601f19601f8201168201806040525081019061240b9190614164565b9050600360009054906101000a900473ffffffffffffffffffffffffffffffffffffffff1673ffffffffffffffffffffffffffffffffffffffff1663f7888aec8260008054906101000a900473ffffffffffffffffffffffffffffffffffffffff166040518363ffffffff1660e01b815260040161248a92919061429d565b602060405180830381865afa1580156124a7573d6000803e3d6000fd5b505050506040513d601f19601f820116820180604052508101906124cb9190613fe9565b92508073ffffffffffffffffffffffffffffffffffffffff166318160ddd6040518163ffffffff1660e01b8152600401602060405180830381865afa158015612518573d6000803e3d6000fd5b505050506040513d601f19601f8201168201806040525081019061253c9190613fe9565b9150509250925092565b600080670de0b6b3a76400006005548461256091906140ad565b61256a919061411e565b9150670de0b6b3a76400006007548461258391906140ad565b61258d919061411e565b9050915091565b60007fcd5ed15c6e187e77e9aee88184c21f4f2182ab5827cb3b7e07fbedcd63f03300905090565b60008073ffffffffffffffffffffffffffffffffffffffff168273ffffffffffffffffffffffffffffffffffffffff16149050919050565b80600860006101000a81548173ffffffffffffffffffffffffffffffffffffffff021916908373ffffffffffffffffffffffffffffffffffffffff1602179055507fe6131a64e93e9aa4ff38892c34d563c06dcc1e03b3d6897cc65f0903e2ad6848816040516126649190613cb8565b60405180910390a150565b600080670de0b6b3a76400006004548461268991906140ad565b612693919061411e565b9150670de0b6b3a7640000600654846126ac91906140ad565b6126b6919061411e565b9050915091565b6126c5611c48565b60006126cf612594565b905060018160000160006101000a81548160ff0219169083151502179055507f62e78cea01bee320cd4e420270b5ea74000d11b0c9f74754ebdbfc544b05a258612717611ece565b6040516127249190613cb8565b60405180910390a150565b836004819055508260058190555081600681905550806007819055507f5c3aee3d65f7eb02cded951435d06b06ef307bc7f57b98975c4a41dc116e711c60045460055460065460075460405161278894939291906142c6565b60405180910390a150505050565b6000620f424063ffffffff168263ffffffff1611159050919050565b61282e848573ffffffffffffffffffffffffffffffffffffffff166323b872dd8686866040516024016127e793929190614266565b604051602081830303815290604052915060e01b6020820180517bffffffffffffffffffffffffffffffffffffffffffffffffffffffff8381831617835250505050613472565b50505050565b80600160006101000a81548173ffffffffffffffffffffffffffffffffffffffff021916908373ffffffffffffffffffffffffffffffffffffffff1602179055507f050a79a49cc1dc3aeeccd8636685ad0469db41a9bd51254a34fc1cf616693d41816040516128a49190613cb8565b60405180910390a150565b6128b7613509565b6128ed576040517fd7e6bcf800000000000000000000000000000000000000000000000000000000815260040160405180910390fd5b565b6128f76128af565b6000612901612594565b905060008160000160006101000a81548160ff02191690831515021790555050565b6000670de0b6b3a764000082109050919050565b600061298633308860008054906101000a900473ffffffffffffffffffffffffffffffffffffffff1673ffffffffffffffffffffffffffffffffffffffff166127b2909392919063ffffffff16565b6000806129928861266f565b915091506129e1858260008054906101000a900473ffffffffffffffffffffffffffffffffffffffff1673ffffffffffffffffffffffffffffffffffffffff166135299092919063ffffffff16565b612a4e600860009054906101000a900473ffffffffffffffffffffffffffffffffffffffff168360008054906101000a900473ffffffffffffffffffffffffffffffffffffffff1673ffffffffffffffffffffffffffffffffffffffff166135299092919063ffffffff16565b600082828a612a5d9190614045565b612a679190614045565b905060008054906101000a900473ffffffffffffffffffffffffffffffffffffffff1673ffffffffffffffffffffffffffffffffffffffff1663095ea7b3600360009054906101000a900473ffffffffffffffffffffffffffffffffffffffff16836040518363ffffffff1660e01b8152600401612ae69291906141e4565b6020604051808303816000875af1158015612b05573d6000803e3d6000fd5b505050506040513d601f19601f82011682018060405250810190612b299190614239565b506000600360009054906101000a900473ffffffffffffffffffffffffffffffffffffffff1673ffffffffffffffffffffffffffffffffffffffff1663f7888aec8c60008054906101000a900473ffffffffffffffffffffffffffffffffffffffff166040518363ffffffff1660e01b8152600401612ba992919061429d565b602060405180830381865afa158015612bc6573d6000803e3d6000fd5b505050506040513d601f19601f82011682018060405250810190612bea9190613fe9565b905060008b73ffffffffffffffffffffffffffffffffffffffff166318160ddd6040518163ffffffff1660e01b8152600401602060405180830381865afa158015612c39573d6000803e3d6000fd5b505050506040513d601f19601f82011682018060405250810190612c5d9190613fe9565b9050600360009054906101000a900473ffffffffffffffffffffffffffffffffffffffff1673ffffffffffffffffffffffffffffffffffffffff16638340f5498d60008054906101000a900473ffffffffffffffffffffffffffffffffffffffff16866040518463ffffffff1660e01b8152600401612cde93929190614266565b600060405180830381600087803b158015612cf857600080fd5b505af1158015612d0c573d6000803e3d6000fd5b50505050600160009054906101000a900473ffffffffffffffffffffffffffffffffffffffff1673ffffffffffffffffffffffffffffffffffffffff166329a00e7c82848a876040518563ffffffff1660e01b8152600401612d719493929190613f8f565b602060405180830381865afa158015612d8e573d6000803e3d6000fd5b505050506040513d601f19601f82011682018060405250810190612db29190613fe9565b955088861015612dee576040517f13115b2900000000000000000000000000000000000000000000000000000000815260040160405180910390fd5b612df78a6125bc565b612e9f57600260009054906101000a900473ffffffffffffffffffffffffffffffffffffffff1673ffffffffffffffffffffffffffffffffffffffff1663c6c3bbe6898c896040518463ffffffff1660e01b8152600401612e5a93929190614266565b6020604051808303816000875af1158015612e79573d6000803e3d6000fd5b505050506040513d601f19601f82011682018060405250810190612e9d9190614239565b505b7fab7844fa0fe8907c50c8c2011a6471669afa144bcbbfcf0a1f9d08f77065f0858860008054906101000a900473ffffffffffffffffffffffffffffffffffffffff168d8f8a8f604051612ef89695949392919061430b565b60405180910390a150505050509695505050505050565b612f1982826110ac565b612f5c5780826040517fe2517d3f000000000000000000000000000000000000000000000000000000008152600401612f5392919061436c565b60405180910390fd5b5050565b6000808773ffffffffffffffffffffffffffffffffffffffff166318160ddd6040518163ffffffff1660e01b8152600401602060405180830381865afa158015612fae573d6000803e3d6000fd5b505050506040513d601f19601f82011682018060405250810190612fd29190613fe9565b90506000600360009054906101000a900473ffffffffffffffffffffffffffffffffffffffff1673ffffffffffffffffffffffffffffffffffffffff1663f7888aec8a60008054906101000a900473ffffffffffffffffffffffffffffffffffffffff166040518363ffffffff1660e01b815260040161305392919061429d565b602060405180830381865afa158015613070573d6000803e3d6000fd5b505050506040513d601f19601f820116820180604052508101906130949190613fe9565b90506000600160009054906101000a900473ffffffffffffffffffffffffffffffffffffffff1673ffffffffffffffffffffffffffffffffffffffff166349f9b0f78484888d6040518563ffffffff1660e01b81526004016130f99493929190613f8f565b602060405180830381865afa158015613116573d6000803e3d6000fd5b505050506040513d601f19601f8201168201806040525081019061313a9190613fe9565b905060008061314883612546565b915091508181846131599190614045565b6131639190614045565b95508886101561319f576040517f13115b2900000000000000000000000000000000000000000000000000000000815260040160405180910390fd5b7f9e20e9cbfd51cdd34a2163a0435df07c7fde8cabc7ab4ca38448bd01d317b697888d8d60008054906101000a900473ffffffffffffffffffffffffffffffffffffffff168a8f6040516131f89695949392919061430b565b60405180910390a18b73ffffffffffffffffffffffffffffffffffffffff166379cc6790338d6040518363ffffffff1660e01b815260040161323b9291906141e4565b600060405180830381600087803b15801561325557600080fd5b505af1158015613269573d6000803e3d6000fd5b50505050600360009054906101000a900473ffffffffffffffffffffffffffffffffffffffff1673ffffffffffffffffffffffffffffffffffffffff1663f18d03cc8d60008054906101000a900473ffffffffffffffffffffffffffffffffffffffff1630876040518563ffffffff1660e01b81526004016132ee9493929190614395565b600060405180830381600087803b15801561330857600080fd5b505af115801561331c573d6000803e3d6000fd5b5050505061336b888260008054906101000a900473ffffffffffffffffffffffffffffffffffffffff1673ffffffffffffffffffffffffffffffffffffffff166135299092919063ffffffff16565b6133d8600860009054906101000a900473ffffffffffffffffffffffffffffffffffffffff168360008054906101000a900473ffffffffffffffffffffffffffffffffffffffff1673ffffffffffffffffffffffffffffffffffffffff166135299092919063ffffffff16565b6134238a8760008054906101000a900473ffffffffffffffffffffffffffffffffffffffff1673ffffffffffffffffffffffffffffffffffffffff166135299092919063ffffffff16565b50505050509695505050505050565b61343a610e8d565b613470576040517f8dfc202b00000000000000000000000000000000000000000000000000000000815260040160405180910390fd5b565b600061349d828473ffffffffffffffffffffffffffffffffffffffff166135a890919063ffffffff16565b905060008151141580156134c25750808060200190518101906134c09190614239565b155b1561350457826040517f5274afe70000000000000000000000000000000000000000000000000000000081526004016134fb9190613cb8565b60405180910390fd5b505050565b60006135136118bf565b60000160089054906101000a900460ff16905090565b6135a3838473ffffffffffffffffffffffffffffffffffffffff1663a9059cbb858560405160240161355c9291906141e4565b604051602081830303815290604052915060e01b6020820180517bffffffffffffffffffffffffffffffffffffffffffffffffffffffff8381831617835250505050613472565b505050565b60606135b6838360006135be565b905092915050565b60608147101561360557306040517fcd7860590000000000000000000000000000000000000000000000000000000081526004016135fc9190613cb8565b60405180910390fd5b6000808573ffffffffffffffffffffffffffffffffffffffff16848660405161362e919061444b565b60006040518083038185875af1925050503d806000811461366b576040519150601f19603f3d011682016040523d82523d6000602084013e613670565b606091505b509150915061368086838361368b565b925050509392505050565b6060826136a05761369b8261371a565b613712565b600082511480156136c8575060008473ffffffffffffffffffffffffffffffffffffffff163b145b1561370a57836040517f9996b3150000000000000000000000000000000000000000000000000000000081526004016137019190613cb8565b60405180910390fd5b819050613713565b5b9392505050565b60008151111561372d5780518082602001fd5b6040517f1425ea4200000000000000000000000000000000000000000000000000000000815260040160405180910390fd5b6000604051905090565b600080fd5b60007fffffffff0000000000000000000000000000000000000000000000000000000082169050919050565b6137a38161376e565b81146137ae57600080fd5b50565b6000813590506137c08161379a565b92915050565b6000602082840312156137dc576137db613769565b5b60006137ea848285016137b1565b91505092915050565b60008115159050919050565b613808816137f3565b82525050565b600060208201905061382360008301846137ff565b92915050565b600063ffffffff82169050919050565b61384281613829565b82525050565b600060208201905061385d6000830184613839565b92915050565b600073ffffffffffffffffffffffffffffffffffffffff82169050919050565b600061388e82613863565b9050919050565b61389e81613883565b81146138a957600080fd5b50565b6000813590506138bb81613895565b92915050565b600080fd5b6000601f19601f8301169050919050565b7f4e487b7100000000000000000000000000000000000000000000000000000000600052604160045260246000fd5b61390f826138c6565b810181811067ffffffffffffffff8211171561392e5761392d6138d7565b5b80604052505050565b600061394161375f565b905061394d8282613906565b919050565b6000819050919050565b61396581613952565b811461397057600080fd5b50565b6000813590506139828161395c565b92915050565b60006080828403121561399e5761399d6138c1565b5b6139a86080613937565b905060006139b884828501613973565b60008301525060206139cc84828501613973565b60208301525060406139e084828501613973565b60408301525060606139f484828501613973565b60608301525092915050565b600080600080600080600080610160898b031215613a2157613a20613769565b5b6000613a2f8b828c016138ac565b9850506020613a408b828c016138ac565b9750506040613a518b828c016138ac565b9650506060613a628b828c016138ac565b9550506080613a738b828c016138ac565b94505060a0613a848b828c01613988565b935050610120613a968b828c016138ac565b925050610140613aa88b828c016138ac565b9150509295985092959890939650565b6000819050919050565b613acb81613ab8565b82525050565b6000602082019050613ae66000830184613ac2565b92915050565b600080600060608486031215613b0557613b04613769565b5b6000613b13868287016138ac565b9350506020613b2486828701613973565b9250506040613b3586828701613973565b9150509250925092565b613b4881613952565b82525050565b6000602082019050613b636000830184613b3f565b92915050565b600060208284031215613b7f57613b7e613769565b5b6000613b8d848285016138ac565b91505092915050565b613b9f81613ab8565b8114613baa57600080fd5b50565b600081359050613bbc81613b96565b92915050565b600060208284031215613bd857613bd7613769565b5b6000613be684828501613bad565b91505092915050565b6000819050919050565b6000613c14613c0f613c0a84613863565b613bef565b613863565b9050919050565b6000613c2682613bf9565b9050919050565b6000613c3882613c1b565b9050919050565b613c4881613c2d565b82525050565b6000602082019050613c636000830184613c3f565b92915050565b60008060408385031215613c8057613c7f613769565b5b6000613c8e85828601613bad565b9250506020613c9f858286016138ac565b9150509250929050565b613cb281613883565b82525050565b6000602082019050613ccd6000830184613ca9565b92915050565b6000613cde82613c1b565b9050919050565b613cee81613cd3565b82525050565b6000602082019050613d096000830184613ce5565b92915050565b60008060008060808587031215613d2957613d28613769565b5b6000613d37878288016138ac565b9450506020613d4887828801613973565b9350506040613d59878288016138ac565b9250506060613d6a87828801613973565b91505092959194509250565b60008060408385031215613d8d57613d8c613769565b5b6000613d9b858286016138ac565b9250506020613dac85828601613973565b9150509250929050565b6000606082019050613dcb6000830186613b3f565b613dd86020830185613b3f565b613de56040830184613b3f565b949350505050565b600060808284031215613e0357613e02613769565b5b6000613e1184828501613988565b91505092915050565b613e2381613829565b8114613e2e57600080fd5b50565b600081359050613e4081613e1a565b92915050565b60008060008060808587031215613e6057613e5f613769565b5b6000613e6e878288016138ac565b9450506020613e7f87828801613e31565b9350506040613e9087828801613973565b9250506060613ea187828801613973565b91505092959194509250565b6000613eb882613c1b565b9050919050565b613ec881613ead565b82525050565b6000602082019050613ee36000830184613ebf565b92915050565b6000613ef482613c1b565b9050919050565b613f0481613ee9565b82525050565b6000602082019050613f1f6000830184613efb565b92915050565b6000819050919050565b600067ffffffffffffffff82169050919050565b6000613f5e613f59613f5484613f25565b613bef565b613f2f565b9050919050565b613f6e81613f43565b82525050565b6000602082019050613f896000830184613f65565b92915050565b6000608082019050613fa46000830187613b3f565b613fb16020830186613b3f565b613fbe6040830185613839565b613fcb6060830184613b3f565b95945050505050565b600081519050613fe38161395c565b92915050565b600060208284031215613fff57613ffe613769565b5b600061400d84828501613fd4565b91505092915050565b7f4e487b7100000000000000000000000000000000000000000000000000000000600052601160045260246000fd5b600061405082613952565b915061405b83613952565b925082820390508181111561407357614072614016565b5b92915050565b600061408482613952565b915061408f83613952565b92508282019050808211156140a7576140a6614016565b5b92915050565b60006140b882613952565b91506140c383613952565b92508282026140d181613952565b915082820484148315176140e8576140e7614016565b5b5092915050565b7f4e487b7100000000000000000000000000000000000000000000000000000000600052601260045260246000fd5b600061412982613952565b915061413483613952565b925082614144576141436140ef565b5b828204905092915050565b60008151905061415e81613895565b92915050565b60006020828403121561417a57614179613769565b5b60006141888482850161414f565b91505092915050565b600060a0820190506141a66000830188613ca9565b6141b36020830187613ca9565b6141c06040830186613b3f565b6141cd6060830185613b3f565b6141da6080830184613839565b9695505050505050565b60006040820190506141f96000830185613ca9565b6142066020830184613b3f565b9392505050565b614216816137f3565b811461422157600080fd5b50565b6000815190506142338161420d565b92915050565b60006020828403121561424f5761424e613769565b5b600061425d84828501614224565b91505092915050565b600060608201905061427b6000830186613ca9565b6142886020830185613ca9565b6142956040830184613b3f565b949350505050565b60006040820190506142b26000830185613ca9565b6142bf6020830184613ca9565b9392505050565b60006080820190506142db6000830187613b3f565b6142e86020830186613b3f565b6142f56040830185613b3f565b6143026060830184613b3f565b95945050505050565b600060c0820190506143206000830189613ca9565b61432d6020830188613ca9565b61433a6040830187613b3f565b6143476060830186613ca9565b6143546080830185613b3f565b61436160a0830184613ca9565b979650505050505050565b60006040820190506143816000830185613ca9565b61438e6020830184613ac2565b9392505050565b60006080820190506143aa6000830187613ca9565b6143b76020830186613ca9565b6143c46040830185613ca9565b6143d16060830184613b3f565b95945050505050565b600081519050919050565b600081905092915050565b60005b8381101561440e5780820151818401526020810190506143f3565b60008484015250505050565b6000614425826143da565b61442f81856143e5565b935061443f8185602086016143f0565b80840191505092915050565b6000614457828461441a565b91508190509291505056fea2646970667358221220a1f50d5262cd47ffaf74349dd8d9ec5415715e6349aac3ea4a1c913f14b6ec7064736f6c63430008180033",
          "opcodes": "PUSH1 0x80 PUSH1 0x40 MSTORE CALLVALUE DUP1 ISZERO PUSH2 0x10 JUMPI PUSH1 0x0 DUP1 REVERT JUMPDEST POP PUSH2 0x4498 DUP1 PUSH2 0x20 PUSH1 0x0 CODECOPY PUSH1 0x0 RETURN INVALID PUSH1 0x80 PUSH1 0x40 MSTORE CALLVALUE DUP1 ISZERO PUSH2 0x10 JUMPI PUSH1 0x0 DUP1 REVERT JUMPDEST POP PUSH1 0x4 CALLDATASIZE LT PUSH2 0x232 JUMPI PUSH1 0x0 CALLDATALOAD PUSH1 0xE0 SHR DUP1 PUSH4 0x5C975ABB GT PUSH2 0x130 JUMPI DUP1 PUSH4 0xA217FDDF GT PUSH2 0xB8 JUMPI DUP1 PUSH4 0xDBF49561 GT PUSH2 0x7C JUMPI DUP1 PUSH4 0xDBF49561 EQ PUSH2 0x6A9 JUMPI DUP1 PUSH4 0xE7AF32BA EQ PUSH2 0x6C7 JUMPI DUP1 PUSH4 0xFBFA77CF EQ PUSH2 0x6E5 JUMPI DUP1 PUSH4 0xFC0C546A EQ PUSH2 0x703 JUMPI DUP1 PUSH4 0xFC157CB4 EQ PUSH2 0x721 JUMPI PUSH2 0x232 JUMP JUMPDEST DUP1 PUSH4 0xA217FDDF EQ PUSH2 0x5F3 JUMPI DUP1 PUSH4 0xBA6DA001 EQ PUSH2 0x611 JUMPI DUP1 PUSH4 0xD547741F EQ PUSH2 0x641 JUMPI DUP1 PUSH4 0xD5B49A71 EQ PUSH2 0x65D JUMPI DUP1 PUSH4 0xD8690FEA EQ PUSH2 0x679 JUMPI PUSH2 0x232 JUMP JUMPDEST DUP1 PUSH4 0x8456CB59 GT PUSH2 0xFF JUMPI DUP1 PUSH4 0x8456CB59 EQ PUSH2 0x561 JUMPI DUP1 PUSH4 0x89D6D0DE EQ PUSH2 0x56B JUMPI DUP1 PUSH4 0x91D14854 EQ PUSH2 0x589 JUMPI DUP1 PUSH4 0x951EF92D EQ PUSH2 0x5B9 JUMPI DUP1 PUSH4 0x98A9C92B EQ PUSH2 0x5D7 JUMPI PUSH2 0x232 JUMP JUMPDEST DUP1 PUSH4 0x5C975ABB EQ PUSH2 0x4D7 JUMPI DUP1 PUSH4 0x60E14B60 EQ PUSH2 0x4F5 JUMPI DUP1 PUSH4 0x6C572893 EQ PUSH2 0x513 JUMPI DUP1 PUSH4 0x700C4590 EQ PUSH2 0x52F JUMPI PUSH2 0x232 JUMP JUMPDEST DUP1 PUSH4 0x36568ABE GT PUSH2 0x1BE JUMPI DUP1 PUSH4 0x492FB343 GT PUSH2 0x182 JUMPI DUP1 PUSH4 0x492FB343 EQ PUSH2 0x41B JUMPI DUP1 PUSH4 0x4B75F54F EQ PUSH2 0x439 JUMPI DUP1 PUSH4 0x57F6508B EQ PUSH2 0x457 JUMPI DUP1 PUSH4 0x5B23AF0A EQ PUSH2 0x487 JUMPI DUP1 PUSH4 0x5B933EE6 EQ PUSH2 0x4B9 JUMPI PUSH2 0x232 JUMP JUMPDEST DUP1 PUSH4 0x36568ABE EQ PUSH2 0x389 JUMPI DUP1 PUSH4 0x389ED267 EQ PUSH2 0x3A5 JUMPI DUP1 PUSH4 0x39952B88 EQ PUSH2 0x3C3 JUMPI DUP1 PUSH4 0x3F4BA83A EQ PUSH2 0x3F3 JUMPI DUP1 PUSH4 0x41644F8C EQ PUSH2 0x3FD JUMPI PUSH2 0x232 JUMP JUMPDEST DUP1 PUSH4 0x17F69222 GT PUSH2 0x205 JUMPI DUP1 PUSH4 0x17F69222 EQ PUSH2 0x2BF JUMPI DUP1 PUSH4 0x24234532 EQ PUSH2 0x2EF JUMPI DUP1 PUSH4 0x248A9CA3 EQ PUSH2 0x31F JUMPI DUP1 PUSH4 0x2A709B14 EQ PUSH2 0x34F JUMPI DUP1 PUSH4 0x2F2FF15D EQ PUSH2 0x36D JUMPI PUSH2 0x232 JUMP JUMPDEST DUP1 PUSH4 0x1FFC9A7 EQ PUSH2 0x237 JUMPI DUP1 PUSH4 0xD720BBC EQ PUSH2 0x267 JUMPI DUP1 PUSH4 0xE6C7A66 EQ PUSH2 0x285 JUMPI DUP1 PUSH4 0xE85D277 EQ PUSH2 0x2A1 JUMPI JUMPDEST PUSH1 0x0 DUP1 REVERT JUMPDEST PUSH2 0x251 PUSH1 0x4 DUP1 CALLDATASIZE SUB DUP2 ADD SWAP1 PUSH2 0x24C SWAP2 SWAP1 PUSH2 0x37C6 JUMP JUMPDEST PUSH2 0x73F JUMP JUMPDEST PUSH1 0x40 MLOAD PUSH2 0x25E SWAP2 SWAP1 PUSH2 0x380E JUMP JUMPDEST PUSH1 0x40 MLOAD DUP1 SWAP2 SUB SWAP1 RETURN JUMPDEST PUSH2 0x26F PUSH2 0x7B9 JUMP JUMPDEST PUSH1 0x40 MLOAD PUSH2 0x27C SWAP2 SWAP1 PUSH2 0x3848 JUMP JUMPDEST PUSH1 0x40 MLOAD DUP1 SWAP2 SUB SWAP1 RETURN JUMPDEST PUSH2 0x29F PUSH1 0x4 DUP1 CALLDATASIZE SUB DUP2 ADD SWAP1 PUSH2 0x29A SWAP2 SWAP1 PUSH2 0x3A00 JUMP JUMPDEST PUSH2 0x7C0 JUMP JUMPDEST STOP JUMPDEST PUSH2 0x2A9 PUSH2 0xB34 JUMP JUMPDEST PUSH1 0x40 MLOAD PUSH2 0x2B6 SWAP2 SWAP1 PUSH2 0x3AD1 JUMP JUMPDEST PUSH1 0x40 MLOAD DUP1 SWAP2 SUB SWAP1 RETURN JUMPDEST PUSH2 0x2D9 PUSH1 0x4 DUP1 CALLDATASIZE SUB DUP2 ADD SWAP1 PUSH2 0x2D4 SWAP2 SWAP1 PUSH2 0x3AEC JUMP JUMPDEST PUSH2 0xB58 JUMP JUMPDEST PUSH1 0x40 MLOAD PUSH2 0x2E6 SWAP2 SWAP1 PUSH2 0x3B4E JUMP JUMPDEST PUSH1 0x40 MLOAD DUP1 SWAP2 SUB SWAP1 RETURN JUMPDEST PUSH2 0x309 PUSH1 0x4 DUP1 CALLDATASIZE SUB DUP2 ADD SWAP1 PUSH2 0x304 SWAP2 SWAP1 PUSH2 0x3B69 JUMP JUMPDEST PUSH2 0xB77 JUMP JUMPDEST PUSH1 0x40 MLOAD PUSH2 0x316 SWAP2 SWAP1 PUSH2 0x3848 JUMP JUMPDEST PUSH1 0x40 MLOAD DUP1 SWAP2 SUB SWAP1 RETURN JUMPDEST PUSH2 0x339 PUSH1 0x4 DUP1 CALLDATASIZE SUB DUP2 ADD SWAP1 PUSH2 0x334 SWAP2 SWAP1 PUSH2 0x3BC2 JUMP JUMPDEST PUSH2 0xB9A JUMP JUMPDEST PUSH1 0x40 MLOAD PUSH2 0x346 SWAP2 SWAP1 PUSH2 0x3AD1 JUMP JUMPDEST PUSH1 0x40 MLOAD DUP1 SWAP2 SUB SWAP1 RETURN JUMPDEST PUSH2 0x357 PUSH2 0xBC8 JUMP JUMPDEST PUSH1 0x40 MLOAD PUSH2 0x364 SWAP2 SWAP1 PUSH2 0x3C4E JUMP JUMPDEST PUSH1 0x40 MLOAD DUP1 SWAP2 SUB SWAP1 RETURN JUMPDEST PUSH2 0x387 PUSH1 0x4 DUP1 CALLDATASIZE SUB DUP2 ADD SWAP1 PUSH2 0x382 SWAP2 SWAP1 PUSH2 0x3C69 JUMP JUMPDEST PUSH2 0xBEE JUMP JUMPDEST STOP JUMPDEST PUSH2 0x3A3 PUSH1 0x4 DUP1 CALLDATASIZE SUB DUP2 ADD SWAP1 PUSH2 0x39E SWAP2 SWAP1 PUSH2 0x3C69 JUMP JUMPDEST PUSH2 0xC10 JUMP JUMPDEST STOP JUMPDEST PUSH2 0x3AD PUSH2 0xC8B JUMP JUMPDEST PUSH1 0x40 MLOAD PUSH2 0x3BA SWAP2 SWAP1 PUSH2 0x3AD1 JUMP JUMPDEST PUSH1 0x40 MLOAD DUP1 SWAP2 SUB SWAP1 RETURN JUMPDEST PUSH2 0x3DD PUSH1 0x4 DUP1 CALLDATASIZE SUB DUP2 ADD SWAP1 PUSH2 0x3D8 SWAP2 SWAP1 PUSH2 0x3AEC JUMP JUMPDEST PUSH2 0xCAF JUMP JUMPDEST PUSH1 0x40 MLOAD PUSH2 0x3EA SWAP2 SWAP1 PUSH2 0x3B4E JUMP JUMPDEST PUSH1 0x40 MLOAD DUP1 SWAP2 SUB SWAP1 RETURN JUMPDEST PUSH2 0x3FB PUSH2 0xCCE JUMP JUMPDEST STOP JUMPDEST PUSH2 0x405 PUSH2 0xD03 JUMP JUMPDEST PUSH1 0x40 MLOAD PUSH2 0x412 SWAP2 SWAP1 PUSH2 0x3AD1 JUMP JUMPDEST PUSH1 0x40 MLOAD DUP1 SWAP2 SUB SWAP1 RETURN JUMPDEST PUSH2 0x423 PUSH2 0xD27 JUMP JUMPDEST PUSH1 0x40 MLOAD PUSH2 0x430 SWAP2 SWAP1 PUSH2 0x3CB8 JUMP JUMPDEST PUSH1 0x40 MLOAD DUP1 SWAP2 SUB SWAP1 RETURN JUMPDEST PUSH2 0x441 PUSH2 0xD4D JUMP JUMPDEST PUSH1 0x40 MLOAD PUSH2 0x44E SWAP2 SWAP1 PUSH2 0x3CF4 JUMP JUMPDEST PUSH1 0x40 MLOAD DUP1 SWAP2 SUB SWAP1 RETURN JUMPDEST PUSH2 0x471 PUSH1 0x4 DUP1 CALLDATASIZE SUB DUP2 ADD SWAP1 PUSH2 0x46C SWAP2 SWAP1 PUSH2 0x3D0F JUMP JUMPDEST PUSH2 0xD73 JUMP JUMPDEST PUSH1 0x40 MLOAD PUSH2 0x47E SWAP2 SWAP1 PUSH2 0x3B4E JUMP JUMPDEST PUSH1 0x40 MLOAD DUP1 SWAP2 SUB SWAP1 RETURN JUMPDEST PUSH2 0x4A1 PUSH1 0x4 DUP1 CALLDATASIZE SUB DUP2 ADD SWAP1 PUSH2 0x49C SWAP2 SWAP1 PUSH2 0x3D76 JUMP JUMPDEST PUSH2 0xD93 JUMP JUMPDEST PUSH1 0x40 MLOAD PUSH2 0x4B0 SWAP4 SWAP3 SWAP2 SWAP1 PUSH2 0x3DB6 JUMP JUMPDEST PUSH1 0x40 MLOAD DUP1 SWAP2 SUB SWAP1 RETURN JUMPDEST PUSH2 0x4C1 PUSH2 0xE87 JUMP JUMPDEST PUSH1 0x40 MLOAD PUSH2 0x4CE SWAP2 SWAP1 PUSH2 0x3B4E JUMP JUMPDEST PUSH1 0x40 MLOAD DUP1 SWAP2 SUB SWAP1 RETURN JUMPDEST PUSH2 0x4DF PUSH2 0xE8D JUMP JUMPDEST PUSH1 0x40 MLOAD PUSH2 0x4EC SWAP2 SWAP1 PUSH2 0x380E JUMP JUMPDEST PUSH1 0x40 MLOAD DUP1 SWAP2 SUB SWAP1 RETURN JUMPDEST PUSH2 0x4FD PUSH2 0xEB2 JUMP JUMPDEST PUSH1 0x40 MLOAD PUSH2 0x50A SWAP2 SWAP1 PUSH2 0x3AD1 JUMP JUMPDEST PUSH1 0x40 MLOAD DUP1 SWAP2 SUB SWAP1 RETURN JUMPDEST PUSH2 0x52D PUSH1 0x4 DUP1 CALLDATASIZE SUB DUP2 ADD SWAP1 PUSH2 0x528 SWAP2 SWAP1 PUSH2 0x3B69 JUMP JUMPDEST PUSH2 0xED6 JUMP JUMPDEST STOP JUMPDEST PUSH2 0x549 PUSH1 0x4 DUP1 CALLDATASIZE SUB DUP2 ADD SWAP1 PUSH2 0x544 SWAP2 SWAP1 PUSH2 0x3D76 JUMP JUMPDEST PUSH2 0xF4D JUMP JUMPDEST PUSH1 0x40 MLOAD PUSH2 0x558 SWAP4 SWAP3 SWAP2 SWAP1 PUSH2 0x3DB6 JUMP JUMPDEST PUSH1 0x40 MLOAD DUP1 SWAP2 SUB SWAP1 RETURN JUMPDEST PUSH2 0x569 PUSH2 0x1071 JUMP JUMPDEST STOP JUMPDEST PUSH2 0x573 PUSH2 0x10A6 JUMP JUMPDEST PUSH1 0x40 MLOAD PUSH2 0x580 SWAP2 SWAP1 PUSH2 0x3B4E JUMP JUMPDEST PUSH1 0x40 MLOAD DUP1 SWAP2 SUB SWAP1 RETURN JUMPDEST PUSH2 0x5A3 PUSH1 0x4 DUP1 CALLDATASIZE SUB DUP2 ADD SWAP1 PUSH2 0x59E SWAP2 SWAP1 PUSH2 0x3C69 JUMP JUMPDEST PUSH2 0x10AC JUMP JUMPDEST PUSH1 0x40 MLOAD PUSH2 0x5B0 SWAP2 SWAP1 PUSH2 0x380E JUMP JUMPDEST PUSH1 0x40 MLOAD DUP1 SWAP2 SUB SWAP1 RETURN JUMPDEST PUSH2 0x5C1 PUSH2 0x1125 JUMP JUMPDEST PUSH1 0x40 MLOAD PUSH2 0x5CE SWAP2 SWAP1 PUSH2 0x3B4E JUMP JUMPDEST PUSH1 0x40 MLOAD DUP1 SWAP2 SUB SWAP1 RETURN JUMPDEST PUSH2 0x5F1 PUSH1 0x4 DUP1 CALLDATASIZE SUB DUP2 ADD SWAP1 PUSH2 0x5EC SWAP2 SWAP1 PUSH2 0x3DED JUMP JUMPDEST PUSH2 0x112B JUMP JUMPDEST STOP JUMPDEST PUSH2 0x5FB PUSH2 0x117E JUMP JUMPDEST PUSH1 0x40 MLOAD PUSH2 0x608 SWAP2 SWAP1 PUSH2 0x3AD1 JUMP JUMPDEST PUSH1 0x40 MLOAD DUP1 SWAP2 SUB SWAP1 RETURN JUMPDEST PUSH2 0x62B PUSH1 0x4 DUP1 CALLDATASIZE SUB DUP2 ADD SWAP1 PUSH2 0x626 SWAP2 SWAP1 PUSH2 0x3E46 JUMP JUMPDEST PUSH2 0x1185 JUMP JUMPDEST PUSH1 0x40 MLOAD PUSH2 0x638 SWAP2 SWAP1 PUSH2 0x380E JUMP JUMPDEST PUSH1 0x40 MLOAD DUP1 SWAP2 SUB SWAP1 RETURN JUMPDEST PUSH2 0x65B PUSH1 0x4 DUP1 CALLDATASIZE SUB DUP2 ADD SWAP1 PUSH2 0x656 SWAP2 SWAP1 PUSH2 0x3C69 JUMP JUMPDEST PUSH2 0x171A JUMP JUMPDEST STOP JUMPDEST PUSH2 0x677 PUSH1 0x4 DUP1 CALLDATASIZE SUB DUP2 ADD SWAP1 PUSH2 0x672 SWAP2 SWAP1 PUSH2 0x3B69 JUMP JUMPDEST PUSH2 0x173C JUMP JUMPDEST STOP JUMPDEST PUSH2 0x693 PUSH1 0x4 DUP1 CALLDATASIZE SUB DUP2 ADD SWAP1 PUSH2 0x68E SWAP2 SWAP1 PUSH2 0x3D0F JUMP JUMPDEST PUSH2 0x17B3 JUMP JUMPDEST PUSH1 0x40 MLOAD PUSH2 0x6A0 SWAP2 SWAP1 PUSH2 0x3B4E JUMP JUMPDEST PUSH1 0x40 MLOAD DUP1 SWAP2 SUB SWAP1 RETURN JUMPDEST PUSH2 0x6B1 PUSH2 0x17D3 JUMP JUMPDEST PUSH1 0x40 MLOAD PUSH2 0x6BE SWAP2 SWAP1 PUSH2 0x3B4E JUMP JUMPDEST PUSH1 0x40 MLOAD DUP1 SWAP2 SUB SWAP1 RETURN JUMPDEST PUSH2 0x6CF PUSH2 0x17D9 JUMP JUMPDEST PUSH1 0x40 MLOAD PUSH2 0x6DC SWAP2 SWAP1 PUSH2 0x3CB8 JUMP JUMPDEST PUSH1 0x40 MLOAD DUP1 SWAP2 SUB SWAP1 RETURN JUMPDEST PUSH2 0x6ED PUSH2 0x17FF JUMP JUMPDEST PUSH1 0x40 MLOAD PUSH2 0x6FA SWAP2 SWAP1 PUSH2 0x3ECE JUMP JUMPDEST PUSH1 0x40 MLOAD DUP1 SWAP2 SUB SWAP1 RETURN JUMPDEST PUSH2 0x70B PUSH2 0x1825 JUMP JUMPDEST PUSH1 0x40 MLOAD PUSH2 0x718 SWAP2 SWAP1 PUSH2 0x3F0A JUMP JUMPDEST PUSH1 0x40 MLOAD DUP1 SWAP2 SUB SWAP1 RETURN JUMPDEST PUSH2 0x729 PUSH2 0x1849 JUMP JUMPDEST PUSH1 0x40 MLOAD PUSH2 0x736 SWAP2 SWAP1 PUSH2 0x3B4E JUMP JUMPDEST PUSH1 0x40 MLOAD DUP1 SWAP2 SUB SWAP1 RETURN JUMPDEST PUSH1 0x0 PUSH32 0x7965DB0B00000000000000000000000000000000000000000000000000000000 PUSH28 0xFFFFFFFFFFFFFFFFFFFFFFFFFFFFFFFFFFFFFFFFFFFFFFFFFFFFFFFF NOT AND DUP3 PUSH28 0xFFFFFFFFFFFFFFFFFFFFFFFFFFFFFFFFFFFFFFFFFFFFFFFFFFFFFFFF NOT AND EQ DUP1 PUSH2 0x7B2 JUMPI POP PUSH2 0x7B1 DUP3 PUSH2 0x1855 JUMP JUMPDEST JUMPDEST SWAP1 POP SWAP2 SWAP1 POP JUMP JUMPDEST PUSH3 0xF4240 DUP2 JUMP JUMPDEST PUSH1 0x0 PUSH2 0x7CA PUSH2 0x18BF JUMP JUMPDEST SWAP1 POP PUSH1 0x0 DUP2 PUSH1 0x0 ADD PUSH1 0x8 SWAP1 SLOAD SWAP1 PUSH2 0x100 EXP SWAP1 DIV PUSH1 0xFF AND ISZERO SWAP1 POP PUSH1 0x0 DUP3 PUSH1 0x0 ADD PUSH1 0x0 SWAP1 SLOAD SWAP1 PUSH2 0x100 EXP SWAP1 DIV PUSH8 0xFFFFFFFFFFFFFFFF AND SWAP1 POP PUSH1 0x0 DUP1 DUP3 PUSH8 0xFFFFFFFFFFFFFFFF AND EQ DUP1 ISZERO PUSH2 0x818 JUMPI POP DUP3 JUMPDEST SWAP1 POP PUSH1 0x0 PUSH1 0x1 DUP4 PUSH8 0xFFFFFFFFFFFFFFFF AND EQ DUP1 ISZERO PUSH2 0x84D JUMPI POP PUSH1 0x0 ADDRESS PUSH20 0xFFFFFFFFFFFFFFFFFFFFFFFFFFFFFFFFFFFFFFFF AND EXTCODESIZE EQ JUMPDEST SWAP1 POP DUP2 ISZERO DUP1 ISZERO PUSH2 0x85B JUMPI POP DUP1 ISZERO JUMPDEST ISZERO PUSH2 0x892 JUMPI PUSH1 0x40 MLOAD PUSH32 0xF92EE8A900000000000000000000000000000000000000000000000000000000 DUP2 MSTORE PUSH1 0x4 ADD PUSH1 0x40 MLOAD DUP1 SWAP2 SUB SWAP1 REVERT JUMPDEST PUSH1 0x1 DUP6 PUSH1 0x0 ADD PUSH1 0x0 PUSH2 0x100 EXP DUP2 SLOAD DUP2 PUSH8 0xFFFFFFFFFFFFFFFF MUL NOT AND SWAP1 DUP4 PUSH8 0xFFFFFFFFFFFFFFFF AND MUL OR SWAP1 SSTORE POP DUP4 ISZERO PUSH2 0x8E2 JUMPI PUSH1 0x1 DUP6 PUSH1 0x0 ADD PUSH1 0x8 PUSH2 0x100 EXP DUP2 SLOAD DUP2 PUSH1 0xFF MUL NOT AND SWAP1 DUP4 ISZERO ISZERO MUL OR SWAP1 SSTORE POP JUMPDEST PUSH2 0x8EA PUSH2 0x18E7 JUMP JUMPDEST PUSH2 0x8F2 PUSH2 0x18F1 JUMP JUMPDEST PUSH2 0x901 DUP14 DUP14 DUP14 DUP14 DUP14 DUP13 DUP13 PUSH2 0x1903 JUMP JUMPDEST PUSH2 0x90A DUP9 PUSH2 0x1ACC JUMP JUMPDEST DUP13 PUSH1 0x0 DUP1 PUSH2 0x100 EXP DUP2 SLOAD DUP2 PUSH20 0xFFFFFFFFFFFFFFFFFFFFFFFFFFFFFFFFFFFFFFFF MUL NOT AND SWAP1 DUP4 PUSH20 0xFFFFFFFFFFFFFFFFFFFFFFFFFFFFFFFFFFFFFFFF AND MUL OR SWAP1 SSTORE POP DUP12 PUSH1 0x1 PUSH1 0x0 PUSH2 0x100 EXP DUP2 SLOAD DUP2 PUSH20 0xFFFFFFFFFFFFFFFFFFFFFFFFFFFFFFFFFFFFFFFF MUL NOT AND SWAP1 DUP4 PUSH20 0xFFFFFFFFFFFFFFFFFFFFFFFFFFFFFFFFFFFFFFFF AND MUL OR SWAP1 SSTORE POP DUP10 PUSH1 0x2 PUSH1 0x0 PUSH2 0x100 EXP DUP2 SLOAD DUP2 PUSH20 0xFFFFFFFFFFFFFFFFFFFFFFFFFFFFFFFFFFFFFFFF MUL NOT AND SWAP1 DUP4 PUSH20 0xFFFFFFFFFFFFFFFFFFFFFFFFFFFFFFFFFFFFFFFF AND MUL OR SWAP1 SSTORE POP DUP9 PUSH1 0x3 PUSH1 0x0 PUSH2 0x100 EXP DUP2 SLOAD DUP2 PUSH20 0xFFFFFFFFFFFFFFFFFFFFFFFFFFFFFFFFFFFFFFFF MUL NOT AND SWAP1 DUP4 PUSH20 0xFFFFFFFFFFFFFFFFFFFFFFFFFFFFFFFFFFFFFFFF AND MUL OR SWAP1 SSTORE POP DUP8 PUSH1 0x0 ADD MLOAD PUSH1 0x4 DUP2 SWAP1 SSTORE POP DUP8 PUSH1 0x20 ADD MLOAD PUSH1 0x5 DUP2 SWAP1 SSTORE POP DUP8 PUSH1 0x40 ADD MLOAD PUSH1 0x6 DUP2 SWAP1 SSTORE POP DUP8 PUSH1 0x60 ADD MLOAD PUSH1 0x7 DUP2 SWAP1 SSTORE POP DUP7 PUSH1 0x8 PUSH1 0x0 PUSH2 0x100 EXP DUP2 SLOAD DUP2 PUSH20 0xFFFFFFFFFFFFFFFFFFFFFFFFFFFFFFFFFFFFFFFF MUL NOT AND SWAP1 DUP4 PUSH20 0xFFFFFFFFFFFFFFFFFFFFFFFFFFFFFFFFFFFFFFFF AND MUL OR SWAP1 SSTORE POP DUP6 PUSH1 0x9 PUSH1 0x0 PUSH2 0x100 EXP DUP2 SLOAD DUP2 PUSH20 0xFFFFFFFFFFFFFFFFFFFFFFFFFFFFFFFFFFFFFFFF MUL NOT AND SWAP1 DUP4 PUSH20 0xFFFFFFFFFFFFFFFFFFFFFFFFFFFFFFFFFFFFFFFF AND MUL OR SWAP1 SSTORE POP PUSH2 0xAC8 PUSH1 0x0 DUP1 SHL DUP13 PUSH2 0x1B47 JUMP JUMPDEST POP DUP4 ISZERO PUSH2 0xB25 JUMPI PUSH1 0x0 DUP6 PUSH1 0x0 ADD PUSH1 0x8 PUSH2 0x100 EXP DUP2 SLOAD DUP2 PUSH1 0xFF MUL NOT AND SWAP1 DUP4 ISZERO ISZERO MUL OR SWAP1 SSTORE POP PUSH32 0xC7F505B2F371AE2175EE4913F4499E1F2633A7B5936321EED1CDAEB6115181D2 PUSH1 0x1 PUSH1 0x40 MLOAD PUSH2 0xB1C SWAP2 SWAP1 PUSH2 0x3F74 JUMP JUMPDEST PUSH1 0x40 MLOAD DUP1 SWAP2 SUB SWAP1 LOG1 JUMPDEST POP POP POP POP POP POP POP POP POP POP POP POP POP JUMP JUMPDEST PUSH32 0xBFB76D8D43F55EFE58544EA32AF187792A7BDB983850D8FED33478266EEC3CBB DUP2 JUMP JUMPDEST PUSH1 0x0 PUSH2 0xB62 PUSH2 0x1C48 JUMP JUMPDEST PUSH2 0xB6E DUP5 DUP5 CALLER DUP6 PUSH2 0x1C89 JUMP JUMPDEST SWAP1 POP SWAP4 SWAP3 POP POP POP JUMP JUMPDEST PUSH1 0xA PUSH1 0x20 MSTORE DUP1 PUSH1 0x0 MSTORE PUSH1 0x40 PUSH1 0x0 KECCAK256 PUSH1 0x0 SWAP2 POP SLOAD SWAP1 PUSH2 0x100 EXP SWAP1 DIV PUSH4 0xFFFFFFFF AND DUP2 JUMP JUMPDEST PUSH1 0x0 DUP1 PUSH2 0xBA5 PUSH2 0x1E92 JUMP JUMPDEST SWAP1 POP DUP1 PUSH1 0x0 ADD PUSH1 0x0 DUP5 DUP2 MSTORE PUSH1 0x20 ADD SWAP1 DUP2 MSTORE PUSH1 0x20 ADD PUSH1 0x0 KECCAK256 PUSH1 0x1 ADD SLOAD SWAP2 POP POP SWAP2 SWAP1 POP JUMP JUMPDEST PUSH1 0x2 PUSH1 0x0 SWAP1 SLOAD SWAP1 PUSH2 0x100 EXP SWAP1 DIV PUSH20 0xFFFFFFFFFFFFFFFFFFFFFFFFFFFFFFFFFFFFFFFF AND DUP2 JUMP JUMPDEST PUSH2 0xBF7 DUP3 PUSH2 0xB9A JUMP JUMPDEST PUSH2 0xC00 DUP2 PUSH2 0x1EBA JUMP JUMPDEST PUSH2 0xC0A DUP4 DUP4 PUSH2 0x1B47 JUMP JUMPDEST POP POP POP POP JUMP JUMPDEST PUSH2 0xC18 PUSH2 0x1ECE JUMP JUMPDEST PUSH20 0xFFFFFFFFFFFFFFFFFFFFFFFFFFFFFFFFFFFFFFFF AND DUP2 PUSH20 0xFFFFFFFFFFFFFFFFFFFFFFFFFFFFFFFFFFFFFFFF AND EQ PUSH2 0xC7C JUMPI PUSH1 0x40 MLOAD PUSH32 0x6697B23200000000000000000000000000000000000000000000000000000000 DUP2 MSTORE PUSH1 0x4 ADD PUSH1 0x40 MLOAD DUP1 SWAP2 SUB SWAP1 REVERT JUMPDEST PUSH2 0xC86 DUP3 DUP3 PUSH2 0x1ED6 JUMP JUMPDEST POP POP POP JUMP JUMPDEST PUSH32 0x139C2898040EF16910DC9F44DC697DF79363DA767D8BC92F2E310312B816E46D DUP2 JUMP JUMPDEST PUSH1 0x0 PUSH2 0xCB9 PUSH2 0x1C48 JUMP JUMPDEST PUSH2 0xCC5 DUP5 DUP5 CALLER DUP6 PUSH2 0x1FD8 JUMP JUMPDEST SWAP1 POP SWAP4 SWAP3 POP POP POP JUMP JUMPDEST PUSH32 0x139C2898040EF16910DC9F44DC697DF79363DA767D8BC92F2E310312B816E46D PUSH2 0xCF8 DUP2 PUSH2 0x1EBA JUMP JUMPDEST PUSH2 0xD00 PUSH2 0x21EA JUMP JUMPDEST POP JUMP JUMPDEST PUSH32 0xF7EA2B80C7B6A2CAB2C11D2290CB005C3748397358A25E17113658C83B732593 DUP2 JUMP JUMPDEST PUSH1 0x8 PUSH1 0x0 SWAP1 SLOAD SWAP1 PUSH2 0x100 EXP SWAP1 DIV PUSH20 0xFFFFFFFFFFFFFFFFFFFFFFFFFFFFFFFFFFFFFFFF AND DUP2 JUMP JUMPDEST PUSH1 0x1 PUSH1 0x0 SWAP1 SLOAD SWAP1 PUSH2 0x100 EXP SWAP1 DIV PUSH20 0xFFFFFFFFFFFFFFFFFFFFFFFFFFFFFFFFFFFFFFFF AND DUP2 JUMP JUMPDEST PUSH1 0x0 PUSH2 0xD7D PUSH2 0x1C48 JUMP JUMPDEST PUSH2 0xD89 DUP6 DUP6 DUP6 DUP6 PUSH2 0x1FD8 JUMP JUMPDEST SWAP1 POP SWAP5 SWAP4 POP POP POP POP JUMP JUMPDEST PUSH1 0x0 DUP1 PUSH1 0x0 DUP1 PUSH1 0x0 DUP1 PUSH2 0xDA6 DUP9 DUP9 PUSH2 0x225C JUMP JUMPDEST SWAP3 POP SWAP3 POP SWAP3 POP PUSH1 0x0 PUSH1 0x1 PUSH1 0x0 SWAP1 SLOAD SWAP1 PUSH2 0x100 EXP SWAP1 DIV PUSH20 0xFFFFFFFFFFFFFFFFFFFFFFFFFFFFFFFFFFFFFFFF AND PUSH20 0xFFFFFFFFFFFFFFFFFFFFFFFFFFFFFFFFFFFFFFFF AND PUSH4 0x49F9B0F7 DUP4 DUP6 DUP8 DUP13 PUSH1 0x40 MLOAD DUP6 PUSH4 0xFFFFFFFF AND PUSH1 0xE0 SHL DUP2 MSTORE PUSH1 0x4 ADD PUSH2 0xE0F SWAP5 SWAP4 SWAP3 SWAP2 SWAP1 PUSH2 0x3F8F JUMP JUMPDEST PUSH1 0x20 PUSH1 0x40 MLOAD DUP1 DUP4 SUB DUP2 DUP7 GAS STATICCALL ISZERO DUP1 ISZERO PUSH2 0xE2C JUMPI RETURNDATASIZE PUSH1 0x0 DUP1 RETURNDATACOPY RETURNDATASIZE PUSH1 0x0 REVERT JUMPDEST POP POP POP POP PUSH1 0x40 MLOAD RETURNDATASIZE PUSH1 0x1F NOT PUSH1 0x1F DUP3 ADD AND DUP3 ADD DUP1 PUSH1 0x40 MSTORE POP DUP2 ADD SWAP1 PUSH2 0xE50 SWAP2 SWAP1 PUSH2 0x3FE9 JUMP JUMPDEST SWAP1 POP PUSH2 0xE5B DUP2 PUSH2 0x2546 JUMP JUMPDEST DUP1 SWAP7 POP DUP2 SWAP8 POP POP POP DUP5 DUP7 DUP3 PUSH2 0xE70 SWAP2 SWAP1 PUSH2 0x4045 JUMP JUMPDEST PUSH2 0xE7A SWAP2 SWAP1 PUSH2 0x4045 JUMP JUMPDEST SWAP7 POP POP POP POP POP SWAP3 POP SWAP3 POP SWAP3 JUMP JUMPDEST PUSH1 0x7 SLOAD DUP2 JUMP JUMPDEST PUSH1 0x0 DUP1 PUSH2 0xE98 PUSH2 0x2594 JUMP JUMPDEST SWAP1 POP DUP1 PUSH1 0x0 ADD PUSH1 0x0 SWAP1 SLOAD SWAP1 PUSH2 0x100 EXP SWAP1 DIV PUSH1 0xFF AND SWAP2 POP POP SWAP1 JUMP JUMPDEST PUSH32 0x5F9BE2932ED3A723F295A763BE1804C7EBFD1A41C1348FB8BDF5BE1C5CDCA822 DUP2 JUMP JUMPDEST PUSH32 0xF7EA2B80C7B6A2CAB2C11D2290CB005C3748397358A25E17113658C83B732593 PUSH2 0xF00 DUP2 PUSH2 0x1EBA JUMP JUMPDEST PUSH2 0xF09 DUP3 PUSH2 0x25BC JUMP JUMPDEST ISZERO PUSH2 0xF40 JUMPI PUSH1 0x40 MLOAD PUSH32 0xADFDB05B00000000000000000000000000000000000000000000000000000000 DUP2 MSTORE PUSH1 0x4 ADD PUSH1 0x40 MLOAD DUP1 SWAP2 SUB SWAP1 REVERT JUMPDEST PUSH2 0xF49 DUP3 PUSH2 0x25F4 JUMP JUMPDEST POP POP JUMP JUMPDEST PUSH1 0x0 DUP1 PUSH1 0x0 DUP1 PUSH1 0x0 DUP1 PUSH2 0xF60 DUP9 DUP9 PUSH2 0x225C JUMP JUMPDEST SWAP3 POP SWAP3 POP SWAP3 POP PUSH1 0x0 PUSH1 0x1 PUSH1 0x0 SWAP1 SLOAD SWAP1 PUSH2 0x100 EXP SWAP1 DIV PUSH20 0xFFFFFFFFFFFFFFFFFFFFFFFFFFFFFFFFFFFFFFFF AND PUSH20 0xFFFFFFFFFFFFFFFFFFFFFFFFFFFFFFFFFFFFFFFF AND PUSH4 0x1DA6BBFB DUP4 DUP6 DUP8 DUP13 PUSH1 0x40 MLOAD DUP6 PUSH4 0xFFFFFFFF AND PUSH1 0xE0 SHL DUP2 MSTORE PUSH1 0x4 ADD PUSH2 0xFC9 SWAP5 SWAP4 SWAP3 SWAP2 SWAP1 PUSH2 0x3F8F JUMP JUMPDEST PUSH1 0x20 PUSH1 0x40 MLOAD DUP1 DUP4 SUB DUP2 DUP7 GAS STATICCALL ISZERO DUP1 ISZERO PUSH2 0xFE6 JUMPI RETURNDATASIZE PUSH1 0x0 DUP1 RETURNDATACOPY RETURNDATASIZE PUSH1 0x0 REVERT JUMPDEST POP POP POP POP PUSH1 0x40 MLOAD RETURNDATASIZE PUSH1 0x1F NOT PUSH1 0x1F DUP3 ADD AND DUP3 ADD DUP1 PUSH1 0x40 MSTORE POP DUP2 ADD SWAP1 PUSH2 0x100A SWAP2 SWAP1 PUSH2 0x3FE9 JUMP JUMPDEST SWAP1 POP PUSH1 0x0 PUSH1 0x6 SLOAD PUSH1 0x4 SLOAD PUSH2 0x101E SWAP2 SWAP1 PUSH2 0x4079 JUMP JUMPDEST SWAP1 POP DUP1 PUSH8 0xDE0B6B3A7640000 PUSH2 0x1034 SWAP2 SWAP1 PUSH2 0x4045 JUMP JUMPDEST PUSH8 0xDE0B6B3A7640000 DUP4 PUSH2 0x1048 SWAP2 SWAP1 PUSH2 0x40AD JUMP JUMPDEST PUSH2 0x1052 SWAP2 SWAP1 PUSH2 0x411E JUMP JUMPDEST SWAP8 POP PUSH2 0x105D DUP9 PUSH2 0x266F JUMP JUMPDEST DUP1 SWAP8 POP DUP2 SWAP9 POP POP POP POP POP POP POP POP SWAP3 POP SWAP3 POP SWAP3 JUMP JUMPDEST PUSH32 0x139C2898040EF16910DC9F44DC697DF79363DA767D8BC92F2E310312B816E46D PUSH2 0x109B DUP2 PUSH2 0x1EBA JUMP JUMPDEST PUSH2 0x10A3 PUSH2 0x26BD JUMP JUMPDEST POP JUMP JUMPDEST PUSH1 0x5 SLOAD DUP2 JUMP JUMPDEST PUSH1 0x0 DUP1 PUSH2 0x10B7 PUSH2 0x1E92 JUMP JUMPDEST SWAP1 POP DUP1 PUSH1 0x0 ADD PUSH1 0x0 DUP6 DUP2 MSTORE PUSH1 0x20 ADD SWAP1 DUP2 MSTORE PUSH1 0x20 ADD PUSH1 0x0 KECCAK256 PUSH1 0x0 ADD PUSH1 0x0 DUP5 PUSH20 0xFFFFFFFFFFFFFFFFFFFFFFFFFFFFFFFFFFFFFFFF AND PUSH20 0xFFFFFFFFFFFFFFFFFFFFFFFFFFFFFFFFFFFFFFFF AND DUP2 MSTORE PUSH1 0x20 ADD SWAP1 DUP2 MSTORE PUSH1 0x20 ADD PUSH1 0x0 KECCAK256 PUSH1 0x0 SWAP1 SLOAD SWAP1 PUSH2 0x100 EXP SWAP1 DIV PUSH1 0xFF AND SWAP2 POP POP SWAP3 SWAP2 POP POP JUMP JUMPDEST PUSH1 0x6 SLOAD DUP2 JUMP JUMPDEST PUSH32 0x5F9BE2932ED3A723F295A763BE1804C7EBFD1A41C1348FB8BDF5BE1C5CDCA822 PUSH2 0x1155 DUP2 PUSH2 0x1EBA JUMP JUMPDEST PUSH2 0x115E DUP3 PUSH2 0x1ACC JUMP JUMPDEST PUSH2 0x117A DUP3 PUSH1 0x0 ADD MLOAD DUP4 PUSH1 0x20 ADD MLOAD DUP5 PUSH1 0x40 ADD MLOAD DUP6 PUSH1 0x60 ADD MLOAD PUSH2 0x272F JUMP JUMPDEST POP POP JUMP JUMPDEST PUSH1 0x0 DUP1 SHL DUP2 JUMP JUMPDEST PUSH1 0x0 PUSH2 0x118F PUSH2 0x1C48 JUMP JUMPDEST PUSH2 0x1198 DUP6 PUSH2 0x25BC JUMP JUMPDEST ISZERO PUSH2 0x11CF JUMPI PUSH1 0x40 MLOAD PUSH32 0xA7EF168800000000000000000000000000000000000000000000000000000000 DUP2 MSTORE PUSH1 0x4 ADD PUSH1 0x40 MLOAD DUP1 SWAP2 SUB SWAP1 REVERT JUMPDEST PUSH1 0x9 PUSH1 0x0 SWAP1 SLOAD SWAP1 PUSH2 0x100 EXP SWAP1 DIV PUSH20 0xFFFFFFFFFFFFFFFFFFFFFFFFFFFFFFFFFFFFFFFF AND PUSH20 0xFFFFFFFFFFFFFFFFFFFFFFFFFFFFFFFFFFFFFFFF AND CALLER PUSH20 0xFFFFFFFFFFFFFFFFFFFFFFFFFFFFFFFFFFFFFFFF AND EQ PUSH2 0x1256 JUMPI PUSH1 0x40 MLOAD PUSH32 0x6802704600000000000000000000000000000000000000000000000000000000 DUP2 MSTORE PUSH1 0x4 ADD PUSH1 0x40 MLOAD DUP1 SWAP2 SUB SWAP1 REVERT JUMPDEST PUSH2 0x125F DUP5 PUSH2 0x2796 JUMP JUMPDEST PUSH2 0x1295 JUMPI PUSH1 0x40 MLOAD PUSH32 0x39A1D18100000000000000000000000000000000000000000000000000000000 DUP2 MSTORE PUSH1 0x4 ADD PUSH1 0x40 MLOAD DUP1 SWAP2 SUB SWAP1 REVERT JUMPDEST PUSH1 0x0 PUSH1 0xA PUSH1 0x0 DUP8 PUSH20 0xFFFFFFFFFFFFFFFFFFFFFFFFFFFFFFFFFFFFFFFF AND PUSH20 0xFFFFFFFFFFFFFFFFFFFFFFFFFFFFFFFFFFFFFFFF AND DUP2 MSTORE PUSH1 0x20 ADD SWAP1 DUP2 MSTORE PUSH1 0x20 ADD PUSH1 0x0 KECCAK256 PUSH1 0x0 SWAP1 SLOAD SWAP1 PUSH2 0x100 EXP SWAP1 DIV PUSH4 0xFFFFFFFF AND PUSH4 0xFFFFFFFF AND EQ PUSH2 0x1324 JUMPI PUSH1 0x40 MLOAD PUSH32 0x86D5F90700000000000000000000000000000000000000000000000000000000 DUP2 MSTORE PUSH1 0x4 ADD PUSH1 0x40 MLOAD DUP1 SWAP2 SUB SWAP1 REVERT JUMPDEST DUP4 PUSH1 0xA PUSH1 0x0 DUP8 PUSH20 0xFFFFFFFFFFFFFFFFFFFFFFFFFFFFFFFFFFFFFFFF AND PUSH20 0xFFFFFFFFFFFFFFFFFFFFFFFFFFFFFFFFFFFFFFFF AND DUP2 MSTORE PUSH1 0x20 ADD SWAP1 DUP2 MSTORE PUSH1 0x20 ADD PUSH1 0x0 KECCAK256 PUSH1 0x0 PUSH2 0x100 EXP DUP2 SLOAD DUP2 PUSH4 0xFFFFFFFF MUL NOT AND SWAP1 DUP4 PUSH4 0xFFFFFFFF AND MUL OR SWAP1 SSTORE POP PUSH1 0x0 PUSH1 0x2 PUSH1 0x0 SWAP1 SLOAD SWAP1 PUSH2 0x100 EXP SWAP1 DIV PUSH20 0xFFFFFFFFFFFFFFFFFFFFFFFFFFFFFFFFFFFFFFFF AND PUSH20 0xFFFFFFFFFFFFFFFFFFFFFFFFFFFFFFFFFFFFFFFF AND PUSH4 0xE4860339 DUP8 PUSH1 0x40 MLOAD DUP3 PUSH4 0xFFFFFFFF AND PUSH1 0xE0 SHL DUP2 MSTORE PUSH1 0x4 ADD PUSH2 0x13DF SWAP2 SWAP1 PUSH2 0x3CB8 JUMP JUMPDEST PUSH1 0x20 PUSH1 0x40 MLOAD DUP1 DUP4 SUB DUP2 DUP7 GAS STATICCALL ISZERO DUP1 ISZERO PUSH2 0x13FC JUMPI RETURNDATASIZE PUSH1 0x0 DUP1 RETURNDATACOPY RETURNDATASIZE PUSH1 0x0 REVERT JUMPDEST POP POP POP POP PUSH1 0x40 MLOAD RETURNDATASIZE PUSH1 0x1F NOT PUSH1 0x1F DUP3 ADD AND DUP3 ADD DUP1 PUSH1 0x40 MSTORE POP DUP2 ADD SWAP1 PUSH2 0x1420 SWAP2 SWAP1 PUSH2 0x4164 JUMP JUMPDEST SWAP1 POP PUSH2 0x142B DUP2 PUSH2 0x25BC JUMP JUMPDEST ISZERO PUSH2 0x1462 JUMPI PUSH1 0x40 MLOAD PUSH32 0xFCDE723100000000000000000000000000000000000000000000000000000000 DUP2 MSTORE PUSH1 0x4 ADD PUSH1 0x40 MLOAD DUP1 SWAP2 SUB SWAP1 REVERT JUMPDEST PUSH32 0x3E8BB74E6A03753BF16C1C2737DAABEE1BE3548B0F638894F10F382560D1D076 DUP7 DUP3 DUP7 DUP7 DUP10 PUSH1 0x40 MLOAD PUSH2 0x1499 SWAP6 SWAP5 SWAP4 SWAP3 SWAP2 SWAP1 PUSH2 0x4191 JUMP JUMPDEST PUSH1 0x40 MLOAD DUP1 SWAP2 SUB SWAP1 LOG1 PUSH1 0x0 DUP2 PUSH20 0xFFFFFFFFFFFFFFFFFFFFFFFFFFFFFFFFFFFFFFFF AND PUSH4 0x18160DDD PUSH1 0x40 MLOAD DUP2 PUSH4 0xFFFFFFFF AND PUSH1 0xE0 SHL DUP2 MSTORE PUSH1 0x4 ADD PUSH1 0x20 PUSH1 0x40 MLOAD DUP1 DUP4 SUB DUP2 DUP7 GAS STATICCALL ISZERO DUP1 ISZERO PUSH2 0x14EE JUMPI RETURNDATASIZE PUSH1 0x0 DUP1 RETURNDATACOPY RETURNDATASIZE PUSH1 0x0 REVERT JUMPDEST POP POP POP POP PUSH1 0x40 MLOAD RETURNDATASIZE PUSH1 0x1F NOT PUSH1 0x1F DUP3 ADD AND DUP3 ADD DUP1 PUSH1 0x40 MSTORE POP DUP2 ADD SWAP1 PUSH2 0x1512 SWAP2 SWAP1 PUSH2 0x3FE9 JUMP JUMPDEST SWAP1 POP DUP1 DUP6 EQ PUSH2 0x154D JUMPI PUSH1 0x40 MLOAD PUSH32 0x849E9AD400000000000000000000000000000000000000000000000000000000 DUP2 MSTORE PUSH1 0x4 ADD PUSH1 0x40 MLOAD DUP1 SWAP2 SUB SWAP1 REVERT JUMPDEST PUSH2 0x159A CALLER ADDRESS DUP7 PUSH1 0x0 DUP1 SLOAD SWAP1 PUSH2 0x100 EXP SWAP1 DIV PUSH20 0xFFFFFFFFFFFFFFFFFFFFFFFFFFFFFFFFFFFFFFFF AND PUSH20 0xFFFFFFFFFFFFFFFFFFFFFFFFFFFFFFFFFFFFFFFF AND PUSH2 0x27B2 SWAP1 SWAP4 SWAP3 SWAP2 SWAP1 PUSH4 0xFFFFFFFF AND JUMP JUMPDEST PUSH1 0x0 DUP1 SLOAD SWAP1 PUSH2 0x100 EXP SWAP1 DIV PUSH20 0xFFFFFFFFFFFFFFFFFFFFFFFFFFFFFFFFFFFFFFFF AND PUSH20 0xFFFFFFFFFFFFFFFFFFFFFFFFFFFFFFFFFFFFFFFF AND PUSH4 0x95EA7B3 PUSH1 0x3 PUSH1 0x0 SWAP1 SLOAD SWAP1 PUSH2 0x100 EXP SWAP1 DIV PUSH20 0xFFFFFFFFFFFFFFFFFFFFFFFFFFFFFFFFFFFFFFFF AND DUP7 PUSH1 0x40 MLOAD DUP4 PUSH4 0xFFFFFFFF AND PUSH1 0xE0 SHL DUP2 MSTORE PUSH1 0x4 ADD PUSH2 0x1617 SWAP3 SWAP2 SWAP1 PUSH2 0x41E4 JUMP JUMPDEST PUSH1 0x20 PUSH1 0x40 MLOAD DUP1 DUP4 SUB DUP2 PUSH1 0x0 DUP8 GAS CALL ISZERO DUP1 ISZERO PUSH2 0x1636 JUMPI RETURNDATASIZE PUSH1 0x0 DUP1 RETURNDATACOPY RETURNDATASIZE PUSH1 0x0 REVERT JUMPDEST POP POP POP POP PUSH1 0x40 MLOAD RETURNDATASIZE PUSH1 0x1F NOT PUSH1 0x1F DUP3 ADD AND DUP3 ADD DUP1 PUSH1 0x40 MSTORE POP DUP2 ADD SWAP1 PUSH2 0x165A SWAP2 SWAP1 PUSH2 0x4239 JUMP JUMPDEST POP PUSH1 0x3 PUSH1 0x0 SWAP1 SLOAD SWAP1 PUSH2 0x100 EXP SWAP1 DIV PUSH20 0xFFFFFFFFFFFFFFFFFFFFFFFFFFFFFFFFFFFFFFFF AND PUSH20 0xFFFFFFFFFFFFFFFFFFFFFFFFFFFFFFFFFFFFFFFF AND PUSH4 0x8340F549 DUP4 PUSH1 0x0 DUP1 SLOAD SWAP1 PUSH2 0x100 EXP SWAP1 DIV PUSH20 0xFFFFFFFFFFFFFFFFFFFFFFFFFFFFFFFFFFFFFFFF AND DUP8 PUSH1 0x40 MLOAD DUP5 PUSH4 0xFFFFFFFF AND PUSH1 0xE0 SHL DUP2 MSTORE PUSH1 0x4 ADD PUSH2 0x16DA SWAP4 SWAP3 SWAP2 SWAP1 PUSH2 0x4266 JUMP JUMPDEST PUSH1 0x0 PUSH1 0x40 MLOAD DUP1 DUP4 SUB DUP2 PUSH1 0x0 DUP8 DUP1 EXTCODESIZE ISZERO DUP1 ISZERO PUSH2 0x16F4 JUMPI PUSH1 0x0 DUP1 REVERT JUMPDEST POP GAS CALL ISZERO DUP1 ISZERO PUSH2 0x1708 JUMPI RETURNDATASIZE PUSH1 0x0 DUP1 RETURNDATACOPY RETURNDATASIZE PUSH1 0x0 REVERT JUMPDEST POP POP POP POP PUSH1 0x1 SWAP3 POP POP POP SWAP5 SWAP4 POP POP POP POP JUMP JUMPDEST PUSH2 0x1723 DUP3 PUSH2 0xB9A JUMP JUMPDEST PUSH2 0x172C DUP2 PUSH2 0x1EBA JUMP JUMPDEST PUSH2 0x1736 DUP4 DUP4 PUSH2 0x1ED6 JUMP JUMPDEST POP POP POP POP JUMP JUMPDEST PUSH32 0xBFB76D8D43F55EFE58544EA32AF187792A7BDB983850D8FED33478266EEC3CBB PUSH2 0x1766 DUP2 PUSH2 0x1EBA JUMP JUMPDEST PUSH2 0x176F DUP3 PUSH2 0x25BC JUMP JUMPDEST ISZERO PUSH2 0x17A6 JUMPI PUSH1 0x40 MLOAD PUSH32 0xB1710AF000000000000000000000000000000000000000000000000000000000 DUP2 MSTORE PUSH1 0x4 ADD PUSH1 0x40 MLOAD DUP1 SWAP2 SUB SWAP1 REVERT JUMPDEST PUSH2 0x17AF DUP3 PUSH2 0x2834 JUMP JUMPDEST POP POP JUMP JUMPDEST PUSH1 0x0 PUSH2 0x17BD PUSH2 0x1C48 JUMP JUMPDEST PUSH2 0x17C9 DUP6 DUP6 DUP6 DUP6 PUSH2 0x1C89 JUMP JUMPDEST SWAP1 POP SWAP5 SWAP4 POP POP POP POP JUMP JUMPDEST PUSH1 0x4 SLOAD DUP2 JUMP JUMPDEST PUSH1 0x9 PUSH1 0x0 SWAP1 SLOAD SWAP1 PUSH2 0x100 EXP SWAP1 DIV PUSH20 0xFFFFFFFFFFFFFFFFFFFFFFFFFFFFFFFFFFFFFFFF AND DUP2 JUMP JUMPDEST PUSH1 0x3 PUSH1 0x0 SWAP1 SLOAD SWAP1 PUSH2 0x100 EXP SWAP1 DIV PUSH20 0xFFFFFFFFFFFFFFFFFFFFFFFFFFFFFFFFFFFFFFFF AND DUP2 JUMP JUMPDEST PUSH1 0x0 DUP1 SLOAD SWAP1 PUSH2 0x100 EXP SWAP1 DIV PUSH20 0xFFFFFFFFFFFFFFFFFFFFFFFFFFFFFFFFFFFFFFFF AND DUP2 JUMP JUMPDEST PUSH8 0xDE0B6B3A7640000 DUP2 JUMP JUMPDEST PUSH1 0x0 PUSH32 0x1FFC9A700000000000000000000000000000000000000000000000000000000 PUSH28 0xFFFFFFFFFFFFFFFFFFFFFFFFFFFFFFFFFFFFFFFFFFFFFFFFFFFFFFFF NOT AND DUP3 PUSH28 0xFFFFFFFFFFFFFFFFFFFFFFFFFFFFFFFFFFFFFFFFFFFFFFFFFFFFFFFF NOT AND EQ SWAP1 POP SWAP2 SWAP1 POP JUMP JUMPDEST PUSH1 0x0 PUSH32 0xF0C57E16840DF040F15088DC2F81FE391C3923BEC73E23A9662EFC9C229C6A00 SWAP1 POP SWAP1 JUMP JUMPDEST PUSH2 0x18EF PUSH2 0x28AF JUMP JUMPDEST JUMP JUMPDEST PUSH2 0x18F9 PUSH2 0x28AF JUMP JUMPDEST PUSH2 0x1901 PUSH2 0x28EF JUMP JUMPDEST JUMP JUMPDEST PUSH2 0x190C DUP8 PUSH2 0x25BC JUMP JUMPDEST ISZERO PUSH2 0x1943 JUMPI PUSH1 0x40 MLOAD PUSH32 0x1C8C425400000000000000000000000000000000000000000000000000000000 DUP2 MSTORE PUSH1 0x4 ADD PUSH1 0x40 MLOAD DUP1 SWAP2 SUB SWAP1 REVERT JUMPDEST PUSH2 0x194C DUP7 PUSH2 0x25BC JUMP JUMPDEST ISZERO PUSH2 0x1983 JUMPI PUSH1 0x40 MLOAD PUSH32 0xB1710AF000000000000000000000000000000000000000000000000000000000 DUP2 MSTORE PUSH1 0x4 ADD PUSH1 0x40 MLOAD DUP1 SWAP2 SUB SWAP1 REVERT JUMPDEST PUSH2 0x198C DUP6 PUSH2 0x25BC JUMP JUMPDEST ISZERO PUSH2 0x19C3 JUMPI PUSH1 0x40 MLOAD PUSH32 0x3C77158E00000000000000000000000000000000000000000000000000000000 DUP2 MSTORE PUSH1 0x4 ADD PUSH1 0x40 MLOAD DUP1 SWAP2 SUB SWAP1 REVERT JUMPDEST PUSH2 0x19CC DUP5 PUSH2 0x25BC JUMP JUMPDEST ISZERO PUSH2 0x1A03 JUMPI PUSH1 0x40 MLOAD PUSH32 0x926D717700000000000000000000000000000000000000000000000000000000 DUP2 MSTORE PUSH1 0x4 ADD PUSH1 0x40 MLOAD DUP1 SWAP2 SUB SWAP1 REVERT JUMPDEST PUSH2 0x1A0C DUP4 PUSH2 0x25BC JUMP JUMPDEST ISZERO PUSH2 0x1A43 JUMPI PUSH1 0x40 MLOAD PUSH32 0x466E460200000000000000000000000000000000000000000000000000000000 DUP2 MSTORE PUSH1 0x4 ADD PUSH1 0x40 MLOAD DUP1 SWAP2 SUB SWAP1 REVERT JUMPDEST PUSH2 0x1A4C DUP2 PUSH2 0x25BC JUMP JUMPDEST ISZERO PUSH2 0x1A83 JUMPI PUSH1 0x40 MLOAD PUSH32 0xEE2F6F2A00000000000000000000000000000000000000000000000000000000 DUP2 MSTORE PUSH1 0x4 ADD PUSH1 0x40 MLOAD DUP1 SWAP2 SUB SWAP1 REVERT JUMPDEST PUSH2 0x1A8C DUP3 PUSH2 0x25BC JUMP JUMPDEST ISZERO PUSH2 0x1AC3 JUMPI PUSH1 0x40 MLOAD PUSH32 0xADFDB05B00000000000000000000000000000000000000000000000000000000 DUP2 MSTORE PUSH1 0x4 ADD PUSH1 0x40 MLOAD DUP1 SWAP2 SUB SWAP1 REVERT JUMPDEST POP POP POP POP POP POP POP JUMP JUMPDEST PUSH2 0x1AE8 DUP2 PUSH1 0x40 ADD MLOAD DUP3 PUSH1 0x0 ADD MLOAD PUSH2 0x1AE3 SWAP2 SWAP1 PUSH2 0x4079 JUMP JUMPDEST PUSH2 0x2923 JUMP JUMPDEST ISZERO DUP1 PUSH2 0x1B0D JUMPI POP PUSH2 0x1B0B DUP2 PUSH1 0x60 ADD MLOAD DUP3 PUSH1 0x20 ADD MLOAD PUSH2 0x1B06 SWAP2 SWAP1 PUSH2 0x4079 JUMP JUMPDEST PUSH2 0x2923 JUMP JUMPDEST ISZERO JUMPDEST ISZERO PUSH2 0x1B44 JUMPI PUSH1 0x40 MLOAD PUSH32 0x470562B900000000000000000000000000000000000000000000000000000000 DUP2 MSTORE PUSH1 0x4 ADD PUSH1 0x40 MLOAD DUP1 SWAP2 SUB SWAP1 REVERT JUMPDEST POP JUMP JUMPDEST PUSH1 0x0 DUP1 PUSH2 0x1B52 PUSH2 0x1E92 JUMP JUMPDEST SWAP1 POP PUSH2 0x1B5E DUP5 DUP5 PUSH2 0x10AC JUMP JUMPDEST PUSH2 0x1C3C JUMPI PUSH1 0x1 DUP2 PUSH1 0x0 ADD PUSH1 0x0 DUP7 DUP2 MSTORE PUSH1 0x20 ADD SWAP1 DUP2 MSTORE PUSH1 0x20 ADD PUSH1 0x0 KECCAK256 PUSH1 0x0 ADD PUSH1 0x0 DUP6 PUSH20 0xFFFFFFFFFFFFFFFFFFFFFFFFFFFFFFFFFFFFFFFF AND PUSH20 0xFFFFFFFFFFFFFFFFFFFFFFFFFFFFFFFFFFFFFFFF AND DUP2 MSTORE PUSH1 0x20 ADD SWAP1 DUP2 MSTORE PUSH1 0x20 ADD PUSH1 0x0 KECCAK256 PUSH1 0x0 PUSH2 0x100 EXP DUP2 SLOAD DUP2 PUSH1 0xFF MUL NOT AND SWAP1 DUP4 ISZERO ISZERO MUL OR SWAP1 SSTORE POP PUSH2 0x1BD8 PUSH2 0x1ECE JUMP JUMPDEST PUSH20 0xFFFFFFFFFFFFFFFFFFFFFFFFFFFFFFFFFFFFFFFF AND DUP4 PUSH20 0xFFFFFFFFFFFFFFFFFFFFFFFFFFFFFFFFFFFFFFFF AND DUP6 PUSH32 0x2F8788117E7EFF1D82E926EC794901D17C78024A50270940304540A733656F0D PUSH1 0x40 MLOAD PUSH1 0x40 MLOAD DUP1 SWAP2 SUB SWAP1 LOG4 PUSH1 0x1 SWAP2 POP POP PUSH2 0x1C42 JUMP JUMPDEST PUSH1 0x0 SWAP2 POP POP JUMPDEST SWAP3 SWAP2 POP POP JUMP JUMPDEST PUSH2 0x1C50 PUSH2 0xE8D JUMP JUMPDEST ISZERO PUSH2 0x1C87 JUMPI PUSH1 0x40 MLOAD PUSH32 0xD93C066500000000000000000000000000000000000000000000000000000000 DUP2 MSTORE PUSH1 0x4 ADD PUSH1 0x40 MLOAD DUP1 SWAP2 SUB SWAP1 REVERT JUMPDEST JUMP JUMPDEST PUSH1 0x0 PUSH2 0x1C94 DUP6 PUSH2 0x25BC JUMP JUMPDEST ISZERO PUSH2 0x1CCB JUMPI PUSH1 0x40 MLOAD PUSH32 0xA7EF168800000000000000000000000000000000000000000000000000000000 DUP2 MSTORE PUSH1 0x4 ADD PUSH1 0x40 MLOAD DUP1 SWAP2 SUB SWAP1 REVERT JUMPDEST PUSH1 0x0 DUP5 SUB PUSH2 0x1D04 JUMPI PUSH1 0x40 MLOAD PUSH31 0x6A79A400000000000000000000000000000000000000000000000000000000 DUP2 MSTORE PUSH1 0x4 ADD PUSH1 0x40 MLOAD DUP1 SWAP2 SUB SWAP1 REVERT JUMPDEST PUSH1 0x0 PUSH1 0xA PUSH1 0x0 DUP8 PUSH20 0xFFFFFFFFFFFFFFFFFFFFFFFFFFFFFFFFFFFFFFFF AND PUSH20 0xFFFFFFFFFFFFFFFFFFFFFFFFFFFFFFFFFFFFFFFF AND DUP2 MSTORE PUSH1 0x20 ADD SWAP1 DUP2 MSTORE PUSH1 0x20 ADD PUSH1 0x0 KECCAK256 PUSH1 0x0 SWAP1 SLOAD SWAP1 PUSH2 0x100 EXP SWAP1 DIV PUSH4 0xFFFFFFFF AND SWAP1 POP PUSH1 0x0 DUP2 PUSH4 0xFFFFFFFF AND SUB PUSH2 0x1D98 JUMPI PUSH1 0x40 MLOAD PUSH32 0x85B1B9C700000000000000000000000000000000000000000000000000000000 DUP2 MSTORE PUSH1 0x4 ADD PUSH1 0x40 MLOAD DUP1 SWAP2 SUB SWAP1 REVERT JUMPDEST PUSH1 0x0 PUSH1 0x2 PUSH1 0x0 SWAP1 SLOAD SWAP1 PUSH2 0x100 EXP SWAP1 DIV PUSH20 0xFFFFFFFFFFFFFFFFFFFFFFFFFFFFFFFFFFFFFFFF AND PUSH20 0xFFFFFFFFFFFFFFFFFFFFFFFFFFFFFFFFFFFFFFFF AND PUSH4 0xE4860339 DUP9 PUSH1 0x40 MLOAD DUP3 PUSH4 0xFFFFFFFF AND PUSH1 0xE0 SHL DUP2 MSTORE PUSH1 0x4 ADD PUSH2 0x1DF5 SWAP2 SWAP1 PUSH2 0x3CB8 JUMP JUMPDEST PUSH1 0x20 PUSH1 0x40 MLOAD DUP1 DUP4 SUB DUP2 DUP7 GAS STATICCALL ISZERO DUP1 ISZERO PUSH2 0x1E12 JUMPI RETURNDATASIZE PUSH1 0x0 DUP1 RETURNDATACOPY RETURNDATASIZE PUSH1 0x0 REVERT JUMPDEST POP POP POP POP PUSH1 0x40 MLOAD RETURNDATASIZE PUSH1 0x1F NOT PUSH1 0x1F DUP3 ADD AND DUP3 ADD DUP1 PUSH1 0x40 MSTORE POP DUP2 ADD SWAP1 PUSH2 0x1E36 SWAP2 SWAP1 PUSH2 0x4164 JUMP JUMPDEST SWAP1 POP PUSH2 0x1E41 DUP2 PUSH2 0x25BC JUMP JUMPDEST ISZERO PUSH2 0x1E78 JUMPI PUSH1 0x40 MLOAD PUSH32 0xFCDE723100000000000000000000000000000000000000000000000000000000 DUP2 MSTORE PUSH1 0x4 ADD PUSH1 0x40 MLOAD DUP1 SWAP2 SUB SWAP1 REVERT JUMPDEST PUSH2 0x1E86 DUP2 DUP8 DUP8 DUP8 DUP12 DUP8 PUSH2 0x2937 JUMP JUMPDEST SWAP3 POP POP POP SWAP5 SWAP4 POP POP POP POP JUMP JUMPDEST PUSH1 0x0 PUSH32 0x2DD7BC7DEC4DCEEDDA775E58DD541E08A116C6C53815C0BD028192F7B626800 SWAP1 POP SWAP1 JUMP JUMPDEST PUSH2 0x1ECB DUP2 PUSH2 0x1EC6 PUSH2 0x1ECE JUMP JUMPDEST PUSH2 0x2F0F JUMP JUMPDEST POP JUMP JUMPDEST PUSH1 0x0 CALLER SWAP1 POP SWAP1 JUMP JUMPDEST PUSH1 0x0 DUP1 PUSH2 0x1EE1 PUSH2 0x1E92 JUMP JUMPDEST SWAP1 POP PUSH2 0x1EED DUP5 DUP5 PUSH2 0x10AC JUMP JUMPDEST ISZERO PUSH2 0x1FCC JUMPI PUSH1 0x0 DUP2 PUSH1 0x0 ADD PUSH1 0x0 DUP7 DUP2 MSTORE PUSH1 0x20 ADD SWAP1 DUP2 MSTORE PUSH1 0x20 ADD PUSH1 0x0 KECCAK256 PUSH1 0x0 ADD PUSH1 0x0 DUP6 PUSH20 0xFFFFFFFFFFFFFFFFFFFFFFFFFFFFFFFFFFFFFFFF AND PUSH20 0xFFFFFFFFFFFFFFFFFFFFFFFFFFFFFFFFFFFFFFFF AND DUP2 MSTORE PUSH1 0x20 ADD SWAP1 DUP2 MSTORE PUSH1 0x20 ADD PUSH1 0x0 KECCAK256 PUSH1 0x0 PUSH2 0x100 EXP DUP2 SLOAD DUP2 PUSH1 0xFF MUL NOT AND SWAP1 DUP4 ISZERO ISZERO MUL OR SWAP1 SSTORE POP PUSH2 0x1F68 PUSH2 0x1ECE JUMP JUMPDEST PUSH20 0xFFFFFFFFFFFFFFFFFFFFFFFFFFFFFFFFFFFFFFFF AND DUP4 PUSH20 0xFFFFFFFFFFFFFFFFFFFFFFFFFFFFFFFFFFFFFFFF AND DUP6 PUSH32 0xF6391F5C32D9C69D2A47EA670B442974B53935D1EDC7FD64EB21E047A839171B PUSH1 0x40 MLOAD PUSH1 0x40 MLOAD DUP1 SWAP2 SUB SWAP1 LOG4 PUSH1 0x1 SWAP2 POP POP PUSH2 0x1FD2 JUMP JUMPDEST PUSH1 0x0 SWAP2 POP POP JUMPDEST SWAP3 SWAP2 POP POP JUMP JUMPDEST PUSH1 0x0 PUSH2 0x1FE2 PUSH2 0x1C48 JUMP JUMPDEST PUSH2 0x1FEB DUP6 PUSH2 0x25BC JUMP JUMPDEST ISZERO PUSH2 0x2022 JUMPI PUSH1 0x40 MLOAD PUSH32 0xA7EF168800000000000000000000000000000000000000000000000000000000 DUP2 MSTORE PUSH1 0x4 ADD PUSH1 0x40 MLOAD DUP1 SWAP2 SUB SWAP1 REVERT JUMPDEST PUSH1 0x0 DUP5 SUB PUSH2 0x205C JUMPI PUSH1 0x40 MLOAD PUSH32 0x2DC1479300000000000000000000000000000000000000000000000000000000 DUP2 MSTORE PUSH1 0x4 ADD PUSH1 0x40 MLOAD DUP1 SWAP2 SUB SWAP1 REVERT JUMPDEST PUSH1 0x0 PUSH1 0xA PUSH1 0x0 DUP8 PUSH20 0xFFFFFFFFFFFFFFFFFFFFFFFFFFFFFFFFFFFFFFFF AND PUSH20 0xFFFFFFFFFFFFFFFFFFFFFFFFFFFFFFFFFFFFFFFF AND DUP2 MSTORE PUSH1 0x20 ADD SWAP1 DUP2 MSTORE PUSH1 0x20 ADD PUSH1 0x0 KECCAK256 PUSH1 0x0 SWAP1 SLOAD SWAP1 PUSH2 0x100 EXP SWAP1 DIV PUSH4 0xFFFFFFFF AND SWAP1 POP PUSH1 0x0 DUP2 PUSH4 0xFFFFFFFF AND SUB PUSH2 0x20F0 JUMPI PUSH1 0x40 MLOAD PUSH32 0x85B1B9C700000000000000000000000000000000000000000000000000000000 DUP2 MSTORE PUSH1 0x4 ADD PUSH1 0x40 MLOAD DUP1 SWAP2 SUB SWAP1 REVERT JUMPDEST PUSH1 0x0 PUSH1 0x2 PUSH1 0x0 SWAP1 SLOAD SWAP1 PUSH2 0x100 EXP SWAP1 DIV PUSH20 0xFFFFFFFFFFFFFFFFFFFFFFFFFFFFFFFFFFFFFFFF AND PUSH20 0xFFFFFFFFFFFFFFFFFFFFFFFFFFFFFFFFFFFFFFFF AND PUSH4 0xE4860339 DUP9 PUSH1 0x40 MLOAD DUP3 PUSH4 0xFFFFFFFF AND PUSH1 0xE0 SHL DUP2 MSTORE PUSH1 0x4 ADD PUSH2 0x214D SWAP2 SWAP1 PUSH2 0x3CB8 JUMP JUMPDEST PUSH1 0x20 PUSH1 0x40 MLOAD DUP1 DUP4 SUB DUP2 DUP7 GAS STATICCALL ISZERO DUP1 ISZERO PUSH2 0x216A JUMPI RETURNDATASIZE PUSH1 0x0 DUP1 RETURNDATACOPY RETURNDATASIZE PUSH1 0x0 REVERT JUMPDEST POP POP POP POP PUSH1 0x40 MLOAD RETURNDATASIZE PUSH1 0x1F NOT PUSH1 0x1F DUP3 ADD AND DUP3 ADD DUP1 PUSH1 0x40 MSTORE POP DUP2 ADD SWAP1 PUSH2 0x218E SWAP2 SWAP1 PUSH2 0x4164 JUMP JUMPDEST SWAP1 POP PUSH2 0x2199 DUP2 PUSH2 0x25BC JUMP JUMPDEST ISZERO PUSH2 0x21D0 JUMPI PUSH1 0x40 MLOAD PUSH32 0xFCDE723100000000000000000000000000000000000000000000000000000000 DUP2 MSTORE PUSH1 0x4 ADD PUSH1 0x40 MLOAD DUP1 SWAP2 SUB SWAP1 REVERT JUMPDEST PUSH2 0x21DE DUP2 DUP8 DUP8 DUP8 DUP12 DUP8 PUSH2 0x2F60 JUMP JUMPDEST SWAP3 POP POP POP SWAP5 SWAP4 POP POP POP POP JUMP JUMPDEST PUSH2 0x21F2 PUSH2 0x3432 JUMP JUMPDEST PUSH1 0x0 PUSH2 0x21FC PUSH2 0x2594 JUMP JUMPDEST SWAP1 POP PUSH1 0x0 DUP2 PUSH1 0x0 ADD PUSH1 0x0 PUSH2 0x100 EXP DUP2 SLOAD DUP2 PUSH1 0xFF MUL NOT AND SWAP1 DUP4 ISZERO ISZERO MUL OR SWAP1 SSTORE POP PUSH32 0x5DB9EE0A495BF2E6FF9C91A7834C1BA4FDD244A5E8AA4E537BD38AEAE4B073AA PUSH2 0x2244 PUSH2 0x1ECE JUMP JUMPDEST PUSH1 0x40 MLOAD PUSH2 0x2251 SWAP2 SWAP1 PUSH2 0x3CB8 JUMP JUMPDEST PUSH1 0x40 MLOAD DUP1 SWAP2 SUB SWAP1 LOG1 POP JUMP JUMPDEST PUSH1 0x0 DUP1 PUSH1 0x0 PUSH2 0x226A DUP6 PUSH2 0x25BC JUMP JUMPDEST ISZERO PUSH2 0x22A1 JUMPI PUSH1 0x40 MLOAD PUSH32 0xA7EF168800000000000000000000000000000000000000000000000000000000 DUP2 MSTORE PUSH1 0x4 ADD PUSH1 0x40 MLOAD DUP1 SWAP2 SUB SWAP1 REVERT JUMPDEST PUSH1 0x0 DUP5 SUB PUSH2 0x22DB JUMPI PUSH1 0x40 MLOAD PUSH32 0xC1787CE800000000000000000000000000000000000000000000000000000000 DUP2 MSTORE PUSH1 0x4 ADD PUSH1 0x40 MLOAD DUP1 SWAP2 SUB SWAP1 REVERT JUMPDEST PUSH1 0xA PUSH1 0x0 DUP7 PUSH20 0xFFFFFFFFFFFFFFFFFFFFFFFFFFFFFFFFFFFFFFFF AND PUSH20 0xFFFFFFFFFFFFFFFFFFFFFFFFFFFFFFFFFFFFFFFF AND DUP2 MSTORE PUSH1 0x20 ADD SWAP1 DUP2 MSTORE PUSH1 0x20 ADD PUSH1 0x0 KECCAK256 PUSH1 0x0 SWAP1 SLOAD SWAP1 PUSH2 0x100 EXP SWAP1 DIV PUSH4 0xFFFFFFFF AND SWAP3 POP PUSH1 0x0 DUP4 PUSH4 0xFFFFFFFF AND SUB PUSH2 0x236D JUMPI PUSH1 0x40 MLOAD PUSH32 0x85B1B9C700000000000000000000000000000000000000000000000000000000 DUP2 MSTORE PUSH1 0x4 ADD PUSH1 0x40 MLOAD DUP1 SWAP2 SUB SWAP1 REVERT JUMPDEST PUSH1 0x0 PUSH1 0x2 PUSH1 0x0 SWAP1 SLOAD SWAP1 PUSH2 0x100 EXP SWAP1 DIV PUSH20 0xFFFFFFFFFFFFFFFFFFFFFFFFFFFFFFFFFFFFFFFF AND PUSH20 0xFFFFFFFFFFFFFFFFFFFFFFFFFFFFFFFFFFFFFFFF AND PUSH4 0xE4860339 DUP8 PUSH1 0x40 MLOAD DUP3 PUSH4 0xFFFFFFFF AND PUSH1 0xE0 SHL DUP2 MSTORE PUSH1 0x4 ADD PUSH2 0x23CA SWAP2 SWAP1 PUSH2 0x3CB8 JUMP JUMPDEST PUSH1 0x20 PUSH1 0x40 MLOAD DUP1 DUP4 SUB DUP2 DUP7 GAS STATICCALL ISZERO DUP1 ISZERO PUSH2 0x23E7 JUMPI RETURNDATASIZE PUSH1 0x0 DUP1 RETURNDATACOPY RETURNDATASIZE PUSH1 0x0 REVERT JUMPDEST POP POP POP POP PUSH1 0x40 MLOAD RETURNDATASIZE PUSH1 0x1F NOT PUSH1 0x1F DUP3 ADD AND DUP3 ADD DUP1 PUSH1 0x40 MSTORE POP DUP2 ADD SWAP1 PUSH2 0x240B SWAP2 SWAP1 PUSH2 0x4164 JUMP JUMPDEST SWAP1 POP PUSH1 0x3 PUSH1 0x0 SWAP1 SLOAD SWAP1 PUSH2 0x100 EXP SWAP1 DIV PUSH20 0xFFFFFFFFFFFFFFFFFFFFFFFFFFFFFFFFFFFFFFFF AND PUSH20 0xFFFFFFFFFFFFFFFFFFFFFFFFFFFFFFFFFFFFFFFF AND PUSH4 0xF7888AEC DUP3 PUSH1 0x0 DUP1 SLOAD SWAP1 PUSH2 0x100 EXP SWAP1 DIV PUSH20 0xFFFFFFFFFFFFFFFFFFFFFFFFFFFFFFFFFFFFFFFF AND PUSH1 0x40 MLOAD DUP4 PUSH4 0xFFFFFFFF AND PUSH1 0xE0 SHL DUP2 MSTORE PUSH1 0x4 ADD PUSH2 0x248A SWAP3 SWAP2 SWAP1 PUSH2 0x429D JUMP JUMPDEST PUSH1 0x20 PUSH1 0x40 MLOAD DUP1 DUP4 SUB DUP2 DUP7 GAS STATICCALL ISZERO DUP1 ISZERO PUSH2 0x24A7 JUMPI RETURNDATASIZE PUSH1 0x0 DUP1 RETURNDATACOPY RETURNDATASIZE PUSH1 0x0 REVERT JUMPDEST POP POP POP POP PUSH1 0x40 MLOAD RETURNDATASIZE PUSH1 0x1F NOT PUSH1 0x1F DUP3 ADD AND DUP3 ADD DUP1 PUSH1 0x40 MSTORE POP DUP2 ADD SWAP1 PUSH2 0x24CB SWAP2 SWAP1 PUSH2 0x3FE9 JUMP JUMPDEST SWAP3 POP DUP1 PUSH20 0xFFFFFFFFFFFFFFFFFFFFFFFFFFFFFFFFFFFFFFFF AND PUSH4 0x18160DDD PUSH1 0x40 MLOAD DUP2 PUSH4 0xFFFFFFFF AND PUSH1 0xE0 SHL DUP2 MSTORE PUSH1 0x4 ADD PUSH1 0x20 PUSH1 0x40 MLOAD DUP1 DUP4 SUB DUP2 DUP7 GAS STATICCALL ISZERO DUP1 ISZERO PUSH2 0x2518 JUMPI RETURNDATASIZE PUSH1 0x0 DUP1 RETURNDATACOPY RETURNDATASIZE PUSH1 0x0 REVERT JUMPDEST POP POP POP POP PUSH1 0x40 MLOAD RETURNDATASIZE PUSH1 0x1F NOT PUSH1 0x1F DUP3 ADD AND DUP3 ADD DUP1 PUSH1 0x40 MSTORE POP DUP2 ADD SWAP1 PUSH2 0x253C SWAP2 SWAP1 PUSH2 0x3FE9 JUMP JUMPDEST SWAP2 POP POP SWAP3 POP SWAP3 POP SWAP3 JUMP JUMPDEST PUSH1 0x0 DUP1 PUSH8 0xDE0B6B3A7640000 PUSH1 0x5 SLOAD DUP5 PUSH2 0x2560 SWAP2 SWAP1 PUSH2 0x40AD JUMP JUMPDEST PUSH2 0x256A SWAP2 SWAP1 PUSH2 0x411E JUMP JUMPDEST SWAP2 POP PUSH8 0xDE0B6B3A7640000 PUSH1 0x7 SLOAD DUP5 PUSH2 0x2583 SWAP2 SWAP1 PUSH2 0x40AD JUMP JUMPDEST PUSH2 0x258D SWAP2 SWAP1 PUSH2 0x411E JUMP JUMPDEST SWAP1 POP SWAP2 POP SWAP2 JUMP JUMPDEST PUSH1 0x0 PUSH32 0xCD5ED15C6E187E77E9AEE88184C21F4F2182AB5827CB3B7E07FBEDCD63F03300 SWAP1 POP SWAP1 JUMP JUMPDEST PUSH1 0x0 DUP1 PUSH20 0xFFFFFFFFFFFFFFFFFFFFFFFFFFFFFFFFFFFFFFFF AND DUP3 PUSH20 0xFFFFFFFFFFFFFFFFFFFFFFFFFFFFFFFFFFFFFFFF AND EQ SWAP1 POP SWAP2 SWAP1 POP JUMP JUMPDEST DUP1 PUSH1 0x8 PUSH1 0x0 PUSH2 0x100 EXP DUP2 SLOAD DUP2 PUSH20 0xFFFFFFFFFFFFFFFFFFFFFFFFFFFFFFFFFFFFFFFF MUL NOT AND SWAP1 DUP4 PUSH20 0xFFFFFFFFFFFFFFFFFFFFFFFFFFFFFFFFFFFFFFFF AND MUL OR SWAP1 SSTORE POP PUSH32 0xE6131A64E93E9AA4FF38892C34D563C06DCC1E03B3D6897CC65F0903E2AD6848 DUP2 PUSH1 0x40 MLOAD PUSH2 0x2664 SWAP2 SWAP1 PUSH2 0x3CB8 JUMP JUMPDEST PUSH1 0x40 MLOAD DUP1 SWAP2 SUB SWAP1 LOG1 POP JUMP JUMPDEST PUSH1 0x0 DUP1 PUSH8 0xDE0B6B3A7640000 PUSH1 0x4 SLOAD DUP5 PUSH2 0x2689 SWAP2 SWAP1 PUSH2 0x40AD JUMP JUMPDEST PUSH2 0x2693 SWAP2 SWAP1 PUSH2 0x411E JUMP JUMPDEST SWAP2 POP PUSH8 0xDE0B6B3A7640000 PUSH1 0x6 SLOAD DUP5 PUSH2 0x26AC SWAP2 SWAP1 PUSH2 0x40AD JUMP JUMPDEST PUSH2 0x26B6 SWAP2 SWAP1 PUSH2 0x411E JUMP JUMPDEST SWAP1 POP SWAP2 POP SWAP2 JUMP JUMPDEST PUSH2 0x26C5 PUSH2 0x1C48 JUMP JUMPDEST PUSH1 0x0 PUSH2 0x26CF PUSH2 0x2594 JUMP JUMPDEST SWAP1 POP PUSH1 0x1 DUP2 PUSH1 0x0 ADD PUSH1 0x0 PUSH2 0x100 EXP DUP2 SLOAD DUP2 PUSH1 0xFF MUL NOT AND SWAP1 DUP4 ISZERO ISZERO MUL OR SWAP1 SSTORE POP PUSH32 0x62E78CEA01BEE320CD4E420270B5EA74000D11B0C9F74754EBDBFC544B05A258 PUSH2 0x2717 PUSH2 0x1ECE JUMP JUMPDEST PUSH1 0x40 MLOAD PUSH2 0x2724 SWAP2 SWAP1 PUSH2 0x3CB8 JUMP JUMPDEST PUSH1 0x40 MLOAD DUP1 SWAP2 SUB SWAP1 LOG1 POP JUMP JUMPDEST DUP4 PUSH1 0x4 DUP2 SWAP1 SSTORE POP DUP3 PUSH1 0x5 DUP2 SWAP1 SSTORE POP DUP2 PUSH1 0x6 DUP2 SWAP1 SSTORE POP DUP1 PUSH1 0x7 DUP2 SWAP1 SSTORE POP PUSH32 0x5C3AEE3D65F7EB02CDED951435D06B06EF307BC7F57B98975C4A41DC116E711C PUSH1 0x4 SLOAD PUSH1 0x5 SLOAD PUSH1 0x6 SLOAD PUSH1 0x7 SLOAD PUSH1 0x40 MLOAD PUSH2 0x2788 SWAP5 SWAP4 SWAP3 SWAP2 SWAP1 PUSH2 0x42C6 JUMP JUMPDEST PUSH1 0x40 MLOAD DUP1 SWAP2 SUB SWAP1 LOG1 POP POP POP POP JUMP JUMPDEST PUSH1 0x0 PUSH3 0xF4240 PUSH4 0xFFFFFFFF AND DUP3 PUSH4 0xFFFFFFFF AND GT ISZERO SWAP1 POP SWAP2 SWAP1 POP JUMP JUMPDEST PUSH2 0x282E DUP5 DUP6 PUSH20 0xFFFFFFFFFFFFFFFFFFFFFFFFFFFFFFFFFFFFFFFF AND PUSH4 0x23B872DD DUP7 DUP7 DUP7 PUSH1 0x40 MLOAD PUSH1 0x24 ADD PUSH2 0x27E7 SWAP4 SWAP3 SWAP2 SWAP1 PUSH2 0x4266 JUMP JUMPDEST PUSH1 0x40 MLOAD PUSH1 0x20 DUP2 DUP4 SUB SUB DUP2 MSTORE SWAP1 PUSH1 0x40 MSTORE SWAP2 POP PUSH1 0xE0 SHL PUSH1 0x20 DUP3 ADD DUP1 MLOAD PUSH28 0xFFFFFFFFFFFFFFFFFFFFFFFFFFFFFFFFFFFFFFFFFFFFFFFFFFFFFFFF DUP4 DUP2 DUP4 AND OR DUP4 MSTORE POP POP POP POP PUSH2 0x3472 JUMP JUMPDEST POP POP POP POP JUMP JUMPDEST DUP1 PUSH1 0x1 PUSH1 0x0 PUSH2 0x100 EXP DUP2 SLOAD DUP2 PUSH20 0xFFFFFFFFFFFFFFFFFFFFFFFFFFFFFFFFFFFFFFFF MUL NOT AND SWAP1 DUP4 PUSH20 0xFFFFFFFFFFFFFFFFFFFFFFFFFFFFFFFFFFFFFFFF AND MUL OR SWAP1 SSTORE POP PUSH32 0x50A79A49CC1DC3AEECCD8636685AD0469DB41A9BD51254A34FC1CF616693D41 DUP2 PUSH1 0x40 MLOAD PUSH2 0x28A4 SWAP2 SWAP1 PUSH2 0x3CB8 JUMP JUMPDEST PUSH1 0x40 MLOAD DUP1 SWAP2 SUB SWAP1 LOG1 POP JUMP JUMPDEST PUSH2 0x28B7 PUSH2 0x3509 JUMP JUMPDEST PUSH2 0x28ED JUMPI PUSH1 0x40 MLOAD PUSH32 0xD7E6BCF800000000000000000000000000000000000000000000000000000000 DUP2 MSTORE PUSH1 0x4 ADD PUSH1 0x40 MLOAD DUP1 SWAP2 SUB SWAP1 REVERT JUMPDEST JUMP JUMPDEST PUSH2 0x28F7 PUSH2 0x28AF JUMP JUMPDEST PUSH1 0x0 PUSH2 0x2901 PUSH2 0x2594 JUMP JUMPDEST SWAP1 POP PUSH1 0x0 DUP2 PUSH1 0x0 ADD PUSH1 0x0 PUSH2 0x100 EXP DUP2 SLOAD DUP2 PUSH1 0xFF MUL NOT AND SWAP1 DUP4 ISZERO ISZERO MUL OR SWAP1 SSTORE POP POP JUMP JUMPDEST PUSH1 0x0 PUSH8 0xDE0B6B3A7640000 DUP3 LT SWAP1 POP SWAP2 SWAP1 POP JUMP JUMPDEST PUSH1 0x0 PUSH2 0x2986 CALLER ADDRESS DUP9 PUSH1 0x0 DUP1 SLOAD SWAP1 PUSH2 0x100 EXP SWAP1 DIV PUSH20 0xFFFFFFFFFFFFFFFFFFFFFFFFFFFFFFFFFFFFFFFF AND PUSH20 0xFFFFFFFFFFFFFFFFFFFFFFFFFFFFFFFFFFFFFFFF AND PUSH2 0x27B2 SWAP1 SWAP4 SWAP3 SWAP2 SWAP1 PUSH4 0xFFFFFFFF AND JUMP JUMPDEST PUSH1 0x0 DUP1 PUSH2 0x2992 DUP9 PUSH2 0x266F JUMP JUMPDEST SWAP2 POP SWAP2 POP PUSH2 0x29E1 DUP6 DUP3 PUSH1 0x0 DUP1 SLOAD SWAP1 PUSH2 0x100 EXP SWAP1 DIV PUSH20 0xFFFFFFFFFFFFFFFFFFFFFFFFFFFFFFFFFFFFFFFF AND PUSH20 0xFFFFFFFFFFFFFFFFFFFFFFFFFFFFFFFFFFFFFFFF AND PUSH2 0x3529 SWAP1 SWAP3 SWAP2 SWAP1 PUSH4 0xFFFFFFFF AND JUMP JUMPDEST PUSH2 0x2A4E PUSH1 0x8 PUSH1 0x0 SWAP1 SLOAD SWAP1 PUSH2 0x100 EXP SWAP1 DIV PUSH20 0xFFFFFFFFFFFFFFFFFFFFFFFFFFFFFFFFFFFFFFFF AND DUP4 PUSH1 0x0 DUP1 SLOAD SWAP1 PUSH2 0x100 EXP SWAP1 DIV PUSH20 0xFFFFFFFFFFFFFFFFFFFFFFFFFFFFFFFFFFFFFFFF AND PUSH20 0xFFFFFFFFFFFFFFFFFFFFFFFFFFFFFFFFFFFFFFFF AND PUSH2 0x3529 SWAP1 SWAP3 SWAP2 SWAP1 PUSH4 0xFFFFFFFF AND JUMP JUMPDEST PUSH1 0x0 DUP3 DUP3 DUP11 PUSH2 0x2A5D SWAP2 SWAP1 PUSH2 0x4045 JUMP JUMPDEST PUSH2 0x2A67 SWAP2 SWAP1 PUSH2 0x4045 JUMP JUMPDEST SWAP1 POP PUSH1 0x0 DUP1 SLOAD SWAP1 PUSH2 0x100 EXP SWAP1 DIV PUSH20 0xFFFFFFFFFFFFFFFFFFFFFFFFFFFFFFFFFFFFFFFF AND PUSH20 0xFFFFFFFFFFFFFFFFFFFFFFFFFFFFFFFFFFFFFFFF AND PUSH4 0x95EA7B3 PUSH1 0x3 PUSH1 0x0 SWAP1 SLOAD SWAP1 PUSH2 0x100 EXP SWAP1 DIV PUSH20 0xFFFFFFFFFFFFFFFFFFFFFFFFFFFFFFFFFFFFFFFF AND DUP4 PUSH1 0x40 MLOAD DUP4 PUSH4 0xFFFFFFFF AND PUSH1 0xE0 SHL DUP2 MSTORE PUSH1 0x4 ADD PUSH2 0x2AE6 SWAP3 SWAP2 SWAP1 PUSH2 0x41E4 JUMP JUMPDEST PUSH1 0x20 PUSH1 0x40 MLOAD DUP1 DUP4 SUB DUP2 PUSH1 0x0 DUP8 GAS CALL ISZERO DUP1 ISZERO PUSH2 0x2B05 JUMPI RETURNDATASIZE PUSH1 0x0 DUP1 RETURNDATACOPY RETURNDATASIZE PUSH1 0x0 REVERT JUMPDEST POP POP POP POP PUSH1 0x40 MLOAD RETURNDATASIZE PUSH1 0x1F NOT PUSH1 0x1F DUP3 ADD AND DUP3 ADD DUP1 PUSH1 0x40 MSTORE POP DUP2 ADD SWAP1 PUSH2 0x2B29 SWAP2 SWAP1 PUSH2 0x4239 JUMP JUMPDEST POP PUSH1 0x0 PUSH1 0x3 PUSH1 0x0 SWAP1 SLOAD SWAP1 PUSH2 0x100 EXP SWAP1 DIV PUSH20 0xFFFFFFFFFFFFFFFFFFFFFFFFFFFFFFFFFFFFFFFF AND PUSH20 0xFFFFFFFFFFFFFFFFFFFFFFFFFFFFFFFFFFFFFFFF AND PUSH4 0xF7888AEC DUP13 PUSH1 0x0 DUP1 SLOAD SWAP1 PUSH2 0x100 EXP SWAP1 DIV PUSH20 0xFFFFFFFFFFFFFFFFFFFFFFFFFFFFFFFFFFFFFFFF AND PUSH1 0x40 MLOAD DUP4 PUSH4 0xFFFFFFFF AND PUSH1 0xE0 SHL DUP2 MSTORE PUSH1 0x4 ADD PUSH2 0x2BA9 SWAP3 SWAP2 SWAP1 PUSH2 0x429D JUMP JUMPDEST PUSH1 0x20 PUSH1 0x40 MLOAD DUP1 DUP4 SUB DUP2 DUP7 GAS STATICCALL ISZERO DUP1 ISZERO PUSH2 0x2BC6 JUMPI RETURNDATASIZE PUSH1 0x0 DUP1 RETURNDATACOPY RETURNDATASIZE PUSH1 0x0 REVERT JUMPDEST POP POP POP POP PUSH1 0x40 MLOAD RETURNDATASIZE PUSH1 0x1F NOT PUSH1 0x1F DUP3 ADD AND DUP3 ADD DUP1 PUSH1 0x40 MSTORE POP DUP2 ADD SWAP1 PUSH2 0x2BEA SWAP2 SWAP1 PUSH2 0x3FE9 JUMP JUMPDEST SWAP1 POP PUSH1 0x0 DUP12 PUSH20 0xFFFFFFFFFFFFFFFFFFFFFFFFFFFFFFFFFFFFFFFF AND PUSH4 0x18160DDD PUSH1 0x40 MLOAD DUP2 PUSH4 0xFFFFFFFF AND PUSH1 0xE0 SHL DUP2 MSTORE PUSH1 0x4 ADD PUSH1 0x20 PUSH1 0x40 MLOAD DUP1 DUP4 SUB DUP2 DUP7 GAS STATICCALL ISZERO DUP1 ISZERO PUSH2 0x2C39 JUMPI RETURNDATASIZE PUSH1 0x0 DUP1 RETURNDATACOPY RETURNDATASIZE PUSH1 0x0 REVERT JUMPDEST POP POP POP POP PUSH1 0x40 MLOAD RETURNDATASIZE PUSH1 0x1F NOT PUSH1 0x1F DUP3 ADD AND DUP3 ADD DUP1 PUSH1 0x40 MSTORE POP DUP2 ADD SWAP1 PUSH2 0x2C5D SWAP2 SWAP1 PUSH2 0x3FE9 JUMP JUMPDEST SWAP1 POP PUSH1 0x3 PUSH1 0x0 SWAP1 SLOAD SWAP1 PUSH2 0x100 EXP SWAP1 DIV PUSH20 0xFFFFFFFFFFFFFFFFFFFFFFFFFFFFFFFFFFFFFFFF AND PUSH20 0xFFFFFFFFFFFFFFFFFFFFFFFFFFFFFFFFFFFFFFFF AND PUSH4 0x8340F549 DUP14 PUSH1 0x0 DUP1 SLOAD SWAP1 PUSH2 0x100 EXP SWAP1 DIV PUSH20 0xFFFFFFFFFFFFFFFFFFFFFFFFFFFFFFFFFFFFFFFF AND DUP7 PUSH1 0x40 MLOAD DUP5 PUSH4 0xFFFFFFFF AND PUSH1 0xE0 SHL DUP2 MSTORE PUSH1 0x4 ADD PUSH2 0x2CDE SWAP4 SWAP3 SWAP2 SWAP1 PUSH2 0x4266 JUMP JUMPDEST PUSH1 0x0 PUSH1 0x40 MLOAD DUP1 DUP4 SUB DUP2 PUSH1 0x0 DUP8 DUP1 EXTCODESIZE ISZERO DUP1 ISZERO PUSH2 0x2CF8 JUMPI PUSH1 0x0 DUP1 REVERT JUMPDEST POP GAS CALL ISZERO DUP1 ISZERO PUSH2 0x2D0C JUMPI RETURNDATASIZE PUSH1 0x0 DUP1 RETURNDATACOPY RETURNDATASIZE PUSH1 0x0 REVERT JUMPDEST POP POP POP POP PUSH1 0x1 PUSH1 0x0 SWAP1 SLOAD SWAP1 PUSH2 0x100 EXP SWAP1 DIV PUSH20 0xFFFFFFFFFFFFFFFFFFFFFFFFFFFFFFFFFFFFFFFF AND PUSH20 0xFFFFFFFFFFFFFFFFFFFFFFFFFFFFFFFFFFFFFFFF AND PUSH4 0x29A00E7C DUP3 DUP5 DUP11 DUP8 PUSH1 0x40 MLOAD DUP6 PUSH4 0xFFFFFFFF AND PUSH1 0xE0 SHL DUP2 MSTORE PUSH1 0x4 ADD PUSH2 0x2D71 SWAP5 SWAP4 SWAP3 SWAP2 SWAP1 PUSH2 0x3F8F JUMP JUMPDEST PUSH1 0x20 PUSH1 0x40 MLOAD DUP1 DUP4 SUB DUP2 DUP7 GAS STATICCALL ISZERO DUP1 ISZERO PUSH2 0x2D8E JUMPI RETURNDATASIZE PUSH1 0x0 DUP1 RETURNDATACOPY RETURNDATASIZE PUSH1 0x0 REVERT JUMPDEST POP POP POP POP PUSH1 0x40 MLOAD RETURNDATASIZE PUSH1 0x1F NOT PUSH1 0x1F DUP3 ADD AND DUP3 ADD DUP1 PUSH1 0x40 MSTORE POP DUP2 ADD SWAP1 PUSH2 0x2DB2 SWAP2 SWAP1 PUSH2 0x3FE9 JUMP JUMPDEST SWAP6 POP DUP9 DUP7 LT ISZERO PUSH2 0x2DEE JUMPI PUSH1 0x40 MLOAD PUSH32 0x13115B2900000000000000000000000000000000000000000000000000000000 DUP2 MSTORE PUSH1 0x4 ADD PUSH1 0x40 MLOAD DUP1 SWAP2 SUB SWAP1 REVERT JUMPDEST PUSH2 0x2DF7 DUP11 PUSH2 0x25BC JUMP JUMPDEST PUSH2 0x2E9F JUMPI PUSH1 0x2 PUSH1 0x0 SWAP1 SLOAD SWAP1 PUSH2 0x100 EXP SWAP1 DIV PUSH20 0xFFFFFFFFFFFFFFFFFFFFFFFFFFFFFFFFFFFFFFFF AND PUSH20 0xFFFFFFFFFFFFFFFFFFFFFFFFFFFFFFFFFFFFFFFF AND PUSH4 0xC6C3BBE6 DUP10 DUP13 DUP10 PUSH1 0x40 MLOAD DUP5 PUSH4 0xFFFFFFFF AND PUSH1 0xE0 SHL DUP2 MSTORE PUSH1 0x4 ADD PUSH2 0x2E5A SWAP4 SWAP3 SWAP2 SWAP1 PUSH2 0x4266 JUMP JUMPDEST PUSH1 0x20 PUSH1 0x40 MLOAD DUP1 DUP4 SUB DUP2 PUSH1 0x0 DUP8 GAS CALL ISZERO DUP1 ISZERO PUSH2 0x2E79 JUMPI RETURNDATASIZE PUSH1 0x0 DUP1 RETURNDATACOPY RETURNDATASIZE PUSH1 0x0 REVERT JUMPDEST POP POP POP POP PUSH1 0x40 MLOAD RETURNDATASIZE PUSH1 0x1F NOT PUSH1 0x1F DUP3 ADD AND DUP3 ADD DUP1 PUSH1 0x40 MSTORE POP DUP2 ADD SWAP1 PUSH2 0x2E9D SWAP2 SWAP1 PUSH2 0x4239 JUMP JUMPDEST POP JUMPDEST PUSH32 0xAB7844FA0FE8907C50C8C2011A6471669AFA144BCBBFCF0A1F9D08F77065F085 DUP9 PUSH1 0x0 DUP1 SLOAD SWAP1 PUSH2 0x100 EXP SWAP1 DIV PUSH20 0xFFFFFFFFFFFFFFFFFFFFFFFFFFFFFFFFFFFFFFFF AND DUP14 DUP16 DUP11 DUP16 PUSH1 0x40 MLOAD PUSH2 0x2EF8 SWAP7 SWAP6 SWAP5 SWAP4 SWAP3 SWAP2 SWAP1 PUSH2 0x430B JUMP JUMPDEST PUSH1 0x40 MLOAD DUP1 SWAP2 SUB SWAP1 LOG1 POP POP POP POP POP SWAP7 SWAP6 POP POP POP POP POP POP JUMP JUMPDEST PUSH2 0x2F19 DUP3 DUP3 PUSH2 0x10AC JUMP JUMPDEST PUSH2 0x2F5C JUMPI DUP1 DUP3 PUSH1 0x40 MLOAD PUSH32 0xE2517D3F00000000000000000000000000000000000000000000000000000000 DUP2 MSTORE PUSH1 0x4 ADD PUSH2 0x2F53 SWAP3 SWAP2 SWAP1 PUSH2 0x436C JUMP JUMPDEST PUSH1 0x40 MLOAD DUP1 SWAP2 SUB SWAP1 REVERT JUMPDEST POP POP JUMP JUMPDEST PUSH1 0x0 DUP1 DUP8 PUSH20 0xFFFFFFFFFFFFFFFFFFFFFFFFFFFFFFFFFFFFFFFF AND PUSH4 0x18160DDD PUSH1 0x40 MLOAD DUP2 PUSH4 0xFFFFFFFF AND PUSH1 0xE0 SHL DUP2 MSTORE PUSH1 0x4 ADD PUSH1 0x20 PUSH1 0x40 MLOAD DUP1 DUP4 SUB DUP2 DUP7 GAS STATICCALL ISZERO DUP1 ISZERO PUSH2 0x2FAE JUMPI RETURNDATASIZE PUSH1 0x0 DUP1 RETURNDATACOPY RETURNDATASIZE PUSH1 0x0 REVERT JUMPDEST POP POP POP POP PUSH1 0x40 MLOAD RETURNDATASIZE PUSH1 0x1F NOT PUSH1 0x1F DUP3 ADD AND DUP3 ADD DUP1 PUSH1 0x40 MSTORE POP DUP2 ADD SWAP1 PUSH2 0x2FD2 SWAP2 SWAP1 PUSH2 0x3FE9 JUMP JUMPDEST SWAP1 POP PUSH1 0x0 PUSH1 0x3 PUSH1 0x0 SWAP1 SLOAD SWAP1 PUSH2 0x100 EXP SWAP1 DIV PUSH20 0xFFFFFFFFFFFFFFFFFFFFFFFFFFFFFFFFFFFFFFFF AND PUSH20 0xFFFFFFFFFFFFFFFFFFFFFFFFFFFFFFFFFFFFFFFF AND PUSH4 0xF7888AEC DUP11 PUSH1 0x0 DUP1 SLOAD SWAP1 PUSH2 0x100 EXP SWAP1 DIV PUSH20 0xFFFFFFFFFFFFFFFFFFFFFFFFFFFFFFFFFFFFFFFF AND PUSH1 0x40 MLOAD DUP4 PUSH4 0xFFFFFFFF AND PUSH1 0xE0 SHL DUP2 MSTORE PUSH1 0x4 ADD PUSH2 0x3053 SWAP3 SWAP2 SWAP1 PUSH2 0x429D JUMP JUMPDEST PUSH1 0x20 PUSH1 0x40 MLOAD DUP1 DUP4 SUB DUP2 DUP7 GAS STATICCALL ISZERO DUP1 ISZERO PUSH2 0x3070 JUMPI RETURNDATASIZE PUSH1 0x0 DUP1 RETURNDATACOPY RETURNDATASIZE PUSH1 0x0 REVERT JUMPDEST POP POP POP POP PUSH1 0x40 MLOAD RETURNDATASIZE PUSH1 0x1F NOT PUSH1 0x1F DUP3 ADD AND DUP3 ADD DUP1 PUSH1 0x40 MSTORE POP DUP2 ADD SWAP1 PUSH2 0x3094 SWAP2 SWAP1 PUSH2 0x3FE9 JUMP JUMPDEST SWAP1 POP PUSH1 0x0 PUSH1 0x1 PUSH1 0x0 SWAP1 SLOAD SWAP1 PUSH2 0x100 EXP SWAP1 DIV PUSH20 0xFFFFFFFFFFFFFFFFFFFFFFFFFFFFFFFFFFFFFFFF AND PUSH20 0xFFFFFFFFFFFFFFFFFFFFFFFFFFFFFFFFFFFFFFFF AND PUSH4 0x49F9B0F7 DUP5 DUP5 DUP9 DUP14 PUSH1 0x40 MLOAD DUP6 PUSH4 0xFFFFFFFF AND PUSH1 0xE0 SHL DUP2 MSTORE PUSH1 0x4 ADD PUSH2 0x30F9 SWAP5 SWAP4 SWAP3 SWAP2 SWAP1 PUSH2 0x3F8F JUMP JUMPDEST PUSH1 0x20 PUSH1 0x40 MLOAD DUP1 DUP4 SUB DUP2 DUP7 GAS STATICCALL ISZERO DUP1 ISZERO PUSH2 0x3116 JUMPI RETURNDATASIZE PUSH1 0x0 DUP1 RETURNDATACOPY RETURNDATASIZE PUSH1 0x0 REVERT JUMPDEST POP POP POP POP PUSH1 0x40 MLOAD RETURNDATASIZE PUSH1 0x1F NOT PUSH1 0x1F DUP3 ADD AND DUP3 ADD DUP1 PUSH1 0x40 MSTORE POP DUP2 ADD SWAP1 PUSH2 0x313A SWAP2 SWAP1 PUSH2 0x3FE9 JUMP JUMPDEST SWAP1 POP PUSH1 0x0 DUP1 PUSH2 0x3148 DUP4 PUSH2 0x2546 JUMP JUMPDEST SWAP2 POP SWAP2 POP DUP2 DUP2 DUP5 PUSH2 0x3159 SWAP2 SWAP1 PUSH2 0x4045 JUMP JUMPDEST PUSH2 0x3163 SWAP2 SWAP1 PUSH2 0x4045 JUMP JUMPDEST SWAP6 POP DUP9 DUP7 LT ISZERO PUSH2 0x319F JUMPI PUSH1 0x40 MLOAD PUSH32 0x13115B2900000000000000000000000000000000000000000000000000000000 DUP2 MSTORE PUSH1 0x4 ADD PUSH1 0x40 MLOAD DUP1 SWAP2 SUB SWAP1 REVERT JUMPDEST PUSH32 0x9E20E9CBFD51CDD34A2163A0435DF07C7FDE8CABC7AB4CA38448BD01D317B697 DUP9 DUP14 DUP14 PUSH1 0x0 DUP1 SLOAD SWAP1 PUSH2 0x100 EXP SWAP1 DIV PUSH20 0xFFFFFFFFFFFFFFFFFFFFFFFFFFFFFFFFFFFFFFFF AND DUP11 DUP16 PUSH1 0x40 MLOAD PUSH2 0x31F8 SWAP7 SWAP6 SWAP5 SWAP4 SWAP3 SWAP2 SWAP1 PUSH2 0x430B JUMP JUMPDEST PUSH1 0x40 MLOAD DUP1 SWAP2 SUB SWAP1 LOG1 DUP12 PUSH20 0xFFFFFFFFFFFFFFFFFFFFFFFFFFFFFFFFFFFFFFFF AND PUSH4 0x79CC6790 CALLER DUP14 PUSH1 0x40 MLOAD DUP4 PUSH4 0xFFFFFFFF AND PUSH1 0xE0 SHL DUP2 MSTORE PUSH1 0x4 ADD PUSH2 0x323B SWAP3 SWAP2 SWAP1 PUSH2 0x41E4 JUMP JUMPDEST PUSH1 0x0 PUSH1 0x40 MLOAD DUP1 DUP4 SUB DUP2 PUSH1 0x0 DUP8 DUP1 EXTCODESIZE ISZERO DUP1 ISZERO PUSH2 0x3255 JUMPI PUSH1 0x0 DUP1 REVERT JUMPDEST POP GAS CALL ISZERO DUP1 ISZERO PUSH2 0x3269 JUMPI RETURNDATASIZE PUSH1 0x0 DUP1 RETURNDATACOPY RETURNDATASIZE PUSH1 0x0 REVERT JUMPDEST POP POP POP POP PUSH1 0x3 PUSH1 0x0 SWAP1 SLOAD SWAP1 PUSH2 0x100 EXP SWAP1 DIV PUSH20 0xFFFFFFFFFFFFFFFFFFFFFFFFFFFFFFFFFFFFFFFF AND PUSH20 0xFFFFFFFFFFFFFFFFFFFFFFFFFFFFFFFFFFFFFFFF AND PUSH4 0xF18D03CC DUP14 PUSH1 0x0 DUP1 SLOAD SWAP1 PUSH2 0x100 EXP SWAP1 DIV PUSH20 0xFFFFFFFFFFFFFFFFFFFFFFFFFFFFFFFFFFFFFFFF AND ADDRESS DUP8 PUSH1 0x40 MLOAD DUP6 PUSH4 0xFFFFFFFF AND PUSH1 0xE0 SHL DUP2 MSTORE PUSH1 0x4 ADD PUSH2 0x32EE SWAP5 SWAP4 SWAP3 SWAP2 SWAP1 PUSH2 0x4395 JUMP JUMPDEST PUSH1 0x0 PUSH1 0x40 MLOAD DUP1 DUP4 SUB DUP2 PUSH1 0x0 DUP8 DUP1 EXTCODESIZE ISZERO DUP1 ISZERO PUSH2 0x3308 JUMPI PUSH1 0x0 DUP1 REVERT JUMPDEST POP GAS CALL ISZERO DUP1 ISZERO PUSH2 0x331C JUMPI RETURNDATASIZE PUSH1 0x0 DUP1 RETURNDATACOPY RETURNDATASIZE PUSH1 0x0 REVERT JUMPDEST POP POP POP POP PUSH2 0x336B DUP9 DUP3 PUSH1 0x0 DUP1 SLOAD SWAP1 PUSH2 0x100 EXP SWAP1 DIV PUSH20 0xFFFFFFFFFFFFFFFFFFFFFFFFFFFFFFFFFFFFFFFF AND PUSH20 0xFFFFFFFFFFFFFFFFFFFFFFFFFFFFFFFFFFFFFFFF AND PUSH2 0x3529 SWAP1 SWAP3 SWAP2 SWAP1 PUSH4 0xFFFFFFFF AND JUMP JUMPDEST PUSH2 0x33D8 PUSH1 0x8 PUSH1 0x0 SWAP1 SLOAD SWAP1 PUSH2 0x100 EXP SWAP1 DIV PUSH20 0xFFFFFFFFFFFFFFFFFFFFFFFFFFFFFFFFFFFFFFFF AND DUP4 PUSH1 0x0 DUP1 SLOAD SWAP1 PUSH2 0x100 EXP SWAP1 DIV PUSH20 0xFFFFFFFFFFFFFFFFFFFFFFFFFFFFFFFFFFFFFFFF AND PUSH20 0xFFFFFFFFFFFFFFFFFFFFFFFFFFFFFFFFFFFFFFFF AND PUSH2 0x3529 SWAP1 SWAP3 SWAP2 SWAP1 PUSH4 0xFFFFFFFF AND JUMP JUMPDEST PUSH2 0x3423 DUP11 DUP8 PUSH1 0x0 DUP1 SLOAD SWAP1 PUSH2 0x100 EXP SWAP1 DIV PUSH20 0xFFFFFFFFFFFFFFFFFFFFFFFFFFFFFFFFFFFFFFFF AND PUSH20 0xFFFFFFFFFFFFFFFFFFFFFFFFFFFFFFFFFFFFFFFF AND PUSH2 0x3529 SWAP1 SWAP3 SWAP2 SWAP1 PUSH4 0xFFFFFFFF AND JUMP JUMPDEST POP POP POP POP POP SWAP7 SWAP6 POP POP POP POP POP POP JUMP JUMPDEST PUSH2 0x343A PUSH2 0xE8D JUMP JUMPDEST PUSH2 0x3470 JUMPI PUSH1 0x40 MLOAD PUSH32 0x8DFC202B00000000000000000000000000000000000000000000000000000000 DUP2 MSTORE PUSH1 0x4 ADD PUSH1 0x40 MLOAD DUP1 SWAP2 SUB SWAP1 REVERT JUMPDEST JUMP JUMPDEST PUSH1 0x0 PUSH2 0x349D DUP3 DUP5 PUSH20 0xFFFFFFFFFFFFFFFFFFFFFFFFFFFFFFFFFFFFFFFF AND PUSH2 0x35A8 SWAP1 SWAP2 SWAP1 PUSH4 0xFFFFFFFF AND JUMP JUMPDEST SWAP1 POP PUSH1 0x0 DUP2 MLOAD EQ ISZERO DUP1 ISZERO PUSH2 0x34C2 JUMPI POP DUP1 DUP1 PUSH1 0x20 ADD SWAP1 MLOAD DUP2 ADD SWAP1 PUSH2 0x34C0 SWAP2 SWAP1 PUSH2 0x4239 JUMP JUMPDEST ISZERO JUMPDEST ISZERO PUSH2 0x3504 JUMPI DUP3 PUSH1 0x40 MLOAD PUSH32 0x5274AFE700000000000000000000000000000000000000000000000000000000 DUP2 MSTORE PUSH1 0x4 ADD PUSH2 0x34FB SWAP2 SWAP1 PUSH2 0x3CB8 JUMP JUMPDEST PUSH1 0x40 MLOAD DUP1 SWAP2 SUB SWAP1 REVERT JUMPDEST POP POP POP JUMP JUMPDEST PUSH1 0x0 PUSH2 0x3513 PUSH2 0x18BF JUMP JUMPDEST PUSH1 0x0 ADD PUSH1 0x8 SWAP1 SLOAD SWAP1 PUSH2 0x100 EXP SWAP1 DIV PUSH1 0xFF AND SWAP1 POP SWAP1 JUMP JUMPDEST PUSH2 0x35A3 DUP4 DUP5 PUSH20 0xFFFFFFFFFFFFFFFFFFFFFFFFFFFFFFFFFFFFFFFF AND PUSH4 0xA9059CBB DUP6 DUP6 PUSH1 0x40 MLOAD PUSH1 0x24 ADD PUSH2 0x355C SWAP3 SWAP2 SWAP1 PUSH2 0x41E4 JUMP JUMPDEST PUSH1 0x40 MLOAD PUSH1 0x20 DUP2 DUP4 SUB SUB DUP2 MSTORE SWAP1 PUSH1 0x40 MSTORE SWAP2 POP PUSH1 0xE0 SHL PUSH1 0x20 DUP3 ADD DUP1 MLOAD PUSH28 0xFFFFFFFFFFFFFFFFFFFFFFFFFFFFFFFFFFFFFFFFFFFFFFFFFFFFFFFF DUP4 DUP2 DUP4 AND OR DUP4 MSTORE POP POP POP POP PUSH2 0x3472 JUMP JUMPDEST POP POP POP JUMP JUMPDEST PUSH1 0x60 PUSH2 0x35B6 DUP4 DUP4 PUSH1 0x0 PUSH2 0x35BE JUMP JUMPDEST SWAP1 POP SWAP3 SWAP2 POP POP JUMP JUMPDEST PUSH1 0x60 DUP2 SELFBALANCE LT ISZERO PUSH2 0x3605 JUMPI ADDRESS PUSH1 0x40 MLOAD PUSH32 0xCD78605900000000000000000000000000000000000000000000000000000000 DUP2 MSTORE PUSH1 0x4 ADD PUSH2 0x35FC SWAP2 SWAP1 PUSH2 0x3CB8 JUMP JUMPDEST PUSH1 0x40 MLOAD DUP1 SWAP2 SUB SWAP1 REVERT JUMPDEST PUSH1 0x0 DUP1 DUP6 PUSH20 0xFFFFFFFFFFFFFFFFFFFFFFFFFFFFFFFFFFFFFFFF AND DUP5 DUP7 PUSH1 0x40 MLOAD PUSH2 0x362E SWAP2 SWAP1 PUSH2 0x444B JUMP JUMPDEST PUSH1 0x0 PUSH1 0x40 MLOAD DUP1 DUP4 SUB DUP2 DUP6 DUP8 GAS CALL SWAP3 POP POP POP RETURNDATASIZE DUP1 PUSH1 0x0 DUP2 EQ PUSH2 0x366B JUMPI PUSH1 0x40 MLOAD SWAP2 POP PUSH1 0x1F NOT PUSH1 0x3F RETURNDATASIZE ADD AND DUP3 ADD PUSH1 0x40 MSTORE RETURNDATASIZE DUP3 MSTORE RETURNDATASIZE PUSH1 0x0 PUSH1 0x20 DUP5 ADD RETURNDATACOPY PUSH2 0x3670 JUMP JUMPDEST PUSH1 0x60 SWAP2 POP JUMPDEST POP SWAP2 POP SWAP2 POP PUSH2 0x3680 DUP7 DUP4 DUP4 PUSH2 0x368B JUMP JUMPDEST SWAP3 POP POP POP SWAP4 SWAP3 POP POP POP JUMP JUMPDEST PUSH1 0x60 DUP3 PUSH2 0x36A0 JUMPI PUSH2 0x369B DUP3 PUSH2 0x371A JUMP JUMPDEST PUSH2 0x3712 JUMP JUMPDEST PUSH1 0x0 DUP3 MLOAD EQ DUP1 ISZERO PUSH2 0x36C8 JUMPI POP PUSH1 0x0 DUP5 PUSH20 0xFFFFFFFFFFFFFFFFFFFFFFFFFFFFFFFFFFFFFFFF AND EXTCODESIZE EQ JUMPDEST ISZERO PUSH2 0x370A JUMPI DUP4 PUSH1 0x40 MLOAD PUSH32 0x9996B31500000000000000000000000000000000000000000000000000000000 DUP2 MSTORE PUSH1 0x4 ADD PUSH2 0x3701 SWAP2 SWAP1 PUSH2 0x3CB8 JUMP JUMPDEST PUSH1 0x40 MLOAD DUP1 SWAP2 SUB SWAP1 REVERT JUMPDEST DUP2 SWAP1 POP PUSH2 0x3713 JUMP JUMPDEST JUMPDEST SWAP4 SWAP3 POP POP POP JUMP JUMPDEST PUSH1 0x0 DUP2 MLOAD GT ISZERO PUSH2 0x372D JUMPI DUP1 MLOAD DUP1 DUP3 PUSH1 0x20 ADD REVERT JUMPDEST PUSH1 0x40 MLOAD PUSH32 0x1425EA4200000000000000000000000000000000000000000000000000000000 DUP2 MSTORE PUSH1 0x4 ADD PUSH1 0x40 MLOAD DUP1 SWAP2 SUB SWAP1 REVERT JUMPDEST PUSH1 0x0 PUSH1 0x40 MLOAD SWAP1 POP SWAP1 JUMP JUMPDEST PUSH1 0x0 DUP1 REVERT JUMPDEST PUSH1 0x0 PUSH32 0xFFFFFFFF00000000000000000000000000000000000000000000000000000000 DUP3 AND SWAP1 POP SWAP2 SWAP1 POP JUMP JUMPDEST PUSH2 0x37A3 DUP2 PUSH2 0x376E JUMP JUMPDEST DUP2 EQ PUSH2 0x37AE JUMPI PUSH1 0x0 DUP1 REVERT JUMPDEST POP JUMP JUMPDEST PUSH1 0x0 DUP2 CALLDATALOAD SWAP1 POP PUSH2 0x37C0 DUP2 PUSH2 0x379A JUMP JUMPDEST SWAP3 SWAP2 POP POP JUMP JUMPDEST PUSH1 0x0 PUSH1 0x20 DUP3 DUP5 SUB SLT ISZERO PUSH2 0x37DC JUMPI PUSH2 0x37DB PUSH2 0x3769 JUMP JUMPDEST JUMPDEST PUSH1 0x0 PUSH2 0x37EA DUP5 DUP3 DUP6 ADD PUSH2 0x37B1 JUMP JUMPDEST SWAP2 POP POP SWAP3 SWAP2 POP POP JUMP JUMPDEST PUSH1 0x0 DUP2 ISZERO ISZERO SWAP1 POP SWAP2 SWAP1 POP JUMP JUMPDEST PUSH2 0x3808 DUP2 PUSH2 0x37F3 JUMP JUMPDEST DUP3 MSTORE POP POP JUMP JUMPDEST PUSH1 0x0 PUSH1 0x20 DUP3 ADD SWAP1 POP PUSH2 0x3823 PUSH1 0x0 DUP4 ADD DUP5 PUSH2 0x37FF JUMP JUMPDEST SWAP3 SWAP2 POP POP JUMP JUMPDEST PUSH1 0x0 PUSH4 0xFFFFFFFF DUP3 AND SWAP1 POP SWAP2 SWAP1 POP JUMP JUMPDEST PUSH2 0x3842 DUP2 PUSH2 0x3829 JUMP JUMPDEST DUP3 MSTORE POP POP JUMP JUMPDEST PUSH1 0x0 PUSH1 0x20 DUP3 ADD SWAP1 POP PUSH2 0x385D PUSH1 0x0 DUP4 ADD DUP5 PUSH2 0x3839 JUMP JUMPDEST SWAP3 SWAP2 POP POP JUMP JUMPDEST PUSH1 0x0 PUSH20 0xFFFFFFFFFFFFFFFFFFFFFFFFFFFFFFFFFFFFFFFF DUP3 AND SWAP1 POP SWAP2 SWAP1 POP JUMP JUMPDEST PUSH1 0x0 PUSH2 0x388E DUP3 PUSH2 0x3863 JUMP JUMPDEST SWAP1 POP SWAP2 SWAP1 POP JUMP JUMPDEST PUSH2 0x389E DUP2 PUSH2 0x3883 JUMP JUMPDEST DUP2 EQ PUSH2 0x38A9 JUMPI PUSH1 0x0 DUP1 REVERT JUMPDEST POP JUMP JUMPDEST PUSH1 0x0 DUP2 CALLDATALOAD SWAP1 POP PUSH2 0x38BB DUP2 PUSH2 0x3895 JUMP JUMPDEST SWAP3 SWAP2 POP POP JUMP JUMPDEST PUSH1 0x0 DUP1 REVERT JUMPDEST PUSH1 0x0 PUSH1 0x1F NOT PUSH1 0x1F DUP4 ADD AND SWAP1 POP SWAP2 SWAP1 POP JUMP JUMPDEST PUSH32 0x4E487B7100000000000000000000000000000000000000000000000000000000 PUSH1 0x0 MSTORE PUSH1 0x41 PUSH1 0x4 MSTORE PUSH1 0x24 PUSH1 0x0 REVERT JUMPDEST PUSH2 0x390F DUP3 PUSH2 0x38C6 JUMP JUMPDEST DUP2 ADD DUP2 DUP2 LT PUSH8 0xFFFFFFFFFFFFFFFF DUP3 GT OR ISZERO PUSH2 0x392E JUMPI PUSH2 0x392D PUSH2 0x38D7 JUMP JUMPDEST JUMPDEST DUP1 PUSH1 0x40 MSTORE POP POP POP JUMP JUMPDEST PUSH1 0x0 PUSH2 0x3941 PUSH2 0x375F JUMP JUMPDEST SWAP1 POP PUSH2 0x394D DUP3 DUP3 PUSH2 0x3906 JUMP JUMPDEST SWAP2 SWAP1 POP JUMP JUMPDEST PUSH1 0x0 DUP2 SWAP1 POP SWAP2 SWAP1 POP JUMP JUMPDEST PUSH2 0x3965 DUP2 PUSH2 0x3952 JUMP JUMPDEST DUP2 EQ PUSH2 0x3970 JUMPI PUSH1 0x0 DUP1 REVERT JUMPDEST POP JUMP JUMPDEST PUSH1 0x0 DUP2 CALLDATALOAD SWAP1 POP PUSH2 0x3982 DUP2 PUSH2 0x395C JUMP JUMPDEST SWAP3 SWAP2 POP POP JUMP JUMPDEST PUSH1 0x0 PUSH1 0x80 DUP3 DUP5 SUB SLT ISZERO PUSH2 0x399E JUMPI PUSH2 0x399D PUSH2 0x38C1 JUMP JUMPDEST JUMPDEST PUSH2 0x39A8 PUSH1 0x80 PUSH2 0x3937 JUMP JUMPDEST SWAP1 POP PUSH1 0x0 PUSH2 0x39B8 DUP5 DUP3 DUP6 ADD PUSH2 0x3973 JUMP JUMPDEST PUSH1 0x0 DUP4 ADD MSTORE POP PUSH1 0x20 PUSH2 0x39CC DUP5 DUP3 DUP6 ADD PUSH2 0x3973 JUMP JUMPDEST PUSH1 0x20 DUP4 ADD MSTORE POP PUSH1 0x40 PUSH2 0x39E0 DUP5 DUP3 DUP6 ADD PUSH2 0x3973 JUMP JUMPDEST PUSH1 0x40 DUP4 ADD MSTORE POP PUSH1 0x60 PUSH2 0x39F4 DUP5 DUP3 DUP6 ADD PUSH2 0x3973 JUMP JUMPDEST PUSH1 0x60 DUP4 ADD MSTORE POP SWAP3 SWAP2 POP POP JUMP JUMPDEST PUSH1 0x0 DUP1 PUSH1 0x0 DUP1 PUSH1 0x0 DUP1 PUSH1 0x0 DUP1 PUSH2 0x160 DUP10 DUP12 SUB SLT ISZERO PUSH2 0x3A21 JUMPI PUSH2 0x3A20 PUSH2 0x3769 JUMP JUMPDEST JUMPDEST PUSH1 0x0 PUSH2 0x3A2F DUP12 DUP3 DUP13 ADD PUSH2 0x38AC JUMP JUMPDEST SWAP9 POP POP PUSH1 0x20 PUSH2 0x3A40 DUP12 DUP3 DUP13 ADD PUSH2 0x38AC JUMP JUMPDEST SWAP8 POP POP PUSH1 0x40 PUSH2 0x3A51 DUP12 DUP3 DUP13 ADD PUSH2 0x38AC JUMP JUMPDEST SWAP7 POP POP PUSH1 0x60 PUSH2 0x3A62 DUP12 DUP3 DUP13 ADD PUSH2 0x38AC JUMP JUMPDEST SWAP6 POP POP PUSH1 0x80 PUSH2 0x3A73 DUP12 DUP3 DUP13 ADD PUSH2 0x38AC JUMP JUMPDEST SWAP5 POP POP PUSH1 0xA0 PUSH2 0x3A84 DUP12 DUP3 DUP13 ADD PUSH2 0x3988 JUMP JUMPDEST SWAP4 POP POP PUSH2 0x120 PUSH2 0x3A96 DUP12 DUP3 DUP13 ADD PUSH2 0x38AC JUMP JUMPDEST SWAP3 POP POP PUSH2 0x140 PUSH2 0x3AA8 DUP12 DUP3 DUP13 ADD PUSH2 0x38AC JUMP JUMPDEST SWAP2 POP POP SWAP3 SWAP6 SWAP9 POP SWAP3 SWAP6 SWAP9 SWAP1 SWAP4 SWAP7 POP JUMP JUMPDEST PUSH1 0x0 DUP2 SWAP1 POP SWAP2 SWAP1 POP JUMP JUMPDEST PUSH2 0x3ACB DUP2 PUSH2 0x3AB8 JUMP JUMPDEST DUP3 MSTORE POP POP JUMP JUMPDEST PUSH1 0x0 PUSH1 0x20 DUP3 ADD SWAP1 POP PUSH2 0x3AE6 PUSH1 0x0 DUP4 ADD DUP5 PUSH2 0x3AC2 JUMP JUMPDEST SWAP3 SWAP2 POP POP JUMP JUMPDEST PUSH1 0x0 DUP1 PUSH1 0x0 PUSH1 0x60 DUP5 DUP7 SUB SLT ISZERO PUSH2 0x3B05 JUMPI PUSH2 0x3B04 PUSH2 0x3769 JUMP JUMPDEST JUMPDEST PUSH1 0x0 PUSH2 0x3B13 DUP7 DUP3 DUP8 ADD PUSH2 0x38AC JUMP JUMPDEST SWAP4 POP POP PUSH1 0x20 PUSH2 0x3B24 DUP7 DUP3 DUP8 ADD PUSH2 0x3973 JUMP JUMPDEST SWAP3 POP POP PUSH1 0x40 PUSH2 0x3B35 DUP7 DUP3 DUP8 ADD PUSH2 0x3973 JUMP JUMPDEST SWAP2 POP POP SWAP3 POP SWAP3 POP SWAP3 JUMP JUMPDEST PUSH2 0x3B48 DUP2 PUSH2 0x3952 JUMP JUMPDEST DUP3 MSTORE POP POP JUMP JUMPDEST PUSH1 0x0 PUSH1 0x20 DUP3 ADD SWAP1 POP PUSH2 0x3B63 PUSH1 0x0 DUP4 ADD DUP5 PUSH2 0x3B3F JUMP JUMPDEST SWAP3 SWAP2 POP POP JUMP JUMPDEST PUSH1 0x0 PUSH1 0x20 DUP3 DUP5 SUB SLT ISZERO PUSH2 0x3B7F JUMPI PUSH2 0x3B7E PUSH2 0x3769 JUMP JUMPDEST JUMPDEST PUSH1 0x0 PUSH2 0x3B8D DUP5 DUP3 DUP6 ADD PUSH2 0x38AC JUMP JUMPDEST SWAP2 POP POP SWAP3 SWAP2 POP POP JUMP JUMPDEST PUSH2 0x3B9F DUP2 PUSH2 0x3AB8 JUMP JUMPDEST DUP2 EQ PUSH2 0x3BAA JUMPI PUSH1 0x0 DUP1 REVERT JUMPDEST POP JUMP JUMPDEST PUSH1 0x0 DUP2 CALLDATALOAD SWAP1 POP PUSH2 0x3BBC DUP2 PUSH2 0x3B96 JUMP JUMPDEST SWAP3 SWAP2 POP POP JUMP JUMPDEST PUSH1 0x0 PUSH1 0x20 DUP3 DUP5 SUB SLT ISZERO PUSH2 0x3BD8 JUMPI PUSH2 0x3BD7 PUSH2 0x3769 JUMP JUMPDEST JUMPDEST PUSH1 0x0 PUSH2 0x3BE6 DUP5 DUP3 DUP6 ADD PUSH2 0x3BAD JUMP JUMPDEST SWAP2 POP POP SWAP3 SWAP2 POP POP JUMP JUMPDEST PUSH1 0x0 DUP2 SWAP1 POP SWAP2 SWAP1 POP JUMP JUMPDEST PUSH1 0x0 PUSH2 0x3C14 PUSH2 0x3C0F PUSH2 0x3C0A DUP5 PUSH2 0x3863 JUMP JUMPDEST PUSH2 0x3BEF JUMP JUMPDEST PUSH2 0x3863 JUMP JUMPDEST SWAP1 POP SWAP2 SWAP1 POP JUMP JUMPDEST PUSH1 0x0 PUSH2 0x3C26 DUP3 PUSH2 0x3BF9 JUMP JUMPDEST SWAP1 POP SWAP2 SWAP1 POP JUMP JUMPDEST PUSH1 0x0 PUSH2 0x3C38 DUP3 PUSH2 0x3C1B JUMP JUMPDEST SWAP1 POP SWAP2 SWAP1 POP JUMP JUMPDEST PUSH2 0x3C48 DUP2 PUSH2 0x3C2D JUMP JUMPDEST DUP3 MSTORE POP POP JUMP JUMPDEST PUSH1 0x0 PUSH1 0x20 DUP3 ADD SWAP1 POP PUSH2 0x3C63 PUSH1 0x0 DUP4 ADD DUP5 PUSH2 0x3C3F JUMP JUMPDEST SWAP3 SWAP2 POP POP JUMP JUMPDEST PUSH1 0x0 DUP1 PUSH1 0x40 DUP4 DUP6 SUB SLT ISZERO PUSH2 0x3C80 JUMPI PUSH2 0x3C7F PUSH2 0x3769 JUMP JUMPDEST JUMPDEST PUSH1 0x0 PUSH2 0x3C8E DUP6 DUP3 DUP7 ADD PUSH2 0x3BAD JUMP JUMPDEST SWAP3 POP POP PUSH1 0x20 PUSH2 0x3C9F DUP6 DUP3 DUP7 ADD PUSH2 0x38AC JUMP JUMPDEST SWAP2 POP POP SWAP3 POP SWAP3 SWAP1 POP JUMP JUMPDEST PUSH2 0x3CB2 DUP2 PUSH2 0x3883 JUMP JUMPDEST DUP3 MSTORE POP POP JUMP JUMPDEST PUSH1 0x0 PUSH1 0x20 DUP3 ADD SWAP1 POP PUSH2 0x3CCD PUSH1 0x0 DUP4 ADD DUP5 PUSH2 0x3CA9 JUMP JUMPDEST SWAP3 SWAP2 POP POP JUMP JUMPDEST PUSH1 0x0 PUSH2 0x3CDE DUP3 PUSH2 0x3C1B JUMP JUMPDEST SWAP1 POP SWAP2 SWAP1 POP JUMP JUMPDEST PUSH2 0x3CEE DUP2 PUSH2 0x3CD3 JUMP JUMPDEST DUP3 MSTORE POP POP JUMP JUMPDEST PUSH1 0x0 PUSH1 0x20 DUP3 ADD SWAP1 POP PUSH2 0x3D09 PUSH1 0x0 DUP4 ADD DUP5 PUSH2 0x3CE5 JUMP JUMPDEST SWAP3 SWAP2 POP POP JUMP JUMPDEST PUSH1 0x0 DUP1 PUSH1 0x0 DUP1 PUSH1 0x80 DUP6 DUP8 SUB SLT ISZERO PUSH2 0x3D29 JUMPI PUSH2 0x3D28 PUSH2 0x3769 JUMP JUMPDEST JUMPDEST PUSH1 0x0 PUSH2 0x3D37 DUP8 DUP3 DUP9 ADD PUSH2 0x38AC JUMP JUMPDEST SWAP5 POP POP PUSH1 0x20 PUSH2 0x3D48 DUP8 DUP3 DUP9 ADD PUSH2 0x3973 JUMP JUMPDEST SWAP4 POP POP PUSH1 0x40 PUSH2 0x3D59 DUP8 DUP3 DUP9 ADD PUSH2 0x38AC JUMP JUMPDEST SWAP3 POP POP PUSH1 0x60 PUSH2 0x3D6A DUP8 DUP3 DUP9 ADD PUSH2 0x3973 JUMP JUMPDEST SWAP2 POP POP SWAP3 SWAP6 SWAP2 SWAP5 POP SWAP3 POP JUMP JUMPDEST PUSH1 0x0 DUP1 PUSH1 0x40 DUP4 DUP6 SUB SLT ISZERO PUSH2 0x3D8D JUMPI PUSH2 0x3D8C PUSH2 0x3769 JUMP JUMPDEST JUMPDEST PUSH1 0x0 PUSH2 0x3D9B DUP6 DUP3 DUP7 ADD PUSH2 0x38AC JUMP JUMPDEST SWAP3 POP POP PUSH1 0x20 PUSH2 0x3DAC DUP6 DUP3 DUP7 ADD PUSH2 0x3973 JUMP JUMPDEST SWAP2 POP POP SWAP3 POP SWAP3 SWAP1 POP JUMP JUMPDEST PUSH1 0x0 PUSH1 0x60 DUP3 ADD SWAP1 POP PUSH2 0x3DCB PUSH1 0x0 DUP4 ADD DUP7 PUSH2 0x3B3F JUMP JUMPDEST PUSH2 0x3DD8 PUSH1 0x20 DUP4 ADD DUP6 PUSH2 0x3B3F JUMP JUMPDEST PUSH2 0x3DE5 PUSH1 0x40 DUP4 ADD DUP5 PUSH2 0x3B3F JUMP JUMPDEST SWAP5 SWAP4 POP POP POP POP JUMP JUMPDEST PUSH1 0x0 PUSH1 0x80 DUP3 DUP5 SUB SLT ISZERO PUSH2 0x3E03 JUMPI PUSH2 0x3E02 PUSH2 0x3769 JUMP JUMPDEST JUMPDEST PUSH1 0x0 PUSH2 0x3E11 DUP5 DUP3 DUP6 ADD PUSH2 0x3988 JUMP JUMPDEST SWAP2 POP POP SWAP3 SWAP2 POP POP JUMP JUMPDEST PUSH2 0x3E23 DUP2 PUSH2 0x3829 JUMP JUMPDEST DUP2 EQ PUSH2 0x3E2E JUMPI PUSH1 0x0 DUP1 REVERT JUMPDEST POP JUMP JUMPDEST PUSH1 0x0 DUP2 CALLDATALOAD SWAP1 POP PUSH2 0x3E40 DUP2 PUSH2 0x3E1A JUMP JUMPDEST SWAP3 SWAP2 POP POP JUMP JUMPDEST PUSH1 0x0 DUP1 PUSH1 0x0 DUP1 PUSH1 0x80 DUP6 DUP8 SUB SLT ISZERO PUSH2 0x3E60 JUMPI PUSH2 0x3E5F PUSH2 0x3769 JUMP JUMPDEST JUMPDEST PUSH1 0x0 PUSH2 0x3E6E DUP8 DUP3 DUP9 ADD PUSH2 0x38AC JUMP JUMPDEST SWAP5 POP POP PUSH1 0x20 PUSH2 0x3E7F DUP8 DUP3 DUP9 ADD PUSH2 0x3E31 JUMP JUMPDEST SWAP4 POP POP PUSH1 0x40 PUSH2 0x3E90 DUP8 DUP3 DUP9 ADD PUSH2 0x3973 JUMP JUMPDEST SWAP3 POP POP PUSH1 0x60 PUSH2 0x3EA1 DUP8 DUP3 DUP9 ADD PUSH2 0x3973 JUMP JUMPDEST SWAP2 POP POP SWAP3 SWAP6 SWAP2 SWAP5 POP SWAP3 POP JUMP JUMPDEST PUSH1 0x0 PUSH2 0x3EB8 DUP3 PUSH2 0x3C1B JUMP JUMPDEST SWAP1 POP SWAP2 SWAP1 POP JUMP JUMPDEST PUSH2 0x3EC8 DUP2 PUSH2 0x3EAD JUMP JUMPDEST DUP3 MSTORE POP POP JUMP JUMPDEST PUSH1 0x0 PUSH1 0x20 DUP3 ADD SWAP1 POP PUSH2 0x3EE3 PUSH1 0x0 DUP4 ADD DUP5 PUSH2 0x3EBF JUMP JUMPDEST SWAP3 SWAP2 POP POP JUMP JUMPDEST PUSH1 0x0 PUSH2 0x3EF4 DUP3 PUSH2 0x3C1B JUMP JUMPDEST SWAP1 POP SWAP2 SWAP1 POP JUMP JUMPDEST PUSH2 0x3F04 DUP2 PUSH2 0x3EE9 JUMP JUMPDEST DUP3 MSTORE POP POP JUMP JUMPDEST PUSH1 0x0 PUSH1 0x20 DUP3 ADD SWAP1 POP PUSH2 0x3F1F PUSH1 0x0 DUP4 ADD DUP5 PUSH2 0x3EFB JUMP JUMPDEST SWAP3 SWAP2 POP POP JUMP JUMPDEST PUSH1 0x0 DUP2 SWAP1 POP SWAP2 SWAP1 POP JUMP JUMPDEST PUSH1 0x0 PUSH8 0xFFFFFFFFFFFFFFFF DUP3 AND SWAP1 POP SWAP2 SWAP1 POP JUMP JUMPDEST PUSH1 0x0 PUSH2 0x3F5E PUSH2 0x3F59 PUSH2 0x3F54 DUP5 PUSH2 0x3F25 JUMP JUMPDEST PUSH2 0x3BEF JUMP JUMPDEST PUSH2 0x3F2F JUMP JUMPDEST SWAP1 POP SWAP2 SWAP1 POP JUMP JUMPDEST PUSH2 0x3F6E DUP2 PUSH2 0x3F43 JUMP JUMPDEST DUP3 MSTORE POP POP JUMP JUMPDEST PUSH1 0x0 PUSH1 0x20 DUP3 ADD SWAP1 POP PUSH2 0x3F89 PUSH1 0x0 DUP4 ADD DUP5 PUSH2 0x3F65 JUMP JUMPDEST SWAP3 SWAP2 POP POP JUMP JUMPDEST PUSH1 0x0 PUSH1 0x80 DUP3 ADD SWAP1 POP PUSH2 0x3FA4 PUSH1 0x0 DUP4 ADD DUP8 PUSH2 0x3B3F JUMP JUMPDEST PUSH2 0x3FB1 PUSH1 0x20 DUP4 ADD DUP7 PUSH2 0x3B3F JUMP JUMPDEST PUSH2 0x3FBE PUSH1 0x40 DUP4 ADD DUP6 PUSH2 0x3839 JUMP JUMPDEST PUSH2 0x3FCB PUSH1 0x60 DUP4 ADD DUP5 PUSH2 0x3B3F JUMP JUMPDEST SWAP6 SWAP5 POP POP POP POP POP JUMP JUMPDEST PUSH1 0x0 DUP2 MLOAD SWAP1 POP PUSH2 0x3FE3 DUP2 PUSH2 0x395C JUMP JUMPDEST SWAP3 SWAP2 POP POP JUMP JUMPDEST PUSH1 0x0 PUSH1 0x20 DUP3 DUP5 SUB SLT ISZERO PUSH2 0x3FFF JUMPI PUSH2 0x3FFE PUSH2 0x3769 JUMP JUMPDEST JUMPDEST PUSH1 0x0 PUSH2 0x400D DUP5 DUP3 DUP6 ADD PUSH2 0x3FD4 JUMP JUMPDEST SWAP2 POP POP SWAP3 SWAP2 POP POP JUMP JUMPDEST PUSH32 0x4E487B7100000000000000000000000000000000000000000000000000000000 PUSH1 0x0 MSTORE PUSH1 0x11 PUSH1 0x4 MSTORE PUSH1 0x24 PUSH1 0x0 REVERT JUMPDEST PUSH1 0x0 PUSH2 0x4050 DUP3 PUSH2 0x3952 JUMP JUMPDEST SWAP2 POP PUSH2 0x405B DUP4 PUSH2 0x3952 JUMP JUMPDEST SWAP3 POP DUP3 DUP3 SUB SWAP1 POP DUP2 DUP2 GT ISZERO PUSH2 0x4073 JUMPI PUSH2 0x4072 PUSH2 0x4016 JUMP JUMPDEST JUMPDEST SWAP3 SWAP2 POP POP JUMP JUMPDEST PUSH1 0x0 PUSH2 0x4084 DUP3 PUSH2 0x3952 JUMP JUMPDEST SWAP2 POP PUSH2 0x408F DUP4 PUSH2 0x3952 JUMP JUMPDEST SWAP3 POP DUP3 DUP3 ADD SWAP1 POP DUP1 DUP3 GT ISZERO PUSH2 0x40A7 JUMPI PUSH2 0x40A6 PUSH2 0x4016 JUMP JUMPDEST JUMPDEST SWAP3 SWAP2 POP POP JUMP JUMPDEST PUSH1 0x0 PUSH2 0x40B8 DUP3 PUSH2 0x3952 JUMP JUMPDEST SWAP2 POP PUSH2 0x40C3 DUP4 PUSH2 0x3952 JUMP JUMPDEST SWAP3 POP DUP3 DUP3 MUL PUSH2 0x40D1 DUP2 PUSH2 0x3952 JUMP JUMPDEST SWAP2 POP DUP3 DUP3 DIV DUP5 EQ DUP4 ISZERO OR PUSH2 0x40E8 JUMPI PUSH2 0x40E7 PUSH2 0x4016 JUMP JUMPDEST JUMPDEST POP SWAP3 SWAP2 POP POP JUMP JUMPDEST PUSH32 0x4E487B7100000000000000000000000000000000000000000000000000000000 PUSH1 0x0 MSTORE PUSH1 0x12 PUSH1 0x4 MSTORE PUSH1 0x24 PUSH1 0x0 REVERT JUMPDEST PUSH1 0x0 PUSH2 0x4129 DUP3 PUSH2 0x3952 JUMP JUMPDEST SWAP2 POP PUSH2 0x4134 DUP4 PUSH2 0x3952 JUMP JUMPDEST SWAP3 POP DUP3 PUSH2 0x4144 JUMPI PUSH2 0x4143 PUSH2 0x40EF JUMP JUMPDEST JUMPDEST DUP3 DUP3 DIV SWAP1 POP SWAP3 SWAP2 POP POP JUMP JUMPDEST PUSH1 0x0 DUP2 MLOAD SWAP1 POP PUSH2 0x415E DUP2 PUSH2 0x3895 JUMP JUMPDEST SWAP3 SWAP2 POP POP JUMP JUMPDEST PUSH1 0x0 PUSH1 0x20 DUP3 DUP5 SUB SLT ISZERO PUSH2 0x417A JUMPI PUSH2 0x4179 PUSH2 0x3769 JUMP JUMPDEST JUMPDEST PUSH1 0x0 PUSH2 0x4188 DUP5 DUP3 DUP6 ADD PUSH2 0x414F JUMP JUMPDEST SWAP2 POP POP SWAP3 SWAP2 POP POP JUMP JUMPDEST PUSH1 0x0 PUSH1 0xA0 DUP3 ADD SWAP1 POP PUSH2 0x41A6 PUSH1 0x0 DUP4 ADD DUP9 PUSH2 0x3CA9 JUMP JUMPDEST PUSH2 0x41B3 PUSH1 0x20 DUP4 ADD DUP8 PUSH2 0x3CA9 JUMP JUMPDEST PUSH2 0x41C0 PUSH1 0x40 DUP4 ADD DUP7 PUSH2 0x3B3F JUMP JUMPDEST PUSH2 0x41CD PUSH1 0x60 DUP4 ADD DUP6 PUSH2 0x3B3F JUMP JUMPDEST PUSH2 0x41DA PUSH1 0x80 DUP4 ADD DUP5 PUSH2 0x3839 JUMP JUMPDEST SWAP7 SWAP6 POP POP POP POP POP POP JUMP JUMPDEST PUSH1 0x0 PUSH1 0x40 DUP3 ADD SWAP1 POP PUSH2 0x41F9 PUSH1 0x0 DUP4 ADD DUP6 PUSH2 0x3CA9 JUMP JUMPDEST PUSH2 0x4206 PUSH1 0x20 DUP4 ADD DUP5 PUSH2 0x3B3F JUMP JUMPDEST SWAP4 SWAP3 POP POP POP JUMP JUMPDEST PUSH2 0x4216 DUP2 PUSH2 0x37F3 JUMP JUMPDEST DUP2 EQ PUSH2 0x4221 JUMPI PUSH1 0x0 DUP1 REVERT JUMPDEST POP JUMP JUMPDEST PUSH1 0x0 DUP2 MLOAD SWAP1 POP PUSH2 0x4233 DUP2 PUSH2 0x420D JUMP JUMPDEST SWAP3 SWAP2 POP POP JUMP JUMPDEST PUSH1 0x0 PUSH1 0x20 DUP3 DUP5 SUB SLT ISZERO PUSH2 0x424F JUMPI PUSH2 0x424E PUSH2 0x3769 JUMP JUMPDEST JUMPDEST PUSH1 0x0 PUSH2 0x425D DUP5 DUP3 DUP6 ADD PUSH2 0x4224 JUMP JUMPDEST SWAP2 POP POP SWAP3 SWAP2 POP POP JUMP JUMPDEST PUSH1 0x0 PUSH1 0x60 DUP3 ADD SWAP1 POP PUSH2 0x427B PUSH1 0x0 DUP4 ADD DUP7 PUSH2 0x3CA9 JUMP JUMPDEST PUSH2 0x4288 PUSH1 0x20 DUP4 ADD DUP6 PUSH2 0x3CA9 JUMP JUMPDEST PUSH2 0x4295 PUSH1 0x40 DUP4 ADD DUP5 PUSH2 0x3B3F JUMP JUMPDEST SWAP5 SWAP4 POP POP POP POP JUMP JUMPDEST PUSH1 0x0 PUSH1 0x40 DUP3 ADD SWAP1 POP PUSH2 0x42B2 PUSH1 0x0 DUP4 ADD DUP6 PUSH2 0x3CA9 JUMP JUMPDEST PUSH2 0x42BF PUSH1 0x20 DUP4 ADD DUP5 PUSH2 0x3CA9 JUMP JUMPDEST SWAP4 SWAP3 POP POP POP JUMP JUMPDEST PUSH1 0x0 PUSH1 0x80 DUP3 ADD SWAP1 POP PUSH2 0x42DB PUSH1 0x0 DUP4 ADD DUP8 PUSH2 0x3B3F JUMP JUMPDEST PUSH2 0x42E8 PUSH1 0x20 DUP4 ADD DUP7 PUSH2 0x3B3F JUMP JUMPDEST PUSH2 0x42F5 PUSH1 0x40 DUP4 ADD DUP6 PUSH2 0x3B3F JUMP JUMPDEST PUSH2 0x4302 PUSH1 0x60 DUP4 ADD DUP5 PUSH2 0x3B3F JUMP JUMPDEST SWAP6 SWAP5 POP POP POP POP POP JUMP JUMPDEST PUSH1 0x0 PUSH1 0xC0 DUP3 ADD SWAP1 POP PUSH2 0x4320 PUSH1 0x0 DUP4 ADD DUP10 PUSH2 0x3CA9 JUMP JUMPDEST PUSH2 0x432D PUSH1 0x20 DUP4 ADD DUP9 PUSH2 0x3CA9 JUMP JUMPDEST PUSH2 0x433A PUSH1 0x40 DUP4 ADD DUP8 PUSH2 0x3B3F JUMP JUMPDEST PUSH2 0x4347 PUSH1 0x60 DUP4 ADD DUP7 PUSH2 0x3CA9 JUMP JUMPDEST PUSH2 0x4354 PUSH1 0x80 DUP4 ADD DUP6 PUSH2 0x3B3F JUMP JUMPDEST PUSH2 0x4361 PUSH1 0xA0 DUP4 ADD DUP5 PUSH2 0x3CA9 JUMP JUMPDEST SWAP8 SWAP7 POP POP POP POP POP POP POP JUMP JUMPDEST PUSH1 0x0 PUSH1 0x40 DUP3 ADD SWAP1 POP PUSH2 0x4381 PUSH1 0x0 DUP4 ADD DUP6 PUSH2 0x3CA9 JUMP JUMPDEST PUSH2 0x438E PUSH1 0x20 DUP4 ADD DUP5 PUSH2 0x3AC2 JUMP JUMPDEST SWAP4 SWAP3 POP POP POP JUMP JUMPDEST PUSH1 0x0 PUSH1 0x80 DUP3 ADD SWAP1 POP PUSH2 0x43AA PUSH1 0x0 DUP4 ADD DUP8 PUSH2 0x3CA9 JUMP JUMPDEST PUSH2 0x43B7 PUSH1 0x20 DUP4 ADD DUP7 PUSH2 0x3CA9 JUMP JUMPDEST PUSH2 0x43C4 PUSH1 0x40 DUP4 ADD DUP6 PUSH2 0x3CA9 JUMP JUMPDEST PUSH2 0x43D1 PUSH1 0x60 DUP4 ADD DUP5 PUSH2 0x3B3F JUMP JUMPDEST SWAP6 SWAP5 POP POP POP POP POP JUMP JUMPDEST PUSH1 0x0 DUP2 MLOAD SWAP1 POP SWAP2 SWAP1 POP JUMP JUMPDEST PUSH1 0x0 DUP2 SWAP1 POP SWAP3 SWAP2 POP POP JUMP JUMPDEST PUSH1 0x0 JUMPDEST DUP4 DUP2 LT ISZERO PUSH2 0x440E JUMPI DUP1 DUP3 ADD MLOAD DUP2 DUP5 ADD MSTORE PUSH1 0x20 DUP2 ADD SWAP1 POP PUSH2 0x43F3 JUMP JUMPDEST PUSH1 0x0 DUP5 DUP5 ADD MSTORE POP POP POP POP JUMP JUMPDEST PUSH1 0x0 PUSH2 0x4425 DUP3 PUSH2 0x43DA JUMP JUMPDEST PUSH2 0x442F DUP2 DUP6 PUSH2 0x43E5 JUMP JUMPDEST SWAP4 POP PUSH2 0x443F DUP2 DUP6 PUSH1 0x20 DUP7 ADD PUSH2 0x43F0 JUMP JUMPDEST DUP1 DUP5 ADD SWAP2 POP POP SWAP3 SWAP2 POP POP JUMP JUMPDEST PUSH1 0x0 PUSH2 0x4457 DUP3 DUP5 PUSH2 0x441A JUMP JUMPDEST SWAP2 POP DUP2 SWAP1 POP SWAP3 SWAP2 POP POP JUMP INVALID LOG2 PUSH5 0x6970667358 0x22 SLT KECCAK256 LOG1 CREATE2 0xD MSTORE PUSH3 0xCD47FF 0xAF PUSH21 0x349DD8D9EC5415715E6349AAC3EA4A1C913F14B6EC PUSH17 0x64736F6C63430008180033000000000000 "
        },
        "methodIdentifiers": {
          "DEFAULT_ADMIN_ROLE()": "a217fddf",
          "PAUSE_ROLE()": "389ed267",
          "PCT_BASE()": "fc157cb4",
          "PPM()": "0d720bbc",
          "UPDATE_BENEFICIARY_ROLE()": "41644f8c",
          "UPDATE_FEES_ROLE()": "60e14b60",
          "UPDATE_FORMULA_ROLE()": "0e85d277",
          "buyShares(address,uint256,uint256)": "17f69222",
          "buySharesFor(address,uint256,address,uint256)": "d8690fea",
          "calculateTokensForBuy(address,uint256)": "700c4590",
          "calculateTokensForSell(address,uint256)": "5b23af0a",
          "feeBeneficiary()": "492fb343",
          "formula()": "4b75f54f",
          "getRoleAdmin(bytes32)": "248a9ca3",
          "grantRole(bytes32,address)": "2f2ff15d",
          "hasRole(bytes32,address)": "91d14854",
          "initialize(address,address,address,address,address,(uint256,uint256,uint256,uint256),address,address)": "0e6c7a66",
          "initializeSubjectBondingCurve(address,uint32,uint256,uint256)": "ba6da001",
          "pause()": "8456cb59",
          "paused()": "5c975abb",
          "protocolBuyFeePct()": "dbf49561",
          "protocolSellFeePct()": "89d6d0de",
          "renounceRole(bytes32,address)": "36568abe",
          "reserveRatio(address)": "24234532",
          "revokeRole(bytes32,address)": "d547741f",
          "sellShares(address,uint256,uint256)": "39952b88",
          "sellSharesFor(address,uint256,address,uint256)": "57f6508b",
          "subjectBuyFeePct()": "951ef92d",
          "subjectFactory()": "e7af32ba",
          "subjectSellFeePct()": "5b933ee6",
          "supportsInterface(bytes4)": "01ffc9a7",
          "token()": "fc0c546a",
          "tokenManager()": "2a709b14",
          "unpause()": "3f4ba83a",
          "updateFeeBeneficiary(address)": "6c572893",
          "updateFees((uint256,uint256,uint256,uint256))": "98a9c92b",
          "updateFormula(address)": "d5b49a71",
          "vault()": "fbfa77cf"
        }
      }
    }
  }
}