{
  "_format": "hh-sol-artifact-1",
  "contractName": "TokenManager",
  "sourceName": "contracts/TokenManager.sol",
  "abi": [
    {
      "inputs": [],
      "name": "AccessControlBadConfirmation",
      "type": "error"
    },
    {
      "inputs": [
        {
          "internalType": "address",
          "name": "account",
          "type": "address"
        },
        {
          "internalType": "bytes32",
          "name": "neededRole",
          "type": "bytes32"
        }
      ],
      "name": "AccessControlUnauthorizedAccount",
      "type": "error"
    },
    {
      "inputs": [
        {
          "internalType": "address",
          "name": "target",
          "type": "address"
        }
      ],
      "name": "AddressEmptyCode",
      "type": "error"
    },
    {
      "inputs": [
        {
          "internalType": "address",
          "name": "account",
          "type": "address"
        }
      ],
      "name": "AddressInsufficientBalance",
      "type": "error"
    },
    {
      "inputs": [],
      "name": "ERC1167FailedCreateClone",
      "type": "error"
    },
    {
      "inputs": [],
      "name": "EnforcedPause",
      "type": "error"
    },
    {
      "inputs": [],
      "name": "ExpectedPause",
      "type": "error"
    },
    {
      "inputs": [],
      "name": "FailedInnerCall",
      "type": "error"
    },
    {
      "inputs": [],
      "name": "InvalidInitialization",
      "type": "error"
    },
    {
      "inputs": [],
      "name": "NotInitializing",
      "type": "error"
    },
    {
      "inputs": [
        {
          "internalType": "address",
          "name": "token",
          "type": "address"
        }
      ],
      "name": "SafeERC20FailedOperation",
      "type": "error"
    },
    {
      "inputs": [],
      "name": "TokenManager_AddressAlreadyAdded",
      "type": "error"
    },
    {
      "inputs": [],
      "name": "TokenManager_AddressAlreadyRemoved",
      "type": "error"
    },
    {
      "inputs": [],
      "name": "TokenManager_InvalidAddress",
      "type": "error"
    },
    {
      "inputs": [],
      "name": "TokenManager_InvalidAmount",
      "type": "error"
    },
    {
      "inputs": [],
      "name": "TokenManager_InvalidOwner",
      "type": "error"
    },
    {
      "inputs": [],
      "name": "TokenManager_InvalidSubject",
      "type": "error"
    },
    {
      "inputs": [],
      "name": "TokenManager_InvalidSubjectImplementation",
      "type": "error"
    },
    {
      "inputs": [],
      "name": "TokenManager_SubjectExists",
      "type": "error"
    },
    {
      "inputs": [],
      "name": "TokenManager_TokenNotFound",
      "type": "error"
    },
    {
      "anonymous": false,
      "inputs": [
        {
          "indexed": false,
          "internalType": "uint64",
          "name": "version",
          "type": "uint64"
        }
      ],
      "name": "Initialized",
      "type": "event"
    },
    {
      "anonymous": false,
      "inputs": [
        {
          "indexed": false,
          "internalType": "address",
          "name": "account",
          "type": "address"
        }
      ],
      "name": "Paused",
      "type": "event"
    },
    {
      "anonymous": false,
      "inputs": [
        {
          "indexed": true,
          "internalType": "bytes32",
          "name": "role",
          "type": "bytes32"
        },
        {
          "indexed": true,
          "internalType": "bytes32",
          "name": "previousAdminRole",
          "type": "bytes32"
        },
        {
          "indexed": true,
          "internalType": "bytes32",
          "name": "newAdminRole",
          "type": "bytes32"
        }
      ],
      "name": "RoleAdminChanged",
      "type": "event"
    },
    {
      "anonymous": false,
      "inputs": [
        {
          "indexed": true,
          "internalType": "bytes32",
          "name": "role",
          "type": "bytes32"
        },
        {
          "indexed": true,
          "internalType": "address",
          "name": "account",
          "type": "address"
        },
        {
          "indexed": true,
          "internalType": "address",
          "name": "sender",
          "type": "address"
        }
      ],
      "name": "RoleGranted",
      "type": "event"
    },
    {
      "anonymous": false,
      "inputs": [
        {
          "indexed": true,
          "internalType": "bytes32",
          "name": "role",
          "type": "bytes32"
        },
        {
          "indexed": true,
          "internalType": "address",
          "name": "account",
          "type": "address"
        },
        {
          "indexed": true,
          "internalType": "address",
          "name": "sender",
          "type": "address"
        }
      ],
      "name": "RoleRevoked",
      "type": "event"
    },
    {
      "anonymous": false,
      "inputs": [
        {
          "indexed": false,
          "internalType": "address",
          "name": "_beneficiary",
          "type": "address"
        },
        {
          "indexed": false,
          "internalType": "address",
          "name": "_token",
          "type": "address"
        },
        {
          "indexed": false,
          "internalType": "uint256",
          "name": "_initialSupply",
          "type": "uint256"
        }
      ],
      "name": "TokenDeployed",
      "type": "event"
    },
    {
      "anonymous": false,
      "inputs": [
        {
          "indexed": false,
          "internalType": "address",
          "name": "_subject",
          "type": "address"
        },
        {
          "indexed": false,
          "internalType": "address",
          "name": "_token",
          "type": "address"
        },
        {
          "indexed": false,
          "internalType": "uint256",
          "name": "_amount",
          "type": "uint256"
        }
      ],
      "name": "TokenMinted",
      "type": "event"
    },
    {
      "anonymous": false,
      "inputs": [
        {
          "indexed": false,
          "internalType": "address",
          "name": "_wallet",
          "type": "address"
        },
        {
          "indexed": false,
          "internalType": "bool",
          "name": "allowed",
          "type": "bool"
        }
      ],
      "name": "TransferAllowListWalletAllowed",
      "type": "event"
    },
    {
      "anonymous": false,
      "inputs": [
        {
          "indexed": false,
          "internalType": "address",
          "name": "account",
          "type": "address"
        }
      ],
      "name": "Unpaused",
      "type": "event"
    },
    {
      "inputs": [],
      "name": "ALLOW_LIST_ROLE",
      "outputs": [
        {
          "internalType": "bytes32",
          "name": "",
          "type": "bytes32"
        }
      ],
      "stateMutability": "view",
      "type": "function"
    },
    {
      "inputs": [],
      "name": "CREATE_ROLE",
      "outputs": [
        {
          "internalType": "bytes32",
          "name": "",
          "type": "bytes32"
        }
      ],
      "stateMutability": "view",
      "type": "function"
    },
    {
      "inputs": [],
      "name": "DEFAULT_ADMIN_ROLE",
      "outputs": [
        {
          "internalType": "bytes32",
          "name": "",
          "type": "bytes32"
        }
      ],
      "stateMutability": "view",
      "type": "function"
    },
    {
      "inputs": [],
      "name": "MINT_ROLE",
      "outputs": [
        {
          "internalType": "bytes32",
          "name": "",
          "type": "bytes32"
        }
      ],
      "stateMutability": "view",
      "type": "function"
    },
    {
      "inputs": [],
      "name": "PAUSE_ROLE",
      "outputs": [
        {
          "internalType": "bytes32",
          "name": "",
          "type": "bytes32"
        }
      ],
      "stateMutability": "view",
      "type": "function"
    },
    {
      "inputs": [
        {
          "internalType": "address",
          "name": "_wallet",
          "type": "address"
        }
      ],
      "name": "addToAllowList",
      "outputs": [],
      "stateMutability": "nonpayable",
      "type": "function"
    },
    {
      "inputs": [
        {
          "internalType": "address",
          "name": "_subject",
          "type": "address"
        },
        {
          "internalType": "string",
          "name": "_name",
          "type": "string"
        },
        {
          "internalType": "string",
          "name": "_symbol",
          "type": "string"
        },
        {
          "internalType": "uint256",
          "name": "_initialSupply",
          "type": "uint256"
        },
        {
          "internalType": "address",
          "name": "_moxiePassVerifier",
          "type": "address"
        }
      ],
      "name": "create",
      "outputs": [
        {
          "internalType": "address",
          "name": "token_",
          "type": "address"
        }
      ],
      "stateMutability": "nonpayable",
      "type": "function"
    },
    {
      "inputs": [
        {
          "internalType": "bytes32",
          "name": "role",
          "type": "bytes32"
        }
      ],
      "name": "getRoleAdmin",
      "outputs": [
        {
          "internalType": "bytes32",
          "name": "",
          "type": "bytes32"
        }
      ],
      "stateMutability": "view",
      "type": "function"
    },
    {
      "inputs": [
        {
          "internalType": "bytes32",
          "name": "role",
          "type": "bytes32"
        },
        {
          "internalType": "address",
          "name": "account",
          "type": "address"
        }
      ],
      "name": "grantRole",
      "outputs": [],
      "stateMutability": "nonpayable",
      "type": "function"
    },
    {
      "inputs": [
        {
          "internalType": "bytes32",
          "name": "role",
          "type": "bytes32"
        },
        {
          "internalType": "address",
          "name": "account",
          "type": "address"
        }
      ],
      "name": "hasRole",
      "outputs": [
        {
          "internalType": "bool",
          "name": "",
          "type": "bool"
        }
      ],
      "stateMutability": "view",
      "type": "function"
    },
    {
      "inputs": [
        {
          "internalType": "address",
          "name": "_admin",
          "type": "address"
        },
        {
          "internalType": "address",
          "name": "_subjectImplementation",
          "type": "address"
        }
      ],
      "name": "initialize",
      "outputs": [],
      "stateMutability": "nonpayable",
      "type": "function"
    },
    {
      "inputs": [
        {
          "internalType": "address",
          "name": "_wallet",
          "type": "address"
        }
      ],
      "name": "isWalletAllowed",
      "outputs": [
        {
          "internalType": "bool",
          "name": "",
          "type": "bool"
        }
      ],
      "stateMutability": "view",
      "type": "function"
    },
    {
      "inputs": [
        {
          "internalType": "address",
          "name": "_subject",
          "type": "address"
        },
        {
          "internalType": "address",
          "name": "_beneficiary",
          "type": "address"
        },
        {
          "internalType": "uint256",
          "name": "_amount",
          "type": "uint256"
        }
      ],
      "name": "mint",
      "outputs": [
        {
          "internalType": "bool",
          "name": "",
          "type": "bool"
        }
      ],
      "stateMutability": "nonpayable",
      "type": "function"
    },
    {
      "inputs": [],
      "name": "pause",
      "outputs": [],
      "stateMutability": "nonpayable",
      "type": "function"
    },
    {
      "inputs": [],
      "name": "paused",
      "outputs": [
        {
          "internalType": "bool",
          "name": "",
          "type": "bool"
        }
      ],
      "stateMutability": "view",
      "type": "function"
    },
    {
      "inputs": [
        {
          "internalType": "address",
          "name": "_wallet",
          "type": "address"
        }
      ],
      "name": "removeFromAllowList",
      "outputs": [],
      "stateMutability": "nonpayable",
      "type": "function"
    },
    {
      "inputs": [
        {
          "internalType": "bytes32",
          "name": "role",
          "type": "bytes32"
        },
        {
          "internalType": "address",
          "name": "callerConfirmation",
          "type": "address"
        }
      ],
      "name": "renounceRole",
      "outputs": [],
      "stateMutability": "nonpayable",
      "type": "function"
    },
    {
      "inputs": [
        {
          "internalType": "bytes32",
          "name": "role",
          "type": "bytes32"
        },
        {
          "internalType": "address",
          "name": "account",
          "type": "address"
        }
      ],
      "name": "revokeRole",
      "outputs": [],
      "stateMutability": "nonpayable",
      "type": "function"
    },
    {
      "inputs": [],
      "name": "subjectImplementation",
      "outputs": [
        {
          "internalType": "address",
          "name": "",
          "type": "address"
        }
      ],
      "stateMutability": "view",
      "type": "function"
    },
    {
      "inputs": [
        {
          "internalType": "bytes4",
          "name": "interfaceId",
          "type": "bytes4"
        }
      ],
      "name": "supportsInterface",
      "outputs": [
        {
          "internalType": "bool",
          "name": "",
          "type": "bool"
        }
      ],
      "stateMutability": "view",
      "type": "function"
    },
    {
      "inputs": [
        {
          "internalType": "address",
          "name": "subject",
          "type": "address"
        }
      ],
      "name": "tokens",
      "outputs": [
        {
          "internalType": "address",
          "name": "token",
          "type": "address"
        }
      ],
      "stateMutability": "view",
      "type": "function"
    },
    {
      "inputs": [],
      "name": "unpause",
      "outputs": [],
      "stateMutability": "nonpayable",
      "type": "function"
    }
  ],
  "bytecode": "0x608060405234801561001057600080fd5b506125da806100206000396000f3fe608060405234801561001057600080fd5b50600436106101415760003560e01c8063485cc955116100b8578063c6c3bbe61161007c578063c6c3bbe614610350578063ca42eddc14610380578063d547741f1461039e578063e4860339146103ba578063e9a9c850146103ea578063eba8dabc1461040857610141565b8063485cc955146102be5780635c975abb146102da5780638456cb59146102f857806391d1485414610302578063a217fddf1461033257610141565b80632e02cd5e1161010a5780632e02cd5e146102125780632f2ff15d1461024257806331f591021461025e57806336568abe1461027a578063389ed267146102965780633f4ba83a146102b457610141565b80626f53c91461014657806301ffc9a71461016457806302ee500e1461019457806316bc0cf0146101b2578063248a9ca3146101e2575b600080fd5b61014e610424565b60405161015b9190611cba565b60405180910390f35b61017e60048036038101906101799190611d41565b610448565b60405161018b9190611d89565b60405180910390f35b61019c6104c2565b6040516101a99190611de5565b60405180910390f35b6101cc60048036038101906101c79190611fa8565b6104e6565b6040516101d99190611de5565b60405180910390f35b6101fc60048036038101906101f79190612087565b6107f8565b6040516102099190611cba565b60405180910390f35b61022c600480360381019061022791906120b4565b610826565b6040516102399190611d89565b60405180910390f35b61025c600480360381019061025791906120e1565b61085d565b005b610278600480360381019061027391906120b4565b61087f565b005b610294600480360381019061028f91906120e1565b610997565b005b61029e610a12565b6040516102ab9190611cba565b60405180910390f35b6102bc610a36565b005b6102d860048036038101906102d39190612121565b610a6b565b005b6102e2610d1c565b6040516102ef9190611d89565b60405180910390f35b610300610d41565b005b61031c600480360381019061031791906120e1565b610d76565b6040516103299190611d89565b60405180910390f35b61033a610def565b6040516103479190611cba565b60405180910390f35b61036a60048036038101906103659190612161565b610df6565b6040516103779190611d89565b60405180910390f35b610388610fa8565b6040516103959190611cba565b60405180910390f35b6103b860048036038101906103b391906120e1565b610fcc565b005b6103d460048036038101906103cf91906120b4565b610fee565b6040516103e19190611de5565b60405180910390f35b6103f2611021565b6040516103ff9190611cba565b60405180910390f35b610422600480360381019061041d91906120b4565b611045565b005b7f2ad5dda4abad2eba9015076cc6a1db468a91b444067d58b590c8c73985521a0481565b60007f7965db0b000000000000000000000000000000000000000000000000000000007bffffffffffffffffffffffffffffffffffffffffffffffffffffffff1916827bffffffffffffffffffffffffffffffffffffffffffffffffffffffff191614806104bb57506104ba8261115d565b5b9050919050565b60008054906101000a900473ffffffffffffffffffffffffffffffffffffffff1681565b60006104f06111c7565b7f2ad5dda4abad2eba9015076cc6a1db468a91b444067d58b590c8c73985521a0461051a81611208565b600073ffffffffffffffffffffffffffffffffffffffff168773ffffffffffffffffffffffffffffffffffffffff1603610580576040517f44ab44b300000000000000000000000000000000000000000000000000000000815260040160405180910390fd5b600073ffffffffffffffffffffffffffffffffffffffff16600360008973ffffffffffffffffffffffffffffffffffffffff1673ffffffffffffffffffffffffffffffffffffffff16815260200190815260200160002060009054906101000a900473ffffffffffffffffffffffffffffffffffffffff1673ffffffffffffffffffffffffffffffffffffffff1614610645576040517fe5bcd15e00000000000000000000000000000000000000000000000000000000815260040160405180910390fd5b61069560008054906101000a900473ffffffffffffffffffffffffffffffffffffffff168860405160200161067a91906121fc565b6040516020818303038152906040528051906020012061121c565b915081600360008973ffffffffffffffffffffffffffffffffffffffff1673ffffffffffffffffffffffffffffffffffffffff16815260200190815260200160002060006101000a81548173ffffffffffffffffffffffffffffffffffffffff021916908373ffffffffffffffffffffffffffffffffffffffff1602179055507ff1d58912d8d6d39cd9fee0f074ee57836907d09dddb0ce7706b7c7a0ddc15d5087838660405161074893929190612226565b60405180910390a18173ffffffffffffffffffffffffffffffffffffffff1663747b8a1c30888888886040518663ffffffff1660e01b81526004016107919594939291906122dc565b600060405180830381600087803b1580156107ab57600080fd5b505af11580156107bf573d6000803e3d6000fd5b505050506107ee33858473ffffffffffffffffffffffffffffffffffffffff166112cf9092919063ffffffff16565b5095945050505050565b60008061080361134e565b905080600001600084815260200190815260200160002060010154915050919050565b6000806108336001611376565b036108415760019050610858565b61085582600161138b90919063ffffffff16565b90505b919050565b610866826107f8565b61086f81611208565b61087983836113bb565b50505050565b7fe27a7ac86bc026ab9d6b20c2343f709afa69a18a49907d97c7871b51344459876108a981611208565b600073ffffffffffffffffffffffffffffffffffffffff168273ffffffffffffffffffffffffffffffffffffffff160361090f576040517f993d71cb00000000000000000000000000000000000000000000000000000000815260040160405180910390fd5b6109238260016114bc90919063ffffffff16565b610959576040517fe6560bd000000000000000000000000000000000000000000000000000000000815260040160405180910390fd5b7f31baa1d1f104cc6139baeae8185b254ec553ec4cf244fa4f2ed6eb5a9758090782600160405161098b92919061233d565b60405180910390a15050565b61099f6114ec565b73ffffffffffffffffffffffffffffffffffffffff168173ffffffffffffffffffffffffffffffffffffffff1614610a03576040517f6697b23200000000000000000000000000000000000000000000000000000000815260040160405180910390fd5b610a0d82826114f4565b505050565b7f139c2898040ef16910dc9f44dc697df79363da767d8bc92f2e310312b816e46d81565b7f139c2898040ef16910dc9f44dc697df79363da767d8bc92f2e310312b816e46d610a6081611208565b610a686115f6565b50565b6000610a75611668565b905060008160000160089054906101000a900460ff1615905060008260000160009054906101000a900467ffffffffffffffff1690506000808267ffffffffffffffff16148015610ac35750825b9050600060018367ffffffffffffffff16148015610af8575060003073ffffffffffffffffffffffffffffffffffffffff163b145b905081158015610b06575080155b15610b3d576040517ff92ee8a900000000000000000000000000000000000000000000000000000000815260040160405180910390fd5b60018560000160006101000a81548167ffffffffffffffff021916908367ffffffffffffffff1602179055508315610b8d5760018560000160086101000a81548160ff0219169083151502179055505b600073ffffffffffffffffffffffffffffffffffffffff168673ffffffffffffffffffffffffffffffffffffffff1603610bf3576040517f7aee648800000000000000000000000000000000000000000000000000000000815260040160405180910390fd5b600073ffffffffffffffffffffffffffffffffffffffff168773ffffffffffffffffffffffffffffffffffffffff1603610c59576040517f6a1b1c8300000000000000000000000000000000000000000000000000000000815260040160405180910390fd5b610c61611690565b610c6961169a565b610c766000801b886113bb565b50856000806101000a81548173ffffffffffffffffffffffffffffffffffffffff021916908373ffffffffffffffffffffffffffffffffffffffff1602179055508315610d135760008560000160086101000a81548160ff0219169083151502179055507fc7f505b2f371ae2175ee4913f4499e1f2633a7b5936321eed1cdaeb6115181d26001604051610d0a91906123bf565b60405180910390a15b50505050505050565b600080610d276116ac565b90508060000160009054906101000a900460ff1691505090565b7f139c2898040ef16910dc9f44dc697df79363da767d8bc92f2e310312b816e46d610d6b81611208565b610d736116d4565b50565b600080610d8161134e565b905080600001600085815260200190815260200160002060000160008473ffffffffffffffffffffffffffffffffffffffff1673ffffffffffffffffffffffffffffffffffffffff16815260200190815260200160002060009054906101000a900460ff1691505092915050565b6000801b81565b6000610e006111c7565b7f154c00819833dac601ee5ddded6fda79d9d8b506b911b3dbd54cdb95fe6c3686610e2a81611208565b6000600360008773ffffffffffffffffffffffffffffffffffffffff1673ffffffffffffffffffffffffffffffffffffffff16815260200190815260200160002060009054906101000a900473ffffffffffffffffffffffffffffffffffffffff169050600073ffffffffffffffffffffffffffffffffffffffff168173ffffffffffffffffffffffffffffffffffffffff1603610ef4576040517f64f7617200000000000000000000000000000000000000000000000000000000815260040160405180910390fd5b60008403610f2e576040517fe117728f00000000000000000000000000000000000000000000000000000000815260040160405180910390fd5b8073ffffffffffffffffffffffffffffffffffffffff166340c10f1986866040518363ffffffff1660e01b8152600401610f699291906123da565b600060405180830381600087803b158015610f8357600080fd5b505af1158015610f97573d6000803e3d6000fd5b505050506001925050509392505050565b7fe27a7ac86bc026ab9d6b20c2343f709afa69a18a49907d97c7871b513444598781565b610fd5826107f8565b610fde81611208565b610fe883836114f4565b50505050565b60036020528060005260406000206000915054906101000a900473ffffffffffffffffffffffffffffffffffffffff1681565b7f154c00819833dac601ee5ddded6fda79d9d8b506b911b3dbd54cdb95fe6c368681565b7fe27a7ac86bc026ab9d6b20c2343f709afa69a18a49907d97c7871b513444598761106f81611208565b600073ffffffffffffffffffffffffffffffffffffffff168273ffffffffffffffffffffffffffffffffffffffff16036110d5576040517f993d71cb00000000000000000000000000000000000000000000000000000000815260040160405180910390fd5b6110e982600161174690919063ffffffff16565b61111f576040517fe6333f4600000000000000000000000000000000000000000000000000000000815260040160405180910390fd5b7f31baa1d1f104cc6139baeae8185b254ec553ec4cf244fa4f2ed6eb5a9758090782600060405161115192919061233d565b60405180910390a15050565b60007f01ffc9a7000000000000000000000000000000000000000000000000000000007bffffffffffffffffffffffffffffffffffffffffffffffffffffffff1916827bffffffffffffffffffffffffffffffffffffffffffffffffffffffff1916149050919050565b6111cf610d1c565b15611206576040517fd93c066500000000000000000000000000000000000000000000000000000000815260040160405180910390fd5b565b611219816112146114ec565b611776565b50565b6000763d602d80600a3d3981f3363d3d373d3d3d363d730000008360601b60e81c176000526e5af43d82803e903d91602b57fd5bf38360781b1760205281603760096000f59050600073ffffffffffffffffffffffffffffffffffffffff168173ffffffffffffffffffffffffffffffffffffffff16036112c9576040517fc2f868f400000000000000000000000000000000000000000000000000000000815260040160405180910390fd5b92915050565b611349838473ffffffffffffffffffffffffffffffffffffffff1663a9059cbb85856040516024016113029291906123da565b604051602081830303815290604052915060e01b6020820180517bffffffffffffffffffffffffffffffffffffffffffffffffffffffff83818316178352505050506117c7565b505050565b60007f02dd7bc7dec4dceedda775e58dd541e08a116c6c53815c0bd028192f7b626800905090565b60006113848260000161185e565b9050919050565b60006113b3836000018373ffffffffffffffffffffffffffffffffffffffff1660001b61186f565b905092915050565b6000806113c661134e565b90506113d28484610d76565b6114b057600181600001600086815260200190815260200160002060000160008573ffffffffffffffffffffffffffffffffffffffff1673ffffffffffffffffffffffffffffffffffffffff16815260200190815260200160002060006101000a81548160ff02191690831515021790555061144c6114ec565b73ffffffffffffffffffffffffffffffffffffffff168373ffffffffffffffffffffffffffffffffffffffff16857f2f8788117e7eff1d82e926ec794901d17c78024a50270940304540a733656f0d60405160405180910390a460019150506114b6565b60009150505b92915050565b60006114e4836000018373ffffffffffffffffffffffffffffffffffffffff1660001b611892565b905092915050565b600033905090565b6000806114ff61134e565b905061150b8484610d76565b156115ea57600081600001600086815260200190815260200160002060000160008573ffffffffffffffffffffffffffffffffffffffff1673ffffffffffffffffffffffffffffffffffffffff16815260200190815260200160002060006101000a81548160ff0219169083151502179055506115866114ec565b73ffffffffffffffffffffffffffffffffffffffff168373ffffffffffffffffffffffffffffffffffffffff16857ff6391f5c32d9c69d2a47ea670b442974b53935d1edc7fd64eb21e047a839171b60405160405180910390a460019150506115f0565b60009150505b92915050565b6115fe611902565b60006116086116ac565b905060008160000160006101000a81548160ff0219169083151502179055507f5db9ee0a495bf2e6ff9c91a7834c1ba4fdd244a5e8aa4e537bd38aeae4b073aa6116506114ec565b60405161165d9190611de5565b60405180910390a150565b60007ff0c57e16840df040f15088dc2f81fe391c3923bec73e23a9662efc9c229c6a00905090565b611698611942565b565b6116a2611942565b6116aa611982565b565b60007fcd5ed15c6e187e77e9aee88184c21f4f2182ab5827cb3b7e07fbedcd63f03300905090565b6116dc6111c7565b60006116e66116ac565b905060018160000160006101000a81548160ff0219169083151502179055507f62e78cea01bee320cd4e420270b5ea74000d11b0c9f74754ebdbfc544b05a25861172e6114ec565b60405161173b9190611de5565b60405180910390a150565b600061176e836000018373ffffffffffffffffffffffffffffffffffffffff1660001b6119b6565b905092915050565b6117808282610d76565b6117c35780826040517fe2517d3f0000000000000000000000000000000000000000000000000000000081526004016117ba929190612403565b60405180910390fd5b5050565b60006117f2828473ffffffffffffffffffffffffffffffffffffffff16611aca90919063ffffffff16565b905060008151141580156118175750808060200190518101906118159190612458565b155b1561185957826040517f5274afe70000000000000000000000000000000000000000000000000000000081526004016118509190611de5565b60405180910390fd5b505050565b600081600001805490509050919050565b600080836001016000848152602001908152602001600020541415905092915050565b600061189e838361186f565b6118f75782600001829080600181540180825580915050600190039060005260206000200160009091909190915055826000018054905083600101600084815260200190815260200160002081905550600190506118fc565b600090505b92915050565b61190a610d1c565b611940576040517f8dfc202b00000000000000000000000000000000000000000000000000000000815260040160405180910390fd5b565b61194a611ae0565b611980576040517fd7e6bcf800000000000000000000000000000000000000000000000000000000815260040160405180910390fd5b565b61198a611942565b60006119946116ac565b905060008160000160006101000a81548160ff02191690831515021790555050565b60008083600101600084815260200190815260200160002054905060008114611abe5760006001826119e891906124b4565b9050600060018660000180549050611a0091906124b4565b9050808214611a6f576000866000018281548110611a2157611a206124e8565b5b9060005260206000200154905080876000018481548110611a4557611a446124e8565b5b90600052602060002001819055508387600101600083815260200190815260200160002081905550505b85600001805480611a8357611a82612517565b5b600190038181906000526020600020016000905590558560010160008681526020019081526020016000206000905560019350505050611ac4565b60009150505b92915050565b6060611ad883836000611b00565b905092915050565b6000611aea611668565b60000160089054906101000a900460ff16905090565b606081471015611b4757306040517fcd786059000000000000000000000000000000000000000000000000000000008152600401611b3e9190611de5565b60405180910390fd5b6000808573ffffffffffffffffffffffffffffffffffffffff168486604051611b70919061258d565b60006040518083038185875af1925050503d8060008114611bad576040519150601f19603f3d011682016040523d82523d6000602084013e611bb2565b606091505b5091509150611bc2868383611bcd565b925050509392505050565b606082611be257611bdd82611c5c565b611c54565b60008251148015611c0a575060008473ffffffffffffffffffffffffffffffffffffffff163b145b15611c4c57836040517f9996b315000000000000000000000000000000000000000000000000000000008152600401611c439190611de5565b60405180910390fd5b819050611c55565b5b9392505050565b600081511115611c6f5780518082602001fd5b6040517f1425ea4200000000000000000000000000000000000000000000000000000000815260040160405180910390fd5b6000819050919050565b611cb481611ca1565b82525050565b6000602082019050611ccf6000830184611cab565b92915050565b6000604051905090565b600080fd5b600080fd5b60007fffffffff0000000000000000000000000000000000000000000000000000000082169050919050565b611d1e81611ce9565b8114611d2957600080fd5b50565b600081359050611d3b81611d15565b92915050565b600060208284031215611d5757611d56611cdf565b5b6000611d6584828501611d2c565b91505092915050565b60008115159050919050565b611d8381611d6e565b82525050565b6000602082019050611d9e6000830184611d7a565b92915050565b600073ffffffffffffffffffffffffffffffffffffffff82169050919050565b6000611dcf82611da4565b9050919050565b611ddf81611dc4565b82525050565b6000602082019050611dfa6000830184611dd6565b92915050565b611e0981611dc4565b8114611e1457600080fd5b50565b600081359050611e2681611e00565b92915050565b600080fd5b600080fd5b6000601f19601f8301169050919050565b7f4e487b7100000000000000000000000000000000000000000000000000000000600052604160045260246000fd5b611e7f82611e36565b810181811067ffffffffffffffff82111715611e9e57611e9d611e47565b5b80604052505050565b6000611eb1611cd5565b9050611ebd8282611e76565b919050565b600067ffffffffffffffff821115611edd57611edc611e47565b5b611ee682611e36565b9050602081019050919050565b82818337600083830152505050565b6000611f15611f1084611ec2565b611ea7565b905082815260208101848484011115611f3157611f30611e31565b5b611f3c848285611ef3565b509392505050565b600082601f830112611f5957611f58611e2c565b5b8135611f69848260208601611f02565b91505092915050565b6000819050919050565b611f8581611f72565b8114611f9057600080fd5b50565b600081359050611fa281611f7c565b92915050565b600080600080600060a08688031215611fc457611fc3611cdf565b5b6000611fd288828901611e17565b955050602086013567ffffffffffffffff811115611ff357611ff2611ce4565b5b611fff88828901611f44565b945050604086013567ffffffffffffffff8111156120205761201f611ce4565b5b61202c88828901611f44565b935050606061203d88828901611f93565b925050608061204e88828901611e17565b9150509295509295909350565b61206481611ca1565b811461206f57600080fd5b50565b6000813590506120818161205b565b92915050565b60006020828403121561209d5761209c611cdf565b5b60006120ab84828501612072565b91505092915050565b6000602082840312156120ca576120c9611cdf565b5b60006120d884828501611e17565b91505092915050565b600080604083850312156120f8576120f7611cdf565b5b600061210685828601612072565b925050602061211785828601611e17565b9150509250929050565b6000806040838503121561213857612137611cdf565b5b600061214685828601611e17565b925050602061215785828601611e17565b9150509250929050565b60008060006060848603121561217a57612179611cdf565b5b600061218886828701611e17565b935050602061219986828701611e17565b92505060406121aa86828701611f93565b9150509250925092565b60008160601b9050919050565b60006121cc826121b4565b9050919050565b60006121de826121c1565b9050919050565b6121f66121f182611dc4565b6121d3565b82525050565b600061220882846121e5565b60148201915081905092915050565b61222081611f72565b82525050565b600060608201905061223b6000830186611dd6565b6122486020830185611dd6565b6122556040830184612217565b949350505050565b600081519050919050565b600082825260208201905092915050565b60005b8381101561229757808201518184015260208101905061227c565b60008484015250505050565b60006122ae8261225d565b6122b88185612268565b93506122c8818560208601612279565b6122d181611e36565b840191505092915050565b600060a0820190506122f16000830188611dd6565b818103602083015261230381876122a3565b9050818103604083015261231781866122a3565b90506123266060830185612217565b6123336080830184611dd6565b9695505050505050565b60006040820190506123526000830185611dd6565b61235f6020830184611d7a565b9392505050565b6000819050919050565b600067ffffffffffffffff82169050919050565b6000819050919050565b60006123a96123a461239f84612366565b612384565b612370565b9050919050565b6123b98161238e565b82525050565b60006020820190506123d460008301846123b0565b92915050565b60006040820190506123ef6000830185611dd6565b6123fc6020830184612217565b9392505050565b60006040820190506124186000830185611dd6565b6124256020830184611cab565b9392505050565b61243581611d6e565b811461244057600080fd5b50565b6000815190506124528161242c565b92915050565b60006020828403121561246e5761246d611cdf565b5b600061247c84828501612443565b91505092915050565b7f4e487b7100000000000000000000000000000000000000000000000000000000600052601160045260246000fd5b60006124bf82611f72565b91506124ca83611f72565b92508282039050818111156124e2576124e1612485565b5b92915050565b7f4e487b7100000000000000000000000000000000000000000000000000000000600052603260045260246000fd5b7f4e487b7100000000000000000000000000000000000000000000000000000000600052603160045260246000fd5b600081519050919050565b600081905092915050565b600061256782612546565b6125718185612551565b9350612581818560208601612279565b80840191505092915050565b6000612599828461255c565b91508190509291505056fea2646970667358221220418eb911c71ca038df7426d07051901c0ce16abcdaffe2b825796afbbd40fe0d64736f6c63430008180033",
  "linkReferences": {},
  "deployedLinkReferences": {}
}