{
  "_format": "hh-sol-artifact-1",
  "contractName": "MoxieBondingCurve",
  "sourceName": "contracts/MoxieBondingCurve.sol",
  "abi": [
    {
      "inputs": [],
      "name": "AccessControlBadConfirmation",
      "type": "error"
    },
    {
      "inputs": [
        {
          "internalType": "address",
          "name": "account",
          "type": "address"
        },
        {
          "internalType": "bytes32",
          "name": "neededRole",
          "type": "bytes32"
        }
      ],
      "name": "AccessControlUnauthorizedAccount",
      "type": "error"
    },
    {
      "inputs": [
        {
          "internalType": "address",
          "name": "target",
          "type": "address"
        }
      ],
      "name": "AddressEmptyCode",
      "type": "error"
    },
    {
      "inputs": [
        {
          "internalType": "address",
          "name": "account",
          "type": "address"
        }
      ],
      "name": "AddressInsufficientBalance",
      "type": "error"
    },
    {
      "inputs": [],
      "name": "EnforcedPause",
      "type": "error"
    },
    {
      "inputs": [],
      "name": "ExpectedPause",
      "type": "error"
    },
    {
      "inputs": [],
      "name": "FailedInnerCall",
      "type": "error"
    },
    {
      "inputs": [],
      "name": "InvalidInitialization",
      "type": "error"
    },
    {
      "inputs": [],
      "name": "MoxieBondingCurve_InvalidAmount",
      "type": "error"
    },
    {
      "inputs": [],
      "name": "MoxieBondingCurve_InvalidBeneficiary",
      "type": "error"
    },
    {
      "inputs": [],
      "name": "MoxieBondingCurve_InvalidDepositAmount",
      "type": "error"
    },
    {
      "inputs": [],
      "name": "MoxieBondingCurve_InvalidFeePercentage",
      "type": "error"
    },
    {
      "inputs": [],
      "name": "MoxieBondingCurve_InvalidFormula",
      "type": "error"
    },
    {
      "inputs": [],
      "name": "MoxieBondingCurve_InvalidOwner",
      "type": "error"
    },
    {
      "inputs": [],
      "name": "MoxieBondingCurve_InvalidReserveRation",
      "type": "error"
    },
    {
      "inputs": [],
      "name": "MoxieBondingCurve_InvalidSellAmount",
      "type": "error"
    },
    {
      "inputs": [],
      "name": "MoxieBondingCurve_InvalidSubject",
      "type": "error"
    },
    {
      "inputs": [],
      "name": "MoxieBondingCurve_InvalidSubjectFactory",
      "type": "error"
    },
    {
      "inputs": [],
      "name": "MoxieBondingCurve_InvalidSubjectSupply",
      "type": "error"
    },
    {
      "inputs": [],
      "name": "MoxieBondingCurve_InvalidSubjectToken",
      "type": "error"
    },
    {
      "inputs": [],
      "name": "MoxieBondingCurve_InvalidToken",
      "type": "error"
    },
    {
      "inputs": [],
      "name": "MoxieBondingCurve_InvalidTokenManager",
      "type": "error"
    },
    {
      "inputs": [],
      "name": "MoxieBondingCurve_InvalidVault",
      "type": "error"
    },
    {
      "inputs": [],
      "name": "MoxieBondingCurve_OnlySubjectFactory",
      "type": "error"
    },
    {
      "inputs": [],
      "name": "MoxieBondingCurve_SlippageExceedsLimit",
      "type": "error"
    },
    {
      "inputs": [],
      "name": "MoxieBondingCurve_SubjectAlreadyInitialized",
      "type": "error"
    },
    {
      "inputs": [],
      "name": "MoxieBondingCurve_SubjectNotInitialized",
      "type": "error"
    },
    {
      "inputs": [],
      "name": "NotInitializing",
      "type": "error"
    },
    {
      "inputs": [
        {
          "internalType": "address",
          "name": "token",
          "type": "address"
        }
      ],
      "name": "SafeERC20FailedOperation",
      "type": "error"
    },
    {
      "anonymous": false,
      "inputs": [
        {
          "indexed": true,
          "internalType": "address",
          "name": "_subject",
          "type": "address"
        },
        {
          "indexed": true,
          "internalType": "address",
          "name": "_subjectToken",
          "type": "address"
        },
        {
          "indexed": false,
          "internalType": "uint256",
          "name": "_initialSupply",
          "type": "uint256"
        },
        {
          "indexed": false,
          "internalType": "uint256",
          "name": "_reserve",
          "type": "uint256"
        },
        {
          "indexed": false,
          "internalType": "uint32",
          "name": "_reserveRatio",
          "type": "uint32"
        }
      ],
      "name": "BondingCurveInitialized",
      "type": "event"
    },
    {
      "anonymous": false,
      "inputs": [
        {
          "indexed": false,
          "internalType": "uint64",
          "name": "version",
          "type": "uint64"
        }
      ],
      "name": "Initialized",
      "type": "event"
    },
    {
      "anonymous": false,
      "inputs": [
        {
          "indexed": false,
          "internalType": "address",
          "name": "account",
          "type": "address"
        }
      ],
      "name": "Paused",
      "type": "event"
    },
    {
      "anonymous": false,
      "inputs": [
        {
          "indexed": true,
          "internalType": "bytes32",
          "name": "role",
          "type": "bytes32"
        },
        {
          "indexed": true,
          "internalType": "bytes32",
          "name": "previousAdminRole",
          "type": "bytes32"
        },
        {
          "indexed": true,
          "internalType": "bytes32",
          "name": "newAdminRole",
          "type": "bytes32"
        }
      ],
      "name": "RoleAdminChanged",
      "type": "event"
    },
    {
      "anonymous": false,
      "inputs": [
        {
          "indexed": true,
          "internalType": "bytes32",
          "name": "role",
          "type": "bytes32"
        },
        {
          "indexed": true,
          "internalType": "address",
          "name": "account",
          "type": "address"
        },
        {
          "indexed": true,
          "internalType": "address",
          "name": "sender",
          "type": "address"
        }
      ],
      "name": "RoleGranted",
      "type": "event"
    },
    {
      "anonymous": false,
      "inputs": [
        {
          "indexed": true,
          "internalType": "bytes32",
          "name": "role",
          "type": "bytes32"
        },
        {
          "indexed": true,
          "internalType": "address",
          "name": "account",
          "type": "address"
        },
        {
          "indexed": true,
          "internalType": "address",
          "name": "sender",
          "type": "address"
        }
      ],
      "name": "RoleRevoked",
      "type": "event"
    },
    {
      "anonymous": false,
      "inputs": [
        {
          "indexed": true,
          "internalType": "address",
          "name": "_subject",
          "type": "address"
        },
        {
          "indexed": true,
          "internalType": "address",
          "name": "_sellToken",
          "type": "address"
        },
        {
          "indexed": false,
          "internalType": "uint256",
          "name": "_sellAmount",
          "type": "uint256"
        },
        {
          "indexed": false,
          "internalType": "address",
          "name": "_spender",
          "type": "address"
        },
        {
          "indexed": false,
          "internalType": "address",
          "name": "_buyToken",
          "type": "address"
        },
        {
          "indexed": false,
          "internalType": "uint256",
          "name": "_buyAmount",
          "type": "uint256"
        },
        {
          "indexed": true,
          "internalType": "address",
          "name": "_beneficiary",
          "type": "address"
        }
      ],
      "name": "SubjectSharePurchased",
      "type": "event"
    },
    {
      "anonymous": false,
      "inputs": [
        {
          "indexed": true,
          "internalType": "address",
          "name": "_subject",
          "type": "address"
        },
        {
          "indexed": true,
          "internalType": "address",
          "name": "_sellToken",
          "type": "address"
        },
        {
          "indexed": false,
          "internalType": "uint256",
          "name": "_sellAmount",
          "type": "uint256"
        },
        {
          "indexed": false,
          "internalType": "address",
          "name": "_spender",
          "type": "address"
        },
        {
          "indexed": false,
          "internalType": "address",
          "name": "_buyToken",
          "type": "address"
        },
        {
          "indexed": false,
          "internalType": "uint256",
          "name": "_buyAmount",
          "type": "uint256"
        },
        {
          "indexed": true,
          "internalType": "address",
          "name": "_beneficiary",
          "type": "address"
        }
      ],
      "name": "SubjectShareSold",
      "type": "event"
    },
    {
      "anonymous": false,
      "inputs": [
        {
          "indexed": false,
          "internalType": "address",
          "name": "account",
          "type": "address"
        }
      ],
      "name": "Unpaused",
      "type": "event"
    },
    {
      "anonymous": false,
      "inputs": [
        {
          "indexed": false,
          "internalType": "address",
          "name": "_beneficiary",
          "type": "address"
        }
      ],
      "name": "UpdateBeneficiary",
      "type": "event"
    },
    {
      "anonymous": false,
      "inputs": [
        {
          "indexed": false,
          "internalType": "uint256",
          "name": "_protocolBuyFeePct",
          "type": "uint256"
        },
        {
          "indexed": false,
          "internalType": "uint256",
          "name": "_protocolSellFeePct",
          "type": "uint256"
        },
        {
          "indexed": false,
          "internalType": "uint256",
          "name": "_subjectBuyFeePct",
          "type": "uint256"
        },
        {
          "indexed": false,
          "internalType": "uint256",
          "name": "_subjectSellFeePct",
          "type": "uint256"
        }
      ],
      "name": "UpdateFees",
      "type": "event"
    },
    {
      "anonymous": false,
      "inputs": [
        {
          "indexed": false,
          "internalType": "address",
          "name": "_formula",
          "type": "address"
        }
      ],
      "name": "UpdateFormula",
      "type": "event"
    },
    {
      "inputs": [],
      "name": "DEFAULT_ADMIN_ROLE",
      "outputs": [
        {
          "internalType": "bytes32",
          "name": "",
          "type": "bytes32"
        }
      ],
      "stateMutability": "view",
      "type": "function"
    },
    {
      "inputs": [],
      "name": "PAUSE_ROLE",
      "outputs": [
        {
          "internalType": "bytes32",
          "name": "",
          "type": "bytes32"
        }
      ],
      "stateMutability": "view",
      "type": "function"
    },
    {
      "inputs": [],
      "name": "PCT_BASE",
      "outputs": [
        {
          "internalType": "uint256",
          "name": "",
          "type": "uint256"
        }
      ],
      "stateMutability": "view",
      "type": "function"
    },
    {
      "inputs": [],
      "name": "PPM",
      "outputs": [
        {
          "internalType": "uint32",
          "name": "",
          "type": "uint32"
        }
      ],
      "stateMutability": "view",
      "type": "function"
    },
    {
      "inputs": [],
      "name": "UPDATE_BENEFICIARY_ROLE",
      "outputs": [
        {
          "internalType": "bytes32",
          "name": "",
          "type": "bytes32"
        }
      ],
      "stateMutability": "view",
      "type": "function"
    },
    {
      "inputs": [],
      "name": "UPDATE_FEES_ROLE",
      "outputs": [
        {
          "internalType": "bytes32",
          "name": "",
          "type": "bytes32"
        }
      ],
      "stateMutability": "view",
      "type": "function"
    },
    {
      "inputs": [],
      "name": "UPDATE_FORMULA_ROLE",
      "outputs": [
        {
          "internalType": "bytes32",
          "name": "",
          "type": "bytes32"
        }
      ],
      "stateMutability": "view",
      "type": "function"
    },
    {
      "inputs": [
        {
          "internalType": "address",
          "name": "_subject",
          "type": "address"
        },
        {
          "internalType": "uint256",
          "name": "_depositAmount",
          "type": "uint256"
        },
        {
          "internalType": "uint256",
          "name": "_minReturnAmountAfterFee",
          "type": "uint256"
        }
      ],
      "name": "buyShares",
      "outputs": [
        {
          "internalType": "uint256",
          "name": "shares_",
          "type": "uint256"
        }
      ],
      "stateMutability": "nonpayable",
      "type": "function"
    },
    {
      "inputs": [
        {
          "internalType": "address",
          "name": "_subject",
          "type": "address"
        },
        {
          "internalType": "uint256",
          "name": "_depositAmount",
          "type": "uint256"
        },
        {
          "internalType": "address",
          "name": "_onBehalfOf",
          "type": "address"
        },
        {
          "internalType": "uint256",
          "name": "_minReturnAmountAfterFee",
          "type": "uint256"
        }
      ],
      "name": "buySharesFor",
      "outputs": [
        {
          "internalType": "uint256",
          "name": "shares_",
          "type": "uint256"
        }
      ],
      "stateMutability": "nonpayable",
      "type": "function"
    },
    {
      "inputs": [
        {
          "internalType": "address",
          "name": "_subject",
          "type": "address"
        },
        {
          "internalType": "uint256",
          "name": "_subjectTokenAmount",
          "type": "uint256"
        }
      ],
      "name": "calculateTokensForBuy",
      "outputs": [
        {
          "internalType": "uint256",
          "name": "moxieAmount_",
          "type": "uint256"
        },
        {
          "internalType": "uint256",
          "name": "protocolFee_",
          "type": "uint256"
        },
        {
          "internalType": "uint256",
          "name": "subjectFee_",
          "type": "uint256"
        }
      ],
      "stateMutability": "view",
      "type": "function"
    },
    {
      "inputs": [
        {
          "internalType": "address",
          "name": "_subject",
          "type": "address"
        },
        {
          "internalType": "uint256",
          "name": "_subjectTokenAmount",
          "type": "uint256"
        }
      ],
      "name": "calculateTokensForSell",
      "outputs": [
        {
          "internalType": "uint256",
          "name": "moxieAmount_",
          "type": "uint256"
        },
        {
          "internalType": "uint256",
          "name": "protocolFee_",
          "type": "uint256"
        },
        {
          "internalType": "uint256",
          "name": "subjectFee_",
          "type": "uint256"
        }
      ],
      "stateMutability": "view",
      "type": "function"
    },
    {
      "inputs": [],
      "name": "feeBeneficiary",
      "outputs": [
        {
          "internalType": "address",
          "name": "",
          "type": "address"
        }
      ],
      "stateMutability": "view",
      "type": "function"
    },
    {
      "inputs": [],
      "name": "formula",
      "outputs": [
        {
          "internalType": "contract IBancorFormula",
          "name": "",
          "type": "address"
        }
      ],
      "stateMutability": "view",
      "type": "function"
    },
    {
      "inputs": [
        {
          "internalType": "bytes32",
          "name": "role",
          "type": "bytes32"
        }
      ],
      "name": "getRoleAdmin",
      "outputs": [
        {
          "internalType": "bytes32",
          "name": "",
          "type": "bytes32"
        }
      ],
      "stateMutability": "view",
      "type": "function"
    },
    {
      "inputs": [
        {
          "internalType": "bytes32",
          "name": "role",
          "type": "bytes32"
        },
        {
          "internalType": "address",
          "name": "account",
          "type": "address"
        }
      ],
      "name": "grantRole",
      "outputs": [],
      "stateMutability": "nonpayable",
      "type": "function"
    },
    {
      "inputs": [
        {
          "internalType": "bytes32",
          "name": "role",
          "type": "bytes32"
        },
        {
          "internalType": "address",
          "name": "account",
          "type": "address"
        }
      ],
      "name": "hasRole",
      "outputs": [
        {
          "internalType": "bool",
          "name": "",
          "type": "bool"
        }
      ],
      "stateMutability": "view",
      "type": "function"
    },
    {
      "inputs": [
        {
          "internalType": "address",
          "name": "_token",
          "type": "address"
        },
        {
          "internalType": "address",
          "name": "_formula",
          "type": "address"
        },
        {
          "internalType": "address",
          "name": "_owner",
          "type": "address"
        },
        {
          "internalType": "address",
          "name": "_tokenManager",
          "type": "address"
        },
        {
          "internalType": "address",
          "name": "_vault",
          "type": "address"
        },
        {
          "components": [
            {
              "internalType": "uint256",
              "name": "protocolBuyFeePct",
              "type": "uint256"
            },
            {
              "internalType": "uint256",
              "name": "protocolSellFeePct",
              "type": "uint256"
            },
            {
              "internalType": "uint256",
              "name": "subjectBuyFeePct",
              "type": "uint256"
            },
            {
              "internalType": "uint256",
              "name": "subjectSellFeePct",
              "type": "uint256"
            }
          ],
          "internalType": "struct IMoxieBondingCurve.FeeInput",
          "name": "_feeInput",
          "type": "tuple"
        },
        {
          "internalType": "address",
          "name": "_feeBeneficiary",
          "type": "address"
        },
        {
          "internalType": "address",
          "name": "_subjectFactory",
          "type": "address"
        }
      ],
      "name": "initialize",
      "outputs": [],
      "stateMutability": "nonpayable",
      "type": "function"
    },
    {
      "inputs": [
        {
          "internalType": "address",
          "name": "_subject",
          "type": "address"
        },
        {
          "internalType": "uint32",
          "name": "_reserveRatio",
          "type": "uint32"
        },
        {
          "internalType": "uint256",
          "name": "_initialSupply",
          "type": "uint256"
        },
        {
          "internalType": "uint256",
          "name": "_reserveAmount",
          "type": "uint256"
        }
      ],
      "name": "initializeSubjectBondingCurve",
      "outputs": [
        {
          "internalType": "bool",
          "name": "",
          "type": "bool"
        }
      ],
      "stateMutability": "nonpayable",
      "type": "function"
    },
    {
      "inputs": [],
      "name": "pause",
      "outputs": [],
      "stateMutability": "nonpayable",
      "type": "function"
    },
    {
      "inputs": [],
      "name": "paused",
      "outputs": [
        {
          "internalType": "bool",
          "name": "",
          "type": "bool"
        }
      ],
      "stateMutability": "view",
      "type": "function"
    },
    {
      "inputs": [],
      "name": "protocolBuyFeePct",
      "outputs": [
        {
          "internalType": "uint256",
          "name": "",
          "type": "uint256"
        }
      ],
      "stateMutability": "view",
      "type": "function"
    },
    {
      "inputs": [],
      "name": "protocolSellFeePct",
      "outputs": [
        {
          "internalType": "uint256",
          "name": "",
          "type": "uint256"
        }
      ],
      "stateMutability": "view",
      "type": "function"
    },
    {
      "inputs": [
        {
          "internalType": "bytes32",
          "name": "role",
          "type": "bytes32"
        },
        {
          "internalType": "address",
          "name": "callerConfirmation",
          "type": "address"
        }
      ],
      "name": "renounceRole",
      "outputs": [],
      "stateMutability": "nonpayable",
      "type": "function"
    },
    {
      "inputs": [
        {
          "internalType": "address",
          "name": "subject",
          "type": "address"
        }
      ],
      "name": "reserveRatio",
      "outputs": [
        {
          "internalType": "uint32",
          "name": "_reserveRatio",
          "type": "uint32"
        }
      ],
      "stateMutability": "view",
      "type": "function"
    },
    {
      "inputs": [
        {
          "internalType": "bytes32",
          "name": "role",
          "type": "bytes32"
        },
        {
          "internalType": "address",
          "name": "account",
          "type": "address"
        }
      ],
      "name": "revokeRole",
      "outputs": [],
      "stateMutability": "nonpayable",
      "type": "function"
    },
    {
      "inputs": [
        {
          "internalType": "address",
          "name": "_subject",
          "type": "address"
        },
        {
          "internalType": "uint256",
          "name": "_sellAmount",
          "type": "uint256"
        },
        {
          "internalType": "uint256",
          "name": "_minReturnAmountAfterFee",
          "type": "uint256"
        }
      ],
      "name": "sellShares",
      "outputs": [
        {
          "internalType": "uint256",
          "name": "returnAmount_",
          "type": "uint256"
        }
      ],
      "stateMutability": "nonpayable",
      "type": "function"
    },
    {
      "inputs": [
        {
          "internalType": "address",
          "name": "_subject",
          "type": "address"
        },
        {
          "internalType": "uint256",
          "name": "_sellAmount",
          "type": "uint256"
        },
        {
          "internalType": "address",
          "name": "_onBehalfOf",
          "type": "address"
        },
        {
          "internalType": "uint256",
          "name": "_minReturnAmountAfterFee",
          "type": "uint256"
        }
      ],
      "name": "sellSharesFor",
      "outputs": [
        {
          "internalType": "uint256",
          "name": "returnAmount_",
          "type": "uint256"
        }
      ],
      "stateMutability": "nonpayable",
      "type": "function"
    },
    {
      "inputs": [],
      "name": "subjectBuyFeePct",
      "outputs": [
        {
          "internalType": "uint256",
          "name": "",
          "type": "uint256"
        }
      ],
      "stateMutability": "view",
      "type": "function"
    },
    {
      "inputs": [],
      "name": "subjectFactory",
      "outputs": [
        {
          "internalType": "address",
          "name": "",
          "type": "address"
        }
      ],
      "stateMutability": "view",
      "type": "function"
    },
    {
      "inputs": [],
      "name": "subjectSellFeePct",
      "outputs": [
        {
          "internalType": "uint256",
          "name": "",
          "type": "uint256"
        }
      ],
      "stateMutability": "view",
      "type": "function"
    },
    {
      "inputs": [
        {
          "internalType": "bytes4",
          "name": "interfaceId",
          "type": "bytes4"
        }
      ],
      "name": "supportsInterface",
      "outputs": [
        {
          "internalType": "bool",
          "name": "",
          "type": "bool"
        }
      ],
      "stateMutability": "view",
      "type": "function"
    },
    {
      "inputs": [],
      "name": "token",
      "outputs": [
        {
          "internalType": "contract IERC20Extended",
          "name": "",
          "type": "address"
        }
      ],
      "stateMutability": "view",
      "type": "function"
    },
    {
      "inputs": [],
      "name": "tokenManager",
      "outputs": [
        {
          "internalType": "contract ITokenManager",
          "name": "",
          "type": "address"
        }
      ],
      "stateMutability": "view",
      "type": "function"
    },
    {
      "inputs": [],
      "name": "unpause",
      "outputs": [],
      "stateMutability": "nonpayable",
      "type": "function"
    },
    {
      "inputs": [
        {
          "internalType": "address",
          "name": "_feeBeneficiary",
          "type": "address"
        }
      ],
      "name": "updateFeeBeneficiary",
      "outputs": [],
      "stateMutability": "nonpayable",
      "type": "function"
    },
    {
      "inputs": [
        {
          "components": [
            {
              "internalType": "uint256",
              "name": "protocolBuyFeePct",
              "type": "uint256"
            },
            {
              "internalType": "uint256",
              "name": "protocolSellFeePct",
              "type": "uint256"
            },
            {
              "internalType": "uint256",
              "name": "subjectBuyFeePct",
              "type": "uint256"
            },
            {
              "internalType": "uint256",
              "name": "subjectSellFeePct",
              "type": "uint256"
            }
          ],
          "internalType": "struct IMoxieBondingCurve.FeeInput",
          "name": "_feeInput",
          "type": "tuple"
        }
      ],
      "name": "updateFees",
      "outputs": [],
      "stateMutability": "nonpayable",
      "type": "function"
    },
    {
      "inputs": [
        {
          "internalType": "address",
          "name": "_formula",
          "type": "address"
        }
      ],
      "name": "updateFormula",
      "outputs": [],
      "stateMutability": "nonpayable",
      "type": "function"
    },
    {
      "inputs": [],
      "name": "vault",
      "outputs": [
        {
          "internalType": "contract IVault",
          "name": "",
          "type": "address"
        }
      ],
      "stateMutability": "view",
      "type": "function"
    }
  ],
  "bytecode": "0x608060405234801561001057600080fd5b50614500806100206000396000f3fe608060405234801561001057600080fd5b50600436106102325760003560e01c80635c975abb11610130578063a217fddf116100b8578063dbf495611161007c578063dbf49561146106a9578063e7af32ba146106c7578063fbfa77cf146106e5578063fc0c546a14610703578063fc157cb41461072157610232565b8063a217fddf146105f3578063ba6da00114610611578063d547741f14610641578063d5b49a711461065d578063d8690fea1461067957610232565b80638456cb59116100ff5780638456cb591461056157806389d6d0de1461056b57806391d1485414610589578063951ef92d146105b957806398a9c92b146105d757610232565b80635c975abb146104d757806360e14b60146104f55780636c57289314610513578063700c45901461052f57610232565b806336568abe116101be578063492fb34311610182578063492fb3431461041b5780634b75f54f1461043957806357f6508b146104575780635b23af0a146104875780635b933ee6146104b957610232565b806336568abe14610389578063389ed267146103a557806339952b88146103c35780633f4ba83a146103f357806341644f8c146103fd57610232565b806317f692221161020557806317f69222146102bf57806324234532146102ef578063248a9ca31461031f5780632a709b141461034f5780632f2ff15d1461036d57610232565b806301ffc9a7146102375780630d720bbc146102675780630e6c7a66146102855780630e85d277146102a1575b600080fd5b610251600480360381019061024c9190613866565b61073f565b60405161025e91906138ae565b60405180910390f35b61026f6107b9565b60405161027c91906138e8565b60405180910390f35b61029f600480360381019061029a9190613aa0565b6107c0565b005b6102a9610b34565b6040516102b69190613b71565b60405180910390f35b6102d960048036038101906102d49190613b8c565b610b58565b6040516102e69190613bee565b60405180910390f35b61030960048036038101906103049190613c09565b610b77565b60405161031691906138e8565b60405180910390f35b61033960048036038101906103349190613c62565b610b9a565b6040516103469190613b71565b60405180910390f35b610357610bc8565b6040516103649190613cee565b60405180910390f35b61038760048036038101906103829190613d09565b610bee565b005b6103a3600480360381019061039e9190613d09565b610c10565b005b6103ad610c8b565b6040516103ba9190613b71565b60405180910390f35b6103dd60048036038101906103d89190613b8c565b610caf565b6040516103ea9190613bee565b60405180910390f35b6103fb610cce565b005b610405610d03565b6040516104129190613b71565b60405180910390f35b610423610d27565b6040516104309190613d58565b60405180910390f35b610441610d4d565b60405161044e9190613d94565b60405180910390f35b610471600480360381019061046c9190613daf565b610d73565b60405161047e9190613bee565b60405180910390f35b6104a1600480360381019061049c9190613e16565b610d93565b6040516104b093929190613e56565b60405180910390f35b6104c1610e87565b6040516104ce9190613bee565b60405180910390f35b6104df610e8d565b6040516104ec91906138ae565b60405180910390f35b6104fd610eb2565b60405161050a9190613b71565b60405180910390f35b61052d60048036038101906105289190613c09565b610ed6565b005b61054960048036038101906105449190613e16565b610f4d565b60405161055893929190613e56565b60405180910390f35b610569611071565b005b6105736110a6565b6040516105809190613bee565b60405180910390f35b6105a3600480360381019061059e9190613d09565b6110ac565b6040516105b091906138ae565b60405180910390f35b6105c1611125565b6040516105ce9190613bee565b60405180910390f35b6105f160048036038101906105ec9190613e8d565b61112b565b005b6105fb61117e565b6040516106089190613b71565b60405180910390f35b61062b60048036038101906106269190613ee6565b611185565b60405161063891906138ae565b60405180910390f35b61065b60048036038101906106569190613d09565b611744565b005b61067760048036038101906106729190613c09565b611766565b005b610693600480360381019061068e9190613daf565b6117dd565b6040516106a09190613bee565b60405180910390f35b6106b16117fd565b6040516106be9190613bee565b60405180910390f35b6106cf611803565b6040516106dc9190613d58565b60405180910390f35b6106ed611829565b6040516106fa9190613f6e565b60405180910390f35b61070b61184f565b6040516107189190613faa565b60405180910390f35b610729611873565b6040516107369190613bee565b60405180910390f35b60007f7965db0b000000000000000000000000000000000000000000000000000000007bffffffffffffffffffffffffffffffffffffffffffffffffffffffff1916827bffffffffffffffffffffffffffffffffffffffffffffffffffffffff191614806107b257506107b18261187f565b5b9050919050565b620f424081565b60006107ca6118e9565b905060008160000160089054906101000a900460ff1615905060008260000160009054906101000a900467ffffffffffffffff1690506000808267ffffffffffffffff161480156108185750825b9050600060018367ffffffffffffffff1614801561084d575060003073ffffffffffffffffffffffffffffffffffffffff163b145b90508115801561085b575080155b15610892576040517ff92ee8a900000000000000000000000000000000000000000000000000000000815260040160405180910390fd5b60018560000160006101000a81548167ffffffffffffffff021916908367ffffffffffffffff16021790555083156108e25760018560000160086101000a81548160ff0219169083151502179055505b6108ea611911565b6108f261191b565b6109018d8d8d8d8d8c8c61192d565b61090a88611af6565b8c6000806101000a81548173ffffffffffffffffffffffffffffffffffffffff021916908373ffffffffffffffffffffffffffffffffffffffff1602179055508b600160006101000a81548173ffffffffffffffffffffffffffffffffffffffff021916908373ffffffffffffffffffffffffffffffffffffffff16021790555089600260006101000a81548173ffffffffffffffffffffffffffffffffffffffff021916908373ffffffffffffffffffffffffffffffffffffffff16021790555088600360006101000a81548173ffffffffffffffffffffffffffffffffffffffff021916908373ffffffffffffffffffffffffffffffffffffffff160217905550876000015160048190555087602001516005819055508760400151600681905550876060015160078190555086600860006101000a81548173ffffffffffffffffffffffffffffffffffffffff021916908373ffffffffffffffffffffffffffffffffffffffff16021790555085600960006101000a81548173ffffffffffffffffffffffffffffffffffffffff021916908373ffffffffffffffffffffffffffffffffffffffff160217905550610ac86000801b8c611b71565b508315610b255760008560000160086101000a81548160ff0219169083151502179055507fc7f505b2f371ae2175ee4913f4499e1f2633a7b5936321eed1cdaeb6115181d26001604051610b1c9190614014565b60405180910390a15b50505050505050505050505050565b7fbfb76d8d43f55efe58544ea32af187792a7bdb983850d8fed33478266eec3cbb81565b6000610b62611c72565b610b6e84843385611cb3565b90509392505050565b600a6020528060005260406000206000915054906101000a900463ffffffff1681565b600080610ba5611ebc565b905080600001600084815260200190815260200160002060010154915050919050565b600260009054906101000a900473ffffffffffffffffffffffffffffffffffffffff1681565b610bf782610b9a565b610c0081611ee4565b610c0a8383611b71565b50505050565b610c18611ef8565b73ffffffffffffffffffffffffffffffffffffffff168173ffffffffffffffffffffffffffffffffffffffff1614610c7c576040517f6697b23200000000000000000000000000000000000000000000000000000000815260040160405180910390fd5b610c868282611f00565b505050565b7f139c2898040ef16910dc9f44dc697df79363da767d8bc92f2e310312b816e46d81565b6000610cb9611c72565b610cc584843385612002565b90509392505050565b7f139c2898040ef16910dc9f44dc697df79363da767d8bc92f2e310312b816e46d610cf881611ee4565b610d00612214565b50565b7ff7ea2b80c7b6a2cab2c11d2290cb005c3748397358a25e17113658c83b73259381565b600860009054906101000a900473ffffffffffffffffffffffffffffffffffffffff1681565b600160009054906101000a900473ffffffffffffffffffffffffffffffffffffffff1681565b6000610d7d611c72565b610d8985858585612002565b9050949350505050565b600080600080600080610da68888612286565b9250925092506000600160009054906101000a900473ffffffffffffffffffffffffffffffffffffffff1673ffffffffffffffffffffffffffffffffffffffff166349f9b0f78385878c6040518563ffffffff1660e01b8152600401610e0f949392919061402f565b602060405180830381865afa158015610e2c573d6000803e3d6000fd5b505050506040513d601f19601f82011682018060405250810190610e509190614089565b9050610e5b81612570565b8096508197505050848682610e7091906140e5565b610e7a91906140e5565b9650505050509250925092565b60075481565b600080610e986125be565b90508060000160009054906101000a900460ff1691505090565b7f5f9be2932ed3a723f295a763be1804c7ebfd1a41c1348fb8bdf5be1c5cdca82281565b7ff7ea2b80c7b6a2cab2c11d2290cb005c3748397358a25e17113658c83b732593610f0081611ee4565b610f09826125e6565b15610f40576040517fadfdb05b00000000000000000000000000000000000000000000000000000000815260040160405180910390fd5b610f498261261e565b5050565b600080600080600080610f608888612286565b9250925092506000600160009054906101000a900473ffffffffffffffffffffffffffffffffffffffff1673ffffffffffffffffffffffffffffffffffffffff16631da6bbfb8385878c6040518563ffffffff1660e01b8152600401610fc9949392919061402f565b602060405180830381865afa158015610fe6573d6000803e3d6000fd5b505050506040513d601f19601f8201168201806040525081019061100a9190614089565b9050600060065460045461101e9190614119565b905080670de0b6b3a764000061103491906140e5565b670de0b6b3a764000083611048919061414d565b61105291906141be565b975061105d88612699565b809750819850505050505050509250925092565b7f139c2898040ef16910dc9f44dc697df79363da767d8bc92f2e310312b816e46d61109b81611ee4565b6110a36126e7565b50565b60055481565b6000806110b7611ebc565b905080600001600085815260200190815260200160002060000160008473ffffffffffffffffffffffffffffffffffffffff1673ffffffffffffffffffffffffffffffffffffffff16815260200190815260200160002060009054906101000a900460ff1691505092915050565b60065481565b7f5f9be2932ed3a723f295a763be1804c7ebfd1a41c1348fb8bdf5be1c5cdca82261115581611ee4565b61115e82611af6565b61117a8260000151836020015184604001518560600151612759565b5050565b6000801b81565b600061118f611c72565b611198856125e6565b156111cf576040517fa7ef168800000000000000000000000000000000000000000000000000000000815260040160405180910390fd5b600960009054906101000a900473ffffffffffffffffffffffffffffffffffffffff1673ffffffffffffffffffffffffffffffffffffffff163373ffffffffffffffffffffffffffffffffffffffff1614611256576040517f6802704600000000000000000000000000000000000000000000000000000000815260040160405180910390fd5b61125f846127c0565b611295576040517f39a1d18100000000000000000000000000000000000000000000000000000000815260040160405180910390fd5b6000600a60008773ffffffffffffffffffffffffffffffffffffffff1673ffffffffffffffffffffffffffffffffffffffff16815260200190815260200160002060009054906101000a900463ffffffff1663ffffffff1614611324576040517f86d5f90700000000000000000000000000000000000000000000000000000000815260040160405180910390fd5b83600a60008773ffffffffffffffffffffffffffffffffffffffff1673ffffffffffffffffffffffffffffffffffffffff16815260200190815260200160002060006101000a81548163ffffffff021916908363ffffffff1602179055506000600260009054906101000a900473ffffffffffffffffffffffffffffffffffffffff1673ffffffffffffffffffffffffffffffffffffffff1663e4860339876040518263ffffffff1660e01b81526004016113df9190613d58565b602060405180830381865afa1580156113fc573d6000803e3d6000fd5b505050506040513d601f19601f820116820180604052508101906114209190614204565b905061142b816125e6565b15611462576040517ffcde723100000000000000000000000000000000000000000000000000000000815260040160405180910390fd5b8073ffffffffffffffffffffffffffffffffffffffff168673ffffffffffffffffffffffffffffffffffffffff167f3e8bb74e6a03753bf16c1c2737daabee1be3548b0f638894f10f382560d1d0768686896040516114c393929190614231565b60405180910390a360008173ffffffffffffffffffffffffffffffffffffffff166318160ddd6040518163ffffffff1660e01b8152600401602060405180830381865afa158015611518573d6000803e3d6000fd5b505050506040513d601f19601f8201168201806040525081019061153c9190614089565b9050808514611577576040517f849e9ad400000000000000000000000000000000000000000000000000000000815260040160405180910390fd5b6115c433308660008054906101000a900473ffffffffffffffffffffffffffffffffffffffff1673ffffffffffffffffffffffffffffffffffffffff166127dc909392919063ffffffff16565b60008054906101000a900473ffffffffffffffffffffffffffffffffffffffff1673ffffffffffffffffffffffffffffffffffffffff1663095ea7b3600360009054906101000a900473ffffffffffffffffffffffffffffffffffffffff16866040518363ffffffff1660e01b8152600401611641929190614268565b6020604051808303816000875af1158015611660573d6000803e3d6000fd5b505050506040513d601f19601f8201168201806040525081019061168491906142bd565b50600360009054906101000a900473ffffffffffffffffffffffffffffffffffffffff1673ffffffffffffffffffffffffffffffffffffffff16638340f5498360008054906101000a900473ffffffffffffffffffffffffffffffffffffffff16876040518463ffffffff1660e01b8152600401611704939291906142ea565b600060405180830381600087803b15801561171e57600080fd5b505af1158015611732573d6000803e3d6000fd5b50505050600192505050949350505050565b61174d82610b9a565b61175681611ee4565b6117608383611f00565b50505050565b7fbfb76d8d43f55efe58544ea32af187792a7bdb983850d8fed33478266eec3cbb61179081611ee4565b611799826125e6565b156117d0576040517fb1710af000000000000000000000000000000000000000000000000000000000815260040160405180910390fd5b6117d98261285e565b5050565b60006117e7611c72565b6117f385858585611cb3565b9050949350505050565b60045481565b600960009054906101000a900473ffffffffffffffffffffffffffffffffffffffff1681565b600360009054906101000a900473ffffffffffffffffffffffffffffffffffffffff1681565b60008054906101000a900473ffffffffffffffffffffffffffffffffffffffff1681565b670de0b6b3a764000081565b60007f01ffc9a7000000000000000000000000000000000000000000000000000000007bffffffffffffffffffffffffffffffffffffffffffffffffffffffff1916827bffffffffffffffffffffffffffffffffffffffffffffffffffffffff1916149050919050565b60007ff0c57e16840df040f15088dc2f81fe391c3923bec73e23a9662efc9c229c6a00905090565b6119196128d9565b565b6119236128d9565b61192b612919565b565b611936876125e6565b1561196d576040517f1c8c425400000000000000000000000000000000000000000000000000000000815260040160405180910390fd5b611976866125e6565b156119ad576040517fb1710af000000000000000000000000000000000000000000000000000000000815260040160405180910390fd5b6119b6856125e6565b156119ed576040517f3c77158e00000000000000000000000000000000000000000000000000000000815260040160405180910390fd5b6119f6846125e6565b15611a2d576040517f926d717700000000000000000000000000000000000000000000000000000000815260040160405180910390fd5b611a36836125e6565b15611a6d576040517f466e460200000000000000000000000000000000000000000000000000000000815260040160405180910390fd5b611a76816125e6565b15611aad576040517fee2f6f2a00000000000000000000000000000000000000000000000000000000815260040160405180910390fd5b611ab6826125e6565b15611aed576040517fadfdb05b00000000000000000000000000000000000000000000000000000000815260040160405180910390fd5b50505050505050565b611b1281604001518260000151611b0d9190614119565b61294d565b1580611b375750611b3581606001518260200151611b309190614119565b61294d565b155b15611b6e576040517f470562b900000000000000000000000000000000000000000000000000000000815260040160405180910390fd5b50565b600080611b7c611ebc565b9050611b8884846110ac565b611c6657600181600001600086815260200190815260200160002060000160008573ffffffffffffffffffffffffffffffffffffffff1673ffffffffffffffffffffffffffffffffffffffff16815260200190815260200160002060006101000a81548160ff021916908315150217905550611c02611ef8565b73ffffffffffffffffffffffffffffffffffffffff168373ffffffffffffffffffffffffffffffffffffffff16857f2f8788117e7eff1d82e926ec794901d17c78024a50270940304540a733656f0d60405160405180910390a46001915050611c6c565b60009150505b92915050565b611c7a610e8d565b15611cb1576040517fd93c066500000000000000000000000000000000000000000000000000000000815260040160405180910390fd5b565b6000611cbe856125e6565b15611cf5576040517fa7ef168800000000000000000000000000000000000000000000000000000000815260040160405180910390fd5b60008403611d2e576040517e6a79a400000000000000000000000000000000000000000000000000000000815260040160405180910390fd5b6000600a60008773ffffffffffffffffffffffffffffffffffffffff1673ffffffffffffffffffffffffffffffffffffffff16815260200190815260200160002060009054906101000a900463ffffffff16905060008163ffffffff1603611dc2576040517f85b1b9c700000000000000000000000000000000000000000000000000000000815260040160405180910390fd5b6000600260009054906101000a900473ffffffffffffffffffffffffffffffffffffffff1673ffffffffffffffffffffffffffffffffffffffff1663e4860339886040518263ffffffff1660e01b8152600401611e1f9190613d58565b602060405180830381865afa158015611e3c573d6000803e3d6000fd5b505050506040513d601f19601f82011682018060405250810190611e609190614204565b9050611e6b816125e6565b15611ea2576040517ffcde723100000000000000000000000000000000000000000000000000000000815260040160405180910390fd5b611eb0818787878b87612961565b92505050949350505050565b60007f02dd7bc7dec4dceedda775e58dd541e08a116c6c53815c0bd028192f7b626800905090565b611ef581611ef0611ef8565b612f74565b50565b600033905090565b600080611f0b611ebc565b9050611f1784846110ac565b15611ff657600081600001600086815260200190815260200160002060000160008573ffffffffffffffffffffffffffffffffffffffff1673ffffffffffffffffffffffffffffffffffffffff16815260200190815260200160002060006101000a81548160ff021916908315150217905550611f92611ef8565b73ffffffffffffffffffffffffffffffffffffffff168373ffffffffffffffffffffffffffffffffffffffff16857ff6391f5c32d9c69d2a47ea670b442974b53935d1edc7fd64eb21e047a839171b60405160405180910390a46001915050611ffc565b60009150505b92915050565b600061200c611c72565b612015856125e6565b1561204c576040517fa7ef168800000000000000000000000000000000000000000000000000000000815260040160405180910390fd5b60008403612086576040517f2dc1479300000000000000000000000000000000000000000000000000000000815260040160405180910390fd5b6000600a60008773ffffffffffffffffffffffffffffffffffffffff1673ffffffffffffffffffffffffffffffffffffffff16815260200190815260200160002060009054906101000a900463ffffffff16905060008163ffffffff160361211a576040517f85b1b9c700000000000000000000000000000000000000000000000000000000815260040160405180910390fd5b6000600260009054906101000a900473ffffffffffffffffffffffffffffffffffffffff1673ffffffffffffffffffffffffffffffffffffffff1663e4860339886040518263ffffffff1660e01b81526004016121779190613d58565b602060405180830381865afa158015612194573d6000803e3d6000fd5b505050506040513d601f19601f820116820180604052508101906121b89190614204565b90506121c3816125e6565b156121fa576040517ffcde723100000000000000000000000000000000000000000000000000000000815260040160405180910390fd5b612208818787878b87612fc5565b92505050949350505050565b61221c6134d2565b60006122266125be565b905060008160000160006101000a81548160ff0219169083151502179055507f5db9ee0a495bf2e6ff9c91a7834c1ba4fdd244a5e8aa4e537bd38aeae4b073aa61226e611ef8565b60405161227b9190613d58565b60405180910390a150565b6000806000612294856125e6565b156122cb576040517fa7ef168800000000000000000000000000000000000000000000000000000000815260040160405180910390fd5b60008403612305576040517fc1787ce800000000000000000000000000000000000000000000000000000000815260040160405180910390fd5b600a60008673ffffffffffffffffffffffffffffffffffffffff1673ffffffffffffffffffffffffffffffffffffffff16815260200190815260200160002060009054906101000a900463ffffffff16925060008363ffffffff1603612397576040517f85b1b9c700000000000000000000000000000000000000000000000000000000815260040160405180910390fd5b6000600260009054906101000a900473ffffffffffffffffffffffffffffffffffffffff1673ffffffffffffffffffffffffffffffffffffffff1663e4860339876040518263ffffffff1660e01b81526004016123f49190613d58565b602060405180830381865afa158015612411573d6000803e3d6000fd5b505050506040513d601f19601f820116820180604052508101906124359190614204565b9050600360009054906101000a900473ffffffffffffffffffffffffffffffffffffffff1673ffffffffffffffffffffffffffffffffffffffff1663f7888aec8260008054906101000a900473ffffffffffffffffffffffffffffffffffffffff166040518363ffffffff1660e01b81526004016124b4929190614321565b602060405180830381865afa1580156124d1573d6000803e3d6000fd5b505050506040513d601f19601f820116820180604052508101906124f59190614089565b92508073ffffffffffffffffffffffffffffffffffffffff166318160ddd6040518163ffffffff1660e01b8152600401602060405180830381865afa158015612542573d6000803e3d6000fd5b505050506040513d601f19601f820116820180604052508101906125669190614089565b9150509250925092565b600080670de0b6b3a76400006005548461258a919061414d565b61259491906141be565b9150670de0b6b3a7640000600754846125ad919061414d565b6125b791906141be565b9050915091565b60007fcd5ed15c6e187e77e9aee88184c21f4f2182ab5827cb3b7e07fbedcd63f03300905090565b60008073ffffffffffffffffffffffffffffffffffffffff168273ffffffffffffffffffffffffffffffffffffffff16149050919050565b80600860006101000a81548173ffffffffffffffffffffffffffffffffffffffff021916908373ffffffffffffffffffffffffffffffffffffffff1602179055507fe6131a64e93e9aa4ff38892c34d563c06dcc1e03b3d6897cc65f0903e2ad68488160405161268e9190613d58565b60405180910390a150565b600080670de0b6b3a7640000600454846126b3919061414d565b6126bd91906141be565b9150670de0b6b3a7640000600654846126d6919061414d565b6126e091906141be565b9050915091565b6126ef611c72565b60006126f96125be565b905060018160000160006101000a81548160ff0219169083151502179055507f62e78cea01bee320cd4e420270b5ea74000d11b0c9f74754ebdbfc544b05a258612741611ef8565b60405161274e9190613d58565b60405180910390a150565b836004819055508260058190555081600681905550806007819055507f5c3aee3d65f7eb02cded951435d06b06ef307bc7f57b98975c4a41dc116e711c6004546005546006546007546040516127b2949392919061434a565b60405180910390a150505050565b6000620f424063ffffffff168263ffffffff1611159050919050565b612858848573ffffffffffffffffffffffffffffffffffffffff166323b872dd868686604051602401612811939291906142ea565b604051602081830303815290604052915060e01b6020820180517bffffffffffffffffffffffffffffffffffffffffffffffffffffffff8381831617835250505050613512565b50505050565b80600160006101000a81548173ffffffffffffffffffffffffffffffffffffffff021916908373ffffffffffffffffffffffffffffffffffffffff1602179055507f050a79a49cc1dc3aeeccd8636685ad0469db41a9bd51254a34fc1cf616693d41816040516128ce9190613d58565b60405180910390a150565b6128e16135a9565b612917576040517fd7e6bcf800000000000000000000000000000000000000000000000000000000815260040160405180910390fd5b565b6129216128d9565b600061292b6125be565b905060008160000160006101000a81548160ff02191690831515021790555050565b6000670de0b6b3a764000082109050919050565b60006129b033308860008054906101000a900473ffffffffffffffffffffffffffffffffffffffff1673ffffffffffffffffffffffffffffffffffffffff166127dc909392919063ffffffff16565b6000806129bc88612699565b91509150612a0b858260008054906101000a900473ffffffffffffffffffffffffffffffffffffffff1673ffffffffffffffffffffffffffffffffffffffff166135c99092919063ffffffff16565b612a78600860009054906101000a900473ffffffffffffffffffffffffffffffffffffffff168360008054906101000a900473ffffffffffffffffffffffffffffffffffffffff1673ffffffffffffffffffffffffffffffffffffffff166135c99092919063ffffffff16565b600082828a612a8791906140e5565b612a9191906140e5565b905060008054906101000a900473ffffffffffffffffffffffffffffffffffffffff1673ffffffffffffffffffffffffffffffffffffffff1663095ea7b3600360009054906101000a900473ffffffffffffffffffffffffffffffffffffffff16836040518363ffffffff1660e01b8152600401612b10929190614268565b6020604051808303816000875af1158015612b2f573d6000803e3d6000fd5b505050506040513d601f19601f82011682018060405250810190612b5391906142bd565b506000600360009054906101000a900473ffffffffffffffffffffffffffffffffffffffff1673ffffffffffffffffffffffffffffffffffffffff1663f7888aec8c60008054906101000a900473ffffffffffffffffffffffffffffffffffffffff166040518363ffffffff1660e01b8152600401612bd3929190614321565b602060405180830381865afa158015612bf0573d6000803e3d6000fd5b505050506040513d601f19601f82011682018060405250810190612c149190614089565b9050600360009054906101000a900473ffffffffffffffffffffffffffffffffffffffff1673ffffffffffffffffffffffffffffffffffffffff16638340f5498c60008054906101000a900473ffffffffffffffffffffffffffffffffffffffff16856040518463ffffffff1660e01b8152600401612c95939291906142ea565b600060405180830381600087803b158015612caf57600080fd5b505af1158015612cc3573d6000803e3d6000fd5b50505050600160009054906101000a900473ffffffffffffffffffffffffffffffffffffffff1673ffffffffffffffffffffffffffffffffffffffff166329a00e7c8c73ffffffffffffffffffffffffffffffffffffffff166318160ddd6040518163ffffffff1660e01b8152600401602060405180830381865afa158015612d50573d6000803e3d6000fd5b505050506040513d601f19601f82011682018060405250810190612d749190614089565b8389866040518563ffffffff1660e01b8152600401612d96949392919061402f565b602060405180830381865afa158015612db3573d6000803e3d6000fd5b505050506040513d601f19601f82011682018060405250810190612dd79190614089565b94505050505083811015612e17576040517f13115b2900000000000000000000000000000000000000000000000000000000815260040160405180910390fd5b612e20856125e6565b612ec857600260009054906101000a900473ffffffffffffffffffffffffffffffffffffffff1673ffffffffffffffffffffffffffffffffffffffff1663c6c3bbe68487846040518463ffffffff1660e01b8152600401612e83939291906142ea565b6020604051808303816000875af1158015612ea2573d6000803e3d6000fd5b505050506040513d601f19601f82011682018060405250810190612ec691906142bd565b505b8473ffffffffffffffffffffffffffffffffffffffff1660008054906101000a900473ffffffffffffffffffffffffffffffffffffffff1673ffffffffffffffffffffffffffffffffffffffff168473ffffffffffffffffffffffffffffffffffffffff167f96c1b5a0ee3c1932c831b8c6a559c93b48a3109915784a05ff44a07cc09c393189338c87604051612f62949392919061438f565b60405180910390a49695505050505050565b612f7e82826110ac565b612fc15780826040517fe2517d3f000000000000000000000000000000000000000000000000000000008152600401612fb89291906143d4565b60405180910390fd5b5050565b600080600360009054906101000a900473ffffffffffffffffffffffffffffffffffffffff1673ffffffffffffffffffffffffffffffffffffffff1663f7888aec8960008054906101000a900473ffffffffffffffffffffffffffffffffffffffff166040518363ffffffff1660e01b8152600401613045929190614321565b602060405180830381865afa158015613062573d6000803e3d6000fd5b505050506040513d601f19601f820116820180604052508101906130869190614089565b90506000600160009054906101000a900473ffffffffffffffffffffffffffffffffffffffff1673ffffffffffffffffffffffffffffffffffffffff166349f9b0f78a73ffffffffffffffffffffffffffffffffffffffff166318160ddd6040518163ffffffff1660e01b8152600401602060405180830381865afa158015613113573d6000803e3d6000fd5b505050506040513d601f19601f820116820180604052508101906131379190614089565b84878c6040518563ffffffff1660e01b8152600401613159949392919061402f565b602060405180830381865afa158015613176573d6000803e3d6000fd5b505050506040513d601f19601f8201168201806040525081019061319a9190614089565b90506000806131a883612570565b915091508181846131b991906140e5565b6131c391906140e5565b9450878510156131ff576040517f13115b2900000000000000000000000000000000000000000000000000000000815260040160405180910390fd5b8873ffffffffffffffffffffffffffffffffffffffff168b73ffffffffffffffffffffffffffffffffffffffff168873ffffffffffffffffffffffffffffffffffffffff167f44ebb8a56b0413525e33cc89179d9758b2b1ab944b0bbeeb6d119adb2a6e3fe28d3360008054906101000a900473ffffffffffffffffffffffffffffffffffffffff168b604051613299949392919061438f565b60405180910390a48a73ffffffffffffffffffffffffffffffffffffffff166379cc6790338c6040518363ffffffff1660e01b81526004016132dc929190614268565b600060405180830381600087803b1580156132f657600080fd5b505af115801561330a573d6000803e3d6000fd5b50505050600360009054906101000a900473ffffffffffffffffffffffffffffffffffffffff1673ffffffffffffffffffffffffffffffffffffffff1663f18d03cc8c60008054906101000a900473ffffffffffffffffffffffffffffffffffffffff1630876040518563ffffffff1660e01b815260040161338f94939291906143fd565b600060405180830381600087803b1580156133a957600080fd5b505af11580156133bd573d6000803e3d6000fd5b5050505061340c878260008054906101000a900473ffffffffffffffffffffffffffffffffffffffff1673ffffffffffffffffffffffffffffffffffffffff166135c99092919063ffffffff16565b613479600860009054906101000a900473ffffffffffffffffffffffffffffffffffffffff168360008054906101000a900473ffffffffffffffffffffffffffffffffffffffff1673ffffffffffffffffffffffffffffffffffffffff166135c99092919063ffffffff16565b6134c4898660008054906101000a900473ffffffffffffffffffffffffffffffffffffffff1673ffffffffffffffffffffffffffffffffffffffff166135c99092919063ffffffff16565b505050509695505050505050565b6134da610e8d565b613510576040517f8dfc202b00000000000000000000000000000000000000000000000000000000815260040160405180910390fd5b565b600061353d828473ffffffffffffffffffffffffffffffffffffffff1661364890919063ffffffff16565b9050600081511415801561356257508080602001905181019061356091906142bd565b155b156135a457826040517f5274afe700000000000000000000000000000000000000000000000000000000815260040161359b9190613d58565b60405180910390fd5b505050565b60006135b36118e9565b60000160089054906101000a900460ff16905090565b613643838473ffffffffffffffffffffffffffffffffffffffff1663a9059cbb85856040516024016135fc929190614268565b604051602081830303815290604052915060e01b6020820180517bffffffffffffffffffffffffffffffffffffffffffffffffffffffff8381831617835250505050613512565b505050565b60606136568383600061365e565b905092915050565b6060814710156136a557306040517fcd78605900000000000000000000000000000000000000000000000000000000815260040161369c9190613d58565b60405180910390fd5b6000808573ffffffffffffffffffffffffffffffffffffffff1684866040516136ce91906144b3565b60006040518083038185875af1925050503d806000811461370b576040519150601f19603f3d011682016040523d82523d6000602084013e613710565b606091505b509150915061372086838361372b565b925050509392505050565b6060826137405761373b826137ba565b6137b2565b60008251148015613768575060008473ffffffffffffffffffffffffffffffffffffffff163b145b156137aa57836040517f9996b3150000000000000000000000000000000000000000000000000000000081526004016137a19190613d58565b60405180910390fd5b8190506137b3565b5b9392505050565b6000815111156137cd5780518082602001fd5b6040517f1425ea4200000000000000000000000000000000000000000000000000000000815260040160405180910390fd5b6000604051905090565b600080fd5b60007fffffffff0000000000000000000000000000000000000000000000000000000082169050919050565b6138438161380e565b811461384e57600080fd5b50565b6000813590506138608161383a565b92915050565b60006020828403121561387c5761387b613809565b5b600061388a84828501613851565b91505092915050565b60008115159050919050565b6138a881613893565b82525050565b60006020820190506138c3600083018461389f565b92915050565b600063ffffffff82169050919050565b6138e2816138c9565b82525050565b60006020820190506138fd60008301846138d9565b92915050565b600073ffffffffffffffffffffffffffffffffffffffff82169050919050565b600061392e82613903565b9050919050565b61393e81613923565b811461394957600080fd5b50565b60008135905061395b81613935565b92915050565b600080fd5b6000601f19601f8301169050919050565b7f4e487b7100000000000000000000000000000000000000000000000000000000600052604160045260246000fd5b6139af82613966565b810181811067ffffffffffffffff821117156139ce576139cd613977565b5b80604052505050565b60006139e16137ff565b90506139ed82826139a6565b919050565b6000819050919050565b613a05816139f2565b8114613a1057600080fd5b50565b600081359050613a22816139fc565b92915050565b600060808284031215613a3e57613a3d613961565b5b613a4860806139d7565b90506000613a5884828501613a13565b6000830152506020613a6c84828501613a13565b6020830152506040613a8084828501613a13565b6040830152506060613a9484828501613a13565b60608301525092915050565b600080600080600080600080610160898b031215613ac157613ac0613809565b5b6000613acf8b828c0161394c565b9850506020613ae08b828c0161394c565b9750506040613af18b828c0161394c565b9650506060613b028b828c0161394c565b9550506080613b138b828c0161394c565b94505060a0613b248b828c01613a28565b935050610120613b368b828c0161394c565b925050610140613b488b828c0161394c565b9150509295985092959890939650565b6000819050919050565b613b6b81613b58565b82525050565b6000602082019050613b866000830184613b62565b92915050565b600080600060608486031215613ba557613ba4613809565b5b6000613bb38682870161394c565b9350506020613bc486828701613a13565b9250506040613bd586828701613a13565b9150509250925092565b613be8816139f2565b82525050565b6000602082019050613c036000830184613bdf565b92915050565b600060208284031215613c1f57613c1e613809565b5b6000613c2d8482850161394c565b91505092915050565b613c3f81613b58565b8114613c4a57600080fd5b50565b600081359050613c5c81613c36565b92915050565b600060208284031215613c7857613c77613809565b5b6000613c8684828501613c4d565b91505092915050565b6000819050919050565b6000613cb4613caf613caa84613903565b613c8f565b613903565b9050919050565b6000613cc682613c99565b9050919050565b6000613cd882613cbb565b9050919050565b613ce881613ccd565b82525050565b6000602082019050613d036000830184613cdf565b92915050565b60008060408385031215613d2057613d1f613809565b5b6000613d2e85828601613c4d565b9250506020613d3f8582860161394c565b9150509250929050565b613d5281613923565b82525050565b6000602082019050613d6d6000830184613d49565b92915050565b6000613d7e82613cbb565b9050919050565b613d8e81613d73565b82525050565b6000602082019050613da96000830184613d85565b92915050565b60008060008060808587031215613dc957613dc8613809565b5b6000613dd78782880161394c565b9450506020613de887828801613a13565b9350506040613df98782880161394c565b9250506060613e0a87828801613a13565b91505092959194509250565b60008060408385031215613e2d57613e2c613809565b5b6000613e3b8582860161394c565b9250506020613e4c85828601613a13565b9150509250929050565b6000606082019050613e6b6000830186613bdf565b613e786020830185613bdf565b613e856040830184613bdf565b949350505050565b600060808284031215613ea357613ea2613809565b5b6000613eb184828501613a28565b91505092915050565b613ec3816138c9565b8114613ece57600080fd5b50565b600081359050613ee081613eba565b92915050565b60008060008060808587031215613f0057613eff613809565b5b6000613f0e8782880161394c565b9450506020613f1f87828801613ed1565b9350506040613f3087828801613a13565b9250506060613f4187828801613a13565b91505092959194509250565b6000613f5882613cbb565b9050919050565b613f6881613f4d565b82525050565b6000602082019050613f836000830184613f5f565b92915050565b6000613f9482613cbb565b9050919050565b613fa481613f89565b82525050565b6000602082019050613fbf6000830184613f9b565b92915050565b6000819050919050565b600067ffffffffffffffff82169050919050565b6000613ffe613ff9613ff484613fc5565b613c8f565b613fcf565b9050919050565b61400e81613fe3565b82525050565b60006020820190506140296000830184614005565b92915050565b60006080820190506140446000830187613bdf565b6140516020830186613bdf565b61405e60408301856138d9565b61406b6060830184613bdf565b95945050505050565b600081519050614083816139fc565b92915050565b60006020828403121561409f5761409e613809565b5b60006140ad84828501614074565b91505092915050565b7f4e487b7100000000000000000000000000000000000000000000000000000000600052601160045260246000fd5b60006140f0826139f2565b91506140fb836139f2565b9250828203905081811115614113576141126140b6565b5b92915050565b6000614124826139f2565b915061412f836139f2565b9250828201905080821115614147576141466140b6565b5b92915050565b6000614158826139f2565b9150614163836139f2565b9250828202614171816139f2565b91508282048414831517614188576141876140b6565b5b5092915050565b7f4e487b7100000000000000000000000000000000000000000000000000000000600052601260045260246000fd5b60006141c9826139f2565b91506141d4836139f2565b9250826141e4576141e361418f565b5b828204905092915050565b6000815190506141fe81613935565b92915050565b60006020828403121561421a57614219613809565b5b6000614228848285016141ef565b91505092915050565b60006060820190506142466000830186613bdf565b6142536020830185613bdf565b61426060408301846138d9565b949350505050565b600060408201905061427d6000830185613d49565b61428a6020830184613bdf565b9392505050565b61429a81613893565b81146142a557600080fd5b50565b6000815190506142b781614291565b92915050565b6000602082840312156142d3576142d2613809565b5b60006142e1848285016142a8565b91505092915050565b60006060820190506142ff6000830186613d49565b61430c6020830185613d49565b6143196040830184613bdf565b949350505050565b60006040820190506143366000830185613d49565b6143436020830184613d49565b9392505050565b600060808201905061435f6000830187613bdf565b61436c6020830186613bdf565b6143796040830185613bdf565b6143866060830184613bdf565b95945050505050565b60006080820190506143a46000830187613bdf565b6143b16020830186613d49565b6143be6040830185613d49565b6143cb6060830184613bdf565b95945050505050565b60006040820190506143e96000830185613d49565b6143f66020830184613b62565b9392505050565b60006080820190506144126000830187613d49565b61441f6020830186613d49565b61442c6040830185613d49565b6144396060830184613bdf565b95945050505050565b600081519050919050565b600081905092915050565b60005b8381101561447657808201518184015260208101905061445b565b60008484015250505050565b600061448d82614442565b614497818561444d565b93506144a7818560208601614458565b80840191505092915050565b60006144bf8284614482565b91508190509291505056fea2646970667358221220c19b1f135785d7b9cca9bc450b48a768378a4e73e806e5f2790df2d07999cf8564736f6c63430008180033",
  "linkReferences": {},
  "deployedLinkReferences": {}
}