{
  "_format": "hh-sol-artifact-1",
  "contractName": "BancorFormula",
  "sourceName": "contracts/bancor/BancorFormula.sol",
  "abi": [
    {
      "inputs": [],
      "stateMutability": "nonpayable",
      "type": "constructor"
    },
    {
      "inputs": [
        {
          "internalType": "uint256",
          "name": "_fromConnectorBalance",
          "type": "uint256"
        },
        {
          "internalType": "uint32",
          "name": "_fromConnectorWeight",
          "type": "uint32"
        },
        {
          "internalType": "uint256",
          "name": "_toConnectorBalance",
          "type": "uint256"
        },
        {
          "internalType": "uint32",
          "name": "_toConnectorWeight",
          "type": "uint32"
        },
        {
          "internalType": "uint256",
          "name": "_amount",
          "type": "uint256"
        }
      ],
      "name": "calculateCrossConnectorReturn",
      "outputs": [
        {
          "internalType": "uint256",
          "name": "",
          "type": "uint256"
        }
      ],
      "stateMutability": "view",
      "type": "function"
    },
    {
      "inputs": [
        {
          "internalType": "uint256",
          "name": "_fromReserveBalance",
          "type": "uint256"
        },
        {
          "internalType": "uint32",
          "name": "_fromReserveRatio",
          "type": "uint32"
        },
        {
          "internalType": "uint256",
          "name": "_toReserveBalance",
          "type": "uint256"
        },
        {
          "internalType": "uint32",
          "name": "_toReserveRatio",
          "type": "uint32"
        },
        {
          "internalType": "uint256",
          "name": "_amount",
          "type": "uint256"
        }
      ],
      "name": "calculateCrossReserveReturn",
      "outputs": [
        {
          "internalType": "uint256",
          "name": "",
          "type": "uint256"
        }
      ],
      "stateMutability": "view",
      "type": "function"
    },
    {
      "inputs": [
        {
          "internalType": "uint256",
          "name": "_supply",
          "type": "uint256"
        },
        {
          "internalType": "uint256",
          "name": "_reserveBalance",
          "type": "uint256"
        },
        {
          "internalType": "uint32",
          "name": "_totalRatio",
          "type": "uint32"
        },
        {
          "internalType": "uint256",
          "name": "_amount",
          "type": "uint256"
        }
      ],
      "name": "calculateFundCost",
      "outputs": [
        {
          "internalType": "uint256",
          "name": "",
          "type": "uint256"
        }
      ],
      "stateMutability": "view",
      "type": "function"
    },
    {
      "inputs": [
        {
          "internalType": "uint256",
          "name": "_supply",
          "type": "uint256"
        },
        {
          "internalType": "uint256",
          "name": "_reserveBalance",
          "type": "uint256"
        },
        {
          "internalType": "uint32",
          "name": "_totalRatio",
          "type": "uint32"
        },
        {
          "internalType": "uint256",
          "name": "_amount",
          "type": "uint256"
        }
      ],
      "name": "calculateLiquidateReturn",
      "outputs": [
        {
          "internalType": "uint256",
          "name": "",
          "type": "uint256"
        }
      ],
      "stateMutability": "view",
      "type": "function"
    },
    {
      "inputs": [
        {
          "internalType": "uint256",
          "name": "_supply",
          "type": "uint256"
        },
        {
          "internalType": "uint256",
          "name": "_reserveBalance",
          "type": "uint256"
        },
        {
          "internalType": "uint32",
          "name": "_reserveRatio",
          "type": "uint32"
        },
        {
          "internalType": "uint256",
          "name": "_depositAmount",
          "type": "uint256"
        }
      ],
      "name": "calculatePurchaseReturn",
      "outputs": [
        {
          "internalType": "uint256",
          "name": "",
          "type": "uint256"
        }
      ],
      "stateMutability": "view",
      "type": "function"
    },
    {
      "inputs": [
        {
          "internalType": "uint256",
          "name": "_supply",
          "type": "uint256"
        },
        {
          "internalType": "uint256",
          "name": "_reserveBalance",
          "type": "uint256"
        },
        {
          "internalType": "uint32",
          "name": "_reserveRatio",
          "type": "uint32"
        },
        {
          "internalType": "uint256",
          "name": "_sellAmount",
          "type": "uint256"
        }
      ],
      "name": "calculateSaleReturn",
      "outputs": [
        {
          "internalType": "uint256",
          "name": "",
          "type": "uint256"
        }
      ],
      "stateMutability": "view",
      "type": "function"
    },
    {
      "inputs": [],
      "name": "version",
      "outputs": [
        {
          "internalType": "uint16",
          "name": "",
          "type": "uint16"
        }
      ],
      "stateMutability": "view",
      "type": "function"
    }
  ],
  "bytecode": "0x60806040523480156200001157600080fd5b50701c35fedd14ffffffffffffffffffffffff60006020608081106200003c576200003b620011a8565b5b0181905550701b0ce43b323fffffffffffffffffffffff60006021608081106200006b576200006a620011a8565b5b01819055507019f0028ec1ffffffffffffffffffffffff60006022608081106200009a5762000099620011a8565b5b01819055507018ded91f0e7fffffffffffffffffffffff6000602360808110620000c957620000c8620011a8565b5b01819055507017d8ec7f0417ffffffffffffffffffffff6000602460808110620000f857620000f7620011a8565b5b01819055507016ddc6556cdbffffffffffffffffffffff6000602560808110620001275762000126620011a8565b5b01819055507015ecf52776a1ffffffffffffffffffffff6000602660808110620001565762000155620011a8565b5b01819055507015060c256cb2ffffffffffffffffffffff6000602760808110620001855762000184620011a8565b5b0181905550701428a2f98d72ffffffffffffffffffffff6000602860808110620001b457620001b3620011a8565b5b01819055507013545598e5c23fffffffffffffffffffff6000602960808110620001e357620001e2620011a8565b5b0181905550701288c4161ce1dfffffffffffffffffffff6000602a60808110620002125762000211620011a8565b5b01819055507011c592761c666fffffffffffffffffffff6000602b60808110620002415762000240620011a8565b5b018190555070110a688680a757ffffffffffffffffffff6000602c6080811062000270576200026f620011a8565b5b0181905550701056f1b5bedf77ffffffffffffffffffff6000602d608081106200029f576200029e620011a8565b5b0181905550700faadceceeff8bffffffffffffffffffff6000602e60808110620002ce57620002cd620011a8565b5b0181905550700f05dc6b27edadffffffffffffffffffff6000602f60808110620002fd57620002fc620011a8565b5b0181905550700e67a5a25da4107fffffffffffffffffff60006030608081106200032c576200032b620011a8565b5b0181905550700dcff115b14eedffffffffffffffffffff60006031608081106200035b576200035a620011a8565b5b0181905550700d3e7a392431239fffffffffffffffffff60006032608081106200038a5762000389620011a8565b5b0181905550700cb2ff529eb71e4fffffffffffffffffff6000603360808110620003b957620003b8620011a8565b5b0181905550700c2d415c3db974afffffffffffffffffff6000603460808110620003e857620003e7620011a8565b5b0181905550700bad03e7d883f69bffffffffffffffffff6000603560808110620004175762000416620011a8565b5b0181905550700b320d03b2c343d5ffffffffffffffffff6000603660808110620004465762000445620011a8565b5b0181905550700abc25204e02828dffffffffffffffffff6000603760808110620004755762000474620011a8565b5b0181905550700a4b16f74ee4bb207fffffffffffffffff6000603860808110620004a457620004a3620011a8565b5b01819055507009deaf736ac1f569ffffffffffffffffff6000603960808110620004d357620004d2620011a8565b5b0181905550700976bd9952c7aa957fffffffffffffffff6000603a60808110620005025762000501620011a8565b5b01819055507009131271922eaa606fffffffffffffffff6000603b60808110620005315762000530620011a8565b5b01819055507008b380f3558668c46fffffffffffffffff6000603c6080811062000560576200055f620011a8565b5b0181905550700857ddf0117efa215bffffffffffffffff6000603d608081106200058f576200058e620011a8565b5b01819055507007ffffffffffffffffffffffffffffffff6000603e60808110620005be57620005bd620011a8565b5b01819055507007abbf6f6abb9d087fffffffffffffffff6000603f60808110620005ed57620005ec620011a8565b5b018190555070075af62cbac95f7dfa7fffffffffffffff60006040608081106200061c576200061b620011a8565b5b018190555070070d7fb7452e187ac13fffffffffffffff60006041608081106200064b576200064a620011a8565b5b01819055507006c3390ecc8af379295fffffffffffffff60006042608081106200067a5762000679620011a8565b5b018190555070067c00a3b07ffc01fd6fffffffffffffff6000604360808110620006a957620006a8620011a8565b5b0181905550700637b647c39cbb9d3d27ffffffffffffff6000604460808110620006d857620006d7620011a8565b5b01819055507005f63b1fc104dbd39587ffffffffffffff6000604560808110620007075762000706620011a8565b5b01819055507005b771955b36e12f7235ffffffffffffff6000604660808110620007365762000735620011a8565b5b018190555070057b3d49dda84556d6f6ffffffffffffff6000604760808110620007655762000764620011a8565b5b018190555070054183095b2c8ececf30ffffffffffffff6000604860808110620007945762000793620011a8565b5b018190555070050a28be635ca2b888f77fffffffffffff6000604960808110620007c357620007c2620011a8565b5b01819055507004d5156639708c9db33c3fffffffffffff6000604a60808110620007f257620007f1620011a8565b5b01819055507004a23105873875bd52dfdfffffffffffff6000604b60808110620008215762000820620011a8565b5b0181905550700471649d87199aa990756fffffffffffff6000604c6080811062000850576200084f620011a8565b5b01819055507004429a21a029d4c1457cfbffffffffffff6000604d608081106200087f576200087e620011a8565b5b0181905550700415bc6d6fb7dd71af2cb3ffffffffffff6000604e60808110620008ae57620008ad620011a8565b5b01819055507003eab73b3bbfe282243ce1ffffffffffff6000604f60808110620008dd57620008dc620011a8565b5b01819055507003c1771ac9fb6b4c18e229ffffffffffff60006050608081106200090c576200090b620011a8565b5b0181905550700399e96897690418f785257fffffffffff60006051608081106200093b576200093a620011a8565b5b0181905550700373fc456c53bb779bf0ea9fffffffffff60006052608081106200096a5762000969620011a8565b5b018190555070034f9e8e490c48e67e6ab8bfffffffffff6000605360808110620009995762000998620011a8565b5b018190555070032cbfd4a7adc790560b3337ffffffffff6000605460808110620009c857620009c7620011a8565b5b018190555070030b50570f6e5d2acca94613ffffffffff6000605560808110620009f757620009f6620011a8565b5b01819055507002eb40f9f620fda6b56c2861ffffffffff600060566080811062000a265762000a25620011a8565b5b01819055507002cc8340ecb0d0f520a6af58ffffffffff600060576080811062000a555762000a54620011a8565b5b01819055507002af09481380a0a35cf1ba02ffffffffff600060586080811062000a845762000a83620011a8565b5b0181905550700292c5bdd3b92ec810287b1b3fffffffff600060596080811062000ab35762000ab2620011a8565b5b0181905550700277abdcdab07d5a77ac6d6b9fffffffff6000605a6080811062000ae25762000ae1620011a8565b5b018190555070025daf6654b1eaa55fd64df5efffffffff6000605b6080811062000b115762000b10620011a8565b5b0181905550700244c49c648baa98192dce88b7ffffffff6000605c6080811062000b405762000b3f620011a8565b5b018190555070022ce03cd5619a311b2471268bffffffff6000605d6080811062000b6f5762000b6e620011a8565b5b0181905550700215f77c045fbe885654a44a0fffffffff6000605e6080811062000b9e5762000b9d620011a8565b5b01819055507001ffffffffffffffffffffffffffffffff6000605f6080811062000bcd5762000bcc620011a8565b5b01819055507001eaefdbdaaee7421fc4d3ede5ffffffff600060606080811062000bfc5762000bfb620011a8565b5b01819055507001d6bd8b2eb257df7e8ca57b09bfffffff600060616080811062000c2b5762000c2a620011a8565b5b01819055507001c35fedd14b861eb0443f7f133fffffff600060626080811062000c5a5762000c59620011a8565b5b01819055507001b0ce43b322bcde4a56e8ada5afffffff600060636080811062000c895762000c88620011a8565b5b018190555070019f0028ec1fff007f5a195a39dfffffff600060646080811062000cb85762000cb7620011a8565b5b018190555070018ded91f0e72ee74f49b15ba527ffffff600060656080811062000ce75762000ce6620011a8565b5b018190555070017d8ec7f04136f4e5615fd41a63ffffff600060666080811062000d165762000d15620011a8565b5b018190555070016ddc6556cdb84bdc8d12d22e6fffffff600060676080811062000d455762000d44620011a8565b5b018190555070015ecf52776a1155b5bd8395814f7fffff600060686080811062000d745762000d73620011a8565b5b018190555070015060c256cb23b3b3cc3754cf40ffffff600060696080811062000da35762000da2620011a8565b5b01819055507001428a2f98d728ae223ddab715be3fffff6000606a6080811062000dd25762000dd1620011a8565b5b018190555070013545598e5c23276ccf0ede68034fffff6000606b6080811062000e015762000e00620011a8565b5b01819055507001288c4161ce1d6f54b7f61081194fffff6000606c6080811062000e305762000e2f620011a8565b5b018190555070011c592761c666aa641d5a01a40f17ffff6000606d6080811062000e5f5762000e5e620011a8565b5b0181905550700110a688680a7530515f3e6e6cfdcdffff6000606e6080811062000e8e5762000e8d620011a8565b5b01819055507001056f1b5bedf75c6bcb2ce8aed428ffff6000606f6080811062000ebd5762000ebc620011a8565b5b01819055506ffaadceceeff8a0890f3875f008277fff600060706080811062000eeb5762000eea620011a8565b5b01819055506ff05dc6b27edad306388a600f6ba0bfff600060716080811062000f195762000f18620011a8565b5b01819055506fe67a5a25da41063de1495d5b18cdbfff600060726080811062000f475762000f46620011a8565b5b01819055506fdcff115b14eedde6fc3aa5353f2e4fff600060736080811062000f755762000f74620011a8565b5b01819055506fd3e7a3924312399f9aae2e0f868f8fff600060746080811062000fa35762000fa2620011a8565b5b01819055506fcb2ff529eb71e41582cccd5a1ee26fff600060756080811062000fd15762000fd0620011a8565b5b01819055506fc2d415c3db974ab32a51840c0b67edff600060766080811062000fff5762000ffe620011a8565b5b01819055506fbad03e7d883f69ad5b0a186184e06bff60006077608081106200102d576200102c620011a8565b5b01819055506fb320d03b2c343d4829abd6075f0cc5ff60006078608081106200105b576200105a620011a8565b5b01819055506fabc25204e02828d73c6e80bcdb1a95bf6000607960808110620010895762001088620011a8565b5b01819055506fa4b16f74ee4bb2040a1ec6c15fbbf2df6000607a60808110620010b757620010b6620011a8565b5b01819055506f9deaf736ac1f569deb1b5ae3f36c130f6000607b60808110620010e557620010e4620011a8565b5b01819055506f976bd9952c7aa957f5937d790ef650376000607c60808110620011135762001112620011a8565b5b01819055506f9131271922eaa6064b73a22d0bd4f2bf6000607d60808110620011415762001140620011a8565b5b01819055506f8b380f3558668c46c91c49a2f8e967b96000607e608081106200116f576200116e620011a8565b5b01819055506f857ddf0117efa215952912839f6473e66000607f608081106200119d576200119c620011a8565b5b0181905550620011d7565b7f4e487b7100000000000000000000000000000000000000000000000000000000600052603260045260246000fd5b61294b80620011e76000396000f3fe608060405234801561001057600080fd5b506004361061007d5760003560e01c806354fd4d501161005b57806354fd4d501461011257806365098bb31461013057806379c1b45014610160578063abfd231d146101905761007d565b80631da6bbfb1461008257806329a00e7c146100b257806349f9b0f7146100e2575b600080fd5b61009c600480360381019061009791906123af565b6101c0565b6040516100a99190612425565b60405180910390f35b6100cc60048036038101906100c791906123af565b6102f8565b6040516100d99190612425565b60405180910390f35b6100fc60048036038101906100f791906123af565b61042a565b6040516101099190612425565b60405180910390f35b61011a610581565b604051610127919061245d565b60405180910390f35b61014a60048036038101906101459190612478565b610586565b6040516101579190612425565b60405180910390f35b61017a60048036038101906101759190612478565b6105a0565b6040516101879190612425565b60405180910390f35b6101aa60048036038101906101a591906123af565b6106d6565b6040516101b79190612425565b60405180910390f35b600080851180156101d15750600084115b80156101e3575060018363ffffffff16115b801561020a57506002620f42406101fa9190612522565b63ffffffff168363ffffffff1611155b61021357600080fd5b6000820361022457600090506102f0565b620f424063ffffffff168363ffffffff1603610277576001856001610252878661080390919063ffffffff16565b61025c919061255f565b61026691906125c2565b61027091906125f3565b90506102f0565b600080600061028f858961087d90919063ffffffff16565b90506102a08189620f4240896108db565b8093508194505050600060018360ff1660016102c5878c61080390919063ffffffff16565b6102cf919061255f565b901c6102db91906125f3565b905087816102e9919061255f565b9450505050505b949350505050565b600080851180156103095750600084115b801561031b575060008363ffffffff16115b80156103365750620f424063ffffffff168363ffffffff1611155b610375576040517f08c379a000000000000000000000000000000000000000000000000000000000815260040161036c90612684565b60405180910390fd5b600082036103865760009050610422565b620f424063ffffffff168363ffffffff16036103c157836103b0838761080390919063ffffffff16565b6103ba91906125c2565b9050610422565b60008060006103d9878661087d90919063ffffffff16565b90506103ea818888620f42406108db565b809350819450505060008260ff1661040b858b61080390919063ffffffff16565b901c9050888161041b919061255f565b9450505050505b949350505050565b6000808511801561043b5750600084115b801561044d575060008363ffffffff16115b80156104685750620f424063ffffffff168363ffffffff1611155b80156104745750848211155b6104b3576040517f08c379a00000000000000000000000000000000000000000000000000000000081526004016104aa90612684565b60405180910390fd5b600082036104c45760009050610579565b8482036104d357839050610579565b620f424063ffffffff168363ffffffff160361050e57846104fd838661080390919063ffffffff16565b61050791906125c2565b9050610579565b6000806000848861051f919061255f565b90506105308882620f4240896108db565b8093508194505050600061054d848961080390919063ffffffff16565b905060008360ff1689901b9050848183610567919061255f565b61057191906125c2565b955050505050505b949350505050565b600681565b600061059586868686866105a0565b905095945050505050565b600080861180156105b7575060008563ffffffff16115b80156105d25750620f424063ffffffff168563ffffffff1611155b80156105de5750600084115b80156105f0575060008363ffffffff16115b801561060b5750620f424063ffffffff168363ffffffff1611155b61061457600080fd5b8263ffffffff168563ffffffff160361065e5761063a828761087d90919063ffffffff16565b61064d838661080390919063ffffffff16565b61065791906125c2565b90506106cd565b6000806000610676858a61087d90919063ffffffff16565b9050610684818a8a896108db565b809350819450505060006106a1848961080390919063ffffffff16565b905060008360ff1689901b90508481836106bb919061255f565b6106c591906125c2565b955050505050505b95945050505050565b600080851180156106e75750600084115b80156106f9575060018363ffffffff16115b801561072057506002620f42406107109190612522565b63ffffffff168363ffffffff1611155b801561072c5750848211155b61073557600080fd5b6000820361074657600090506107fb565b848203610755578390506107fb565b620f424063ffffffff168363ffffffff1603610790578461077f858461080390919063ffffffff16565b61078991906125c2565b90506107fb565b600080600084886107a1919061255f565b90506107b28882620f4240896108db565b809350819450505060006107cf848961080390919063ffffffff16565b905060008360ff1689901b90508481836107e9919061255f565b6107f391906125c2565b955050505050505b949350505050565b60008083036108155760009050610877565b6000828461082391906126a4565b905082848261083291906125c2565b14610872576040517f08c379a000000000000000000000000000000000000000000000000000000000815260040161086990612758565b60405180910390fd5b809150505b92915050565b600080828461088c91906125f3565b9050838110156108d1576040517f08c379a00000000000000000000000000000000000000000000000000000000081526004016108c8906127c4565b60405180910390fd5b8091505092915050565b60008070020000000000000000000000000000000086106108fb57600080fd5b600080866f800000000000000000000000000000008961091b91906126a4565b61092591906125c2565b905070015bf0a8b1457695355fb8ac404e7a79e381101561095057610949816109ef565b915061095c565b61095981611168565b91505b60008563ffffffff168763ffffffff168461097791906126a4565b61098191906125c2565b90507008000000000000000000000000000000008110156109b3576109a5816112c2565b607f945094505050506109e6565b60006109be82611ac6565b90506109dc81607f6109d091906127f1565b60ff1683901c82611ba4565b8195509550505050505b94509492505050565b6000806000905060008060006fd3094c70f034de4b96ff7d5b6f99fcd88610610a6a576f4000000000000000000000000000000084610a2e91906125f3565b93506fd3094c70f034de4b96ff7d5b6f99fcd86f8000000000000000000000000000000087610a5d91906126a4565b610a6791906125c2565b95505b6fa45af1e1f40c333b3de1db4dd55f29a78610610ad9576f2000000000000000000000000000000084610a9d91906125f3565b93506fa45af1e1f40c333b3de1db4dd55f29a76f8000000000000000000000000000000087610acc91906126a4565b610ad691906125c2565b95505b6f910b022db7ae67ce76b441c27035c6a18610610b48576f1000000000000000000000000000000084610b0c91906125f3565b93506f910b022db7ae67ce76b441c27035c6a16f8000000000000000000000000000000087610b3b91906126a4565b610b4591906125c2565b95505b6f88415abbe9a76bead8d00cf112e4d4a88610610bb7576f0800000000000000000000000000000084610b7b91906125f3565b93506f88415abbe9a76bead8d00cf112e4d4a86f8000000000000000000000000000000087610baa91906126a4565b610bb491906125c2565b95505b6f84102b00893f64c705e841d5d4064bd38610610c26576f0400000000000000000000000000000084610bea91906125f3565b93506f84102b00893f64c705e841d5d4064bd36f8000000000000000000000000000000087610c1991906126a4565b610c2391906125c2565b95505b6f8204055aaef1c8bd5c3259f4822735a28610610c95576f0200000000000000000000000000000084610c5991906125f3565b93506f8204055aaef1c8bd5c3259f4822735a26f8000000000000000000000000000000087610c8891906126a4565b610c9291906125c2565b95505b6f810100ab00222d861931c15e39b44e998610610d04576f0100000000000000000000000000000084610cc891906125f3565b93506f810100ab00222d861931c15e39b44e996f8000000000000000000000000000000087610cf791906126a4565b610d0191906125c2565b95505b6f808040155aabbbe9451521693554f7338610610d72576e80000000000000000000000000000084610d3691906125f3565b93506f808040155aabbbe9451521693554f7336f8000000000000000000000000000000087610d6591906126a4565b610d6f91906125c2565b95505b6f8000000000000000000000000000000086610d8e919061255f565b92508291506f800000000000000000000000000000008384610db091906126a4565b610dba91906125c2565b905070010000000000000000000000000000000083700100000000000000000000000000000000610deb919061255f565b83610df691906126a4565b610e0091906125c2565b84610e0b91906125f3565b93506f800000000000000000000000000000008183610e2a91906126a4565b610e3491906125c2565b9150700200000000000000000000000000000000836faaaaaaaaaaaaaaaaaaaaaaaaaaaaaaaa610e64919061255f565b83610e6f91906126a4565b610e7991906125c2565b84610e8491906125f3565b93506f800000000000000000000000000000008183610ea391906126a4565b610ead91906125c2565b9150700300000000000000000000000000000000836f99999999999999999999999999999999610edd919061255f565b83610ee891906126a4565b610ef291906125c2565b84610efd91906125f3565b93506f800000000000000000000000000000008183610f1c91906126a4565b610f2691906125c2565b9150700400000000000000000000000000000000836f92492492492492492492492492492492610f56919061255f565b83610f6191906126a4565b610f6b91906125c2565b84610f7691906125f3565b93506f800000000000000000000000000000008183610f9591906126a4565b610f9f91906125c2565b9150700500000000000000000000000000000000836f8e38e38e38e38e38e38e38e38e38e38e610fcf919061255f565b83610fda91906126a4565b610fe491906125c2565b84610fef91906125f3565b93506f80000000000000000000000000000000818361100e91906126a4565b61101891906125c2565b9150700600000000000000000000000000000000836f8ba2e8ba2e8ba2e8ba2e8ba2e8ba2e8b611048919061255f565b8361105391906126a4565b61105d91906125c2565b8461106891906125f3565b93506f80000000000000000000000000000000818361108791906126a4565b61109191906125c2565b9150700700000000000000000000000000000000836f89d89d89d89d89d89d89d89d89d89d896110c1919061255f565b836110cc91906126a4565b6110d691906125c2565b846110e191906125f3565b93506f80000000000000000000000000000000818361110091906126a4565b61110a91906125c2565b9150700800000000000000000000000000000000836f8888888888888888888888888888888861113a919061255f565b8361114591906126a4565b61114f91906125c2565b8461115a91906125f3565b935083945050505050919050565b6000806000905070010000000000000000000000000000000083106111db5760006111ad6f80000000000000000000000000000000856111a891906125c2565b6122b3565b90508060ff1684901c93506f800000000000000000000000000000008160ff166111d791906126a4565b9150505b6f80000000000000000000000000000000831115611283576000607f90505b60008160ff161115611281576f80000000000000000000000000000000848561122391906126a4565b61122d91906125c2565b9350700100000000000000000000000000000000841061127057600184901c935060018161125b91906127f1565b60ff166001901b8261126d91906125f3565b91505b8061127a90612826565b90506111fa565b505b6f05b9de1d10bf4103d647b0955897ba806f03f80fe03f80fe03f80fe03f80fe03f8826112b091906126a4565b6112ba91906125c2565b915050919050565b600080600090506000806f10000000000000000000000000000000856112e8919061284f565b91508190506f80000000000000000000000000000000828261130a91906126a4565b61131491906125c2565b90506710e1b3be415a00008161132a91906126a4565b8361133591906125f3565b92506f80000000000000000000000000000000828261135491906126a4565b61135e91906125c2565b90506705a0913f6b1e00008161137491906126a4565b8361137f91906125f3565b92506f80000000000000000000000000000000828261139e91906126a4565b6113a891906125c2565b9050670168244fdac78000816113be91906126a4565b836113c991906125f3565b92506f8000000000000000000000000000000082826113e891906126a4565b6113f291906125c2565b9050664807432bc180008161140791906126a4565b8361141291906125f3565b92506f80000000000000000000000000000000828261143191906126a4565b61143b91906125c2565b9050660c0135dca040008161145091906126a4565b8361145b91906125f3565b92506f80000000000000000000000000000000828261147a91906126a4565b61148491906125c2565b90506601b707b1cdc0008161149991906126a4565b836114a491906125f3565b92506f8000000000000000000000000000000082826114c391906126a4565b6114cd91906125c2565b90506536e0f639b800816114e191906126a4565b836114ec91906125f3565b92506f80000000000000000000000000000000828261150b91906126a4565b61151591906125c2565b9050650618fee9f8008161152991906126a4565b8361153491906125f3565b92506f80000000000000000000000000000000828261155391906126a4565b61155d91906125c2565b9050649c197dcc008161157091906126a4565b8361157b91906125f3565b92506f80000000000000000000000000000000828261159a91906126a4565b6115a491906125c2565b9050640e30dce400816115b791906126a4565b836115c291906125f3565b92506f8000000000000000000000000000000082826115e191906126a4565b6115eb91906125c2565b905064012ebd1300816115fe91906126a4565b8361160991906125f3565b92506f80000000000000000000000000000000828261162891906126a4565b61163291906125c2565b90506317499f008161164491906126a4565b8361164f91906125f3565b92506f80000000000000000000000000000000828261166e91906126a4565b61167891906125c2565b90506301a9d4808161168a91906126a4565b8361169591906125f3565b92506f8000000000000000000000000000000082826116b491906126a4565b6116be91906125c2565b9050621c6380816116cf91906126a4565b836116da91906125f3565b92506f8000000000000000000000000000000082826116f991906126a4565b61170391906125c2565b90506201c6388161171491906126a4565b8361171f91906125f3565b92506f80000000000000000000000000000000828261173e91906126a4565b61174891906125c2565b9050611ab88161175891906126a4565b8361176391906125f3565b92506f80000000000000000000000000000000828261178291906126a4565b61178c91906125c2565b905061017c8161179c91906126a4565b836117a791906125f3565b92506f8000000000000000000000000000000082826117c691906126a4565b6117d091906125c2565b90506014816117df91906126a4565b836117ea91906125f3565b92506f80000000000000000000000000000000828261180991906126a4565b61181391906125c2565b905060018161182291906126a4565b8361182d91906125f3565b92506f80000000000000000000000000000000826721c3677c82b400008561185591906125c2565b61185f91906125f3565b61186991906125f3565b925060006f100000000000000000000000000000008616146118c15770018ebef9eac820ae8682b9793ac6d1e7767001c3d6a24ed82218787d624d3e5eba95f9846118b491906126a4565b6118be91906125c2565b92505b60006f20000000000000000000000000000000861614611917577001368b2fc6f9609fe7aceb46aa619baed470018ebef9eac820ae8682b9793ac6d1e7788461190a91906126a4565b61191491906125c2565b92505b60006f4000000000000000000000000000000086161461196c576fbc5ab1b16779be3575bd8f0520a9f21f7001368b2fc6f9609fe7aceb46aa619baed58461195f91906126a4565b61196991906125c2565b92505b60006f800000000000000000000000000000008616146119c0576f454aaa8efe072e7f6ddbab84b40a55c96fbc5ab1b16779be3575bd8f0520a9f21e846119b391906126a4565b6119bd91906125c2565b92505b6000700100000000000000000000000000000000861614611a15576f0960aadc109e7a3bf4578099615711ea6f454aaa8efe072e7f6ddbab84b40a55c584611a0891906126a4565b611a1291906125c2565b92505b6000700200000000000000000000000000000000861614611a69576e2bf84208204f5977f9a8cf01fdce3d6f0960aadc109e7a3bf4578099615711d784611a5c91906126a4565b611a6691906125c2565b92505b6000700400000000000000000000000000000000861614611abb576d03c6ab775dd0b95b4cbee7e65d116e2bf84208204f5977f9a8cf01fdc30784611aae91906126a4565b611ab891906125c2565b92505b829350505050919050565b600080602090506000607f90505b8060ff16600183611ae59190612880565b60ff161015611b3b57600060028284611afe9190612880565b611b0891906128b5565b90508460008260ff1660808110611b2257611b216128e6565b5b015410611b3157809250611b35565b8091505b50611ad4565b8360008260ff1660808110611b5357611b526128e6565b5b015410611b64578092505050611b9f565b8360008360ff1660808110611b7c57611b7b6128e6565b5b015410611b8d578192505050611b9f565b6000611b9857600080fd5b6000925050505b919050565b60008083905060008360ff168583611bbc91906126a4565b901c91506f03442c4e6074a82f1797f72ac000000082611bdc91906126a4565b81611be791906125f3565b90508360ff168583611bf991906126a4565b901c91506f0116b96f757c380fb287fd0e4000000082611c1991906126a4565b81611c2491906125f3565b90508360ff168583611c3691906126a4565b901c91506e45ae5bdd5f0e03eca1ff439000000082611c5591906126a4565b81611c6091906125f3565b90508360ff168583611c7291906126a4565b901c91506e0defabf91302cd95b9ffda5000000082611c9191906126a4565b81611c9c91906125f3565b90508360ff168583611cae91906126a4565b901c91506e02529ca9832b22439efff9b800000082611ccd91906126a4565b81611cd891906125f3565b90508360ff168583611cea91906126a4565b901c91506d54f1cf12bd04e516b6da8800000082611d0891906126a4565b81611d1391906125f3565b90508360ff168583611d2591906126a4565b901c91506d0a9e39e257a09ca2d6db5100000082611d4391906126a4565b81611d4e91906125f3565b90508360ff168583611d6091906126a4565b901c91506d012e066e7b839fa050c30900000082611d7e91906126a4565b81611d8991906125f3565b90508360ff168583611d9b91906126a4565b901c91506c1e33d7d926c329a1ad1a80000082611db891906126a4565b81611dc391906125f3565b90508360ff168583611dd591906126a4565b901c91506c02bee513bdb4a6b19b5f80000082611df291906126a4565b81611dfd91906125f3565b90508360ff168583611e0f91906126a4565b901c91506b3a9316fa79b88eccf2a0000082611e2b91906126a4565b81611e3691906125f3565b90508360ff168583611e4891906126a4565b901c91506b048177ebe1fa81237520000082611e6491906126a4565b81611e6f91906125f3565b90508360ff168583611e8191906126a4565b901c91506a5263fe90242dcbacf0000082611e9c91906126a4565b81611ea791906125f3565b90508360ff168583611eb991906126a4565b901c91506a057e22099c030d9410000082611ed491906126a4565b81611edf91906125f3565b90508360ff168583611ef191906126a4565b901c91506957e22099c030d941000082611f0b91906126a4565b81611f1691906125f3565b90508360ff168583611f2891906126a4565b901c915069052b6b5456997631000082611f4291906126a4565b81611f4d91906125f3565b90508360ff168583611f5f91906126a4565b901c9150684985f67696bf74800082611f7891906126a4565b81611f8391906125f3565b90508360ff168583611f9591906126a4565b901c91506803dea12ea99e49800082611fae91906126a4565b81611fb991906125f3565b90508360ff168583611fcb91906126a4565b901c91506731880f2214b6e00082611fe391906126a4565b81611fee91906125f3565b90508360ff16858361200091906126a4565b901c915067025bcff56eb360008261201891906126a4565b8161202391906125f3565b90508360ff16858361203591906126a4565b901c9150661b722e10ab10008261204c91906126a4565b8161205791906125f3565b90508360ff16858361206991906126a4565b901c91506601317c700770008261208091906126a4565b8161208b91906125f3565b90508360ff16858361209d91906126a4565b901c9150650cba84aafa00826120b391906126a4565b816120be91906125f3565b90508360ff1685836120d091906126a4565b901c91506482573a0a00826120e591906126a4565b816120f091906125f3565b90508360ff16858361210291906126a4565b901c91506405035ad9008261211791906126a4565b8161212291906125f3565b90508360ff16858361213491906126a4565b901c9150632f881b008261214891906126a4565b8161215391906125f3565b90508360ff16858361216591906126a4565b901c91506301b293408261217991906126a4565b8161218491906125f3565b90508360ff16858361219691906126a4565b901c9150620efc40826121a991906126a4565b816121b491906125f3565b90508360ff1685836121c691906126a4565b901c9150617fe0826121d891906126a4565b816121e391906125f3565b90508360ff1685836121f591906126a4565b901c91506104208261220791906126a4565b8161221291906125f3565b90508360ff16858361222491906126a4565b901c915060218261223591906126a4565b8161224091906125f3565b90508360ff16858361225291906126a4565b901c915060018261226391906126a4565b8161226e91906125f3565b90508360ff166001901b856f0688589cc0e9505e2f2fee55800000008361229591906125c2565b61229f91906125f3565b6122a991906125f3565b9250505092915050565b600080600090506101008310156122ee575b60018311156122e957600183901c92506001816122e29190612880565b90506122c5565b61232f565b6000608090505b60008160ff16111561232d578060ff166001901b841061231e578060ff1684901c935080821791505b60018160ff16901c90506122f5565b505b80915050919050565b600080fd5b6000819050919050565b6123508161233d565b811461235b57600080fd5b50565b60008135905061236d81612347565b92915050565b600063ffffffff82169050919050565b61238c81612373565b811461239757600080fd5b50565b6000813590506123a981612383565b92915050565b600080600080608085870312156123c9576123c8612338565b5b60006123d78782880161235e565b94505060206123e88782880161235e565b93505060406123f98782880161239a565b925050606061240a8782880161235e565b91505092959194509250565b61241f8161233d565b82525050565b600060208201905061243a6000830184612416565b92915050565b600061ffff82169050919050565b61245781612440565b82525050565b6000602082019050612472600083018461244e565b92915050565b600080600080600060a0868803121561249457612493612338565b5b60006124a28882890161235e565b95505060206124b38882890161239a565b94505060406124c48882890161235e565b93505060606124d58882890161239a565b92505060806124e68882890161235e565b9150509295509295909350565b7f4e487b7100000000000000000000000000000000000000000000000000000000600052601160045260246000fd5b600061252d82612373565b915061253883612373565b925082820261254681612373565b9150808214612558576125576124f3565b5b5092915050565b600061256a8261233d565b91506125758361233d565b925082820390508181111561258d5761258c6124f3565b5b92915050565b7f4e487b7100000000000000000000000000000000000000000000000000000000600052601260045260246000fd5b60006125cd8261233d565b91506125d88361233d565b9250826125e8576125e7612593565b5b828204905092915050565b60006125fe8261233d565b91506126098361233d565b9250828201905080821115612621576126206124f3565b5b92915050565b600082825260208201905092915050565b7f696e76616c696420706172616d65746572730000000000000000000000000000600082015250565b600061266e601283612627565b915061267982612638565b602082019050919050565b6000602082019050818103600083015261269d81612661565b9050919050565b60006126af8261233d565b91506126ba8361233d565b92508282026126c88161233d565b915082820484148315176126df576126de6124f3565b5b5092915050565b7f536166654d6174683a206d756c7469706c69636174696f6e206f766572666c6f60008201527f7700000000000000000000000000000000000000000000000000000000000000602082015250565b6000612742602183612627565b915061274d826126e6565b604082019050919050565b6000602082019050818103600083015261277181612735565b9050919050565b7f536166654d6174683a206164646974696f6e206f766572666c6f770000000000600082015250565b60006127ae601b83612627565b91506127b982612778565b602082019050919050565b600060208201905081810360008301526127dd816127a1565b9050919050565b600060ff82169050919050565b60006127fc826127e4565b9150612807836127e4565b9250828203905060ff8111156128205761281f6124f3565b5b92915050565b6000612831826127e4565b915060008203612844576128436124f3565b5b600182039050919050565b600061285a8261233d565b91506128658361233d565b92508261287557612874612593565b5b828206905092915050565b600061288b826127e4565b9150612896836127e4565b9250828201905060ff8111156128af576128ae6124f3565b5b92915050565b60006128c0826127e4565b91506128cb836127e4565b9250826128db576128da612593565b5b828204905092915050565b7f4e487b7100000000000000000000000000000000000000000000000000000000600052603260045260246000fdfea26469706673582212203834e945ae33628c87072d087ac25b8c8aaac9d80a54de808fb117c424c863f864736f6c63430008180033",
  "linkReferences": {},
  "deployedLinkReferences": {}
}