{
  "_format": "hh-sol-artifact-1",
  "contractName": "MoxieBondingCurve",
  "sourceName": "contracts/MoxieBondingCurve.sol",
  "abi": [
    {
      "inputs": [],
      "name": "AccessControlBadConfirmation",
      "type": "error"
    },
    {
      "inputs": [
        {
          "internalType": "address",
          "name": "account",
          "type": "address"
        },
        {
          "internalType": "bytes32",
          "name": "neededRole",
          "type": "bytes32"
        }
      ],
      "name": "AccessControlUnauthorizedAccount",
      "type": "error"
    },
    {
      "inputs": [
        {
          "internalType": "address",
          "name": "target",
          "type": "address"
        }
      ],
      "name": "AddressEmptyCode",
      "type": "error"
    },
    {
      "inputs": [
        {
          "internalType": "address",
          "name": "account",
          "type": "address"
        }
      ],
      "name": "AddressInsufficientBalance",
      "type": "error"
    },
    {
      "inputs": [],
      "name": "EnforcedPause",
      "type": "error"
    },
    {
      "inputs": [],
      "name": "ExpectedPause",
      "type": "error"
    },
    {
      "inputs": [],
      "name": "FailedInnerCall",
      "type": "error"
    },
    {
      "inputs": [],
      "name": "InvalidInitialization",
      "type": "error"
    },
    {
      "inputs": [],
      "name": "MoxieBondingCurve_InvalidBeneficiary",
      "type": "error"
    },
    {
      "inputs": [],
      "name": "MoxieBondingCurve_InvalidDepositAmount",
      "type": "error"
    },
    {
      "inputs": [],
      "name": "MoxieBondingCurve_InvalidFeePercentage",
      "type": "error"
    },
    {
      "inputs": [],
      "name": "MoxieBondingCurve_InvalidFormula",
      "type": "error"
    },
    {
      "inputs": [],
      "name": "MoxieBondingCurve_InvalidOwner",
      "type": "error"
    },
    {
      "inputs": [],
      "name": "MoxieBondingCurve_InvalidReserveRation",
      "type": "error"
    },
    {
      "inputs": [],
      "name": "MoxieBondingCurve_InvalidSellAmount",
      "type": "error"
    },
    {
      "inputs": [],
      "name": "MoxieBondingCurve_InvalidSubject",
      "type": "error"
    },
    {
      "inputs": [],
      "name": "MoxieBondingCurve_InvalidSubjectFactory",
      "type": "error"
    },
    {
      "inputs": [],
      "name": "MoxieBondingCurve_InvalidSubjectSupply",
      "type": "error"
    },
    {
      "inputs": [],
      "name": "MoxieBondingCurve_InvalidSubjectToken",
      "type": "error"
    },
    {
      "inputs": [],
      "name": "MoxieBondingCurve_InvalidToken",
      "type": "error"
    },
    {
      "inputs": [],
      "name": "MoxieBondingCurve_InvalidTokenManager",
      "type": "error"
    },
    {
      "inputs": [],
      "name": "MoxieBondingCurve_InvalidVault",
      "type": "error"
    },
    {
      "inputs": [],
      "name": "MoxieBondingCurve_OnlySubjectFactory",
      "type": "error"
    },
    {
      "inputs": [],
      "name": "MoxieBondingCurve_SlippageExceedsLimit",
      "type": "error"
    },
    {
      "inputs": [],
      "name": "MoxieBondingCurve_SubjectAlreadyInitialized",
      "type": "error"
    },
    {
      "inputs": [],
      "name": "MoxieBondingCurve_SubjectNotInitialized",
      "type": "error"
    },
    {
      "inputs": [],
      "name": "NotInitializing",
      "type": "error"
    },
    {
      "inputs": [
        {
          "internalType": "address",
          "name": "token",
          "type": "address"
        }
      ],
      "name": "SafeERC20FailedOperation",
      "type": "error"
    },
    {
      "anonymous": false,
      "inputs": [
        {
          "indexed": false,
          "internalType": "address",
          "name": "_subject",
          "type": "address"
        },
        {
          "indexed": false,
          "internalType": "address",
          "name": "_subjectToken",
          "type": "address"
        },
        {
          "indexed": false,
          "internalType": "uint256",
          "name": "_initialSupply",
          "type": "uint256"
        },
        {
          "indexed": false,
          "internalType": "uint256",
          "name": "_reserve",
          "type": "uint256"
        },
        {
          "indexed": false,
          "internalType": "uint32",
          "name": "_reserveRatio",
          "type": "uint32"
        }
      ],
      "name": "BondingCurveInitialized",
      "type": "event"
    },
    {
      "anonymous": false,
      "inputs": [
        {
          "indexed": false,
          "internalType": "uint64",
          "name": "version",
          "type": "uint64"
        }
      ],
      "name": "Initialized",
      "type": "event"
    },
    {
      "anonymous": false,
      "inputs": [
        {
          "indexed": false,
          "internalType": "address",
          "name": "account",
          "type": "address"
        }
      ],
      "name": "Paused",
      "type": "event"
    },
    {
      "anonymous": false,
      "inputs": [
        {
          "indexed": true,
          "internalType": "bytes32",
          "name": "role",
          "type": "bytes32"
        },
        {
          "indexed": true,
          "internalType": "bytes32",
          "name": "previousAdminRole",
          "type": "bytes32"
        },
        {
          "indexed": true,
          "internalType": "bytes32",
          "name": "newAdminRole",
          "type": "bytes32"
        }
      ],
      "name": "RoleAdminChanged",
      "type": "event"
    },
    {
      "anonymous": false,
      "inputs": [
        {
          "indexed": true,
          "internalType": "bytes32",
          "name": "role",
          "type": "bytes32"
        },
        {
          "indexed": true,
          "internalType": "address",
          "name": "account",
          "type": "address"
        },
        {
          "indexed": true,
          "internalType": "address",
          "name": "sender",
          "type": "address"
        }
      ],
      "name": "RoleGranted",
      "type": "event"
    },
    {
      "anonymous": false,
      "inputs": [
        {
          "indexed": true,
          "internalType": "bytes32",
          "name": "role",
          "type": "bytes32"
        },
        {
          "indexed": true,
          "internalType": "address",
          "name": "account",
          "type": "address"
        },
        {
          "indexed": true,
          "internalType": "address",
          "name": "sender",
          "type": "address"
        }
      ],
      "name": "RoleRevoked",
      "type": "event"
    },
    {
      "anonymous": false,
      "inputs": [
        {
          "indexed": false,
          "internalType": "address",
          "name": "_subject",
          "type": "address"
        },
        {
          "indexed": false,
          "internalType": "address",
          "name": "_sellToken",
          "type": "address"
        },
        {
          "indexed": false,
          "internalType": "uint256",
          "name": "_sellAmount",
          "type": "uint256"
        },
        {
          "indexed": false,
          "internalType": "address",
          "name": "_buyToken",
          "type": "address"
        },
        {
          "indexed": false,
          "internalType": "uint256",
          "name": "_buyAmount",
          "type": "uint256"
        },
        {
          "indexed": false,
          "internalType": "address",
          "name": "_beneficiary",
          "type": "address"
        }
      ],
      "name": "SubjectSharePurchased",
      "type": "event"
    },
    {
      "anonymous": false,
      "inputs": [
        {
          "indexed": false,
          "internalType": "address",
          "name": "_subject",
          "type": "address"
        },
        {
          "indexed": false,
          "internalType": "address",
          "name": "_sellToken",
          "type": "address"
        },
        {
          "indexed": false,
          "internalType": "uint256",
          "name": "_sellAmount",
          "type": "uint256"
        },
        {
          "indexed": false,
          "internalType": "address",
          "name": "_buyToken",
          "type": "address"
        },
        {
          "indexed": false,
          "internalType": "uint256",
          "name": "_buyAmount",
          "type": "uint256"
        },
        {
          "indexed": false,
          "internalType": "address",
          "name": "_beneficiary",
          "type": "address"
        }
      ],
      "name": "SubjectShareSold",
      "type": "event"
    },
    {
      "anonymous": false,
      "inputs": [
        {
          "indexed": false,
          "internalType": "address",
          "name": "account",
          "type": "address"
        }
      ],
      "name": "Unpaused",
      "type": "event"
    },
    {
      "anonymous": false,
      "inputs": [
        {
          "indexed": false,
          "internalType": "address",
          "name": "_beneficiary",
          "type": "address"
        }
      ],
      "name": "UpdateBeneficiary",
      "type": "event"
    },
    {
      "anonymous": false,
      "inputs": [
        {
          "indexed": false,
          "internalType": "uint256",
          "name": "_protocolBuyFeePct",
          "type": "uint256"
        },
        {
          "indexed": false,
          "internalType": "uint256",
          "name": "_protocolSellFeePct",
          "type": "uint256"
        },
        {
          "indexed": false,
          "internalType": "uint256",
          "name": "_subjectBuyFeePct",
          "type": "uint256"
        },
        {
          "indexed": false,
          "internalType": "uint256",
          "name": "_subjectSellFeePct",
          "type": "uint256"
        }
      ],
      "name": "UpdateFees",
      "type": "event"
    },
    {
      "anonymous": false,
      "inputs": [
        {
          "indexed": false,
          "internalType": "address",
          "name": "_formula",
          "type": "address"
        }
      ],
      "name": "UpdateFormula",
      "type": "event"
    },
    {
      "inputs": [],
      "name": "DEFAULT_ADMIN_ROLE",
      "outputs": [
        {
          "internalType": "bytes32",
          "name": "",
          "type": "bytes32"
        }
      ],
      "stateMutability": "view",
      "type": "function"
    },
    {
      "inputs": [],
      "name": "PAUSE_ROLE",
      "outputs": [
        {
          "internalType": "bytes32",
          "name": "",
          "type": "bytes32"
        }
      ],
      "stateMutability": "view",
      "type": "function"
    },
    {
      "inputs": [],
      "name": "PCT_BASE",
      "outputs": [
        {
          "internalType": "uint256",
          "name": "",
          "type": "uint256"
        }
      ],
      "stateMutability": "view",
      "type": "function"
    },
    {
      "inputs": [],
      "name": "PPM",
      "outputs": [
        {
          "internalType": "uint32",
          "name": "",
          "type": "uint32"
        }
      ],
      "stateMutability": "view",
      "type": "function"
    },
    {
      "inputs": [],
      "name": "UPDATE_BENEFICIARY_ROLE",
      "outputs": [
        {
          "internalType": "bytes32",
          "name": "",
          "type": "bytes32"
        }
      ],
      "stateMutability": "view",
      "type": "function"
    },
    {
      "inputs": [],
      "name": "UPDATE_FEES_ROLE",
      "outputs": [
        {
          "internalType": "bytes32",
          "name": "",
          "type": "bytes32"
        }
      ],
      "stateMutability": "view",
      "type": "function"
    },
    {
      "inputs": [],
      "name": "UPDATE_FORMULA_ROLE",
      "outputs": [
        {
          "internalType": "bytes32",
          "name": "",
          "type": "bytes32"
        }
      ],
      "stateMutability": "view",
      "type": "function"
    },
    {
      "inputs": [
        {
          "internalType": "address",
          "name": "_subject",
          "type": "address"
        },
        {
          "internalType": "uint256",
          "name": "_depositAmount",
          "type": "uint256"
        },
        {
          "internalType": "address",
          "name": "_onBehalfOf",
          "type": "address"
        },
        {
          "internalType": "uint256",
          "name": "_minReturnAmountAfterFee",
          "type": "uint256"
        }
      ],
      "name": "buyShares",
      "outputs": [
        {
          "internalType": "uint256",
          "name": "shares_",
          "type": "uint256"
        }
      ],
      "stateMutability": "nonpayable",
      "type": "function"
    },
    {
      "inputs": [],
      "name": "feeBeneficiary",
      "outputs": [
        {
          "internalType": "address",
          "name": "",
          "type": "address"
        }
      ],
      "stateMutability": "view",
      "type": "function"
    },
    {
      "inputs": [],
      "name": "formula",
      "outputs": [
        {
          "internalType": "contract IBancorFormula",
          "name": "",
          "type": "address"
        }
      ],
      "stateMutability": "view",
      "type": "function"
    },
    {
      "inputs": [
        {
          "internalType": "bytes32",
          "name": "role",
          "type": "bytes32"
        }
      ],
      "name": "getRoleAdmin",
      "outputs": [
        {
          "internalType": "bytes32",
          "name": "",
          "type": "bytes32"
        }
      ],
      "stateMutability": "view",
      "type": "function"
    },
    {
      "inputs": [
        {
          "internalType": "bytes32",
          "name": "role",
          "type": "bytes32"
        },
        {
          "internalType": "address",
          "name": "account",
          "type": "address"
        }
      ],
      "name": "grantRole",
      "outputs": [],
      "stateMutability": "nonpayable",
      "type": "function"
    },
    {
      "inputs": [
        {
          "internalType": "bytes32",
          "name": "role",
          "type": "bytes32"
        },
        {
          "internalType": "address",
          "name": "account",
          "type": "address"
        }
      ],
      "name": "hasRole",
      "outputs": [
        {
          "internalType": "bool",
          "name": "",
          "type": "bool"
        }
      ],
      "stateMutability": "view",
      "type": "function"
    },
    {
      "inputs": [
        {
          "internalType": "address",
          "name": "_token",
          "type": "address"
        },
        {
          "internalType": "address",
          "name": "_formula",
          "type": "address"
        },
        {
          "internalType": "address",
          "name": "_owner",
          "type": "address"
        },
        {
          "internalType": "address",
          "name": "_tokenManager",
          "type": "address"
        },
        {
          "internalType": "address",
          "name": "_vault",
          "type": "address"
        },
        {
          "components": [
            {
              "internalType": "uint256",
              "name": "protocolBuyFeePct",
              "type": "uint256"
            },
            {
              "internalType": "uint256",
              "name": "protocolSellFeePct",
              "type": "uint256"
            },
            {
              "internalType": "uint256",
              "name": "subjectBuyFeePct",
              "type": "uint256"
            },
            {
              "internalType": "uint256",
              "name": "subjectSellFeePct",
              "type": "uint256"
            }
          ],
          "internalType": "struct IMoxieBondingCurve.FeeInput",
          "name": "_feeInput",
          "type": "tuple"
        },
        {
          "internalType": "address",
          "name": "_feeBeneficiary",
          "type": "address"
        },
        {
          "internalType": "address",
          "name": "_subjectFactory",
          "type": "address"
        }
      ],
      "name": "initialize",
      "outputs": [],
      "stateMutability": "nonpayable",
      "type": "function"
    },
    {
      "inputs": [
        {
          "internalType": "address",
          "name": "_subject",
          "type": "address"
        },
        {
          "internalType": "uint32",
          "name": "_reserveRatio",
          "type": "uint32"
        },
        {
          "internalType": "uint256",
          "name": "_initialSupply",
          "type": "uint256"
        },
        {
          "internalType": "uint256",
          "name": "_reserveAmount",
          "type": "uint256"
        }
      ],
      "name": "initializeSubjectBondingCurve",
      "outputs": [
        {
          "internalType": "bool",
          "name": "",
          "type": "bool"
        }
      ],
      "stateMutability": "nonpayable",
      "type": "function"
    },
    {
      "inputs": [],
      "name": "pause",
      "outputs": [],
      "stateMutability": "nonpayable",
      "type": "function"
    },
    {
      "inputs": [],
      "name": "paused",
      "outputs": [
        {
          "internalType": "bool",
          "name": "",
          "type": "bool"
        }
      ],
      "stateMutability": "view",
      "type": "function"
    },
    {
      "inputs": [],
      "name": "protocolBuyFeePct",
      "outputs": [
        {
          "internalType": "uint256",
          "name": "",
          "type": "uint256"
        }
      ],
      "stateMutability": "view",
      "type": "function"
    },
    {
      "inputs": [],
      "name": "protocolSellFeePct",
      "outputs": [
        {
          "internalType": "uint256",
          "name": "",
          "type": "uint256"
        }
      ],
      "stateMutability": "view",
      "type": "function"
    },
    {
      "inputs": [
        {
          "internalType": "bytes32",
          "name": "role",
          "type": "bytes32"
        },
        {
          "internalType": "address",
          "name": "callerConfirmation",
          "type": "address"
        }
      ],
      "name": "renounceRole",
      "outputs": [],
      "stateMutability": "nonpayable",
      "type": "function"
    },
    {
      "inputs": [
        {
          "internalType": "address",
          "name": "subject",
          "type": "address"
        }
      ],
      "name": "reserveRatio",
      "outputs": [
        {
          "internalType": "uint32",
          "name": "_reserveRatio",
          "type": "uint32"
        }
      ],
      "stateMutability": "view",
      "type": "function"
    },
    {
      "inputs": [
        {
          "internalType": "bytes32",
          "name": "role",
          "type": "bytes32"
        },
        {
          "internalType": "address",
          "name": "account",
          "type": "address"
        }
      ],
      "name": "revokeRole",
      "outputs": [],
      "stateMutability": "nonpayable",
      "type": "function"
    },
    {
      "inputs": [
        {
          "internalType": "address",
          "name": "_subject",
          "type": "address"
        },
        {
          "internalType": "uint256",
          "name": "_sellAmount",
          "type": "uint256"
        },
        {
          "internalType": "address",
          "name": "_onBehalfOf",
          "type": "address"
        },
        {
          "internalType": "uint256",
          "name": "_minReturnAmountAfterFee",
          "type": "uint256"
        }
      ],
      "name": "sellShares",
      "outputs": [
        {
          "internalType": "uint256",
          "name": "returnAmount_",
          "type": "uint256"
        }
      ],
      "stateMutability": "nonpayable",
      "type": "function"
    },
    {
      "inputs": [],
      "name": "subjectBuyFeePct",
      "outputs": [
        {
          "internalType": "uint256",
          "name": "",
          "type": "uint256"
        }
      ],
      "stateMutability": "view",
      "type": "function"
    },
    {
      "inputs": [],
      "name": "subjectFactory",
      "outputs": [
        {
          "internalType": "address",
          "name": "",
          "type": "address"
        }
      ],
      "stateMutability": "view",
      "type": "function"
    },
    {
      "inputs": [],
      "name": "subjectSellFeePct",
      "outputs": [
        {
          "internalType": "uint256",
          "name": "",
          "type": "uint256"
        }
      ],
      "stateMutability": "view",
      "type": "function"
    },
    {
      "inputs": [
        {
          "internalType": "bytes4",
          "name": "interfaceId",
          "type": "bytes4"
        }
      ],
      "name": "supportsInterface",
      "outputs": [
        {
          "internalType": "bool",
          "name": "",
          "type": "bool"
        }
      ],
      "stateMutability": "view",
      "type": "function"
    },
    {
      "inputs": [],
      "name": "token",
      "outputs": [
        {
          "internalType": "contract IERC20Extended",
          "name": "",
          "type": "address"
        }
      ],
      "stateMutability": "view",
      "type": "function"
    },
    {
      "inputs": [],
      "name": "tokenManager",
      "outputs": [
        {
          "internalType": "contract ITokenManager",
          "name": "",
          "type": "address"
        }
      ],
      "stateMutability": "view",
      "type": "function"
    },
    {
      "inputs": [],
      "name": "unpause",
      "outputs": [],
      "stateMutability": "nonpayable",
      "type": "function"
    },
    {
      "inputs": [
        {
          "internalType": "address",
          "name": "_feeBeneficiary",
          "type": "address"
        }
      ],
      "name": "updateFeeBeneficiary",
      "outputs": [],
      "stateMutability": "nonpayable",
      "type": "function"
    },
    {
      "inputs": [
        {
          "components": [
            {
              "internalType": "uint256",
              "name": "protocolBuyFeePct",
              "type": "uint256"
            },
            {
              "internalType": "uint256",
              "name": "protocolSellFeePct",
              "type": "uint256"
            },
            {
              "internalType": "uint256",
              "name": "subjectBuyFeePct",
              "type": "uint256"
            },
            {
              "internalType": "uint256",
              "name": "subjectSellFeePct",
              "type": "uint256"
            }
          ],
          "internalType": "struct IMoxieBondingCurve.FeeInput",
          "name": "_feeInput",
          "type": "tuple"
        }
      ],
      "name": "updateFees",
      "outputs": [],
      "stateMutability": "nonpayable",
      "type": "function"
    },
    {
      "inputs": [
        {
          "internalType": "address",
          "name": "_formula",
          "type": "address"
        }
      ],
      "name": "updateFormula",
      "outputs": [],
      "stateMutability": "nonpayable",
      "type": "function"
    },
    {
      "inputs": [],
      "name": "vault",
      "outputs": [
        {
          "internalType": "contract IVault",
          "name": "",
          "type": "address"
        }
      ],
      "stateMutability": "view",
      "type": "function"
    }
  ],
  "bytecode": "0x608060405234801561001057600080fd5b50613d70806100206000396000f3fe608060405234801561001057600080fd5b50600436106102065760003560e01c806360e14b601161011a578063a217fddf116100ad578063dbf495611161007c578063dbf49561146105b9578063e7af32ba146105d7578063fbfa77cf146105f5578063fc0c546a14610613578063fc157cb41461063157610206565b8063a217fddf14610533578063ba6da00114610551578063d547741f14610581578063d5b49a711461059d57610206565b806389d6d0de116100e957806389d6d0de146104ab57806391d14854146104c9578063951ef92d146104f957806398a9c92b1461051757610206565b806360e14b60146104375780636c57289314610455578063770d633a146104715780638456cb59146104a157610206565b806336568abe1161019d578063492fb3431161016c578063492fb3431461038f5780634b75f54f146103ad57806352fd87e5146103cb5780635b933ee6146103fb5780635c975abb1461041957610206565b806336568abe1461032d578063389ed267146103495780633f4ba83a1461036757806341644f8c1461037157610206565b806324234532116101d95780632423453214610293578063248a9ca3146102c35780632a709b14146102f35780632f2ff15d1461031157610206565b806301ffc9a71461020b5780630d720bbc1461023b5780630e6c7a66146102595780630e85d27714610275575b600080fd5b61022560048036038101906102209190613168565b61064f565b60405161023291906131b0565b60405180910390f35b6102436106c9565b60405161025091906131ea565b60405180910390f35b610273600480360381019061026e91906133a2565b6106d0565b005b61027d610a44565b60405161028a9190613473565b60405180910390f35b6102ad60048036038101906102a8919061348e565b610a68565b6040516102ba91906131ea565b60405180910390f35b6102dd60048036038101906102d891906134e7565b610a8b565b6040516102ea9190613473565b60405180910390f35b6102fb610ab9565b6040516103089190613573565b60405180910390f35b61032b6004803603810190610326919061358e565b610adf565b005b6103476004803603810190610342919061358e565b610b01565b005b610351610b7c565b60405161035e9190613473565b60405180910390f35b61036f610ba0565b005b610379610bd5565b6040516103869190613473565b60405180910390f35b610397610bf9565b6040516103a491906135dd565b60405180910390f35b6103b5610c1f565b6040516103c29190613619565b60405180910390f35b6103e560048036038101906103e09190613634565b610c45565b6040516103f291906136aa565b60405180910390f35b610403610e58565b60405161041091906136aa565b60405180910390f35b610421610e5e565b60405161042e91906131b0565b60405180910390f35b61043f610e83565b60405161044c9190613473565b60405180910390f35b61046f600480360381019061046a919061348e565b610ea7565b005b61048b60048036038101906104869190613634565b610f1e565b60405161049891906136aa565b60405180910390f35b6104a9611132565b005b6104b3611167565b6040516104c091906136aa565b60405180910390f35b6104e360048036038101906104de919061358e565b61116d565b6040516104f091906131b0565b60405180910390f35b6105016111e6565b60405161050e91906136aa565b60405180910390f35b610531600480360381019061052c91906136c5565b6111ec565b005b61053b61123f565b6040516105489190613473565b60405180910390f35b61056b6004803603810190610566919061371e565b611246565b60405161057891906131b0565b60405180910390f35b61059b6004803603810190610596919061358e565b6117dd565b005b6105b760048036038101906105b2919061348e565b6117ff565b005b6105c1611876565b6040516105ce91906136aa565b60405180910390f35b6105df61187c565b6040516105ec91906135dd565b60405180910390f35b6105fd6118a2565b60405161060a91906137a6565b60405180910390f35b61061b6118c8565b60405161062891906137e2565b60405180910390f35b6106396118ec565b60405161064691906136aa565b60405180910390f35b60007f7965db0b000000000000000000000000000000000000000000000000000000007bffffffffffffffffffffffffffffffffffffffffffffffffffffffff1916827bffffffffffffffffffffffffffffffffffffffffffffffffffffffff191614806106c257506106c1826118f8565b5b9050919050565b620f424081565b60006106da611962565b905060008160000160089054906101000a900460ff1615905060008260000160009054906101000a900467ffffffffffffffff1690506000808267ffffffffffffffff161480156107285750825b9050600060018367ffffffffffffffff1614801561075d575060003073ffffffffffffffffffffffffffffffffffffffff163b145b90508115801561076b575080155b156107a2576040517ff92ee8a900000000000000000000000000000000000000000000000000000000815260040160405180910390fd5b60018560000160006101000a81548167ffffffffffffffff021916908367ffffffffffffffff16021790555083156107f25760018560000160086101000a81548160ff0219169083151502179055505b6107fa61198a565b610802611994565b6108118d8d8d8d8d8c8c6119a6565b61081a88611b6f565b8c6000806101000a81548173ffffffffffffffffffffffffffffffffffffffff021916908373ffffffffffffffffffffffffffffffffffffffff1602179055508b600160006101000a81548173ffffffffffffffffffffffffffffffffffffffff021916908373ffffffffffffffffffffffffffffffffffffffff16021790555089600260006101000a81548173ffffffffffffffffffffffffffffffffffffffff021916908373ffffffffffffffffffffffffffffffffffffffff16021790555088600360006101000a81548173ffffffffffffffffffffffffffffffffffffffff021916908373ffffffffffffffffffffffffffffffffffffffff160217905550876000015160048190555087602001516005819055508760400151600681905550876060015160078190555086600860006101000a81548173ffffffffffffffffffffffffffffffffffffffff021916908373ffffffffffffffffffffffffffffffffffffffff16021790555085600960006101000a81548173ffffffffffffffffffffffffffffffffffffffff021916908373ffffffffffffffffffffffffffffffffffffffff1602179055506109d86000801b8c611bea565b508315610a355760008560000160086101000a81548160ff0219169083151502179055507fc7f505b2f371ae2175ee4913f4499e1f2633a7b5936321eed1cdaeb6115181d26001604051610a2c919061384c565b60405180910390a15b50505050505050505050505050565b7fbfb76d8d43f55efe58544ea32af187792a7bdb983850d8fed33478266eec3cbb81565b600a6020528060005260406000206000915054906101000a900463ffffffff1681565b600080610a96611ceb565b905080600001600084815260200190815260200160002060010154915050919050565b600260009054906101000a900473ffffffffffffffffffffffffffffffffffffffff1681565b610ae882610a8b565b610af181611d13565b610afb8383611bea565b50505050565b610b09611d27565b73ffffffffffffffffffffffffffffffffffffffff168173ffffffffffffffffffffffffffffffffffffffff1614610b6d576040517f6697b23200000000000000000000000000000000000000000000000000000000815260040160405180910390fd5b610b778282611d2f565b505050565b7f139c2898040ef16910dc9f44dc697df79363da767d8bc92f2e310312b816e46d81565b7f139c2898040ef16910dc9f44dc697df79363da767d8bc92f2e310312b816e46d610bca81611d13565b610bd2611e31565b50565b7ff7ea2b80c7b6a2cab2c11d2290cb005c3748397358a25e17113658c83b73259381565b600860009054906101000a900473ffffffffffffffffffffffffffffffffffffffff1681565b600160009054906101000a900473ffffffffffffffffffffffffffffffffffffffff1681565b6000610c4f611ea3565b610c5885611ee4565b15610c8f576040517fa7ef168800000000000000000000000000000000000000000000000000000000815260040160405180910390fd5b60008403610cc8576040517e6a79a400000000000000000000000000000000000000000000000000000000815260040160405180910390fd5b6000600a60008773ffffffffffffffffffffffffffffffffffffffff1673ffffffffffffffffffffffffffffffffffffffff16815260200190815260200160002060009054906101000a900463ffffffff16905060008163ffffffff1603610d5c576040517f85b1b9c700000000000000000000000000000000000000000000000000000000815260040160405180910390fd5b6000600260009054906101000a900473ffffffffffffffffffffffffffffffffffffffff1673ffffffffffffffffffffffffffffffffffffffff1663e4860339886040518263ffffffff1660e01b8152600401610db991906135dd565b6020604051808303816000875af1158015610dd8573d6000803e3d6000fd5b505050506040513d601f19601f82011682018060405250810190610dfc919061387c565b9050610e0781611ee4565b15610e3e576040517ffcde723100000000000000000000000000000000000000000000000000000000815260040160405180910390fd5b610e4c818787878b87611f1c565b92505050949350505050565b60075481565b600080610e696124f6565b90508060000160009054906101000a900460ff1691505090565b7f5f9be2932ed3a723f295a763be1804c7ebfd1a41c1348fb8bdf5be1c5cdca82281565b7ff7ea2b80c7b6a2cab2c11d2290cb005c3748397358a25e17113658c83b732593610ed181611d13565b610eda82611ee4565b15610f11576040517fadfdb05b00000000000000000000000000000000000000000000000000000000815260040160405180910390fd5b610f1a8261251e565b5050565b6000610f28611ea3565b610f3185611ee4565b15610f68576040517fa7ef168800000000000000000000000000000000000000000000000000000000815260040160405180910390fd5b60008403610fa2576040517f2dc1479300000000000000000000000000000000000000000000000000000000815260040160405180910390fd5b6000600a60008773ffffffffffffffffffffffffffffffffffffffff1673ffffffffffffffffffffffffffffffffffffffff16815260200190815260200160002060009054906101000a900463ffffffff16905060008163ffffffff1603611036576040517f85b1b9c700000000000000000000000000000000000000000000000000000000815260040160405180910390fd5b6000600260009054906101000a900473ffffffffffffffffffffffffffffffffffffffff1673ffffffffffffffffffffffffffffffffffffffff1663e4860339886040518263ffffffff1660e01b815260040161109391906135dd565b6020604051808303816000875af11580156110b2573d6000803e3d6000fd5b505050506040513d601f19601f820116820180604052508101906110d6919061387c565b90506110e181611ee4565b15611118576040517ffcde723100000000000000000000000000000000000000000000000000000000815260040160405180910390fd5b611126818787878b87612599565b92505050949350505050565b7f139c2898040ef16910dc9f44dc697df79363da767d8bc92f2e310312b816e46d61115c81611d13565b611164612a6d565b50565b60055481565b600080611178611ceb565b905080600001600085815260200190815260200160002060000160008473ffffffffffffffffffffffffffffffffffffffff1673ffffffffffffffffffffffffffffffffffffffff16815260200190815260200160002060009054906101000a900460ff1691505092915050565b60065481565b7f5f9be2932ed3a723f295a763be1804c7ebfd1a41c1348fb8bdf5be1c5cdca82261121681611d13565b61121f82611b6f565b61123b8260000151836020015184604001518560600151612adf565b5050565b6000801b81565b6000611250611ea3565b61125985611ee4565b15611290576040517fa7ef168800000000000000000000000000000000000000000000000000000000815260040160405180910390fd5b600960009054906101000a900473ffffffffffffffffffffffffffffffffffffffff1673ffffffffffffffffffffffffffffffffffffffff163373ffffffffffffffffffffffffffffffffffffffff1614611317576040517f6802704600000000000000000000000000000000000000000000000000000000815260040160405180910390fd5b61132084612b46565b611356576040517f39a1d18100000000000000000000000000000000000000000000000000000000815260040160405180910390fd5b6000600a60008773ffffffffffffffffffffffffffffffffffffffff1673ffffffffffffffffffffffffffffffffffffffff16815260200190815260200160002060009054906101000a900463ffffffff1663ffffffff16146113e5576040517f86d5f90700000000000000000000000000000000000000000000000000000000815260040160405180910390fd5b83600a60008773ffffffffffffffffffffffffffffffffffffffff1673ffffffffffffffffffffffffffffffffffffffff16815260200190815260200160002060006101000a81548163ffffffff021916908363ffffffff1602179055506000600260009054906101000a900473ffffffffffffffffffffffffffffffffffffffff1673ffffffffffffffffffffffffffffffffffffffff1663e4860339876040518263ffffffff1660e01b81526004016114a091906135dd565b6020604051808303816000875af11580156114bf573d6000803e3d6000fd5b505050506040513d601f19601f820116820180604052508101906114e3919061387c565b90506114ee81611ee4565b15611525576040517ffcde723100000000000000000000000000000000000000000000000000000000815260040160405180910390fd5b7f3e8bb74e6a03753bf16c1c2737daabee1be3548b0f638894f10f382560d1d076868286868960405161155c9594939291906138a9565b60405180910390a160008173ffffffffffffffffffffffffffffffffffffffff166318160ddd6040518163ffffffff1660e01b8152600401602060405180830381865afa1580156115b1573d6000803e3d6000fd5b505050506040513d601f19601f820116820180604052508101906115d59190613911565b9050808514611610576040517f849e9ad400000000000000000000000000000000000000000000000000000000815260040160405180910390fd5b61165d33308660008054906101000a900473ffffffffffffffffffffffffffffffffffffffff1673ffffffffffffffffffffffffffffffffffffffff16612b62909392919063ffffffff16565b60008054906101000a900473ffffffffffffffffffffffffffffffffffffffff1673ffffffffffffffffffffffffffffffffffffffff1663095ea7b3600360009054906101000a900473ffffffffffffffffffffffffffffffffffffffff16866040518363ffffffff1660e01b81526004016116da92919061393e565b6020604051808303816000875af11580156116f9573d6000803e3d6000fd5b505050506040513d601f19601f8201168201806040525081019061171d9190613993565b50600360009054906101000a900473ffffffffffffffffffffffffffffffffffffffff1673ffffffffffffffffffffffffffffffffffffffff16638340f5498360008054906101000a900473ffffffffffffffffffffffffffffffffffffffff16876040518463ffffffff1660e01b815260040161179d939291906139c0565b600060405180830381600087803b1580156117b757600080fd5b505af11580156117cb573d6000803e3d6000fd5b50505050600192505050949350505050565b6117e682610a8b565b6117ef81611d13565b6117f98383611d2f565b50505050565b7fbfb76d8d43f55efe58544ea32af187792a7bdb983850d8fed33478266eec3cbb61182981611d13565b61183282611ee4565b15611869576040517fb1710af000000000000000000000000000000000000000000000000000000000815260040160405180910390fd5b61187282612be4565b5050565b60045481565b600960009054906101000a900473ffffffffffffffffffffffffffffffffffffffff1681565b600360009054906101000a900473ffffffffffffffffffffffffffffffffffffffff1681565b60008054906101000a900473ffffffffffffffffffffffffffffffffffffffff1681565b670de0b6b3a764000081565b60007f01ffc9a7000000000000000000000000000000000000000000000000000000007bffffffffffffffffffffffffffffffffffffffffffffffffffffffff1916827bffffffffffffffffffffffffffffffffffffffffffffffffffffffff1916149050919050565b60007ff0c57e16840df040f15088dc2f81fe391c3923bec73e23a9662efc9c229c6a00905090565b611992612c5f565b565b61199c612c5f565b6119a4612c9f565b565b6119af87611ee4565b156119e6576040517f1c8c425400000000000000000000000000000000000000000000000000000000815260040160405180910390fd5b6119ef86611ee4565b15611a26576040517fb1710af000000000000000000000000000000000000000000000000000000000815260040160405180910390fd5b611a2f85611ee4565b15611a66576040517f3c77158e00000000000000000000000000000000000000000000000000000000815260040160405180910390fd5b611a6f84611ee4565b15611aa6576040517f926d717700000000000000000000000000000000000000000000000000000000815260040160405180910390fd5b611aaf83611ee4565b15611ae6576040517f466e460200000000000000000000000000000000000000000000000000000000815260040160405180910390fd5b611aef81611ee4565b15611b26576040517fee2f6f2a00000000000000000000000000000000000000000000000000000000815260040160405180910390fd5b611b2f82611ee4565b15611b66576040517fadfdb05b00000000000000000000000000000000000000000000000000000000815260040160405180910390fd5b50505050505050565b611b8b81604001518260000151611b869190613a26565b612cd3565b1580611bb05750611bae81606001518260200151611ba99190613a26565b612cd3565b155b15611be7576040517f470562b900000000000000000000000000000000000000000000000000000000815260040160405180910390fd5b50565b600080611bf5611ceb565b9050611c01848461116d565b611cdf57600181600001600086815260200190815260200160002060000160008573ffffffffffffffffffffffffffffffffffffffff1673ffffffffffffffffffffffffffffffffffffffff16815260200190815260200160002060006101000a81548160ff021916908315150217905550611c7b611d27565b73ffffffffffffffffffffffffffffffffffffffff168373ffffffffffffffffffffffffffffffffffffffff16857f2f8788117e7eff1d82e926ec794901d17c78024a50270940304540a733656f0d60405160405180910390a46001915050611ce5565b60009150505b92915050565b60007f02dd7bc7dec4dceedda775e58dd541e08a116c6c53815c0bd028192f7b626800905090565b611d2481611d1f611d27565b612ce7565b50565b600033905090565b600080611d3a611ceb565b9050611d46848461116d565b15611e2557600081600001600086815260200190815260200160002060000160008573ffffffffffffffffffffffffffffffffffffffff1673ffffffffffffffffffffffffffffffffffffffff16815260200190815260200160002060006101000a81548160ff021916908315150217905550611dc1611d27565b73ffffffffffffffffffffffffffffffffffffffff168373ffffffffffffffffffffffffffffffffffffffff16857ff6391f5c32d9c69d2a47ea670b442974b53935d1edc7fd64eb21e047a839171b60405160405180910390a46001915050611e2b565b60009150505b92915050565b611e39612d38565b6000611e436124f6565b905060008160000160006101000a81548160ff0219169083151502179055507f5db9ee0a495bf2e6ff9c91a7834c1ba4fdd244a5e8aa4e537bd38aeae4b073aa611e8b611d27565b604051611e9891906135dd565b60405180910390a150565b611eab610e5e565b15611ee2576040517fd93c066500000000000000000000000000000000000000000000000000000000815260040160405180910390fd5b565b60008073ffffffffffffffffffffffffffffffffffffffff168273ffffffffffffffffffffffffffffffffffffffff16149050919050565b6000611f6b33308860008054906101000a900473ffffffffffffffffffffffffffffffffffffffff1673ffffffffffffffffffffffffffffffffffffffff16612b62909392919063ffffffff16565b600080611f7788612d78565b91509150611fc6858260008054906101000a900473ffffffffffffffffffffffffffffffffffffffff1673ffffffffffffffffffffffffffffffffffffffff16612dc69092919063ffffffff16565b612033600860009054906101000a900473ffffffffffffffffffffffffffffffffffffffff168360008054906101000a900473ffffffffffffffffffffffffffffffffffffffff1673ffffffffffffffffffffffffffffffffffffffff16612dc69092919063ffffffff16565b600082828a6120429190613a5a565b61204c9190613a5a565b905060008054906101000a900473ffffffffffffffffffffffffffffffffffffffff1673ffffffffffffffffffffffffffffffffffffffff1663095ea7b3600360009054906101000a900473ffffffffffffffffffffffffffffffffffffffff16836040518363ffffffff1660e01b81526004016120cb92919061393e565b6020604051808303816000875af11580156120ea573d6000803e3d6000fd5b505050506040513d601f19601f8201168201806040525081019061210e9190613993565b506000600360009054906101000a900473ffffffffffffffffffffffffffffffffffffffff1673ffffffffffffffffffffffffffffffffffffffff1663f7888aec8c60008054906101000a900473ffffffffffffffffffffffffffffffffffffffff166040518363ffffffff1660e01b815260040161218e929190613a8e565b6020604051808303816000875af11580156121ad573d6000803e3d6000fd5b505050506040513d601f19601f820116820180604052508101906121d19190613911565b905060008b73ffffffffffffffffffffffffffffffffffffffff166318160ddd6040518163ffffffff1660e01b8152600401602060405180830381865afa158015612220573d6000803e3d6000fd5b505050506040513d601f19601f820116820180604052508101906122449190613911565b9050600360009054906101000a900473ffffffffffffffffffffffffffffffffffffffff1673ffffffffffffffffffffffffffffffffffffffff16638340f5498d60008054906101000a900473ffffffffffffffffffffffffffffffffffffffff16866040518463ffffffff1660e01b81526004016122c5939291906139c0565b600060405180830381600087803b1580156122df57600080fd5b505af11580156122f3573d6000803e3d6000fd5b50505050600160009054906101000a900473ffffffffffffffffffffffffffffffffffffffff1673ffffffffffffffffffffffffffffffffffffffff166329a00e7c82848a876040518563ffffffff1660e01b81526004016123589493929190613ab7565b602060405180830381865afa158015612375573d6000803e3d6000fd5b505050506040513d601f19601f820116820180604052508101906123999190613911565b9550888610156123d5576040517f13115b2900000000000000000000000000000000000000000000000000000000815260040160405180910390fd5b6123de8a611ee4565b61248657600260009054906101000a900473ffffffffffffffffffffffffffffffffffffffff1673ffffffffffffffffffffffffffffffffffffffff1663c6c3bbe6898c896040518463ffffffff1660e01b8152600401612441939291906139c0565b6020604051808303816000875af1158015612460573d6000803e3d6000fd5b505050506040513d601f19601f820116820180604052508101906124849190613993565b505b7fab7844fa0fe8907c50c8c2011a6471669afa144bcbbfcf0a1f9d08f77065f0858860008054906101000a900473ffffffffffffffffffffffffffffffffffffffff168d8f8a8f6040516124df96959493929190613afc565b60405180910390a150505050509695505050505050565b60007fcd5ed15c6e187e77e9aee88184c21f4f2182ab5827cb3b7e07fbedcd63f03300905090565b80600860006101000a81548173ffffffffffffffffffffffffffffffffffffffff021916908373ffffffffffffffffffffffffffffffffffffffff1602179055507fe6131a64e93e9aa4ff38892c34d563c06dcc1e03b3d6897cc65f0903e2ad68488160405161258e91906135dd565b60405180910390a150565b6000808773ffffffffffffffffffffffffffffffffffffffff166318160ddd6040518163ffffffff1660e01b8152600401602060405180830381865afa1580156125e7573d6000803e3d6000fd5b505050506040513d601f19601f8201168201806040525081019061260b9190613911565b90506000600360009054906101000a900473ffffffffffffffffffffffffffffffffffffffff1673ffffffffffffffffffffffffffffffffffffffff1663f7888aec8a60008054906101000a900473ffffffffffffffffffffffffffffffffffffffff166040518363ffffffff1660e01b815260040161268c929190613a8e565b6020604051808303816000875af11580156126ab573d6000803e3d6000fd5b505050506040513d601f19601f820116820180604052508101906126cf9190613911565b90506000600160009054906101000a900473ffffffffffffffffffffffffffffffffffffffff1673ffffffffffffffffffffffffffffffffffffffff166349f9b0f78484888d6040518563ffffffff1660e01b81526004016127349493929190613ab7565b602060405180830381865afa158015612751573d6000803e3d6000fd5b505050506040513d601f19601f820116820180604052508101906127759190613911565b905060008061278383612e45565b915091508181846127949190613a5a565b61279e9190613a5a565b9550888610156127da576040517f13115b2900000000000000000000000000000000000000000000000000000000815260040160405180910390fd5b7f9e20e9cbfd51cdd34a2163a0435df07c7fde8cabc7ab4ca38448bd01d317b697888d8d60008054906101000a900473ffffffffffffffffffffffffffffffffffffffff168a8f60405161283396959493929190613afc565b60405180910390a18b73ffffffffffffffffffffffffffffffffffffffff166379cc6790338d6040518363ffffffff1660e01b815260040161287692919061393e565b600060405180830381600087803b15801561289057600080fd5b505af11580156128a4573d6000803e3d6000fd5b50505050600360009054906101000a900473ffffffffffffffffffffffffffffffffffffffff1673ffffffffffffffffffffffffffffffffffffffff1663f18d03cc8d60008054906101000a900473ffffffffffffffffffffffffffffffffffffffff1630876040518563ffffffff1660e01b81526004016129299493929190613b5d565b600060405180830381600087803b15801561294357600080fd5b505af1158015612957573d6000803e3d6000fd5b505050506129a6888260008054906101000a900473ffffffffffffffffffffffffffffffffffffffff1673ffffffffffffffffffffffffffffffffffffffff16612dc69092919063ffffffff16565b612a13600860009054906101000a900473ffffffffffffffffffffffffffffffffffffffff168360008054906101000a900473ffffffffffffffffffffffffffffffffffffffff1673ffffffffffffffffffffffffffffffffffffffff16612dc69092919063ffffffff16565b612a5e8a8760008054906101000a900473ffffffffffffffffffffffffffffffffffffffff1673ffffffffffffffffffffffffffffffffffffffff16612dc69092919063ffffffff16565b50505050509695505050505050565b612a75611ea3565b6000612a7f6124f6565b905060018160000160006101000a81548160ff0219169083151502179055507f62e78cea01bee320cd4e420270b5ea74000d11b0c9f74754ebdbfc544b05a258612ac7611d27565b604051612ad491906135dd565b60405180910390a150565b836004819055508260058190555081600681905550806007819055507f5c3aee3d65f7eb02cded951435d06b06ef307bc7f57b98975c4a41dc116e711c600454600554600654600754604051612b389493929190613ba2565b60405180910390a150505050565b6000620f424063ffffffff168263ffffffff1611159050919050565b612bde848573ffffffffffffffffffffffffffffffffffffffff166323b872dd868686604051602401612b97939291906139c0565b604051602081830303815290604052915060e01b6020820180517bffffffffffffffffffffffffffffffffffffffffffffffffffffffff8381831617835250505050612e93565b50505050565b80600160006101000a81548173ffffffffffffffffffffffffffffffffffffffff021916908373ffffffffffffffffffffffffffffffffffffffff1602179055507f050a79a49cc1dc3aeeccd8636685ad0469db41a9bd51254a34fc1cf616693d4181604051612c5491906135dd565b60405180910390a150565b612c67612f2a565b612c9d576040517fd7e6bcf800000000000000000000000000000000000000000000000000000000815260040160405180910390fd5b565b612ca7612c5f565b6000612cb16124f6565b905060008160000160006101000a81548160ff02191690831515021790555050565b6000670de0b6b3a764000082109050919050565b612cf1828261116d565b612d345780826040517fe2517d3f000000000000000000000000000000000000000000000000000000008152600401612d2b929190613be7565b60405180910390fd5b5050565b612d40610e5e565b612d76576040517f8dfc202b00000000000000000000000000000000000000000000000000000000815260040160405180910390fd5b565b600080670de0b6b3a764000060045484612d929190613c10565b612d9c9190613c81565b9150670de0b6b3a764000060065484612db59190613c10565b612dbf9190613c81565b9050915091565b612e40838473ffffffffffffffffffffffffffffffffffffffff1663a9059cbb8585604051602401612df992919061393e565b604051602081830303815290604052915060e01b6020820180517bffffffffffffffffffffffffffffffffffffffffffffffffffffffff8381831617835250505050612e93565b505050565b600080670de0b6b3a764000060055484612e5f9190613c10565b612e699190613c81565b9150670de0b6b3a764000060075484612e829190613c10565b612e8c9190613c81565b9050915091565b6000612ebe828473ffffffffffffffffffffffffffffffffffffffff16612f4a90919063ffffffff16565b90506000815114158015612ee3575080806020019051810190612ee19190613993565b155b15612f2557826040517f5274afe7000000000000000000000000000000000000000000000000000000008152600401612f1c91906135dd565b60405180910390fd5b505050565b6000612f34611962565b60000160089054906101000a900460ff16905090565b6060612f5883836000612f60565b905092915050565b606081471015612fa757306040517fcd786059000000000000000000000000000000000000000000000000000000008152600401612f9e91906135dd565b60405180910390fd5b6000808573ffffffffffffffffffffffffffffffffffffffff168486604051612fd09190613d23565b60006040518083038185875af1925050503d806000811461300d576040519150601f19603f3d011682016040523d82523d6000602084013e613012565b606091505b509150915061302286838361302d565b925050509392505050565b6060826130425761303d826130bc565b6130b4565b6000825114801561306a575060008473ffffffffffffffffffffffffffffffffffffffff163b145b156130ac57836040517f9996b3150000000000000000000000000000000000000000000000000000000081526004016130a391906135dd565b60405180910390fd5b8190506130b5565b5b9392505050565b6000815111156130cf5780518082602001fd5b6040517f1425ea4200000000000000000000000000000000000000000000000000000000815260040160405180910390fd5b6000604051905090565b600080fd5b60007fffffffff0000000000000000000000000000000000000000000000000000000082169050919050565b61314581613110565b811461315057600080fd5b50565b6000813590506131628161313c565b92915050565b60006020828403121561317e5761317d61310b565b5b600061318c84828501613153565b91505092915050565b60008115159050919050565b6131aa81613195565b82525050565b60006020820190506131c560008301846131a1565b92915050565b600063ffffffff82169050919050565b6131e4816131cb565b82525050565b60006020820190506131ff60008301846131db565b92915050565b600073ffffffffffffffffffffffffffffffffffffffff82169050919050565b600061323082613205565b9050919050565b61324081613225565b811461324b57600080fd5b50565b60008135905061325d81613237565b92915050565b600080fd5b6000601f19601f8301169050919050565b7f4e487b7100000000000000000000000000000000000000000000000000000000600052604160045260246000fd5b6132b182613268565b810181811067ffffffffffffffff821117156132d0576132cf613279565b5b80604052505050565b60006132e3613101565b90506132ef82826132a8565b919050565b6000819050919050565b613307816132f4565b811461331257600080fd5b50565b600081359050613324816132fe565b92915050565b6000608082840312156133405761333f613263565b5b61334a60806132d9565b9050600061335a84828501613315565b600083015250602061336e84828501613315565b602083015250604061338284828501613315565b604083015250606061339684828501613315565b60608301525092915050565b600080600080600080600080610160898b0312156133c3576133c261310b565b5b60006133d18b828c0161324e565b98505060206133e28b828c0161324e565b97505060406133f38b828c0161324e565b96505060606134048b828c0161324e565b95505060806134158b828c0161324e565b94505060a06134268b828c0161332a565b9350506101206134388b828c0161324e565b92505061014061344a8b828c0161324e565b9150509295985092959890939650565b6000819050919050565b61346d8161345a565b82525050565b60006020820190506134886000830184613464565b92915050565b6000602082840312156134a4576134a361310b565b5b60006134b28482850161324e565b91505092915050565b6134c48161345a565b81146134cf57600080fd5b50565b6000813590506134e1816134bb565b92915050565b6000602082840312156134fd576134fc61310b565b5b600061350b848285016134d2565b91505092915050565b6000819050919050565b600061353961353461352f84613205565b613514565b613205565b9050919050565b600061354b8261351e565b9050919050565b600061355d82613540565b9050919050565b61356d81613552565b82525050565b60006020820190506135886000830184613564565b92915050565b600080604083850312156135a5576135a461310b565b5b60006135b3858286016134d2565b92505060206135c48582860161324e565b9150509250929050565b6135d781613225565b82525050565b60006020820190506135f260008301846135ce565b92915050565b600061360382613540565b9050919050565b613613816135f8565b82525050565b600060208201905061362e600083018461360a565b92915050565b6000806000806080858703121561364e5761364d61310b565b5b600061365c8782880161324e565b945050602061366d87828801613315565b935050604061367e8782880161324e565b925050606061368f87828801613315565b91505092959194509250565b6136a4816132f4565b82525050565b60006020820190506136bf600083018461369b565b92915050565b6000608082840312156136db576136da61310b565b5b60006136e98482850161332a565b91505092915050565b6136fb816131cb565b811461370657600080fd5b50565b600081359050613718816136f2565b92915050565b600080600080608085870312156137385761373761310b565b5b60006137468782880161324e565b945050602061375787828801613709565b935050604061376887828801613315565b925050606061377987828801613315565b91505092959194509250565b600061379082613540565b9050919050565b6137a081613785565b82525050565b60006020820190506137bb6000830184613797565b92915050565b60006137cc82613540565b9050919050565b6137dc816137c1565b82525050565b60006020820190506137f760008301846137d3565b92915050565b6000819050919050565b600067ffffffffffffffff82169050919050565b600061383661383161382c846137fd565b613514565b613807565b9050919050565b6138468161381b565b82525050565b6000602082019050613861600083018461383d565b92915050565b60008151905061387681613237565b92915050565b6000602082840312156138925761389161310b565b5b60006138a084828501613867565b91505092915050565b600060a0820190506138be60008301886135ce565b6138cb60208301876135ce565b6138d8604083018661369b565b6138e5606083018561369b565b6138f260808301846131db565b9695505050505050565b60008151905061390b816132fe565b92915050565b6000602082840312156139275761392661310b565b5b6000613935848285016138fc565b91505092915050565b600060408201905061395360008301856135ce565b613960602083018461369b565b9392505050565b61397081613195565b811461397b57600080fd5b50565b60008151905061398d81613967565b92915050565b6000602082840312156139a9576139a861310b565b5b60006139b78482850161397e565b91505092915050565b60006060820190506139d560008301866135ce565b6139e260208301856135ce565b6139ef604083018461369b565b949350505050565b7f4e487b7100000000000000000000000000000000000000000000000000000000600052601160045260246000fd5b6000613a31826132f4565b9150613a3c836132f4565b9250828201905080821115613a5457613a536139f7565b5b92915050565b6000613a65826132f4565b9150613a70836132f4565b9250828203905081811115613a8857613a876139f7565b5b92915050565b6000604082019050613aa360008301856135ce565b613ab060208301846135ce565b9392505050565b6000608082019050613acc600083018761369b565b613ad9602083018661369b565b613ae660408301856131db565b613af3606083018461369b565b95945050505050565b600060c082019050613b1160008301896135ce565b613b1e60208301886135ce565b613b2b604083018761369b565b613b3860608301866135ce565b613b45608083018561369b565b613b5260a08301846135ce565b979650505050505050565b6000608082019050613b7260008301876135ce565b613b7f60208301866135ce565b613b8c60408301856135ce565b613b99606083018461369b565b95945050505050565b6000608082019050613bb7600083018761369b565b613bc4602083018661369b565b613bd1604083018561369b565b613bde606083018461369b565b95945050505050565b6000604082019050613bfc60008301856135ce565b613c096020830184613464565b9392505050565b6000613c1b826132f4565b9150613c26836132f4565b9250828202613c34816132f4565b91508282048414831517613c4b57613c4a6139f7565b5b5092915050565b7f4e487b7100000000000000000000000000000000000000000000000000000000600052601260045260246000fd5b6000613c8c826132f4565b9150613c97836132f4565b925082613ca757613ca6613c52565b5b828204905092915050565b600081519050919050565b600081905092915050565b60005b83811015613ce6578082015181840152602081019050613ccb565b60008484015250505050565b6000613cfd82613cb2565b613d078185613cbd565b9350613d17818560208601613cc8565b80840191505092915050565b6000613d2f8284613cf2565b91508190509291505056fea2646970667358221220ffb531fb59542db0cd1e504581d903042cfc6b3969a69b563fe384b03bf4830d64736f6c63430008180033",
  "linkReferences": {},
  "deployedLinkReferences": {}
}