{
  "_format": "hh-sol-artifact-1",
  "contractName": "Vault",
  "sourceName": "contracts/Vault.sol",
  "abi": [
    {
      "inputs": [],
      "name": "AccessControlBadConfirmation",
      "type": "error"
    },
    {
      "inputs": [
        {
          "internalType": "address",
          "name": "account",
          "type": "address"
        },
        {
          "internalType": "bytes32",
          "name": "neededRole",
          "type": "bytes32"
        }
      ],
      "name": "AccessControlUnauthorizedAccount",
      "type": "error"
    },
    {
      "inputs": [
        {
          "internalType": "address",
          "name": "target",
          "type": "address"
        }
      ],
      "name": "AddressEmptyCode",
      "type": "error"
    },
    {
      "inputs": [
        {
          "internalType": "address",
          "name": "account",
          "type": "address"
        }
      ],
      "name": "AddressInsufficientBalance",
      "type": "error"
    },
    {
      "inputs": [],
      "name": "EnforcedPause",
      "type": "error"
    },
    {
      "inputs": [],
      "name": "ExpectedPause",
      "type": "error"
    },
    {
      "inputs": [],
      "name": "FailedInnerCall",
      "type": "error"
    },
    {
      "inputs": [],
      "name": "InvalidAmount",
      "type": "error"
    },
    {
      "inputs": [],
      "name": "InvalidInitialization",
      "type": "error"
    },
    {
      "inputs": [],
      "name": "InvalidOwner",
      "type": "error"
    },
    {
      "inputs": [],
      "name": "InvalidReserveBalance",
      "type": "error"
    },
    {
      "inputs": [],
      "name": "InvalidSubjectToken",
      "type": "error"
    },
    {
      "inputs": [],
      "name": "InvalidToAddress",
      "type": "error"
    },
    {
      "inputs": [],
      "name": "InvalidToken",
      "type": "error"
    },
    {
      "inputs": [],
      "name": "NotInitializing",
      "type": "error"
    },
    {
      "inputs": [
        {
          "internalType": "address",
          "name": "token",
          "type": "address"
        }
      ],
      "name": "SafeERC20FailedOperation",
      "type": "error"
    },
    {
      "anonymous": false,
      "inputs": [
        {
          "indexed": false,
          "internalType": "uint64",
          "name": "version",
          "type": "uint64"
        }
      ],
      "name": "Initialized",
      "type": "event"
    },
    {
      "anonymous": false,
      "inputs": [
        {
          "indexed": false,
          "internalType": "address",
          "name": "account",
          "type": "address"
        }
      ],
      "name": "Paused",
      "type": "event"
    },
    {
      "anonymous": false,
      "inputs": [
        {
          "indexed": true,
          "internalType": "bytes32",
          "name": "role",
          "type": "bytes32"
        },
        {
          "indexed": true,
          "internalType": "bytes32",
          "name": "previousAdminRole",
          "type": "bytes32"
        },
        {
          "indexed": true,
          "internalType": "bytes32",
          "name": "newAdminRole",
          "type": "bytes32"
        }
      ],
      "name": "RoleAdminChanged",
      "type": "event"
    },
    {
      "anonymous": false,
      "inputs": [
        {
          "indexed": true,
          "internalType": "bytes32",
          "name": "role",
          "type": "bytes32"
        },
        {
          "indexed": true,
          "internalType": "address",
          "name": "account",
          "type": "address"
        },
        {
          "indexed": true,
          "internalType": "address",
          "name": "sender",
          "type": "address"
        }
      ],
      "name": "RoleGranted",
      "type": "event"
    },
    {
      "anonymous": false,
      "inputs": [
        {
          "indexed": true,
          "internalType": "bytes32",
          "name": "role",
          "type": "bytes32"
        },
        {
          "indexed": true,
          "internalType": "address",
          "name": "account",
          "type": "address"
        },
        {
          "indexed": true,
          "internalType": "address",
          "name": "sender",
          "type": "address"
        }
      ],
      "name": "RoleRevoked",
      "type": "event"
    },
    {
      "anonymous": false,
      "inputs": [
        {
          "indexed": false,
          "internalType": "address",
          "name": "account",
          "type": "address"
        }
      ],
      "name": "Unpaused",
      "type": "event"
    },
    {
      "anonymous": false,
      "inputs": [
        {
          "indexed": true,
          "internalType": "address",
          "name": "subject",
          "type": "address"
        },
        {
          "indexed": true,
          "internalType": "address",
          "name": "token",
          "type": "address"
        },
        {
          "indexed": true,
          "internalType": "address",
          "name": "sender",
          "type": "address"
        },
        {
          "indexed": false,
          "internalType": "uint256",
          "name": "amount",
          "type": "uint256"
        },
        {
          "indexed": false,
          "internalType": "uint256",
          "name": "totalReserve",
          "type": "uint256"
        }
      ],
      "name": "VaultDeposit",
      "type": "event"
    },
    {
      "anonymous": false,
      "inputs": [
        {
          "indexed": true,
          "internalType": "address",
          "name": "subject",
          "type": "address"
        },
        {
          "indexed": true,
          "internalType": "address",
          "name": "token",
          "type": "address"
        },
        {
          "indexed": true,
          "internalType": "address",
          "name": "to",
          "type": "address"
        },
        {
          "indexed": false,
          "internalType": "uint256",
          "name": "amount",
          "type": "uint256"
        },
        {
          "indexed": false,
          "internalType": "uint256",
          "name": "totalReserve",
          "type": "uint256"
        }
      ],
      "name": "VaultTransfer",
      "type": "event"
    },
    {
      "inputs": [],
      "name": "DEFAULT_ADMIN_ROLE",
      "outputs": [
        {
          "internalType": "bytes32",
          "name": "",
          "type": "bytes32"
        }
      ],
      "stateMutability": "view",
      "type": "function"
    },
    {
      "inputs": [],
      "name": "DEPOSIT_ROLE",
      "outputs": [
        {
          "internalType": "bytes32",
          "name": "",
          "type": "bytes32"
        }
      ],
      "stateMutability": "view",
      "type": "function"
    },
    {
      "inputs": [],
      "name": "PAUSE_ROLE",
      "outputs": [
        {
          "internalType": "bytes32",
          "name": "",
          "type": "bytes32"
        }
      ],
      "stateMutability": "view",
      "type": "function"
    },
    {
      "inputs": [],
      "name": "TRANSFER_ROLE",
      "outputs": [
        {
          "internalType": "bytes32",
          "name": "",
          "type": "bytes32"
        }
      ],
      "stateMutability": "view",
      "type": "function"
    },
    {
      "inputs": [
        {
          "internalType": "address",
          "name": "_subjectToken",
          "type": "address"
        },
        {
          "internalType": "address",
          "name": "_token",
          "type": "address"
        }
      ],
      "name": "balanceOf",
      "outputs": [
        {
          "internalType": "uint256",
          "name": "balance_",
          "type": "uint256"
        }
      ],
      "stateMutability": "view",
      "type": "function"
    },
    {
      "inputs": [
        {
          "internalType": "address",
          "name": "_subjectToken",
          "type": "address"
        },
        {
          "internalType": "address",
          "name": "_token",
          "type": "address"
        },
        {
          "internalType": "uint256",
          "name": "_value",
          "type": "uint256"
        }
      ],
      "name": "deposit",
      "outputs": [],
      "stateMutability": "nonpayable",
      "type": "function"
    },
    {
      "inputs": [
        {
          "internalType": "bytes32",
          "name": "role",
          "type": "bytes32"
        }
      ],
      "name": "getRoleAdmin",
      "outputs": [
        {
          "internalType": "bytes32",
          "name": "",
          "type": "bytes32"
        }
      ],
      "stateMutability": "view",
      "type": "function"
    },
    {
      "inputs": [
        {
          "internalType": "bytes32",
          "name": "role",
          "type": "bytes32"
        },
        {
          "internalType": "address",
          "name": "account",
          "type": "address"
        }
      ],
      "name": "grantRole",
      "outputs": [],
      "stateMutability": "nonpayable",
      "type": "function"
    },
    {
      "inputs": [
        {
          "internalType": "bytes32",
          "name": "role",
          "type": "bytes32"
        },
        {
          "internalType": "address",
          "name": "account",
          "type": "address"
        }
      ],
      "name": "hasRole",
      "outputs": [
        {
          "internalType": "bool",
          "name": "",
          "type": "bool"
        }
      ],
      "stateMutability": "view",
      "type": "function"
    },
    {
      "inputs": [
        {
          "internalType": "address",
          "name": "_owner",
          "type": "address"
        }
      ],
      "name": "initialize",
      "outputs": [],
      "stateMutability": "nonpayable",
      "type": "function"
    },
    {
      "inputs": [],
      "name": "pause",
      "outputs": [],
      "stateMutability": "nonpayable",
      "type": "function"
    },
    {
      "inputs": [],
      "name": "paused",
      "outputs": [
        {
          "internalType": "bool",
          "name": "",
          "type": "bool"
        }
      ],
      "stateMutability": "view",
      "type": "function"
    },
    {
      "inputs": [
        {
          "internalType": "bytes32",
          "name": "role",
          "type": "bytes32"
        },
        {
          "internalType": "address",
          "name": "callerConfirmation",
          "type": "address"
        }
      ],
      "name": "renounceRole",
      "outputs": [],
      "stateMutability": "nonpayable",
      "type": "function"
    },
    {
      "inputs": [
        {
          "internalType": "address",
          "name": "subjectToken",
          "type": "address"
        },
        {
          "internalType": "address",
          "name": "moxie",
          "type": "address"
        }
      ],
      "name": "reserves",
      "outputs": [
        {
          "internalType": "uint256",
          "name": "amount",
          "type": "uint256"
        }
      ],
      "stateMutability": "view",
      "type": "function"
    },
    {
      "inputs": [
        {
          "internalType": "bytes32",
          "name": "role",
          "type": "bytes32"
        },
        {
          "internalType": "address",
          "name": "account",
          "type": "address"
        }
      ],
      "name": "revokeRole",
      "outputs": [],
      "stateMutability": "nonpayable",
      "type": "function"
    },
    {
      "inputs": [
        {
          "internalType": "bytes4",
          "name": "interfaceId",
          "type": "bytes4"
        }
      ],
      "name": "supportsInterface",
      "outputs": [
        {
          "internalType": "bool",
          "name": "",
          "type": "bool"
        }
      ],
      "stateMutability": "view",
      "type": "function"
    },
    {
      "inputs": [
        {
          "internalType": "address",
          "name": "_subjectToken",
          "type": "address"
        },
        {
          "internalType": "address",
          "name": "_token",
          "type": "address"
        },
        {
          "internalType": "address",
          "name": "_to",
          "type": "address"
        },
        {
          "internalType": "uint256",
          "name": "_value",
          "type": "uint256"
        }
      ],
      "name": "transfer",
      "outputs": [],
      "stateMutability": "nonpayable",
      "type": "function"
    },
    {
      "inputs": [],
      "name": "unpause",
      "outputs": [],
      "stateMutability": "nonpayable",
      "type": "function"
    }
  ],
  "bytecode": "0x608060405234801561001057600080fd5b50611f1e806100206000396000f3fe608060405234801561001057600080fd5b50600436106101165760003560e01c80638340f549116100a2578063c4d66de811610071578063c4d66de8146102a9578063d547741f146102c5578063ea4afc54146102e1578063f18d03cc14610311578063f7888aec1461032d57610116565b80638340f549146102355780638456cb591461025157806391d148541461025b578063a217fddf1461028b57610116565b8063353efdcf116100e9578063353efdcf146101b557806336568abe146101d3578063389ed267146101ef5780633f4ba83a1461020d5780635c975abb1461021757610116565b806301ffc9a71461011b578063206b60f91461014b578063248a9ca3146101695780632f2ff15d14610199575b600080fd5b6101356004803603810190610130919061190b565b61035d565b6040516101429190611953565b60405180910390f35b6101536103d7565b6040516101609190611987565b60405180910390f35b610183600480360381019061017e91906119ce565b6103fb565b6040516101909190611987565b60405180910390f35b6101b360048036038101906101ae9190611a59565b610429565b005b6101bd61044b565b6040516101ca9190611987565b60405180910390f35b6101ed60048036038101906101e89190611a59565b61046f565b005b6101f76104ea565b6040516102049190611987565b60405180910390f35b61021561050e565b005b61021f610543565b60405161022c9190611953565b60405180910390f35b61024f600480360381019061024a9190611acf565b610568565b005b610259610856565b005b61027560048036038101906102709190611a59565b61088b565b6040516102829190611953565b60405180910390f35b610293610904565b6040516102a09190611987565b60405180910390f35b6102c360048036038101906102be9190611b22565b61090b565b005b6102df60048036038101906102da9190611a59565b610b15565b005b6102fb60048036038101906102f69190611b4f565b610b37565b6040516103089190611b9e565b60405180910390f35b61032b60048036038101906103269190611bb9565b610b5c565b005b61034760048036038101906103429190611b4f565b610f72565b6040516103549190611b9e565b60405180910390f35b60007f7965db0b000000000000000000000000000000000000000000000000000000007bffffffffffffffffffffffffffffffffffffffffffffffffffffffff1916827bffffffffffffffffffffffffffffffffffffffffffffffffffffffff191614806103d057506103cf82610ff8565b5b9050919050565b7f8502233096d909befbda0999bb8ea2f3a6be3c138b9fbf003752a4c8bce86f6c81565b600080610406611062565b905080600001600084815260200190815260200160002060010154915050919050565b610432826103fb565b61043b8161108a565b610445838361109e565b50505050565b7f2561bf26f818282a3be40719542054d2173eb0d38539e8a8d3cff22f29fd238481565b61047761119f565b73ffffffffffffffffffffffffffffffffffffffff168173ffffffffffffffffffffffffffffffffffffffff16146104db576040517f6697b23200000000000000000000000000000000000000000000000000000000815260040160405180910390fd5b6104e582826111a7565b505050565b7f139c2898040ef16910dc9f44dc697df79363da767d8bc92f2e310312b816e46d81565b7f139c2898040ef16910dc9f44dc697df79363da767d8bc92f2e310312b816e46d6105388161108a565b6105406112a9565b50565b60008061054e61131b565b90508060000160009054906101000a900460ff1691505090565b7f2561bf26f818282a3be40719542054d2173eb0d38539e8a8d3cff22f29fd23846105928161108a565b600073ffffffffffffffffffffffffffffffffffffffff168473ffffffffffffffffffffffffffffffffffffffff16036105f8576040517f712652a600000000000000000000000000000000000000000000000000000000815260040160405180910390fd5b600073ffffffffffffffffffffffffffffffffffffffff168373ffffffffffffffffffffffffffffffffffffffff160361065e576040517fc1ab6dc100000000000000000000000000000000000000000000000000000000815260040160405180910390fd5b60008203610698576040517f2c5211c600000000000000000000000000000000000000000000000000000000815260040160405180910390fd5b816000808673ffffffffffffffffffffffffffffffffffffffff1673ffffffffffffffffffffffffffffffffffffffff16815260200190815260200160002060008573ffffffffffffffffffffffffffffffffffffffff1673ffffffffffffffffffffffffffffffffffffffff16815260200190815260200160002060008282546107239190611c4f565b925050819055503373ffffffffffffffffffffffffffffffffffffffff168373ffffffffffffffffffffffffffffffffffffffff168573ffffffffffffffffffffffffffffffffffffffff167fe58b78b38756de00cad0e373f115ef214756cd38bf4f01618ac3d3807c1c4d94856000808a73ffffffffffffffffffffffffffffffffffffffff1673ffffffffffffffffffffffffffffffffffffffff16815260200190815260200160002060008973ffffffffffffffffffffffffffffffffffffffff1673ffffffffffffffffffffffffffffffffffffffff1681526020019081526020016000205460405161081b929190611c83565b60405180910390a46108503330848673ffffffffffffffffffffffffffffffffffffffff16611343909392919063ffffffff16565b50505050565b7f139c2898040ef16910dc9f44dc697df79363da767d8bc92f2e310312b816e46d6108808161108a565b6108886113c5565b50565b600080610896611062565b905080600001600085815260200190815260200160002060000160008473ffffffffffffffffffffffffffffffffffffffff1673ffffffffffffffffffffffffffffffffffffffff16815260200190815260200160002060009054906101000a900460ff1691505092915050565b6000801b81565b6000610915611437565b905060008160000160089054906101000a900460ff1615905060008260000160009054906101000a900467ffffffffffffffff1690506000808267ffffffffffffffff161480156109635750825b9050600060018367ffffffffffffffff16148015610998575060003073ffffffffffffffffffffffffffffffffffffffff163b145b9050811580156109a6575080155b156109dd576040517ff92ee8a900000000000000000000000000000000000000000000000000000000815260040160405180910390fd5b60018560000160006101000a81548167ffffffffffffffff021916908367ffffffffffffffff1602179055508315610a2d5760018560000160086101000a81548160ff0219169083151502179055505b600073ffffffffffffffffffffffffffffffffffffffff168673ffffffffffffffffffffffffffffffffffffffff1603610a93576040517f49e27cff00000000000000000000000000000000000000000000000000000000815260040160405180910390fd5b610a9b61145f565b610aa3611469565b610ab06000801b8761109e565b508315610b0d5760008560000160086101000a81548160ff0219169083151502179055507fc7f505b2f371ae2175ee4913f4499e1f2633a7b5936321eed1cdaeb6115181d26001604051610b049190611d05565b60405180910390a15b505050505050565b610b1e826103fb565b610b278161108a565b610b3183836111a7565b50505050565b6000602052816000526040600020602052806000526040600020600091509150505481565b610b6461147b565b7f8502233096d909befbda0999bb8ea2f3a6be3c138b9fbf003752a4c8bce86f6c610b8e8161108a565b600073ffffffffffffffffffffffffffffffffffffffff168573ffffffffffffffffffffffffffffffffffffffff1603610bf4576040517f712652a600000000000000000000000000000000000000000000000000000000815260040160405180910390fd5b600073ffffffffffffffffffffffffffffffffffffffff168473ffffffffffffffffffffffffffffffffffffffff1603610c5a576040517fc1ab6dc100000000000000000000000000000000000000000000000000000000815260040160405180910390fd5b600073ffffffffffffffffffffffffffffffffffffffff168373ffffffffffffffffffffffffffffffffffffffff1603610cc0576040517f8aa3a72f00000000000000000000000000000000000000000000000000000000815260040160405180910390fd5b60008203610cfa576040517f2c5211c600000000000000000000000000000000000000000000000000000000815260040160405180910390fd5b60008060008773ffffffffffffffffffffffffffffffffffffffff1673ffffffffffffffffffffffffffffffffffffffff16815260200190815260200160002060008673ffffffffffffffffffffffffffffffffffffffff1673ffffffffffffffffffffffffffffffffffffffff16815260200190815260200160002054905082811015610db4576040517f7258c5fb00000000000000000000000000000000000000000000000000000000815260040160405180910390fd5b826000808873ffffffffffffffffffffffffffffffffffffffff1673ffffffffffffffffffffffffffffffffffffffff16815260200190815260200160002060008773ffffffffffffffffffffffffffffffffffffffff1673ffffffffffffffffffffffffffffffffffffffff1681526020019081526020016000206000828254610e3f9190611d20565b925050819055508373ffffffffffffffffffffffffffffffffffffffff168573ffffffffffffffffffffffffffffffffffffffff168773ffffffffffffffffffffffffffffffffffffffff167f223f0e9106c8df9bd7cbedd1371ee522ef5860ac148a7437e917166b0dd75a3e866000808c73ffffffffffffffffffffffffffffffffffffffff1673ffffffffffffffffffffffffffffffffffffffff16815260200190815260200160002060008b73ffffffffffffffffffffffffffffffffffffffff1673ffffffffffffffffffffffffffffffffffffffff16815260200190815260200160002054604051610f37929190611c83565b60405180910390a4610f6a84848773ffffffffffffffffffffffffffffffffffffffff166114bc9092919063ffffffff16565b505050505050565b60008060008473ffffffffffffffffffffffffffffffffffffffff1673ffffffffffffffffffffffffffffffffffffffff16815260200190815260200160002060008373ffffffffffffffffffffffffffffffffffffffff1673ffffffffffffffffffffffffffffffffffffffff16815260200190815260200160002054905092915050565b60007f01ffc9a7000000000000000000000000000000000000000000000000000000007bffffffffffffffffffffffffffffffffffffffffffffffffffffffff1916827bffffffffffffffffffffffffffffffffffffffffffffffffffffffff1916149050919050565b60007f02dd7bc7dec4dceedda775e58dd541e08a116c6c53815c0bd028192f7b626800905090565b61109b8161109661119f565b61153b565b50565b6000806110a9611062565b90506110b5848461088b565b61119357600181600001600086815260200190815260200160002060000160008573ffffffffffffffffffffffffffffffffffffffff1673ffffffffffffffffffffffffffffffffffffffff16815260200190815260200160002060006101000a81548160ff02191690831515021790555061112f61119f565b73ffffffffffffffffffffffffffffffffffffffff168373ffffffffffffffffffffffffffffffffffffffff16857f2f8788117e7eff1d82e926ec794901d17c78024a50270940304540a733656f0d60405160405180910390a46001915050611199565b60009150505b92915050565b600033905090565b6000806111b2611062565b90506111be848461088b565b1561129d57600081600001600086815260200190815260200160002060000160008573ffffffffffffffffffffffffffffffffffffffff1673ffffffffffffffffffffffffffffffffffffffff16815260200190815260200160002060006101000a81548160ff02191690831515021790555061123961119f565b73ffffffffffffffffffffffffffffffffffffffff168373ffffffffffffffffffffffffffffffffffffffff16857ff6391f5c32d9c69d2a47ea670b442974b53935d1edc7fd64eb21e047a839171b60405160405180910390a460019150506112a3565b60009150505b92915050565b6112b161158c565b60006112bb61131b565b905060008160000160006101000a81548160ff0219169083151502179055507f5db9ee0a495bf2e6ff9c91a7834c1ba4fdd244a5e8aa4e537bd38aeae4b073aa61130361119f565b6040516113109190611d63565b60405180910390a150565b60007fcd5ed15c6e187e77e9aee88184c21f4f2182ab5827cb3b7e07fbedcd63f03300905090565b6113bf848573ffffffffffffffffffffffffffffffffffffffff166323b872dd86868660405160240161137893929190611d7e565b604051602081830303815290604052915060e01b6020820180517bffffffffffffffffffffffffffffffffffffffffffffffffffffffff83818316178352505050506115cc565b50505050565b6113cd61147b565b60006113d761131b565b905060018160000160006101000a81548160ff0219169083151502179055507f62e78cea01bee320cd4e420270b5ea74000d11b0c9f74754ebdbfc544b05a25861141f61119f565b60405161142c9190611d63565b60405180910390a150565b60007ff0c57e16840df040f15088dc2f81fe391c3923bec73e23a9662efc9c229c6a00905090565b611467611663565b565b611471611663565b6114796116a3565b565b611483610543565b156114ba576040517fd93c066500000000000000000000000000000000000000000000000000000000815260040160405180910390fd5b565b611536838473ffffffffffffffffffffffffffffffffffffffff1663a9059cbb85856040516024016114ef929190611db5565b604051602081830303815290604052915060e01b6020820180517bffffffffffffffffffffffffffffffffffffffffffffffffffffffff83818316178352505050506115cc565b505050565b611545828261088b565b6115885780826040517fe2517d3f00000000000000000000000000000000000000000000000000000000815260040161157f929190611dde565b60405180910390fd5b5050565b611594610543565b6115ca576040517f8dfc202b00000000000000000000000000000000000000000000000000000000815260040160405180910390fd5b565b60006115f7828473ffffffffffffffffffffffffffffffffffffffff166116d790919063ffffffff16565b9050600081511415801561161c57508080602001905181019061161a9190611e33565b155b1561165e57826040517f5274afe70000000000000000000000000000000000000000000000000000000081526004016116559190611d63565b60405180910390fd5b505050565b61166b6116ed565b6116a1576040517fd7e6bcf800000000000000000000000000000000000000000000000000000000815260040160405180910390fd5b565b6116ab611663565b60006116b561131b565b905060008160000160006101000a81548160ff02191690831515021790555050565b60606116e58383600061170d565b905092915050565b60006116f7611437565b60000160089054906101000a900460ff16905090565b60608147101561175457306040517fcd78605900000000000000000000000000000000000000000000000000000000815260040161174b9190611d63565b60405180910390fd5b6000808573ffffffffffffffffffffffffffffffffffffffff16848660405161177d9190611ed1565b60006040518083038185875af1925050503d80600081146117ba576040519150601f19603f3d011682016040523d82523d6000602084013e6117bf565b606091505b50915091506117cf8683836117da565b925050509392505050565b6060826117ef576117ea82611869565b611861565b60008251148015611817575060008473ffffffffffffffffffffffffffffffffffffffff163b145b1561185957836040517f9996b3150000000000000000000000000000000000000000000000000000000081526004016118509190611d63565b60405180910390fd5b819050611862565b5b9392505050565b60008151111561187c5780518082602001fd5b6040517f1425ea4200000000000000000000000000000000000000000000000000000000815260040160405180910390fd5b600080fd5b60007fffffffff0000000000000000000000000000000000000000000000000000000082169050919050565b6118e8816118b3565b81146118f357600080fd5b50565b600081359050611905816118df565b92915050565b600060208284031215611921576119206118ae565b5b600061192f848285016118f6565b91505092915050565b60008115159050919050565b61194d81611938565b82525050565b60006020820190506119686000830184611944565b92915050565b6000819050919050565b6119818161196e565b82525050565b600060208201905061199c6000830184611978565b92915050565b6119ab8161196e565b81146119b657600080fd5b50565b6000813590506119c8816119a2565b92915050565b6000602082840312156119e4576119e36118ae565b5b60006119f2848285016119b9565b91505092915050565b600073ffffffffffffffffffffffffffffffffffffffff82169050919050565b6000611a26826119fb565b9050919050565b611a3681611a1b565b8114611a4157600080fd5b50565b600081359050611a5381611a2d565b92915050565b60008060408385031215611a7057611a6f6118ae565b5b6000611a7e858286016119b9565b9250506020611a8f85828601611a44565b9150509250929050565b6000819050919050565b611aac81611a99565b8114611ab757600080fd5b50565b600081359050611ac981611aa3565b92915050565b600080600060608486031215611ae857611ae76118ae565b5b6000611af686828701611a44565b9350506020611b0786828701611a44565b9250506040611b1886828701611aba565b9150509250925092565b600060208284031215611b3857611b376118ae565b5b6000611b4684828501611a44565b91505092915050565b60008060408385031215611b6657611b656118ae565b5b6000611b7485828601611a44565b9250506020611b8585828601611a44565b9150509250929050565b611b9881611a99565b82525050565b6000602082019050611bb36000830184611b8f565b92915050565b60008060008060808587031215611bd357611bd26118ae565b5b6000611be187828801611a44565b9450506020611bf287828801611a44565b9350506040611c0387828801611a44565b9250506060611c1487828801611aba565b91505092959194509250565b7f4e487b7100000000000000000000000000000000000000000000000000000000600052601160045260246000fd5b6000611c5a82611a99565b9150611c6583611a99565b9250828201905080821115611c7d57611c7c611c20565b5b92915050565b6000604082019050611c986000830185611b8f565b611ca56020830184611b8f565b9392505050565b6000819050919050565b600067ffffffffffffffff82169050919050565b6000819050919050565b6000611cef611cea611ce584611cac565b611cca565b611cb6565b9050919050565b611cff81611cd4565b82525050565b6000602082019050611d1a6000830184611cf6565b92915050565b6000611d2b82611a99565b9150611d3683611a99565b9250828203905081811115611d4e57611d4d611c20565b5b92915050565b611d5d81611a1b565b82525050565b6000602082019050611d786000830184611d54565b92915050565b6000606082019050611d936000830186611d54565b611da06020830185611d54565b611dad6040830184611b8f565b949350505050565b6000604082019050611dca6000830185611d54565b611dd76020830184611b8f565b9392505050565b6000604082019050611df36000830185611d54565b611e006020830184611978565b9392505050565b611e1081611938565b8114611e1b57600080fd5b50565b600081519050611e2d81611e07565b92915050565b600060208284031215611e4957611e486118ae565b5b6000611e5784828501611e1e565b91505092915050565b600081519050919050565b600081905092915050565b60005b83811015611e94578082015181840152602081019050611e79565b60008484015250505050565b6000611eab82611e60565b611eb58185611e6b565b9350611ec5818560208601611e76565b80840191505092915050565b6000611edd8284611ea0565b91508190509291505056fea26469706673582212204789a1048a8415a923cedbc62b1dac73afcfafcd26bbebc8e04521a31f92d38c64736f6c63430008180033",
  "linkReferences": {},
  "deployedLinkReferences": {}
}