{
  "_format": "hh-sol-artifact-1",
  "contractName": "ProtocolRewards",
  "sourceName": "contracts/rewards/ProtocolRewards.sol",
  "abi": [
    {
      "inputs": [],
      "name": "ADDRESS_ZERO",
      "type": "error"
    },
    {
      "inputs": [],
      "name": "ARRAY_LENGTH_MISMATCH",
      "type": "error"
    },
    {
      "inputs": [],
      "name": "AccessControlBadConfirmation",
      "type": "error"
    },
    {
      "inputs": [
        {
          "internalType": "address",
          "name": "account",
          "type": "address"
        },
        {
          "internalType": "bytes32",
          "name": "neededRole",
          "type": "bytes32"
        }
      ],
      "name": "AccessControlUnauthorizedAccount",
      "type": "error"
    },
    {
      "inputs": [],
      "name": "BLOCKED",
      "type": "error"
    },
    {
      "inputs": [],
      "name": "EnforcedPause",
      "type": "error"
    },
    {
      "inputs": [],
      "name": "ExpectedPause",
      "type": "error"
    },
    {
      "inputs": [],
      "name": "INVALID_DEPOSIT",
      "type": "error"
    },
    {
      "inputs": [],
      "name": "INVALID_SIGNATURE",
      "type": "error"
    },
    {
      "inputs": [],
      "name": "INVALID_WITHDRAW",
      "type": "error"
    },
    {
      "inputs": [],
      "name": "InvalidInitialization",
      "type": "error"
    },
    {
      "inputs": [],
      "name": "NotInitializing",
      "type": "error"
    },
    {
      "inputs": [],
      "name": "SIGNATURE_DEADLINE_EXPIRED",
      "type": "error"
    },
    {
      "anonymous": false,
      "inputs": [
        {
          "indexed": false,
          "internalType": "address",
          "name": "_wallet",
          "type": "address"
        },
        {
          "indexed": false,
          "internalType": "bool",
          "name": "_isAdded",
          "type": "bool"
        }
      ],
      "name": "BlockListUpdated",
      "type": "event"
    },
    {
      "anonymous": false,
      "inputs": [
        {
          "indexed": true,
          "internalType": "address",
          "name": "_from",
          "type": "address"
        },
        {
          "indexed": true,
          "internalType": "address",
          "name": "_to",
          "type": "address"
        },
        {
          "indexed": true,
          "internalType": "bytes4",
          "name": "_reason",
          "type": "bytes4"
        },
        {
          "indexed": false,
          "internalType": "uint256",
          "name": "_amount",
          "type": "uint256"
        },
        {
          "indexed": false,
          "internalType": "string",
          "name": "_comment",
          "type": "string"
        }
      ],
      "name": "Deposit",
      "type": "event"
    },
    {
      "anonymous": false,
      "inputs": [],
      "name": "EIP712DomainChanged",
      "type": "event"
    },
    {
      "anonymous": false,
      "inputs": [
        {
          "indexed": false,
          "internalType": "uint64",
          "name": "version",
          "type": "uint64"
        }
      ],
      "name": "Initialized",
      "type": "event"
    },
    {
      "anonymous": false,
      "inputs": [
        {
          "indexed": false,
          "internalType": "address",
          "name": "account",
          "type": "address"
        }
      ],
      "name": "Paused",
      "type": "event"
    },
    {
      "anonymous": false,
      "inputs": [
        {
          "indexed": true,
          "internalType": "bytes32",
          "name": "role",
          "type": "bytes32"
        },
        {
          "indexed": true,
          "internalType": "bytes32",
          "name": "previousAdminRole",
          "type": "bytes32"
        },
        {
          "indexed": true,
          "internalType": "bytes32",
          "name": "newAdminRole",
          "type": "bytes32"
        }
      ],
      "name": "RoleAdminChanged",
      "type": "event"
    },
    {
      "anonymous": false,
      "inputs": [
        {
          "indexed": true,
          "internalType": "bytes32",
          "name": "role",
          "type": "bytes32"
        },
        {
          "indexed": true,
          "internalType": "address",
          "name": "account",
          "type": "address"
        },
        {
          "indexed": true,
          "internalType": "address",
          "name": "sender",
          "type": "address"
        }
      ],
      "name": "RoleGranted",
      "type": "event"
    },
    {
      "anonymous": false,
      "inputs": [
        {
          "indexed": true,
          "internalType": "bytes32",
          "name": "role",
          "type": "bytes32"
        },
        {
          "indexed": true,
          "internalType": "address",
          "name": "account",
          "type": "address"
        },
        {
          "indexed": true,
          "internalType": "address",
          "name": "sender",
          "type": "address"
        }
      ],
      "name": "RoleRevoked",
      "type": "event"
    },
    {
      "anonymous": false,
      "inputs": [
        {
          "indexed": false,
          "internalType": "address",
          "name": "account",
          "type": "address"
        }
      ],
      "name": "Unpaused",
      "type": "event"
    },
    {
      "anonymous": false,
      "inputs": [
        {
          "indexed": true,
          "internalType": "address",
          "name": "_from",
          "type": "address"
        },
        {
          "indexed": true,
          "internalType": "address",
          "name": "_to",
          "type": "address"
        },
        {
          "indexed": false,
          "internalType": "uint256",
          "name": "_amount",
          "type": "uint256"
        }
      ],
      "name": "Withdraw",
      "type": "event"
    },
    {
      "inputs": [],
      "name": "BLOCK_UNBLOCK_ROLE",
      "outputs": [
        {
          "internalType": "bytes32",
          "name": "",
          "type": "bytes32"
        }
      ],
      "stateMutability": "view",
      "type": "function"
    },
    {
      "inputs": [],
      "name": "DEFAULT_ADMIN_ROLE",
      "outputs": [
        {
          "internalType": "bytes32",
          "name": "",
          "type": "bytes32"
        }
      ],
      "stateMutability": "view",
      "type": "function"
    },
    {
      "inputs": [],
      "name": "PAUSE_ROLE",
      "outputs": [
        {
          "internalType": "bytes32",
          "name": "",
          "type": "bytes32"
        }
      ],
      "stateMutability": "view",
      "type": "function"
    },
    {
      "inputs": [],
      "name": "WITHDRAW_TYPEHASH",
      "outputs": [
        {
          "internalType": "bytes32",
          "name": "",
          "type": "bytes32"
        }
      ],
      "stateMutability": "view",
      "type": "function"
    },
    {
      "inputs": [
        {
          "internalType": "address",
          "name": "_wallet",
          "type": "address"
        }
      ],
      "name": "addToBlockList",
      "outputs": [],
      "stateMutability": "nonpayable",
      "type": "function"
    },
    {
      "inputs": [
        {
          "internalType": "address",
          "name": "",
          "type": "address"
        }
      ],
      "name": "balanceOf",
      "outputs": [
        {
          "internalType": "uint256",
          "name": "",
          "type": "uint256"
        }
      ],
      "stateMutability": "view",
      "type": "function"
    },
    {
      "inputs": [
        {
          "internalType": "address",
          "name": "",
          "type": "address"
        }
      ],
      "name": "blockList",
      "outputs": [
        {
          "internalType": "bool",
          "name": "",
          "type": "bool"
        }
      ],
      "stateMutability": "view",
      "type": "function"
    },
    {
      "inputs": [
        {
          "internalType": "address",
          "name": "_to",
          "type": "address"
        },
        {
          "internalType": "uint256",
          "name": "_amount",
          "type": "uint256"
        },
        {
          "internalType": "bytes4",
          "name": "_reason",
          "type": "bytes4"
        },
        {
          "internalType": "string",
          "name": "_comment",
          "type": "string"
        }
      ],
      "name": "deposit",
      "outputs": [],
      "stateMutability": "nonpayable",
      "type": "function"
    },
    {
      "inputs": [
        {
          "internalType": "address[]",
          "name": "recipients",
          "type": "address[]"
        },
        {
          "internalType": "uint256[]",
          "name": "amounts",
          "type": "uint256[]"
        },
        {
          "internalType": "bytes4[]",
          "name": "reasons",
          "type": "bytes4[]"
        },
        {
          "internalType": "string",
          "name": "comment",
          "type": "string"
        }
      ],
      "name": "depositBatch",
      "outputs": [],
      "stateMutability": "nonpayable",
      "type": "function"
    },
    {
      "inputs": [],
      "name": "eip712Domain",
      "outputs": [
        {
          "internalType": "bytes1",
          "name": "fields",
          "type": "bytes1"
        },
        {
          "internalType": "string",
          "name": "name",
          "type": "string"
        },
        {
          "internalType": "string",
          "name": "version",
          "type": "string"
        },
        {
          "internalType": "uint256",
          "name": "chainId",
          "type": "uint256"
        },
        {
          "internalType": "address",
          "name": "verifyingContract",
          "type": "address"
        },
        {
          "internalType": "bytes32",
          "name": "salt",
          "type": "bytes32"
        },
        {
          "internalType": "uint256[]",
          "name": "extensions",
          "type": "uint256[]"
        }
      ],
      "stateMutability": "view",
      "type": "function"
    },
    {
      "inputs": [
        {
          "internalType": "bytes32",
          "name": "role",
          "type": "bytes32"
        }
      ],
      "name": "getRoleAdmin",
      "outputs": [
        {
          "internalType": "bytes32",
          "name": "",
          "type": "bytes32"
        }
      ],
      "stateMutability": "view",
      "type": "function"
    },
    {
      "inputs": [
        {
          "internalType": "bytes32",
          "name": "role",
          "type": "bytes32"
        },
        {
          "internalType": "address",
          "name": "account",
          "type": "address"
        }
      ],
      "name": "grantRole",
      "outputs": [],
      "stateMutability": "nonpayable",
      "type": "function"
    },
    {
      "inputs": [
        {
          "internalType": "bytes32",
          "name": "role",
          "type": "bytes32"
        },
        {
          "internalType": "address",
          "name": "account",
          "type": "address"
        }
      ],
      "name": "hasRole",
      "outputs": [
        {
          "internalType": "bool",
          "name": "",
          "type": "bool"
        }
      ],
      "stateMutability": "view",
      "type": "function"
    },
    {
      "inputs": [
        {
          "internalType": "address",
          "name": "_token",
          "type": "address"
        },
        {
          "internalType": "address",
          "name": "_owner",
          "type": "address"
        }
      ],
      "name": "initialize",
      "outputs": [],
      "stateMutability": "nonpayable",
      "type": "function"
    },
    {
      "inputs": [
        {
          "internalType": "address",
          "name": "",
          "type": "address"
        }
      ],
      "name": "nonces",
      "outputs": [
        {
          "internalType": "uint256",
          "name": "",
          "type": "uint256"
        }
      ],
      "stateMutability": "view",
      "type": "function"
    },
    {
      "inputs": [],
      "name": "pause",
      "outputs": [],
      "stateMutability": "nonpayable",
      "type": "function"
    },
    {
      "inputs": [],
      "name": "paused",
      "outputs": [
        {
          "internalType": "bool",
          "name": "",
          "type": "bool"
        }
      ],
      "stateMutability": "view",
      "type": "function"
    },
    {
      "inputs": [
        {
          "internalType": "address",
          "name": "_wallet",
          "type": "address"
        }
      ],
      "name": "removeFromBLockList",
      "outputs": [],
      "stateMutability": "nonpayable",
      "type": "function"
    },
    {
      "inputs": [
        {
          "internalType": "bytes32",
          "name": "role",
          "type": "bytes32"
        },
        {
          "internalType": "address",
          "name": "callerConfirmation",
          "type": "address"
        }
      ],
      "name": "renounceRole",
      "outputs": [],
      "stateMutability": "nonpayable",
      "type": "function"
    },
    {
      "inputs": [
        {
          "internalType": "bytes32",
          "name": "role",
          "type": "bytes32"
        },
        {
          "internalType": "address",
          "name": "account",
          "type": "address"
        }
      ],
      "name": "revokeRole",
      "outputs": [],
      "stateMutability": "nonpayable",
      "type": "function"
    },
    {
      "inputs": [
        {
          "internalType": "bytes4",
          "name": "interfaceId",
          "type": "bytes4"
        }
      ],
      "name": "supportsInterface",
      "outputs": [
        {
          "internalType": "bool",
          "name": "",
          "type": "bool"
        }
      ],
      "stateMutability": "view",
      "type": "function"
    },
    {
      "inputs": [],
      "name": "token",
      "outputs": [
        {
          "internalType": "contract IERC20Extended",
          "name": "",
          "type": "address"
        }
      ],
      "stateMutability": "view",
      "type": "function"
    },
    {
      "inputs": [],
      "name": "totalSupply",
      "outputs": [
        {
          "internalType": "uint256",
          "name": "",
          "type": "uint256"
        }
      ],
      "stateMutability": "view",
      "type": "function"
    },
    {
      "inputs": [],
      "name": "unpause",
      "outputs": [],
      "stateMutability": "nonpayable",
      "type": "function"
    },
    {
      "inputs": [
        {
          "internalType": "address",
          "name": "to",
          "type": "address"
        },
        {
          "internalType": "uint256",
          "name": "amount",
          "type": "uint256"
        }
      ],
      "name": "withdraw",
      "outputs": [],
      "stateMutability": "nonpayable",
      "type": "function"
    },
    {
      "inputs": [
        {
          "internalType": "address",
          "name": "from",
          "type": "address"
        },
        {
          "internalType": "address",
          "name": "to",
          "type": "address"
        },
        {
          "internalType": "uint256",
          "name": "amount",
          "type": "uint256"
        },
        {
          "internalType": "uint256",
          "name": "deadline",
          "type": "uint256"
        },
        {
          "internalType": "uint8",
          "name": "v",
          "type": "uint8"
        },
        {
          "internalType": "bytes32",
          "name": "r",
          "type": "bytes32"
        },
        {
          "internalType": "bytes32",
          "name": "s",
          "type": "bytes32"
        }
      ],
      "name": "withdrawWithSig",
      "outputs": [],
      "stateMutability": "nonpayable",
      "type": "function"
    }
  ],
  "bytecode": "0x608060405234801561001057600080fd5b506136cc806100206000396000f3fe608060405234801561001057600080fd5b506004361061018e5760003560e01c80637ecebe00116100de578063c27e979411610097578063e4b40d8d11610071578063e4b40d8d14610461578063e57e5e9b1461047d578063f3fef3a31461049b578063fc0c546a146104b75761018e565b8063c27e97941461040d578063d547741f14610429578063e1934dd0146104455761018e565b80637ecebe00146103315780638456cb591461036157806384b0196e1461036b57806391d148541461038f578063a217fddf146103bf578063b5399283146103dd5761018e565b8063389ed2671161014b578063485cc95511610125578063485cc955146102a95780635c975abb146102c557806370a08231146102e357806376c5d758146103135761018e565b8063389ed267146102655780633a98ff1a146102835780633f4ba83a1461029f5761018e565b806301ffc9a71461019357806318160ddd146101c3578063248a9ca3146101e15780632f2ff15d14610211578063300def951461022d57806336568abe14610249575b600080fd5b6101ad60048036038101906101a89190612635565b6104d5565b6040516101ba919061267d565b60405180910390f35b6101cb61054f565b6040516101d891906126b1565b60405180910390f35b6101fb60048036038101906101f69190612702565b6105f1565b604051610208919061273e565b60405180910390f35b61022b600480360381019061022691906127b7565b61061f565b005b6102476004803603810190610242919061295e565b610641565b005b610263600480360381019061025e91906127b7565b610953565b005b61026d6109ce565b60405161027a919061273e565b60405180910390f35b61029d60048036038101906102989190612a73565b6109f2565b005b6102a7610bdf565b005b6102c360048036038101906102be9190612afb565b610c14565b005b6102cd610f31565b6040516102da919061267d565b60405180910390f35b6102fd60048036038101906102f89190612b3b565b610f56565b60405161030a91906126b1565b60405180910390f35b61031b610f6e565b604051610328919061273e565b60405180910390f35b61034b60048036038101906103469190612b3b565b610f92565b60405161035891906126b1565b60405180910390f35b610369610faa565b005b610373610fdf565b6040516103869796959493929190612d00565b60405180910390f35b6103a960048036038101906103a491906127b7565b6110f1565b6040516103b6919061267d565b60405180910390f35b6103c761116a565b6040516103d4919061273e565b60405180910390f35b6103f760048036038101906103f29190612b3b565b611171565b604051610404919061267d565b60405180910390f35b61042760048036038101906104229190612dbd565b611191565b005b610443600480360381019061043e91906127b7565b6116c9565b005b61045f600480360381019061045a9190612b3b565b6116eb565b005b61047b60048036038101906104769190612b3b565b611811565b005b610485611937565b604051610492919061273e565b60405180910390f35b6104b560048036038101906104b09190612e5f565b61195b565b005b6104bf611cb7565b6040516104cc9190612efe565b60405180910390f35b60007f7965db0b000000000000000000000000000000000000000000000000000000007bffffffffffffffffffffffffffffffffffffffffffffffffffffffff1916827bffffffffffffffffffffffffffffffffffffffffffffffffffffffff19161480610548575061054782611cdb565b5b9050919050565b60008060009054906101000a900473ffffffffffffffffffffffffffffffffffffffff1673ffffffffffffffffffffffffffffffffffffffff166370a08231306040518263ffffffff1660e01b81526004016105ab9190612f19565b602060405180830381865afa1580156105c8573d6000803e3d6000fd5b505050506040513d601f19601f820116820180604052508101906105ec9190612f49565b905090565b6000806105fc611d45565b905080600001600084815260200190815260200160002060010154915050919050565b610628826105f1565b61063181611d6d565b61063b8383611d81565b50505050565b6000888890509050868690508114158061065e5750848490508114155b15610695576040517f88adebd200000000000000000000000000000000000000000000000000000000815260040160405180910390fd5b6000805b828110156106d5578888828181106106b4576106b3612f76565b5b90506020020135826106c69190612fd4565b91508080600101915050610699565b5060008054906101000a900473ffffffffffffffffffffffffffffffffffffffff1673ffffffffffffffffffffffffffffffffffffffff166323b872dd3330846040518463ffffffff1660e01b815260040161073393929190613008565b6020604051808303816000875af1158015610752573d6000803e3d6000fd5b505050506040513d601f19601f82011682018060405250810190610776919061306b565b5060008060005b84811015610944578c8c8281811061079857610797612f76565b5b90506020020160208101906107ad9190612b3b565b92508a8a828181106107c2576107c1612f76565b5b905060200201359150600073ffffffffffffffffffffffffffffffffffffffff168373ffffffffffffffffffffffffffffffffffffffff1603610831576040517f66e7950900000000000000000000000000000000000000000000000000000000815260040160405180910390fd5b81600160008573ffffffffffffffffffffffffffffffffffffffff1673ffffffffffffffffffffffffffffffffffffffff16815260200190815260200160002060008282546108809190612fd4565b9250508190555088888281811061089a57610899612f76565b5b90506020020160208101906108af9190612635565b7bffffffffffffffffffffffffffffffffffffffffffffffffffffffff19168373ffffffffffffffffffffffffffffffffffffffff163373ffffffffffffffffffffffffffffffffffffffff167f5b769452a2090142e059af5137c5b92a3e966cfb03b794cd01ac195d196c0001858b8b60405161092f939291906130d4565b60405180910390a4808060010191505061077d565b50505050505050505050505050565b61095b611e82565b73ffffffffffffffffffffffffffffffffffffffff168173ffffffffffffffffffffffffffffffffffffffff16146109bf576040517f6697b23200000000000000000000000000000000000000000000000000000000815260040160405180910390fd5b6109c98282611e8a565b505050565b7f139c2898040ef16910dc9f44dc697df79363da767d8bc92f2e310312b816e46d81565b600073ffffffffffffffffffffffffffffffffffffffff168573ffffffffffffffffffffffffffffffffffffffff1603610a58576040517f66e7950900000000000000000000000000000000000000000000000000000000815260040160405180910390fd5b60008054906101000a900473ffffffffffffffffffffffffffffffffffffffff1673ffffffffffffffffffffffffffffffffffffffff166323b872dd3330876040518463ffffffff1660e01b8152600401610ab593929190613008565b6020604051808303816000875af1158015610ad4573d6000803e3d6000fd5b505050506040513d601f19601f82011682018060405250810190610af8919061306b565b5083600160008773ffffffffffffffffffffffffffffffffffffffff1673ffffffffffffffffffffffffffffffffffffffff1681526020019081526020016000206000828254610b489190612fd4565b92505081905550827bffffffffffffffffffffffffffffffffffffffffffffffffffffffff19168573ffffffffffffffffffffffffffffffffffffffff163373ffffffffffffffffffffffffffffffffffffffff167f5b769452a2090142e059af5137c5b92a3e966cfb03b794cd01ac195d196c0001878686604051610bd0939291906130d4565b60405180910390a45050505050565b7f139c2898040ef16910dc9f44dc697df79363da767d8bc92f2e310312b816e46d610c0981611d6d565b610c11611f8c565b50565b6000610c1e611ffe565b905060008160000160089054906101000a900460ff1615905060008260000160009054906101000a900467ffffffffffffffff1690506000808267ffffffffffffffff16148015610c6c5750825b9050600060018367ffffffffffffffff16148015610ca1575060003073ffffffffffffffffffffffffffffffffffffffff163b145b905081158015610caf575080155b15610ce6576040517ff92ee8a900000000000000000000000000000000000000000000000000000000815260040160405180910390fd5b60018560000160006101000a81548167ffffffffffffffff021916908367ffffffffffffffff1602179055508315610d365760018560000160086101000a81548160ff0219169083151502179055505b610d3e612026565b610db26040518060400160405280600f81526020017f50726f746f636f6c5265776172647300000000000000000000000000000000008152506040518060400160405280600181526020017f3100000000000000000000000000000000000000000000000000000000000000815250612038565b600073ffffffffffffffffffffffffffffffffffffffff168773ffffffffffffffffffffffffffffffffffffffff1603610e18576040517f66e7950900000000000000000000000000000000000000000000000000000000815260040160405180910390fd5b600073ffffffffffffffffffffffffffffffffffffffff168673ffffffffffffffffffffffffffffffffffffffff1603610e7e576040517f66e7950900000000000000000000000000000000000000000000000000000000815260040160405180910390fd5b866000806101000a81548173ffffffffffffffffffffffffffffffffffffffff021916908373ffffffffffffffffffffffffffffffffffffffff160217905550610ecb6000801b87611d81565b508315610f285760008560000160086101000a81548160ff0219169083151502179055507fc7f505b2f371ae2175ee4913f4499e1f2633a7b5936321eed1cdaeb6115181d26001604051610f1f9190613155565b60405180910390a15b50505050505050565b600080610f3c61204e565b90508060000160009054906101000a900460ff1691505090565b60016020528060005260406000206000915090505481565b7f7b35c0715842c169bbf11116e8d20b2e74dacbd860d36ad5e47c3d88c15be55b81565b60026020528060005260406000206000915090505481565b7f139c2898040ef16910dc9f44dc697df79363da767d8bc92f2e310312b816e46d610fd481611d6d565b610fdc612076565b50565b6000606080600080600060606000610ff56120e8565b90506000801b816000015414801561101357506000801b8160010154145b611052576040517f08c379a0000000000000000000000000000000000000000000000000000000008152600401611049906131bc565b60405180910390fd5b61105a612110565b6110626121b1565b46306000801b600067ffffffffffffffff811115611083576110826131dc565b5b6040519080825280602002602001820160405280156110b15781602001602082028036833780820191505090505b507f0f0000000000000000000000000000000000000000000000000000000000000095949392919097509750975097509750975097505090919293949596565b6000806110fc611d45565b905080600001600085815260200190815260200160002060000160008473ffffffffffffffffffffffffffffffffffffffff1673ffffffffffffffffffffffffffffffffffffffff16815260200190815260200160002060009054906101000a900460ff1691505092915050565b6000801b81565b60036020528060005260406000206000915054906101000a900460ff1681565b611199612252565b86600073ffffffffffffffffffffffffffffffffffffffff168173ffffffffffffffffffffffffffffffffffffffff1614158015611227575060011515600360008373ffffffffffffffffffffffffffffffffffffffff1673ffffffffffffffffffffffffffffffffffffffff16815260200190815260200160002060009054906101000a900460ff161515145b1561125e576040517f2377d6f400000000000000000000000000000000000000000000000000000000815260040160405180910390fd5b84421115611298576040517fcddf40ed00000000000000000000000000000000000000000000000000000000815260040160405180910390fd5b60007f7b35c0715842c169bbf11116e8d20b2e74dacbd860d36ad5e47c3d88c15be55b898989600260008e73ffffffffffffffffffffffffffffffffffffffff1673ffffffffffffffffffffffffffffffffffffffff1681526020019081526020016000206000815480929190600101919050558a6040516020016113229695949392919061320b565b604051602081830303815290604052805190602001209050600061134582612293565b905060006001828888886040516000815260200160405260405161136c949392919061327b565b6020604051602081039080840390855afa15801561138e573d6000803e3d6000fd5b505050602060405103519050600073ffffffffffffffffffffffffffffffffffffffff168173ffffffffffffffffffffffffffffffffffffffff16148061140157508a73ffffffffffffffffffffffffffffffffffffffff168173ffffffffffffffffffffffffffffffffffffffff1614155b15611438576040517fa3402a3800000000000000000000000000000000000000000000000000000000815260040160405180910390fd5b600073ffffffffffffffffffffffffffffffffffffffff168a73ffffffffffffffffffffffffffffffffffffffff160361149e576040517f66e7950900000000000000000000000000000000000000000000000000000000815260040160405180910390fd5b600160008c73ffffffffffffffffffffffffffffffffffffffff1673ffffffffffffffffffffffffffffffffffffffff16815260200190815260200160002054891115611517576040517f8e0b980800000000000000000000000000000000000000000000000000000000815260040160405180910390fd5b6000890361156257600160008c73ffffffffffffffffffffffffffffffffffffffff1673ffffffffffffffffffffffffffffffffffffffff1681526020019081526020016000205498505b88600160008d73ffffffffffffffffffffffffffffffffffffffff1673ffffffffffffffffffffffffffffffffffffffff16815260200190815260200160002060008282546115b191906132c0565b925050819055508973ffffffffffffffffffffffffffffffffffffffff168b73ffffffffffffffffffffffffffffffffffffffff167f9b1bfa7fa9ee420a16e124f794c35ac9f90472acc99140eb2f6447c714cad8eb8b60405161161591906126b1565b60405180910390a360008054906101000a900473ffffffffffffffffffffffffffffffffffffffff1673ffffffffffffffffffffffffffffffffffffffff1663a9059cbb8b8b6040518363ffffffff1660e01b81526004016116789291906132f4565b6020604051808303816000875af1158015611697573d6000803e3d6000fd5b505050506040513d601f19601f820116820180604052508101906116bb919061306b565b505050505050505050505050565b6116d2826105f1565b6116db81611d6d565b6116e58383611e8a565b50505050565b7f99281794e90818d478790c02254d80d4401b3d1785da3ee437387700cc5b9f6e61171581611d6d565b600073ffffffffffffffffffffffffffffffffffffffff168273ffffffffffffffffffffffffffffffffffffffff160361177b576040517f66e7950900000000000000000000000000000000000000000000000000000000815260040160405180910390fd5b6000600360008473ffffffffffffffffffffffffffffffffffffffff1673ffffffffffffffffffffffffffffffffffffffff16815260200190815260200160002060006101000a81548160ff0219169083151502179055507fa8e65dc25b25ed9c00c1693b81f3d26f78c8d0e952946e7cb7f0be3524d83b7c82600060405161180592919061331d565b60405180910390a15050565b7f99281794e90818d478790c02254d80d4401b3d1785da3ee437387700cc5b9f6e61183b81611d6d565b600073ffffffffffffffffffffffffffffffffffffffff168273ffffffffffffffffffffffffffffffffffffffff16036118a1576040517f66e7950900000000000000000000000000000000000000000000000000000000815260040160405180910390fd5b6001600360008473ffffffffffffffffffffffffffffffffffffffff1673ffffffffffffffffffffffffffffffffffffffff16815260200190815260200160002060006101000a81548160ff0219169083151502179055507fa8e65dc25b25ed9c00c1693b81f3d26f78c8d0e952946e7cb7f0be3524d83b7c82600160405161192b92919061331d565b60405180910390a15050565b7f99281794e90818d478790c02254d80d4401b3d1785da3ee437387700cc5b9f6e81565b611963612252565b33600073ffffffffffffffffffffffffffffffffffffffff168173ffffffffffffffffffffffffffffffffffffffff16141580156119f1575060011515600360008373ffffffffffffffffffffffffffffffffffffffff1673ffffffffffffffffffffffffffffffffffffffff16815260200190815260200160002060009054906101000a900460ff161515145b15611a28576040517f2377d6f400000000000000000000000000000000000000000000000000000000815260040160405180910390fd5b600073ffffffffffffffffffffffffffffffffffffffff168373ffffffffffffffffffffffffffffffffffffffff1603611a8e576040517f66e7950900000000000000000000000000000000000000000000000000000000815260040160405180910390fd5b6000339050600160008273ffffffffffffffffffffffffffffffffffffffff1673ffffffffffffffffffffffffffffffffffffffff16815260200190815260200160002054831115611b0c576040517f8e0b980800000000000000000000000000000000000000000000000000000000815260040160405180910390fd5b60008303611b5757600160008273ffffffffffffffffffffffffffffffffffffffff1673ffffffffffffffffffffffffffffffffffffffff1681526020019081526020016000205492505b82600160008373ffffffffffffffffffffffffffffffffffffffff1673ffffffffffffffffffffffffffffffffffffffff1681526020019081526020016000206000828254611ba691906132c0565b925050819055508373ffffffffffffffffffffffffffffffffffffffff168173ffffffffffffffffffffffffffffffffffffffff167f9b1bfa7fa9ee420a16e124f794c35ac9f90472acc99140eb2f6447c714cad8eb85604051611c0a91906126b1565b60405180910390a360008054906101000a900473ffffffffffffffffffffffffffffffffffffffff1673ffffffffffffffffffffffffffffffffffffffff1663a9059cbb85856040518363ffffffff1660e01b8152600401611c6d9291906132f4565b6020604051808303816000875af1158015611c8c573d6000803e3d6000fd5b505050506040513d601f19601f82011682018060405250810190611cb0919061306b565b5050505050565b60008054906101000a900473ffffffffffffffffffffffffffffffffffffffff1681565b60007f01ffc9a7000000000000000000000000000000000000000000000000000000007bffffffffffffffffffffffffffffffffffffffffffffffffffffffff1916827bffffffffffffffffffffffffffffffffffffffffffffffffffffffff1916149050919050565b60007f02dd7bc7dec4dceedda775e58dd541e08a116c6c53815c0bd028192f7b626800905090565b611d7e81611d79611e82565b6122ad565b50565b600080611d8c611d45565b9050611d9884846110f1565b611e7657600181600001600086815260200190815260200160002060000160008573ffffffffffffffffffffffffffffffffffffffff1673ffffffffffffffffffffffffffffffffffffffff16815260200190815260200160002060006101000a81548160ff021916908315150217905550611e12611e82565b73ffffffffffffffffffffffffffffffffffffffff168373ffffffffffffffffffffffffffffffffffffffff16857f2f8788117e7eff1d82e926ec794901d17c78024a50270940304540a733656f0d60405160405180910390a46001915050611e7c565b60009150505b92915050565b600033905090565b600080611e95611d45565b9050611ea184846110f1565b15611f8057600081600001600086815260200190815260200160002060000160008573ffffffffffffffffffffffffffffffffffffffff1673ffffffffffffffffffffffffffffffffffffffff16815260200190815260200160002060006101000a81548160ff021916908315150217905550611f1c611e82565b73ffffffffffffffffffffffffffffffffffffffff168373ffffffffffffffffffffffffffffffffffffffff16857ff6391f5c32d9c69d2a47ea670b442974b53935d1edc7fd64eb21e047a839171b60405160405180910390a46001915050611f86565b60009150505b92915050565b611f946122fe565b6000611f9e61204e565b905060008160000160006101000a81548160ff0219169083151502179055507f5db9ee0a495bf2e6ff9c91a7834c1ba4fdd244a5e8aa4e537bd38aeae4b073aa611fe6611e82565b604051611ff39190612f19565b60405180910390a150565b60007ff0c57e16840df040f15088dc2f81fe391c3923bec73e23a9662efc9c229c6a00905090565b61202e61233e565b61203661237e565b565b61204061233e565b61204a82826123b2565b5050565b60007fcd5ed15c6e187e77e9aee88184c21f4f2182ab5827cb3b7e07fbedcd63f03300905090565b61207e612252565b600061208861204e565b905060018160000160006101000a81548160ff0219169083151502179055507f62e78cea01bee320cd4e420270b5ea74000d11b0c9f74754ebdbfc544b05a2586120d0611e82565b6040516120dd9190612f19565b60405180910390a150565b60007fa16a46d94261c7517cc8ff89f61c0ce93598e3c849801011dee649a6a557d100905090565b6060600061211c6120e8565b905080600201805461212d90613375565b80601f016020809104026020016040519081016040528092919081815260200182805461215990613375565b80156121a65780601f1061217b576101008083540402835291602001916121a6565b820191906000526020600020905b81548152906001019060200180831161218957829003601f168201915b505050505091505090565b606060006121bd6120e8565b90508060030180546121ce90613375565b80601f01602080910402602001604051908101604052809291908181526020018280546121fa90613375565b80156122475780601f1061221c57610100808354040283529160200191612247565b820191906000526020600020905b81548152906001019060200180831161222a57829003601f168201915b505050505091505090565b61225a610f31565b15612291576040517fd93c066500000000000000000000000000000000000000000000000000000000815260040160405180910390fd5b565b60006122a66122a0612407565b83612416565b9050919050565b6122b782826110f1565b6122fa5780826040517fe2517d3f0000000000000000000000000000000000000000000000000000000081526004016122f19291906133a6565b60405180910390fd5b5050565b612306610f31565b61233c576040517f8dfc202b00000000000000000000000000000000000000000000000000000000815260040160405180910390fd5b565b612346612457565b61237c576040517fd7e6bcf800000000000000000000000000000000000000000000000000000000815260040160405180910390fd5b565b61238661233e565b600061239061204e565b905060008160000160006101000a81548160ff02191690831515021790555050565b6123ba61233e565b60006123c46120e8565b9050828160020190816123d79190613571565b50818160030190816123e99190613571565b506000801b81600001819055506000801b8160010181905550505050565b6000612411612477565b905090565b60006040517f190100000000000000000000000000000000000000000000000000000000000081528360028201528260228201526042812091505092915050565b6000612461611ffe565b60000160089054906101000a900460ff16905090565b60007f8b73c3c69bb8fe3d512ecc4cf759cc79239f7b179b0ffacaa9a75d522b39400f6124a26124db565b6124aa612557565b46306040516020016124c0959493929190613643565b60405160208183030381529060405280519060200120905090565b6000806124e66120e8565b905060006124f2612110565b905060008151111561250f57808051906020012092505050612554565b6000826000015490506000801b811461252d57809350505050612554565b7fc5d2460186f7233c927e7db2dcc703c0e500b653ca82273b7bfad8045d85a47093505050505b90565b6000806125626120e8565b9050600061256e6121b1565b905060008151111561258b578080519060200120925050506125d0565b6000826001015490506000801b81146125a9578093505050506125d0565b7fc5d2460186f7233c927e7db2dcc703c0e500b653ca82273b7bfad8045d85a47093505050505b90565b600080fd5b600080fd5b60007fffffffff0000000000000000000000000000000000000000000000000000000082169050919050565b612612816125dd565b811461261d57600080fd5b50565b60008135905061262f81612609565b92915050565b60006020828403121561264b5761264a6125d3565b5b600061265984828501612620565b91505092915050565b60008115159050919050565b61267781612662565b82525050565b6000602082019050612692600083018461266e565b92915050565b6000819050919050565b6126ab81612698565b82525050565b60006020820190506126c660008301846126a2565b92915050565b6000819050919050565b6126df816126cc565b81146126ea57600080fd5b50565b6000813590506126fc816126d6565b92915050565b600060208284031215612718576127176125d3565b5b6000612726848285016126ed565b91505092915050565b612738816126cc565b82525050565b6000602082019050612753600083018461272f565b92915050565b600073ffffffffffffffffffffffffffffffffffffffff82169050919050565b600061278482612759565b9050919050565b61279481612779565b811461279f57600080fd5b50565b6000813590506127b18161278b565b92915050565b600080604083850312156127ce576127cd6125d3565b5b60006127dc858286016126ed565b92505060206127ed858286016127a2565b9150509250929050565b600080fd5b600080fd5b600080fd5b60008083601f84011261281c5761281b6127f7565b5b8235905067ffffffffffffffff811115612839576128386127fc565b5b60208301915083602082028301111561285557612854612801565b5b9250929050565b60008083601f840112612872576128716127f7565b5b8235905067ffffffffffffffff81111561288f5761288e6127fc565b5b6020830191508360208202830111156128ab576128aa612801565b5b9250929050565b60008083601f8401126128c8576128c76127f7565b5b8235905067ffffffffffffffff8111156128e5576128e46127fc565b5b60208301915083602082028301111561290157612900612801565b5b9250929050565b60008083601f84011261291e5761291d6127f7565b5b8235905067ffffffffffffffff81111561293b5761293a6127fc565b5b60208301915083600182028301111561295757612956612801565b5b9250929050565b6000806000806000806000806080898b03121561297e5761297d6125d3565b5b600089013567ffffffffffffffff81111561299c5761299b6125d8565b5b6129a88b828c01612806565b9850985050602089013567ffffffffffffffff8111156129cb576129ca6125d8565b5b6129d78b828c0161285c565b9650965050604089013567ffffffffffffffff8111156129fa576129f96125d8565b5b612a068b828c016128b2565b9450945050606089013567ffffffffffffffff811115612a2957612a286125d8565b5b612a358b828c01612908565b92509250509295985092959890939650565b612a5081612698565b8114612a5b57600080fd5b50565b600081359050612a6d81612a47565b92915050565b600080600080600060808688031215612a8f57612a8e6125d3565b5b6000612a9d888289016127a2565b9550506020612aae88828901612a5e565b9450506040612abf88828901612620565b935050606086013567ffffffffffffffff811115612ae057612adf6125d8565b5b612aec88828901612908565b92509250509295509295909350565b60008060408385031215612b1257612b116125d3565b5b6000612b20858286016127a2565b9250506020612b31858286016127a2565b9150509250929050565b600060208284031215612b5157612b506125d3565b5b6000612b5f848285016127a2565b91505092915050565b60007fff0000000000000000000000000000000000000000000000000000000000000082169050919050565b612b9d81612b68565b82525050565b600081519050919050565b600082825260208201905092915050565b60005b83811015612bdd578082015181840152602081019050612bc2565b60008484015250505050565b6000601f19601f8301169050919050565b6000612c0582612ba3565b612c0f8185612bae565b9350612c1f818560208601612bbf565b612c2881612be9565b840191505092915050565b612c3c81612779565b82525050565b600081519050919050565b600082825260208201905092915050565b6000819050602082019050919050565b612c7781612698565b82525050565b6000612c898383612c6e565b60208301905092915050565b6000602082019050919050565b6000612cad82612c42565b612cb78185612c4d565b9350612cc283612c5e565b8060005b83811015612cf3578151612cda8882612c7d565b9750612ce583612c95565b925050600181019050612cc6565b5085935050505092915050565b600060e082019050612d15600083018a612b94565b8181036020830152612d278189612bfa565b90508181036040830152612d3b8188612bfa565b9050612d4a60608301876126a2565b612d576080830186612c33565b612d6460a083018561272f565b81810360c0830152612d768184612ca2565b905098975050505050505050565b600060ff82169050919050565b612d9a81612d84565b8114612da557600080fd5b50565b600081359050612db781612d91565b92915050565b600080600080600080600060e0888a031215612ddc57612ddb6125d3565b5b6000612dea8a828b016127a2565b9750506020612dfb8a828b016127a2565b9650506040612e0c8a828b01612a5e565b9550506060612e1d8a828b01612a5e565b9450506080612e2e8a828b01612da8565b93505060a0612e3f8a828b016126ed565b92505060c0612e508a828b016126ed565b91505092959891949750929550565b60008060408385031215612e7657612e756125d3565b5b6000612e84858286016127a2565b9250506020612e9585828601612a5e565b9150509250929050565b6000819050919050565b6000612ec4612ebf612eba84612759565b612e9f565b612759565b9050919050565b6000612ed682612ea9565b9050919050565b6000612ee882612ecb565b9050919050565b612ef881612edd565b82525050565b6000602082019050612f136000830184612eef565b92915050565b6000602082019050612f2e6000830184612c33565b92915050565b600081519050612f4381612a47565b92915050565b600060208284031215612f5f57612f5e6125d3565b5b6000612f6d84828501612f34565b91505092915050565b7f4e487b7100000000000000000000000000000000000000000000000000000000600052603260045260246000fd5b7f4e487b7100000000000000000000000000000000000000000000000000000000600052601160045260246000fd5b6000612fdf82612698565b9150612fea83612698565b925082820190508082111561300257613001612fa5565b5b92915050565b600060608201905061301d6000830186612c33565b61302a6020830185612c33565b61303760408301846126a2565b949350505050565b61304881612662565b811461305357600080fd5b50565b6000815190506130658161303f565b92915050565b600060208284031215613081576130806125d3565b5b600061308f84828501613056565b91505092915050565b82818337600083830152505050565b60006130b38385612bae565b93506130c0838584613098565b6130c983612be9565b840190509392505050565b60006040820190506130e960008301866126a2565b81810360208301526130fc8184866130a7565b9050949350505050565b6000819050919050565b600067ffffffffffffffff82169050919050565b600061313f61313a61313584613106565b612e9f565b613110565b9050919050565b61314f81613124565b82525050565b600060208201905061316a6000830184613146565b92915050565b7f4549503731323a20556e696e697469616c697a65640000000000000000000000600082015250565b60006131a6601583612bae565b91506131b182613170565b602082019050919050565b600060208201905081810360008301526131d581613199565b9050919050565b7f4e487b7100000000000000000000000000000000000000000000000000000000600052604160045260246000fd5b600060c082019050613220600083018961272f565b61322d6020830188612c33565b61323a6040830187612c33565b61324760608301866126a2565b61325460808301856126a2565b61326160a08301846126a2565b979650505050505050565b61327581612d84565b82525050565b6000608082019050613290600083018761272f565b61329d602083018661326c565b6132aa604083018561272f565b6132b7606083018461272f565b95945050505050565b60006132cb82612698565b91506132d683612698565b92508282039050818111156132ee576132ed612fa5565b5b92915050565b60006040820190506133096000830185612c33565b61331660208301846126a2565b9392505050565b60006040820190506133326000830185612c33565b61333f602083018461266e565b9392505050565b7f4e487b7100000000000000000000000000000000000000000000000000000000600052602260045260246000fd5b6000600282049050600182168061338d57607f821691505b6020821081036133a05761339f613346565b5b50919050565b60006040820190506133bb6000830185612c33565b6133c8602083018461272f565b9392505050565b60008190508160005260206000209050919050565b60006020601f8301049050919050565b600082821b905092915050565b6000600883026134317fffffffffffffffffffffffffffffffffffffffffffffffffffffffffffffffff826133f4565b61343b86836133f4565b95508019841693508086168417925050509392505050565b600061346e61346961346484612698565b612e9f565b612698565b9050919050565b6000819050919050565b61348883613453565b61349c61349482613475565b848454613401565b825550505050565b600090565b6134b16134a4565b6134bc81848461347f565b505050565b5b818110156134e0576134d56000826134a9565b6001810190506134c2565b5050565b601f821115613525576134f6816133cf565b6134ff846133e4565b8101602085101561350e578190505b61352261351a856133e4565b8301826134c1565b50505b505050565b600082821c905092915050565b60006135486000198460080261352a565b1980831691505092915050565b60006135618383613537565b9150826002028217905092915050565b61357a82612ba3565b67ffffffffffffffff811115613593576135926131dc565b5b61359d8254613375565b6135a88282856134e4565b600060209050601f8311600181146135db57600084156135c9578287015190505b6135d38582613555565b86555061363b565b601f1984166135e9866133cf565b60005b82811015613611578489015182556001820191506020850194506020810190506135ec565b8683101561362e578489015161362a601f891682613537565b8355505b6001600288020188555050505b505050505050565b600060a082019050613658600083018861272f565b613665602083018761272f565b613672604083018661272f565b61367f60608301856126a2565b61368c6080830184612c33565b969550505050505056fea26469706673582212205269f92d813f7f4d344d8d0b67a1aaf370ac8e1db2711f4baa95028117bb34e964736f6c63430008180033",
  "linkReferences": {},
  "deployedLinkReferences": {}
}