{
  "_format": "hh-sol-artifact-1",
  "contractName": "StakingV2",
  "sourceName": "contracts/StakingV2.sol",
  "abi": [
    {
      "inputs": [],
      "name": "AccessControlBadConfirmation",
      "type": "error"
    },
    {
      "inputs": [
        {
          "internalType": "address",
          "name": "account",
          "type": "address"
        },
        {
          "internalType": "bytes32",
          "name": "neededRole",
          "type": "bytes32"
        }
      ],
      "name": "AccessControlUnauthorizedAccount",
      "type": "error"
    },
    {
      "inputs": [
        {
          "internalType": "address",
          "name": "target",
          "type": "address"
        }
      ],
      "name": "AddressEmptyCode",
      "type": "error"
    },
    {
      "inputs": [
        {
          "internalType": "address",
          "name": "account",
          "type": "address"
        }
      ],
      "name": "AddressInsufficientBalance",
      "type": "error"
    },
    {
      "inputs": [],
      "name": "EnforcedPause",
      "type": "error"
    },
    {
      "inputs": [],
      "name": "ExpectedPause",
      "type": "error"
    },
    {
      "inputs": [],
      "name": "FailedInnerCall",
      "type": "error"
    },
    {
      "inputs": [],
      "name": "InvalidInitialization",
      "type": "error"
    },
    {
      "inputs": [],
      "name": "NotInitializing",
      "type": "error"
    },
    {
      "inputs": [
        {
          "internalType": "address",
          "name": "token",
          "type": "address"
        }
      ],
      "name": "SafeERC20FailedOperation",
      "type": "error"
    },
    {
      "inputs": [],
      "name": "Staking_AmountShouldBeGreaterThanZero",
      "type": "error"
    },
    {
      "inputs": [],
      "name": "Staking_EmptyIndexes",
      "type": "error"
    },
    {
      "inputs": [],
      "name": "Staking_InvalidBeneficiary",
      "type": "error"
    },
    {
      "inputs": [],
      "name": "Staking_InvalidDefaultAdmin",
      "type": "error"
    },
    {
      "inputs": [],
      "name": "Staking_InvalidInputLength",
      "type": "error"
    },
    {
      "inputs": [],
      "name": "Staking_InvalidLockPeriod",
      "type": "error"
    },
    {
      "inputs": [],
      "name": "Staking_InvalidMoxieBondingCurve",
      "type": "error"
    },
    {
      "inputs": [],
      "name": "Staking_InvalidMoxieToken",
      "type": "error"
    },
    {
      "inputs": [],
      "name": "Staking_InvalidSubject",
      "type": "error"
    },
    {
      "inputs": [],
      "name": "Staking_InvalidSubjectToken",
      "type": "error"
    },
    {
      "inputs": [],
      "name": "Staking_InvalidTokenManager",
      "type": "error"
    },
    {
      "inputs": [
        {
          "internalType": "uint256",
          "name": "index",
          "type": "uint256"
        },
        {
          "internalType": "uint256",
          "name": "currentTime",
          "type": "uint256"
        },
        {
          "internalType": "uint256",
          "name": "unlockTime",
          "type": "uint256"
        }
      ],
      "name": "Staking_LockNotExpired",
      "type": "error"
    },
    {
      "inputs": [],
      "name": "Staking_LockPeriodAlreadySet",
      "type": "error"
    },
    {
      "inputs": [
        {
          "internalType": "uint256",
          "name": "index",
          "type": "uint256"
        }
      ],
      "name": "Staking_NotOwner",
      "type": "error"
    },
    {
      "inputs": [
        {
          "internalType": "uint256",
          "name": "index",
          "type": "uint256"
        }
      ],
      "name": "Staking_NotSameUser",
      "type": "error"
    },
    {
      "inputs": [
        {
          "internalType": "uint256",
          "name": "index",
          "type": "uint256"
        }
      ],
      "name": "Staking_SubjectsDoesNotMatch",
      "type": "error"
    },
    {
      "anonymous": false,
      "inputs": [
        {
          "indexed": false,
          "internalType": "uint64",
          "name": "version",
          "type": "uint64"
        }
      ],
      "name": "Initialized",
      "type": "event"
    },
    {
      "anonymous": false,
      "inputs": [
        {
          "indexed": true,
          "internalType": "address",
          "name": "_user",
          "type": "address"
        },
        {
          "indexed": true,
          "internalType": "address",
          "name": "_subject",
          "type": "address"
        },
        {
          "indexed": true,
          "internalType": "address",
          "name": "_subjectToken",
          "type": "address"
        },
        {
          "indexed": false,
          "internalType": "uint256",
          "name": "_index",
          "type": "uint256"
        },
        {
          "indexed": false,
          "internalType": "uint256",
          "name": "_amount",
          "type": "uint256"
        },
        {
          "indexed": false,
          "internalType": "uint256",
          "name": "_unlockTimeInSec",
          "type": "uint256"
        },
        {
          "indexed": false,
          "internalType": "uint256",
          "name": "_lockPeriodInSec",
          "type": "uint256"
        },
        {
          "indexed": false,
          "internalType": "address",
          "name": "_buyer",
          "type": "address"
        },
        {
          "indexed": false,
          "internalType": "uint256",
          "name": "_moxieDepositAmount",
          "type": "uint256"
        }
      ],
      "name": "Lock",
      "type": "event"
    },
    {
      "anonymous": false,
      "inputs": [
        {
          "indexed": true,
          "internalType": "address",
          "name": "_user",
          "type": "address"
        },
        {
          "indexed": true,
          "internalType": "address",
          "name": "_subject",
          "type": "address"
        },
        {
          "indexed": true,
          "internalType": "address",
          "name": "_subjectToken",
          "type": "address"
        },
        {
          "indexed": false,
          "internalType": "uint256[]",
          "name": "_indexes",
          "type": "uint256[]"
        },
        {
          "indexed": false,
          "internalType": "uint256",
          "name": "_amount",
          "type": "uint256"
        }
      ],
      "name": "LockExtended",
      "type": "event"
    },
    {
      "anonymous": false,
      "inputs": [
        {
          "indexed": true,
          "internalType": "uint256",
          "name": "_lockPeriodInSec",
          "type": "uint256"
        },
        {
          "indexed": true,
          "internalType": "bool",
          "name": "_allowed",
          "type": "bool"
        }
      ],
      "name": "LockPeriodUpdated",
      "type": "event"
    },
    {
      "anonymous": false,
      "inputs": [
        {
          "indexed": false,
          "internalType": "address",
          "name": "account",
          "type": "address"
        }
      ],
      "name": "Paused",
      "type": "event"
    },
    {
      "anonymous": false,
      "inputs": [
        {
          "indexed": true,
          "internalType": "bytes32",
          "name": "role",
          "type": "bytes32"
        },
        {
          "indexed": true,
          "internalType": "bytes32",
          "name": "previousAdminRole",
          "type": "bytes32"
        },
        {
          "indexed": true,
          "internalType": "bytes32",
          "name": "newAdminRole",
          "type": "bytes32"
        }
      ],
      "name": "RoleAdminChanged",
      "type": "event"
    },
    {
      "anonymous": false,
      "inputs": [
        {
          "indexed": true,
          "internalType": "bytes32",
          "name": "role",
          "type": "bytes32"
        },
        {
          "indexed": true,
          "internalType": "address",
          "name": "account",
          "type": "address"
        },
        {
          "indexed": true,
          "internalType": "address",
          "name": "sender",
          "type": "address"
        }
      ],
      "name": "RoleGranted",
      "type": "event"
    },
    {
      "anonymous": false,
      "inputs": [
        {
          "indexed": true,
          "internalType": "bytes32",
          "name": "role",
          "type": "bytes32"
        },
        {
          "indexed": true,
          "internalType": "address",
          "name": "account",
          "type": "address"
        },
        {
          "indexed": true,
          "internalType": "address",
          "name": "sender",
          "type": "address"
        }
      ],
      "name": "RoleRevoked",
      "type": "event"
    },
    {
      "anonymous": false,
      "inputs": [
        {
          "indexed": false,
          "internalType": "address",
          "name": "account",
          "type": "address"
        }
      ],
      "name": "Unpaused",
      "type": "event"
    },
    {
      "anonymous": false,
      "inputs": [
        {
          "indexed": true,
          "internalType": "address",
          "name": "_user",
          "type": "address"
        },
        {
          "indexed": true,
          "internalType": "address",
          "name": "_subject",
          "type": "address"
        },
        {
          "indexed": true,
          "internalType": "address",
          "name": "_subjectToken",
          "type": "address"
        },
        {
          "indexed": false,
          "internalType": "uint256[]",
          "name": "_indexes",
          "type": "uint256[]"
        },
        {
          "indexed": false,
          "internalType": "uint256",
          "name": "_amount",
          "type": "uint256"
        }
      ],
      "name": "Withdraw",
      "type": "event"
    },
    {
      "inputs": [],
      "name": "CHANGE_LOCK_DURATION",
      "outputs": [
        {
          "internalType": "bytes32",
          "name": "",
          "type": "bytes32"
        }
      ],
      "stateMutability": "view",
      "type": "function"
    },
    {
      "inputs": [],
      "name": "DEFAULT_ADMIN_ROLE",
      "outputs": [
        {
          "internalType": "bytes32",
          "name": "",
          "type": "bytes32"
        }
      ],
      "stateMutability": "view",
      "type": "function"
    },
    {
      "inputs": [],
      "name": "PAUSE_ROLE",
      "outputs": [
        {
          "internalType": "bytes32",
          "name": "",
          "type": "bytes32"
        }
      ],
      "stateMutability": "view",
      "type": "function"
    },
    {
      "inputs": [
        {
          "internalType": "address",
          "name": "_subject",
          "type": "address"
        },
        {
          "internalType": "uint256",
          "name": "_depositAmount",
          "type": "uint256"
        },
        {
          "internalType": "uint256",
          "name": "_minReturnAmountAfterFee",
          "type": "uint256"
        },
        {
          "internalType": "uint256",
          "name": "_lockPeriodInSec",
          "type": "uint256"
        }
      ],
      "name": "buyAndLock",
      "outputs": [
        {
          "internalType": "uint256",
          "name": "amount_",
          "type": "uint256"
        },
        {
          "internalType": "uint256",
          "name": "unlockTimeInSec_",
          "type": "uint256"
        }
      ],
      "stateMutability": "nonpayable",
      "type": "function"
    },
    {
      "inputs": [
        {
          "internalType": "address",
          "name": "_subject",
          "type": "address"
        },
        {
          "internalType": "uint256",
          "name": "_depositAmount",
          "type": "uint256"
        },
        {
          "internalType": "uint256",
          "name": "_minReturnAmountAfterFee",
          "type": "uint256"
        },
        {
          "internalType": "uint256",
          "name": "_lockPeriodInSec",
          "type": "uint256"
        },
        {
          "internalType": "address",
          "name": "_beneficiary",
          "type": "address"
        }
      ],
      "name": "buyAndLockFor",
      "outputs": [
        {
          "internalType": "uint256",
          "name": "amount_",
          "type": "uint256"
        },
        {
          "internalType": "uint256",
          "name": "unlockTimeInSec_",
          "type": "uint256"
        }
      ],
      "stateMutability": "nonpayable",
      "type": "function"
    },
    {
      "inputs": [
        {
          "internalType": "address",
          "name": "_subject",
          "type": "address"
        },
        {
          "internalType": "uint256",
          "name": "_depositAmount",
          "type": "uint256"
        },
        {
          "internalType": "uint256",
          "name": "_minReturnAmountAfterFee",
          "type": "uint256"
        },
        {
          "internalType": "uint256",
          "name": "_lockPeriodInSec",
          "type": "uint256"
        },
        {
          "internalType": "address",
          "name": "_beneficiary",
          "type": "address"
        },
        {
          "internalType": "address",
          "name": "_orderReferrer",
          "type": "address"
        }
      ],
      "name": "buyAndLockForV2",
      "outputs": [
        {
          "internalType": "uint256",
          "name": "amount_",
          "type": "uint256"
        },
        {
          "internalType": "uint256",
          "name": "unlockTimeInSec_",
          "type": "uint256"
        }
      ],
      "stateMutability": "nonpayable",
      "type": "function"
    },
    {
      "inputs": [
        {
          "internalType": "address[]",
          "name": "_subjects",
          "type": "address[]"
        },
        {
          "internalType": "uint256[]",
          "name": "_depositAmounts",
          "type": "uint256[]"
        },
        {
          "internalType": "uint256[]",
          "name": "_minReturnAmountsAfterFee",
          "type": "uint256[]"
        },
        {
          "internalType": "uint256",
          "name": "_lockPeriodInSec",
          "type": "uint256"
        }
      ],
      "name": "buyAndLockMultiple",
      "outputs": [
        {
          "internalType": "uint256[]",
          "name": "amounts_",
          "type": "uint256[]"
        },
        {
          "internalType": "uint256",
          "name": "unlockTimeInSec_",
          "type": "uint256"
        }
      ],
      "stateMutability": "nonpayable",
      "type": "function"
    },
    {
      "inputs": [
        {
          "internalType": "address[]",
          "name": "_subjects",
          "type": "address[]"
        },
        {
          "internalType": "uint256[]",
          "name": "_depositAmounts",
          "type": "uint256[]"
        },
        {
          "internalType": "uint256[]",
          "name": "_minReturnAmountsAfterFee",
          "type": "uint256[]"
        },
        {
          "internalType": "uint256",
          "name": "_lockPeriodInSec",
          "type": "uint256"
        },
        {
          "internalType": "address",
          "name": "_beneficiary",
          "type": "address"
        }
      ],
      "name": "buyAndLockMultipleFor",
      "outputs": [
        {
          "internalType": "uint256[]",
          "name": "amounts_",
          "type": "uint256[]"
        },
        {
          "internalType": "uint256",
          "name": "unlockTimeInSec_",
          "type": "uint256"
        }
      ],
      "stateMutability": "nonpayable",
      "type": "function"
    },
    {
      "inputs": [
        {
          "internalType": "address[]",
          "name": "_subjects",
          "type": "address[]"
        },
        {
          "internalType": "uint256[]",
          "name": "_depositAmounts",
          "type": "uint256[]"
        },
        {
          "internalType": "uint256[]",
          "name": "_minReturnAmountsAfterFee",
          "type": "uint256[]"
        },
        {
          "internalType": "uint256",
          "name": "_lockPeriodInSec",
          "type": "uint256"
        },
        {
          "internalType": "address",
          "name": "_beneficiary",
          "type": "address"
        },
        {
          "internalType": "address",
          "name": "_orderReferrer",
          "type": "address"
        }
      ],
      "name": "buyAndLockMultipleForV2",
      "outputs": [
        {
          "internalType": "uint256[]",
          "name": "amounts_",
          "type": "uint256[]"
        },
        {
          "internalType": "uint256",
          "name": "unlockTimeInSec_",
          "type": "uint256"
        }
      ],
      "stateMutability": "nonpayable",
      "type": "function"
    },
    {
      "inputs": [
        {
          "internalType": "address[]",
          "name": "_subjects",
          "type": "address[]"
        },
        {
          "internalType": "uint256[]",
          "name": "_depositAmounts",
          "type": "uint256[]"
        },
        {
          "internalType": "uint256[]",
          "name": "_minReturnAmountsAfterFee",
          "type": "uint256[]"
        },
        {
          "internalType": "uint256",
          "name": "_lockPeriodInSec",
          "type": "uint256"
        },
        {
          "internalType": "address",
          "name": "_orderReferrer",
          "type": "address"
        }
      ],
      "name": "buyAndLockMultipleV2",
      "outputs": [
        {
          "internalType": "uint256[]",
          "name": "amounts_",
          "type": "uint256[]"
        },
        {
          "internalType": "uint256",
          "name": "unlockTimeInSec_",
          "type": "uint256"
        }
      ],
      "stateMutability": "nonpayable",
      "type": "function"
    },
    {
      "inputs": [
        {
          "internalType": "address",
          "name": "_subject",
          "type": "address"
        },
        {
          "internalType": "uint256",
          "name": "_depositAmount",
          "type": "uint256"
        },
        {
          "internalType": "uint256",
          "name": "_minReturnAmountAfterFee",
          "type": "uint256"
        },
        {
          "internalType": "uint256",
          "name": "_lockPeriodInSec",
          "type": "uint256"
        },
        {
          "internalType": "address",
          "name": "_orderReferrer",
          "type": "address"
        }
      ],
      "name": "buyAndLockV2",
      "outputs": [
        {
          "internalType": "uint256",
          "name": "amount_",
          "type": "uint256"
        },
        {
          "internalType": "uint256",
          "name": "unlockTimeInSec_",
          "type": "uint256"
        }
      ],
      "stateMutability": "nonpayable",
      "type": "function"
    },
    {
      "inputs": [
        {
          "internalType": "address",
          "name": "_subject",
          "type": "address"
        },
        {
          "internalType": "uint256",
          "name": "_amount",
          "type": "uint256"
        },
        {
          "internalType": "uint256",
          "name": "_lockPeriodInSec",
          "type": "uint256"
        }
      ],
      "name": "depositAndLock",
      "outputs": [
        {
          "internalType": "uint256",
          "name": "unlockTimeInSec_",
          "type": "uint256"
        }
      ],
      "stateMutability": "nonpayable",
      "type": "function"
    },
    {
      "inputs": [
        {
          "internalType": "address",
          "name": "_subject",
          "type": "address"
        },
        {
          "internalType": "uint256",
          "name": "_amount",
          "type": "uint256"
        },
        {
          "internalType": "uint256",
          "name": "_lockPeriodInSec",
          "type": "uint256"
        },
        {
          "internalType": "address",
          "name": "_beneficiary",
          "type": "address"
        }
      ],
      "name": "depositAndLockFor",
      "outputs": [
        {
          "internalType": "uint256",
          "name": "unlockTimeInSec_",
          "type": "uint256"
        }
      ],
      "stateMutability": "nonpayable",
      "type": "function"
    },
    {
      "inputs": [
        {
          "internalType": "address[]",
          "name": "_subjects",
          "type": "address[]"
        },
        {
          "internalType": "uint256[]",
          "name": "_amounts",
          "type": "uint256[]"
        },
        {
          "internalType": "uint256",
          "name": "_lockPeriodInSec",
          "type": "uint256"
        }
      ],
      "name": "depositAndLockMultiple",
      "outputs": [
        {
          "internalType": "uint256",
          "name": "unlockTimeInSec_",
          "type": "uint256"
        }
      ],
      "stateMutability": "nonpayable",
      "type": "function"
    },
    {
      "inputs": [
        {
          "internalType": "address[]",
          "name": "_subjects",
          "type": "address[]"
        },
        {
          "internalType": "uint256[]",
          "name": "_amounts",
          "type": "uint256[]"
        },
        {
          "internalType": "uint256",
          "name": "_lockPeriodInSec",
          "type": "uint256"
        },
        {
          "internalType": "address",
          "name": "_beneficiary",
          "type": "address"
        }
      ],
      "name": "depositAndLockMultipleFor",
      "outputs": [
        {
          "internalType": "uint256",
          "name": "unlockTimeInSec_",
          "type": "uint256"
        }
      ],
      "stateMutability": "nonpayable",
      "type": "function"
    },
    {
      "inputs": [
        {
          "internalType": "address",
          "name": "_subject",
          "type": "address"
        },
        {
          "internalType": "uint256[]",
          "name": "_indexes",
          "type": "uint256[]"
        },
        {
          "internalType": "uint256",
          "name": "_lockPeriodInSec",
          "type": "uint256"
        }
      ],
      "name": "extendLock",
      "outputs": [
        {
          "internalType": "uint256",
          "name": "totalAmount_",
          "type": "uint256"
        },
        {
          "internalType": "uint256",
          "name": "unlockTimeInSec_",
          "type": "uint256"
        }
      ],
      "stateMutability": "nonpayable",
      "type": "function"
    },
    {
      "inputs": [
        {
          "internalType": "address",
          "name": "_subject",
          "type": "address"
        },
        {
          "internalType": "uint256[]",
          "name": "_indexes",
          "type": "uint256[]"
        },
        {
          "internalType": "uint256",
          "name": "_lockPeriodInSec",
          "type": "uint256"
        },
        {
          "internalType": "address",
          "name": "_beneficiary",
          "type": "address"
        }
      ],
      "name": "extendLockFor",
      "outputs": [
        {
          "internalType": "uint256",
          "name": "totalAmount_",
          "type": "uint256"
        },
        {
          "internalType": "uint256",
          "name": "unlockTimeInSec_",
          "type": "uint256"
        }
      ],
      "stateMutability": "nonpayable",
      "type": "function"
    },
    {
      "inputs": [
        {
          "internalType": "bytes32",
          "name": "role",
          "type": "bytes32"
        }
      ],
      "name": "getRoleAdmin",
      "outputs": [
        {
          "internalType": "bytes32",
          "name": "",
          "type": "bytes32"
        }
      ],
      "stateMutability": "view",
      "type": "function"
    },
    {
      "inputs": [
        {
          "internalType": "address",
          "name": "_user",
          "type": "address"
        },
        {
          "internalType": "address",
          "name": "_subject",
          "type": "address"
        },
        {
          "internalType": "uint256[]",
          "name": "_indexes",
          "type": "uint256[]"
        }
      ],
      "name": "getTotalStakedAmount",
      "outputs": [
        {
          "internalType": "uint256",
          "name": "totalAmount_",
          "type": "uint256"
        }
      ],
      "stateMutability": "view",
      "type": "function"
    },
    {
      "inputs": [
        {
          "internalType": "bytes32",
          "name": "role",
          "type": "bytes32"
        },
        {
          "internalType": "address",
          "name": "account",
          "type": "address"
        }
      ],
      "name": "grantRole",
      "outputs": [],
      "stateMutability": "nonpayable",
      "type": "function"
    },
    {
      "inputs": [
        {
          "internalType": "bytes32",
          "name": "role",
          "type": "bytes32"
        },
        {
          "internalType": "address",
          "name": "account",
          "type": "address"
        }
      ],
      "name": "hasRole",
      "outputs": [
        {
          "internalType": "bool",
          "name": "",
          "type": "bool"
        }
      ],
      "stateMutability": "view",
      "type": "function"
    },
    {
      "inputs": [
        {
          "internalType": "address",
          "name": "_tokenManager",
          "type": "address"
        },
        {
          "internalType": "address",
          "name": "_moxieBondingCurve",
          "type": "address"
        },
        {
          "internalType": "address",
          "name": "_moxieToken",
          "type": "address"
        },
        {
          "internalType": "address",
          "name": "_defaultAdmin",
          "type": "address"
        }
      ],
      "name": "initialize",
      "outputs": [],
      "stateMutability": "nonpayable",
      "type": "function"
    },
    {
      "inputs": [],
      "name": "lockCount",
      "outputs": [
        {
          "internalType": "uint256",
          "name": "",
          "type": "uint256"
        }
      ],
      "stateMutability": "view",
      "type": "function"
    },
    {
      "inputs": [
        {
          "internalType": "uint256",
          "name": "lockPeriodInSec",
          "type": "uint256"
        }
      ],
      "name": "lockPeriodsInSec",
      "outputs": [
        {
          "internalType": "bool",
          "name": "allowed",
          "type": "bool"
        }
      ],
      "stateMutability": "view",
      "type": "function"
    },
    {
      "inputs": [
        {
          "internalType": "uint256",
          "name": "lockId",
          "type": "uint256"
        }
      ],
      "name": "locks",
      "outputs": [
        {
          "internalType": "address",
          "name": "user",
          "type": "address"
        },
        {
          "internalType": "address",
          "name": "subject",
          "type": "address"
        },
        {
          "internalType": "address",
          "name": "subjectToken",
          "type": "address"
        },
        {
          "internalType": "uint256",
          "name": "unlockTimeInSec",
          "type": "uint256"
        },
        {
          "internalType": "uint256",
          "name": "amount",
          "type": "uint256"
        },
        {
          "internalType": "uint256",
          "name": "lockPeriodInSec",
          "type": "uint256"
        }
      ],
      "stateMutability": "view",
      "type": "function"
    },
    {
      "inputs": [],
      "name": "moxieBondingCurve",
      "outputs": [
        {
          "internalType": "contract IMoxieBondingCurveV2",
          "name": "",
          "type": "address"
        }
      ],
      "stateMutability": "view",
      "type": "function"
    },
    {
      "inputs": [],
      "name": "moxieToken",
      "outputs": [
        {
          "internalType": "contract IERC20Extended",
          "name": "",
          "type": "address"
        }
      ],
      "stateMutability": "view",
      "type": "function"
    },
    {
      "inputs": [],
      "name": "pause",
      "outputs": [],
      "stateMutability": "nonpayable",
      "type": "function"
    },
    {
      "inputs": [],
      "name": "paused",
      "outputs": [
        {
          "internalType": "bool",
          "name": "",
          "type": "bool"
        }
      ],
      "stateMutability": "view",
      "type": "function"
    },
    {
      "inputs": [
        {
          "internalType": "bytes32",
          "name": "role",
          "type": "bytes32"
        },
        {
          "internalType": "address",
          "name": "callerConfirmation",
          "type": "address"
        }
      ],
      "name": "renounceRole",
      "outputs": [],
      "stateMutability": "nonpayable",
      "type": "function"
    },
    {
      "inputs": [
        {
          "internalType": "bytes32",
          "name": "role",
          "type": "bytes32"
        },
        {
          "internalType": "address",
          "name": "account",
          "type": "address"
        }
      ],
      "name": "revokeRole",
      "outputs": [],
      "stateMutability": "nonpayable",
      "type": "function"
    },
    {
      "inputs": [
        {
          "internalType": "uint256",
          "name": "_lockPeriodInSec",
          "type": "uint256"
        },
        {
          "internalType": "bool",
          "name": "_allowed",
          "type": "bool"
        }
      ],
      "name": "setLockPeriod",
      "outputs": [],
      "stateMutability": "nonpayable",
      "type": "function"
    },
    {
      "inputs": [
        {
          "internalType": "bytes4",
          "name": "interfaceId",
          "type": "bytes4"
        }
      ],
      "name": "supportsInterface",
      "outputs": [
        {
          "internalType": "bool",
          "name": "",
          "type": "bool"
        }
      ],
      "stateMutability": "view",
      "type": "function"
    },
    {
      "inputs": [],
      "name": "tokenManager",
      "outputs": [
        {
          "internalType": "contract ITokenManager",
          "name": "",
          "type": "address"
        }
      ],
      "stateMutability": "view",
      "type": "function"
    },
    {
      "inputs": [],
      "name": "unpause",
      "outputs": [],
      "stateMutability": "nonpayable",
      "type": "function"
    },
    {
      "inputs": [
        {
          "internalType": "address",
          "name": "_subject",
          "type": "address"
        },
        {
          "internalType": "uint256[]",
          "name": "_indexes",
          "type": "uint256[]"
        }
      ],
      "name": "withdraw",
      "outputs": [
        {
          "internalType": "uint256",
          "name": "totalAmount_",
          "type": "uint256"
        }
      ],
      "stateMutability": "nonpayable",
      "type": "function"
    }
  ],
  "bytecode": "0x608060405234801561001057600080fd5b50614e3e806100206000396000f3fe608060405234801561001057600080fd5b506004361061021c5760003560e01c80636fe6e1f211610125578063a6da1e7d116100ad578063dbfc77c41161007c578063dbfc77c4146106f5578063ee67f0ab14610711578063f4dadc6114610741578063f7b01a4914610776578063f8c8765e146107945761021c565b8063a6da1e7d14610648578063cc98a1bc14610678578063d475f26e146106a8578063d547741f146106d95761021c565b80638e7e260e116100f45780638e7e260e1461057a57806391d14854146105ab57806391ee3154146105db5780639b10b6f51461060c578063a217fddf1461062a5761021c565b80636fe6e1f2146104f257806380aa59d7146105105780638293744b146105405780638456cb59146105705761021c565b806337cfb944116101a85780634711987d116101775780634711987d1461041257806349cc79f1146104435780635c142f8f146104735780635c975abb146104a35780636d9322a8146104c15761021c565b806337cfb944146103885780633891abd7146103b9578063389ed267146103ea5780633f4ba83a146104085761021c565b8063278a01d7116101ef578063278a01d7146102d05780632a709b14146103015780632d9220021461031f5780632f2ff15d1461035057806336568abe1461036c5761021c565b806301ffc9a714610221578063096532d314610251578063158a21e21461026f578063248a9ca3146102a0575b600080fd5b61023b60048036038101906102369190613a97565b6107b0565b6040516102489190613adf565b60405180910390f35b61025961082a565b6040516102669190613b13565b60405180910390f35b61028960048036038101906102849190613bc2565b61084e565b604051610297929190613c4c565b60405180910390f35b6102ba60048036038101906102b59190613ca1565b6108d3565b6040516102c79190613b13565b60405180910390f35b6102ea60048036038101906102e59190613eea565b610901565b6040516102f8929190614077565b60405180910390f35b610309610985565b6040516103169190614106565b60405180910390f35b61033960048036038101906103349190614121565b6109a9565b604051610347929190613c4c565b60405180910390f35b61036a60048036038101906103659190614188565b610a2c565b005b61038660048036038101906103819190614188565b610a4e565b005b6103a2600480360381019061039d91906141c8565b610ac9565b6040516103b0929190613c4c565b60405180910390f35b6103d360048036038101906103ce9190613bc2565b610be3565b6040516103e1929190613c4c565b60405180910390f35b6103f2610c66565b6040516103ff9190613b13565b60405180910390f35b610410610c8a565b005b61042c60048036038101906104279190614237565b610cbf565b60405161043a929190614077565b60405180910390f35b61045d60048036038101906104589190614318565b610d45565b60405161046a91906143b7565b60405180910390f35b61048d600480360381019061048891906143d2565b610e51565b60405161049a91906143b7565b60405180910390f35b6104ab610f5c565b6040516104b89190613adf565b60405180910390f35b6104db60048036038101906104d69190613eea565b610f81565b6040516104e9929190614077565b60405180910390f35b6104fa611007565b604051610507919061447e565b60405180910390f35b61052a600480360381019061052591906144f4565b61102d565b60405161053791906143b7565b60405180910390f35b61055a60048036038101906105559190614568565b6112b2565b60405161056791906143b7565b60405180910390f35b610578611386565b005b610594600480360381019061058f91906145c4565b6113bb565b6040516105a2929190614077565b60405180910390f35b6105c560048036038101906105c09190614188565b61143f565b6040516105d29190613adf565b60405180910390f35b6105f560048036038101906105f0919061467f565b6114b8565b604051610603929190613c4c565b60405180910390f35b61061461153d565b60405161062191906143b7565b60405180910390f35b610632611543565b60405161063f9190613b13565b60405180910390f35b610662600480360381019061065d919061470c565b61154a565b60405161066f91906143b7565b60405180910390f35b610692600480360381019061068d919061475f565b6115cc565b60405161069f9190613adf565b60405180910390f35b6106c260048036038101906106bd919061478c565b6115ec565b6040516106d0929190613c4c565b60405180910390f35b6106f360048036038101906106ee9190614188565b611707565b005b61070f600480360381019061070a919061483b565b611729565b005b61072b6004803603810190610726919061487b565b611810565b60405161073891906143b7565b60405180910390f35b61075b6004803603810190610756919061475f565b611893565b60405161076d969594939291906148f1565b60405180910390f35b61077e61192f565b60405161078b9190614973565b60405180910390f35b6107ae60048036038101906107a9919061498e565b611955565b005b60007f7965db0b000000000000000000000000000000000000000000000000000000007bffffffffffffffffffffffffffffffffffffffffffffffffffffffff1916827bffffffffffffffffffffffffffffffffffffffffffffffffffffffff19161480610823575061082282611bca565b5b9050919050565b7f7ca588b5e450d40c42764eba69cbb46460b25758bda615268602d355e47bc5f281565b600080610859611c34565b836005600082815260200190815260200160002060009054906101000a900460ff166108b1576040517fd1514d2300000000000000000000000000000000000000000000000000000000815260040160405180910390fd5b6108c088888888886000611c75565b8093508194505050509550959350505050565b6000806108de611e55565b905080600001600084815260200190815260200160002060010154915050919050565b6060600061090d611c34565b836005600082815260200190815260200160002060009054906101000a900460ff16610965576040517fd1514d2300000000000000000000000000000000000000000000000000000000815260040160405180910390fd5b6109728888888888611e7d565b8093508194505050509550959350505050565b60008054906101000a900473ffffffffffffffffffffffffffffffffffffffff1681565b6000806109b4611c34565b826005600082815260200190815260200160002060009054906101000a900460ff16610a0c576040517fd1514d2300000000000000000000000000000000000000000000000000000000815260040160405180910390fd5b610a1a8787878760006121f6565b80935081945050505094509492505050565b610a35826108d3565b610a3e816123d5565b610a4883836123e9565b50505050565b610a566124ea565b73ffffffffffffffffffffffffffffffffffffffff168173ffffffffffffffffffffffffffffffffffffffff1614610aba576040517f6697b23200000000000000000000000000000000000000000000000000000000815260040160405180910390fd5b610ac482826124f2565b505050565b600080610ad4611c34565b826005600082815260200190815260200160002060009054906101000a900460ff16610b2c576040517fd1514d2300000000000000000000000000000000000000000000000000000000815260040160405180910390fd5b6000610b3887876125f4565b80955081925050508073ffffffffffffffffffffffffffffffffffffffff168773ffffffffffffffffffffffffffffffffffffffff163373ffffffffffffffffffffffffffffffffffffffff167f91abcbedcaad3eda62ec73be1f3b200f1beeeb47768774d2aebb0a196238e92d8988604051610bb6929190614077565b60405180910390a4610bc785612b46565b9250610bd887858786336000612b5b565b505050935093915050565b600080610bee611c34565b836005600082815260200190815260200160002060009054906101000a900460ff16610c46576040517fd1514d2300000000000000000000000000000000000000000000000000000000815260040160405180910390fd5b610c5388888888886121f6565b8093508194505050509550959350505050565b7f139c2898040ef16910dc9f44dc697df79363da767d8bc92f2e310312b816e46d81565b7f139c2898040ef16910dc9f44dc697df79363da767d8bc92f2e310312b816e46d610cb4816123d5565b610cbc612f53565b50565b60606000610ccb611c34565b846005600082815260200190815260200160002060009054906101000a900460ff16610d23576040517fd1514d2300000000000000000000000000000000000000000000000000000000815260040160405180910390fd5b610d31898989898989612fc5565b809350819450505050965096945050505050565b6000610d4f611c34565b826005600082815260200190815260200160002060009054906101000a900460ff16610da7576040517fd1514d2300000000000000000000000000000000000000000000000000000000815260040160405180910390fd5b8451865114610de2576040517ff189683a00000000000000000000000000000000000000000000000000000000815260040160405180910390fd5b610deb84612b46565b915060005b8651811015610e4757610e3a878281518110610e0f57610e0e6149f5565b5b6020026020010151878381518110610e2a57610e296149f5565b5b6020026020010151878688613353565b8080600101915050610df0565b5050949350505050565b6000610e5b611c34565b816005600082815260200190815260200160002060009054906101000a900460ff16610eb3576040517fd1514d2300000000000000000000000000000000000000000000000000000000815260040160405180910390fd5b8351855114610eee576040517ff189683a00000000000000000000000000000000000000000000000000000000815260040160405180910390fd5b610ef783612b46565b915060005b8551811015610f5357610f46868281518110610f1b57610f1a6149f5565b5b6020026020010151868381518110610f3657610f356149f5565b5b6020026020010151868633613353565b8080600101915050610efc565b50509392505050565b600080610f6761339b565b90508060000160009054906101000a900460ff1691505090565b60606000610f8d611c34565b836005600082815260200190815260200160002060009054906101000a900460ff16610fe5576040517fd1514d2300000000000000000000000000000000000000000000000000000000815260040160405180910390fd5b610ff488888888886000612fc5565b8093508194505050509550959350505050565b600260009054906101000a900473ffffffffffffffffffffffffffffffffffffffff1681565b600080600090505b838390508110156112a9576000848483818110611055576110546149f5565b5b9050602002013590506000600460008381526020019081526020016000206040518060c00160405290816000820160009054906101000a900473ffffffffffffffffffffffffffffffffffffffff1673ffffffffffffffffffffffffffffffffffffffff1673ffffffffffffffffffffffffffffffffffffffff1681526020016001820160009054906101000a900473ffffffffffffffffffffffffffffffffffffffff1673ffffffffffffffffffffffffffffffffffffffff1673ffffffffffffffffffffffffffffffffffffffff1681526020016002820160009054906101000a900473ffffffffffffffffffffffffffffffffffffffff1673ffffffffffffffffffffffffffffffffffffffff1673ffffffffffffffffffffffffffffffffffffffff168152602001600382015481526020016004820154815260200160058201548152505090508773ffffffffffffffffffffffffffffffffffffffff16816000015173ffffffffffffffffffffffffffffffffffffffff161461121457816040517ff6953e9300000000000000000000000000000000000000000000000000000000815260040161120b91906143b7565b60405180910390fd5b8673ffffffffffffffffffffffffffffffffffffffff16816020015173ffffffffffffffffffffffffffffffffffffffff161461128857816040517fb5e6545c00000000000000000000000000000000000000000000000000000000815260040161127f91906143b7565b60405180910390fd5b8060800151846112989190614a53565b935050508080600101915050611035565b50949350505050565b60006112bc611c34565b60006112c884846125f4565b8093508192505050600081905061130033848373ffffffffffffffffffffffffffffffffffffffff166133c39092919063ffffffff16565b8173ffffffffffffffffffffffffffffffffffffffff168573ffffffffffffffffffffffffffffffffffffffff163373ffffffffffffffffffffffffffffffffffffffff167f9a854cd73e1d94f13ab58c2976ab2e4ca74d625e791ea082e840e556ce1c7a508787604051611376929190614077565b60405180910390a4505092915050565b7f139c2898040ef16910dc9f44dc697df79363da767d8bc92f2e310312b816e46d6113b0816123d5565b6113b8613442565b50565b606060006113c7611c34565b826005600082815260200190815260200160002060009054906101000a900460ff1661141f576040517fd1514d2300000000000000000000000000000000000000000000000000000000815260040160405180910390fd5b61142d878787876000611e7d565b80935081945050505094509492505050565b60008061144a611e55565b905080600001600085815260200190815260200160002060000160008473ffffffffffffffffffffffffffffffffffffffff1673ffffffffffffffffffffffffffffffffffffffff16815260200190815260200160002060009054906101000a900460ff1691505092915050565b6000806114c3611c34565b846005600082815260200190815260200160002060009054906101000a900460ff1661151b576040517fd1514d2300000000000000000000000000000000000000000000000000000000815260040160405180910390fd5b611529898989898989611c75565b809350819450505050965096945050505050565b60035481565b6000801b81565b6000611554611c34565b816005600082815260200190815260200160002060009054906101000a900460ff166115ac576040517fd1514d2300000000000000000000000000000000000000000000000000000000815260040160405180910390fd5b6115b583612b46565b91506115c48585858533613353565b509392505050565b60056020528060005260406000206000915054906101000a900460ff1681565b6000806115f7611c34565b836005600082815260200190815260200160002060009054906101000a900460ff1661164f576040517fd1514d2300000000000000000000000000000000000000000000000000000000815260040160405180910390fd5b600061165b88886125f4565b80955081925050508073ffffffffffffffffffffffffffffffffffffffff168873ffffffffffffffffffffffffffffffffffffffff163373ffffffffffffffffffffffffffffffffffffffff167f91abcbedcaad3eda62ec73be1f3b200f1beeeb47768774d2aebb0a196238e92d8a886040516116d9929190614077565b60405180910390a46116ea86612b46565b92506116fb88858886896000612b5b565b50505094509492505050565b611710826108d3565b611719816123d5565b61172383836124f2565b50505050565b7f7ca588b5e450d40c42764eba69cbb46460b25758bda615268602d355e47bc5f2611753816123d5565b8115156005600085815260200190815260200160002060009054906101000a900460ff161515036117b0576040517fb1b7455c00000000000000000000000000000000000000000000000000000000815260040160405180910390fd5b816005600085815260200190815260200160002060006101000a81548160ff021916908315150217905550811515837f40c5bfb9d833b107d80745dd8b8cf040c9a1019f963291743fa1bc595d43964660405160405180910390a3505050565b600061181a611c34565b826005600082815260200190815260200160002060009054906101000a900460ff16611872576040517fd1514d2300000000000000000000000000000000000000000000000000000000815260040160405180910390fd5b61187b84612b46565b915061188a8686868587613353565b50949350505050565b60046020528060005260406000206000915090508060000160009054906101000a900473ffffffffffffffffffffffffffffffffffffffff16908060010160009054906101000a900473ffffffffffffffffffffffffffffffffffffffff16908060020160009054906101000a900473ffffffffffffffffffffffffffffffffffffffff16908060030154908060040154908060050154905086565b600160009054906101000a900473ffffffffffffffffffffffffffffffffffffffff1681565b600061195f6134b4565b905060008160000160089054906101000a900460ff1615905060008260000160009054906101000a900467ffffffffffffffff1690506000808267ffffffffffffffff161480156119ad5750825b9050600060018367ffffffffffffffff161480156119e2575060003073ffffffffffffffffffffffffffffffffffffffff163b145b9050811580156119f0575080155b15611a27576040517ff92ee8a900000000000000000000000000000000000000000000000000000000815260040160405180910390fd5b60018560000160006101000a81548167ffffffffffffffff021916908367ffffffffffffffff1602179055508315611a775760018560000160086101000a81548160ff0219169083151502179055505b611a7f6134dc565b611a876134e6565b611a93898989896134f8565b886000806101000a81548173ffffffffffffffffffffffffffffffffffffffff021916908373ffffffffffffffffffffffffffffffffffffffff16021790555087600160006101000a81548173ffffffffffffffffffffffffffffffffffffffff021916908373ffffffffffffffffffffffffffffffffffffffff16021790555086600260006101000a81548173ffffffffffffffffffffffffffffffffffffffff021916908373ffffffffffffffffffffffffffffffffffffffff160217905550611b626000801b876123e9565b508315611bbf5760008560000160086101000a81548160ff0219169083151502179055507fc7f505b2f371ae2175ee4913f4499e1f2633a7b5936321eed1cdaeb6115181d26001604051611bb69190614ad6565b60405180910390a15b505050505050505050565b60007f01ffc9a7000000000000000000000000000000000000000000000000000000007bffffffffffffffffffffffffffffffffffffffffffffffffffffffff1916827bffffffffffffffffffffffffffffffffffffffffffffffffffffffff1916149050919050565b611c3c610f5c565b15611c73576040517fd93c066500000000000000000000000000000000000000000000000000000000815260040160405180910390fd5b565b600080611cc7333089600260009054906101000a900473ffffffffffffffffffffffffffffffffffffffff1673ffffffffffffffffffffffffffffffffffffffff166135fe909392919063ffffffff16565b600260009054906101000a900473ffffffffffffffffffffffffffffffffffffffff1673ffffffffffffffffffffffffffffffffffffffff1663095ea7b3600160009054906101000a900473ffffffffffffffffffffffffffffffffffffffff16896040518363ffffffff1660e01b8152600401611d46929190614af1565b6020604051808303816000875af1158015611d65573d6000803e3d6000fd5b505050506040513d601f19601f82011682018060405250810190611d899190614b2f565b50600160009054906101000a900473ffffffffffffffffffffffffffffffffffffffff1673ffffffffffffffffffffffffffffffffffffffff1663ec495128898989876040518563ffffffff1660e01b8152600401611deb9493929190614b5c565b6020604051808303816000875af1158015611e0a573d6000803e3d6000fd5b505050506040513d601f19601f82011682018060405250810190611e2e9190614bb6565b9150611e3985612b46565b9050611e4988838784888c612b5b565b50965096945050505050565b60007f02dd7bc7dec4dceedda775e58dd541e08a116c6c53815c0bd028192f7b626800905090565b6060600085518751141580611e9457508451875114155b15611ecb576040517ff189683a00000000000000000000000000000000000000000000000000000000815260040160405180910390fd5b865167ffffffffffffffff811115611ee657611ee5613ce4565b5b604051908082528060200260200182016040528015611f145781602001602082028036833780820191505090505b5091506000805b8851811015611f5957878181518110611f3757611f366149f5565b5b602002602001015182611f4a9190614a53565b91508080600101915050611f1b565b50611fa9333083600260009054906101000a900473ffffffffffffffffffffffffffffffffffffffff1673ffffffffffffffffffffffffffffffffffffffff166135fe909392919063ffffffff16565b600260009054906101000a900473ffffffffffffffffffffffffffffffffffffffff1673ffffffffffffffffffffffffffffffffffffffff1663095ea7b3600160009054906101000a900473ffffffffffffffffffffffffffffffffffffffff16836040518363ffffffff1660e01b8152600401612028929190614af1565b6020604051808303816000875af1158015612047573d6000803e3d6000fd5b505050506040513d601f19601f8201168201806040525081019061206b9190614b2f565b5061207585612b46565b915060005b88518110156121ea576000600160009054906101000a900473ffffffffffffffffffffffffffffffffffffffff1673ffffffffffffffffffffffffffffffffffffffff1663ec4951288b84815181106120d6576120d56149f5565b5b60200260200101518b85815181106120f1576120f06149f5565b5b60200260200101518b868151811061210c5761210b6149f5565b5b60200260200101518a6040518563ffffffff1660e01b81526004016121349493929190614b5c565b6020604051808303816000875af1158015612153573d6000803e3d6000fd5b505050506040513d601f19601f820116820180604052508101906121779190614bb6565b90506121bb8a838151811061218f5761218e6149f5565b5b6020026020010151828987338e88815181106121ae576121ad6149f5565b5b6020026020010151612b5b565b50808583815181106121d0576121cf6149f5565b5b60200260200101818152505050808060010191505061207a565b50509550959350505050565b600080612248333088600260009054906101000a900473ffffffffffffffffffffffffffffffffffffffff1673ffffffffffffffffffffffffffffffffffffffff166135fe909392919063ffffffff16565b600260009054906101000a900473ffffffffffffffffffffffffffffffffffffffff1673ffffffffffffffffffffffffffffffffffffffff1663095ea7b3600160009054906101000a900473ffffffffffffffffffffffffffffffffffffffff16886040518363ffffffff1660e01b81526004016122c7929190614af1565b6020604051808303816000875af11580156122e6573d6000803e3d6000fd5b505050506040513d601f19601f8201168201806040525081019061230a9190614b2f565b50600160009054906101000a900473ffffffffffffffffffffffffffffffffffffffff1673ffffffffffffffffffffffffffffffffffffffff1663ec495128888888876040518563ffffffff1660e01b815260040161236c9493929190614b5c565b6020604051808303816000875af115801561238b573d6000803e3d6000fd5b505050506040513d601f19601f820116820180604052508101906123af9190614bb6565b91506123ba84612b46565b90506123ca87838684338b612b5b565b509550959350505050565b6123e6816123e16124ea565b613680565b50565b6000806123f4611e55565b9050612400848461143f565b6124de57600181600001600086815260200190815260200160002060000160008573ffffffffffffffffffffffffffffffffffffffff1673ffffffffffffffffffffffffffffffffffffffff16815260200190815260200160002060006101000a81548160ff02191690831515021790555061247a6124ea565b73ffffffffffffffffffffffffffffffffffffffff168373ffffffffffffffffffffffffffffffffffffffff16857f2f8788117e7eff1d82e926ec794901d17c78024a50270940304540a733656f0d60405160405180910390a460019150506124e4565b60009150505b92915050565b600033905090565b6000806124fd611e55565b9050612509848461143f565b156125e857600081600001600086815260200190815260200160002060000160008573ffffffffffffffffffffffffffffffffffffffff1673ffffffffffffffffffffffffffffffffffffffff16815260200190815260200160002060006101000a81548160ff0219169083151502179055506125846124ea565b73ffffffffffffffffffffffffffffffffffffffff168373ffffffffffffffffffffffffffffffffffffffff16857ff6391f5c32d9c69d2a47ea670b442974b53935d1edc7fd64eb21e047a839171b60405160405180910390a460019150506125ee565b60009150505b92915050565b600080612600846136d1565b15612637576040517f9fe3c35800000000000000000000000000000000000000000000000000000000815260040160405180910390fd5b6000835103612672576040517fb2140a3a00000000000000000000000000000000000000000000000000000000815260040160405180910390fd5b6000600460008560008151811061268c5761268b6149f5565b5b602002602001015181526020019081526020016000206040518060c00160405290816000820160009054906101000a900473ffffffffffffffffffffffffffffffffffffffff1673ffffffffffffffffffffffffffffffffffffffff1673ffffffffffffffffffffffffffffffffffffffff1681526020016001820160009054906101000a900473ffffffffffffffffffffffffffffffffffffffff1673ffffffffffffffffffffffffffffffffffffffff1673ffffffffffffffffffffffffffffffffffffffff1681526020016002820160009054906101000a900473ffffffffffffffffffffffffffffffffffffffff1673ffffffffffffffffffffffffffffffffffffffff1673ffffffffffffffffffffffffffffffffffffffff168152602001600382015481526020016004820154815260200160058201548152505090508060400151925060005b8451811015612b3d5760008582815181106127f7576127f66149f5565b5b60200260200101519050600460008281526020019081526020016000206040518060c00160405290816000820160009054906101000a900473ffffffffffffffffffffffffffffffffffffffff1673ffffffffffffffffffffffffffffffffffffffff1673ffffffffffffffffffffffffffffffffffffffff1681526020016001820160009054906101000a900473ffffffffffffffffffffffffffffffffffffffff1673ffffffffffffffffffffffffffffffffffffffff1673ffffffffffffffffffffffffffffffffffffffff1681526020016002820160009054906101000a900473ffffffffffffffffffffffffffffffffffffffff1673ffffffffffffffffffffffffffffffffffffffff1673ffffffffffffffffffffffffffffffffffffffff168152602001600382015481526020016004820154815260200160058201548152505092508673ffffffffffffffffffffffffffffffffffffffff16836020015173ffffffffffffffffffffffffffffffffffffffff16146129b557806040517fb5e6545c0000000000000000000000000000000000000000000000000000000081526004016129ac91906143b7565b60405180910390fd5b4283606001511115612a0657804284606001516040517ffe6a6fa20000000000000000000000000000000000000000000000000000000081526004016129fd93929190614be3565b60405180910390fd5b3373ffffffffffffffffffffffffffffffffffffffff16836000015173ffffffffffffffffffffffffffffffffffffffff1614612a7a57806040517fc87a586a000000000000000000000000000000000000000000000000000000008152600401612a7191906143b7565b60405180910390fd5b826080015184612a8a9190614a53565b935060046000828152602001908152602001600020600080820160006101000a81549073ffffffffffffffffffffffffffffffffffffffff02191690556001820160006101000a81549073ffffffffffffffffffffffffffffffffffffffff02191690556002820160006101000a81549073ffffffffffffffffffffffffffffffffffffffff021916905560038201600090556004820160009055600582016000905550505080806001019150506127d9565b50509250929050565b60008142612b549190614a53565b9050919050565b6000612b66876136d1565b15612b9d576040517f9fe3c35800000000000000000000000000000000000000000000000000000000815260040160405180910390fd5b60008603612bd7576040517f202e8e6100000000000000000000000000000000000000000000000000000000815260040160405180910390fd5b612be0836136d1565b15612c17576040517f5006d25a00000000000000000000000000000000000000000000000000000000815260040160405180910390fd5b60008054906101000a900473ffffffffffffffffffffffffffffffffffffffff1673ffffffffffffffffffffffffffffffffffffffff1663e4860339886040518263ffffffff1660e01b8152600401612c709190614c1a565b602060405180830381865afa158015612c8d573d6000803e3d6000fd5b505050506040513d601f19601f82011682018060405250810190612cb19190614c4a565b9050600073ffffffffffffffffffffffffffffffffffffffff168173ffffffffffffffffffffffffffffffffffffffff1603612d19576040517f94c08c6000000000000000000000000000000000000000000000000000000000815260040160405180910390fd5b600060036000815480929190612d2e90614c77565b91905055905060006040518060c001604052808673ffffffffffffffffffffffffffffffffffffffff1681526020018a73ffffffffffffffffffffffffffffffffffffffff1681526020018473ffffffffffffffffffffffffffffffffffffffff168152602001878152602001898152602001888152509050806004600084815260200190815260200160002060008201518160000160006101000a81548173ffffffffffffffffffffffffffffffffffffffff021916908373ffffffffffffffffffffffffffffffffffffffff16021790555060208201518160010160006101000a81548173ffffffffffffffffffffffffffffffffffffffff021916908373ffffffffffffffffffffffffffffffffffffffff16021790555060408201518160020160006101000a81548173ffffffffffffffffffffffffffffffffffffffff021916908373ffffffffffffffffffffffffffffffffffffffff160217905550606082015181600301556080820151816004015560a082015181600501559050508273ffffffffffffffffffffffffffffffffffffffff168973ffffffffffffffffffffffffffffffffffffffff168673ffffffffffffffffffffffffffffffffffffffff167f3a199fad2706ca50fe2d207d8f1c2e37b04c6b8c3e9f88ec9917dfc18e4a4b34858c8b8d60008c14612f295733612f2c565b60005b8c604051612f3f96959493929190614cbf565b60405180910390a450509695505050505050565b612f5b613709565b6000612f6561339b565b905060008160000160006101000a81548160ff0219169083151502179055507f5db9ee0a495bf2e6ff9c91a7834c1ba4fdd244a5e8aa4e537bd38aeae4b073aa612fad6124ea565b604051612fba9190614c1a565b60405180910390a150565b6060600086518851141580612fdc57508551885114155b15613013576040517ff189683a00000000000000000000000000000000000000000000000000000000815260040160405180910390fd5b6000805b895181101561305557888181518110613033576130326149f5565b5b6020026020010151826130469190614a53565b91508080600101915050613017565b506130a5333083600260009054906101000a900473ffffffffffffffffffffffffffffffffffffffff1673ffffffffffffffffffffffffffffffffffffffff166135fe909392919063ffffffff16565b600260009054906101000a900473ffffffffffffffffffffffffffffffffffffffff1673ffffffffffffffffffffffffffffffffffffffff1663095ea7b3600160009054906101000a900473ffffffffffffffffffffffffffffffffffffffff16836040518363ffffffff1660e01b8152600401613124929190614af1565b6020604051808303816000875af1158015613143573d6000803e3d6000fd5b505050506040513d601f19601f820116820180604052508101906131679190614b2f565b50885167ffffffffffffffff81111561318357613182613ce4565b5b6040519080825280602002602001820160405280156131b15781602001602082028036833780820191505090505b5092506131bd86612b46565b915060005b895181101561334657600160009054906101000a900473ffffffffffffffffffffffffffffffffffffffff1673ffffffffffffffffffffffffffffffffffffffff1663ec4951288b838151811061321c5761321b6149f5565b5b60200260200101518b8481518110613237576132366149f5565b5b60200260200101518b8581518110613252576132516149f5565b5b6020026020010151896040518563ffffffff1660e01b815260040161327a9493929190614b5c565b6020604051808303816000875af1158015613299573d6000803e3d6000fd5b505050506040513d601f19601f820116820180604052508101906132bd9190614bb6565b8482815181106132d0576132cf6149f5565b5b6020026020010181815250506133388a82815181106132f2576132f16149f5565b5b602002602001015185838151811061330d5761330c6149f5565b5b602002602001015189868a8e878151811061332b5761332a6149f5565b5b6020026020010151612b5b565b5080806001019150506131c2565b5050965096945050505050565b600061336486868686866000612b5b565b90506133933330878473ffffffffffffffffffffffffffffffffffffffff166135fe909392919063ffffffff16565b505050505050565b60007fcd5ed15c6e187e77e9aee88184c21f4f2182ab5827cb3b7e07fbedcd63f03300905090565b61343d838473ffffffffffffffffffffffffffffffffffffffff1663a9059cbb85856040516024016133f6929190614af1565b604051602081830303815290604052915060e01b6020820180517bffffffffffffffffffffffffffffffffffffffffffffffffffffffff8381831617835250505050613749565b505050565b61344a611c34565b600061345461339b565b905060018160000160006101000a81548160ff0219169083151502179055507f62e78cea01bee320cd4e420270b5ea74000d11b0c9f74754ebdbfc544b05a25861349c6124ea565b6040516134a99190614c1a565b60405180910390a150565b60007ff0c57e16840df040f15088dc2f81fe391c3923bec73e23a9662efc9c229c6a00905090565b6134e46137e0565b565b6134ee6137e0565b6134f6613820565b565b613501846136d1565b15613538576040517f0f1fd26d00000000000000000000000000000000000000000000000000000000815260040160405180910390fd5b613541836136d1565b15613578576040517f788a8b9300000000000000000000000000000000000000000000000000000000815260040160405180910390fd5b613581826136d1565b156135b8576040517fd9cc4a2e00000000000000000000000000000000000000000000000000000000815260040160405180910390fd5b6135c1816136d1565b156135f8576040517fb237eabd00000000000000000000000000000000000000000000000000000000815260040160405180910390fd5b50505050565b61367a848573ffffffffffffffffffffffffffffffffffffffff166323b872dd86868660405160240161363393929190614d20565b604051602081830303815290604052915060e01b6020820180517bffffffffffffffffffffffffffffffffffffffffffffffffffffffff8381831617835250505050613749565b50505050565b61368a828261143f565b6136cd5780826040517fe2517d3f0000000000000000000000000000000000000000000000000000000081526004016136c4929190614d57565b60405180910390fd5b5050565b60008073ffffffffffffffffffffffffffffffffffffffff168273ffffffffffffffffffffffffffffffffffffffff16149050919050565b613711610f5c565b613747576040517f8dfc202b00000000000000000000000000000000000000000000000000000000815260040160405180910390fd5b565b6000613774828473ffffffffffffffffffffffffffffffffffffffff1661385490919063ffffffff16565b905060008151141580156137995750808060200190518101906137979190614b2f565b155b156137db57826040517f5274afe70000000000000000000000000000000000000000000000000000000081526004016137d29190614c1a565b60405180910390fd5b505050565b6137e861386a565b61381e576040517fd7e6bcf800000000000000000000000000000000000000000000000000000000815260040160405180910390fd5b565b6138286137e0565b600061383261339b565b905060008160000160006101000a81548160ff02191690831515021790555050565b60606138628383600061388a565b905092915050565b60006138746134b4565b60000160089054906101000a900460ff16905090565b6060814710156138d157306040517fcd7860590000000000000000000000000000000000000000000000000000000081526004016138c89190614c1a565b60405180910390fd5b6000808573ffffffffffffffffffffffffffffffffffffffff1684866040516138fa9190614df1565b60006040518083038185875af1925050503d8060008114613937576040519150601f19603f3d011682016040523d82523d6000602084013e61393c565b606091505b509150915061394c868383613957565b925050509392505050565b60608261396c57613967826139e6565b6139de565b60008251148015613994575060008473ffffffffffffffffffffffffffffffffffffffff163b145b156139d657836040517f9996b3150000000000000000000000000000000000000000000000000000000081526004016139cd9190614c1a565b60405180910390fd5b8190506139df565b5b9392505050565b6000815111156139f95780518082602001fd5b6040517f1425ea4200000000000000000000000000000000000000000000000000000000815260040160405180910390fd5b6000604051905090565b600080fd5b600080fd5b60007fffffffff0000000000000000000000000000000000000000000000000000000082169050919050565b613a7481613a3f565b8114613a7f57600080fd5b50565b600081359050613a9181613a6b565b92915050565b600060208284031215613aad57613aac613a35565b5b6000613abb84828501613a82565b91505092915050565b60008115159050919050565b613ad981613ac4565b82525050565b6000602082019050613af46000830184613ad0565b92915050565b6000819050919050565b613b0d81613afa565b82525050565b6000602082019050613b286000830184613b04565b92915050565b600073ffffffffffffffffffffffffffffffffffffffff82169050919050565b6000613b5982613b2e565b9050919050565b613b6981613b4e565b8114613b7457600080fd5b50565b600081359050613b8681613b60565b92915050565b6000819050919050565b613b9f81613b8c565b8114613baa57600080fd5b50565b600081359050613bbc81613b96565b92915050565b600080600080600060a08688031215613bde57613bdd613a35565b5b6000613bec88828901613b77565b9550506020613bfd88828901613bad565b9450506040613c0e88828901613bad565b9350506060613c1f88828901613bad565b9250506080613c3088828901613b77565b9150509295509295909350565b613c4681613b8c565b82525050565b6000604082019050613c616000830185613c3d565b613c6e6020830184613c3d565b9392505050565b613c7e81613afa565b8114613c8957600080fd5b50565b600081359050613c9b81613c75565b92915050565b600060208284031215613cb757613cb6613a35565b5b6000613cc584828501613c8c565b91505092915050565b600080fd5b6000601f19601f8301169050919050565b7f4e487b7100000000000000000000000000000000000000000000000000000000600052604160045260246000fd5b613d1c82613cd3565b810181811067ffffffffffffffff82111715613d3b57613d3a613ce4565b5b80604052505050565b6000613d4e613a2b565b9050613d5a8282613d13565b919050565b600067ffffffffffffffff821115613d7a57613d79613ce4565b5b602082029050602081019050919050565b600080fd5b6000613da3613d9e84613d5f565b613d44565b90508083825260208201905060208402830185811115613dc657613dc5613d8b565b5b835b81811015613def5780613ddb8882613b77565b845260208401935050602081019050613dc8565b5050509392505050565b600082601f830112613e0e57613e0d613cce565b5b8135613e1e848260208601613d90565b91505092915050565b600067ffffffffffffffff821115613e4257613e41613ce4565b5b602082029050602081019050919050565b6000613e66613e6184613e27565b613d44565b90508083825260208201905060208402830185811115613e8957613e88613d8b565b5b835b81811015613eb25780613e9e8882613bad565b845260208401935050602081019050613e8b565b5050509392505050565b600082601f830112613ed157613ed0613cce565b5b8135613ee1848260208601613e53565b91505092915050565b600080600080600060a08688031215613f0657613f05613a35565b5b600086013567ffffffffffffffff811115613f2457613f23613a3a565b5b613f3088828901613df9565b955050602086013567ffffffffffffffff811115613f5157613f50613a3a565b5b613f5d88828901613ebc565b945050604086013567ffffffffffffffff811115613f7e57613f7d613a3a565b5b613f8a88828901613ebc565b9350506060613f9b88828901613bad565b9250506080613fac88828901613b77565b9150509295509295909350565b600081519050919050565b600082825260208201905092915050565b6000819050602082019050919050565b613fee81613b8c565b82525050565b60006140008383613fe5565b60208301905092915050565b6000602082019050919050565b600061402482613fb9565b61402e8185613fc4565b935061403983613fd5565b8060005b8381101561406a5781516140518882613ff4565b975061405c8361400c565b92505060018101905061403d565b5085935050505092915050565b600060408201905081810360008301526140918185614019565b90506140a06020830184613c3d565b9392505050565b6000819050919050565b60006140cc6140c76140c284613b2e565b6140a7565b613b2e565b9050919050565b60006140de826140b1565b9050919050565b60006140f0826140d3565b9050919050565b614100816140e5565b82525050565b600060208201905061411b60008301846140f7565b92915050565b6000806000806080858703121561413b5761413a613a35565b5b600061414987828801613b77565b945050602061415a87828801613bad565b935050604061416b87828801613bad565b925050606061417c87828801613bad565b91505092959194509250565b6000806040838503121561419f5761419e613a35565b5b60006141ad85828601613c8c565b92505060206141be85828601613b77565b9150509250929050565b6000806000606084860312156141e1576141e0613a35565b5b60006141ef86828701613b77565b935050602084013567ffffffffffffffff8111156142105761420f613a3a565b5b61421c86828701613ebc565b925050604061422d86828701613bad565b9150509250925092565b60008060008060008060c0878903121561425457614253613a35565b5b600087013567ffffffffffffffff81111561427257614271613a3a565b5b61427e89828a01613df9565b965050602087013567ffffffffffffffff81111561429f5761429e613a3a565b5b6142ab89828a01613ebc565b955050604087013567ffffffffffffffff8111156142cc576142cb613a3a565b5b6142d889828a01613ebc565b94505060606142e989828a01613bad565b93505060806142fa89828a01613b77565b92505060a061430b89828a01613b77565b9150509295509295509295565b6000806000806080858703121561433257614331613a35565b5b600085013567ffffffffffffffff8111156143505761434f613a3a565b5b61435c87828801613df9565b945050602085013567ffffffffffffffff81111561437d5761437c613a3a565b5b61438987828801613ebc565b935050604061439a87828801613bad565b92505060606143ab87828801613b77565b91505092959194509250565b60006020820190506143cc6000830184613c3d565b92915050565b6000806000606084860312156143eb576143ea613a35565b5b600084013567ffffffffffffffff81111561440957614408613a3a565b5b61441586828701613df9565b935050602084013567ffffffffffffffff81111561443657614435613a3a565b5b61444286828701613ebc565b925050604061445386828701613bad565b9150509250925092565b6000614468826140d3565b9050919050565b6144788161445d565b82525050565b6000602082019050614493600083018461446f565b92915050565b600080fd5b60008083601f8401126144b4576144b3613cce565b5b8235905067ffffffffffffffff8111156144d1576144d0614499565b5b6020830191508360208202830111156144ed576144ec613d8b565b5b9250929050565b6000806000806060858703121561450e5761450d613a35565b5b600061451c87828801613b77565b945050602061452d87828801613b77565b935050604085013567ffffffffffffffff81111561454e5761454d613a3a565b5b61455a8782880161449e565b925092505092959194509250565b6000806040838503121561457f5761457e613a35565b5b600061458d85828601613b77565b925050602083013567ffffffffffffffff8111156145ae576145ad613a3a565b5b6145ba85828601613ebc565b9150509250929050565b600080600080608085870312156145de576145dd613a35565b5b600085013567ffffffffffffffff8111156145fc576145fb613a3a565b5b61460887828801613df9565b945050602085013567ffffffffffffffff81111561462957614628613a3a565b5b61463587828801613ebc565b935050604085013567ffffffffffffffff81111561465657614655613a3a565b5b61466287828801613ebc565b925050606061467387828801613bad565b91505092959194509250565b60008060008060008060c0878903121561469c5761469b613a35565b5b60006146aa89828a01613b77565b96505060206146bb89828a01613bad565b95505060406146cc89828a01613bad565b94505060606146dd89828a01613bad565b93505060806146ee89828a01613b77565b92505060a06146ff89828a01613b77565b9150509295509295509295565b60008060006060848603121561472557614724613a35565b5b600061473386828701613b77565b935050602061474486828701613bad565b925050604061475586828701613bad565b9150509250925092565b60006020828403121561477557614774613a35565b5b600061478384828501613bad565b91505092915050565b600080600080608085870312156147a6576147a5613a35565b5b60006147b487828801613b77565b945050602085013567ffffffffffffffff8111156147d5576147d4613a3a565b5b6147e187828801613ebc565b93505060406147f287828801613bad565b925050606061480387828801613b77565b91505092959194509250565b61481881613ac4565b811461482357600080fd5b50565b6000813590506148358161480f565b92915050565b6000806040838503121561485257614851613a35565b5b600061486085828601613bad565b925050602061487185828601614826565b9150509250929050565b6000806000806080858703121561489557614894613a35565b5b60006148a387828801613b77565b94505060206148b487828801613bad565b93505060406148c587828801613bad565b92505060606148d687828801613b77565b91505092959194509250565b6148eb81613b4e565b82525050565b600060c08201905061490660008301896148e2565b61491360208301886148e2565b61492060408301876148e2565b61492d6060830186613c3d565b61493a6080830185613c3d565b61494760a0830184613c3d565b979650505050505050565b600061495d826140d3565b9050919050565b61496d81614952565b82525050565b60006020820190506149886000830184614964565b92915050565b600080600080608085870312156149a8576149a7613a35565b5b60006149b687828801613b77565b94505060206149c787828801613b77565b93505060406149d887828801613b77565b92505060606149e987828801613b77565b91505092959194509250565b7f4e487b7100000000000000000000000000000000000000000000000000000000600052603260045260246000fd5b7f4e487b7100000000000000000000000000000000000000000000000000000000600052601160045260246000fd5b6000614a5e82613b8c565b9150614a6983613b8c565b9250828201905080821115614a8157614a80614a24565b5b92915050565b6000819050919050565b600067ffffffffffffffff82169050919050565b6000614ac0614abb614ab684614a87565b6140a7565b614a91565b9050919050565b614ad081614aa5565b82525050565b6000602082019050614aeb6000830184614ac7565b92915050565b6000604082019050614b0660008301856148e2565b614b136020830184613c3d565b9392505050565b600081519050614b298161480f565b92915050565b600060208284031215614b4557614b44613a35565b5b6000614b5384828501614b1a565b91505092915050565b6000608082019050614b7160008301876148e2565b614b7e6020830186613c3d565b614b8b6040830185613c3d565b614b9860608301846148e2565b95945050505050565b600081519050614bb081613b96565b92915050565b600060208284031215614bcc57614bcb613a35565b5b6000614bda84828501614ba1565b91505092915050565b6000606082019050614bf86000830186613c3d565b614c056020830185613c3d565b614c126040830184613c3d565b949350505050565b6000602082019050614c2f60008301846148e2565b92915050565b600081519050614c4481613b60565b92915050565b600060208284031215614c6057614c5f613a35565b5b6000614c6e84828501614c35565b91505092915050565b6000614c8282613b8c565b91507fffffffffffffffffffffffffffffffffffffffffffffffffffffffffffffffff8203614cb457614cb3614a24565b5b600182019050919050565b600060c082019050614cd46000830189613c3d565b614ce16020830188613c3d565b614cee6040830187613c3d565b614cfb6060830186613c3d565b614d0860808301856148e2565b614d1560a0830184613c3d565b979650505050505050565b6000606082019050614d3560008301866148e2565b614d4260208301856148e2565b614d4f6040830184613c3d565b949350505050565b6000604082019050614d6c60008301856148e2565b614d796020830184613b04565b9392505050565b600081519050919050565b600081905092915050565b60005b83811015614db4578082015181840152602081019050614d99565b60008484015250505050565b6000614dcb82614d80565b614dd58185614d8b565b9350614de5818560208601614d96565b80840191505092915050565b6000614dfd8284614dc0565b91508190509291505056fea264697066735822122076dd7ab8ca37c9adf3e8528a378546e1c95f4f98c462832ecac2aa150abbe30d64736f6c63430008180033",
  "linkReferences": {},
  "deployedLinkReferences": {}
}