{
  "_format": "hh-sol-artifact-1",
  "contractName": "MoxieBondingCurveV2",
  "sourceName": "contracts/MoxieBondingCurveV2.sol",
  "abi": [
    {
      "inputs": [],
      "name": "AccessControlBadConfirmation",
      "type": "error"
    },
    {
      "inputs": [
        {
          "internalType": "address",
          "name": "account",
          "type": "address"
        },
        {
          "internalType": "bytes32",
          "name": "neededRole",
          "type": "bytes32"
        }
      ],
      "name": "AccessControlUnauthorizedAccount",
      "type": "error"
    },
    {
      "inputs": [
        {
          "internalType": "address",
          "name": "target",
          "type": "address"
        }
      ],
      "name": "AddressEmptyCode",
      "type": "error"
    },
    {
      "inputs": [
        {
          "internalType": "address",
          "name": "account",
          "type": "address"
        }
      ],
      "name": "AddressInsufficientBalance",
      "type": "error"
    },
    {
      "inputs": [],
      "name": "EnforcedPause",
      "type": "error"
    },
    {
      "inputs": [],
      "name": "ExpectedPause",
      "type": "error"
    },
    {
      "inputs": [],
      "name": "FailedInnerCall",
      "type": "error"
    },
    {
      "inputs": [],
      "name": "InvalidInitialization",
      "type": "error"
    },
    {
      "inputs": [],
      "name": "MoxieBondingCurve_InvalidAmount",
      "type": "error"
    },
    {
      "inputs": [],
      "name": "MoxieBondingCurve_InvalidBeneficiary",
      "type": "error"
    },
    {
      "inputs": [],
      "name": "MoxieBondingCurve_InvalidDepositAmount",
      "type": "error"
    },
    {
      "inputs": [],
      "name": "MoxieBondingCurve_InvalidFeePercentage",
      "type": "error"
    },
    {
      "inputs": [],
      "name": "MoxieBondingCurve_InvalidFormula",
      "type": "error"
    },
    {
      "inputs": [],
      "name": "MoxieBondingCurve_InvalidOwner",
      "type": "error"
    },
    {
      "inputs": [],
      "name": "MoxieBondingCurve_InvalidProtocolRewardAddress",
      "type": "error"
    },
    {
      "inputs": [],
      "name": "MoxieBondingCurve_InvalidReserveRation",
      "type": "error"
    },
    {
      "inputs": [],
      "name": "MoxieBondingCurve_InvalidSellAmount",
      "type": "error"
    },
    {
      "inputs": [],
      "name": "MoxieBondingCurve_InvalidSubject",
      "type": "error"
    },
    {
      "inputs": [],
      "name": "MoxieBondingCurve_InvalidSubjectFactory",
      "type": "error"
    },
    {
      "inputs": [],
      "name": "MoxieBondingCurve_InvalidSubjectSupply",
      "type": "error"
    },
    {
      "inputs": [],
      "name": "MoxieBondingCurve_InvalidSubjectToken",
      "type": "error"
    },
    {
      "inputs": [],
      "name": "MoxieBondingCurve_InvalidToken",
      "type": "error"
    },
    {
      "inputs": [],
      "name": "MoxieBondingCurve_InvalidTokenManager",
      "type": "error"
    },
    {
      "inputs": [],
      "name": "MoxieBondingCurve_InvalidVault",
      "type": "error"
    },
    {
      "inputs": [],
      "name": "MoxieBondingCurve_OnlySubjectFactory",
      "type": "error"
    },
    {
      "inputs": [],
      "name": "MoxieBondingCurve_SlippageExceedsLimit",
      "type": "error"
    },
    {
      "inputs": [],
      "name": "MoxieBondingCurve_SubjectAlreadyInitialized",
      "type": "error"
    },
    {
      "inputs": [],
      "name": "MoxieBondingCurve_SubjectNotInitialized",
      "type": "error"
    },
    {
      "inputs": [],
      "name": "NotInitializing",
      "type": "error"
    },
    {
      "inputs": [
        {
          "internalType": "address",
          "name": "token",
          "type": "address"
        }
      ],
      "name": "SafeERC20FailedOperation",
      "type": "error"
    },
    {
      "anonymous": false,
      "inputs": [
        {
          "indexed": true,
          "internalType": "address",
          "name": "_subject",
          "type": "address"
        },
        {
          "indexed": true,
          "internalType": "address",
          "name": "_subjectToken",
          "type": "address"
        },
        {
          "indexed": false,
          "internalType": "uint256",
          "name": "_initialSupply",
          "type": "uint256"
        },
        {
          "indexed": false,
          "internalType": "uint256",
          "name": "_reserve",
          "type": "uint256"
        },
        {
          "indexed": false,
          "internalType": "uint32",
          "name": "_reserveRatio",
          "type": "uint32"
        }
      ],
      "name": "BondingCurveInitialized",
      "type": "event"
    },
    {
      "anonymous": false,
      "inputs": [
        {
          "indexed": false,
          "internalType": "uint64",
          "name": "version",
          "type": "uint64"
        }
      ],
      "name": "Initialized",
      "type": "event"
    },
    {
      "anonymous": false,
      "inputs": [
        {
          "indexed": false,
          "internalType": "address",
          "name": "account",
          "type": "address"
        }
      ],
      "name": "Paused",
      "type": "event"
    },
    {
      "anonymous": false,
      "inputs": [
        {
          "indexed": true,
          "internalType": "bytes32",
          "name": "role",
          "type": "bytes32"
        },
        {
          "indexed": true,
          "internalType": "bytes32",
          "name": "previousAdminRole",
          "type": "bytes32"
        },
        {
          "indexed": true,
          "internalType": "bytes32",
          "name": "newAdminRole",
          "type": "bytes32"
        }
      ],
      "name": "RoleAdminChanged",
      "type": "event"
    },
    {
      "anonymous": false,
      "inputs": [
        {
          "indexed": true,
          "internalType": "bytes32",
          "name": "role",
          "type": "bytes32"
        },
        {
          "indexed": true,
          "internalType": "address",
          "name": "account",
          "type": "address"
        },
        {
          "indexed": true,
          "internalType": "address",
          "name": "sender",
          "type": "address"
        }
      ],
      "name": "RoleGranted",
      "type": "event"
    },
    {
      "anonymous": false,
      "inputs": [
        {
          "indexed": true,
          "internalType": "bytes32",
          "name": "role",
          "type": "bytes32"
        },
        {
          "indexed": true,
          "internalType": "address",
          "name": "account",
          "type": "address"
        },
        {
          "indexed": true,
          "internalType": "address",
          "name": "sender",
          "type": "address"
        }
      ],
      "name": "RoleRevoked",
      "type": "event"
    },
    {
      "anonymous": false,
      "inputs": [
        {
          "indexed": true,
          "internalType": "address",
          "name": "_subject",
          "type": "address"
        },
        {
          "indexed": true,
          "internalType": "address",
          "name": "_sellToken",
          "type": "address"
        },
        {
          "indexed": false,
          "internalType": "uint256",
          "name": "_sellAmount",
          "type": "uint256"
        },
        {
          "indexed": false,
          "internalType": "address",
          "name": "_spender",
          "type": "address"
        },
        {
          "indexed": false,
          "internalType": "address",
          "name": "_buyToken",
          "type": "address"
        },
        {
          "indexed": false,
          "internalType": "uint256",
          "name": "_buyAmount",
          "type": "uint256"
        },
        {
          "indexed": true,
          "internalType": "address",
          "name": "_beneficiary",
          "type": "address"
        }
      ],
      "name": "SubjectSharePurchased",
      "type": "event"
    },
    {
      "anonymous": false,
      "inputs": [
        {
          "indexed": true,
          "internalType": "address",
          "name": "_subject",
          "type": "address"
        },
        {
          "indexed": true,
          "internalType": "address",
          "name": "_sellToken",
          "type": "address"
        },
        {
          "indexed": false,
          "internalType": "uint256",
          "name": "_sellAmount",
          "type": "uint256"
        },
        {
          "indexed": false,
          "internalType": "address",
          "name": "_spender",
          "type": "address"
        },
        {
          "indexed": false,
          "internalType": "address",
          "name": "_buyToken",
          "type": "address"
        },
        {
          "indexed": false,
          "internalType": "uint256",
          "name": "_buyAmount",
          "type": "uint256"
        },
        {
          "indexed": true,
          "internalType": "address",
          "name": "_beneficiary",
          "type": "address"
        }
      ],
      "name": "SubjectShareSold",
      "type": "event"
    },
    {
      "anonymous": false,
      "inputs": [
        {
          "indexed": false,
          "internalType": "address",
          "name": "account",
          "type": "address"
        }
      ],
      "name": "Unpaused",
      "type": "event"
    },
    {
      "anonymous": false,
      "inputs": [
        {
          "indexed": false,
          "internalType": "address",
          "name": "_beneficiary",
          "type": "address"
        }
      ],
      "name": "UpdateBeneficiary",
      "type": "event"
    },
    {
      "anonymous": false,
      "inputs": [
        {
          "indexed": false,
          "internalType": "uint256",
          "name": "_protocolBuyFeePct",
          "type": "uint256"
        },
        {
          "indexed": false,
          "internalType": "uint256",
          "name": "_protocolSellFeePct",
          "type": "uint256"
        },
        {
          "indexed": false,
          "internalType": "uint256",
          "name": "_subjectBuyFeePct",
          "type": "uint256"
        },
        {
          "indexed": false,
          "internalType": "uint256",
          "name": "_subjectSellFeePct",
          "type": "uint256"
        }
      ],
      "name": "UpdateFees",
      "type": "event"
    },
    {
      "anonymous": false,
      "inputs": [
        {
          "indexed": false,
          "internalType": "address",
          "name": "_formula",
          "type": "address"
        }
      ],
      "name": "UpdateFormula",
      "type": "event"
    },
    {
      "anonymous": false,
      "inputs": [
        {
          "indexed": false,
          "internalType": "uint256",
          "name": "_platformReferrerBuyFeePct",
          "type": "uint256"
        },
        {
          "indexed": false,
          "internalType": "uint256",
          "name": "_platformReferrerSellFeePct",
          "type": "uint256"
        },
        {
          "indexed": false,
          "internalType": "uint256",
          "name": "_orderReferrerBuyFeePct",
          "type": "uint256"
        },
        {
          "indexed": false,
          "internalType": "uint256",
          "name": "_orderReferrerSellFeePct",
          "type": "uint256"
        }
      ],
      "name": "UpdateReferralFees",
      "type": "event"
    },
    {
      "inputs": [],
      "name": "DEFAULT_ADMIN_ROLE",
      "outputs": [
        {
          "internalType": "bytes32",
          "name": "",
          "type": "bytes32"
        }
      ],
      "stateMutability": "view",
      "type": "function"
    },
    {
      "inputs": [],
      "name": "PAUSE_ROLE",
      "outputs": [
        {
          "internalType": "bytes32",
          "name": "",
          "type": "bytes32"
        }
      ],
      "stateMutability": "view",
      "type": "function"
    },
    {
      "inputs": [],
      "name": "PCT_BASE",
      "outputs": [
        {
          "internalType": "uint256",
          "name": "",
          "type": "uint256"
        }
      ],
      "stateMutability": "view",
      "type": "function"
    },
    {
      "inputs": [],
      "name": "PPM",
      "outputs": [
        {
          "internalType": "uint32",
          "name": "",
          "type": "uint32"
        }
      ],
      "stateMutability": "view",
      "type": "function"
    },
    {
      "inputs": [],
      "name": "UPDATE_BENEFICIARY_ROLE",
      "outputs": [
        {
          "internalType": "bytes32",
          "name": "",
          "type": "bytes32"
        }
      ],
      "stateMutability": "view",
      "type": "function"
    },
    {
      "inputs": [],
      "name": "UPDATE_FEES_ROLE",
      "outputs": [
        {
          "internalType": "bytes32",
          "name": "",
          "type": "bytes32"
        }
      ],
      "stateMutability": "view",
      "type": "function"
    },
    {
      "inputs": [],
      "name": "UPDATE_FORMULA_ROLE",
      "outputs": [
        {
          "internalType": "bytes32",
          "name": "",
          "type": "bytes32"
        }
      ],
      "stateMutability": "view",
      "type": "function"
    },
    {
      "inputs": [],
      "name": "UPDATE_PROTOCOL_REWARD_ROLE",
      "outputs": [
        {
          "internalType": "bytes32",
          "name": "",
          "type": "bytes32"
        }
      ],
      "stateMutability": "view",
      "type": "function"
    },
    {
      "inputs": [
        {
          "internalType": "address",
          "name": "_subject",
          "type": "address"
        },
        {
          "internalType": "uint256",
          "name": "_depositAmount",
          "type": "uint256"
        },
        {
          "internalType": "uint256",
          "name": "_minReturnAmountAfterFee",
          "type": "uint256"
        }
      ],
      "name": "buyShares",
      "outputs": [
        {
          "internalType": "uint256",
          "name": "shares_",
          "type": "uint256"
        }
      ],
      "stateMutability": "nonpayable",
      "type": "function"
    },
    {
      "inputs": [
        {
          "internalType": "address",
          "name": "_subject",
          "type": "address"
        },
        {
          "internalType": "uint256",
          "name": "_depositAmount",
          "type": "uint256"
        },
        {
          "internalType": "address",
          "name": "_onBehalfOf",
          "type": "address"
        },
        {
          "internalType": "uint256",
          "name": "_minReturnAmountAfterFee",
          "type": "uint256"
        }
      ],
      "name": "buySharesFor",
      "outputs": [
        {
          "internalType": "uint256",
          "name": "shares_",
          "type": "uint256"
        }
      ],
      "stateMutability": "nonpayable",
      "type": "function"
    },
    {
      "inputs": [
        {
          "internalType": "address",
          "name": "_subject",
          "type": "address"
        },
        {
          "internalType": "uint256",
          "name": "_depositAmount",
          "type": "uint256"
        },
        {
          "internalType": "address",
          "name": "_onBehalfOf",
          "type": "address"
        },
        {
          "internalType": "uint256",
          "name": "_minReturnAmountAfterFee",
          "type": "uint256"
        },
        {
          "internalType": "address",
          "name": "_orderReferrer",
          "type": "address"
        }
      ],
      "name": "buySharesForV2",
      "outputs": [
        {
          "internalType": "uint256",
          "name": "shares_",
          "type": "uint256"
        }
      ],
      "stateMutability": "nonpayable",
      "type": "function"
    },
    {
      "inputs": [
        {
          "internalType": "address",
          "name": "_subject",
          "type": "address"
        },
        {
          "internalType": "uint256",
          "name": "_depositAmount",
          "type": "uint256"
        },
        {
          "internalType": "uint256",
          "name": "_minReturnAmountAfterFee",
          "type": "uint256"
        },
        {
          "internalType": "address",
          "name": "_orderReferrer",
          "type": "address"
        }
      ],
      "name": "buySharesV2",
      "outputs": [
        {
          "internalType": "uint256",
          "name": "shares_",
          "type": "uint256"
        }
      ],
      "stateMutability": "nonpayable",
      "type": "function"
    },
    {
      "inputs": [
        {
          "internalType": "address",
          "name": "_subject",
          "type": "address"
        },
        {
          "internalType": "uint256",
          "name": "_subjectTokenAmount",
          "type": "uint256"
        }
      ],
      "name": "calculateTokensForBuy",
      "outputs": [
        {
          "internalType": "uint256",
          "name": "moxieAmount_",
          "type": "uint256"
        },
        {
          "internalType": "uint256",
          "name": "protocolFee_",
          "type": "uint256"
        },
        {
          "internalType": "uint256",
          "name": "subjectFee_",
          "type": "uint256"
        }
      ],
      "stateMutability": "view",
      "type": "function"
    },
    {
      "inputs": [
        {
          "internalType": "address",
          "name": "_subject",
          "type": "address"
        },
        {
          "internalType": "uint256",
          "name": "_subjectTokenAmount",
          "type": "uint256"
        }
      ],
      "name": "calculateTokensForSell",
      "outputs": [
        {
          "internalType": "uint256",
          "name": "moxieAmount_",
          "type": "uint256"
        },
        {
          "internalType": "uint256",
          "name": "protocolFee_",
          "type": "uint256"
        },
        {
          "internalType": "uint256",
          "name": "subjectFee_",
          "type": "uint256"
        }
      ],
      "stateMutability": "view",
      "type": "function"
    },
    {
      "inputs": [],
      "name": "feeBeneficiary",
      "outputs": [
        {
          "internalType": "address",
          "name": "",
          "type": "address"
        }
      ],
      "stateMutability": "view",
      "type": "function"
    },
    {
      "inputs": [],
      "name": "formula",
      "outputs": [
        {
          "internalType": "contract IBancorFormula",
          "name": "",
          "type": "address"
        }
      ],
      "stateMutability": "view",
      "type": "function"
    },
    {
      "inputs": [
        {
          "internalType": "bytes32",
          "name": "role",
          "type": "bytes32"
        }
      ],
      "name": "getRoleAdmin",
      "outputs": [
        {
          "internalType": "bytes32",
          "name": "",
          "type": "bytes32"
        }
      ],
      "stateMutability": "view",
      "type": "function"
    },
    {
      "inputs": [
        {
          "internalType": "bytes32",
          "name": "role",
          "type": "bytes32"
        },
        {
          "internalType": "address",
          "name": "account",
          "type": "address"
        }
      ],
      "name": "grantRole",
      "outputs": [],
      "stateMutability": "nonpayable",
      "type": "function"
    },
    {
      "inputs": [
        {
          "internalType": "bytes32",
          "name": "role",
          "type": "bytes32"
        },
        {
          "internalType": "address",
          "name": "account",
          "type": "address"
        }
      ],
      "name": "hasRole",
      "outputs": [
        {
          "internalType": "bool",
          "name": "",
          "type": "bool"
        }
      ],
      "stateMutability": "view",
      "type": "function"
    },
    {
      "inputs": [
        {
          "internalType": "address",
          "name": "_token",
          "type": "address"
        },
        {
          "internalType": "address",
          "name": "_formula",
          "type": "address"
        },
        {
          "internalType": "address",
          "name": "_owner",
          "type": "address"
        },
        {
          "internalType": "address",
          "name": "_tokenManager",
          "type": "address"
        },
        {
          "internalType": "address",
          "name": "_vault",
          "type": "address"
        },
        {
          "components": [
            {
              "internalType": "uint256",
              "name": "protocolBuyFeePct",
              "type": "uint256"
            },
            {
              "internalType": "uint256",
              "name": "protocolSellFeePct",
              "type": "uint256"
            },
            {
              "internalType": "uint256",
              "name": "subjectBuyFeePct",
              "type": "uint256"
            },
            {
              "internalType": "uint256",
              "name": "subjectSellFeePct",
              "type": "uint256"
            }
          ],
          "internalType": "struct IMoxieBondingCurveV2.FeeInput",
          "name": "_feeInput",
          "type": "tuple"
        },
        {
          "internalType": "address",
          "name": "_feeBeneficiary",
          "type": "address"
        },
        {
          "internalType": "address",
          "name": "_subjectFactory",
          "type": "address"
        }
      ],
      "name": "initialize",
      "outputs": [],
      "stateMutability": "nonpayable",
      "type": "function"
    },
    {
      "inputs": [
        {
          "internalType": "address",
          "name": "_subject",
          "type": "address"
        },
        {
          "internalType": "uint32",
          "name": "_reserveRatio",
          "type": "uint32"
        },
        {
          "internalType": "uint256",
          "name": "_initialSupply",
          "type": "uint256"
        },
        {
          "internalType": "uint256",
          "name": "_reserveAmount",
          "type": "uint256"
        },
        {
          "internalType": "address",
          "name": "_platformReferrer",
          "type": "address"
        }
      ],
      "name": "initializeSubjectBondingCurve",
      "outputs": [
        {
          "internalType": "bool",
          "name": "",
          "type": "bool"
        }
      ],
      "stateMutability": "nonpayable",
      "type": "function"
    },
    {
      "inputs": [],
      "name": "orderReferrerBuyFeePct",
      "outputs": [
        {
          "internalType": "uint256",
          "name": "",
          "type": "uint256"
        }
      ],
      "stateMutability": "view",
      "type": "function"
    },
    {
      "inputs": [],
      "name": "orderReferrerSellFeePct",
      "outputs": [
        {
          "internalType": "uint256",
          "name": "",
          "type": "uint256"
        }
      ],
      "stateMutability": "view",
      "type": "function"
    },
    {
      "inputs": [],
      "name": "pause",
      "outputs": [],
      "stateMutability": "nonpayable",
      "type": "function"
    },
    {
      "inputs": [],
      "name": "paused",
      "outputs": [
        {
          "internalType": "bool",
          "name": "",
          "type": "bool"
        }
      ],
      "stateMutability": "view",
      "type": "function"
    },
    {
      "inputs": [
        {
          "internalType": "address",
          "name": "subject",
          "type": "address"
        }
      ],
      "name": "platformReferrer",
      "outputs": [
        {
          "internalType": "address",
          "name": "_platformReferrer",
          "type": "address"
        }
      ],
      "stateMutability": "view",
      "type": "function"
    },
    {
      "inputs": [],
      "name": "platformReferrerBuyFeePct",
      "outputs": [
        {
          "internalType": "uint256",
          "name": "",
          "type": "uint256"
        }
      ],
      "stateMutability": "view",
      "type": "function"
    },
    {
      "inputs": [],
      "name": "platformReferrerSellFeePct",
      "outputs": [
        {
          "internalType": "uint256",
          "name": "",
          "type": "uint256"
        }
      ],
      "stateMutability": "view",
      "type": "function"
    },
    {
      "inputs": [],
      "name": "protocolBuyFeePct",
      "outputs": [
        {
          "internalType": "uint256",
          "name": "",
          "type": "uint256"
        }
      ],
      "stateMutability": "view",
      "type": "function"
    },
    {
      "inputs": [],
      "name": "protocolRewards",
      "outputs": [
        {
          "internalType": "contract IProtocolRewards",
          "name": "",
          "type": "address"
        }
      ],
      "stateMutability": "view",
      "type": "function"
    },
    {
      "inputs": [],
      "name": "protocolSellFeePct",
      "outputs": [
        {
          "internalType": "uint256",
          "name": "",
          "type": "uint256"
        }
      ],
      "stateMutability": "view",
      "type": "function"
    },
    {
      "inputs": [
        {
          "internalType": "bytes32",
          "name": "role",
          "type": "bytes32"
        },
        {
          "internalType": "address",
          "name": "callerConfirmation",
          "type": "address"
        }
      ],
      "name": "renounceRole",
      "outputs": [],
      "stateMutability": "nonpayable",
      "type": "function"
    },
    {
      "inputs": [
        {
          "internalType": "address",
          "name": "subject",
          "type": "address"
        }
      ],
      "name": "reserveRatio",
      "outputs": [
        {
          "internalType": "uint32",
          "name": "_reserveRatio",
          "type": "uint32"
        }
      ],
      "stateMutability": "view",
      "type": "function"
    },
    {
      "inputs": [
        {
          "internalType": "bytes32",
          "name": "role",
          "type": "bytes32"
        },
        {
          "internalType": "address",
          "name": "account",
          "type": "address"
        }
      ],
      "name": "revokeRole",
      "outputs": [],
      "stateMutability": "nonpayable",
      "type": "function"
    },
    {
      "inputs": [
        {
          "internalType": "address",
          "name": "_subject",
          "type": "address"
        },
        {
          "internalType": "uint256",
          "name": "_sellAmount",
          "type": "uint256"
        },
        {
          "internalType": "uint256",
          "name": "_minReturnAmountAfterFee",
          "type": "uint256"
        }
      ],
      "name": "sellShares",
      "outputs": [
        {
          "internalType": "uint256",
          "name": "returnAmount_",
          "type": "uint256"
        }
      ],
      "stateMutability": "nonpayable",
      "type": "function"
    },
    {
      "inputs": [
        {
          "internalType": "address",
          "name": "_subject",
          "type": "address"
        },
        {
          "internalType": "uint256",
          "name": "_sellAmount",
          "type": "uint256"
        },
        {
          "internalType": "address",
          "name": "_onBehalfOf",
          "type": "address"
        },
        {
          "internalType": "uint256",
          "name": "_minReturnAmountAfterFee",
          "type": "uint256"
        }
      ],
      "name": "sellSharesFor",
      "outputs": [
        {
          "internalType": "uint256",
          "name": "returnAmount_",
          "type": "uint256"
        }
      ],
      "stateMutability": "nonpayable",
      "type": "function"
    },
    {
      "inputs": [
        {
          "internalType": "address",
          "name": "_subject",
          "type": "address"
        },
        {
          "internalType": "uint256",
          "name": "_sellAmount",
          "type": "uint256"
        },
        {
          "internalType": "address",
          "name": "_onBehalfOf",
          "type": "address"
        },
        {
          "internalType": "uint256",
          "name": "_minReturnAmountAfterFee",
          "type": "uint256"
        },
        {
          "internalType": "address",
          "name": "_orderReferrer",
          "type": "address"
        }
      ],
      "name": "sellSharesForV2",
      "outputs": [
        {
          "internalType": "uint256",
          "name": "returnAmount_",
          "type": "uint256"
        }
      ],
      "stateMutability": "nonpayable",
      "type": "function"
    },
    {
      "inputs": [
        {
          "internalType": "address",
          "name": "_subject",
          "type": "address"
        },
        {
          "internalType": "uint256",
          "name": "_sellAmount",
          "type": "uint256"
        },
        {
          "internalType": "uint256",
          "name": "_minReturnAmountAfterFee",
          "type": "uint256"
        },
        {
          "internalType": "address",
          "name": "_orderReferrer",
          "type": "address"
        }
      ],
      "name": "sellSharesV2",
      "outputs": [
        {
          "internalType": "uint256",
          "name": "returnAmount_",
          "type": "uint256"
        }
      ],
      "stateMutability": "nonpayable",
      "type": "function"
    },
    {
      "inputs": [],
      "name": "subjectBuyFeePct",
      "outputs": [
        {
          "internalType": "uint256",
          "name": "",
          "type": "uint256"
        }
      ],
      "stateMutability": "view",
      "type": "function"
    },
    {
      "inputs": [],
      "name": "subjectFactory",
      "outputs": [
        {
          "internalType": "address",
          "name": "",
          "type": "address"
        }
      ],
      "stateMutability": "view",
      "type": "function"
    },
    {
      "inputs": [],
      "name": "subjectSellFeePct",
      "outputs": [
        {
          "internalType": "uint256",
          "name": "",
          "type": "uint256"
        }
      ],
      "stateMutability": "view",
      "type": "function"
    },
    {
      "inputs": [
        {
          "internalType": "bytes4",
          "name": "interfaceId",
          "type": "bytes4"
        }
      ],
      "name": "supportsInterface",
      "outputs": [
        {
          "internalType": "bool",
          "name": "",
          "type": "bool"
        }
      ],
      "stateMutability": "view",
      "type": "function"
    },
    {
      "inputs": [],
      "name": "token",
      "outputs": [
        {
          "internalType": "contract IERC20Extended",
          "name": "",
          "type": "address"
        }
      ],
      "stateMutability": "view",
      "type": "function"
    },
    {
      "inputs": [],
      "name": "tokenManager",
      "outputs": [
        {
          "internalType": "contract ITokenManager",
          "name": "",
          "type": "address"
        }
      ],
      "stateMutability": "view",
      "type": "function"
    },
    {
      "inputs": [],
      "name": "unpause",
      "outputs": [],
      "stateMutability": "nonpayable",
      "type": "function"
    },
    {
      "inputs": [
        {
          "internalType": "address",
          "name": "_feeBeneficiary",
          "type": "address"
        }
      ],
      "name": "updateFeeBeneficiary",
      "outputs": [],
      "stateMutability": "nonpayable",
      "type": "function"
    },
    {
      "inputs": [
        {
          "components": [
            {
              "internalType": "uint256",
              "name": "protocolBuyFeePct",
              "type": "uint256"
            },
            {
              "internalType": "uint256",
              "name": "protocolSellFeePct",
              "type": "uint256"
            },
            {
              "internalType": "uint256",
              "name": "subjectBuyFeePct",
              "type": "uint256"
            },
            {
              "internalType": "uint256",
              "name": "subjectSellFeePct",
              "type": "uint256"
            }
          ],
          "internalType": "struct IMoxieBondingCurveV2.FeeInput",
          "name": "_feeInput",
          "type": "tuple"
        }
      ],
      "name": "updateFees",
      "outputs": [],
      "stateMutability": "nonpayable",
      "type": "function"
    },
    {
      "inputs": [
        {
          "internalType": "address",
          "name": "_formula",
          "type": "address"
        }
      ],
      "name": "updateFormula",
      "outputs": [],
      "stateMutability": "nonpayable",
      "type": "function"
    },
    {
      "inputs": [
        {
          "internalType": "address",
          "name": "_protocolRewardsAddress",
          "type": "address"
        }
      ],
      "name": "updateProtocolRewardAddress",
      "outputs": [],
      "stateMutability": "nonpayable",
      "type": "function"
    },
    {
      "inputs": [
        {
          "internalType": "uint256",
          "name": "_platformReferrerBuyFeePct",
          "type": "uint256"
        },
        {
          "internalType": "uint256",
          "name": "_platformReferrerSellFeePct",
          "type": "uint256"
        },
        {
          "internalType": "uint256",
          "name": "_orderReferrerBuyFeePct",
          "type": "uint256"
        },
        {
          "internalType": "uint256",
          "name": "_orderReferrerSellFeePct",
          "type": "uint256"
        }
      ],
      "name": "updateReferralFee",
      "outputs": [],
      "stateMutability": "nonpayable",
      "type": "function"
    },
    {
      "inputs": [],
      "name": "vault",
      "outputs": [
        {
          "internalType": "contract IVault",
          "name": "",
          "type": "address"
        }
      ],
      "stateMutability": "view",
      "type": "function"
    }
  ],
  "bytecode": "0x608060405234801561001057600080fd5b5061562f80620000216000396000f3fe608060405234801561001057600080fd5b50600436106102f15760003560e01c80635b933ee61161019d578063a217fddf116100e9578063dbf49561116100a2578063fbfa77cf1161007c578063fbfa77cf14610962578063fc0c546a14610980578063fc157cb41461099e578063ffa8e177146109bc576102f1565b8063dbf49561146108f6578063e7af32ba14610914578063ec49512814610932576102f1565b8063a217fddf14610824578063a7c3e70414610842578063bf7530ff14610872578063d547741f1461088e578063d5b49a71146108aa578063d8690fea146108c6576102f1565b8063700c45901161015657806389d6d0de1161013057806389d6d0de1461079c57806391d14854146107ba578063951ef92d146107ea57806398a9c92b14610808576102f1565b8063700c4590146107445780637f460fa7146107765780638456cb5914610792576102f1565b80635b933ee6146106805780635c975abb1461069e5780635d8c84da146106bc57806360e14b60146106da57806366f80a84146106f85780636c57289314610728576102f1565b80632f2ff15d1161025c57806341644f8c116102155780634b75f54f116101ef5780634b75f54f146105d0578063520f1ce4146105ee57806357f6508b1461061e5780635b23af0a1461064e576102f1565b806341644f8c1461056457806345e5e1dd14610582578063492fb343146105b2576102f1565b80632f2ff15d146104a45780633113947a146104c057806336568abe146104f0578063389ed2671461050c57806339952b881461052a5780633f4ba83a1461055a576102f1565b806324234532116102ae57806324234532146103cc578063248a9ca3146103fc57806328a5f9401461042c57806329df64791461044a5780632a709b14146104685780632af2177d14610486576102f1565b806301ffc9a7146102f65780630d720bbc146103265780630e6c7a66146103445780630e85d27714610360578063162bcfc91461037e57806317f692221461039c575b600080fd5b610310600480360381019061030b91906144d7565b6109da565b60405161031d919061451f565b60405180910390f35b61032e610a54565b60405161033b9190614559565b60405180910390f35b61035e60048036038101906103599190614711565b610a5b565b005b610368610dcf565b60405161037591906147e2565b60405180910390f35b610386610df3565b604051610393919061480c565b60405180910390f35b6103b660048036038101906103b19190614827565b610df9565b6040516103c3919061480c565b60405180910390f35b6103e660048036038101906103e1919061487a565b610e1a565b6040516103f39190614559565b60405180910390f35b610416600480360381019061041191906148d3565b610e3d565b60405161042391906147e2565b60405180910390f35b610434610e6b565b604051610441919061480c565b60405180910390f35b610452610e71565b60405161045f919061495f565b60405180910390f35b610470610e97565b60405161047d919061499b565b60405180910390f35b61048e610ebd565b60405161049b919061480c565b60405180910390f35b6104be60048036038101906104b991906149b6565b610ec3565b005b6104da60048036038101906104d591906149f6565b610ee5565b6040516104e7919061480c565b60405180910390f35b61050a600480360381019061050591906149b6565b610f07565b005b610514610f82565b60405161052191906147e2565b60405180910390f35b610544600480360381019061053f9190614827565b610fa6565b604051610551919061480c565b60405180910390f35b610562610fc7565b005b61056c610ffc565b60405161057991906147e2565b60405180910390f35b61059c6004803603810190610597919061487a565b611020565b6040516105a99190614a80565b60405180910390f35b6105ba611053565b6040516105c79190614a80565b60405180910390f35b6105d8611079565b6040516105e59190614abc565b60405180910390f35b61060860048036038101906106039190614ad7565b61109f565b604051610615919061480c565b60405180910390f35b61063860048036038101906106339190614b3e565b6110c0565b604051610645919061480c565b60405180910390f35b61066860048036038101906106639190614ba5565b6110e2565b60405161067793929190614be5565b60405180910390f35b6106886111d6565b604051610695919061480c565b60405180910390f35b6106a66111dc565b6040516106b3919061451f565b60405180910390f35b6106c4611201565b6040516106d191906147e2565b60405180910390f35b6106e2611225565b6040516106ef91906147e2565b60405180910390f35b610712600480360381019061070d91906149f6565b611249565b60405161071f919061480c565b60405180910390f35b610742600480360381019061073d919061487a565b61126b565b005b61075e60048036038101906107599190614ba5565b6112e2565b60405161076d93929190614be5565b60405180910390f35b610790600480360381019061078b9190614c1c565b611406565b005b61079a611500565b005b6107a4611535565b6040516107b1919061480c565b60405180910390f35b6107d460048036038101906107cf91906149b6565b61153b565b6040516107e1919061451f565b60405180910390f35b6107f26115b4565b6040516107ff919061480c565b60405180910390f35b610822600480360381019061081d9190614c83565b6115ba565b005b61082c61160d565b60405161083991906147e2565b60405180910390f35b61085c60048036038101906108579190614cdc565b611614565b604051610869919061451f565b60405180910390f35b61088c6004803603810190610887919061487a565b611c52565b005b6108a860048036038101906108a391906149b6565b611d01565b005b6108c460048036038101906108bf919061487a565b611d23565b005b6108e060048036038101906108db9190614b3e565b611d9a565b6040516108ed919061480c565b60405180910390f35b6108fe611dbc565b60405161090b919061480c565b60405180910390f35b61091c611dc2565b6040516109299190614a80565b60405180910390f35b61094c60048036038101906109479190614ad7565b611de8565b604051610959919061480c565b60405180910390f35b61096a611e09565b6040516109779190614d78565b60405180910390f35b610988611e2f565b6040516109959190614db4565b60405180910390f35b6109a6611e53565b6040516109b3919061480c565b60405180910390f35b6109c4611e5f565b6040516109d1919061480c565b60405180910390f35b60007f7965db0b000000000000000000000000000000000000000000000000000000007bffffffffffffffffffffffffffffffffffffffffffffffffffffffff1916827bffffffffffffffffffffffffffffffffffffffffffffffffffffffff19161480610a4d5750610a4c82611e65565b5b9050919050565b620f424081565b6000610a65611ecf565b905060008160000160089054906101000a900460ff1615905060008260000160009054906101000a900467ffffffffffffffff1690506000808267ffffffffffffffff16148015610ab35750825b9050600060018367ffffffffffffffff16148015610ae8575060003073ffffffffffffffffffffffffffffffffffffffff163b145b905081158015610af6575080155b15610b2d576040517ff92ee8a900000000000000000000000000000000000000000000000000000000815260040160405180910390fd5b60018560000160006101000a81548167ffffffffffffffff021916908367ffffffffffffffff1602179055508315610b7d5760018560000160086101000a81548160ff0219169083151502179055505b610b85611ef7565b610b8d611f01565b610b9c8d8d8d8d8d8c8c611f13565b610ba5886120dc565b8c6000806101000a81548173ffffffffffffffffffffffffffffffffffffffff021916908373ffffffffffffffffffffffffffffffffffffffff1602179055508b600160006101000a81548173ffffffffffffffffffffffffffffffffffffffff021916908373ffffffffffffffffffffffffffffffffffffffff16021790555089600260006101000a81548173ffffffffffffffffffffffffffffffffffffffff021916908373ffffffffffffffffffffffffffffffffffffffff16021790555088600360006101000a81548173ffffffffffffffffffffffffffffffffffffffff021916908373ffffffffffffffffffffffffffffffffffffffff160217905550876000015160048190555087602001516005819055508760400151600681905550876060015160078190555086600860006101000a81548173ffffffffffffffffffffffffffffffffffffffff021916908373ffffffffffffffffffffffffffffffffffffffff16021790555085600960006101000a81548173ffffffffffffffffffffffffffffffffffffffff021916908373ffffffffffffffffffffffffffffffffffffffff160217905550610d636000801b8c612157565b508315610dc05760008560000160086101000a81548160ff0219169083151502179055507fc7f505b2f371ae2175ee4913f4499e1f2633a7b5936321eed1cdaeb6115181d26001604051610db79190614e1e565b60405180910390a15b50505050505050505050505050565b7fbfb76d8d43f55efe58544ea32af187792a7bdb983850d8fed33478266eec3cbb81565b60105481565b6000610e03612258565b610e11848433856000612299565b90509392505050565b600a6020528060005260406000206000915054906101000a900463ffffffff1681565b600080610e486124a4565b905080600001600084815260200190815260200160002060010154915050919050565b600e5481565b600b60009054906101000a900473ffffffffffffffffffffffffffffffffffffffff1681565b600260009054906101000a900473ffffffffffffffffffffffffffffffffffffffff1681565b600d5481565b610ecc82610e3d565b610ed5816124cc565b610edf8383612157565b50505050565b6000610eef612258565b610efc86868686866124e0565b905095945050505050565b610f0f6126f4565b73ffffffffffffffffffffffffffffffffffffffff168173ffffffffffffffffffffffffffffffffffffffff1614610f73576040517f6697b23200000000000000000000000000000000000000000000000000000000815260040160405180910390fd5b610f7d82826126fc565b505050565b7f139c2898040ef16910dc9f44dc697df79363da767d8bc92f2e310312b816e46d81565b6000610fb0612258565b610fbe8484338560006124e0565b90509392505050565b7f139c2898040ef16910dc9f44dc697df79363da767d8bc92f2e310312b816e46d610ff1816124cc565b610ff96127fe565b50565b7ff7ea2b80c7b6a2cab2c11d2290cb005c3748397358a25e17113658c83b73259381565b600c6020528060005260406000206000915054906101000a900473ffffffffffffffffffffffffffffffffffffffff1681565b600860009054906101000a900473ffffffffffffffffffffffffffffffffffffffff1681565b600160009054906101000a900473ffffffffffffffffffffffffffffffffffffffff1681565b60006110a9612258565b6110b685853386866124e0565b9050949350505050565b60006110ca612258565b6110d88585858560006124e0565b9050949350505050565b6000806000806000806110f58888612870565b9250925092506000600160009054906101000a900473ffffffffffffffffffffffffffffffffffffffff1673ffffffffffffffffffffffffffffffffffffffff166349f9b0f78385878c6040518563ffffffff1660e01b815260040161115e9493929190614e39565b602060405180830381865afa15801561117b573d6000803e3d6000fd5b505050506040513d601f19601f8201168201806040525081019061119f9190614e93565b90506111aa81612b5a565b80965081975050508486826111bf9190614eef565b6111c99190614eef565b9650505050509250925092565b60075481565b6000806111e7612ba8565b90508060000160009054906101000a900460ff1691505090565b7f4d9eb4440acbecfd68626b3c1f2771b5f3fe62a13eefe7e37e407530fd6795a781565b7f5f9be2932ed3a723f295a763be1804c7ebfd1a41c1348fb8bdf5be1c5cdca82281565b6000611253612258565b6112608686868686612299565b905095945050505050565b7ff7ea2b80c7b6a2cab2c11d2290cb005c3748397358a25e17113658c83b732593611295816124cc565b61129e82612bd0565b156112d5576040517fadfdb05b00000000000000000000000000000000000000000000000000000000815260040160405180910390fd5b6112de82612c08565b5050565b6000806000806000806112f58888612870565b9250925092506000600160009054906101000a900473ffffffffffffffffffffffffffffffffffffffff1673ffffffffffffffffffffffffffffffffffffffff16631da6bbfb8385878c6040518563ffffffff1660e01b815260040161135e9493929190614e39565b602060405180830381865afa15801561137b573d6000803e3d6000fd5b505050506040513d601f19601f8201168201806040525081019061139f9190614e93565b905060006006546004546113b39190614f23565b905080670de0b6b3a76400006113c99190614eef565b670de0b6b3a7640000836113dd9190614f57565b6113e79190614fc8565b97506113f288612c83565b809750819850505050505050509250925092565b7f5f9be2932ed3a723f295a763be1804c7ebfd1a41c1348fb8bdf5be1c5cdca822611430816124cc565b611444838661143f9190614f23565b612cd1565b1580611461575061145f828561145a9190614f23565b612cd1565b155b15611498576040517f470562b900000000000000000000000000000000000000000000000000000000815260040160405180910390fd5b84600d8190555083600e8190555082600f81905550816010819055507f03360feb83044daf83ccf2036bf4eb7db9c359efdc62ea6cf2d9b2d7cd7992f5600d54600e54600f546010546040516114f19493929190614ff9565b60405180910390a15050505050565b7f139c2898040ef16910dc9f44dc697df79363da767d8bc92f2e310312b816e46d61152a816124cc565b611532612ce5565b50565b60055481565b6000806115466124a4565b905080600001600085815260200190815260200160002060000160008473ffffffffffffffffffffffffffffffffffffffff1673ffffffffffffffffffffffffffffffffffffffff16815260200190815260200160002060009054906101000a900460ff1691505092915050565b60065481565b7f5f9be2932ed3a723f295a763be1804c7ebfd1a41c1348fb8bdf5be1c5cdca8226115e4816124cc565b6115ed826120dc565b6116098260000151836020015184604001518560600151612d57565b5050565b6000801b81565b600061161e612258565b61162786612bd0565b1561165e576040517fa7ef168800000000000000000000000000000000000000000000000000000000815260040160405180910390fd5b600960009054906101000a900473ffffffffffffffffffffffffffffffffffffffff1673ffffffffffffffffffffffffffffffffffffffff163373ffffffffffffffffffffffffffffffffffffffff16146116e5576040517f6802704600000000000000000000000000000000000000000000000000000000815260040160405180910390fd5b6116ee85612dbe565b611724576040517f39a1d18100000000000000000000000000000000000000000000000000000000815260040160405180910390fd5b6000600a60008873ffffffffffffffffffffffffffffffffffffffff1673ffffffffffffffffffffffffffffffffffffffff16815260200190815260200160002060009054906101000a900463ffffffff1663ffffffff16146117b3576040517f86d5f90700000000000000000000000000000000000000000000000000000000815260040160405180910390fd5b84600a60008873ffffffffffffffffffffffffffffffffffffffff1673ffffffffffffffffffffffffffffffffffffffff16815260200190815260200160002060006101000a81548163ffffffff021916908363ffffffff16021790555081600c60008873ffffffffffffffffffffffffffffffffffffffff1673ffffffffffffffffffffffffffffffffffffffff16815260200190815260200160002060006101000a81548173ffffffffffffffffffffffffffffffffffffffff021916908373ffffffffffffffffffffffffffffffffffffffff1602179055506000600260009054906101000a900473ffffffffffffffffffffffffffffffffffffffff1673ffffffffffffffffffffffffffffffffffffffff1663e4860339886040518263ffffffff1660e01b81526004016118ec9190614a80565b602060405180830381865afa158015611909573d6000803e3d6000fd5b505050506040513d601f19601f8201168201806040525081019061192d9190615053565b905061193881612bd0565b1561196f576040517ffcde723100000000000000000000000000000000000000000000000000000000815260040160405180910390fd5b8073ffffffffffffffffffffffffffffffffffffffff168773ffffffffffffffffffffffffffffffffffffffff167f3e8bb74e6a03753bf16c1c2737daabee1be3548b0f638894f10f382560d1d07687878a6040516119d093929190615080565b60405180910390a360008173ffffffffffffffffffffffffffffffffffffffff166318160ddd6040518163ffffffff1660e01b8152600401602060405180830381865afa158015611a25573d6000803e3d6000fd5b505050506040513d601f19601f82011682018060405250810190611a499190614e93565b9050808614611a84576040517f849e9ad400000000000000000000000000000000000000000000000000000000815260040160405180910390fd5b611ad133308760008054906101000a900473ffffffffffffffffffffffffffffffffffffffff1673ffffffffffffffffffffffffffffffffffffffff16612dda909392919063ffffffff16565b60008054906101000a900473ffffffffffffffffffffffffffffffffffffffff1673ffffffffffffffffffffffffffffffffffffffff1663095ea7b3600360009054906101000a900473ffffffffffffffffffffffffffffffffffffffff16876040518363ffffffff1660e01b8152600401611b4e9291906150b7565b6020604051808303816000875af1158015611b6d573d6000803e3d6000fd5b505050506040513d601f19601f82011682018060405250810190611b91919061510c565b50600360009054906101000a900473ffffffffffffffffffffffffffffffffffffffff1673ffffffffffffffffffffffffffffffffffffffff16638340f5498360008054906101000a900473ffffffffffffffffffffffffffffffffffffffff16886040518463ffffffff1660e01b8152600401611c1193929190615139565b600060405180830381600087803b158015611c2b57600080fd5b505af1158015611c3f573d6000803e3d6000fd5b5050505060019250505095945050505050565b7f4d9eb4440acbecfd68626b3c1f2771b5f3fe62a13eefe7e37e407530fd6795a7611c7c816124cc565b611c8582612bd0565b15611cbc576040517f592bc52a00000000000000000000000000000000000000000000000000000000815260040160405180910390fd5b81600b60006101000a81548173ffffffffffffffffffffffffffffffffffffffff021916908373ffffffffffffffffffffffffffffffffffffffff1602179055505050565b611d0a82610e3d565b611d13816124cc565b611d1d83836126fc565b50505050565b7fbfb76d8d43f55efe58544ea32af187792a7bdb983850d8fed33478266eec3cbb611d4d816124cc565b611d5682612bd0565b15611d8d576040517fb1710af000000000000000000000000000000000000000000000000000000000815260040160405180910390fd5b611d9682612e5c565b5050565b6000611da4612258565b611db2858585856000612299565b9050949350505050565b60045481565b600960009054906101000a900473ffffffffffffffffffffffffffffffffffffffff1681565b6000611df2612258565b611dff8585338686612299565b9050949350505050565b600360009054906101000a900473ffffffffffffffffffffffffffffffffffffffff1681565b60008054906101000a900473ffffffffffffffffffffffffffffffffffffffff1681565b670de0b6b3a764000081565b600f5481565b60007f01ffc9a7000000000000000000000000000000000000000000000000000000007bffffffffffffffffffffffffffffffffffffffffffffffffffffffff1916827bffffffffffffffffffffffffffffffffffffffffffffffffffffffff1916149050919050565b60007ff0c57e16840df040f15088dc2f81fe391c3923bec73e23a9662efc9c229c6a00905090565b611eff612ed7565b565b611f09612ed7565b611f11612f17565b565b611f1c87612bd0565b15611f53576040517f1c8c425400000000000000000000000000000000000000000000000000000000815260040160405180910390fd5b611f5c86612bd0565b15611f93576040517fb1710af000000000000000000000000000000000000000000000000000000000815260040160405180910390fd5b611f9c85612bd0565b15611fd3576040517f3c77158e00000000000000000000000000000000000000000000000000000000815260040160405180910390fd5b611fdc84612bd0565b15612013576040517f926d717700000000000000000000000000000000000000000000000000000000815260040160405180910390fd5b61201c83612bd0565b15612053576040517f466e460200000000000000000000000000000000000000000000000000000000815260040160405180910390fd5b61205c81612bd0565b15612093576040517fee2f6f2a00000000000000000000000000000000000000000000000000000000815260040160405180910390fd5b61209c82612bd0565b156120d3576040517fadfdb05b00000000000000000000000000000000000000000000000000000000815260040160405180910390fd5b50505050505050565b6120f8816040015182600001516120f39190614f23565b612cd1565b158061211d575061211b816060015182602001516121169190614f23565b612cd1565b155b15612154576040517f470562b900000000000000000000000000000000000000000000000000000000815260040160405180910390fd5b50565b6000806121626124a4565b905061216e848461153b565b61224c57600181600001600086815260200190815260200160002060000160008573ffffffffffffffffffffffffffffffffffffffff1673ffffffffffffffffffffffffffffffffffffffff16815260200190815260200160002060006101000a81548160ff0219169083151502179055506121e86126f4565b73ffffffffffffffffffffffffffffffffffffffff168373ffffffffffffffffffffffffffffffffffffffff16857f2f8788117e7eff1d82e926ec794901d17c78024a50270940304540a733656f0d60405160405180910390a46001915050612252565b60009150505b92915050565b6122606111dc565b15612297576040517fd93c066500000000000000000000000000000000000000000000000000000000815260040160405180910390fd5b565b60006122a486612bd0565b156122db576040517fa7ef168800000000000000000000000000000000000000000000000000000000815260040160405180910390fd5b60008503612314576040517e6a79a400000000000000000000000000000000000000000000000000000000815260040160405180910390fd5b6000600a60008873ffffffffffffffffffffffffffffffffffffffff1673ffffffffffffffffffffffffffffffffffffffff16815260200190815260200160002060009054906101000a900463ffffffff16905060008163ffffffff16036123a8576040517f85b1b9c700000000000000000000000000000000000000000000000000000000815260040160405180910390fd5b6000600260009054906101000a900473ffffffffffffffffffffffffffffffffffffffff1673ffffffffffffffffffffffffffffffffffffffff1663e4860339896040518263ffffffff1660e01b81526004016124059190614a80565b602060405180830381865afa158015612422573d6000803e3d6000fd5b505050506040513d601f19601f820116820180604052508101906124469190615053565b905061245181612bd0565b15612488576040517ffcde723100000000000000000000000000000000000000000000000000000000815260040160405180910390fd5b612497818888888c878a612f4b565b9250505095945050505050565b60007f02dd7bc7dec4dceedda775e58dd541e08a116c6c53815c0bd028192f7b626800905090565b6124dd816124d86126f4565b6134b5565b50565b60006124ea612258565b6124f386612bd0565b1561252a576040517fa7ef168800000000000000000000000000000000000000000000000000000000815260040160405180910390fd5b60008503612564576040517f2dc1479300000000000000000000000000000000000000000000000000000000815260040160405180910390fd5b6000600a60008873ffffffffffffffffffffffffffffffffffffffff1673ffffffffffffffffffffffffffffffffffffffff16815260200190815260200160002060009054906101000a900463ffffffff16905060008163ffffffff16036125f8576040517f85b1b9c700000000000000000000000000000000000000000000000000000000815260040160405180910390fd5b6000600260009054906101000a900473ffffffffffffffffffffffffffffffffffffffff1673ffffffffffffffffffffffffffffffffffffffff1663e4860339896040518263ffffffff1660e01b81526004016126559190614a80565b602060405180830381865afa158015612672573d6000803e3d6000fd5b505050506040513d601f19601f820116820180604052508101906126969190615053565b90506126a181612bd0565b156126d8576040517ffcde723100000000000000000000000000000000000000000000000000000000815260040160405180910390fd5b6126e7818888888c878a613506565b9250505095945050505050565b600033905090565b6000806127076124a4565b9050612713848461153b565b156127f257600081600001600086815260200190815260200160002060000160008573ffffffffffffffffffffffffffffffffffffffff1673ffffffffffffffffffffffffffffffffffffffff16815260200190815260200160002060006101000a81548160ff02191690831515021790555061278e6126f4565b73ffffffffffffffffffffffffffffffffffffffff168373ffffffffffffffffffffffffffffffffffffffff16857ff6391f5c32d9c69d2a47ea670b442974b53935d1edc7fd64eb21e047a839171b60405160405180910390a460019150506127f8565b60009150505b92915050565b61280661396a565b6000612810612ba8565b905060008160000160006101000a81548160ff0219169083151502179055507f5db9ee0a495bf2e6ff9c91a7834c1ba4fdd244a5e8aa4e537bd38aeae4b073aa6128586126f4565b6040516128659190614a80565b60405180910390a150565b600080600061287e85612bd0565b156128b5576040517fa7ef168800000000000000000000000000000000000000000000000000000000815260040160405180910390fd5b600084036128ef576040517fc1787ce800000000000000000000000000000000000000000000000000000000815260040160405180910390fd5b600a60008673ffffffffffffffffffffffffffffffffffffffff1673ffffffffffffffffffffffffffffffffffffffff16815260200190815260200160002060009054906101000a900463ffffffff16925060008363ffffffff1603612981576040517f85b1b9c700000000000000000000000000000000000000000000000000000000815260040160405180910390fd5b6000600260009054906101000a900473ffffffffffffffffffffffffffffffffffffffff1673ffffffffffffffffffffffffffffffffffffffff1663e4860339876040518263ffffffff1660e01b81526004016129de9190614a80565b602060405180830381865afa1580156129fb573d6000803e3d6000fd5b505050506040513d601f19601f82011682018060405250810190612a1f9190615053565b9050600360009054906101000a900473ffffffffffffffffffffffffffffffffffffffff1673ffffffffffffffffffffffffffffffffffffffff1663f7888aec8260008054906101000a900473ffffffffffffffffffffffffffffffffffffffff166040518363ffffffff1660e01b8152600401612a9e929190615170565b602060405180830381865afa158015612abb573d6000803e3d6000fd5b505050506040513d601f19601f82011682018060405250810190612adf9190614e93565b92508073ffffffffffffffffffffffffffffffffffffffff166318160ddd6040518163ffffffff1660e01b8152600401602060405180830381865afa158015612b2c573d6000803e3d6000fd5b505050506040513d601f19601f82011682018060405250810190612b509190614e93565b9150509250925092565b600080670de0b6b3a764000060055484612b749190614f57565b612b7e9190614fc8565b9150670de0b6b3a764000060075484612b979190614f57565b612ba19190614fc8565b9050915091565b60007fcd5ed15c6e187e77e9aee88184c21f4f2182ab5827cb3b7e07fbedcd63f03300905090565b60008073ffffffffffffffffffffffffffffffffffffffff168273ffffffffffffffffffffffffffffffffffffffff16149050919050565b80600860006101000a81548173ffffffffffffffffffffffffffffffffffffffff021916908373ffffffffffffffffffffffffffffffffffffffff1602179055507fe6131a64e93e9aa4ff38892c34d563c06dcc1e03b3d6897cc65f0903e2ad684881604051612c789190614a80565b60405180910390a150565b600080670de0b6b3a764000060045484612c9d9190614f57565b612ca79190614fc8565b9150670de0b6b3a764000060065484612cc09190614f57565b612cca9190614fc8565b9050915091565b6000670de0b6b3a764000082109050919050565b612ced612258565b6000612cf7612ba8565b905060018160000160006101000a81548160ff0219169083151502179055507f62e78cea01bee320cd4e420270b5ea74000d11b0c9f74754ebdbfc544b05a258612d3f6126f4565b604051612d4c9190614a80565b60405180910390a150565b836004819055508260058190555081600681905550806007819055507f5c3aee3d65f7eb02cded951435d06b06ef307bc7f57b98975c4a41dc116e711c600454600554600654600754604051612db09493929190614ff9565b60405180910390a150505050565b6000620f424063ffffffff168263ffffffff1611159050919050565b612e56848573ffffffffffffffffffffffffffffffffffffffff166323b872dd868686604051602401612e0f93929190615139565b604051602081830303815290604052915060e01b6020820180517bffffffffffffffffffffffffffffffffffffffffffffffffffffffff83818316178352505050506139aa565b50505050565b80600160006101000a81548173ffffffffffffffffffffffffffffffffffffffff021916908373ffffffffffffffffffffffffffffffffffffffff1602179055507f050a79a49cc1dc3aeeccd8636685ad0469db41a9bd51254a34fc1cf616693d4181604051612ecc9190614a80565b60405180910390a150565b612edf613a41565b612f15576040517fd7e6bcf800000000000000000000000000000000000000000000000000000000815260040160405180910390fd5b565b612f1f612ed7565b6000612f29612ba8565b905060008160000160006101000a81548160ff02191690831515021790555050565b6000612f9a33308960008054906101000a900473ffffffffffffffffffffffffffffffffffffffff1673ffffffffffffffffffffffffffffffffffffffff16612dda909392919063ffffffff16565b600080612fa689612c83565b91509150612fb8868284876001613a61565b600082828b612fc79190614eef565b612fd19190614eef565b905060008054906101000a900473ffffffffffffffffffffffffffffffffffffffff1673ffffffffffffffffffffffffffffffffffffffff1663095ea7b3600360009054906101000a900473ffffffffffffffffffffffffffffffffffffffff16836040518363ffffffff1660e01b81526004016130509291906150b7565b6020604051808303816000875af115801561306f573d6000803e3d6000fd5b505050506040513d601f19601f82011682018060405250810190613093919061510c565b506000600360009054906101000a900473ffffffffffffffffffffffffffffffffffffffff1673ffffffffffffffffffffffffffffffffffffffff1663f7888aec8d60008054906101000a900473ffffffffffffffffffffffffffffffffffffffff166040518363ffffffff1660e01b8152600401613113929190615170565b602060405180830381865afa158015613130573d6000803e3d6000fd5b505050506040513d601f19601f820116820180604052508101906131549190614e93565b9050600360009054906101000a900473ffffffffffffffffffffffffffffffffffffffff1673ffffffffffffffffffffffffffffffffffffffff16638340f5498d60008054906101000a900473ffffffffffffffffffffffffffffffffffffffff16856040518463ffffffff1660e01b81526004016131d593929190615139565b600060405180830381600087803b1580156131ef57600080fd5b505af1158015613203573d6000803e3d6000fd5b50505050600160009054906101000a900473ffffffffffffffffffffffffffffffffffffffff1673ffffffffffffffffffffffffffffffffffffffff166329a00e7c8d73ffffffffffffffffffffffffffffffffffffffff166318160ddd6040518163ffffffff1660e01b8152600401602060405180830381865afa158015613290573d6000803e3d6000fd5b505050506040513d601f19601f820116820180604052508101906132b49190614e93565b838a866040518563ffffffff1660e01b81526004016132d69493929190614e39565b602060405180830381865afa1580156132f3573d6000803e3d6000fd5b505050506040513d601f19601f820116820180604052508101906133179190614e93565b94505050505084811015613357576040517f13115b2900000000000000000000000000000000000000000000000000000000815260040160405180910390fd5b61336086612bd0565b61340857600260009054906101000a900473ffffffffffffffffffffffffffffffffffffffff1673ffffffffffffffffffffffffffffffffffffffff1663c6c3bbe68588846040518463ffffffff1660e01b81526004016133c393929190615139565b6020604051808303816000875af11580156133e2573d6000803e3d6000fd5b505050506040513d601f19601f82011682018060405250810190613406919061510c565b505b8573ffffffffffffffffffffffffffffffffffffffff1660008054906101000a900473ffffffffffffffffffffffffffffffffffffffff1673ffffffffffffffffffffffffffffffffffffffff168573ffffffffffffffffffffffffffffffffffffffff167f96c1b5a0ee3c1932c831b8c6a559c93b48a3109915784a05ff44a07cc09c39318a338d876040516134a29493929190615199565b60405180910390a4979650505050505050565b6134bf828261153b565b6135025780826040517fe2517d3f0000000000000000000000000000000000000000000000000000000081526004016134f99291906151de565b60405180910390fd5b5050565b600080600360009054906101000a900473ffffffffffffffffffffffffffffffffffffffff1673ffffffffffffffffffffffffffffffffffffffff1663f7888aec8a60008054906101000a900473ffffffffffffffffffffffffffffffffffffffff166040518363ffffffff1660e01b8152600401613586929190615170565b602060405180830381865afa1580156135a3573d6000803e3d6000fd5b505050506040513d601f19601f820116820180604052508101906135c79190614e93565b90506000600160009054906101000a900473ffffffffffffffffffffffffffffffffffffffff1673ffffffffffffffffffffffffffffffffffffffff166349f9b0f78b73ffffffffffffffffffffffffffffffffffffffff166318160ddd6040518163ffffffff1660e01b8152600401602060405180830381865afa158015613654573d6000803e3d6000fd5b505050506040513d601f19601f820116820180604052508101906136789190614e93565b84888d6040518563ffffffff1660e01b815260040161369a9493929190614e39565b602060405180830381865afa1580156136b7573d6000803e3d6000fd5b505050506040513d601f19601f820116820180604052508101906136db9190614e93565b90506000806136e983612b5a565b915091508181846136fa9190614eef565b6137049190614eef565b945088851015613740576040517f13115b2900000000000000000000000000000000000000000000000000000000815260040160405180910390fd5b8973ffffffffffffffffffffffffffffffffffffffff168c73ffffffffffffffffffffffffffffffffffffffff168973ffffffffffffffffffffffffffffffffffffffff167f44ebb8a56b0413525e33cc89179d9758b2b1ab944b0bbeeb6d119adb2a6e3fe28e3360008054906101000a900473ffffffffffffffffffffffffffffffffffffffff168b6040516137da9493929190615199565b60405180910390a48b73ffffffffffffffffffffffffffffffffffffffff166379cc6790338d6040518363ffffffff1660e01b815260040161381d9291906150b7565b600060405180830381600087803b15801561383757600080fd5b505af115801561384b573d6000803e3d6000fd5b50505050600360009054906101000a900473ffffffffffffffffffffffffffffffffffffffff1673ffffffffffffffffffffffffffffffffffffffff1663f18d03cc8d60008054906101000a900473ffffffffffffffffffffffffffffffffffffffff1630876040518563ffffffff1660e01b81526004016138d09493929190615207565b600060405180830381600087803b1580156138ea57600080fd5b505af11580156138fe573d6000803e3d6000fd5b50505050613910888284896000613a61565b61395b8a8660008054906101000a900473ffffffffffffffffffffffffffffffffffffffff1673ffffffffffffffffffffffffffffffffffffffff166142119092919063ffffffff16565b50505050979650505050505050565b6139726111dc565b6139a8576040517f8dfc202b00000000000000000000000000000000000000000000000000000000815260040160405180910390fd5b565b60006139d5828473ffffffffffffffffffffffffffffffffffffffff1661429090919063ffffffff16565b905060008151141580156139fa5750808060200190518101906139f8919061510c565b155b15613a3c57826040517f5274afe7000000000000000000000000000000000000000000000000000000008152600401613a339190614a80565b60405180910390fd5b505050565b6000613a4b611ecf565b60000160089054906101000a900460ff16905090565b6000600c60008773ffffffffffffffffffffffffffffffffffffffff1673ffffffffffffffffffffffffffffffffffffffff16815260200190815260200160002060009054906101000a900473ffffffffffffffffffffffffffffffffffffffff169050600073ffffffffffffffffffffffffffffffffffffffff168173ffffffffffffffffffffffffffffffffffffffff1603613b1f57600860009054906101000a900473ffffffffffffffffffffffffffffffffffffffff1690505b600073ffffffffffffffffffffffffffffffffffffffff168373ffffffffffffffffffffffffffffffffffffffff1603613b7957600860009054906101000a900473ffffffffffffffffffffffffffffffffffffffff1692505b6000600467ffffffffffffffff811115613b9657613b956145e8565b5b604051908082528060200260200182016040528015613bc45781602001602082028036833780820191505090505b5090506000600467ffffffffffffffff811115613be457613be36145e8565b5b604051908082528060200260200182016040528015613c125781602001602082028036833780820191505090505b5090506000600467ffffffffffffffff811115613c3257613c316145e8565b5b604051908082528060200260200182016040528015613c605781602001602082028036833780820191505090505b50905060008789613c719190614f23565b905060008054906101000a900473ffffffffffffffffffffffffffffffffffffffff1673ffffffffffffffffffffffffffffffffffffffff1663095ea7b3600b60009054906101000a900473ffffffffffffffffffffffffffffffffffffffff16836040518363ffffffff1660e01b8152600401613cf09291906150b7565b6020604051808303816000875af1158015613d0f573d6000803e3d6000fd5b505050506040513d601f19601f82011682018060405250810190613d33919061510c565b508984600081518110613d4957613d4861524c565b5b602002602001019073ffffffffffffffffffffffffffffffffffffffff16908173ffffffffffffffffffffffffffffffffffffffff16815250508883600081518110613d9857613d9761524c565b5b6020026020010181815250507f7c5f60887d67765088ca62cbabbd5361535419e4f3725adc4dc0c13f5b59f73882600081518110613dd957613dd861524c565b5b60200260200101907bffffffffffffffffffffffffffffffffffffffffffffffffffffffff191690817bffffffffffffffffffffffffffffffffffffffffffffffffffffffff1916815250506000613e418988613e3857601054613e3c565b600f545b6142a6565b90506000613e5f8a89613e5657600e54613e5a565b600d545b6142a6565b90508886600181518110613e7657613e7561524c565b5b602002602001019073ffffffffffffffffffffffffffffffffffffffff16908173ffffffffffffffffffffffffffffffffffffffff16815250508185600181518110613ec557613ec461524c565b5b6020026020010181815250507ff42119e1e766c9d418cfe9f883239daf3699921c8bb04cef48277423d328e88484600181518110613f0657613f0561524c565b5b60200260200101907bffffffffffffffffffffffffffffffffffffffffffffffffffffffff191690817bffffffffffffffffffffffffffffffffffffffffffffffffffffffff1916815250508686600281518110613f6757613f6661524c565b5b602002602001019073ffffffffffffffffffffffffffffffffffffffff16908173ffffffffffffffffffffffffffffffffffffffff16815250508085600281518110613fb657613fb561524c565b5b6020026020010181815250507f9b340ab2ddac28fe08c4749305b3981e9d662637abd29942b71f29d6f6e2e7b784600281518110613ff757613ff661524c565b5b60200260200101907bffffffffffffffffffffffffffffffffffffffffffffffffffffffff191690817bffffffffffffffffffffffffffffffffffffffffffffffffffffffff191681525050600081838c6140529190614eef565b61405c9190614eef565b9050600860009054906101000a900473ffffffffffffffffffffffffffffffffffffffff16876003815181106140955761409461524c565b5b602002602001019073ffffffffffffffffffffffffffffffffffffffff16908173ffffffffffffffffffffffffffffffffffffffff168152505080866003815181106140e4576140e361524c565b5b6020026020010181815250507faa072a75f148988e1647e65b0d00c2928a6ed1bc51c4671e0ac15252c77dc495856003815181106141255761412461524c565b5b60200260200101907bffffffffffffffffffffffffffffffffffffffffffffffffffffffff191690817bffffffffffffffffffffffffffffffffffffffffffffffffffffffff191681525050600b60009054906101000a900473ffffffffffffffffffffffffffffffffffffffff1673ffffffffffffffffffffffffffffffffffffffff1663300def958888886040518463ffffffff1660e01b81526004016141d093929190615512565b600060405180830381600087803b1580156141ea57600080fd5b505af11580156141fe573d6000803e3d6000fd5b5050505050505050505050505050505050565b61428b838473ffffffffffffffffffffffffffffffffffffffff1663a9059cbb85856040516024016142449291906150b7565b604051602081830303815290604052915060e01b6020820180517bffffffffffffffffffffffffffffffffffffffffffffffffffffffff83818316178352505050506139aa565b505050565b606061429e838360006142cf565b905092915050565b6000670de0b6b3a764000082846142bd9190614f57565b6142c79190614fc8565b905092915050565b60608147101561431657306040517fcd78605900000000000000000000000000000000000000000000000000000000815260040161430d9190614a80565b60405180910390fd5b6000808573ffffffffffffffffffffffffffffffffffffffff16848660405161433f91906155e2565b60006040518083038185875af1925050503d806000811461437c576040519150601f19603f3d011682016040523d82523d6000602084013e614381565b606091505b509150915061439186838361439c565b925050509392505050565b6060826143b1576143ac8261442b565b614423565b600082511480156143d9575060008473ffffffffffffffffffffffffffffffffffffffff163b145b1561441b57836040517f9996b3150000000000000000000000000000000000000000000000000000000081526004016144129190614a80565b60405180910390fd5b819050614424565b5b9392505050565b60008151111561443e5780518082602001fd5b6040517f1425ea4200000000000000000000000000000000000000000000000000000000815260040160405180910390fd5b6000604051905090565b600080fd5b60007fffffffff0000000000000000000000000000000000000000000000000000000082169050919050565b6144b48161447f565b81146144bf57600080fd5b50565b6000813590506144d1816144ab565b92915050565b6000602082840312156144ed576144ec61447a565b5b60006144fb848285016144c2565b91505092915050565b60008115159050919050565b61451981614504565b82525050565b60006020820190506145346000830184614510565b92915050565b600063ffffffff82169050919050565b6145538161453a565b82525050565b600060208201905061456e600083018461454a565b92915050565b600073ffffffffffffffffffffffffffffffffffffffff82169050919050565b600061459f82614574565b9050919050565b6145af81614594565b81146145ba57600080fd5b50565b6000813590506145cc816145a6565b92915050565b600080fd5b6000601f19601f8301169050919050565b7f4e487b7100000000000000000000000000000000000000000000000000000000600052604160045260246000fd5b614620826145d7565b810181811067ffffffffffffffff8211171561463f5761463e6145e8565b5b80604052505050565b6000614652614470565b905061465e8282614617565b919050565b6000819050919050565b61467681614663565b811461468157600080fd5b50565b6000813590506146938161466d565b92915050565b6000608082840312156146af576146ae6145d2565b5b6146b96080614648565b905060006146c984828501614684565b60008301525060206146dd84828501614684565b60208301525060406146f184828501614684565b604083015250606061470584828501614684565b60608301525092915050565b600080600080600080600080610160898b0312156147325761473161447a565b5b60006147408b828c016145bd565b98505060206147518b828c016145bd565b97505060406147628b828c016145bd565b96505060606147738b828c016145bd565b95505060806147848b828c016145bd565b94505060a06147958b828c01614699565b9350506101206147a78b828c016145bd565b9250506101406147b98b828c016145bd565b9150509295985092959890939650565b6000819050919050565b6147dc816147c9565b82525050565b60006020820190506147f760008301846147d3565b92915050565b61480681614663565b82525050565b600060208201905061482160008301846147fd565b92915050565b6000806000606084860312156148405761483f61447a565b5b600061484e868287016145bd565b935050602061485f86828701614684565b925050604061487086828701614684565b9150509250925092565b6000602082840312156148905761488f61447a565b5b600061489e848285016145bd565b91505092915050565b6148b0816147c9565b81146148bb57600080fd5b50565b6000813590506148cd816148a7565b92915050565b6000602082840312156148e9576148e861447a565b5b60006148f7848285016148be565b91505092915050565b6000819050919050565b600061492561492061491b84614574565b614900565b614574565b9050919050565b60006149378261490a565b9050919050565b60006149498261492c565b9050919050565b6149598161493e565b82525050565b60006020820190506149746000830184614950565b92915050565b60006149858261492c565b9050919050565b6149958161497a565b82525050565b60006020820190506149b0600083018461498c565b92915050565b600080604083850312156149cd576149cc61447a565b5b60006149db858286016148be565b92505060206149ec858286016145bd565b9150509250929050565b600080600080600060a08688031215614a1257614a1161447a565b5b6000614a20888289016145bd565b9550506020614a3188828901614684565b9450506040614a42888289016145bd565b9350506060614a5388828901614684565b9250506080614a64888289016145bd565b9150509295509295909350565b614a7a81614594565b82525050565b6000602082019050614a956000830184614a71565b92915050565b6000614aa68261492c565b9050919050565b614ab681614a9b565b82525050565b6000602082019050614ad16000830184614aad565b92915050565b60008060008060808587031215614af157614af061447a565b5b6000614aff878288016145bd565b9450506020614b1087828801614684565b9350506040614b2187828801614684565b9250506060614b32878288016145bd565b91505092959194509250565b60008060008060808587031215614b5857614b5761447a565b5b6000614b66878288016145bd565b9450506020614b7787828801614684565b9350506040614b88878288016145bd565b9250506060614b9987828801614684565b91505092959194509250565b60008060408385031215614bbc57614bbb61447a565b5b6000614bca858286016145bd565b9250506020614bdb85828601614684565b9150509250929050565b6000606082019050614bfa60008301866147fd565b614c0760208301856147fd565b614c1460408301846147fd565b949350505050565b60008060008060808587031215614c3657614c3561447a565b5b6000614c4487828801614684565b9450506020614c5587828801614684565b9350506040614c6687828801614684565b9250506060614c7787828801614684565b91505092959194509250565b600060808284031215614c9957614c9861447a565b5b6000614ca784828501614699565b91505092915050565b614cb98161453a565b8114614cc457600080fd5b50565b600081359050614cd681614cb0565b92915050565b600080600080600060a08688031215614cf857614cf761447a565b5b6000614d06888289016145bd565b9550506020614d1788828901614cc7565b9450506040614d2888828901614684565b9350506060614d3988828901614684565b9250506080614d4a888289016145bd565b9150509295509295909350565b6000614d628261492c565b9050919050565b614d7281614d57565b82525050565b6000602082019050614d8d6000830184614d69565b92915050565b6000614d9e8261492c565b9050919050565b614dae81614d93565b82525050565b6000602082019050614dc96000830184614da5565b92915050565b6000819050919050565b600067ffffffffffffffff82169050919050565b6000614e08614e03614dfe84614dcf565b614900565b614dd9565b9050919050565b614e1881614ded565b82525050565b6000602082019050614e336000830184614e0f565b92915050565b6000608082019050614e4e60008301876147fd565b614e5b60208301866147fd565b614e68604083018561454a565b614e7560608301846147fd565b95945050505050565b600081519050614e8d8161466d565b92915050565b600060208284031215614ea957614ea861447a565b5b6000614eb784828501614e7e565b91505092915050565b7f4e487b7100000000000000000000000000000000000000000000000000000000600052601160045260246000fd5b6000614efa82614663565b9150614f0583614663565b9250828203905081811115614f1d57614f1c614ec0565b5b92915050565b6000614f2e82614663565b9150614f3983614663565b9250828201905080821115614f5157614f50614ec0565b5b92915050565b6000614f6282614663565b9150614f6d83614663565b9250828202614f7b81614663565b91508282048414831517614f9257614f91614ec0565b5b5092915050565b7f4e487b7100000000000000000000000000000000000000000000000000000000600052601260045260246000fd5b6000614fd382614663565b9150614fde83614663565b925082614fee57614fed614f99565b5b828204905092915050565b600060808201905061500e60008301876147fd565b61501b60208301866147fd565b61502860408301856147fd565b61503560608301846147fd565b95945050505050565b60008151905061504d816145a6565b92915050565b6000602082840312156150695761506861447a565b5b60006150778482850161503e565b91505092915050565b600060608201905061509560008301866147fd565b6150a260208301856147fd565b6150af604083018461454a565b949350505050565b60006040820190506150cc6000830185614a71565b6150d960208301846147fd565b9392505050565b6150e981614504565b81146150f457600080fd5b50565b600081519050615106816150e0565b92915050565b6000602082840312156151225761512161447a565b5b6000615130848285016150f7565b91505092915050565b600060608201905061514e6000830186614a71565b61515b6020830185614a71565b61516860408301846147fd565b949350505050565b60006040820190506151856000830185614a71565b6151926020830184614a71565b9392505050565b60006080820190506151ae60008301876147fd565b6151bb6020830186614a71565b6151c86040830185614a71565b6151d560608301846147fd565b95945050505050565b60006040820190506151f36000830185614a71565b61520060208301846147d3565b9392505050565b600060808201905061521c6000830187614a71565b6152296020830186614a71565b6152366040830185614a71565b61524360608301846147fd565b95945050505050565b7f4e487b7100000000000000000000000000000000000000000000000000000000600052603260045260246000fd5b600081519050919050565b600082825260208201905092915050565b6000819050602082019050919050565b6152b081614594565b82525050565b60006152c283836152a7565b60208301905092915050565b6000602082019050919050565b60006152e68261527b565b6152f08185615286565b93506152fb83615297565b8060005b8381101561532c57815161531388826152b6565b975061531e836152ce565b9250506001810190506152ff565b5085935050505092915050565b600081519050919050565b600082825260208201905092915050565b6000819050602082019050919050565b61536e81614663565b82525050565b60006153808383615365565b60208301905092915050565b6000602082019050919050565b60006153a482615339565b6153ae8185615344565b93506153b983615355565b8060005b838110156153ea5781516153d18882615374565b97506153dc8361538c565b9250506001810190506153bd565b5085935050505092915050565b600081519050919050565b600082825260208201905092915050565b6000819050602082019050919050565b61542c8161447f565b82525050565b600061543e8383615423565b60208301905092915050565b6000602082019050919050565b6000615462826153f7565b61546c8185615402565b935061547783615413565b8060005b838110156154a857815161548f8882615432565b975061549a8361544a565b92505060018101905061547b565b5085935050505092915050565b600082825260208201905092915050565b7f5452414e53414354494f4e5f4645450000000000000000000000000000000000600082015250565b60006154fc600f836154b5565b9150615507826154c6565b602082019050919050565b6000608082019050818103600083015261552c81866152db565b905081810360208301526155408185615399565b905081810360408301526155548184615457565b90508181036060830152615567816154ef565b9050949350505050565b600081519050919050565b600081905092915050565b60005b838110156155a557808201518184015260208101905061558a565b60008484015250505050565b60006155bc82615571565b6155c6818561557c565b93506155d6818560208601615587565b80840191505092915050565b60006155ee82846155b1565b91508190509291505056fea2646970667358221220d93ab69e2d6b1fd9e1b85ebd17b9e79e9e7401347de8265e03ac82d10cd6a54864736f6c63430008180033",
  "linkReferences": {},
  "deployedLinkReferences": {}
}