{
  "_format": "hh-sol-artifact-1",
  "contractName": "EasyAuction",
  "sourceName": "contracts/EasyAuction.sol",
  "abi": [
    {
      "inputs": [],
      "stateMutability": "nonpayable",
      "type": "constructor"
    },
    {
      "anonymous": false,
      "inputs": [
        {
          "indexed": true,
          "internalType": "uint256",
          "name": "auctionId",
          "type": "uint256"
        },
        {
          "indexed": false,
          "internalType": "uint96",
          "name": "soldAuctioningTokens",
          "type": "uint96"
        },
        {
          "indexed": false,
          "internalType": "uint96",
          "name": "soldBiddingTokens",
          "type": "uint96"
        },
        {
          "indexed": false,
          "internalType": "bytes32",
          "name": "clearingPriceOrder",
          "type": "bytes32"
        }
      ],
      "name": "AuctionCleared",
      "type": "event"
    },
    {
      "anonymous": false,
      "inputs": [
        {
          "indexed": true,
          "internalType": "uint256",
          "name": "auctionId",
          "type": "uint256"
        },
        {
          "indexed": true,
          "internalType": "uint64",
          "name": "userId",
          "type": "uint64"
        },
        {
          "indexed": false,
          "internalType": "uint96",
          "name": "buyAmount",
          "type": "uint96"
        },
        {
          "indexed": false,
          "internalType": "uint96",
          "name": "sellAmount",
          "type": "uint96"
        }
      ],
      "name": "CancellationSellOrder",
      "type": "event"
    },
    {
      "anonymous": false,
      "inputs": [
        {
          "indexed": true,
          "internalType": "uint256",
          "name": "auctionId",
          "type": "uint256"
        },
        {
          "indexed": true,
          "internalType": "uint64",
          "name": "userId",
          "type": "uint64"
        },
        {
          "indexed": false,
          "internalType": "uint96",
          "name": "buyAmount",
          "type": "uint96"
        },
        {
          "indexed": false,
          "internalType": "uint96",
          "name": "sellAmount",
          "type": "uint96"
        }
      ],
      "name": "ClaimedFromOrder",
      "type": "event"
    },
    {
      "anonymous": false,
      "inputs": [
        {
          "indexed": true,
          "internalType": "uint256",
          "name": "auctionId",
          "type": "uint256"
        },
        {
          "indexed": true,
          "internalType": "contract IERC20",
          "name": "_auctioningToken",
          "type": "address"
        },
        {
          "indexed": true,
          "internalType": "contract IERC20",
          "name": "_biddingToken",
          "type": "address"
        },
        {
          "indexed": false,
          "internalType": "uint256",
          "name": "orderCancellationEndDate",
          "type": "uint256"
        },
        {
          "indexed": false,
          "internalType": "uint256",
          "name": "auctionEndDate",
          "type": "uint256"
        },
        {
          "indexed": false,
          "internalType": "uint64",
          "name": "userId",
          "type": "uint64"
        },
        {
          "indexed": false,
          "internalType": "uint96",
          "name": "_auctionedSellAmount",
          "type": "uint96"
        },
        {
          "indexed": false,
          "internalType": "uint96",
          "name": "_minBuyAmount",
          "type": "uint96"
        },
        {
          "indexed": false,
          "internalType": "uint256",
          "name": "minimumBiddingAmountPerOrder",
          "type": "uint256"
        },
        {
          "indexed": false,
          "internalType": "uint256",
          "name": "minFundingThreshold",
          "type": "uint256"
        },
        {
          "indexed": false,
          "internalType": "address",
          "name": "allowListContract",
          "type": "address"
        },
        {
          "indexed": false,
          "internalType": "bytes",
          "name": "allowListData",
          "type": "bytes"
        }
      ],
      "name": "NewAuction",
      "type": "event"
    },
    {
      "anonymous": false,
      "inputs": [
        {
          "indexed": true,
          "internalType": "uint256",
          "name": "auctionId",
          "type": "uint256"
        },
        {
          "indexed": true,
          "internalType": "uint64",
          "name": "userId",
          "type": "uint64"
        },
        {
          "indexed": false,
          "internalType": "uint96",
          "name": "buyAmount",
          "type": "uint96"
        },
        {
          "indexed": false,
          "internalType": "uint96",
          "name": "sellAmount",
          "type": "uint96"
        }
      ],
      "name": "NewSellOrder",
      "type": "event"
    },
    {
      "anonymous": false,
      "inputs": [
        {
          "indexed": true,
          "internalType": "uint64",
          "name": "userId",
          "type": "uint64"
        },
        {
          "indexed": true,
          "internalType": "address",
          "name": "userAddress",
          "type": "address"
        }
      ],
      "name": "NewUser",
      "type": "event"
    },
    {
      "anonymous": false,
      "inputs": [
        {
          "indexed": true,
          "internalType": "address",
          "name": "previousOwner",
          "type": "address"
        },
        {
          "indexed": true,
          "internalType": "address",
          "name": "newOwner",
          "type": "address"
        }
      ],
      "name": "OwnershipTransferred",
      "type": "event"
    },
    {
      "anonymous": false,
      "inputs": [
        {
          "indexed": true,
          "internalType": "address",
          "name": "user",
          "type": "address"
        },
        {
          "indexed": false,
          "internalType": "uint64",
          "name": "userId",
          "type": "uint64"
        }
      ],
      "name": "UserRegistration",
      "type": "event"
    },
    {
      "inputs": [],
      "name": "FEE_DENOMINATOR",
      "outputs": [
        {
          "internalType": "uint256",
          "name": "",
          "type": "uint256"
        }
      ],
      "stateMutability": "view",
      "type": "function"
    },
    {
      "inputs": [
        {
          "internalType": "uint256",
          "name": "",
          "type": "uint256"
        }
      ],
      "name": "auctionAccessData",
      "outputs": [
        {
          "internalType": "bytes",
          "name": "",
          "type": "bytes"
        }
      ],
      "stateMutability": "view",
      "type": "function"
    },
    {
      "inputs": [
        {
          "internalType": "uint256",
          "name": "",
          "type": "uint256"
        }
      ],
      "name": "auctionAccessManager",
      "outputs": [
        {
          "internalType": "address",
          "name": "",
          "type": "address"
        }
      ],
      "stateMutability": "view",
      "type": "function"
    },
    {
      "inputs": [],
      "name": "auctionCounter",
      "outputs": [
        {
          "internalType": "uint256",
          "name": "",
          "type": "uint256"
        }
      ],
      "stateMutability": "view",
      "type": "function"
    },
    {
      "inputs": [
        {
          "internalType": "uint256",
          "name": "",
          "type": "uint256"
        }
      ],
      "name": "auctionData",
      "outputs": [
        {
          "internalType": "contract IERC20",
          "name": "auctioningToken",
          "type": "address"
        },
        {
          "internalType": "contract IERC20",
          "name": "biddingToken",
          "type": "address"
        },
        {
          "internalType": "uint256",
          "name": "orderCancellationEndDate",
          "type": "uint256"
        },
        {
          "internalType": "uint256",
          "name": "auctionEndDate",
          "type": "uint256"
        },
        {
          "internalType": "bytes32",
          "name": "initialAuctionOrder",
          "type": "bytes32"
        },
        {
          "internalType": "uint256",
          "name": "minimumBiddingAmountPerOrder",
          "type": "uint256"
        },
        {
          "internalType": "uint256",
          "name": "interimSumBidAmount",
          "type": "uint256"
        },
        {
          "internalType": "bytes32",
          "name": "interimOrder",
          "type": "bytes32"
        },
        {
          "internalType": "bytes32",
          "name": "clearingPriceOrder",
          "type": "bytes32"
        },
        {
          "internalType": "uint96",
          "name": "volumeClearingPriceOrder",
          "type": "uint96"
        },
        {
          "internalType": "bool",
          "name": "minFundingThresholdNotReached",
          "type": "bool"
        },
        {
          "internalType": "bool",
          "name": "isAtomicClosureAllowed",
          "type": "bool"
        },
        {
          "internalType": "uint256",
          "name": "feeNumerator",
          "type": "uint256"
        },
        {
          "internalType": "uint256",
          "name": "minFundingThreshold",
          "type": "uint256"
        }
      ],
      "stateMutability": "view",
      "type": "function"
    },
    {
      "inputs": [
        {
          "internalType": "uint256",
          "name": "auctionId",
          "type": "uint256"
        },
        {
          "internalType": "bytes32[]",
          "name": "_sellOrders",
          "type": "bytes32[]"
        }
      ],
      "name": "cancelSellOrders",
      "outputs": [],
      "stateMutability": "nonpayable",
      "type": "function"
    },
    {
      "inputs": [
        {
          "internalType": "uint256",
          "name": "auctionId",
          "type": "uint256"
        },
        {
          "internalType": "bytes32[]",
          "name": "orders",
          "type": "bytes32[]"
        }
      ],
      "name": "claimFromParticipantOrder",
      "outputs": [
        {
          "internalType": "uint256",
          "name": "sumAuctioningTokenAmount",
          "type": "uint256"
        },
        {
          "internalType": "uint256",
          "name": "sumBiddingTokenAmount",
          "type": "uint256"
        }
      ],
      "stateMutability": "nonpayable",
      "type": "function"
    },
    {
      "inputs": [
        {
          "internalType": "uint256",
          "name": "auctionId",
          "type": "uint256"
        },
        {
          "internalType": "bytes32",
          "name": "order",
          "type": "bytes32"
        }
      ],
      "name": "containsOrder",
      "outputs": [
        {
          "internalType": "bool",
          "name": "",
          "type": "bool"
        }
      ],
      "stateMutability": "view",
      "type": "function"
    },
    {
      "inputs": [],
      "name": "feeNumerator",
      "outputs": [
        {
          "internalType": "uint256",
          "name": "",
          "type": "uint256"
        }
      ],
      "stateMutability": "view",
      "type": "function"
    },
    {
      "inputs": [],
      "name": "feeReceiverUserId",
      "outputs": [
        {
          "internalType": "uint64",
          "name": "",
          "type": "uint64"
        }
      ],
      "stateMutability": "view",
      "type": "function"
    },
    {
      "inputs": [
        {
          "internalType": "uint256",
          "name": "auctionId",
          "type": "uint256"
        }
      ],
      "name": "getSecondsRemainingInBatch",
      "outputs": [
        {
          "internalType": "uint256",
          "name": "",
          "type": "uint256"
        }
      ],
      "stateMutability": "view",
      "type": "function"
    },
    {
      "inputs": [
        {
          "internalType": "address",
          "name": "user",
          "type": "address"
        }
      ],
      "name": "getUserId",
      "outputs": [
        {
          "internalType": "uint64",
          "name": "userId",
          "type": "uint64"
        }
      ],
      "stateMutability": "nonpayable",
      "type": "function"
    },
    {
      "inputs": [
        {
          "internalType": "contract IERC20",
          "name": "_auctioningToken",
          "type": "address"
        },
        {
          "internalType": "contract IERC20",
          "name": "_biddingToken",
          "type": "address"
        },
        {
          "internalType": "uint256",
          "name": "orderCancellationEndDate",
          "type": "uint256"
        },
        {
          "internalType": "uint256",
          "name": "auctionEndDate",
          "type": "uint256"
        },
        {
          "internalType": "uint96",
          "name": "_auctionedSellAmount",
          "type": "uint96"
        },
        {
          "internalType": "uint96",
          "name": "_minBuyAmount",
          "type": "uint96"
        },
        {
          "internalType": "uint256",
          "name": "minimumBiddingAmountPerOrder",
          "type": "uint256"
        },
        {
          "internalType": "uint256",
          "name": "minFundingThreshold",
          "type": "uint256"
        },
        {
          "internalType": "bool",
          "name": "isAtomicClosureAllowed",
          "type": "bool"
        },
        {
          "internalType": "address",
          "name": "accessManagerContract",
          "type": "address"
        },
        {
          "internalType": "bytes",
          "name": "accessManagerContractData",
          "type": "bytes"
        }
      ],
      "name": "initiateAuction",
      "outputs": [
        {
          "internalType": "uint256",
          "name": "",
          "type": "uint256"
        }
      ],
      "stateMutability": "nonpayable",
      "type": "function"
    },
    {
      "inputs": [],
      "name": "numUsers",
      "outputs": [
        {
          "internalType": "uint64",
          "name": "",
          "type": "uint64"
        }
      ],
      "stateMutability": "view",
      "type": "function"
    },
    {
      "inputs": [],
      "name": "owner",
      "outputs": [
        {
          "internalType": "address",
          "name": "",
          "type": "address"
        }
      ],
      "stateMutability": "view",
      "type": "function"
    },
    {
      "inputs": [
        {
          "internalType": "uint256",
          "name": "auctionId",
          "type": "uint256"
        },
        {
          "internalType": "uint96[]",
          "name": "_minBuyAmounts",
          "type": "uint96[]"
        },
        {
          "internalType": "uint96[]",
          "name": "_sellAmounts",
          "type": "uint96[]"
        },
        {
          "internalType": "bytes32[]",
          "name": "_prevSellOrders",
          "type": "bytes32[]"
        },
        {
          "internalType": "bytes",
          "name": "allowListCallData",
          "type": "bytes"
        }
      ],
      "name": "placeSellOrders",
      "outputs": [
        {
          "internalType": "uint64",
          "name": "userId",
          "type": "uint64"
        }
      ],
      "stateMutability": "nonpayable",
      "type": "function"
    },
    {
      "inputs": [
        {
          "internalType": "uint256",
          "name": "auctionId",
          "type": "uint256"
        },
        {
          "internalType": "uint96[]",
          "name": "_minBuyAmounts",
          "type": "uint96[]"
        },
        {
          "internalType": "uint96[]",
          "name": "_sellAmounts",
          "type": "uint96[]"
        },
        {
          "internalType": "bytes32[]",
          "name": "_prevSellOrders",
          "type": "bytes32[]"
        },
        {
          "internalType": "bytes",
          "name": "allowListCallData",
          "type": "bytes"
        },
        {
          "internalType": "address",
          "name": "orderSubmitter",
          "type": "address"
        }
      ],
      "name": "placeSellOrdersOnBehalf",
      "outputs": [
        {
          "internalType": "uint64",
          "name": "userId",
          "type": "uint64"
        }
      ],
      "stateMutability": "nonpayable",
      "type": "function"
    },
    {
      "inputs": [
        {
          "internalType": "uint256",
          "name": "auctionId",
          "type": "uint256"
        },
        {
          "internalType": "uint256",
          "name": "iterationSteps",
          "type": "uint256"
        }
      ],
      "name": "precalculateSellAmountSum",
      "outputs": [],
      "stateMutability": "nonpayable",
      "type": "function"
    },
    {
      "inputs": [
        {
          "internalType": "address",
          "name": "user",
          "type": "address"
        }
      ],
      "name": "registerUser",
      "outputs": [
        {
          "internalType": "uint64",
          "name": "userId",
          "type": "uint64"
        }
      ],
      "stateMutability": "nonpayable",
      "type": "function"
    },
    {
      "inputs": [],
      "name": "renounceOwnership",
      "outputs": [],
      "stateMutability": "nonpayable",
      "type": "function"
    },
    {
      "inputs": [
        {
          "internalType": "uint256",
          "name": "newFeeNumerator",
          "type": "uint256"
        },
        {
          "internalType": "address",
          "name": "newfeeReceiverAddress",
          "type": "address"
        }
      ],
      "name": "setFeeParameters",
      "outputs": [],
      "stateMutability": "nonpayable",
      "type": "function"
    },
    {
      "inputs": [
        {
          "internalType": "address",
          "name": "subjectFactoryAddress",
          "type": "address"
        }
      ],
      "name": "setSubjectFactory",
      "outputs": [],
      "stateMutability": "nonpayable",
      "type": "function"
    },
    {
      "inputs": [
        {
          "internalType": "uint256",
          "name": "auctionId",
          "type": "uint256"
        }
      ],
      "name": "settleAuction",
      "outputs": [
        {
          "internalType": "bytes32",
          "name": "clearingOrder",
          "type": "bytes32"
        }
      ],
      "stateMutability": "nonpayable",
      "type": "function"
    },
    {
      "inputs": [
        {
          "internalType": "uint256",
          "name": "auctionId",
          "type": "uint256"
        },
        {
          "internalType": "uint96[]",
          "name": "_minBuyAmount",
          "type": "uint96[]"
        },
        {
          "internalType": "uint96[]",
          "name": "_sellAmount",
          "type": "uint96[]"
        },
        {
          "internalType": "bytes32[]",
          "name": "_prevSellOrder",
          "type": "bytes32[]"
        },
        {
          "internalType": "bytes",
          "name": "allowListCallData",
          "type": "bytes"
        }
      ],
      "name": "settleAuctionAtomically",
      "outputs": [],
      "stateMutability": "nonpayable",
      "type": "function"
    },
    {
      "inputs": [],
      "name": "subjectFactory",
      "outputs": [
        {
          "internalType": "address",
          "name": "",
          "type": "address"
        }
      ],
      "stateMutability": "view",
      "type": "function"
    },
    {
      "inputs": [
        {
          "internalType": "address",
          "name": "newOwner",
          "type": "address"
        }
      ],
      "name": "transferOwnership",
      "outputs": [],
      "stateMutability": "nonpayable",
      "type": "function"
    }
  ],
  "bytecode": "0x60806040526000600a556001600b60006101000a81548167ffffffffffffffff021916908367ffffffffffffffff1602179055503480156200004057600080fd5b50600062000053620000f760201b60201c565b9050806000806101000a81548173ffffffffffffffffffffffffffffffffffffffff021916908373ffffffffffffffffffffffffffffffffffffffff1602179055508073ffffffffffffffffffffffffffffffffffffffff16600073ffffffffffffffffffffffffffffffffffffffff167f8be0079c531659141344cd1fd0a4f28419497f9722a3daafe3b4186f6b6457e060405160405180910390a350620000ff565b600033905090565b615f9f806200010f6000396000f3fe608060405234801561001057600080fd5b506004361061018e5760003560e01c80637ed18b70116100de578063d73792a911610097578063e86dea4a11610071578063e86dea4a14610df3578063ec20d0bb14610e11578063f2fde38b1461108e578063f59c2f06146110d25761018e565b8063d73792a914610d49578063e4a59ef414610d67578063e7af32ba14610dbf5761018e565b80637ed18b701461075557806389359ea1146108175780638da5cb5b1461085b57806391cfc1d41461088f578063a7e7664414610ace578063d225269c14610aec5761018e565b80633e12905f1161014b5780635cefb291116101255780635cefb291146105f857806363c699a414610620578063715018a61461066e5780637882deaf146106785761018e565b80633e12905f1461049757806340b20b09146104cf57806355fc62d21461051d5761018e565b80630a4cd6c91461019357806315d37b4b1461032757806319a50f49146103695780632199d5cd146103915780632b956ff7146103f35780632e99361114610455575b600080fd5b61031160048036036101608110156101aa57600080fd5b81019080803573ffffffffffffffffffffffffffffffffffffffff169060200190929190803573ffffffffffffffffffffffffffffffffffffffff169060200190929190803590602001909291908035906020019092919080356bffffffffffffffffffffffff16906020019092919080356bffffffffffffffffffffffff1690602001909291908035906020019092919080359060200190929190803515159060200190929190803573ffffffffffffffffffffffffffffffffffffffff1690602001909291908035906020019064010000000081111561028b57600080fd5b82018360208201111561029d57600080fd5b803590602001918460018302840111640100000000831117156102bf57600080fd5b91908080601f016020809104026020016040519081016040528093929190818152602001838380828437600081840152601f19601f820116905080830192505050505050509192919290505050611179565b6040518082815260200191505060405180910390f35b6103536004803603602081101561033d57600080fd5b81019080803590602001909291905050506118de565b6040518082815260200191505060405180910390f35b610371611938565b604051808267ffffffffffffffff16815260200191505060405180910390f35b6103d3600480360360208110156103a757600080fd5b81019080803573ffffffffffffffffffffffffffffffffffffffff169060200190929190505050611952565b604051808267ffffffffffffffff16815260200191505060405180910390f35b6104356004803603602081101561040957600080fd5b81019080803573ffffffffffffffffffffffffffffffffffffffff169060200190929190505050611acc565b604051808267ffffffffffffffff16815260200191505060405180910390f35b6104816004803603602081101561046b57600080fd5b8101908080359060200190929190505050611b61565b6040518082815260200191505060405180910390f35b6104cd600480360360408110156104ad57600080fd5b8101908080359060200190929190803590602001909291905050506121e4565b005b61051b600480360360408110156104e557600080fd5b8101908080359060200190929190803573ffffffffffffffffffffffffffffffffffffffff169060200190929190505050612506565b005b6105496004803603602081101561053357600080fd5b8101908080359060200190929190505050612664565b604051808f73ffffffffffffffffffffffffffffffffffffffff1681526020018e73ffffffffffffffffffffffffffffffffffffffff1681526020018d81526020018c81526020018b81526020018a8152602001898152602001888152602001878152602001866bffffffffffffffffffffffff168152602001851515815260200184151581526020018381526020018281526020019e50505050505050505050505050505060405180910390f35b610600612742565b604051808267ffffffffffffffff16815260200191505060405180910390f35b6106566004803603604081101561063657600080fd5b81019080803590602001909291908035906020019092919050505061275c565b60405180821515815260200191505060405180910390f35b61067661278b565b005b6107386004803603604081101561068e57600080fd5b8101908080359060200190929190803590602001906401000000008111156106b557600080fd5b8201836020820111156106c757600080fd5b803590602001918460208302840111640100000000831117156106e957600080fd5b919080806020026020016040519081016040528093929190818152602001838360200280828437600081840152601f19601f820116905080830192505050505050509192919290505050612911565b604051808381526020018281526020019250505060405180910390f35b6108156004803603604081101561076b57600080fd5b81019080803590602001909291908035906020019064010000000081111561079257600080fd5b8201836020820111156107a457600080fd5b803590602001918460208302840111640100000000831117156107c657600080fd5b919080806020026020016040519081016040528093929190818152602001838360200280828437600081840152601f19601f820116905080830192505050505050509192919290505050612f5d565b005b6108596004803603602081101561082d57600080fd5b81019080803573ffffffffffffffffffffffffffffffffffffffff1690602001909291905050506131c0565b005b6108636132cc565b604051808273ffffffffffffffffffffffffffffffffffffffff16815260200191505060405180910390f35b610acc600480360360a08110156108a557600080fd5b8101908080359060200190929190803590602001906401000000008111156108cc57600080fd5b8201836020820111156108de57600080fd5b8035906020019184602083028401116401000000008311171561090057600080fd5b919080806020026020016040519081016040528093929190818152602001838360200280828437600081840152601f19601f8201169050808301925050505050505091929192908035906020019064010000000081111561096057600080fd5b82018360208201111561097257600080fd5b8035906020019184602083028401116401000000008311171561099457600080fd5b919080806020026020016040519081016040528093929190818152602001838360200280828437600081840152601f19601f820116905080830192505050505050509192919290803590602001906401000000008111156109f457600080fd5b820183602082011115610a0657600080fd5b80359060200191846020830284011164010000000083111715610a2857600080fd5b919080806020026020016040519081016040528093929190818152602001838360200280828437600081840152601f19601f82011690508083019250505050505050919291929080359060200190640100000000811115610a8857600080fd5b820183602082011115610a9a57600080fd5b80359060200191846001830284011164010000000083111715610abc57600080fd5b90919293919293905050506132f5565b005b610ad6613603565b6040518082815260200191505060405180910390f35b610d29600480360360a0811015610b0257600080fd5b810190808035906020019092919080359060200190640100000000811115610b2957600080fd5b820183602082011115610b3b57600080fd5b80359060200191846020830284011164010000000083111715610b5d57600080fd5b919080806020026020016040519081016040528093929190818152602001838360200280828437600081840152601f19601f82011690508083019250505050505050919291929080359060200190640100000000811115610bbd57600080fd5b820183602082011115610bcf57600080fd5b80359060200191846020830284011164010000000083111715610bf157600080fd5b919080806020026020016040519081016040528093929190818152602001838360200280828437600081840152601f19601f82011690508083019250505050505050919291929080359060200190640100000000811115610c5157600080fd5b820183602082011115610c6357600080fd5b80359060200191846020830284011164010000000083111715610c8557600080fd5b919080806020026020016040519081016040528093929190818152602001838360200280828437600081840152601f19601f82011690508083019250505050505050919291929080359060200190640100000000811115610ce557600080fd5b820183602082011115610cf757600080fd5b80359060200191846001830284011164010000000083111715610d1957600080fd5b9091929391929390505050613609565b604051808267ffffffffffffffff16815260200191505060405180910390f35b610d51613696565b6040518082815260200191505060405180910390f35b610d9360048036036020811015610d7d57600080fd5b810190808035906020019092919050505061369c565b604051808273ffffffffffffffffffffffffffffffffffffffff16815260200191505060405180910390f35b610dc76136cf565b604051808273ffffffffffffffffffffffffffffffffffffffff16815260200191505060405180910390f35b610dfb6136f5565b6040518082815260200191505060405180910390f35b61106e600480360360c0811015610e2757600080fd5b810190808035906020019092919080359060200190640100000000811115610e4e57600080fd5b820183602082011115610e6057600080fd5b80359060200191846020830284011164010000000083111715610e8257600080fd5b919080806020026020016040519081016040528093929190818152602001838360200280828437600081840152601f19601f82011690508083019250505050505050919291929080359060200190640100000000811115610ee257600080fd5b820183602082011115610ef457600080fd5b80359060200191846020830284011164010000000083111715610f1657600080fd5b919080806020026020016040519081016040528093929190818152602001838360200280828437600081840152601f19601f82011690508083019250505050505050919291929080359060200190640100000000811115610f7657600080fd5b820183602082011115610f8857600080fd5b80359060200191846020830284011164010000000083111715610faa57600080fd5b919080806020026020016040519081016040528093929190818152602001838360200280828437600081840152601f19601f8201169050808301925050505050505091929192908035906020019064010000000081111561100a57600080fd5b82018360208201111561101c57600080fd5b8035906020019184600183028401116401000000008311171561103e57600080fd5b9091929391929390803573ffffffffffffffffffffffffffffffffffffffff1690602001909291905050506136fb565b604051808267ffffffffffffffff16815260200191505060405180910390f35b6110d0600480360360208110156110a457600080fd5b81019080803573ffffffffffffffffffffffffffffffffffffffff169060200190929190505050613789565b005b6110fe600480360360208110156110e857600080fd5b8101908080359060200190929190505050613994565b6040518080602001828103825283818151815260200191508051906020019080838360005b8381101561113e578082015181840152602081019050611123565b50505050905090810190601f16801561116b5780820380516001836020036101000a031916815260200191505b509250505060405180910390f35b60003373ffffffffffffffffffffffffffffffffffffffff16600960009054906101000a900473ffffffffffffffffffffffffffffffffffffffff1673ffffffffffffffffffffffffffffffffffffffff1614611221576040517f08c379a0000000000000000000000000000000000000000000000000000000008152600401808060200182810382526029815260200180615ecc6029913960400191505060405180910390fd5b61129833306112716103e8611263611246600a546103e8613a4490919063ffffffff16565b8e6bffffffffffffffffffffffff16613acc90919063ffffffff16565b613b5290919063ffffffff16565b8f73ffffffffffffffffffffffffffffffffffffffff16613b9c909392919063ffffffff16565b6000886bffffffffffffffffffffffff161161131c576040517f08c379a000000000000000000000000000000000000000000000000000000000815260040180806020018281038252601a8152602001807f63616e6e6f742061756374696f6e207a65726f20746f6b656e7300000000000081525060200191505060405180910390fd5b6000876bffffffffffffffffffffffff1611611383576040517f08c379a0000000000000000000000000000000000000000000000000000000008152600401808060200182810382526023815260200180615c486023913960400191505060405180910390fd5b600086116113dc576040517f08c379a0000000000000000000000000000000000000000000000000000000008152600401808060200182810382526036815260200180615dae6036913960400191505060405180910390fd5b888a1115611435576040517f08c379a0000000000000000000000000000000000000000000000000000000008152600401808060200182810382526029815260200180615ef56029913960400191505060405180910390fd5b42891161148d576040517f08c379a0000000000000000000000000000000000000000000000000000000008152600401808060200182810382526026815260200180615d376026913960400191505060405180910390fd5b6114a36001600854613a4490919063ffffffff16565b6008819055506114c6600160006008548152602001908152602001600020613c5d565b60006114d133611acc565b9050604051806101c001604052808e73ffffffffffffffffffffffffffffffffffffffff1681526020018d73ffffffffffffffffffffffffffffffffffffffff1681526020018c81526020018b815260200161152e838b8d613ce2565b815260200188815260200160008152602001600160001b81526020016000801b815260200160006bffffffffffffffffffffffff1681526020016000151581526020018615158152602001600a5481526020018781525060026000600854815260200190815260200160002060008201518160000160006101000a81548173ffffffffffffffffffffffffffffffffffffffff021916908373ffffffffffffffffffffffffffffffffffffffff16021790555060208201518160010160006101000a81548173ffffffffffffffffffffffffffffffffffffffff021916908373ffffffffffffffffffffffffffffffffffffffff16021790555060408201518160020155606082015181600301556080820151816004015560a0820151816005015560c0820151816006015560e0820151816007015561010082015181600801556101208201518160090160006101000a8154816bffffffffffffffffffffffff02191690836bffffffffffffffffffffffff16021790555061014082015181600901600c6101000a81548160ff02191690831515021790555061016082015181600901600d6101000a81548160ff02191690831515021790555061018082015181600a01556101a082015181600b01559050508360036000600854815260200190815260200160002060006101000a81548173ffffffffffffffffffffffffffffffffffffffff021916908373ffffffffffffffffffffffffffffffffffffffff16021790555082600460006008548152602001908152602001600020908051906020019061177f9291906159e4565b508b73ffffffffffffffffffffffffffffffffffffffff168d73ffffffffffffffffffffffffffffffffffffffff166008547f728d0fed13687f1840de94f5ae640eae49b43eda26b7ffe97e55e79a0de6e40c8e8e868f8f8f8f8e8e604051808a81526020018981526020018867ffffffffffffffff168152602001876bffffffffffffffffffffffff168152602001866bffffffffffffffffffffffff1681526020018581526020018481526020018373ffffffffffffffffffffffffffffffffffffffff16815260200180602001828103825283818151815260200191508051906020019080838360005b8381101561188757808201518184015260208101905061186c565b50505050905090810190601f1680156118b45780820380516001836020036101000a031916815260200191505b509a505050505050505050505060405180910390a46008549150509b9a5050505050505050505050565b600042600260008481526020019081526020016000206003015410156119075760009050611933565b611930426002600085815260200190815260200160002060030154613d2390919063ffffffff16565b90505b919050565b600760009054906101000a900467ffffffffffffffff1681565b600061199061198b6001600760009054906101000a900467ffffffffffffffff1667ffffffffffffffff16613a4490919063ffffffff16565b613d6d565b600760006101000a81548167ffffffffffffffff021916908367ffffffffffffffff1602179055506119e4600760009054906101000a900467ffffffffffffffff16836005613dd89092919063ffffffff16565b611a56576040517f08c379a00000000000000000000000000000000000000000000000000000000081526004018080602001828103825260178152602001807f5573657220616c7265616479207265676973746572656400000000000000000081525060200191505060405180910390fd5b600760009054906101000a900467ffffffffffffffff1690508173ffffffffffffffffffffffffffffffffffffffff167f6838f67cb358c332087b73dbe769a6c869a5f87225236c16dda5d0013a77074c82604051808267ffffffffffffffff16815260200191505060405180910390a2919050565b6000611ae28260056140fe90919063ffffffff16565b15611b0257611afb82600561416b90919063ffffffff16565b9050611b5c565b611b0b82611952565b90508173ffffffffffffffffffffffffffffffffffffffff168167ffffffffffffffff167f969d438b19b6b5fb3c0d3c6f16867e519fcec4233799d6be29d1c00f2045ba2660405160405180910390a35b919050565b60008160006002600083815260200190815260200160002060030154905060008114158015611b905750804210155b8015611bb457506000801b6002600084815260200190815260200160002060080154145b611c09576040517f08c379a0000000000000000000000000000000000000000000000000000000008152600401808060200182810382526028815260200180615e4e6028913960400191505060405180910390fd5b503373ffffffffffffffffffffffffffffffffffffffff16600960009054906101000a900473ffffffffffffffffffffffffffffffffffffffff1673ffffffffffffffffffffffffffffffffffffffff161480611c9157503073ffffffffffffffffffffffffffffffffffffffff163373ffffffffffffffffffffffffffffffffffffffff16145b611ce6576040517f08c379a0000000000000000000000000000000000000000000000000000000008152600401808060200182810382526029815260200180615ecc6029913960400191505060405180910390fd5b6000806000611d0a600260008881526020019081526020016000206004015461424a565b92509250925060006002600088815260200190815260200160002060060154905060006002600089815260200190815260200160002060070154905060008060008590505b6000611d7685600160008f815260200190815260200160002061427090919063ffffffff16565b90507fffffffffffffffffffffffffffffffffffffffff00000000000000000000000160001b811415611da95750611e32565b809450611db58561424a565b909150816bffffffffffffffffffffffff169150806bffffffffffffffffffffffff1690508094508195505050611df58387613a4490919063ffffffff16565b955050611e1982876bffffffffffffffffffffffff16613acc90919063ffffffff16565b611e2c8487613acc90919063ffffffff16565b10611d4f575b600085118015611e745750611e5e82876bffffffffffffffffffffffff16613acc90919063ffffffff16565b611e718487613acc90919063ffffffff16565b10155b15611f7d576000611ec0611eb185611ea3868b6bffffffffffffffffffffffff16613acc90919063ffffffff16565b613b5290919063ffffffff16565b87613d2390919063ffffffff16565b9050808310611f4b576000611ede8285613d2390919063ffffffff16565b9050611ee98161436e565b600260008f815260200190815260200160002060090160006101000a8154816bffffffffffffffffffffffff02191690836bffffffffffffffffffffffff160217905550611f408288613d2390919063ffffffff16565b9650859b5050611f77565b611f5e8387613d2390919063ffffffff16565b9550611f74600088611f6f8961436e565b613ce2565b9a505b50612009565b866bffffffffffffffffffffffff16851115611fae57611fa7600087611fa28861436e565b613ce2565b9950612008565b611fba60008789613ce2565b9950612005612000886bffffffffffffffffffffffff16611ff2896bffffffffffffffffffffffff1689613acc90919063ffffffff16565b613b5290919063ffffffff16565b61436e565b90505b5b89600260008d81526020019081526020016000206008018190555084600260008d8152602001908152602001600020600b01541115612072576001600260008d8152602001908152602001600020600901600c6101000a81548160ff0219169083151502179055505b61208c8b826bffffffffffffffffffffffff168a896143dd565b8a7f4d160a2a345f2faeb9ac2e65272820b8ca5473b80aabef416bdf7e07ee7f591082878d60405180846bffffffffffffffffffffffff168152602001836bffffffffffffffffffffffff168152602001828152602001935050505060405180910390a26000600360008d815260200190815260200160002060006101000a81548173ffffffffffffffffffffffffffffffffffffffff021916908373ffffffffffffffffffffffffffffffffffffffff160217905550600460008c815260200190815260200160002060006121629190615a64565b6000801b600260008d8152602001908152602001600020600401819055506000801b600260008d8152602001908152602001600020600701819055506000600260008d8152602001908152602001600020600601819055506000600260008d815260200190815260200160002060050181905550505050505050505050919050565b81600060026000838152602001908152602001600020600301549050600081141580156122115750804210155b801561223557506000801b6002600084815260200190815260200160002060080154145b61228a576040517f08c379a0000000000000000000000000000000000000000000000000000000008152600401808060200182810382526028815260200180615e4e6028913960400191505060405180910390fd5b5060006122ac600260008681526020019081526020016000206004015461424a565b9250505060006002600086815260200190815260200160002060060154905060006002600087815260200190815260200160002060070154905060005b858110156123585761231682600160008a815260200190815260200160002061427090919063ffffffff16565b915060006123238361424a565b92505050612348816bffffffffffffffffffffffff1685613a4490919063ffffffff16565b93505080806001019150506122e9565b507fffffffffffffffffffffffffffffffffffffffff00000000000000000000000160001b8114156123f2576040517f08c379a00000000000000000000000000000000000000000000000000000000081526004018080602001828103825260198152602001807f7265616368656420656e64206f66206f72646572206c6973740000000000000081525060200191505060405180910390fd5b6000806123fe8361424a565b9250925050612432816bffffffffffffffffffffffff16866bffffffffffffffffffffffff16613acc90919063ffffffff16565b612453836bffffffffffffffffffffffff1686613acc90919063ffffffff16565b106124c6576040517f08c379a00000000000000000000000000000000000000000000000000000000081526004018080602001828103825260198152602001807f746f6f206d616e79206f72646572732073756d6d65642075700000000000000081525060200191505060405180910390fd5b83600260008a81526020019081526020016000206006018190555082600260008a8152602001908152602001600020600701819055505050505050505050565b61250e6145cf565b73ffffffffffffffffffffffffffffffffffffffff1660008054906101000a900473ffffffffffffffffffffffffffffffffffffffff1673ffffffffffffffffffffffffffffffffffffffff16146125ce576040517f08c379a00000000000000000000000000000000000000000000000000000000081526004018080602001828103825260208152602001807f4f776e61626c653a2063616c6c6572206973206e6f7420746865206f776e657281525060200191505060405180910390fd5b600f821115612628576040517f08c379a000000000000000000000000000000000000000000000000000000000815260040180806020018281038252602d815260200180615d0a602d913960400191505060405180910390fd5b61263181611acc565b600b60006101000a81548167ffffffffffffffff021916908367ffffffffffffffff16021790555081600a819055505050565b60026020528060005260406000206000915090508060000160009054906101000a900473ffffffffffffffffffffffffffffffffffffffff16908060010160009054906101000a900473ffffffffffffffffffffffffffffffffffffffff16908060020154908060030154908060040154908060050154908060060154908060070154908060080154908060090160009054906101000a90046bffffffffffffffffffffffff169080600901600c9054906101000a900460ff169080600901600d9054906101000a900460ff169080600a01549080600b015490508e565b600b60009054906101000a900467ffffffffffffffff1681565b600061278382600160008681526020019081526020016000206145d790919063ffffffff16565b905092915050565b6127936145cf565b73ffffffffffffffffffffffffffffffffffffffff1660008054906101000a900473ffffffffffffffffffffffffffffffffffffffff1673ffffffffffffffffffffffffffffffffffffffff1614612853576040517f08c379a00000000000000000000000000000000000000000000000000000000081526004018080602001828103825260208152602001807f4f776e61626c653a2063616c6c6572206973206e6f7420746865206f776e657281525060200191505060405180910390fd5b600073ffffffffffffffffffffffffffffffffffffffff1660008054906101000a900473ffffffffffffffffffffffffffffffffffffffff1673ffffffffffffffffffffffffffffffffffffffff167f8be0079c531659141344cd1fd0a4f28419497f9722a3daafe3b4186f6b6457e060405160405180910390a360008060006101000a81548173ffffffffffffffffffffffffffffffffffffffff021916908373ffffffffffffffffffffffffffffffffffffffff160217905550565b600080836000801b600260008381526020019081526020016000206008015414156129a4576040517f08c379a00000000000000000000000000000000000000000000000000000000081526004018080602001828103825260188152602001807f41756374696f6e206e6f74207965742066696e6973686564000000000000000081525060200191505060405180910390fd5b60005b8451811015612a67576129e88582815181106129bf57fe5b60200260200101516001600089815260200190815260200160002061461390919063ffffffff16565b612a5a576040517f08c379a000000000000000000000000000000000000000000000000000000000815260040180806020018281038252601c8152602001807f6f72646572206973206e6f206c6f6e67657220636c61696d61626c650000000081525060200191505060405180910390fd5b80806001019150506129a7565b50612a70615aac565b60026000878152602001908152602001600020604051806101c00160405290816000820160009054906101000a900473ffffffffffffffffffffffffffffffffffffffff1673ffffffffffffffffffffffffffffffffffffffff1673ffffffffffffffffffffffffffffffffffffffff1681526020016001820160009054906101000a900473ffffffffffffffffffffffffffffffffffffffff1673ffffffffffffffffffffffffffffffffffffffff1673ffffffffffffffffffffffffffffffffffffffff168152602001600282015481526020016003820154815260200160048201548152602001600582015481526020016006820154815260200160078201548152602001600882015481526020016009820160009054906101000a90046bffffffffffffffffffffffff166bffffffffffffffffffffffff166bffffffffffffffffffffffff16815260200160098201600c9054906101000a900460ff1615151515815260200160098201600d9054906101000a900460ff16151515158152602001600a8201548152602001600b820154815250509050600080612c1c83610100015161424a565b92509250506000612c4088600081518110612c3357fe5b602002602001015161424a565b505090506000600260008b8152602001908152602001600020600901600c9054906101000a900460ff16905060005b8951811015612f43576000806000612c998d8581518110612c8c57fe5b602002602001015161424a565b9250925092508567ffffffffffffffff168367ffffffffffffffff1614612d0b576040517f08c379a0000000000000000000000000000000000000000000000000000000008152600401808060200182810382526023815260200180615e2b6023913960400191505060405180910390fd5b8415612d3957612d32816bffffffffffffffffffffffff168c613a4490919063ffffffff16565b9a50612ecc565b8861010001518d8581518110612d4b57fe5b60200260200101511415612e0e57612dbf612db0886bffffffffffffffffffffffff16612da28b6bffffffffffffffffffffffff168d61012001516bffffffffffffffffffffffff16613acc90919063ffffffff16565b613b5290919063ffffffff16565b8d613a4490919063ffffffff16565b9b50612e07612df88a61012001516bffffffffffffffffffffffff16836bffffffffffffffffffffffff16613d2390919063ffffffff16565b8c613a4490919063ffffffff16565b9a50612ecb565b612e398961010001518e8681518110612e2357fe5b602002602001015161465090919063ffffffff16565b15612ea657612e9f612e90886bffffffffffffffffffffffff16612e828b6bffffffffffffffffffffffff16856bffffffffffffffffffffffff16613acc90919063ffffffff16565b613b5290919063ffffffff16565b8d613a4490919063ffffffff16565b9b50612eca565b612ec7816bffffffffffffffffffffffff168c613a4490919063ffffffff16565b9a505b5b5b8567ffffffffffffffff168e7f3f2c83616e48a2f8b3c9cc26499e2e5c61643714dac49027d82cf6732f96a91a848460405180836bffffffffffffffffffffffff168152602001826bffffffffffffffffffffffff1681526020019250505060405180910390a35050508080600101915050612c6f565b50612f508a89898561486e565b5050505050509250929050565b8160026000828152602001908152602001600020600201544210612fcc576040517f08c379a0000000000000000000000000000000000000000000000000000000008152600401808060200182810382526032815260200180615c6b6032913960400191505060405180910390fd5b6000612fd733611acc565b90506000805b8451811015613157576000613020868381518110612ff757fe5b6020026020010151600160008a815260200190815260200160002061496390919063ffffffff16565b9050801561314957600080600061304989868151811061303c57fe5b602002602001015161424a565b9250925092508667ffffffffffffffff168367ffffffffffffffff16146130bb576040517f08c379a0000000000000000000000000000000000000000000000000000000008152600401808060200182810382526023815260200180615bff6023913960400191505060405180910390fd5b6130dc816bffffffffffffffffffffffff1687613a4490919063ffffffff16565b95508667ffffffffffffffff168a7f7edae327fe79804b2f38bd490d874a0d188d3ae8911b303205abe47400086ac4848460405180836bffffffffffffffffffffffff168152602001826bffffffffffffffffffffffff1681526020019250505060405180910390a35050505b508080600101915050612fdd565b506131b933826002600089815260200190815260200160002060010160009054906101000a900473ffffffffffffffffffffffffffffffffffffffff1673ffffffffffffffffffffffffffffffffffffffff16614a0e9092919063ffffffff16565b5050505050565b6131c86145cf565b73ffffffffffffffffffffffffffffffffffffffff1660008054906101000a900473ffffffffffffffffffffffffffffffffffffffff1673ffffffffffffffffffffffffffffffffffffffff1614613288576040517f08c379a00000000000000000000000000000000000000000000000000000000081526004018080602001828103825260208152602001807f4f776e61626c653a2063616c6c6572206973206e6f7420746865206f776e657281525060200191505060405180910390fd5b80600960006101000a81548173ffffffffffffffffffffffffffffffffffffffff021916908373ffffffffffffffffffffffffffffffffffffffff16021790555050565b60008060009054906101000a900473ffffffffffffffffffffffffffffffffffffffff16905090565b85600060026000838152602001908152602001600020600301549050600081141580156133225750804210155b801561334657506000801b6002600084815260200190815260200160002060080154145b61339b576040517f08c379a0000000000000000000000000000000000000000000000000000000008152600401808060200182810382526028815260200180615e4e6028913960400191505060405180910390fd5b503373ffffffffffffffffffffffffffffffffffffffff16600960009054906101000a900473ffffffffffffffffffffffffffffffffffffffff1673ffffffffffffffffffffffffffffffffffffffff1614613442576040517f08c379a0000000000000000000000000000000000000000000000000000000008152600401808060200182810382526029815260200180615ecc6029913960400191505060405180910390fd5b60026000888152602001908152602001600020600901600d9054906101000a900460ff166134bb576040517f08c379a0000000000000000000000000000000000000000000000000000000008152600401808060200182810382526028815260200180615ba66028913960400191505060405180910390fd5b600186511480156134cd575060018551145b613522576040517f08c379a0000000000000000000000000000000000000000000000000000000008152600401808060200182810382526027815260200180615d5d6027913960400191505060405180910390fd5b600061352d33611acc565b905061358a613565828960008151811061354357fe5b60200260200101518960008151811061355857fe5b6020026020010151613ce2565b600260008b81526020019081526020016000206007015461465090919063ffffffff16565b6135df576040517f08c379a0000000000000000000000000000000000000000000000000000000008152600401808060200182810382526031815260200180615bce6031913960400191505060405180910390fd5b6135ee88888888888833614ab0565b506135f888611b61565b505050505050505050565b60085481565b6000866002600082815260200190815260200160002060030154421061367a576040517f08c379a0000000000000000000000000000000000000000000000000000000008152600401808060200182810382526022815260200180615f486022913960400191505060405180910390fd5b61368988888888888833614ab0565b9150509695505050505050565b6103e881565b60036020528060005260406000206000915054906101000a900473ffffffffffffffffffffffffffffffffffffffff1681565b600960009054906101000a900473ffffffffffffffffffffffffffffffffffffffff1681565b600a5481565b6000876002600082815260200190815260200160002060030154421061376c576040517f08c379a0000000000000000000000000000000000000000000000000000000008152600401808060200182810382526022815260200180615f486022913960400191505060405180910390fd5b61377b89898989898989614ab0565b915050979650505050505050565b6137916145cf565b73ffffffffffffffffffffffffffffffffffffffff1660008054906101000a900473ffffffffffffffffffffffffffffffffffffffff1673ffffffffffffffffffffffffffffffffffffffff1614613851576040517f08c379a00000000000000000000000000000000000000000000000000000000081526004018080602001828103825260208152602001807f4f776e61626c653a2063616c6c6572206973206e6f7420746865206f776e657281525060200191505060405180910390fd5b600073ffffffffffffffffffffffffffffffffffffffff168173ffffffffffffffffffffffffffffffffffffffff1614156138d7576040517f08c379a0000000000000000000000000000000000000000000000000000000008152600401808060200182810382526026815260200180615c226026913960400191505060405180910390fd5b8073ffffffffffffffffffffffffffffffffffffffff1660008054906101000a900473ffffffffffffffffffffffffffffffffffffffff1673ffffffffffffffffffffffffffffffffffffffff167f8be0079c531659141344cd1fd0a4f28419497f9722a3daafe3b4186f6b6457e060405160405180910390a3806000806101000a81548173ffffffffffffffffffffffffffffffffffffffff021916908373ffffffffffffffffffffffffffffffffffffffff16021790555050565b60046020528060005260406000206000915090508054600181600116156101000203166002900480601f016020809104026020016040519081016040528092919081815260200182805460018160011615610100020316600290048015613a3c5780601f10613a1157610100808354040283529160200191613a3c565b820191906000526020600020905b815481529060010190602001808311613a1f57829003601f168201915b505050505081565b600080828401905083811015613ac2576040517f08c379a000000000000000000000000000000000000000000000000000000000815260040180806020018281038252601b8152602001807f536166654d6174683a206164646974696f6e206f766572666c6f77000000000081525060200191505060405180910390fd5b8091505092915050565b600080831415613adf5760009050613b4c565b6000828402905082848281613af057fe5b0414613b47576040517f08c379a0000000000000000000000000000000000000000000000000000000008152600401808060200182810382526021815260200180615de46021913960400191505060405180910390fd5b809150505b92915050565b6000613b9483836040518060400160405280601a81526020017f536166654d6174683a206469766973696f6e206279207a65726f0000000000008152506150c8565b905092915050565b613c57846323b872dd60e01b858585604051602401808473ffffffffffffffffffffffffffffffffffffffff1681526020018373ffffffffffffffffffffffffffffffffffffffff1681526020018281526020019350505050604051602081830303815290604052907bffffffffffffffffffffffffffffffffffffffffffffffffffffffff19166020820180517bffffffffffffffffffffffffffffffffffffffffffffffffffffffff838183161783525050505061518e565b50505050565b7fffffffffffffffffffffffffffffffffffffffff00000000000000000000000160001b816000016000600160001b815260200190815260200160002081905550600160001b8160010160007fffffffffffffffffffffffffffffffffffffffff00000000000000000000000160001b81526020019081526020016000208190555050565b6000816bffffffffffffffffffffffff166060846bffffffffffffffffffffffff16901b60c08667ffffffffffffffff16901b010160001b90509392505050565b6000613d6583836040518060400160405280601e81526020017f536166654d6174683a207375627472616374696f6e206f766572666c6f77000081525061527d565b905092915050565b6000680100000000000000008210613dd0576040517f08c379a0000000000000000000000000000000000000000000000000000000008152600401808060200182810382526026815260200180615e056026913960400191505060405180910390fd5b819050919050565b60008073ffffffffffffffffffffffffffffffffffffffff168273ffffffffffffffffffffffffffffffffffffffff161415613e7c576040517f08c379a000000000000000000000000000000000000000000000000000000000815260040180806020018281038252601a8152602001807f43616e6e6f7420696e73657274207a65726f206164647265737300000000000081525060200191505060405180910390fd5b7fffffffffffffffffffffffffffffffffffffffffffffffffffffffffffffffff67ffffffffffffffff168367ffffffffffffffff161415613f26576040517f08c379a00000000000000000000000000000000000000000000000000000000081526004018080602001828103825260188152602001807f43616e6e6f7420696e73657274206d61782075696e743634000000000000000081525060200191505060405180910390fd5b60008460010160008473ffffffffffffffffffffffffffffffffffffffff1673ffffffffffffffffffffffffffffffffffffffff16815260200190815260200160002060009054906101000a900467ffffffffffffffff1667ffffffffffffffff1614158061400e5750600073ffffffffffffffffffffffffffffffffffffffff168460000160006001860167ffffffffffffffff1667ffffffffffffffff16815260200190815260200160002060009054906101000a900473ffffffffffffffffffffffffffffffffffffffff1673ffffffffffffffffffffffffffffffffffffffff1614155b1561401c57600090506140f7565b818460000160006001860167ffffffffffffffff1667ffffffffffffffff16815260200190815260200160002060006101000a81548173ffffffffffffffffffffffffffffffffffffffff021916908373ffffffffffffffffffffffffffffffffffffffff160217905550600183018460010160008473ffffffffffffffffffffffffffffffffffffffff1673ffffffffffffffffffffffffffffffffffffffff16815260200190815260200160002060006101000a81548167ffffffffffffffff021916908367ffffffffffffffff160217905550600190505b9392505050565b6000808360010160008473ffffffffffffffffffffffffffffffffffffffff1673ffffffffffffffffffffffffffffffffffffffff16815260200190815260200160002060009054906101000a900467ffffffffffffffff1667ffffffffffffffff161415905092915050565b600061417783836140fe565b6141e9576040517f08c379a000000000000000000000000000000000000000000000000000000000815260040180806020018281038252601b8152602001807f4d7573742068617665204164647265737320746f20676574204944000000000081525060200191505060405180910390fd5b60018360010160008473ffffffffffffffffffffffffffffffffffffffff1673ffffffffffffffffffffffffffffffffffffffff16815260200190815260200160002060009054906101000a900467ffffffffffffffff1603905092915050565b600080600060c08460001c901c925060608460001c901c91508360001c90509193909250565b60007fffffffffffffffffffffffffffffffffffffffff00000000000000000000000160001b8214156142ee576040517f08c379a0000000000000000000000000000000000000000000000000000000008152600401808060200182810382526022815260200180615cc26022913960400191505060405180910390fd5b60008360000160008481526020019081526020016000205490506000801b811415614364576040517f08c379a000000000000000000000000000000000000000000000000000000000815260040180806020018281038252602a815260200180615d84602a913960400191505060405180910390fd5b8091505092915050565b60006c0100000000000000000000000082106143d5576040517f08c379a0000000000000000000000000000000000000000000000000000000008152600401808060200182810382526026815260200180615b806026913960400191505060405180910390fd5b819050919050565b600061442a6103e861441c60026000898152602001908152602001600020600a0154856bffffffffffffffffffffffff16613acc90919063ffffffff16565b613b5290919063ffffffff16565b905060026000868152602001908152602001600020600901600c9054906101000a900460ff1615614487576144828561447a83856bffffffffffffffffffffffff16613a4490919063ffffffff16565b60008661486e565b6145c8565b6000806144a9600260008981526020019081526020016000206008015461424a565b925092505060006144d187866bffffffffffffffffffffffff16613d2390919063ffffffff16565b9050600061451a61450b876bffffffffffffffffffffffff166144fd8589613acc90919063ffffffff16565b613b5290919063ffffffff16565b83613a4490919063ffffffff16565b9050600061455f856bffffffffffffffffffffffff16614551866bffffffffffffffffffffffff168c613acc90919063ffffffff16565b613b5290919063ffffffff16565b905061456d8a83838b61486e565b6145c28a6145a4896bffffffffffffffffffffffff166145968d8b613acc90919063ffffffff16565b613b5290919063ffffffff16565b6000600b60009054906101000a900467ffffffffffffffff1661486e565b50505050505b5050505050565b600033905090565b6000600160001b8214156145ee576000905061460d565b6000801b83600001600084815260200190815260200160002054141590505b92915050565b6000806146208484614963565b90508015614646576000801b846001016000858152602001908152602001600020819055505b8091505092915050565b60008060008061465f8661424a565b92509250925060008060006146738861424a565b9250925092506146a8846bffffffffffffffffffffffff16836bffffffffffffffffffffffff16613acc90919063ffffffff16565b6146d7826bffffffffffffffffffffffff16876bffffffffffffffffffffffff16613acc90919063ffffffff16565b10156146ec5760019650505050505050614868565b61471b846bffffffffffffffffffffffff16836bffffffffffffffffffffffff16613acc90919063ffffffff16565b61474a826bffffffffffffffffffffffff16876bffffffffffffffffffffffff16613acc90919063ffffffff16565b111561475f5760009650505050505050614868565b816bffffffffffffffffffffffff16856bffffffffffffffffffffffff1610156147925760019650505050505050614868565b816bffffffffffffffffffffffff16856bffffffffffffffffffffffff1611156147c55760009650505050505050614868565b8267ffffffffffffffff168667ffffffffffffffff161415614832576040517f08c379a000000000000000000000000000000000000000000000000000000000815260040180806020018281038252602d815260200180615e76602d913960400191505060405180910390fd5b8267ffffffffffffffff168667ffffffffffffffff16101561485d5760019650505050505050614868565b600096505050505050505b92915050565b600061488482600561533d90919063ffffffff16565b905060008411156148f1576148f081856002600089815260200190815260200160002060000160009054906101000a900473ffffffffffffffffffffffffffffffffffffffff1673ffffffffffffffffffffffffffffffffffffffff16614a0e9092919063ffffffff16565b5b600083111561495c5761495b81846002600089815260200190815260200160002060010160009054906101000a900473ffffffffffffffffffffffffffffffffffffffff1673ffffffffffffffffffffffffffffffffffffffff16614a0e9092919063ffffffff16565b5b5050505050565b600061496f83836145d7565b61497c5760009050614a08565b60008360010160008481526020019081526020016000205490506000846000016000858152602001908152602001600020549050808560000160008481526020019081526020016000208190555081856001016000838152602001908152602001600020819055506000801b856000016000868152602001908152602001600020819055506001925050505b92915050565b614aab8363a9059cbb60e01b8484604051602401808373ffffffffffffffffffffffffffffffffffffffff16815260200182815260200192505050604051602081830303815290604052907bffffffffffffffffffffffffffffffffffffffffffffffffffffffff19166020820180517bffffffffffffffffffffffffffffffffffffffffffffffffffffffff838183161783525050505061518e565b505050565b600080600360008a815260200190815260200160002060009054906101000a900473ffffffffffffffffffffffffffffffffffffffff169050600073ffffffffffffffffffffffffffffffffffffffff168173ffffffffffffffffffffffffffffffffffffffff1614614cb5576319a05a7e60e01b7bffffffffffffffffffffffffffffffffffffffffffffffffffffffff19168173ffffffffffffffffffffffffffffffffffffffff166319a05a7e858c89896040518563ffffffff1660e01b8152600401808573ffffffffffffffffffffffffffffffffffffffff168152602001848152602001806020018281038252848482818152602001925080828437600081840152601f19601f8201169050808301925050509550505050505060206040518083038186803b158015614be757600080fd5b505afa158015614bfb573d6000803e3d6000fd5b505050506040513d6020811015614c1157600080fd5b81019080805190602001909291905050507bffffffffffffffffffffffffffffffffffffffffffffffffffffffff191614614cb4576040517f08c379a000000000000000000000000000000000000000000000000000000000815260040180806020018281038252601f8152602001807f75736572206e6f7420616c6c6f77656420746f20706c616365206f726465720081525060200191505060405180910390fd5b5b50600080614cd8600260008c81526020019081526020016000206004015461424a565b925092505060005b8951811015614dd057614d2b898281518110614cf857fe5b60200260200101516bffffffffffffffffffffffff16836bffffffffffffffffffffffff16613acc90919063ffffffff16565b614d6d846bffffffffffffffffffffffff168c8481518110614d4957fe5b60200260200101516bffffffffffffffffffffffff16613acc90919063ffffffff16565b10614dc3576040517f08c379a0000000000000000000000000000000000000000000000000000000008152600401808060200182810382526029815260200180615ea36029913960400191505060405180910390fd5b8080600101915050614ce0565b5050506000614dde83611acc565b91506000600260008b815260200190815260200160002060050154905060005b89518110156150575760008a8281518110614e1557fe5b60200260200101516bffffffffffffffffffffffff1611614e81576040517f08c379a0000000000000000000000000000000000000000000000000000000008152600401808060200182810382526025815260200180615c9d6025913960400191505060405180910390fd5b81898281518110614e8e57fe5b60200260200101516bffffffffffffffffffffffff1611614f17576040517f08c379a000000000000000000000000000000000000000000000000000000000815260040180806020018281038252600f8152602001807f6f7264657220746f6f20736d616c6c000000000000000000000000000000000081525060200191505060405180910390fd5b614f81614f4b858c8481518110614f2a57fe5b60200260200101518c8581518110614f3e57fe5b6020026020010151613ce2565b898381518110614f5757fe5b6020026020010151600160008f81526020019081526020016000206154109092919063ffffffff16565b1561504a57614fba898281518110614f9557fe5b60200260200101516bffffffffffffffffffffffff1684613a4490919063ffffffff16565b92508367ffffffffffffffff168b7f9304f2fc7ed6d42c0400e678dbc7283e1e9054889c3afea5f965adff66ef9eac8c8481518110614ff557fe5b60200260200101518c858151811061500957fe5b602002602001015160405180836bffffffffffffffffffffffff168152602001826bffffffffffffffffffffffff1681526020019250505060405180910390a35b8080600101915050614dfe565b506150bb333084600260008f815260200190815260200160002060010160009054906101000a900473ffffffffffffffffffffffffffffffffffffffff1673ffffffffffffffffffffffffffffffffffffffff16613b9c909392919063ffffffff16565b5050979650505050505050565b60008083118290615174576040517f08c379a00000000000000000000000000000000000000000000000000000000081526004018080602001828103825283818151815260200191508051906020019080838360005b8381101561513957808201518184015260208101905061511e565b50505050905090810190601f1680156151665780820380516001836020036101000a031916815260200191505b509250505060405180910390fd5b50600083858161518057fe5b049050809150509392505050565b60606151f0826040518060400160405280602081526020017f5361666545524332303a206c6f772d6c6576656c2063616c6c206661696c65648152508573ffffffffffffffffffffffffffffffffffffffff166156be9092919063ffffffff16565b90506000815111156152785780806020019051602081101561521157600080fd5b8101908080519060200190929190505050615277576040517f08c379a000000000000000000000000000000000000000000000000000000000815260040180806020018281038252602a815260200180615f1e602a913960400191505060405180910390fd5b5b505050565b600083831115829061532a576040517f08c379a00000000000000000000000000000000000000000000000000000000081526004018080602001828103825283818151815260200191508051906020019080838360005b838110156152ef5780820151818401526020810190506152d4565b50505050905090810190601f16801561531c5780820380516001836020036101000a031916815260200191505b509250505060405180910390fd5b5060008385039050809150509392505050565b600061534983836156d6565b6153bb576040517f08c379a000000000000000000000000000000000000000000000000000000000815260040180806020018281038252601b8152602001807f4d757374206861766520494420746f206765742041646472657373000000000081525060200191505060405180910390fd5b8260000160006001840167ffffffffffffffff1667ffffffffffffffff16815260200190815260200160002060009054906101000a900473ffffffffffffffffffffffffffffffffffffffff16905092915050565b60008061541c8461424a565b9250505060006bffffffffffffffffffffffff16816bffffffffffffffffffffffff1614156154b3576040517f08c379a000000000000000000000000000000000000000000000000000000000815260040180806020018281038252601f8152602001807f496e73657274696e67207a65726f206973206e6f7420737570706f727465640081525060200191505060405180910390fd5b600160001b84141580156154ea57507fffffffffffffffffffffffffffffffffffffffff00000000000000000000000160001b8414155b61555c576040517f08c379a000000000000000000000000000000000000000000000000000000000815260040180806020018281038252601e8152602001807f496e73657274696e6720656c656d656e74206973206e6f742076616c6964000081525060200191505060405180910390fd5b61556685856145d7565b156155755760009150506156b7565b600160001b83141580156155a057506000801b85600101600085815260200190815260200160002054145b156155af5760009150506156b7565b6155c2848461465090919063ffffffff16565b6155d05760009150506156b7565b5b6000801b85600001600085815260200190815260200160002054141561560e578460010160008481526020019081526020016000205492506155d1565b6000808490505b809150866000016000828152602001908152602001600020549050615643868261465090919063ffffffff16565b615615578587600001600084815260200190815260200160002081905550858760010160008381526020019081526020016000208190555081876001016000888152602001908152602001600020819055508087600001600088815260200190815260200160002081905550600193505050505b9392505050565b60606156cd848460008561575c565b90509392505050565b60008073ffffffffffffffffffffffffffffffffffffffff168360000160006001850167ffffffffffffffff1667ffffffffffffffff16815260200190815260200160002060009054906101000a900473ffffffffffffffffffffffffffffffffffffffff1673ffffffffffffffffffffffffffffffffffffffff161415905092915050565b6060824710156157b7576040517f08c379a0000000000000000000000000000000000000000000000000000000008152600401808060200182810382526026815260200180615ce46026913960400191505060405180910390fd5b6157c085615905565b615832576040517f08c379a000000000000000000000000000000000000000000000000000000000815260040180806020018281038252601d8152602001807f416464726573733a2063616c6c20746f206e6f6e2d636f6e747261637400000081525060200191505060405180910390fd5b600060608673ffffffffffffffffffffffffffffffffffffffff1685876040518082805190602001908083835b60208310615882578051825260208201915060208101905060208303925061585f565b6001836020036101000a03801982511681845116808217855250505050505090500191505060006040518083038185875af1925050503d80600081146158e4576040519150601f19603f3d011682016040523d82523d6000602084013e6158e9565b606091505b50915091506158f9828286615918565b92505050949350505050565b600080823b905060008111915050919050565b60608315615928578290506159dd565b60008351111561593b5782518084602001fd5b816040517f08c379a00000000000000000000000000000000000000000000000000000000081526004018080602001828103825283818151815260200191508051906020019080838360005b838110156159a2578082015181840152602081019050615987565b50505050905090810190601f1680156159cf5780820380516001836020036101000a031916815260200191505b509250505060405180910390fd5b9392505050565b828054600181600116156101000203166002900490600052602060002090601f016020900481019282601f10615a2557805160ff1916838001178555615a53565b82800160010185558215615a53579182015b82811115615a52578251825591602001919060010190615a37565b5b509050615a609190615b62565b5090565b50805460018160011615610100020316600290046000825580601f10615a8a5750615aa9565b601f016020900490600052602060002090810190615aa89190615b62565b5b50565b604051806101c00160405280600073ffffffffffffffffffffffffffffffffffffffff168152602001600073ffffffffffffffffffffffffffffffffffffffff1681526020016000815260200160008152602001600080191681526020016000815260200160008152602001600080191681526020016000801916815260200160006bffffffffffffffffffffffff16815260200160001515815260200160001515815260200160008152602001600081525090565b5b80821115615b7b576000816000905550600101615b63565b509056fe53616665436173743a2076616c756520646f65736e27742066697420696e20393620626974736e6f7420616c6c6f77656420746f20736574746c652061756374696f6e2061746f6d6963616c6c7970726563616c63756c61746553656c6c416d6f756e7453756d20697320616c726561647920746f6f20616476616e6365644f6e6c792074686520757365722063616e2063616e63656c20686973206f72646572734f776e61626c653a206e6577206f776e657220697320746865207a65726f2061646472657373746f6b656e732063616e6e6f742062652061756374696f6e656420666f7220667265656e6f206c6f6e67657220696e206f7264657220706c6163656d656e7420616e642063616e63656c6174696f6e2070686173655f6d696e427579416d6f756e7473206d7573742062652067726561746572207468616e2030547279696e6720746f20676574206e657874206f66206c61737420656c656d656e74416464726573733a20696e73756666696369656e742062616c616e636520666f722063616c6c466565206973206e6f7420616c6c6f77656420746f2062652073657420686967686572207468616e20312e352561756374696f6e20656e642064617465206d75737420626520696e20746865206675747572654f6e6c79206f6e65206f726465722063616e20626520706c616365642061746f6d6963616c6c79547279696e6720746f20676574206e657874206f66206e6f6e2d6578697374656e7420656c656d656e746d696e696d756d42696464696e67416d6f756e745065724f72646572206973206e6f7420616c6c6f77656420746f206265207a65726f536166654d6174683a206d756c7469706c69636174696f6e206f766572666c6f7753616665436173743a2076616c756520646f65736e27742066697420696e20363420626974736f6e6c7920616c6c6f77656420746f20636c61696d20666f722073616d65207573657241756374696f6e206e6f7420696e20736f6c7574696f6e207375626d697373696f6e20706861736575736572206973206e6f7420616c6c6f77656420746f20706c6163652073616d65206f726465722074776963656c696d6974207072696365206e6f7420626574746572207468616e206d696d696d616c206f6666657243616c6c6572206973206e6f7420746865207375626a65637420666163746f7279206164647265737374696d6520706572696f647320617265206e6f7420636f6e6669677572656420636f72726563746c795361666545524332303a204552433230206f7065726174696f6e20646964206e6f7420737563636565646e6f206c6f6e67657220696e206f7264657220706c6163656d656e74207068617365a264697066735822122093a9c18673becaf61fc44cb413348c23581285bc9a92af43ad4b349d97f0f31864736f6c634300060c0033",
  "linkReferences": {},
  "deployedLinkReferences": {}
}