{"contracts/test/IterableOrderedOrderSetWrapper.sol":{"IterableOrderedOrderSetWrapper":{"abi":[{"inputs":[{"internalType":"bytes32","name":"value","type":"bytes32"}],"name":"contains","outputs":[{"internalType":"bool","name":"","type":"bool"}],"stateMutability":"view","type":"function"},{"inputs":[{"internalType":"bytes32","name":"value","type":"bytes32"}],"name":"decodeOrder","outputs":[{"internalType":"uint64","name":"","type":"uint64"},{"internalType":"uint96","name":"","type":"uint96"},{"internalType":"uint96","name":"","type":"uint96"}],"stateMutability":"pure","type":"function"},{"inputs":[{"internalType":"uint64","name":"userId","type":"uint64"},{"internalType":"uint96","name":"sellAmount","type":"uint96"},{"internalType":"uint96","name":"buyAmount","type":"uint96"}],"name":"encodeOrder","outputs":[{"internalType":"bytes32","name":"","type":"bytes32"}],"stateMutability":"pure","type":"function"},{"inputs":[],"name":"first","outputs":[{"internalType":"bytes32","name":"","type":"bytes32"}],"stateMutability":"view","type":"function"},{"inputs":[],"name":"initializeEmptyList","outputs":[],"stateMutability":"nonpayable","type":"function"},{"inputs":[{"internalType":"bytes32","name":"value","type":"bytes32"}],"name":"insert","outputs":[{"internalType":"bool","name":"","type":"bool"}],"stateMutability":"nonpayable","type":"function"},{"inputs":[{"internalType":"bytes32","name":"value","type":"bytes32"},{"internalType":"bytes32","name":"at","type":"bytes32"}],"name":"insertAt","outputs":[{"internalType":"bool","name":"","type":"bool"}],"stateMutability":"nonpayable","type":"function"},{"inputs":[],"name":"isEmpty","outputs":[{"internalType":"bool","name":"","type":"bool"}],"stateMutability":"view","type":"function"},{"inputs":[{"internalType":"bytes32","name":"value","type":"bytes32"}],"name":"next","outputs":[{"internalType":"bytes32","name":"","type":"bytes32"}],"stateMutability":"view","type":"function"},{"inputs":[{"internalType":"bytes32","name":"value","type":"bytes32"}],"name":"nextMap","outputs":[{"internalType":"bytes32","name":"","type":"bytes32"}],"stateMutability":"view","type":"function"},{"inputs":[{"internalType":"bytes32","name":"value","type":"bytes32"}],"name":"prevMap","outputs":[{"internalType":"bytes32","name":"","type":"bytes32"}],"stateMutability":"view","type":"function"},{"inputs":[{"internalType":"bytes32","name":"value","type":"bytes32"}],"name":"remove","outputs":[{"internalType":"bool","name":"","type":"bool"}],"stateMutability":"nonpayable","type":"function"},{"inputs":[{"internalType":"bytes32","name":"value","type":"bytes32"}],"name":"removeKeepHistory","outputs":[{"internalType":"bool","name":"","type":"bool"}],"stateMutability":"nonpayable","type":"function"},{"inputs":[{"internalType":"bytes32","name":"orderLeft","type":"bytes32"},{"internalType":"bytes32","name":"orderRight","type":"bytes32"}],"name":"smallerThan","outputs":[{"internalType":"bool","name":"","type":"bool"}],"stateMutability":"pure","type":"function"}],"devdoc":{"kind":"dev","methods":{},"version":1},"evm":{"bytecode":{"linkReferences":{},"object":"608060405234801561001057600080fd5b5061101f806100206000396000f3fe608060405234801561001057600080fd5b50600436106100ea5760003560e01c8063681fe70c1161008c578063b077006611610066578063b077006614610395578063cfbbb9db146103d9578063de853c40146103e3578063e9f498dc14610459576100ea565b8063681fe70c146102b55780636d5349ea146102d557806395bc267314610351576100ea565b80631d1a696d116100c85780631d1a696d146101cd5780632d287e43146102115780632dd39d71146102555780633df4ddf414610297576100ea565b80630263eca8146100ef57806302d3af5b1461013d5780631787a5bf1461017f575b600080fd5b6101256004803603604081101561010557600080fd5b81019080803590602001909291908035906020019092919050505061049b565b60405180821515815260200191505060405180910390f35b6101696004803603602081101561015357600080fd5b81019080803590602001909291905050506104af565b6040518082815260200191505060405180910390f35b6101b56004803603604081101561019557600080fd5b8101908080359060200190929190803590602001909291905050506104cc565b60405180821515815260200191505060405180910390f35b6101f9600480360360208110156101e357600080fd5b81019080803590602001909291905050506104ec565b60405180821515815260200191505060405180910390f35b61023d6004803603602081101561022757600080fd5b8101908080359060200190929190505050610509565b60405180821515815260200191505060405180910390f35b6102816004803603602081101561026b57600080fd5b810190808035906020019092919050505061052c565b6040518082815260200191505060405180910390f35b61029f61054b565b6040518082815260200191505060405180910390f35b6102bd61055c565b60405180821515815260200191505060405180910390f35b61033b600480360360608110156102eb57600080fd5b81019080803567ffffffffffffffff16906020019092919080356bffffffffffffffffffffffff16906020019092919080356bffffffffffffffffffffffff16906020019092919050505061056d565b6040518082815260200191505060405180910390f35b61037d6004803603602081101561036757600080fd5b8101908080359060200190929190505050610583565b60405180821515815260200191505060405180910390f35b6103c1600480360360208110156103ab57600080fd5b81019080803590602001909291905050506105a0565b60405180821515815260200191505060405180910390f35b6103e16105bd565b005b61040f600480360360208110156103f957600080fd5b81019080803590602001909291905050506105c9565b604051808467ffffffffffffffff168152602001836bffffffffffffffffffffffff168152602001826bffffffffffffffffffffffff168152602001935050505060405180910390f35b6104856004803603602081101561046f57600080fd5b81019080803590602001909291905050506105e4565b6040518082815260200191505060405180910390f35b60006104a78383610603565b905092915050565b60006104c582600061082190919063ffffffff16565b9050919050565b60006104e48383600061091f9092919063ffffffff16565b905092915050565b6000610502826000610bcd90919063ffffffff16565b9050919050565b600061052582600160001b600061091f9092919063ffffffff16565b9050919050565b6000806000016000838152602001908152602001600020549050919050565b60006105576000610c09565b905090565b60006105686000610c8b565b905090565b600061057a848484610cd3565b90509392505050565b6000610599826000610d1490919063ffffffff16565b9050919050565b60006105b6826000610d5190919063ffffffff16565b9050919050565b6105c76000610dfc565b565b60008060006105d784610e81565b9250925092509193909250565b6000806001016000838152602001908152602001600020549050919050565b60008060008061061286610e81565b925092509250600080600061062688610e81565b92509250925061065b846bffffffffffffffffffffffff16836bffffffffffffffffffffffff16610ea790919063ffffffff16565b61068a826bffffffffffffffffffffffff16876bffffffffffffffffffffffff16610ea790919063ffffffff16565b101561069f576001965050505050505061081b565b6106ce846bffffffffffffffffffffffff16836bffffffffffffffffffffffff16610ea790919063ffffffff16565b6106fd826bffffffffffffffffffffffff16876bffffffffffffffffffffffff16610ea790919063ffffffff16565b1115610712576000965050505050505061081b565b816bffffffffffffffffffffffff16856bffffffffffffffffffffffff161015610745576001965050505050505061081b565b816bffffffffffffffffffffffff16856bffffffffffffffffffffffff161115610778576000965050505050505061081b565b8267ffffffffffffffff168667ffffffffffffffff1614156107e5576040517f08c379a000000000000000000000000000000000000000000000000000000000815260040180806020018281038252602d815260200180610fbd602d913960400191505060405180910390fd5b8267ffffffffffffffff168667ffffffffffffffff161015610810576001965050505050505061081b565b600096505050505050505b92915050565b60007fffffffffffffffffffffffffffffffffffffffff00000000000000000000000160001b82141561089f576040517f08c379a0000000000000000000000000000000000000000000000000000000008152600401808060200182810382526022815260200180610f506022913960400191505060405180910390fd5b60008360000160008481526020019081526020016000205490506000801b811415610915576040517f08c379a000000000000000000000000000000000000000000000000000000000815260040180806020018281038252602a815260200180610f72602a913960400191505060405180910390fd5b8091505092915050565b60008061092b84610e81565b9250505060006bffffffffffffffffffffffff16816bffffffffffffffffffffffff1614156109c2576040517f08c379a000000000000000000000000000000000000000000000000000000000815260040180806020018281038252601f8152602001807f496e73657274696e67207a65726f206973206e6f7420737570706f727465640081525060200191505060405180910390fd5b600160001b84141580156109f957507fffffffffffffffffffffffffffffffffffffffff00000000000000000000000160001b8414155b610a6b576040517f08c379a000000000000000000000000000000000000000000000000000000000815260040180806020018281038252601e8152602001807f496e73657274696e6720656c656d656e74206973206e6f742076616c6964000081525060200191505060405180910390fd5b610a758585610bcd565b15610a84576000915050610bc6565b600160001b8314158015610aaf57506000801b85600101600085815260200190815260200160002054145b15610abe576000915050610bc6565b610ad1848461060390919063ffffffff16565b610adf576000915050610bc6565b5b6000801b856000016000858152602001908152602001600020541415610b1d57846001016000848152602001908152602001600020549250610ae0565b6000808490505b809150866000016000828152602001908152602001600020549050610b52868261060390919063ffffffff16565b610b24578587600001600084815260200190815260200160002081905550858760010160008381526020019081526020016000208190555081876001016000888152602001908152602001600020819055508087600001600088815260200190815260200160002081905550600193505050505b9392505050565b6000600160001b821415610be45760009050610c03565b6000801b83600001600084815260200190815260200160002054141590505b92915050565b6000610c1482610c8b565b15610c6a576040517f08c379a0000000000000000000000000000000000000000000000000000000008152600401808060200182810382526022815260200180610f2e6022913960400191505060405180910390fd5b816000016000600160001b8152602001908152602001600020549050919050565b60007fffffffffffffffffffffffffffffffffffffffff00000000000000000000000160001b826000016000600160001b815260200190815260200160002054149050919050565b6000816bffffffffffffffffffffffff166060846bffffffffffffffffffffffff16901b60c08667ffffffffffffffff16901b010160001b90509392505050565b600080610d218484610d51565b90508015610d47576000801b846001016000858152602001908152602001600020819055505b8091505092915050565b6000610d5d8383610bcd565b610d6a5760009050610df6565b60008360010160008481526020019081526020016000205490506000846000016000858152602001908152602001600020549050808560000160008481526020019081526020016000208190555081856001016000838152602001908152602001600020819055506000801b856000016000868152602001908152602001600020819055506001925050505b92915050565b7fffffffffffffffffffffffffffffffffffffffff00000000000000000000000160001b816000016000600160001b815260200190815260200160002081905550600160001b8160010160007fffffffffffffffffffffffffffffffffffffffff00000000000000000000000160001b81526020019081526020016000208190555050565b600080600060c08460001c901c925060608460001c901c91508360001c90509193909250565b600080831415610eba5760009050610f27565b6000828402905082848281610ecb57fe5b0414610f22576040517f08c379a0000000000000000000000000000000000000000000000000000000008152600401808060200182810382526021815260200180610f9c6021913960400191505060405180910390fd5b809150505b9291505056fe547279696e6720746f206765742066697273742066726f6d20656d70747920736574547279696e6720746f20676574206e657874206f66206c61737420656c656d656e74547279696e6720746f20676574206e657874206f66206e6f6e2d6578697374656e7420656c656d656e74536166654d6174683a206d756c7469706c69636174696f6e206f766572666c6f7775736572206973206e6f7420616c6c6f77656420746f20706c6163652073616d65206f72646572207477696365a2646970667358221220bd49bcb8127496eefffb15d1e09058a27d9de90d0fbfb9ecfeb9c816a4c3681664736f6c634300060c0033","opcodes":"PUSH1 0x80 PUSH1 0x40 MSTORE CALLVALUE DUP1 ISZERO PUSH2 0x10 JUMPI PUSH1 0x0 DUP1 REVERT JUMPDEST POP PUSH2 0x101F DUP1 PUSH2 0x20 PUSH1 0x0 CODECOPY PUSH1 0x0 RETURN INVALID PUSH1 0x80 PUSH1 0x40 MSTORE CALLVALUE DUP1 ISZERO PUSH2 0x10 JUMPI PUSH1 0x0 DUP1 REVERT JUMPDEST POP PUSH1 0x4 CALLDATASIZE LT PUSH2 0xEA JUMPI PUSH1 0x0 CALLDATALOAD PUSH1 0xE0 SHR DUP1 PUSH4 0x681FE70C GT PUSH2 0x8C JUMPI DUP1 PUSH4 0xB0770066 GT PUSH2 0x66 JUMPI DUP1 PUSH4 0xB0770066 EQ PUSH2 0x395 JUMPI DUP1 PUSH4 0xCFBBB9DB EQ PUSH2 0x3D9 JUMPI DUP1 PUSH4 0xDE853C40 EQ PUSH2 0x3E3 JUMPI DUP1 PUSH4 0xE9F498DC EQ PUSH2 0x459 JUMPI PUSH2 0xEA JUMP JUMPDEST DUP1 PUSH4 0x681FE70C EQ PUSH2 0x2B5 JUMPI DUP1 PUSH4 0x6D5349EA EQ PUSH2 0x2D5 JUMPI DUP1 PUSH4 0x95BC2673 EQ PUSH2 0x351 JUMPI PUSH2 0xEA JUMP JUMPDEST DUP1 PUSH4 0x1D1A696D GT PUSH2 0xC8 JUMPI DUP1 PUSH4 0x1D1A696D EQ PUSH2 0x1CD JUMPI DUP1 PUSH4 0x2D287E43 EQ PUSH2 0x211 JUMPI DUP1 PUSH4 0x2DD39D71 EQ PUSH2 0x255 JUMPI DUP1 PUSH4 0x3DF4DDF4 EQ PUSH2 0x297 JUMPI PUSH2 0xEA JUMP JUMPDEST DUP1 PUSH4 0x263ECA8 EQ PUSH2 0xEF JUMPI DUP1 PUSH4 0x2D3AF5B EQ PUSH2 0x13D JUMPI DUP1 PUSH4 0x1787A5BF EQ PUSH2 0x17F JUMPI JUMPDEST PUSH1 0x0 DUP1 REVERT JUMPDEST PUSH2 0x125 PUSH1 0x4 DUP1 CALLDATASIZE SUB PUSH1 0x40 DUP2 LT ISZERO PUSH2 0x105 JUMPI PUSH1 0x0 DUP1 REVERT JUMPDEST DUP2 ADD SWAP1 DUP1 DUP1 CALLDATALOAD SWAP1 PUSH1 0x20 ADD SWAP1 SWAP3 SWAP2 SWAP1 DUP1 CALLDATALOAD SWAP1 PUSH1 0x20 ADD SWAP1 SWAP3 SWAP2 SWAP1 POP POP POP PUSH2 0x49B JUMP JUMPDEST PUSH1 0x40 MLOAD DUP1 DUP3 ISZERO ISZERO DUP2 MSTORE PUSH1 0x20 ADD SWAP2 POP POP PUSH1 0x40 MLOAD DUP1 SWAP2 SUB SWAP1 RETURN JUMPDEST PUSH2 0x169 PUSH1 0x4 DUP1 CALLDATASIZE SUB PUSH1 0x20 DUP2 LT ISZERO PUSH2 0x153 JUMPI PUSH1 0x0 DUP1 REVERT JUMPDEST DUP2 ADD SWAP1 DUP1 DUP1 CALLDATALOAD SWAP1 PUSH1 0x20 ADD SWAP1 SWAP3 SWAP2 SWAP1 POP POP POP PUSH2 0x4AF JUMP JUMPDEST PUSH1 0x40 MLOAD DUP1 DUP3 DUP2 MSTORE PUSH1 0x20 ADD SWAP2 POP POP PUSH1 0x40 MLOAD DUP1 SWAP2 SUB SWAP1 RETURN JUMPDEST PUSH2 0x1B5 PUSH1 0x4 DUP1 CALLDATASIZE SUB PUSH1 0x40 DUP2 LT ISZERO PUSH2 0x195 JUMPI PUSH1 0x0 DUP1 REVERT JUMPDEST DUP2 ADD SWAP1 DUP1 DUP1 CALLDATALOAD SWAP1 PUSH1 0x20 ADD SWAP1 SWAP3 SWAP2 SWAP1 DUP1 CALLDATALOAD SWAP1 PUSH1 0x20 ADD SWAP1 SWAP3 SWAP2 SWAP1 POP POP POP PUSH2 0x4CC JUMP JUMPDEST PUSH1 0x40 MLOAD DUP1 DUP3 ISZERO ISZERO DUP2 MSTORE PUSH1 0x20 ADD SWAP2 POP POP PUSH1 0x40 MLOAD DUP1 SWAP2 SUB SWAP1 RETURN JUMPDEST PUSH2 0x1F9 PUSH1 0x4 DUP1 CALLDATASIZE SUB PUSH1 0x20 DUP2 LT ISZERO PUSH2 0x1E3 JUMPI PUSH1 0x0 DUP1 REVERT JUMPDEST DUP2 ADD SWAP1 DUP1 DUP1 CALLDATALOAD SWAP1 PUSH1 0x20 ADD SWAP1 SWAP3 SWAP2 SWAP1 POP POP POP PUSH2 0x4EC JUMP JUMPDEST PUSH1 0x40 MLOAD DUP1 DUP3 ISZERO ISZERO DUP2 MSTORE PUSH1 0x20 ADD SWAP2 POP POP PUSH1 0x40 MLOAD DUP1 SWAP2 SUB SWAP1 RETURN JUMPDEST PUSH2 0x23D PUSH1 0x4 DUP1 CALLDATASIZE SUB PUSH1 0x20 DUP2 LT ISZERO PUSH2 0x227 JUMPI PUSH1 0x0 DUP1 REVERT JUMPDEST DUP2 ADD SWAP1 DUP1 DUP1 CALLDATALOAD SWAP1 PUSH1 0x20 ADD SWAP1 SWAP3 SWAP2 SWAP1 POP POP POP PUSH2 0x509 JUMP JUMPDEST PUSH1 0x40 MLOAD DUP1 DUP3 ISZERO ISZERO DUP2 MSTORE PUSH1 0x20 ADD SWAP2 POP POP PUSH1 0x40 MLOAD DUP1 SWAP2 SUB SWAP1 RETURN JUMPDEST PUSH2 0x281 PUSH1 0x4 DUP1 CALLDATASIZE SUB PUSH1 0x20 DUP2 LT ISZERO PUSH2 0x26B JUMPI PUSH1 0x0 DUP1 REVERT JUMPDEST DUP2 ADD SWAP1 DUP1 DUP1 CALLDATALOAD SWAP1 PUSH1 0x20 ADD SWAP1 SWAP3 SWAP2 SWAP1 POP POP POP PUSH2 0x52C JUMP JUMPDEST PUSH1 0x40 MLOAD DUP1 DUP3 DUP2 MSTORE PUSH1 0x20 ADD SWAP2 POP POP PUSH1 0x40 MLOAD DUP1 SWAP2 SUB SWAP1 RETURN JUMPDEST PUSH2 0x29F PUSH2 0x54B JUMP JUMPDEST PUSH1 0x40 MLOAD DUP1 DUP3 DUP2 MSTORE PUSH1 0x20 ADD SWAP2 POP POP PUSH1 0x40 MLOAD DUP1 SWAP2 SUB SWAP1 RETURN JUMPDEST PUSH2 0x2BD PUSH2 0x55C JUMP JUMPDEST PUSH1 0x40 MLOAD DUP1 DUP3 ISZERO ISZERO DUP2 MSTORE PUSH1 0x20 ADD SWAP2 POP POP PUSH1 0x40 MLOAD DUP1 SWAP2 SUB SWAP1 RETURN JUMPDEST PUSH2 0x33B PUSH1 0x4 DUP1 CALLDATASIZE SUB PUSH1 0x60 DUP2 LT ISZERO PUSH2 0x2EB JUMPI PUSH1 0x0 DUP1 REVERT JUMPDEST DUP2 ADD SWAP1 DUP1 DUP1 CALLDATALOAD PUSH8 0xFFFFFFFFFFFFFFFF AND SWAP1 PUSH1 0x20 ADD SWAP1 SWAP3 SWAP2 SWAP1 DUP1 CALLDATALOAD PUSH12 0xFFFFFFFFFFFFFFFFFFFFFFFF AND SWAP1 PUSH1 0x20 ADD SWAP1 SWAP3 SWAP2 SWAP1 DUP1 CALLDATALOAD PUSH12 0xFFFFFFFFFFFFFFFFFFFFFFFF AND SWAP1 PUSH1 0x20 ADD SWAP1 SWAP3 SWAP2 SWAP1 POP POP POP PUSH2 0x56D JUMP JUMPDEST PUSH1 0x40 MLOAD DUP1 DUP3 DUP2 MSTORE PUSH1 0x20 ADD SWAP2 POP POP PUSH1 0x40 MLOAD DUP1 SWAP2 SUB SWAP1 RETURN JUMPDEST PUSH2 0x37D PUSH1 0x4 DUP1 CALLDATASIZE SUB PUSH1 0x20 DUP2 LT ISZERO PUSH2 0x367 JUMPI PUSH1 0x0 DUP1 REVERT JUMPDEST DUP2 ADD SWAP1 DUP1 DUP1 CALLDATALOAD SWAP1 PUSH1 0x20 ADD SWAP1 SWAP3 SWAP2 SWAP1 POP POP POP PUSH2 0x583 JUMP JUMPDEST PUSH1 0x40 MLOAD DUP1 DUP3 ISZERO ISZERO DUP2 MSTORE PUSH1 0x20 ADD SWAP2 POP POP PUSH1 0x40 MLOAD DUP1 SWAP2 SUB SWAP1 RETURN JUMPDEST PUSH2 0x3C1 PUSH1 0x4 DUP1 CALLDATASIZE SUB PUSH1 0x20 DUP2 LT ISZERO PUSH2 0x3AB JUMPI PUSH1 0x0 DUP1 REVERT JUMPDEST DUP2 ADD SWAP1 DUP1 DUP1 CALLDATALOAD SWAP1 PUSH1 0x20 ADD SWAP1 SWAP3 SWAP2 SWAP1 POP POP POP PUSH2 0x5A0 JUMP JUMPDEST PUSH1 0x40 MLOAD DUP1 DUP3 ISZERO ISZERO DUP2 MSTORE PUSH1 0x20 ADD SWAP2 POP POP PUSH1 0x40 MLOAD DUP1 SWAP2 SUB SWAP1 RETURN JUMPDEST PUSH2 0x3E1 PUSH2 0x5BD JUMP JUMPDEST STOP JUMPDEST PUSH2 0x40F PUSH1 0x4 DUP1 CALLDATASIZE SUB PUSH1 0x20 DUP2 LT ISZERO PUSH2 0x3F9 JUMPI PUSH1 0x0 DUP1 REVERT JUMPDEST DUP2 ADD SWAP1 DUP1 DUP1 CALLDATALOAD SWAP1 PUSH1 0x20 ADD SWAP1 SWAP3 SWAP2 SWAP1 POP POP POP PUSH2 0x5C9 JUMP JUMPDEST PUSH1 0x40 MLOAD DUP1 DUP5 PUSH8 0xFFFFFFFFFFFFFFFF AND DUP2 MSTORE PUSH1 0x20 ADD DUP4 PUSH12 0xFFFFFFFFFFFFFFFFFFFFFFFF AND DUP2 MSTORE PUSH1 0x20 ADD DUP3 PUSH12 0xFFFFFFFFFFFFFFFFFFFFFFFF AND DUP2 MSTORE PUSH1 0x20 ADD SWAP4 POP POP POP POP PUSH1 0x40 MLOAD DUP1 SWAP2 SUB SWAP1 RETURN JUMPDEST PUSH2 0x485 PUSH1 0x4 DUP1 CALLDATASIZE SUB PUSH1 0x20 DUP2 LT ISZERO PUSH2 0x46F JUMPI PUSH1 0x0 DUP1 REVERT JUMPDEST DUP2 ADD SWAP1 DUP1 DUP1 CALLDATALOAD SWAP1 PUSH1 0x20 ADD SWAP1 SWAP3 SWAP2 SWAP1 POP POP POP PUSH2 0x5E4 JUMP JUMPDEST PUSH1 0x40 MLOAD DUP1 DUP3 DUP2 MSTORE PUSH1 0x20 ADD SWAP2 POP POP PUSH1 0x40 MLOAD DUP1 SWAP2 SUB SWAP1 RETURN JUMPDEST PUSH1 0x0 PUSH2 0x4A7 DUP4 DUP4 PUSH2 0x603 JUMP JUMPDEST SWAP1 POP SWAP3 SWAP2 POP POP JUMP JUMPDEST PUSH1 0x0 PUSH2 0x4C5 DUP3 PUSH1 0x0 PUSH2 0x821 SWAP1 SWAP2 SWAP1 PUSH4 0xFFFFFFFF AND JUMP JUMPDEST SWAP1 POP SWAP2 SWAP1 POP JUMP JUMPDEST PUSH1 0x0 PUSH2 0x4E4 DUP4 DUP4 PUSH1 0x0 PUSH2 0x91F SWAP1 SWAP3 SWAP2 SWAP1 PUSH4 0xFFFFFFFF AND JUMP JUMPDEST SWAP1 POP SWAP3 SWAP2 POP POP JUMP JUMPDEST PUSH1 0x0 PUSH2 0x502 DUP3 PUSH1 0x0 PUSH2 0xBCD SWAP1 SWAP2 SWAP1 PUSH4 0xFFFFFFFF AND JUMP JUMPDEST SWAP1 POP SWAP2 SWAP1 POP JUMP JUMPDEST PUSH1 0x0 PUSH2 0x525 DUP3 PUSH1 0x1 PUSH1 0x0 SHL PUSH1 0x0 PUSH2 0x91F SWAP1 SWAP3 SWAP2 SWAP1 PUSH4 0xFFFFFFFF AND JUMP JUMPDEST SWAP1 POP SWAP2 SWAP1 POP JUMP JUMPDEST PUSH1 0x0 DUP1 PUSH1 0x0 ADD PUSH1 0x0 DUP4 DUP2 MSTORE PUSH1 0x20 ADD SWAP1 DUP2 MSTORE PUSH1 0x20 ADD PUSH1 0x0 KECCAK256 SLOAD SWAP1 POP SWAP2 SWAP1 POP JUMP JUMPDEST PUSH1 0x0 PUSH2 0x557 PUSH1 0x0 PUSH2 0xC09 JUMP JUMPDEST SWAP1 POP SWAP1 JUMP JUMPDEST PUSH1 0x0 PUSH2 0x568 PUSH1 0x0 PUSH2 0xC8B JUMP JUMPDEST SWAP1 POP SWAP1 JUMP JUMPDEST PUSH1 0x0 PUSH2 0x57A DUP5 DUP5 DUP5 PUSH2 0xCD3 JUMP JUMPDEST SWAP1 POP SWAP4 SWAP3 POP POP POP JUMP JUMPDEST PUSH1 0x0 PUSH2 0x599 DUP3 PUSH1 0x0 PUSH2 0xD14 SWAP1 SWAP2 SWAP1 PUSH4 0xFFFFFFFF AND JUMP JUMPDEST SWAP1 POP SWAP2 SWAP1 POP JUMP JUMPDEST PUSH1 0x0 PUSH2 0x5B6 DUP3 PUSH1 0x0 PUSH2 0xD51 SWAP1 SWAP2 SWAP1 PUSH4 0xFFFFFFFF AND JUMP JUMPDEST SWAP1 POP SWAP2 SWAP1 POP JUMP JUMPDEST PUSH2 0x5C7 PUSH1 0x0 PUSH2 0xDFC JUMP JUMPDEST JUMP JUMPDEST PUSH1 0x0 DUP1 PUSH1 0x0 PUSH2 0x5D7 DUP5 PUSH2 0xE81 JUMP JUMPDEST SWAP3 POP SWAP3 POP SWAP3 POP SWAP2 SWAP4 SWAP1 SWAP3 POP JUMP JUMPDEST PUSH1 0x0 DUP1 PUSH1 0x1 ADD PUSH1 0x0 DUP4 DUP2 MSTORE PUSH1 0x20 ADD SWAP1 DUP2 MSTORE PUSH1 0x20 ADD PUSH1 0x0 KECCAK256 SLOAD SWAP1 POP SWAP2 SWAP1 POP JUMP JUMPDEST PUSH1 0x0 DUP1 PUSH1 0x0 DUP1 PUSH2 0x612 DUP7 PUSH2 0xE81 JUMP JUMPDEST SWAP3 POP SWAP3 POP SWAP3 POP PUSH1 0x0 DUP1 PUSH1 0x0 PUSH2 0x626 DUP9 PUSH2 0xE81 JUMP JUMPDEST SWAP3 POP SWAP3 POP SWAP3 POP PUSH2 0x65B DUP5 PUSH12 0xFFFFFFFFFFFFFFFFFFFFFFFF AND DUP4 PUSH12 0xFFFFFFFFFFFFFFFFFFFFFFFF AND PUSH2 0xEA7 SWAP1 SWAP2 SWAP1 PUSH4 0xFFFFFFFF AND JUMP JUMPDEST PUSH2 0x68A DUP3 PUSH12 0xFFFFFFFFFFFFFFFFFFFFFFFF AND DUP8 PUSH12 0xFFFFFFFFFFFFFFFFFFFFFFFF AND PUSH2 0xEA7 SWAP1 SWAP2 SWAP1 PUSH4 0xFFFFFFFF AND JUMP JUMPDEST LT ISZERO PUSH2 0x69F JUMPI PUSH1 0x1 SWAP7 POP POP POP POP POP POP POP PUSH2 0x81B JUMP JUMPDEST PUSH2 0x6CE DUP5 PUSH12 0xFFFFFFFFFFFFFFFFFFFFFFFF AND DUP4 PUSH12 0xFFFFFFFFFFFFFFFFFFFFFFFF AND PUSH2 0xEA7 SWAP1 SWAP2 SWAP1 PUSH4 0xFFFFFFFF AND JUMP JUMPDEST PUSH2 0x6FD DUP3 PUSH12 0xFFFFFFFFFFFFFFFFFFFFFFFF AND DUP8 PUSH12 0xFFFFFFFFFFFFFFFFFFFFFFFF AND PUSH2 0xEA7 SWAP1 SWAP2 SWAP1 PUSH4 0xFFFFFFFF AND JUMP JUMPDEST GT ISZERO PUSH2 0x712 JUMPI PUSH1 0x0 SWAP7 POP POP POP POP POP POP POP PUSH2 0x81B JUMP JUMPDEST DUP2 PUSH12 0xFFFFFFFFFFFFFFFFFFFFFFFF AND DUP6 PUSH12 0xFFFFFFFFFFFFFFFFFFFFFFFF AND LT ISZERO PUSH2 0x745 JUMPI PUSH1 0x1 SWAP7 POP POP POP POP POP POP POP PUSH2 0x81B JUMP JUMPDEST DUP2 PUSH12 0xFFFFFFFFFFFFFFFFFFFFFFFF AND DUP6 PUSH12 0xFFFFFFFFFFFFFFFFFFFFFFFF AND GT ISZERO PUSH2 0x778 JUMPI PUSH1 0x0 SWAP7 POP POP POP POP POP POP POP PUSH2 0x81B JUMP JUMPDEST DUP3 PUSH8 0xFFFFFFFFFFFFFFFF AND DUP7 PUSH8 0xFFFFFFFFFFFFFFFF AND EQ ISZERO PUSH2 0x7E5 JUMPI PUSH1 0x40 MLOAD PUSH32 0x8C379A000000000000000000000000000000000000000000000000000000000 DUP2 MSTORE PUSH1 0x4 ADD DUP1 DUP1 PUSH1 0x20 ADD DUP3 DUP2 SUB DUP3 MSTORE PUSH1 0x2D DUP2 MSTORE PUSH1 0x20 ADD DUP1 PUSH2 0xFBD PUSH1 0x2D SWAP2 CODECOPY PUSH1 0x40 ADD SWAP2 POP POP PUSH1 0x40 MLOAD DUP1 SWAP2 SUB SWAP1 REVERT JUMPDEST DUP3 PUSH8 0xFFFFFFFFFFFFFFFF AND DUP7 PUSH8 0xFFFFFFFFFFFFFFFF AND LT ISZERO PUSH2 0x810 JUMPI PUSH1 0x1 SWAP7 POP POP POP POP POP POP POP PUSH2 0x81B JUMP JUMPDEST PUSH1 0x0 SWAP7 POP POP POP POP POP POP POP JUMPDEST SWAP3 SWAP2 POP POP JUMP JUMPDEST PUSH1 0x0 PUSH32 0xFFFFFFFFFFFFFFFFFFFFFFFFFFFFFFFFFFFFFFFF000000000000000000000001 PUSH1 0x0 SHL DUP3 EQ ISZERO PUSH2 0x89F JUMPI PUSH1 0x40 MLOAD PUSH32 0x8C379A000000000000000000000000000000000000000000000000000000000 DUP2 MSTORE PUSH1 0x4 ADD DUP1 DUP1 PUSH1 0x20 ADD DUP3 DUP2 SUB DUP3 MSTORE PUSH1 0x22 DUP2 MSTORE PUSH1 0x20 ADD DUP1 PUSH2 0xF50 PUSH1 0x22 SWAP2 CODECOPY PUSH1 0x40 ADD SWAP2 POP POP PUSH1 0x40 MLOAD DUP1 SWAP2 SUB SWAP1 REVERT JUMPDEST PUSH1 0x0 DUP4 PUSH1 0x0 ADD PUSH1 0x0 DUP5 DUP2 MSTORE PUSH1 0x20 ADD SWAP1 DUP2 MSTORE PUSH1 0x20 ADD PUSH1 0x0 KECCAK256 SLOAD SWAP1 POP PUSH1 0x0 DUP1 SHL DUP2 EQ ISZERO PUSH2 0x915 JUMPI PUSH1 0x40 MLOAD PUSH32 0x8C379A000000000000000000000000000000000000000000000000000000000 DUP2 MSTORE PUSH1 0x4 ADD DUP1 DUP1 PUSH1 0x20 ADD DUP3 DUP2 SUB DUP3 MSTORE PUSH1 0x2A DUP2 MSTORE PUSH1 0x20 ADD DUP1 PUSH2 0xF72 PUSH1 0x2A SWAP2 CODECOPY PUSH1 0x40 ADD SWAP2 POP POP PUSH1 0x40 MLOAD DUP1 SWAP2 SUB SWAP1 REVERT JUMPDEST DUP1 SWAP2 POP POP SWAP3 SWAP2 POP POP JUMP JUMPDEST PUSH1 0x0 DUP1 PUSH2 0x92B DUP5 PUSH2 0xE81 JUMP JUMPDEST SWAP3 POP POP POP PUSH1 0x0 PUSH12 0xFFFFFFFFFFFFFFFFFFFFFFFF AND DUP2 PUSH12 0xFFFFFFFFFFFFFFFFFFFFFFFF AND EQ ISZERO PUSH2 0x9C2 JUMPI PUSH1 0x40 MLOAD PUSH32 0x8C379A000000000000000000000000000000000000000000000000000000000 DUP2 MSTORE PUSH1 0x4 ADD DUP1 DUP1 PUSH1 0x20 ADD DUP3 DUP2 SUB DUP3 MSTORE PUSH1 0x1F DUP2 MSTORE PUSH1 0x20 ADD DUP1 PUSH32 0x496E73657274696E67207A65726F206973206E6F7420737570706F7274656400 DUP2 MSTORE POP PUSH1 0x20 ADD SWAP2 POP POP PUSH1 0x40 MLOAD DUP1 SWAP2 SUB SWAP1 REVERT JUMPDEST PUSH1 0x1 PUSH1 0x0 SHL DUP5 EQ ISZERO DUP1 ISZERO PUSH2 0x9F9 JUMPI POP PUSH32 0xFFFFFFFFFFFFFFFFFFFFFFFFFFFFFFFFFFFFFFFF000000000000000000000001 PUSH1 0x0 SHL DUP5 EQ ISZERO JUMPDEST PUSH2 0xA6B JUMPI PUSH1 0x40 MLOAD PUSH32 0x8C379A000000000000000000000000000000000000000000000000000000000 DUP2 MSTORE PUSH1 0x4 ADD DUP1 DUP1 PUSH1 0x20 ADD DUP3 DUP2 SUB DUP3 MSTORE PUSH1 0x1E DUP2 MSTORE PUSH1 0x20 ADD DUP1 PUSH32 0x496E73657274696E6720656C656D656E74206973206E6F742076616C69640000 DUP2 MSTORE POP PUSH1 0x20 ADD SWAP2 POP POP PUSH1 0x40 MLOAD DUP1 SWAP2 SUB SWAP1 REVERT JUMPDEST PUSH2 0xA75 DUP6 DUP6 PUSH2 0xBCD JUMP JUMPDEST ISZERO PUSH2 0xA84 JUMPI PUSH1 0x0 SWAP2 POP POP PUSH2 0xBC6 JUMP JUMPDEST PUSH1 0x1 PUSH1 0x0 SHL DUP4 EQ ISZERO DUP1 ISZERO PUSH2 0xAAF JUMPI POP PUSH1 0x0 DUP1 SHL DUP6 PUSH1 0x1 ADD PUSH1 0x0 DUP6 DUP2 MSTORE PUSH1 0x20 ADD SWAP1 DUP2 MSTORE PUSH1 0x20 ADD PUSH1 0x0 KECCAK256 SLOAD EQ JUMPDEST ISZERO PUSH2 0xABE JUMPI PUSH1 0x0 SWAP2 POP POP PUSH2 0xBC6 JUMP JUMPDEST PUSH2 0xAD1 DUP5 DUP5 PUSH2 0x603 SWAP1 SWAP2 SWAP1 PUSH4 0xFFFFFFFF AND JUMP JUMPDEST PUSH2 0xADF JUMPI PUSH1 0x0 SWAP2 POP POP PUSH2 0xBC6 JUMP JUMPDEST JUMPDEST PUSH1 0x0 DUP1 SHL DUP6 PUSH1 0x0 ADD PUSH1 0x0 DUP6 DUP2 MSTORE PUSH1 0x20 ADD SWAP1 DUP2 MSTORE PUSH1 0x20 ADD PUSH1 0x0 KECCAK256 SLOAD EQ ISZERO PUSH2 0xB1D JUMPI DUP5 PUSH1 0x1 ADD PUSH1 0x0 DUP5 DUP2 MSTORE PUSH1 0x20 ADD SWAP1 DUP2 MSTORE PUSH1 0x20 ADD PUSH1 0x0 KECCAK256 SLOAD SWAP3 POP PUSH2 0xAE0 JUMP JUMPDEST PUSH1 0x0 DUP1 DUP5 SWAP1 POP JUMPDEST DUP1 SWAP2 POP DUP7 PUSH1 0x0 ADD PUSH1 0x0 DUP3 DUP2 MSTORE PUSH1 0x20 ADD SWAP1 DUP2 MSTORE PUSH1 0x20 ADD PUSH1 0x0 KECCAK256 SLOAD SWAP1 POP PUSH2 0xB52 DUP7 DUP3 PUSH2 0x603 SWAP1 SWAP2 SWAP1 PUSH4 0xFFFFFFFF AND JUMP JUMPDEST PUSH2 0xB24 JUMPI DUP6 DUP8 PUSH1 0x0 ADD PUSH1 0x0 DUP5 DUP2 MSTORE PUSH1 0x20 ADD SWAP1 DUP2 MSTORE PUSH1 0x20 ADD PUSH1 0x0 KECCAK256 DUP2 SWAP1 SSTORE POP DUP6 DUP8 PUSH1 0x1 ADD PUSH1 0x0 DUP4 DUP2 MSTORE PUSH1 0x20 ADD SWAP1 DUP2 MSTORE PUSH1 0x20 ADD PUSH1 0x0 KECCAK256 DUP2 SWAP1 SSTORE POP DUP2 DUP8 PUSH1 0x1 ADD PUSH1 0x0 DUP9 DUP2 MSTORE PUSH1 0x20 ADD SWAP1 DUP2 MSTORE PUSH1 0x20 ADD PUSH1 0x0 KECCAK256 DUP2 SWAP1 SSTORE POP DUP1 DUP8 PUSH1 0x0 ADD PUSH1 0x0 DUP9 DUP2 MSTORE PUSH1 0x20 ADD SWAP1 DUP2 MSTORE PUSH1 0x20 ADD PUSH1 0x0 KECCAK256 DUP2 SWAP1 SSTORE POP PUSH1 0x1 SWAP4 POP POP POP POP JUMPDEST SWAP4 SWAP3 POP POP POP JUMP JUMPDEST PUSH1 0x0 PUSH1 0x1 PUSH1 0x0 SHL DUP3 EQ ISZERO PUSH2 0xBE4 JUMPI PUSH1 0x0 SWAP1 POP PUSH2 0xC03 JUMP JUMPDEST PUSH1 0x0 DUP1 SHL DUP4 PUSH1 0x0 ADD PUSH1 0x0 DUP5 DUP2 MSTORE PUSH1 0x20 ADD SWAP1 DUP2 MSTORE PUSH1 0x20 ADD PUSH1 0x0 KECCAK256 SLOAD EQ ISZERO SWAP1 POP JUMPDEST SWAP3 SWAP2 POP POP JUMP JUMPDEST PUSH1 0x0 PUSH2 0xC14 DUP3 PUSH2 0xC8B JUMP JUMPDEST ISZERO PUSH2 0xC6A JUMPI PUSH1 0x40 MLOAD PUSH32 0x8C379A000000000000000000000000000000000000000000000000000000000 DUP2 MSTORE PUSH1 0x4 ADD DUP1 DUP1 PUSH1 0x20 ADD DUP3 DUP2 SUB DUP3 MSTORE PUSH1 0x22 DUP2 MSTORE PUSH1 0x20 ADD DUP1 PUSH2 0xF2E PUSH1 0x22 SWAP2 CODECOPY PUSH1 0x40 ADD SWAP2 POP POP PUSH1 0x40 MLOAD DUP1 SWAP2 SUB SWAP1 REVERT JUMPDEST DUP2 PUSH1 0x0 ADD PUSH1 0x0 PUSH1 0x1 PUSH1 0x0 SHL DUP2 MSTORE PUSH1 0x20 ADD SWAP1 DUP2 MSTORE PUSH1 0x20 ADD PUSH1 0x0 KECCAK256 SLOAD SWAP1 POP SWAP2 SWAP1 POP JUMP JUMPDEST PUSH1 0x0 PUSH32 0xFFFFFFFFFFFFFFFFFFFFFFFFFFFFFFFFFFFFFFFF000000000000000000000001 PUSH1 0x0 SHL DUP3 PUSH1 0x0 ADD PUSH1 0x0 PUSH1 0x1 PUSH1 0x0 SHL DUP2 MSTORE PUSH1 0x20 ADD SWAP1 DUP2 MSTORE PUSH1 0x20 ADD PUSH1 0x0 KECCAK256 SLOAD EQ SWAP1 POP SWAP2 SWAP1 POP JUMP JUMPDEST PUSH1 0x0 DUP2 PUSH12 0xFFFFFFFFFFFFFFFFFFFFFFFF AND PUSH1 0x60 DUP5 PUSH12 0xFFFFFFFFFFFFFFFFFFFFFFFF AND SWAP1 SHL PUSH1 0xC0 DUP7 PUSH8 0xFFFFFFFFFFFFFFFF AND SWAP1 SHL ADD ADD PUSH1 0x0 SHL SWAP1 POP SWAP4 SWAP3 POP POP POP JUMP JUMPDEST PUSH1 0x0 DUP1 PUSH2 0xD21 DUP5 DUP5 PUSH2 0xD51 JUMP JUMPDEST SWAP1 POP DUP1 ISZERO PUSH2 0xD47 JUMPI PUSH1 0x0 DUP1 SHL DUP5 PUSH1 0x1 ADD PUSH1 0x0 DUP6 DUP2 MSTORE PUSH1 0x20 ADD SWAP1 DUP2 MSTORE PUSH1 0x20 ADD PUSH1 0x0 KECCAK256 DUP2 SWAP1 SSTORE POP JUMPDEST DUP1 SWAP2 POP POP SWAP3 SWAP2 POP POP JUMP JUMPDEST PUSH1 0x0 PUSH2 0xD5D DUP4 DUP4 PUSH2 0xBCD JUMP JUMPDEST PUSH2 0xD6A JUMPI PUSH1 0x0 SWAP1 POP PUSH2 0xDF6 JUMP JUMPDEST PUSH1 0x0 DUP4 PUSH1 0x1 ADD PUSH1 0x0 DUP5 DUP2 MSTORE PUSH1 0x20 ADD SWAP1 DUP2 MSTORE PUSH1 0x20 ADD PUSH1 0x0 KECCAK256 SLOAD SWAP1 POP PUSH1 0x0 DUP5 PUSH1 0x0 ADD PUSH1 0x0 DUP6 DUP2 MSTORE PUSH1 0x20 ADD SWAP1 DUP2 MSTORE PUSH1 0x20 ADD PUSH1 0x0 KECCAK256 SLOAD SWAP1 POP DUP1 DUP6 PUSH1 0x0 ADD PUSH1 0x0 DUP5 DUP2 MSTORE PUSH1 0x20 ADD SWAP1 DUP2 MSTORE PUSH1 0x20 ADD PUSH1 0x0 KECCAK256 DUP2 SWAP1 SSTORE POP DUP2 DUP6 PUSH1 0x1 ADD PUSH1 0x0 DUP4 DUP2 MSTORE PUSH1 0x20 ADD SWAP1 DUP2 MSTORE PUSH1 0x20 ADD PUSH1 0x0 KECCAK256 DUP2 SWAP1 SSTORE POP PUSH1 0x0 DUP1 SHL DUP6 PUSH1 0x0 ADD PUSH1 0x0 DUP7 DUP2 MSTORE PUSH1 0x20 ADD SWAP1 DUP2 MSTORE PUSH1 0x20 ADD PUSH1 0x0 KECCAK256 DUP2 SWAP1 SSTORE POP PUSH1 0x1 SWAP3 POP POP POP JUMPDEST SWAP3 SWAP2 POP POP JUMP JUMPDEST PUSH32 0xFFFFFFFFFFFFFFFFFFFFFFFFFFFFFFFFFFFFFFFF000000000000000000000001 PUSH1 0x0 SHL DUP2 PUSH1 0x0 ADD PUSH1 0x0 PUSH1 0x1 PUSH1 0x0 SHL DUP2 MSTORE PUSH1 0x20 ADD SWAP1 DUP2 MSTORE PUSH1 0x20 ADD PUSH1 0x0 KECCAK256 DUP2 SWAP1 SSTORE POP PUSH1 0x1 PUSH1 0x0 SHL DUP2 PUSH1 0x1 ADD PUSH1 0x0 PUSH32 0xFFFFFFFFFFFFFFFFFFFFFFFFFFFFFFFFFFFFFFFF000000000000000000000001 PUSH1 0x0 SHL DUP2 MSTORE PUSH1 0x20 ADD SWAP1 DUP2 MSTORE PUSH1 0x20 ADD PUSH1 0x0 KECCAK256 DUP2 SWAP1 SSTORE POP POP JUMP JUMPDEST PUSH1 0x0 DUP1 PUSH1 0x0 PUSH1 0xC0 DUP5 PUSH1 0x0 SHR SWAP1 SHR SWAP3 POP PUSH1 0x60 DUP5 PUSH1 0x0 SHR SWAP1 SHR SWAP2 POP DUP4 PUSH1 0x0 SHR SWAP1 POP SWAP2 SWAP4 SWAP1 SWAP3 POP JUMP JUMPDEST PUSH1 0x0 DUP1 DUP4 EQ ISZERO PUSH2 0xEBA JUMPI PUSH1 0x0 SWAP1 POP PUSH2 0xF27 JUMP JUMPDEST PUSH1 0x0 DUP3 DUP5 MUL SWAP1 POP DUP3 DUP5 DUP3 DUP2 PUSH2 0xECB JUMPI INVALID JUMPDEST DIV EQ PUSH2 0xF22 JUMPI PUSH1 0x40 MLOAD PUSH32 0x8C379A000000000000000000000000000000000000000000000000000000000 DUP2 MSTORE PUSH1 0x4 ADD DUP1 DUP1 PUSH1 0x20 ADD DUP3 DUP2 SUB DUP3 MSTORE PUSH1 0x21 DUP2 MSTORE PUSH1 0x20 ADD DUP1 PUSH2 0xF9C PUSH1 0x21 SWAP2 CODECOPY PUSH1 0x40 ADD SWAP2 POP POP PUSH1 0x40 MLOAD DUP1 SWAP2 SUB SWAP1 REVERT JUMPDEST DUP1 SWAP2 POP POP JUMPDEST SWAP3 SWAP2 POP POP JUMP INVALID SLOAD PUSH19 0x79696E6720746F206765742066697273742066 PUSH19 0x6F6D20656D70747920736574547279696E6720 PUSH21 0x6F20676574206E657874206F66206C61737420656C PUSH6 0x6D656E745472 PUSH26 0x696E6720746F20676574206E657874206F66206E6F6E2D657869 PUSH20 0x74656E7420656C656D656E74536166654D617468 GASPRICE KECCAK256 PUSH14 0x756C7469706C69636174696F6E20 PUSH16 0x766572666C6F7775736572206973206E PUSH16 0x7420616C6C6F77656420746F20706C61 PUSH4 0x65207361 PUSH14 0x65206F72646572207477696365A2 PUSH5 0x6970667358 0x22 SLT KECCAK256 0xBD 0x49 0xBC 0xB8 SLT PUSH21 0x96EEFFFB15D1E09058A27D9DE90D0FBFB9ECFEB9C8 AND LOG4 0xC3 PUSH9 0x1664736F6C63430006 0xC STOP CALLER "},"gasEstimates":{"creation":{"codeDepositCost":"825400","executionCost":"857","totalCost":"826257"},"external":{"contains(bytes32)":"infinite","decodeOrder(bytes32)":"553","encodeOrder(uint64,uint96,uint96)":"528","first()":"infinite","initializeEmptyList()":"40437","insert(bytes32)":"infinite","insertAt(bytes32,bytes32)":"infinite","isEmpty()":"1187","next(bytes32)":"infinite","nextMap(bytes32)":"1251","prevMap(bytes32)":"1272","remove(bytes32)":"infinite","removeKeepHistory(bytes32)":"infinite","smallerThan(bytes32,bytes32)":"infinite"}},"methodIdentifiers":{"contains(bytes32)":"1d1a696d","decodeOrder(bytes32)":"de853c40","encodeOrder(uint64,uint96,uint96)":"6d5349ea","first()":"3df4ddf4","initializeEmptyList()":"cfbbb9db","insert(bytes32)":"2d287e43","insertAt(bytes32,bytes32)":"1787a5bf","isEmpty()":"681fe70c","next(bytes32)":"02d3af5b","nextMap(bytes32)":"2dd39d71","prevMap(bytes32)":"e9f498dc","remove(bytes32)":"95bc2673","removeKeepHistory(bytes32)":"b0770066","smallerThan(bytes32,bytes32)":"0263eca8"}},"storageLayout":{"storage":[{"astId":4654,"contract":"contracts/test/IterableOrderedOrderSetWrapper.sol:IterableOrderedOrderSetWrapper","label":"data","offset":0,"slot":"0","type":"t_struct(Data)4028_storage"}],"types":{"t_bytes32":{"encoding":"inplace","label":"bytes32","numberOfBytes":"32"},"t_mapping(t_bytes32,t_bytes32)":{"encoding":"mapping","key":"t_bytes32","label":"mapping(bytes32 => bytes32)","numberOfBytes":"32","value":"t_bytes32"},"t_struct(Data)4028_storage":{"encoding":"inplace","label":"struct IterableOrderedOrderSet.Data","members":[{"astId":4023,"contract":"contracts/test/IterableOrderedOrderSetWrapper.sol:IterableOrderedOrderSetWrapper","label":"nextMap","offset":0,"slot":"0","type":"t_mapping(t_bytes32,t_bytes32)"},{"astId":4027,"contract":"contracts/test/IterableOrderedOrderSetWrapper.sol:IterableOrderedOrderSetWrapper","label":"prevMap","offset":0,"slot":"1","type":"t_mapping(t_bytes32,t_bytes32)"}],"numberOfBytes":"64"}}},"userdoc":{"kind":"user","methods":{},"version":1}}}}