{
  "_format": "hh-sol-artifact-1",
  "contractName": "TokenManager",
  "sourceName": "contracts/TokenManager.sol",
  "abi": [
    {
      "inputs": [],
      "name": "AccessControlBadConfirmation",
      "type": "error"
    },
    {
      "inputs": [
        {
          "internalType": "address",
          "name": "account",
          "type": "address"
        },
        {
          "internalType": "bytes32",
          "name": "neededRole",
          "type": "bytes32"
        }
      ],
      "name": "AccessControlUnauthorizedAccount",
      "type": "error"
    },
    {
      "inputs": [
        {
          "internalType": "address",
          "name": "target",
          "type": "address"
        }
      ],
      "name": "AddressEmptyCode",
      "type": "error"
    },
    {
      "inputs": [
        {
          "internalType": "address",
          "name": "account",
          "type": "address"
        }
      ],
      "name": "AddressInsufficientBalance",
      "type": "error"
    },
    {
      "inputs": [],
      "name": "ERC1167FailedCreateClone",
      "type": "error"
    },
    {
      "inputs": [],
      "name": "EnforcedPause",
      "type": "error"
    },
    {
      "inputs": [],
      "name": "ExpectedPause",
      "type": "error"
    },
    {
      "inputs": [],
      "name": "FailedInnerCall",
      "type": "error"
    },
    {
      "inputs": [],
      "name": "InvalidInitialization",
      "type": "error"
    },
    {
      "inputs": [],
      "name": "NotInitializing",
      "type": "error"
    },
    {
      "inputs": [
        {
          "internalType": "address",
          "name": "token",
          "type": "address"
        }
      ],
      "name": "SafeERC20FailedOperation",
      "type": "error"
    },
    {
      "inputs": [],
      "name": "TokenManager_AddressAlreadyAdded",
      "type": "error"
    },
    {
      "inputs": [],
      "name": "TokenManager_AddressAlreadyRemoved",
      "type": "error"
    },
    {
      "inputs": [],
      "name": "TokenManager_InvalidAddress",
      "type": "error"
    },
    {
      "inputs": [],
      "name": "TokenManager_InvalidAmount",
      "type": "error"
    },
    {
      "inputs": [],
      "name": "TokenManager_InvalidOwner",
      "type": "error"
    },
    {
      "inputs": [],
      "name": "TokenManager_InvalidSubject",
      "type": "error"
    },
    {
      "inputs": [],
      "name": "TokenManager_InvalidSubjectImplementation",
      "type": "error"
    },
    {
      "inputs": [],
      "name": "TokenManager_SubjectExists",
      "type": "error"
    },
    {
      "inputs": [],
      "name": "TokenManager_TokenNotFound",
      "type": "error"
    },
    {
      "anonymous": false,
      "inputs": [
        {
          "indexed": false,
          "internalType": "uint64",
          "name": "version",
          "type": "uint64"
        }
      ],
      "name": "Initialized",
      "type": "event"
    },
    {
      "anonymous": false,
      "inputs": [
        {
          "indexed": false,
          "internalType": "address",
          "name": "account",
          "type": "address"
        }
      ],
      "name": "Paused",
      "type": "event"
    },
    {
      "anonymous": false,
      "inputs": [
        {
          "indexed": true,
          "internalType": "bytes32",
          "name": "role",
          "type": "bytes32"
        },
        {
          "indexed": true,
          "internalType": "bytes32",
          "name": "previousAdminRole",
          "type": "bytes32"
        },
        {
          "indexed": true,
          "internalType": "bytes32",
          "name": "newAdminRole",
          "type": "bytes32"
        }
      ],
      "name": "RoleAdminChanged",
      "type": "event"
    },
    {
      "anonymous": false,
      "inputs": [
        {
          "indexed": true,
          "internalType": "bytes32",
          "name": "role",
          "type": "bytes32"
        },
        {
          "indexed": true,
          "internalType": "address",
          "name": "account",
          "type": "address"
        },
        {
          "indexed": true,
          "internalType": "address",
          "name": "sender",
          "type": "address"
        }
      ],
      "name": "RoleGranted",
      "type": "event"
    },
    {
      "anonymous": false,
      "inputs": [
        {
          "indexed": true,
          "internalType": "bytes32",
          "name": "role",
          "type": "bytes32"
        },
        {
          "indexed": true,
          "internalType": "address",
          "name": "account",
          "type": "address"
        },
        {
          "indexed": true,
          "internalType": "address",
          "name": "sender",
          "type": "address"
        }
      ],
      "name": "RoleRevoked",
      "type": "event"
    },
    {
      "anonymous": false,
      "inputs": [
        {
          "indexed": true,
          "internalType": "address",
          "name": "_beneficiary",
          "type": "address"
        },
        {
          "indexed": true,
          "internalType": "address",
          "name": "_token",
          "type": "address"
        },
        {
          "indexed": false,
          "internalType": "uint256",
          "name": "_initialSupply",
          "type": "uint256"
        }
      ],
      "name": "TokenDeployed",
      "type": "event"
    },
    {
      "anonymous": false,
      "inputs": [
        {
          "indexed": true,
          "internalType": "address",
          "name": "_subject",
          "type": "address"
        },
        {
          "indexed": true,
          "internalType": "address",
          "name": "_token",
          "type": "address"
        },
        {
          "indexed": false,
          "internalType": "uint256",
          "name": "_amount",
          "type": "uint256"
        }
      ],
      "name": "TokenMinted",
      "type": "event"
    },
    {
      "anonymous": false,
      "inputs": [
        {
          "indexed": true,
          "internalType": "address",
          "name": "_wallet",
          "type": "address"
        },
        {
          "indexed": false,
          "internalType": "bool",
          "name": "allowed",
          "type": "bool"
        }
      ],
      "name": "TransferAllowListWalletAllowed",
      "type": "event"
    },
    {
      "anonymous": false,
      "inputs": [
        {
          "indexed": false,
          "internalType": "address",
          "name": "account",
          "type": "address"
        }
      ],
      "name": "Unpaused",
      "type": "event"
    },
    {
      "inputs": [],
      "name": "ALLOW_LIST_ROLE",
      "outputs": [
        {
          "internalType": "bytes32",
          "name": "",
          "type": "bytes32"
        }
      ],
      "stateMutability": "view",
      "type": "function"
    },
    {
      "inputs": [],
      "name": "CREATE_ROLE",
      "outputs": [
        {
          "internalType": "bytes32",
          "name": "",
          "type": "bytes32"
        }
      ],
      "stateMutability": "view",
      "type": "function"
    },
    {
      "inputs": [],
      "name": "DEFAULT_ADMIN_ROLE",
      "outputs": [
        {
          "internalType": "bytes32",
          "name": "",
          "type": "bytes32"
        }
      ],
      "stateMutability": "view",
      "type": "function"
    },
    {
      "inputs": [],
      "name": "MINT_ROLE",
      "outputs": [
        {
          "internalType": "bytes32",
          "name": "",
          "type": "bytes32"
        }
      ],
      "stateMutability": "view",
      "type": "function"
    },
    {
      "inputs": [],
      "name": "PAUSE_ROLE",
      "outputs": [
        {
          "internalType": "bytes32",
          "name": "",
          "type": "bytes32"
        }
      ],
      "stateMutability": "view",
      "type": "function"
    },
    {
      "inputs": [
        {
          "internalType": "address",
          "name": "_wallet",
          "type": "address"
        }
      ],
      "name": "addToTransferAllowList",
      "outputs": [],
      "stateMutability": "nonpayable",
      "type": "function"
    },
    {
      "inputs": [
        {
          "internalType": "address",
          "name": "_subject",
          "type": "address"
        },
        {
          "internalType": "string",
          "name": "_name",
          "type": "string"
        },
        {
          "internalType": "string",
          "name": "_symbol",
          "type": "string"
        },
        {
          "internalType": "uint256",
          "name": "_initialSupply",
          "type": "uint256"
        },
        {
          "internalType": "address",
          "name": "_moxiePassVerifier",
          "type": "address"
        }
      ],
      "name": "create",
      "outputs": [
        {
          "internalType": "address",
          "name": "token_",
          "type": "address"
        }
      ],
      "stateMutability": "nonpayable",
      "type": "function"
    },
    {
      "inputs": [
        {
          "internalType": "bytes32",
          "name": "role",
          "type": "bytes32"
        }
      ],
      "name": "getRoleAdmin",
      "outputs": [
        {
          "internalType": "bytes32",
          "name": "",
          "type": "bytes32"
        }
      ],
      "stateMutability": "view",
      "type": "function"
    },
    {
      "inputs": [
        {
          "internalType": "bytes32",
          "name": "role",
          "type": "bytes32"
        },
        {
          "internalType": "address",
          "name": "account",
          "type": "address"
        }
      ],
      "name": "grantRole",
      "outputs": [],
      "stateMutability": "nonpayable",
      "type": "function"
    },
    {
      "inputs": [
        {
          "internalType": "bytes32",
          "name": "role",
          "type": "bytes32"
        },
        {
          "internalType": "address",
          "name": "account",
          "type": "address"
        }
      ],
      "name": "hasRole",
      "outputs": [
        {
          "internalType": "bool",
          "name": "",
          "type": "bool"
        }
      ],
      "stateMutability": "view",
      "type": "function"
    },
    {
      "inputs": [
        {
          "internalType": "address",
          "name": "_admin",
          "type": "address"
        },
        {
          "internalType": "address",
          "name": "_subjectImplementation",
          "type": "address"
        }
      ],
      "name": "initialize",
      "outputs": [],
      "stateMutability": "nonpayable",
      "type": "function"
    },
    {
      "inputs": [
        {
          "internalType": "address",
          "name": "_wallet",
          "type": "address"
        }
      ],
      "name": "isWalletAllowedForTransfer",
      "outputs": [
        {
          "internalType": "bool",
          "name": "",
          "type": "bool"
        }
      ],
      "stateMutability": "view",
      "type": "function"
    },
    {
      "inputs": [
        {
          "internalType": "address",
          "name": "_subject",
          "type": "address"
        },
        {
          "internalType": "address",
          "name": "_beneficiary",
          "type": "address"
        },
        {
          "internalType": "uint256",
          "name": "_amount",
          "type": "uint256"
        }
      ],
      "name": "mint",
      "outputs": [
        {
          "internalType": "bool",
          "name": "",
          "type": "bool"
        }
      ],
      "stateMutability": "nonpayable",
      "type": "function"
    },
    {
      "inputs": [],
      "name": "pause",
      "outputs": [],
      "stateMutability": "nonpayable",
      "type": "function"
    },
    {
      "inputs": [],
      "name": "paused",
      "outputs": [
        {
          "internalType": "bool",
          "name": "",
          "type": "bool"
        }
      ],
      "stateMutability": "view",
      "type": "function"
    },
    {
      "inputs": [
        {
          "internalType": "address",
          "name": "_wallet",
          "type": "address"
        }
      ],
      "name": "removeFromTransferAllowList",
      "outputs": [],
      "stateMutability": "nonpayable",
      "type": "function"
    },
    {
      "inputs": [
        {
          "internalType": "bytes32",
          "name": "role",
          "type": "bytes32"
        },
        {
          "internalType": "address",
          "name": "callerConfirmation",
          "type": "address"
        }
      ],
      "name": "renounceRole",
      "outputs": [],
      "stateMutability": "nonpayable",
      "type": "function"
    },
    {
      "inputs": [
        {
          "internalType": "bytes32",
          "name": "role",
          "type": "bytes32"
        },
        {
          "internalType": "address",
          "name": "account",
          "type": "address"
        }
      ],
      "name": "revokeRole",
      "outputs": [],
      "stateMutability": "nonpayable",
      "type": "function"
    },
    {
      "inputs": [],
      "name": "subjectImplementation",
      "outputs": [
        {
          "internalType": "address",
          "name": "",
          "type": "address"
        }
      ],
      "stateMutability": "view",
      "type": "function"
    },
    {
      "inputs": [
        {
          "internalType": "bytes4",
          "name": "interfaceId",
          "type": "bytes4"
        }
      ],
      "name": "supportsInterface",
      "outputs": [
        {
          "internalType": "bool",
          "name": "",
          "type": "bool"
        }
      ],
      "stateMutability": "view",
      "type": "function"
    },
    {
      "inputs": [
        {
          "internalType": "address",
          "name": "subject",
          "type": "address"
        }
      ],
      "name": "tokens",
      "outputs": [
        {
          "internalType": "address",
          "name": "token",
          "type": "address"
        }
      ],
      "stateMutability": "view",
      "type": "function"
    },
    {
      "inputs": [],
      "name": "unpause",
      "outputs": [],
      "stateMutability": "nonpayable",
      "type": "function"
    }
  ],
  "bytecode": "0x608060405234801561001057600080fd5b506125e9806100206000396000f3fe608060405234801561001057600080fd5b50600436106101415760003560e01c8063485cc955116100b8578063a217fddf1161007c578063a217fddf1461034e578063c6c3bbe61461036c578063ca42eddc1461039c578063d547741f146103ba578063e4860339146103d6578063e9a9c8501461040657610141565b8063485cc955146102be5780635c975abb146102da5780638456cb59146102f85780638c4e8c4f1461030257806391d148541461031e57610141565b806316bc0cf01161010a57806316bc0cf0146101fe578063248a9ca31461022e5780632f2ff15d1461025e57806336568abe1461027a578063389ed267146102965780633f4ba83a146102b457610141565b80626f53c914610146578063012779201461016457806301ffc9a71461019457806302ee500e146101c45780631070b46c146101e2575b600080fd5b61014e610424565b60405161015b9190611d0e565b60405180910390f35b61017e60048036038101906101799190611d9b565b610448565b60405161018b9190611de3565b60405180910390f35b6101ae60048036038101906101a99190611e56565b61047f565b6040516101bb9190611de3565b60405180910390f35b6101cc6104f9565b6040516101d99190611e92565b60405180910390f35b6101fc60048036038101906101f79190611d9b565b61051d565b005b61021860048036038101906102139190612029565b61064a565b6040516102259190611e92565b60405180910390f35b61024860048036038101906102439190612108565b610986565b6040516102559190611d0e565b60405180910390f35b61027860048036038101906102739190612135565b6109b4565b005b610294600480360381019061028f9190612135565b6109d6565b005b61029e610a51565b6040516102ab9190611d0e565b60405180910390f35b6102bc610a75565b005b6102d860048036038101906102d39190612175565b610aaa565b005b6102e2610d5b565b6040516102ef9190611de3565b60405180910390f35b610300610d80565b005b61031c60048036038101906103179190611d9b565b610db5565b005b61033860048036038101906103339190612135565b610ee2565b6040516103459190611de3565b60405180910390f35b610356610f5b565b6040516103639190611d0e565b60405180910390f35b610386600480360381019061038191906121b5565b610f62565b6040516103939190611de3565b60405180910390f35b6103a4611114565b6040516103b19190611d0e565b60405180910390f35b6103d460048036038101906103cf9190612135565b611138565b005b6103f060048036038101906103eb9190611d9b565b61115a565b6040516103fd9190611e92565b60405180910390f35b61040e61118d565b60405161041b9190611d0e565b60405180910390f35b7f2ad5dda4abad2eba9015076cc6a1db468a91b444067d58b590c8c73985521a0481565b60008061045560016111b1565b03610463576001905061047a565b6104778260016111c690919063ffffffff16565b90505b919050565b60007f7965db0b000000000000000000000000000000000000000000000000000000007bffffffffffffffffffffffffffffffffffffffffffffffffffffffff1916827bffffffffffffffffffffffffffffffffffffffffffffffffffffffff191614806104f257506104f1826111f6565b5b9050919050565b60008054906101000a900473ffffffffffffffffffffffffffffffffffffffff1681565b7fe27a7ac86bc026ab9d6b20c2343f709afa69a18a49907d97c7871b513444598761054781611260565b600073ffffffffffffffffffffffffffffffffffffffff168273ffffffffffffffffffffffffffffffffffffffff16036105ad576040517f993d71cb00000000000000000000000000000000000000000000000000000000815260040160405180910390fd5b6105c182600161127490919063ffffffff16565b6105f7576040517fe6333f4600000000000000000000000000000000000000000000000000000000815260040160405180910390fd5b8173ffffffffffffffffffffffffffffffffffffffff167f31baa1d1f104cc6139baeae8185b254ec553ec4cf244fa4f2ed6eb5a97580907600060405161063e9190611de3565b60405180910390a25050565b60006106546112a4565b7f2ad5dda4abad2eba9015076cc6a1db468a91b444067d58b590c8c73985521a0461067e81611260565b600073ffffffffffffffffffffffffffffffffffffffff168773ffffffffffffffffffffffffffffffffffffffff16036106e4576040517f44ab44b300000000000000000000000000000000000000000000000000000000815260040160405180910390fd5b600073ffffffffffffffffffffffffffffffffffffffff16600360008973ffffffffffffffffffffffffffffffffffffffff1673ffffffffffffffffffffffffffffffffffffffff16815260200190815260200160002060009054906101000a900473ffffffffffffffffffffffffffffffffffffffff1673ffffffffffffffffffffffffffffffffffffffff16146107a9576040517fe5bcd15e00000000000000000000000000000000000000000000000000000000815260040160405180910390fd5b6107f960008054906101000a900473ffffffffffffffffffffffffffffffffffffffff16886040516020016107de9190612250565b604051602081830303815290604052805190602001206112e5565b915081600360008973ffffffffffffffffffffffffffffffffffffffff1673ffffffffffffffffffffffffffffffffffffffff16815260200190815260200160002060006101000a81548173ffffffffffffffffffffffffffffffffffffffff021916908373ffffffffffffffffffffffffffffffffffffffff1602179055508173ffffffffffffffffffffffffffffffffffffffff168773ffffffffffffffffffffffffffffffffffffffff167ff1d58912d8d6d39cd9fee0f074ee57836907d09dddb0ce7706b7c7a0ddc15d50866040516108d6919061227a565b60405180910390a38173ffffffffffffffffffffffffffffffffffffffff1663747b8a1c30888888886040518663ffffffff1660e01b815260040161091f959493929190612314565b600060405180830381600087803b15801561093957600080fd5b505af115801561094d573d6000803e3d6000fd5b5050505061097c33858473ffffffffffffffffffffffffffffffffffffffff166113989092919063ffffffff16565b5095945050505050565b600080610991611417565b905080600001600084815260200190815260200160002060010154915050919050565b6109bd82610986565b6109c681611260565b6109d0838361143f565b50505050565b6109de611540565b73ffffffffffffffffffffffffffffffffffffffff168173ffffffffffffffffffffffffffffffffffffffff1614610a42576040517f6697b23200000000000000000000000000000000000000000000000000000000815260040160405180910390fd5b610a4c8282611548565b505050565b7f139c2898040ef16910dc9f44dc697df79363da767d8bc92f2e310312b816e46d81565b7f139c2898040ef16910dc9f44dc697df79363da767d8bc92f2e310312b816e46d610a9f81611260565b610aa761164a565b50565b6000610ab46116bc565b905060008160000160089054906101000a900460ff1615905060008260000160009054906101000a900467ffffffffffffffff1690506000808267ffffffffffffffff16148015610b025750825b9050600060018367ffffffffffffffff16148015610b37575060003073ffffffffffffffffffffffffffffffffffffffff163b145b905081158015610b45575080155b15610b7c576040517ff92ee8a900000000000000000000000000000000000000000000000000000000815260040160405180910390fd5b60018560000160006101000a81548167ffffffffffffffff021916908367ffffffffffffffff1602179055508315610bcc5760018560000160086101000a81548160ff0219169083151502179055505b600073ffffffffffffffffffffffffffffffffffffffff168673ffffffffffffffffffffffffffffffffffffffff1603610c32576040517f7aee648800000000000000000000000000000000000000000000000000000000815260040160405180910390fd5b600073ffffffffffffffffffffffffffffffffffffffff168773ffffffffffffffffffffffffffffffffffffffff1603610c98576040517f6a1b1c8300000000000000000000000000000000000000000000000000000000815260040160405180910390fd5b610ca06116e4565b610ca86116ee565b610cb56000801b8861143f565b50856000806101000a81548173ffffffffffffffffffffffffffffffffffffffff021916908373ffffffffffffffffffffffffffffffffffffffff1602179055508315610d525760008560000160086101000a81548160ff0219169083151502179055507fc7f505b2f371ae2175ee4913f4499e1f2633a7b5936321eed1cdaeb6115181d26001604051610d4991906123ce565b60405180910390a15b50505050505050565b600080610d66611700565b90508060000160009054906101000a900460ff1691505090565b7f139c2898040ef16910dc9f44dc697df79363da767d8bc92f2e310312b816e46d610daa81611260565b610db2611728565b50565b7fe27a7ac86bc026ab9d6b20c2343f709afa69a18a49907d97c7871b5134445987610ddf81611260565b600073ffffffffffffffffffffffffffffffffffffffff168273ffffffffffffffffffffffffffffffffffffffff1603610e45576040517f993d71cb00000000000000000000000000000000000000000000000000000000815260040160405180910390fd5b610e5982600161179a90919063ffffffff16565b610e8f576040517fe6560bd000000000000000000000000000000000000000000000000000000000815260040160405180910390fd5b8173ffffffffffffffffffffffffffffffffffffffff167f31baa1d1f104cc6139baeae8185b254ec553ec4cf244fa4f2ed6eb5a975809076001604051610ed69190611de3565b60405180910390a25050565b600080610eed611417565b905080600001600085815260200190815260200160002060000160008473ffffffffffffffffffffffffffffffffffffffff1673ffffffffffffffffffffffffffffffffffffffff16815260200190815260200160002060009054906101000a900460ff1691505092915050565b6000801b81565b6000610f6c6112a4565b7f154c00819833dac601ee5ddded6fda79d9d8b506b911b3dbd54cdb95fe6c3686610f9681611260565b6000600360008773ffffffffffffffffffffffffffffffffffffffff1673ffffffffffffffffffffffffffffffffffffffff16815260200190815260200160002060009054906101000a900473ffffffffffffffffffffffffffffffffffffffff169050600073ffffffffffffffffffffffffffffffffffffffff168173ffffffffffffffffffffffffffffffffffffffff1603611060576040517f64f7617200000000000000000000000000000000000000000000000000000000815260040160405180910390fd5b6000840361109a576040517fe117728f00000000000000000000000000000000000000000000000000000000815260040160405180910390fd5b8073ffffffffffffffffffffffffffffffffffffffff166340c10f1986866040518363ffffffff1660e01b81526004016110d59291906123e9565b600060405180830381600087803b1580156110ef57600080fd5b505af1158015611103573d6000803e3d6000fd5b505050506001925050509392505050565b7fe27a7ac86bc026ab9d6b20c2343f709afa69a18a49907d97c7871b513444598781565b61114182610986565b61114a81611260565b6111548383611548565b50505050565b60036020528060005260406000206000915054906101000a900473ffffffffffffffffffffffffffffffffffffffff1681565b7f154c00819833dac601ee5ddded6fda79d9d8b506b911b3dbd54cdb95fe6c368681565b60006111bf826000016117ca565b9050919050565b60006111ee836000018373ffffffffffffffffffffffffffffffffffffffff1660001b6117db565b905092915050565b60007f01ffc9a7000000000000000000000000000000000000000000000000000000007bffffffffffffffffffffffffffffffffffffffffffffffffffffffff1916827bffffffffffffffffffffffffffffffffffffffffffffffffffffffff1916149050919050565b6112718161126c611540565b6117fe565b50565b600061129c836000018373ffffffffffffffffffffffffffffffffffffffff1660001b61184f565b905092915050565b6112ac610d5b565b156112e3576040517fd93c066500000000000000000000000000000000000000000000000000000000815260040160405180910390fd5b565b6000763d602d80600a3d3981f3363d3d373d3d3d363d730000008360601b60e81c176000526e5af43d82803e903d91602b57fd5bf38360781b1760205281603760096000f59050600073ffffffffffffffffffffffffffffffffffffffff168173ffffffffffffffffffffffffffffffffffffffff1603611392576040517fc2f868f400000000000000000000000000000000000000000000000000000000815260040160405180910390fd5b92915050565b611412838473ffffffffffffffffffffffffffffffffffffffff1663a9059cbb85856040516024016113cb9291906123e9565b604051602081830303815290604052915060e01b6020820180517bffffffffffffffffffffffffffffffffffffffffffffffffffffffff8381831617835250505050611963565b505050565b60007f02dd7bc7dec4dceedda775e58dd541e08a116c6c53815c0bd028192f7b626800905090565b60008061144a611417565b90506114568484610ee2565b61153457600181600001600086815260200190815260200160002060000160008573ffffffffffffffffffffffffffffffffffffffff1673ffffffffffffffffffffffffffffffffffffffff16815260200190815260200160002060006101000a81548160ff0219169083151502179055506114d0611540565b73ffffffffffffffffffffffffffffffffffffffff168373ffffffffffffffffffffffffffffffffffffffff16857f2f8788117e7eff1d82e926ec794901d17c78024a50270940304540a733656f0d60405160405180910390a4600191505061153a565b60009150505b92915050565b600033905090565b600080611553611417565b905061155f8484610ee2565b1561163e57600081600001600086815260200190815260200160002060000160008573ffffffffffffffffffffffffffffffffffffffff1673ffffffffffffffffffffffffffffffffffffffff16815260200190815260200160002060006101000a81548160ff0219169083151502179055506115da611540565b73ffffffffffffffffffffffffffffffffffffffff168373ffffffffffffffffffffffffffffffffffffffff16857ff6391f5c32d9c69d2a47ea670b442974b53935d1edc7fd64eb21e047a839171b60405160405180910390a46001915050611644565b60009150505b92915050565b6116526119fa565b600061165c611700565b905060008160000160006101000a81548160ff0219169083151502179055507f5db9ee0a495bf2e6ff9c91a7834c1ba4fdd244a5e8aa4e537bd38aeae4b073aa6116a4611540565b6040516116b19190611e92565b60405180910390a150565b60007ff0c57e16840df040f15088dc2f81fe391c3923bec73e23a9662efc9c229c6a00905090565b6116ec611a3a565b565b6116f6611a3a565b6116fe611a7a565b565b60007fcd5ed15c6e187e77e9aee88184c21f4f2182ab5827cb3b7e07fbedcd63f03300905090565b6117306112a4565b600061173a611700565b905060018160000160006101000a81548160ff0219169083151502179055507f62e78cea01bee320cd4e420270b5ea74000d11b0c9f74754ebdbfc544b05a258611782611540565b60405161178f9190611e92565b60405180910390a150565b60006117c2836000018373ffffffffffffffffffffffffffffffffffffffff1660001b611aae565b905092915050565b600081600001805490509050919050565b600080836001016000848152602001908152602001600020541415905092915050565b6118088282610ee2565b61184b5780826040517fe2517d3f000000000000000000000000000000000000000000000000000000008152600401611842929190612412565b60405180910390fd5b5050565b60008083600101600084815260200190815260200160002054905060008114611957576000600182611881919061246a565b9050600060018660000180549050611899919061246a565b90508082146119085760008660000182815481106118ba576118b961249e565b5b90600052602060002001549050808760000184815481106118de576118dd61249e565b5b90600052602060002001819055508387600101600083815260200190815260200160002081905550505b8560000180548061191c5761191b6124cd565b5b60019003818190600052602060002001600090559055856001016000868152602001908152602001600020600090556001935050505061195d565b60009150505b92915050565b600061198e828473ffffffffffffffffffffffffffffffffffffffff16611b1e90919063ffffffff16565b905060008151141580156119b35750808060200190518101906119b19190612528565b155b156119f557826040517f5274afe70000000000000000000000000000000000000000000000000000000081526004016119ec9190611e92565b60405180910390fd5b505050565b611a02610d5b565b611a38576040517f8dfc202b00000000000000000000000000000000000000000000000000000000815260040160405180910390fd5b565b611a42611b34565b611a78576040517fd7e6bcf800000000000000000000000000000000000000000000000000000000815260040160405180910390fd5b565b611a82611a3a565b6000611a8c611700565b905060008160000160006101000a81548160ff02191690831515021790555050565b6000611aba83836117db565b611b13578260000182908060018154018082558091505060019003906000526020600020016000909190919091505582600001805490508360010160008481526020019081526020016000208190555060019050611b18565b600090505b92915050565b6060611b2c83836000611b54565b905092915050565b6000611b3e6116bc565b60000160089054906101000a900460ff16905090565b606081471015611b9b57306040517fcd786059000000000000000000000000000000000000000000000000000000008152600401611b929190611e92565b60405180910390fd5b6000808573ffffffffffffffffffffffffffffffffffffffff168486604051611bc4919061259c565b60006040518083038185875af1925050503d8060008114611c01576040519150601f19603f3d011682016040523d82523d6000602084013e611c06565b606091505b5091509150611c16868383611c21565b925050509392505050565b606082611c3657611c3182611cb0565b611ca8565b60008251148015611c5e575060008473ffffffffffffffffffffffffffffffffffffffff163b145b15611ca057836040517f9996b315000000000000000000000000000000000000000000000000000000008152600401611c979190611e92565b60405180910390fd5b819050611ca9565b5b9392505050565b600081511115611cc35780518082602001fd5b6040517f1425ea4200000000000000000000000000000000000000000000000000000000815260040160405180910390fd5b6000819050919050565b611d0881611cf5565b82525050565b6000602082019050611d236000830184611cff565b92915050565b6000604051905090565b600080fd5b600080fd5b600073ffffffffffffffffffffffffffffffffffffffff82169050919050565b6000611d6882611d3d565b9050919050565b611d7881611d5d565b8114611d8357600080fd5b50565b600081359050611d9581611d6f565b92915050565b600060208284031215611db157611db0611d33565b5b6000611dbf84828501611d86565b91505092915050565b60008115159050919050565b611ddd81611dc8565b82525050565b6000602082019050611df86000830184611dd4565b92915050565b60007fffffffff0000000000000000000000000000000000000000000000000000000082169050919050565b611e3381611dfe565b8114611e3e57600080fd5b50565b600081359050611e5081611e2a565b92915050565b600060208284031215611e6c57611e6b611d33565b5b6000611e7a84828501611e41565b91505092915050565b611e8c81611d5d565b82525050565b6000602082019050611ea76000830184611e83565b92915050565b600080fd5b600080fd5b6000601f19601f8301169050919050565b7f4e487b7100000000000000000000000000000000000000000000000000000000600052604160045260246000fd5b611f0082611eb7565b810181811067ffffffffffffffff82111715611f1f57611f1e611ec8565b5b80604052505050565b6000611f32611d29565b9050611f3e8282611ef7565b919050565b600067ffffffffffffffff821115611f5e57611f5d611ec8565b5b611f6782611eb7565b9050602081019050919050565b82818337600083830152505050565b6000611f96611f9184611f43565b611f28565b905082815260208101848484011115611fb257611fb1611eb2565b5b611fbd848285611f74565b509392505050565b600082601f830112611fda57611fd9611ead565b5b8135611fea848260208601611f83565b91505092915050565b6000819050919050565b61200681611ff3565b811461201157600080fd5b50565b60008135905061202381611ffd565b92915050565b600080600080600060a0868803121561204557612044611d33565b5b600061205388828901611d86565b955050602086013567ffffffffffffffff81111561207457612073611d38565b5b61208088828901611fc5565b945050604086013567ffffffffffffffff8111156120a1576120a0611d38565b5b6120ad88828901611fc5565b93505060606120be88828901612014565b92505060806120cf88828901611d86565b9150509295509295909350565b6120e581611cf5565b81146120f057600080fd5b50565b600081359050612102816120dc565b92915050565b60006020828403121561211e5761211d611d33565b5b600061212c848285016120f3565b91505092915050565b6000806040838503121561214c5761214b611d33565b5b600061215a858286016120f3565b925050602061216b85828601611d86565b9150509250929050565b6000806040838503121561218c5761218b611d33565b5b600061219a85828601611d86565b92505060206121ab85828601611d86565b9150509250929050565b6000806000606084860312156121ce576121cd611d33565b5b60006121dc86828701611d86565b93505060206121ed86828701611d86565b92505060406121fe86828701612014565b9150509250925092565b60008160601b9050919050565b600061222082612208565b9050919050565b600061223282612215565b9050919050565b61224a61224582611d5d565b612227565b82525050565b600061225c8284612239565b60148201915081905092915050565b61227481611ff3565b82525050565b600060208201905061228f600083018461226b565b92915050565b600081519050919050565b600082825260208201905092915050565b60005b838110156122cf5780820151818401526020810190506122b4565b60008484015250505050565b60006122e682612295565b6122f081856122a0565b93506123008185602086016122b1565b61230981611eb7565b840191505092915050565b600060a0820190506123296000830188611e83565b818103602083015261233b81876122db565b9050818103604083015261234f81866122db565b905061235e606083018561226b565b61236b6080830184611e83565b9695505050505050565b6000819050919050565b600067ffffffffffffffff82169050919050565b6000819050919050565b60006123b86123b36123ae84612375565b612393565b61237f565b9050919050565b6123c88161239d565b82525050565b60006020820190506123e360008301846123bf565b92915050565b60006040820190506123fe6000830185611e83565b61240b602083018461226b565b9392505050565b60006040820190506124276000830185611e83565b6124346020830184611cff565b9392505050565b7f4e487b7100000000000000000000000000000000000000000000000000000000600052601160045260246000fd5b600061247582611ff3565b915061248083611ff3565b92508282039050818111156124985761249761243b565b5b92915050565b7f4e487b7100000000000000000000000000000000000000000000000000000000600052603260045260246000fd5b7f4e487b7100000000000000000000000000000000000000000000000000000000600052603160045260246000fd5b61250581611dc8565b811461251057600080fd5b50565b600081519050612522816124fc565b92915050565b60006020828403121561253e5761253d611d33565b5b600061254c84828501612513565b91505092915050565b600081519050919050565b600081905092915050565b600061257682612555565b6125808185612560565b93506125908185602086016122b1565b80840191505092915050565b60006125a8828461256b565b91508190509291505056fea2646970667358221220b266952809107935d00bf7360ce9f52ca89541fbf80f57ff5cf757542946161064736f6c63430008180033",
  "linkReferences": {},
  "deployedLinkReferences": {}
}