{
  "_format": "hh-sol-artifact-1",
  "contractName": "ProtocolRewards",
  "sourceName": "contracts/rewards/ProtocolRewards.sol",
  "abi": [
    {
      "inputs": [],
      "name": "AccessControlBadConfirmation",
      "type": "error"
    },
    {
      "inputs": [
        {
          "internalType": "address",
          "name": "account",
          "type": "address"
        },
        {
          "internalType": "bytes32",
          "name": "neededRole",
          "type": "bytes32"
        }
      ],
      "name": "AccessControlUnauthorizedAccount",
      "type": "error"
    },
    {
      "inputs": [],
      "name": "ECDSAInvalidSignature",
      "type": "error"
    },
    {
      "inputs": [
        {
          "internalType": "uint256",
          "name": "length",
          "type": "uint256"
        }
      ],
      "name": "ECDSAInvalidSignatureLength",
      "type": "error"
    },
    {
      "inputs": [
        {
          "internalType": "bytes32",
          "name": "s",
          "type": "bytes32"
        }
      ],
      "name": "ECDSAInvalidSignatureS",
      "type": "error"
    },
    {
      "inputs": [],
      "name": "EnforcedPause",
      "type": "error"
    },
    {
      "inputs": [],
      "name": "ExpectedPause",
      "type": "error"
    },
    {
      "inputs": [],
      "name": "InvalidInitialization",
      "type": "error"
    },
    {
      "inputs": [],
      "name": "NotInitializing",
      "type": "error"
    },
    {
      "inputs": [],
      "name": "PROTOCOL_REWARDS_ADDRESS_ZERO",
      "type": "error"
    },
    {
      "inputs": [],
      "name": "PROTOCOL_REWARDS_ARRAY_LENGTH_MISMATCH",
      "type": "error"
    },
    {
      "inputs": [],
      "name": "PROTOCOL_REWARDS_BLOCKED",
      "type": "error"
    },
    {
      "inputs": [],
      "name": "PROTOCOL_REWARDS_INVALID_DEPOSIT",
      "type": "error"
    },
    {
      "inputs": [],
      "name": "PROTOCOL_REWARDS_INVALID_SIGNATURE",
      "type": "error"
    },
    {
      "inputs": [],
      "name": "PROTOCOL_REWARDS_INVALID_WITHDRAW",
      "type": "error"
    },
    {
      "inputs": [],
      "name": "PROTOCOL_REWARDS_SIGNATURE_DEADLINE_EXPIRED",
      "type": "error"
    },
    {
      "anonymous": false,
      "inputs": [
        {
          "indexed": false,
          "internalType": "address",
          "name": "_wallet",
          "type": "address"
        },
        {
          "indexed": false,
          "internalType": "bool",
          "name": "_isAdded",
          "type": "bool"
        }
      ],
      "name": "BlockListUpdated",
      "type": "event"
    },
    {
      "anonymous": false,
      "inputs": [
        {
          "indexed": true,
          "internalType": "address",
          "name": "_from",
          "type": "address"
        },
        {
          "indexed": true,
          "internalType": "address",
          "name": "_to",
          "type": "address"
        },
        {
          "indexed": true,
          "internalType": "bytes4",
          "name": "_reason",
          "type": "bytes4"
        },
        {
          "indexed": false,
          "internalType": "uint256",
          "name": "_amount",
          "type": "uint256"
        },
        {
          "indexed": false,
          "internalType": "string",
          "name": "_comment",
          "type": "string"
        }
      ],
      "name": "Deposit",
      "type": "event"
    },
    {
      "anonymous": false,
      "inputs": [],
      "name": "EIP712DomainChanged",
      "type": "event"
    },
    {
      "anonymous": false,
      "inputs": [
        {
          "indexed": false,
          "internalType": "uint64",
          "name": "version",
          "type": "uint64"
        }
      ],
      "name": "Initialized",
      "type": "event"
    },
    {
      "anonymous": false,
      "inputs": [
        {
          "indexed": false,
          "internalType": "address",
          "name": "account",
          "type": "address"
        }
      ],
      "name": "Paused",
      "type": "event"
    },
    {
      "anonymous": false,
      "inputs": [
        {
          "indexed": true,
          "internalType": "bytes32",
          "name": "role",
          "type": "bytes32"
        },
        {
          "indexed": true,
          "internalType": "bytes32",
          "name": "previousAdminRole",
          "type": "bytes32"
        },
        {
          "indexed": true,
          "internalType": "bytes32",
          "name": "newAdminRole",
          "type": "bytes32"
        }
      ],
      "name": "RoleAdminChanged",
      "type": "event"
    },
    {
      "anonymous": false,
      "inputs": [
        {
          "indexed": true,
          "internalType": "bytes32",
          "name": "role",
          "type": "bytes32"
        },
        {
          "indexed": true,
          "internalType": "address",
          "name": "account",
          "type": "address"
        },
        {
          "indexed": true,
          "internalType": "address",
          "name": "sender",
          "type": "address"
        }
      ],
      "name": "RoleGranted",
      "type": "event"
    },
    {
      "anonymous": false,
      "inputs": [
        {
          "indexed": true,
          "internalType": "bytes32",
          "name": "role",
          "type": "bytes32"
        },
        {
          "indexed": true,
          "internalType": "address",
          "name": "account",
          "type": "address"
        },
        {
          "indexed": true,
          "internalType": "address",
          "name": "sender",
          "type": "address"
        }
      ],
      "name": "RoleRevoked",
      "type": "event"
    },
    {
      "anonymous": false,
      "inputs": [
        {
          "indexed": false,
          "internalType": "address",
          "name": "account",
          "type": "address"
        }
      ],
      "name": "Unpaused",
      "type": "event"
    },
    {
      "anonymous": false,
      "inputs": [
        {
          "indexed": true,
          "internalType": "address",
          "name": "_from",
          "type": "address"
        },
        {
          "indexed": true,
          "internalType": "address",
          "name": "_to",
          "type": "address"
        },
        {
          "indexed": false,
          "internalType": "uint256",
          "name": "_amount",
          "type": "uint256"
        }
      ],
      "name": "Withdraw",
      "type": "event"
    },
    {
      "inputs": [],
      "name": "BLOCK_UNBLOCK_ROLE",
      "outputs": [
        {
          "internalType": "bytes32",
          "name": "",
          "type": "bytes32"
        }
      ],
      "stateMutability": "view",
      "type": "function"
    },
    {
      "inputs": [],
      "name": "DEFAULT_ADMIN_ROLE",
      "outputs": [
        {
          "internalType": "bytes32",
          "name": "",
          "type": "bytes32"
        }
      ],
      "stateMutability": "view",
      "type": "function"
    },
    {
      "inputs": [],
      "name": "PAUSE_ROLE",
      "outputs": [
        {
          "internalType": "bytes32",
          "name": "",
          "type": "bytes32"
        }
      ],
      "stateMutability": "view",
      "type": "function"
    },
    {
      "inputs": [],
      "name": "WITHDRAW_TYPEHASH",
      "outputs": [
        {
          "internalType": "bytes32",
          "name": "",
          "type": "bytes32"
        }
      ],
      "stateMutability": "view",
      "type": "function"
    },
    {
      "inputs": [
        {
          "internalType": "address",
          "name": "_wallet",
          "type": "address"
        }
      ],
      "name": "addToBlockList",
      "outputs": [],
      "stateMutability": "nonpayable",
      "type": "function"
    },
    {
      "inputs": [
        {
          "internalType": "address",
          "name": "",
          "type": "address"
        }
      ],
      "name": "balanceOf",
      "outputs": [
        {
          "internalType": "uint256",
          "name": "",
          "type": "uint256"
        }
      ],
      "stateMutability": "view",
      "type": "function"
    },
    {
      "inputs": [
        {
          "internalType": "address",
          "name": "",
          "type": "address"
        }
      ],
      "name": "blockList",
      "outputs": [
        {
          "internalType": "bool",
          "name": "",
          "type": "bool"
        }
      ],
      "stateMutability": "view",
      "type": "function"
    },
    {
      "inputs": [
        {
          "internalType": "address",
          "name": "_to",
          "type": "address"
        },
        {
          "internalType": "uint256",
          "name": "_amount",
          "type": "uint256"
        },
        {
          "internalType": "bytes4",
          "name": "_reason",
          "type": "bytes4"
        },
        {
          "internalType": "string",
          "name": "_comment",
          "type": "string"
        }
      ],
      "name": "deposit",
      "outputs": [],
      "stateMutability": "nonpayable",
      "type": "function"
    },
    {
      "inputs": [
        {
          "internalType": "address[]",
          "name": "recipients",
          "type": "address[]"
        },
        {
          "internalType": "uint256[]",
          "name": "amounts",
          "type": "uint256[]"
        },
        {
          "internalType": "bytes4[]",
          "name": "reasons",
          "type": "bytes4[]"
        },
        {
          "internalType": "string",
          "name": "comment",
          "type": "string"
        }
      ],
      "name": "depositBatch",
      "outputs": [],
      "stateMutability": "nonpayable",
      "type": "function"
    },
    {
      "inputs": [],
      "name": "eip712Domain",
      "outputs": [
        {
          "internalType": "bytes1",
          "name": "fields",
          "type": "bytes1"
        },
        {
          "internalType": "string",
          "name": "name",
          "type": "string"
        },
        {
          "internalType": "string",
          "name": "version",
          "type": "string"
        },
        {
          "internalType": "uint256",
          "name": "chainId",
          "type": "uint256"
        },
        {
          "internalType": "address",
          "name": "verifyingContract",
          "type": "address"
        },
        {
          "internalType": "bytes32",
          "name": "salt",
          "type": "bytes32"
        },
        {
          "internalType": "uint256[]",
          "name": "extensions",
          "type": "uint256[]"
        }
      ],
      "stateMutability": "view",
      "type": "function"
    },
    {
      "inputs": [
        {
          "internalType": "bytes32",
          "name": "role",
          "type": "bytes32"
        }
      ],
      "name": "getRoleAdmin",
      "outputs": [
        {
          "internalType": "bytes32",
          "name": "",
          "type": "bytes32"
        }
      ],
      "stateMutability": "view",
      "type": "function"
    },
    {
      "inputs": [
        {
          "internalType": "bytes32",
          "name": "role",
          "type": "bytes32"
        },
        {
          "internalType": "address",
          "name": "account",
          "type": "address"
        }
      ],
      "name": "grantRole",
      "outputs": [],
      "stateMutability": "nonpayable",
      "type": "function"
    },
    {
      "inputs": [
        {
          "internalType": "bytes32",
          "name": "role",
          "type": "bytes32"
        },
        {
          "internalType": "address",
          "name": "account",
          "type": "address"
        }
      ],
      "name": "hasRole",
      "outputs": [
        {
          "internalType": "bool",
          "name": "",
          "type": "bool"
        }
      ],
      "stateMutability": "view",
      "type": "function"
    },
    {
      "inputs": [
        {
          "internalType": "address",
          "name": "_token",
          "type": "address"
        },
        {
          "internalType": "address",
          "name": "_owner",
          "type": "address"
        }
      ],
      "name": "initialize",
      "outputs": [],
      "stateMutability": "nonpayable",
      "type": "function"
    },
    {
      "inputs": [
        {
          "internalType": "address",
          "name": "",
          "type": "address"
        }
      ],
      "name": "nonces",
      "outputs": [
        {
          "internalType": "uint256",
          "name": "",
          "type": "uint256"
        }
      ],
      "stateMutability": "view",
      "type": "function"
    },
    {
      "inputs": [],
      "name": "pause",
      "outputs": [],
      "stateMutability": "nonpayable",
      "type": "function"
    },
    {
      "inputs": [],
      "name": "paused",
      "outputs": [
        {
          "internalType": "bool",
          "name": "",
          "type": "bool"
        }
      ],
      "stateMutability": "view",
      "type": "function"
    },
    {
      "inputs": [
        {
          "internalType": "address",
          "name": "_wallet",
          "type": "address"
        }
      ],
      "name": "removeFromBLockList",
      "outputs": [],
      "stateMutability": "nonpayable",
      "type": "function"
    },
    {
      "inputs": [
        {
          "internalType": "bytes32",
          "name": "role",
          "type": "bytes32"
        },
        {
          "internalType": "address",
          "name": "callerConfirmation",
          "type": "address"
        }
      ],
      "name": "renounceRole",
      "outputs": [],
      "stateMutability": "nonpayable",
      "type": "function"
    },
    {
      "inputs": [
        {
          "internalType": "bytes32",
          "name": "role",
          "type": "bytes32"
        },
        {
          "internalType": "address",
          "name": "account",
          "type": "address"
        }
      ],
      "name": "revokeRole",
      "outputs": [],
      "stateMutability": "nonpayable",
      "type": "function"
    },
    {
      "inputs": [
        {
          "internalType": "bytes4",
          "name": "interfaceId",
          "type": "bytes4"
        }
      ],
      "name": "supportsInterface",
      "outputs": [
        {
          "internalType": "bool",
          "name": "",
          "type": "bool"
        }
      ],
      "stateMutability": "view",
      "type": "function"
    },
    {
      "inputs": [],
      "name": "token",
      "outputs": [
        {
          "internalType": "contract IERC20Extended",
          "name": "",
          "type": "address"
        }
      ],
      "stateMutability": "view",
      "type": "function"
    },
    {
      "inputs": [],
      "name": "totalSupply",
      "outputs": [
        {
          "internalType": "uint256",
          "name": "",
          "type": "uint256"
        }
      ],
      "stateMutability": "view",
      "type": "function"
    },
    {
      "inputs": [],
      "name": "unpause",
      "outputs": [],
      "stateMutability": "nonpayable",
      "type": "function"
    },
    {
      "inputs": [
        {
          "internalType": "address",
          "name": "to",
          "type": "address"
        },
        {
          "internalType": "uint256",
          "name": "amount",
          "type": "uint256"
        }
      ],
      "name": "withdraw",
      "outputs": [],
      "stateMutability": "nonpayable",
      "type": "function"
    },
    {
      "inputs": [
        {
          "internalType": "address",
          "name": "from",
          "type": "address"
        },
        {
          "internalType": "address",
          "name": "to",
          "type": "address"
        },
        {
          "internalType": "uint256",
          "name": "amount",
          "type": "uint256"
        },
        {
          "internalType": "uint256",
          "name": "deadline",
          "type": "uint256"
        },
        {
          "internalType": "uint8",
          "name": "v",
          "type": "uint8"
        },
        {
          "internalType": "bytes32",
          "name": "r",
          "type": "bytes32"
        },
        {
          "internalType": "bytes32",
          "name": "s",
          "type": "bytes32"
        }
      ],
      "name": "withdrawWithSig",
      "outputs": [],
      "stateMutability": "nonpayable",
      "type": "function"
    }
  ],
  "bytecode": "0x608060405234801561001057600080fd5b5061394b806100206000396000f3fe608060405234801561001057600080fd5b506004361061018e5760003560e01c80637ecebe00116100de578063c27e979411610097578063e4b40d8d11610071578063e4b40d8d14610461578063e57e5e9b1461047d578063f3fef3a31461049b578063fc0c546a146104b75761018e565b8063c27e97941461040d578063d547741f14610429578063e1934dd0146104455761018e565b80637ecebe00146103315780638456cb591461036157806384b0196e1461036b57806391d148541461038f578063a217fddf146103bf578063b5399283146103dd5761018e565b8063389ed2671161014b578063485cc95511610125578063485cc955146102a95780635c975abb146102c557806370a08231146102e357806376c5d758146103135761018e565b8063389ed267146102655780633a98ff1a146102835780633f4ba83a1461029f5761018e565b806301ffc9a71461019357806318160ddd146101c3578063248a9ca3146101e15780632f2ff15d14610211578063300def951461022d57806336568abe14610249575b600080fd5b6101ad60048036038101906101a89190612885565b6104d5565b6040516101ba91906128cd565b60405180910390f35b6101cb61054f565b6040516101d89190612901565b60405180910390f35b6101fb60048036038101906101f69190612952565b6105f1565b604051610208919061298e565b60405180910390f35b61022b60048036038101906102269190612a07565b61061f565b005b61024760048036038101906102429190612bae565b610641565b005b610263600480360381019061025e9190612a07565b610953565b005b61026d6109ce565b60405161027a919061298e565b60405180910390f35b61029d60048036038101906102989190612cc3565b6109f2565b005b6102a7610bdf565b005b6102c360048036038101906102be9190612d4b565b610c14565b005b6102cd610f31565b6040516102da91906128cd565b60405180910390f35b6102fd60048036038101906102f89190612d8b565b610f56565b60405161030a9190612901565b60405180910390f35b61031b610f6e565b604051610328919061298e565b60405180910390f35b61034b60048036038101906103469190612d8b565b610f92565b6040516103589190612901565b60405180910390f35b610369610faa565b005b610373610fdf565b6040516103869796959493929190612f50565b60405180910390f35b6103a960048036038101906103a49190612a07565b6110f1565b6040516103b691906128cd565b60405180910390f35b6103c761116a565b6040516103d4919061298e565b60405180910390f35b6103f760048036038101906103f29190612d8b565b611171565b60405161040491906128cd565b60405180910390f35b6104276004803603810190610422919061300d565b611191565b005b610443600480360381019061043e9190612a07565b611691565b005b61045f600480360381019061045a9190612d8b565b6116b3565b005b61047b60048036038101906104769190612d8b565b6117d9565b005b6104856118ff565b604051610492919061298e565b60405180910390f35b6104b560048036038101906104b091906130af565b611923565b005b6104bf611c7f565b6040516104cc919061314e565b60405180910390f35b60007f7965db0b000000000000000000000000000000000000000000000000000000007bffffffffffffffffffffffffffffffffffffffffffffffffffffffff1916827bffffffffffffffffffffffffffffffffffffffffffffffffffffffff19161480610548575061054782611ca3565b5b9050919050565b60008060009054906101000a900473ffffffffffffffffffffffffffffffffffffffff1673ffffffffffffffffffffffffffffffffffffffff166370a08231306040518263ffffffff1660e01b81526004016105ab9190613169565b602060405180830381865afa1580156105c8573d6000803e3d6000fd5b505050506040513d601f19601f820116820180604052508101906105ec9190613199565b905090565b6000806105fc611d0d565b905080600001600084815260200190815260200160002060010154915050919050565b610628826105f1565b61063181611d35565b61063b8383611d49565b50505050565b6000888890509050868690508114158061065e5750848490508114155b15610695576040517f3d7e492f00000000000000000000000000000000000000000000000000000000815260040160405180910390fd5b6000805b828110156106d5578888828181106106b4576106b36131c6565b5b90506020020135826106c69190613224565b91508080600101915050610699565b5060008054906101000a900473ffffffffffffffffffffffffffffffffffffffff1673ffffffffffffffffffffffffffffffffffffffff166323b872dd3330846040518463ffffffff1660e01b815260040161073393929190613258565b6020604051808303816000875af1158015610752573d6000803e3d6000fd5b505050506040513d601f19601f8201168201806040525081019061077691906132bb565b5060008060005b84811015610944578c8c82818110610798576107976131c6565b5b90506020020160208101906107ad9190612d8b565b92508a8a828181106107c2576107c16131c6565b5b905060200201359150600073ffffffffffffffffffffffffffffffffffffffff168373ffffffffffffffffffffffffffffffffffffffff1603610831576040517ffab7e47b00000000000000000000000000000000000000000000000000000000815260040160405180910390fd5b81600160008573ffffffffffffffffffffffffffffffffffffffff1673ffffffffffffffffffffffffffffffffffffffff16815260200190815260200160002060008282546108809190613224565b9250508190555088888281811061089a576108996131c6565b5b90506020020160208101906108af9190612885565b7bffffffffffffffffffffffffffffffffffffffffffffffffffffffff19168373ffffffffffffffffffffffffffffffffffffffff163373ffffffffffffffffffffffffffffffffffffffff167f5b769452a2090142e059af5137c5b92a3e966cfb03b794cd01ac195d196c0001858b8b60405161092f93929190613324565b60405180910390a4808060010191505061077d565b50505050505050505050505050565b61095b611e4a565b73ffffffffffffffffffffffffffffffffffffffff168173ffffffffffffffffffffffffffffffffffffffff16146109bf576040517f6697b23200000000000000000000000000000000000000000000000000000000815260040160405180910390fd5b6109c98282611e52565b505050565b7f139c2898040ef16910dc9f44dc697df79363da767d8bc92f2e310312b816e46d81565b600073ffffffffffffffffffffffffffffffffffffffff168573ffffffffffffffffffffffffffffffffffffffff1603610a58576040517ffab7e47b00000000000000000000000000000000000000000000000000000000815260040160405180910390fd5b60008054906101000a900473ffffffffffffffffffffffffffffffffffffffff1673ffffffffffffffffffffffffffffffffffffffff166323b872dd3330876040518463ffffffff1660e01b8152600401610ab593929190613258565b6020604051808303816000875af1158015610ad4573d6000803e3d6000fd5b505050506040513d601f19601f82011682018060405250810190610af891906132bb565b5083600160008773ffffffffffffffffffffffffffffffffffffffff1673ffffffffffffffffffffffffffffffffffffffff1681526020019081526020016000206000828254610b489190613224565b92505081905550827bffffffffffffffffffffffffffffffffffffffffffffffffffffffff19168573ffffffffffffffffffffffffffffffffffffffff163373ffffffffffffffffffffffffffffffffffffffff167f5b769452a2090142e059af5137c5b92a3e966cfb03b794cd01ac195d196c0001878686604051610bd093929190613324565b60405180910390a45050505050565b7f139c2898040ef16910dc9f44dc697df79363da767d8bc92f2e310312b816e46d610c0981611d35565b610c11611f54565b50565b6000610c1e611fc6565b905060008160000160089054906101000a900460ff1615905060008260000160009054906101000a900467ffffffffffffffff1690506000808267ffffffffffffffff16148015610c6c5750825b9050600060018367ffffffffffffffff16148015610ca1575060003073ffffffffffffffffffffffffffffffffffffffff163b145b905081158015610caf575080155b15610ce6576040517ff92ee8a900000000000000000000000000000000000000000000000000000000815260040160405180910390fd5b60018560000160006101000a81548167ffffffffffffffff021916908367ffffffffffffffff1602179055508315610d365760018560000160086101000a81548160ff0219169083151502179055505b610d3e611fee565b610db26040518060400160405280600f81526020017f50726f746f636f6c5265776172647300000000000000000000000000000000008152506040518060400160405280600181526020017f3100000000000000000000000000000000000000000000000000000000000000815250612000565b600073ffffffffffffffffffffffffffffffffffffffff168773ffffffffffffffffffffffffffffffffffffffff1603610e18576040517ffab7e47b00000000000000000000000000000000000000000000000000000000815260040160405180910390fd5b600073ffffffffffffffffffffffffffffffffffffffff168673ffffffffffffffffffffffffffffffffffffffff1603610e7e576040517ffab7e47b00000000000000000000000000000000000000000000000000000000815260040160405180910390fd5b866000806101000a81548173ffffffffffffffffffffffffffffffffffffffff021916908373ffffffffffffffffffffffffffffffffffffffff160217905550610ecb6000801b87611d49565b508315610f285760008560000160086101000a81548160ff0219169083151502179055507fc7f505b2f371ae2175ee4913f4499e1f2633a7b5936321eed1cdaeb6115181d26001604051610f1f91906133a5565b60405180910390a15b50505050505050565b600080610f3c612016565b90508060000160009054906101000a900460ff1691505090565b60016020528060005260406000206000915090505481565b7f7b35c0715842c169bbf11116e8d20b2e74dacbd860d36ad5e47c3d88c15be55b81565b60026020528060005260406000206000915090505481565b7f139c2898040ef16910dc9f44dc697df79363da767d8bc92f2e310312b816e46d610fd481611d35565b610fdc61203e565b50565b6000606080600080600060606000610ff56120b0565b90506000801b816000015414801561101357506000801b8160010154145b611052576040517f08c379a00000000000000000000000000000000000000000000000000000000081526004016110499061340c565b60405180910390fd5b61105a6120d8565b611062612179565b46306000801b600067ffffffffffffffff8111156110835761108261342c565b5b6040519080825280602002602001820160405280156110b15781602001602082028036833780820191505090505b507f0f0000000000000000000000000000000000000000000000000000000000000095949392919097509750975097509750975097505090919293949596565b6000806110fc611d0d565b905080600001600085815260200190815260200160002060000160008473ffffffffffffffffffffffffffffffffffffffff1673ffffffffffffffffffffffffffffffffffffffff16815260200190815260200160002060009054906101000a900460ff1691505092915050565b6000801b81565b60036020528060005260406000206000915054906101000a900460ff1681565b61119961221a565b86600073ffffffffffffffffffffffffffffffffffffffff168173ffffffffffffffffffffffffffffffffffffffff1614158015611227575060011515600360008373ffffffffffffffffffffffffffffffffffffffff1673ffffffffffffffffffffffffffffffffffffffff16815260200190815260200160002060009054906101000a900460ff161515145b1561125e576040517f09f25c8000000000000000000000000000000000000000000000000000000000815260040160405180910390fd5b84421115611298576040517fa54e13b500000000000000000000000000000000000000000000000000000000815260040160405180910390fd5b60007f7b35c0715842c169bbf11116e8d20b2e74dacbd860d36ad5e47c3d88c15be55b898989600260008e73ffffffffffffffffffffffffffffffffffffffff1673ffffffffffffffffffffffffffffffffffffffff1681526020019081526020016000206000815480929190600101919050558a6040516020016113229695949392919061345b565b60405160208183030381529060405280519060200120905060006113458261225b565b9050600061136087878785612275909392919063ffffffff16565b9050600073ffffffffffffffffffffffffffffffffffffffff168173ffffffffffffffffffffffffffffffffffffffff1614806113c957508a73ffffffffffffffffffffffffffffffffffffffff168173ffffffffffffffffffffffffffffffffffffffff1614155b15611400576040517fc7a07aae00000000000000000000000000000000000000000000000000000000815260040160405180910390fd5b600073ffffffffffffffffffffffffffffffffffffffff168a73ffffffffffffffffffffffffffffffffffffffff1603611466576040517ffab7e47b00000000000000000000000000000000000000000000000000000000815260040160405180910390fd5b600160008c73ffffffffffffffffffffffffffffffffffffffff1673ffffffffffffffffffffffffffffffffffffffff168152602001908152602001600020548911156114df576040517f9348f00100000000000000000000000000000000000000000000000000000000815260040160405180910390fd5b6000890361152a57600160008c73ffffffffffffffffffffffffffffffffffffffff1673ffffffffffffffffffffffffffffffffffffffff1681526020019081526020016000205498505b88600160008d73ffffffffffffffffffffffffffffffffffffffff1673ffffffffffffffffffffffffffffffffffffffff168152602001908152602001600020600082825461157991906134bc565b925050819055508973ffffffffffffffffffffffffffffffffffffffff168b73ffffffffffffffffffffffffffffffffffffffff167f9b1bfa7fa9ee420a16e124f794c35ac9f90472acc99140eb2f6447c714cad8eb8b6040516115dd9190612901565b60405180910390a360008054906101000a900473ffffffffffffffffffffffffffffffffffffffff1673ffffffffffffffffffffffffffffffffffffffff1663a9059cbb8b8b6040518363ffffffff1660e01b81526004016116409291906134f0565b6020604051808303816000875af115801561165f573d6000803e3d6000fd5b505050506040513d601f19601f8201168201806040525081019061168391906132bb565b505050505050505050505050565b61169a826105f1565b6116a381611d35565b6116ad8383611e52565b50505050565b7f99281794e90818d478790c02254d80d4401b3d1785da3ee437387700cc5b9f6e6116dd81611d35565b600073ffffffffffffffffffffffffffffffffffffffff168273ffffffffffffffffffffffffffffffffffffffff1603611743576040517ffab7e47b00000000000000000000000000000000000000000000000000000000815260040160405180910390fd5b6000600360008473ffffffffffffffffffffffffffffffffffffffff1673ffffffffffffffffffffffffffffffffffffffff16815260200190815260200160002060006101000a81548160ff0219169083151502179055507fa8e65dc25b25ed9c00c1693b81f3d26f78c8d0e952946e7cb7f0be3524d83b7c8260006040516117cd929190613519565b60405180910390a15050565b7f99281794e90818d478790c02254d80d4401b3d1785da3ee437387700cc5b9f6e61180381611d35565b600073ffffffffffffffffffffffffffffffffffffffff168273ffffffffffffffffffffffffffffffffffffffff1603611869576040517ffab7e47b00000000000000000000000000000000000000000000000000000000815260040160405180910390fd5b6001600360008473ffffffffffffffffffffffffffffffffffffffff1673ffffffffffffffffffffffffffffffffffffffff16815260200190815260200160002060006101000a81548160ff0219169083151502179055507fa8e65dc25b25ed9c00c1693b81f3d26f78c8d0e952946e7cb7f0be3524d83b7c8260016040516118f3929190613519565b60405180910390a15050565b7f99281794e90818d478790c02254d80d4401b3d1785da3ee437387700cc5b9f6e81565b61192b61221a565b33600073ffffffffffffffffffffffffffffffffffffffff168173ffffffffffffffffffffffffffffffffffffffff16141580156119b9575060011515600360008373ffffffffffffffffffffffffffffffffffffffff1673ffffffffffffffffffffffffffffffffffffffff16815260200190815260200160002060009054906101000a900460ff161515145b156119f0576040517f09f25c8000000000000000000000000000000000000000000000000000000000815260040160405180910390fd5b600073ffffffffffffffffffffffffffffffffffffffff168373ffffffffffffffffffffffffffffffffffffffff1603611a56576040517ffab7e47b00000000000000000000000000000000000000000000000000000000815260040160405180910390fd5b6000339050600160008273ffffffffffffffffffffffffffffffffffffffff1673ffffffffffffffffffffffffffffffffffffffff16815260200190815260200160002054831115611ad4576040517f9348f00100000000000000000000000000000000000000000000000000000000815260040160405180910390fd5b60008303611b1f57600160008273ffffffffffffffffffffffffffffffffffffffff1673ffffffffffffffffffffffffffffffffffffffff1681526020019081526020016000205492505b82600160008373ffffffffffffffffffffffffffffffffffffffff1673ffffffffffffffffffffffffffffffffffffffff1681526020019081526020016000206000828254611b6e91906134bc565b925050819055508373ffffffffffffffffffffffffffffffffffffffff168173ffffffffffffffffffffffffffffffffffffffff167f9b1bfa7fa9ee420a16e124f794c35ac9f90472acc99140eb2f6447c714cad8eb85604051611bd29190612901565b60405180910390a360008054906101000a900473ffffffffffffffffffffffffffffffffffffffff1673ffffffffffffffffffffffffffffffffffffffff1663a9059cbb85856040518363ffffffff1660e01b8152600401611c359291906134f0565b6020604051808303816000875af1158015611c54573d6000803e3d6000fd5b505050506040513d601f19601f82011682018060405250810190611c7891906132bb565b5050505050565b60008054906101000a900473ffffffffffffffffffffffffffffffffffffffff1681565b60007f01ffc9a7000000000000000000000000000000000000000000000000000000007bffffffffffffffffffffffffffffffffffffffffffffffffffffffff1916827bffffffffffffffffffffffffffffffffffffffffffffffffffffffff1916149050919050565b60007f02dd7bc7dec4dceedda775e58dd541e08a116c6c53815c0bd028192f7b626800905090565b611d4681611d41611e4a565b6122a5565b50565b600080611d54611d0d565b9050611d6084846110f1565b611e3e57600181600001600086815260200190815260200160002060000160008573ffffffffffffffffffffffffffffffffffffffff1673ffffffffffffffffffffffffffffffffffffffff16815260200190815260200160002060006101000a81548160ff021916908315150217905550611dda611e4a565b73ffffffffffffffffffffffffffffffffffffffff168373ffffffffffffffffffffffffffffffffffffffff16857f2f8788117e7eff1d82e926ec794901d17c78024a50270940304540a733656f0d60405160405180910390a46001915050611e44565b60009150505b92915050565b600033905090565b600080611e5d611d0d565b9050611e6984846110f1565b15611f4857600081600001600086815260200190815260200160002060000160008573ffffffffffffffffffffffffffffffffffffffff1673ffffffffffffffffffffffffffffffffffffffff16815260200190815260200160002060006101000a81548160ff021916908315150217905550611ee4611e4a565b73ffffffffffffffffffffffffffffffffffffffff168373ffffffffffffffffffffffffffffffffffffffff16857ff6391f5c32d9c69d2a47ea670b442974b53935d1edc7fd64eb21e047a839171b60405160405180910390a46001915050611f4e565b60009150505b92915050565b611f5c6122f6565b6000611f66612016565b905060008160000160006101000a81548160ff0219169083151502179055507f5db9ee0a495bf2e6ff9c91a7834c1ba4fdd244a5e8aa4e537bd38aeae4b073aa611fae611e4a565b604051611fbb9190613169565b60405180910390a150565b60007ff0c57e16840df040f15088dc2f81fe391c3923bec73e23a9662efc9c229c6a00905090565b611ff6612336565b611ffe612376565b565b612008612336565b61201282826123aa565b5050565b60007fcd5ed15c6e187e77e9aee88184c21f4f2182ab5827cb3b7e07fbedcd63f03300905090565b61204661221a565b6000612050612016565b905060018160000160006101000a81548160ff0219169083151502179055507f62e78cea01bee320cd4e420270b5ea74000d11b0c9f74754ebdbfc544b05a258612098611e4a565b6040516120a59190613169565b60405180910390a150565b60007fa16a46d94261c7517cc8ff89f61c0ce93598e3c849801011dee649a6a557d100905090565b606060006120e46120b0565b90508060020180546120f590613571565b80601f016020809104026020016040519081016040528092919081815260200182805461212190613571565b801561216e5780601f106121435761010080835404028352916020019161216e565b820191906000526020600020905b81548152906001019060200180831161215157829003601f168201915b505050505091505090565b606060006121856120b0565b905080600301805461219690613571565b80601f01602080910402602001604051908101604052809291908181526020018280546121c290613571565b801561220f5780601f106121e45761010080835404028352916020019161220f565b820191906000526020600020905b8154815290600101906020018083116121f257829003601f168201915b505050505091505090565b612222610f31565b15612259576040517fd93c066500000000000000000000000000000000000000000000000000000000815260040160405180910390fd5b565b600061226e6122686123ff565b8361240e565b9050919050565b6000806000806122878888888861244f565b9250925092506122978282612543565b829350505050949350505050565b6122af82826110f1565b6122f25780826040517fe2517d3f0000000000000000000000000000000000000000000000000000000081526004016122e99291906135a2565b60405180910390fd5b5050565b6122fe610f31565b612334576040517f8dfc202b00000000000000000000000000000000000000000000000000000000815260040160405180910390fd5b565b61233e6126a7565b612374576040517fd7e6bcf800000000000000000000000000000000000000000000000000000000815260040160405180910390fd5b565b61237e612336565b6000612388612016565b905060008160000160006101000a81548160ff02191690831515021790555050565b6123b2612336565b60006123bc6120b0565b9050828160020190816123cf919061376d565b50818160030190816123e1919061376d565b506000801b81600001819055506000801b8160010181905550505050565b60006124096126c7565b905090565b60006040517f190100000000000000000000000000000000000000000000000000000000000081528360028201528260228201526042812091505092915050565b60008060007f7fffffffffffffffffffffffffffffff5d576e7357a4501ddfe92f46681b20a08460001c111561248f576000600385925092509250612539565b6000600188888888604051600081526020016040526040516124b4949392919061384e565b6020604051602081039080840390855afa1580156124d6573d6000803e3d6000fd5b505050602060405103519050600073ffffffffffffffffffffffffffffffffffffffff168173ffffffffffffffffffffffffffffffffffffffff160361252a57600060016000801b93509350935050612539565b8060008060001b935093509350505b9450945094915050565b6000600381111561255757612556613893565b5b82600381111561256a57612569613893565b5b03156126a3576001600381111561258457612583613893565b5b82600381111561259757612596613893565b5b036125ce576040517ff645eedf00000000000000000000000000000000000000000000000000000000815260040160405180910390fd5b600260038111156125e2576125e1613893565b5b8260038111156125f5576125f4613893565b5b0361263a578060001c6040517ffce698f70000000000000000000000000000000000000000000000000000000081526004016126319190612901565b60405180910390fd5b60038081111561264d5761264c613893565b5b8260038111156126605761265f613893565b5b036126a257806040517fd78bce0c000000000000000000000000000000000000000000000000000000008152600401612699919061298e565b60405180910390fd5b5b5050565b60006126b1611fc6565b60000160089054906101000a900460ff16905090565b60007f8b73c3c69bb8fe3d512ecc4cf759cc79239f7b179b0ffacaa9a75d522b39400f6126f261272b565b6126fa6127a7565b46306040516020016127109594939291906138c2565b60405160208183030381529060405280519060200120905090565b6000806127366120b0565b905060006127426120d8565b905060008151111561275f578080519060200120925050506127a4565b6000826000015490506000801b811461277d578093505050506127a4565b7fc5d2460186f7233c927e7db2dcc703c0e500b653ca82273b7bfad8045d85a47093505050505b90565b6000806127b26120b0565b905060006127be612179565b90506000815111156127db57808051906020012092505050612820565b6000826001015490506000801b81146127f957809350505050612820565b7fc5d2460186f7233c927e7db2dcc703c0e500b653ca82273b7bfad8045d85a47093505050505b90565b600080fd5b600080fd5b60007fffffffff0000000000000000000000000000000000000000000000000000000082169050919050565b6128628161282d565b811461286d57600080fd5b50565b60008135905061287f81612859565b92915050565b60006020828403121561289b5761289a612823565b5b60006128a984828501612870565b91505092915050565b60008115159050919050565b6128c7816128b2565b82525050565b60006020820190506128e260008301846128be565b92915050565b6000819050919050565b6128fb816128e8565b82525050565b600060208201905061291660008301846128f2565b92915050565b6000819050919050565b61292f8161291c565b811461293a57600080fd5b50565b60008135905061294c81612926565b92915050565b60006020828403121561296857612967612823565b5b60006129768482850161293d565b91505092915050565b6129888161291c565b82525050565b60006020820190506129a3600083018461297f565b92915050565b600073ffffffffffffffffffffffffffffffffffffffff82169050919050565b60006129d4826129a9565b9050919050565b6129e4816129c9565b81146129ef57600080fd5b50565b600081359050612a01816129db565b92915050565b60008060408385031215612a1e57612a1d612823565b5b6000612a2c8582860161293d565b9250506020612a3d858286016129f2565b9150509250929050565b600080fd5b600080fd5b600080fd5b60008083601f840112612a6c57612a6b612a47565b5b8235905067ffffffffffffffff811115612a8957612a88612a4c565b5b602083019150836020820283011115612aa557612aa4612a51565b5b9250929050565b60008083601f840112612ac257612ac1612a47565b5b8235905067ffffffffffffffff811115612adf57612ade612a4c565b5b602083019150836020820283011115612afb57612afa612a51565b5b9250929050565b60008083601f840112612b1857612b17612a47565b5b8235905067ffffffffffffffff811115612b3557612b34612a4c565b5b602083019150836020820283011115612b5157612b50612a51565b5b9250929050565b60008083601f840112612b6e57612b6d612a47565b5b8235905067ffffffffffffffff811115612b8b57612b8a612a4c565b5b602083019150836001820283011115612ba757612ba6612a51565b5b9250929050565b6000806000806000806000806080898b031215612bce57612bcd612823565b5b600089013567ffffffffffffffff811115612bec57612beb612828565b5b612bf88b828c01612a56565b9850985050602089013567ffffffffffffffff811115612c1b57612c1a612828565b5b612c278b828c01612aac565b9650965050604089013567ffffffffffffffff811115612c4a57612c49612828565b5b612c568b828c01612b02565b9450945050606089013567ffffffffffffffff811115612c7957612c78612828565b5b612c858b828c01612b58565b92509250509295985092959890939650565b612ca0816128e8565b8114612cab57600080fd5b50565b600081359050612cbd81612c97565b92915050565b600080600080600060808688031215612cdf57612cde612823565b5b6000612ced888289016129f2565b9550506020612cfe88828901612cae565b9450506040612d0f88828901612870565b935050606086013567ffffffffffffffff811115612d3057612d2f612828565b5b612d3c88828901612b58565b92509250509295509295909350565b60008060408385031215612d6257612d61612823565b5b6000612d70858286016129f2565b9250506020612d81858286016129f2565b9150509250929050565b600060208284031215612da157612da0612823565b5b6000612daf848285016129f2565b91505092915050565b60007fff0000000000000000000000000000000000000000000000000000000000000082169050919050565b612ded81612db8565b82525050565b600081519050919050565b600082825260208201905092915050565b60005b83811015612e2d578082015181840152602081019050612e12565b60008484015250505050565b6000601f19601f8301169050919050565b6000612e5582612df3565b612e5f8185612dfe565b9350612e6f818560208601612e0f565b612e7881612e39565b840191505092915050565b612e8c816129c9565b82525050565b600081519050919050565b600082825260208201905092915050565b6000819050602082019050919050565b612ec7816128e8565b82525050565b6000612ed98383612ebe565b60208301905092915050565b6000602082019050919050565b6000612efd82612e92565b612f078185612e9d565b9350612f1283612eae565b8060005b83811015612f43578151612f2a8882612ecd565b9750612f3583612ee5565b925050600181019050612f16565b5085935050505092915050565b600060e082019050612f65600083018a612de4565b8181036020830152612f778189612e4a565b90508181036040830152612f8b8188612e4a565b9050612f9a60608301876128f2565b612fa76080830186612e83565b612fb460a083018561297f565b81810360c0830152612fc68184612ef2565b905098975050505050505050565b600060ff82169050919050565b612fea81612fd4565b8114612ff557600080fd5b50565b60008135905061300781612fe1565b92915050565b600080600080600080600060e0888a03121561302c5761302b612823565b5b600061303a8a828b016129f2565b975050602061304b8a828b016129f2565b965050604061305c8a828b01612cae565b955050606061306d8a828b01612cae565b945050608061307e8a828b01612ff8565b93505060a061308f8a828b0161293d565b92505060c06130a08a828b0161293d565b91505092959891949750929550565b600080604083850312156130c6576130c5612823565b5b60006130d4858286016129f2565b92505060206130e585828601612cae565b9150509250929050565b6000819050919050565b600061311461310f61310a846129a9565b6130ef565b6129a9565b9050919050565b6000613126826130f9565b9050919050565b60006131388261311b565b9050919050565b6131488161312d565b82525050565b6000602082019050613163600083018461313f565b92915050565b600060208201905061317e6000830184612e83565b92915050565b60008151905061319381612c97565b92915050565b6000602082840312156131af576131ae612823565b5b60006131bd84828501613184565b91505092915050565b7f4e487b7100000000000000000000000000000000000000000000000000000000600052603260045260246000fd5b7f4e487b7100000000000000000000000000000000000000000000000000000000600052601160045260246000fd5b600061322f826128e8565b915061323a836128e8565b9250828201905080821115613252576132516131f5565b5b92915050565b600060608201905061326d6000830186612e83565b61327a6020830185612e83565b61328760408301846128f2565b949350505050565b613298816128b2565b81146132a357600080fd5b50565b6000815190506132b58161328f565b92915050565b6000602082840312156132d1576132d0612823565b5b60006132df848285016132a6565b91505092915050565b82818337600083830152505050565b60006133038385612dfe565b93506133108385846132e8565b61331983612e39565b840190509392505050565b600060408201905061333960008301866128f2565b818103602083015261334c8184866132f7565b9050949350505050565b6000819050919050565b600067ffffffffffffffff82169050919050565b600061338f61338a61338584613356565b6130ef565b613360565b9050919050565b61339f81613374565b82525050565b60006020820190506133ba6000830184613396565b92915050565b7f4549503731323a20556e696e697469616c697a65640000000000000000000000600082015250565b60006133f6601583612dfe565b9150613401826133c0565b602082019050919050565b60006020820190508181036000830152613425816133e9565b9050919050565b7f4e487b7100000000000000000000000000000000000000000000000000000000600052604160045260246000fd5b600060c082019050613470600083018961297f565b61347d6020830188612e83565b61348a6040830187612e83565b61349760608301866128f2565b6134a460808301856128f2565b6134b160a08301846128f2565b979650505050505050565b60006134c7826128e8565b91506134d2836128e8565b92508282039050818111156134ea576134e96131f5565b5b92915050565b60006040820190506135056000830185612e83565b61351260208301846128f2565b9392505050565b600060408201905061352e6000830185612e83565b61353b60208301846128be565b9392505050565b7f4e487b7100000000000000000000000000000000000000000000000000000000600052602260045260246000fd5b6000600282049050600182168061358957607f821691505b60208210810361359c5761359b613542565b5b50919050565b60006040820190506135b76000830185612e83565b6135c4602083018461297f565b9392505050565b60008190508160005260206000209050919050565b60006020601f8301049050919050565b600082821b905092915050565b60006008830261362d7fffffffffffffffffffffffffffffffffffffffffffffffffffffffffffffffff826135f0565b61363786836135f0565b95508019841693508086168417925050509392505050565b600061366a613665613660846128e8565b6130ef565b6128e8565b9050919050565b6000819050919050565b6136848361364f565b61369861369082613671565b8484546135fd565b825550505050565b600090565b6136ad6136a0565b6136b881848461367b565b505050565b5b818110156136dc576136d16000826136a5565b6001810190506136be565b5050565b601f821115613721576136f2816135cb565b6136fb846135e0565b8101602085101561370a578190505b61371e613716856135e0565b8301826136bd565b50505b505050565b600082821c905092915050565b600061374460001984600802613726565b1980831691505092915050565b600061375d8383613733565b9150826002028217905092915050565b61377682612df3565b67ffffffffffffffff81111561378f5761378e61342c565b5b6137998254613571565b6137a48282856136e0565b600060209050601f8311600181146137d757600084156137c5578287015190505b6137cf8582613751565b865550613837565b601f1984166137e5866135cb565b60005b8281101561380d578489015182556001820191506020850194506020810190506137e8565b8683101561382a5784890151613826601f891682613733565b8355505b6001600288020188555050505b505050505050565b61384881612fd4565b82525050565b6000608082019050613863600083018761297f565b613870602083018661383f565b61387d604083018561297f565b61388a606083018461297f565b95945050505050565b7f4e487b7100000000000000000000000000000000000000000000000000000000600052602160045260246000fd5b600060a0820190506138d7600083018861297f565b6138e4602083018761297f565b6138f1604083018661297f565b6138fe60608301856128f2565b61390b6080830184612e83565b969550505050505056fea264697066735822122065a0a9bc2cc12728b8707800f6020852fdd1bf388619841db2382dbaa61fee3c64736f6c63430008180033",
  "linkReferences": {},
  "deployedLinkReferences": {}
}