{
  "_format": "hh-sol-artifact-1",
  "contractName": "MoxiePassVerifier",
  "sourceName": "contracts/MoxiePassVerifier.sol",
  "abi": [
    {
      "inputs": [
        {
          "internalType": "address",
          "name": "_ownerAddress",
          "type": "address"
        }
      ],
      "stateMutability": "nonpayable",
      "type": "constructor"
    },
    {
      "inputs": [],
      "name": "MoxiePassVerifier_NotaMoxiePassHolder",
      "type": "error"
    },
    {
      "inputs": [
        {
          "internalType": "address",
          "name": "owner",
          "type": "address"
        }
      ],
      "name": "OwnableInvalidOwner",
      "type": "error"
    },
    {
      "inputs": [
        {
          "internalType": "address",
          "name": "account",
          "type": "address"
        }
      ],
      "name": "OwnableUnauthorizedAccount",
      "type": "error"
    },
    {
      "anonymous": false,
      "inputs": [
        {
          "indexed": true,
          "internalType": "address",
          "name": "previousOwner",
          "type": "address"
        },
        {
          "indexed": true,
          "internalType": "address",
          "name": "newOwner",
          "type": "address"
        }
      ],
      "name": "OwnershipTransferred",
      "type": "event"
    },
    {
      "inputs": [],
      "name": "erc721ContractAddress",
      "outputs": [
        {
          "internalType": "contract IERC721",
          "name": "",
          "type": "address"
        }
      ],
      "stateMutability": "view",
      "type": "function"
    },
    {
      "inputs": [
        {
          "internalType": "address",
          "name": "user",
          "type": "address"
        },
        {
          "internalType": "uint256",
          "name": "auctionId",
          "type": "uint256"
        },
        {
          "internalType": "bytes",
          "name": "",
          "type": "bytes"
        }
      ],
      "name": "isAllowed",
      "outputs": [
        {
          "internalType": "bytes4",
          "name": "",
          "type": "bytes4"
        }
      ],
      "stateMutability": "view",
      "type": "function"
    },
    {
      "inputs": [
        {
          "internalType": "address",
          "name": "_address",
          "type": "address"
        }
      ],
      "name": "isMoxiePassHolder",
      "outputs": [
        {
          "internalType": "bool",
          "name": "",
          "type": "bool"
        }
      ],
      "stateMutability": "view",
      "type": "function"
    },
    {
      "inputs": [],
      "name": "owner",
      "outputs": [
        {
          "internalType": "address",
          "name": "",
          "type": "address"
        }
      ],
      "stateMutability": "view",
      "type": "function"
    },
    {
      "inputs": [],
      "name": "renounceOwnership",
      "outputs": [],
      "stateMutability": "nonpayable",
      "type": "function"
    },
    {
      "inputs": [
        {
          "internalType": "address",
          "name": "_erc721ContractAddress",
          "type": "address"
        }
      ],
      "name": "setErc721ContractAddress",
      "outputs": [],
      "stateMutability": "nonpayable",
      "type": "function"
    },
    {
      "inputs": [
        {
          "internalType": "address",
          "name": "newOwner",
          "type": "address"
        }
      ],
      "name": "transferOwnership",
      "outputs": [],
      "stateMutability": "nonpayable",
      "type": "function"
    }
  ],
  "bytecode": "0x608060405234801561001057600080fd5b5060405162000c0338038062000c03833981810160405281019061003491906101e4565b80600073ffffffffffffffffffffffffffffffffffffffff168173ffffffffffffffffffffffffffffffffffffffff16036100a75760006040517f1e4fbdf700000000000000000000000000000000000000000000000000000000815260040161009e9190610220565b60405180910390fd5b6100b6816100bd60201b60201c565b505061023b565b60008060009054906101000a900473ffffffffffffffffffffffffffffffffffffffff169050816000806101000a81548173ffffffffffffffffffffffffffffffffffffffff021916908373ffffffffffffffffffffffffffffffffffffffff1602179055508173ffffffffffffffffffffffffffffffffffffffff168173ffffffffffffffffffffffffffffffffffffffff167f8be0079c531659141344cd1fd0a4f28419497f9722a3daafe3b4186f6b6457e060405160405180910390a35050565b600080fd5b600073ffffffffffffffffffffffffffffffffffffffff82169050919050565b60006101b182610186565b9050919050565b6101c1816101a6565b81146101cc57600080fd5b50565b6000815190506101de816101b8565b92915050565b6000602082840312156101fa576101f9610181565b5b6000610208848285016101cf565b91505092915050565b61021a816101a6565b82525050565b60006020820190506102356000830184610211565b92915050565b6109b8806200024b6000396000f3fe608060405234801561001057600080fd5b506004361061007d5760003560e01c80637c5636111161005b5780637c563611146100da5780638da5cb5b1461010a5780638e77b3c014610128578063f2fde38b146101445761007d565b806319a05a7e14610082578063715018a6146100b25780637bcb5fcc146100bc575b600080fd5b61009c6004803603810190610097919061076f565b610160565b6040516100a9919061081e565b60405180910390f35b6100ba6102dd565b005b6100c46102f1565b6040516100d19190610898565b60405180910390f35b6100f460048036038101906100ef91906108b3565b610317565b60405161010191906108fb565b60405180910390f35b61011261041e565b60405161011f9190610925565b60405180910390f35b610142600480360381019061013d91906108b3565b610447565b005b61015e600480360381019061015991906108b3565b610493565b005b60008073ffffffffffffffffffffffffffffffffffffffff168573ffffffffffffffffffffffffffffffffffffffff16036101a157600060e01b90506102d5565b600084036101b557600060e01b90506102d5565b600073ffffffffffffffffffffffffffffffffffffffff16600160009054906101000a900473ffffffffffffffffffffffffffffffffffffffff1673ffffffffffffffffffffffffffffffffffffffff160361021a576319a05a7e60e01b90506102d5565b6000600160009054906101000a900473ffffffffffffffffffffffffffffffffffffffff1673ffffffffffffffffffffffffffffffffffffffff166370a08231876040518263ffffffff1660e01b81526004016102779190610925565b602060405180830381865afa158015610294573d6000803e3d6000fd5b505050506040513d601f19601f820116820180604052508101906102b89190610955565b11156102cd576319a05a7e60e01b90506102d5565b600060e01b90505b949350505050565b6102e5610519565b6102ef60006105a0565b565b600160009054906101000a900473ffffffffffffffffffffffffffffffffffffffff1681565b60008073ffffffffffffffffffffffffffffffffffffffff16600160009054906101000a900473ffffffffffffffffffffffffffffffffffffffff1673ffffffffffffffffffffffffffffffffffffffff16036103775760019050610419565b6000600160009054906101000a900473ffffffffffffffffffffffffffffffffffffffff1673ffffffffffffffffffffffffffffffffffffffff166370a08231846040518263ffffffff1660e01b81526004016103d49190610925565b602060405180830381865afa1580156103f1573d6000803e3d6000fd5b505050506040513d601f19601f820116820180604052508101906104159190610955565b1190505b919050565b60008060009054906101000a900473ffffffffffffffffffffffffffffffffffffffff16905090565b61044f610519565b80600160006101000a81548173ffffffffffffffffffffffffffffffffffffffff021916908373ffffffffffffffffffffffffffffffffffffffff16021790555050565b61049b610519565b600073ffffffffffffffffffffffffffffffffffffffff168173ffffffffffffffffffffffffffffffffffffffff160361050d5760006040517f1e4fbdf70000000000000000000000000000000000000000000000000000000081526004016105049190610925565b60405180910390fd5b610516816105a0565b50565b610521610664565b73ffffffffffffffffffffffffffffffffffffffff1661053f61041e565b73ffffffffffffffffffffffffffffffffffffffff161461059e57610562610664565b6040517f118cdaa70000000000000000000000000000000000000000000000000000000081526004016105959190610925565b60405180910390fd5b565b60008060009054906101000a900473ffffffffffffffffffffffffffffffffffffffff169050816000806101000a81548173ffffffffffffffffffffffffffffffffffffffff021916908373ffffffffffffffffffffffffffffffffffffffff1602179055508173ffffffffffffffffffffffffffffffffffffffff168173ffffffffffffffffffffffffffffffffffffffff167f8be0079c531659141344cd1fd0a4f28419497f9722a3daafe3b4186f6b6457e060405160405180910390a35050565b600033905090565b600080fd5b600080fd5b600073ffffffffffffffffffffffffffffffffffffffff82169050919050565b60006106a182610676565b9050919050565b6106b181610696565b81146106bc57600080fd5b50565b6000813590506106ce816106a8565b92915050565b6000819050919050565b6106e7816106d4565b81146106f257600080fd5b50565b600081359050610704816106de565b92915050565b600080fd5b600080fd5b600080fd5b60008083601f84011261072f5761072e61070a565b5b8235905067ffffffffffffffff81111561074c5761074b61070f565b5b60208301915083600182028301111561076857610767610714565b5b9250929050565b600080600080606085870312156107895761078861066c565b5b6000610797878288016106bf565b94505060206107a8878288016106f5565b935050604085013567ffffffffffffffff8111156107c9576107c8610671565b5b6107d587828801610719565b925092505092959194509250565b60007fffffffff0000000000000000000000000000000000000000000000000000000082169050919050565b610818816107e3565b82525050565b6000602082019050610833600083018461080f565b92915050565b6000819050919050565b600061085e61085961085484610676565b610839565b610676565b9050919050565b600061087082610843565b9050919050565b600061088282610865565b9050919050565b61089281610877565b82525050565b60006020820190506108ad6000830184610889565b92915050565b6000602082840312156108c9576108c861066c565b5b60006108d7848285016106bf565b91505092915050565b60008115159050919050565b6108f5816108e0565b82525050565b600060208201905061091060008301846108ec565b92915050565b61091f81610696565b82525050565b600060208201905061093a6000830184610916565b92915050565b60008151905061094f816106de565b92915050565b60006020828403121561096b5761096a61066c565b5b600061097984828501610940565b9150509291505056fea2646970667358221220aa001e36e7373c48746ac46d835e8e9e271a05e3801ae10032ce3c5636cd017a64736f6c63430008180033",
  "linkReferences": {},
  "deployedLinkReferences": {}
}