{
  "_format": "hh-sol-artifact-1",
  "contractName": "Staking",
  "sourceName": "contracts/Staking.sol",
  "abi": [
    {
      "inputs": [],
      "name": "AccessControlBadConfirmation",
      "type": "error"
    },
    {
      "inputs": [
        {
          "internalType": "address",
          "name": "account",
          "type": "address"
        },
        {
          "internalType": "bytes32",
          "name": "neededRole",
          "type": "bytes32"
        }
      ],
      "name": "AccessControlUnauthorizedAccount",
      "type": "error"
    },
    {
      "inputs": [
        {
          "internalType": "address",
          "name": "target",
          "type": "address"
        }
      ],
      "name": "AddressEmptyCode",
      "type": "error"
    },
    {
      "inputs": [
        {
          "internalType": "address",
          "name": "account",
          "type": "address"
        }
      ],
      "name": "AddressInsufficientBalance",
      "type": "error"
    },
    {
      "inputs": [],
      "name": "EnforcedPause",
      "type": "error"
    },
    {
      "inputs": [],
      "name": "ExpectedPause",
      "type": "error"
    },
    {
      "inputs": [],
      "name": "FailedInnerCall",
      "type": "error"
    },
    {
      "inputs": [],
      "name": "InvalidInitialization",
      "type": "error"
    },
    {
      "inputs": [],
      "name": "NotInitializing",
      "type": "error"
    },
    {
      "inputs": [],
      "name": "ReentrancyGuardReentrantCall",
      "type": "error"
    },
    {
      "inputs": [
        {
          "internalType": "address",
          "name": "token",
          "type": "address"
        }
      ],
      "name": "SafeERC20FailedOperation",
      "type": "error"
    },
    {
      "inputs": [],
      "name": "Staking_AlreadyWithdrawn",
      "type": "error"
    },
    {
      "inputs": [],
      "name": "Staking_AmountShouldBeGreaterThanZero",
      "type": "error"
    },
    {
      "inputs": [],
      "name": "Staking_EmptyIndexes",
      "type": "error"
    },
    {
      "inputs": [],
      "name": "Staking_InvalidBeneficiary",
      "type": "error"
    },
    {
      "inputs": [],
      "name": "Staking_InvalidDefaultAdmin",
      "type": "error"
    },
    {
      "inputs": [
        {
          "internalType": "uint256",
          "name": "index",
          "type": "uint256"
        }
      ],
      "name": "Staking_InvalidIndex",
      "type": "error"
    },
    {
      "inputs": [],
      "name": "Staking_InvalidInputLength",
      "type": "error"
    },
    {
      "inputs": [],
      "name": "Staking_InvalidLockPeriod",
      "type": "error"
    },
    {
      "inputs": [],
      "name": "Staking_InvalidMoxieBondingCurve",
      "type": "error"
    },
    {
      "inputs": [],
      "name": "Staking_InvalidMoxieToken",
      "type": "error"
    },
    {
      "inputs": [],
      "name": "Staking_InvalidSubject",
      "type": "error"
    },
    {
      "inputs": [],
      "name": "Staking_InvalidSubjectToken",
      "type": "error"
    },
    {
      "inputs": [],
      "name": "Staking_InvalidTokenManager",
      "type": "error"
    },
    {
      "inputs": [
        {
          "internalType": "uint256",
          "name": "index",
          "type": "uint256"
        },
        {
          "internalType": "uint256",
          "name": "currentTime",
          "type": "uint256"
        },
        {
          "internalType": "uint256",
          "name": "unlockTime",
          "type": "uint256"
        }
      ],
      "name": "Staking_LockNotExpired",
      "type": "error"
    },
    {
      "inputs": [],
      "name": "Staking_LockPeriodAlreadySet",
      "type": "error"
    },
    {
      "inputs": [
        {
          "internalType": "uint256",
          "name": "index",
          "type": "uint256"
        }
      ],
      "name": "Staking_NotOwner",
      "type": "error"
    },
    {
      "inputs": [
        {
          "internalType": "uint256",
          "name": "index",
          "type": "uint256"
        }
      ],
      "name": "Staking_NotSameUser",
      "type": "error"
    },
    {
      "inputs": [
        {
          "internalType": "uint256",
          "name": "index",
          "type": "uint256"
        }
      ],
      "name": "Staking_SubjectsDoesNotMatch",
      "type": "error"
    },
    {
      "anonymous": false,
      "inputs": [
        {
          "indexed": false,
          "internalType": "uint64",
          "name": "version",
          "type": "uint64"
        }
      ],
      "name": "Initialized",
      "type": "event"
    },
    {
      "anonymous": false,
      "inputs": [
        {
          "indexed": true,
          "internalType": "address",
          "name": "_user",
          "type": "address"
        },
        {
          "indexed": true,
          "internalType": "address",
          "name": "_subject",
          "type": "address"
        },
        {
          "indexed": true,
          "internalType": "address",
          "name": "_subjectToken",
          "type": "address"
        },
        {
          "indexed": false,
          "internalType": "uint256",
          "name": "_index",
          "type": "uint256"
        },
        {
          "indexed": false,
          "internalType": "uint256",
          "name": "_amount",
          "type": "uint256"
        },
        {
          "indexed": false,
          "internalType": "uint256",
          "name": "_unlockTimeInSec",
          "type": "uint256"
        },
        {
          "indexed": false,
          "internalType": "uint256",
          "name": "_lockPeriodInSec",
          "type": "uint256"
        },
        {
          "indexed": false,
          "internalType": "bool",
          "name": "_isBuy",
          "type": "bool"
        }
      ],
      "name": "Lock",
      "type": "event"
    },
    {
      "anonymous": false,
      "inputs": [
        {
          "indexed": true,
          "internalType": "address",
          "name": "_user",
          "type": "address"
        },
        {
          "indexed": true,
          "internalType": "address",
          "name": "_subject",
          "type": "address"
        },
        {
          "indexed": true,
          "internalType": "address",
          "name": "_subjectToken",
          "type": "address"
        },
        {
          "indexed": false,
          "internalType": "uint256[]",
          "name": "_indexes",
          "type": "uint256[]"
        },
        {
          "indexed": false,
          "internalType": "uint256",
          "name": "_amount",
          "type": "uint256"
        }
      ],
      "name": "LockExtended",
      "type": "event"
    },
    {
      "anonymous": false,
      "inputs": [
        {
          "indexed": true,
          "internalType": "uint256",
          "name": "_lockPeriodInSec",
          "type": "uint256"
        },
        {
          "indexed": true,
          "internalType": "bool",
          "name": "_allowed",
          "type": "bool"
        }
      ],
      "name": "LockPeriodUpdated",
      "type": "event"
    },
    {
      "anonymous": false,
      "inputs": [
        {
          "indexed": false,
          "internalType": "address",
          "name": "account",
          "type": "address"
        }
      ],
      "name": "Paused",
      "type": "event"
    },
    {
      "anonymous": false,
      "inputs": [
        {
          "indexed": true,
          "internalType": "bytes32",
          "name": "role",
          "type": "bytes32"
        },
        {
          "indexed": true,
          "internalType": "bytes32",
          "name": "previousAdminRole",
          "type": "bytes32"
        },
        {
          "indexed": true,
          "internalType": "bytes32",
          "name": "newAdminRole",
          "type": "bytes32"
        }
      ],
      "name": "RoleAdminChanged",
      "type": "event"
    },
    {
      "anonymous": false,
      "inputs": [
        {
          "indexed": true,
          "internalType": "bytes32",
          "name": "role",
          "type": "bytes32"
        },
        {
          "indexed": true,
          "internalType": "address",
          "name": "account",
          "type": "address"
        },
        {
          "indexed": true,
          "internalType": "address",
          "name": "sender",
          "type": "address"
        }
      ],
      "name": "RoleGranted",
      "type": "event"
    },
    {
      "anonymous": false,
      "inputs": [
        {
          "indexed": true,
          "internalType": "bytes32",
          "name": "role",
          "type": "bytes32"
        },
        {
          "indexed": true,
          "internalType": "address",
          "name": "account",
          "type": "address"
        },
        {
          "indexed": true,
          "internalType": "address",
          "name": "sender",
          "type": "address"
        }
      ],
      "name": "RoleRevoked",
      "type": "event"
    },
    {
      "anonymous": false,
      "inputs": [
        {
          "indexed": false,
          "internalType": "address",
          "name": "account",
          "type": "address"
        }
      ],
      "name": "Unpaused",
      "type": "event"
    },
    {
      "anonymous": false,
      "inputs": [
        {
          "indexed": true,
          "internalType": "address",
          "name": "_user",
          "type": "address"
        },
        {
          "indexed": true,
          "internalType": "address",
          "name": "_subject",
          "type": "address"
        },
        {
          "indexed": true,
          "internalType": "address",
          "name": "_subjectToken",
          "type": "address"
        },
        {
          "indexed": false,
          "internalType": "uint256[]",
          "name": "_indexes",
          "type": "uint256[]"
        },
        {
          "indexed": false,
          "internalType": "uint256",
          "name": "_amount",
          "type": "uint256"
        }
      ],
      "name": "Withdraw",
      "type": "event"
    },
    {
      "inputs": [],
      "name": "CHANGE_LOCK_DURATION",
      "outputs": [
        {
          "internalType": "bytes32",
          "name": "",
          "type": "bytes32"
        }
      ],
      "stateMutability": "view",
      "type": "function"
    },
    {
      "inputs": [],
      "name": "DEFAULT_ADMIN_ROLE",
      "outputs": [
        {
          "internalType": "bytes32",
          "name": "",
          "type": "bytes32"
        }
      ],
      "stateMutability": "view",
      "type": "function"
    },
    {
      "inputs": [],
      "name": "PAUSE_ROLE",
      "outputs": [
        {
          "internalType": "bytes32",
          "name": "",
          "type": "bytes32"
        }
      ],
      "stateMutability": "view",
      "type": "function"
    },
    {
      "inputs": [
        {
          "internalType": "address",
          "name": "_subject",
          "type": "address"
        },
        {
          "internalType": "uint256",
          "name": "_depositAmount",
          "type": "uint256"
        },
        {
          "internalType": "uint256",
          "name": "_minReturnAmountAfterFee",
          "type": "uint256"
        },
        {
          "internalType": "uint256",
          "name": "_lockPeriodInSec",
          "type": "uint256"
        }
      ],
      "name": "buyAndLock",
      "outputs": [
        {
          "internalType": "uint256",
          "name": "amount_",
          "type": "uint256"
        },
        {
          "internalType": "uint256",
          "name": "unlockTimeInSec_",
          "type": "uint256"
        }
      ],
      "stateMutability": "nonpayable",
      "type": "function"
    },
    {
      "inputs": [
        {
          "internalType": "address",
          "name": "_subject",
          "type": "address"
        },
        {
          "internalType": "uint256",
          "name": "_depositAmount",
          "type": "uint256"
        },
        {
          "internalType": "uint256",
          "name": "_minReturnAmountAfterFee",
          "type": "uint256"
        },
        {
          "internalType": "uint256",
          "name": "_lockPeriodInSec",
          "type": "uint256"
        },
        {
          "internalType": "address",
          "name": "_beneficiary",
          "type": "address"
        }
      ],
      "name": "buyAndLockFor",
      "outputs": [
        {
          "internalType": "uint256",
          "name": "amount_",
          "type": "uint256"
        },
        {
          "internalType": "uint256",
          "name": "unlockTimeInSec_",
          "type": "uint256"
        }
      ],
      "stateMutability": "nonpayable",
      "type": "function"
    },
    {
      "inputs": [
        {
          "internalType": "address[]",
          "name": "_subjects",
          "type": "address[]"
        },
        {
          "internalType": "uint256[]",
          "name": "_depositAmounts",
          "type": "uint256[]"
        },
        {
          "internalType": "uint256[]",
          "name": "_minReturnAmountsAfterFee",
          "type": "uint256[]"
        },
        {
          "internalType": "uint256",
          "name": "_lockPeriodsInSec",
          "type": "uint256"
        }
      ],
      "name": "buyAndLockMultiple",
      "outputs": [
        {
          "internalType": "uint256[]",
          "name": "amounts_",
          "type": "uint256[]"
        },
        {
          "internalType": "uint256",
          "name": "unlockTimeInSec_",
          "type": "uint256"
        }
      ],
      "stateMutability": "nonpayable",
      "type": "function"
    },
    {
      "inputs": [
        {
          "internalType": "address[]",
          "name": "_subjects",
          "type": "address[]"
        },
        {
          "internalType": "uint256[]",
          "name": "_depositAmounts",
          "type": "uint256[]"
        },
        {
          "internalType": "uint256[]",
          "name": "_minReturnAmountsAfterFee",
          "type": "uint256[]"
        },
        {
          "internalType": "uint256",
          "name": "_lockPeriodsInSec",
          "type": "uint256"
        },
        {
          "internalType": "address",
          "name": "_beneficiary",
          "type": "address"
        }
      ],
      "name": "buyAndLockMultipleFor",
      "outputs": [
        {
          "internalType": "uint256[]",
          "name": "amounts_",
          "type": "uint256[]"
        },
        {
          "internalType": "uint256",
          "name": "unlockTimeInSec_",
          "type": "uint256"
        }
      ],
      "stateMutability": "nonpayable",
      "type": "function"
    },
    {
      "inputs": [
        {
          "internalType": "address",
          "name": "_subject",
          "type": "address"
        },
        {
          "internalType": "uint256",
          "name": "_amount",
          "type": "uint256"
        },
        {
          "internalType": "uint256",
          "name": "_lockPeriodInSec",
          "type": "uint256"
        }
      ],
      "name": "depositAndLock",
      "outputs": [
        {
          "internalType": "uint256",
          "name": "unlockTimeInSec_",
          "type": "uint256"
        }
      ],
      "stateMutability": "nonpayable",
      "type": "function"
    },
    {
      "inputs": [
        {
          "internalType": "address",
          "name": "_subject",
          "type": "address"
        },
        {
          "internalType": "uint256",
          "name": "_amount",
          "type": "uint256"
        },
        {
          "internalType": "uint256",
          "name": "_lockPeriodInSec",
          "type": "uint256"
        },
        {
          "internalType": "address",
          "name": "_beneficiary",
          "type": "address"
        }
      ],
      "name": "depositAndLockFor",
      "outputs": [
        {
          "internalType": "uint256",
          "name": "unlockTimeInSec_",
          "type": "uint256"
        }
      ],
      "stateMutability": "nonpayable",
      "type": "function"
    },
    {
      "inputs": [
        {
          "internalType": "address[]",
          "name": "_subjects",
          "type": "address[]"
        },
        {
          "internalType": "uint256[]",
          "name": "_amounts",
          "type": "uint256[]"
        },
        {
          "internalType": "uint256",
          "name": "_lockPeriodsInSec",
          "type": "uint256"
        }
      ],
      "name": "depositAndLockMultiple",
      "outputs": [
        {
          "internalType": "uint256[]",
          "name": "unlockTimeInSec_",
          "type": "uint256[]"
        }
      ],
      "stateMutability": "nonpayable",
      "type": "function"
    },
    {
      "inputs": [
        {
          "internalType": "address[]",
          "name": "_subjects",
          "type": "address[]"
        },
        {
          "internalType": "uint256[]",
          "name": "_amounts",
          "type": "uint256[]"
        },
        {
          "internalType": "uint256",
          "name": "_lockPeriodsInSec",
          "type": "uint256"
        },
        {
          "internalType": "address",
          "name": "_beneficiary",
          "type": "address"
        }
      ],
      "name": "depositAndLockMultipleFor",
      "outputs": [
        {
          "internalType": "uint256[]",
          "name": "unlockTimeInSec_",
          "type": "uint256[]"
        }
      ],
      "stateMutability": "nonpayable",
      "type": "function"
    },
    {
      "inputs": [
        {
          "internalType": "address",
          "name": "_subject",
          "type": "address"
        },
        {
          "internalType": "uint256[]",
          "name": "_indexes",
          "type": "uint256[]"
        },
        {
          "internalType": "uint256",
          "name": "_lockPeriodInSec",
          "type": "uint256"
        }
      ],
      "name": "extendLock",
      "outputs": [
        {
          "internalType": "uint256",
          "name": "totalAmount_",
          "type": "uint256"
        },
        {
          "internalType": "uint256",
          "name": "unlockTimeInSec_",
          "type": "uint256"
        }
      ],
      "stateMutability": "nonpayable",
      "type": "function"
    },
    {
      "inputs": [
        {
          "internalType": "address",
          "name": "_subject",
          "type": "address"
        },
        {
          "internalType": "uint256[]",
          "name": "_indexes",
          "type": "uint256[]"
        },
        {
          "internalType": "uint256",
          "name": "_lockPeriodInSec",
          "type": "uint256"
        },
        {
          "internalType": "address",
          "name": "_beneficiary",
          "type": "address"
        }
      ],
      "name": "extendLockFor",
      "outputs": [
        {
          "internalType": "uint256",
          "name": "totalAmount_",
          "type": "uint256"
        },
        {
          "internalType": "uint256",
          "name": "unlockTimeInSec_",
          "type": "uint256"
        }
      ],
      "stateMutability": "nonpayable",
      "type": "function"
    },
    {
      "inputs": [
        {
          "internalType": "bytes32",
          "name": "role",
          "type": "bytes32"
        }
      ],
      "name": "getRoleAdmin",
      "outputs": [
        {
          "internalType": "bytes32",
          "name": "",
          "type": "bytes32"
        }
      ],
      "stateMutability": "view",
      "type": "function"
    },
    {
      "inputs": [
        {
          "internalType": "address",
          "name": "_user",
          "type": "address"
        },
        {
          "internalType": "address",
          "name": "_subject",
          "type": "address"
        },
        {
          "internalType": "uint256[]",
          "name": "_indexes",
          "type": "uint256[]"
        }
      ],
      "name": "getTotalStakedAmount",
      "outputs": [
        {
          "internalType": "uint256",
          "name": "totalAmount_",
          "type": "uint256"
        }
      ],
      "stateMutability": "view",
      "type": "function"
    },
    {
      "inputs": [
        {
          "internalType": "bytes32",
          "name": "role",
          "type": "bytes32"
        },
        {
          "internalType": "address",
          "name": "account",
          "type": "address"
        }
      ],
      "name": "grantRole",
      "outputs": [],
      "stateMutability": "nonpayable",
      "type": "function"
    },
    {
      "inputs": [
        {
          "internalType": "bytes32",
          "name": "role",
          "type": "bytes32"
        },
        {
          "internalType": "address",
          "name": "account",
          "type": "address"
        }
      ],
      "name": "hasRole",
      "outputs": [
        {
          "internalType": "bool",
          "name": "",
          "type": "bool"
        }
      ],
      "stateMutability": "view",
      "type": "function"
    },
    {
      "inputs": [
        {
          "internalType": "address",
          "name": "_tokenManager",
          "type": "address"
        },
        {
          "internalType": "address",
          "name": "_moxieBondingCurve",
          "type": "address"
        },
        {
          "internalType": "address",
          "name": "_moxieToken",
          "type": "address"
        },
        {
          "internalType": "address",
          "name": "_defaultAdmin",
          "type": "address"
        }
      ],
      "name": "initialize",
      "outputs": [],
      "stateMutability": "nonpayable",
      "type": "function"
    },
    {
      "inputs": [],
      "name": "lockCount",
      "outputs": [
        {
          "internalType": "uint256",
          "name": "",
          "type": "uint256"
        }
      ],
      "stateMutability": "view",
      "type": "function"
    },
    {
      "inputs": [
        {
          "internalType": "uint256",
          "name": "lockPeriodInSec",
          "type": "uint256"
        }
      ],
      "name": "lockPeriodsInSec",
      "outputs": [
        {
          "internalType": "bool",
          "name": "allowed",
          "type": "bool"
        }
      ],
      "stateMutability": "view",
      "type": "function"
    },
    {
      "inputs": [
        {
          "internalType": "uint256",
          "name": "lockId",
          "type": "uint256"
        }
      ],
      "name": "locks",
      "outputs": [
        {
          "internalType": "address",
          "name": "user",
          "type": "address"
        },
        {
          "internalType": "address",
          "name": "subject",
          "type": "address"
        },
        {
          "internalType": "address",
          "name": "subjectToken",
          "type": "address"
        },
        {
          "internalType": "uint256",
          "name": "unlockTimeInSec",
          "type": "uint256"
        },
        {
          "internalType": "uint256",
          "name": "amount",
          "type": "uint256"
        },
        {
          "internalType": "uint256",
          "name": "lockPeriodInSec",
          "type": "uint256"
        }
      ],
      "stateMutability": "view",
      "type": "function"
    },
    {
      "inputs": [],
      "name": "moxieBondingCurve",
      "outputs": [
        {
          "internalType": "contract IMoxieBondingCurve",
          "name": "",
          "type": "address"
        }
      ],
      "stateMutability": "view",
      "type": "function"
    },
    {
      "inputs": [],
      "name": "moxieToken",
      "outputs": [
        {
          "internalType": "contract IERC20Extended",
          "name": "",
          "type": "address"
        }
      ],
      "stateMutability": "view",
      "type": "function"
    },
    {
      "inputs": [],
      "name": "pause",
      "outputs": [],
      "stateMutability": "nonpayable",
      "type": "function"
    },
    {
      "inputs": [],
      "name": "paused",
      "outputs": [
        {
          "internalType": "bool",
          "name": "",
          "type": "bool"
        }
      ],
      "stateMutability": "view",
      "type": "function"
    },
    {
      "inputs": [
        {
          "internalType": "bytes32",
          "name": "role",
          "type": "bytes32"
        },
        {
          "internalType": "address",
          "name": "callerConfirmation",
          "type": "address"
        }
      ],
      "name": "renounceRole",
      "outputs": [],
      "stateMutability": "nonpayable",
      "type": "function"
    },
    {
      "inputs": [
        {
          "internalType": "bytes32",
          "name": "role",
          "type": "bytes32"
        },
        {
          "internalType": "address",
          "name": "account",
          "type": "address"
        }
      ],
      "name": "revokeRole",
      "outputs": [],
      "stateMutability": "nonpayable",
      "type": "function"
    },
    {
      "inputs": [
        {
          "internalType": "uint256",
          "name": "_lockPeriodInSec",
          "type": "uint256"
        },
        {
          "internalType": "bool",
          "name": "_allowed",
          "type": "bool"
        }
      ],
      "name": "setLockPeriod",
      "outputs": [],
      "stateMutability": "nonpayable",
      "type": "function"
    },
    {
      "inputs": [
        {
          "internalType": "bytes4",
          "name": "interfaceId",
          "type": "bytes4"
        }
      ],
      "name": "supportsInterface",
      "outputs": [
        {
          "internalType": "bool",
          "name": "",
          "type": "bool"
        }
      ],
      "stateMutability": "view",
      "type": "function"
    },
    {
      "inputs": [],
      "name": "tokenManager",
      "outputs": [
        {
          "internalType": "contract ITokenManager",
          "name": "",
          "type": "address"
        }
      ],
      "stateMutability": "view",
      "type": "function"
    },
    {
      "inputs": [],
      "name": "unpause",
      "outputs": [],
      "stateMutability": "nonpayable",
      "type": "function"
    },
    {
      "inputs": [
        {
          "internalType": "address",
          "name": "_subject",
          "type": "address"
        },
        {
          "internalType": "uint256[]",
          "name": "_indexes",
          "type": "uint256[]"
        }
      ],
      "name": "withdraw",
      "outputs": [
        {
          "internalType": "uint256",
          "name": "totalAmount_",
          "type": "uint256"
        }
      ],
      "stateMutability": "nonpayable",
      "type": "function"
    }
  ],
  "bytecode": "0x608060405234801561001057600080fd5b50600160008190555061433c806100286000396000f3fe608060405234801561001057600080fd5b50600436106101f05760003560e01c806380aa59d71161010f578063cc98a1bc116100a2578063ee67f0ab11610071578063ee67f0ab14610621578063f4dadc6114610651578063f7b01a4914610686578063f8c8765e146106a4576101f0565b8063cc98a1bc14610588578063d475f26e146105b8578063d547741f146105e9578063dbfc77c414610605576101f0565b806391d14854116100de57806391d14854146104ec5780639b10b6f51461051c578063a217fddf1461053a578063a6da1e7d14610558576101f0565b806380aa59d7146104515780638293744b146104815780638456cb59146104b15780638e7e260e146104bb576101f0565b806337cfb944116101875780635c142f8f116101565780635c142f8f146103b45780635c975abb146103e45780636d9322a8146104025780636fe6e1f214610433576101f0565b806337cfb9441461032b578063389ed2671461035c5780633f4ba83a1461037a57806349cc79f114610384576101f0565b80632a709b14116101c35780632a709b14146102a45780632d922002146102c25780632f2ff15d146102f357806336568abe1461030f576101f0565b806301ffc9a7146101f5578063096532d314610225578063158a21e214610243578063248a9ca314610274575b600080fd5b61020f600480360381019061020a91906130fd565b6106c0565b60405161021c9190613145565b60405180910390f35b61022d61073a565b60405161023a9190613179565b60405180910390f35b61025d60048036038101906102589190613228565b61075e565b60405161026b9291906132b2565b60405180910390f35b61028e60048036038101906102899190613307565b6107e5565b60405161029b9190613179565b60405180910390f35b6102ac610813565b6040516102b99190613393565b60405180910390f35b6102dc60048036038101906102d791906133ae565b610839565b6040516102ea9291906132b2565b60405180910390f35b61030d60048036038101906103089190613415565b6108bf565b005b61032960048036038101906103249190613415565b6108e1565b005b610345600480360381019061034091906135ae565b61095c565b6040516103539291906132b2565b60405180910390f35b610364610a7a565b6040516103719190613179565b60405180910390f35b610382610a9e565b005b61039e600480360381019061039991906136e0565b610ad3565b6040516103ab919061383d565b60405180910390f35b6103ce60048036038101906103c9919061385f565b610bed565b6040516103db919061383d565b60405180910390f35b6103ec610d06565b6040516103f99190613145565b60405180910390f35b61041c600480360381019061041791906138ea565b610d2b565b60405161042a9291906139b9565b60405180910390f35b61043b610ed0565b6040516104489190613a0a565b60405180910390f35b61046b60048036038101906104669190613a80565b610ef6565b6040516104789190613af4565b60405180910390f35b61049b60048036038101906104969190613b0f565b61117b565b6040516104a89190613af4565b60405180910390f35b6104b9611257565b005b6104d560048036038101906104d09190613b6b565b61128c565b6040516104e39291906139b9565b60405180910390f35b61050660048036038101906105019190613415565b611430565b6040516105139190613145565b60405180910390f35b6105246114a9565b6040516105319190613af4565b60405180910390f35b6105426114af565b60405161054f9190613179565b60405180910390f35b610572600480360381019061056d9190613c26565b6114b6565b60405161057f9190613af4565b60405180910390f35b6105a2600480360381019061059d9190613c79565b6114dd565b6040516105af9190613145565b60405180910390f35b6105d260048036038101906105cd9190613ca6565b6114fd565b6040516105e09291906132b2565b60405180910390f35b61060360048036038101906105fe9190613415565b61161c565b005b61061f600480360381019061061a9190613d55565b61163e565b005b61063b60048036038101906106369190613d95565b611725565b6040516106489190613af4565b60405180910390f35b61066b60048036038101906106669190613c79565b61174d565b60405161067d96959493929190613e0b565b60405180910390f35b61068e6117e9565b60405161069b9190613e8d565b60405180910390f35b6106be60048036038101906106b99190613ea8565b61180f565b005b60007f7965db0b000000000000000000000000000000000000000000000000000000007bffffffffffffffffffffffffffffffffffffffffffffffffffffffff1916827bffffffffffffffffffffffffffffffffffffffffffffffffffffffff19161480610733575061073282611a85565b5b9050919050565b7f7ca588b5e450d40c42764eba69cbb46460b25758bda615268602d355e47bc5f281565b600080836006600082815260200190815260200160002060009054906101000a900460ff166107b9576040517fd1514d2300000000000000000000000000000000000000000000000000000000815260040160405180910390fd5b6107c1611aef565b6107ce8888888888611b35565b925092506107da611d0c565b509550959350505050565b6000806107f0611d16565b905080600001600084815260200190815260200160002060010154915050919050565b600160009054906101000a900473ffffffffffffffffffffffffffffffffffffffff1681565b600080826006600082815260200190815260200160002060009054906101000a900460ff16610894576040517fd1514d2300000000000000000000000000000000000000000000000000000000815260040160405180910390fd5b61089c611aef565b6108a98787878733611b35565b925092506108b5611d0c565b5094509492505050565b6108c8826107e5565b6108d181611d3e565b6108db8383611d52565b50505050565b6108e9611e53565b73ffffffffffffffffffffffffffffffffffffffff168173ffffffffffffffffffffffffffffffffffffffff161461094d576040517f6697b23200000000000000000000000000000000000000000000000000000000815260040160405180910390fd5b6109578282611e5b565b505050565b600080826006600082815260200190815260200160002060009054906101000a900460ff166109b7576040517fd1514d2300000000000000000000000000000000000000000000000000000000815260040160405180910390fd5b6109bf611aef565b60006109cb8787611f5d565b80955081925050508073ffffffffffffffffffffffffffffffffffffffff168773ffffffffffffffffffffffffffffffffffffffff163373ffffffffffffffffffffffffffffffffffffffff167f91abcbedcaad3eda62ec73be1f3b200f1beeeb47768774d2aebb0a196238e92d8988604051610a499291906139b9565b60405180910390a46000610a618886883360006124af565b9150508093505050610a71611d0c565b50935093915050565b7f139c2898040ef16910dc9f44dc697df79363da767d8bc92f2e310312b816e46d81565b7f139c2898040ef16910dc9f44dc697df79363da767d8bc92f2e310312b816e46d610ac881611d3e565b610ad06128ff565b50565b6060610add611aef565b8351855114610b18576040517ff189683a00000000000000000000000000000000000000000000000000000000815260040160405180910390fd5b845167ffffffffffffffff811115610b3357610b3261346b565b5b604051908082528060200260200182016040528015610b615781602001602082028036833780820191505090505b50905060005b8551811015610bdc57610bb0868281518110610b8657610b85613f0f565b5b6020026020010151868381518110610ba157610ba0613f0f565b5b60200260200101518686612971565b828281518110610bc357610bc2613f0f565b5b6020026020010181815250508080600101915050610b67565b50610be5611d0c565b949350505050565b6060610bf7611aef565b8251845114610c32576040517ff189683a00000000000000000000000000000000000000000000000000000000815260040160405180910390fd5b835167ffffffffffffffff811115610c4d57610c4c61346b565b5b604051908082528060200260200182016040528015610c7b5781602001602082028036833780820191505090505b50905060005b8451811015610cf657610cca858281518110610ca057610c9f613f0f565b5b6020026020010151858381518110610cbb57610cba613f0f565b5b60200260200101518533612971565b828281518110610cdd57610cdc613f0f565b5b6020026020010181815250508080600101915050610c81565b50610cff611d0c565b9392505050565b600080610d116129c0565b90508060000160009054906101000a900460ff1691505090565b60606000836006600082815260200190815260200160002060009054906101000a900460ff16610d87576040517fd1514d2300000000000000000000000000000000000000000000000000000000815260040160405180910390fd5b610d8f611aef565b86518851141580610da257508551885114155b15610dd9576040517ff189683a00000000000000000000000000000000000000000000000000000000815260040160405180910390fd5b875167ffffffffffffffff811115610df457610df361346b565b5b604051908082528060200260200182016040528015610e225781602001602082028036833780820191505090505b50925060005b8851811015610ebc57610e8c898281518110610e4757610e46613f0f565b5b6020026020010151898381518110610e6257610e61613f0f565b5b6020026020010151898481518110610e7d57610e7c613f0f565b5b60200260200101518989611b35565b858381518110610e9f57610e9e613f0f565b5b602002602001018195508281525050508080600101915050610e28565b50610ec5611d0c565b509550959350505050565b600360009054906101000a900473ffffffffffffffffffffffffffffffffffffffff1681565b600080600090505b83839050811015611172576000848483818110610f1e57610f1d613f0f565b5b9050602002013590506000600560008381526020019081526020016000206040518060c00160405290816000820160009054906101000a900473ffffffffffffffffffffffffffffffffffffffff1673ffffffffffffffffffffffffffffffffffffffff1673ffffffffffffffffffffffffffffffffffffffff1681526020016001820160009054906101000a900473ffffffffffffffffffffffffffffffffffffffff1673ffffffffffffffffffffffffffffffffffffffff1673ffffffffffffffffffffffffffffffffffffffff1681526020016002820160009054906101000a900473ffffffffffffffffffffffffffffffffffffffff1673ffffffffffffffffffffffffffffffffffffffff1673ffffffffffffffffffffffffffffffffffffffff168152602001600382015481526020016004820154815260200160058201548152505090508773ffffffffffffffffffffffffffffffffffffffff16816000015173ffffffffffffffffffffffffffffffffffffffff16146110dd57816040517ff6953e930000000000000000000000000000000000000000000000000000000081526004016110d49190613af4565b60405180910390fd5b8673ffffffffffffffffffffffffffffffffffffffff16816020015173ffffffffffffffffffffffffffffffffffffffff161461115157816040517fb5e6545c0000000000000000000000000000000000000000000000000000000081526004016111489190613af4565b60405180910390fd5b8060800151846111619190613f6d565b935050508080600101915050610efe565b50949350505050565b6000611185611aef565b60006111918484611f5d565b809350819250505060008190506111c933848373ffffffffffffffffffffffffffffffffffffffff166129e89092919063ffffffff16565b8173ffffffffffffffffffffffffffffffffffffffff168573ffffffffffffffffffffffffffffffffffffffff163373ffffffffffffffffffffffffffffffffffffffff167f9a854cd73e1d94f13ab58c2976ab2e4ca74d625e791ea082e840e556ce1c7a50878760405161123f9291906139b9565b60405180910390a45050611251611d0c565b92915050565b7f139c2898040ef16910dc9f44dc697df79363da767d8bc92f2e310312b816e46d61128181611d3e565b611289612a67565b50565b60606000826006600082815260200190815260200160002060009054906101000a900460ff166112e8576040517fd1514d2300000000000000000000000000000000000000000000000000000000815260040160405180910390fd5b6112f0611aef565b8551875114158061130357508451875114155b1561133a576040517ff189683a00000000000000000000000000000000000000000000000000000000815260040160405180910390fd5b865167ffffffffffffffff8111156113555761135461346b565b5b6040519080825280602002602001820160405280156113835781602001602082028036833780820191505090505b50925060005b875181101561141d576113ed8882815181106113a8576113a7613f0f565b5b60200260200101518883815181106113c3576113c2613f0f565b5b60200260200101518884815181106113de576113dd613f0f565b5b60200260200101518833611b35565b858381518110611400576113ff613f0f565b5b602002602001018195508281525050508080600101915050611389565b50611426611d0c565b5094509492505050565b60008061143b611d16565b905080600001600085815260200190815260200160002060000160008473ffffffffffffffffffffffffffffffffffffffff1673ffffffffffffffffffffffffffffffffffffffff16815260200190815260200160002060009054906101000a900460ff1691505092915050565b60045481565b6000801b81565b60006114c0611aef565b6114cc84848433612971565b90506114d6611d0c565b9392505050565b60066020528060005260406000206000915054906101000a900460ff1681565b600080836006600082815260200190815260200160002060009054906101000a900460ff16611558576040517fd1514d2300000000000000000000000000000000000000000000000000000000815260040160405180910390fd5b611560611aef565b600061156c8888611f5d565b80955081925050508073ffffffffffffffffffffffffffffffffffffffff168873ffffffffffffffffffffffffffffffffffffffff163373ffffffffffffffffffffffffffffffffffffffff167f91abcbedcaad3eda62ec73be1f3b200f1beeeb47768774d2aebb0a196238e92d8a886040516115ea9291906139b9565b60405180910390a460006116028986898960006124af565b9150508093505050611612611d0c565b5094509492505050565b611625826107e5565b61162e81611d3e565b6116388383611e5b565b50505050565b7f7ca588b5e450d40c42764eba69cbb46460b25758bda615268602d355e47bc5f261166881611d3e565b8115156006600085815260200190815260200160002060009054906101000a900460ff161515036116c5576040517fb1b7455c00000000000000000000000000000000000000000000000000000000815260040160405180910390fd5b816006600085815260200190815260200160002060006101000a81548160ff021916908315150217905550811515837f40c5bfb9d833b107d80745dd8b8cf040c9a1019f963291743fa1bc595d43964660405160405180910390a3505050565b600061172f611aef565b61173b85858585612971565b9050611745611d0c565b949350505050565b60056020528060005260406000206000915090508060000160009054906101000a900473ffffffffffffffffffffffffffffffffffffffff16908060010160009054906101000a900473ffffffffffffffffffffffffffffffffffffffff16908060020160009054906101000a900473ffffffffffffffffffffffffffffffffffffffff16908060030154908060040154908060050154905086565b600260009054906101000a900473ffffffffffffffffffffffffffffffffffffffff1681565b6000611819612ad9565b905060008160000160089054906101000a900460ff1615905060008260000160009054906101000a900467ffffffffffffffff1690506000808267ffffffffffffffff161480156118675750825b9050600060018367ffffffffffffffff1614801561189c575060003073ffffffffffffffffffffffffffffffffffffffff163b145b9050811580156118aa575080155b156118e1576040517ff92ee8a900000000000000000000000000000000000000000000000000000000815260040160405180910390fd5b60018560000160006101000a81548167ffffffffffffffff021916908367ffffffffffffffff16021790555083156119315760018560000160086101000a81548160ff0219169083151502179055505b611939612b01565b611941612b0b565b61194d89898989612b1d565b88600160006101000a81548173ffffffffffffffffffffffffffffffffffffffff021916908373ffffffffffffffffffffffffffffffffffffffff16021790555087600260006101000a81548173ffffffffffffffffffffffffffffffffffffffff021916908373ffffffffffffffffffffffffffffffffffffffff16021790555086600360006101000a81548173ffffffffffffffffffffffffffffffffffffffff021916908373ffffffffffffffffffffffffffffffffffffffff160217905550611a1d6000801b87611d52565b508315611a7a5760008560000160086101000a81548160ff0219169083151502179055507fc7f505b2f371ae2175ee4913f4499e1f2633a7b5936321eed1cdaeb6115181d26001604051611a719190613ff0565b60405180910390a15b505050505050505050565b60007f01ffc9a7000000000000000000000000000000000000000000000000000000007bffffffffffffffffffffffffffffffffffffffffffffffffffffffff1916827bffffffffffffffffffffffffffffffffffffffffffffffffffffffff1916149050919050565b600260005403611b2b576040517f3ee5aeb500000000000000000000000000000000000000000000000000000000815260040160405180910390fd5b6002600081905550565b600080611b87333088600360009054906101000a900473ffffffffffffffffffffffffffffffffffffffff1673ffffffffffffffffffffffffffffffffffffffff16612c23909392919063ffffffff16565b600360009054906101000a900473ffffffffffffffffffffffffffffffffffffffff1673ffffffffffffffffffffffffffffffffffffffff1663095ea7b3600260009054906101000a900473ffffffffffffffffffffffffffffffffffffffff16886040518363ffffffff1660e01b8152600401611c0692919061400b565b6020604051808303816000875af1158015611c25573d6000803e3d6000fd5b505050506040513d601f19601f82011682018060405250810190611c499190614049565b50600260009054906101000a900473ffffffffffffffffffffffffffffffffffffffff1673ffffffffffffffffffffffffffffffffffffffff166317f692228888886040518463ffffffff1660e01b8152600401611ca993929190614076565b6020604051808303816000875af1158015611cc8573d6000803e3d6000fd5b505050506040513d601f19601f82011682018060405250810190611cec91906140c2565b9150611cfc8783868660016124af565b9050809150509550959350505050565b6001600081905550565b60007f02dd7bc7dec4dceedda775e58dd541e08a116c6c53815c0bd028192f7b626800905090565b611d4f81611d4a611e53565b612ca5565b50565b600080611d5d611d16565b9050611d698484611430565b611e4757600181600001600086815260200190815260200160002060000160008573ffffffffffffffffffffffffffffffffffffffff1673ffffffffffffffffffffffffffffffffffffffff16815260200190815260200160002060006101000a81548160ff021916908315150217905550611de3611e53565b73ffffffffffffffffffffffffffffffffffffffff168373ffffffffffffffffffffffffffffffffffffffff16857f2f8788117e7eff1d82e926ec794901d17c78024a50270940304540a733656f0d60405160405180910390a46001915050611e4d565b60009150505b92915050565b600033905090565b600080611e66611d16565b9050611e728484611430565b15611f5157600081600001600086815260200190815260200160002060000160008573ffffffffffffffffffffffffffffffffffffffff1673ffffffffffffffffffffffffffffffffffffffff16815260200190815260200160002060006101000a81548160ff021916908315150217905550611eed611e53565b73ffffffffffffffffffffffffffffffffffffffff168373ffffffffffffffffffffffffffffffffffffffff16857ff6391f5c32d9c69d2a47ea670b442974b53935d1edc7fd64eb21e047a839171b60405160405180910390a46001915050611f57565b60009150505b92915050565b600080611f6984612cf6565b15611fa0576040517f9fe3c35800000000000000000000000000000000000000000000000000000000815260040160405180910390fd5b6000835103611fdb576040517fb2140a3a00000000000000000000000000000000000000000000000000000000815260040160405180910390fd5b60006005600085600081518110611ff557611ff4613f0f565b5b602002602001015181526020019081526020016000206040518060c00160405290816000820160009054906101000a900473ffffffffffffffffffffffffffffffffffffffff1673ffffffffffffffffffffffffffffffffffffffff1673ffffffffffffffffffffffffffffffffffffffff1681526020016001820160009054906101000a900473ffffffffffffffffffffffffffffffffffffffff1673ffffffffffffffffffffffffffffffffffffffff1673ffffffffffffffffffffffffffffffffffffffff1681526020016002820160009054906101000a900473ffffffffffffffffffffffffffffffffffffffff1673ffffffffffffffffffffffffffffffffffffffff1673ffffffffffffffffffffffffffffffffffffffff168152602001600382015481526020016004820154815260200160058201548152505090508060400151925060005b84518110156124a65760008582815181106121605761215f613f0f565b5b60200260200101519050600560008281526020019081526020016000206040518060c00160405290816000820160009054906101000a900473ffffffffffffffffffffffffffffffffffffffff1673ffffffffffffffffffffffffffffffffffffffff1673ffffffffffffffffffffffffffffffffffffffff1681526020016001820160009054906101000a900473ffffffffffffffffffffffffffffffffffffffff1673ffffffffffffffffffffffffffffffffffffffff1673ffffffffffffffffffffffffffffffffffffffff1681526020016002820160009054906101000a900473ffffffffffffffffffffffffffffffffffffffff1673ffffffffffffffffffffffffffffffffffffffff1673ffffffffffffffffffffffffffffffffffffffff168152602001600382015481526020016004820154815260200160058201548152505092508673ffffffffffffffffffffffffffffffffffffffff16836020015173ffffffffffffffffffffffffffffffffffffffff161461231e57806040517fb5e6545c0000000000000000000000000000000000000000000000000000000081526004016123159190613af4565b60405180910390fd5b428360600151111561236f57804284606001516040517ffe6a6fa2000000000000000000000000000000000000000000000000000000008152600401612366939291906140ef565b60405180910390fd5b3373ffffffffffffffffffffffffffffffffffffffff16836000015173ffffffffffffffffffffffffffffffffffffffff16146123e357806040517fc87a586a0000000000000000000000000000000000000000000000000000000081526004016123da9190613af4565b60405180910390fd5b8260800151846123f39190613f6d565b935060056000828152602001908152602001600020600080820160006101000a81549073ffffffffffffffffffffffffffffffffffffffff02191690556001820160006101000a81549073ffffffffffffffffffffffffffffffffffffffff02191690556002820160006101000a81549073ffffffffffffffffffffffffffffffffffffffff02191690556003820160009055600482016000905560058201600090555050508080600101915050612142565b50509250929050565b600080846006600082815260200190815260200160002060009054906101000a900460ff1661250a576040517fd1514d2300000000000000000000000000000000000000000000000000000000815260040160405180910390fd5b61251388612cf6565b1561254a576040517f9fe3c35800000000000000000000000000000000000000000000000000000000815260040160405180910390fd5b60008703612584576040517f202e8e6100000000000000000000000000000000000000000000000000000000815260040160405180910390fd5b61258d85612cf6565b156125c4576040517f5006d25a00000000000000000000000000000000000000000000000000000000815260040160405180910390fd5b600160009054906101000a900473ffffffffffffffffffffffffffffffffffffffff1673ffffffffffffffffffffffffffffffffffffffff1663e4860339896040518263ffffffff1660e01b815260040161261f9190614126565b602060405180830381865afa15801561263c573d6000803e3d6000fd5b505050506040513d601f19601f820116820180604052508101906126609190614156565b9250600073ffffffffffffffffffffffffffffffffffffffff168373ffffffffffffffffffffffffffffffffffffffff16036126c8576040517f94c08c6000000000000000000000000000000000000000000000000000000000815260040160405180910390fd5b6000600460008154809291906126dd90614183565b91905055905086426126ef9190613f6d565b925060006040518060c001604052808873ffffffffffffffffffffffffffffffffffffffff1681526020018b73ffffffffffffffffffffffffffffffffffffffff1681526020018673ffffffffffffffffffffffffffffffffffffffff1681526020018581526020018a8152602001898152509050806005600084815260200190815260200160002060008201518160000160006101000a81548173ffffffffffffffffffffffffffffffffffffffff021916908373ffffffffffffffffffffffffffffffffffffffff16021790555060208201518160010160006101000a81548173ffffffffffffffffffffffffffffffffffffffff021916908373ffffffffffffffffffffffffffffffffffffffff16021790555060408201518160020160006101000a81548173ffffffffffffffffffffffffffffffffffffffff021916908373ffffffffffffffffffffffffffffffffffffffff160217905550606082015181600301556080820151816004015560a082015181600501559050508473ffffffffffffffffffffffffffffffffffffffff168a73ffffffffffffffffffffffffffffffffffffffff168873ffffffffffffffffffffffffffffffffffffffff167f1aaa1e8094e2ce0b5f18d03ea412f02d59b2c3778c459e63f7d4928befb9488b858d898e8d6040516128ea9594939291906141cb565b60405180910390a45050509550959350505050565b612907612d2e565b60006129116129c0565b905060008160000160006101000a81548160ff0219169083151502179055507f5db9ee0a495bf2e6ff9c91a7834c1ba4fdd244a5e8aa4e537bd38aeae4b073aa612959611e53565b6040516129669190614126565b60405180910390a150565b6000806129828686868660006124af565b80935081925050506129b73330878473ffffffffffffffffffffffffffffffffffffffff16612c23909392919063ffffffff16565b50949350505050565b60007fcd5ed15c6e187e77e9aee88184c21f4f2182ab5827cb3b7e07fbedcd63f03300905090565b612a62838473ffffffffffffffffffffffffffffffffffffffff1663a9059cbb8585604051602401612a1b92919061400b565b604051602081830303815290604052915060e01b6020820180517bffffffffffffffffffffffffffffffffffffffffffffffffffffffff8381831617835250505050612d6e565b505050565b612a6f612e05565b6000612a796129c0565b905060018160000160006101000a81548160ff0219169083151502179055507f62e78cea01bee320cd4e420270b5ea74000d11b0c9f74754ebdbfc544b05a258612ac1611e53565b604051612ace9190614126565b60405180910390a150565b60007ff0c57e16840df040f15088dc2f81fe391c3923bec73e23a9662efc9c229c6a00905090565b612b09612e46565b565b612b13612e46565b612b1b612e86565b565b612b2684612cf6565b15612b5d576040517f0f1fd26d00000000000000000000000000000000000000000000000000000000815260040160405180910390fd5b612b6683612cf6565b15612b9d576040517f788a8b9300000000000000000000000000000000000000000000000000000000815260040160405180910390fd5b612ba682612cf6565b15612bdd576040517fd9cc4a2e00000000000000000000000000000000000000000000000000000000815260040160405180910390fd5b612be681612cf6565b15612c1d576040517fb237eabd00000000000000000000000000000000000000000000000000000000815260040160405180910390fd5b50505050565b612c9f848573ffffffffffffffffffffffffffffffffffffffff166323b872dd868686604051602401612c589392919061421e565b604051602081830303815290604052915060e01b6020820180517bffffffffffffffffffffffffffffffffffffffffffffffffffffffff8381831617835250505050612d6e565b50505050565b612caf8282611430565b612cf25780826040517fe2517d3f000000000000000000000000000000000000000000000000000000008152600401612ce9929190614255565b60405180910390fd5b5050565b60008073ffffffffffffffffffffffffffffffffffffffff168273ffffffffffffffffffffffffffffffffffffffff16149050919050565b612d36610d06565b612d6c576040517f8dfc202b00000000000000000000000000000000000000000000000000000000815260040160405180910390fd5b565b6000612d99828473ffffffffffffffffffffffffffffffffffffffff16612eba90919063ffffffff16565b90506000815114158015612dbe575080806020019051810190612dbc9190614049565b155b15612e0057826040517f5274afe7000000000000000000000000000000000000000000000000000000008152600401612df79190614126565b60405180910390fd5b505050565b612e0d610d06565b15612e44576040517fd93c066500000000000000000000000000000000000000000000000000000000815260040160405180910390fd5b565b612e4e612ed0565b612e84576040517fd7e6bcf800000000000000000000000000000000000000000000000000000000815260040160405180910390fd5b565b612e8e612e46565b6000612e986129c0565b905060008160000160006101000a81548160ff02191690831515021790555050565b6060612ec883836000612ef0565b905092915050565b6000612eda612ad9565b60000160089054906101000a900460ff16905090565b606081471015612f3757306040517fcd786059000000000000000000000000000000000000000000000000000000008152600401612f2e9190614126565b60405180910390fd5b6000808573ffffffffffffffffffffffffffffffffffffffff168486604051612f6091906142ef565b60006040518083038185875af1925050503d8060008114612f9d576040519150601f19603f3d011682016040523d82523d6000602084013e612fa2565b606091505b5091509150612fb2868383612fbd565b925050509392505050565b606082612fd257612fcd8261304c565b613044565b60008251148015612ffa575060008473ffffffffffffffffffffffffffffffffffffffff163b145b1561303c57836040517f9996b3150000000000000000000000000000000000000000000000000000000081526004016130339190614126565b60405180910390fd5b819050613045565b5b9392505050565b60008151111561305f5780518082602001fd5b6040517f1425ea4200000000000000000000000000000000000000000000000000000000815260040160405180910390fd5b6000604051905090565b600080fd5b600080fd5b60007fffffffff0000000000000000000000000000000000000000000000000000000082169050919050565b6130da816130a5565b81146130e557600080fd5b50565b6000813590506130f7816130d1565b92915050565b6000602082840312156131135761311261309b565b5b6000613121848285016130e8565b91505092915050565b60008115159050919050565b61313f8161312a565b82525050565b600060208201905061315a6000830184613136565b92915050565b6000819050919050565b61317381613160565b82525050565b600060208201905061318e600083018461316a565b92915050565b600073ffffffffffffffffffffffffffffffffffffffff82169050919050565b60006131bf82613194565b9050919050565b6131cf816131b4565b81146131da57600080fd5b50565b6000813590506131ec816131c6565b92915050565b6000819050919050565b613205816131f2565b811461321057600080fd5b50565b600081359050613222816131fc565b92915050565b600080600080600060a086880312156132445761324361309b565b5b6000613252888289016131dd565b955050602061326388828901613213565b945050604061327488828901613213565b935050606061328588828901613213565b9250506080613296888289016131dd565b9150509295509295909350565b6132ac816131f2565b82525050565b60006040820190506132c760008301856132a3565b6132d460208301846132a3565b9392505050565b6132e481613160565b81146132ef57600080fd5b50565b600081359050613301816132db565b92915050565b60006020828403121561331d5761331c61309b565b5b600061332b848285016132f2565b91505092915050565b6000819050919050565b600061335961335461334f84613194565b613334565b613194565b9050919050565b600061336b8261333e565b9050919050565b600061337d82613360565b9050919050565b61338d81613372565b82525050565b60006020820190506133a86000830184613384565b92915050565b600080600080608085870312156133c8576133c761309b565b5b60006133d6878288016131dd565b94505060206133e787828801613213565b93505060406133f887828801613213565b925050606061340987828801613213565b91505092959194509250565b6000806040838503121561342c5761342b61309b565b5b600061343a858286016132f2565b925050602061344b858286016131dd565b9150509250929050565b600080fd5b6000601f19601f8301169050919050565b7f4e487b7100000000000000000000000000000000000000000000000000000000600052604160045260246000fd5b6134a38261345a565b810181811067ffffffffffffffff821117156134c2576134c161346b565b5b80604052505050565b60006134d5613091565b90506134e1828261349a565b919050565b600067ffffffffffffffff8211156135015761350061346b565b5b602082029050602081019050919050565b600080fd5b600061352a613525846134e6565b6134cb565b9050808382526020820190506020840283018581111561354d5761354c613512565b5b835b8181101561357657806135628882613213565b84526020840193505060208101905061354f565b5050509392505050565b600082601f83011261359557613594613455565b5b81356135a5848260208601613517565b91505092915050565b6000806000606084860312156135c7576135c661309b565b5b60006135d5868287016131dd565b935050602084013567ffffffffffffffff8111156135f6576135f56130a0565b5b61360286828701613580565b925050604061361386828701613213565b9150509250925092565b600067ffffffffffffffff8211156136385761363761346b565b5b602082029050602081019050919050565b600061365c6136578461361d565b6134cb565b9050808382526020820190506020840283018581111561367f5761367e613512565b5b835b818110156136a8578061369488826131dd565b845260208401935050602081019050613681565b5050509392505050565b600082601f8301126136c7576136c6613455565b5b81356136d7848260208601613649565b91505092915050565b600080600080608085870312156136fa576136f961309b565b5b600085013567ffffffffffffffff811115613718576137176130a0565b5b613724878288016136b2565b945050602085013567ffffffffffffffff811115613745576137446130a0565b5b61375187828801613580565b935050604061376287828801613213565b9250506060613773878288016131dd565b91505092959194509250565b600081519050919050565b600082825260208201905092915050565b6000819050602082019050919050565b6137b4816131f2565b82525050565b60006137c683836137ab565b60208301905092915050565b6000602082019050919050565b60006137ea8261377f565b6137f4818561378a565b93506137ff8361379b565b8060005b8381101561383057815161381788826137ba565b9750613822836137d2565b925050600181019050613803565b5085935050505092915050565b6000602082019050818103600083015261385781846137df565b905092915050565b6000806000606084860312156138785761387761309b565b5b600084013567ffffffffffffffff811115613896576138956130a0565b5b6138a2868287016136b2565b935050602084013567ffffffffffffffff8111156138c3576138c26130a0565b5b6138cf86828701613580565b92505060406138e086828701613213565b9150509250925092565b600080600080600060a086880312156139065761390561309b565b5b600086013567ffffffffffffffff811115613924576139236130a0565b5b613930888289016136b2565b955050602086013567ffffffffffffffff811115613951576139506130a0565b5b61395d88828901613580565b945050604086013567ffffffffffffffff81111561397e5761397d6130a0565b5b61398a88828901613580565b935050606061399b88828901613213565b92505060806139ac888289016131dd565b9150509295509295909350565b600060408201905081810360008301526139d381856137df565b90506139e260208301846132a3565b9392505050565b60006139f482613360565b9050919050565b613a04816139e9565b82525050565b6000602082019050613a1f60008301846139fb565b92915050565b600080fd5b60008083601f840112613a4057613a3f613455565b5b8235905067ffffffffffffffff811115613a5d57613a5c613a25565b5b602083019150836020820283011115613a7957613a78613512565b5b9250929050565b60008060008060608587031215613a9a57613a9961309b565b5b6000613aa8878288016131dd565b9450506020613ab9878288016131dd565b935050604085013567ffffffffffffffff811115613ada57613ad96130a0565b5b613ae687828801613a2a565b925092505092959194509250565b6000602082019050613b0960008301846132a3565b92915050565b60008060408385031215613b2657613b2561309b565b5b6000613b34858286016131dd565b925050602083013567ffffffffffffffff811115613b5557613b546130a0565b5b613b6185828601613580565b9150509250929050565b60008060008060808587031215613b8557613b8461309b565b5b600085013567ffffffffffffffff811115613ba357613ba26130a0565b5b613baf878288016136b2565b945050602085013567ffffffffffffffff811115613bd057613bcf6130a0565b5b613bdc87828801613580565b935050604085013567ffffffffffffffff811115613bfd57613bfc6130a0565b5b613c0987828801613580565b9250506060613c1a87828801613213565b91505092959194509250565b600080600060608486031215613c3f57613c3e61309b565b5b6000613c4d868287016131dd565b9350506020613c5e86828701613213565b9250506040613c6f86828701613213565b9150509250925092565b600060208284031215613c8f57613c8e61309b565b5b6000613c9d84828501613213565b91505092915050565b60008060008060808587031215613cc057613cbf61309b565b5b6000613cce878288016131dd565b945050602085013567ffffffffffffffff811115613cef57613cee6130a0565b5b613cfb87828801613580565b9350506040613d0c87828801613213565b9250506060613d1d878288016131dd565b91505092959194509250565b613d328161312a565b8114613d3d57600080fd5b50565b600081359050613d4f81613d29565b92915050565b60008060408385031215613d6c57613d6b61309b565b5b6000613d7a85828601613213565b9250506020613d8b85828601613d40565b9150509250929050565b60008060008060808587031215613daf57613dae61309b565b5b6000613dbd878288016131dd565b9450506020613dce87828801613213565b9350506040613ddf87828801613213565b9250506060613df0878288016131dd565b91505092959194509250565b613e05816131b4565b82525050565b600060c082019050613e206000830189613dfc565b613e2d6020830188613dfc565b613e3a6040830187613dfc565b613e4760608301866132a3565b613e5460808301856132a3565b613e6160a08301846132a3565b979650505050505050565b6000613e7782613360565b9050919050565b613e8781613e6c565b82525050565b6000602082019050613ea26000830184613e7e565b92915050565b60008060008060808587031215613ec257613ec161309b565b5b6000613ed0878288016131dd565b9450506020613ee1878288016131dd565b9350506040613ef2878288016131dd565b9250506060613f03878288016131dd565b91505092959194509250565b7f4e487b7100000000000000000000000000000000000000000000000000000000600052603260045260246000fd5b7f4e487b7100000000000000000000000000000000000000000000000000000000600052601160045260246000fd5b6000613f78826131f2565b9150613f83836131f2565b9250828201905080821115613f9b57613f9a613f3e565b5b92915050565b6000819050919050565b600067ffffffffffffffff82169050919050565b6000613fda613fd5613fd084613fa1565b613334565b613fab565b9050919050565b613fea81613fbf565b82525050565b60006020820190506140056000830184613fe1565b92915050565b60006040820190506140206000830185613dfc565b61402d60208301846132a3565b9392505050565b60008151905061404381613d29565b92915050565b60006020828403121561405f5761405e61309b565b5b600061406d84828501614034565b91505092915050565b600060608201905061408b6000830186613dfc565b61409860208301856132a3565b6140a560408301846132a3565b949350505050565b6000815190506140bc816131fc565b92915050565b6000602082840312156140d8576140d761309b565b5b60006140e6848285016140ad565b91505092915050565b600060608201905061410460008301866132a3565b61411160208301856132a3565b61411e60408301846132a3565b949350505050565b600060208201905061413b6000830184613dfc565b92915050565b600081519050614150816131c6565b92915050565b60006020828403121561416c5761416b61309b565b5b600061417a84828501614141565b91505092915050565b600061418e826131f2565b91507fffffffffffffffffffffffffffffffffffffffffffffffffffffffffffffffff82036141c0576141bf613f3e565b5b600182019050919050565b600060a0820190506141e060008301886132a3565b6141ed60208301876132a3565b6141fa60408301866132a3565b61420760608301856132a3565b6142146080830184613136565b9695505050505050565b60006060820190506142336000830186613dfc565b6142406020830185613dfc565b61424d60408301846132a3565b949350505050565b600060408201905061426a6000830185613dfc565b614277602083018461316a565b9392505050565b600081519050919050565b600081905092915050565b60005b838110156142b2578082015181840152602081019050614297565b60008484015250505050565b60006142c98261427e565b6142d38185614289565b93506142e3818560208601614294565b80840191505092915050565b60006142fb82846142be565b91508190509291505056fea2646970667358221220b2907fc591c313763f1f0ee1c6099084983a70aee54d41b8b03834060872664864736f6c63430008180033",
  "linkReferences": {},
  "deployedLinkReferences": {}
}